{
	"contracts/Escrow.sol": {
		"Escrow": {
			"abi": [
				{
					"anonymous": false,
					"inputs": [
						{
							"indexed": true,
							"internalType": "address",
							"name": "payee",
							"type": "address"
						},
						{
							"indexed": false,
							"internalType": "uint256",
							"name": "weiAmount",
							"type": "uint256"
						}
					],
					"name": "Deposited",
					"type": "event"
				},
				{
					"anonymous": false,
					"inputs": [
						{
							"indexed": true,
							"internalType": "address",
							"name": "previousOwner",
							"type": "address"
						},
						{
							"indexed": true,
							"internalType": "address",
							"name": "newOwner",
							"type": "address"
						}
					],
					"name": "OwnershipTransferred",
					"type": "event"
				},
				{
					"inputs": [],
					"name": "admin",
					"outputs": [
						{
							"internalType": "address",
							"name": "",
							"type": "address"
						}
					],
					"stateMutability": "view",
					"type": "function"
				},
				{
					"inputs": [],
					"name": "admin_resolution",
					"outputs": [
						{
							"internalType": "string",
							"name": "",
							"type": "string"
						}
					],
					"stateMutability": "view",
					"type": "function"
				},
				{
					"inputs": [],
					"name": "client",
					"outputs": [
						{
							"internalType": "address",
							"name": "",
							"type": "address"
						}
					],
					"stateMutability": "view",
					"type": "function"
				},
				{
					"inputs": [],
					"name": "contractor",
					"outputs": [
						{
							"internalType": "address",
							"name": "",
							"type": "address"
						}
					],
					"stateMutability": "view",
					"type": "function"
				},
				{
					"inputs": [
						{
							"internalType": "address",
							"name": "payee",
							"type": "address"
						},
						{
							"internalType": "address",
							"name": "broker",
							"type": "address"
						}
					],
					"name": "deposit",
					"outputs": [],
					"stateMutability": "payable",
					"type": "function"
				},
				{
					"inputs": [],
					"name": "owner",
					"outputs": [
						{
							"internalType": "address",
							"name": "",
							"type": "address"
						}
					],
					"stateMutability": "view",
					"type": "function"
				},
				{
					"inputs": [],
					"name": "renounceOwnership",
					"outputs": [],
					"stateMutability": "nonpayable",
					"type": "function"
				},
				{
					"inputs": [],
					"name": "taskCompleted",
					"outputs": [
						{
							"internalType": "bool",
							"name": "",
							"type": "bool"
						}
					],
					"stateMutability": "view",
					"type": "function"
				},
				{
					"inputs": [],
					"name": "taskValidated",
					"outputs": [
						{
							"internalType": "bool",
							"name": "",
							"type": "bool"
						}
					],
					"stateMutability": "view",
					"type": "function"
				},
				{
					"inputs": [
						{
							"internalType": "address",
							"name": "newOwner",
							"type": "address"
						}
					],
					"name": "transferOwnership",
					"outputs": [],
					"stateMutability": "nonpayable",
					"type": "function"
				},
				{
					"inputs": [],
					"name": "withdrawalAllowed",
					"outputs": [
						{
							"internalType": "bool",
							"name": "",
							"type": "bool"
						}
					],
					"stateMutability": "view",
					"type": "function"
				}
			],
			"devdoc": {
				"kind": "dev",
				"methods": {
					"owner()": {
						"details": "Returns the address of the current owner."
					},
					"renounceOwnership()": {
						"details": "Leaves the contract without owner. It will not be possible to call `onlyOwner` functions anymore. Can only be called by the current owner. NOTE: Renouncing ownership will leave the contract without an owner, thereby removing any functionality that is only available to the owner."
					},
					"transferOwnership(address)": {
						"details": "Transfers ownership of the contract to a new account (`newOwner`). Can only be called by the current owner."
					}
				},
				"version": 1
			},
			"evm": {
				"assembly": "    /* \"contracts/Escrow.sol\":238:1716  contract Escrow is Ownable {... */\n  mstore(0x40, 0x80)\n    /* \"contracts/Escrow.sol\":893:897  true */\n  0x01\n    /* \"contracts/Escrow.sol\":865:897  bool public taskCompleted = true */\n  0x05\n  exp(0x0100, 0x00)\n  dup2\n  sload\n  dup2\n  0xff\n  mul\n  not\n  and\n  swap1\n  dup4\n  iszero\n  iszero\n  mul\n  or\n  swap1\n  sstore\n  pop\n    /* \"contracts/Escrow.sol\":931:935  true */\n  0x01\n    /* \"contracts/Escrow.sol\":903:935  bool public taskValidated = true */\n  0x05\n  exp(0x0100, 0x01)\n  dup2\n  sload\n  dup2\n  0xff\n  mul\n  not\n  and\n  swap1\n  dup4\n  iszero\n  iszero\n  mul\n  or\n  swap1\n  sstore\n  pop\n    /* \"contracts/Escrow.sol\":941:978  string public admin_resolution = \"\"\"\" */\n  mload(0x40)\n  dup1\n  0x20\n  add\n  0x40\n  mstore\n  dup1\n  0x00\n  dup2\n  mstore\n  pop\n  0x06\n  swap1\n  dup1\n  mload\n  swap1\n  0x20\n  add\n  swap1\n  tag_1\n  swap3\n  swap2\n  swap1\n  tag_2\n  jump\t// in\ntag_1:\n  pop\n    /* \"contracts/Escrow.sol\":238:1716  contract Escrow is Ownable {... */\n  callvalue\n  dup1\n  iszero\n  tag_3\n  jumpi\n  0x00\n  dup1\n  revert\ntag_3:\n  pop\n    /* \"@openzeppelin/contracts/access/Ownable.sol\":936:968  _transferOwnership(_msgSender()) */\n  tag_6\n    /* \"@openzeppelin/contracts/access/Ownable.sol\":955:967  _msgSender() */\n  tag_7\n    /* \"@openzeppelin/contracts/access/Ownable.sol\":955:965  _msgSender */\n  shl(0x20, tag_8)\n    /* \"@openzeppelin/contracts/access/Ownable.sol\":955:967  _msgSender() */\n  0x20\n  shr\n  jump\t// in\ntag_7:\n    /* \"@openzeppelin/contracts/access/Ownable.sol\":936:954  _transferOwnership */\n  shl(0x20, tag_9)\n    /* \"@openzeppelin/contracts/access/Ownable.sol\":936:968  _transferOwnership(_msgSender()) */\n  0x20\n  shr\n  jump\t// in\ntag_6:\n    /* \"contracts/Escrow.sol\":238:1716  contract Escrow is Ownable {... */\n  jump(tag_10)\n    /* \"@openzeppelin/contracts/utils/Context.sol\":640:736  function _msgSender() internal view virtual returns (address) {... */\ntag_8:\n    /* \"@openzeppelin/contracts/utils/Context.sol\":693:700  address */\n  0x00\n    /* \"@openzeppelin/contracts/utils/Context.sol\":719:729  msg.sender */\n  caller\n    /* \"@openzeppelin/contracts/utils/Context.sol\":712:729  return msg.sender */\n  swap1\n  pop\n    /* \"@openzeppelin/contracts/utils/Context.sol\":640:736  function _msgSender() internal view virtual returns (address) {... */\n  swap1\n  jump\t// out\n    /* \"@openzeppelin/contracts/access/Ownable.sol\":2433:2620  function _transferOwnership(address newOwner) internal virtual {... */\ntag_9:\n    /* \"@openzeppelin/contracts/access/Ownable.sol\":2506:2522  address oldOwner */\n  0x00\n    /* \"@openzeppelin/contracts/access/Ownable.sol\":2525:2531  _owner */\n  dup1\n  0x00\n  swap1\n  sload\n  swap1\n  0x0100\n  exp\n  swap1\n  div\n  0xffffffffffffffffffffffffffffffffffffffff\n  and\n    /* \"@openzeppelin/contracts/access/Ownable.sol\":2506:2531  address oldOwner = _owner */\n  swap1\n  pop\n    /* \"@openzeppelin/contracts/access/Ownable.sol\":2550:2558  newOwner */\n  dup2\n    /* \"@openzeppelin/contracts/access/Ownable.sol\":2541:2547  _owner */\n  0x00\n  dup1\n    /* \"@openzeppelin/contracts/access/Ownable.sol\":2541:2558  _owner = newOwner */\n  0x0100\n  exp\n  dup2\n  sload\n  dup2\n  0xffffffffffffffffffffffffffffffffffffffff\n  mul\n  not\n  and\n  swap1\n  dup4\n  0xffffffffffffffffffffffffffffffffffffffff\n  and\n  mul\n  or\n  swap1\n  sstore\n  pop\n    /* \"@openzeppelin/contracts/access/Ownable.sol\":2604:2612  newOwner */\n  dup2\n    /* \"@openzeppelin/contracts/access/Ownable.sol\":2573:2613  OwnershipTransferred(oldOwner, newOwner) */\n  0xffffffffffffffffffffffffffffffffffffffff\n  and\n    /* \"@openzeppelin/contracts/access/Ownable.sol\":2594:2602  oldOwner */\n  dup2\n    /* \"@openzeppelin/contracts/access/Ownable.sol\":2573:2613  OwnershipTransferred(oldOwner, newOwner) */\n  0xffffffffffffffffffffffffffffffffffffffff\n  and\n  0x8be0079c531659141344cd1fd0a4f28419497f9722a3daafe3b4186f6b6457e0\n  mload(0x40)\n  mload(0x40)\n  dup1\n  swap2\n  sub\n  swap1\n  log3\n    /* \"@openzeppelin/contracts/access/Ownable.sol\":2496:2620  {... */\n  pop\n    /* \"@openzeppelin/contracts/access/Ownable.sol\":2433:2620  function _transferOwnership(address newOwner) internal virtual {... */\n  pop\n  jump\t// out\n    /* \"contracts/Escrow.sol\":238:1716  contract Escrow is Ownable {... */\ntag_2:\n  dup3\n  dup1\n  sload\n  tag_13\n  swap1\n  tag_14\n  jump\t// in\ntag_13:\n  swap1\n  0x00\n  mstore\n  keccak256(0x00, 0x20)\n  swap1\n  0x1f\n  add\n  0x20\n  swap1\n  div\n  dup2\n  add\n  swap3\n  dup3\n  tag_16\n  jumpi\n  0x00\n  dup6\n  sstore\n  jump(tag_15)\ntag_16:\n  dup3\n  0x1f\n  lt\n  tag_17\n  jumpi\n  dup1\n  mload\n  not(0xff)\n  and\n  dup4\n  dup1\n  add\n  or\n  dup6\n  sstore\n  jump(tag_15)\ntag_17:\n  dup3\n  dup1\n  add\n  0x01\n  add\n  dup6\n  sstore\n  dup3\n  iszero\n  tag_15\n  jumpi\n  swap2\n  dup3\n  add\ntag_18:\n  dup3\n  dup2\n  gt\n  iszero\n  tag_19\n  jumpi\n  dup3\n  mload\n  dup3\n  sstore\n  swap2\n  0x20\n  add\n  swap2\n  swap1\n  0x01\n  add\n  swap1\n  jump(tag_18)\ntag_19:\ntag_15:\n  pop\n  swap1\n  pop\n  tag_20\n  swap2\n  swap1\n  tag_21\n  jump\t// in\ntag_20:\n  pop\n  swap1\n  jump\t// out\ntag_21:\ntag_22:\n  dup1\n  dup3\n  gt\n  iszero\n  tag_23\n  jumpi\n  0x00\n  dup2\n  0x00\n  swap1\n  sstore\n  pop\n  0x01\n  add\n  jump(tag_22)\ntag_23:\n  pop\n  swap1\n  jump\t// out\n    /* \"#utility.yul\":7:327   */\ntag_14:\n    /* \"#utility.yul\":51:57   */\n  0x00\n    /* \"#utility.yul\":88:89   */\n  0x02\n    /* \"#utility.yul\":82:86   */\n  dup3\n    /* \"#utility.yul\":78:90   */\n  div\n    /* \"#utility.yul\":68:90   */\n  swap1\n  pop\n    /* \"#utility.yul\":135:136   */\n  0x01\n    /* \"#utility.yul\":129:133   */\n  dup3\n    /* \"#utility.yul\":125:137   */\n  and\n    /* \"#utility.yul\":156:174   */\n  dup1\n    /* \"#utility.yul\":146:227   */\n  tag_26\n  jumpi\n    /* \"#utility.yul\":212:216   */\n  0x7f\n    /* \"#utility.yul\":204:210   */\n  dup3\n    /* \"#utility.yul\":200:217   */\n  and\n    /* \"#utility.yul\":190:217   */\n  swap2\n  pop\n    /* \"#utility.yul\":146:227   */\ntag_26:\n    /* \"#utility.yul\":274:276   */\n  0x20\n    /* \"#utility.yul\":266:272   */\n  dup3\n    /* \"#utility.yul\":263:277   */\n  lt\n    /* \"#utility.yul\":243:261   */\n  dup2\n    /* \"#utility.yul\":240:278   */\n  eq\n    /* \"#utility.yul\":237:321   */\n  iszero\n  tag_27\n  jumpi\n    /* \"#utility.yul\":293:311   */\n  tag_28\n  tag_29\n  jump\t// in\ntag_28:\n    /* \"#utility.yul\":237:321   */\ntag_27:\n    /* \"#utility.yul\":58:327   */\n  pop\n    /* \"#utility.yul\":7:327   */\n  swap2\n  swap1\n  pop\n  jump\t// out\n    /* \"#utility.yul\":333:513   */\ntag_29:\n    /* \"#utility.yul\":381:458   */\n  0x4e487b7100000000000000000000000000000000000000000000000000000000\n    /* \"#utility.yul\":378:379   */\n  0x00\n    /* \"#utility.yul\":371:459   */\n  mstore\n    /* \"#utility.yul\":478:482   */\n  0x22\n    /* \"#utility.yul\":475:476   */\n  0x04\n    /* \"#utility.yul\":468:483   */\n  mstore\n    /* \"#utility.yul\":502:506   */\n  0x24\n    /* \"#utility.yul\":499:500   */\n  0x00\n    /* \"#utility.yul\":492:507   */\n  revert\n    /* \"contracts/Escrow.sol\":238:1716  contract Escrow is Ownable {... */\ntag_10:\n  dataSize(sub_0)\n  dup1\n  dataOffset(sub_0)\n  0x00\n  codecopy\n  0x00\n  return\nstop\n\nsub_0: assembly {\n        /* \"contracts/Escrow.sol\":238:1716  contract Escrow is Ownable {... */\n      mstore(0x40, 0x80)\n      jumpi(tag_1, lt(calldatasize, 0x04))\n      shr(0xe0, calldataload(0x00))\n      dup1\n      0xbd2e62c5\n      gt\n      tag_13\n      jumpi\n      dup1\n      0xbd2e62c5\n      eq\n      tag_7\n      jumpi\n      dup1\n      0xf2fde38b\n      eq\n      tag_8\n      jumpi\n      dup1\n      0xf7317f00\n      eq\n      tag_9\n      jumpi\n      dup1\n      0xf851a440\n      eq\n      tag_10\n      jumpi\n      dup1\n      0xf9609f08\n      eq\n      tag_11\n      jumpi\n      dup1\n      0xfbfd2045\n      eq\n      tag_12\n      jumpi\n      jump(tag_1)\n    tag_13:\n      dup1\n      0x0d823447\n      eq\n      tag_2\n      jumpi\n      dup1\n      0x109e94cf\n      eq\n      tag_3\n      jumpi\n      dup1\n      0x715018a6\n      eq\n      tag_4\n      jumpi\n      dup1\n      0x8da5cb5b\n      eq\n      tag_5\n      jumpi\n      dup1\n      0xa1d19361\n      eq\n      tag_6\n      jumpi\n    tag_1:\n      0x00\n      dup1\n      revert\n        /* \"contracts/Escrow.sol\":941:978  string public admin_resolution = \"\"\"\" */\n    tag_2:\n      callvalue\n      dup1\n      iszero\n      tag_14\n      jumpi\n      0x00\n      dup1\n      revert\n    tag_14:\n      pop\n      tag_15\n      tag_16\n      jump\t// in\n    tag_15:\n      mload(0x40)\n      tag_17\n      swap2\n      swap1\n      tag_18\n      jump\t// in\n    tag_17:\n      mload(0x40)\n      dup1\n      swap2\n      sub\n      swap1\n      return\n        /* \"contracts/Escrow.sol\":445:466  address public client */\n    tag_3:\n      callvalue\n      dup1\n      iszero\n      tag_19\n      jumpi\n      0x00\n      dup1\n      revert\n    tag_19:\n      pop\n      tag_20\n      tag_21\n      jump\t// in\n    tag_20:\n      mload(0x40)\n      tag_22\n      swap2\n      swap1\n      tag_23\n      jump\t// in\n    tag_22:\n      mload(0x40)\n      dup1\n      swap2\n      sub\n      swap1\n      return\n        /* \"@openzeppelin/contracts/access/Ownable.sol\":1831:1932  function renounceOwnership() public virtual onlyOwner {... */\n    tag_4:\n      callvalue\n      dup1\n      iszero\n      tag_24\n      jumpi\n      0x00\n      dup1\n      revert\n    tag_24:\n      pop\n      tag_25\n      tag_26\n      jump\t// in\n    tag_25:\n      stop\n        /* \"@openzeppelin/contracts/access/Ownable.sol\":1201:1286  function owner() public view virtual returns (address) {... */\n    tag_5:\n      callvalue\n      dup1\n      iszero\n      tag_27\n      jumpi\n      0x00\n      dup1\n      revert\n    tag_27:\n      pop\n      tag_28\n      tag_29\n      jump\t// in\n    tag_28:\n      mload(0x40)\n      tag_30\n      swap2\n      swap1\n      tag_23\n      jump\t// in\n    tag_30:\n      mload(0x40)\n      dup1\n      swap2\n      sub\n      swap1\n      return\n        /* \"contracts/Escrow.sol\":1300:1494  function withdrawalAllowed() public view virtual returns (bool){... */\n    tag_6:\n      callvalue\n      dup1\n      iszero\n      tag_31\n      jumpi\n      0x00\n      dup1\n      revert\n    tag_31:\n      pop\n      tag_32\n      tag_33\n      jump\t// in\n    tag_32:\n      mload(0x40)\n      tag_34\n      swap2\n      swap1\n      tag_35\n      jump\t// in\n    tag_34:\n      mload(0x40)\n      dup1\n      swap2\n      sub\n      swap1\n      return\n        /* \"contracts/Escrow.sol\":903:935  bool public taskValidated = true */\n    tag_7:\n      callvalue\n      dup1\n      iszero\n      tag_36\n      jumpi\n      0x00\n      dup1\n      revert\n    tag_36:\n      pop\n      tag_37\n      tag_38\n      jump\t// in\n    tag_37:\n      mload(0x40)\n      tag_39\n      swap2\n      swap1\n      tag_35\n      jump\t// in\n    tag_39:\n      mload(0x40)\n      dup1\n      swap2\n      sub\n      swap1\n      return\n        /* \"@openzeppelin/contracts/access/Ownable.sol\":2081:2279  function transferOwnership(address newOwner) public virtual onlyOwner {... */\n    tag_8:\n      callvalue\n      dup1\n      iszero\n      tag_40\n      jumpi\n      0x00\n      dup1\n      revert\n    tag_40:\n      pop\n      tag_41\n      0x04\n      dup1\n      calldatasize\n      sub\n      dup2\n      add\n      swap1\n      tag_42\n      swap2\n      swap1\n      tag_43\n      jump\t// in\n    tag_42:\n      tag_44\n      jump\t// in\n    tag_41:\n      stop\n        /* \"contracts/Escrow.sol\":865:897  bool public taskCompleted = true */\n    tag_9:\n      callvalue\n      dup1\n      iszero\n      tag_45\n      jumpi\n      0x00\n      dup1\n      revert\n    tag_45:\n      pop\n      tag_46\n      tag_47\n      jump\t// in\n    tag_46:\n      mload(0x40)\n      tag_48\n      swap2\n      swap1\n      tag_35\n      jump\t// in\n    tag_48:\n      mload(0x40)\n      dup1\n      swap2\n      sub\n      swap1\n      return\n        /* \"contracts/Escrow.sol\":472:492  address public admin */\n    tag_10:\n      callvalue\n      dup1\n      iszero\n      tag_49\n      jumpi\n      0x00\n      dup1\n      revert\n    tag_49:\n      pop\n      tag_50\n      tag_51\n      jump\t// in\n    tag_50:\n      mload(0x40)\n      tag_52\n      swap2\n      swap1\n      tag_23\n      jump\t// in\n    tag_52:\n      mload(0x40)\n      dup1\n      swap2\n      sub\n      swap1\n      return\n        /* \"contracts/Escrow.sol\":551:829  function deposit(address payee, address broker) public payable virtual onlyOwner {... */\n    tag_11:\n      tag_53\n      0x04\n      dup1\n      calldatasize\n      sub\n      dup2\n      add\n      swap1\n      tag_54\n      swap2\n      swap1\n      tag_55\n      jump\t// in\n    tag_54:\n      tag_56\n      jump\t// in\n    tag_53:\n      stop\n        /* \"contracts/Escrow.sol\":414:439  address public contractor */\n    tag_12:\n      callvalue\n      dup1\n      iszero\n      tag_57\n      jumpi\n      0x00\n      dup1\n      revert\n    tag_57:\n      pop\n      tag_58\n      tag_59\n      jump\t// in\n    tag_58:\n      mload(0x40)\n      tag_60\n      swap2\n      swap1\n      tag_23\n      jump\t// in\n    tag_60:\n      mload(0x40)\n      dup1\n      swap2\n      sub\n      swap1\n      return\n        /* \"contracts/Escrow.sol\":941:978  string public admin_resolution = \"\"\"\" */\n    tag_16:\n      0x06\n      dup1\n      sload\n      tag_61\n      swap1\n      tag_62\n      jump\t// in\n    tag_61:\n      dup1\n      0x1f\n      add\n      0x20\n      dup1\n      swap2\n      div\n      mul\n      0x20\n      add\n      mload(0x40)\n      swap1\n      dup2\n      add\n      0x40\n      mstore\n      dup1\n      swap3\n      swap2\n      swap1\n      dup2\n      dup2\n      mstore\n      0x20\n      add\n      dup3\n      dup1\n      sload\n      tag_63\n      swap1\n      tag_62\n      jump\t// in\n    tag_63:\n      dup1\n      iszero\n      tag_64\n      jumpi\n      dup1\n      0x1f\n      lt\n      tag_65\n      jumpi\n      0x0100\n      dup1\n      dup4\n      sload\n      div\n      mul\n      dup4\n      mstore\n      swap2\n      0x20\n      add\n      swap2\n      jump(tag_64)\n    tag_65:\n      dup3\n      add\n      swap2\n      swap1\n      0x00\n      mstore\n      keccak256(0x00, 0x20)\n      swap1\n    tag_66:\n      dup2\n      sload\n      dup2\n      mstore\n      swap1\n      0x01\n      add\n      swap1\n      0x20\n      add\n      dup1\n      dup4\n      gt\n      tag_66\n      jumpi\n      dup3\n      swap1\n      sub\n      0x1f\n      and\n      dup3\n      add\n      swap2\n    tag_64:\n      pop\n      pop\n      pop\n      pop\n      pop\n      dup2\n      jump\t// out\n        /* \"contracts/Escrow.sol\":445:466  address public client */\n    tag_21:\n      0x02\n      0x00\n      swap1\n      sload\n      swap1\n      0x0100\n      exp\n      swap1\n      div\n      0xffffffffffffffffffffffffffffffffffffffff\n      and\n      dup2\n      jump\t// out\n        /* \"@openzeppelin/contracts/access/Ownable.sol\":1831:1932  function renounceOwnership() public virtual onlyOwner {... */\n    tag_26:\n        /* \"@openzeppelin/contracts/access/Ownable.sol\":1094:1107  _checkOwner() */\n      tag_68\n        /* \"@openzeppelin/contracts/access/Ownable.sol\":1094:1105  _checkOwner */\n      tag_69\n        /* \"@openzeppelin/contracts/access/Ownable.sol\":1094:1107  _checkOwner() */\n      jump\t// in\n    tag_68:\n        /* \"@openzeppelin/contracts/access/Ownable.sol\":1895:1925  _transferOwnership(address(0)) */\n      tag_71\n        /* \"@openzeppelin/contracts/access/Ownable.sol\":1922:1923  0 */\n      0x00\n        /* \"@openzeppelin/contracts/access/Ownable.sol\":1895:1913  _transferOwnership */\n      tag_72\n        /* \"@openzeppelin/contracts/access/Ownable.sol\":1895:1925  _transferOwnership(address(0)) */\n      jump\t// in\n    tag_71:\n        /* \"@openzeppelin/contracts/access/Ownable.sol\":1831:1932  function renounceOwnership() public virtual onlyOwner {... */\n      jump\t// out\n        /* \"@openzeppelin/contracts/access/Ownable.sol\":1201:1286  function owner() public view virtual returns (address) {... */\n    tag_29:\n        /* \"@openzeppelin/contracts/access/Ownable.sol\":1247:1254  address */\n      0x00\n        /* \"@openzeppelin/contracts/access/Ownable.sol\":1273:1279  _owner */\n      dup1\n      0x00\n      swap1\n      sload\n      swap1\n      0x0100\n      exp\n      swap1\n      div\n      0xffffffffffffffffffffffffffffffffffffffff\n      and\n        /* \"@openzeppelin/contracts/access/Ownable.sol\":1266:1279  return _owner */\n      swap1\n      pop\n        /* \"@openzeppelin/contracts/access/Ownable.sol\":1201:1286  function owner() public view virtual returns (address) {... */\n      swap1\n      jump\t// out\n        /* \"contracts/Escrow.sol\":1300:1494  function withdrawalAllowed() public view virtual returns (bool){... */\n    tag_33:\n        /* \"contracts/Escrow.sol\":1358:1362  bool */\n      0x00\n        /* \"contracts/Escrow.sol\":1393:1397  true */\n      0x01\n        /* \"contracts/Escrow.sol\":1376:1397  taskCompleted == true */\n      iszero\n      iszero\n        /* \"contracts/Escrow.sol\":1376:1389  taskCompleted */\n      0x05\n      0x00\n      swap1\n      sload\n      swap1\n      0x0100\n      exp\n      swap1\n      div\n      0xff\n      and\n        /* \"contracts/Escrow.sol\":1376:1397  taskCompleted == true */\n      iszero\n      iszero\n      eq\n        /* \"contracts/Escrow.sol\":1376:1422  taskCompleted == true && taskValidated == true */\n      dup1\n      iszero\n      tag_75\n      jumpi\n      pop\n        /* \"contracts/Escrow.sol\":1418:1422  true */\n      0x01\n        /* \"contracts/Escrow.sol\":1401:1422  taskValidated == true */\n      iszero\n      iszero\n        /* \"contracts/Escrow.sol\":1401:1414  taskValidated */\n      0x05\n      0x01\n      swap1\n      sload\n      swap1\n      0x0100\n      exp\n      swap1\n      div\n      0xff\n      and\n        /* \"contracts/Escrow.sol\":1401:1422  taskValidated == true */\n      iszero\n      iszero\n      eq\n        /* \"contracts/Escrow.sol\":1376:1422  taskCompleted == true && taskValidated == true */\n    tag_75:\n        /* \"contracts/Escrow.sol\":1373:1488  if(taskCompleted == true && taskValidated == true){... */\n      iszero\n      tag_76\n      jumpi\n        /* \"contracts/Escrow.sol\":1444:1448  true */\n      0x01\n        /* \"contracts/Escrow.sol\":1437:1448  return true */\n      swap1\n      pop\n      jump(tag_74)\n        /* \"contracts/Escrow.sol\":1373:1488  if(taskCompleted == true && taskValidated == true){... */\n    tag_76:\n        /* \"contracts/Escrow.sol\":1481:1486  false */\n      0x00\n        /* \"contracts/Escrow.sol\":1474:1486  return false */\n      swap1\n      pop\n        /* \"contracts/Escrow.sol\":1300:1494  function withdrawalAllowed() public view virtual returns (bool){... */\n    tag_74:\n      swap1\n      jump\t// out\n        /* \"contracts/Escrow.sol\":903:935  bool public taskValidated = true */\n    tag_38:\n      0x05\n      0x01\n      swap1\n      sload\n      swap1\n      0x0100\n      exp\n      swap1\n      div\n      0xff\n      and\n      dup2\n      jump\t// out\n        /* \"@openzeppelin/contracts/access/Ownable.sol\":2081:2279  function transferOwnership(address newOwner) public virtual onlyOwner {... */\n    tag_44:\n        /* \"@openzeppelin/contracts/access/Ownable.sol\":1094:1107  _checkOwner() */\n      tag_79\n        /* \"@openzeppelin/contracts/access/Ownable.sol\":1094:1105  _checkOwner */\n      tag_69\n        /* \"@openzeppelin/contracts/access/Ownable.sol\":1094:1107  _checkOwner() */\n      jump\t// in\n    tag_79:\n        /* \"@openzeppelin/contracts/access/Ownable.sol\":2189:2190  0 */\n      0x00\n        /* \"@openzeppelin/contracts/access/Ownable.sol\":2169:2191  newOwner != address(0) */\n      0xffffffffffffffffffffffffffffffffffffffff\n      and\n        /* \"@openzeppelin/contracts/access/Ownable.sol\":2169:2177  newOwner */\n      dup2\n        /* \"@openzeppelin/contracts/access/Ownable.sol\":2169:2191  newOwner != address(0) */\n      0xffffffffffffffffffffffffffffffffffffffff\n      and\n      eq\n      iszero\n        /* \"@openzeppelin/contracts/access/Ownable.sol\":2161:2234  require(newOwner != address(0), \"Ownable: new owner is the zero address\") */\n      tag_81\n      jumpi\n      mload(0x40)\n      0x08c379a000000000000000000000000000000000000000000000000000000000\n      dup2\n      mstore\n      0x04\n      add\n      tag_82\n      swap1\n      tag_83\n      jump\t// in\n    tag_82:\n      mload(0x40)\n      dup1\n      swap2\n      sub\n      swap1\n      revert\n    tag_81:\n        /* \"@openzeppelin/contracts/access/Ownable.sol\":2244:2272  _transferOwnership(newOwner) */\n      tag_84\n        /* \"@openzeppelin/contracts/access/Ownable.sol\":2263:2271  newOwner */\n      dup2\n        /* \"@openzeppelin/contracts/access/Ownable.sol\":2244:2262  _transferOwnership */\n      tag_72\n        /* \"@openzeppelin/contracts/access/Ownable.sol\":2244:2272  _transferOwnership(newOwner) */\n      jump\t// in\n    tag_84:\n        /* \"@openzeppelin/contracts/access/Ownable.sol\":2081:2279  function transferOwnership(address newOwner) public virtual onlyOwner {... */\n      pop\n      jump\t// out\n        /* \"contracts/Escrow.sol\":865:897  bool public taskCompleted = true */\n    tag_47:\n      0x05\n      0x00\n      swap1\n      sload\n      swap1\n      0x0100\n      exp\n      swap1\n      div\n      0xff\n      and\n      dup2\n      jump\t// out\n        /* \"contracts/Escrow.sol\":472:492  address public admin */\n    tag_51:\n      0x03\n      0x00\n      swap1\n      sload\n      swap1\n      0x0100\n      exp\n      swap1\n      div\n      0xffffffffffffffffffffffffffffffffffffffff\n      and\n      dup2\n      jump\t// out\n        /* \"contracts/Escrow.sol\":551:829  function deposit(address payee, address broker) public payable virtual onlyOwner {... */\n    tag_56:\n        /* \"@openzeppelin/contracts/access/Ownable.sol\":1094:1107  _checkOwner() */\n      tag_86\n        /* \"@openzeppelin/contracts/access/Ownable.sol\":1094:1105  _checkOwner */\n      tag_69\n        /* \"@openzeppelin/contracts/access/Ownable.sol\":1094:1107  _checkOwner() */\n      jump\t// in\n    tag_86:\n        /* \"contracts/Escrow.sol\":655:660  payee */\n      dup2\n        /* \"contracts/Escrow.sol\":642:652  contractor */\n      0x01\n      0x00\n        /* \"contracts/Escrow.sol\":642:660  contractor = payee */\n      0x0100\n      exp\n      dup2\n      sload\n      dup2\n      0xffffffffffffffffffffffffffffffffffffffff\n      mul\n      not\n      and\n      swap1\n      dup4\n      0xffffffffffffffffffffffffffffffffffffffff\n      and\n      mul\n      or\n      swap1\n      sstore\n      pop\n        /* \"contracts/Escrow.sol\":677:687  msg.sender */\n      caller\n        /* \"contracts/Escrow.sol\":670:676  client */\n      0x02\n      0x00\n        /* \"contracts/Escrow.sol\":670:687  client=msg.sender */\n      0x0100\n      exp\n      dup2\n      sload\n      dup2\n      0xffffffffffffffffffffffffffffffffffffffff\n      mul\n      not\n      and\n      swap1\n      dup4\n      0xffffffffffffffffffffffffffffffffffffffff\n      and\n      mul\n      or\n      swap1\n      sstore\n      pop\n        /* \"contracts/Escrow.sol\":705:711  broker */\n      dup1\n        /* \"contracts/Escrow.sol\":697:702  admin */\n      0x03\n      0x00\n        /* \"contracts/Escrow.sol\":697:711  admin = broker */\n      0x0100\n      exp\n      dup2\n      sload\n      dup2\n      0xffffffffffffffffffffffffffffffffffffffff\n      mul\n      not\n      and\n      swap1\n      dup4\n      0xffffffffffffffffffffffffffffffffffffffff\n      and\n      mul\n      or\n      swap1\n      sstore\n      pop\n        /* \"contracts/Escrow.sol\":721:735  uint256 amount */\n      0x00\n        /* \"contracts/Escrow.sol\":738:747  msg.value */\n      callvalue\n        /* \"contracts/Escrow.sol\":721:747  uint256 amount = msg.value */\n      swap1\n      pop\n        /* \"contracts/Escrow.sol\":777:783  amount */\n      dup1\n        /* \"contracts/Escrow.sol\":757:766  _deposits */\n      0x04\n        /* \"contracts/Escrow.sol\":757:773  _deposits[payee] */\n      0x00\n        /* \"contracts/Escrow.sol\":767:772  payee */\n      dup6\n        /* \"contracts/Escrow.sol\":757:773  _deposits[payee] */\n      0xffffffffffffffffffffffffffffffffffffffff\n      and\n      0xffffffffffffffffffffffffffffffffffffffff\n      and\n      dup2\n      mstore\n      0x20\n      add\n      swap1\n      dup2\n      mstore\n      0x20\n      add\n      0x00\n      keccak256\n      0x00\n        /* \"contracts/Escrow.sol\":757:783  _deposits[payee] += amount */\n      dup3\n      dup3\n      sload\n      tag_88\n      swap2\n      swap1\n      tag_89\n      jump\t// in\n    tag_88:\n      swap3\n      pop\n      pop\n      dup2\n      swap1\n      sstore\n      pop\n        /* \"contracts/Escrow.sol\":808:813  payee */\n      dup3\n        /* \"contracts/Escrow.sol\":798:822  Deposited(payee, amount) */\n      0xffffffffffffffffffffffffffffffffffffffff\n      and\n      0x2da466a7b24304f47e87fa2e1e5a81b9831ce54fec19055ce277ca2f39ba42c4\n        /* \"contracts/Escrow.sol\":815:821  amount */\n      dup3\n        /* \"contracts/Escrow.sol\":798:822  Deposited(payee, amount) */\n      mload(0x40)\n      tag_90\n      swap2\n      swap1\n      tag_91\n      jump\t// in\n    tag_90:\n      mload(0x40)\n      dup1\n      swap2\n      sub\n      swap1\n      log2\n        /* \"contracts/Escrow.sol\":632:829  {... */\n      pop\n        /* \"contracts/Escrow.sol\":551:829  function deposit(address payee, address broker) public payable virtual onlyOwner {... */\n      pop\n      pop\n      jump\t// out\n        /* \"contracts/Escrow.sol\":414:439  address public contractor */\n    tag_59:\n      0x01\n      0x00\n      swap1\n      sload\n      swap1\n      0x0100\n      exp\n      swap1\n      div\n      0xffffffffffffffffffffffffffffffffffffffff\n      and\n      dup2\n      jump\t// out\n        /* \"@openzeppelin/contracts/access/Ownable.sol\":1359:1489  function _checkOwner() internal view virtual {... */\n    tag_69:\n        /* \"@openzeppelin/contracts/access/Ownable.sol\":1433:1445  _msgSender() */\n      tag_93\n        /* \"@openzeppelin/contracts/access/Ownable.sol\":1433:1443  _msgSender */\n      tag_94\n        /* \"@openzeppelin/contracts/access/Ownable.sol\":1433:1445  _msgSender() */\n      jump\t// in\n    tag_93:\n        /* \"@openzeppelin/contracts/access/Ownable.sol\":1422:1445  owner() == _msgSender() */\n      0xffffffffffffffffffffffffffffffffffffffff\n      and\n        /* \"@openzeppelin/contracts/access/Ownable.sol\":1422:1429  owner() */\n      tag_95\n        /* \"@openzeppelin/contracts/access/Ownable.sol\":1422:1427  owner */\n      tag_29\n        /* \"@openzeppelin/contracts/access/Ownable.sol\":1422:1429  owner() */\n      jump\t// in\n    tag_95:\n        /* \"@openzeppelin/contracts/access/Ownable.sol\":1422:1445  owner() == _msgSender() */\n      0xffffffffffffffffffffffffffffffffffffffff\n      and\n      eq\n        /* \"@openzeppelin/contracts/access/Ownable.sol\":1414:1482  require(owner() == _msgSender(), \"Ownable: caller is not the owner\") */\n      tag_96\n      jumpi\n      mload(0x40)\n      0x08c379a000000000000000000000000000000000000000000000000000000000\n      dup2\n      mstore\n      0x04\n      add\n      tag_97\n      swap1\n      tag_98\n      jump\t// in\n    tag_97:\n      mload(0x40)\n      dup1\n      swap2\n      sub\n      swap1\n      revert\n    tag_96:\n        /* \"@openzeppelin/contracts/access/Ownable.sol\":1359:1489  function _checkOwner() internal view virtual {... */\n      jump\t// out\n        /* \"@openzeppelin/contracts/access/Ownable.sol\":2433:2620  function _transferOwnership(address newOwner) internal virtual {... */\n    tag_72:\n        /* \"@openzeppelin/contracts/access/Ownable.sol\":2506:2522  address oldOwner */\n      0x00\n        /* \"@openzeppelin/contracts/access/Ownable.sol\":2525:2531  _owner */\n      dup1\n      0x00\n      swap1\n      sload\n      swap1\n      0x0100\n      exp\n      swap1\n      div\n      0xffffffffffffffffffffffffffffffffffffffff\n      and\n        /* \"@openzeppelin/contracts/access/Ownable.sol\":2506:2531  address oldOwner = _owner */\n      swap1\n      pop\n        /* \"@openzeppelin/contracts/access/Ownable.sol\":2550:2558  newOwner */\n      dup2\n        /* \"@openzeppelin/contracts/access/Ownable.sol\":2541:2547  _owner */\n      0x00\n      dup1\n        /* \"@openzeppelin/contracts/access/Ownable.sol\":2541:2558  _owner = newOwner */\n      0x0100\n      exp\n      dup2\n      sload\n      dup2\n      0xffffffffffffffffffffffffffffffffffffffff\n      mul\n      not\n      and\n      swap1\n      dup4\n      0xffffffffffffffffffffffffffffffffffffffff\n      and\n      mul\n      or\n      swap1\n      sstore\n      pop\n        /* \"@openzeppelin/contracts/access/Ownable.sol\":2604:2612  newOwner */\n      dup2\n        /* \"@openzeppelin/contracts/access/Ownable.sol\":2573:2613  OwnershipTransferred(oldOwner, newOwner) */\n      0xffffffffffffffffffffffffffffffffffffffff\n      and\n        /* \"@openzeppelin/contracts/access/Ownable.sol\":2594:2602  oldOwner */\n      dup2\n        /* \"@openzeppelin/contracts/access/Ownable.sol\":2573:2613  OwnershipTransferred(oldOwner, newOwner) */\n      0xffffffffffffffffffffffffffffffffffffffff\n      and\n      0x8be0079c531659141344cd1fd0a4f28419497f9722a3daafe3b4186f6b6457e0\n      mload(0x40)\n      mload(0x40)\n      dup1\n      swap2\n      sub\n      swap1\n      log3\n        /* \"@openzeppelin/contracts/access/Ownable.sol\":2496:2620  {... */\n      pop\n        /* \"@openzeppelin/contracts/access/Ownable.sol\":2433:2620  function _transferOwnership(address newOwner) internal virtual {... */\n      pop\n      jump\t// out\n        /* \"@openzeppelin/contracts/utils/Context.sol\":640:736  function _msgSender() internal view virtual returns (address) {... */\n    tag_94:\n        /* \"@openzeppelin/contracts/utils/Context.sol\":693:700  address */\n      0x00\n        /* \"@openzeppelin/contracts/utils/Context.sol\":719:729  msg.sender */\n      caller\n        /* \"@openzeppelin/contracts/utils/Context.sol\":712:729  return msg.sender */\n      swap1\n      pop\n        /* \"@openzeppelin/contracts/utils/Context.sol\":640:736  function _msgSender() internal view virtual returns (address) {... */\n      swap1\n      jump\t// out\n        /* \"#utility.yul\":7:146   */\n    tag_102:\n        /* \"#utility.yul\":53:58   */\n      0x00\n        /* \"#utility.yul\":91:97   */\n      dup2\n        /* \"#utility.yul\":78:98   */\n      calldataload\n        /* \"#utility.yul\":69:98   */\n      swap1\n      pop\n        /* \"#utility.yul\":107:140   */\n      tag_104\n        /* \"#utility.yul\":134:139   */\n      dup2\n        /* \"#utility.yul\":107:140   */\n      tag_105\n      jump\t// in\n    tag_104:\n        /* \"#utility.yul\":7:146   */\n      swap3\n      swap2\n      pop\n      pop\n      jump\t// out\n        /* \"#utility.yul\":152:481   */\n    tag_43:\n        /* \"#utility.yul\":211:217   */\n      0x00\n        /* \"#utility.yul\":260:262   */\n      0x20\n        /* \"#utility.yul\":248:257   */\n      dup3\n        /* \"#utility.yul\":239:246   */\n      dup5\n        /* \"#utility.yul\":235:258   */\n      sub\n        /* \"#utility.yul\":231:263   */\n      slt\n        /* \"#utility.yul\":228:347   */\n      iszero\n      tag_107\n      jumpi\n        /* \"#utility.yul\":266:345   */\n      tag_108\n      tag_109\n      jump\t// in\n    tag_108:\n        /* \"#utility.yul\":228:347   */\n    tag_107:\n        /* \"#utility.yul\":386:387   */\n      0x00\n        /* \"#utility.yul\":411:464   */\n      tag_110\n        /* \"#utility.yul\":456:463   */\n      dup5\n        /* \"#utility.yul\":447:453   */\n      dup3\n        /* \"#utility.yul\":436:445   */\n      dup6\n        /* \"#utility.yul\":432:454   */\n      add\n        /* \"#utility.yul\":411:464   */\n      tag_102\n      jump\t// in\n    tag_110:\n        /* \"#utility.yul\":401:464   */\n      swap2\n      pop\n        /* \"#utility.yul\":357:474   */\n      pop\n        /* \"#utility.yul\":152:481   */\n      swap3\n      swap2\n      pop\n      pop\n      jump\t// out\n        /* \"#utility.yul\":487:961   */\n    tag_55:\n        /* \"#utility.yul\":555:561   */\n      0x00\n        /* \"#utility.yul\":563:569   */\n      dup1\n        /* \"#utility.yul\":612:614   */\n      0x40\n        /* \"#utility.yul\":600:609   */\n      dup4\n        /* \"#utility.yul\":591:598   */\n      dup6\n        /* \"#utility.yul\":587:610   */\n      sub\n        /* \"#utility.yul\":583:615   */\n      slt\n        /* \"#utility.yul\":580:699   */\n      iszero\n      tag_112\n      jumpi\n        /* \"#utility.yul\":618:697   */\n      tag_113\n      tag_109\n      jump\t// in\n    tag_113:\n        /* \"#utility.yul\":580:699   */\n    tag_112:\n        /* \"#utility.yul\":738:739   */\n      0x00\n        /* \"#utility.yul\":763:816   */\n      tag_114\n        /* \"#utility.yul\":808:815   */\n      dup6\n        /* \"#utility.yul\":799:805   */\n      dup3\n        /* \"#utility.yul\":788:797   */\n      dup7\n        /* \"#utility.yul\":784:806   */\n      add\n        /* \"#utility.yul\":763:816   */\n      tag_102\n      jump\t// in\n    tag_114:\n        /* \"#utility.yul\":753:816   */\n      swap3\n      pop\n        /* \"#utility.yul\":709:826   */\n      pop\n        /* \"#utility.yul\":865:867   */\n      0x20\n        /* \"#utility.yul\":891:944   */\n      tag_115\n        /* \"#utility.yul\":936:943   */\n      dup6\n        /* \"#utility.yul\":927:933   */\n      dup3\n        /* \"#utility.yul\":916:925   */\n      dup7\n        /* \"#utility.yul\":912:934   */\n      add\n        /* \"#utility.yul\":891:944   */\n      tag_102\n      jump\t// in\n    tag_115:\n        /* \"#utility.yul\":881:944   */\n      swap2\n      pop\n        /* \"#utility.yul\":836:954   */\n      pop\n        /* \"#utility.yul\":487:961   */\n      swap3\n      pop\n      swap3\n      swap1\n      pop\n      jump\t// out\n        /* \"#utility.yul\":967:1085   */\n    tag_116:\n        /* \"#utility.yul\":1054:1078   */\n      tag_118\n        /* \"#utility.yul\":1072:1077   */\n      dup2\n        /* \"#utility.yul\":1054:1078   */\n      tag_119\n      jump\t// in\n    tag_118:\n        /* \"#utility.yul\":1049:1052   */\n      dup3\n        /* \"#utility.yul\":1042:1079   */\n      mstore\n        /* \"#utility.yul\":967:1085   */\n      pop\n      pop\n      jump\t// out\n        /* \"#utility.yul\":1091:1200   */\n    tag_120:\n        /* \"#utility.yul\":1172:1193   */\n      tag_122\n        /* \"#utility.yul\":1187:1192   */\n      dup2\n        /* \"#utility.yul\":1172:1193   */\n      tag_123\n      jump\t// in\n    tag_122:\n        /* \"#utility.yul\":1167:1170   */\n      dup3\n        /* \"#utility.yul\":1160:1194   */\n      mstore\n        /* \"#utility.yul\":1091:1200   */\n      pop\n      pop\n      jump\t// out\n        /* \"#utility.yul\":1206:1570   */\n    tag_124:\n        /* \"#utility.yul\":1294:1297   */\n      0x00\n        /* \"#utility.yul\":1322:1361   */\n      tag_126\n        /* \"#utility.yul\":1355:1360   */\n      dup3\n        /* \"#utility.yul\":1322:1361   */\n      tag_127\n      jump\t// in\n    tag_126:\n        /* \"#utility.yul\":1377:1448   */\n      tag_128\n        /* \"#utility.yul\":1441:1447   */\n      dup2\n        /* \"#utility.yul\":1436:1439   */\n      dup6\n        /* \"#utility.yul\":1377:1448   */\n      tag_129\n      jump\t// in\n    tag_128:\n        /* \"#utility.yul\":1370:1448   */\n      swap4\n      pop\n        /* \"#utility.yul\":1457:1509   */\n      tag_130\n        /* \"#utility.yul\":1502:1508   */\n      dup2\n        /* \"#utility.yul\":1497:1500   */\n      dup6\n        /* \"#utility.yul\":1490:1494   */\n      0x20\n        /* \"#utility.yul\":1483:1488   */\n      dup7\n        /* \"#utility.yul\":1479:1495   */\n      add\n        /* \"#utility.yul\":1457:1509   */\n      tag_131\n      jump\t// in\n    tag_130:\n        /* \"#utility.yul\":1534:1563   */\n      tag_132\n        /* \"#utility.yul\":1556:1562   */\n      dup2\n        /* \"#utility.yul\":1534:1563   */\n      tag_133\n      jump\t// in\n    tag_132:\n        /* \"#utility.yul\":1529:1532   */\n      dup5\n        /* \"#utility.yul\":1525:1564   */\n      add\n        /* \"#utility.yul\":1518:1564   */\n      swap2\n      pop\n        /* \"#utility.yul\":1298:1570   */\n      pop\n        /* \"#utility.yul\":1206:1570   */\n      swap3\n      swap2\n      pop\n      pop\n      jump\t// out\n        /* \"#utility.yul\":1576:1942   */\n    tag_134:\n        /* \"#utility.yul\":1718:1721   */\n      0x00\n        /* \"#utility.yul\":1739:1806   */\n      tag_136\n        /* \"#utility.yul\":1803:1805   */\n      0x26\n        /* \"#utility.yul\":1798:1801   */\n      dup4\n        /* \"#utility.yul\":1739:1806   */\n      tag_129\n      jump\t// in\n    tag_136:\n        /* \"#utility.yul\":1732:1806   */\n      swap2\n      pop\n        /* \"#utility.yul\":1815:1908   */\n      tag_137\n        /* \"#utility.yul\":1904:1907   */\n      dup3\n        /* \"#utility.yul\":1815:1908   */\n      tag_138\n      jump\t// in\n    tag_137:\n        /* \"#utility.yul\":1933:1935   */\n      0x40\n        /* \"#utility.yul\":1928:1931   */\n      dup3\n        /* \"#utility.yul\":1924:1936   */\n      add\n        /* \"#utility.yul\":1917:1936   */\n      swap1\n      pop\n        /* \"#utility.yul\":1576:1942   */\n      swap2\n      swap1\n      pop\n      jump\t// out\n        /* \"#utility.yul\":1948:2314   */\n    tag_139:\n        /* \"#utility.yul\":2090:2093   */\n      0x00\n        /* \"#utility.yul\":2111:2178   */\n      tag_141\n        /* \"#utility.yul\":2175:2177   */\n      0x20\n        /* \"#utility.yul\":2170:2173   */\n      dup4\n        /* \"#utility.yul\":2111:2178   */\n      tag_129\n      jump\t// in\n    tag_141:\n        /* \"#utility.yul\":2104:2178   */\n      swap2\n      pop\n        /* \"#utility.yul\":2187:2280   */\n      tag_142\n        /* \"#utility.yul\":2276:2279   */\n      dup3\n        /* \"#utility.yul\":2187:2280   */\n      tag_143\n      jump\t// in\n    tag_142:\n        /* \"#utility.yul\":2305:2307   */\n      0x20\n        /* \"#utility.yul\":2300:2303   */\n      dup3\n        /* \"#utility.yul\":2296:2308   */\n      add\n        /* \"#utility.yul\":2289:2308   */\n      swap1\n      pop\n        /* \"#utility.yul\":1948:2314   */\n      swap2\n      swap1\n      pop\n      jump\t// out\n        /* \"#utility.yul\":2320:2438   */\n    tag_144:\n        /* \"#utility.yul\":2407:2431   */\n      tag_146\n        /* \"#utility.yul\":2425:2430   */\n      dup2\n        /* \"#utility.yul\":2407:2431   */\n      tag_147\n      jump\t// in\n    tag_146:\n        /* \"#utility.yul\":2402:2405   */\n      dup3\n        /* \"#utility.yul\":2395:2432   */\n      mstore\n        /* \"#utility.yul\":2320:2438   */\n      pop\n      pop\n      jump\t// out\n        /* \"#utility.yul\":2444:2666   */\n    tag_23:\n        /* \"#utility.yul\":2537:2541   */\n      0x00\n        /* \"#utility.yul\":2575:2577   */\n      0x20\n        /* \"#utility.yul\":2564:2573   */\n      dup3\n        /* \"#utility.yul\":2560:2578   */\n      add\n        /* \"#utility.yul\":2552:2578   */\n      swap1\n      pop\n        /* \"#utility.yul\":2588:2659   */\n      tag_149\n        /* \"#utility.yul\":2656:2657   */\n      0x00\n        /* \"#utility.yul\":2645:2654   */\n      dup4\n        /* \"#utility.yul\":2641:2658   */\n      add\n        /* \"#utility.yul\":2632:2638   */\n      dup5\n        /* \"#utility.yul\":2588:2659   */\n      tag_116\n      jump\t// in\n    tag_149:\n        /* \"#utility.yul\":2444:2666   */\n      swap3\n      swap2\n      pop\n      pop\n      jump\t// out\n        /* \"#utility.yul\":2672:2882   */\n    tag_35:\n        /* \"#utility.yul\":2759:2763   */\n      0x00\n        /* \"#utility.yul\":2797:2799   */\n      0x20\n        /* \"#utility.yul\":2786:2795   */\n      dup3\n        /* \"#utility.yul\":2782:2800   */\n      add\n        /* \"#utility.yul\":2774:2800   */\n      swap1\n      pop\n        /* \"#utility.yul\":2810:2875   */\n      tag_151\n        /* \"#utility.yul\":2872:2873   */\n      0x00\n        /* \"#utility.yul\":2861:2870   */\n      dup4\n        /* \"#utility.yul\":2857:2874   */\n      add\n        /* \"#utility.yul\":2848:2854   */\n      dup5\n        /* \"#utility.yul\":2810:2875   */\n      tag_120\n      jump\t// in\n    tag_151:\n        /* \"#utility.yul\":2672:2882   */\n      swap3\n      swap2\n      pop\n      pop\n      jump\t// out\n        /* \"#utility.yul\":2888:3201   */\n    tag_18:\n        /* \"#utility.yul\":3001:3005   */\n      0x00\n        /* \"#utility.yul\":3039:3041   */\n      0x20\n        /* \"#utility.yul\":3028:3037   */\n      dup3\n        /* \"#utility.yul\":3024:3042   */\n      add\n        /* \"#utility.yul\":3016:3042   */\n      swap1\n      pop\n        /* \"#utility.yul\":3088:3097   */\n      dup2\n        /* \"#utility.yul\":3082:3086   */\n      dup2\n        /* \"#utility.yul\":3078:3098   */\n      sub\n        /* \"#utility.yul\":3074:3075   */\n      0x00\n        /* \"#utility.yul\":3063:3072   */\n      dup4\n        /* \"#utility.yul\":3059:3076   */\n      add\n        /* \"#utility.yul\":3052:3099   */\n      mstore\n        /* \"#utility.yul\":3116:3194   */\n      tag_153\n        /* \"#utility.yul\":3189:3193   */\n      dup2\n        /* \"#utility.yul\":3180:3186   */\n      dup5\n        /* \"#utility.yul\":3116:3194   */\n      tag_124\n      jump\t// in\n    tag_153:\n        /* \"#utility.yul\":3108:3194   */\n      swap1\n      pop\n        /* \"#utility.yul\":2888:3201   */\n      swap3\n      swap2\n      pop\n      pop\n      jump\t// out\n        /* \"#utility.yul\":3207:3626   */\n    tag_83:\n        /* \"#utility.yul\":3373:3377   */\n      0x00\n        /* \"#utility.yul\":3411:3413   */\n      0x20\n        /* \"#utility.yul\":3400:3409   */\n      dup3\n        /* \"#utility.yul\":3396:3414   */\n      add\n        /* \"#utility.yul\":3388:3414   */\n      swap1\n      pop\n        /* \"#utility.yul\":3460:3469   */\n      dup2\n        /* \"#utility.yul\":3454:3458   */\n      dup2\n        /* \"#utility.yul\":3450:3470   */\n      sub\n        /* \"#utility.yul\":3446:3447   */\n      0x00\n        /* \"#utility.yul\":3435:3444   */\n      dup4\n        /* \"#utility.yul\":3431:3448   */\n      add\n        /* \"#utility.yul\":3424:3471   */\n      mstore\n        /* \"#utility.yul\":3488:3619   */\n      tag_155\n        /* \"#utility.yul\":3614:3618   */\n      dup2\n        /* \"#utility.yul\":3488:3619   */\n      tag_134\n      jump\t// in\n    tag_155:\n        /* \"#utility.yul\":3480:3619   */\n      swap1\n      pop\n        /* \"#utility.yul\":3207:3626   */\n      swap2\n      swap1\n      pop\n      jump\t// out\n        /* \"#utility.yul\":3632:4051   */\n    tag_98:\n        /* \"#utility.yul\":3798:3802   */\n      0x00\n        /* \"#utility.yul\":3836:3838   */\n      0x20\n        /* \"#utility.yul\":3825:3834   */\n      dup3\n        /* \"#utility.yul\":3821:3839   */\n      add\n        /* \"#utility.yul\":3813:3839   */\n      swap1\n      pop\n        /* \"#utility.yul\":3885:3894   */\n      dup2\n        /* \"#utility.yul\":3879:3883   */\n      dup2\n        /* \"#utility.yul\":3875:3895   */\n      sub\n        /* \"#utility.yul\":3871:3872   */\n      0x00\n        /* \"#utility.yul\":3860:3869   */\n      dup4\n        /* \"#utility.yul\":3856:3873   */\n      add\n        /* \"#utility.yul\":3849:3896   */\n      mstore\n        /* \"#utility.yul\":3913:4044   */\n      tag_157\n        /* \"#utility.yul\":4039:4043   */\n      dup2\n        /* \"#utility.yul\":3913:4044   */\n      tag_139\n      jump\t// in\n    tag_157:\n        /* \"#utility.yul\":3905:4044   */\n      swap1\n      pop\n        /* \"#utility.yul\":3632:4051   */\n      swap2\n      swap1\n      pop\n      jump\t// out\n        /* \"#utility.yul\":4057:4279   */\n    tag_91:\n        /* \"#utility.yul\":4150:4154   */\n      0x00\n        /* \"#utility.yul\":4188:4190   */\n      0x20\n        /* \"#utility.yul\":4177:4186   */\n      dup3\n        /* \"#utility.yul\":4173:4191   */\n      add\n        /* \"#utility.yul\":4165:4191   */\n      swap1\n      pop\n        /* \"#utility.yul\":4201:4272   */\n      tag_159\n        /* \"#utility.yul\":4269:4270   */\n      0x00\n        /* \"#utility.yul\":4258:4267   */\n      dup4\n        /* \"#utility.yul\":4254:4271   */\n      add\n        /* \"#utility.yul\":4245:4251   */\n      dup5\n        /* \"#utility.yul\":4201:4272   */\n      tag_144\n      jump\t// in\n    tag_159:\n        /* \"#utility.yul\":4057:4279   */\n      swap3\n      swap2\n      pop\n      pop\n      jump\t// out\n        /* \"#utility.yul\":4366:4465   */\n    tag_127:\n        /* \"#utility.yul\":4418:4424   */\n      0x00\n        /* \"#utility.yul\":4452:4457   */\n      dup2\n        /* \"#utility.yul\":4446:4458   */\n      mload\n        /* \"#utility.yul\":4436:4458   */\n      swap1\n      pop\n        /* \"#utility.yul\":4366:4465   */\n      swap2\n      swap1\n      pop\n      jump\t// out\n        /* \"#utility.yul\":4471:4640   */\n    tag_129:\n        /* \"#utility.yul\":4555:4566   */\n      0x00\n        /* \"#utility.yul\":4589:4595   */\n      dup3\n        /* \"#utility.yul\":4584:4587   */\n      dup3\n        /* \"#utility.yul\":4577:4596   */\n      mstore\n        /* \"#utility.yul\":4629:4633   */\n      0x20\n        /* \"#utility.yul\":4624:4627   */\n      dup3\n        /* \"#utility.yul\":4620:4634   */\n      add\n        /* \"#utility.yul\":4605:4634   */\n      swap1\n      pop\n        /* \"#utility.yul\":4471:4640   */\n      swap3\n      swap2\n      pop\n      pop\n      jump\t// out\n        /* \"#utility.yul\":4646:4951   */\n    tag_89:\n        /* \"#utility.yul\":4686:4689   */\n      0x00\n        /* \"#utility.yul\":4705:4725   */\n      tag_165\n        /* \"#utility.yul\":4723:4724   */\n      dup3\n        /* \"#utility.yul\":4705:4725   */\n      tag_147\n      jump\t// in\n    tag_165:\n        /* \"#utility.yul\":4700:4725   */\n      swap2\n      pop\n        /* \"#utility.yul\":4739:4759   */\n      tag_166\n        /* \"#utility.yul\":4757:4758   */\n      dup4\n        /* \"#utility.yul\":4739:4759   */\n      tag_147\n      jump\t// in\n    tag_166:\n        /* \"#utility.yul\":4734:4759   */\n      swap3\n      pop\n        /* \"#utility.yul\":4893:4894   */\n      dup3\n        /* \"#utility.yul\":4825:4891   */\n      0xffffffffffffffffffffffffffffffffffffffffffffffffffffffffffffffff\n        /* \"#utility.yul\":4821:4895   */\n      sub\n        /* \"#utility.yul\":4818:4819   */\n      dup3\n        /* \"#utility.yul\":4815:4896   */\n      gt\n        /* \"#utility.yul\":4812:4919   */\n      iszero\n      tag_167\n      jumpi\n        /* \"#utility.yul\":4899:4917   */\n      tag_168\n      tag_169\n      jump\t// in\n    tag_168:\n        /* \"#utility.yul\":4812:4919   */\n    tag_167:\n        /* \"#utility.yul\":4943:4944   */\n      dup3\n        /* \"#utility.yul\":4940:4941   */\n      dup3\n        /* \"#utility.yul\":4936:4945   */\n      add\n        /* \"#utility.yul\":4929:4945   */\n      swap1\n      pop\n        /* \"#utility.yul\":4646:4951   */\n      swap3\n      swap2\n      pop\n      pop\n      jump\t// out\n        /* \"#utility.yul\":4957:5053   */\n    tag_119:\n        /* \"#utility.yul\":4994:5001   */\n      0x00\n        /* \"#utility.yul\":5023:5047   */\n      tag_171\n        /* \"#utility.yul\":5041:5046   */\n      dup3\n        /* \"#utility.yul\":5023:5047   */\n      tag_172\n      jump\t// in\n    tag_171:\n        /* \"#utility.yul\":5012:5047   */\n      swap1\n      pop\n        /* \"#utility.yul\":4957:5053   */\n      swap2\n      swap1\n      pop\n      jump\t// out\n        /* \"#utility.yul\":5059:5149   */\n    tag_123:\n        /* \"#utility.yul\":5093:5100   */\n      0x00\n        /* \"#utility.yul\":5136:5141   */\n      dup2\n        /* \"#utility.yul\":5129:5142   */\n      iszero\n        /* \"#utility.yul\":5122:5143   */\n      iszero\n        /* \"#utility.yul\":5111:5143   */\n      swap1\n      pop\n        /* \"#utility.yul\":5059:5149   */\n      swap2\n      swap1\n      pop\n      jump\t// out\n        /* \"#utility.yul\":5155:5281   */\n    tag_172:\n        /* \"#utility.yul\":5192:5199   */\n      0x00\n        /* \"#utility.yul\":5232:5274   */\n      0xffffffffffffffffffffffffffffffffffffffff\n        /* \"#utility.yul\":5225:5230   */\n      dup3\n        /* \"#utility.yul\":5221:5275   */\n      and\n        /* \"#utility.yul\":5210:5275   */\n      swap1\n      pop\n        /* \"#utility.yul\":5155:5281   */\n      swap2\n      swap1\n      pop\n      jump\t// out\n        /* \"#utility.yul\":5287:5364   */\n    tag_147:\n        /* \"#utility.yul\":5324:5331   */\n      0x00\n        /* \"#utility.yul\":5353:5358   */\n      dup2\n        /* \"#utility.yul\":5342:5358   */\n      swap1\n      pop\n        /* \"#utility.yul\":5287:5364   */\n      swap2\n      swap1\n      pop\n      jump\t// out\n        /* \"#utility.yul\":5370:5677   */\n    tag_131:\n        /* \"#utility.yul\":5438:5439   */\n      0x00\n        /* \"#utility.yul\":5448:5561   */\n    tag_177:\n        /* \"#utility.yul\":5462:5468   */\n      dup4\n        /* \"#utility.yul\":5459:5460   */\n      dup2\n        /* \"#utility.yul\":5456:5469   */\n      lt\n        /* \"#utility.yul\":5448:5561   */\n      iszero\n      tag_179\n      jumpi\n        /* \"#utility.yul\":5547:5548   */\n      dup1\n        /* \"#utility.yul\":5542:5545   */\n      dup3\n        /* \"#utility.yul\":5538:5549   */\n      add\n        /* \"#utility.yul\":5532:5550   */\n      mload\n        /* \"#utility.yul\":5528:5529   */\n      dup2\n        /* \"#utility.yul\":5523:5526   */\n      dup5\n        /* \"#utility.yul\":5519:5530   */\n      add\n        /* \"#utility.yul\":5512:5551   */\n      mstore\n        /* \"#utility.yul\":5484:5486   */\n      0x20\n        /* \"#utility.yul\":5481:5482   */\n      dup2\n        /* \"#utility.yul\":5477:5487   */\n      add\n        /* \"#utility.yul\":5472:5487   */\n      swap1\n      pop\n        /* \"#utility.yul\":5448:5561   */\n      jump(tag_177)\n    tag_179:\n        /* \"#utility.yul\":5579:5585   */\n      dup4\n        /* \"#utility.yul\":5576:5577   */\n      dup2\n        /* \"#utility.yul\":5573:5586   */\n      gt\n        /* \"#utility.yul\":5570:5671   */\n      iszero\n      tag_180\n      jumpi\n        /* \"#utility.yul\":5659:5660   */\n      0x00\n        /* \"#utility.yul\":5650:5656   */\n      dup5\n        /* \"#utility.yul\":5645:5648   */\n      dup5\n        /* \"#utility.yul\":5641:5657   */\n      add\n        /* \"#utility.yul\":5634:5661   */\n      mstore\n        /* \"#utility.yul\":5570:5671   */\n    tag_180:\n        /* \"#utility.yul\":5419:5677   */\n      pop\n        /* \"#utility.yul\":5370:5677   */\n      pop\n      pop\n      pop\n      jump\t// out\n        /* \"#utility.yul\":5683:6003   */\n    tag_62:\n        /* \"#utility.yul\":5727:5733   */\n      0x00\n        /* \"#utility.yul\":5764:5765   */\n      0x02\n        /* \"#utility.yul\":5758:5762   */\n      dup3\n        /* \"#utility.yul\":5754:5766   */\n      div\n        /* \"#utility.yul\":5744:5766   */\n      swap1\n      pop\n        /* \"#utility.yul\":5811:5812   */\n      0x01\n        /* \"#utility.yul\":5805:5809   */\n      dup3\n        /* \"#utility.yul\":5801:5813   */\n      and\n        /* \"#utility.yul\":5832:5850   */\n      dup1\n        /* \"#utility.yul\":5822:5903   */\n      tag_182\n      jumpi\n        /* \"#utility.yul\":5888:5892   */\n      0x7f\n        /* \"#utility.yul\":5880:5886   */\n      dup3\n        /* \"#utility.yul\":5876:5893   */\n      and\n        /* \"#utility.yul\":5866:5893   */\n      swap2\n      pop\n        /* \"#utility.yul\":5822:5903   */\n    tag_182:\n        /* \"#utility.yul\":5950:5952   */\n      0x20\n        /* \"#utility.yul\":5942:5948   */\n      dup3\n        /* \"#utility.yul\":5939:5953   */\n      lt\n        /* \"#utility.yul\":5919:5937   */\n      dup2\n        /* \"#utility.yul\":5916:5954   */\n      eq\n        /* \"#utility.yul\":5913:5997   */\n      iszero\n      tag_183\n      jumpi\n        /* \"#utility.yul\":5969:5987   */\n      tag_184\n      tag_185\n      jump\t// in\n    tag_184:\n        /* \"#utility.yul\":5913:5997   */\n    tag_183:\n        /* \"#utility.yul\":5734:6003   */\n      pop\n        /* \"#utility.yul\":5683:6003   */\n      swap2\n      swap1\n      pop\n      jump\t// out\n        /* \"#utility.yul\":6009:6189   */\n    tag_169:\n        /* \"#utility.yul\":6057:6134   */\n      0x4e487b7100000000000000000000000000000000000000000000000000000000\n        /* \"#utility.yul\":6054:6055   */\n      0x00\n        /* \"#utility.yul\":6047:6135   */\n      mstore\n        /* \"#utility.yul\":6154:6158   */\n      0x11\n        /* \"#utility.yul\":6151:6152   */\n      0x04\n        /* \"#utility.yul\":6144:6159   */\n      mstore\n        /* \"#utility.yul\":6178:6182   */\n      0x24\n        /* \"#utility.yul\":6175:6176   */\n      0x00\n        /* \"#utility.yul\":6168:6183   */\n      revert\n        /* \"#utility.yul\":6195:6375   */\n    tag_185:\n        /* \"#utility.yul\":6243:6320   */\n      0x4e487b7100000000000000000000000000000000000000000000000000000000\n        /* \"#utility.yul\":6240:6241   */\n      0x00\n        /* \"#utility.yul\":6233:6321   */\n      mstore\n        /* \"#utility.yul\":6340:6344   */\n      0x22\n        /* \"#utility.yul\":6337:6338   */\n      0x04\n        /* \"#utility.yul\":6330:6345   */\n      mstore\n        /* \"#utility.yul\":6364:6368   */\n      0x24\n        /* \"#utility.yul\":6361:6362   */\n      0x00\n        /* \"#utility.yul\":6354:6369   */\n      revert\n        /* \"#utility.yul\":6504:6621   */\n    tag_109:\n        /* \"#utility.yul\":6613:6614   */\n      0x00\n        /* \"#utility.yul\":6610:6611   */\n      dup1\n        /* \"#utility.yul\":6603:6615   */\n      revert\n        /* \"#utility.yul\":6627:6729   */\n    tag_133:\n        /* \"#utility.yul\":6668:6674   */\n      0x00\n        /* \"#utility.yul\":6719:6721   */\n      0x1f\n        /* \"#utility.yul\":6715:6722   */\n      not\n        /* \"#utility.yul\":6710:6712   */\n      0x1f\n        /* \"#utility.yul\":6703:6708   */\n      dup4\n        /* \"#utility.yul\":6699:6713   */\n      add\n        /* \"#utility.yul\":6695:6723   */\n      and\n        /* \"#utility.yul\":6685:6723   */\n      swap1\n      pop\n        /* \"#utility.yul\":6627:6729   */\n      swap2\n      swap1\n      pop\n      jump\t// out\n        /* \"#utility.yul\":6735:6960   */\n    tag_138:\n        /* \"#utility.yul\":6875:6909   */\n      0x4f776e61626c653a206e6577206f776e657220697320746865207a65726f2061\n        /* \"#utility.yul\":6871:6872   */\n      0x00\n        /* \"#utility.yul\":6863:6869   */\n      dup3\n        /* \"#utility.yul\":6859:6873   */\n      add\n        /* \"#utility.yul\":6852:6910   */\n      mstore\n        /* \"#utility.yul\":6944:6952   */\n      0x6464726573730000000000000000000000000000000000000000000000000000\n        /* \"#utility.yul\":6939:6941   */\n      0x20\n        /* \"#utility.yul\":6931:6937   */\n      dup3\n        /* \"#utility.yul\":6927:6942   */\n      add\n        /* \"#utility.yul\":6920:6953   */\n      mstore\n        /* \"#utility.yul\":6735:6960   */\n      pop\n      jump\t// out\n        /* \"#utility.yul\":6966:7148   */\n    tag_143:\n        /* \"#utility.yul\":7106:7140   */\n      0x4f776e61626c653a2063616c6c6572206973206e6f7420746865206f776e6572\n        /* \"#utility.yul\":7102:7103   */\n      0x00\n        /* \"#utility.yul\":7094:7100   */\n      dup3\n        /* \"#utility.yul\":7090:7104   */\n      add\n        /* \"#utility.yul\":7083:7141   */\n      mstore\n        /* \"#utility.yul\":6966:7148   */\n      pop\n      jump\t// out\n        /* \"#utility.yul\":7154:7276   */\n    tag_105:\n        /* \"#utility.yul\":7227:7251   */\n      tag_195\n        /* \"#utility.yul\":7245:7250   */\n      dup2\n        /* \"#utility.yul\":7227:7251   */\n      tag_119\n      jump\t// in\n    tag_195:\n        /* \"#utility.yul\":7220:7225   */\n      dup2\n        /* \"#utility.yul\":7217:7252   */\n      eq\n        /* \"#utility.yul\":7207:7270   */\n      tag_196\n      jumpi\n        /* \"#utility.yul\":7266:7267   */\n      0x00\n        /* \"#utility.yul\":7263:7264   */\n      dup1\n        /* \"#utility.yul\":7256:7268   */\n      revert\n        /* \"#utility.yul\":7207:7270   */\n    tag_196:\n        /* \"#utility.yul\":7154:7276   */\n      pop\n      jump\t// out\n\n    auxdata: 0xa2646970667358221220f5e35f06d848f3a97137a91b50cd622f1c52b2085b91db53567efb8b364b9f1764736f6c63430008070033\n}\n",
				"bytecode": {
					"linkReferences": {},
					"object": "60806040526001600560006101000a81548160ff0219169083151502179055506001600560016101000a81548160ff02191690831515021790555060405180602001604052806000815250600690805190602001906200006192919062000162565b503480156200006f57600080fd5b5062000090620000846200009660201b60201c565b6200009e60201b60201c565b62000277565b600033905090565b60008060009054906101000a900473ffffffffffffffffffffffffffffffffffffffff169050816000806101000a81548173ffffffffffffffffffffffffffffffffffffffff021916908373ffffffffffffffffffffffffffffffffffffffff1602179055508173ffffffffffffffffffffffffffffffffffffffff168173ffffffffffffffffffffffffffffffffffffffff167f8be0079c531659141344cd1fd0a4f28419497f9722a3daafe3b4186f6b6457e060405160405180910390a35050565b828054620001709062000212565b90600052602060002090601f016020900481019282620001945760008555620001e0565b82601f10620001af57805160ff1916838001178555620001e0565b82800160010185558215620001e0579182015b82811115620001df578251825591602001919060010190620001c2565b5b509050620001ef9190620001f3565b5090565b5b808211156200020e576000816000905550600101620001f4565b5090565b600060028204905060018216806200022b57607f821691505b6020821081141562000242576200024162000248565b5b50919050565b7f4e487b7100000000000000000000000000000000000000000000000000000000600052602260045260246000fd5b610b8680620002876000396000f3fe60806040526004361061009c5760003560e01c8063bd2e62c511610064578063bd2e62c514610164578063f2fde38b1461018f578063f7317f00146101b8578063f851a440146101e3578063f9609f081461020e578063fbfd20451461022a5761009c565b80630d823447146100a1578063109e94cf146100cc578063715018a6146100f75780638da5cb5b1461010e578063a1d1936114610139575b600080fd5b3480156100ad57600080fd5b506100b6610255565b6040516100c391906108b1565b60405180910390f35b3480156100d857600080fd5b506100e16102e3565b6040516100ee919061087b565b60405180910390f35b34801561010357600080fd5b5061010c610309565b005b34801561011a57600080fd5b5061012361031d565b604051610130919061087b565b60405180910390f35b34801561014557600080fd5b5061014e610346565b60405161015b9190610896565b60405180910390f35b34801561017057600080fd5b50610179610394565b6040516101869190610896565b60405180910390f35b34801561019b57600080fd5b506101b660048036038101906101b19190610762565b6103a7565b005b3480156101c457600080fd5b506101cd61042b565b6040516101da9190610896565b60405180910390f35b3480156101ef57600080fd5b506101f861043e565b604051610205919061087b565b60405180910390f35b6102286004803603810190610223919061078f565b610464565b005b34801561023657600080fd5b5061023f6105dd565b60405161024c919061087b565b60405180910390f35b6006805461026290610a1b565b80601f016020809104026020016040519081016040528092919081815260200182805461028e90610a1b565b80156102db5780601f106102b0576101008083540402835291602001916102db565b820191906000526020600020905b8154815290600101906020018083116102be57829003601f168201915b505050505081565b600260009054906101000a900473ffffffffffffffffffffffffffffffffffffffff1681565b610311610603565b61031b6000610681565b565b60008060009054906101000a900473ffffffffffffffffffffffffffffffffffffffff16905090565b600060011515600560009054906101000a900460ff16151514801561037e575060011515600560019054906101000a900460ff161515145b1561038c5760019050610391565b600090505b90565b600560019054906101000a900460ff1681565b6103af610603565b600073ffffffffffffffffffffffffffffffffffffffff168173ffffffffffffffffffffffffffffffffffffffff16141561041f576040517f08c379a0000000000000000000000000000000000000000000000000000000008152600401610416906108d3565b60405180910390fd5b61042881610681565b50565b600560009054906101000a900460ff1681565b600360009054906101000a900473ffffffffffffffffffffffffffffffffffffffff1681565b61046c610603565b81600160006101000a81548173ffffffffffffffffffffffffffffffffffffffff021916908373ffffffffffffffffffffffffffffffffffffffff16021790555033600260006101000a81548173ffffffffffffffffffffffffffffffffffffffff021916908373ffffffffffffffffffffffffffffffffffffffff16021790555080600360006101000a81548173ffffffffffffffffffffffffffffffffffffffff021916908373ffffffffffffffffffffffffffffffffffffffff160217905550600034905080600460008573ffffffffffffffffffffffffffffffffffffffff1673ffffffffffffffffffffffffffffffffffffffff1681526020019081526020016000206000828254610583919061094a565b925050819055508273ffffffffffffffffffffffffffffffffffffffff167f2da466a7b24304f47e87fa2e1e5a81b9831ce54fec19055ce277ca2f39ba42c4826040516105d09190610913565b60405180910390a2505050565b600160009054906101000a900473ffffffffffffffffffffffffffffffffffffffff1681565b61060b610745565b73ffffffffffffffffffffffffffffffffffffffff1661062961031d565b73ffffffffffffffffffffffffffffffffffffffff161461067f576040517f08c379a0000000000000000000000000000000000000000000000000000000008152600401610676906108f3565b60405180910390fd5b565b60008060009054906101000a900473ffffffffffffffffffffffffffffffffffffffff169050816000806101000a81548173ffffffffffffffffffffffffffffffffffffffff021916908373ffffffffffffffffffffffffffffffffffffffff1602179055508173ffffffffffffffffffffffffffffffffffffffff168173ffffffffffffffffffffffffffffffffffffffff167f8be0079c531659141344cd1fd0a4f28419497f9722a3daafe3b4186f6b6457e060405160405180910390a35050565b600033905090565b60008135905061075c81610b39565b92915050565b60006020828403121561077857610777610aab565b5b60006107868482850161074d565b91505092915050565b600080604083850312156107a6576107a5610aab565b5b60006107b48582860161074d565b92505060206107c58582860161074d565b9150509250929050565b6107d8816109a0565b82525050565b6107e7816109b2565b82525050565b60006107f88261092e565b6108028185610939565b93506108128185602086016109e8565b61081b81610ab0565b840191505092915050565b6000610833602683610939565b915061083e82610ac1565b604082019050919050565b6000610856602083610939565b915061086182610b10565b602082019050919050565b610875816109de565b82525050565b600060208201905061089060008301846107cf565b92915050565b60006020820190506108ab60008301846107de565b92915050565b600060208201905081810360008301526108cb81846107ed565b905092915050565b600060208201905081810360008301526108ec81610826565b9050919050565b6000602082019050818103600083015261090c81610849565b9050919050565b6000602082019050610928600083018461086c565b92915050565b600081519050919050565b600082825260208201905092915050565b6000610955826109de565b9150610960836109de565b9250827fffffffffffffffffffffffffffffffffffffffffffffffffffffffffffffffff0382111561099557610994610a4d565b5b828201905092915050565b60006109ab826109be565b9050919050565b60008115159050919050565b600073ffffffffffffffffffffffffffffffffffffffff82169050919050565b6000819050919050565b60005b83811015610a065780820151818401526020810190506109eb565b83811115610a15576000848401525b50505050565b60006002820490506001821680610a3357607f821691505b60208210811415610a4757610a46610a7c565b5b50919050565b7f4e487b7100000000000000000000000000000000000000000000000000000000600052601160045260246000fd5b7f4e487b7100000000000000000000000000000000000000000000000000000000600052602260045260246000fd5b600080fd5b6000601f19601f8301169050919050565b7f4f776e61626c653a206e6577206f776e657220697320746865207a65726f206160008201527f6464726573730000000000000000000000000000000000000000000000000000602082015250565b7f4f776e61626c653a2063616c6c6572206973206e6f7420746865206f776e6572600082015250565b610b42816109a0565b8114610b4d57600080fd5b5056fea2646970667358221220f5e35f06d848f3a97137a91b50cd622f1c52b2085b91db53567efb8b364b9f1764736f6c63430008070033",
					"opcodes": "PUSH1 0x80 PUSH1 0x40 MSTORE PUSH1 0x1 PUSH1 0x5 PUSH1 0x0 PUSH2 0x100 EXP DUP2 SLOAD DUP2 PUSH1 0xFF MUL NOT AND SWAP1 DUP4 ISZERO ISZERO MUL OR SWAP1 SSTORE POP PUSH1 0x1 PUSH1 0x5 PUSH1 0x1 PUSH2 0x100 EXP DUP2 SLOAD DUP2 PUSH1 0xFF MUL NOT AND SWAP1 DUP4 ISZERO ISZERO MUL OR SWAP1 SSTORE POP PUSH1 0x40 MLOAD DUP1 PUSH1 0x20 ADD PUSH1 0x40 MSTORE DUP1 PUSH1 0x0 DUP2 MSTORE POP PUSH1 0x6 SWAP1 DUP1 MLOAD SWAP1 PUSH1 0x20 ADD SWAP1 PUSH3 0x61 SWAP3 SWAP2 SWAP1 PUSH3 0x162 JUMP JUMPDEST POP CALLVALUE DUP1 ISZERO PUSH3 0x6F JUMPI PUSH1 0x0 DUP1 REVERT JUMPDEST POP PUSH3 0x90 PUSH3 0x84 PUSH3 0x96 PUSH1 0x20 SHL PUSH1 0x20 SHR JUMP JUMPDEST PUSH3 0x9E PUSH1 0x20 SHL PUSH1 0x20 SHR JUMP JUMPDEST PUSH3 0x277 JUMP JUMPDEST PUSH1 0x0 CALLER SWAP1 POP SWAP1 JUMP JUMPDEST PUSH1 0x0 DUP1 PUSH1 0x0 SWAP1 SLOAD SWAP1 PUSH2 0x100 EXP SWAP1 DIV PUSH20 0xFFFFFFFFFFFFFFFFFFFFFFFFFFFFFFFFFFFFFFFF AND SWAP1 POP DUP2 PUSH1 0x0 DUP1 PUSH2 0x100 EXP DUP2 SLOAD DUP2 PUSH20 0xFFFFFFFFFFFFFFFFFFFFFFFFFFFFFFFFFFFFFFFF MUL NOT AND SWAP1 DUP4 PUSH20 0xFFFFFFFFFFFFFFFFFFFFFFFFFFFFFFFFFFFFFFFF AND MUL OR SWAP1 SSTORE POP DUP2 PUSH20 0xFFFFFFFFFFFFFFFFFFFFFFFFFFFFFFFFFFFFFFFF AND DUP2 PUSH20 0xFFFFFFFFFFFFFFFFFFFFFFFFFFFFFFFFFFFFFFFF AND PUSH32 0x8BE0079C531659141344CD1FD0A4F28419497F9722A3DAAFE3B4186F6B6457E0 PUSH1 0x40 MLOAD PUSH1 0x40 MLOAD DUP1 SWAP2 SUB SWAP1 LOG3 POP POP JUMP JUMPDEST DUP3 DUP1 SLOAD PUSH3 0x170 SWAP1 PUSH3 0x212 JUMP JUMPDEST SWAP1 PUSH1 0x0 MSTORE PUSH1 0x20 PUSH1 0x0 KECCAK256 SWAP1 PUSH1 0x1F ADD PUSH1 0x20 SWAP1 DIV DUP2 ADD SWAP3 DUP3 PUSH3 0x194 JUMPI PUSH1 0x0 DUP6 SSTORE PUSH3 0x1E0 JUMP JUMPDEST DUP3 PUSH1 0x1F LT PUSH3 0x1AF JUMPI DUP1 MLOAD PUSH1 0xFF NOT AND DUP4 DUP1 ADD OR DUP6 SSTORE PUSH3 0x1E0 JUMP JUMPDEST DUP3 DUP1 ADD PUSH1 0x1 ADD DUP6 SSTORE DUP3 ISZERO PUSH3 0x1E0 JUMPI SWAP2 DUP3 ADD JUMPDEST DUP3 DUP2 GT ISZERO PUSH3 0x1DF JUMPI DUP3 MLOAD DUP3 SSTORE SWAP2 PUSH1 0x20 ADD SWAP2 SWAP1 PUSH1 0x1 ADD SWAP1 PUSH3 0x1C2 JUMP JUMPDEST JUMPDEST POP SWAP1 POP PUSH3 0x1EF SWAP2 SWAP1 PUSH3 0x1F3 JUMP JUMPDEST POP SWAP1 JUMP JUMPDEST JUMPDEST DUP1 DUP3 GT ISZERO PUSH3 0x20E JUMPI PUSH1 0x0 DUP2 PUSH1 0x0 SWAP1 SSTORE POP PUSH1 0x1 ADD PUSH3 0x1F4 JUMP JUMPDEST POP SWAP1 JUMP JUMPDEST PUSH1 0x0 PUSH1 0x2 DUP3 DIV SWAP1 POP PUSH1 0x1 DUP3 AND DUP1 PUSH3 0x22B JUMPI PUSH1 0x7F DUP3 AND SWAP2 POP JUMPDEST PUSH1 0x20 DUP3 LT DUP2 EQ ISZERO PUSH3 0x242 JUMPI PUSH3 0x241 PUSH3 0x248 JUMP JUMPDEST JUMPDEST POP SWAP2 SWAP1 POP JUMP JUMPDEST PUSH32 0x4E487B7100000000000000000000000000000000000000000000000000000000 PUSH1 0x0 MSTORE PUSH1 0x22 PUSH1 0x4 MSTORE PUSH1 0x24 PUSH1 0x0 REVERT JUMPDEST PUSH2 0xB86 DUP1 PUSH3 0x287 PUSH1 0x0 CODECOPY PUSH1 0x0 RETURN INVALID PUSH1 0x80 PUSH1 0x40 MSTORE PUSH1 0x4 CALLDATASIZE LT PUSH2 0x9C JUMPI PUSH1 0x0 CALLDATALOAD PUSH1 0xE0 SHR DUP1 PUSH4 0xBD2E62C5 GT PUSH2 0x64 JUMPI DUP1 PUSH4 0xBD2E62C5 EQ PUSH2 0x164 JUMPI DUP1 PUSH4 0xF2FDE38B EQ PUSH2 0x18F JUMPI DUP1 PUSH4 0xF7317F00 EQ PUSH2 0x1B8 JUMPI DUP1 PUSH4 0xF851A440 EQ PUSH2 0x1E3 JUMPI DUP1 PUSH4 0xF9609F08 EQ PUSH2 0x20E JUMPI DUP1 PUSH4 0xFBFD2045 EQ PUSH2 0x22A JUMPI PUSH2 0x9C JUMP JUMPDEST DUP1 PUSH4 0xD823447 EQ PUSH2 0xA1 JUMPI DUP1 PUSH4 0x109E94CF EQ PUSH2 0xCC JUMPI DUP1 PUSH4 0x715018A6 EQ PUSH2 0xF7 JUMPI DUP1 PUSH4 0x8DA5CB5B EQ PUSH2 0x10E JUMPI DUP1 PUSH4 0xA1D19361 EQ PUSH2 0x139 JUMPI JUMPDEST PUSH1 0x0 DUP1 REVERT JUMPDEST CALLVALUE DUP1 ISZERO PUSH2 0xAD JUMPI PUSH1 0x0 DUP1 REVERT JUMPDEST POP PUSH2 0xB6 PUSH2 0x255 JUMP JUMPDEST PUSH1 0x40 MLOAD PUSH2 0xC3 SWAP2 SWAP1 PUSH2 0x8B1 JUMP JUMPDEST PUSH1 0x40 MLOAD DUP1 SWAP2 SUB SWAP1 RETURN JUMPDEST CALLVALUE DUP1 ISZERO PUSH2 0xD8 JUMPI PUSH1 0x0 DUP1 REVERT JUMPDEST POP PUSH2 0xE1 PUSH2 0x2E3 JUMP JUMPDEST PUSH1 0x40 MLOAD PUSH2 0xEE SWAP2 SWAP1 PUSH2 0x87B JUMP JUMPDEST PUSH1 0x40 MLOAD DUP1 SWAP2 SUB SWAP1 RETURN JUMPDEST CALLVALUE DUP1 ISZERO PUSH2 0x103 JUMPI PUSH1 0x0 DUP1 REVERT JUMPDEST POP PUSH2 0x10C PUSH2 0x309 JUMP JUMPDEST STOP JUMPDEST CALLVALUE DUP1 ISZERO PUSH2 0x11A JUMPI PUSH1 0x0 DUP1 REVERT JUMPDEST POP PUSH2 0x123 PUSH2 0x31D JUMP JUMPDEST PUSH1 0x40 MLOAD PUSH2 0x130 SWAP2 SWAP1 PUSH2 0x87B JUMP JUMPDEST PUSH1 0x40 MLOAD DUP1 SWAP2 SUB SWAP1 RETURN JUMPDEST CALLVALUE DUP1 ISZERO PUSH2 0x145 JUMPI PUSH1 0x0 DUP1 REVERT JUMPDEST POP PUSH2 0x14E PUSH2 0x346 JUMP JUMPDEST PUSH1 0x40 MLOAD PUSH2 0x15B SWAP2 SWAP1 PUSH2 0x896 JUMP JUMPDEST PUSH1 0x40 MLOAD DUP1 SWAP2 SUB SWAP1 RETURN JUMPDEST CALLVALUE DUP1 ISZERO PUSH2 0x170 JUMPI PUSH1 0x0 DUP1 REVERT JUMPDEST POP PUSH2 0x179 PUSH2 0x394 JUMP JUMPDEST PUSH1 0x40 MLOAD PUSH2 0x186 SWAP2 SWAP1 PUSH2 0x896 JUMP JUMPDEST PUSH1 0x40 MLOAD DUP1 SWAP2 SUB SWAP1 RETURN JUMPDEST CALLVALUE DUP1 ISZERO PUSH2 0x19B JUMPI PUSH1 0x0 DUP1 REVERT JUMPDEST POP PUSH2 0x1B6 PUSH1 0x4 DUP1 CALLDATASIZE SUB DUP2 ADD SWAP1 PUSH2 0x1B1 SWAP2 SWAP1 PUSH2 0x762 JUMP JUMPDEST PUSH2 0x3A7 JUMP JUMPDEST STOP JUMPDEST CALLVALUE DUP1 ISZERO PUSH2 0x1C4 JUMPI PUSH1 0x0 DUP1 REVERT JUMPDEST POP PUSH2 0x1CD PUSH2 0x42B JUMP JUMPDEST PUSH1 0x40 MLOAD PUSH2 0x1DA SWAP2 SWAP1 PUSH2 0x896 JUMP JUMPDEST PUSH1 0x40 MLOAD DUP1 SWAP2 SUB SWAP1 RETURN JUMPDEST CALLVALUE DUP1 ISZERO PUSH2 0x1EF JUMPI PUSH1 0x0 DUP1 REVERT JUMPDEST POP PUSH2 0x1F8 PUSH2 0x43E JUMP JUMPDEST PUSH1 0x40 MLOAD PUSH2 0x205 SWAP2 SWAP1 PUSH2 0x87B JUMP JUMPDEST PUSH1 0x40 MLOAD DUP1 SWAP2 SUB SWAP1 RETURN JUMPDEST PUSH2 0x228 PUSH1 0x4 DUP1 CALLDATASIZE SUB DUP2 ADD SWAP1 PUSH2 0x223 SWAP2 SWAP1 PUSH2 0x78F JUMP JUMPDEST PUSH2 0x464 JUMP JUMPDEST STOP JUMPDEST CALLVALUE DUP1 ISZERO PUSH2 0x236 JUMPI PUSH1 0x0 DUP1 REVERT JUMPDEST POP PUSH2 0x23F PUSH2 0x5DD JUMP JUMPDEST PUSH1 0x40 MLOAD PUSH2 0x24C SWAP2 SWAP1 PUSH2 0x87B JUMP JUMPDEST PUSH1 0x40 MLOAD DUP1 SWAP2 SUB SWAP1 RETURN JUMPDEST PUSH1 0x6 DUP1 SLOAD PUSH2 0x262 SWAP1 PUSH2 0xA1B JUMP JUMPDEST DUP1 PUSH1 0x1F ADD PUSH1 0x20 DUP1 SWAP2 DIV MUL PUSH1 0x20 ADD PUSH1 0x40 MLOAD SWAP1 DUP2 ADD PUSH1 0x40 MSTORE DUP1 SWAP3 SWAP2 SWAP1 DUP2 DUP2 MSTORE PUSH1 0x20 ADD DUP3 DUP1 SLOAD PUSH2 0x28E SWAP1 PUSH2 0xA1B JUMP JUMPDEST DUP1 ISZERO PUSH2 0x2DB JUMPI DUP1 PUSH1 0x1F LT PUSH2 0x2B0 JUMPI PUSH2 0x100 DUP1 DUP4 SLOAD DIV MUL DUP4 MSTORE SWAP2 PUSH1 0x20 ADD SWAP2 PUSH2 0x2DB JUMP JUMPDEST DUP3 ADD SWAP2 SWAP1 PUSH1 0x0 MSTORE PUSH1 0x20 PUSH1 0x0 KECCAK256 SWAP1 JUMPDEST DUP2 SLOAD DUP2 MSTORE SWAP1 PUSH1 0x1 ADD SWAP1 PUSH1 0x20 ADD DUP1 DUP4 GT PUSH2 0x2BE JUMPI DUP3 SWAP1 SUB PUSH1 0x1F AND DUP3 ADD SWAP2 JUMPDEST POP POP POP POP POP DUP2 JUMP JUMPDEST PUSH1 0x2 PUSH1 0x0 SWAP1 SLOAD SWAP1 PUSH2 0x100 EXP SWAP1 DIV PUSH20 0xFFFFFFFFFFFFFFFFFFFFFFFFFFFFFFFFFFFFFFFF AND DUP2 JUMP JUMPDEST PUSH2 0x311 PUSH2 0x603 JUMP JUMPDEST PUSH2 0x31B PUSH1 0x0 PUSH2 0x681 JUMP JUMPDEST JUMP JUMPDEST PUSH1 0x0 DUP1 PUSH1 0x0 SWAP1 SLOAD SWAP1 PUSH2 0x100 EXP SWAP1 DIV PUSH20 0xFFFFFFFFFFFFFFFFFFFFFFFFFFFFFFFFFFFFFFFF AND SWAP1 POP SWAP1 JUMP JUMPDEST PUSH1 0x0 PUSH1 0x1 ISZERO ISZERO PUSH1 0x5 PUSH1 0x0 SWAP1 SLOAD SWAP1 PUSH2 0x100 EXP SWAP1 DIV PUSH1 0xFF AND ISZERO ISZERO EQ DUP1 ISZERO PUSH2 0x37E JUMPI POP PUSH1 0x1 ISZERO ISZERO PUSH1 0x5 PUSH1 0x1 SWAP1 SLOAD SWAP1 PUSH2 0x100 EXP SWAP1 DIV PUSH1 0xFF AND ISZERO ISZERO EQ JUMPDEST ISZERO PUSH2 0x38C JUMPI PUSH1 0x1 SWAP1 POP PUSH2 0x391 JUMP JUMPDEST PUSH1 0x0 SWAP1 POP JUMPDEST SWAP1 JUMP JUMPDEST PUSH1 0x5 PUSH1 0x1 SWAP1 SLOAD SWAP1 PUSH2 0x100 EXP SWAP1 DIV PUSH1 0xFF AND DUP2 JUMP JUMPDEST PUSH2 0x3AF PUSH2 0x603 JUMP JUMPDEST PUSH1 0x0 PUSH20 0xFFFFFFFFFFFFFFFFFFFFFFFFFFFFFFFFFFFFFFFF AND DUP2 PUSH20 0xFFFFFFFFFFFFFFFFFFFFFFFFFFFFFFFFFFFFFFFF AND EQ ISZERO PUSH2 0x41F JUMPI PUSH1 0x40 MLOAD PUSH32 0x8C379A000000000000000000000000000000000000000000000000000000000 DUP2 MSTORE PUSH1 0x4 ADD PUSH2 0x416 SWAP1 PUSH2 0x8D3 JUMP JUMPDEST PUSH1 0x40 MLOAD DUP1 SWAP2 SUB SWAP1 REVERT JUMPDEST PUSH2 0x428 DUP2 PUSH2 0x681 JUMP JUMPDEST POP JUMP JUMPDEST PUSH1 0x5 PUSH1 0x0 SWAP1 SLOAD SWAP1 PUSH2 0x100 EXP SWAP1 DIV PUSH1 0xFF AND DUP2 JUMP JUMPDEST PUSH1 0x3 PUSH1 0x0 SWAP1 SLOAD SWAP1 PUSH2 0x100 EXP SWAP1 DIV PUSH20 0xFFFFFFFFFFFFFFFFFFFFFFFFFFFFFFFFFFFFFFFF AND DUP2 JUMP JUMPDEST PUSH2 0x46C PUSH2 0x603 JUMP JUMPDEST DUP2 PUSH1 0x1 PUSH1 0x0 PUSH2 0x100 EXP DUP2 SLOAD DUP2 PUSH20 0xFFFFFFFFFFFFFFFFFFFFFFFFFFFFFFFFFFFFFFFF MUL NOT AND SWAP1 DUP4 PUSH20 0xFFFFFFFFFFFFFFFFFFFFFFFFFFFFFFFFFFFFFFFF AND MUL OR SWAP1 SSTORE POP CALLER PUSH1 0x2 PUSH1 0x0 PUSH2 0x100 EXP DUP2 SLOAD DUP2 PUSH20 0xFFFFFFFFFFFFFFFFFFFFFFFFFFFFFFFFFFFFFFFF MUL NOT AND SWAP1 DUP4 PUSH20 0xFFFFFFFFFFFFFFFFFFFFFFFFFFFFFFFFFFFFFFFF AND MUL OR SWAP1 SSTORE POP DUP1 PUSH1 0x3 PUSH1 0x0 PUSH2 0x100 EXP DUP2 SLOAD DUP2 PUSH20 0xFFFFFFFFFFFFFFFFFFFFFFFFFFFFFFFFFFFFFFFF MUL NOT AND SWAP1 DUP4 PUSH20 0xFFFFFFFFFFFFFFFFFFFFFFFFFFFFFFFFFFFFFFFF AND MUL OR SWAP1 SSTORE POP PUSH1 0x0 CALLVALUE SWAP1 POP DUP1 PUSH1 0x4 PUSH1 0x0 DUP6 PUSH20 0xFFFFFFFFFFFFFFFFFFFFFFFFFFFFFFFFFFFFFFFF AND PUSH20 0xFFFFFFFFFFFFFFFFFFFFFFFFFFFFFFFFFFFFFFFF AND DUP2 MSTORE PUSH1 0x20 ADD SWAP1 DUP2 MSTORE PUSH1 0x20 ADD PUSH1 0x0 KECCAK256 PUSH1 0x0 DUP3 DUP3 SLOAD PUSH2 0x583 SWAP2 SWAP1 PUSH2 0x94A JUMP JUMPDEST SWAP3 POP POP DUP2 SWAP1 SSTORE POP DUP3 PUSH20 0xFFFFFFFFFFFFFFFFFFFFFFFFFFFFFFFFFFFFFFFF AND PUSH32 0x2DA466A7B24304F47E87FA2E1E5A81B9831CE54FEC19055CE277CA2F39BA42C4 DUP3 PUSH1 0x40 MLOAD PUSH2 0x5D0 SWAP2 SWAP1 PUSH2 0x913 JUMP JUMPDEST PUSH1 0x40 MLOAD DUP1 SWAP2 SUB SWAP1 LOG2 POP POP POP JUMP JUMPDEST PUSH1 0x1 PUSH1 0x0 SWAP1 SLOAD SWAP1 PUSH2 0x100 EXP SWAP1 DIV PUSH20 0xFFFFFFFFFFFFFFFFFFFFFFFFFFFFFFFFFFFFFFFF AND DUP2 JUMP JUMPDEST PUSH2 0x60B PUSH2 0x745 JUMP JUMPDEST PUSH20 0xFFFFFFFFFFFFFFFFFFFFFFFFFFFFFFFFFFFFFFFF AND PUSH2 0x629 PUSH2 0x31D JUMP JUMPDEST PUSH20 0xFFFFFFFFFFFFFFFFFFFFFFFFFFFFFFFFFFFFFFFF AND EQ PUSH2 0x67F JUMPI PUSH1 0x40 MLOAD PUSH32 0x8C379A000000000000000000000000000000000000000000000000000000000 DUP2 MSTORE PUSH1 0x4 ADD PUSH2 0x676 SWAP1 PUSH2 0x8F3 JUMP JUMPDEST PUSH1 0x40 MLOAD DUP1 SWAP2 SUB SWAP1 REVERT JUMPDEST JUMP JUMPDEST PUSH1 0x0 DUP1 PUSH1 0x0 SWAP1 SLOAD SWAP1 PUSH2 0x100 EXP SWAP1 DIV PUSH20 0xFFFFFFFFFFFFFFFFFFFFFFFFFFFFFFFFFFFFFFFF AND SWAP1 POP DUP2 PUSH1 0x0 DUP1 PUSH2 0x100 EXP DUP2 SLOAD DUP2 PUSH20 0xFFFFFFFFFFFFFFFFFFFFFFFFFFFFFFFFFFFFFFFF MUL NOT AND SWAP1 DUP4 PUSH20 0xFFFFFFFFFFFFFFFFFFFFFFFFFFFFFFFFFFFFFFFF AND MUL OR SWAP1 SSTORE POP DUP2 PUSH20 0xFFFFFFFFFFFFFFFFFFFFFFFFFFFFFFFFFFFFFFFF AND DUP2 PUSH20 0xFFFFFFFFFFFFFFFFFFFFFFFFFFFFFFFFFFFFFFFF AND PUSH32 0x8BE0079C531659141344CD1FD0A4F28419497F9722A3DAAFE3B4186F6B6457E0 PUSH1 0x40 MLOAD PUSH1 0x40 MLOAD DUP1 SWAP2 SUB SWAP1 LOG3 POP POP JUMP JUMPDEST PUSH1 0x0 CALLER SWAP1 POP SWAP1 JUMP JUMPDEST PUSH1 0x0 DUP2 CALLDATALOAD SWAP1 POP PUSH2 0x75C DUP2 PUSH2 0xB39 JUMP JUMPDEST SWAP3 SWAP2 POP POP JUMP JUMPDEST PUSH1 0x0 PUSH1 0x20 DUP3 DUP5 SUB SLT ISZERO PUSH2 0x778 JUMPI PUSH2 0x777 PUSH2 0xAAB JUMP JUMPDEST JUMPDEST PUSH1 0x0 PUSH2 0x786 DUP5 DUP3 DUP6 ADD PUSH2 0x74D JUMP JUMPDEST SWAP2 POP POP SWAP3 SWAP2 POP POP JUMP JUMPDEST PUSH1 0x0 DUP1 PUSH1 0x40 DUP4 DUP6 SUB SLT ISZERO PUSH2 0x7A6 JUMPI PUSH2 0x7A5 PUSH2 0xAAB JUMP JUMPDEST JUMPDEST PUSH1 0x0 PUSH2 0x7B4 DUP6 DUP3 DUP7 ADD PUSH2 0x74D JUMP JUMPDEST SWAP3 POP POP PUSH1 0x20 PUSH2 0x7C5 DUP6 DUP3 DUP7 ADD PUSH2 0x74D JUMP JUMPDEST SWAP2 POP POP SWAP3 POP SWAP3 SWAP1 POP JUMP JUMPDEST PUSH2 0x7D8 DUP2 PUSH2 0x9A0 JUMP JUMPDEST DUP3 MSTORE POP POP JUMP JUMPDEST PUSH2 0x7E7 DUP2 PUSH2 0x9B2 JUMP JUMPDEST DUP3 MSTORE POP POP JUMP JUMPDEST PUSH1 0x0 PUSH2 0x7F8 DUP3 PUSH2 0x92E JUMP JUMPDEST PUSH2 0x802 DUP2 DUP6 PUSH2 0x939 JUMP JUMPDEST SWAP4 POP PUSH2 0x812 DUP2 DUP6 PUSH1 0x20 DUP7 ADD PUSH2 0x9E8 JUMP JUMPDEST PUSH2 0x81B DUP2 PUSH2 0xAB0 JUMP JUMPDEST DUP5 ADD SWAP2 POP POP SWAP3 SWAP2 POP POP JUMP JUMPDEST PUSH1 0x0 PUSH2 0x833 PUSH1 0x26 DUP4 PUSH2 0x939 JUMP JUMPDEST SWAP2 POP PUSH2 0x83E DUP3 PUSH2 0xAC1 JUMP JUMPDEST PUSH1 0x40 DUP3 ADD SWAP1 POP SWAP2 SWAP1 POP JUMP JUMPDEST PUSH1 0x0 PUSH2 0x856 PUSH1 0x20 DUP4 PUSH2 0x939 JUMP JUMPDEST SWAP2 POP PUSH2 0x861 DUP3 PUSH2 0xB10 JUMP JUMPDEST PUSH1 0x20 DUP3 ADD SWAP1 POP SWAP2 SWAP1 POP JUMP JUMPDEST PUSH2 0x875 DUP2 PUSH2 0x9DE JUMP JUMPDEST DUP3 MSTORE POP POP JUMP JUMPDEST PUSH1 0x0 PUSH1 0x20 DUP3 ADD SWAP1 POP PUSH2 0x890 PUSH1 0x0 DUP4 ADD DUP5 PUSH2 0x7CF JUMP JUMPDEST SWAP3 SWAP2 POP POP JUMP JUMPDEST PUSH1 0x0 PUSH1 0x20 DUP3 ADD SWAP1 POP PUSH2 0x8AB PUSH1 0x0 DUP4 ADD DUP5 PUSH2 0x7DE JUMP JUMPDEST SWAP3 SWAP2 POP POP JUMP JUMPDEST PUSH1 0x0 PUSH1 0x20 DUP3 ADD SWAP1 POP DUP2 DUP2 SUB PUSH1 0x0 DUP4 ADD MSTORE PUSH2 0x8CB DUP2 DUP5 PUSH2 0x7ED JUMP JUMPDEST SWAP1 POP SWAP3 SWAP2 POP POP JUMP JUMPDEST PUSH1 0x0 PUSH1 0x20 DUP3 ADD SWAP1 POP DUP2 DUP2 SUB PUSH1 0x0 DUP4 ADD MSTORE PUSH2 0x8EC DUP2 PUSH2 0x826 JUMP JUMPDEST SWAP1 POP SWAP2 SWAP1 POP JUMP JUMPDEST PUSH1 0x0 PUSH1 0x20 DUP3 ADD SWAP1 POP DUP2 DUP2 SUB PUSH1 0x0 DUP4 ADD MSTORE PUSH2 0x90C DUP2 PUSH2 0x849 JUMP JUMPDEST SWAP1 POP SWAP2 SWAP1 POP JUMP JUMPDEST PUSH1 0x0 PUSH1 0x20 DUP3 ADD SWAP1 POP PUSH2 0x928 PUSH1 0x0 DUP4 ADD DUP5 PUSH2 0x86C JUMP JUMPDEST SWAP3 SWAP2 POP POP JUMP JUMPDEST PUSH1 0x0 DUP2 MLOAD SWAP1 POP SWAP2 SWAP1 POP JUMP JUMPDEST PUSH1 0x0 DUP3 DUP3 MSTORE PUSH1 0x20 DUP3 ADD SWAP1 POP SWAP3 SWAP2 POP POP JUMP JUMPDEST PUSH1 0x0 PUSH2 0x955 DUP3 PUSH2 0x9DE JUMP JUMPDEST SWAP2 POP PUSH2 0x960 DUP4 PUSH2 0x9DE JUMP JUMPDEST SWAP3 POP DUP3 PUSH32 0xFFFFFFFFFFFFFFFFFFFFFFFFFFFFFFFFFFFFFFFFFFFFFFFFFFFFFFFFFFFFFFFF SUB DUP3 GT ISZERO PUSH2 0x995 JUMPI PUSH2 0x994 PUSH2 0xA4D JUMP JUMPDEST JUMPDEST DUP3 DUP3 ADD SWAP1 POP SWAP3 SWAP2 POP POP JUMP JUMPDEST PUSH1 0x0 PUSH2 0x9AB DUP3 PUSH2 0x9BE JUMP JUMPDEST SWAP1 POP SWAP2 SWAP1 POP JUMP JUMPDEST PUSH1 0x0 DUP2 ISZERO ISZERO SWAP1 POP SWAP2 SWAP1 POP JUMP JUMPDEST PUSH1 0x0 PUSH20 0xFFFFFFFFFFFFFFFFFFFFFFFFFFFFFFFFFFFFFFFF DUP3 AND SWAP1 POP SWAP2 SWAP1 POP JUMP JUMPDEST PUSH1 0x0 DUP2 SWAP1 POP SWAP2 SWAP1 POP JUMP JUMPDEST PUSH1 0x0 JUMPDEST DUP4 DUP2 LT ISZERO PUSH2 0xA06 JUMPI DUP1 DUP3 ADD MLOAD DUP2 DUP5 ADD MSTORE PUSH1 0x20 DUP2 ADD SWAP1 POP PUSH2 0x9EB JUMP JUMPDEST DUP4 DUP2 GT ISZERO PUSH2 0xA15 JUMPI PUSH1 0x0 DUP5 DUP5 ADD MSTORE JUMPDEST POP POP POP POP JUMP JUMPDEST PUSH1 0x0 PUSH1 0x2 DUP3 DIV SWAP1 POP PUSH1 0x1 DUP3 AND DUP1 PUSH2 0xA33 JUMPI PUSH1 0x7F DUP3 AND SWAP2 POP JUMPDEST PUSH1 0x20 DUP3 LT DUP2 EQ ISZERO PUSH2 0xA47 JUMPI PUSH2 0xA46 PUSH2 0xA7C JUMP JUMPDEST JUMPDEST POP SWAP2 SWAP1 POP JUMP JUMPDEST PUSH32 0x4E487B7100000000000000000000000000000000000000000000000000000000 PUSH1 0x0 MSTORE PUSH1 0x11 PUSH1 0x4 MSTORE PUSH1 0x24 PUSH1 0x0 REVERT JUMPDEST PUSH32 0x4E487B7100000000000000000000000000000000000000000000000000000000 PUSH1 0x0 MSTORE PUSH1 0x22 PUSH1 0x4 MSTORE PUSH1 0x24 PUSH1 0x0 REVERT JUMPDEST PUSH1 0x0 DUP1 REVERT JUMPDEST PUSH1 0x0 PUSH1 0x1F NOT PUSH1 0x1F DUP4 ADD AND SWAP1 POP SWAP2 SWAP1 POP JUMP JUMPDEST PUSH32 0x4F776E61626C653A206E6577206F776E657220697320746865207A65726F2061 PUSH1 0x0 DUP3 ADD MSTORE PUSH32 0x6464726573730000000000000000000000000000000000000000000000000000 PUSH1 0x20 DUP3 ADD MSTORE POP JUMP JUMPDEST PUSH32 0x4F776E61626C653A2063616C6C6572206973206E6F7420746865206F776E6572 PUSH1 0x0 DUP3 ADD MSTORE POP JUMP JUMPDEST PUSH2 0xB42 DUP2 PUSH2 0x9A0 JUMP JUMPDEST DUP2 EQ PUSH2 0xB4D JUMPI PUSH1 0x0 DUP1 REVERT JUMPDEST POP JUMP INVALID LOG2 PUSH5 0x6970667358 0x22 SLT KECCAK256 CREATE2 0xE3 0x5F MOD 0xD8 BASEFEE RETURN 0xA9 PUSH18 0x37A91B50CD622F1C52B2085B91DB53567EFB DUP12 CALLDATASIZE 0x4B SWAP16 OR PUSH5 0x736F6C6343 STOP ADDMOD SMOD STOP CALLER "
				},
				"gasEstimates": {
					"creation": {
						"codeDepositCost": "590000",
						"executionCost": "infinite",
						"totalCost": "infinite"
					},
					"external": {
						"admin()": "2580",
						"admin_resolution()": "infinite",
						"client()": "2537",
						"contractor()": "2624",
						"deposit(address,address)": "infinite",
						"owner()": "2589",
						"renounceOwnership()": "30443",
						"taskCompleted()": "2515",
						"taskValidated()": "2521",
						"transferOwnership(address)": "30769",
						"withdrawalAllowed()": "4846"
					}
				},
				"methodIdentifiers": {
					"admin()": "f851a440",
					"admin_resolution()": "0d823447",
					"client()": "109e94cf",
					"contractor()": "fbfd2045",
					"deposit(address,address)": "f9609f08",
					"owner()": "8da5cb5b",
					"renounceOwnership()": "715018a6",
					"taskCompleted()": "f7317f00",
					"taskValidated()": "bd2e62c5",
					"transferOwnership(address)": "f2fde38b",
					"withdrawalAllowed()": "a1d19361"
				}
			},
			"storageLayout": {
				"storage": [
					{
						"astId": 7,
						"contract": "contracts/Escrow.sol:Escrow",
						"label": "_owner",
						"offset": 0,
						"slot": "0",
						"type": "t_address"
					},
					{
						"astId": 446,
						"contract": "contracts/Escrow.sol:Escrow",
						"label": "contractor",
						"offset": 0,
						"slot": "1",
						"type": "t_address"
					},
					{
						"astId": 448,
						"contract": "contracts/Escrow.sol:Escrow",
						"label": "client",
						"offset": 0,
						"slot": "2",
						"type": "t_address"
					},
					{
						"astId": 450,
						"contract": "contracts/Escrow.sol:Escrow",
						"label": "admin",
						"offset": 0,
						"slot": "3",
						"type": "t_address"
					},
					{
						"astId": 454,
						"contract": "contracts/Escrow.sol:Escrow",
						"label": "_deposits",
						"offset": 0,
						"slot": "4",
						"type": "t_mapping(t_address,t_uint256)"
					},
					{
						"astId": 496,
						"contract": "contracts/Escrow.sol:Escrow",
						"label": "taskCompleted",
						"offset": 0,
						"slot": "5",
						"type": "t_bool"
					},
					{
						"astId": 499,
						"contract": "contracts/Escrow.sol:Escrow",
						"label": "taskValidated",
						"offset": 1,
						"slot": "5",
						"type": "t_bool"
					},
					{
						"astId": 502,
						"contract": "contracts/Escrow.sol:Escrow",
						"label": "admin_resolution",
						"offset": 0,
						"slot": "6",
						"type": "t_string_storage"
					}
				],
				"types": {
					"t_address": {
						"encoding": "inplace",
						"label": "address",
						"numberOfBytes": "20"
					},
					"t_bool": {
						"encoding": "inplace",
						"label": "bool",
						"numberOfBytes": "1"
					},
					"t_mapping(t_address,t_uint256)": {
						"encoding": "mapping",
						"key": "t_address",
						"label": "mapping(address => uint256)",
						"numberOfBytes": "32",
						"value": "t_uint256"
					},
					"t_string_storage": {
						"encoding": "bytes",
						"label": "string",
						"numberOfBytes": "32"
					},
					"t_uint256": {
						"encoding": "inplace",
						"label": "uint256",
						"numberOfBytes": "32"
					}
				}
			},
			"userdoc": {
				"kind": "user",
				"methods": {},
				"version": 1
			}
		}
	}
}