{
	"contracts/Escrow.sol": {
		"Escrow": {
			"abi": [
				{
					"anonymous": false,
					"inputs": [
						{
							"indexed": true,
							"internalType": "address",
							"name": "payee",
							"type": "address"
						},
						{
							"indexed": false,
							"internalType": "uint256",
							"name": "weiAmount",
							"type": "uint256"
						}
					],
					"name": "Deposited",
					"type": "event"
				},
				{
					"anonymous": false,
					"inputs": [
						{
							"indexed": true,
							"internalType": "address",
							"name": "previousOwner",
							"type": "address"
						},
						{
							"indexed": true,
							"internalType": "address",
							"name": "newOwner",
							"type": "address"
						}
					],
					"name": "OwnershipTransferred",
					"type": "event"
				},
				{
					"inputs": [],
					"name": "admin",
					"outputs": [
						{
							"internalType": "address",
							"name": "",
							"type": "address"
						}
					],
					"stateMutability": "view",
					"type": "function"
				},
				{
					"inputs": [
						{
							"internalType": "bool",
							"name": "inputAdminResolution",
							"type": "bool"
						},
						{
							"internalType": "uint256",
							"name": "inputAdminDecision",
							"type": "uint256"
						}
					],
					"name": "adminResolutionStatus",
					"outputs": [],
					"stateMutability": "nonpayable",
					"type": "function"
				},
				{
					"inputs": [],
					"name": "client",
					"outputs": [
						{
							"internalType": "address",
							"name": "",
							"type": "address"
						}
					],
					"stateMutability": "view",
					"type": "function"
				},
				{
					"inputs": [],
					"name": "contractor",
					"outputs": [
						{
							"internalType": "address",
							"name": "",
							"type": "address"
						}
					],
					"stateMutability": "view",
					"type": "function"
				},
				{
					"inputs": [
						{
							"internalType": "address",
							"name": "payee",
							"type": "address"
						},
						{
							"internalType": "address",
							"name": "broker",
							"type": "address"
						}
					],
					"name": "deposit",
					"outputs": [],
					"stateMutability": "payable",
					"type": "function"
				},
				{
					"inputs": [],
					"name": "owner",
					"outputs": [
						{
							"internalType": "address",
							"name": "",
							"type": "address"
						}
					],
					"stateMutability": "view",
					"type": "function"
				},
				{
					"inputs": [],
					"name": "renounceOwnership",
					"outputs": [],
					"stateMutability": "nonpayable",
					"type": "function"
				},
				{
					"inputs": [
						{
							"internalType": "bool",
							"name": "inputTaskCompleted",
							"type": "bool"
						}
					],
					"name": "taskCompletionStatus",
					"outputs": [],
					"stateMutability": "nonpayable",
					"type": "function"
				},
				{
					"inputs": [
						{
							"internalType": "bool",
							"name": "inputTaskValidated",
							"type": "bool"
						}
					],
					"name": "taskValidationStatus",
					"outputs": [],
					"stateMutability": "nonpayable",
					"type": "function"
				},
				{
					"inputs": [
						{
							"internalType": "address",
							"name": "newOwner",
							"type": "address"
						}
					],
					"name": "transferOwnership",
					"outputs": [],
					"stateMutability": "nonpayable",
					"type": "function"
				},
				{
					"inputs": [],
					"name": "withdrawalAllowed",
					"outputs": [
						{
							"internalType": "bool",
							"name": "",
							"type": "bool"
						}
					],
					"stateMutability": "view",
					"type": "function"
				}
			],
			"devdoc": {
				"kind": "dev",
				"methods": {
					"owner()": {
						"details": "Returns the address of the current owner."
					},
					"renounceOwnership()": {
						"details": "Leaves the contract without owner. It will not be possible to call `onlyOwner` functions anymore. Can only be called by the current owner. NOTE: Renouncing ownership will leave the contract without an owner, thereby removing any functionality that is only available to the owner."
					},
					"transferOwnership(address)": {
						"details": "Transfers ownership of the contract to a new account (`newOwner`). Can only be called by the current owner."
					}
				},
				"version": 1
			},
			"evm": {
				"assembly": "    /* \"contracts/Escrow.sol\":238:2330  contract Escrow is Ownable {... */\n  mstore(0x40, 0x80)\n  callvalue\n  dup1\n  iszero\n  tag_1\n  jumpi\n  0x00\n  dup1\n  revert\ntag_1:\n  pop\n    /* \"@openzeppelin/contracts/access/Ownable.sol\":936:968  _transferOwnership(_msgSender()) */\n  tag_4\n    /* \"@openzeppelin/contracts/access/Ownable.sol\":955:967  _msgSender() */\n  tag_5\n    /* \"@openzeppelin/contracts/access/Ownable.sol\":955:965  _msgSender */\n  shl(0x20, tag_6)\n    /* \"@openzeppelin/contracts/access/Ownable.sol\":955:967  _msgSender() */\n  0x20\n  shr\n  jump\t// in\ntag_5:\n    /* \"@openzeppelin/contracts/access/Ownable.sol\":936:954  _transferOwnership */\n  shl(0x20, tag_7)\n    /* \"@openzeppelin/contracts/access/Ownable.sol\":936:968  _transferOwnership(_msgSender()) */\n  0x20\n  shr\n  jump\t// in\ntag_4:\n    /* \"contracts/Escrow.sol\":238:2330  contract Escrow is Ownable {... */\n  jump(tag_8)\n    /* \"@openzeppelin/contracts/utils/Context.sol\":640:736  function _msgSender() internal view virtual returns (address) {... */\ntag_6:\n    /* \"@openzeppelin/contracts/utils/Context.sol\":693:700  address */\n  0x00\n    /* \"@openzeppelin/contracts/utils/Context.sol\":719:729  msg.sender */\n  caller\n    /* \"@openzeppelin/contracts/utils/Context.sol\":712:729  return msg.sender */\n  swap1\n  pop\n    /* \"@openzeppelin/contracts/utils/Context.sol\":640:736  function _msgSender() internal view virtual returns (address) {... */\n  swap1\n  jump\t// out\n    /* \"@openzeppelin/contracts/access/Ownable.sol\":2433:2620  function _transferOwnership(address newOwner) internal virtual {... */\ntag_7:\n    /* \"@openzeppelin/contracts/access/Ownable.sol\":2506:2522  address oldOwner */\n  0x00\n    /* \"@openzeppelin/contracts/access/Ownable.sol\":2525:2531  _owner */\n  dup1\n  0x00\n  swap1\n  sload\n  swap1\n  0x0100\n  exp\n  swap1\n  div\n  0xffffffffffffffffffffffffffffffffffffffff\n  and\n    /* \"@openzeppelin/contracts/access/Ownable.sol\":2506:2531  address oldOwner = _owner */\n  swap1\n  pop\n    /* \"@openzeppelin/contracts/access/Ownable.sol\":2550:2558  newOwner */\n  dup2\n    /* \"@openzeppelin/contracts/access/Ownable.sol\":2541:2547  _owner */\n  0x00\n  dup1\n    /* \"@openzeppelin/contracts/access/Ownable.sol\":2541:2558  _owner = newOwner */\n  0x0100\n  exp\n  dup2\n  sload\n  dup2\n  0xffffffffffffffffffffffffffffffffffffffff\n  mul\n  not\n  and\n  swap1\n  dup4\n  0xffffffffffffffffffffffffffffffffffffffff\n  and\n  mul\n  or\n  swap1\n  sstore\n  pop\n    /* \"@openzeppelin/contracts/access/Ownable.sol\":2604:2612  newOwner */\n  dup2\n    /* \"@openzeppelin/contracts/access/Ownable.sol\":2573:2613  OwnershipTransferred(oldOwner, newOwner) */\n  0xffffffffffffffffffffffffffffffffffffffff\n  and\n    /* \"@openzeppelin/contracts/access/Ownable.sol\":2594:2602  oldOwner */\n  dup2\n    /* \"@openzeppelin/contracts/access/Ownable.sol\":2573:2613  OwnershipTransferred(oldOwner, newOwner) */\n  0xffffffffffffffffffffffffffffffffffffffff\n  and\n  0x8be0079c531659141344cd1fd0a4f28419497f9722a3daafe3b4186f6b6457e0\n  mload(0x40)\n  mload(0x40)\n  dup1\n  swap2\n  sub\n  swap1\n  log3\n    /* \"@openzeppelin/contracts/access/Ownable.sol\":2496:2620  {... */\n  pop\n    /* \"@openzeppelin/contracts/access/Ownable.sol\":2433:2620  function _transferOwnership(address newOwner) internal virtual {... */\n  pop\n  jump\t// out\n    /* \"contracts/Escrow.sol\":238:2330  contract Escrow is Ownable {... */\ntag_8:\n  dataSize(sub_0)\n  dup1\n  dataOffset(sub_0)\n  0x00\n  codecopy\n  0x00\n  return\nstop\n\nsub_0: assembly {\n        /* \"contracts/Escrow.sol\":238:2330  contract Escrow is Ownable {... */\n      mstore(0x40, 0x80)\n      jumpi(tag_1, lt(calldatasize, 0x04))\n      shr(0xe0, calldataload(0x00))\n      dup1\n      0x9464c8b8\n      gt\n      tag_13\n      jumpi\n      dup1\n      0x9464c8b8\n      eq\n      tag_7\n      jumpi\n      dup1\n      0xa1d19361\n      eq\n      tag_8\n      jumpi\n      dup1\n      0xf2fde38b\n      eq\n      tag_9\n      jumpi\n      dup1\n      0xf851a440\n      eq\n      tag_10\n      jumpi\n      dup1\n      0xf9609f08\n      eq\n      tag_11\n      jumpi\n      dup1\n      0xfbfd2045\n      eq\n      tag_12\n      jumpi\n      jump(tag_1)\n    tag_13:\n      dup1\n      0x109e94cf\n      eq\n      tag_2\n      jumpi\n      dup1\n      0x251d8cd5\n      eq\n      tag_3\n      jumpi\n      dup1\n      0x5e32c425\n      eq\n      tag_4\n      jumpi\n      dup1\n      0x715018a6\n      eq\n      tag_5\n      jumpi\n      dup1\n      0x8da5cb5b\n      eq\n      tag_6\n      jumpi\n    tag_1:\n      0x00\n      dup1\n      revert\n        /* \"contracts/Escrow.sol\":445:466  address public client */\n    tag_2:\n      callvalue\n      dup1\n      iszero\n      tag_14\n      jumpi\n      0x00\n      dup1\n      revert\n    tag_14:\n      pop\n      tag_15\n      tag_16\n      jump\t// in\n    tag_15:\n      mload(0x40)\n      tag_17\n      swap2\n      swap1\n      tag_18\n      jump\t// in\n    tag_17:\n      mload(0x40)\n      dup1\n      swap2\n      sub\n      swap1\n      return\n        /* \"contracts/Escrow.sol\":1731:1847  function taskCompletionStatus(bool inputTaskCompleted) public virtual{... */\n    tag_3:\n      callvalue\n      dup1\n      iszero\n      tag_19\n      jumpi\n      0x00\n      dup1\n      revert\n    tag_19:\n      pop\n      tag_20\n      0x04\n      dup1\n      calldatasize\n      sub\n      dup2\n      add\n      swap1\n      tag_21\n      swap2\n      swap1\n      tag_22\n      jump\t// in\n    tag_21:\n      tag_23\n      jump\t// in\n    tag_20:\n      stop\n        /* \"contracts/Escrow.sol\":1412:1603  function adminResolutionStatus(bool inputAdminResolution, uint256 inputAdminDecision) public virtual{... */\n    tag_4:\n      callvalue\n      dup1\n      iszero\n      tag_24\n      jumpi\n      0x00\n      dup1\n      revert\n    tag_24:\n      pop\n      tag_25\n      0x04\n      dup1\n      calldatasize\n      sub\n      dup2\n      add\n      swap1\n      tag_26\n      swap2\n      swap1\n      tag_27\n      jump\t// in\n    tag_26:\n      tag_28\n      jump\t// in\n    tag_25:\n      stop\n        /* \"@openzeppelin/contracts/access/Ownable.sol\":1831:1932  function renounceOwnership() public virtual onlyOwner {... */\n    tag_5:\n      callvalue\n      dup1\n      iszero\n      tag_29\n      jumpi\n      0x00\n      dup1\n      revert\n    tag_29:\n      pop\n      tag_30\n      tag_31\n      jump\t// in\n    tag_30:\n      stop\n        /* \"@openzeppelin/contracts/access/Ownable.sol\":1201:1286  function owner() public view virtual returns (address) {... */\n    tag_6:\n      callvalue\n      dup1\n      iszero\n      tag_32\n      jumpi\n      0x00\n      dup1\n      revert\n    tag_32:\n      pop\n      tag_33\n      tag_34\n      jump\t// in\n    tag_33:\n      mload(0x40)\n      tag_35\n      swap2\n      swap1\n      tag_18\n      jump\t// in\n    tag_35:\n      mload(0x40)\n      dup1\n      swap2\n      sub\n      swap1\n      return\n        /* \"contracts/Escrow.sol\":1609:1725  function taskValidationStatus(bool inputTaskValidated) public virtual{... */\n    tag_7:\n      callvalue\n      dup1\n      iszero\n      tag_36\n      jumpi\n      0x00\n      dup1\n      revert\n    tag_36:\n      pop\n      tag_37\n      0x04\n      dup1\n      calldatasize\n      sub\n      dup2\n      add\n      swap1\n      tag_38\n      swap2\n      swap1\n      tag_22\n      jump\t// in\n    tag_38:\n      tag_39\n      jump\t// in\n    tag_37:\n      stop\n        /* \"contracts/Escrow.sol\":1859:2108  function withdrawalAllowed() public view virtual returns (bool){... */\n    tag_8:\n      callvalue\n      dup1\n      iszero\n      tag_40\n      jumpi\n      0x00\n      dup1\n      revert\n    tag_40:\n      pop\n      tag_41\n      tag_42\n      jump\t// in\n    tag_41:\n      mload(0x40)\n      tag_43\n      swap2\n      swap1\n      tag_44\n      jump\t// in\n    tag_43:\n      mload(0x40)\n      dup1\n      swap2\n      sub\n      swap1\n      return\n        /* \"@openzeppelin/contracts/access/Ownable.sol\":2081:2279  function transferOwnership(address newOwner) public virtual onlyOwner {... */\n    tag_9:\n      callvalue\n      dup1\n      iszero\n      tag_45\n      jumpi\n      0x00\n      dup1\n      revert\n    tag_45:\n      pop\n      tag_46\n      0x04\n      dup1\n      calldatasize\n      sub\n      dup2\n      add\n      swap1\n      tag_47\n      swap2\n      swap1\n      tag_48\n      jump\t// in\n    tag_47:\n      tag_49\n      jump\t// in\n    tag_46:\n      stop\n        /* \"contracts/Escrow.sol\":472:492  address public admin */\n    tag_10:\n      callvalue\n      dup1\n      iszero\n      tag_50\n      jumpi\n      0x00\n      dup1\n      revert\n    tag_50:\n      pop\n      tag_51\n      tag_52\n      jump\t// in\n    tag_51:\n      mload(0x40)\n      tag_53\n      swap2\n      swap1\n      tag_18\n      jump\t// in\n    tag_53:\n      mload(0x40)\n      dup1\n      swap2\n      sub\n      swap1\n      return\n        /* \"contracts/Escrow.sol\":648:926  function deposit(address payee, address broker) public payable virtual onlyOwner {... */\n    tag_11:\n      tag_54\n      0x04\n      dup1\n      calldatasize\n      sub\n      dup2\n      add\n      swap1\n      tag_55\n      swap2\n      swap1\n      tag_56\n      jump\t// in\n    tag_55:\n      tag_57\n      jump\t// in\n    tag_54:\n      stop\n        /* \"contracts/Escrow.sol\":414:439  address public contractor */\n    tag_12:\n      callvalue\n      dup1\n      iszero\n      tag_58\n      jumpi\n      0x00\n      dup1\n      revert\n    tag_58:\n      pop\n      tag_59\n      tag_60\n      jump\t// in\n    tag_59:\n      mload(0x40)\n      tag_61\n      swap2\n      swap1\n      tag_18\n      jump\t// in\n    tag_61:\n      mload(0x40)\n      dup1\n      swap2\n      sub\n      swap1\n      return\n        /* \"contracts/Escrow.sol\":445:466  address public client */\n    tag_16:\n      0x02\n      0x00\n      swap1\n      sload\n      swap1\n      0x0100\n      exp\n      swap1\n      div\n      0xffffffffffffffffffffffffffffffffffffffff\n      and\n      dup2\n      jump\t// out\n        /* \"contracts/Escrow.sol\":1731:1847  function taskCompletionStatus(bool inputTaskCompleted) public virtual{... */\n    tag_23:\n        /* \"contracts/Escrow.sol\":1822:1840  inputTaskCompleted */\n      dup1\n        /* \"contracts/Escrow.sol\":1806:1819  taskCompleted */\n      0x05\n      0x00\n        /* \"contracts/Escrow.sol\":1806:1840  taskCompleted = inputTaskCompleted */\n      0x0100\n      exp\n      dup2\n      sload\n      dup2\n      0xff\n      mul\n      not\n      and\n      swap1\n      dup4\n      iszero\n      iszero\n      mul\n      or\n      swap1\n      sstore\n      pop\n        /* \"contracts/Escrow.sol\":1731:1847  function taskCompletionStatus(bool inputTaskCompleted) public virtual{... */\n      pop\n      jump\t// out\n        /* \"contracts/Escrow.sol\":1412:1603  function adminResolutionStatus(bool inputAdminResolution, uint256 inputAdminDecision) public virtual{... */\n    tag_28:\n        /* \"contracts/Escrow.sol\":1536:1556  inputAdminResolution */\n      dup2\n        /* \"contracts/Escrow.sol\":1518:1533  adminResolution */\n      0x05\n      0x02\n        /* \"contracts/Escrow.sol\":1518:1556  adminResolution = inputAdminResolution */\n      0x0100\n      exp\n      dup2\n      sload\n      dup2\n      0xff\n      mul\n      not\n      and\n      swap1\n      dup4\n      iszero\n      iszero\n      mul\n      or\n      swap1\n      sstore\n      pop\n        /* \"contracts/Escrow.sol\":1578:1596  inputAdminDecision */\n      dup1\n        /* \"contracts/Escrow.sol\":1562:1575  adminDecision */\n      0x06\n        /* \"contracts/Escrow.sol\":1562:1596  adminDecision = inputAdminDecision */\n      dup2\n      swap1\n      sstore\n      pop\n        /* \"contracts/Escrow.sol\":1412:1603  function adminResolutionStatus(bool inputAdminResolution, uint256 inputAdminDecision) public virtual{... */\n      pop\n      pop\n      jump\t// out\n        /* \"@openzeppelin/contracts/access/Ownable.sol\":1831:1932  function renounceOwnership() public virtual onlyOwner {... */\n    tag_31:\n        /* \"@openzeppelin/contracts/access/Ownable.sol\":1094:1107  _checkOwner() */\n      tag_65\n        /* \"@openzeppelin/contracts/access/Ownable.sol\":1094:1105  _checkOwner */\n      tag_66\n        /* \"@openzeppelin/contracts/access/Ownable.sol\":1094:1107  _checkOwner() */\n      jump\t// in\n    tag_65:\n        /* \"@openzeppelin/contracts/access/Ownable.sol\":1895:1925  _transferOwnership(address(0)) */\n      tag_68\n        /* \"@openzeppelin/contracts/access/Ownable.sol\":1922:1923  0 */\n      0x00\n        /* \"@openzeppelin/contracts/access/Ownable.sol\":1895:1913  _transferOwnership */\n      tag_69\n        /* \"@openzeppelin/contracts/access/Ownable.sol\":1895:1925  _transferOwnership(address(0)) */\n      jump\t// in\n    tag_68:\n        /* \"@openzeppelin/contracts/access/Ownable.sol\":1831:1932  function renounceOwnership() public virtual onlyOwner {... */\n      jump\t// out\n        /* \"@openzeppelin/contracts/access/Ownable.sol\":1201:1286  function owner() public view virtual returns (address) {... */\n    tag_34:\n        /* \"@openzeppelin/contracts/access/Ownable.sol\":1247:1254  address */\n      0x00\n        /* \"@openzeppelin/contracts/access/Ownable.sol\":1273:1279  _owner */\n      dup1\n      0x00\n      swap1\n      sload\n      swap1\n      0x0100\n      exp\n      swap1\n      div\n      0xffffffffffffffffffffffffffffffffffffffff\n      and\n        /* \"@openzeppelin/contracts/access/Ownable.sol\":1266:1279  return _owner */\n      swap1\n      pop\n        /* \"@openzeppelin/contracts/access/Ownable.sol\":1201:1286  function owner() public view virtual returns (address) {... */\n      swap1\n      jump\t// out\n        /* \"contracts/Escrow.sol\":1609:1725  function taskValidationStatus(bool inputTaskValidated) public virtual{... */\n    tag_39:\n        /* \"contracts/Escrow.sol\":1700:1718  inputTaskValidated */\n      dup1\n        /* \"contracts/Escrow.sol\":1684:1697  taskValidated */\n      0x05\n      0x01\n        /* \"contracts/Escrow.sol\":1684:1718  taskValidated = inputTaskValidated */\n      0x0100\n      exp\n      dup2\n      sload\n      dup2\n      0xff\n      mul\n      not\n      and\n      swap1\n      dup4\n      iszero\n      iszero\n      mul\n      or\n      swap1\n      sstore\n      pop\n        /* \"contracts/Escrow.sol\":1609:1725  function taskValidationStatus(bool inputTaskValidated) public virtual{... */\n      pop\n      jump\t// out\n        /* \"contracts/Escrow.sol\":1859:2108  function withdrawalAllowed() public view virtual returns (bool){... */\n    tag_42:\n        /* \"contracts/Escrow.sol\":1917:1921  bool */\n      0x00\n        /* \"contracts/Escrow.sol\":1952:1956  true */\n      0x01\n        /* \"contracts/Escrow.sol\":1935:1956  taskCompleted == true */\n      iszero\n      iszero\n        /* \"contracts/Escrow.sol\":1935:1948  taskCompleted */\n      0x05\n      0x00\n      swap1\n      sload\n      swap1\n      0x0100\n      exp\n      swap1\n      div\n      0xff\n      and\n        /* \"contracts/Escrow.sol\":1935:1956  taskCompleted == true */\n      iszero\n      iszero\n      eq\n        /* \"contracts/Escrow.sol\":1935:1981  taskCompleted == true && taskValidated == true */\n      dup1\n      iszero\n      tag_73\n      jumpi\n      pop\n        /* \"contracts/Escrow.sol\":1977:1981  true */\n      0x01\n        /* \"contracts/Escrow.sol\":1960:1981  taskValidated == true */\n      iszero\n      iszero\n        /* \"contracts/Escrow.sol\":1960:1973  taskValidated */\n      0x05\n      0x01\n      swap1\n      sload\n      swap1\n      0x0100\n      exp\n      swap1\n      div\n      0xff\n      and\n        /* \"contracts/Escrow.sol\":1960:1981  taskValidated == true */\n      iszero\n      iszero\n      eq\n        /* \"contracts/Escrow.sol\":1935:1981  taskCompleted == true && taskValidated == true */\n    tag_73:\n        /* \"contracts/Escrow.sol\":1932:2102  if(taskCompleted == true && taskValidated == true){... */\n      iszero\n      tag_74\n      jumpi\n        /* \"contracts/Escrow.sol\":2003:2007  true */\n      0x01\n        /* \"contracts/Escrow.sol\":1996:2007  return true */\n      swap1\n      pop\n      jump(tag_72)\n        /* \"contracts/Escrow.sol\":1932:2102  if(taskCompleted == true && taskValidated == true){... */\n    tag_74:\n        /* \"contracts/Escrow.sol\":2054:2058  true */\n      0x01\n        /* \"contracts/Escrow.sol\":2035:2058  adminResolution == true */\n      iszero\n      iszero\n        /* \"contracts/Escrow.sol\":2035:2050  adminResolution */\n      0x05\n      0x02\n      swap1\n      sload\n      swap1\n      0x0100\n      exp\n      swap1\n      div\n      0xff\n      and\n        /* \"contracts/Escrow.sol\":2035:2058  adminResolution == true */\n      iszero\n      iszero\n      eq\n        /* \"contracts/Escrow.sol\":2032:2102  if(adminResolution == true){return true;}... */\n      iszero\n      tag_76\n      jumpi\n        /* \"contracts/Escrow.sol\":2067:2071  true */\n      0x01\n        /* \"contracts/Escrow.sol\":2060:2071  return true */\n      swap1\n      pop\n      jump(tag_72)\n        /* \"contracts/Escrow.sol\":2032:2102  if(adminResolution == true){return true;}... */\n    tag_76:\n        /* \"contracts/Escrow.sol\":2095:2100  false */\n      0x00\n        /* \"contracts/Escrow.sol\":2088:2100  return false */\n      swap1\n      pop\n        /* \"contracts/Escrow.sol\":1859:2108  function withdrawalAllowed() public view virtual returns (bool){... */\n    tag_72:\n      swap1\n      jump\t// out\n        /* \"@openzeppelin/contracts/access/Ownable.sol\":2081:2279  function transferOwnership(address newOwner) public virtual onlyOwner {... */\n    tag_49:\n        /* \"@openzeppelin/contracts/access/Ownable.sol\":1094:1107  _checkOwner() */\n      tag_79\n        /* \"@openzeppelin/contracts/access/Ownable.sol\":1094:1105  _checkOwner */\n      tag_66\n        /* \"@openzeppelin/contracts/access/Ownable.sol\":1094:1107  _checkOwner() */\n      jump\t// in\n    tag_79:\n        /* \"@openzeppelin/contracts/access/Ownable.sol\":2189:2190  0 */\n      0x00\n        /* \"@openzeppelin/contracts/access/Ownable.sol\":2169:2191  newOwner != address(0) */\n      0xffffffffffffffffffffffffffffffffffffffff\n      and\n        /* \"@openzeppelin/contracts/access/Ownable.sol\":2169:2177  newOwner */\n      dup2\n        /* \"@openzeppelin/contracts/access/Ownable.sol\":2169:2191  newOwner != address(0) */\n      0xffffffffffffffffffffffffffffffffffffffff\n      and\n      eq\n      iszero\n        /* \"@openzeppelin/contracts/access/Ownable.sol\":2161:2234  require(newOwner != address(0), \"Ownable: new owner is the zero address\") */\n      tag_81\n      jumpi\n      mload(0x40)\n      0x08c379a000000000000000000000000000000000000000000000000000000000\n      dup2\n      mstore\n      0x04\n      add\n      tag_82\n      swap1\n      tag_83\n      jump\t// in\n    tag_82:\n      mload(0x40)\n      dup1\n      swap2\n      sub\n      swap1\n      revert\n    tag_81:\n        /* \"@openzeppelin/contracts/access/Ownable.sol\":2244:2272  _transferOwnership(newOwner) */\n      tag_84\n        /* \"@openzeppelin/contracts/access/Ownable.sol\":2263:2271  newOwner */\n      dup2\n        /* \"@openzeppelin/contracts/access/Ownable.sol\":2244:2262  _transferOwnership */\n      tag_69\n        /* \"@openzeppelin/contracts/access/Ownable.sol\":2244:2272  _transferOwnership(newOwner) */\n      jump\t// in\n    tag_84:\n        /* \"@openzeppelin/contracts/access/Ownable.sol\":2081:2279  function transferOwnership(address newOwner) public virtual onlyOwner {... */\n      pop\n      jump\t// out\n        /* \"contracts/Escrow.sol\":472:492  address public admin */\n    tag_52:\n      0x03\n      0x00\n      swap1\n      sload\n      swap1\n      0x0100\n      exp\n      swap1\n      div\n      0xffffffffffffffffffffffffffffffffffffffff\n      and\n      dup2\n      jump\t// out\n        /* \"contracts/Escrow.sol\":648:926  function deposit(address payee, address broker) public payable virtual onlyOwner {... */\n    tag_57:\n        /* \"@openzeppelin/contracts/access/Ownable.sol\":1094:1107  _checkOwner() */\n      tag_86\n        /* \"@openzeppelin/contracts/access/Ownable.sol\":1094:1105  _checkOwner */\n      tag_66\n        /* \"@openzeppelin/contracts/access/Ownable.sol\":1094:1107  _checkOwner() */\n      jump\t// in\n    tag_86:\n        /* \"contracts/Escrow.sol\":752:757  payee */\n      dup2\n        /* \"contracts/Escrow.sol\":739:749  contractor */\n      0x01\n      0x00\n        /* \"contracts/Escrow.sol\":739:757  contractor = payee */\n      0x0100\n      exp\n      dup2\n      sload\n      dup2\n      0xffffffffffffffffffffffffffffffffffffffff\n      mul\n      not\n      and\n      swap1\n      dup4\n      0xffffffffffffffffffffffffffffffffffffffff\n      and\n      mul\n      or\n      swap1\n      sstore\n      pop\n        /* \"contracts/Escrow.sol\":774:784  msg.sender */\n      caller\n        /* \"contracts/Escrow.sol\":767:773  client */\n      0x02\n      0x00\n        /* \"contracts/Escrow.sol\":767:784  client=msg.sender */\n      0x0100\n      exp\n      dup2\n      sload\n      dup2\n      0xffffffffffffffffffffffffffffffffffffffff\n      mul\n      not\n      and\n      swap1\n      dup4\n      0xffffffffffffffffffffffffffffffffffffffff\n      and\n      mul\n      or\n      swap1\n      sstore\n      pop\n        /* \"contracts/Escrow.sol\":802:808  broker */\n      dup1\n        /* \"contracts/Escrow.sol\":794:799  admin */\n      0x03\n      0x00\n        /* \"contracts/Escrow.sol\":794:808  admin = broker */\n      0x0100\n      exp\n      dup2\n      sload\n      dup2\n      0xffffffffffffffffffffffffffffffffffffffff\n      mul\n      not\n      and\n      swap1\n      dup4\n      0xffffffffffffffffffffffffffffffffffffffff\n      and\n      mul\n      or\n      swap1\n      sstore\n      pop\n        /* \"contracts/Escrow.sol\":818:832  uint256 amount */\n      0x00\n        /* \"contracts/Escrow.sol\":835:844  msg.value */\n      callvalue\n        /* \"contracts/Escrow.sol\":818:844  uint256 amount = msg.value */\n      swap1\n      pop\n        /* \"contracts/Escrow.sol\":874:880  amount */\n      dup1\n        /* \"contracts/Escrow.sol\":854:863  _deposits */\n      0x04\n        /* \"contracts/Escrow.sol\":854:870  _deposits[payee] */\n      0x00\n        /* \"contracts/Escrow.sol\":864:869  payee */\n      dup6\n        /* \"contracts/Escrow.sol\":854:870  _deposits[payee] */\n      0xffffffffffffffffffffffffffffffffffffffff\n      and\n      0xffffffffffffffffffffffffffffffffffffffff\n      and\n      dup2\n      mstore\n      0x20\n      add\n      swap1\n      dup2\n      mstore\n      0x20\n      add\n      0x00\n      keccak256\n      0x00\n        /* \"contracts/Escrow.sol\":854:880  _deposits[payee] += amount */\n      dup3\n      dup3\n      sload\n      tag_88\n      swap2\n      swap1\n      tag_89\n      jump\t// in\n    tag_88:\n      swap3\n      pop\n      pop\n      dup2\n      swap1\n      sstore\n      pop\n        /* \"contracts/Escrow.sol\":905:910  payee */\n      dup3\n        /* \"contracts/Escrow.sol\":895:919  Deposited(payee, amount) */\n      0xffffffffffffffffffffffffffffffffffffffff\n      and\n      0x2da466a7b24304f47e87fa2e1e5a81b9831ce54fec19055ce277ca2f39ba42c4\n        /* \"contracts/Escrow.sol\":912:918  amount */\n      dup3\n        /* \"contracts/Escrow.sol\":895:919  Deposited(payee, amount) */\n      mload(0x40)\n      tag_90\n      swap2\n      swap1\n      tag_91\n      jump\t// in\n    tag_90:\n      mload(0x40)\n      dup1\n      swap2\n      sub\n      swap1\n      log2\n        /* \"contracts/Escrow.sol\":729:926  {... */\n      pop\n        /* \"contracts/Escrow.sol\":648:926  function deposit(address payee, address broker) public payable virtual onlyOwner {... */\n      pop\n      pop\n      jump\t// out\n        /* \"contracts/Escrow.sol\":414:439  address public contractor */\n    tag_60:\n      0x01\n      0x00\n      swap1\n      sload\n      swap1\n      0x0100\n      exp\n      swap1\n      div\n      0xffffffffffffffffffffffffffffffffffffffff\n      and\n      dup2\n      jump\t// out\n        /* \"@openzeppelin/contracts/access/Ownable.sol\":1359:1489  function _checkOwner() internal view virtual {... */\n    tag_66:\n        /* \"@openzeppelin/contracts/access/Ownable.sol\":1433:1445  _msgSender() */\n      tag_93\n        /* \"@openzeppelin/contracts/access/Ownable.sol\":1433:1443  _msgSender */\n      tag_94\n        /* \"@openzeppelin/contracts/access/Ownable.sol\":1433:1445  _msgSender() */\n      jump\t// in\n    tag_93:\n        /* \"@openzeppelin/contracts/access/Ownable.sol\":1422:1445  owner() == _msgSender() */\n      0xffffffffffffffffffffffffffffffffffffffff\n      and\n        /* \"@openzeppelin/contracts/access/Ownable.sol\":1422:1429  owner() */\n      tag_95\n        /* \"@openzeppelin/contracts/access/Ownable.sol\":1422:1427  owner */\n      tag_34\n        /* \"@openzeppelin/contracts/access/Ownable.sol\":1422:1429  owner() */\n      jump\t// in\n    tag_95:\n        /* \"@openzeppelin/contracts/access/Ownable.sol\":1422:1445  owner() == _msgSender() */\n      0xffffffffffffffffffffffffffffffffffffffff\n      and\n      eq\n        /* \"@openzeppelin/contracts/access/Ownable.sol\":1414:1482  require(owner() == _msgSender(), \"Ownable: caller is not the owner\") */\n      tag_96\n      jumpi\n      mload(0x40)\n      0x08c379a000000000000000000000000000000000000000000000000000000000\n      dup2\n      mstore\n      0x04\n      add\n      tag_97\n      swap1\n      tag_98\n      jump\t// in\n    tag_97:\n      mload(0x40)\n      dup1\n      swap2\n      sub\n      swap1\n      revert\n    tag_96:\n        /* \"@openzeppelin/contracts/access/Ownable.sol\":1359:1489  function _checkOwner() internal view virtual {... */\n      jump\t// out\n        /* \"@openzeppelin/contracts/access/Ownable.sol\":2433:2620  function _transferOwnership(address newOwner) internal virtual {... */\n    tag_69:\n        /* \"@openzeppelin/contracts/access/Ownable.sol\":2506:2522  address oldOwner */\n      0x00\n        /* \"@openzeppelin/contracts/access/Ownable.sol\":2525:2531  _owner */\n      dup1\n      0x00\n      swap1\n      sload\n      swap1\n      0x0100\n      exp\n      swap1\n      div\n      0xffffffffffffffffffffffffffffffffffffffff\n      and\n        /* \"@openzeppelin/contracts/access/Ownable.sol\":2506:2531  address oldOwner = _owner */\n      swap1\n      pop\n        /* \"@openzeppelin/contracts/access/Ownable.sol\":2550:2558  newOwner */\n      dup2\n        /* \"@openzeppelin/contracts/access/Ownable.sol\":2541:2547  _owner */\n      0x00\n      dup1\n        /* \"@openzeppelin/contracts/access/Ownable.sol\":2541:2558  _owner = newOwner */\n      0x0100\n      exp\n      dup2\n      sload\n      dup2\n      0xffffffffffffffffffffffffffffffffffffffff\n      mul\n      not\n      and\n      swap1\n      dup4\n      0xffffffffffffffffffffffffffffffffffffffff\n      and\n      mul\n      or\n      swap1\n      sstore\n      pop\n        /* \"@openzeppelin/contracts/access/Ownable.sol\":2604:2612  newOwner */\n      dup2\n        /* \"@openzeppelin/contracts/access/Ownable.sol\":2573:2613  OwnershipTransferred(oldOwner, newOwner) */\n      0xffffffffffffffffffffffffffffffffffffffff\n      and\n        /* \"@openzeppelin/contracts/access/Ownable.sol\":2594:2602  oldOwner */\n      dup2\n        /* \"@openzeppelin/contracts/access/Ownable.sol\":2573:2613  OwnershipTransferred(oldOwner, newOwner) */\n      0xffffffffffffffffffffffffffffffffffffffff\n      and\n      0x8be0079c531659141344cd1fd0a4f28419497f9722a3daafe3b4186f6b6457e0\n      mload(0x40)\n      mload(0x40)\n      dup1\n      swap2\n      sub\n      swap1\n      log3\n        /* \"@openzeppelin/contracts/access/Ownable.sol\":2496:2620  {... */\n      pop\n        /* \"@openzeppelin/contracts/access/Ownable.sol\":2433:2620  function _transferOwnership(address newOwner) internal virtual {... */\n      pop\n      jump\t// out\n        /* \"@openzeppelin/contracts/utils/Context.sol\":640:736  function _msgSender() internal view virtual returns (address) {... */\n    tag_94:\n        /* \"@openzeppelin/contracts/utils/Context.sol\":693:700  address */\n      0x00\n        /* \"@openzeppelin/contracts/utils/Context.sol\":719:729  msg.sender */\n      caller\n        /* \"@openzeppelin/contracts/utils/Context.sol\":712:729  return msg.sender */\n      swap1\n      pop\n        /* \"@openzeppelin/contracts/utils/Context.sol\":640:736  function _msgSender() internal view virtual returns (address) {... */\n      swap1\n      jump\t// out\n        /* \"#utility.yul\":7:146   */\n    tag_102:\n        /* \"#utility.yul\":53:58   */\n      0x00\n        /* \"#utility.yul\":91:97   */\n      dup2\n        /* \"#utility.yul\":78:98   */\n      calldataload\n        /* \"#utility.yul\":69:98   */\n      swap1\n      pop\n        /* \"#utility.yul\":107:140   */\n      tag_104\n        /* \"#utility.yul\":134:139   */\n      dup2\n        /* \"#utility.yul\":107:140   */\n      tag_105\n      jump\t// in\n    tag_104:\n        /* \"#utility.yul\":7:146   */\n      swap3\n      swap2\n      pop\n      pop\n      jump\t// out\n        /* \"#utility.yul\":152:285   */\n    tag_106:\n        /* \"#utility.yul\":195:200   */\n      0x00\n        /* \"#utility.yul\":233:239   */\n      dup2\n        /* \"#utility.yul\":220:240   */\n      calldataload\n        /* \"#utility.yul\":211:240   */\n      swap1\n      pop\n        /* \"#utility.yul\":249:279   */\n      tag_108\n        /* \"#utility.yul\":273:278   */\n      dup2\n        /* \"#utility.yul\":249:279   */\n      tag_109\n      jump\t// in\n    tag_108:\n        /* \"#utility.yul\":152:285   */\n      swap3\n      swap2\n      pop\n      pop\n      jump\t// out\n        /* \"#utility.yul\":291:430   */\n    tag_110:\n        /* \"#utility.yul\":337:342   */\n      0x00\n        /* \"#utility.yul\":375:381   */\n      dup2\n        /* \"#utility.yul\":362:382   */\n      calldataload\n        /* \"#utility.yul\":353:382   */\n      swap1\n      pop\n        /* \"#utility.yul\":391:424   */\n      tag_112\n        /* \"#utility.yul\":418:423   */\n      dup2\n        /* \"#utility.yul\":391:424   */\n      tag_113\n      jump\t// in\n    tag_112:\n        /* \"#utility.yul\":291:430   */\n      swap3\n      swap2\n      pop\n      pop\n      jump\t// out\n        /* \"#utility.yul\":436:765   */\n    tag_48:\n        /* \"#utility.yul\":495:501   */\n      0x00\n        /* \"#utility.yul\":544:546   */\n      0x20\n        /* \"#utility.yul\":532:541   */\n      dup3\n        /* \"#utility.yul\":523:530   */\n      dup5\n        /* \"#utility.yul\":519:542   */\n      sub\n        /* \"#utility.yul\":515:547   */\n      slt\n        /* \"#utility.yul\":512:631   */\n      iszero\n      tag_115\n      jumpi\n        /* \"#utility.yul\":550:629   */\n      tag_116\n      tag_117\n      jump\t// in\n    tag_116:\n        /* \"#utility.yul\":512:631   */\n    tag_115:\n        /* \"#utility.yul\":670:671   */\n      0x00\n        /* \"#utility.yul\":695:748   */\n      tag_118\n        /* \"#utility.yul\":740:747   */\n      dup5\n        /* \"#utility.yul\":731:737   */\n      dup3\n        /* \"#utility.yul\":720:729   */\n      dup6\n        /* \"#utility.yul\":716:738   */\n      add\n        /* \"#utility.yul\":695:748   */\n      tag_102\n      jump\t// in\n    tag_118:\n        /* \"#utility.yul\":685:748   */\n      swap2\n      pop\n        /* \"#utility.yul\":641:758   */\n      pop\n        /* \"#utility.yul\":436:765   */\n      swap3\n      swap2\n      pop\n      pop\n      jump\t// out\n        /* \"#utility.yul\":771:1245   */\n    tag_56:\n        /* \"#utility.yul\":839:845   */\n      0x00\n        /* \"#utility.yul\":847:853   */\n      dup1\n        /* \"#utility.yul\":896:898   */\n      0x40\n        /* \"#utility.yul\":884:893   */\n      dup4\n        /* \"#utility.yul\":875:882   */\n      dup6\n        /* \"#utility.yul\":871:894   */\n      sub\n        /* \"#utility.yul\":867:899   */\n      slt\n        /* \"#utility.yul\":864:983   */\n      iszero\n      tag_120\n      jumpi\n        /* \"#utility.yul\":902:981   */\n      tag_121\n      tag_117\n      jump\t// in\n    tag_121:\n        /* \"#utility.yul\":864:983   */\n    tag_120:\n        /* \"#utility.yul\":1022:1023   */\n      0x00\n        /* \"#utility.yul\":1047:1100   */\n      tag_122\n        /* \"#utility.yul\":1092:1099   */\n      dup6\n        /* \"#utility.yul\":1083:1089   */\n      dup3\n        /* \"#utility.yul\":1072:1081   */\n      dup7\n        /* \"#utility.yul\":1068:1090   */\n      add\n        /* \"#utility.yul\":1047:1100   */\n      tag_102\n      jump\t// in\n    tag_122:\n        /* \"#utility.yul\":1037:1100   */\n      swap3\n      pop\n        /* \"#utility.yul\":993:1110   */\n      pop\n        /* \"#utility.yul\":1149:1151   */\n      0x20\n        /* \"#utility.yul\":1175:1228   */\n      tag_123\n        /* \"#utility.yul\":1220:1227   */\n      dup6\n        /* \"#utility.yul\":1211:1217   */\n      dup3\n        /* \"#utility.yul\":1200:1209   */\n      dup7\n        /* \"#utility.yul\":1196:1218   */\n      add\n        /* \"#utility.yul\":1175:1228   */\n      tag_102\n      jump\t// in\n    tag_123:\n        /* \"#utility.yul\":1165:1228   */\n      swap2\n      pop\n        /* \"#utility.yul\":1120:1238   */\n      pop\n        /* \"#utility.yul\":771:1245   */\n      swap3\n      pop\n      swap3\n      swap1\n      pop\n      jump\t// out\n        /* \"#utility.yul\":1251:1574   */\n    tag_22:\n        /* \"#utility.yul\":1307:1313   */\n      0x00\n        /* \"#utility.yul\":1356:1358   */\n      0x20\n        /* \"#utility.yul\":1344:1353   */\n      dup3\n        /* \"#utility.yul\":1335:1342   */\n      dup5\n        /* \"#utility.yul\":1331:1354   */\n      sub\n        /* \"#utility.yul\":1327:1359   */\n      slt\n        /* \"#utility.yul\":1324:1443   */\n      iszero\n      tag_125\n      jumpi\n        /* \"#utility.yul\":1362:1441   */\n      tag_126\n      tag_117\n      jump\t// in\n    tag_126:\n        /* \"#utility.yul\":1324:1443   */\n    tag_125:\n        /* \"#utility.yul\":1482:1483   */\n      0x00\n        /* \"#utility.yul\":1507:1557   */\n      tag_127\n        /* \"#utility.yul\":1549:1556   */\n      dup5\n        /* \"#utility.yul\":1540:1546   */\n      dup3\n        /* \"#utility.yul\":1529:1538   */\n      dup6\n        /* \"#utility.yul\":1525:1547   */\n      add\n        /* \"#utility.yul\":1507:1557   */\n      tag_106\n      jump\t// in\n    tag_127:\n        /* \"#utility.yul\":1497:1557   */\n      swap2\n      pop\n        /* \"#utility.yul\":1453:1567   */\n      pop\n        /* \"#utility.yul\":1251:1574   */\n      swap3\n      swap2\n      pop\n      pop\n      jump\t// out\n        /* \"#utility.yul\":1580:2048   */\n    tag_27:\n        /* \"#utility.yul\":1645:1651   */\n      0x00\n        /* \"#utility.yul\":1653:1659   */\n      dup1\n        /* \"#utility.yul\":1702:1704   */\n      0x40\n        /* \"#utility.yul\":1690:1699   */\n      dup4\n        /* \"#utility.yul\":1681:1688   */\n      dup6\n        /* \"#utility.yul\":1677:1700   */\n      sub\n        /* \"#utility.yul\":1673:1705   */\n      slt\n        /* \"#utility.yul\":1670:1789   */\n      iszero\n      tag_129\n      jumpi\n        /* \"#utility.yul\":1708:1787   */\n      tag_130\n      tag_117\n      jump\t// in\n    tag_130:\n        /* \"#utility.yul\":1670:1789   */\n    tag_129:\n        /* \"#utility.yul\":1828:1829   */\n      0x00\n        /* \"#utility.yul\":1853:1903   */\n      tag_131\n        /* \"#utility.yul\":1895:1902   */\n      dup6\n        /* \"#utility.yul\":1886:1892   */\n      dup3\n        /* \"#utility.yul\":1875:1884   */\n      dup7\n        /* \"#utility.yul\":1871:1893   */\n      add\n        /* \"#utility.yul\":1853:1903   */\n      tag_106\n      jump\t// in\n    tag_131:\n        /* \"#utility.yul\":1843:1903   */\n      swap3\n      pop\n        /* \"#utility.yul\":1799:1913   */\n      pop\n        /* \"#utility.yul\":1952:1954   */\n      0x20\n        /* \"#utility.yul\":1978:2031   */\n      tag_132\n        /* \"#utility.yul\":2023:2030   */\n      dup6\n        /* \"#utility.yul\":2014:2020   */\n      dup3\n        /* \"#utility.yul\":2003:2012   */\n      dup7\n        /* \"#utility.yul\":1999:2021   */\n      add\n        /* \"#utility.yul\":1978:2031   */\n      tag_110\n      jump\t// in\n    tag_132:\n        /* \"#utility.yul\":1968:2031   */\n      swap2\n      pop\n        /* \"#utility.yul\":1923:2041   */\n      pop\n        /* \"#utility.yul\":1580:2048   */\n      swap3\n      pop\n      swap3\n      swap1\n      pop\n      jump\t// out\n        /* \"#utility.yul\":2054:2172   */\n    tag_133:\n        /* \"#utility.yul\":2141:2165   */\n      tag_135\n        /* \"#utility.yul\":2159:2164   */\n      dup2\n        /* \"#utility.yul\":2141:2165   */\n      tag_136\n      jump\t// in\n    tag_135:\n        /* \"#utility.yul\":2136:2139   */\n      dup3\n        /* \"#utility.yul\":2129:2166   */\n      mstore\n        /* \"#utility.yul\":2054:2172   */\n      pop\n      pop\n      jump\t// out\n        /* \"#utility.yul\":2178:2287   */\n    tag_137:\n        /* \"#utility.yul\":2259:2280   */\n      tag_139\n        /* \"#utility.yul\":2274:2279   */\n      dup2\n        /* \"#utility.yul\":2259:2280   */\n      tag_140\n      jump\t// in\n    tag_139:\n        /* \"#utility.yul\":2254:2257   */\n      dup3\n        /* \"#utility.yul\":2247:2281   */\n      mstore\n        /* \"#utility.yul\":2178:2287   */\n      pop\n      pop\n      jump\t// out\n        /* \"#utility.yul\":2293:2659   */\n    tag_141:\n        /* \"#utility.yul\":2435:2438   */\n      0x00\n        /* \"#utility.yul\":2456:2523   */\n      tag_143\n        /* \"#utility.yul\":2520:2522   */\n      0x26\n        /* \"#utility.yul\":2515:2518   */\n      dup4\n        /* \"#utility.yul\":2456:2523   */\n      tag_144\n      jump\t// in\n    tag_143:\n        /* \"#utility.yul\":2449:2523   */\n      swap2\n      pop\n        /* \"#utility.yul\":2532:2625   */\n      tag_145\n        /* \"#utility.yul\":2621:2624   */\n      dup3\n        /* \"#utility.yul\":2532:2625   */\n      tag_146\n      jump\t// in\n    tag_145:\n        /* \"#utility.yul\":2650:2652   */\n      0x40\n        /* \"#utility.yul\":2645:2648   */\n      dup3\n        /* \"#utility.yul\":2641:2653   */\n      add\n        /* \"#utility.yul\":2634:2653   */\n      swap1\n      pop\n        /* \"#utility.yul\":2293:2659   */\n      swap2\n      swap1\n      pop\n      jump\t// out\n        /* \"#utility.yul\":2665:3031   */\n    tag_147:\n        /* \"#utility.yul\":2807:2810   */\n      0x00\n        /* \"#utility.yul\":2828:2895   */\n      tag_149\n        /* \"#utility.yul\":2892:2894   */\n      0x20\n        /* \"#utility.yul\":2887:2890   */\n      dup4\n        /* \"#utility.yul\":2828:2895   */\n      tag_144\n      jump\t// in\n    tag_149:\n        /* \"#utility.yul\":2821:2895   */\n      swap2\n      pop\n        /* \"#utility.yul\":2904:2997   */\n      tag_150\n        /* \"#utility.yul\":2993:2996   */\n      dup3\n        /* \"#utility.yul\":2904:2997   */\n      tag_151\n      jump\t// in\n    tag_150:\n        /* \"#utility.yul\":3022:3024   */\n      0x20\n        /* \"#utility.yul\":3017:3020   */\n      dup3\n        /* \"#utility.yul\":3013:3025   */\n      add\n        /* \"#utility.yul\":3006:3025   */\n      swap1\n      pop\n        /* \"#utility.yul\":2665:3031   */\n      swap2\n      swap1\n      pop\n      jump\t// out\n        /* \"#utility.yul\":3037:3155   */\n    tag_152:\n        /* \"#utility.yul\":3124:3148   */\n      tag_154\n        /* \"#utility.yul\":3142:3147   */\n      dup2\n        /* \"#utility.yul\":3124:3148   */\n      tag_155\n      jump\t// in\n    tag_154:\n        /* \"#utility.yul\":3119:3122   */\n      dup3\n        /* \"#utility.yul\":3112:3149   */\n      mstore\n        /* \"#utility.yul\":3037:3155   */\n      pop\n      pop\n      jump\t// out\n        /* \"#utility.yul\":3161:3383   */\n    tag_18:\n        /* \"#utility.yul\":3254:3258   */\n      0x00\n        /* \"#utility.yul\":3292:3294   */\n      0x20\n        /* \"#utility.yul\":3281:3290   */\n      dup3\n        /* \"#utility.yul\":3277:3295   */\n      add\n        /* \"#utility.yul\":3269:3295   */\n      swap1\n      pop\n        /* \"#utility.yul\":3305:3376   */\n      tag_157\n        /* \"#utility.yul\":3373:3374   */\n      0x00\n        /* \"#utility.yul\":3362:3371   */\n      dup4\n        /* \"#utility.yul\":3358:3375   */\n      add\n        /* \"#utility.yul\":3349:3355   */\n      dup5\n        /* \"#utility.yul\":3305:3376   */\n      tag_133\n      jump\t// in\n    tag_157:\n        /* \"#utility.yul\":3161:3383   */\n      swap3\n      swap2\n      pop\n      pop\n      jump\t// out\n        /* \"#utility.yul\":3389:3599   */\n    tag_44:\n        /* \"#utility.yul\":3476:3480   */\n      0x00\n        /* \"#utility.yul\":3514:3516   */\n      0x20\n        /* \"#utility.yul\":3503:3512   */\n      dup3\n        /* \"#utility.yul\":3499:3517   */\n      add\n        /* \"#utility.yul\":3491:3517   */\n      swap1\n      pop\n        /* \"#utility.yul\":3527:3592   */\n      tag_159\n        /* \"#utility.yul\":3589:3590   */\n      0x00\n        /* \"#utility.yul\":3578:3587   */\n      dup4\n        /* \"#utility.yul\":3574:3591   */\n      add\n        /* \"#utility.yul\":3565:3571   */\n      dup5\n        /* \"#utility.yul\":3527:3592   */\n      tag_137\n      jump\t// in\n    tag_159:\n        /* \"#utility.yul\":3389:3599   */\n      swap3\n      swap2\n      pop\n      pop\n      jump\t// out\n        /* \"#utility.yul\":3605:4024   */\n    tag_83:\n        /* \"#utility.yul\":3771:3775   */\n      0x00\n        /* \"#utility.yul\":3809:3811   */\n      0x20\n        /* \"#utility.yul\":3798:3807   */\n      dup3\n        /* \"#utility.yul\":3794:3812   */\n      add\n        /* \"#utility.yul\":3786:3812   */\n      swap1\n      pop\n        /* \"#utility.yul\":3858:3867   */\n      dup2\n        /* \"#utility.yul\":3852:3856   */\n      dup2\n        /* \"#utility.yul\":3848:3868   */\n      sub\n        /* \"#utility.yul\":3844:3845   */\n      0x00\n        /* \"#utility.yul\":3833:3842   */\n      dup4\n        /* \"#utility.yul\":3829:3846   */\n      add\n        /* \"#utility.yul\":3822:3869   */\n      mstore\n        /* \"#utility.yul\":3886:4017   */\n      tag_161\n        /* \"#utility.yul\":4012:4016   */\n      dup2\n        /* \"#utility.yul\":3886:4017   */\n      tag_141\n      jump\t// in\n    tag_161:\n        /* \"#utility.yul\":3878:4017   */\n      swap1\n      pop\n        /* \"#utility.yul\":3605:4024   */\n      swap2\n      swap1\n      pop\n      jump\t// out\n        /* \"#utility.yul\":4030:4449   */\n    tag_98:\n        /* \"#utility.yul\":4196:4200   */\n      0x00\n        /* \"#utility.yul\":4234:4236   */\n      0x20\n        /* \"#utility.yul\":4223:4232   */\n      dup3\n        /* \"#utility.yul\":4219:4237   */\n      add\n        /* \"#utility.yul\":4211:4237   */\n      swap1\n      pop\n        /* \"#utility.yul\":4283:4292   */\n      dup2\n        /* \"#utility.yul\":4277:4281   */\n      dup2\n        /* \"#utility.yul\":4273:4293   */\n      sub\n        /* \"#utility.yul\":4269:4270   */\n      0x00\n        /* \"#utility.yul\":4258:4267   */\n      dup4\n        /* \"#utility.yul\":4254:4271   */\n      add\n        /* \"#utility.yul\":4247:4294   */\n      mstore\n        /* \"#utility.yul\":4311:4442   */\n      tag_163\n        /* \"#utility.yul\":4437:4441   */\n      dup2\n        /* \"#utility.yul\":4311:4442   */\n      tag_147\n      jump\t// in\n    tag_163:\n        /* \"#utility.yul\":4303:4442   */\n      swap1\n      pop\n        /* \"#utility.yul\":4030:4449   */\n      swap2\n      swap1\n      pop\n      jump\t// out\n        /* \"#utility.yul\":4455:4677   */\n    tag_91:\n        /* \"#utility.yul\":4548:4552   */\n      0x00\n        /* \"#utility.yul\":4586:4588   */\n      0x20\n        /* \"#utility.yul\":4575:4584   */\n      dup3\n        /* \"#utility.yul\":4571:4589   */\n      add\n        /* \"#utility.yul\":4563:4589   */\n      swap1\n      pop\n        /* \"#utility.yul\":4599:4670   */\n      tag_165\n        /* \"#utility.yul\":4667:4668   */\n      0x00\n        /* \"#utility.yul\":4656:4665   */\n      dup4\n        /* \"#utility.yul\":4652:4669   */\n      add\n        /* \"#utility.yul\":4643:4649   */\n      dup5\n        /* \"#utility.yul\":4599:4670   */\n      tag_152\n      jump\t// in\n    tag_165:\n        /* \"#utility.yul\":4455:4677   */\n      swap3\n      swap2\n      pop\n      pop\n      jump\t// out\n        /* \"#utility.yul\":4764:4933   */\n    tag_144:\n        /* \"#utility.yul\":4848:4859   */\n      0x00\n        /* \"#utility.yul\":4882:4888   */\n      dup3\n        /* \"#utility.yul\":4877:4880   */\n      dup3\n        /* \"#utility.yul\":4870:4889   */\n      mstore\n        /* \"#utility.yul\":4922:4926   */\n      0x20\n        /* \"#utility.yul\":4917:4920   */\n      dup3\n        /* \"#utility.yul\":4913:4927   */\n      add\n        /* \"#utility.yul\":4898:4927   */\n      swap1\n      pop\n        /* \"#utility.yul\":4764:4933   */\n      swap3\n      swap2\n      pop\n      pop\n      jump\t// out\n        /* \"#utility.yul\":4939:5244   */\n    tag_89:\n        /* \"#utility.yul\":4979:4982   */\n      0x00\n        /* \"#utility.yul\":4998:5018   */\n      tag_170\n        /* \"#utility.yul\":5016:5017   */\n      dup3\n        /* \"#utility.yul\":4998:5018   */\n      tag_155\n      jump\t// in\n    tag_170:\n        /* \"#utility.yul\":4993:5018   */\n      swap2\n      pop\n        /* \"#utility.yul\":5032:5052   */\n      tag_171\n        /* \"#utility.yul\":5050:5051   */\n      dup4\n        /* \"#utility.yul\":5032:5052   */\n      tag_155\n      jump\t// in\n    tag_171:\n        /* \"#utility.yul\":5027:5052   */\n      swap3\n      pop\n        /* \"#utility.yul\":5186:5187   */\n      dup3\n        /* \"#utility.yul\":5118:5184   */\n      0xffffffffffffffffffffffffffffffffffffffffffffffffffffffffffffffff\n        /* \"#utility.yul\":5114:5188   */\n      sub\n        /* \"#utility.yul\":5111:5112   */\n      dup3\n        /* \"#utility.yul\":5108:5189   */\n      gt\n        /* \"#utility.yul\":5105:5212   */\n      iszero\n      tag_172\n      jumpi\n        /* \"#utility.yul\":5192:5210   */\n      tag_173\n      tag_174\n      jump\t// in\n    tag_173:\n        /* \"#utility.yul\":5105:5212   */\n    tag_172:\n        /* \"#utility.yul\":5236:5237   */\n      dup3\n        /* \"#utility.yul\":5233:5234   */\n      dup3\n        /* \"#utility.yul\":5229:5238   */\n      add\n        /* \"#utility.yul\":5222:5238   */\n      swap1\n      pop\n        /* \"#utility.yul\":4939:5244   */\n      swap3\n      swap2\n      pop\n      pop\n      jump\t// out\n        /* \"#utility.yul\":5250:5346   */\n    tag_136:\n        /* \"#utility.yul\":5287:5294   */\n      0x00\n        /* \"#utility.yul\":5316:5340   */\n      tag_176\n        /* \"#utility.yul\":5334:5339   */\n      dup3\n        /* \"#utility.yul\":5316:5340   */\n      tag_177\n      jump\t// in\n    tag_176:\n        /* \"#utility.yul\":5305:5340   */\n      swap1\n      pop\n        /* \"#utility.yul\":5250:5346   */\n      swap2\n      swap1\n      pop\n      jump\t// out\n        /* \"#utility.yul\":5352:5442   */\n    tag_140:\n        /* \"#utility.yul\":5386:5393   */\n      0x00\n        /* \"#utility.yul\":5429:5434   */\n      dup2\n        /* \"#utility.yul\":5422:5435   */\n      iszero\n        /* \"#utility.yul\":5415:5436   */\n      iszero\n        /* \"#utility.yul\":5404:5436   */\n      swap1\n      pop\n        /* \"#utility.yul\":5352:5442   */\n      swap2\n      swap1\n      pop\n      jump\t// out\n        /* \"#utility.yul\":5448:5574   */\n    tag_177:\n        /* \"#utility.yul\":5485:5492   */\n      0x00\n        /* \"#utility.yul\":5525:5567   */\n      0xffffffffffffffffffffffffffffffffffffffff\n        /* \"#utility.yul\":5518:5523   */\n      dup3\n        /* \"#utility.yul\":5514:5568   */\n      and\n        /* \"#utility.yul\":5503:5568   */\n      swap1\n      pop\n        /* \"#utility.yul\":5448:5574   */\n      swap2\n      swap1\n      pop\n      jump\t// out\n        /* \"#utility.yul\":5580:5657   */\n    tag_155:\n        /* \"#utility.yul\":5617:5624   */\n      0x00\n        /* \"#utility.yul\":5646:5651   */\n      dup2\n        /* \"#utility.yul\":5635:5651   */\n      swap1\n      pop\n        /* \"#utility.yul\":5580:5657   */\n      swap2\n      swap1\n      pop\n      jump\t// out\n        /* \"#utility.yul\":5663:5843   */\n    tag_174:\n        /* \"#utility.yul\":5711:5788   */\n      0x4e487b7100000000000000000000000000000000000000000000000000000000\n        /* \"#utility.yul\":5708:5709   */\n      0x00\n        /* \"#utility.yul\":5701:5789   */\n      mstore\n        /* \"#utility.yul\":5808:5812   */\n      0x11\n        /* \"#utility.yul\":5805:5806   */\n      0x04\n        /* \"#utility.yul\":5798:5813   */\n      mstore\n        /* \"#utility.yul\":5832:5836   */\n      0x24\n        /* \"#utility.yul\":5829:5830   */\n      0x00\n        /* \"#utility.yul\":5822:5837   */\n      revert\n        /* \"#utility.yul\":5972:6089   */\n    tag_117:\n        /* \"#utility.yul\":6081:6082   */\n      0x00\n        /* \"#utility.yul\":6078:6079   */\n      dup1\n        /* \"#utility.yul\":6071:6083   */\n      revert\n        /* \"#utility.yul\":6095:6320   */\n    tag_146:\n        /* \"#utility.yul\":6235:6269   */\n      0x4f776e61626c653a206e6577206f776e657220697320746865207a65726f2061\n        /* \"#utility.yul\":6231:6232   */\n      0x00\n        /* \"#utility.yul\":6223:6229   */\n      dup3\n        /* \"#utility.yul\":6219:6233   */\n      add\n        /* \"#utility.yul\":6212:6270   */\n      mstore\n        /* \"#utility.yul\":6304:6312   */\n      0x6464726573730000000000000000000000000000000000000000000000000000\n        /* \"#utility.yul\":6299:6301   */\n      0x20\n        /* \"#utility.yul\":6291:6297   */\n      dup3\n        /* \"#utility.yul\":6287:6302   */\n      add\n        /* \"#utility.yul\":6280:6313   */\n      mstore\n        /* \"#utility.yul\":6095:6320   */\n      pop\n      jump\t// out\n        /* \"#utility.yul\":6326:6508   */\n    tag_151:\n        /* \"#utility.yul\":6466:6500   */\n      0x4f776e61626c653a2063616c6c6572206973206e6f7420746865206f776e6572\n        /* \"#utility.yul\":6462:6463   */\n      0x00\n        /* \"#utility.yul\":6454:6460   */\n      dup3\n        /* \"#utility.yul\":6450:6464   */\n      add\n        /* \"#utility.yul\":6443:6501   */\n      mstore\n        /* \"#utility.yul\":6326:6508   */\n      pop\n      jump\t// out\n        /* \"#utility.yul\":6514:6636   */\n    tag_105:\n        /* \"#utility.yul\":6587:6611   */\n      tag_188\n        /* \"#utility.yul\":6605:6610   */\n      dup2\n        /* \"#utility.yul\":6587:6611   */\n      tag_136\n      jump\t// in\n    tag_188:\n        /* \"#utility.yul\":6580:6585   */\n      dup2\n        /* \"#utility.yul\":6577:6612   */\n      eq\n        /* \"#utility.yul\":6567:6630   */\n      tag_189\n      jumpi\n        /* \"#utility.yul\":6626:6627   */\n      0x00\n        /* \"#utility.yul\":6623:6624   */\n      dup1\n        /* \"#utility.yul\":6616:6628   */\n      revert\n        /* \"#utility.yul\":6567:6630   */\n    tag_189:\n        /* \"#utility.yul\":6514:6636   */\n      pop\n      jump\t// out\n        /* \"#utility.yul\":6642:6758   */\n    tag_109:\n        /* \"#utility.yul\":6712:6733   */\n      tag_191\n        /* \"#utility.yul\":6727:6732   */\n      dup2\n        /* \"#utility.yul\":6712:6733   */\n      tag_140\n      jump\t// in\n    tag_191:\n        /* \"#utility.yul\":6705:6710   */\n      dup2\n        /* \"#utility.yul\":6702:6734   */\n      eq\n        /* \"#utility.yul\":6692:6752   */\n      tag_192\n      jumpi\n        /* \"#utility.yul\":6748:6749   */\n      0x00\n        /* \"#utility.yul\":6745:6746   */\n      dup1\n        /* \"#utility.yul\":6738:6750   */\n      revert\n        /* \"#utility.yul\":6692:6752   */\n    tag_192:\n        /* \"#utility.yul\":6642:6758   */\n      pop\n      jump\t// out\n        /* \"#utility.yul\":6764:6886   */\n    tag_113:\n        /* \"#utility.yul\":6837:6861   */\n      tag_194\n        /* \"#utility.yul\":6855:6860   */\n      dup2\n        /* \"#utility.yul\":6837:6861   */\n      tag_155\n      jump\t// in\n    tag_194:\n        /* \"#utility.yul\":6830:6835   */\n      dup2\n        /* \"#utility.yul\":6827:6862   */\n      eq\n        /* \"#utility.yul\":6817:6880   */\n      tag_195\n      jumpi\n        /* \"#utility.yul\":6876:6877   */\n      0x00\n        /* \"#utility.yul\":6873:6874   */\n      dup1\n        /* \"#utility.yul\":6866:6878   */\n      revert\n        /* \"#utility.yul\":6817:6880   */\n    tag_195:\n        /* \"#utility.yul\":6764:6886   */\n      pop\n      jump\t// out\n\n    auxdata: 0xa2646970667358221220a2e94df433126e9594f649edd18dab5cb0d2292d1f0d260ec96fec6931bd733b64736f6c63430008070033\n}\n",
				"bytecode": {
					"linkReferences": {},
					"object": "608060405234801561001057600080fd5b5061002d61002261003260201b60201c565b61003a60201b60201c565b6100fe565b600033905090565b60008060009054906101000a900473ffffffffffffffffffffffffffffffffffffffff169050816000806101000a81548173ffffffffffffffffffffffffffffffffffffffff021916908373ffffffffffffffffffffffffffffffffffffffff1602179055508173ffffffffffffffffffffffffffffffffffffffff168173ffffffffffffffffffffffffffffffffffffffff167f8be0079c531659141344cd1fd0a4f28419497f9722a3daafe3b4186f6b6457e060405160405180910390a35050565b610b0a8061010d6000396000f3fe60806040526004361061009c5760003560e01c80639464c8b8116100645780639464c8b814610160578063a1d1936114610189578063f2fde38b146101b4578063f851a440146101dd578063f9609f0814610208578063fbfd2045146102245761009c565b8063109e94cf146100a1578063251d8cd5146100cc5780635e32c425146100f5578063715018a61461011e5780638da5cb5b14610135575b600080fd5b3480156100ad57600080fd5b506100b661024f565b6040516100c391906108a3565b60405180910390f35b3480156100d857600080fd5b506100f360048036038101906100ee91906107c3565b610275565b005b34801561010157600080fd5b5061011c600480360381019061011791906107f0565b610292565b005b34801561012a57600080fd5b506101336102b7565b005b34801561014157600080fd5b5061014a6102cb565b60405161015791906108a3565b60405180910390f35b34801561016c57600080fd5b50610187600480360381019061018291906107c3565b6102f4565b005b34801561019557600080fd5b5061019e610311565b6040516101ab91906108be565b60405180910390f35b3480156101c057600080fd5b506101db60048036038101906101d69190610756565b610384565b005b3480156101e957600080fd5b506101f2610408565b6040516101ff91906108a3565b60405180910390f35b610222600480360381019061021d9190610783565b61042e565b005b34801561023057600080fd5b506102396105a7565b60405161024691906108a3565b60405180910390f35b600260009054906101000a900473ffffffffffffffffffffffffffffffffffffffff1681565b80600560006101000a81548160ff02191690831515021790555050565b81600560026101000a81548160ff021916908315150217905550806006819055505050565b6102bf6105cd565b6102c9600061064b565b565b60008060009054906101000a900473ffffffffffffffffffffffffffffffffffffffff16905090565b80600560016101000a81548160ff02191690831515021790555050565b600060011515600560009054906101000a900460ff161515148015610349575060011515600560019054906101000a900460ff161515145b156103575760019050610381565b60011515600560029054906101000a900460ff161515141561037c5760019050610381565b600090505b90565b61038c6105cd565b600073ffffffffffffffffffffffffffffffffffffffff168173ffffffffffffffffffffffffffffffffffffffff1614156103fc576040517f08c379a00000000000000000000000000000000000000000000000000000000081526004016103f3906108d9565b60405180910390fd5b6104058161064b565b50565b600360009054906101000a900473ffffffffffffffffffffffffffffffffffffffff1681565b6104366105cd565b81600160006101000a81548173ffffffffffffffffffffffffffffffffffffffff021916908373ffffffffffffffffffffffffffffffffffffffff16021790555033600260006101000a81548173ffffffffffffffffffffffffffffffffffffffff021916908373ffffffffffffffffffffffffffffffffffffffff16021790555080600360006101000a81548173ffffffffffffffffffffffffffffffffffffffff021916908373ffffffffffffffffffffffffffffffffffffffff160217905550600034905080600460008573ffffffffffffffffffffffffffffffffffffffff1673ffffffffffffffffffffffffffffffffffffffff168152602001908152602001600020600082825461054d9190610945565b925050819055508273ffffffffffffffffffffffffffffffffffffffff167f2da466a7b24304f47e87fa2e1e5a81b9831ce54fec19055ce277ca2f39ba42c48260405161059a9190610919565b60405180910390a2505050565b600160009054906101000a900473ffffffffffffffffffffffffffffffffffffffff1681565b6105d561070f565b73ffffffffffffffffffffffffffffffffffffffff166105f36102cb565b73ffffffffffffffffffffffffffffffffffffffff1614610649576040517f08c379a0000000000000000000000000000000000000000000000000000000008152600401610640906108f9565b60405180910390fd5b565b60008060009054906101000a900473ffffffffffffffffffffffffffffffffffffffff169050816000806101000a81548173ffffffffffffffffffffffffffffffffffffffff021916908373ffffffffffffffffffffffffffffffffffffffff1602179055508173ffffffffffffffffffffffffffffffffffffffff168173ffffffffffffffffffffffffffffffffffffffff167f8be0079c531659141344cd1fd0a4f28419497f9722a3daafe3b4186f6b6457e060405160405180910390a35050565b600033905090565b60008135905061072681610a8f565b92915050565b60008135905061073b81610aa6565b92915050565b60008135905061075081610abd565b92915050565b60006020828403121561076c5761076b610a12565b5b600061077a84828501610717565b91505092915050565b6000806040838503121561079a57610799610a12565b5b60006107a885828601610717565b92505060206107b985828601610717565b9150509250929050565b6000602082840312156107d9576107d8610a12565b5b60006107e78482850161072c565b91505092915050565b6000806040838503121561080757610806610a12565b5b60006108158582860161072c565b925050602061082685828601610741565b9150509250929050565b6108398161099b565b82525050565b610848816109ad565b82525050565b600061085b602683610934565b915061086682610a17565b604082019050919050565b600061087e602083610934565b915061088982610a66565b602082019050919050565b61089d816109d9565b82525050565b60006020820190506108b86000830184610830565b92915050565b60006020820190506108d3600083018461083f565b92915050565b600060208201905081810360008301526108f28161084e565b9050919050565b6000602082019050818103600083015261091281610871565b9050919050565b600060208201905061092e6000830184610894565b92915050565b600082825260208201905092915050565b6000610950826109d9565b915061095b836109d9565b9250827fffffffffffffffffffffffffffffffffffffffffffffffffffffffffffffffff038211156109905761098f6109e3565b5b828201905092915050565b60006109a6826109b9565b9050919050565b60008115159050919050565b600073ffffffffffffffffffffffffffffffffffffffff82169050919050565b6000819050919050565b7f4e487b7100000000000000000000000000000000000000000000000000000000600052601160045260246000fd5b600080fd5b7f4f776e61626c653a206e6577206f776e657220697320746865207a65726f206160008201527f6464726573730000000000000000000000000000000000000000000000000000602082015250565b7f4f776e61626c653a2063616c6c6572206973206e6f7420746865206f776e6572600082015250565b610a988161099b565b8114610aa357600080fd5b50565b610aaf816109ad565b8114610aba57600080fd5b50565b610ac6816109d9565b8114610ad157600080fd5b5056fea2646970667358221220a2e94df433126e9594f649edd18dab5cb0d2292d1f0d260ec96fec6931bd733b64736f6c63430008070033",
					"opcodes": "PUSH1 0x80 PUSH1 0x40 MSTORE CALLVALUE DUP1 ISZERO PUSH2 0x10 JUMPI PUSH1 0x0 DUP1 REVERT JUMPDEST POP PUSH2 0x2D PUSH2 0x22 PUSH2 0x32 PUSH1 0x20 SHL PUSH1 0x20 SHR JUMP JUMPDEST PUSH2 0x3A PUSH1 0x20 SHL PUSH1 0x20 SHR JUMP JUMPDEST PUSH2 0xFE JUMP JUMPDEST PUSH1 0x0 CALLER SWAP1 POP SWAP1 JUMP JUMPDEST PUSH1 0x0 DUP1 PUSH1 0x0 SWAP1 SLOAD SWAP1 PUSH2 0x100 EXP SWAP1 DIV PUSH20 0xFFFFFFFFFFFFFFFFFFFFFFFFFFFFFFFFFFFFFFFF AND SWAP1 POP DUP2 PUSH1 0x0 DUP1 PUSH2 0x100 EXP DUP2 SLOAD DUP2 PUSH20 0xFFFFFFFFFFFFFFFFFFFFFFFFFFFFFFFFFFFFFFFF MUL NOT AND SWAP1 DUP4 PUSH20 0xFFFFFFFFFFFFFFFFFFFFFFFFFFFFFFFFFFFFFFFF AND MUL OR SWAP1 SSTORE POP DUP2 PUSH20 0xFFFFFFFFFFFFFFFFFFFFFFFFFFFFFFFFFFFFFFFF AND DUP2 PUSH20 0xFFFFFFFFFFFFFFFFFFFFFFFFFFFFFFFFFFFFFFFF AND PUSH32 0x8BE0079C531659141344CD1FD0A4F28419497F9722A3DAAFE3B4186F6B6457E0 PUSH1 0x40 MLOAD PUSH1 0x40 MLOAD DUP1 SWAP2 SUB SWAP1 LOG3 POP POP JUMP JUMPDEST PUSH2 0xB0A DUP1 PUSH2 0x10D PUSH1 0x0 CODECOPY PUSH1 0x0 RETURN INVALID PUSH1 0x80 PUSH1 0x40 MSTORE PUSH1 0x4 CALLDATASIZE LT PUSH2 0x9C JUMPI PUSH1 0x0 CALLDATALOAD PUSH1 0xE0 SHR DUP1 PUSH4 0x9464C8B8 GT PUSH2 0x64 JUMPI DUP1 PUSH4 0x9464C8B8 EQ PUSH2 0x160 JUMPI DUP1 PUSH4 0xA1D19361 EQ PUSH2 0x189 JUMPI DUP1 PUSH4 0xF2FDE38B EQ PUSH2 0x1B4 JUMPI DUP1 PUSH4 0xF851A440 EQ PUSH2 0x1DD JUMPI DUP1 PUSH4 0xF9609F08 EQ PUSH2 0x208 JUMPI DUP1 PUSH4 0xFBFD2045 EQ PUSH2 0x224 JUMPI PUSH2 0x9C JUMP JUMPDEST DUP1 PUSH4 0x109E94CF EQ PUSH2 0xA1 JUMPI DUP1 PUSH4 0x251D8CD5 EQ PUSH2 0xCC JUMPI DUP1 PUSH4 0x5E32C425 EQ PUSH2 0xF5 JUMPI DUP1 PUSH4 0x715018A6 EQ PUSH2 0x11E JUMPI DUP1 PUSH4 0x8DA5CB5B EQ PUSH2 0x135 JUMPI JUMPDEST PUSH1 0x0 DUP1 REVERT JUMPDEST CALLVALUE DUP1 ISZERO PUSH2 0xAD JUMPI PUSH1 0x0 DUP1 REVERT JUMPDEST POP PUSH2 0xB6 PUSH2 0x24F JUMP JUMPDEST PUSH1 0x40 MLOAD PUSH2 0xC3 SWAP2 SWAP1 PUSH2 0x8A3 JUMP JUMPDEST PUSH1 0x40 MLOAD DUP1 SWAP2 SUB SWAP1 RETURN JUMPDEST CALLVALUE DUP1 ISZERO PUSH2 0xD8 JUMPI PUSH1 0x0 DUP1 REVERT JUMPDEST POP PUSH2 0xF3 PUSH1 0x4 DUP1 CALLDATASIZE SUB DUP2 ADD SWAP1 PUSH2 0xEE SWAP2 SWAP1 PUSH2 0x7C3 JUMP JUMPDEST PUSH2 0x275 JUMP JUMPDEST STOP JUMPDEST CALLVALUE DUP1 ISZERO PUSH2 0x101 JUMPI PUSH1 0x0 DUP1 REVERT JUMPDEST POP PUSH2 0x11C PUSH1 0x4 DUP1 CALLDATASIZE SUB DUP2 ADD SWAP1 PUSH2 0x117 SWAP2 SWAP1 PUSH2 0x7F0 JUMP JUMPDEST PUSH2 0x292 JUMP JUMPDEST STOP JUMPDEST CALLVALUE DUP1 ISZERO PUSH2 0x12A JUMPI PUSH1 0x0 DUP1 REVERT JUMPDEST POP PUSH2 0x133 PUSH2 0x2B7 JUMP JUMPDEST STOP JUMPDEST CALLVALUE DUP1 ISZERO PUSH2 0x141 JUMPI PUSH1 0x0 DUP1 REVERT JUMPDEST POP PUSH2 0x14A PUSH2 0x2CB JUMP JUMPDEST PUSH1 0x40 MLOAD PUSH2 0x157 SWAP2 SWAP1 PUSH2 0x8A3 JUMP JUMPDEST PUSH1 0x40 MLOAD DUP1 SWAP2 SUB SWAP1 RETURN JUMPDEST CALLVALUE DUP1 ISZERO PUSH2 0x16C JUMPI PUSH1 0x0 DUP1 REVERT JUMPDEST POP PUSH2 0x187 PUSH1 0x4 DUP1 CALLDATASIZE SUB DUP2 ADD SWAP1 PUSH2 0x182 SWAP2 SWAP1 PUSH2 0x7C3 JUMP JUMPDEST PUSH2 0x2F4 JUMP JUMPDEST STOP JUMPDEST CALLVALUE DUP1 ISZERO PUSH2 0x195 JUMPI PUSH1 0x0 DUP1 REVERT JUMPDEST POP PUSH2 0x19E PUSH2 0x311 JUMP JUMPDEST PUSH1 0x40 MLOAD PUSH2 0x1AB SWAP2 SWAP1 PUSH2 0x8BE JUMP JUMPDEST PUSH1 0x40 MLOAD DUP1 SWAP2 SUB SWAP1 RETURN JUMPDEST CALLVALUE DUP1 ISZERO PUSH2 0x1C0 JUMPI PUSH1 0x0 DUP1 REVERT JUMPDEST POP PUSH2 0x1DB PUSH1 0x4 DUP1 CALLDATASIZE SUB DUP2 ADD SWAP1 PUSH2 0x1D6 SWAP2 SWAP1 PUSH2 0x756 JUMP JUMPDEST PUSH2 0x384 JUMP JUMPDEST STOP JUMPDEST CALLVALUE DUP1 ISZERO PUSH2 0x1E9 JUMPI PUSH1 0x0 DUP1 REVERT JUMPDEST POP PUSH2 0x1F2 PUSH2 0x408 JUMP JUMPDEST PUSH1 0x40 MLOAD PUSH2 0x1FF SWAP2 SWAP1 PUSH2 0x8A3 JUMP JUMPDEST PUSH1 0x40 MLOAD DUP1 SWAP2 SUB SWAP1 RETURN JUMPDEST PUSH2 0x222 PUSH1 0x4 DUP1 CALLDATASIZE SUB DUP2 ADD SWAP1 PUSH2 0x21D SWAP2 SWAP1 PUSH2 0x783 JUMP JUMPDEST PUSH2 0x42E JUMP JUMPDEST STOP JUMPDEST CALLVALUE DUP1 ISZERO PUSH2 0x230 JUMPI PUSH1 0x0 DUP1 REVERT JUMPDEST POP PUSH2 0x239 PUSH2 0x5A7 JUMP JUMPDEST PUSH1 0x40 MLOAD PUSH2 0x246 SWAP2 SWAP1 PUSH2 0x8A3 JUMP JUMPDEST PUSH1 0x40 MLOAD DUP1 SWAP2 SUB SWAP1 RETURN JUMPDEST PUSH1 0x2 PUSH1 0x0 SWAP1 SLOAD SWAP1 PUSH2 0x100 EXP SWAP1 DIV PUSH20 0xFFFFFFFFFFFFFFFFFFFFFFFFFFFFFFFFFFFFFFFF AND DUP2 JUMP JUMPDEST DUP1 PUSH1 0x5 PUSH1 0x0 PUSH2 0x100 EXP DUP2 SLOAD DUP2 PUSH1 0xFF MUL NOT AND SWAP1 DUP4 ISZERO ISZERO MUL OR SWAP1 SSTORE POP POP JUMP JUMPDEST DUP2 PUSH1 0x5 PUSH1 0x2 PUSH2 0x100 EXP DUP2 SLOAD DUP2 PUSH1 0xFF MUL NOT AND SWAP1 DUP4 ISZERO ISZERO MUL OR SWAP1 SSTORE POP DUP1 PUSH1 0x6 DUP2 SWAP1 SSTORE POP POP POP JUMP JUMPDEST PUSH2 0x2BF PUSH2 0x5CD JUMP JUMPDEST PUSH2 0x2C9 PUSH1 0x0 PUSH2 0x64B JUMP JUMPDEST JUMP JUMPDEST PUSH1 0x0 DUP1 PUSH1 0x0 SWAP1 SLOAD SWAP1 PUSH2 0x100 EXP SWAP1 DIV PUSH20 0xFFFFFFFFFFFFFFFFFFFFFFFFFFFFFFFFFFFFFFFF AND SWAP1 POP SWAP1 JUMP JUMPDEST DUP1 PUSH1 0x5 PUSH1 0x1 PUSH2 0x100 EXP DUP2 SLOAD DUP2 PUSH1 0xFF MUL NOT AND SWAP1 DUP4 ISZERO ISZERO MUL OR SWAP1 SSTORE POP POP JUMP JUMPDEST PUSH1 0x0 PUSH1 0x1 ISZERO ISZERO PUSH1 0x5 PUSH1 0x0 SWAP1 SLOAD SWAP1 PUSH2 0x100 EXP SWAP1 DIV PUSH1 0xFF AND ISZERO ISZERO EQ DUP1 ISZERO PUSH2 0x349 JUMPI POP PUSH1 0x1 ISZERO ISZERO PUSH1 0x5 PUSH1 0x1 SWAP1 SLOAD SWAP1 PUSH2 0x100 EXP SWAP1 DIV PUSH1 0xFF AND ISZERO ISZERO EQ JUMPDEST ISZERO PUSH2 0x357 JUMPI PUSH1 0x1 SWAP1 POP PUSH2 0x381 JUMP JUMPDEST PUSH1 0x1 ISZERO ISZERO PUSH1 0x5 PUSH1 0x2 SWAP1 SLOAD SWAP1 PUSH2 0x100 EXP SWAP1 DIV PUSH1 0xFF AND ISZERO ISZERO EQ ISZERO PUSH2 0x37C JUMPI PUSH1 0x1 SWAP1 POP PUSH2 0x381 JUMP JUMPDEST PUSH1 0x0 SWAP1 POP JUMPDEST SWAP1 JUMP JUMPDEST PUSH2 0x38C PUSH2 0x5CD JUMP JUMPDEST PUSH1 0x0 PUSH20 0xFFFFFFFFFFFFFFFFFFFFFFFFFFFFFFFFFFFFFFFF AND DUP2 PUSH20 0xFFFFFFFFFFFFFFFFFFFFFFFFFFFFFFFFFFFFFFFF AND EQ ISZERO PUSH2 0x3FC JUMPI PUSH1 0x40 MLOAD PUSH32 0x8C379A000000000000000000000000000000000000000000000000000000000 DUP2 MSTORE PUSH1 0x4 ADD PUSH2 0x3F3 SWAP1 PUSH2 0x8D9 JUMP JUMPDEST PUSH1 0x40 MLOAD DUP1 SWAP2 SUB SWAP1 REVERT JUMPDEST PUSH2 0x405 DUP2 PUSH2 0x64B JUMP JUMPDEST POP JUMP JUMPDEST PUSH1 0x3 PUSH1 0x0 SWAP1 SLOAD SWAP1 PUSH2 0x100 EXP SWAP1 DIV PUSH20 0xFFFFFFFFFFFFFFFFFFFFFFFFFFFFFFFFFFFFFFFF AND DUP2 JUMP JUMPDEST PUSH2 0x436 PUSH2 0x5CD JUMP JUMPDEST DUP2 PUSH1 0x1 PUSH1 0x0 PUSH2 0x100 EXP DUP2 SLOAD DUP2 PUSH20 0xFFFFFFFFFFFFFFFFFFFFFFFFFFFFFFFFFFFFFFFF MUL NOT AND SWAP1 DUP4 PUSH20 0xFFFFFFFFFFFFFFFFFFFFFFFFFFFFFFFFFFFFFFFF AND MUL OR SWAP1 SSTORE POP CALLER PUSH1 0x2 PUSH1 0x0 PUSH2 0x100 EXP DUP2 SLOAD DUP2 PUSH20 0xFFFFFFFFFFFFFFFFFFFFFFFFFFFFFFFFFFFFFFFF MUL NOT AND SWAP1 DUP4 PUSH20 0xFFFFFFFFFFFFFFFFFFFFFFFFFFFFFFFFFFFFFFFF AND MUL OR SWAP1 SSTORE POP DUP1 PUSH1 0x3 PUSH1 0x0 PUSH2 0x100 EXP DUP2 SLOAD DUP2 PUSH20 0xFFFFFFFFFFFFFFFFFFFFFFFFFFFFFFFFFFFFFFFF MUL NOT AND SWAP1 DUP4 PUSH20 0xFFFFFFFFFFFFFFFFFFFFFFFFFFFFFFFFFFFFFFFF AND MUL OR SWAP1 SSTORE POP PUSH1 0x0 CALLVALUE SWAP1 POP DUP1 PUSH1 0x4 PUSH1 0x0 DUP6 PUSH20 0xFFFFFFFFFFFFFFFFFFFFFFFFFFFFFFFFFFFFFFFF AND PUSH20 0xFFFFFFFFFFFFFFFFFFFFFFFFFFFFFFFFFFFFFFFF AND DUP2 MSTORE PUSH1 0x20 ADD SWAP1 DUP2 MSTORE PUSH1 0x20 ADD PUSH1 0x0 KECCAK256 PUSH1 0x0 DUP3 DUP3 SLOAD PUSH2 0x54D SWAP2 SWAP1 PUSH2 0x945 JUMP JUMPDEST SWAP3 POP POP DUP2 SWAP1 SSTORE POP DUP3 PUSH20 0xFFFFFFFFFFFFFFFFFFFFFFFFFFFFFFFFFFFFFFFF AND PUSH32 0x2DA466A7B24304F47E87FA2E1E5A81B9831CE54FEC19055CE277CA2F39BA42C4 DUP3 PUSH1 0x40 MLOAD PUSH2 0x59A SWAP2 SWAP1 PUSH2 0x919 JUMP JUMPDEST PUSH1 0x40 MLOAD DUP1 SWAP2 SUB SWAP1 LOG2 POP POP POP JUMP JUMPDEST PUSH1 0x1 PUSH1 0x0 SWAP1 SLOAD SWAP1 PUSH2 0x100 EXP SWAP1 DIV PUSH20 0xFFFFFFFFFFFFFFFFFFFFFFFFFFFFFFFFFFFFFFFF AND DUP2 JUMP JUMPDEST PUSH2 0x5D5 PUSH2 0x70F JUMP JUMPDEST PUSH20 0xFFFFFFFFFFFFFFFFFFFFFFFFFFFFFFFFFFFFFFFF AND PUSH2 0x5F3 PUSH2 0x2CB JUMP JUMPDEST PUSH20 0xFFFFFFFFFFFFFFFFFFFFFFFFFFFFFFFFFFFFFFFF AND EQ PUSH2 0x649 JUMPI PUSH1 0x40 MLOAD PUSH32 0x8C379A000000000000000000000000000000000000000000000000000000000 DUP2 MSTORE PUSH1 0x4 ADD PUSH2 0x640 SWAP1 PUSH2 0x8F9 JUMP JUMPDEST PUSH1 0x40 MLOAD DUP1 SWAP2 SUB SWAP1 REVERT JUMPDEST JUMP JUMPDEST PUSH1 0x0 DUP1 PUSH1 0x0 SWAP1 SLOAD SWAP1 PUSH2 0x100 EXP SWAP1 DIV PUSH20 0xFFFFFFFFFFFFFFFFFFFFFFFFFFFFFFFFFFFFFFFF AND SWAP1 POP DUP2 PUSH1 0x0 DUP1 PUSH2 0x100 EXP DUP2 SLOAD DUP2 PUSH20 0xFFFFFFFFFFFFFFFFFFFFFFFFFFFFFFFFFFFFFFFF MUL NOT AND SWAP1 DUP4 PUSH20 0xFFFFFFFFFFFFFFFFFFFFFFFFFFFFFFFFFFFFFFFF AND MUL OR SWAP1 SSTORE POP DUP2 PUSH20 0xFFFFFFFFFFFFFFFFFFFFFFFFFFFFFFFFFFFFFFFF AND DUP2 PUSH20 0xFFFFFFFFFFFFFFFFFFFFFFFFFFFFFFFFFFFFFFFF AND PUSH32 0x8BE0079C531659141344CD1FD0A4F28419497F9722A3DAAFE3B4186F6B6457E0 PUSH1 0x40 MLOAD PUSH1 0x40 MLOAD DUP1 SWAP2 SUB SWAP1 LOG3 POP POP JUMP JUMPDEST PUSH1 0x0 CALLER SWAP1 POP SWAP1 JUMP JUMPDEST PUSH1 0x0 DUP2 CALLDATALOAD SWAP1 POP PUSH2 0x726 DUP2 PUSH2 0xA8F JUMP JUMPDEST SWAP3 SWAP2 POP POP JUMP JUMPDEST PUSH1 0x0 DUP2 CALLDATALOAD SWAP1 POP PUSH2 0x73B DUP2 PUSH2 0xAA6 JUMP JUMPDEST SWAP3 SWAP2 POP POP JUMP JUMPDEST PUSH1 0x0 DUP2 CALLDATALOAD SWAP1 POP PUSH2 0x750 DUP2 PUSH2 0xABD JUMP JUMPDEST SWAP3 SWAP2 POP POP JUMP JUMPDEST PUSH1 0x0 PUSH1 0x20 DUP3 DUP5 SUB SLT ISZERO PUSH2 0x76C JUMPI PUSH2 0x76B PUSH2 0xA12 JUMP JUMPDEST JUMPDEST PUSH1 0x0 PUSH2 0x77A DUP5 DUP3 DUP6 ADD PUSH2 0x717 JUMP JUMPDEST SWAP2 POP POP SWAP3 SWAP2 POP POP JUMP JUMPDEST PUSH1 0x0 DUP1 PUSH1 0x40 DUP4 DUP6 SUB SLT ISZERO PUSH2 0x79A JUMPI PUSH2 0x799 PUSH2 0xA12 JUMP JUMPDEST JUMPDEST PUSH1 0x0 PUSH2 0x7A8 DUP6 DUP3 DUP7 ADD PUSH2 0x717 JUMP JUMPDEST SWAP3 POP POP PUSH1 0x20 PUSH2 0x7B9 DUP6 DUP3 DUP7 ADD PUSH2 0x717 JUMP JUMPDEST SWAP2 POP POP SWAP3 POP SWAP3 SWAP1 POP JUMP JUMPDEST PUSH1 0x0 PUSH1 0x20 DUP3 DUP5 SUB SLT ISZERO PUSH2 0x7D9 JUMPI PUSH2 0x7D8 PUSH2 0xA12 JUMP JUMPDEST JUMPDEST PUSH1 0x0 PUSH2 0x7E7 DUP5 DUP3 DUP6 ADD PUSH2 0x72C JUMP JUMPDEST SWAP2 POP POP SWAP3 SWAP2 POP POP JUMP JUMPDEST PUSH1 0x0 DUP1 PUSH1 0x40 DUP4 DUP6 SUB SLT ISZERO PUSH2 0x807 JUMPI PUSH2 0x806 PUSH2 0xA12 JUMP JUMPDEST JUMPDEST PUSH1 0x0 PUSH2 0x815 DUP6 DUP3 DUP7 ADD PUSH2 0x72C JUMP JUMPDEST SWAP3 POP POP PUSH1 0x20 PUSH2 0x826 DUP6 DUP3 DUP7 ADD PUSH2 0x741 JUMP JUMPDEST SWAP2 POP POP SWAP3 POP SWAP3 SWAP1 POP JUMP JUMPDEST PUSH2 0x839 DUP2 PUSH2 0x99B JUMP JUMPDEST DUP3 MSTORE POP POP JUMP JUMPDEST PUSH2 0x848 DUP2 PUSH2 0x9AD JUMP JUMPDEST DUP3 MSTORE POP POP JUMP JUMPDEST PUSH1 0x0 PUSH2 0x85B PUSH1 0x26 DUP4 PUSH2 0x934 JUMP JUMPDEST SWAP2 POP PUSH2 0x866 DUP3 PUSH2 0xA17 JUMP JUMPDEST PUSH1 0x40 DUP3 ADD SWAP1 POP SWAP2 SWAP1 POP JUMP JUMPDEST PUSH1 0x0 PUSH2 0x87E PUSH1 0x20 DUP4 PUSH2 0x934 JUMP JUMPDEST SWAP2 POP PUSH2 0x889 DUP3 PUSH2 0xA66 JUMP JUMPDEST PUSH1 0x20 DUP3 ADD SWAP1 POP SWAP2 SWAP1 POP JUMP JUMPDEST PUSH2 0x89D DUP2 PUSH2 0x9D9 JUMP JUMPDEST DUP3 MSTORE POP POP JUMP JUMPDEST PUSH1 0x0 PUSH1 0x20 DUP3 ADD SWAP1 POP PUSH2 0x8B8 PUSH1 0x0 DUP4 ADD DUP5 PUSH2 0x830 JUMP JUMPDEST SWAP3 SWAP2 POP POP JUMP JUMPDEST PUSH1 0x0 PUSH1 0x20 DUP3 ADD SWAP1 POP PUSH2 0x8D3 PUSH1 0x0 DUP4 ADD DUP5 PUSH2 0x83F JUMP JUMPDEST SWAP3 SWAP2 POP POP JUMP JUMPDEST PUSH1 0x0 PUSH1 0x20 DUP3 ADD SWAP1 POP DUP2 DUP2 SUB PUSH1 0x0 DUP4 ADD MSTORE PUSH2 0x8F2 DUP2 PUSH2 0x84E JUMP JUMPDEST SWAP1 POP SWAP2 SWAP1 POP JUMP JUMPDEST PUSH1 0x0 PUSH1 0x20 DUP3 ADD SWAP1 POP DUP2 DUP2 SUB PUSH1 0x0 DUP4 ADD MSTORE PUSH2 0x912 DUP2 PUSH2 0x871 JUMP JUMPDEST SWAP1 POP SWAP2 SWAP1 POP JUMP JUMPDEST PUSH1 0x0 PUSH1 0x20 DUP3 ADD SWAP1 POP PUSH2 0x92E PUSH1 0x0 DUP4 ADD DUP5 PUSH2 0x894 JUMP JUMPDEST SWAP3 SWAP2 POP POP JUMP JUMPDEST PUSH1 0x0 DUP3 DUP3 MSTORE PUSH1 0x20 DUP3 ADD SWAP1 POP SWAP3 SWAP2 POP POP JUMP JUMPDEST PUSH1 0x0 PUSH2 0x950 DUP3 PUSH2 0x9D9 JUMP JUMPDEST SWAP2 POP PUSH2 0x95B DUP4 PUSH2 0x9D9 JUMP JUMPDEST SWAP3 POP DUP3 PUSH32 0xFFFFFFFFFFFFFFFFFFFFFFFFFFFFFFFFFFFFFFFFFFFFFFFFFFFFFFFFFFFFFFFF SUB DUP3 GT ISZERO PUSH2 0x990 JUMPI PUSH2 0x98F PUSH2 0x9E3 JUMP JUMPDEST JUMPDEST DUP3 DUP3 ADD SWAP1 POP SWAP3 SWAP2 POP POP JUMP JUMPDEST PUSH1 0x0 PUSH2 0x9A6 DUP3 PUSH2 0x9B9 JUMP JUMPDEST SWAP1 POP SWAP2 SWAP1 POP JUMP JUMPDEST PUSH1 0x0 DUP2 ISZERO ISZERO SWAP1 POP SWAP2 SWAP1 POP JUMP JUMPDEST PUSH1 0x0 PUSH20 0xFFFFFFFFFFFFFFFFFFFFFFFFFFFFFFFFFFFFFFFF DUP3 AND SWAP1 POP SWAP2 SWAP1 POP JUMP JUMPDEST PUSH1 0x0 DUP2 SWAP1 POP SWAP2 SWAP1 POP JUMP JUMPDEST PUSH32 0x4E487B7100000000000000000000000000000000000000000000000000000000 PUSH1 0x0 MSTORE PUSH1 0x11 PUSH1 0x4 MSTORE PUSH1 0x24 PUSH1 0x0 REVERT JUMPDEST PUSH1 0x0 DUP1 REVERT JUMPDEST PUSH32 0x4F776E61626C653A206E6577206F776E657220697320746865207A65726F2061 PUSH1 0x0 DUP3 ADD MSTORE PUSH32 0x6464726573730000000000000000000000000000000000000000000000000000 PUSH1 0x20 DUP3 ADD MSTORE POP JUMP JUMPDEST PUSH32 0x4F776E61626C653A2063616C6C6572206973206E6F7420746865206F776E6572 PUSH1 0x0 DUP3 ADD MSTORE POP JUMP JUMPDEST PUSH2 0xA98 DUP2 PUSH2 0x99B JUMP JUMPDEST DUP2 EQ PUSH2 0xAA3 JUMPI PUSH1 0x0 DUP1 REVERT JUMPDEST POP JUMP JUMPDEST PUSH2 0xAAF DUP2 PUSH2 0x9AD JUMP JUMPDEST DUP2 EQ PUSH2 0xABA JUMPI PUSH1 0x0 DUP1 REVERT JUMPDEST POP JUMP JUMPDEST PUSH2 0xAC6 DUP2 PUSH2 0x9D9 JUMP JUMPDEST DUP2 EQ PUSH2 0xAD1 JUMPI PUSH1 0x0 DUP1 REVERT JUMPDEST POP JUMP INVALID LOG2 PUSH5 0x6970667358 0x22 SLT KECCAK256 LOG2 0xE9 0x4D DELEGATECALL CALLER SLT PUSH15 0x9594F649EDD18DAB5CB0D2292D1F0D 0x26 0xE 0xC9 PUSH16 0xEC6931BD733B64736F6C634300080700 CALLER "
				},
				"gasEstimates": {
					"creation": {
						"codeDepositCost": "565200",
						"executionCost": "infinite",
						"totalCost": "infinite"
					},
					"external": {
						"admin()": "2580",
						"adminResolutionStatus(bool,uint256)": "47061",
						"client()": "2515",
						"contractor()": "2624",
						"deposit(address,address)": "infinite",
						"owner()": "2611",
						"renounceOwnership()": "30465",
						"taskCompletionStatus(bool)": "24702",
						"taskValidationStatus(bool)": "24729",
						"transferOwnership(address)": "30791",
						"withdrawalAllowed()": "7003"
					}
				},
				"methodIdentifiers": {
					"admin()": "f851a440",
					"adminResolutionStatus(bool,uint256)": "5e32c425",
					"client()": "109e94cf",
					"contractor()": "fbfd2045",
					"deposit(address,address)": "f9609f08",
					"owner()": "8da5cb5b",
					"renounceOwnership()": "715018a6",
					"taskCompletionStatus(bool)": "251d8cd5",
					"taskValidationStatus(bool)": "9464c8b8",
					"transferOwnership(address)": "f2fde38b",
					"withdrawalAllowed()": "a1d19361"
				}
			},
			"storageLayout": {
				"storage": [
					{
						"astId": 7,
						"contract": "contracts/Escrow.sol:Escrow",
						"label": "_owner",
						"offset": 0,
						"slot": "0",
						"type": "t_address"
					},
					{
						"astId": 446,
						"contract": "contracts/Escrow.sol:Escrow",
						"label": "contractor",
						"offset": 0,
						"slot": "1",
						"type": "t_address"
					},
					{
						"astId": 448,
						"contract": "contracts/Escrow.sol:Escrow",
						"label": "client",
						"offset": 0,
						"slot": "2",
						"type": "t_address"
					},
					{
						"astId": 450,
						"contract": "contracts/Escrow.sol:Escrow",
						"label": "admin",
						"offset": 0,
						"slot": "3",
						"type": "t_address"
					},
					{
						"astId": 454,
						"contract": "contracts/Escrow.sol:Escrow",
						"label": "_deposits",
						"offset": 0,
						"slot": "4",
						"type": "t_mapping(t_address,t_uint256)"
					},
					{
						"astId": 495,
						"contract": "contracts/Escrow.sol:Escrow",
						"label": "taskCompleted",
						"offset": 0,
						"slot": "5",
						"type": "t_bool"
					},
					{
						"astId": 497,
						"contract": "contracts/Escrow.sol:Escrow",
						"label": "taskValidated",
						"offset": 1,
						"slot": "5",
						"type": "t_bool"
					},
					{
						"astId": 499,
						"contract": "contracts/Escrow.sol:Escrow",
						"label": "adminResolution",
						"offset": 2,
						"slot": "5",
						"type": "t_bool"
					},
					{
						"astId": 501,
						"contract": "contracts/Escrow.sol:Escrow",
						"label": "adminDecision",
						"offset": 0,
						"slot": "6",
						"type": "t_uint256"
					}
				],
				"types": {
					"t_address": {
						"encoding": "inplace",
						"label": "address",
						"numberOfBytes": "20"
					},
					"t_bool": {
						"encoding": "inplace",
						"label": "bool",
						"numberOfBytes": "1"
					},
					"t_mapping(t_address,t_uint256)": {
						"encoding": "mapping",
						"key": "t_address",
						"label": "mapping(address => uint256)",
						"numberOfBytes": "32",
						"value": "t_uint256"
					},
					"t_uint256": {
						"encoding": "inplace",
						"label": "uint256",
						"numberOfBytes": "32"
					}
				}
			},
			"userdoc": {
				"kind": "user",
				"methods": {},
				"version": 1
			}
		}
	}
}