{
	"contracts/Escrow.sol": {
		"Escrow": {
			"abi": [
				{
					"anonymous": false,
					"inputs": [
						{
							"indexed": true,
							"internalType": "address",
							"name": "payee",
							"type": "address"
						},
						{
							"indexed": false,
							"internalType": "uint256",
							"name": "weiAmount",
							"type": "uint256"
						}
					],
					"name": "Deposited",
					"type": "event"
				},
				{
					"anonymous": false,
					"inputs": [
						{
							"indexed": true,
							"internalType": "address",
							"name": "previousOwner",
							"type": "address"
						},
						{
							"indexed": true,
							"internalType": "address",
							"name": "newOwner",
							"type": "address"
						}
					],
					"name": "OwnershipTransferred",
					"type": "event"
				},
				{
					"anonymous": false,
					"inputs": [
						{
							"indexed": true,
							"internalType": "address",
							"name": "payee",
							"type": "address"
						},
						{
							"indexed": false,
							"internalType": "uint256",
							"name": "weiAmount",
							"type": "uint256"
						}
					],
					"name": "Withdrawn",
					"type": "event"
				},
				{
					"inputs": [],
					"name": "admin",
					"outputs": [
						{
							"internalType": "address",
							"name": "",
							"type": "address"
						}
					],
					"stateMutability": "view",
					"type": "function"
				},
				{
					"inputs": [
						{
							"internalType": "bool",
							"name": "inputAdminResolution",
							"type": "bool"
						},
						{
							"internalType": "uint256",
							"name": "inputAdminDecision",
							"type": "uint256"
						}
					],
					"name": "adminResolutionStatus",
					"outputs": [],
					"stateMutability": "nonpayable",
					"type": "function"
				},
				{
					"inputs": [],
					"name": "client",
					"outputs": [
						{
							"internalType": "address",
							"name": "",
							"type": "address"
						}
					],
					"stateMutability": "view",
					"type": "function"
				},
				{
					"inputs": [],
					"name": "contractor",
					"outputs": [
						{
							"internalType": "address",
							"name": "",
							"type": "address"
						}
					],
					"stateMutability": "view",
					"type": "function"
				},
				{
					"inputs": [
						{
							"internalType": "address",
							"name": "payee",
							"type": "address"
						},
						{
							"internalType": "address",
							"name": "broker",
							"type": "address"
						}
					],
					"name": "deposit",
					"outputs": [],
					"stateMutability": "payable",
					"type": "function"
				},
				{
					"inputs": [],
					"name": "owner",
					"outputs": [
						{
							"internalType": "address",
							"name": "",
							"type": "address"
						}
					],
					"stateMutability": "view",
					"type": "function"
				},
				{
					"inputs": [],
					"name": "renounceOwnership",
					"outputs": [],
					"stateMutability": "nonpayable",
					"type": "function"
				},
				{
					"inputs": [
						{
							"internalType": "bool",
							"name": "inputTaskCompleted",
							"type": "bool"
						}
					],
					"name": "taskCompletionStatus",
					"outputs": [],
					"stateMutability": "nonpayable",
					"type": "function"
				},
				{
					"inputs": [
						{
							"internalType": "bool",
							"name": "inputTaskValidated",
							"type": "bool"
						}
					],
					"name": "taskValidationStatus",
					"outputs": [],
					"stateMutability": "nonpayable",
					"type": "function"
				},
				{
					"inputs": [
						{
							"internalType": "address",
							"name": "newOwner",
							"type": "address"
						}
					],
					"name": "transferOwnership",
					"outputs": [],
					"stateMutability": "nonpayable",
					"type": "function"
				},
				{
					"inputs": [
						{
							"internalType": "address payable",
							"name": "payee",
							"type": "address"
						}
					],
					"name": "withdraw",
					"outputs": [],
					"stateMutability": "nonpayable",
					"type": "function"
				},
				{
					"inputs": [],
					"name": "withdrawalAllowed",
					"outputs": [
						{
							"internalType": "bool",
							"name": "",
							"type": "bool"
						}
					],
					"stateMutability": "view",
					"type": "function"
				}
			],
			"devdoc": {
				"kind": "dev",
				"methods": {
					"owner()": {
						"details": "Returns the address of the current owner."
					},
					"renounceOwnership()": {
						"details": "Leaves the contract without owner. It will not be possible to call `onlyOwner` functions anymore. Can only be called by the current owner. NOTE: Renouncing ownership will leave the contract without an owner, thereby removing any functionality that is only available to the owner."
					},
					"transferOwnership(address)": {
						"details": "Transfers ownership of the contract to a new account (`newOwner`). Can only be called by the current owner."
					}
				},
				"version": 1
			},
			"evm": {
				"assembly": "    /* \"contracts/Escrow.sol\":238:2624  contract Escrow is Ownable {... */\n  mstore(0x40, 0x80)\n  callvalue\n  dup1\n  iszero\n  tag_1\n  jumpi\n  0x00\n  dup1\n  revert\ntag_1:\n  pop\n    /* \"@openzeppelin/contracts/access/Ownable.sol\":936:968  _transferOwnership(_msgSender()) */\n  tag_4\n    /* \"@openzeppelin/contracts/access/Ownable.sol\":955:967  _msgSender() */\n  tag_5\n    /* \"@openzeppelin/contracts/access/Ownable.sol\":955:965  _msgSender */\n  shl(0x20, tag_6)\n    /* \"@openzeppelin/contracts/access/Ownable.sol\":955:967  _msgSender() */\n  0x20\n  shr\n  jump\t// in\ntag_5:\n    /* \"@openzeppelin/contracts/access/Ownable.sol\":936:954  _transferOwnership */\n  shl(0x20, tag_7)\n    /* \"@openzeppelin/contracts/access/Ownable.sol\":936:968  _transferOwnership(_msgSender()) */\n  0x20\n  shr\n  jump\t// in\ntag_4:\n    /* \"contracts/Escrow.sol\":238:2624  contract Escrow is Ownable {... */\n  jump(tag_8)\n    /* \"@openzeppelin/contracts/utils/Context.sol\":640:736  function _msgSender() internal view virtual returns (address) {... */\ntag_6:\n    /* \"@openzeppelin/contracts/utils/Context.sol\":693:700  address */\n  0x00\n    /* \"@openzeppelin/contracts/utils/Context.sol\":719:729  msg.sender */\n  caller\n    /* \"@openzeppelin/contracts/utils/Context.sol\":712:729  return msg.sender */\n  swap1\n  pop\n    /* \"@openzeppelin/contracts/utils/Context.sol\":640:736  function _msgSender() internal view virtual returns (address) {... */\n  swap1\n  jump\t// out\n    /* \"@openzeppelin/contracts/access/Ownable.sol\":2433:2620  function _transferOwnership(address newOwner) internal virtual {... */\ntag_7:\n    /* \"@openzeppelin/contracts/access/Ownable.sol\":2506:2522  address oldOwner */\n  0x00\n    /* \"@openzeppelin/contracts/access/Ownable.sol\":2525:2531  _owner */\n  dup1\n  0x00\n  swap1\n  sload\n  swap1\n  0x0100\n  exp\n  swap1\n  div\n  0xffffffffffffffffffffffffffffffffffffffff\n  and\n    /* \"@openzeppelin/contracts/access/Ownable.sol\":2506:2531  address oldOwner = _owner */\n  swap1\n  pop\n    /* \"@openzeppelin/contracts/access/Ownable.sol\":2550:2558  newOwner */\n  dup2\n    /* \"@openzeppelin/contracts/access/Ownable.sol\":2541:2547  _owner */\n  0x00\n  dup1\n    /* \"@openzeppelin/contracts/access/Ownable.sol\":2541:2558  _owner = newOwner */\n  0x0100\n  exp\n  dup2\n  sload\n  dup2\n  0xffffffffffffffffffffffffffffffffffffffff\n  mul\n  not\n  and\n  swap1\n  dup4\n  0xffffffffffffffffffffffffffffffffffffffff\n  and\n  mul\n  or\n  swap1\n  sstore\n  pop\n    /* \"@openzeppelin/contracts/access/Ownable.sol\":2604:2612  newOwner */\n  dup2\n    /* \"@openzeppelin/contracts/access/Ownable.sol\":2573:2613  OwnershipTransferred(oldOwner, newOwner) */\n  0xffffffffffffffffffffffffffffffffffffffff\n  and\n    /* \"@openzeppelin/contracts/access/Ownable.sol\":2594:2602  oldOwner */\n  dup2\n    /* \"@openzeppelin/contracts/access/Ownable.sol\":2573:2613  OwnershipTransferred(oldOwner, newOwner) */\n  0xffffffffffffffffffffffffffffffffffffffff\n  and\n  0x8be0079c531659141344cd1fd0a4f28419497f9722a3daafe3b4186f6b6457e0\n  mload(0x40)\n  mload(0x40)\n  dup1\n  swap2\n  sub\n  swap1\n  log3\n    /* \"@openzeppelin/contracts/access/Ownable.sol\":2496:2620  {... */\n  pop\n    /* \"@openzeppelin/contracts/access/Ownable.sol\":2433:2620  function _transferOwnership(address newOwner) internal virtual {... */\n  pop\n  jump\t// out\n    /* \"contracts/Escrow.sol\":238:2624  contract Escrow is Ownable {... */\ntag_8:\n  dataSize(sub_0)\n  dup1\n  dataOffset(sub_0)\n  0x00\n  codecopy\n  0x00\n  return\nstop\n\nsub_0: assembly {\n        /* \"contracts/Escrow.sol\":238:2624  contract Escrow is Ownable {... */\n      mstore(0x40, 0x80)\n      jumpi(tag_1, lt(calldatasize, 0x04))\n      shr(0xe0, calldataload(0x00))\n      dup1\n      0x9464c8b8\n      gt\n      tag_14\n      jumpi\n      dup1\n      0x9464c8b8\n      eq\n      tag_8\n      jumpi\n      dup1\n      0xa1d19361\n      eq\n      tag_9\n      jumpi\n      dup1\n      0xf2fde38b\n      eq\n      tag_10\n      jumpi\n      dup1\n      0xf851a440\n      eq\n      tag_11\n      jumpi\n      dup1\n      0xf9609f08\n      eq\n      tag_12\n      jumpi\n      dup1\n      0xfbfd2045\n      eq\n      tag_13\n      jumpi\n      jump(tag_1)\n    tag_14:\n      dup1\n      0x109e94cf\n      eq\n      tag_2\n      jumpi\n      dup1\n      0x251d8cd5\n      eq\n      tag_3\n      jumpi\n      dup1\n      0x51cff8d9\n      eq\n      tag_4\n      jumpi\n      dup1\n      0x5e32c425\n      eq\n      tag_5\n      jumpi\n      dup1\n      0x715018a6\n      eq\n      tag_6\n      jumpi\n      dup1\n      0x8da5cb5b\n      eq\n      tag_7\n      jumpi\n    tag_1:\n      0x00\n      dup1\n      revert\n        /* \"contracts/Escrow.sol\":445:466  address public client */\n    tag_2:\n      callvalue\n      dup1\n      iszero\n      tag_15\n      jumpi\n      0x00\n      dup1\n      revert\n    tag_15:\n      pop\n      tag_16\n      tag_17\n      jump\t// in\n    tag_16:\n      mload(0x40)\n      tag_18\n      swap2\n      swap1\n      tag_19\n      jump\t// in\n    tag_18:\n      mload(0x40)\n      dup1\n      swap2\n      sub\n      swap1\n      return\n        /* \"contracts/Escrow.sol\":1731:1847  function taskCompletionStatus(bool inputTaskCompleted) public virtual{... */\n    tag_3:\n      callvalue\n      dup1\n      iszero\n      tag_20\n      jumpi\n      0x00\n      dup1\n      revert\n    tag_20:\n      pop\n      tag_21\n      0x04\n      dup1\n      calldatasize\n      sub\n      dup2\n      add\n      swap1\n      tag_22\n      swap2\n      swap1\n      tag_23\n      jump\t// in\n    tag_22:\n      tag_24\n      jump\t// in\n    tag_21:\n      stop\n        /* \"contracts/Escrow.sol\":2178:2402  function withdraw(address payable payee) public virtual onlyOwner {... */\n    tag_4:\n      callvalue\n      dup1\n      iszero\n      tag_25\n      jumpi\n      0x00\n      dup1\n      revert\n    tag_25:\n      pop\n      tag_26\n      0x04\n      dup1\n      calldatasize\n      sub\n      dup2\n      add\n      swap1\n      tag_27\n      swap2\n      swap1\n      tag_28\n      jump\t// in\n    tag_27:\n      tag_29\n      jump\t// in\n    tag_26:\n      stop\n        /* \"contracts/Escrow.sol\":1412:1603  function adminResolutionStatus(bool inputAdminResolution, uint256 inputAdminDecision) public virtual{... */\n    tag_5:\n      callvalue\n      dup1\n      iszero\n      tag_30\n      jumpi\n      0x00\n      dup1\n      revert\n    tag_30:\n      pop\n      tag_31\n      0x04\n      dup1\n      calldatasize\n      sub\n      dup2\n      add\n      swap1\n      tag_32\n      swap2\n      swap1\n      tag_33\n      jump\t// in\n    tag_32:\n      tag_34\n      jump\t// in\n    tag_31:\n      stop\n        /* \"@openzeppelin/contracts/access/Ownable.sol\":1831:1932  function renounceOwnership() public virtual onlyOwner {... */\n    tag_6:\n      callvalue\n      dup1\n      iszero\n      tag_35\n      jumpi\n      0x00\n      dup1\n      revert\n    tag_35:\n      pop\n      tag_36\n      tag_37\n      jump\t// in\n    tag_36:\n      stop\n        /* \"@openzeppelin/contracts/access/Ownable.sol\":1201:1286  function owner() public view virtual returns (address) {... */\n    tag_7:\n      callvalue\n      dup1\n      iszero\n      tag_38\n      jumpi\n      0x00\n      dup1\n      revert\n    tag_38:\n      pop\n      tag_39\n      tag_40\n      jump\t// in\n    tag_39:\n      mload(0x40)\n      tag_41\n      swap2\n      swap1\n      tag_19\n      jump\t// in\n    tag_41:\n      mload(0x40)\n      dup1\n      swap2\n      sub\n      swap1\n      return\n        /* \"contracts/Escrow.sol\":1609:1725  function taskValidationStatus(bool inputTaskValidated) public virtual{... */\n    tag_8:\n      callvalue\n      dup1\n      iszero\n      tag_42\n      jumpi\n      0x00\n      dup1\n      revert\n    tag_42:\n      pop\n      tag_43\n      0x04\n      dup1\n      calldatasize\n      sub\n      dup2\n      add\n      swap1\n      tag_44\n      swap2\n      swap1\n      tag_23\n      jump\t// in\n    tag_44:\n      tag_45\n      jump\t// in\n    tag_43:\n      stop\n        /* \"contracts/Escrow.sol\":1855:2104  function withdrawalAllowed() public view virtual returns (bool){... */\n    tag_9:\n      callvalue\n      dup1\n      iszero\n      tag_46\n      jumpi\n      0x00\n      dup1\n      revert\n    tag_46:\n      pop\n      tag_47\n      tag_48\n      jump\t// in\n    tag_47:\n      mload(0x40)\n      tag_49\n      swap2\n      swap1\n      tag_50\n      jump\t// in\n    tag_49:\n      mload(0x40)\n      dup1\n      swap2\n      sub\n      swap1\n      return\n        /* \"@openzeppelin/contracts/access/Ownable.sol\":2081:2279  function transferOwnership(address newOwner) public virtual onlyOwner {... */\n    tag_10:\n      callvalue\n      dup1\n      iszero\n      tag_51\n      jumpi\n      0x00\n      dup1\n      revert\n    tag_51:\n      pop\n      tag_52\n      0x04\n      dup1\n      calldatasize\n      sub\n      dup2\n      add\n      swap1\n      tag_53\n      swap2\n      swap1\n      tag_54\n      jump\t// in\n    tag_53:\n      tag_55\n      jump\t// in\n    tag_52:\n      stop\n        /* \"contracts/Escrow.sol\":472:492  address public admin */\n    tag_11:\n      callvalue\n      dup1\n      iszero\n      tag_56\n      jumpi\n      0x00\n      dup1\n      revert\n    tag_56:\n      pop\n      tag_57\n      tag_58\n      jump\t// in\n    tag_57:\n      mload(0x40)\n      tag_59\n      swap2\n      swap1\n      tag_19\n      jump\t// in\n    tag_59:\n      mload(0x40)\n      dup1\n      swap2\n      sub\n      swap1\n      return\n        /* \"contracts/Escrow.sol\":648:926  function deposit(address payee, address broker) public payable virtual onlyOwner {... */\n    tag_12:\n      tag_60\n      0x04\n      dup1\n      calldatasize\n      sub\n      dup2\n      add\n      swap1\n      tag_61\n      swap2\n      swap1\n      tag_62\n      jump\t// in\n    tag_61:\n      tag_63\n      jump\t// in\n    tag_60:\n      stop\n        /* \"contracts/Escrow.sol\":414:439  address public contractor */\n    tag_13:\n      callvalue\n      dup1\n      iszero\n      tag_64\n      jumpi\n      0x00\n      dup1\n      revert\n    tag_64:\n      pop\n      tag_65\n      tag_66\n      jump\t// in\n    tag_65:\n      mload(0x40)\n      tag_67\n      swap2\n      swap1\n      tag_19\n      jump\t// in\n    tag_67:\n      mload(0x40)\n      dup1\n      swap2\n      sub\n      swap1\n      return\n        /* \"contracts/Escrow.sol\":445:466  address public client */\n    tag_17:\n      0x02\n      0x00\n      swap1\n      sload\n      swap1\n      0x0100\n      exp\n      swap1\n      div\n      0xffffffffffffffffffffffffffffffffffffffff\n      and\n      dup2\n      jump\t// out\n        /* \"contracts/Escrow.sol\":1731:1847  function taskCompletionStatus(bool inputTaskCompleted) public virtual{... */\n    tag_24:\n        /* \"contracts/Escrow.sol\":1822:1840  inputTaskCompleted */\n      dup1\n        /* \"contracts/Escrow.sol\":1806:1819  taskCompleted */\n      0x05\n      0x00\n        /* \"contracts/Escrow.sol\":1806:1840  taskCompleted = inputTaskCompleted */\n      0x0100\n      exp\n      dup2\n      sload\n      dup2\n      0xff\n      mul\n      not\n      and\n      swap1\n      dup4\n      iszero\n      iszero\n      mul\n      or\n      swap1\n      sstore\n      pop\n        /* \"contracts/Escrow.sol\":1731:1847  function taskCompletionStatus(bool inputTaskCompleted) public virtual{... */\n      pop\n      jump\t// out\n        /* \"contracts/Escrow.sol\":2178:2402  function withdraw(address payable payee) public virtual onlyOwner {... */\n    tag_29:\n        /* \"@openzeppelin/contracts/access/Ownable.sol\":1094:1107  _checkOwner() */\n      tag_70\n        /* \"@openzeppelin/contracts/access/Ownable.sol\":1094:1105  _checkOwner */\n      tag_71\n        /* \"@openzeppelin/contracts/access/Ownable.sol\":1094:1107  _checkOwner() */\n      jump\t// in\n    tag_70:\n        /* \"contracts/Escrow.sol\":2254:2269  uint256 payment */\n      0x00\n        /* \"contracts/Escrow.sol\":2272:2281  _deposits */\n      0x04\n        /* \"contracts/Escrow.sol\":2272:2288  _deposits[payee] */\n      0x00\n        /* \"contracts/Escrow.sol\":2282:2287  payee */\n      dup4\n        /* \"contracts/Escrow.sol\":2272:2288  _deposits[payee] */\n      0xffffffffffffffffffffffffffffffffffffffff\n      and\n      0xffffffffffffffffffffffffffffffffffffffff\n      and\n      dup2\n      mstore\n      0x20\n      add\n      swap1\n      dup2\n      mstore\n      0x20\n      add\n      0x00\n      keccak256\n      sload\n        /* \"contracts/Escrow.sol\":2254:2288  uint256 payment = _deposits[payee] */\n      swap1\n      pop\n        /* \"contracts/Escrow.sol\":2318:2319  0 */\n      0x00\n        /* \"contracts/Escrow.sol\":2299:2308  _deposits */\n      0x04\n        /* \"contracts/Escrow.sol\":2299:2315  _deposits[payee] */\n      0x00\n        /* \"contracts/Escrow.sol\":2309:2314  payee */\n      dup5\n        /* \"contracts/Escrow.sol\":2299:2315  _deposits[payee] */\n      0xffffffffffffffffffffffffffffffffffffffff\n      and\n      0xffffffffffffffffffffffffffffffffffffffff\n      and\n      dup2\n      mstore\n      0x20\n      add\n      swap1\n      dup2\n      mstore\n      0x20\n      add\n      0x00\n      keccak256\n        /* \"contracts/Escrow.sol\":2299:2319  _deposits[payee] = 0 */\n      dup2\n      swap1\n      sstore\n      pop\n        /* \"contracts/Escrow.sol\":2330:2354  payee.sendValue(payment) */\n      tag_73\n        /* \"contracts/Escrow.sol\":2346:2353  payment */\n      dup2\n        /* \"contracts/Escrow.sol\":2330:2335  payee */\n      dup4\n        /* \"contracts/Escrow.sol\":2330:2345  payee.sendValue */\n      0xffffffffffffffffffffffffffffffffffffffff\n      and\n      tag_74\n      swap1\n        /* \"contracts/Escrow.sol\":2330:2354  payee.sendValue(payment) */\n      swap2\n      swap1\n      0xffffffff\n      and\n      jump\t// in\n    tag_73:\n        /* \"contracts/Escrow.sol\":2380:2385  payee */\n      dup2\n        /* \"contracts/Escrow.sol\":2370:2395  Withdrawn(payee, payment) */\n      0xffffffffffffffffffffffffffffffffffffffff\n      and\n      0x7084f5476618d8e60b11ef0d7d3f06914655adb8793e28ff7f018d4c76d505d5\n        /* \"contracts/Escrow.sol\":2387:2394  payment */\n      dup3\n        /* \"contracts/Escrow.sol\":2370:2395  Withdrawn(payee, payment) */\n      mload(0x40)\n      tag_75\n      swap2\n      swap1\n      tag_76\n      jump\t// in\n    tag_75:\n      mload(0x40)\n      dup1\n      swap2\n      sub\n      swap1\n      log2\n        /* \"contracts/Escrow.sol\":2244:2402  {... */\n      pop\n        /* \"contracts/Escrow.sol\":2178:2402  function withdraw(address payable payee) public virtual onlyOwner {... */\n      pop\n      jump\t// out\n        /* \"contracts/Escrow.sol\":1412:1603  function adminResolutionStatus(bool inputAdminResolution, uint256 inputAdminDecision) public virtual{... */\n    tag_34:\n        /* \"contracts/Escrow.sol\":1536:1556  inputAdminResolution */\n      dup2\n        /* \"contracts/Escrow.sol\":1518:1533  adminResolution */\n      0x05\n      0x02\n        /* \"contracts/Escrow.sol\":1518:1556  adminResolution = inputAdminResolution */\n      0x0100\n      exp\n      dup2\n      sload\n      dup2\n      0xff\n      mul\n      not\n      and\n      swap1\n      dup4\n      iszero\n      iszero\n      mul\n      or\n      swap1\n      sstore\n      pop\n        /* \"contracts/Escrow.sol\":1578:1596  inputAdminDecision */\n      dup1\n        /* \"contracts/Escrow.sol\":1562:1575  adminDecision */\n      0x06\n        /* \"contracts/Escrow.sol\":1562:1596  adminDecision = inputAdminDecision */\n      dup2\n      swap1\n      sstore\n      pop\n        /* \"contracts/Escrow.sol\":1412:1603  function adminResolutionStatus(bool inputAdminResolution, uint256 inputAdminDecision) public virtual{... */\n      pop\n      pop\n      jump\t// out\n        /* \"@openzeppelin/contracts/access/Ownable.sol\":1831:1932  function renounceOwnership() public virtual onlyOwner {... */\n    tag_37:\n        /* \"@openzeppelin/contracts/access/Ownable.sol\":1094:1107  _checkOwner() */\n      tag_79\n        /* \"@openzeppelin/contracts/access/Ownable.sol\":1094:1105  _checkOwner */\n      tag_71\n        /* \"@openzeppelin/contracts/access/Ownable.sol\":1094:1107  _checkOwner() */\n      jump\t// in\n    tag_79:\n        /* \"@openzeppelin/contracts/access/Ownable.sol\":1895:1925  _transferOwnership(address(0)) */\n      tag_81\n        /* \"@openzeppelin/contracts/access/Ownable.sol\":1922:1923  0 */\n      0x00\n        /* \"@openzeppelin/contracts/access/Ownable.sol\":1895:1913  _transferOwnership */\n      tag_82\n        /* \"@openzeppelin/contracts/access/Ownable.sol\":1895:1925  _transferOwnership(address(0)) */\n      jump\t// in\n    tag_81:\n        /* \"@openzeppelin/contracts/access/Ownable.sol\":1831:1932  function renounceOwnership() public virtual onlyOwner {... */\n      jump\t// out\n        /* \"@openzeppelin/contracts/access/Ownable.sol\":1201:1286  function owner() public view virtual returns (address) {... */\n    tag_40:\n        /* \"@openzeppelin/contracts/access/Ownable.sol\":1247:1254  address */\n      0x00\n        /* \"@openzeppelin/contracts/access/Ownable.sol\":1273:1279  _owner */\n      dup1\n      0x00\n      swap1\n      sload\n      swap1\n      0x0100\n      exp\n      swap1\n      div\n      0xffffffffffffffffffffffffffffffffffffffff\n      and\n        /* \"@openzeppelin/contracts/access/Ownable.sol\":1266:1279  return _owner */\n      swap1\n      pop\n        /* \"@openzeppelin/contracts/access/Ownable.sol\":1201:1286  function owner() public view virtual returns (address) {... */\n      swap1\n      jump\t// out\n        /* \"contracts/Escrow.sol\":1609:1725  function taskValidationStatus(bool inputTaskValidated) public virtual{... */\n    tag_45:\n        /* \"contracts/Escrow.sol\":1700:1718  inputTaskValidated */\n      dup1\n        /* \"contracts/Escrow.sol\":1684:1697  taskValidated */\n      0x05\n      0x01\n        /* \"contracts/Escrow.sol\":1684:1718  taskValidated = inputTaskValidated */\n      0x0100\n      exp\n      dup2\n      sload\n      dup2\n      0xff\n      mul\n      not\n      and\n      swap1\n      dup4\n      iszero\n      iszero\n      mul\n      or\n      swap1\n      sstore\n      pop\n        /* \"contracts/Escrow.sol\":1609:1725  function taskValidationStatus(bool inputTaskValidated) public virtual{... */\n      pop\n      jump\t// out\n        /* \"contracts/Escrow.sol\":1855:2104  function withdrawalAllowed() public view virtual returns (bool){... */\n    tag_48:\n        /* \"contracts/Escrow.sol\":1913:1917  bool */\n      0x00\n        /* \"contracts/Escrow.sol\":1948:1952  true */\n      0x01\n        /* \"contracts/Escrow.sol\":1931:1952  taskCompleted == true */\n      iszero\n      iszero\n        /* \"contracts/Escrow.sol\":1931:1944  taskCompleted */\n      0x05\n      0x00\n      swap1\n      sload\n      swap1\n      0x0100\n      exp\n      swap1\n      div\n      0xff\n      and\n        /* \"contracts/Escrow.sol\":1931:1952  taskCompleted == true */\n      iszero\n      iszero\n      eq\n        /* \"contracts/Escrow.sol\":1931:1977  taskCompleted == true && taskValidated == true */\n      dup1\n      iszero\n      tag_86\n      jumpi\n      pop\n        /* \"contracts/Escrow.sol\":1973:1977  true */\n      0x01\n        /* \"contracts/Escrow.sol\":1956:1977  taskValidated == true */\n      iszero\n      iszero\n        /* \"contracts/Escrow.sol\":1956:1969  taskValidated */\n      0x05\n      0x01\n      swap1\n      sload\n      swap1\n      0x0100\n      exp\n      swap1\n      div\n      0xff\n      and\n        /* \"contracts/Escrow.sol\":1956:1977  taskValidated == true */\n      iszero\n      iszero\n      eq\n        /* \"contracts/Escrow.sol\":1931:1977  taskCompleted == true && taskValidated == true */\n    tag_86:\n        /* \"contracts/Escrow.sol\":1928:2098  if(taskCompleted == true && taskValidated == true){... */\n      iszero\n      tag_87\n      jumpi\n        /* \"contracts/Escrow.sol\":1999:2003  true */\n      0x01\n        /* \"contracts/Escrow.sol\":1992:2003  return true */\n      swap1\n      pop\n      jump(tag_85)\n        /* \"contracts/Escrow.sol\":1928:2098  if(taskCompleted == true && taskValidated == true){... */\n    tag_87:\n        /* \"contracts/Escrow.sol\":2050:2054  true */\n      0x01\n        /* \"contracts/Escrow.sol\":2031:2054  adminResolution == true */\n      iszero\n      iszero\n        /* \"contracts/Escrow.sol\":2031:2046  adminResolution */\n      0x05\n      0x02\n      swap1\n      sload\n      swap1\n      0x0100\n      exp\n      swap1\n      div\n      0xff\n      and\n        /* \"contracts/Escrow.sol\":2031:2054  adminResolution == true */\n      iszero\n      iszero\n      eq\n        /* \"contracts/Escrow.sol\":2028:2098  if(adminResolution == true){return true;}... */\n      iszero\n      tag_89\n      jumpi\n        /* \"contracts/Escrow.sol\":2063:2067  true */\n      0x01\n        /* \"contracts/Escrow.sol\":2056:2067  return true */\n      swap1\n      pop\n      jump(tag_85)\n        /* \"contracts/Escrow.sol\":2028:2098  if(adminResolution == true){return true;}... */\n    tag_89:\n        /* \"contracts/Escrow.sol\":2091:2096  false */\n      0x00\n        /* \"contracts/Escrow.sol\":2084:2096  return false */\n      swap1\n      pop\n        /* \"contracts/Escrow.sol\":1855:2104  function withdrawalAllowed() public view virtual returns (bool){... */\n    tag_85:\n      swap1\n      jump\t// out\n        /* \"@openzeppelin/contracts/access/Ownable.sol\":2081:2279  function transferOwnership(address newOwner) public virtual onlyOwner {... */\n    tag_55:\n        /* \"@openzeppelin/contracts/access/Ownable.sol\":1094:1107  _checkOwner() */\n      tag_92\n        /* \"@openzeppelin/contracts/access/Ownable.sol\":1094:1105  _checkOwner */\n      tag_71\n        /* \"@openzeppelin/contracts/access/Ownable.sol\":1094:1107  _checkOwner() */\n      jump\t// in\n    tag_92:\n        /* \"@openzeppelin/contracts/access/Ownable.sol\":2189:2190  0 */\n      0x00\n        /* \"@openzeppelin/contracts/access/Ownable.sol\":2169:2191  newOwner != address(0) */\n      0xffffffffffffffffffffffffffffffffffffffff\n      and\n        /* \"@openzeppelin/contracts/access/Ownable.sol\":2169:2177  newOwner */\n      dup2\n        /* \"@openzeppelin/contracts/access/Ownable.sol\":2169:2191  newOwner != address(0) */\n      0xffffffffffffffffffffffffffffffffffffffff\n      and\n      eq\n      iszero\n        /* \"@openzeppelin/contracts/access/Ownable.sol\":2161:2234  require(newOwner != address(0), \"Ownable: new owner is the zero address\") */\n      tag_94\n      jumpi\n      mload(0x40)\n      0x08c379a000000000000000000000000000000000000000000000000000000000\n      dup2\n      mstore\n      0x04\n      add\n      tag_95\n      swap1\n      tag_96\n      jump\t// in\n    tag_95:\n      mload(0x40)\n      dup1\n      swap2\n      sub\n      swap1\n      revert\n    tag_94:\n        /* \"@openzeppelin/contracts/access/Ownable.sol\":2244:2272  _transferOwnership(newOwner) */\n      tag_97\n        /* \"@openzeppelin/contracts/access/Ownable.sol\":2263:2271  newOwner */\n      dup2\n        /* \"@openzeppelin/contracts/access/Ownable.sol\":2244:2262  _transferOwnership */\n      tag_82\n        /* \"@openzeppelin/contracts/access/Ownable.sol\":2244:2272  _transferOwnership(newOwner) */\n      jump\t// in\n    tag_97:\n        /* \"@openzeppelin/contracts/access/Ownable.sol\":2081:2279  function transferOwnership(address newOwner) public virtual onlyOwner {... */\n      pop\n      jump\t// out\n        /* \"contracts/Escrow.sol\":472:492  address public admin */\n    tag_58:\n      0x03\n      0x00\n      swap1\n      sload\n      swap1\n      0x0100\n      exp\n      swap1\n      div\n      0xffffffffffffffffffffffffffffffffffffffff\n      and\n      dup2\n      jump\t// out\n        /* \"contracts/Escrow.sol\":648:926  function deposit(address payee, address broker) public payable virtual onlyOwner {... */\n    tag_63:\n        /* \"@openzeppelin/contracts/access/Ownable.sol\":1094:1107  _checkOwner() */\n      tag_99\n        /* \"@openzeppelin/contracts/access/Ownable.sol\":1094:1105  _checkOwner */\n      tag_71\n        /* \"@openzeppelin/contracts/access/Ownable.sol\":1094:1107  _checkOwner() */\n      jump\t// in\n    tag_99:\n        /* \"contracts/Escrow.sol\":752:757  payee */\n      dup2\n        /* \"contracts/Escrow.sol\":739:749  contractor */\n      0x01\n      0x00\n        /* \"contracts/Escrow.sol\":739:757  contractor = payee */\n      0x0100\n      exp\n      dup2\n      sload\n      dup2\n      0xffffffffffffffffffffffffffffffffffffffff\n      mul\n      not\n      and\n      swap1\n      dup4\n      0xffffffffffffffffffffffffffffffffffffffff\n      and\n      mul\n      or\n      swap1\n      sstore\n      pop\n        /* \"contracts/Escrow.sol\":774:784  msg.sender */\n      caller\n        /* \"contracts/Escrow.sol\":767:773  client */\n      0x02\n      0x00\n        /* \"contracts/Escrow.sol\":767:784  client=msg.sender */\n      0x0100\n      exp\n      dup2\n      sload\n      dup2\n      0xffffffffffffffffffffffffffffffffffffffff\n      mul\n      not\n      and\n      swap1\n      dup4\n      0xffffffffffffffffffffffffffffffffffffffff\n      and\n      mul\n      or\n      swap1\n      sstore\n      pop\n        /* \"contracts/Escrow.sol\":802:808  broker */\n      dup1\n        /* \"contracts/Escrow.sol\":794:799  admin */\n      0x03\n      0x00\n        /* \"contracts/Escrow.sol\":794:808  admin = broker */\n      0x0100\n      exp\n      dup2\n      sload\n      dup2\n      0xffffffffffffffffffffffffffffffffffffffff\n      mul\n      not\n      and\n      swap1\n      dup4\n      0xffffffffffffffffffffffffffffffffffffffff\n      and\n      mul\n      or\n      swap1\n      sstore\n      pop\n        /* \"contracts/Escrow.sol\":818:832  uint256 amount */\n      0x00\n        /* \"contracts/Escrow.sol\":835:844  msg.value */\n      callvalue\n        /* \"contracts/Escrow.sol\":818:844  uint256 amount = msg.value */\n      swap1\n      pop\n        /* \"contracts/Escrow.sol\":874:880  amount */\n      dup1\n        /* \"contracts/Escrow.sol\":854:863  _deposits */\n      0x04\n        /* \"contracts/Escrow.sol\":854:870  _deposits[payee] */\n      0x00\n        /* \"contracts/Escrow.sol\":864:869  payee */\n      dup6\n        /* \"contracts/Escrow.sol\":854:870  _deposits[payee] */\n      0xffffffffffffffffffffffffffffffffffffffff\n      and\n      0xffffffffffffffffffffffffffffffffffffffff\n      and\n      dup2\n      mstore\n      0x20\n      add\n      swap1\n      dup2\n      mstore\n      0x20\n      add\n      0x00\n      keccak256\n      0x00\n        /* \"contracts/Escrow.sol\":854:880  _deposits[payee] += amount */\n      dup3\n      dup3\n      sload\n      tag_101\n      swap2\n      swap1\n      tag_102\n      jump\t// in\n    tag_101:\n      swap3\n      pop\n      pop\n      dup2\n      swap1\n      sstore\n      pop\n        /* \"contracts/Escrow.sol\":905:910  payee */\n      dup3\n        /* \"contracts/Escrow.sol\":895:919  Deposited(payee, amount) */\n      0xffffffffffffffffffffffffffffffffffffffff\n      and\n      0x2da466a7b24304f47e87fa2e1e5a81b9831ce54fec19055ce277ca2f39ba42c4\n        /* \"contracts/Escrow.sol\":912:918  amount */\n      dup3\n        /* \"contracts/Escrow.sol\":895:919  Deposited(payee, amount) */\n      mload(0x40)\n      tag_103\n      swap2\n      swap1\n      tag_76\n      jump\t// in\n    tag_103:\n      mload(0x40)\n      dup1\n      swap2\n      sub\n      swap1\n      log2\n        /* \"contracts/Escrow.sol\":729:926  {... */\n      pop\n        /* \"contracts/Escrow.sol\":648:926  function deposit(address payee, address broker) public payable virtual onlyOwner {... */\n      pop\n      pop\n      jump\t// out\n        /* \"contracts/Escrow.sol\":414:439  address public contractor */\n    tag_66:\n      0x01\n      0x00\n      swap1\n      sload\n      swap1\n      0x0100\n      exp\n      swap1\n      div\n      0xffffffffffffffffffffffffffffffffffffffff\n      and\n      dup2\n      jump\t// out\n        /* \"@openzeppelin/contracts/access/Ownable.sol\":1359:1489  function _checkOwner() internal view virtual {... */\n    tag_71:\n        /* \"@openzeppelin/contracts/access/Ownable.sol\":1433:1445  _msgSender() */\n      tag_105\n        /* \"@openzeppelin/contracts/access/Ownable.sol\":1433:1443  _msgSender */\n      tag_106\n        /* \"@openzeppelin/contracts/access/Ownable.sol\":1433:1445  _msgSender() */\n      jump\t// in\n    tag_105:\n        /* \"@openzeppelin/contracts/access/Ownable.sol\":1422:1445  owner() == _msgSender() */\n      0xffffffffffffffffffffffffffffffffffffffff\n      and\n        /* \"@openzeppelin/contracts/access/Ownable.sol\":1422:1429  owner() */\n      tag_107\n        /* \"@openzeppelin/contracts/access/Ownable.sol\":1422:1427  owner */\n      tag_40\n        /* \"@openzeppelin/contracts/access/Ownable.sol\":1422:1429  owner() */\n      jump\t// in\n    tag_107:\n        /* \"@openzeppelin/contracts/access/Ownable.sol\":1422:1445  owner() == _msgSender() */\n      0xffffffffffffffffffffffffffffffffffffffff\n      and\n      eq\n        /* \"@openzeppelin/contracts/access/Ownable.sol\":1414:1482  require(owner() == _msgSender(), \"Ownable: caller is not the owner\") */\n      tag_108\n      jumpi\n      mload(0x40)\n      0x08c379a000000000000000000000000000000000000000000000000000000000\n      dup2\n      mstore\n      0x04\n      add\n      tag_109\n      swap1\n      tag_110\n      jump\t// in\n    tag_109:\n      mload(0x40)\n      dup1\n      swap2\n      sub\n      swap1\n      revert\n    tag_108:\n        /* \"@openzeppelin/contracts/access/Ownable.sol\":1359:1489  function _checkOwner() internal view virtual {... */\n      jump\t// out\n        /* \"@openzeppelin/contracts/utils/Address.sol\":2412:2724  function sendValue(address payable recipient, uint256 amount) internal {... */\n    tag_74:\n        /* \"@openzeppelin/contracts/utils/Address.sol\":2526:2532  amount */\n      dup1\n        /* \"@openzeppelin/contracts/utils/Address.sol\":2501:2522  address(this).balance */\n      selfbalance\n        /* \"@openzeppelin/contracts/utils/Address.sol\":2501:2532  address(this).balance >= amount */\n      lt\n      iszero\n        /* \"@openzeppelin/contracts/utils/Address.sol\":2493:2566  require(address(this).balance >= amount, \"Address: insufficient balance\") */\n      tag_112\n      jumpi\n      mload(0x40)\n      0x08c379a000000000000000000000000000000000000000000000000000000000\n      dup2\n      mstore\n      0x04\n      add\n      tag_113\n      swap1\n      tag_114\n      jump\t// in\n    tag_113:\n      mload(0x40)\n      dup1\n      swap2\n      sub\n      swap1\n      revert\n    tag_112:\n        /* \"@openzeppelin/contracts/utils/Address.sol\":2578:2590  bool success */\n      0x00\n        /* \"@openzeppelin/contracts/utils/Address.sol\":2596:2605  recipient */\n      dup3\n        /* \"@openzeppelin/contracts/utils/Address.sol\":2596:2610  recipient.call */\n      0xffffffffffffffffffffffffffffffffffffffff\n      and\n        /* \"@openzeppelin/contracts/utils/Address.sol\":2618:2624  amount */\n      dup3\n        /* \"@openzeppelin/contracts/utils/Address.sol\":2596:2629  recipient.call{value: amount}(\"\") */\n      mload(0x40)\n      tag_115\n      swap1\n      tag_116\n      jump\t// in\n    tag_115:\n      0x00\n      mload(0x40)\n      dup1\n      dup4\n      sub\n      dup2\n      dup6\n      dup8\n      gas\n      call\n      swap3\n      pop\n      pop\n      pop\n      returndatasize\n      dup1\n      0x00\n      dup2\n      eq\n      tag_119\n      jumpi\n      mload(0x40)\n      swap2\n      pop\n      and(add(returndatasize, 0x3f), not(0x1f))\n      dup3\n      add\n      0x40\n      mstore\n      returndatasize\n      dup3\n      mstore\n      returndatasize\n      0x00\n      0x20\n      dup5\n      add\n      returndatacopy\n      jump(tag_118)\n    tag_119:\n      0x60\n      swap2\n      pop\n    tag_118:\n      pop\n        /* \"@openzeppelin/contracts/utils/Address.sol\":2577:2629  (bool success, ) = recipient.call{value: amount}(\"\") */\n      pop\n      swap1\n      pop\n        /* \"@openzeppelin/contracts/utils/Address.sol\":2647:2654  success */\n      dup1\n        /* \"@openzeppelin/contracts/utils/Address.sol\":2639:2717  require(success, \"Address: unable to send value, recipient may have reverted\") */\n      tag_120\n      jumpi\n      mload(0x40)\n      0x08c379a000000000000000000000000000000000000000000000000000000000\n      dup2\n      mstore\n      0x04\n      add\n      tag_121\n      swap1\n      tag_122\n      jump\t// in\n    tag_121:\n      mload(0x40)\n      dup1\n      swap2\n      sub\n      swap1\n      revert\n    tag_120:\n        /* \"@openzeppelin/contracts/utils/Address.sol\":2483:2724  {... */\n      pop\n        /* \"@openzeppelin/contracts/utils/Address.sol\":2412:2724  function sendValue(address payable recipient, uint256 amount) internal {... */\n      pop\n      pop\n      jump\t// out\n        /* \"@openzeppelin/contracts/access/Ownable.sol\":2433:2620  function _transferOwnership(address newOwner) internal virtual {... */\n    tag_82:\n        /* \"@openzeppelin/contracts/access/Ownable.sol\":2506:2522  address oldOwner */\n      0x00\n        /* \"@openzeppelin/contracts/access/Ownable.sol\":2525:2531  _owner */\n      dup1\n      0x00\n      swap1\n      sload\n      swap1\n      0x0100\n      exp\n      swap1\n      div\n      0xffffffffffffffffffffffffffffffffffffffff\n      and\n        /* \"@openzeppelin/contracts/access/Ownable.sol\":2506:2531  address oldOwner = _owner */\n      swap1\n      pop\n        /* \"@openzeppelin/contracts/access/Ownable.sol\":2550:2558  newOwner */\n      dup2\n        /* \"@openzeppelin/contracts/access/Ownable.sol\":2541:2547  _owner */\n      0x00\n      dup1\n        /* \"@openzeppelin/contracts/access/Ownable.sol\":2541:2558  _owner = newOwner */\n      0x0100\n      exp\n      dup2\n      sload\n      dup2\n      0xffffffffffffffffffffffffffffffffffffffff\n      mul\n      not\n      and\n      swap1\n      dup4\n      0xffffffffffffffffffffffffffffffffffffffff\n      and\n      mul\n      or\n      swap1\n      sstore\n      pop\n        /* \"@openzeppelin/contracts/access/Ownable.sol\":2604:2612  newOwner */\n      dup2\n        /* \"@openzeppelin/contracts/access/Ownable.sol\":2573:2613  OwnershipTransferred(oldOwner, newOwner) */\n      0xffffffffffffffffffffffffffffffffffffffff\n      and\n        /* \"@openzeppelin/contracts/access/Ownable.sol\":2594:2602  oldOwner */\n      dup2\n        /* \"@openzeppelin/contracts/access/Ownable.sol\":2573:2613  OwnershipTransferred(oldOwner, newOwner) */\n      0xffffffffffffffffffffffffffffffffffffffff\n      and\n      0x8be0079c531659141344cd1fd0a4f28419497f9722a3daafe3b4186f6b6457e0\n      mload(0x40)\n      mload(0x40)\n      dup1\n      swap2\n      sub\n      swap1\n      log3\n        /* \"@openzeppelin/contracts/access/Ownable.sol\":2496:2620  {... */\n      pop\n        /* \"@openzeppelin/contracts/access/Ownable.sol\":2433:2620  function _transferOwnership(address newOwner) internal virtual {... */\n      pop\n      jump\t// out\n        /* \"@openzeppelin/contracts/utils/Context.sol\":640:736  function _msgSender() internal view virtual returns (address) {... */\n    tag_106:\n        /* \"@openzeppelin/contracts/utils/Context.sol\":693:700  address */\n      0x00\n        /* \"@openzeppelin/contracts/utils/Context.sol\":719:729  msg.sender */\n      caller\n        /* \"@openzeppelin/contracts/utils/Context.sol\":712:729  return msg.sender */\n      swap1\n      pop\n        /* \"@openzeppelin/contracts/utils/Context.sol\":640:736  function _msgSender() internal view virtual returns (address) {... */\n      swap1\n      jump\t// out\n        /* \"#utility.yul\":7:146   */\n    tag_126:\n        /* \"#utility.yul\":53:58   */\n      0x00\n        /* \"#utility.yul\":91:97   */\n      dup2\n        /* \"#utility.yul\":78:98   */\n      calldataload\n        /* \"#utility.yul\":69:98   */\n      swap1\n      pop\n        /* \"#utility.yul\":107:140   */\n      tag_128\n        /* \"#utility.yul\":134:139   */\n      dup2\n        /* \"#utility.yul\":107:140   */\n      tag_129\n      jump\t// in\n    tag_128:\n        /* \"#utility.yul\":7:146   */\n      swap3\n      swap2\n      pop\n      pop\n      jump\t// out\n        /* \"#utility.yul\":152:307   */\n    tag_130:\n        /* \"#utility.yul\":206:211   */\n      0x00\n        /* \"#utility.yul\":244:250   */\n      dup2\n        /* \"#utility.yul\":231:251   */\n      calldataload\n        /* \"#utility.yul\":222:251   */\n      swap1\n      pop\n        /* \"#utility.yul\":260:301   */\n      tag_132\n        /* \"#utility.yul\":295:300   */\n      dup2\n        /* \"#utility.yul\":260:301   */\n      tag_133\n      jump\t// in\n    tag_132:\n        /* \"#utility.yul\":152:307   */\n      swap3\n      swap2\n      pop\n      pop\n      jump\t// out\n        /* \"#utility.yul\":313:446   */\n    tag_134:\n        /* \"#utility.yul\":356:361   */\n      0x00\n        /* \"#utility.yul\":394:400   */\n      dup2\n        /* \"#utility.yul\":381:401   */\n      calldataload\n        /* \"#utility.yul\":372:401   */\n      swap1\n      pop\n        /* \"#utility.yul\":410:440   */\n      tag_136\n        /* \"#utility.yul\":434:439   */\n      dup2\n        /* \"#utility.yul\":410:440   */\n      tag_137\n      jump\t// in\n    tag_136:\n        /* \"#utility.yul\":313:446   */\n      swap3\n      swap2\n      pop\n      pop\n      jump\t// out\n        /* \"#utility.yul\":452:591   */\n    tag_138:\n        /* \"#utility.yul\":498:503   */\n      0x00\n        /* \"#utility.yul\":536:542   */\n      dup2\n        /* \"#utility.yul\":523:543   */\n      calldataload\n        /* \"#utility.yul\":514:543   */\n      swap1\n      pop\n        /* \"#utility.yul\":552:585   */\n      tag_140\n        /* \"#utility.yul\":579:584   */\n      dup2\n        /* \"#utility.yul\":552:585   */\n      tag_141\n      jump\t// in\n    tag_140:\n        /* \"#utility.yul\":452:591   */\n      swap3\n      swap2\n      pop\n      pop\n      jump\t// out\n        /* \"#utility.yul\":597:926   */\n    tag_54:\n        /* \"#utility.yul\":656:662   */\n      0x00\n        /* \"#utility.yul\":705:707   */\n      0x20\n        /* \"#utility.yul\":693:702   */\n      dup3\n        /* \"#utility.yul\":684:691   */\n      dup5\n        /* \"#utility.yul\":680:703   */\n      sub\n        /* \"#utility.yul\":676:708   */\n      slt\n        /* \"#utility.yul\":673:792   */\n      iszero\n      tag_143\n      jumpi\n        /* \"#utility.yul\":711:790   */\n      tag_144\n      tag_145\n      jump\t// in\n    tag_144:\n        /* \"#utility.yul\":673:792   */\n    tag_143:\n        /* \"#utility.yul\":831:832   */\n      0x00\n        /* \"#utility.yul\":856:909   */\n      tag_146\n        /* \"#utility.yul\":901:908   */\n      dup5\n        /* \"#utility.yul\":892:898   */\n      dup3\n        /* \"#utility.yul\":881:890   */\n      dup6\n        /* \"#utility.yul\":877:899   */\n      add\n        /* \"#utility.yul\":856:909   */\n      tag_126\n      jump\t// in\n    tag_146:\n        /* \"#utility.yul\":846:909   */\n      swap2\n      pop\n        /* \"#utility.yul\":802:919   */\n      pop\n        /* \"#utility.yul\":597:926   */\n      swap3\n      swap2\n      pop\n      pop\n      jump\t// out\n        /* \"#utility.yul\":932:1277   */\n    tag_28:\n        /* \"#utility.yul\":999:1005   */\n      0x00\n        /* \"#utility.yul\":1048:1050   */\n      0x20\n        /* \"#utility.yul\":1036:1045   */\n      dup3\n        /* \"#utility.yul\":1027:1034   */\n      dup5\n        /* \"#utility.yul\":1023:1046   */\n      sub\n        /* \"#utility.yul\":1019:1051   */\n      slt\n        /* \"#utility.yul\":1016:1135   */\n      iszero\n      tag_148\n      jumpi\n        /* \"#utility.yul\":1054:1133   */\n      tag_149\n      tag_145\n      jump\t// in\n    tag_149:\n        /* \"#utility.yul\":1016:1135   */\n    tag_148:\n        /* \"#utility.yul\":1174:1175   */\n      0x00\n        /* \"#utility.yul\":1199:1260   */\n      tag_150\n        /* \"#utility.yul\":1252:1259   */\n      dup5\n        /* \"#utility.yul\":1243:1249   */\n      dup3\n        /* \"#utility.yul\":1232:1241   */\n      dup6\n        /* \"#utility.yul\":1228:1250   */\n      add\n        /* \"#utility.yul\":1199:1260   */\n      tag_130\n      jump\t// in\n    tag_150:\n        /* \"#utility.yul\":1189:1260   */\n      swap2\n      pop\n        /* \"#utility.yul\":1145:1270   */\n      pop\n        /* \"#utility.yul\":932:1277   */\n      swap3\n      swap2\n      pop\n      pop\n      jump\t// out\n        /* \"#utility.yul\":1283:1757   */\n    tag_62:\n        /* \"#utility.yul\":1351:1357   */\n      0x00\n        /* \"#utility.yul\":1359:1365   */\n      dup1\n        /* \"#utility.yul\":1408:1410   */\n      0x40\n        /* \"#utility.yul\":1396:1405   */\n      dup4\n        /* \"#utility.yul\":1387:1394   */\n      dup6\n        /* \"#utility.yul\":1383:1406   */\n      sub\n        /* \"#utility.yul\":1379:1411   */\n      slt\n        /* \"#utility.yul\":1376:1495   */\n      iszero\n      tag_152\n      jumpi\n        /* \"#utility.yul\":1414:1493   */\n      tag_153\n      tag_145\n      jump\t// in\n    tag_153:\n        /* \"#utility.yul\":1376:1495   */\n    tag_152:\n        /* \"#utility.yul\":1534:1535   */\n      0x00\n        /* \"#utility.yul\":1559:1612   */\n      tag_154\n        /* \"#utility.yul\":1604:1611   */\n      dup6\n        /* \"#utility.yul\":1595:1601   */\n      dup3\n        /* \"#utility.yul\":1584:1593   */\n      dup7\n        /* \"#utility.yul\":1580:1602   */\n      add\n        /* \"#utility.yul\":1559:1612   */\n      tag_126\n      jump\t// in\n    tag_154:\n        /* \"#utility.yul\":1549:1612   */\n      swap3\n      pop\n        /* \"#utility.yul\":1505:1622   */\n      pop\n        /* \"#utility.yul\":1661:1663   */\n      0x20\n        /* \"#utility.yul\":1687:1740   */\n      tag_155\n        /* \"#utility.yul\":1732:1739   */\n      dup6\n        /* \"#utility.yul\":1723:1729   */\n      dup3\n        /* \"#utility.yul\":1712:1721   */\n      dup7\n        /* \"#utility.yul\":1708:1730   */\n      add\n        /* \"#utility.yul\":1687:1740   */\n      tag_126\n      jump\t// in\n    tag_155:\n        /* \"#utility.yul\":1677:1740   */\n      swap2\n      pop\n        /* \"#utility.yul\":1632:1750   */\n      pop\n        /* \"#utility.yul\":1283:1757   */\n      swap3\n      pop\n      swap3\n      swap1\n      pop\n      jump\t// out\n        /* \"#utility.yul\":1763:2086   */\n    tag_23:\n        /* \"#utility.yul\":1819:1825   */\n      0x00\n        /* \"#utility.yul\":1868:1870   */\n      0x20\n        /* \"#utility.yul\":1856:1865   */\n      dup3\n        /* \"#utility.yul\":1847:1854   */\n      dup5\n        /* \"#utility.yul\":1843:1866   */\n      sub\n        /* \"#utility.yul\":1839:1871   */\n      slt\n        /* \"#utility.yul\":1836:1955   */\n      iszero\n      tag_157\n      jumpi\n        /* \"#utility.yul\":1874:1953   */\n      tag_158\n      tag_145\n      jump\t// in\n    tag_158:\n        /* \"#utility.yul\":1836:1955   */\n    tag_157:\n        /* \"#utility.yul\":1994:1995   */\n      0x00\n        /* \"#utility.yul\":2019:2069   */\n      tag_159\n        /* \"#utility.yul\":2061:2068   */\n      dup5\n        /* \"#utility.yul\":2052:2058   */\n      dup3\n        /* \"#utility.yul\":2041:2050   */\n      dup6\n        /* \"#utility.yul\":2037:2059   */\n      add\n        /* \"#utility.yul\":2019:2069   */\n      tag_134\n      jump\t// in\n    tag_159:\n        /* \"#utility.yul\":2009:2069   */\n      swap2\n      pop\n        /* \"#utility.yul\":1965:2079   */\n      pop\n        /* \"#utility.yul\":1763:2086   */\n      swap3\n      swap2\n      pop\n      pop\n      jump\t// out\n        /* \"#utility.yul\":2092:2560   */\n    tag_33:\n        /* \"#utility.yul\":2157:2163   */\n      0x00\n        /* \"#utility.yul\":2165:2171   */\n      dup1\n        /* \"#utility.yul\":2214:2216   */\n      0x40\n        /* \"#utility.yul\":2202:2211   */\n      dup4\n        /* \"#utility.yul\":2193:2200   */\n      dup6\n        /* \"#utility.yul\":2189:2212   */\n      sub\n        /* \"#utility.yul\":2185:2217   */\n      slt\n        /* \"#utility.yul\":2182:2301   */\n      iszero\n      tag_161\n      jumpi\n        /* \"#utility.yul\":2220:2299   */\n      tag_162\n      tag_145\n      jump\t// in\n    tag_162:\n        /* \"#utility.yul\":2182:2301   */\n    tag_161:\n        /* \"#utility.yul\":2340:2341   */\n      0x00\n        /* \"#utility.yul\":2365:2415   */\n      tag_163\n        /* \"#utility.yul\":2407:2414   */\n      dup6\n        /* \"#utility.yul\":2398:2404   */\n      dup3\n        /* \"#utility.yul\":2387:2396   */\n      dup7\n        /* \"#utility.yul\":2383:2405   */\n      add\n        /* \"#utility.yul\":2365:2415   */\n      tag_134\n      jump\t// in\n    tag_163:\n        /* \"#utility.yul\":2355:2415   */\n      swap3\n      pop\n        /* \"#utility.yul\":2311:2425   */\n      pop\n        /* \"#utility.yul\":2464:2466   */\n      0x20\n        /* \"#utility.yul\":2490:2543   */\n      tag_164\n        /* \"#utility.yul\":2535:2542   */\n      dup6\n        /* \"#utility.yul\":2526:2532   */\n      dup3\n        /* \"#utility.yul\":2515:2524   */\n      dup7\n        /* \"#utility.yul\":2511:2533   */\n      add\n        /* \"#utility.yul\":2490:2543   */\n      tag_138\n      jump\t// in\n    tag_164:\n        /* \"#utility.yul\":2480:2543   */\n      swap2\n      pop\n        /* \"#utility.yul\":2435:2553   */\n      pop\n        /* \"#utility.yul\":2092:2560   */\n      swap3\n      pop\n      swap3\n      swap1\n      pop\n      jump\t// out\n        /* \"#utility.yul\":2566:2684   */\n    tag_165:\n        /* \"#utility.yul\":2653:2677   */\n      tag_167\n        /* \"#utility.yul\":2671:2676   */\n      dup2\n        /* \"#utility.yul\":2653:2677   */\n      tag_168\n      jump\t// in\n    tag_167:\n        /* \"#utility.yul\":2648:2651   */\n      dup3\n        /* \"#utility.yul\":2641:2678   */\n      mstore\n        /* \"#utility.yul\":2566:2684   */\n      pop\n      pop\n      jump\t// out\n        /* \"#utility.yul\":2690:2799   */\n    tag_169:\n        /* \"#utility.yul\":2771:2792   */\n      tag_171\n        /* \"#utility.yul\":2786:2791   */\n      dup2\n        /* \"#utility.yul\":2771:2792   */\n      tag_172\n      jump\t// in\n    tag_171:\n        /* \"#utility.yul\":2766:2769   */\n      dup3\n        /* \"#utility.yul\":2759:2793   */\n      mstore\n        /* \"#utility.yul\":2690:2799   */\n      pop\n      pop\n      jump\t// out\n        /* \"#utility.yul\":2805:3171   */\n    tag_173:\n        /* \"#utility.yul\":2947:2950   */\n      0x00\n        /* \"#utility.yul\":2968:3035   */\n      tag_175\n        /* \"#utility.yul\":3032:3034   */\n      0x26\n        /* \"#utility.yul\":3027:3030   */\n      dup4\n        /* \"#utility.yul\":2968:3035   */\n      tag_176\n      jump\t// in\n    tag_175:\n        /* \"#utility.yul\":2961:3035   */\n      swap2\n      pop\n        /* \"#utility.yul\":3044:3137   */\n      tag_177\n        /* \"#utility.yul\":3133:3136   */\n      dup3\n        /* \"#utility.yul\":3044:3137   */\n      tag_178\n      jump\t// in\n    tag_177:\n        /* \"#utility.yul\":3162:3164   */\n      0x40\n        /* \"#utility.yul\":3157:3160   */\n      dup3\n        /* \"#utility.yul\":3153:3165   */\n      add\n        /* \"#utility.yul\":3146:3165   */\n      swap1\n      pop\n        /* \"#utility.yul\":2805:3171   */\n      swap2\n      swap1\n      pop\n      jump\t// out\n        /* \"#utility.yul\":3177:3543   */\n    tag_179:\n        /* \"#utility.yul\":3319:3322   */\n      0x00\n        /* \"#utility.yul\":3340:3407   */\n      tag_181\n        /* \"#utility.yul\":3404:3406   */\n      0x3a\n        /* \"#utility.yul\":3399:3402   */\n      dup4\n        /* \"#utility.yul\":3340:3407   */\n      tag_176\n      jump\t// in\n    tag_181:\n        /* \"#utility.yul\":3333:3407   */\n      swap2\n      pop\n        /* \"#utility.yul\":3416:3509   */\n      tag_182\n        /* \"#utility.yul\":3505:3508   */\n      dup3\n        /* \"#utility.yul\":3416:3509   */\n      tag_183\n      jump\t// in\n    tag_182:\n        /* \"#utility.yul\":3534:3536   */\n      0x40\n        /* \"#utility.yul\":3529:3532   */\n      dup3\n        /* \"#utility.yul\":3525:3537   */\n      add\n        /* \"#utility.yul\":3518:3537   */\n      swap1\n      pop\n        /* \"#utility.yul\":3177:3543   */\n      swap2\n      swap1\n      pop\n      jump\t// out\n        /* \"#utility.yul\":3549:3915   */\n    tag_184:\n        /* \"#utility.yul\":3691:3694   */\n      0x00\n        /* \"#utility.yul\":3712:3779   */\n      tag_186\n        /* \"#utility.yul\":3776:3778   */\n      0x1d\n        /* \"#utility.yul\":3771:3774   */\n      dup4\n        /* \"#utility.yul\":3712:3779   */\n      tag_176\n      jump\t// in\n    tag_186:\n        /* \"#utility.yul\":3705:3779   */\n      swap2\n      pop\n        /* \"#utility.yul\":3788:3881   */\n      tag_187\n        /* \"#utility.yul\":3877:3880   */\n      dup3\n        /* \"#utility.yul\":3788:3881   */\n      tag_188\n      jump\t// in\n    tag_187:\n        /* \"#utility.yul\":3906:3908   */\n      0x20\n        /* \"#utility.yul\":3901:3904   */\n      dup3\n        /* \"#utility.yul\":3897:3909   */\n      add\n        /* \"#utility.yul\":3890:3909   */\n      swap1\n      pop\n        /* \"#utility.yul\":3549:3915   */\n      swap2\n      swap1\n      pop\n      jump\t// out\n        /* \"#utility.yul\":3921:4287   */\n    tag_189:\n        /* \"#utility.yul\":4063:4066   */\n      0x00\n        /* \"#utility.yul\":4084:4151   */\n      tag_191\n        /* \"#utility.yul\":4148:4150   */\n      0x20\n        /* \"#utility.yul\":4143:4146   */\n      dup4\n        /* \"#utility.yul\":4084:4151   */\n      tag_176\n      jump\t// in\n    tag_191:\n        /* \"#utility.yul\":4077:4151   */\n      swap2\n      pop\n        /* \"#utility.yul\":4160:4253   */\n      tag_192\n        /* \"#utility.yul\":4249:4252   */\n      dup3\n        /* \"#utility.yul\":4160:4253   */\n      tag_193\n      jump\t// in\n    tag_192:\n        /* \"#utility.yul\":4278:4280   */\n      0x20\n        /* \"#utility.yul\":4273:4276   */\n      dup3\n        /* \"#utility.yul\":4269:4281   */\n      add\n        /* \"#utility.yul\":4262:4281   */\n      swap1\n      pop\n        /* \"#utility.yul\":3921:4287   */\n      swap2\n      swap1\n      pop\n      jump\t// out\n        /* \"#utility.yul\":4293:4691   */\n    tag_194:\n        /* \"#utility.yul\":4452:4455   */\n      0x00\n        /* \"#utility.yul\":4473:4556   */\n      tag_196\n        /* \"#utility.yul\":4554:4555   */\n      0x00\n        /* \"#utility.yul\":4549:4552   */\n      dup4\n        /* \"#utility.yul\":4473:4556   */\n      tag_197\n      jump\t// in\n    tag_196:\n        /* \"#utility.yul\":4466:4556   */\n      swap2\n      pop\n        /* \"#utility.yul\":4565:4658   */\n      tag_198\n        /* \"#utility.yul\":4654:4657   */\n      dup3\n        /* \"#utility.yul\":4565:4658   */\n      tag_199\n      jump\t// in\n    tag_198:\n        /* \"#utility.yul\":4683:4684   */\n      0x00\n        /* \"#utility.yul\":4678:4681   */\n      dup3\n        /* \"#utility.yul\":4674:4685   */\n      add\n        /* \"#utility.yul\":4667:4685   */\n      swap1\n      pop\n        /* \"#utility.yul\":4293:4691   */\n      swap2\n      swap1\n      pop\n      jump\t// out\n        /* \"#utility.yul\":4697:4815   */\n    tag_200:\n        /* \"#utility.yul\":4784:4808   */\n      tag_202\n        /* \"#utility.yul\":4802:4807   */\n      dup2\n        /* \"#utility.yul\":4784:4808   */\n      tag_203\n      jump\t// in\n    tag_202:\n        /* \"#utility.yul\":4779:4782   */\n      dup3\n        /* \"#utility.yul\":4772:4809   */\n      mstore\n        /* \"#utility.yul\":4697:4815   */\n      pop\n      pop\n      jump\t// out\n        /* \"#utility.yul\":4821:5200   */\n    tag_116:\n        /* \"#utility.yul\":5005:5008   */\n      0x00\n        /* \"#utility.yul\":5027:5174   */\n      tag_205\n        /* \"#utility.yul\":5170:5173   */\n      dup3\n        /* \"#utility.yul\":5027:5174   */\n      tag_194\n      jump\t// in\n    tag_205:\n        /* \"#utility.yul\":5020:5174   */\n      swap2\n      pop\n        /* \"#utility.yul\":5191:5194   */\n      dup2\n        /* \"#utility.yul\":5184:5194   */\n      swap1\n      pop\n        /* \"#utility.yul\":4821:5200   */\n      swap2\n      swap1\n      pop\n      jump\t// out\n        /* \"#utility.yul\":5206:5428   */\n    tag_19:\n        /* \"#utility.yul\":5299:5303   */\n      0x00\n        /* \"#utility.yul\":5337:5339   */\n      0x20\n        /* \"#utility.yul\":5326:5335   */\n      dup3\n        /* \"#utility.yul\":5322:5340   */\n      add\n        /* \"#utility.yul\":5314:5340   */\n      swap1\n      pop\n        /* \"#utility.yul\":5350:5421   */\n      tag_207\n        /* \"#utility.yul\":5418:5419   */\n      0x00\n        /* \"#utility.yul\":5407:5416   */\n      dup4\n        /* \"#utility.yul\":5403:5420   */\n      add\n        /* \"#utility.yul\":5394:5400   */\n      dup5\n        /* \"#utility.yul\":5350:5421   */\n      tag_165\n      jump\t// in\n    tag_207:\n        /* \"#utility.yul\":5206:5428   */\n      swap3\n      swap2\n      pop\n      pop\n      jump\t// out\n        /* \"#utility.yul\":5434:5644   */\n    tag_50:\n        /* \"#utility.yul\":5521:5525   */\n      0x00\n        /* \"#utility.yul\":5559:5561   */\n      0x20\n        /* \"#utility.yul\":5548:5557   */\n      dup3\n        /* \"#utility.yul\":5544:5562   */\n      add\n        /* \"#utility.yul\":5536:5562   */\n      swap1\n      pop\n        /* \"#utility.yul\":5572:5637   */\n      tag_209\n        /* \"#utility.yul\":5634:5635   */\n      0x00\n        /* \"#utility.yul\":5623:5632   */\n      dup4\n        /* \"#utility.yul\":5619:5636   */\n      add\n        /* \"#utility.yul\":5610:5616   */\n      dup5\n        /* \"#utility.yul\":5572:5637   */\n      tag_169\n      jump\t// in\n    tag_209:\n        /* \"#utility.yul\":5434:5644   */\n      swap3\n      swap2\n      pop\n      pop\n      jump\t// out\n        /* \"#utility.yul\":5650:6069   */\n    tag_96:\n        /* \"#utility.yul\":5816:5820   */\n      0x00\n        /* \"#utility.yul\":5854:5856   */\n      0x20\n        /* \"#utility.yul\":5843:5852   */\n      dup3\n        /* \"#utility.yul\":5839:5857   */\n      add\n        /* \"#utility.yul\":5831:5857   */\n      swap1\n      pop\n        /* \"#utility.yul\":5903:5912   */\n      dup2\n        /* \"#utility.yul\":5897:5901   */\n      dup2\n        /* \"#utility.yul\":5893:5913   */\n      sub\n        /* \"#utility.yul\":5889:5890   */\n      0x00\n        /* \"#utility.yul\":5878:5887   */\n      dup4\n        /* \"#utility.yul\":5874:5891   */\n      add\n        /* \"#utility.yul\":5867:5914   */\n      mstore\n        /* \"#utility.yul\":5931:6062   */\n      tag_211\n        /* \"#utility.yul\":6057:6061   */\n      dup2\n        /* \"#utility.yul\":5931:6062   */\n      tag_173\n      jump\t// in\n    tag_211:\n        /* \"#utility.yul\":5923:6062   */\n      swap1\n      pop\n        /* \"#utility.yul\":5650:6069   */\n      swap2\n      swap1\n      pop\n      jump\t// out\n        /* \"#utility.yul\":6075:6494   */\n    tag_122:\n        /* \"#utility.yul\":6241:6245   */\n      0x00\n        /* \"#utility.yul\":6279:6281   */\n      0x20\n        /* \"#utility.yul\":6268:6277   */\n      dup3\n        /* \"#utility.yul\":6264:6282   */\n      add\n        /* \"#utility.yul\":6256:6282   */\n      swap1\n      pop\n        /* \"#utility.yul\":6328:6337   */\n      dup2\n        /* \"#utility.yul\":6322:6326   */\n      dup2\n        /* \"#utility.yul\":6318:6338   */\n      sub\n        /* \"#utility.yul\":6314:6315   */\n      0x00\n        /* \"#utility.yul\":6303:6312   */\n      dup4\n        /* \"#utility.yul\":6299:6316   */\n      add\n        /* \"#utility.yul\":6292:6339   */\n      mstore\n        /* \"#utility.yul\":6356:6487   */\n      tag_213\n        /* \"#utility.yul\":6482:6486   */\n      dup2\n        /* \"#utility.yul\":6356:6487   */\n      tag_179\n      jump\t// in\n    tag_213:\n        /* \"#utility.yul\":6348:6487   */\n      swap1\n      pop\n        /* \"#utility.yul\":6075:6494   */\n      swap2\n      swap1\n      pop\n      jump\t// out\n        /* \"#utility.yul\":6500:6919   */\n    tag_114:\n        /* \"#utility.yul\":6666:6670   */\n      0x00\n        /* \"#utility.yul\":6704:6706   */\n      0x20\n        /* \"#utility.yul\":6693:6702   */\n      dup3\n        /* \"#utility.yul\":6689:6707   */\n      add\n        /* \"#utility.yul\":6681:6707   */\n      swap1\n      pop\n        /* \"#utility.yul\":6753:6762   */\n      dup2\n        /* \"#utility.yul\":6747:6751   */\n      dup2\n        /* \"#utility.yul\":6743:6763   */\n      sub\n        /* \"#utility.yul\":6739:6740   */\n      0x00\n        /* \"#utility.yul\":6728:6737   */\n      dup4\n        /* \"#utility.yul\":6724:6741   */\n      add\n        /* \"#utility.yul\":6717:6764   */\n      mstore\n        /* \"#utility.yul\":6781:6912   */\n      tag_215\n        /* \"#utility.yul\":6907:6911   */\n      dup2\n        /* \"#utility.yul\":6781:6912   */\n      tag_184\n      jump\t// in\n    tag_215:\n        /* \"#utility.yul\":6773:6912   */\n      swap1\n      pop\n        /* \"#utility.yul\":6500:6919   */\n      swap2\n      swap1\n      pop\n      jump\t// out\n        /* \"#utility.yul\":6925:7344   */\n    tag_110:\n        /* \"#utility.yul\":7091:7095   */\n      0x00\n        /* \"#utility.yul\":7129:7131   */\n      0x20\n        /* \"#utility.yul\":7118:7127   */\n      dup3\n        /* \"#utility.yul\":7114:7132   */\n      add\n        /* \"#utility.yul\":7106:7132   */\n      swap1\n      pop\n        /* \"#utility.yul\":7178:7187   */\n      dup2\n        /* \"#utility.yul\":7172:7176   */\n      dup2\n        /* \"#utility.yul\":7168:7188   */\n      sub\n        /* \"#utility.yul\":7164:7165   */\n      0x00\n        /* \"#utility.yul\":7153:7162   */\n      dup4\n        /* \"#utility.yul\":7149:7166   */\n      add\n        /* \"#utility.yul\":7142:7189   */\n      mstore\n        /* \"#utility.yul\":7206:7337   */\n      tag_217\n        /* \"#utility.yul\":7332:7336   */\n      dup2\n        /* \"#utility.yul\":7206:7337   */\n      tag_189\n      jump\t// in\n    tag_217:\n        /* \"#utility.yul\":7198:7337   */\n      swap1\n      pop\n        /* \"#utility.yul\":6925:7344   */\n      swap2\n      swap1\n      pop\n      jump\t// out\n        /* \"#utility.yul\":7350:7572   */\n    tag_76:\n        /* \"#utility.yul\":7443:7447   */\n      0x00\n        /* \"#utility.yul\":7481:7483   */\n      0x20\n        /* \"#utility.yul\":7470:7479   */\n      dup3\n        /* \"#utility.yul\":7466:7484   */\n      add\n        /* \"#utility.yul\":7458:7484   */\n      swap1\n      pop\n        /* \"#utility.yul\":7494:7565   */\n      tag_219\n        /* \"#utility.yul\":7562:7563   */\n      0x00\n        /* \"#utility.yul\":7551:7560   */\n      dup4\n        /* \"#utility.yul\":7547:7564   */\n      add\n        /* \"#utility.yul\":7538:7544   */\n      dup5\n        /* \"#utility.yul\":7494:7565   */\n      tag_200\n      jump\t// in\n    tag_219:\n        /* \"#utility.yul\":7350:7572   */\n      swap3\n      swap2\n      pop\n      pop\n      jump\t// out\n        /* \"#utility.yul\":7659:7806   */\n    tag_197:\n        /* \"#utility.yul\":7760:7771   */\n      0x00\n        /* \"#utility.yul\":7797:7800   */\n      dup2\n        /* \"#utility.yul\":7782:7800   */\n      swap1\n      pop\n        /* \"#utility.yul\":7659:7806   */\n      swap3\n      swap2\n      pop\n      pop\n      jump\t// out\n        /* \"#utility.yul\":7812:7981   */\n    tag_176:\n        /* \"#utility.yul\":7896:7907   */\n      0x00\n        /* \"#utility.yul\":7930:7936   */\n      dup3\n        /* \"#utility.yul\":7925:7928   */\n      dup3\n        /* \"#utility.yul\":7918:7937   */\n      mstore\n        /* \"#utility.yul\":7970:7974   */\n      0x20\n        /* \"#utility.yul\":7965:7968   */\n      dup3\n        /* \"#utility.yul\":7961:7975   */\n      add\n        /* \"#utility.yul\":7946:7975   */\n      swap1\n      pop\n        /* \"#utility.yul\":7812:7981   */\n      swap3\n      swap2\n      pop\n      pop\n      jump\t// out\n        /* \"#utility.yul\":7987:8292   */\n    tag_102:\n        /* \"#utility.yul\":8027:8030   */\n      0x00\n        /* \"#utility.yul\":8046:8066   */\n      tag_225\n        /* \"#utility.yul\":8064:8065   */\n      dup3\n        /* \"#utility.yul\":8046:8066   */\n      tag_203\n      jump\t// in\n    tag_225:\n        /* \"#utility.yul\":8041:8066   */\n      swap2\n      pop\n        /* \"#utility.yul\":8080:8100   */\n      tag_226\n        /* \"#utility.yul\":8098:8099   */\n      dup4\n        /* \"#utility.yul\":8080:8100   */\n      tag_203\n      jump\t// in\n    tag_226:\n        /* \"#utility.yul\":8075:8100   */\n      swap3\n      pop\n        /* \"#utility.yul\":8234:8235   */\n      dup3\n        /* \"#utility.yul\":8166:8232   */\n      0xffffffffffffffffffffffffffffffffffffffffffffffffffffffffffffffff\n        /* \"#utility.yul\":8162:8236   */\n      sub\n        /* \"#utility.yul\":8159:8160   */\n      dup3\n        /* \"#utility.yul\":8156:8237   */\n      gt\n        /* \"#utility.yul\":8153:8260   */\n      iszero\n      tag_227\n      jumpi\n        /* \"#utility.yul\":8240:8258   */\n      tag_228\n      tag_229\n      jump\t// in\n    tag_228:\n        /* \"#utility.yul\":8153:8260   */\n    tag_227:\n        /* \"#utility.yul\":8284:8285   */\n      dup3\n        /* \"#utility.yul\":8281:8282   */\n      dup3\n        /* \"#utility.yul\":8277:8286   */\n      add\n        /* \"#utility.yul\":8270:8286   */\n      swap1\n      pop\n        /* \"#utility.yul\":7987:8292   */\n      swap3\n      swap2\n      pop\n      pop\n      jump\t// out\n        /* \"#utility.yul\":8298:8394   */\n    tag_168:\n        /* \"#utility.yul\":8335:8342   */\n      0x00\n        /* \"#utility.yul\":8364:8388   */\n      tag_231\n        /* \"#utility.yul\":8382:8387   */\n      dup3\n        /* \"#utility.yul\":8364:8388   */\n      tag_232\n      jump\t// in\n    tag_231:\n        /* \"#utility.yul\":8353:8388   */\n      swap1\n      pop\n        /* \"#utility.yul\":8298:8394   */\n      swap2\n      swap1\n      pop\n      jump\t// out\n        /* \"#utility.yul\":8400:8504   */\n    tag_233:\n        /* \"#utility.yul\":8445:8452   */\n      0x00\n        /* \"#utility.yul\":8474:8498   */\n      tag_235\n        /* \"#utility.yul\":8492:8497   */\n      dup3\n        /* \"#utility.yul\":8474:8498   */\n      tag_232\n      jump\t// in\n    tag_235:\n        /* \"#utility.yul\":8463:8498   */\n      swap1\n      pop\n        /* \"#utility.yul\":8400:8504   */\n      swap2\n      swap1\n      pop\n      jump\t// out\n        /* \"#utility.yul\":8510:8600   */\n    tag_172:\n        /* \"#utility.yul\":8544:8551   */\n      0x00\n        /* \"#utility.yul\":8587:8592   */\n      dup2\n        /* \"#utility.yul\":8580:8593   */\n      iszero\n        /* \"#utility.yul\":8573:8594   */\n      iszero\n        /* \"#utility.yul\":8562:8594   */\n      swap1\n      pop\n        /* \"#utility.yul\":8510:8600   */\n      swap2\n      swap1\n      pop\n      jump\t// out\n        /* \"#utility.yul\":8606:8732   */\n    tag_232:\n        /* \"#utility.yul\":8643:8650   */\n      0x00\n        /* \"#utility.yul\":8683:8725   */\n      0xffffffffffffffffffffffffffffffffffffffff\n        /* \"#utility.yul\":8676:8681   */\n      dup3\n        /* \"#utility.yul\":8672:8726   */\n      and\n        /* \"#utility.yul\":8661:8726   */\n      swap1\n      pop\n        /* \"#utility.yul\":8606:8732   */\n      swap2\n      swap1\n      pop\n      jump\t// out\n        /* \"#utility.yul\":8738:8815   */\n    tag_203:\n        /* \"#utility.yul\":8775:8782   */\n      0x00\n        /* \"#utility.yul\":8804:8809   */\n      dup2\n        /* \"#utility.yul\":8793:8809   */\n      swap1\n      pop\n        /* \"#utility.yul\":8738:8815   */\n      swap2\n      swap1\n      pop\n      jump\t// out\n        /* \"#utility.yul\":8821:9001   */\n    tag_229:\n        /* \"#utility.yul\":8869:8946   */\n      0x4e487b7100000000000000000000000000000000000000000000000000000000\n        /* \"#utility.yul\":8866:8867   */\n      0x00\n        /* \"#utility.yul\":8859:8947   */\n      mstore\n        /* \"#utility.yul\":8966:8970   */\n      0x11\n        /* \"#utility.yul\":8963:8964   */\n      0x04\n        /* \"#utility.yul\":8956:8971   */\n      mstore\n        /* \"#utility.yul\":8990:8994   */\n      0x24\n        /* \"#utility.yul\":8987:8988   */\n      0x00\n        /* \"#utility.yul\":8980:8995   */\n      revert\n        /* \"#utility.yul\":9130:9247   */\n    tag_145:\n        /* \"#utility.yul\":9239:9240   */\n      0x00\n        /* \"#utility.yul\":9236:9237   */\n      dup1\n        /* \"#utility.yul\":9229:9241   */\n      revert\n        /* \"#utility.yul\":9253:9478   */\n    tag_178:\n        /* \"#utility.yul\":9393:9427   */\n      0x4f776e61626c653a206e6577206f776e657220697320746865207a65726f2061\n        /* \"#utility.yul\":9389:9390   */\n      0x00\n        /* \"#utility.yul\":9381:9387   */\n      dup3\n        /* \"#utility.yul\":9377:9391   */\n      add\n        /* \"#utility.yul\":9370:9428   */\n      mstore\n        /* \"#utility.yul\":9462:9470   */\n      0x6464726573730000000000000000000000000000000000000000000000000000\n        /* \"#utility.yul\":9457:9459   */\n      0x20\n        /* \"#utility.yul\":9449:9455   */\n      dup3\n        /* \"#utility.yul\":9445:9460   */\n      add\n        /* \"#utility.yul\":9438:9471   */\n      mstore\n        /* \"#utility.yul\":9253:9478   */\n      pop\n      jump\t// out\n        /* \"#utility.yul\":9484:9729   */\n    tag_183:\n        /* \"#utility.yul\":9624:9658   */\n      0x416464726573733a20756e61626c6520746f2073656e642076616c75652c2072\n        /* \"#utility.yul\":9620:9621   */\n      0x00\n        /* \"#utility.yul\":9612:9618   */\n      dup3\n        /* \"#utility.yul\":9608:9622   */\n      add\n        /* \"#utility.yul\":9601:9659   */\n      mstore\n        /* \"#utility.yul\":9693:9721   */\n      0x6563697069656e74206d61792068617665207265766572746564000000000000\n        /* \"#utility.yul\":9688:9690   */\n      0x20\n        /* \"#utility.yul\":9680:9686   */\n      dup3\n        /* \"#utility.yul\":9676:9691   */\n      add\n        /* \"#utility.yul\":9669:9722   */\n      mstore\n        /* \"#utility.yul\":9484:9729   */\n      pop\n      jump\t// out\n        /* \"#utility.yul\":9735:9914   */\n    tag_188:\n        /* \"#utility.yul\":9875:9906   */\n      0x416464726573733a20696e73756666696369656e742062616c616e6365000000\n        /* \"#utility.yul\":9871:9872   */\n      0x00\n        /* \"#utility.yul\":9863:9869   */\n      dup3\n        /* \"#utility.yul\":9859:9873   */\n      add\n        /* \"#utility.yul\":9852:9907   */\n      mstore\n        /* \"#utility.yul\":9735:9914   */\n      pop\n      jump\t// out\n        /* \"#utility.yul\":9920:10102   */\n    tag_193:\n        /* \"#utility.yul\":10060:10094   */\n      0x4f776e61626c653a2063616c6c6572206973206e6f7420746865206f776e6572\n        /* \"#utility.yul\":10056:10057   */\n      0x00\n        /* \"#utility.yul\":10048:10054   */\n      dup3\n        /* \"#utility.yul\":10044:10058   */\n      add\n        /* \"#utility.yul\":10037:10095   */\n      mstore\n        /* \"#utility.yul\":9920:10102   */\n      pop\n      jump\t// out\n        /* \"#utility.yul\":10108:10222   */\n    tag_199:\n      pop\n      jump\t// out\n        /* \"#utility.yul\":10228:10350   */\n    tag_129:\n        /* \"#utility.yul\":10301:10325   */\n      tag_249\n        /* \"#utility.yul\":10319:10324   */\n      dup2\n        /* \"#utility.yul\":10301:10325   */\n      tag_168\n      jump\t// in\n    tag_249:\n        /* \"#utility.yul\":10294:10299   */\n      dup2\n        /* \"#utility.yul\":10291:10326   */\n      eq\n        /* \"#utility.yul\":10281:10344   */\n      tag_250\n      jumpi\n        /* \"#utility.yul\":10340:10341   */\n      0x00\n        /* \"#utility.yul\":10337:10338   */\n      dup1\n        /* \"#utility.yul\":10330:10342   */\n      revert\n        /* \"#utility.yul\":10281:10344   */\n    tag_250:\n        /* \"#utility.yul\":10228:10350   */\n      pop\n      jump\t// out\n        /* \"#utility.yul\":10356:10494   */\n    tag_133:\n        /* \"#utility.yul\":10437:10469   */\n      tag_252\n        /* \"#utility.yul\":10463:10468   */\n      dup2\n        /* \"#utility.yul\":10437:10469   */\n      tag_233\n      jump\t// in\n    tag_252:\n        /* \"#utility.yul\":10430:10435   */\n      dup2\n        /* \"#utility.yul\":10427:10470   */\n      eq\n        /* \"#utility.yul\":10417:10488   */\n      tag_253\n      jumpi\n        /* \"#utility.yul\":10484:10485   */\n      0x00\n        /* \"#utility.yul\":10481:10482   */\n      dup1\n        /* \"#utility.yul\":10474:10486   */\n      revert\n        /* \"#utility.yul\":10417:10488   */\n    tag_253:\n        /* \"#utility.yul\":10356:10494   */\n      pop\n      jump\t// out\n        /* \"#utility.yul\":10500:10616   */\n    tag_137:\n        /* \"#utility.yul\":10570:10591   */\n      tag_255\n        /* \"#utility.yul\":10585:10590   */\n      dup2\n        /* \"#utility.yul\":10570:10591   */\n      tag_172\n      jump\t// in\n    tag_255:\n        /* \"#utility.yul\":10563:10568   */\n      dup2\n        /* \"#utility.yul\":10560:10592   */\n      eq\n        /* \"#utility.yul\":10550:10610   */\n      tag_256\n      jumpi\n        /* \"#utility.yul\":10606:10607   */\n      0x00\n        /* \"#utility.yul\":10603:10604   */\n      dup1\n        /* \"#utility.yul\":10596:10608   */\n      revert\n        /* \"#utility.yul\":10550:10610   */\n    tag_256:\n        /* \"#utility.yul\":10500:10616   */\n      pop\n      jump\t// out\n        /* \"#utility.yul\":10622:10744   */\n    tag_141:\n        /* \"#utility.yul\":10695:10719   */\n      tag_258\n        /* \"#utility.yul\":10713:10718   */\n      dup2\n        /* \"#utility.yul\":10695:10719   */\n      tag_203\n      jump\t// in\n    tag_258:\n        /* \"#utility.yul\":10688:10693   */\n      dup2\n        /* \"#utility.yul\":10685:10720   */\n      eq\n        /* \"#utility.yul\":10675:10738   */\n      tag_259\n      jumpi\n        /* \"#utility.yul\":10734:10735   */\n      0x00\n        /* \"#utility.yul\":10731:10732   */\n      dup1\n        /* \"#utility.yul\":10724:10736   */\n      revert\n        /* \"#utility.yul\":10675:10738   */\n    tag_259:\n        /* \"#utility.yul\":10622:10744   */\n      pop\n      jump\t// out\n\n    auxdata: 0xa26469706673582212202209b5f7449c92aa03fc4c1e4e795a39a10bb8b3b7fb450d8fb74771d3e072a564736f6c63430008070033\n}\n",
				"bytecode": {
					"linkReferences": {},
					"object": "608060405234801561001057600080fd5b5061002d61002261003260201b60201c565b61003a60201b60201c565b6100fe565b600033905090565b60008060009054906101000a900473ffffffffffffffffffffffffffffffffffffffff169050816000806101000a81548173ffffffffffffffffffffffffffffffffffffffff021916908373ffffffffffffffffffffffffffffffffffffffff1602179055508173ffffffffffffffffffffffffffffffffffffffff168173ffffffffffffffffffffffffffffffffffffffff167f8be0079c531659141344cd1fd0a4f28419497f9722a3daafe3b4186f6b6457e060405160405180910390a35050565b610eed8061010d6000396000f3fe6080604052600436106100a75760003560e01c80639464c8b8116100645780639464c8b814610194578063a1d19361146101bd578063f2fde38b146101e8578063f851a44014610211578063f9609f081461023c578063fbfd204514610258576100a7565b8063109e94cf146100ac578063251d8cd5146100d757806351cff8d9146101005780635e32c42514610129578063715018a6146101525780638da5cb5b14610169575b600080fd5b3480156100b857600080fd5b506100c1610283565b6040516100ce9190610b97565b60405180910390f35b3480156100e357600080fd5b506100fe60048036038101906100f99190610a39565b6102a9565b005b34801561010c57600080fd5b50610127600480360381019061012291906109cc565b6102c6565b005b34801561013557600080fd5b50610150600480360381019061014b9190610a66565b6103d2565b005b34801561015e57600080fd5b506101676103f7565b005b34801561017557600080fd5b5061017e61040b565b60405161018b9190610b97565b60405180910390f35b3480156101a057600080fd5b506101bb60048036038101906101b69190610a39565b610434565b005b3480156101c957600080fd5b506101d2610451565b6040516101df9190610bb2565b60405180910390f35b3480156101f457600080fd5b5061020f600480360381019061020a919061099f565b6104c4565b005b34801561021d57600080fd5b50610226610548565b6040516102339190610b97565b60405180910390f35b610256600480360381019061025191906109f9565b61056e565b005b34801561026457600080fd5b5061026d6106e7565b60405161027a9190610b97565b60405180910390f35b600260009054906101000a900473ffffffffffffffffffffffffffffffffffffffff1681565b80600560006101000a81548160ff02191690831515021790555050565b6102ce61070d565b6000600460008373ffffffffffffffffffffffffffffffffffffffff1673ffffffffffffffffffffffffffffffffffffffff1681526020019081526020016000205490506000600460008473ffffffffffffffffffffffffffffffffffffffff1673ffffffffffffffffffffffffffffffffffffffff16815260200190815260200160002081905550610380818373ffffffffffffffffffffffffffffffffffffffff1661078b90919063ffffffff16565b8173ffffffffffffffffffffffffffffffffffffffff167f7084f5476618d8e60b11ef0d7d3f06914655adb8793e28ff7f018d4c76d505d5826040516103c69190610c4d565b60405180910390a25050565b81600560026101000a81548160ff021916908315150217905550806006819055505050565b6103ff61070d565b610409600061087f565b565b60008060009054906101000a900473ffffffffffffffffffffffffffffffffffffffff16905090565b80600560016101000a81548160ff02191690831515021790555050565b600060011515600560009054906101000a900460ff161515148015610489575060011515600560019054906101000a900460ff161515145b1561049757600190506104c1565b60011515600560029054906101000a900460ff16151514156104bc57600190506104c1565b600090505b90565b6104cc61070d565b600073ffffffffffffffffffffffffffffffffffffffff168173ffffffffffffffffffffffffffffffffffffffff16141561053c576040517f08c379a000000000000000000000000000000000000000000000000000000000815260040161053390610bcd565b60405180910390fd5b6105458161087f565b50565b600360009054906101000a900473ffffffffffffffffffffffffffffffffffffffff1681565b61057661070d565b81600160006101000a81548173ffffffffffffffffffffffffffffffffffffffff021916908373ffffffffffffffffffffffffffffffffffffffff16021790555033600260006101000a81548173ffffffffffffffffffffffffffffffffffffffff021916908373ffffffffffffffffffffffffffffffffffffffff16021790555080600360006101000a81548173ffffffffffffffffffffffffffffffffffffffff021916908373ffffffffffffffffffffffffffffffffffffffff160217905550600034905080600460008573ffffffffffffffffffffffffffffffffffffffff1673ffffffffffffffffffffffffffffffffffffffff168152602001908152602001600020600082825461068d9190610c84565b925050819055508273ffffffffffffffffffffffffffffffffffffffff167f2da466a7b24304f47e87fa2e1e5a81b9831ce54fec19055ce277ca2f39ba42c4826040516106da9190610c4d565b60405180910390a2505050565b600160009054906101000a900473ffffffffffffffffffffffffffffffffffffffff1681565b610715610943565b73ffffffffffffffffffffffffffffffffffffffff1661073361040b565b73ffffffffffffffffffffffffffffffffffffffff1614610789576040517f08c379a000000000000000000000000000000000000000000000000000000000815260040161078090610c2d565b60405180910390fd5b565b804710156107ce576040517f08c379a00000000000000000000000000000000000000000000000000000000081526004016107c590610c0d565b60405180910390fd5b60008273ffffffffffffffffffffffffffffffffffffffff16826040516107f490610b82565b60006040518083038185875af1925050503d8060008114610831576040519150601f19603f3d011682016040523d82523d6000602084013e610836565b606091505b505090508061087a576040517f08c379a000000000000000000000000000000000000000000000000000000000815260040161087190610bed565b60405180910390fd5b505050565b60008060009054906101000a900473ffffffffffffffffffffffffffffffffffffffff169050816000806101000a81548173ffffffffffffffffffffffffffffffffffffffff021916908373ffffffffffffffffffffffffffffffffffffffff1602179055508173ffffffffffffffffffffffffffffffffffffffff168173ffffffffffffffffffffffffffffffffffffffff167f8be0079c531659141344cd1fd0a4f28419497f9722a3daafe3b4186f6b6457e060405160405180910390a35050565b600033905090565b60008135905061095a81610e5b565b92915050565b60008135905061096f81610e72565b92915050565b60008135905061098481610e89565b92915050565b60008135905061099981610ea0565b92915050565b6000602082840312156109b5576109b4610d63565b5b60006109c38482850161094b565b91505092915050565b6000602082840312156109e2576109e1610d63565b5b60006109f084828501610960565b91505092915050565b60008060408385031215610a1057610a0f610d63565b5b6000610a1e8582860161094b565b9250506020610a2f8582860161094b565b9150509250929050565b600060208284031215610a4f57610a4e610d63565b5b6000610a5d84828501610975565b91505092915050565b60008060408385031215610a7d57610a7c610d63565b5b6000610a8b85828601610975565b9250506020610a9c8582860161098a565b9150509250929050565b610aaf81610cda565b82525050565b610abe81610cfe565b82525050565b6000610ad1602683610c73565b9150610adc82610d68565b604082019050919050565b6000610af4603a83610c73565b9150610aff82610db7565b604082019050919050565b6000610b17601d83610c73565b9150610b2282610e06565b602082019050919050565b6000610b3a602083610c73565b9150610b4582610e2f565b602082019050919050565b6000610b5d600083610c68565b9150610b6882610e58565b600082019050919050565b610b7c81610d2a565b82525050565b6000610b8d82610b50565b9150819050919050565b6000602082019050610bac6000830184610aa6565b92915050565b6000602082019050610bc76000830184610ab5565b92915050565b60006020820190508181036000830152610be681610ac4565b9050919050565b60006020820190508181036000830152610c0681610ae7565b9050919050565b60006020820190508181036000830152610c2681610b0a565b9050919050565b60006020820190508181036000830152610c4681610b2d565b9050919050565b6000602082019050610c626000830184610b73565b92915050565b600081905092915050565b600082825260208201905092915050565b6000610c8f82610d2a565b9150610c9a83610d2a565b9250827fffffffffffffffffffffffffffffffffffffffffffffffffffffffffffffffff03821115610ccf57610cce610d34565b5b828201905092915050565b6000610ce582610d0a565b9050919050565b6000610cf782610d0a565b9050919050565b60008115159050919050565b600073ffffffffffffffffffffffffffffffffffffffff82169050919050565b6000819050919050565b7f4e487b7100000000000000000000000000000000000000000000000000000000600052601160045260246000fd5b600080fd5b7f4f776e61626c653a206e6577206f776e657220697320746865207a65726f206160008201527f6464726573730000000000000000000000000000000000000000000000000000602082015250565b7f416464726573733a20756e61626c6520746f2073656e642076616c75652c207260008201527f6563697069656e74206d61792068617665207265766572746564000000000000602082015250565b7f416464726573733a20696e73756666696369656e742062616c616e6365000000600082015250565b7f4f776e61626c653a2063616c6c6572206973206e6f7420746865206f776e6572600082015250565b50565b610e6481610cda565b8114610e6f57600080fd5b50565b610e7b81610cec565b8114610e8657600080fd5b50565b610e9281610cfe565b8114610e9d57600080fd5b50565b610ea981610d2a565b8114610eb457600080fd5b5056fea26469706673582212202209b5f7449c92aa03fc4c1e4e795a39a10bb8b3b7fb450d8fb74771d3e072a564736f6c63430008070033",
					"opcodes": "PUSH1 0x80 PUSH1 0x40 MSTORE CALLVALUE DUP1 ISZERO PUSH2 0x10 JUMPI PUSH1 0x0 DUP1 REVERT JUMPDEST POP PUSH2 0x2D PUSH2 0x22 PUSH2 0x32 PUSH1 0x20 SHL PUSH1 0x20 SHR JUMP JUMPDEST PUSH2 0x3A PUSH1 0x20 SHL PUSH1 0x20 SHR JUMP JUMPDEST PUSH2 0xFE JUMP JUMPDEST PUSH1 0x0 CALLER SWAP1 POP SWAP1 JUMP JUMPDEST PUSH1 0x0 DUP1 PUSH1 0x0 SWAP1 SLOAD SWAP1 PUSH2 0x100 EXP SWAP1 DIV PUSH20 0xFFFFFFFFFFFFFFFFFFFFFFFFFFFFFFFFFFFFFFFF AND SWAP1 POP DUP2 PUSH1 0x0 DUP1 PUSH2 0x100 EXP DUP2 SLOAD DUP2 PUSH20 0xFFFFFFFFFFFFFFFFFFFFFFFFFFFFFFFFFFFFFFFF MUL NOT AND SWAP1 DUP4 PUSH20 0xFFFFFFFFFFFFFFFFFFFFFFFFFFFFFFFFFFFFFFFF AND MUL OR SWAP1 SSTORE POP DUP2 PUSH20 0xFFFFFFFFFFFFFFFFFFFFFFFFFFFFFFFFFFFFFFFF AND DUP2 PUSH20 0xFFFFFFFFFFFFFFFFFFFFFFFFFFFFFFFFFFFFFFFF AND PUSH32 0x8BE0079C531659141344CD1FD0A4F28419497F9722A3DAAFE3B4186F6B6457E0 PUSH1 0x40 MLOAD PUSH1 0x40 MLOAD DUP1 SWAP2 SUB SWAP1 LOG3 POP POP JUMP JUMPDEST PUSH2 0xEED DUP1 PUSH2 0x10D PUSH1 0x0 CODECOPY PUSH1 0x0 RETURN INVALID PUSH1 0x80 PUSH1 0x40 MSTORE PUSH1 0x4 CALLDATASIZE LT PUSH2 0xA7 JUMPI PUSH1 0x0 CALLDATALOAD PUSH1 0xE0 SHR DUP1 PUSH4 0x9464C8B8 GT PUSH2 0x64 JUMPI DUP1 PUSH4 0x9464C8B8 EQ PUSH2 0x194 JUMPI DUP1 PUSH4 0xA1D19361 EQ PUSH2 0x1BD JUMPI DUP1 PUSH4 0xF2FDE38B EQ PUSH2 0x1E8 JUMPI DUP1 PUSH4 0xF851A440 EQ PUSH2 0x211 JUMPI DUP1 PUSH4 0xF9609F08 EQ PUSH2 0x23C JUMPI DUP1 PUSH4 0xFBFD2045 EQ PUSH2 0x258 JUMPI PUSH2 0xA7 JUMP JUMPDEST DUP1 PUSH4 0x109E94CF EQ PUSH2 0xAC JUMPI DUP1 PUSH4 0x251D8CD5 EQ PUSH2 0xD7 JUMPI DUP1 PUSH4 0x51CFF8D9 EQ PUSH2 0x100 JUMPI DUP1 PUSH4 0x5E32C425 EQ PUSH2 0x129 JUMPI DUP1 PUSH4 0x715018A6 EQ PUSH2 0x152 JUMPI DUP1 PUSH4 0x8DA5CB5B EQ PUSH2 0x169 JUMPI JUMPDEST PUSH1 0x0 DUP1 REVERT JUMPDEST CALLVALUE DUP1 ISZERO PUSH2 0xB8 JUMPI PUSH1 0x0 DUP1 REVERT JUMPDEST POP PUSH2 0xC1 PUSH2 0x283 JUMP JUMPDEST PUSH1 0x40 MLOAD PUSH2 0xCE SWAP2 SWAP1 PUSH2 0xB97 JUMP JUMPDEST PUSH1 0x40 MLOAD DUP1 SWAP2 SUB SWAP1 RETURN JUMPDEST CALLVALUE DUP1 ISZERO PUSH2 0xE3 JUMPI PUSH1 0x0 DUP1 REVERT JUMPDEST POP PUSH2 0xFE PUSH1 0x4 DUP1 CALLDATASIZE SUB DUP2 ADD SWAP1 PUSH2 0xF9 SWAP2 SWAP1 PUSH2 0xA39 JUMP JUMPDEST PUSH2 0x2A9 JUMP JUMPDEST STOP JUMPDEST CALLVALUE DUP1 ISZERO PUSH2 0x10C JUMPI PUSH1 0x0 DUP1 REVERT JUMPDEST POP PUSH2 0x127 PUSH1 0x4 DUP1 CALLDATASIZE SUB DUP2 ADD SWAP1 PUSH2 0x122 SWAP2 SWAP1 PUSH2 0x9CC JUMP JUMPDEST PUSH2 0x2C6 JUMP JUMPDEST STOP JUMPDEST CALLVALUE DUP1 ISZERO PUSH2 0x135 JUMPI PUSH1 0x0 DUP1 REVERT JUMPDEST POP PUSH2 0x150 PUSH1 0x4 DUP1 CALLDATASIZE SUB DUP2 ADD SWAP1 PUSH2 0x14B SWAP2 SWAP1 PUSH2 0xA66 JUMP JUMPDEST PUSH2 0x3D2 JUMP JUMPDEST STOP JUMPDEST CALLVALUE DUP1 ISZERO PUSH2 0x15E JUMPI PUSH1 0x0 DUP1 REVERT JUMPDEST POP PUSH2 0x167 PUSH2 0x3F7 JUMP JUMPDEST STOP JUMPDEST CALLVALUE DUP1 ISZERO PUSH2 0x175 JUMPI PUSH1 0x0 DUP1 REVERT JUMPDEST POP PUSH2 0x17E PUSH2 0x40B JUMP JUMPDEST PUSH1 0x40 MLOAD PUSH2 0x18B SWAP2 SWAP1 PUSH2 0xB97 JUMP JUMPDEST PUSH1 0x40 MLOAD DUP1 SWAP2 SUB SWAP1 RETURN JUMPDEST CALLVALUE DUP1 ISZERO PUSH2 0x1A0 JUMPI PUSH1 0x0 DUP1 REVERT JUMPDEST POP PUSH2 0x1BB PUSH1 0x4 DUP1 CALLDATASIZE SUB DUP2 ADD SWAP1 PUSH2 0x1B6 SWAP2 SWAP1 PUSH2 0xA39 JUMP JUMPDEST PUSH2 0x434 JUMP JUMPDEST STOP JUMPDEST CALLVALUE DUP1 ISZERO PUSH2 0x1C9 JUMPI PUSH1 0x0 DUP1 REVERT JUMPDEST POP PUSH2 0x1D2 PUSH2 0x451 JUMP JUMPDEST PUSH1 0x40 MLOAD PUSH2 0x1DF SWAP2 SWAP1 PUSH2 0xBB2 JUMP JUMPDEST PUSH1 0x40 MLOAD DUP1 SWAP2 SUB SWAP1 RETURN JUMPDEST CALLVALUE DUP1 ISZERO PUSH2 0x1F4 JUMPI PUSH1 0x0 DUP1 REVERT JUMPDEST POP PUSH2 0x20F PUSH1 0x4 DUP1 CALLDATASIZE SUB DUP2 ADD SWAP1 PUSH2 0x20A SWAP2 SWAP1 PUSH2 0x99F JUMP JUMPDEST PUSH2 0x4C4 JUMP JUMPDEST STOP JUMPDEST CALLVALUE DUP1 ISZERO PUSH2 0x21D JUMPI PUSH1 0x0 DUP1 REVERT JUMPDEST POP PUSH2 0x226 PUSH2 0x548 JUMP JUMPDEST PUSH1 0x40 MLOAD PUSH2 0x233 SWAP2 SWAP1 PUSH2 0xB97 JUMP JUMPDEST PUSH1 0x40 MLOAD DUP1 SWAP2 SUB SWAP1 RETURN JUMPDEST PUSH2 0x256 PUSH1 0x4 DUP1 CALLDATASIZE SUB DUP2 ADD SWAP1 PUSH2 0x251 SWAP2 SWAP1 PUSH2 0x9F9 JUMP JUMPDEST PUSH2 0x56E JUMP JUMPDEST STOP JUMPDEST CALLVALUE DUP1 ISZERO PUSH2 0x264 JUMPI PUSH1 0x0 DUP1 REVERT JUMPDEST POP PUSH2 0x26D PUSH2 0x6E7 JUMP JUMPDEST PUSH1 0x40 MLOAD PUSH2 0x27A SWAP2 SWAP1 PUSH2 0xB97 JUMP JUMPDEST PUSH1 0x40 MLOAD DUP1 SWAP2 SUB SWAP1 RETURN JUMPDEST PUSH1 0x2 PUSH1 0x0 SWAP1 SLOAD SWAP1 PUSH2 0x100 EXP SWAP1 DIV PUSH20 0xFFFFFFFFFFFFFFFFFFFFFFFFFFFFFFFFFFFFFFFF AND DUP2 JUMP JUMPDEST DUP1 PUSH1 0x5 PUSH1 0x0 PUSH2 0x100 EXP DUP2 SLOAD DUP2 PUSH1 0xFF MUL NOT AND SWAP1 DUP4 ISZERO ISZERO MUL OR SWAP1 SSTORE POP POP JUMP JUMPDEST PUSH2 0x2CE PUSH2 0x70D JUMP JUMPDEST PUSH1 0x0 PUSH1 0x4 PUSH1 0x0 DUP4 PUSH20 0xFFFFFFFFFFFFFFFFFFFFFFFFFFFFFFFFFFFFFFFF AND PUSH20 0xFFFFFFFFFFFFFFFFFFFFFFFFFFFFFFFFFFFFFFFF AND DUP2 MSTORE PUSH1 0x20 ADD SWAP1 DUP2 MSTORE PUSH1 0x20 ADD PUSH1 0x0 KECCAK256 SLOAD SWAP1 POP PUSH1 0x0 PUSH1 0x4 PUSH1 0x0 DUP5 PUSH20 0xFFFFFFFFFFFFFFFFFFFFFFFFFFFFFFFFFFFFFFFF AND PUSH20 0xFFFFFFFFFFFFFFFFFFFFFFFFFFFFFFFFFFFFFFFF AND DUP2 MSTORE PUSH1 0x20 ADD SWAP1 DUP2 MSTORE PUSH1 0x20 ADD PUSH1 0x0 KECCAK256 DUP2 SWAP1 SSTORE POP PUSH2 0x380 DUP2 DUP4 PUSH20 0xFFFFFFFFFFFFFFFFFFFFFFFFFFFFFFFFFFFFFFFF AND PUSH2 0x78B SWAP1 SWAP2 SWAP1 PUSH4 0xFFFFFFFF AND JUMP JUMPDEST DUP2 PUSH20 0xFFFFFFFFFFFFFFFFFFFFFFFFFFFFFFFFFFFFFFFF AND PUSH32 0x7084F5476618D8E60B11EF0D7D3F06914655ADB8793E28FF7F018D4C76D505D5 DUP3 PUSH1 0x40 MLOAD PUSH2 0x3C6 SWAP2 SWAP1 PUSH2 0xC4D JUMP JUMPDEST PUSH1 0x40 MLOAD DUP1 SWAP2 SUB SWAP1 LOG2 POP POP JUMP JUMPDEST DUP2 PUSH1 0x5 PUSH1 0x2 PUSH2 0x100 EXP DUP2 SLOAD DUP2 PUSH1 0xFF MUL NOT AND SWAP1 DUP4 ISZERO ISZERO MUL OR SWAP1 SSTORE POP DUP1 PUSH1 0x6 DUP2 SWAP1 SSTORE POP POP POP JUMP JUMPDEST PUSH2 0x3FF PUSH2 0x70D JUMP JUMPDEST PUSH2 0x409 PUSH1 0x0 PUSH2 0x87F JUMP JUMPDEST JUMP JUMPDEST PUSH1 0x0 DUP1 PUSH1 0x0 SWAP1 SLOAD SWAP1 PUSH2 0x100 EXP SWAP1 DIV PUSH20 0xFFFFFFFFFFFFFFFFFFFFFFFFFFFFFFFFFFFFFFFF AND SWAP1 POP SWAP1 JUMP JUMPDEST DUP1 PUSH1 0x5 PUSH1 0x1 PUSH2 0x100 EXP DUP2 SLOAD DUP2 PUSH1 0xFF MUL NOT AND SWAP1 DUP4 ISZERO ISZERO MUL OR SWAP1 SSTORE POP POP JUMP JUMPDEST PUSH1 0x0 PUSH1 0x1 ISZERO ISZERO PUSH1 0x5 PUSH1 0x0 SWAP1 SLOAD SWAP1 PUSH2 0x100 EXP SWAP1 DIV PUSH1 0xFF AND ISZERO ISZERO EQ DUP1 ISZERO PUSH2 0x489 JUMPI POP PUSH1 0x1 ISZERO ISZERO PUSH1 0x5 PUSH1 0x1 SWAP1 SLOAD SWAP1 PUSH2 0x100 EXP SWAP1 DIV PUSH1 0xFF AND ISZERO ISZERO EQ JUMPDEST ISZERO PUSH2 0x497 JUMPI PUSH1 0x1 SWAP1 POP PUSH2 0x4C1 JUMP JUMPDEST PUSH1 0x1 ISZERO ISZERO PUSH1 0x5 PUSH1 0x2 SWAP1 SLOAD SWAP1 PUSH2 0x100 EXP SWAP1 DIV PUSH1 0xFF AND ISZERO ISZERO EQ ISZERO PUSH2 0x4BC JUMPI PUSH1 0x1 SWAP1 POP PUSH2 0x4C1 JUMP JUMPDEST PUSH1 0x0 SWAP1 POP JUMPDEST SWAP1 JUMP JUMPDEST PUSH2 0x4CC PUSH2 0x70D JUMP JUMPDEST PUSH1 0x0 PUSH20 0xFFFFFFFFFFFFFFFFFFFFFFFFFFFFFFFFFFFFFFFF AND DUP2 PUSH20 0xFFFFFFFFFFFFFFFFFFFFFFFFFFFFFFFFFFFFFFFF AND EQ ISZERO PUSH2 0x53C JUMPI PUSH1 0x40 MLOAD PUSH32 0x8C379A000000000000000000000000000000000000000000000000000000000 DUP2 MSTORE PUSH1 0x4 ADD PUSH2 0x533 SWAP1 PUSH2 0xBCD JUMP JUMPDEST PUSH1 0x40 MLOAD DUP1 SWAP2 SUB SWAP1 REVERT JUMPDEST PUSH2 0x545 DUP2 PUSH2 0x87F JUMP JUMPDEST POP JUMP JUMPDEST PUSH1 0x3 PUSH1 0x0 SWAP1 SLOAD SWAP1 PUSH2 0x100 EXP SWAP1 DIV PUSH20 0xFFFFFFFFFFFFFFFFFFFFFFFFFFFFFFFFFFFFFFFF AND DUP2 JUMP JUMPDEST PUSH2 0x576 PUSH2 0x70D JUMP JUMPDEST DUP2 PUSH1 0x1 PUSH1 0x0 PUSH2 0x100 EXP DUP2 SLOAD DUP2 PUSH20 0xFFFFFFFFFFFFFFFFFFFFFFFFFFFFFFFFFFFFFFFF MUL NOT AND SWAP1 DUP4 PUSH20 0xFFFFFFFFFFFFFFFFFFFFFFFFFFFFFFFFFFFFFFFF AND MUL OR SWAP1 SSTORE POP CALLER PUSH1 0x2 PUSH1 0x0 PUSH2 0x100 EXP DUP2 SLOAD DUP2 PUSH20 0xFFFFFFFFFFFFFFFFFFFFFFFFFFFFFFFFFFFFFFFF MUL NOT AND SWAP1 DUP4 PUSH20 0xFFFFFFFFFFFFFFFFFFFFFFFFFFFFFFFFFFFFFFFF AND MUL OR SWAP1 SSTORE POP DUP1 PUSH1 0x3 PUSH1 0x0 PUSH2 0x100 EXP DUP2 SLOAD DUP2 PUSH20 0xFFFFFFFFFFFFFFFFFFFFFFFFFFFFFFFFFFFFFFFF MUL NOT AND SWAP1 DUP4 PUSH20 0xFFFFFFFFFFFFFFFFFFFFFFFFFFFFFFFFFFFFFFFF AND MUL OR SWAP1 SSTORE POP PUSH1 0x0 CALLVALUE SWAP1 POP DUP1 PUSH1 0x4 PUSH1 0x0 DUP6 PUSH20 0xFFFFFFFFFFFFFFFFFFFFFFFFFFFFFFFFFFFFFFFF AND PUSH20 0xFFFFFFFFFFFFFFFFFFFFFFFFFFFFFFFFFFFFFFFF AND DUP2 MSTORE PUSH1 0x20 ADD SWAP1 DUP2 MSTORE PUSH1 0x20 ADD PUSH1 0x0 KECCAK256 PUSH1 0x0 DUP3 DUP3 SLOAD PUSH2 0x68D SWAP2 SWAP1 PUSH2 0xC84 JUMP JUMPDEST SWAP3 POP POP DUP2 SWAP1 SSTORE POP DUP3 PUSH20 0xFFFFFFFFFFFFFFFFFFFFFFFFFFFFFFFFFFFFFFFF AND PUSH32 0x2DA466A7B24304F47E87FA2E1E5A81B9831CE54FEC19055CE277CA2F39BA42C4 DUP3 PUSH1 0x40 MLOAD PUSH2 0x6DA SWAP2 SWAP1 PUSH2 0xC4D JUMP JUMPDEST PUSH1 0x40 MLOAD DUP1 SWAP2 SUB SWAP1 LOG2 POP POP POP JUMP JUMPDEST PUSH1 0x1 PUSH1 0x0 SWAP1 SLOAD SWAP1 PUSH2 0x100 EXP SWAP1 DIV PUSH20 0xFFFFFFFFFFFFFFFFFFFFFFFFFFFFFFFFFFFFFFFF AND DUP2 JUMP JUMPDEST PUSH2 0x715 PUSH2 0x943 JUMP JUMPDEST PUSH20 0xFFFFFFFFFFFFFFFFFFFFFFFFFFFFFFFFFFFFFFFF AND PUSH2 0x733 PUSH2 0x40B JUMP JUMPDEST PUSH20 0xFFFFFFFFFFFFFFFFFFFFFFFFFFFFFFFFFFFFFFFF AND EQ PUSH2 0x789 JUMPI PUSH1 0x40 MLOAD PUSH32 0x8C379A000000000000000000000000000000000000000000000000000000000 DUP2 MSTORE PUSH1 0x4 ADD PUSH2 0x780 SWAP1 PUSH2 0xC2D JUMP JUMPDEST PUSH1 0x40 MLOAD DUP1 SWAP2 SUB SWAP1 REVERT JUMPDEST JUMP JUMPDEST DUP1 SELFBALANCE LT ISZERO PUSH2 0x7CE JUMPI PUSH1 0x40 MLOAD PUSH32 0x8C379A000000000000000000000000000000000000000000000000000000000 DUP2 MSTORE PUSH1 0x4 ADD PUSH2 0x7C5 SWAP1 PUSH2 0xC0D JUMP JUMPDEST PUSH1 0x40 MLOAD DUP1 SWAP2 SUB SWAP1 REVERT JUMPDEST PUSH1 0x0 DUP3 PUSH20 0xFFFFFFFFFFFFFFFFFFFFFFFFFFFFFFFFFFFFFFFF AND DUP3 PUSH1 0x40 MLOAD PUSH2 0x7F4 SWAP1 PUSH2 0xB82 JUMP JUMPDEST PUSH1 0x0 PUSH1 0x40 MLOAD DUP1 DUP4 SUB DUP2 DUP6 DUP8 GAS CALL SWAP3 POP POP POP RETURNDATASIZE DUP1 PUSH1 0x0 DUP2 EQ PUSH2 0x831 JUMPI PUSH1 0x40 MLOAD SWAP2 POP PUSH1 0x1F NOT PUSH1 0x3F RETURNDATASIZE ADD AND DUP3 ADD PUSH1 0x40 MSTORE RETURNDATASIZE DUP3 MSTORE RETURNDATASIZE PUSH1 0x0 PUSH1 0x20 DUP5 ADD RETURNDATACOPY PUSH2 0x836 JUMP JUMPDEST PUSH1 0x60 SWAP2 POP JUMPDEST POP POP SWAP1 POP DUP1 PUSH2 0x87A JUMPI PUSH1 0x40 MLOAD PUSH32 0x8C379A000000000000000000000000000000000000000000000000000000000 DUP2 MSTORE PUSH1 0x4 ADD PUSH2 0x871 SWAP1 PUSH2 0xBED JUMP JUMPDEST PUSH1 0x40 MLOAD DUP1 SWAP2 SUB SWAP1 REVERT JUMPDEST POP POP POP JUMP JUMPDEST PUSH1 0x0 DUP1 PUSH1 0x0 SWAP1 SLOAD SWAP1 PUSH2 0x100 EXP SWAP1 DIV PUSH20 0xFFFFFFFFFFFFFFFFFFFFFFFFFFFFFFFFFFFFFFFF AND SWAP1 POP DUP2 PUSH1 0x0 DUP1 PUSH2 0x100 EXP DUP2 SLOAD DUP2 PUSH20 0xFFFFFFFFFFFFFFFFFFFFFFFFFFFFFFFFFFFFFFFF MUL NOT AND SWAP1 DUP4 PUSH20 0xFFFFFFFFFFFFFFFFFFFFFFFFFFFFFFFFFFFFFFFF AND MUL OR SWAP1 SSTORE POP DUP2 PUSH20 0xFFFFFFFFFFFFFFFFFFFFFFFFFFFFFFFFFFFFFFFF AND DUP2 PUSH20 0xFFFFFFFFFFFFFFFFFFFFFFFFFFFFFFFFFFFFFFFF AND PUSH32 0x8BE0079C531659141344CD1FD0A4F28419497F9722A3DAAFE3B4186F6B6457E0 PUSH1 0x40 MLOAD PUSH1 0x40 MLOAD DUP1 SWAP2 SUB SWAP1 LOG3 POP POP JUMP JUMPDEST PUSH1 0x0 CALLER SWAP1 POP SWAP1 JUMP JUMPDEST PUSH1 0x0 DUP2 CALLDATALOAD SWAP1 POP PUSH2 0x95A DUP2 PUSH2 0xE5B JUMP JUMPDEST SWAP3 SWAP2 POP POP JUMP JUMPDEST PUSH1 0x0 DUP2 CALLDATALOAD SWAP1 POP PUSH2 0x96F DUP2 PUSH2 0xE72 JUMP JUMPDEST SWAP3 SWAP2 POP POP JUMP JUMPDEST PUSH1 0x0 DUP2 CALLDATALOAD SWAP1 POP PUSH2 0x984 DUP2 PUSH2 0xE89 JUMP JUMPDEST SWAP3 SWAP2 POP POP JUMP JUMPDEST PUSH1 0x0 DUP2 CALLDATALOAD SWAP1 POP PUSH2 0x999 DUP2 PUSH2 0xEA0 JUMP JUMPDEST SWAP3 SWAP2 POP POP JUMP JUMPDEST PUSH1 0x0 PUSH1 0x20 DUP3 DUP5 SUB SLT ISZERO PUSH2 0x9B5 JUMPI PUSH2 0x9B4 PUSH2 0xD63 JUMP JUMPDEST JUMPDEST PUSH1 0x0 PUSH2 0x9C3 DUP5 DUP3 DUP6 ADD PUSH2 0x94B JUMP JUMPDEST SWAP2 POP POP SWAP3 SWAP2 POP POP JUMP JUMPDEST PUSH1 0x0 PUSH1 0x20 DUP3 DUP5 SUB SLT ISZERO PUSH2 0x9E2 JUMPI PUSH2 0x9E1 PUSH2 0xD63 JUMP JUMPDEST JUMPDEST PUSH1 0x0 PUSH2 0x9F0 DUP5 DUP3 DUP6 ADD PUSH2 0x960 JUMP JUMPDEST SWAP2 POP POP SWAP3 SWAP2 POP POP JUMP JUMPDEST PUSH1 0x0 DUP1 PUSH1 0x40 DUP4 DUP6 SUB SLT ISZERO PUSH2 0xA10 JUMPI PUSH2 0xA0F PUSH2 0xD63 JUMP JUMPDEST JUMPDEST PUSH1 0x0 PUSH2 0xA1E DUP6 DUP3 DUP7 ADD PUSH2 0x94B JUMP JUMPDEST SWAP3 POP POP PUSH1 0x20 PUSH2 0xA2F DUP6 DUP3 DUP7 ADD PUSH2 0x94B JUMP JUMPDEST SWAP2 POP POP SWAP3 POP SWAP3 SWAP1 POP JUMP JUMPDEST PUSH1 0x0 PUSH1 0x20 DUP3 DUP5 SUB SLT ISZERO PUSH2 0xA4F JUMPI PUSH2 0xA4E PUSH2 0xD63 JUMP JUMPDEST JUMPDEST PUSH1 0x0 PUSH2 0xA5D DUP5 DUP3 DUP6 ADD PUSH2 0x975 JUMP JUMPDEST SWAP2 POP POP SWAP3 SWAP2 POP POP JUMP JUMPDEST PUSH1 0x0 DUP1 PUSH1 0x40 DUP4 DUP6 SUB SLT ISZERO PUSH2 0xA7D JUMPI PUSH2 0xA7C PUSH2 0xD63 JUMP JUMPDEST JUMPDEST PUSH1 0x0 PUSH2 0xA8B DUP6 DUP3 DUP7 ADD PUSH2 0x975 JUMP JUMPDEST SWAP3 POP POP PUSH1 0x20 PUSH2 0xA9C DUP6 DUP3 DUP7 ADD PUSH2 0x98A JUMP JUMPDEST SWAP2 POP POP SWAP3 POP SWAP3 SWAP1 POP JUMP JUMPDEST PUSH2 0xAAF DUP2 PUSH2 0xCDA JUMP JUMPDEST DUP3 MSTORE POP POP JUMP JUMPDEST PUSH2 0xABE DUP2 PUSH2 0xCFE JUMP JUMPDEST DUP3 MSTORE POP POP JUMP JUMPDEST PUSH1 0x0 PUSH2 0xAD1 PUSH1 0x26 DUP4 PUSH2 0xC73 JUMP JUMPDEST SWAP2 POP PUSH2 0xADC DUP3 PUSH2 0xD68 JUMP JUMPDEST PUSH1 0x40 DUP3 ADD SWAP1 POP SWAP2 SWAP1 POP JUMP JUMPDEST PUSH1 0x0 PUSH2 0xAF4 PUSH1 0x3A DUP4 PUSH2 0xC73 JUMP JUMPDEST SWAP2 POP PUSH2 0xAFF DUP3 PUSH2 0xDB7 JUMP JUMPDEST PUSH1 0x40 DUP3 ADD SWAP1 POP SWAP2 SWAP1 POP JUMP JUMPDEST PUSH1 0x0 PUSH2 0xB17 PUSH1 0x1D DUP4 PUSH2 0xC73 JUMP JUMPDEST SWAP2 POP PUSH2 0xB22 DUP3 PUSH2 0xE06 JUMP JUMPDEST PUSH1 0x20 DUP3 ADD SWAP1 POP SWAP2 SWAP1 POP JUMP JUMPDEST PUSH1 0x0 PUSH2 0xB3A PUSH1 0x20 DUP4 PUSH2 0xC73 JUMP JUMPDEST SWAP2 POP PUSH2 0xB45 DUP3 PUSH2 0xE2F JUMP JUMPDEST PUSH1 0x20 DUP3 ADD SWAP1 POP SWAP2 SWAP1 POP JUMP JUMPDEST PUSH1 0x0 PUSH2 0xB5D PUSH1 0x0 DUP4 PUSH2 0xC68 JUMP JUMPDEST SWAP2 POP PUSH2 0xB68 DUP3 PUSH2 0xE58 JUMP JUMPDEST PUSH1 0x0 DUP3 ADD SWAP1 POP SWAP2 SWAP1 POP JUMP JUMPDEST PUSH2 0xB7C DUP2 PUSH2 0xD2A JUMP JUMPDEST DUP3 MSTORE POP POP JUMP JUMPDEST PUSH1 0x0 PUSH2 0xB8D DUP3 PUSH2 0xB50 JUMP JUMPDEST SWAP2 POP DUP2 SWAP1 POP SWAP2 SWAP1 POP JUMP JUMPDEST PUSH1 0x0 PUSH1 0x20 DUP3 ADD SWAP1 POP PUSH2 0xBAC PUSH1 0x0 DUP4 ADD DUP5 PUSH2 0xAA6 JUMP JUMPDEST SWAP3 SWAP2 POP POP JUMP JUMPDEST PUSH1 0x0 PUSH1 0x20 DUP3 ADD SWAP1 POP PUSH2 0xBC7 PUSH1 0x0 DUP4 ADD DUP5 PUSH2 0xAB5 JUMP JUMPDEST SWAP3 SWAP2 POP POP JUMP JUMPDEST PUSH1 0x0 PUSH1 0x20 DUP3 ADD SWAP1 POP DUP2 DUP2 SUB PUSH1 0x0 DUP4 ADD MSTORE PUSH2 0xBE6 DUP2 PUSH2 0xAC4 JUMP JUMPDEST SWAP1 POP SWAP2 SWAP1 POP JUMP JUMPDEST PUSH1 0x0 PUSH1 0x20 DUP3 ADD SWAP1 POP DUP2 DUP2 SUB PUSH1 0x0 DUP4 ADD MSTORE PUSH2 0xC06 DUP2 PUSH2 0xAE7 JUMP JUMPDEST SWAP1 POP SWAP2 SWAP1 POP JUMP JUMPDEST PUSH1 0x0 PUSH1 0x20 DUP3 ADD SWAP1 POP DUP2 DUP2 SUB PUSH1 0x0 DUP4 ADD MSTORE PUSH2 0xC26 DUP2 PUSH2 0xB0A JUMP JUMPDEST SWAP1 POP SWAP2 SWAP1 POP JUMP JUMPDEST PUSH1 0x0 PUSH1 0x20 DUP3 ADD SWAP1 POP DUP2 DUP2 SUB PUSH1 0x0 DUP4 ADD MSTORE PUSH2 0xC46 DUP2 PUSH2 0xB2D JUMP JUMPDEST SWAP1 POP SWAP2 SWAP1 POP JUMP JUMPDEST PUSH1 0x0 PUSH1 0x20 DUP3 ADD SWAP1 POP PUSH2 0xC62 PUSH1 0x0 DUP4 ADD DUP5 PUSH2 0xB73 JUMP JUMPDEST SWAP3 SWAP2 POP POP JUMP JUMPDEST PUSH1 0x0 DUP2 SWAP1 POP SWAP3 SWAP2 POP POP JUMP JUMPDEST PUSH1 0x0 DUP3 DUP3 MSTORE PUSH1 0x20 DUP3 ADD SWAP1 POP SWAP3 SWAP2 POP POP JUMP JUMPDEST PUSH1 0x0 PUSH2 0xC8F DUP3 PUSH2 0xD2A JUMP JUMPDEST SWAP2 POP PUSH2 0xC9A DUP4 PUSH2 0xD2A JUMP JUMPDEST SWAP3 POP DUP3 PUSH32 0xFFFFFFFFFFFFFFFFFFFFFFFFFFFFFFFFFFFFFFFFFFFFFFFFFFFFFFFFFFFFFFFF SUB DUP3 GT ISZERO PUSH2 0xCCF JUMPI PUSH2 0xCCE PUSH2 0xD34 JUMP JUMPDEST JUMPDEST DUP3 DUP3 ADD SWAP1 POP SWAP3 SWAP2 POP POP JUMP JUMPDEST PUSH1 0x0 PUSH2 0xCE5 DUP3 PUSH2 0xD0A JUMP JUMPDEST SWAP1 POP SWAP2 SWAP1 POP JUMP JUMPDEST PUSH1 0x0 PUSH2 0xCF7 DUP3 PUSH2 0xD0A JUMP JUMPDEST SWAP1 POP SWAP2 SWAP1 POP JUMP JUMPDEST PUSH1 0x0 DUP2 ISZERO ISZERO SWAP1 POP SWAP2 SWAP1 POP JUMP JUMPDEST PUSH1 0x0 PUSH20 0xFFFFFFFFFFFFFFFFFFFFFFFFFFFFFFFFFFFFFFFF DUP3 AND SWAP1 POP SWAP2 SWAP1 POP JUMP JUMPDEST PUSH1 0x0 DUP2 SWAP1 POP SWAP2 SWAP1 POP JUMP JUMPDEST PUSH32 0x4E487B7100000000000000000000000000000000000000000000000000000000 PUSH1 0x0 MSTORE PUSH1 0x11 PUSH1 0x4 MSTORE PUSH1 0x24 PUSH1 0x0 REVERT JUMPDEST PUSH1 0x0 DUP1 REVERT JUMPDEST PUSH32 0x4F776E61626C653A206E6577206F776E657220697320746865207A65726F2061 PUSH1 0x0 DUP3 ADD MSTORE PUSH32 0x6464726573730000000000000000000000000000000000000000000000000000 PUSH1 0x20 DUP3 ADD MSTORE POP JUMP JUMPDEST PUSH32 0x416464726573733A20756E61626C6520746F2073656E642076616C75652C2072 PUSH1 0x0 DUP3 ADD MSTORE PUSH32 0x6563697069656E74206D61792068617665207265766572746564000000000000 PUSH1 0x20 DUP3 ADD MSTORE POP JUMP JUMPDEST PUSH32 0x416464726573733A20696E73756666696369656E742062616C616E6365000000 PUSH1 0x0 DUP3 ADD MSTORE POP JUMP JUMPDEST PUSH32 0x4F776E61626C653A2063616C6C6572206973206E6F7420746865206F776E6572 PUSH1 0x0 DUP3 ADD MSTORE POP JUMP JUMPDEST POP JUMP JUMPDEST PUSH2 0xE64 DUP2 PUSH2 0xCDA JUMP JUMPDEST DUP2 EQ PUSH2 0xE6F JUMPI PUSH1 0x0 DUP1 REVERT JUMPDEST POP JUMP JUMPDEST PUSH2 0xE7B DUP2 PUSH2 0xCEC JUMP JUMPDEST DUP2 EQ PUSH2 0xE86 JUMPI PUSH1 0x0 DUP1 REVERT JUMPDEST POP JUMP JUMPDEST PUSH2 0xE92 DUP2 PUSH2 0xCFE JUMP JUMPDEST DUP2 EQ PUSH2 0xE9D JUMPI PUSH1 0x0 DUP1 REVERT JUMPDEST POP JUMP JUMPDEST PUSH2 0xEA9 DUP2 PUSH2 0xD2A JUMP JUMPDEST DUP2 EQ PUSH2 0xEB4 JUMPI PUSH1 0x0 DUP1 REVERT JUMPDEST POP JUMP INVALID LOG2 PUSH5 0x6970667358 0x22 SLT KECCAK256 0x22 MULMOD 0xB5 0xF7 DIFFICULTY SWAP13 SWAP3 0xAA SUB 0xFC 0x4C 0x1E 0x4E PUSH26 0x5A39A10BB8B3B7FB450D8FB74771D3E072A564736F6C63430008 SMOD STOP CALLER "
				},
				"gasEstimates": {
					"creation": {
						"codeDepositCost": "764200",
						"executionCost": "infinite",
						"totalCost": "infinite"
					},
					"external": {
						"admin()": "2580",
						"adminResolutionStatus(bool,uint256)": "47083",
						"client()": "2515",
						"contractor()": "2624",
						"deposit(address,address)": "infinite",
						"owner()": "2633",
						"renounceOwnership()": "30487",
						"taskCompletionStatus(bool)": "24702",
						"taskValidationStatus(bool)": "24729",
						"transferOwnership(address)": "30791",
						"withdraw(address)": "infinite",
						"withdrawalAllowed()": "7003"
					}
				},
				"methodIdentifiers": {
					"admin()": "f851a440",
					"adminResolutionStatus(bool,uint256)": "5e32c425",
					"client()": "109e94cf",
					"contractor()": "fbfd2045",
					"deposit(address,address)": "f9609f08",
					"owner()": "8da5cb5b",
					"renounceOwnership()": "715018a6",
					"taskCompletionStatus(bool)": "251d8cd5",
					"taskValidationStatus(bool)": "9464c8b8",
					"transferOwnership(address)": "f2fde38b",
					"withdraw(address)": "51cff8d9",
					"withdrawalAllowed()": "a1d19361"
				}
			},
			"storageLayout": {
				"storage": [
					{
						"astId": 7,
						"contract": "contracts/Escrow.sol:Escrow",
						"label": "_owner",
						"offset": 0,
						"slot": "0",
						"type": "t_address"
					},
					{
						"astId": 446,
						"contract": "contracts/Escrow.sol:Escrow",
						"label": "contractor",
						"offset": 0,
						"slot": "1",
						"type": "t_address"
					},
					{
						"astId": 448,
						"contract": "contracts/Escrow.sol:Escrow",
						"label": "client",
						"offset": 0,
						"slot": "2",
						"type": "t_address"
					},
					{
						"astId": 450,
						"contract": "contracts/Escrow.sol:Escrow",
						"label": "admin",
						"offset": 0,
						"slot": "3",
						"type": "t_address"
					},
					{
						"astId": 454,
						"contract": "contracts/Escrow.sol:Escrow",
						"label": "_deposits",
						"offset": 0,
						"slot": "4",
						"type": "t_mapping(t_address,t_uint256)"
					},
					{
						"astId": 495,
						"contract": "contracts/Escrow.sol:Escrow",
						"label": "taskCompleted",
						"offset": 0,
						"slot": "5",
						"type": "t_bool"
					},
					{
						"astId": 497,
						"contract": "contracts/Escrow.sol:Escrow",
						"label": "taskValidated",
						"offset": 1,
						"slot": "5",
						"type": "t_bool"
					},
					{
						"astId": 499,
						"contract": "contracts/Escrow.sol:Escrow",
						"label": "adminResolution",
						"offset": 2,
						"slot": "5",
						"type": "t_bool"
					},
					{
						"astId": 501,
						"contract": "contracts/Escrow.sol:Escrow",
						"label": "adminDecision",
						"offset": 0,
						"slot": "6",
						"type": "t_uint256"
					}
				],
				"types": {
					"t_address": {
						"encoding": "inplace",
						"label": "address",
						"numberOfBytes": "20"
					},
					"t_bool": {
						"encoding": "inplace",
						"label": "bool",
						"numberOfBytes": "1"
					},
					"t_mapping(t_address,t_uint256)": {
						"encoding": "mapping",
						"key": "t_address",
						"label": "mapping(address => uint256)",
						"numberOfBytes": "32",
						"value": "t_uint256"
					},
					"t_uint256": {
						"encoding": "inplace",
						"label": "uint256",
						"numberOfBytes": "32"
					}
				}
			},
			"userdoc": {
				"kind": "user",
				"methods": {},
				"version": 1
			}
		}
	}
}