{
	"contracts/Escrow.sol": {
		"Escrow": {
			"abi": [
				{
					"anonymous": false,
					"inputs": [
						{
							"indexed": true,
							"internalType": "address",
							"name": "adminAddress",
							"type": "address"
						}
					],
					"name": "AdminAdded",
					"type": "event"
				},
				{
					"anonymous": false,
					"inputs": [
						{
							"indexed": true,
							"internalType": "address",
							"name": "clientAddress",
							"type": "address"
						}
					],
					"name": "ClientAdded",
					"type": "event"
				},
				{
					"anonymous": false,
					"inputs": [
						{
							"indexed": true,
							"internalType": "address",
							"name": "contractorAddress",
							"type": "address"
						}
					],
					"name": "ContractorAdded",
					"type": "event"
				},
				{
					"anonymous": false,
					"inputs": [
						{
							"indexed": false,
							"internalType": "uint256",
							"name": "weiAmount",
							"type": "uint256"
						}
					],
					"name": "Deposited",
					"type": "event"
				},
				{
					"anonymous": false,
					"inputs": [
						{
							"indexed": true,
							"internalType": "address",
							"name": "previousOwner",
							"type": "address"
						},
						{
							"indexed": true,
							"internalType": "address",
							"name": "newOwner",
							"type": "address"
						}
					],
					"name": "OwnershipTransferred",
					"type": "event"
				},
				{
					"inputs": [
						{
							"internalType": "address payable",
							"name": "adminAddress",
							"type": "address"
						}
					],
					"name": "addAdmin",
					"outputs": [],
					"stateMutability": "nonpayable",
					"type": "function"
				},
				{
					"inputs": [
						{
							"internalType": "address payable",
							"name": "clientAddress",
							"type": "address"
						}
					],
					"name": "addClient",
					"outputs": [],
					"stateMutability": "nonpayable",
					"type": "function"
				},
				{
					"inputs": [
						{
							"internalType": "address payable",
							"name": "contractorAddress",
							"type": "address"
						}
					],
					"name": "addContractor",
					"outputs": [],
					"stateMutability": "nonpayable",
					"type": "function"
				},
				{
					"inputs": [
						{
							"internalType": "bool",
							"name": "inputAdminResolution",
							"type": "bool"
						},
						{
							"internalType": "bool",
							"name": "inputAdminDecision",
							"type": "bool"
						}
					],
					"name": "adminResolutionStatus",
					"outputs": [],
					"stateMutability": "nonpayable",
					"type": "function"
				},
				{
					"inputs": [],
					"name": "deposit",
					"outputs": [],
					"stateMutability": "payable",
					"type": "function"
				},
				{
					"inputs": [],
					"name": "owner",
					"outputs": [
						{
							"internalType": "address",
							"name": "",
							"type": "address"
						}
					],
					"stateMutability": "view",
					"type": "function"
				},
				{
					"inputs": [],
					"name": "renounceOwnership",
					"outputs": [],
					"stateMutability": "nonpayable",
					"type": "function"
				},
				{
					"inputs": [
						{
							"internalType": "bool",
							"name": "inputTaskCompleted",
							"type": "bool"
						}
					],
					"name": "taskCompletionStatus",
					"outputs": [],
					"stateMutability": "nonpayable",
					"type": "function"
				},
				{
					"inputs": [
						{
							"internalType": "bool",
							"name": "inputTaskValidated",
							"type": "bool"
						}
					],
					"name": "taskValidationStatus",
					"outputs": [],
					"stateMutability": "nonpayable",
					"type": "function"
				},
				{
					"inputs": [
						{
							"internalType": "address",
							"name": "newOwner",
							"type": "address"
						}
					],
					"name": "transferOwnership",
					"outputs": [],
					"stateMutability": "nonpayable",
					"type": "function"
				}
			],
			"devdoc": {
				"kind": "dev",
				"methods": {
					"owner()": {
						"details": "Returns the address of the current owner."
					},
					"renounceOwnership()": {
						"details": "Leaves the contract without owner. It will not be possible to call `onlyOwner` functions anymore. Can only be called by the current owner. NOTE: Renouncing ownership will leave the contract without an owner, thereby removing any functionality that is only available to the owner."
					},
					"transferOwnership(address)": {
						"details": "Transfers ownership of the contract to a new account (`newOwner`). Can only be called by the current owner."
					}
				},
				"version": 1
			},
			"evm": {
				"assembly": "    /* \"contracts/Escrow.sol\":238:6000  contract Escrow is Ownable {... */\n  mstore(0x40, 0x80)\n  callvalue\n  dup1\n  iszero\n  tag_1\n  jumpi\n  0x00\n  dup1\n  revert\ntag_1:\n  pop\n    /* \"@openzeppelin/contracts/access/Ownable.sol\":936:968  _transferOwnership(_msgSender()) */\n  tag_4\n    /* \"@openzeppelin/contracts/access/Ownable.sol\":955:967  _msgSender() */\n  tag_5\n    /* \"@openzeppelin/contracts/access/Ownable.sol\":955:965  _msgSender */\n  shl(0x20, tag_6)\n    /* \"@openzeppelin/contracts/access/Ownable.sol\":955:967  _msgSender() */\n  0x20\n  shr\n  jump\t// in\ntag_5:\n    /* \"@openzeppelin/contracts/access/Ownable.sol\":936:954  _transferOwnership */\n  shl(0x20, tag_7)\n    /* \"@openzeppelin/contracts/access/Ownable.sol\":936:968  _transferOwnership(_msgSender()) */\n  0x20\n  shr\n  jump\t// in\ntag_4:\n    /* \"contracts/Escrow.sol\":238:6000  contract Escrow is Ownable {... */\n  jump(tag_8)\n    /* \"@openzeppelin/contracts/utils/Context.sol\":640:736  function _msgSender() internal view virtual returns (address) {... */\ntag_6:\n    /* \"@openzeppelin/contracts/utils/Context.sol\":693:700  address */\n  0x00\n    /* \"@openzeppelin/contracts/utils/Context.sol\":719:729  msg.sender */\n  caller\n    /* \"@openzeppelin/contracts/utils/Context.sol\":712:729  return msg.sender */\n  swap1\n  pop\n    /* \"@openzeppelin/contracts/utils/Context.sol\":640:736  function _msgSender() internal view virtual returns (address) {... */\n  swap1\n  jump\t// out\n    /* \"@openzeppelin/contracts/access/Ownable.sol\":2433:2620  function _transferOwnership(address newOwner) internal virtual {... */\ntag_7:\n    /* \"@openzeppelin/contracts/access/Ownable.sol\":2506:2522  address oldOwner */\n  0x00\n    /* \"@openzeppelin/contracts/access/Ownable.sol\":2525:2531  _owner */\n  dup1\n  0x00\n  swap1\n  sload\n  swap1\n  0x0100\n  exp\n  swap1\n  div\n  0xffffffffffffffffffffffffffffffffffffffff\n  and\n    /* \"@openzeppelin/contracts/access/Ownable.sol\":2506:2531  address oldOwner = _owner */\n  swap1\n  pop\n    /* \"@openzeppelin/contracts/access/Ownable.sol\":2550:2558  newOwner */\n  dup2\n    /* \"@openzeppelin/contracts/access/Ownable.sol\":2541:2547  _owner */\n  0x00\n  dup1\n    /* \"@openzeppelin/contracts/access/Ownable.sol\":2541:2558  _owner = newOwner */\n  0x0100\n  exp\n  dup2\n  sload\n  dup2\n  0xffffffffffffffffffffffffffffffffffffffff\n  mul\n  not\n  and\n  swap1\n  dup4\n  0xffffffffffffffffffffffffffffffffffffffff\n  and\n  mul\n  or\n  swap1\n  sstore\n  pop\n    /* \"@openzeppelin/contracts/access/Ownable.sol\":2604:2612  newOwner */\n  dup2\n    /* \"@openzeppelin/contracts/access/Ownable.sol\":2573:2613  OwnershipTransferred(oldOwner, newOwner) */\n  0xffffffffffffffffffffffffffffffffffffffff\n  and\n    /* \"@openzeppelin/contracts/access/Ownable.sol\":2594:2602  oldOwner */\n  dup2\n    /* \"@openzeppelin/contracts/access/Ownable.sol\":2573:2613  OwnershipTransferred(oldOwner, newOwner) */\n  0xffffffffffffffffffffffffffffffffffffffff\n  and\n  0x8be0079c531659141344cd1fd0a4f28419497f9722a3daafe3b4186f6b6457e0\n  mload(0x40)\n  mload(0x40)\n  dup1\n  swap2\n  sub\n  swap1\n  log3\n    /* \"@openzeppelin/contracts/access/Ownable.sol\":2496:2620  {... */\n  pop\n    /* \"@openzeppelin/contracts/access/Ownable.sol\":2433:2620  function _transferOwnership(address newOwner) internal virtual {... */\n  pop\n  jump\t// out\n    /* \"contracts/Escrow.sol\":238:6000  contract Escrow is Ownable {... */\ntag_8:\n  dataSize(sub_0)\n  dup1\n  dataOffset(sub_0)\n  0x00\n  codecopy\n  0x00\n  return\nstop\n\nsub_0: assembly {\n        /* \"contracts/Escrow.sol\":238:6000  contract Escrow is Ownable {... */\n      mstore(0x40, 0x80)\n      jumpi(tag_1, lt(calldatasize, 0x04))\n      shr(0xe0, calldataload(0x00))\n      dup1\n      0x761768b6\n      gt\n      tag_12\n      jumpi\n      dup1\n      0x761768b6\n      eq\n      tag_7\n      jumpi\n      dup1\n      0x8da5cb5b\n      eq\n      tag_8\n      jumpi\n      dup1\n      0x9464c8b8\n      eq\n      tag_9\n      jumpi\n      dup1\n      0xd0e30db0\n      eq\n      tag_10\n      jumpi\n      dup1\n      0xf2fde38b\n      eq\n      tag_11\n      jumpi\n      jump(tag_1)\n    tag_12:\n      dup1\n      0x11571f30\n      eq\n      tag_2\n      jumpi\n      dup1\n      0x251d8cd5\n      eq\n      tag_3\n      jumpi\n      dup1\n      0x43928cfd\n      eq\n      tag_4\n      jumpi\n      dup1\n      0x70480275\n      eq\n      tag_5\n      jumpi\n      dup1\n      0x715018a6\n      eq\n      tag_6\n      jumpi\n    tag_1:\n      0x00\n      dup1\n      revert\n        /* \"contracts/Escrow.sol\":4115:4333  function adminResolutionStatus(bool inputAdminResolution, bool inputAdminDecision) public onlyAdmin{... */\n    tag_2:\n      callvalue\n      dup1\n      iszero\n      tag_13\n      jumpi\n      0x00\n      dup1\n      revert\n    tag_13:\n      pop\n      tag_14\n      0x04\n      dup1\n      calldatasize\n      sub\n      dup2\n      add\n      swap1\n      tag_15\n      swap2\n      swap1\n      tag_16\n      jump\t// in\n    tag_15:\n      tag_17\n      jump\t// in\n    tag_14:\n      stop\n        /* \"contracts/Escrow.sol\":4544:4668  function taskCompletionStatus(bool inputTaskCompleted) public onlyContractor {... */\n    tag_3:\n      callvalue\n      dup1\n      iszero\n      tag_18\n      jumpi\n      0x00\n      dup1\n      revert\n    tag_18:\n      pop\n      tag_19\n      0x04\n      dup1\n      calldatasize\n      sub\n      dup2\n      add\n      swap1\n      tag_20\n      swap2\n      swap1\n      tag_21\n      jump\t// in\n    tag_20:\n      tag_22\n      jump\t// in\n    tag_19:\n      stop\n        /* \"contracts/Escrow.sol\":3250:3396  function addClient(address payable clientAddress) public onlyOwner{... */\n    tag_4:\n      callvalue\n      dup1\n      iszero\n      tag_23\n      jumpi\n      0x00\n      dup1\n      revert\n    tag_23:\n      pop\n      tag_24\n      0x04\n      dup1\n      calldatasize\n      sub\n      dup2\n      add\n      swap1\n      tag_25\n      swap2\n      swap1\n      tag_26\n      jump\t// in\n    tag_25:\n      tag_27\n      jump\t// in\n    tag_24:\n      stop\n        /* \"contracts/Escrow.sol\":2835:2966  function addAdmin(address payable adminAddress) public {... */\n    tag_5:\n      callvalue\n      dup1\n      iszero\n      tag_28\n      jumpi\n      0x00\n      dup1\n      revert\n    tag_28:\n      pop\n      tag_29\n      0x04\n      dup1\n      calldatasize\n      sub\n      dup2\n      add\n      swap1\n      tag_30\n      swap2\n      swap1\n      tag_26\n      jump\t// in\n    tag_30:\n      tag_31\n      jump\t// in\n    tag_29:\n      stop\n        /* \"@openzeppelin/contracts/access/Ownable.sol\":1831:1932  function renounceOwnership() public virtual onlyOwner {... */\n    tag_6:\n      callvalue\n      dup1\n      iszero\n      tag_32\n      jumpi\n      0x00\n      dup1\n      revert\n    tag_32:\n      pop\n      tag_33\n      tag_34\n      jump\t// in\n    tag_33:\n      stop\n        /* \"contracts/Escrow.sol\":2261:2551  function addContractor(address payable contractorAddress) public onlyOwner{... */\n    tag_7:\n      callvalue\n      dup1\n      iszero\n      tag_35\n      jumpi\n      0x00\n      dup1\n      revert\n    tag_35:\n      pop\n      tag_36\n      0x04\n      dup1\n      calldatasize\n      sub\n      dup2\n      add\n      swap1\n      tag_37\n      swap2\n      swap1\n      tag_26\n      jump\t// in\n    tag_37:\n      tag_38\n      jump\t// in\n    tag_36:\n      stop\n        /* \"@openzeppelin/contracts/access/Ownable.sol\":1201:1286  function owner() public view virtual returns (address) {... */\n    tag_8:\n      callvalue\n      dup1\n      iszero\n      tag_39\n      jumpi\n      0x00\n      dup1\n      revert\n    tag_39:\n      pop\n      tag_40\n      tag_41\n      jump\t// in\n    tag_40:\n      mload(0x40)\n      tag_42\n      swap2\n      swap1\n      tag_43\n      jump\t// in\n    tag_42:\n      mload(0x40)\n      dup1\n      swap2\n      sub\n      swap1\n      return\n        /* \"contracts/Escrow.sol\":4884:5026  function taskValidationStatus(bool inputTaskValidated) public onlyClient{... */\n    tag_9:\n      callvalue\n      dup1\n      iszero\n      tag_44\n      jumpi\n      0x00\n      dup1\n      revert\n    tag_44:\n      pop\n      tag_45\n      0x04\n      dup1\n      calldatasize\n      sub\n      dup2\n      add\n      swap1\n      tag_46\n      swap2\n      swap1\n      tag_21\n      jump\t// in\n    tag_46:\n      tag_47\n      jump\t// in\n    tag_45:\n      stop\n        /* \"contracts/Escrow.sol\":1957:2077  function deposit() public payable onlyClient {... */\n    tag_10:\n      tag_48\n      tag_49\n      jump\t// in\n    tag_48:\n      stop\n        /* \"@openzeppelin/contracts/access/Ownable.sol\":2081:2279  function transferOwnership(address newOwner) public virtual onlyOwner {... */\n    tag_11:\n      callvalue\n      dup1\n      iszero\n      tag_50\n      jumpi\n      0x00\n      dup1\n      revert\n    tag_50:\n      pop\n      tag_51\n      0x04\n      dup1\n      calldatasize\n      sub\n      dup2\n      add\n      swap1\n      tag_52\n      swap2\n      swap1\n      tag_53\n      jump\t// in\n    tag_52:\n      tag_54\n      jump\t// in\n    tag_51:\n      stop\n        /* \"contracts/Escrow.sol\":4115:4333  function adminResolutionStatus(bool inputAdminResolution, bool inputAdminDecision) public onlyAdmin{... */\n    tag_17:\n        /* \"contracts/Escrow.sol\":1107:1120  _checkAdmin() */\n      tag_56\n        /* \"contracts/Escrow.sol\":1107:1118  _checkAdmin */\n      tag_57\n        /* \"contracts/Escrow.sol\":1107:1120  _checkAdmin() */\n      jump\t// in\n    tag_56:\n        /* \"contracts/Escrow.sol\":4238:4258  inputAdminResolution */\n      dup2\n        /* \"contracts/Escrow.sol\":4220:4235  adminResolution */\n      0x06\n      0x02\n        /* \"contracts/Escrow.sol\":4220:4258  adminResolution = inputAdminResolution */\n      0x0100\n      exp\n      dup2\n      sload\n      dup2\n      0xff\n      mul\n      not\n      and\n      swap1\n      dup4\n      iszero\n      iszero\n      mul\n      or\n      swap1\n      sstore\n      pop\n        /* \"contracts/Escrow.sol\":4285:4303  inputAdminDecision */\n      dup1\n        /* \"contracts/Escrow.sol\":4264:4282  adminPayContractor */\n      0x06\n      0x03\n        /* \"contracts/Escrow.sol\":4264:4303  adminPayContractor = inputAdminDecision */\n      0x0100\n      exp\n      dup2\n      sload\n      dup2\n      0xff\n      mul\n      not\n      and\n      swap1\n      dup4\n      iszero\n      iszero\n      mul\n      or\n      swap1\n      sstore\n      pop\n        /* \"contracts/Escrow.sol\":4309:4326  withdrawPayment() */\n      tag_59\n        /* \"contracts/Escrow.sol\":4309:4324  withdrawPayment */\n      tag_60\n        /* \"contracts/Escrow.sol\":4309:4326  withdrawPayment() */\n      jump\t// in\n    tag_59:\n        /* \"contracts/Escrow.sol\":4115:4333  function adminResolutionStatus(bool inputAdminResolution, bool inputAdminDecision) public onlyAdmin{... */\n      pop\n      pop\n      jump\t// out\n        /* \"contracts/Escrow.sol\":4544:4668  function taskCompletionStatus(bool inputTaskCompleted) public onlyContractor {... */\n    tag_22:\n        /* \"contracts/Escrow.sol\":1796:1814  _checkContractor() */\n      tag_62\n        /* \"contracts/Escrow.sol\":1796:1812  _checkContractor */\n      tag_63\n        /* \"contracts/Escrow.sol\":1796:1814  _checkContractor() */\n      jump\t// in\n    tag_62:\n        /* \"contracts/Escrow.sol\":4643:4661  inputTaskCompleted */\n      dup1\n        /* \"contracts/Escrow.sol\":4627:4640  taskCompleted */\n      0x06\n      0x00\n        /* \"contracts/Escrow.sol\":4627:4661  taskCompleted = inputTaskCompleted */\n      0x0100\n      exp\n      dup2\n      sload\n      dup2\n      0xff\n      mul\n      not\n      and\n      swap1\n      dup4\n      iszero\n      iszero\n      mul\n      or\n      swap1\n      sstore\n      pop\n        /* \"contracts/Escrow.sol\":4544:4668  function taskCompletionStatus(bool inputTaskCompleted) public onlyContractor {... */\n      pop\n      jump\t// out\n        /* \"contracts/Escrow.sol\":3250:3396  function addClient(address payable clientAddress) public onlyOwner{... */\n    tag_27:\n        /* \"@openzeppelin/contracts/access/Ownable.sol\":1094:1107  _checkOwner() */\n      tag_66\n        /* \"@openzeppelin/contracts/access/Ownable.sol\":1094:1105  _checkOwner */\n      tag_67\n        /* \"@openzeppelin/contracts/access/Ownable.sol\":1094:1107  _checkOwner() */\n      jump\t// in\n    tag_66:\n        /* \"contracts/Escrow.sol\":3335:3348  clientAddress */\n      dup1\n        /* \"contracts/Escrow.sol\":3326:3332  client */\n      0x02\n      0x00\n        /* \"contracts/Escrow.sol\":3326:3348  client = clientAddress */\n      0x0100\n      exp\n      dup2\n      sload\n      dup2\n      0xffffffffffffffffffffffffffffffffffffffff\n      mul\n      not\n      and\n      swap1\n      dup4\n      0xffffffffffffffffffffffffffffffffffffffff\n      and\n      mul\n      or\n      swap1\n      sstore\n      pop\n        /* \"contracts/Escrow.sol\":3375:3388  clientAddress */\n      dup1\n        /* \"contracts/Escrow.sol\":3363:3389  ClientAdded(clientAddress) */\n      0xffffffffffffffffffffffffffffffffffffffff\n      and\n      0x6c713924da8f1e694559181e3497cb03c970f0f7c023d913207d0410b531741e\n      mload(0x40)\n      mload(0x40)\n      dup1\n      swap2\n      sub\n      swap1\n      log2\n        /* \"contracts/Escrow.sol\":3250:3396  function addClient(address payable clientAddress) public onlyOwner{... */\n      pop\n      jump\t// out\n        /* \"contracts/Escrow.sol\":2835:2966  function addAdmin(address payable adminAddress) public {... */\n    tag_31:\n        /* \"contracts/Escrow.sol\":2908:2920  adminAddress */\n      dup1\n        /* \"contracts/Escrow.sol\":2900:2905  admin */\n      0x03\n      0x00\n        /* \"contracts/Escrow.sol\":2900:2920  admin = adminAddress */\n      0x0100\n      exp\n      dup2\n      sload\n      dup2\n      0xffffffffffffffffffffffffffffffffffffffff\n      mul\n      not\n      and\n      swap1\n      dup4\n      0xffffffffffffffffffffffffffffffffffffffff\n      and\n      mul\n      or\n      swap1\n      sstore\n      pop\n        /* \"contracts/Escrow.sol\":2946:2958  adminAddress */\n      dup1\n        /* \"contracts/Escrow.sol\":2935:2959  AdminAdded(adminAddress) */\n      0xffffffffffffffffffffffffffffffffffffffff\n      and\n      0x44d6d25963f097ad14f29f06854a01f575648a1ef82f30e562ccd3889717e339\n      mload(0x40)\n      mload(0x40)\n      dup1\n      swap2\n      sub\n      swap1\n      log2\n        /* \"contracts/Escrow.sol\":2835:2966  function addAdmin(address payable adminAddress) public {... */\n      pop\n      jump\t// out\n        /* \"@openzeppelin/contracts/access/Ownable.sol\":1831:1932  function renounceOwnership() public virtual onlyOwner {... */\n    tag_34:\n        /* \"@openzeppelin/contracts/access/Ownable.sol\":1094:1107  _checkOwner() */\n      tag_71\n        /* \"@openzeppelin/contracts/access/Ownable.sol\":1094:1105  _checkOwner */\n      tag_67\n        /* \"@openzeppelin/contracts/access/Ownable.sol\":1094:1107  _checkOwner() */\n      jump\t// in\n    tag_71:\n        /* \"@openzeppelin/contracts/access/Ownable.sol\":1895:1925  _transferOwnership(address(0)) */\n      tag_73\n        /* \"@openzeppelin/contracts/access/Ownable.sol\":1922:1923  0 */\n      0x00\n        /* \"@openzeppelin/contracts/access/Ownable.sol\":1895:1913  _transferOwnership */\n      tag_74\n        /* \"@openzeppelin/contracts/access/Ownable.sol\":1895:1925  _transferOwnership(address(0)) */\n      jump\t// in\n    tag_73:\n        /* \"@openzeppelin/contracts/access/Ownable.sol\":1831:1932  function renounceOwnership() public virtual onlyOwner {... */\n      jump\t// out\n        /* \"contracts/Escrow.sol\":2261:2551  function addContractor(address payable contractorAddress) public onlyOwner{... */\n    tag_38:\n        /* \"@openzeppelin/contracts/access/Ownable.sol\":1094:1107  _checkOwner() */\n      tag_76\n        /* \"@openzeppelin/contracts/access/Ownable.sol\":1094:1105  _checkOwner */\n      tag_67\n        /* \"@openzeppelin/contracts/access/Ownable.sol\":1094:1107  _checkOwner() */\n      jump\t// in\n    tag_76:\n        /* \"contracts/Escrow.sol\":2371:2372  1 */\n      0x01\n        /* \"contracts/Escrow.sol\":2353:2368  contractorState */\n      sload(0x05)\n        /* \"contracts/Escrow.sol\":2353:2372  contractorState <=1 */\n      gt\n      iszero\n        /* \"contracts/Escrow.sol\":2345:2425  require(contractorState <=1 , \"Contractor Address cannot be changed once added\") */\n      tag_78\n      jumpi\n      mload(0x40)\n      0x08c379a000000000000000000000000000000000000000000000000000000000\n      dup2\n      mstore\n      0x04\n      add\n      tag_79\n      swap1\n      tag_80\n      jump\t// in\n    tag_79:\n      mload(0x40)\n      dup1\n      swap2\n      sub\n      swap1\n      revert\n    tag_78:\n        /* \"contracts/Escrow.sol\":2448:2465  contractorAddress */\n      dup1\n        /* \"contracts/Escrow.sol\":2435:2445  contractor */\n      0x01\n      0x00\n        /* \"contracts/Escrow.sol\":2435:2465  contractor = contractorAddress */\n      0x0100\n      exp\n      dup2\n      sload\n      dup2\n      0xffffffffffffffffffffffffffffffffffffffff\n      mul\n      not\n      and\n      swap1\n      dup4\n      0xffffffffffffffffffffffffffffffffffffffff\n      and\n      mul\n      or\n      swap1\n      sstore\n      pop\n        /* \"contracts/Escrow.sol\":2494:2495  1 */\n      0x01\n        /* \"contracts/Escrow.sol\":2475:2490  contractorState */\n      0x05\n      0x00\n        /* \"contracts/Escrow.sol\":2475:2495  contractorState += 1 */\n      dup3\n      dup3\n      sload\n      tag_81\n      swap2\n      swap1\n      tag_82\n      jump\t// in\n    tag_81:\n      swap3\n      pop\n      pop\n      dup2\n      swap1\n      sstore\n      pop\n        /* \"contracts/Escrow.sol\":2526:2543  contractorAddress */\n      dup1\n        /* \"contracts/Escrow.sol\":2510:2544  ContractorAdded(contractorAddress) */\n      0xffffffffffffffffffffffffffffffffffffffff\n      and\n      0x29dc23bcd72bfb02ec013f6350778cb6e5908dc02e5e1234385f27e32676b6e1\n      mload(0x40)\n      mload(0x40)\n      dup1\n      swap2\n      sub\n      swap1\n      log2\n        /* \"contracts/Escrow.sol\":2261:2551  function addContractor(address payable contractorAddress) public onlyOwner{... */\n      pop\n      jump\t// out\n        /* \"@openzeppelin/contracts/access/Ownable.sol\":1201:1286  function owner() public view virtual returns (address) {... */\n    tag_41:\n        /* \"@openzeppelin/contracts/access/Ownable.sol\":1247:1254  address */\n      0x00\n        /* \"@openzeppelin/contracts/access/Ownable.sol\":1273:1279  _owner */\n      dup1\n      0x00\n      swap1\n      sload\n      swap1\n      0x0100\n      exp\n      swap1\n      div\n      0xffffffffffffffffffffffffffffffffffffffff\n      and\n        /* \"@openzeppelin/contracts/access/Ownable.sol\":1266:1279  return _owner */\n      swap1\n      pop\n        /* \"@openzeppelin/contracts/access/Ownable.sol\":1201:1286  function owner() public view virtual returns (address) {... */\n      swap1\n      jump\t// out\n        /* \"contracts/Escrow.sol\":4884:5026  function taskValidationStatus(bool inputTaskValidated) public onlyClient{... */\n    tag_47:\n        /* \"contracts/Escrow.sol\":1438:1452  _checkClient() */\n      tag_85\n        /* \"contracts/Escrow.sol\":1438:1450  _checkClient */\n      tag_86\n        /* \"contracts/Escrow.sol\":1438:1452  _checkClient() */\n      jump\t// in\n    tag_85:\n        /* \"contracts/Escrow.sol\":4978:4996  inputTaskValidated */\n      dup1\n        /* \"contracts/Escrow.sol\":4962:4975  taskValidated */\n      0x06\n      0x01\n        /* \"contracts/Escrow.sol\":4962:4996  taskValidated = inputTaskValidated */\n      0x0100\n      exp\n      dup2\n      sload\n      dup2\n      0xff\n      mul\n      not\n      and\n      swap1\n      dup4\n      iszero\n      iszero\n      mul\n      or\n      swap1\n      sstore\n      pop\n        /* \"contracts/Escrow.sol\":5002:5019  withdrawPayment() */\n      tag_88\n        /* \"contracts/Escrow.sol\":5002:5017  withdrawPayment */\n      tag_60\n        /* \"contracts/Escrow.sol\":5002:5019  withdrawPayment() */\n      jump\t// in\n    tag_88:\n        /* \"contracts/Escrow.sol\":4884:5026  function taskValidationStatus(bool inputTaskValidated) public onlyClient{... */\n      pop\n      jump\t// out\n        /* \"contracts/Escrow.sol\":1957:2077  function deposit() public payable onlyClient {... */\n    tag_49:\n        /* \"contracts/Escrow.sol\":1438:1452  _checkClient() */\n      tag_90\n        /* \"contracts/Escrow.sol\":1438:1450  _checkClient */\n      tag_86\n        /* \"contracts/Escrow.sol\":1438:1452  _checkClient() */\n      jump\t// in\n    tag_90:\n        /* \"contracts/Escrow.sol\":2012:2026  uint256 amount */\n      0x00\n        /* \"contracts/Escrow.sol\":2029:2038  msg.value */\n      callvalue\n        /* \"contracts/Escrow.sol\":2012:2038  uint256 amount = msg.value */\n      swap1\n      pop\n        /* \"contracts/Escrow.sol\":2053:2070  Deposited(amount) */\n      0x2a89b2e3d580398d6dc2db5e0f336b52602bbaa51afa9bb5cdf59239cf0d2bea\n        /* \"contracts/Escrow.sol\":2063:2069  amount */\n      dup2\n        /* \"contracts/Escrow.sol\":2053:2070  Deposited(amount) */\n      mload(0x40)\n      tag_92\n      swap2\n      swap1\n      tag_93\n      jump\t// in\n    tag_92:\n      mload(0x40)\n      dup1\n      swap2\n      sub\n      swap1\n      log1\n        /* \"contracts/Escrow.sol\":2002:2077  {... */\n      pop\n        /* \"contracts/Escrow.sol\":1957:2077  function deposit() public payable onlyClient {... */\n      jump\t// out\n        /* \"@openzeppelin/contracts/access/Ownable.sol\":2081:2279  function transferOwnership(address newOwner) public virtual onlyOwner {... */\n    tag_54:\n        /* \"@openzeppelin/contracts/access/Ownable.sol\":1094:1107  _checkOwner() */\n      tag_95\n        /* \"@openzeppelin/contracts/access/Ownable.sol\":1094:1105  _checkOwner */\n      tag_67\n        /* \"@openzeppelin/contracts/access/Ownable.sol\":1094:1107  _checkOwner() */\n      jump\t// in\n    tag_95:\n        /* \"@openzeppelin/contracts/access/Ownable.sol\":2189:2190  0 */\n      0x00\n        /* \"@openzeppelin/contracts/access/Ownable.sol\":2169:2191  newOwner != address(0) */\n      0xffffffffffffffffffffffffffffffffffffffff\n      and\n        /* \"@openzeppelin/contracts/access/Ownable.sol\":2169:2177  newOwner */\n      dup2\n        /* \"@openzeppelin/contracts/access/Ownable.sol\":2169:2191  newOwner != address(0) */\n      0xffffffffffffffffffffffffffffffffffffffff\n      and\n      eq\n      iszero\n        /* \"@openzeppelin/contracts/access/Ownable.sol\":2161:2234  require(newOwner != address(0), \"Ownable: new owner is the zero address\") */\n      tag_97\n      jumpi\n      mload(0x40)\n      0x08c379a000000000000000000000000000000000000000000000000000000000\n      dup2\n      mstore\n      0x04\n      add\n      tag_98\n      swap1\n      tag_99\n      jump\t// in\n    tag_98:\n      mload(0x40)\n      dup1\n      swap2\n      sub\n      swap1\n      revert\n    tag_97:\n        /* \"@openzeppelin/contracts/access/Ownable.sol\":2244:2272  _transferOwnership(newOwner) */\n      tag_100\n        /* \"@openzeppelin/contracts/access/Ownable.sol\":2263:2271  newOwner */\n      dup2\n        /* \"@openzeppelin/contracts/access/Ownable.sol\":2244:2262  _transferOwnership */\n      tag_74\n        /* \"@openzeppelin/contracts/access/Ownable.sol\":2244:2272  _transferOwnership(newOwner) */\n      jump\t// in\n    tag_100:\n        /* \"@openzeppelin/contracts/access/Ownable.sol\":2081:2279  function transferOwnership(address newOwner) public virtual onlyOwner {... */\n      pop\n      jump\t// out\n        /* \"contracts/Escrow.sol\":959:1068  function _checkAdmin() internal view {... */\n    tag_57:\n        /* \"contracts/Escrow.sol\":1028:1033  admin */\n      0x03\n      0x00\n      swap1\n      sload\n      swap1\n      0x0100\n      exp\n      swap1\n      div\n      0xffffffffffffffffffffffffffffffffffffffff\n      and\n        /* \"contracts/Escrow.sol\":1014:1033  msg.sender == admin */\n      0xffffffffffffffffffffffffffffffffffffffff\n      and\n        /* \"contracts/Escrow.sol\":1014:1024  msg.sender */\n      caller\n        /* \"contracts/Escrow.sol\":1014:1033  msg.sender == admin */\n      0xffffffffffffffffffffffffffffffffffffffff\n      and\n      eq\n        /* \"contracts/Escrow.sol\":1006:1061  require(msg.sender == admin, \"caller is not the admin\") */\n      tag_102\n      jumpi\n      mload(0x40)\n      0x08c379a000000000000000000000000000000000000000000000000000000000\n      dup2\n      mstore\n      0x04\n      add\n      tag_103\n      swap1\n      tag_104\n      jump\t// in\n    tag_103:\n      mload(0x40)\n      dup1\n      swap2\n      sub\n      swap1\n      revert\n    tag_102:\n        /* \"contracts/Escrow.sol\":959:1068  function _checkAdmin() internal view {... */\n      jump\t// out\n        /* \"contracts/Escrow.sol\":5314:5997  function withdrawPayment() private{... */\n    tag_60:\n        /* \"contracts/Escrow.sol\":5354:5376  uint256 balancePayment */\n      0x00\n        /* \"contracts/Escrow.sol\":5379:5400  address(this).balance */\n      selfbalance\n        /* \"contracts/Escrow.sol\":5354:5400  uint256 balancePayment = address(this).balance */\n      swap1\n      pop\n        /* \"contracts/Escrow.sol\":5406:5426  uint256 adminPayment */\n      0x00\n        /* \"contracts/Escrow.sol\":5450:5453  100 */\n      0x64\n        /* \"contracts/Escrow.sol\":5447:5448  2 */\n      0x02\n        /* \"contracts/Escrow.sol\":5430:5444  balancePayment */\n      dup4\n        /* \"contracts/Escrow.sol\":5430:5448  balancePayment * 2 */\n      tag_106\n      swap2\n      swap1\n      tag_107\n      jump\t// in\n    tag_106:\n        /* \"contracts/Escrow.sol\":5429:5453  (balancePayment * 2)/100 */\n      tag_108\n      swap2\n      swap1\n      tag_109\n      jump\t// in\n    tag_108:\n        /* \"contracts/Escrow.sol\":5406:5453  uint256 adminPayment = (balancePayment * 2)/100 */\n      swap1\n      pop\n        /* \"contracts/Escrow.sol\":5539:5551  adminPayment */\n      dup1\n        /* \"contracts/Escrow.sol\":5521:5551  balancePayment -= adminPayment */\n      dup3\n      tag_110\n      swap2\n      swap1\n      tag_111\n      jump\t// in\n    tag_110:\n      swap2\n      pop\n        /* \"contracts/Escrow.sol\":5621:5625  true */\n      0x01\n        /* \"contracts/Escrow.sol\":5604:5625  taskCompleted == true */\n      iszero\n      iszero\n        /* \"contracts/Escrow.sol\":5604:5617  taskCompleted */\n      0x06\n      0x00\n      swap1\n      sload\n      swap1\n      0x0100\n      exp\n      swap1\n      div\n      0xff\n      and\n        /* \"contracts/Escrow.sol\":5604:5625  taskCompleted == true */\n      iszero\n      iszero\n      eq\n        /* \"contracts/Escrow.sol\":5604:5650  taskCompleted == true && taskValidated == true */\n      dup1\n      iszero\n      tag_112\n      jumpi\n      pop\n        /* \"contracts/Escrow.sol\":5646:5650  true */\n      0x01\n        /* \"contracts/Escrow.sol\":5629:5650  taskValidated == true */\n      iszero\n      iszero\n        /* \"contracts/Escrow.sol\":5629:5642  taskValidated */\n      0x06\n      0x01\n      swap1\n      sload\n      swap1\n      0x0100\n      exp\n      swap1\n      div\n      0xff\n      and\n        /* \"contracts/Escrow.sol\":5629:5650  taskValidated == true */\n      iszero\n      iszero\n      eq\n        /* \"contracts/Escrow.sol\":5604:5650  taskCompleted == true && taskValidated == true */\n    tag_112:\n        /* \"contracts/Escrow.sol\":5603:5708  (taskCompleted == true && taskValidated == true)||(adminResolution == true && adminPayContractor == true) */\n      dup1\n      tag_113\n      jumpi\n      pop\n        /* \"contracts/Escrow.sol\":5673:5677  true */\n      0x01\n        /* \"contracts/Escrow.sol\":5654:5677  adminResolution == true */\n      iszero\n      iszero\n        /* \"contracts/Escrow.sol\":5654:5669  adminResolution */\n      0x06\n      0x02\n      swap1\n      sload\n      swap1\n      0x0100\n      exp\n      swap1\n      div\n      0xff\n      and\n        /* \"contracts/Escrow.sol\":5654:5677  adminResolution == true */\n      iszero\n      iszero\n      eq\n        /* \"contracts/Escrow.sol\":5654:5707  adminResolution == true && adminPayContractor == true */\n      dup1\n      iszero\n      tag_114\n      jumpi\n      pop\n        /* \"contracts/Escrow.sol\":5703:5707  true */\n      0x01\n        /* \"contracts/Escrow.sol\":5681:5707  adminPayContractor == true */\n      iszero\n      iszero\n        /* \"contracts/Escrow.sol\":5681:5699  adminPayContractor */\n      0x06\n      0x03\n      swap1\n      sload\n      swap1\n      0x0100\n      exp\n      swap1\n      div\n      0xff\n      and\n        /* \"contracts/Escrow.sol\":5681:5707  adminPayContractor == true */\n      iszero\n      iszero\n      eq\n        /* \"contracts/Escrow.sol\":5654:5707  adminResolution == true && adminPayContractor == true */\n    tag_114:\n        /* \"contracts/Escrow.sol\":5603:5708  (taskCompleted == true && taskValidated == true)||(adminResolution == true && adminPayContractor == true) */\n    tag_113:\n        /* \"contracts/Escrow.sol\":5600:5990  if((taskCompleted == true && taskValidated == true)||(adminResolution == true && adminPayContractor == true)){... */\n      iszero\n      tag_115\n      jumpi\n        /* \"contracts/Escrow.sol\":5723:5759  contractor.sendValue(balancePayment) */\n      tag_116\n        /* \"contracts/Escrow.sol\":5744:5758  balancePayment */\n      dup3\n        /* \"contracts/Escrow.sol\":5723:5733  contractor */\n      0x01\n      0x00\n      swap1\n      sload\n      swap1\n      0x0100\n      exp\n      swap1\n      div\n      0xffffffffffffffffffffffffffffffffffffffff\n      and\n        /* \"contracts/Escrow.sol\":5723:5743  contractor.sendValue */\n      0xffffffffffffffffffffffffffffffffffffffff\n      and\n      tag_117\n      swap1\n        /* \"contracts/Escrow.sol\":5723:5759  contractor.sendValue(balancePayment) */\n      swap2\n      swap1\n      0xffffffff\n      and\n      jump\t// in\n    tag_116:\n        /* \"contracts/Escrow.sol\":5773:5802  admin.sendValue(adminPayment) */\n      tag_118\n        /* \"contracts/Escrow.sol\":5789:5801  adminPayment */\n      dup2\n        /* \"contracts/Escrow.sol\":5773:5778  admin */\n      0x03\n      0x00\n      swap1\n      sload\n      swap1\n      0x0100\n      exp\n      swap1\n      div\n      0xffffffffffffffffffffffffffffffffffffffff\n      and\n        /* \"contracts/Escrow.sol\":5773:5788  admin.sendValue */\n      0xffffffffffffffffffffffffffffffffffffffff\n      and\n      tag_117\n      swap1\n        /* \"contracts/Escrow.sol\":5773:5802  admin.sendValue(adminPayment) */\n      swap2\n      swap1\n      0xffffffff\n      and\n      jump\t// in\n    tag_118:\n        /* \"contracts/Escrow.sol\":5600:5990  if((taskCompleted == true && taskValidated == true)||(adminResolution == true && adminPayContractor == true)){... */\n      jump(tag_119)\n    tag_115:\n        /* \"contracts/Escrow.sol\":5849:5853  true */\n      0x01\n        /* \"contracts/Escrow.sol\":5830:5853  adminResolution == true */\n      iszero\n      iszero\n        /* \"contracts/Escrow.sol\":5830:5845  adminResolution */\n      0x06\n      0x02\n      swap1\n      sload\n      swap1\n      0x0100\n      exp\n      swap1\n      div\n      0xff\n      and\n        /* \"contracts/Escrow.sol\":5830:5853  adminResolution == true */\n      iszero\n      iszero\n      eq\n        /* \"contracts/Escrow.sol\":5830:5884  adminResolution == true && adminPayContractor == false */\n      dup1\n      iszero\n      tag_120\n      jumpi\n      pop\n        /* \"contracts/Escrow.sol\":5879:5884  false */\n      0x00\n        /* \"contracts/Escrow.sol\":5857:5884  adminPayContractor == false */\n      iszero\n      iszero\n        /* \"contracts/Escrow.sol\":5857:5875  adminPayContractor */\n      0x06\n      0x03\n      swap1\n      sload\n      swap1\n      0x0100\n      exp\n      swap1\n      div\n      0xff\n      and\n        /* \"contracts/Escrow.sol\":5857:5884  adminPayContractor == false */\n      iszero\n      iszero\n      eq\n        /* \"contracts/Escrow.sol\":5830:5884  adminResolution == true && adminPayContractor == false */\n    tag_120:\n        /* \"contracts/Escrow.sol\":5827:5990  if(adminResolution == true && adminPayContractor == false){... */\n      iszero\n      tag_121\n      jumpi\n        /* \"contracts/Escrow.sol\":5899:5931  client.sendValue(balancePayment) */\n      tag_122\n        /* \"contracts/Escrow.sol\":5916:5930  balancePayment */\n      dup3\n        /* \"contracts/Escrow.sol\":5899:5905  client */\n      0x02\n      0x00\n      swap1\n      sload\n      swap1\n      0x0100\n      exp\n      swap1\n      div\n      0xffffffffffffffffffffffffffffffffffffffff\n      and\n        /* \"contracts/Escrow.sol\":5899:5915  client.sendValue */\n      0xffffffffffffffffffffffffffffffffffffffff\n      and\n      tag_117\n      swap1\n        /* \"contracts/Escrow.sol\":5899:5931  client.sendValue(balancePayment) */\n      swap2\n      swap1\n      0xffffffff\n      and\n      jump\t// in\n    tag_122:\n        /* \"contracts/Escrow.sol\":5945:5974  admin.sendValue(adminPayment) */\n      tag_123\n        /* \"contracts/Escrow.sol\":5961:5973  adminPayment */\n      dup2\n        /* \"contracts/Escrow.sol\":5945:5950  admin */\n      0x03\n      0x00\n      swap1\n      sload\n      swap1\n      0x0100\n      exp\n      swap1\n      div\n      0xffffffffffffffffffffffffffffffffffffffff\n      and\n        /* \"contracts/Escrow.sol\":5945:5960  admin.sendValue */\n      0xffffffffffffffffffffffffffffffffffffffff\n      and\n      tag_117\n      swap1\n        /* \"contracts/Escrow.sol\":5945:5974  admin.sendValue(adminPayment) */\n      swap2\n      swap1\n      0xffffffff\n      and\n      jump\t// in\n    tag_123:\n        /* \"contracts/Escrow.sol\":5827:5990  if(adminResolution == true && adminPayContractor == false){... */\n    tag_121:\n        /* \"contracts/Escrow.sol\":5600:5990  if((taskCompleted == true && taskValidated == true)||(adminResolution == true && adminPayContractor == true)){... */\n    tag_119:\n        /* \"contracts/Escrow.sol\":5348:5997  {... */\n      pop\n      pop\n        /* \"contracts/Escrow.sol\":5314:5997  function withdrawPayment() private{... */\n      jump\t// out\n        /* \"contracts/Escrow.sol\":1628:1752  function _checkContractor() internal view {... */\n    tag_63:\n        /* \"contracts/Escrow.sol\":1702:1712  contractor */\n      0x01\n      0x00\n      swap1\n      sload\n      swap1\n      0x0100\n      exp\n      swap1\n      div\n      0xffffffffffffffffffffffffffffffffffffffff\n      and\n        /* \"contracts/Escrow.sol\":1688:1712  msg.sender == contractor */\n      0xffffffffffffffffffffffffffffffffffffffff\n      and\n        /* \"contracts/Escrow.sol\":1688:1698  msg.sender */\n      caller\n        /* \"contracts/Escrow.sol\":1688:1712  msg.sender == contractor */\n      0xffffffffffffffffffffffffffffffffffffffff\n      and\n      eq\n        /* \"contracts/Escrow.sol\":1680:1745  require(msg.sender == contractor, \"caller is not the contractor\") */\n      tag_125\n      jumpi\n      mload(0x40)\n      0x08c379a000000000000000000000000000000000000000000000000000000000\n      dup2\n      mstore\n      0x04\n      add\n      tag_126\n      swap1\n      tag_127\n      jump\t// in\n    tag_126:\n      mload(0x40)\n      dup1\n      swap2\n      sub\n      swap1\n      revert\n    tag_125:\n        /* \"contracts/Escrow.sol\":1628:1752  function _checkContractor() internal view {... */\n      jump\t// out\n        /* \"@openzeppelin/contracts/access/Ownable.sol\":1359:1489  function _checkOwner() internal view virtual {... */\n    tag_67:\n        /* \"@openzeppelin/contracts/access/Ownable.sol\":1433:1445  _msgSender() */\n      tag_129\n        /* \"@openzeppelin/contracts/access/Ownable.sol\":1433:1443  _msgSender */\n      tag_130\n        /* \"@openzeppelin/contracts/access/Ownable.sol\":1433:1445  _msgSender() */\n      jump\t// in\n    tag_129:\n        /* \"@openzeppelin/contracts/access/Ownable.sol\":1422:1445  owner() == _msgSender() */\n      0xffffffffffffffffffffffffffffffffffffffff\n      and\n        /* \"@openzeppelin/contracts/access/Ownable.sol\":1422:1429  owner() */\n      tag_131\n        /* \"@openzeppelin/contracts/access/Ownable.sol\":1422:1427  owner */\n      tag_41\n        /* \"@openzeppelin/contracts/access/Ownable.sol\":1422:1429  owner() */\n      jump\t// in\n    tag_131:\n        /* \"@openzeppelin/contracts/access/Ownable.sol\":1422:1445  owner() == _msgSender() */\n      0xffffffffffffffffffffffffffffffffffffffff\n      and\n      eq\n        /* \"@openzeppelin/contracts/access/Ownable.sol\":1414:1482  require(owner() == _msgSender(), \"Ownable: caller is not the owner\") */\n      tag_132\n      jumpi\n      mload(0x40)\n      0x08c379a000000000000000000000000000000000000000000000000000000000\n      dup2\n      mstore\n      0x04\n      add\n      tag_133\n      swap1\n      tag_134\n      jump\t// in\n    tag_133:\n      mload(0x40)\n      dup1\n      swap2\n      sub\n      swap1\n      revert\n    tag_132:\n        /* \"@openzeppelin/contracts/access/Ownable.sol\":1359:1489  function _checkOwner() internal view virtual {... */\n      jump\t// out\n        /* \"@openzeppelin/contracts/access/Ownable.sol\":2433:2620  function _transferOwnership(address newOwner) internal virtual {... */\n    tag_74:\n        /* \"@openzeppelin/contracts/access/Ownable.sol\":2506:2522  address oldOwner */\n      0x00\n        /* \"@openzeppelin/contracts/access/Ownable.sol\":2525:2531  _owner */\n      dup1\n      0x00\n      swap1\n      sload\n      swap1\n      0x0100\n      exp\n      swap1\n      div\n      0xffffffffffffffffffffffffffffffffffffffff\n      and\n        /* \"@openzeppelin/contracts/access/Ownable.sol\":2506:2531  address oldOwner = _owner */\n      swap1\n      pop\n        /* \"@openzeppelin/contracts/access/Ownable.sol\":2550:2558  newOwner */\n      dup2\n        /* \"@openzeppelin/contracts/access/Ownable.sol\":2541:2547  _owner */\n      0x00\n      dup1\n        /* \"@openzeppelin/contracts/access/Ownable.sol\":2541:2558  _owner = newOwner */\n      0x0100\n      exp\n      dup2\n      sload\n      dup2\n      0xffffffffffffffffffffffffffffffffffffffff\n      mul\n      not\n      and\n      swap1\n      dup4\n      0xffffffffffffffffffffffffffffffffffffffff\n      and\n      mul\n      or\n      swap1\n      sstore\n      pop\n        /* \"@openzeppelin/contracts/access/Ownable.sol\":2604:2612  newOwner */\n      dup2\n        /* \"@openzeppelin/contracts/access/Ownable.sol\":2573:2613  OwnershipTransferred(oldOwner, newOwner) */\n      0xffffffffffffffffffffffffffffffffffffffff\n      and\n        /* \"@openzeppelin/contracts/access/Ownable.sol\":2594:2602  oldOwner */\n      dup2\n        /* \"@openzeppelin/contracts/access/Ownable.sol\":2573:2613  OwnershipTransferred(oldOwner, newOwner) */\n      0xffffffffffffffffffffffffffffffffffffffff\n      and\n      0x8be0079c531659141344cd1fd0a4f28419497f9722a3daafe3b4186f6b6457e0\n      mload(0x40)\n      mload(0x40)\n      dup1\n      swap2\n      sub\n      swap1\n      log3\n        /* \"@openzeppelin/contracts/access/Ownable.sol\":2496:2620  {... */\n      pop\n        /* \"@openzeppelin/contracts/access/Ownable.sol\":2433:2620  function _transferOwnership(address newOwner) internal virtual {... */\n      pop\n      jump\t// out\n        /* \"contracts/Escrow.sol\":1286:1398  function _checkClient() internal view {... */\n    tag_86:\n        /* \"contracts/Escrow.sol\":1356:1362  client */\n      0x02\n      0x00\n      swap1\n      sload\n      swap1\n      0x0100\n      exp\n      swap1\n      div\n      0xffffffffffffffffffffffffffffffffffffffff\n      and\n        /* \"contracts/Escrow.sol\":1342:1362  msg.sender == client */\n      0xffffffffffffffffffffffffffffffffffffffff\n      and\n        /* \"contracts/Escrow.sol\":1342:1352  msg.sender */\n      caller\n        /* \"contracts/Escrow.sol\":1342:1362  msg.sender == client */\n      0xffffffffffffffffffffffffffffffffffffffff\n      and\n      eq\n        /* \"contracts/Escrow.sol\":1334:1391  require(msg.sender == client, \"caller is not the client\") */\n      tag_137\n      jumpi\n      mload(0x40)\n      0x08c379a000000000000000000000000000000000000000000000000000000000\n      dup2\n      mstore\n      0x04\n      add\n      tag_138\n      swap1\n      tag_139\n      jump\t// in\n    tag_138:\n      mload(0x40)\n      dup1\n      swap2\n      sub\n      swap1\n      revert\n    tag_137:\n        /* \"contracts/Escrow.sol\":1286:1398  function _checkClient() internal view {... */\n      jump\t// out\n        /* \"@openzeppelin/contracts/utils/Address.sol\":2412:2724  function sendValue(address payable recipient, uint256 amount) internal {... */\n    tag_117:\n        /* \"@openzeppelin/contracts/utils/Address.sol\":2526:2532  amount */\n      dup1\n        /* \"@openzeppelin/contracts/utils/Address.sol\":2501:2522  address(this).balance */\n      selfbalance\n        /* \"@openzeppelin/contracts/utils/Address.sol\":2501:2532  address(this).balance >= amount */\n      lt\n      iszero\n        /* \"@openzeppelin/contracts/utils/Address.sol\":2493:2566  require(address(this).balance >= amount, \"Address: insufficient balance\") */\n      tag_141\n      jumpi\n      mload(0x40)\n      0x08c379a000000000000000000000000000000000000000000000000000000000\n      dup2\n      mstore\n      0x04\n      add\n      tag_142\n      swap1\n      tag_143\n      jump\t// in\n    tag_142:\n      mload(0x40)\n      dup1\n      swap2\n      sub\n      swap1\n      revert\n    tag_141:\n        /* \"@openzeppelin/contracts/utils/Address.sol\":2578:2590  bool success */\n      0x00\n        /* \"@openzeppelin/contracts/utils/Address.sol\":2596:2605  recipient */\n      dup3\n        /* \"@openzeppelin/contracts/utils/Address.sol\":2596:2610  recipient.call */\n      0xffffffffffffffffffffffffffffffffffffffff\n      and\n        /* \"@openzeppelin/contracts/utils/Address.sol\":2618:2624  amount */\n      dup3\n        /* \"@openzeppelin/contracts/utils/Address.sol\":2596:2629  recipient.call{value: amount}(\"\") */\n      mload(0x40)\n      tag_144\n      swap1\n      tag_145\n      jump\t// in\n    tag_144:\n      0x00\n      mload(0x40)\n      dup1\n      dup4\n      sub\n      dup2\n      dup6\n      dup8\n      gas\n      call\n      swap3\n      pop\n      pop\n      pop\n      returndatasize\n      dup1\n      0x00\n      dup2\n      eq\n      tag_148\n      jumpi\n      mload(0x40)\n      swap2\n      pop\n      and(add(returndatasize, 0x3f), not(0x1f))\n      dup3\n      add\n      0x40\n      mstore\n      returndatasize\n      dup3\n      mstore\n      returndatasize\n      0x00\n      0x20\n      dup5\n      add\n      returndatacopy\n      jump(tag_147)\n    tag_148:\n      0x60\n      swap2\n      pop\n    tag_147:\n      pop\n        /* \"@openzeppelin/contracts/utils/Address.sol\":2577:2629  (bool success, ) = recipient.call{value: amount}(\"\") */\n      pop\n      swap1\n      pop\n        /* \"@openzeppelin/contracts/utils/Address.sol\":2647:2654  success */\n      dup1\n        /* \"@openzeppelin/contracts/utils/Address.sol\":2639:2717  require(success, \"Address: unable to send value, recipient may have reverted\") */\n      tag_149\n      jumpi\n      mload(0x40)\n      0x08c379a000000000000000000000000000000000000000000000000000000000\n      dup2\n      mstore\n      0x04\n      add\n      tag_150\n      swap1\n      tag_151\n      jump\t// in\n    tag_150:\n      mload(0x40)\n      dup1\n      swap2\n      sub\n      swap1\n      revert\n    tag_149:\n        /* \"@openzeppelin/contracts/utils/Address.sol\":2483:2724  {... */\n      pop\n        /* \"@openzeppelin/contracts/utils/Address.sol\":2412:2724  function sendValue(address payable recipient, uint256 amount) internal {... */\n      pop\n      pop\n      jump\t// out\n        /* \"@openzeppelin/contracts/utils/Context.sol\":640:736  function _msgSender() internal view virtual returns (address) {... */\n    tag_130:\n        /* \"@openzeppelin/contracts/utils/Context.sol\":693:700  address */\n      0x00\n        /* \"@openzeppelin/contracts/utils/Context.sol\":719:729  msg.sender */\n      caller\n        /* \"@openzeppelin/contracts/utils/Context.sol\":712:729  return msg.sender */\n      swap1\n      pop\n        /* \"@openzeppelin/contracts/utils/Context.sol\":640:736  function _msgSender() internal view virtual returns (address) {... */\n      swap1\n      jump\t// out\n        /* \"#utility.yul\":7:146   */\n    tag_154:\n        /* \"#utility.yul\":53:58   */\n      0x00\n        /* \"#utility.yul\":91:97   */\n      dup2\n        /* \"#utility.yul\":78:98   */\n      calldataload\n        /* \"#utility.yul\":69:98   */\n      swap1\n      pop\n        /* \"#utility.yul\":107:140   */\n      tag_156\n        /* \"#utility.yul\":134:139   */\n      dup2\n        /* \"#utility.yul\":107:140   */\n      tag_157\n      jump\t// in\n    tag_156:\n        /* \"#utility.yul\":7:146   */\n      swap3\n      swap2\n      pop\n      pop\n      jump\t// out\n        /* \"#utility.yul\":152:307   */\n    tag_158:\n        /* \"#utility.yul\":206:211   */\n      0x00\n        /* \"#utility.yul\":244:250   */\n      dup2\n        /* \"#utility.yul\":231:251   */\n      calldataload\n        /* \"#utility.yul\":222:251   */\n      swap1\n      pop\n        /* \"#utility.yul\":260:301   */\n      tag_160\n        /* \"#utility.yul\":295:300   */\n      dup2\n        /* \"#utility.yul\":260:301   */\n      tag_161\n      jump\t// in\n    tag_160:\n        /* \"#utility.yul\":152:307   */\n      swap3\n      swap2\n      pop\n      pop\n      jump\t// out\n        /* \"#utility.yul\":313:446   */\n    tag_162:\n        /* \"#utility.yul\":356:361   */\n      0x00\n        /* \"#utility.yul\":394:400   */\n      dup2\n        /* \"#utility.yul\":381:401   */\n      calldataload\n        /* \"#utility.yul\":372:401   */\n      swap1\n      pop\n        /* \"#utility.yul\":410:440   */\n      tag_164\n        /* \"#utility.yul\":434:439   */\n      dup2\n        /* \"#utility.yul\":410:440   */\n      tag_165\n      jump\t// in\n    tag_164:\n        /* \"#utility.yul\":313:446   */\n      swap3\n      swap2\n      pop\n      pop\n      jump\t// out\n        /* \"#utility.yul\":452:781   */\n    tag_53:\n        /* \"#utility.yul\":511:517   */\n      0x00\n        /* \"#utility.yul\":560:562   */\n      0x20\n        /* \"#utility.yul\":548:557   */\n      dup3\n        /* \"#utility.yul\":539:546   */\n      dup5\n        /* \"#utility.yul\":535:558   */\n      sub\n        /* \"#utility.yul\":531:563   */\n      slt\n        /* \"#utility.yul\":528:647   */\n      iszero\n      tag_167\n      jumpi\n        /* \"#utility.yul\":566:645   */\n      tag_168\n      tag_169\n      jump\t// in\n    tag_168:\n        /* \"#utility.yul\":528:647   */\n    tag_167:\n        /* \"#utility.yul\":686:687   */\n      0x00\n        /* \"#utility.yul\":711:764   */\n      tag_170\n        /* \"#utility.yul\":756:763   */\n      dup5\n        /* \"#utility.yul\":747:753   */\n      dup3\n        /* \"#utility.yul\":736:745   */\n      dup6\n        /* \"#utility.yul\":732:754   */\n      add\n        /* \"#utility.yul\":711:764   */\n      tag_154\n      jump\t// in\n    tag_170:\n        /* \"#utility.yul\":701:764   */\n      swap2\n      pop\n        /* \"#utility.yul\":657:774   */\n      pop\n        /* \"#utility.yul\":452:781   */\n      swap3\n      swap2\n      pop\n      pop\n      jump\t// out\n        /* \"#utility.yul\":787:1132   */\n    tag_26:\n        /* \"#utility.yul\":854:860   */\n      0x00\n        /* \"#utility.yul\":903:905   */\n      0x20\n        /* \"#utility.yul\":891:900   */\n      dup3\n        /* \"#utility.yul\":882:889   */\n      dup5\n        /* \"#utility.yul\":878:901   */\n      sub\n        /* \"#utility.yul\":874:906   */\n      slt\n        /* \"#utility.yul\":871:990   */\n      iszero\n      tag_172\n      jumpi\n        /* \"#utility.yul\":909:988   */\n      tag_173\n      tag_169\n      jump\t// in\n    tag_173:\n        /* \"#utility.yul\":871:990   */\n    tag_172:\n        /* \"#utility.yul\":1029:1030   */\n      0x00\n        /* \"#utility.yul\":1054:1115   */\n      tag_174\n        /* \"#utility.yul\":1107:1114   */\n      dup5\n        /* \"#utility.yul\":1098:1104   */\n      dup3\n        /* \"#utility.yul\":1087:1096   */\n      dup6\n        /* \"#utility.yul\":1083:1105   */\n      add\n        /* \"#utility.yul\":1054:1115   */\n      tag_158\n      jump\t// in\n    tag_174:\n        /* \"#utility.yul\":1044:1115   */\n      swap2\n      pop\n        /* \"#utility.yul\":1000:1125   */\n      pop\n        /* \"#utility.yul\":787:1132   */\n      swap3\n      swap2\n      pop\n      pop\n      jump\t// out\n        /* \"#utility.yul\":1138:1461   */\n    tag_21:\n        /* \"#utility.yul\":1194:1200   */\n      0x00\n        /* \"#utility.yul\":1243:1245   */\n      0x20\n        /* \"#utility.yul\":1231:1240   */\n      dup3\n        /* \"#utility.yul\":1222:1229   */\n      dup5\n        /* \"#utility.yul\":1218:1241   */\n      sub\n        /* \"#utility.yul\":1214:1246   */\n      slt\n        /* \"#utility.yul\":1211:1330   */\n      iszero\n      tag_176\n      jumpi\n        /* \"#utility.yul\":1249:1328   */\n      tag_177\n      tag_169\n      jump\t// in\n    tag_177:\n        /* \"#utility.yul\":1211:1330   */\n    tag_176:\n        /* \"#utility.yul\":1369:1370   */\n      0x00\n        /* \"#utility.yul\":1394:1444   */\n      tag_178\n        /* \"#utility.yul\":1436:1443   */\n      dup5\n        /* \"#utility.yul\":1427:1433   */\n      dup3\n        /* \"#utility.yul\":1416:1425   */\n      dup6\n        /* \"#utility.yul\":1412:1434   */\n      add\n        /* \"#utility.yul\":1394:1444   */\n      tag_162\n      jump\t// in\n    tag_178:\n        /* \"#utility.yul\":1384:1444   */\n      swap2\n      pop\n        /* \"#utility.yul\":1340:1454   */\n      pop\n        /* \"#utility.yul\":1138:1461   */\n      swap3\n      swap2\n      pop\n      pop\n      jump\t// out\n        /* \"#utility.yul\":1467:1929   */\n    tag_16:\n        /* \"#utility.yul\":1529:1535   */\n      0x00\n        /* \"#utility.yul\":1537:1543   */\n      dup1\n        /* \"#utility.yul\":1586:1588   */\n      0x40\n        /* \"#utility.yul\":1574:1583   */\n      dup4\n        /* \"#utility.yul\":1565:1572   */\n      dup6\n        /* \"#utility.yul\":1561:1584   */\n      sub\n        /* \"#utility.yul\":1557:1589   */\n      slt\n        /* \"#utility.yul\":1554:1673   */\n      iszero\n      tag_180\n      jumpi\n        /* \"#utility.yul\":1592:1671   */\n      tag_181\n      tag_169\n      jump\t// in\n    tag_181:\n        /* \"#utility.yul\":1554:1673   */\n    tag_180:\n        /* \"#utility.yul\":1712:1713   */\n      0x00\n        /* \"#utility.yul\":1737:1787   */\n      tag_182\n        /* \"#utility.yul\":1779:1786   */\n      dup6\n        /* \"#utility.yul\":1770:1776   */\n      dup3\n        /* \"#utility.yul\":1759:1768   */\n      dup7\n        /* \"#utility.yul\":1755:1777   */\n      add\n        /* \"#utility.yul\":1737:1787   */\n      tag_162\n      jump\t// in\n    tag_182:\n        /* \"#utility.yul\":1727:1787   */\n      swap3\n      pop\n        /* \"#utility.yul\":1683:1797   */\n      pop\n        /* \"#utility.yul\":1836:1838   */\n      0x20\n        /* \"#utility.yul\":1862:1912   */\n      tag_183\n        /* \"#utility.yul\":1904:1911   */\n      dup6\n        /* \"#utility.yul\":1895:1901   */\n      dup3\n        /* \"#utility.yul\":1884:1893   */\n      dup7\n        /* \"#utility.yul\":1880:1902   */\n      add\n        /* \"#utility.yul\":1862:1912   */\n      tag_162\n      jump\t// in\n    tag_183:\n        /* \"#utility.yul\":1852:1912   */\n      swap2\n      pop\n        /* \"#utility.yul\":1807:1922   */\n      pop\n        /* \"#utility.yul\":1467:1929   */\n      swap3\n      pop\n      swap3\n      swap1\n      pop\n      jump\t// out\n        /* \"#utility.yul\":1935:2053   */\n    tag_184:\n        /* \"#utility.yul\":2022:2046   */\n      tag_186\n        /* \"#utility.yul\":2040:2045   */\n      dup2\n        /* \"#utility.yul\":2022:2046   */\n      tag_187\n      jump\t// in\n    tag_186:\n        /* \"#utility.yul\":2017:2020   */\n      dup3\n        /* \"#utility.yul\":2010:2047   */\n      mstore\n        /* \"#utility.yul\":1935:2053   */\n      pop\n      pop\n      jump\t// out\n        /* \"#utility.yul\":2059:2425   */\n    tag_188:\n        /* \"#utility.yul\":2201:2204   */\n      0x00\n        /* \"#utility.yul\":2222:2289   */\n      tag_190\n        /* \"#utility.yul\":2286:2288   */\n      0x26\n        /* \"#utility.yul\":2281:2284   */\n      dup4\n        /* \"#utility.yul\":2222:2289   */\n      tag_191\n      jump\t// in\n    tag_190:\n        /* \"#utility.yul\":2215:2289   */\n      swap2\n      pop\n        /* \"#utility.yul\":2298:2391   */\n      tag_192\n        /* \"#utility.yul\":2387:2390   */\n      dup3\n        /* \"#utility.yul\":2298:2391   */\n      tag_193\n      jump\t// in\n    tag_192:\n        /* \"#utility.yul\":2416:2418   */\n      0x40\n        /* \"#utility.yul\":2411:2414   */\n      dup3\n        /* \"#utility.yul\":2407:2419   */\n      add\n        /* \"#utility.yul\":2400:2419   */\n      swap1\n      pop\n        /* \"#utility.yul\":2059:2425   */\n      swap2\n      swap1\n      pop\n      jump\t// out\n        /* \"#utility.yul\":2431:2797   */\n    tag_194:\n        /* \"#utility.yul\":2573:2576   */\n      0x00\n        /* \"#utility.yul\":2594:2661   */\n      tag_196\n        /* \"#utility.yul\":2658:2660   */\n      0x3a\n        /* \"#utility.yul\":2653:2656   */\n      dup4\n        /* \"#utility.yul\":2594:2661   */\n      tag_191\n      jump\t// in\n    tag_196:\n        /* \"#utility.yul\":2587:2661   */\n      swap2\n      pop\n        /* \"#utility.yul\":2670:2763   */\n      tag_197\n        /* \"#utility.yul\":2759:2762   */\n      dup3\n        /* \"#utility.yul\":2670:2763   */\n      tag_198\n      jump\t// in\n    tag_197:\n        /* \"#utility.yul\":2788:2790   */\n      0x40\n        /* \"#utility.yul\":2783:2786   */\n      dup3\n        /* \"#utility.yul\":2779:2791   */\n      add\n        /* \"#utility.yul\":2772:2791   */\n      swap1\n      pop\n        /* \"#utility.yul\":2431:2797   */\n      swap2\n      swap1\n      pop\n      jump\t// out\n        /* \"#utility.yul\":2803:3169   */\n    tag_199:\n        /* \"#utility.yul\":2945:2948   */\n      0x00\n        /* \"#utility.yul\":2966:3033   */\n      tag_201\n        /* \"#utility.yul\":3030:3032   */\n      0x1d\n        /* \"#utility.yul\":3025:3028   */\n      dup4\n        /* \"#utility.yul\":2966:3033   */\n      tag_191\n      jump\t// in\n    tag_201:\n        /* \"#utility.yul\":2959:3033   */\n      swap2\n      pop\n        /* \"#utility.yul\":3042:3135   */\n      tag_202\n        /* \"#utility.yul\":3131:3134   */\n      dup3\n        /* \"#utility.yul\":3042:3135   */\n      tag_203\n      jump\t// in\n    tag_202:\n        /* \"#utility.yul\":3160:3162   */\n      0x20\n        /* \"#utility.yul\":3155:3158   */\n      dup3\n        /* \"#utility.yul\":3151:3163   */\n      add\n        /* \"#utility.yul\":3144:3163   */\n      swap1\n      pop\n        /* \"#utility.yul\":2803:3169   */\n      swap2\n      swap1\n      pop\n      jump\t// out\n        /* \"#utility.yul\":3175:3541   */\n    tag_204:\n        /* \"#utility.yul\":3317:3320   */\n      0x00\n        /* \"#utility.yul\":3338:3405   */\n      tag_206\n        /* \"#utility.yul\":3402:3404   */\n      0x1c\n        /* \"#utility.yul\":3397:3400   */\n      dup4\n        /* \"#utility.yul\":3338:3405   */\n      tag_191\n      jump\t// in\n    tag_206:\n        /* \"#utility.yul\":3331:3405   */\n      swap2\n      pop\n        /* \"#utility.yul\":3414:3507   */\n      tag_207\n        /* \"#utility.yul\":3503:3506   */\n      dup3\n        /* \"#utility.yul\":3414:3507   */\n      tag_208\n      jump\t// in\n    tag_207:\n        /* \"#utility.yul\":3532:3534   */\n      0x20\n        /* \"#utility.yul\":3527:3530   */\n      dup3\n        /* \"#utility.yul\":3523:3535   */\n      add\n        /* \"#utility.yul\":3516:3535   */\n      swap1\n      pop\n        /* \"#utility.yul\":3175:3541   */\n      swap2\n      swap1\n      pop\n      jump\t// out\n        /* \"#utility.yul\":3547:3913   */\n    tag_209:\n        /* \"#utility.yul\":3689:3692   */\n      0x00\n        /* \"#utility.yul\":3710:3777   */\n      tag_211\n        /* \"#utility.yul\":3774:3776   */\n      0x20\n        /* \"#utility.yul\":3769:3772   */\n      dup4\n        /* \"#utility.yul\":3710:3777   */\n      tag_191\n      jump\t// in\n    tag_211:\n        /* \"#utility.yul\":3703:3777   */\n      swap2\n      pop\n        /* \"#utility.yul\":3786:3879   */\n      tag_212\n        /* \"#utility.yul\":3875:3878   */\n      dup3\n        /* \"#utility.yul\":3786:3879   */\n      tag_213\n      jump\t// in\n    tag_212:\n        /* \"#utility.yul\":3904:3906   */\n      0x20\n        /* \"#utility.yul\":3899:3902   */\n      dup3\n        /* \"#utility.yul\":3895:3907   */\n      add\n        /* \"#utility.yul\":3888:3907   */\n      swap1\n      pop\n        /* \"#utility.yul\":3547:3913   */\n      swap2\n      swap1\n      pop\n      jump\t// out\n        /* \"#utility.yul\":3919:4317   */\n    tag_214:\n        /* \"#utility.yul\":4078:4081   */\n      0x00\n        /* \"#utility.yul\":4099:4182   */\n      tag_216\n        /* \"#utility.yul\":4180:4181   */\n      0x00\n        /* \"#utility.yul\":4175:4178   */\n      dup4\n        /* \"#utility.yul\":4099:4182   */\n      tag_217\n      jump\t// in\n    tag_216:\n        /* \"#utility.yul\":4092:4182   */\n      swap2\n      pop\n        /* \"#utility.yul\":4191:4284   */\n      tag_218\n        /* \"#utility.yul\":4280:4283   */\n      dup3\n        /* \"#utility.yul\":4191:4284   */\n      tag_219\n      jump\t// in\n    tag_218:\n        /* \"#utility.yul\":4309:4310   */\n      0x00\n        /* \"#utility.yul\":4304:4307   */\n      dup3\n        /* \"#utility.yul\":4300:4311   */\n      add\n        /* \"#utility.yul\":4293:4311   */\n      swap1\n      pop\n        /* \"#utility.yul\":3919:4317   */\n      swap2\n      swap1\n      pop\n      jump\t// out\n        /* \"#utility.yul\":4323:4689   */\n    tag_220:\n        /* \"#utility.yul\":4465:4468   */\n      0x00\n        /* \"#utility.yul\":4486:4553   */\n      tag_222\n        /* \"#utility.yul\":4550:4552   */\n      0x2f\n        /* \"#utility.yul\":4545:4548   */\n      dup4\n        /* \"#utility.yul\":4486:4553   */\n      tag_191\n      jump\t// in\n    tag_222:\n        /* \"#utility.yul\":4479:4553   */\n      swap2\n      pop\n        /* \"#utility.yul\":4562:4655   */\n      tag_223\n        /* \"#utility.yul\":4651:4654   */\n      dup3\n        /* \"#utility.yul\":4562:4655   */\n      tag_224\n      jump\t// in\n    tag_223:\n        /* \"#utility.yul\":4680:4682   */\n      0x40\n        /* \"#utility.yul\":4675:4678   */\n      dup3\n        /* \"#utility.yul\":4671:4683   */\n      add\n        /* \"#utility.yul\":4664:4683   */\n      swap1\n      pop\n        /* \"#utility.yul\":4323:4689   */\n      swap2\n      swap1\n      pop\n      jump\t// out\n        /* \"#utility.yul\":4695:5061   */\n    tag_225:\n        /* \"#utility.yul\":4837:4840   */\n      0x00\n        /* \"#utility.yul\":4858:4925   */\n      tag_227\n        /* \"#utility.yul\":4922:4924   */\n      0x17\n        /* \"#utility.yul\":4917:4920   */\n      dup4\n        /* \"#utility.yul\":4858:4925   */\n      tag_191\n      jump\t// in\n    tag_227:\n        /* \"#utility.yul\":4851:4925   */\n      swap2\n      pop\n        /* \"#utility.yul\":4934:5027   */\n      tag_228\n        /* \"#utility.yul\":5023:5026   */\n      dup3\n        /* \"#utility.yul\":4934:5027   */\n      tag_229\n      jump\t// in\n    tag_228:\n        /* \"#utility.yul\":5052:5054   */\n      0x20\n        /* \"#utility.yul\":5047:5050   */\n      dup3\n        /* \"#utility.yul\":5043:5055   */\n      add\n        /* \"#utility.yul\":5036:5055   */\n      swap1\n      pop\n        /* \"#utility.yul\":4695:5061   */\n      swap2\n      swap1\n      pop\n      jump\t// out\n        /* \"#utility.yul\":5067:5433   */\n    tag_230:\n        /* \"#utility.yul\":5209:5212   */\n      0x00\n        /* \"#utility.yul\":5230:5297   */\n      tag_232\n        /* \"#utility.yul\":5294:5296   */\n      0x18\n        /* \"#utility.yul\":5289:5292   */\n      dup4\n        /* \"#utility.yul\":5230:5297   */\n      tag_191\n      jump\t// in\n    tag_232:\n        /* \"#utility.yul\":5223:5297   */\n      swap2\n      pop\n        /* \"#utility.yul\":5306:5399   */\n      tag_233\n        /* \"#utility.yul\":5395:5398   */\n      dup3\n        /* \"#utility.yul\":5306:5399   */\n      tag_234\n      jump\t// in\n    tag_233:\n        /* \"#utility.yul\":5424:5426   */\n      0x20\n        /* \"#utility.yul\":5419:5422   */\n      dup3\n        /* \"#utility.yul\":5415:5427   */\n      add\n        /* \"#utility.yul\":5408:5427   */\n      swap1\n      pop\n        /* \"#utility.yul\":5067:5433   */\n      swap2\n      swap1\n      pop\n      jump\t// out\n        /* \"#utility.yul\":5439:5557   */\n    tag_235:\n        /* \"#utility.yul\":5526:5550   */\n      tag_237\n        /* \"#utility.yul\":5544:5549   */\n      dup2\n        /* \"#utility.yul\":5526:5550   */\n      tag_238\n      jump\t// in\n    tag_237:\n        /* \"#utility.yul\":5521:5524   */\n      dup3\n        /* \"#utility.yul\":5514:5551   */\n      mstore\n        /* \"#utility.yul\":5439:5557   */\n      pop\n      pop\n      jump\t// out\n        /* \"#utility.yul\":5563:5942   */\n    tag_145:\n        /* \"#utility.yul\":5747:5750   */\n      0x00\n        /* \"#utility.yul\":5769:5916   */\n      tag_240\n        /* \"#utility.yul\":5912:5915   */\n      dup3\n        /* \"#utility.yul\":5769:5916   */\n      tag_214\n      jump\t// in\n    tag_240:\n        /* \"#utility.yul\":5762:5916   */\n      swap2\n      pop\n        /* \"#utility.yul\":5933:5936   */\n      dup2\n        /* \"#utility.yul\":5926:5936   */\n      swap1\n      pop\n        /* \"#utility.yul\":5563:5942   */\n      swap2\n      swap1\n      pop\n      jump\t// out\n        /* \"#utility.yul\":5948:6170   */\n    tag_43:\n        /* \"#utility.yul\":6041:6045   */\n      0x00\n        /* \"#utility.yul\":6079:6081   */\n      0x20\n        /* \"#utility.yul\":6068:6077   */\n      dup3\n        /* \"#utility.yul\":6064:6082   */\n      add\n        /* \"#utility.yul\":6056:6082   */\n      swap1\n      pop\n        /* \"#utility.yul\":6092:6163   */\n      tag_242\n        /* \"#utility.yul\":6160:6161   */\n      0x00\n        /* \"#utility.yul\":6149:6158   */\n      dup4\n        /* \"#utility.yul\":6145:6162   */\n      add\n        /* \"#utility.yul\":6136:6142   */\n      dup5\n        /* \"#utility.yul\":6092:6163   */\n      tag_184\n      jump\t// in\n    tag_242:\n        /* \"#utility.yul\":5948:6170   */\n      swap3\n      swap2\n      pop\n      pop\n      jump\t// out\n        /* \"#utility.yul\":6176:6595   */\n    tag_99:\n        /* \"#utility.yul\":6342:6346   */\n      0x00\n        /* \"#utility.yul\":6380:6382   */\n      0x20\n        /* \"#utility.yul\":6369:6378   */\n      dup3\n        /* \"#utility.yul\":6365:6383   */\n      add\n        /* \"#utility.yul\":6357:6383   */\n      swap1\n      pop\n        /* \"#utility.yul\":6429:6438   */\n      dup2\n        /* \"#utility.yul\":6423:6427   */\n      dup2\n        /* \"#utility.yul\":6419:6439   */\n      sub\n        /* \"#utility.yul\":6415:6416   */\n      0x00\n        /* \"#utility.yul\":6404:6413   */\n      dup4\n        /* \"#utility.yul\":6400:6417   */\n      add\n        /* \"#utility.yul\":6393:6440   */\n      mstore\n        /* \"#utility.yul\":6457:6588   */\n      tag_244\n        /* \"#utility.yul\":6583:6587   */\n      dup2\n        /* \"#utility.yul\":6457:6588   */\n      tag_188\n      jump\t// in\n    tag_244:\n        /* \"#utility.yul\":6449:6588   */\n      swap1\n      pop\n        /* \"#utility.yul\":6176:6595   */\n      swap2\n      swap1\n      pop\n      jump\t// out\n        /* \"#utility.yul\":6601:7020   */\n    tag_151:\n        /* \"#utility.yul\":6767:6771   */\n      0x00\n        /* \"#utility.yul\":6805:6807   */\n      0x20\n        /* \"#utility.yul\":6794:6803   */\n      dup3\n        /* \"#utility.yul\":6790:6808   */\n      add\n        /* \"#utility.yul\":6782:6808   */\n      swap1\n      pop\n        /* \"#utility.yul\":6854:6863   */\n      dup2\n        /* \"#utility.yul\":6848:6852   */\n      dup2\n        /* \"#utility.yul\":6844:6864   */\n      sub\n        /* \"#utility.yul\":6840:6841   */\n      0x00\n        /* \"#utility.yul\":6829:6838   */\n      dup4\n        /* \"#utility.yul\":6825:6842   */\n      add\n        /* \"#utility.yul\":6818:6865   */\n      mstore\n        /* \"#utility.yul\":6882:7013   */\n      tag_246\n        /* \"#utility.yul\":7008:7012   */\n      dup2\n        /* \"#utility.yul\":6882:7013   */\n      tag_194\n      jump\t// in\n    tag_246:\n        /* \"#utility.yul\":6874:7013   */\n      swap1\n      pop\n        /* \"#utility.yul\":6601:7020   */\n      swap2\n      swap1\n      pop\n      jump\t// out\n        /* \"#utility.yul\":7026:7445   */\n    tag_143:\n        /* \"#utility.yul\":7192:7196   */\n      0x00\n        /* \"#utility.yul\":7230:7232   */\n      0x20\n        /* \"#utility.yul\":7219:7228   */\n      dup3\n        /* \"#utility.yul\":7215:7233   */\n      add\n        /* \"#utility.yul\":7207:7233   */\n      swap1\n      pop\n        /* \"#utility.yul\":7279:7288   */\n      dup2\n        /* \"#utility.yul\":7273:7277   */\n      dup2\n        /* \"#utility.yul\":7269:7289   */\n      sub\n        /* \"#utility.yul\":7265:7266   */\n      0x00\n        /* \"#utility.yul\":7254:7263   */\n      dup4\n        /* \"#utility.yul\":7250:7267   */\n      add\n        /* \"#utility.yul\":7243:7290   */\n      mstore\n        /* \"#utility.yul\":7307:7438   */\n      tag_248\n        /* \"#utility.yul\":7433:7437   */\n      dup2\n        /* \"#utility.yul\":7307:7438   */\n      tag_199\n      jump\t// in\n    tag_248:\n        /* \"#utility.yul\":7299:7438   */\n      swap1\n      pop\n        /* \"#utility.yul\":7026:7445   */\n      swap2\n      swap1\n      pop\n      jump\t// out\n        /* \"#utility.yul\":7451:7870   */\n    tag_127:\n        /* \"#utility.yul\":7617:7621   */\n      0x00\n        /* \"#utility.yul\":7655:7657   */\n      0x20\n        /* \"#utility.yul\":7644:7653   */\n      dup3\n        /* \"#utility.yul\":7640:7658   */\n      add\n        /* \"#utility.yul\":7632:7658   */\n      swap1\n      pop\n        /* \"#utility.yul\":7704:7713   */\n      dup2\n        /* \"#utility.yul\":7698:7702   */\n      dup2\n        /* \"#utility.yul\":7694:7714   */\n      sub\n        /* \"#utility.yul\":7690:7691   */\n      0x00\n        /* \"#utility.yul\":7679:7688   */\n      dup4\n        /* \"#utility.yul\":7675:7692   */\n      add\n        /* \"#utility.yul\":7668:7715   */\n      mstore\n        /* \"#utility.yul\":7732:7863   */\n      tag_250\n        /* \"#utility.yul\":7858:7862   */\n      dup2\n        /* \"#utility.yul\":7732:7863   */\n      tag_204\n      jump\t// in\n    tag_250:\n        /* \"#utility.yul\":7724:7863   */\n      swap1\n      pop\n        /* \"#utility.yul\":7451:7870   */\n      swap2\n      swap1\n      pop\n      jump\t// out\n        /* \"#utility.yul\":7876:8295   */\n    tag_134:\n        /* \"#utility.yul\":8042:8046   */\n      0x00\n        /* \"#utility.yul\":8080:8082   */\n      0x20\n        /* \"#utility.yul\":8069:8078   */\n      dup3\n        /* \"#utility.yul\":8065:8083   */\n      add\n        /* \"#utility.yul\":8057:8083   */\n      swap1\n      pop\n        /* \"#utility.yul\":8129:8138   */\n      dup2\n        /* \"#utility.yul\":8123:8127   */\n      dup2\n        /* \"#utility.yul\":8119:8139   */\n      sub\n        /* \"#utility.yul\":8115:8116   */\n      0x00\n        /* \"#utility.yul\":8104:8113   */\n      dup4\n        /* \"#utility.yul\":8100:8117   */\n      add\n        /* \"#utility.yul\":8093:8140   */\n      mstore\n        /* \"#utility.yul\":8157:8288   */\n      tag_252\n        /* \"#utility.yul\":8283:8287   */\n      dup2\n        /* \"#utility.yul\":8157:8288   */\n      tag_209\n      jump\t// in\n    tag_252:\n        /* \"#utility.yul\":8149:8288   */\n      swap1\n      pop\n        /* \"#utility.yul\":7876:8295   */\n      swap2\n      swap1\n      pop\n      jump\t// out\n        /* \"#utility.yul\":8301:8720   */\n    tag_80:\n        /* \"#utility.yul\":8467:8471   */\n      0x00\n        /* \"#utility.yul\":8505:8507   */\n      0x20\n        /* \"#utility.yul\":8494:8503   */\n      dup3\n        /* \"#utility.yul\":8490:8508   */\n      add\n        /* \"#utility.yul\":8482:8508   */\n      swap1\n      pop\n        /* \"#utility.yul\":8554:8563   */\n      dup2\n        /* \"#utility.yul\":8548:8552   */\n      dup2\n        /* \"#utility.yul\":8544:8564   */\n      sub\n        /* \"#utility.yul\":8540:8541   */\n      0x00\n        /* \"#utility.yul\":8529:8538   */\n      dup4\n        /* \"#utility.yul\":8525:8542   */\n      add\n        /* \"#utility.yul\":8518:8565   */\n      mstore\n        /* \"#utility.yul\":8582:8713   */\n      tag_254\n        /* \"#utility.yul\":8708:8712   */\n      dup2\n        /* \"#utility.yul\":8582:8713   */\n      tag_220\n      jump\t// in\n    tag_254:\n        /* \"#utility.yul\":8574:8713   */\n      swap1\n      pop\n        /* \"#utility.yul\":8301:8720   */\n      swap2\n      swap1\n      pop\n      jump\t// out\n        /* \"#utility.yul\":8726:9145   */\n    tag_104:\n        /* \"#utility.yul\":8892:8896   */\n      0x00\n        /* \"#utility.yul\":8930:8932   */\n      0x20\n        /* \"#utility.yul\":8919:8928   */\n      dup3\n        /* \"#utility.yul\":8915:8933   */\n      add\n        /* \"#utility.yul\":8907:8933   */\n      swap1\n      pop\n        /* \"#utility.yul\":8979:8988   */\n      dup2\n        /* \"#utility.yul\":8973:8977   */\n      dup2\n        /* \"#utility.yul\":8969:8989   */\n      sub\n        /* \"#utility.yul\":8965:8966   */\n      0x00\n        /* \"#utility.yul\":8954:8963   */\n      dup4\n        /* \"#utility.yul\":8950:8967   */\n      add\n        /* \"#utility.yul\":8943:8990   */\n      mstore\n        /* \"#utility.yul\":9007:9138   */\n      tag_256\n        /* \"#utility.yul\":9133:9137   */\n      dup2\n        /* \"#utility.yul\":9007:9138   */\n      tag_225\n      jump\t// in\n    tag_256:\n        /* \"#utility.yul\":8999:9138   */\n      swap1\n      pop\n        /* \"#utility.yul\":8726:9145   */\n      swap2\n      swap1\n      pop\n      jump\t// out\n        /* \"#utility.yul\":9151:9570   */\n    tag_139:\n        /* \"#utility.yul\":9317:9321   */\n      0x00\n        /* \"#utility.yul\":9355:9357   */\n      0x20\n        /* \"#utility.yul\":9344:9353   */\n      dup3\n        /* \"#utility.yul\":9340:9358   */\n      add\n        /* \"#utility.yul\":9332:9358   */\n      swap1\n      pop\n        /* \"#utility.yul\":9404:9413   */\n      dup2\n        /* \"#utility.yul\":9398:9402   */\n      dup2\n        /* \"#utility.yul\":9394:9414   */\n      sub\n        /* \"#utility.yul\":9390:9391   */\n      0x00\n        /* \"#utility.yul\":9379:9388   */\n      dup4\n        /* \"#utility.yul\":9375:9392   */\n      add\n        /* \"#utility.yul\":9368:9415   */\n      mstore\n        /* \"#utility.yul\":9432:9563   */\n      tag_258\n        /* \"#utility.yul\":9558:9562   */\n      dup2\n        /* \"#utility.yul\":9432:9563   */\n      tag_230\n      jump\t// in\n    tag_258:\n        /* \"#utility.yul\":9424:9563   */\n      swap1\n      pop\n        /* \"#utility.yul\":9151:9570   */\n      swap2\n      swap1\n      pop\n      jump\t// out\n        /* \"#utility.yul\":9576:9798   */\n    tag_93:\n        /* \"#utility.yul\":9669:9673   */\n      0x00\n        /* \"#utility.yul\":9707:9709   */\n      0x20\n        /* \"#utility.yul\":9696:9705   */\n      dup3\n        /* \"#utility.yul\":9692:9710   */\n      add\n        /* \"#utility.yul\":9684:9710   */\n      swap1\n      pop\n        /* \"#utility.yul\":9720:9791   */\n      tag_260\n        /* \"#utility.yul\":9788:9789   */\n      0x00\n        /* \"#utility.yul\":9777:9786   */\n      dup4\n        /* \"#utility.yul\":9773:9790   */\n      add\n        /* \"#utility.yul\":9764:9770   */\n      dup5\n        /* \"#utility.yul\":9720:9791   */\n      tag_235\n      jump\t// in\n    tag_260:\n        /* \"#utility.yul\":9576:9798   */\n      swap3\n      swap2\n      pop\n      pop\n      jump\t// out\n        /* \"#utility.yul\":9885:10032   */\n    tag_217:\n        /* \"#utility.yul\":9986:9997   */\n      0x00\n        /* \"#utility.yul\":10023:10026   */\n      dup2\n        /* \"#utility.yul\":10008:10026   */\n      swap1\n      pop\n        /* \"#utility.yul\":9885:10032   */\n      swap3\n      swap2\n      pop\n      pop\n      jump\t// out\n        /* \"#utility.yul\":10038:10207   */\n    tag_191:\n        /* \"#utility.yul\":10122:10133   */\n      0x00\n        /* \"#utility.yul\":10156:10162   */\n      dup3\n        /* \"#utility.yul\":10151:10154   */\n      dup3\n        /* \"#utility.yul\":10144:10163   */\n      mstore\n        /* \"#utility.yul\":10196:10200   */\n      0x20\n        /* \"#utility.yul\":10191:10194   */\n      dup3\n        /* \"#utility.yul\":10187:10201   */\n      add\n        /* \"#utility.yul\":10172:10201   */\n      swap1\n      pop\n        /* \"#utility.yul\":10038:10207   */\n      swap3\n      swap2\n      pop\n      pop\n      jump\t// out\n        /* \"#utility.yul\":10213:10518   */\n    tag_82:\n        /* \"#utility.yul\":10253:10256   */\n      0x00\n        /* \"#utility.yul\":10272:10292   */\n      tag_266\n        /* \"#utility.yul\":10290:10291   */\n      dup3\n        /* \"#utility.yul\":10272:10292   */\n      tag_238\n      jump\t// in\n    tag_266:\n        /* \"#utility.yul\":10267:10292   */\n      swap2\n      pop\n        /* \"#utility.yul\":10306:10326   */\n      tag_267\n        /* \"#utility.yul\":10324:10325   */\n      dup4\n        /* \"#utility.yul\":10306:10326   */\n      tag_238\n      jump\t// in\n    tag_267:\n        /* \"#utility.yul\":10301:10326   */\n      swap3\n      pop\n        /* \"#utility.yul\":10460:10461   */\n      dup3\n        /* \"#utility.yul\":10392:10458   */\n      0xffffffffffffffffffffffffffffffffffffffffffffffffffffffffffffffff\n        /* \"#utility.yul\":10388:10462   */\n      sub\n        /* \"#utility.yul\":10385:10386   */\n      dup3\n        /* \"#utility.yul\":10382:10463   */\n      gt\n        /* \"#utility.yul\":10379:10486   */\n      iszero\n      tag_268\n      jumpi\n        /* \"#utility.yul\":10466:10484   */\n      tag_269\n      tag_270\n      jump\t// in\n    tag_269:\n        /* \"#utility.yul\":10379:10486   */\n    tag_268:\n        /* \"#utility.yul\":10510:10511   */\n      dup3\n        /* \"#utility.yul\":10507:10508   */\n      dup3\n        /* \"#utility.yul\":10503:10512   */\n      add\n        /* \"#utility.yul\":10496:10512   */\n      swap1\n      pop\n        /* \"#utility.yul\":10213:10518   */\n      swap3\n      swap2\n      pop\n      pop\n      jump\t// out\n        /* \"#utility.yul\":10524:10709   */\n    tag_109:\n        /* \"#utility.yul\":10564:10565   */\n      0x00\n        /* \"#utility.yul\":10581:10601   */\n      tag_272\n        /* \"#utility.yul\":10599:10600   */\n      dup3\n        /* \"#utility.yul\":10581:10601   */\n      tag_238\n      jump\t// in\n    tag_272:\n        /* \"#utility.yul\":10576:10601   */\n      swap2\n      pop\n        /* \"#utility.yul\":10615:10635   */\n      tag_273\n        /* \"#utility.yul\":10633:10634   */\n      dup4\n        /* \"#utility.yul\":10615:10635   */\n      tag_238\n      jump\t// in\n    tag_273:\n        /* \"#utility.yul\":10610:10635   */\n      swap3\n      pop\n        /* \"#utility.yul\":10654:10655   */\n      dup3\n        /* \"#utility.yul\":10644:10679   */\n      tag_274\n      jumpi\n        /* \"#utility.yul\":10659:10677   */\n      tag_275\n      tag_276\n      jump\t// in\n    tag_275:\n        /* \"#utility.yul\":10644:10679   */\n    tag_274:\n        /* \"#utility.yul\":10701:10702   */\n      dup3\n        /* \"#utility.yul\":10698:10699   */\n      dup3\n        /* \"#utility.yul\":10694:10703   */\n      div\n        /* \"#utility.yul\":10689:10703   */\n      swap1\n      pop\n        /* \"#utility.yul\":10524:10709   */\n      swap3\n      swap2\n      pop\n      pop\n      jump\t// out\n        /* \"#utility.yul\":10715:11063   */\n    tag_107:\n        /* \"#utility.yul\":10755:10762   */\n      0x00\n        /* \"#utility.yul\":10778:10798   */\n      tag_278\n        /* \"#utility.yul\":10796:10797   */\n      dup3\n        /* \"#utility.yul\":10778:10798   */\n      tag_238\n      jump\t// in\n    tag_278:\n        /* \"#utility.yul\":10773:10798   */\n      swap2\n      pop\n        /* \"#utility.yul\":10812:10832   */\n      tag_279\n        /* \"#utility.yul\":10830:10831   */\n      dup4\n        /* \"#utility.yul\":10812:10832   */\n      tag_238\n      jump\t// in\n    tag_279:\n        /* \"#utility.yul\":10807:10832   */\n      swap3\n      pop\n        /* \"#utility.yul\":11000:11001   */\n      dup2\n        /* \"#utility.yul\":10932:10998   */\n      0xffffffffffffffffffffffffffffffffffffffffffffffffffffffffffffffff\n        /* \"#utility.yul\":10928:11002   */\n      div\n        /* \"#utility.yul\":10925:10926   */\n      dup4\n        /* \"#utility.yul\":10922:11003   */\n      gt\n        /* \"#utility.yul\":10917:10918   */\n      dup3\n        /* \"#utility.yul\":10910:10919   */\n      iszero\n        /* \"#utility.yul\":10903:10920   */\n      iszero\n        /* \"#utility.yul\":10899:11004   */\n      and\n        /* \"#utility.yul\":10896:11027   */\n      iszero\n      tag_280\n      jumpi\n        /* \"#utility.yul\":11007:11025   */\n      tag_281\n      tag_270\n      jump\t// in\n    tag_281:\n        /* \"#utility.yul\":10896:11027   */\n    tag_280:\n        /* \"#utility.yul\":11055:11056   */\n      dup3\n        /* \"#utility.yul\":11052:11053   */\n      dup3\n        /* \"#utility.yul\":11048:11057   */\n      mul\n        /* \"#utility.yul\":11037:11057   */\n      swap1\n      pop\n        /* \"#utility.yul\":10715:11063   */\n      swap3\n      swap2\n      pop\n      pop\n      jump\t// out\n        /* \"#utility.yul\":11069:11260   */\n    tag_111:\n        /* \"#utility.yul\":11109:11113   */\n      0x00\n        /* \"#utility.yul\":11129:11149   */\n      tag_283\n        /* \"#utility.yul\":11147:11148   */\n      dup3\n        /* \"#utility.yul\":11129:11149   */\n      tag_238\n      jump\t// in\n    tag_283:\n        /* \"#utility.yul\":11124:11149   */\n      swap2\n      pop\n        /* \"#utility.yul\":11163:11183   */\n      tag_284\n        /* \"#utility.yul\":11181:11182   */\n      dup4\n        /* \"#utility.yul\":11163:11183   */\n      tag_238\n      jump\t// in\n    tag_284:\n        /* \"#utility.yul\":11158:11183   */\n      swap3\n      pop\n        /* \"#utility.yul\":11202:11203   */\n      dup3\n        /* \"#utility.yul\":11199:11200   */\n      dup3\n        /* \"#utility.yul\":11196:11204   */\n      lt\n        /* \"#utility.yul\":11193:11227   */\n      iszero\n      tag_285\n      jumpi\n        /* \"#utility.yul\":11207:11225   */\n      tag_286\n      tag_270\n      jump\t// in\n    tag_286:\n        /* \"#utility.yul\":11193:11227   */\n    tag_285:\n        /* \"#utility.yul\":11252:11253   */\n      dup3\n        /* \"#utility.yul\":11249:11250   */\n      dup3\n        /* \"#utility.yul\":11245:11254   */\n      sub\n        /* \"#utility.yul\":11237:11254   */\n      swap1\n      pop\n        /* \"#utility.yul\":11069:11260   */\n      swap3\n      swap2\n      pop\n      pop\n      jump\t// out\n        /* \"#utility.yul\":11266:11362   */\n    tag_187:\n        /* \"#utility.yul\":11303:11310   */\n      0x00\n        /* \"#utility.yul\":11332:11356   */\n      tag_288\n        /* \"#utility.yul\":11350:11355   */\n      dup3\n        /* \"#utility.yul\":11332:11356   */\n      tag_289\n      jump\t// in\n    tag_288:\n        /* \"#utility.yul\":11321:11356   */\n      swap1\n      pop\n        /* \"#utility.yul\":11266:11362   */\n      swap2\n      swap1\n      pop\n      jump\t// out\n        /* \"#utility.yul\":11368:11472   */\n    tag_290:\n        /* \"#utility.yul\":11413:11420   */\n      0x00\n        /* \"#utility.yul\":11442:11466   */\n      tag_292\n        /* \"#utility.yul\":11460:11465   */\n      dup3\n        /* \"#utility.yul\":11442:11466   */\n      tag_289\n      jump\t// in\n    tag_292:\n        /* \"#utility.yul\":11431:11466   */\n      swap1\n      pop\n        /* \"#utility.yul\":11368:11472   */\n      swap2\n      swap1\n      pop\n      jump\t// out\n        /* \"#utility.yul\":11478:11568   */\n    tag_293:\n        /* \"#utility.yul\":11512:11519   */\n      0x00\n        /* \"#utility.yul\":11555:11560   */\n      dup2\n        /* \"#utility.yul\":11548:11561   */\n      iszero\n        /* \"#utility.yul\":11541:11562   */\n      iszero\n        /* \"#utility.yul\":11530:11562   */\n      swap1\n      pop\n        /* \"#utility.yul\":11478:11568   */\n      swap2\n      swap1\n      pop\n      jump\t// out\n        /* \"#utility.yul\":11574:11700   */\n    tag_289:\n        /* \"#utility.yul\":11611:11618   */\n      0x00\n        /* \"#utility.yul\":11651:11693   */\n      0xffffffffffffffffffffffffffffffffffffffff\n        /* \"#utility.yul\":11644:11649   */\n      dup3\n        /* \"#utility.yul\":11640:11694   */\n      and\n        /* \"#utility.yul\":11629:11694   */\n      swap1\n      pop\n        /* \"#utility.yul\":11574:11700   */\n      swap2\n      swap1\n      pop\n      jump\t// out\n        /* \"#utility.yul\":11706:11783   */\n    tag_238:\n        /* \"#utility.yul\":11743:11750   */\n      0x00\n        /* \"#utility.yul\":11772:11777   */\n      dup2\n        /* \"#utility.yul\":11761:11777   */\n      swap1\n      pop\n        /* \"#utility.yul\":11706:11783   */\n      swap2\n      swap1\n      pop\n      jump\t// out\n        /* \"#utility.yul\":11789:11969   */\n    tag_270:\n        /* \"#utility.yul\":11837:11914   */\n      0x4e487b7100000000000000000000000000000000000000000000000000000000\n        /* \"#utility.yul\":11834:11835   */\n      0x00\n        /* \"#utility.yul\":11827:11915   */\n      mstore\n        /* \"#utility.yul\":11934:11938   */\n      0x11\n        /* \"#utility.yul\":11931:11932   */\n      0x04\n        /* \"#utility.yul\":11924:11939   */\n      mstore\n        /* \"#utility.yul\":11958:11962   */\n      0x24\n        /* \"#utility.yul\":11955:11956   */\n      0x00\n        /* \"#utility.yul\":11948:11963   */\n      revert\n        /* \"#utility.yul\":11975:12155   */\n    tag_276:\n        /* \"#utility.yul\":12023:12100   */\n      0x4e487b7100000000000000000000000000000000000000000000000000000000\n        /* \"#utility.yul\":12020:12021   */\n      0x00\n        /* \"#utility.yul\":12013:12101   */\n      mstore\n        /* \"#utility.yul\":12120:12124   */\n      0x12\n        /* \"#utility.yul\":12117:12118   */\n      0x04\n        /* \"#utility.yul\":12110:12125   */\n      mstore\n        /* \"#utility.yul\":12144:12148   */\n      0x24\n        /* \"#utility.yul\":12141:12142   */\n      0x00\n        /* \"#utility.yul\":12134:12149   */\n      revert\n        /* \"#utility.yul\":12284:12401   */\n    tag_169:\n        /* \"#utility.yul\":12393:12394   */\n      0x00\n        /* \"#utility.yul\":12390:12391   */\n      dup1\n        /* \"#utility.yul\":12383:12395   */\n      revert\n        /* \"#utility.yul\":12407:12632   */\n    tag_193:\n        /* \"#utility.yul\":12547:12581   */\n      0x4f776e61626c653a206e6577206f776e657220697320746865207a65726f2061\n        /* \"#utility.yul\":12543:12544   */\n      0x00\n        /* \"#utility.yul\":12535:12541   */\n      dup3\n        /* \"#utility.yul\":12531:12545   */\n      add\n        /* \"#utility.yul\":12524:12582   */\n      mstore\n        /* \"#utility.yul\":12616:12624   */\n      0x6464726573730000000000000000000000000000000000000000000000000000\n        /* \"#utility.yul\":12611:12613   */\n      0x20\n        /* \"#utility.yul\":12603:12609   */\n      dup3\n        /* \"#utility.yul\":12599:12614   */\n      add\n        /* \"#utility.yul\":12592:12625   */\n      mstore\n        /* \"#utility.yul\":12407:12632   */\n      pop\n      jump\t// out\n        /* \"#utility.yul\":12638:12883   */\n    tag_198:\n        /* \"#utility.yul\":12778:12812   */\n      0x416464726573733a20756e61626c6520746f2073656e642076616c75652c2072\n        /* \"#utility.yul\":12774:12775   */\n      0x00\n        /* \"#utility.yul\":12766:12772   */\n      dup3\n        /* \"#utility.yul\":12762:12776   */\n      add\n        /* \"#utility.yul\":12755:12813   */\n      mstore\n        /* \"#utility.yul\":12847:12875   */\n      0x6563697069656e74206d61792068617665207265766572746564000000000000\n        /* \"#utility.yul\":12842:12844   */\n      0x20\n        /* \"#utility.yul\":12834:12840   */\n      dup3\n        /* \"#utility.yul\":12830:12845   */\n      add\n        /* \"#utility.yul\":12823:12876   */\n      mstore\n        /* \"#utility.yul\":12638:12883   */\n      pop\n      jump\t// out\n        /* \"#utility.yul\":12889:13068   */\n    tag_203:\n        /* \"#utility.yul\":13029:13060   */\n      0x416464726573733a20696e73756666696369656e742062616c616e6365000000\n        /* \"#utility.yul\":13025:13026   */\n      0x00\n        /* \"#utility.yul\":13017:13023   */\n      dup3\n        /* \"#utility.yul\":13013:13027   */\n      add\n        /* \"#utility.yul\":13006:13061   */\n      mstore\n        /* \"#utility.yul\":12889:13068   */\n      pop\n      jump\t// out\n        /* \"#utility.yul\":13074:13252   */\n    tag_208:\n        /* \"#utility.yul\":13214:13244   */\n      0x63616c6c6572206973206e6f742074686520636f6e74726163746f7200000000\n        /* \"#utility.yul\":13210:13211   */\n      0x00\n        /* \"#utility.yul\":13202:13208   */\n      dup3\n        /* \"#utility.yul\":13198:13212   */\n      add\n        /* \"#utility.yul\":13191:13245   */\n      mstore\n        /* \"#utility.yul\":13074:13252   */\n      pop\n      jump\t// out\n        /* \"#utility.yul\":13258:13440   */\n    tag_213:\n        /* \"#utility.yul\":13398:13432   */\n      0x4f776e61626c653a2063616c6c6572206973206e6f7420746865206f776e6572\n        /* \"#utility.yul\":13394:13395   */\n      0x00\n        /* \"#utility.yul\":13386:13392   */\n      dup3\n        /* \"#utility.yul\":13382:13396   */\n      add\n        /* \"#utility.yul\":13375:13433   */\n      mstore\n        /* \"#utility.yul\":13258:13440   */\n      pop\n      jump\t// out\n        /* \"#utility.yul\":13446:13560   */\n    tag_219:\n      pop\n      jump\t// out\n        /* \"#utility.yul\":13566:13800   */\n    tag_224:\n        /* \"#utility.yul\":13706:13740   */\n      0x436f6e74726163746f7220416464726573732063616e6e6f7420626520636861\n        /* \"#utility.yul\":13702:13703   */\n      0x00\n        /* \"#utility.yul\":13694:13700   */\n      dup3\n        /* \"#utility.yul\":13690:13704   */\n      add\n        /* \"#utility.yul\":13683:13741   */\n      mstore\n        /* \"#utility.yul\":13775:13792   */\n      0x6e676564206f6e63652061646465640000000000000000000000000000000000\n        /* \"#utility.yul\":13770:13772   */\n      0x20\n        /* \"#utility.yul\":13762:13768   */\n      dup3\n        /* \"#utility.yul\":13758:13773   */\n      add\n        /* \"#utility.yul\":13751:13793   */\n      mstore\n        /* \"#utility.yul\":13566:13800   */\n      pop\n      jump\t// out\n        /* \"#utility.yul\":13806:13979   */\n    tag_229:\n        /* \"#utility.yul\":13946:13971   */\n      0x63616c6c6572206973206e6f74207468652061646d696e000000000000000000\n        /* \"#utility.yul\":13942:13943   */\n      0x00\n        /* \"#utility.yul\":13934:13940   */\n      dup3\n        /* \"#utility.yul\":13930:13944   */\n      add\n        /* \"#utility.yul\":13923:13972   */\n      mstore\n        /* \"#utility.yul\":13806:13979   */\n      pop\n      jump\t// out\n        /* \"#utility.yul\":13985:14159   */\n    tag_234:\n        /* \"#utility.yul\":14125:14151   */\n      0x63616c6c6572206973206e6f742074686520636c69656e740000000000000000\n        /* \"#utility.yul\":14121:14122   */\n      0x00\n        /* \"#utility.yul\":14113:14119   */\n      dup3\n        /* \"#utility.yul\":14109:14123   */\n      add\n        /* \"#utility.yul\":14102:14152   */\n      mstore\n        /* \"#utility.yul\":13985:14159   */\n      pop\n      jump\t// out\n        /* \"#utility.yul\":14165:14287   */\n    tag_157:\n        /* \"#utility.yul\":14238:14262   */\n      tag_312\n        /* \"#utility.yul\":14256:14261   */\n      dup2\n        /* \"#utility.yul\":14238:14262   */\n      tag_187\n      jump\t// in\n    tag_312:\n        /* \"#utility.yul\":14231:14236   */\n      dup2\n        /* \"#utility.yul\":14228:14263   */\n      eq\n        /* \"#utility.yul\":14218:14281   */\n      tag_313\n      jumpi\n        /* \"#utility.yul\":14277:14278   */\n      0x00\n        /* \"#utility.yul\":14274:14275   */\n      dup1\n        /* \"#utility.yul\":14267:14279   */\n      revert\n        /* \"#utility.yul\":14218:14281   */\n    tag_313:\n        /* \"#utility.yul\":14165:14287   */\n      pop\n      jump\t// out\n        /* \"#utility.yul\":14293:14431   */\n    tag_161:\n        /* \"#utility.yul\":14374:14406   */\n      tag_315\n        /* \"#utility.yul\":14400:14405   */\n      dup2\n        /* \"#utility.yul\":14374:14406   */\n      tag_290\n      jump\t// in\n    tag_315:\n        /* \"#utility.yul\":14367:14372   */\n      dup2\n        /* \"#utility.yul\":14364:14407   */\n      eq\n        /* \"#utility.yul\":14354:14425   */\n      tag_316\n      jumpi\n        /* \"#utility.yul\":14421:14422   */\n      0x00\n        /* \"#utility.yul\":14418:14419   */\n      dup1\n        /* \"#utility.yul\":14411:14423   */\n      revert\n        /* \"#utility.yul\":14354:14425   */\n    tag_316:\n        /* \"#utility.yul\":14293:14431   */\n      pop\n      jump\t// out\n        /* \"#utility.yul\":14437:14553   */\n    tag_165:\n        /* \"#utility.yul\":14507:14528   */\n      tag_318\n        /* \"#utility.yul\":14522:14527   */\n      dup2\n        /* \"#utility.yul\":14507:14528   */\n      tag_293\n      jump\t// in\n    tag_318:\n        /* \"#utility.yul\":14500:14505   */\n      dup2\n        /* \"#utility.yul\":14497:14529   */\n      eq\n        /* \"#utility.yul\":14487:14547   */\n      tag_319\n      jumpi\n        /* \"#utility.yul\":14543:14544   */\n      0x00\n        /* \"#utility.yul\":14540:14541   */\n      dup1\n        /* \"#utility.yul\":14533:14545   */\n      revert\n        /* \"#utility.yul\":14487:14547   */\n    tag_319:\n        /* \"#utility.yul\":14437:14553   */\n      pop\n      jump\t// out\n\n    auxdata: 0xa2646970667358221220e84b974b9e393a7a6f66523692b0b00e95f89266082a20933ba812e8cf2d598964736f6c63430008070033\n}\n",
				"bytecode": {
					"linkReferences": {},
					"object": "608060405234801561001057600080fd5b5061002d61002261003260201b60201c565b61003a60201b60201c565b6100fe565b600033905090565b60008060009054906101000a900473ffffffffffffffffffffffffffffffffffffffff169050816000806101000a81548173ffffffffffffffffffffffffffffffffffffffff021916908373ffffffffffffffffffffffffffffffffffffffff1602179055508173ffffffffffffffffffffffffffffffffffffffff168173ffffffffffffffffffffffffffffffffffffffff167f8be0079c531659141344cd1fd0a4f28419497f9722a3daafe3b4186f6b6457e060405160405180910390a35050565b6113868061010d6000396000f3fe6080604052600436106100915760003560e01c8063761768b611610059578063761768b6146101515780638da5cb5b1461017a5780639464c8b8146101a5578063d0e30db0146101ce578063f2fde38b146101d857610091565b806311571f3014610096578063251d8cd5146100bf57806343928cfd146100e85780637048027514610111578063715018a61461013a575b600080fd5b3480156100a257600080fd5b506100bd60048036038101906100b89190610c7c565b610201565b005b3480156100cb57600080fd5b506100e660048036038101906100e19190610c4f565b610249565b005b3480156100f457600080fd5b5061010f600480360381019061010a9190610c22565b61026e565b005b34801561011d57600080fd5b5061013860048036038101906101339190610c22565b6102fd565b005b34801561014657600080fd5b5061014f610384565b005b34801561015d57600080fd5b5061017860048036038101906101739190610c22565b610398565b005b34801561018657600080fd5b5061018f610487565b60405161019c9190610e2a565b60405180910390f35b3480156101b157600080fd5b506101cc60048036038101906101c79190610c4f565b6104b0565b005b6101d66104dd565b005b3480156101e457600080fd5b506101ff60048036038101906101fa9190610bf5565b610524565b005b6102096105a8565b81600660026101000a81548160ff02191690831515021790555080600660036101000a81548160ff02191690831515021790555061024561063a565b5050565b610251610854565b80600660006101000a81548160ff02191690831515021790555050565b6102766108e6565b80600260006101000a81548173ffffffffffffffffffffffffffffffffffffffff021916908373ffffffffffffffffffffffffffffffffffffffff1602179055508073ffffffffffffffffffffffffffffffffffffffff167f6c713924da8f1e694559181e3497cb03c970f0f7c023d913207d0410b531741e60405160405180910390a250565b80600360006101000a81548173ffffffffffffffffffffffffffffffffffffffff021916908373ffffffffffffffffffffffffffffffffffffffff1602179055508073ffffffffffffffffffffffffffffffffffffffff167f44d6d25963f097ad14f29f06854a01f575648a1ef82f30e562ccd3889717e33960405160405180910390a250565b61038c6108e6565b6103966000610964565b565b6103a06108e6565b600160055411156103e6576040517f08c379a00000000000000000000000000000000000000000000000000000000081526004016103dd90610ee5565b60405180910390fd5b80600160006101000a81548173ffffffffffffffffffffffffffffffffffffffff021916908373ffffffffffffffffffffffffffffffffffffffff16021790555060016005600082825461043a9190610f7c565b925050819055508073ffffffffffffffffffffffffffffffffffffffff167f29dc23bcd72bfb02ec013f6350778cb6e5908dc02e5e1234385f27e32676b6e160405160405180910390a250565b60008060009054906101000a900473ffffffffffffffffffffffffffffffffffffffff16905090565b6104b8610a28565b80600660016101000a81548160ff0219169083151502179055506104da61063a565b50565b6104e5610a28565b60003490507f2a89b2e3d580398d6dc2db5e0f336b52602bbaa51afa9bb5cdf59239cf0d2bea816040516105199190610f45565b60405180910390a150565b61052c6108e6565b600073ffffffffffffffffffffffffffffffffffffffff168173ffffffffffffffffffffffffffffffffffffffff16141561059c576040517f08c379a000000000000000000000000000000000000000000000000000000000815260040161059390610e45565b60405180910390fd5b6105a581610964565b50565b600360009054906101000a900473ffffffffffffffffffffffffffffffffffffffff1673ffffffffffffffffffffffffffffffffffffffff163373ffffffffffffffffffffffffffffffffffffffff1614610638576040517f08c379a000000000000000000000000000000000000000000000000000000000815260040161062f90610f05565b60405180910390fd5b565b6000479050600060646002836106509190611003565b61065a9190610fd2565b90508082610668919061105d565b915060011515600660009054906101000a900460ff1615151480156106a0575060011515600660019054906101000a900460ff161515145b806106dd575060011515600660029054906101000a900460ff1615151480156106dc575060011515600660039054906101000a900460ff161515145b5b1561077d5761072d82600160009054906101000a900473ffffffffffffffffffffffffffffffffffffffff1673ffffffffffffffffffffffffffffffffffffffff16610aba90919063ffffffff16565b61077881600360009054906101000a900473ffffffffffffffffffffffffffffffffffffffff1673ffffffffffffffffffffffffffffffffffffffff16610aba90919063ffffffff16565b610850565b60011515600660029054906101000a900460ff1615151480156107b3575060001515600660039054906101000a900460ff161515145b1561084f5761080382600260009054906101000a900473ffffffffffffffffffffffffffffffffffffffff1673ffffffffffffffffffffffffffffffffffffffff16610aba90919063ffffffff16565b61084e81600360009054906101000a900473ffffffffffffffffffffffffffffffffffffffff1673ffffffffffffffffffffffffffffffffffffffff16610aba90919063ffffffff16565b5b5b5050565b600160009054906101000a900473ffffffffffffffffffffffffffffffffffffffff1673ffffffffffffffffffffffffffffffffffffffff163373ffffffffffffffffffffffffffffffffffffffff16146108e4576040517f08c379a00000000000000000000000000000000000000000000000000000000081526004016108db90610ea5565b60405180910390fd5b565b6108ee610bae565b73ffffffffffffffffffffffffffffffffffffffff1661090c610487565b73ffffffffffffffffffffffffffffffffffffffff1614610962576040517f08c379a000000000000000000000000000000000000000000000000000000000815260040161095990610ec5565b60405180910390fd5b565b60008060009054906101000a900473ffffffffffffffffffffffffffffffffffffffff169050816000806101000a81548173ffffffffffffffffffffffffffffffffffffffff021916908373ffffffffffffffffffffffffffffffffffffffff1602179055508173ffffffffffffffffffffffffffffffffffffffff168173ffffffffffffffffffffffffffffffffffffffff167f8be0079c531659141344cd1fd0a4f28419497f9722a3daafe3b4186f6b6457e060405160405180910390a35050565b600260009054906101000a900473ffffffffffffffffffffffffffffffffffffffff1673ffffffffffffffffffffffffffffffffffffffff163373ffffffffffffffffffffffffffffffffffffffff1614610ab8576040517f08c379a0000000000000000000000000000000000000000000000000000000008152600401610aaf90610f25565b60405180910390fd5b565b80471015610afd576040517f08c379a0000000000000000000000000000000000000000000000000000000008152600401610af490610e85565b60405180910390fd5b60008273ffffffffffffffffffffffffffffffffffffffff1682604051610b2390610e15565b60006040518083038185875af1925050503d8060008114610b60576040519150601f19603f3d011682016040523d82523d6000602084013e610b65565b606091505b5050905080610ba9576040517f08c379a0000000000000000000000000000000000000000000000000000000008152600401610ba090610e65565b60405180910390fd5b505050565b600033905090565b600081359050610bc58161130b565b92915050565b600081359050610bda81611322565b92915050565b600081359050610bef81611339565b92915050565b600060208284031215610c0b57610c0a611149565b5b6000610c1984828501610bb6565b91505092915050565b600060208284031215610c3857610c37611149565b5b6000610c4684828501610bcb565b91505092915050565b600060208284031215610c6557610c64611149565b5b6000610c7384828501610be0565b91505092915050565b60008060408385031215610c9357610c92611149565b5b6000610ca185828601610be0565b9250506020610cb285828601610be0565b9150509250929050565b610cc581611091565b82525050565b6000610cd8602683610f6b565b9150610ce38261114e565b604082019050919050565b6000610cfb603a83610f6b565b9150610d068261119d565b604082019050919050565b6000610d1e601d83610f6b565b9150610d29826111ec565b602082019050919050565b6000610d41601c83610f6b565b9150610d4c82611215565b602082019050919050565b6000610d64602083610f6b565b9150610d6f8261123e565b602082019050919050565b6000610d87600083610f60565b9150610d9282611267565b600082019050919050565b6000610daa602f83610f6b565b9150610db58261126a565b604082019050919050565b6000610dcd601783610f6b565b9150610dd8826112b9565b602082019050919050565b6000610df0601883610f6b565b9150610dfb826112e2565b602082019050919050565b610e0f816110e1565b82525050565b6000610e2082610d7a565b9150819050919050565b6000602082019050610e3f6000830184610cbc565b92915050565b60006020820190508181036000830152610e5e81610ccb565b9050919050565b60006020820190508181036000830152610e7e81610cee565b9050919050565b60006020820190508181036000830152610e9e81610d11565b9050919050565b60006020820190508181036000830152610ebe81610d34565b9050919050565b60006020820190508181036000830152610ede81610d57565b9050919050565b60006020820190508181036000830152610efe81610d9d565b9050919050565b60006020820190508181036000830152610f1e81610dc0565b9050919050565b60006020820190508181036000830152610f3e81610de3565b9050919050565b6000602082019050610f5a6000830184610e06565b92915050565b600081905092915050565b600082825260208201905092915050565b6000610f87826110e1565b9150610f92836110e1565b9250827fffffffffffffffffffffffffffffffffffffffffffffffffffffffffffffffff03821115610fc757610fc66110eb565b5b828201905092915050565b6000610fdd826110e1565b9150610fe8836110e1565b925082610ff857610ff761111a565b5b828204905092915050565b600061100e826110e1565b9150611019836110e1565b9250817fffffffffffffffffffffffffffffffffffffffffffffffffffffffffffffffff0483118215151615611052576110516110eb565b5b828202905092915050565b6000611068826110e1565b9150611073836110e1565b925082821015611086576110856110eb565b5b828203905092915050565b600061109c826110c1565b9050919050565b60006110ae826110c1565b9050919050565b60008115159050919050565b600073ffffffffffffffffffffffffffffffffffffffff82169050919050565b6000819050919050565b7f4e487b7100000000000000000000000000000000000000000000000000000000600052601160045260246000fd5b7f4e487b7100000000000000000000000000000000000000000000000000000000600052601260045260246000fd5b600080fd5b7f4f776e61626c653a206e6577206f776e657220697320746865207a65726f206160008201527f6464726573730000000000000000000000000000000000000000000000000000602082015250565b7f416464726573733a20756e61626c6520746f2073656e642076616c75652c207260008201527f6563697069656e74206d61792068617665207265766572746564000000000000602082015250565b7f416464726573733a20696e73756666696369656e742062616c616e6365000000600082015250565b7f63616c6c6572206973206e6f742074686520636f6e74726163746f7200000000600082015250565b7f4f776e61626c653a2063616c6c6572206973206e6f7420746865206f776e6572600082015250565b50565b7f436f6e74726163746f7220416464726573732063616e6e6f742062652063686160008201527f6e676564206f6e63652061646465640000000000000000000000000000000000602082015250565b7f63616c6c6572206973206e6f74207468652061646d696e000000000000000000600082015250565b7f63616c6c6572206973206e6f742074686520636c69656e740000000000000000600082015250565b61131481611091565b811461131f57600080fd5b50565b61132b816110a3565b811461133657600080fd5b50565b611342816110b5565b811461134d57600080fd5b5056fea2646970667358221220e84b974b9e393a7a6f66523692b0b00e95f89266082a20933ba812e8cf2d598964736f6c63430008070033",
					"opcodes": "PUSH1 0x80 PUSH1 0x40 MSTORE CALLVALUE DUP1 ISZERO PUSH2 0x10 JUMPI PUSH1 0x0 DUP1 REVERT JUMPDEST POP PUSH2 0x2D PUSH2 0x22 PUSH2 0x32 PUSH1 0x20 SHL PUSH1 0x20 SHR JUMP JUMPDEST PUSH2 0x3A PUSH1 0x20 SHL PUSH1 0x20 SHR JUMP JUMPDEST PUSH2 0xFE JUMP JUMPDEST PUSH1 0x0 CALLER SWAP1 POP SWAP1 JUMP JUMPDEST PUSH1 0x0 DUP1 PUSH1 0x0 SWAP1 SLOAD SWAP1 PUSH2 0x100 EXP SWAP1 DIV PUSH20 0xFFFFFFFFFFFFFFFFFFFFFFFFFFFFFFFFFFFFFFFF AND SWAP1 POP DUP2 PUSH1 0x0 DUP1 PUSH2 0x100 EXP DUP2 SLOAD DUP2 PUSH20 0xFFFFFFFFFFFFFFFFFFFFFFFFFFFFFFFFFFFFFFFF MUL NOT AND SWAP1 DUP4 PUSH20 0xFFFFFFFFFFFFFFFFFFFFFFFFFFFFFFFFFFFFFFFF AND MUL OR SWAP1 SSTORE POP DUP2 PUSH20 0xFFFFFFFFFFFFFFFFFFFFFFFFFFFFFFFFFFFFFFFF AND DUP2 PUSH20 0xFFFFFFFFFFFFFFFFFFFFFFFFFFFFFFFFFFFFFFFF AND PUSH32 0x8BE0079C531659141344CD1FD0A4F28419497F9722A3DAAFE3B4186F6B6457E0 PUSH1 0x40 MLOAD PUSH1 0x40 MLOAD DUP1 SWAP2 SUB SWAP1 LOG3 POP POP JUMP JUMPDEST PUSH2 0x1386 DUP1 PUSH2 0x10D PUSH1 0x0 CODECOPY PUSH1 0x0 RETURN INVALID PUSH1 0x80 PUSH1 0x40 MSTORE PUSH1 0x4 CALLDATASIZE LT PUSH2 0x91 JUMPI PUSH1 0x0 CALLDATALOAD PUSH1 0xE0 SHR DUP1 PUSH4 0x761768B6 GT PUSH2 0x59 JUMPI DUP1 PUSH4 0x761768B6 EQ PUSH2 0x151 JUMPI DUP1 PUSH4 0x8DA5CB5B EQ PUSH2 0x17A JUMPI DUP1 PUSH4 0x9464C8B8 EQ PUSH2 0x1A5 JUMPI DUP1 PUSH4 0xD0E30DB0 EQ PUSH2 0x1CE JUMPI DUP1 PUSH4 0xF2FDE38B EQ PUSH2 0x1D8 JUMPI PUSH2 0x91 JUMP JUMPDEST DUP1 PUSH4 0x11571F30 EQ PUSH2 0x96 JUMPI DUP1 PUSH4 0x251D8CD5 EQ PUSH2 0xBF JUMPI DUP1 PUSH4 0x43928CFD EQ PUSH2 0xE8 JUMPI DUP1 PUSH4 0x70480275 EQ PUSH2 0x111 JUMPI DUP1 PUSH4 0x715018A6 EQ PUSH2 0x13A JUMPI JUMPDEST PUSH1 0x0 DUP1 REVERT JUMPDEST CALLVALUE DUP1 ISZERO PUSH2 0xA2 JUMPI PUSH1 0x0 DUP1 REVERT JUMPDEST POP PUSH2 0xBD PUSH1 0x4 DUP1 CALLDATASIZE SUB DUP2 ADD SWAP1 PUSH2 0xB8 SWAP2 SWAP1 PUSH2 0xC7C JUMP JUMPDEST PUSH2 0x201 JUMP JUMPDEST STOP JUMPDEST CALLVALUE DUP1 ISZERO PUSH2 0xCB JUMPI PUSH1 0x0 DUP1 REVERT JUMPDEST POP PUSH2 0xE6 PUSH1 0x4 DUP1 CALLDATASIZE SUB DUP2 ADD SWAP1 PUSH2 0xE1 SWAP2 SWAP1 PUSH2 0xC4F JUMP JUMPDEST PUSH2 0x249 JUMP JUMPDEST STOP JUMPDEST CALLVALUE DUP1 ISZERO PUSH2 0xF4 JUMPI PUSH1 0x0 DUP1 REVERT JUMPDEST POP PUSH2 0x10F PUSH1 0x4 DUP1 CALLDATASIZE SUB DUP2 ADD SWAP1 PUSH2 0x10A SWAP2 SWAP1 PUSH2 0xC22 JUMP JUMPDEST PUSH2 0x26E JUMP JUMPDEST STOP JUMPDEST CALLVALUE DUP1 ISZERO PUSH2 0x11D JUMPI PUSH1 0x0 DUP1 REVERT JUMPDEST POP PUSH2 0x138 PUSH1 0x4 DUP1 CALLDATASIZE SUB DUP2 ADD SWAP1 PUSH2 0x133 SWAP2 SWAP1 PUSH2 0xC22 JUMP JUMPDEST PUSH2 0x2FD JUMP JUMPDEST STOP JUMPDEST CALLVALUE DUP1 ISZERO PUSH2 0x146 JUMPI PUSH1 0x0 DUP1 REVERT JUMPDEST POP PUSH2 0x14F PUSH2 0x384 JUMP JUMPDEST STOP JUMPDEST CALLVALUE DUP1 ISZERO PUSH2 0x15D JUMPI PUSH1 0x0 DUP1 REVERT JUMPDEST POP PUSH2 0x178 PUSH1 0x4 DUP1 CALLDATASIZE SUB DUP2 ADD SWAP1 PUSH2 0x173 SWAP2 SWAP1 PUSH2 0xC22 JUMP JUMPDEST PUSH2 0x398 JUMP JUMPDEST STOP JUMPDEST CALLVALUE DUP1 ISZERO PUSH2 0x186 JUMPI PUSH1 0x0 DUP1 REVERT JUMPDEST POP PUSH2 0x18F PUSH2 0x487 JUMP JUMPDEST PUSH1 0x40 MLOAD PUSH2 0x19C SWAP2 SWAP1 PUSH2 0xE2A JUMP JUMPDEST PUSH1 0x40 MLOAD DUP1 SWAP2 SUB SWAP1 RETURN JUMPDEST CALLVALUE DUP1 ISZERO PUSH2 0x1B1 JUMPI PUSH1 0x0 DUP1 REVERT JUMPDEST POP PUSH2 0x1CC PUSH1 0x4 DUP1 CALLDATASIZE SUB DUP2 ADD SWAP1 PUSH2 0x1C7 SWAP2 SWAP1 PUSH2 0xC4F JUMP JUMPDEST PUSH2 0x4B0 JUMP JUMPDEST STOP JUMPDEST PUSH2 0x1D6 PUSH2 0x4DD JUMP JUMPDEST STOP JUMPDEST CALLVALUE DUP1 ISZERO PUSH2 0x1E4 JUMPI PUSH1 0x0 DUP1 REVERT JUMPDEST POP PUSH2 0x1FF PUSH1 0x4 DUP1 CALLDATASIZE SUB DUP2 ADD SWAP1 PUSH2 0x1FA SWAP2 SWAP1 PUSH2 0xBF5 JUMP JUMPDEST PUSH2 0x524 JUMP JUMPDEST STOP JUMPDEST PUSH2 0x209 PUSH2 0x5A8 JUMP JUMPDEST DUP2 PUSH1 0x6 PUSH1 0x2 PUSH2 0x100 EXP DUP2 SLOAD DUP2 PUSH1 0xFF MUL NOT AND SWAP1 DUP4 ISZERO ISZERO MUL OR SWAP1 SSTORE POP DUP1 PUSH1 0x6 PUSH1 0x3 PUSH2 0x100 EXP DUP2 SLOAD DUP2 PUSH1 0xFF MUL NOT AND SWAP1 DUP4 ISZERO ISZERO MUL OR SWAP1 SSTORE POP PUSH2 0x245 PUSH2 0x63A JUMP JUMPDEST POP POP JUMP JUMPDEST PUSH2 0x251 PUSH2 0x854 JUMP JUMPDEST DUP1 PUSH1 0x6 PUSH1 0x0 PUSH2 0x100 EXP DUP2 SLOAD DUP2 PUSH1 0xFF MUL NOT AND SWAP1 DUP4 ISZERO ISZERO MUL OR SWAP1 SSTORE POP POP JUMP JUMPDEST PUSH2 0x276 PUSH2 0x8E6 JUMP JUMPDEST DUP1 PUSH1 0x2 PUSH1 0x0 PUSH2 0x100 EXP DUP2 SLOAD DUP2 PUSH20 0xFFFFFFFFFFFFFFFFFFFFFFFFFFFFFFFFFFFFFFFF MUL NOT AND SWAP1 DUP4 PUSH20 0xFFFFFFFFFFFFFFFFFFFFFFFFFFFFFFFFFFFFFFFF AND MUL OR SWAP1 SSTORE POP DUP1 PUSH20 0xFFFFFFFFFFFFFFFFFFFFFFFFFFFFFFFFFFFFFFFF AND PUSH32 0x6C713924DA8F1E694559181E3497CB03C970F0F7C023D913207D0410B531741E PUSH1 0x40 MLOAD PUSH1 0x40 MLOAD DUP1 SWAP2 SUB SWAP1 LOG2 POP JUMP JUMPDEST DUP1 PUSH1 0x3 PUSH1 0x0 PUSH2 0x100 EXP DUP2 SLOAD DUP2 PUSH20 0xFFFFFFFFFFFFFFFFFFFFFFFFFFFFFFFFFFFFFFFF MUL NOT AND SWAP1 DUP4 PUSH20 0xFFFFFFFFFFFFFFFFFFFFFFFFFFFFFFFFFFFFFFFF AND MUL OR SWAP1 SSTORE POP DUP1 PUSH20 0xFFFFFFFFFFFFFFFFFFFFFFFFFFFFFFFFFFFFFFFF AND PUSH32 0x44D6D25963F097AD14F29F06854A01F575648A1EF82F30E562CCD3889717E339 PUSH1 0x40 MLOAD PUSH1 0x40 MLOAD DUP1 SWAP2 SUB SWAP1 LOG2 POP JUMP JUMPDEST PUSH2 0x38C PUSH2 0x8E6 JUMP JUMPDEST PUSH2 0x396 PUSH1 0x0 PUSH2 0x964 JUMP JUMPDEST JUMP JUMPDEST PUSH2 0x3A0 PUSH2 0x8E6 JUMP JUMPDEST PUSH1 0x1 PUSH1 0x5 SLOAD GT ISZERO PUSH2 0x3E6 JUMPI PUSH1 0x40 MLOAD PUSH32 0x8C379A000000000000000000000000000000000000000000000000000000000 DUP2 MSTORE PUSH1 0x4 ADD PUSH2 0x3DD SWAP1 PUSH2 0xEE5 JUMP JUMPDEST PUSH1 0x40 MLOAD DUP1 SWAP2 SUB SWAP1 REVERT JUMPDEST DUP1 PUSH1 0x1 PUSH1 0x0 PUSH2 0x100 EXP DUP2 SLOAD DUP2 PUSH20 0xFFFFFFFFFFFFFFFFFFFFFFFFFFFFFFFFFFFFFFFF MUL NOT AND SWAP1 DUP4 PUSH20 0xFFFFFFFFFFFFFFFFFFFFFFFFFFFFFFFFFFFFFFFF AND MUL OR SWAP1 SSTORE POP PUSH1 0x1 PUSH1 0x5 PUSH1 0x0 DUP3 DUP3 SLOAD PUSH2 0x43A SWAP2 SWAP1 PUSH2 0xF7C JUMP JUMPDEST SWAP3 POP POP DUP2 SWAP1 SSTORE POP DUP1 PUSH20 0xFFFFFFFFFFFFFFFFFFFFFFFFFFFFFFFFFFFFFFFF AND PUSH32 0x29DC23BCD72BFB02EC013F6350778CB6E5908DC02E5E1234385F27E32676B6E1 PUSH1 0x40 MLOAD PUSH1 0x40 MLOAD DUP1 SWAP2 SUB SWAP1 LOG2 POP JUMP JUMPDEST PUSH1 0x0 DUP1 PUSH1 0x0 SWAP1 SLOAD SWAP1 PUSH2 0x100 EXP SWAP1 DIV PUSH20 0xFFFFFFFFFFFFFFFFFFFFFFFFFFFFFFFFFFFFFFFF AND SWAP1 POP SWAP1 JUMP JUMPDEST PUSH2 0x4B8 PUSH2 0xA28 JUMP JUMPDEST DUP1 PUSH1 0x6 PUSH1 0x1 PUSH2 0x100 EXP DUP2 SLOAD DUP2 PUSH1 0xFF MUL NOT AND SWAP1 DUP4 ISZERO ISZERO MUL OR SWAP1 SSTORE POP PUSH2 0x4DA PUSH2 0x63A JUMP JUMPDEST POP JUMP JUMPDEST PUSH2 0x4E5 PUSH2 0xA28 JUMP JUMPDEST PUSH1 0x0 CALLVALUE SWAP1 POP PUSH32 0x2A89B2E3D580398D6DC2DB5E0F336B52602BBAA51AFA9BB5CDF59239CF0D2BEA DUP2 PUSH1 0x40 MLOAD PUSH2 0x519 SWAP2 SWAP1 PUSH2 0xF45 JUMP JUMPDEST PUSH1 0x40 MLOAD DUP1 SWAP2 SUB SWAP1 LOG1 POP JUMP JUMPDEST PUSH2 0x52C PUSH2 0x8E6 JUMP JUMPDEST PUSH1 0x0 PUSH20 0xFFFFFFFFFFFFFFFFFFFFFFFFFFFFFFFFFFFFFFFF AND DUP2 PUSH20 0xFFFFFFFFFFFFFFFFFFFFFFFFFFFFFFFFFFFFFFFF AND EQ ISZERO PUSH2 0x59C JUMPI PUSH1 0x40 MLOAD PUSH32 0x8C379A000000000000000000000000000000000000000000000000000000000 DUP2 MSTORE PUSH1 0x4 ADD PUSH2 0x593 SWAP1 PUSH2 0xE45 JUMP JUMPDEST PUSH1 0x40 MLOAD DUP1 SWAP2 SUB SWAP1 REVERT JUMPDEST PUSH2 0x5A5 DUP2 PUSH2 0x964 JUMP JUMPDEST POP JUMP JUMPDEST PUSH1 0x3 PUSH1 0x0 SWAP1 SLOAD SWAP1 PUSH2 0x100 EXP SWAP1 DIV PUSH20 0xFFFFFFFFFFFFFFFFFFFFFFFFFFFFFFFFFFFFFFFF AND PUSH20 0xFFFFFFFFFFFFFFFFFFFFFFFFFFFFFFFFFFFFFFFF AND CALLER PUSH20 0xFFFFFFFFFFFFFFFFFFFFFFFFFFFFFFFFFFFFFFFF AND EQ PUSH2 0x638 JUMPI PUSH1 0x40 MLOAD PUSH32 0x8C379A000000000000000000000000000000000000000000000000000000000 DUP2 MSTORE PUSH1 0x4 ADD PUSH2 0x62F SWAP1 PUSH2 0xF05 JUMP JUMPDEST PUSH1 0x40 MLOAD DUP1 SWAP2 SUB SWAP1 REVERT JUMPDEST JUMP JUMPDEST PUSH1 0x0 SELFBALANCE SWAP1 POP PUSH1 0x0 PUSH1 0x64 PUSH1 0x2 DUP4 PUSH2 0x650 SWAP2 SWAP1 PUSH2 0x1003 JUMP JUMPDEST PUSH2 0x65A SWAP2 SWAP1 PUSH2 0xFD2 JUMP JUMPDEST SWAP1 POP DUP1 DUP3 PUSH2 0x668 SWAP2 SWAP1 PUSH2 0x105D JUMP JUMPDEST SWAP2 POP PUSH1 0x1 ISZERO ISZERO PUSH1 0x6 PUSH1 0x0 SWAP1 SLOAD SWAP1 PUSH2 0x100 EXP SWAP1 DIV PUSH1 0xFF AND ISZERO ISZERO EQ DUP1 ISZERO PUSH2 0x6A0 JUMPI POP PUSH1 0x1 ISZERO ISZERO PUSH1 0x6 PUSH1 0x1 SWAP1 SLOAD SWAP1 PUSH2 0x100 EXP SWAP1 DIV PUSH1 0xFF AND ISZERO ISZERO EQ JUMPDEST DUP1 PUSH2 0x6DD JUMPI POP PUSH1 0x1 ISZERO ISZERO PUSH1 0x6 PUSH1 0x2 SWAP1 SLOAD SWAP1 PUSH2 0x100 EXP SWAP1 DIV PUSH1 0xFF AND ISZERO ISZERO EQ DUP1 ISZERO PUSH2 0x6DC JUMPI POP PUSH1 0x1 ISZERO ISZERO PUSH1 0x6 PUSH1 0x3 SWAP1 SLOAD SWAP1 PUSH2 0x100 EXP SWAP1 DIV PUSH1 0xFF AND ISZERO ISZERO EQ JUMPDEST JUMPDEST ISZERO PUSH2 0x77D JUMPI PUSH2 0x72D DUP3 PUSH1 0x1 PUSH1 0x0 SWAP1 SLOAD SWAP1 PUSH2 0x100 EXP SWAP1 DIV PUSH20 0xFFFFFFFFFFFFFFFFFFFFFFFFFFFFFFFFFFFFFFFF AND PUSH20 0xFFFFFFFFFFFFFFFFFFFFFFFFFFFFFFFFFFFFFFFF AND PUSH2 0xABA SWAP1 SWAP2 SWAP1 PUSH4 0xFFFFFFFF AND JUMP JUMPDEST PUSH2 0x778 DUP2 PUSH1 0x3 PUSH1 0x0 SWAP1 SLOAD SWAP1 PUSH2 0x100 EXP SWAP1 DIV PUSH20 0xFFFFFFFFFFFFFFFFFFFFFFFFFFFFFFFFFFFFFFFF AND PUSH20 0xFFFFFFFFFFFFFFFFFFFFFFFFFFFFFFFFFFFFFFFF AND PUSH2 0xABA SWAP1 SWAP2 SWAP1 PUSH4 0xFFFFFFFF AND JUMP JUMPDEST PUSH2 0x850 JUMP JUMPDEST PUSH1 0x1 ISZERO ISZERO PUSH1 0x6 PUSH1 0x2 SWAP1 SLOAD SWAP1 PUSH2 0x100 EXP SWAP1 DIV PUSH1 0xFF AND ISZERO ISZERO EQ DUP1 ISZERO PUSH2 0x7B3 JUMPI POP PUSH1 0x0 ISZERO ISZERO PUSH1 0x6 PUSH1 0x3 SWAP1 SLOAD SWAP1 PUSH2 0x100 EXP SWAP1 DIV PUSH1 0xFF AND ISZERO ISZERO EQ JUMPDEST ISZERO PUSH2 0x84F JUMPI PUSH2 0x803 DUP3 PUSH1 0x2 PUSH1 0x0 SWAP1 SLOAD SWAP1 PUSH2 0x100 EXP SWAP1 DIV PUSH20 0xFFFFFFFFFFFFFFFFFFFFFFFFFFFFFFFFFFFFFFFF AND PUSH20 0xFFFFFFFFFFFFFFFFFFFFFFFFFFFFFFFFFFFFFFFF AND PUSH2 0xABA SWAP1 SWAP2 SWAP1 PUSH4 0xFFFFFFFF AND JUMP JUMPDEST PUSH2 0x84E DUP2 PUSH1 0x3 PUSH1 0x0 SWAP1 SLOAD SWAP1 PUSH2 0x100 EXP SWAP1 DIV PUSH20 0xFFFFFFFFFFFFFFFFFFFFFFFFFFFFFFFFFFFFFFFF AND PUSH20 0xFFFFFFFFFFFFFFFFFFFFFFFFFFFFFFFFFFFFFFFF AND PUSH2 0xABA SWAP1 SWAP2 SWAP1 PUSH4 0xFFFFFFFF AND JUMP JUMPDEST JUMPDEST JUMPDEST POP POP JUMP JUMPDEST PUSH1 0x1 PUSH1 0x0 SWAP1 SLOAD SWAP1 PUSH2 0x100 EXP SWAP1 DIV PUSH20 0xFFFFFFFFFFFFFFFFFFFFFFFFFFFFFFFFFFFFFFFF AND PUSH20 0xFFFFFFFFFFFFFFFFFFFFFFFFFFFFFFFFFFFFFFFF AND CALLER PUSH20 0xFFFFFFFFFFFFFFFFFFFFFFFFFFFFFFFFFFFFFFFF AND EQ PUSH2 0x8E4 JUMPI PUSH1 0x40 MLOAD PUSH32 0x8C379A000000000000000000000000000000000000000000000000000000000 DUP2 MSTORE PUSH1 0x4 ADD PUSH2 0x8DB SWAP1 PUSH2 0xEA5 JUMP JUMPDEST PUSH1 0x40 MLOAD DUP1 SWAP2 SUB SWAP1 REVERT JUMPDEST JUMP JUMPDEST PUSH2 0x8EE PUSH2 0xBAE JUMP JUMPDEST PUSH20 0xFFFFFFFFFFFFFFFFFFFFFFFFFFFFFFFFFFFFFFFF AND PUSH2 0x90C PUSH2 0x487 JUMP JUMPDEST PUSH20 0xFFFFFFFFFFFFFFFFFFFFFFFFFFFFFFFFFFFFFFFF AND EQ PUSH2 0x962 JUMPI PUSH1 0x40 MLOAD PUSH32 0x8C379A000000000000000000000000000000000000000000000000000000000 DUP2 MSTORE PUSH1 0x4 ADD PUSH2 0x959 SWAP1 PUSH2 0xEC5 JUMP JUMPDEST PUSH1 0x40 MLOAD DUP1 SWAP2 SUB SWAP1 REVERT JUMPDEST JUMP JUMPDEST PUSH1 0x0 DUP1 PUSH1 0x0 SWAP1 SLOAD SWAP1 PUSH2 0x100 EXP SWAP1 DIV PUSH20 0xFFFFFFFFFFFFFFFFFFFFFFFFFFFFFFFFFFFFFFFF AND SWAP1 POP DUP2 PUSH1 0x0 DUP1 PUSH2 0x100 EXP DUP2 SLOAD DUP2 PUSH20 0xFFFFFFFFFFFFFFFFFFFFFFFFFFFFFFFFFFFFFFFF MUL NOT AND SWAP1 DUP4 PUSH20 0xFFFFFFFFFFFFFFFFFFFFFFFFFFFFFFFFFFFFFFFF AND MUL OR SWAP1 SSTORE POP DUP2 PUSH20 0xFFFFFFFFFFFFFFFFFFFFFFFFFFFFFFFFFFFFFFFF AND DUP2 PUSH20 0xFFFFFFFFFFFFFFFFFFFFFFFFFFFFFFFFFFFFFFFF AND PUSH32 0x8BE0079C531659141344CD1FD0A4F28419497F9722A3DAAFE3B4186F6B6457E0 PUSH1 0x40 MLOAD PUSH1 0x40 MLOAD DUP1 SWAP2 SUB SWAP1 LOG3 POP POP JUMP JUMPDEST PUSH1 0x2 PUSH1 0x0 SWAP1 SLOAD SWAP1 PUSH2 0x100 EXP SWAP1 DIV PUSH20 0xFFFFFFFFFFFFFFFFFFFFFFFFFFFFFFFFFFFFFFFF AND PUSH20 0xFFFFFFFFFFFFFFFFFFFFFFFFFFFFFFFFFFFFFFFF AND CALLER PUSH20 0xFFFFFFFFFFFFFFFFFFFFFFFFFFFFFFFFFFFFFFFF AND EQ PUSH2 0xAB8 JUMPI PUSH1 0x40 MLOAD PUSH32 0x8C379A000000000000000000000000000000000000000000000000000000000 DUP2 MSTORE PUSH1 0x4 ADD PUSH2 0xAAF SWAP1 PUSH2 0xF25 JUMP JUMPDEST PUSH1 0x40 MLOAD DUP1 SWAP2 SUB SWAP1 REVERT JUMPDEST JUMP JUMPDEST DUP1 SELFBALANCE LT ISZERO PUSH2 0xAFD JUMPI PUSH1 0x40 MLOAD PUSH32 0x8C379A000000000000000000000000000000000000000000000000000000000 DUP2 MSTORE PUSH1 0x4 ADD PUSH2 0xAF4 SWAP1 PUSH2 0xE85 JUMP JUMPDEST PUSH1 0x40 MLOAD DUP1 SWAP2 SUB SWAP1 REVERT JUMPDEST PUSH1 0x0 DUP3 PUSH20 0xFFFFFFFFFFFFFFFFFFFFFFFFFFFFFFFFFFFFFFFF AND DUP3 PUSH1 0x40 MLOAD PUSH2 0xB23 SWAP1 PUSH2 0xE15 JUMP JUMPDEST PUSH1 0x0 PUSH1 0x40 MLOAD DUP1 DUP4 SUB DUP2 DUP6 DUP8 GAS CALL SWAP3 POP POP POP RETURNDATASIZE DUP1 PUSH1 0x0 DUP2 EQ PUSH2 0xB60 JUMPI PUSH1 0x40 MLOAD SWAP2 POP PUSH1 0x1F NOT PUSH1 0x3F RETURNDATASIZE ADD AND DUP3 ADD PUSH1 0x40 MSTORE RETURNDATASIZE DUP3 MSTORE RETURNDATASIZE PUSH1 0x0 PUSH1 0x20 DUP5 ADD RETURNDATACOPY PUSH2 0xB65 JUMP JUMPDEST PUSH1 0x60 SWAP2 POP JUMPDEST POP POP SWAP1 POP DUP1 PUSH2 0xBA9 JUMPI PUSH1 0x40 MLOAD PUSH32 0x8C379A000000000000000000000000000000000000000000000000000000000 DUP2 MSTORE PUSH1 0x4 ADD PUSH2 0xBA0 SWAP1 PUSH2 0xE65 JUMP JUMPDEST PUSH1 0x40 MLOAD DUP1 SWAP2 SUB SWAP1 REVERT JUMPDEST POP POP POP JUMP JUMPDEST PUSH1 0x0 CALLER SWAP1 POP SWAP1 JUMP JUMPDEST PUSH1 0x0 DUP2 CALLDATALOAD SWAP1 POP PUSH2 0xBC5 DUP2 PUSH2 0x130B JUMP JUMPDEST SWAP3 SWAP2 POP POP JUMP JUMPDEST PUSH1 0x0 DUP2 CALLDATALOAD SWAP1 POP PUSH2 0xBDA DUP2 PUSH2 0x1322 JUMP JUMPDEST SWAP3 SWAP2 POP POP JUMP JUMPDEST PUSH1 0x0 DUP2 CALLDATALOAD SWAP1 POP PUSH2 0xBEF DUP2 PUSH2 0x1339 JUMP JUMPDEST SWAP3 SWAP2 POP POP JUMP JUMPDEST PUSH1 0x0 PUSH1 0x20 DUP3 DUP5 SUB SLT ISZERO PUSH2 0xC0B JUMPI PUSH2 0xC0A PUSH2 0x1149 JUMP JUMPDEST JUMPDEST PUSH1 0x0 PUSH2 0xC19 DUP5 DUP3 DUP6 ADD PUSH2 0xBB6 JUMP JUMPDEST SWAP2 POP POP SWAP3 SWAP2 POP POP JUMP JUMPDEST PUSH1 0x0 PUSH1 0x20 DUP3 DUP5 SUB SLT ISZERO PUSH2 0xC38 JUMPI PUSH2 0xC37 PUSH2 0x1149 JUMP JUMPDEST JUMPDEST PUSH1 0x0 PUSH2 0xC46 DUP5 DUP3 DUP6 ADD PUSH2 0xBCB JUMP JUMPDEST SWAP2 POP POP SWAP3 SWAP2 POP POP JUMP JUMPDEST PUSH1 0x0 PUSH1 0x20 DUP3 DUP5 SUB SLT ISZERO PUSH2 0xC65 JUMPI PUSH2 0xC64 PUSH2 0x1149 JUMP JUMPDEST JUMPDEST PUSH1 0x0 PUSH2 0xC73 DUP5 DUP3 DUP6 ADD PUSH2 0xBE0 JUMP JUMPDEST SWAP2 POP POP SWAP3 SWAP2 POP POP JUMP JUMPDEST PUSH1 0x0 DUP1 PUSH1 0x40 DUP4 DUP6 SUB SLT ISZERO PUSH2 0xC93 JUMPI PUSH2 0xC92 PUSH2 0x1149 JUMP JUMPDEST JUMPDEST PUSH1 0x0 PUSH2 0xCA1 DUP6 DUP3 DUP7 ADD PUSH2 0xBE0 JUMP JUMPDEST SWAP3 POP POP PUSH1 0x20 PUSH2 0xCB2 DUP6 DUP3 DUP7 ADD PUSH2 0xBE0 JUMP JUMPDEST SWAP2 POP POP SWAP3 POP SWAP3 SWAP1 POP JUMP JUMPDEST PUSH2 0xCC5 DUP2 PUSH2 0x1091 JUMP JUMPDEST DUP3 MSTORE POP POP JUMP JUMPDEST PUSH1 0x0 PUSH2 0xCD8 PUSH1 0x26 DUP4 PUSH2 0xF6B JUMP JUMPDEST SWAP2 POP PUSH2 0xCE3 DUP3 PUSH2 0x114E JUMP JUMPDEST PUSH1 0x40 DUP3 ADD SWAP1 POP SWAP2 SWAP1 POP JUMP JUMPDEST PUSH1 0x0 PUSH2 0xCFB PUSH1 0x3A DUP4 PUSH2 0xF6B JUMP JUMPDEST SWAP2 POP PUSH2 0xD06 DUP3 PUSH2 0x119D JUMP JUMPDEST PUSH1 0x40 DUP3 ADD SWAP1 POP SWAP2 SWAP1 POP JUMP JUMPDEST PUSH1 0x0 PUSH2 0xD1E PUSH1 0x1D DUP4 PUSH2 0xF6B JUMP JUMPDEST SWAP2 POP PUSH2 0xD29 DUP3 PUSH2 0x11EC JUMP JUMPDEST PUSH1 0x20 DUP3 ADD SWAP1 POP SWAP2 SWAP1 POP JUMP JUMPDEST PUSH1 0x0 PUSH2 0xD41 PUSH1 0x1C DUP4 PUSH2 0xF6B JUMP JUMPDEST SWAP2 POP PUSH2 0xD4C DUP3 PUSH2 0x1215 JUMP JUMPDEST PUSH1 0x20 DUP3 ADD SWAP1 POP SWAP2 SWAP1 POP JUMP JUMPDEST PUSH1 0x0 PUSH2 0xD64 PUSH1 0x20 DUP4 PUSH2 0xF6B JUMP JUMPDEST SWAP2 POP PUSH2 0xD6F DUP3 PUSH2 0x123E JUMP JUMPDEST PUSH1 0x20 DUP3 ADD SWAP1 POP SWAP2 SWAP1 POP JUMP JUMPDEST PUSH1 0x0 PUSH2 0xD87 PUSH1 0x0 DUP4 PUSH2 0xF60 JUMP JUMPDEST SWAP2 POP PUSH2 0xD92 DUP3 PUSH2 0x1267 JUMP JUMPDEST PUSH1 0x0 DUP3 ADD SWAP1 POP SWAP2 SWAP1 POP JUMP JUMPDEST PUSH1 0x0 PUSH2 0xDAA PUSH1 0x2F DUP4 PUSH2 0xF6B JUMP JUMPDEST SWAP2 POP PUSH2 0xDB5 DUP3 PUSH2 0x126A JUMP JUMPDEST PUSH1 0x40 DUP3 ADD SWAP1 POP SWAP2 SWAP1 POP JUMP JUMPDEST PUSH1 0x0 PUSH2 0xDCD PUSH1 0x17 DUP4 PUSH2 0xF6B JUMP JUMPDEST SWAP2 POP PUSH2 0xDD8 DUP3 PUSH2 0x12B9 JUMP JUMPDEST PUSH1 0x20 DUP3 ADD SWAP1 POP SWAP2 SWAP1 POP JUMP JUMPDEST PUSH1 0x0 PUSH2 0xDF0 PUSH1 0x18 DUP4 PUSH2 0xF6B JUMP JUMPDEST SWAP2 POP PUSH2 0xDFB DUP3 PUSH2 0x12E2 JUMP JUMPDEST PUSH1 0x20 DUP3 ADD SWAP1 POP SWAP2 SWAP1 POP JUMP JUMPDEST PUSH2 0xE0F DUP2 PUSH2 0x10E1 JUMP JUMPDEST DUP3 MSTORE POP POP JUMP JUMPDEST PUSH1 0x0 PUSH2 0xE20 DUP3 PUSH2 0xD7A JUMP JUMPDEST SWAP2 POP DUP2 SWAP1 POP SWAP2 SWAP1 POP JUMP JUMPDEST PUSH1 0x0 PUSH1 0x20 DUP3 ADD SWAP1 POP PUSH2 0xE3F PUSH1 0x0 DUP4 ADD DUP5 PUSH2 0xCBC JUMP JUMPDEST SWAP3 SWAP2 POP POP JUMP JUMPDEST PUSH1 0x0 PUSH1 0x20 DUP3 ADD SWAP1 POP DUP2 DUP2 SUB PUSH1 0x0 DUP4 ADD MSTORE PUSH2 0xE5E DUP2 PUSH2 0xCCB JUMP JUMPDEST SWAP1 POP SWAP2 SWAP1 POP JUMP JUMPDEST PUSH1 0x0 PUSH1 0x20 DUP3 ADD SWAP1 POP DUP2 DUP2 SUB PUSH1 0x0 DUP4 ADD MSTORE PUSH2 0xE7E DUP2 PUSH2 0xCEE JUMP JUMPDEST SWAP1 POP SWAP2 SWAP1 POP JUMP JUMPDEST PUSH1 0x0 PUSH1 0x20 DUP3 ADD SWAP1 POP DUP2 DUP2 SUB PUSH1 0x0 DUP4 ADD MSTORE PUSH2 0xE9E DUP2 PUSH2 0xD11 JUMP JUMPDEST SWAP1 POP SWAP2 SWAP1 POP JUMP JUMPDEST PUSH1 0x0 PUSH1 0x20 DUP3 ADD SWAP1 POP DUP2 DUP2 SUB PUSH1 0x0 DUP4 ADD MSTORE PUSH2 0xEBE DUP2 PUSH2 0xD34 JUMP JUMPDEST SWAP1 POP SWAP2 SWAP1 POP JUMP JUMPDEST PUSH1 0x0 PUSH1 0x20 DUP3 ADD SWAP1 POP DUP2 DUP2 SUB PUSH1 0x0 DUP4 ADD MSTORE PUSH2 0xEDE DUP2 PUSH2 0xD57 JUMP JUMPDEST SWAP1 POP SWAP2 SWAP1 POP JUMP JUMPDEST PUSH1 0x0 PUSH1 0x20 DUP3 ADD SWAP1 POP DUP2 DUP2 SUB PUSH1 0x0 DUP4 ADD MSTORE PUSH2 0xEFE DUP2 PUSH2 0xD9D JUMP JUMPDEST SWAP1 POP SWAP2 SWAP1 POP JUMP JUMPDEST PUSH1 0x0 PUSH1 0x20 DUP3 ADD SWAP1 POP DUP2 DUP2 SUB PUSH1 0x0 DUP4 ADD MSTORE PUSH2 0xF1E DUP2 PUSH2 0xDC0 JUMP JUMPDEST SWAP1 POP SWAP2 SWAP1 POP JUMP JUMPDEST PUSH1 0x0 PUSH1 0x20 DUP3 ADD SWAP1 POP DUP2 DUP2 SUB PUSH1 0x0 DUP4 ADD MSTORE PUSH2 0xF3E DUP2 PUSH2 0xDE3 JUMP JUMPDEST SWAP1 POP SWAP2 SWAP1 POP JUMP JUMPDEST PUSH1 0x0 PUSH1 0x20 DUP3 ADD SWAP1 POP PUSH2 0xF5A PUSH1 0x0 DUP4 ADD DUP5 PUSH2 0xE06 JUMP JUMPDEST SWAP3 SWAP2 POP POP JUMP JUMPDEST PUSH1 0x0 DUP2 SWAP1 POP SWAP3 SWAP2 POP POP JUMP JUMPDEST PUSH1 0x0 DUP3 DUP3 MSTORE PUSH1 0x20 DUP3 ADD SWAP1 POP SWAP3 SWAP2 POP POP JUMP JUMPDEST PUSH1 0x0 PUSH2 0xF87 DUP3 PUSH2 0x10E1 JUMP JUMPDEST SWAP2 POP PUSH2 0xF92 DUP4 PUSH2 0x10E1 JUMP JUMPDEST SWAP3 POP DUP3 PUSH32 0xFFFFFFFFFFFFFFFFFFFFFFFFFFFFFFFFFFFFFFFFFFFFFFFFFFFFFFFFFFFFFFFF SUB DUP3 GT ISZERO PUSH2 0xFC7 JUMPI PUSH2 0xFC6 PUSH2 0x10EB JUMP JUMPDEST JUMPDEST DUP3 DUP3 ADD SWAP1 POP SWAP3 SWAP2 POP POP JUMP JUMPDEST PUSH1 0x0 PUSH2 0xFDD DUP3 PUSH2 0x10E1 JUMP JUMPDEST SWAP2 POP PUSH2 0xFE8 DUP4 PUSH2 0x10E1 JUMP JUMPDEST SWAP3 POP DUP3 PUSH2 0xFF8 JUMPI PUSH2 0xFF7 PUSH2 0x111A JUMP JUMPDEST JUMPDEST DUP3 DUP3 DIV SWAP1 POP SWAP3 SWAP2 POP POP JUMP JUMPDEST PUSH1 0x0 PUSH2 0x100E DUP3 PUSH2 0x10E1 JUMP JUMPDEST SWAP2 POP PUSH2 0x1019 DUP4 PUSH2 0x10E1 JUMP JUMPDEST SWAP3 POP DUP2 PUSH32 0xFFFFFFFFFFFFFFFFFFFFFFFFFFFFFFFFFFFFFFFFFFFFFFFFFFFFFFFFFFFFFFFF DIV DUP4 GT DUP3 ISZERO ISZERO AND ISZERO PUSH2 0x1052 JUMPI PUSH2 0x1051 PUSH2 0x10EB JUMP JUMPDEST JUMPDEST DUP3 DUP3 MUL SWAP1 POP SWAP3 SWAP2 POP POP JUMP JUMPDEST PUSH1 0x0 PUSH2 0x1068 DUP3 PUSH2 0x10E1 JUMP JUMPDEST SWAP2 POP PUSH2 0x1073 DUP4 PUSH2 0x10E1 JUMP JUMPDEST SWAP3 POP DUP3 DUP3 LT ISZERO PUSH2 0x1086 JUMPI PUSH2 0x1085 PUSH2 0x10EB JUMP JUMPDEST JUMPDEST DUP3 DUP3 SUB SWAP1 POP SWAP3 SWAP2 POP POP JUMP JUMPDEST PUSH1 0x0 PUSH2 0x109C DUP3 PUSH2 0x10C1 JUMP JUMPDEST SWAP1 POP SWAP2 SWAP1 POP JUMP JUMPDEST PUSH1 0x0 PUSH2 0x10AE DUP3 PUSH2 0x10C1 JUMP JUMPDEST SWAP1 POP SWAP2 SWAP1 POP JUMP JUMPDEST PUSH1 0x0 DUP2 ISZERO ISZERO SWAP1 POP SWAP2 SWAP1 POP JUMP JUMPDEST PUSH1 0x0 PUSH20 0xFFFFFFFFFFFFFFFFFFFFFFFFFFFFFFFFFFFFFFFF DUP3 AND SWAP1 POP SWAP2 SWAP1 POP JUMP JUMPDEST PUSH1 0x0 DUP2 SWAP1 POP SWAP2 SWAP1 POP JUMP JUMPDEST PUSH32 0x4E487B7100000000000000000000000000000000000000000000000000000000 PUSH1 0x0 MSTORE PUSH1 0x11 PUSH1 0x4 MSTORE PUSH1 0x24 PUSH1 0x0 REVERT JUMPDEST PUSH32 0x4E487B7100000000000000000000000000000000000000000000000000000000 PUSH1 0x0 MSTORE PUSH1 0x12 PUSH1 0x4 MSTORE PUSH1 0x24 PUSH1 0x0 REVERT JUMPDEST PUSH1 0x0 DUP1 REVERT JUMPDEST PUSH32 0x4F776E61626C653A206E6577206F776E657220697320746865207A65726F2061 PUSH1 0x0 DUP3 ADD MSTORE PUSH32 0x6464726573730000000000000000000000000000000000000000000000000000 PUSH1 0x20 DUP3 ADD MSTORE POP JUMP JUMPDEST PUSH32 0x416464726573733A20756E61626C6520746F2073656E642076616C75652C2072 PUSH1 0x0 DUP3 ADD MSTORE PUSH32 0x6563697069656E74206D61792068617665207265766572746564000000000000 PUSH1 0x20 DUP3 ADD MSTORE POP JUMP JUMPDEST PUSH32 0x416464726573733A20696E73756666696369656E742062616C616E6365000000 PUSH1 0x0 DUP3 ADD MSTORE POP JUMP JUMPDEST PUSH32 0x63616C6C6572206973206E6F742074686520636F6E74726163746F7200000000 PUSH1 0x0 DUP3 ADD MSTORE POP JUMP JUMPDEST PUSH32 0x4F776E61626C653A2063616C6C6572206973206E6F7420746865206F776E6572 PUSH1 0x0 DUP3 ADD MSTORE POP JUMP JUMPDEST POP JUMP JUMPDEST PUSH32 0x436F6E74726163746F7220416464726573732063616E6E6F7420626520636861 PUSH1 0x0 DUP3 ADD MSTORE PUSH32 0x6E676564206F6E63652061646465640000000000000000000000000000000000 PUSH1 0x20 DUP3 ADD MSTORE POP JUMP JUMPDEST PUSH32 0x63616C6C6572206973206E6F74207468652061646D696E000000000000000000 PUSH1 0x0 DUP3 ADD MSTORE POP JUMP JUMPDEST PUSH32 0x63616C6C6572206973206E6F742074686520636C69656E740000000000000000 PUSH1 0x0 DUP3 ADD MSTORE POP JUMP JUMPDEST PUSH2 0x1314 DUP2 PUSH2 0x1091 JUMP JUMPDEST DUP2 EQ PUSH2 0x131F JUMPI PUSH1 0x0 DUP1 REVERT JUMPDEST POP JUMP JUMPDEST PUSH2 0x132B DUP2 PUSH2 0x10A3 JUMP JUMPDEST DUP2 EQ PUSH2 0x1336 JUMPI PUSH1 0x0 DUP1 REVERT JUMPDEST POP JUMP JUMPDEST PUSH2 0x1342 DUP2 PUSH2 0x10B5 JUMP JUMPDEST DUP2 EQ PUSH2 0x134D JUMPI PUSH1 0x0 DUP1 REVERT JUMPDEST POP JUMP INVALID LOG2 PUSH5 0x6970667358 0x22 SLT KECCAK256 0xE8 0x4B SWAP8 0x4B SWAP15 CODECOPY GASPRICE PUSH27 0x6F66523692B0B00E95F89266082A20933BA812E8CF2D598964736F PUSH13 0x63430008070033000000000000 "
				},
				"gasEstimates": {
					"creation": {
						"codeDepositCost": "999600",
						"executionCost": "infinite",
						"totalCost": "infinite"
					},
					"external": {
						"addAdmin(address)": "25950",
						"addClient(address)": "28192",
						"addContractor(address)": "infinite",
						"adminResolutionStatus(bool,bool)": "infinite",
						"deposit()": "3583",
						"owner()": "2544",
						"renounceOwnership()": "30487",
						"taskCompletionStatus(bool)": "26896",
						"taskValidationStatus(bool)": "infinite",
						"transferOwnership(address)": "30835"
					},
					"internal": {
						"_checkAdmin()": "infinite",
						"_checkClient()": "infinite",
						"_checkContractor()": "infinite",
						"withdrawPayment()": "infinite"
					}
				},
				"methodIdentifiers": {
					"addAdmin(address)": "70480275",
					"addClient(address)": "43928cfd",
					"addContractor(address)": "761768b6",
					"adminResolutionStatus(bool,bool)": "11571f30",
					"deposit()": "d0e30db0",
					"owner()": "8da5cb5b",
					"renounceOwnership()": "715018a6",
					"taskCompletionStatus(bool)": "251d8cd5",
					"taskValidationStatus(bool)": "9464c8b8",
					"transferOwnership(address)": "f2fde38b"
				}
			},
			"storageLayout": {
				"storage": [
					{
						"astId": 7,
						"contract": "contracts/Escrow.sol:Escrow",
						"label": "_owner",
						"offset": 0,
						"slot": "0",
						"type": "t_address"
					},
					{
						"astId": 456,
						"contract": "contracts/Escrow.sol:Escrow",
						"label": "contractor",
						"offset": 0,
						"slot": "1",
						"type": "t_address_payable"
					},
					{
						"astId": 458,
						"contract": "contracts/Escrow.sol:Escrow",
						"label": "client",
						"offset": 0,
						"slot": "2",
						"type": "t_address_payable"
					},
					{
						"astId": 460,
						"contract": "contracts/Escrow.sol:Escrow",
						"label": "admin",
						"offset": 0,
						"slot": "3",
						"type": "t_address_payable"
					},
					{
						"astId": 464,
						"contract": "contracts/Escrow.sol:Escrow",
						"label": "_deposits",
						"offset": 0,
						"slot": "4",
						"type": "t_mapping(t_address,t_uint256)"
					},
					{
						"astId": 538,
						"contract": "contracts/Escrow.sol:Escrow",
						"label": "contractorState",
						"offset": 0,
						"slot": "5",
						"type": "t_uint256"
					},
					{
						"astId": 597,
						"contract": "contracts/Escrow.sol:Escrow",
						"label": "taskCompleted",
						"offset": 0,
						"slot": "6",
						"type": "t_bool"
					},
					{
						"astId": 599,
						"contract": "contracts/Escrow.sol:Escrow",
						"label": "taskValidated",
						"offset": 1,
						"slot": "6",
						"type": "t_bool"
					},
					{
						"astId": 601,
						"contract": "contracts/Escrow.sol:Escrow",
						"label": "adminResolution",
						"offset": 2,
						"slot": "6",
						"type": "t_bool"
					},
					{
						"astId": 603,
						"contract": "contracts/Escrow.sol:Escrow",
						"label": "adminPayContractor",
						"offset": 3,
						"slot": "6",
						"type": "t_bool"
					}
				],
				"types": {
					"t_address": {
						"encoding": "inplace",
						"label": "address",
						"numberOfBytes": "20"
					},
					"t_address_payable": {
						"encoding": "inplace",
						"label": "address payable",
						"numberOfBytes": "20"
					},
					"t_bool": {
						"encoding": "inplace",
						"label": "bool",
						"numberOfBytes": "1"
					},
					"t_mapping(t_address,t_uint256)": {
						"encoding": "mapping",
						"key": "t_address",
						"label": "mapping(address => uint256)",
						"numberOfBytes": "32",
						"value": "t_uint256"
					},
					"t_uint256": {
						"encoding": "inplace",
						"label": "uint256",
						"numberOfBytes": "32"
					}
				}
			},
			"userdoc": {
				"kind": "user",
				"methods": {},
				"version": 1
			}
		}
	}
}