{
	"contracts/Escrow.sol": {
		"Escrow": {
			"abi": [
				{
					"anonymous": false,
					"inputs": [
						{
							"indexed": true,
							"internalType": "address",
							"name": "payee",
							"type": "address"
						},
						{
							"indexed": false,
							"internalType": "uint256",
							"name": "weiAmount",
							"type": "uint256"
						}
					],
					"name": "Deposited",
					"type": "event"
				},
				{
					"anonymous": false,
					"inputs": [
						{
							"indexed": true,
							"internalType": "address",
							"name": "previousOwner",
							"type": "address"
						},
						{
							"indexed": true,
							"internalType": "address",
							"name": "newOwner",
							"type": "address"
						}
					],
					"name": "OwnershipTransferred",
					"type": "event"
				},
				{
					"anonymous": false,
					"inputs": [
						{
							"indexed": true,
							"internalType": "address",
							"name": "payee",
							"type": "address"
						},
						{
							"indexed": false,
							"internalType": "uint256",
							"name": "weiAmount",
							"type": "uint256"
						}
					],
					"name": "Withdrawn",
					"type": "event"
				},
				{
					"inputs": [],
					"name": "admin",
					"outputs": [
						{
							"internalType": "address payable",
							"name": "",
							"type": "address"
						}
					],
					"stateMutability": "view",
					"type": "function"
				},
				{
					"inputs": [
						{
							"internalType": "bool",
							"name": "inputAdminResolution",
							"type": "bool"
						},
						{
							"internalType": "uint256",
							"name": "inputAdminDecision",
							"type": "uint256"
						}
					],
					"name": "adminResolutionStatus",
					"outputs": [],
					"stateMutability": "nonpayable",
					"type": "function"
				},
				{
					"inputs": [],
					"name": "client",
					"outputs": [
						{
							"internalType": "address",
							"name": "",
							"type": "address"
						}
					],
					"stateMutability": "view",
					"type": "function"
				},
				{
					"inputs": [],
					"name": "contractor",
					"outputs": [
						{
							"internalType": "address payable",
							"name": "",
							"type": "address"
						}
					],
					"stateMutability": "view",
					"type": "function"
				},
				{
					"inputs": [
						{
							"internalType": "address payable",
							"name": "payee",
							"type": "address"
						},
						{
							"internalType": "address payable",
							"name": "broker",
							"type": "address"
						}
					],
					"name": "deposit",
					"outputs": [],
					"stateMutability": "payable",
					"type": "function"
				},
				{
					"inputs": [],
					"name": "owner",
					"outputs": [
						{
							"internalType": "address",
							"name": "",
							"type": "address"
						}
					],
					"stateMutability": "view",
					"type": "function"
				},
				{
					"inputs": [],
					"name": "renounceOwnership",
					"outputs": [],
					"stateMutability": "nonpayable",
					"type": "function"
				},
				{
					"inputs": [
						{
							"internalType": "bool",
							"name": "inputTaskCompleted",
							"type": "bool"
						}
					],
					"name": "taskCompletionStatus",
					"outputs": [],
					"stateMutability": "nonpayable",
					"type": "function"
				},
				{
					"inputs": [
						{
							"internalType": "bool",
							"name": "inputTaskValidated",
							"type": "bool"
						}
					],
					"name": "taskValidationStatus",
					"outputs": [],
					"stateMutability": "nonpayable",
					"type": "function"
				},
				{
					"inputs": [],
					"name": "testPayment",
					"outputs": [],
					"stateMutability": "nonpayable",
					"type": "function"
				},
				{
					"inputs": [
						{
							"internalType": "address",
							"name": "newOwner",
							"type": "address"
						}
					],
					"name": "transferOwnership",
					"outputs": [],
					"stateMutability": "nonpayable",
					"type": "function"
				},
				{
					"inputs": [
						{
							"internalType": "address payable",
							"name": "payee",
							"type": "address"
						}
					],
					"name": "withdraw",
					"outputs": [],
					"stateMutability": "nonpayable",
					"type": "function"
				},
				{
					"inputs": [],
					"name": "withdrawalAllowed",
					"outputs": [
						{
							"internalType": "bool",
							"name": "",
							"type": "bool"
						}
					],
					"stateMutability": "view",
					"type": "function"
				}
			],
			"devdoc": {
				"kind": "dev",
				"methods": {
					"owner()": {
						"details": "Returns the address of the current owner."
					},
					"renounceOwnership()": {
						"details": "Leaves the contract without owner. It will not be possible to call `onlyOwner` functions anymore. Can only be called by the current owner. NOTE: Renouncing ownership will leave the contract without an owner, thereby removing any functionality that is only available to the owner."
					},
					"transferOwnership(address)": {
						"details": "Transfers ownership of the contract to a new account (`newOwner`). Can only be called by the current owner."
					}
				},
				"version": 1
			},
			"evm": {
				"assembly": "    /* \"contracts/Escrow.sol\":238:3019  contract Escrow is Ownable {... */\n  mstore(0x40, 0x80)\n  callvalue\n  dup1\n  iszero\n  tag_1\n  jumpi\n  0x00\n  dup1\n  revert\ntag_1:\n  pop\n    /* \"@openzeppelin/contracts/access/Ownable.sol\":936:968  _transferOwnership(_msgSender()) */\n  tag_4\n    /* \"@openzeppelin/contracts/access/Ownable.sol\":955:967  _msgSender() */\n  tag_5\n    /* \"@openzeppelin/contracts/access/Ownable.sol\":955:965  _msgSender */\n  shl(0x20, tag_6)\n    /* \"@openzeppelin/contracts/access/Ownable.sol\":955:967  _msgSender() */\n  0x20\n  shr\n  jump\t// in\ntag_5:\n    /* \"@openzeppelin/contracts/access/Ownable.sol\":936:954  _transferOwnership */\n  shl(0x20, tag_7)\n    /* \"@openzeppelin/contracts/access/Ownable.sol\":936:968  _transferOwnership(_msgSender()) */\n  0x20\n  shr\n  jump\t// in\ntag_4:\n    /* \"contracts/Escrow.sol\":238:3019  contract Escrow is Ownable {... */\n  jump(tag_8)\n    /* \"@openzeppelin/contracts/utils/Context.sol\":640:736  function _msgSender() internal view virtual returns (address) {... */\ntag_6:\n    /* \"@openzeppelin/contracts/utils/Context.sol\":693:700  address */\n  0x00\n    /* \"@openzeppelin/contracts/utils/Context.sol\":719:729  msg.sender */\n  caller\n    /* \"@openzeppelin/contracts/utils/Context.sol\":712:729  return msg.sender */\n  swap1\n  pop\n    /* \"@openzeppelin/contracts/utils/Context.sol\":640:736  function _msgSender() internal view virtual returns (address) {... */\n  swap1\n  jump\t// out\n    /* \"@openzeppelin/contracts/access/Ownable.sol\":2433:2620  function _transferOwnership(address newOwner) internal virtual {... */\ntag_7:\n    /* \"@openzeppelin/contracts/access/Ownable.sol\":2506:2522  address oldOwner */\n  0x00\n    /* \"@openzeppelin/contracts/access/Ownable.sol\":2525:2531  _owner */\n  dup1\n  0x00\n  swap1\n  sload\n  swap1\n  0x0100\n  exp\n  swap1\n  div\n  0xffffffffffffffffffffffffffffffffffffffff\n  and\n    /* \"@openzeppelin/contracts/access/Ownable.sol\":2506:2531  address oldOwner = _owner */\n  swap1\n  pop\n    /* \"@openzeppelin/contracts/access/Ownable.sol\":2550:2558  newOwner */\n  dup2\n    /* \"@openzeppelin/contracts/access/Ownable.sol\":2541:2547  _owner */\n  0x00\n  dup1\n    /* \"@openzeppelin/contracts/access/Ownable.sol\":2541:2558  _owner = newOwner */\n  0x0100\n  exp\n  dup2\n  sload\n  dup2\n  0xffffffffffffffffffffffffffffffffffffffff\n  mul\n  not\n  and\n  swap1\n  dup4\n  0xffffffffffffffffffffffffffffffffffffffff\n  and\n  mul\n  or\n  swap1\n  sstore\n  pop\n    /* \"@openzeppelin/contracts/access/Ownable.sol\":2604:2612  newOwner */\n  dup2\n    /* \"@openzeppelin/contracts/access/Ownable.sol\":2573:2613  OwnershipTransferred(oldOwner, newOwner) */\n  0xffffffffffffffffffffffffffffffffffffffff\n  and\n    /* \"@openzeppelin/contracts/access/Ownable.sol\":2594:2602  oldOwner */\n  dup2\n    /* \"@openzeppelin/contracts/access/Ownable.sol\":2573:2613  OwnershipTransferred(oldOwner, newOwner) */\n  0xffffffffffffffffffffffffffffffffffffffff\n  and\n  0x8be0079c531659141344cd1fd0a4f28419497f9722a3daafe3b4186f6b6457e0\n  mload(0x40)\n  mload(0x40)\n  dup1\n  swap2\n  sub\n  swap1\n  log3\n    /* \"@openzeppelin/contracts/access/Ownable.sol\":2496:2620  {... */\n  pop\n    /* \"@openzeppelin/contracts/access/Ownable.sol\":2433:2620  function _transferOwnership(address newOwner) internal virtual {... */\n  pop\n  jump\t// out\n    /* \"contracts/Escrow.sol\":238:3019  contract Escrow is Ownable {... */\ntag_8:\n  dataSize(sub_0)\n  dup1\n  dataOffset(sub_0)\n  0x00\n  codecopy\n  0x00\n  return\nstop\n\nsub_0: assembly {\n        /* \"contracts/Escrow.sol\":238:3019  contract Escrow is Ownable {... */\n      mstore(0x40, 0x80)\n      jumpi(tag_1, lt(calldatasize, 0x04))\n      shr(0xe0, calldataload(0x00))\n      dup1\n      0x9464c8b8\n      gt\n      tag_15\n      jumpi\n      dup1\n      0xf2fde38b\n      gt\n      tag_16\n      jumpi\n      dup1\n      0xf2fde38b\n      eq\n      tag_11\n      jumpi\n      dup1\n      0xf851a440\n      eq\n      tag_12\n      jumpi\n      dup1\n      0xf9609f08\n      eq\n      tag_13\n      jumpi\n      dup1\n      0xfbfd2045\n      eq\n      tag_14\n      jumpi\n      jump(tag_1)\n    tag_16:\n      dup1\n      0x9464c8b8\n      eq\n      tag_8\n      jumpi\n      dup1\n      0xa1d19361\n      eq\n      tag_9\n      jumpi\n      dup1\n      0xb0568eaa\n      eq\n      tag_10\n      jumpi\n      jump(tag_1)\n    tag_15:\n      dup1\n      0x109e94cf\n      eq\n      tag_2\n      jumpi\n      dup1\n      0x251d8cd5\n      eq\n      tag_3\n      jumpi\n      dup1\n      0x51cff8d9\n      eq\n      tag_4\n      jumpi\n      dup1\n      0x5e32c425\n      eq\n      tag_5\n      jumpi\n      dup1\n      0x715018a6\n      eq\n      tag_6\n      jumpi\n      dup1\n      0x8da5cb5b\n      eq\n      tag_7\n      jumpi\n    tag_1:\n      0x00\n      dup1\n      revert\n        /* \"contracts/Escrow.sol\":453:474  address public client */\n    tag_2:\n      callvalue\n      dup1\n      iszero\n      tag_17\n      jumpi\n      0x00\n      dup1\n      revert\n    tag_17:\n      pop\n      tag_18\n      tag_19\n      jump\t// in\n    tag_18:\n      mload(0x40)\n      tag_20\n      swap2\n      swap1\n      tag_21\n      jump\t// in\n    tag_20:\n      mload(0x40)\n      dup1\n      swap2\n      sub\n      swap1\n      return\n        /* \"contracts/Escrow.sol\":1763:1879  function taskCompletionStatus(bool inputTaskCompleted) public virtual{... */\n    tag_3:\n      callvalue\n      dup1\n      iszero\n      tag_22\n      jumpi\n      0x00\n      dup1\n      revert\n    tag_22:\n      pop\n      tag_23\n      0x04\n      dup1\n      calldatasize\n      sub\n      dup2\n      add\n      swap1\n      tag_24\n      swap2\n      swap1\n      tag_25\n      jump\t// in\n    tag_24:\n      tag_26\n      jump\t// in\n    tag_23:\n      stop\n        /* \"contracts/Escrow.sol\":2573:2797  function withdraw(address payable payee) public virtual onlyOwner {... */\n    tag_4:\n      callvalue\n      dup1\n      iszero\n      tag_27\n      jumpi\n      0x00\n      dup1\n      revert\n    tag_27:\n      pop\n      tag_28\n      0x04\n      dup1\n      calldatasize\n      sub\n      dup2\n      add\n      swap1\n      tag_29\n      swap2\n      swap1\n      tag_30\n      jump\t// in\n    tag_29:\n      tag_31\n      jump\t// in\n    tag_28:\n      stop\n        /* \"contracts/Escrow.sol\":1444:1635  function adminResolutionStatus(bool inputAdminResolution, uint256 inputAdminDecision) public virtual{... */\n    tag_5:\n      callvalue\n      dup1\n      iszero\n      tag_32\n      jumpi\n      0x00\n      dup1\n      revert\n    tag_32:\n      pop\n      tag_33\n      0x04\n      dup1\n      calldatasize\n      sub\n      dup2\n      add\n      swap1\n      tag_34\n      swap2\n      swap1\n      tag_35\n      jump\t// in\n    tag_34:\n      tag_36\n      jump\t// in\n    tag_33:\n      stop\n        /* \"@openzeppelin/contracts/access/Ownable.sol\":1831:1932  function renounceOwnership() public virtual onlyOwner {... */\n    tag_6:\n      callvalue\n      dup1\n      iszero\n      tag_37\n      jumpi\n      0x00\n      dup1\n      revert\n    tag_37:\n      pop\n      tag_38\n      tag_39\n      jump\t// in\n    tag_38:\n      stop\n        /* \"@openzeppelin/contracts/access/Ownable.sol\":1201:1286  function owner() public view virtual returns (address) {... */\n    tag_7:\n      callvalue\n      dup1\n      iszero\n      tag_40\n      jumpi\n      0x00\n      dup1\n      revert\n    tag_40:\n      pop\n      tag_41\n      tag_42\n      jump\t// in\n    tag_41:\n      mload(0x40)\n      tag_43\n      swap2\n      swap1\n      tag_21\n      jump\t// in\n    tag_43:\n      mload(0x40)\n      dup1\n      swap2\n      sub\n      swap1\n      return\n        /* \"contracts/Escrow.sol\":1641:1757  function taskValidationStatus(bool inputTaskValidated) public virtual{... */\n    tag_8:\n      callvalue\n      dup1\n      iszero\n      tag_44\n      jumpi\n      0x00\n      dup1\n      revert\n    tag_44:\n      pop\n      tag_45\n      0x04\n      dup1\n      calldatasize\n      sub\n      dup2\n      add\n      swap1\n      tag_46\n      swap2\n      swap1\n      tag_25\n      jump\t// in\n    tag_46:\n      tag_47\n      jump\t// in\n    tag_45:\n      stop\n        /* \"contracts/Escrow.sol\":1887:2136  function withdrawalAllowed() public view virtual returns (bool){... */\n    tag_9:\n      callvalue\n      dup1\n      iszero\n      tag_48\n      jumpi\n      0x00\n      dup1\n      revert\n    tag_48:\n      pop\n      tag_49\n      tag_50\n      jump\t// in\n    tag_49:\n      mload(0x40)\n      tag_51\n      swap2\n      swap1\n      tag_52\n      jump\t// in\n    tag_51:\n      mload(0x40)\n      dup1\n      swap2\n      sub\n      swap1\n      return\n        /* \"contracts/Escrow.sol\":2146:2504  function testPayment() public virtual{... */\n    tag_10:\n      callvalue\n      dup1\n      iszero\n      tag_53\n      jumpi\n      0x00\n      dup1\n      revert\n    tag_53:\n      pop\n      tag_54\n      tag_55\n      jump\t// in\n    tag_54:\n      stop\n        /* \"@openzeppelin/contracts/access/Ownable.sol\":2081:2279  function transferOwnership(address newOwner) public virtual onlyOwner {... */\n    tag_11:\n      callvalue\n      dup1\n      iszero\n      tag_56\n      jumpi\n      0x00\n      dup1\n      revert\n    tag_56:\n      pop\n      tag_57\n      0x04\n      dup1\n      calldatasize\n      sub\n      dup2\n      add\n      swap1\n      tag_58\n      swap2\n      swap1\n      tag_59\n      jump\t// in\n    tag_58:\n      tag_60\n      jump\t// in\n    tag_57:\n      stop\n        /* \"contracts/Escrow.sol\":480:508  address payable public admin */\n    tag_12:\n      callvalue\n      dup1\n      iszero\n      tag_61\n      jumpi\n      0x00\n      dup1\n      revert\n    tag_61:\n      pop\n      tag_62\n      tag_63\n      jump\t// in\n    tag_62:\n      mload(0x40)\n      tag_64\n      swap2\n      swap1\n      tag_65\n      jump\t// in\n    tag_64:\n      mload(0x40)\n      dup1\n      swap2\n      sub\n      swap1\n      return\n        /* \"contracts/Escrow.sol\":664:958  function deposit(address payable payee, address payable broker) public payable virtual onlyOwner {... */\n    tag_13:\n      tag_66\n      0x04\n      dup1\n      calldatasize\n      sub\n      dup2\n      add\n      swap1\n      tag_67\n      swap2\n      swap1\n      tag_68\n      jump\t// in\n    tag_67:\n      tag_69\n      jump\t// in\n    tag_66:\n      stop\n        /* \"contracts/Escrow.sol\":414:447  address payable public contractor */\n    tag_14:\n      callvalue\n      dup1\n      iszero\n      tag_70\n      jumpi\n      0x00\n      dup1\n      revert\n    tag_70:\n      pop\n      tag_71\n      tag_72\n      jump\t// in\n    tag_71:\n      mload(0x40)\n      tag_73\n      swap2\n      swap1\n      tag_65\n      jump\t// in\n    tag_73:\n      mload(0x40)\n      dup1\n      swap2\n      sub\n      swap1\n      return\n        /* \"contracts/Escrow.sol\":453:474  address public client */\n    tag_19:\n      0x02\n      0x00\n      swap1\n      sload\n      swap1\n      0x0100\n      exp\n      swap1\n      div\n      0xffffffffffffffffffffffffffffffffffffffff\n      and\n      dup2\n      jump\t// out\n        /* \"contracts/Escrow.sol\":1763:1879  function taskCompletionStatus(bool inputTaskCompleted) public virtual{... */\n    tag_26:\n        /* \"contracts/Escrow.sol\":1854:1872  inputTaskCompleted */\n      dup1\n        /* \"contracts/Escrow.sol\":1838:1851  taskCompleted */\n      0x05\n      0x00\n        /* \"contracts/Escrow.sol\":1838:1872  taskCompleted = inputTaskCompleted */\n      0x0100\n      exp\n      dup2\n      sload\n      dup2\n      0xff\n      mul\n      not\n      and\n      swap1\n      dup4\n      iszero\n      iszero\n      mul\n      or\n      swap1\n      sstore\n      pop\n        /* \"contracts/Escrow.sol\":1763:1879  function taskCompletionStatus(bool inputTaskCompleted) public virtual{... */\n      pop\n      jump\t// out\n        /* \"contracts/Escrow.sol\":2573:2797  function withdraw(address payable payee) public virtual onlyOwner {... */\n    tag_31:\n        /* \"@openzeppelin/contracts/access/Ownable.sol\":1094:1107  _checkOwner() */\n      tag_76\n        /* \"@openzeppelin/contracts/access/Ownable.sol\":1094:1105  _checkOwner */\n      tag_77\n        /* \"@openzeppelin/contracts/access/Ownable.sol\":1094:1107  _checkOwner() */\n      jump\t// in\n    tag_76:\n        /* \"contracts/Escrow.sol\":2649:2664  uint256 payment */\n      0x00\n        /* \"contracts/Escrow.sol\":2667:2676  _deposits */\n      0x04\n        /* \"contracts/Escrow.sol\":2667:2683  _deposits[payee] */\n      0x00\n        /* \"contracts/Escrow.sol\":2677:2682  payee */\n      dup4\n        /* \"contracts/Escrow.sol\":2667:2683  _deposits[payee] */\n      0xffffffffffffffffffffffffffffffffffffffff\n      and\n      0xffffffffffffffffffffffffffffffffffffffff\n      and\n      dup2\n      mstore\n      0x20\n      add\n      swap1\n      dup2\n      mstore\n      0x20\n      add\n      0x00\n      keccak256\n      sload\n        /* \"contracts/Escrow.sol\":2649:2683  uint256 payment = _deposits[payee] */\n      swap1\n      pop\n        /* \"contracts/Escrow.sol\":2713:2714  0 */\n      0x00\n        /* \"contracts/Escrow.sol\":2694:2703  _deposits */\n      0x04\n        /* \"contracts/Escrow.sol\":2694:2710  _deposits[payee] */\n      0x00\n        /* \"contracts/Escrow.sol\":2704:2709  payee */\n      dup5\n        /* \"contracts/Escrow.sol\":2694:2710  _deposits[payee] */\n      0xffffffffffffffffffffffffffffffffffffffff\n      and\n      0xffffffffffffffffffffffffffffffffffffffff\n      and\n      dup2\n      mstore\n      0x20\n      add\n      swap1\n      dup2\n      mstore\n      0x20\n      add\n      0x00\n      keccak256\n        /* \"contracts/Escrow.sol\":2694:2714  _deposits[payee] = 0 */\n      dup2\n      swap1\n      sstore\n      pop\n        /* \"contracts/Escrow.sol\":2725:2749  payee.sendValue(payment) */\n      tag_79\n        /* \"contracts/Escrow.sol\":2741:2748  payment */\n      dup2\n        /* \"contracts/Escrow.sol\":2725:2730  payee */\n      dup4\n        /* \"contracts/Escrow.sol\":2725:2740  payee.sendValue */\n      0xffffffffffffffffffffffffffffffffffffffff\n      and\n      tag_80\n      swap1\n        /* \"contracts/Escrow.sol\":2725:2749  payee.sendValue(payment) */\n      swap2\n      swap1\n      0xffffffff\n      and\n      jump\t// in\n    tag_79:\n        /* \"contracts/Escrow.sol\":2775:2780  payee */\n      dup2\n        /* \"contracts/Escrow.sol\":2765:2790  Withdrawn(payee, payment) */\n      0xffffffffffffffffffffffffffffffffffffffff\n      and\n      0x7084f5476618d8e60b11ef0d7d3f06914655adb8793e28ff7f018d4c76d505d5\n        /* \"contracts/Escrow.sol\":2782:2789  payment */\n      dup3\n        /* \"contracts/Escrow.sol\":2765:2790  Withdrawn(payee, payment) */\n      mload(0x40)\n      tag_81\n      swap2\n      swap1\n      tag_82\n      jump\t// in\n    tag_81:\n      mload(0x40)\n      dup1\n      swap2\n      sub\n      swap1\n      log2\n        /* \"contracts/Escrow.sol\":2639:2797  {... */\n      pop\n        /* \"contracts/Escrow.sol\":2573:2797  function withdraw(address payable payee) public virtual onlyOwner {... */\n      pop\n      jump\t// out\n        /* \"contracts/Escrow.sol\":1444:1635  function adminResolutionStatus(bool inputAdminResolution, uint256 inputAdminDecision) public virtual{... */\n    tag_36:\n        /* \"contracts/Escrow.sol\":1568:1588  inputAdminResolution */\n      dup2\n        /* \"contracts/Escrow.sol\":1550:1565  adminResolution */\n      0x05\n      0x02\n        /* \"contracts/Escrow.sol\":1550:1588  adminResolution = inputAdminResolution */\n      0x0100\n      exp\n      dup2\n      sload\n      dup2\n      0xff\n      mul\n      not\n      and\n      swap1\n      dup4\n      iszero\n      iszero\n      mul\n      or\n      swap1\n      sstore\n      pop\n        /* \"contracts/Escrow.sol\":1610:1628  inputAdminDecision */\n      dup1\n        /* \"contracts/Escrow.sol\":1594:1607  adminDecision */\n      0x06\n        /* \"contracts/Escrow.sol\":1594:1628  adminDecision = inputAdminDecision */\n      dup2\n      swap1\n      sstore\n      pop\n        /* \"contracts/Escrow.sol\":1444:1635  function adminResolutionStatus(bool inputAdminResolution, uint256 inputAdminDecision) public virtual{... */\n      pop\n      pop\n      jump\t// out\n        /* \"@openzeppelin/contracts/access/Ownable.sol\":1831:1932  function renounceOwnership() public virtual onlyOwner {... */\n    tag_39:\n        /* \"@openzeppelin/contracts/access/Ownable.sol\":1094:1107  _checkOwner() */\n      tag_85\n        /* \"@openzeppelin/contracts/access/Ownable.sol\":1094:1105  _checkOwner */\n      tag_77\n        /* \"@openzeppelin/contracts/access/Ownable.sol\":1094:1107  _checkOwner() */\n      jump\t// in\n    tag_85:\n        /* \"@openzeppelin/contracts/access/Ownable.sol\":1895:1925  _transferOwnership(address(0)) */\n      tag_87\n        /* \"@openzeppelin/contracts/access/Ownable.sol\":1922:1923  0 */\n      0x00\n        /* \"@openzeppelin/contracts/access/Ownable.sol\":1895:1913  _transferOwnership */\n      tag_88\n        /* \"@openzeppelin/contracts/access/Ownable.sol\":1895:1925  _transferOwnership(address(0)) */\n      jump\t// in\n    tag_87:\n        /* \"@openzeppelin/contracts/access/Ownable.sol\":1831:1932  function renounceOwnership() public virtual onlyOwner {... */\n      jump\t// out\n        /* \"@openzeppelin/contracts/access/Ownable.sol\":1201:1286  function owner() public view virtual returns (address) {... */\n    tag_42:\n        /* \"@openzeppelin/contracts/access/Ownable.sol\":1247:1254  address */\n      0x00\n        /* \"@openzeppelin/contracts/access/Ownable.sol\":1273:1279  _owner */\n      dup1\n      0x00\n      swap1\n      sload\n      swap1\n      0x0100\n      exp\n      swap1\n      div\n      0xffffffffffffffffffffffffffffffffffffffff\n      and\n        /* \"@openzeppelin/contracts/access/Ownable.sol\":1266:1279  return _owner */\n      swap1\n      pop\n        /* \"@openzeppelin/contracts/access/Ownable.sol\":1201:1286  function owner() public view virtual returns (address) {... */\n      swap1\n      jump\t// out\n        /* \"contracts/Escrow.sol\":1641:1757  function taskValidationStatus(bool inputTaskValidated) public virtual{... */\n    tag_47:\n        /* \"contracts/Escrow.sol\":1732:1750  inputTaskValidated */\n      dup1\n        /* \"contracts/Escrow.sol\":1716:1729  taskValidated */\n      0x05\n      0x01\n        /* \"contracts/Escrow.sol\":1716:1750  taskValidated = inputTaskValidated */\n      0x0100\n      exp\n      dup2\n      sload\n      dup2\n      0xff\n      mul\n      not\n      and\n      swap1\n      dup4\n      iszero\n      iszero\n      mul\n      or\n      swap1\n      sstore\n      pop\n        /* \"contracts/Escrow.sol\":1641:1757  function taskValidationStatus(bool inputTaskValidated) public virtual{... */\n      pop\n      jump\t// out\n        /* \"contracts/Escrow.sol\":1887:2136  function withdrawalAllowed() public view virtual returns (bool){... */\n    tag_50:\n        /* \"contracts/Escrow.sol\":1945:1949  bool */\n      0x00\n        /* \"contracts/Escrow.sol\":1980:1984  true */\n      0x01\n        /* \"contracts/Escrow.sol\":1963:1984  taskCompleted == true */\n      iszero\n      iszero\n        /* \"contracts/Escrow.sol\":1963:1976  taskCompleted */\n      0x05\n      0x00\n      swap1\n      sload\n      swap1\n      0x0100\n      exp\n      swap1\n      div\n      0xff\n      and\n        /* \"contracts/Escrow.sol\":1963:1984  taskCompleted == true */\n      iszero\n      iszero\n      eq\n        /* \"contracts/Escrow.sol\":1963:2009  taskCompleted == true && taskValidated == true */\n      dup1\n      iszero\n      tag_92\n      jumpi\n      pop\n        /* \"contracts/Escrow.sol\":2005:2009  true */\n      0x01\n        /* \"contracts/Escrow.sol\":1988:2009  taskValidated == true */\n      iszero\n      iszero\n        /* \"contracts/Escrow.sol\":1988:2001  taskValidated */\n      0x05\n      0x01\n      swap1\n      sload\n      swap1\n      0x0100\n      exp\n      swap1\n      div\n      0xff\n      and\n        /* \"contracts/Escrow.sol\":1988:2009  taskValidated == true */\n      iszero\n      iszero\n      eq\n        /* \"contracts/Escrow.sol\":1963:2009  taskCompleted == true && taskValidated == true */\n    tag_92:\n        /* \"contracts/Escrow.sol\":1960:2130  if(taskCompleted == true && taskValidated == true){... */\n      iszero\n      tag_93\n      jumpi\n        /* \"contracts/Escrow.sol\":2031:2035  true */\n      0x01\n        /* \"contracts/Escrow.sol\":2024:2035  return true */\n      swap1\n      pop\n      jump(tag_91)\n        /* \"contracts/Escrow.sol\":1960:2130  if(taskCompleted == true && taskValidated == true){... */\n    tag_93:\n        /* \"contracts/Escrow.sol\":2082:2086  true */\n      0x01\n        /* \"contracts/Escrow.sol\":2063:2086  adminResolution == true */\n      iszero\n      iszero\n        /* \"contracts/Escrow.sol\":2063:2078  adminResolution */\n      0x05\n      0x02\n      swap1\n      sload\n      swap1\n      0x0100\n      exp\n      swap1\n      div\n      0xff\n      and\n        /* \"contracts/Escrow.sol\":2063:2086  adminResolution == true */\n      iszero\n      iszero\n      eq\n        /* \"contracts/Escrow.sol\":2060:2130  if(adminResolution == true){return true;}... */\n      iszero\n      tag_95\n      jumpi\n        /* \"contracts/Escrow.sol\":2095:2099  true */\n      0x01\n        /* \"contracts/Escrow.sol\":2088:2099  return true */\n      swap1\n      pop\n      jump(tag_91)\n        /* \"contracts/Escrow.sol\":2060:2130  if(adminResolution == true){return true;}... */\n    tag_95:\n        /* \"contracts/Escrow.sol\":2123:2128  false */\n      0x00\n        /* \"contracts/Escrow.sol\":2116:2128  return false */\n      swap1\n      pop\n        /* \"contracts/Escrow.sol\":1887:2136  function withdrawalAllowed() public view virtual returns (bool){... */\n    tag_91:\n      swap1\n      jump\t// out\n        /* \"contracts/Escrow.sol\":2146:2504  function testPayment() public virtual{... */\n    tag_55:\n        /* \"contracts/Escrow.sol\":2189:2204  uint256 payment */\n      0x00\n        /* \"contracts/Escrow.sol\":2207:2228  address(this).balance */\n      selfbalance\n        /* \"contracts/Escrow.sol\":2189:2228  uint256 payment = address(this).balance */\n      swap1\n      pop\n        /* \"contracts/Escrow.sol\":2259:2263  true */\n      0x01\n        /* \"contracts/Escrow.sol\":2242:2263  taskCompleted == true */\n      iszero\n      iszero\n        /* \"contracts/Escrow.sol\":2242:2255  taskCompleted */\n      0x05\n      0x00\n      swap1\n      sload\n      swap1\n      0x0100\n      exp\n      swap1\n      div\n      0xff\n      and\n        /* \"contracts/Escrow.sol\":2242:2263  taskCompleted == true */\n      iszero\n      iszero\n      eq\n        /* \"contracts/Escrow.sol\":2242:2288  taskCompleted == true && taskValidated == true */\n      dup1\n      iszero\n      tag_98\n      jumpi\n      pop\n        /* \"contracts/Escrow.sol\":2284:2288  true */\n      0x01\n        /* \"contracts/Escrow.sol\":2267:2288  taskValidated == true */\n      iszero\n      iszero\n        /* \"contracts/Escrow.sol\":2267:2280  taskValidated */\n      0x05\n      0x01\n      swap1\n      sload\n      swap1\n      0x0100\n      exp\n      swap1\n      div\n      0xff\n      and\n        /* \"contracts/Escrow.sol\":2267:2288  taskValidated == true */\n      iszero\n      iszero\n      eq\n        /* \"contracts/Escrow.sol\":2242:2288  taskCompleted == true && taskValidated == true */\n    tag_98:\n        /* \"contracts/Escrow.sol\":2241:2338  (taskCompleted == true && taskValidated == true)||(adminResolution == true && adminDecision == 1) */\n      dup1\n      tag_99\n      jumpi\n      pop\n        /* \"contracts/Escrow.sol\":2311:2315  true */\n      0x01\n        /* \"contracts/Escrow.sol\":2292:2315  adminResolution == true */\n      iszero\n      iszero\n        /* \"contracts/Escrow.sol\":2292:2307  adminResolution */\n      0x05\n      0x02\n      swap1\n      sload\n      swap1\n      0x0100\n      exp\n      swap1\n      div\n      0xff\n      and\n        /* \"contracts/Escrow.sol\":2292:2315  adminResolution == true */\n      iszero\n      iszero\n      eq\n        /* \"contracts/Escrow.sol\":2292:2337  adminResolution == true && adminDecision == 1 */\n      dup1\n      iszero\n      tag_100\n      jumpi\n      pop\n        /* \"contracts/Escrow.sol\":2336:2337  1 */\n      0x01\n        /* \"contracts/Escrow.sol\":2319:2332  adminDecision */\n      sload(0x06)\n        /* \"contracts/Escrow.sol\":2319:2337  adminDecision == 1 */\n      eq\n        /* \"contracts/Escrow.sol\":2292:2337  adminResolution == true && adminDecision == 1 */\n    tag_100:\n        /* \"contracts/Escrow.sol\":2241:2338  (taskCompleted == true && taskValidated == true)||(adminResolution == true && adminDecision == 1) */\n    tag_99:\n        /* \"contracts/Escrow.sol\":2238:2497  if((taskCompleted == true && taskValidated == true)||(adminResolution == true && adminDecision == 1)){... */\n      iszero\n      tag_101\n      jumpi\n        /* \"contracts/Escrow.sol\":2353:2382  contractor.sendValue(payment) */\n      tag_102\n        /* \"contracts/Escrow.sol\":2374:2381  payment */\n      dup2\n        /* \"contracts/Escrow.sol\":2353:2363  contractor */\n      0x01\n      0x00\n      swap1\n      sload\n      swap1\n      0x0100\n      exp\n      swap1\n      div\n      0xffffffffffffffffffffffffffffffffffffffff\n      and\n        /* \"contracts/Escrow.sol\":2353:2373  contractor.sendValue */\n      0xffffffffffffffffffffffffffffffffffffffff\n      and\n      tag_80\n      swap1\n        /* \"contracts/Escrow.sol\":2353:2382  contractor.sendValue(payment) */\n      swap2\n      swap1\n      0xffffffff\n      and\n      jump\t// in\n    tag_102:\n        /* \"contracts/Escrow.sol\":2238:2497  if((taskCompleted == true && taskValidated == true)||(adminResolution == true && adminDecision == 1)){... */\n      jump(tag_103)\n    tag_101:\n        /* \"contracts/Escrow.sol\":2429:2433  true */\n      0x01\n        /* \"contracts/Escrow.sol\":2410:2433  adminResolution == true */\n      iszero\n      iszero\n        /* \"contracts/Escrow.sol\":2410:2425  adminResolution */\n      0x05\n      0x02\n      swap1\n      sload\n      swap1\n      0x0100\n      exp\n      swap1\n      div\n      0xff\n      and\n        /* \"contracts/Escrow.sol\":2410:2433  adminResolution == true */\n      iszero\n      iszero\n      eq\n        /* \"contracts/Escrow.sol\":2410:2455  adminResolution == true && adminDecision == 0 */\n      dup1\n      iszero\n      tag_104\n      jumpi\n      pop\n        /* \"contracts/Escrow.sol\":2454:2455  0 */\n      0x00\n        /* \"contracts/Escrow.sol\":2437:2450  adminDecision */\n      sload(0x06)\n        /* \"contracts/Escrow.sol\":2437:2455  adminDecision == 0 */\n      eq\n        /* \"contracts/Escrow.sol\":2410:2455  adminResolution == true && adminDecision == 0 */\n    tag_104:\n        /* \"contracts/Escrow.sol\":2407:2497  if(adminResolution == true && adminDecision == 0){... */\n      pop\n        /* \"contracts/Escrow.sol\":2238:2497  if((taskCompleted == true && taskValidated == true)||(adminResolution == true && adminDecision == 1)){... */\n    tag_103:\n        /* \"contracts/Escrow.sol\":2183:2504  {... */\n      pop\n        /* \"contracts/Escrow.sol\":2146:2504  function testPayment() public virtual{... */\n      jump\t// out\n        /* \"@openzeppelin/contracts/access/Ownable.sol\":2081:2279  function transferOwnership(address newOwner) public virtual onlyOwner {... */\n    tag_60:\n        /* \"@openzeppelin/contracts/access/Ownable.sol\":1094:1107  _checkOwner() */\n      tag_107\n        /* \"@openzeppelin/contracts/access/Ownable.sol\":1094:1105  _checkOwner */\n      tag_77\n        /* \"@openzeppelin/contracts/access/Ownable.sol\":1094:1107  _checkOwner() */\n      jump\t// in\n    tag_107:\n        /* \"@openzeppelin/contracts/access/Ownable.sol\":2189:2190  0 */\n      0x00\n        /* \"@openzeppelin/contracts/access/Ownable.sol\":2169:2191  newOwner != address(0) */\n      0xffffffffffffffffffffffffffffffffffffffff\n      and\n        /* \"@openzeppelin/contracts/access/Ownable.sol\":2169:2177  newOwner */\n      dup2\n        /* \"@openzeppelin/contracts/access/Ownable.sol\":2169:2191  newOwner != address(0) */\n      0xffffffffffffffffffffffffffffffffffffffff\n      and\n      eq\n      iszero\n        /* \"@openzeppelin/contracts/access/Ownable.sol\":2161:2234  require(newOwner != address(0), \"Ownable: new owner is the zero address\") */\n      tag_109\n      jumpi\n      mload(0x40)\n      0x08c379a000000000000000000000000000000000000000000000000000000000\n      dup2\n      mstore\n      0x04\n      add\n      tag_110\n      swap1\n      tag_111\n      jump\t// in\n    tag_110:\n      mload(0x40)\n      dup1\n      swap2\n      sub\n      swap1\n      revert\n    tag_109:\n        /* \"@openzeppelin/contracts/access/Ownable.sol\":2244:2272  _transferOwnership(newOwner) */\n      tag_112\n        /* \"@openzeppelin/contracts/access/Ownable.sol\":2263:2271  newOwner */\n      dup2\n        /* \"@openzeppelin/contracts/access/Ownable.sol\":2244:2262  _transferOwnership */\n      tag_88\n        /* \"@openzeppelin/contracts/access/Ownable.sol\":2244:2272  _transferOwnership(newOwner) */\n      jump\t// in\n    tag_112:\n        /* \"@openzeppelin/contracts/access/Ownable.sol\":2081:2279  function transferOwnership(address newOwner) public virtual onlyOwner {... */\n      pop\n      jump\t// out\n        /* \"contracts/Escrow.sol\":480:508  address payable public admin */\n    tag_63:\n      0x03\n      0x00\n      swap1\n      sload\n      swap1\n      0x0100\n      exp\n      swap1\n      div\n      0xffffffffffffffffffffffffffffffffffffffff\n      and\n      dup2\n      jump\t// out\n        /* \"contracts/Escrow.sol\":664:958  function deposit(address payable payee, address payable broker) public payable virtual onlyOwner {... */\n    tag_69:\n        /* \"@openzeppelin/contracts/access/Ownable.sol\":1094:1107  _checkOwner() */\n      tag_114\n        /* \"@openzeppelin/contracts/access/Ownable.sol\":1094:1105  _checkOwner */\n      tag_77\n        /* \"@openzeppelin/contracts/access/Ownable.sol\":1094:1107  _checkOwner() */\n      jump\t// in\n    tag_114:\n        /* \"contracts/Escrow.sol\":784:789  payee */\n      dup2\n        /* \"contracts/Escrow.sol\":771:781  contractor */\n      0x01\n      0x00\n        /* \"contracts/Escrow.sol\":771:789  contractor = payee */\n      0x0100\n      exp\n      dup2\n      sload\n      dup2\n      0xffffffffffffffffffffffffffffffffffffffff\n      mul\n      not\n      and\n      swap1\n      dup4\n      0xffffffffffffffffffffffffffffffffffffffff\n      and\n      mul\n      or\n      swap1\n      sstore\n      pop\n        /* \"contracts/Escrow.sol\":806:816  msg.sender */\n      caller\n        /* \"contracts/Escrow.sol\":799:805  client */\n      0x02\n      0x00\n        /* \"contracts/Escrow.sol\":799:816  client=msg.sender */\n      0x0100\n      exp\n      dup2\n      sload\n      dup2\n      0xffffffffffffffffffffffffffffffffffffffff\n      mul\n      not\n      and\n      swap1\n      dup4\n      0xffffffffffffffffffffffffffffffffffffffff\n      and\n      mul\n      or\n      swap1\n      sstore\n      pop\n        /* \"contracts/Escrow.sol\":834:840  broker */\n      dup1\n        /* \"contracts/Escrow.sol\":826:831  admin */\n      0x03\n      0x00\n        /* \"contracts/Escrow.sol\":826:840  admin = broker */\n      0x0100\n      exp\n      dup2\n      sload\n      dup2\n      0xffffffffffffffffffffffffffffffffffffffff\n      mul\n      not\n      and\n      swap1\n      dup4\n      0xffffffffffffffffffffffffffffffffffffffff\n      and\n      mul\n      or\n      swap1\n      sstore\n      pop\n        /* \"contracts/Escrow.sol\":850:864  uint256 amount */\n      0x00\n        /* \"contracts/Escrow.sol\":867:876  msg.value */\n      callvalue\n        /* \"contracts/Escrow.sol\":850:876  uint256 amount = msg.value */\n      swap1\n      pop\n        /* \"contracts/Escrow.sol\":906:912  amount */\n      dup1\n        /* \"contracts/Escrow.sol\":886:895  _deposits */\n      0x04\n        /* \"contracts/Escrow.sol\":886:902  _deposits[payee] */\n      0x00\n        /* \"contracts/Escrow.sol\":896:901  payee */\n      dup6\n        /* \"contracts/Escrow.sol\":886:902  _deposits[payee] */\n      0xffffffffffffffffffffffffffffffffffffffff\n      and\n      0xffffffffffffffffffffffffffffffffffffffff\n      and\n      dup2\n      mstore\n      0x20\n      add\n      swap1\n      dup2\n      mstore\n      0x20\n      add\n      0x00\n      keccak256\n      0x00\n        /* \"contracts/Escrow.sol\":886:912  _deposits[payee] += amount */\n      dup3\n      dup3\n      sload\n      tag_116\n      swap2\n      swap1\n      tag_117\n      jump\t// in\n    tag_116:\n      swap3\n      pop\n      pop\n      dup2\n      swap1\n      sstore\n      pop\n        /* \"contracts/Escrow.sol\":937:942  payee */\n      dup3\n        /* \"contracts/Escrow.sol\":927:951  Deposited(payee, amount) */\n      0xffffffffffffffffffffffffffffffffffffffff\n      and\n      0x2da466a7b24304f47e87fa2e1e5a81b9831ce54fec19055ce277ca2f39ba42c4\n        /* \"contracts/Escrow.sol\":944:950  amount */\n      dup3\n        /* \"contracts/Escrow.sol\":927:951  Deposited(payee, amount) */\n      mload(0x40)\n      tag_118\n      swap2\n      swap1\n      tag_82\n      jump\t// in\n    tag_118:\n      mload(0x40)\n      dup1\n      swap2\n      sub\n      swap1\n      log2\n        /* \"contracts/Escrow.sol\":761:958  {... */\n      pop\n        /* \"contracts/Escrow.sol\":664:958  function deposit(address payable payee, address payable broker) public payable virtual onlyOwner {... */\n      pop\n      pop\n      jump\t// out\n        /* \"contracts/Escrow.sol\":414:447  address payable public contractor */\n    tag_72:\n      0x01\n      0x00\n      swap1\n      sload\n      swap1\n      0x0100\n      exp\n      swap1\n      div\n      0xffffffffffffffffffffffffffffffffffffffff\n      and\n      dup2\n      jump\t// out\n        /* \"@openzeppelin/contracts/access/Ownable.sol\":1359:1489  function _checkOwner() internal view virtual {... */\n    tag_77:\n        /* \"@openzeppelin/contracts/access/Ownable.sol\":1433:1445  _msgSender() */\n      tag_120\n        /* \"@openzeppelin/contracts/access/Ownable.sol\":1433:1443  _msgSender */\n      tag_121\n        /* \"@openzeppelin/contracts/access/Ownable.sol\":1433:1445  _msgSender() */\n      jump\t// in\n    tag_120:\n        /* \"@openzeppelin/contracts/access/Ownable.sol\":1422:1445  owner() == _msgSender() */\n      0xffffffffffffffffffffffffffffffffffffffff\n      and\n        /* \"@openzeppelin/contracts/access/Ownable.sol\":1422:1429  owner() */\n      tag_122\n        /* \"@openzeppelin/contracts/access/Ownable.sol\":1422:1427  owner */\n      tag_42\n        /* \"@openzeppelin/contracts/access/Ownable.sol\":1422:1429  owner() */\n      jump\t// in\n    tag_122:\n        /* \"@openzeppelin/contracts/access/Ownable.sol\":1422:1445  owner() == _msgSender() */\n      0xffffffffffffffffffffffffffffffffffffffff\n      and\n      eq\n        /* \"@openzeppelin/contracts/access/Ownable.sol\":1414:1482  require(owner() == _msgSender(), \"Ownable: caller is not the owner\") */\n      tag_123\n      jumpi\n      mload(0x40)\n      0x08c379a000000000000000000000000000000000000000000000000000000000\n      dup2\n      mstore\n      0x04\n      add\n      tag_124\n      swap1\n      tag_125\n      jump\t// in\n    tag_124:\n      mload(0x40)\n      dup1\n      swap2\n      sub\n      swap1\n      revert\n    tag_123:\n        /* \"@openzeppelin/contracts/access/Ownable.sol\":1359:1489  function _checkOwner() internal view virtual {... */\n      jump\t// out\n        /* \"@openzeppelin/contracts/utils/Address.sol\":2412:2724  function sendValue(address payable recipient, uint256 amount) internal {... */\n    tag_80:\n        /* \"@openzeppelin/contracts/utils/Address.sol\":2526:2532  amount */\n      dup1\n        /* \"@openzeppelin/contracts/utils/Address.sol\":2501:2522  address(this).balance */\n      selfbalance\n        /* \"@openzeppelin/contracts/utils/Address.sol\":2501:2532  address(this).balance >= amount */\n      lt\n      iszero\n        /* \"@openzeppelin/contracts/utils/Address.sol\":2493:2566  require(address(this).balance >= amount, \"Address: insufficient balance\") */\n      tag_127\n      jumpi\n      mload(0x40)\n      0x08c379a000000000000000000000000000000000000000000000000000000000\n      dup2\n      mstore\n      0x04\n      add\n      tag_128\n      swap1\n      tag_129\n      jump\t// in\n    tag_128:\n      mload(0x40)\n      dup1\n      swap2\n      sub\n      swap1\n      revert\n    tag_127:\n        /* \"@openzeppelin/contracts/utils/Address.sol\":2578:2590  bool success */\n      0x00\n        /* \"@openzeppelin/contracts/utils/Address.sol\":2596:2605  recipient */\n      dup3\n        /* \"@openzeppelin/contracts/utils/Address.sol\":2596:2610  recipient.call */\n      0xffffffffffffffffffffffffffffffffffffffff\n      and\n        /* \"@openzeppelin/contracts/utils/Address.sol\":2618:2624  amount */\n      dup3\n        /* \"@openzeppelin/contracts/utils/Address.sol\":2596:2629  recipient.call{value: amount}(\"\") */\n      mload(0x40)\n      tag_130\n      swap1\n      tag_131\n      jump\t// in\n    tag_130:\n      0x00\n      mload(0x40)\n      dup1\n      dup4\n      sub\n      dup2\n      dup6\n      dup8\n      gas\n      call\n      swap3\n      pop\n      pop\n      pop\n      returndatasize\n      dup1\n      0x00\n      dup2\n      eq\n      tag_134\n      jumpi\n      mload(0x40)\n      swap2\n      pop\n      and(add(returndatasize, 0x3f), not(0x1f))\n      dup3\n      add\n      0x40\n      mstore\n      returndatasize\n      dup3\n      mstore\n      returndatasize\n      0x00\n      0x20\n      dup5\n      add\n      returndatacopy\n      jump(tag_133)\n    tag_134:\n      0x60\n      swap2\n      pop\n    tag_133:\n      pop\n        /* \"@openzeppelin/contracts/utils/Address.sol\":2577:2629  (bool success, ) = recipient.call{value: amount}(\"\") */\n      pop\n      swap1\n      pop\n        /* \"@openzeppelin/contracts/utils/Address.sol\":2647:2654  success */\n      dup1\n        /* \"@openzeppelin/contracts/utils/Address.sol\":2639:2717  require(success, \"Address: unable to send value, recipient may have reverted\") */\n      tag_135\n      jumpi\n      mload(0x40)\n      0x08c379a000000000000000000000000000000000000000000000000000000000\n      dup2\n      mstore\n      0x04\n      add\n      tag_136\n      swap1\n      tag_137\n      jump\t// in\n    tag_136:\n      mload(0x40)\n      dup1\n      swap2\n      sub\n      swap1\n      revert\n    tag_135:\n        /* \"@openzeppelin/contracts/utils/Address.sol\":2483:2724  {... */\n      pop\n        /* \"@openzeppelin/contracts/utils/Address.sol\":2412:2724  function sendValue(address payable recipient, uint256 amount) internal {... */\n      pop\n      pop\n      jump\t// out\n        /* \"@openzeppelin/contracts/access/Ownable.sol\":2433:2620  function _transferOwnership(address newOwner) internal virtual {... */\n    tag_88:\n        /* \"@openzeppelin/contracts/access/Ownable.sol\":2506:2522  address oldOwner */\n      0x00\n        /* \"@openzeppelin/contracts/access/Ownable.sol\":2525:2531  _owner */\n      dup1\n      0x00\n      swap1\n      sload\n      swap1\n      0x0100\n      exp\n      swap1\n      div\n      0xffffffffffffffffffffffffffffffffffffffff\n      and\n        /* \"@openzeppelin/contracts/access/Ownable.sol\":2506:2531  address oldOwner = _owner */\n      swap1\n      pop\n        /* \"@openzeppelin/contracts/access/Ownable.sol\":2550:2558  newOwner */\n      dup2\n        /* \"@openzeppelin/contracts/access/Ownable.sol\":2541:2547  _owner */\n      0x00\n      dup1\n        /* \"@openzeppelin/contracts/access/Ownable.sol\":2541:2558  _owner = newOwner */\n      0x0100\n      exp\n      dup2\n      sload\n      dup2\n      0xffffffffffffffffffffffffffffffffffffffff\n      mul\n      not\n      and\n      swap1\n      dup4\n      0xffffffffffffffffffffffffffffffffffffffff\n      and\n      mul\n      or\n      swap1\n      sstore\n      pop\n        /* \"@openzeppelin/contracts/access/Ownable.sol\":2604:2612  newOwner */\n      dup2\n        /* \"@openzeppelin/contracts/access/Ownable.sol\":2573:2613  OwnershipTransferred(oldOwner, newOwner) */\n      0xffffffffffffffffffffffffffffffffffffffff\n      and\n        /* \"@openzeppelin/contracts/access/Ownable.sol\":2594:2602  oldOwner */\n      dup2\n        /* \"@openzeppelin/contracts/access/Ownable.sol\":2573:2613  OwnershipTransferred(oldOwner, newOwner) */\n      0xffffffffffffffffffffffffffffffffffffffff\n      and\n      0x8be0079c531659141344cd1fd0a4f28419497f9722a3daafe3b4186f6b6457e0\n      mload(0x40)\n      mload(0x40)\n      dup1\n      swap2\n      sub\n      swap1\n      log3\n        /* \"@openzeppelin/contracts/access/Ownable.sol\":2496:2620  {... */\n      pop\n        /* \"@openzeppelin/contracts/access/Ownable.sol\":2433:2620  function _transferOwnership(address newOwner) internal virtual {... */\n      pop\n      jump\t// out\n        /* \"@openzeppelin/contracts/utils/Context.sol\":640:736  function _msgSender() internal view virtual returns (address) {... */\n    tag_121:\n        /* \"@openzeppelin/contracts/utils/Context.sol\":693:700  address */\n      0x00\n        /* \"@openzeppelin/contracts/utils/Context.sol\":719:729  msg.sender */\n      caller\n        /* \"@openzeppelin/contracts/utils/Context.sol\":712:729  return msg.sender */\n      swap1\n      pop\n        /* \"@openzeppelin/contracts/utils/Context.sol\":640:736  function _msgSender() internal view virtual returns (address) {... */\n      swap1\n      jump\t// out\n        /* \"#utility.yul\":7:146   */\n    tag_141:\n        /* \"#utility.yul\":53:58   */\n      0x00\n        /* \"#utility.yul\":91:97   */\n      dup2\n        /* \"#utility.yul\":78:98   */\n      calldataload\n        /* \"#utility.yul\":69:98   */\n      swap1\n      pop\n        /* \"#utility.yul\":107:140   */\n      tag_143\n        /* \"#utility.yul\":134:139   */\n      dup2\n        /* \"#utility.yul\":107:140   */\n      tag_144\n      jump\t// in\n    tag_143:\n        /* \"#utility.yul\":7:146   */\n      swap3\n      swap2\n      pop\n      pop\n      jump\t// out\n        /* \"#utility.yul\":152:307   */\n    tag_145:\n        /* \"#utility.yul\":206:211   */\n      0x00\n        /* \"#utility.yul\":244:250   */\n      dup2\n        /* \"#utility.yul\":231:251   */\n      calldataload\n        /* \"#utility.yul\":222:251   */\n      swap1\n      pop\n        /* \"#utility.yul\":260:301   */\n      tag_147\n        /* \"#utility.yul\":295:300   */\n      dup2\n        /* \"#utility.yul\":260:301   */\n      tag_148\n      jump\t// in\n    tag_147:\n        /* \"#utility.yul\":152:307   */\n      swap3\n      swap2\n      pop\n      pop\n      jump\t// out\n        /* \"#utility.yul\":313:446   */\n    tag_149:\n        /* \"#utility.yul\":356:361   */\n      0x00\n        /* \"#utility.yul\":394:400   */\n      dup2\n        /* \"#utility.yul\":381:401   */\n      calldataload\n        /* \"#utility.yul\":372:401   */\n      swap1\n      pop\n        /* \"#utility.yul\":410:440   */\n      tag_151\n        /* \"#utility.yul\":434:439   */\n      dup2\n        /* \"#utility.yul\":410:440   */\n      tag_152\n      jump\t// in\n    tag_151:\n        /* \"#utility.yul\":313:446   */\n      swap3\n      swap2\n      pop\n      pop\n      jump\t// out\n        /* \"#utility.yul\":452:591   */\n    tag_153:\n        /* \"#utility.yul\":498:503   */\n      0x00\n        /* \"#utility.yul\":536:542   */\n      dup2\n        /* \"#utility.yul\":523:543   */\n      calldataload\n        /* \"#utility.yul\":514:543   */\n      swap1\n      pop\n        /* \"#utility.yul\":552:585   */\n      tag_155\n        /* \"#utility.yul\":579:584   */\n      dup2\n        /* \"#utility.yul\":552:585   */\n      tag_156\n      jump\t// in\n    tag_155:\n        /* \"#utility.yul\":452:591   */\n      swap3\n      swap2\n      pop\n      pop\n      jump\t// out\n        /* \"#utility.yul\":597:926   */\n    tag_59:\n        /* \"#utility.yul\":656:662   */\n      0x00\n        /* \"#utility.yul\":705:707   */\n      0x20\n        /* \"#utility.yul\":693:702   */\n      dup3\n        /* \"#utility.yul\":684:691   */\n      dup5\n        /* \"#utility.yul\":680:703   */\n      sub\n        /* \"#utility.yul\":676:708   */\n      slt\n        /* \"#utility.yul\":673:792   */\n      iszero\n      tag_158\n      jumpi\n        /* \"#utility.yul\":711:790   */\n      tag_159\n      tag_160\n      jump\t// in\n    tag_159:\n        /* \"#utility.yul\":673:792   */\n    tag_158:\n        /* \"#utility.yul\":831:832   */\n      0x00\n        /* \"#utility.yul\":856:909   */\n      tag_161\n        /* \"#utility.yul\":901:908   */\n      dup5\n        /* \"#utility.yul\":892:898   */\n      dup3\n        /* \"#utility.yul\":881:890   */\n      dup6\n        /* \"#utility.yul\":877:899   */\n      add\n        /* \"#utility.yul\":856:909   */\n      tag_141\n      jump\t// in\n    tag_161:\n        /* \"#utility.yul\":846:909   */\n      swap2\n      pop\n        /* \"#utility.yul\":802:919   */\n      pop\n        /* \"#utility.yul\":597:926   */\n      swap3\n      swap2\n      pop\n      pop\n      jump\t// out\n        /* \"#utility.yul\":932:1277   */\n    tag_30:\n        /* \"#utility.yul\":999:1005   */\n      0x00\n        /* \"#utility.yul\":1048:1050   */\n      0x20\n        /* \"#utility.yul\":1036:1045   */\n      dup3\n        /* \"#utility.yul\":1027:1034   */\n      dup5\n        /* \"#utility.yul\":1023:1046   */\n      sub\n        /* \"#utility.yul\":1019:1051   */\n      slt\n        /* \"#utility.yul\":1016:1135   */\n      iszero\n      tag_163\n      jumpi\n        /* \"#utility.yul\":1054:1133   */\n      tag_164\n      tag_160\n      jump\t// in\n    tag_164:\n        /* \"#utility.yul\":1016:1135   */\n    tag_163:\n        /* \"#utility.yul\":1174:1175   */\n      0x00\n        /* \"#utility.yul\":1199:1260   */\n      tag_165\n        /* \"#utility.yul\":1252:1259   */\n      dup5\n        /* \"#utility.yul\":1243:1249   */\n      dup3\n        /* \"#utility.yul\":1232:1241   */\n      dup6\n        /* \"#utility.yul\":1228:1250   */\n      add\n        /* \"#utility.yul\":1199:1260   */\n      tag_145\n      jump\t// in\n    tag_165:\n        /* \"#utility.yul\":1189:1260   */\n      swap2\n      pop\n        /* \"#utility.yul\":1145:1270   */\n      pop\n        /* \"#utility.yul\":932:1277   */\n      swap3\n      swap2\n      pop\n      pop\n      jump\t// out\n        /* \"#utility.yul\":1283:1789   */\n    tag_68:\n        /* \"#utility.yul\":1367:1373   */\n      0x00\n        /* \"#utility.yul\":1375:1381   */\n      dup1\n        /* \"#utility.yul\":1424:1426   */\n      0x40\n        /* \"#utility.yul\":1412:1421   */\n      dup4\n        /* \"#utility.yul\":1403:1410   */\n      dup6\n        /* \"#utility.yul\":1399:1422   */\n      sub\n        /* \"#utility.yul\":1395:1427   */\n      slt\n        /* \"#utility.yul\":1392:1511   */\n      iszero\n      tag_167\n      jumpi\n        /* \"#utility.yul\":1430:1509   */\n      tag_168\n      tag_160\n      jump\t// in\n    tag_168:\n        /* \"#utility.yul\":1392:1511   */\n    tag_167:\n        /* \"#utility.yul\":1550:1551   */\n      0x00\n        /* \"#utility.yul\":1575:1636   */\n      tag_169\n        /* \"#utility.yul\":1628:1635   */\n      dup6\n        /* \"#utility.yul\":1619:1625   */\n      dup3\n        /* \"#utility.yul\":1608:1617   */\n      dup7\n        /* \"#utility.yul\":1604:1626   */\n      add\n        /* \"#utility.yul\":1575:1636   */\n      tag_145\n      jump\t// in\n    tag_169:\n        /* \"#utility.yul\":1565:1636   */\n      swap3\n      pop\n        /* \"#utility.yul\":1521:1646   */\n      pop\n        /* \"#utility.yul\":1685:1687   */\n      0x20\n        /* \"#utility.yul\":1711:1772   */\n      tag_170\n        /* \"#utility.yul\":1764:1771   */\n      dup6\n        /* \"#utility.yul\":1755:1761   */\n      dup3\n        /* \"#utility.yul\":1744:1753   */\n      dup7\n        /* \"#utility.yul\":1740:1762   */\n      add\n        /* \"#utility.yul\":1711:1772   */\n      tag_145\n      jump\t// in\n    tag_170:\n        /* \"#utility.yul\":1701:1772   */\n      swap2\n      pop\n        /* \"#utility.yul\":1656:1782   */\n      pop\n        /* \"#utility.yul\":1283:1789   */\n      swap3\n      pop\n      swap3\n      swap1\n      pop\n      jump\t// out\n        /* \"#utility.yul\":1795:2118   */\n    tag_25:\n        /* \"#utility.yul\":1851:1857   */\n      0x00\n        /* \"#utility.yul\":1900:1902   */\n      0x20\n        /* \"#utility.yul\":1888:1897   */\n      dup3\n        /* \"#utility.yul\":1879:1886   */\n      dup5\n        /* \"#utility.yul\":1875:1898   */\n      sub\n        /* \"#utility.yul\":1871:1903   */\n      slt\n        /* \"#utility.yul\":1868:1987   */\n      iszero\n      tag_172\n      jumpi\n        /* \"#utility.yul\":1906:1985   */\n      tag_173\n      tag_160\n      jump\t// in\n    tag_173:\n        /* \"#utility.yul\":1868:1987   */\n    tag_172:\n        /* \"#utility.yul\":2026:2027   */\n      0x00\n        /* \"#utility.yul\":2051:2101   */\n      tag_174\n        /* \"#utility.yul\":2093:2100   */\n      dup5\n        /* \"#utility.yul\":2084:2090   */\n      dup3\n        /* \"#utility.yul\":2073:2082   */\n      dup6\n        /* \"#utility.yul\":2069:2091   */\n      add\n        /* \"#utility.yul\":2051:2101   */\n      tag_149\n      jump\t// in\n    tag_174:\n        /* \"#utility.yul\":2041:2101   */\n      swap2\n      pop\n        /* \"#utility.yul\":1997:2111   */\n      pop\n        /* \"#utility.yul\":1795:2118   */\n      swap3\n      swap2\n      pop\n      pop\n      jump\t// out\n        /* \"#utility.yul\":2124:2592   */\n    tag_35:\n        /* \"#utility.yul\":2189:2195   */\n      0x00\n        /* \"#utility.yul\":2197:2203   */\n      dup1\n        /* \"#utility.yul\":2246:2248   */\n      0x40\n        /* \"#utility.yul\":2234:2243   */\n      dup4\n        /* \"#utility.yul\":2225:2232   */\n      dup6\n        /* \"#utility.yul\":2221:2244   */\n      sub\n        /* \"#utility.yul\":2217:2249   */\n      slt\n        /* \"#utility.yul\":2214:2333   */\n      iszero\n      tag_176\n      jumpi\n        /* \"#utility.yul\":2252:2331   */\n      tag_177\n      tag_160\n      jump\t// in\n    tag_177:\n        /* \"#utility.yul\":2214:2333   */\n    tag_176:\n        /* \"#utility.yul\":2372:2373   */\n      0x00\n        /* \"#utility.yul\":2397:2447   */\n      tag_178\n        /* \"#utility.yul\":2439:2446   */\n      dup6\n        /* \"#utility.yul\":2430:2436   */\n      dup3\n        /* \"#utility.yul\":2419:2428   */\n      dup7\n        /* \"#utility.yul\":2415:2437   */\n      add\n        /* \"#utility.yul\":2397:2447   */\n      tag_149\n      jump\t// in\n    tag_178:\n        /* \"#utility.yul\":2387:2447   */\n      swap3\n      pop\n        /* \"#utility.yul\":2343:2457   */\n      pop\n        /* \"#utility.yul\":2496:2498   */\n      0x20\n        /* \"#utility.yul\":2522:2575   */\n      tag_179\n        /* \"#utility.yul\":2567:2574   */\n      dup6\n        /* \"#utility.yul\":2558:2564   */\n      dup3\n        /* \"#utility.yul\":2547:2556   */\n      dup7\n        /* \"#utility.yul\":2543:2565   */\n      add\n        /* \"#utility.yul\":2522:2575   */\n      tag_153\n      jump\t// in\n    tag_179:\n        /* \"#utility.yul\":2512:2575   */\n      swap2\n      pop\n        /* \"#utility.yul\":2467:2585   */\n      pop\n        /* \"#utility.yul\":2124:2592   */\n      swap3\n      pop\n      swap3\n      swap1\n      pop\n      jump\t// out\n        /* \"#utility.yul\":2598:2740   */\n    tag_180:\n        /* \"#utility.yul\":2701:2733   */\n      tag_182\n        /* \"#utility.yul\":2727:2732   */\n      dup2\n        /* \"#utility.yul\":2701:2733   */\n      tag_183\n      jump\t// in\n    tag_182:\n        /* \"#utility.yul\":2696:2699   */\n      dup3\n        /* \"#utility.yul\":2689:2734   */\n      mstore\n        /* \"#utility.yul\":2598:2740   */\n      pop\n      pop\n      jump\t// out\n        /* \"#utility.yul\":2746:2864   */\n    tag_184:\n        /* \"#utility.yul\":2833:2857   */\n      tag_186\n        /* \"#utility.yul\":2851:2856   */\n      dup2\n        /* \"#utility.yul\":2833:2857   */\n      tag_187\n      jump\t// in\n    tag_186:\n        /* \"#utility.yul\":2828:2831   */\n      dup3\n        /* \"#utility.yul\":2821:2858   */\n      mstore\n        /* \"#utility.yul\":2746:2864   */\n      pop\n      pop\n      jump\t// out\n        /* \"#utility.yul\":2870:2979   */\n    tag_188:\n        /* \"#utility.yul\":2951:2972   */\n      tag_190\n        /* \"#utility.yul\":2966:2971   */\n      dup2\n        /* \"#utility.yul\":2951:2972   */\n      tag_191\n      jump\t// in\n    tag_190:\n        /* \"#utility.yul\":2946:2949   */\n      dup3\n        /* \"#utility.yul\":2939:2973   */\n      mstore\n        /* \"#utility.yul\":2870:2979   */\n      pop\n      pop\n      jump\t// out\n        /* \"#utility.yul\":2985:3351   */\n    tag_192:\n        /* \"#utility.yul\":3127:3130   */\n      0x00\n        /* \"#utility.yul\":3148:3215   */\n      tag_194\n        /* \"#utility.yul\":3212:3214   */\n      0x26\n        /* \"#utility.yul\":3207:3210   */\n      dup4\n        /* \"#utility.yul\":3148:3215   */\n      tag_195\n      jump\t// in\n    tag_194:\n        /* \"#utility.yul\":3141:3215   */\n      swap2\n      pop\n        /* \"#utility.yul\":3224:3317   */\n      tag_196\n        /* \"#utility.yul\":3313:3316   */\n      dup3\n        /* \"#utility.yul\":3224:3317   */\n      tag_197\n      jump\t// in\n    tag_196:\n        /* \"#utility.yul\":3342:3344   */\n      0x40\n        /* \"#utility.yul\":3337:3340   */\n      dup3\n        /* \"#utility.yul\":3333:3345   */\n      add\n        /* \"#utility.yul\":3326:3345   */\n      swap1\n      pop\n        /* \"#utility.yul\":2985:3351   */\n      swap2\n      swap1\n      pop\n      jump\t// out\n        /* \"#utility.yul\":3357:3723   */\n    tag_198:\n        /* \"#utility.yul\":3499:3502   */\n      0x00\n        /* \"#utility.yul\":3520:3587   */\n      tag_200\n        /* \"#utility.yul\":3584:3586   */\n      0x3a\n        /* \"#utility.yul\":3579:3582   */\n      dup4\n        /* \"#utility.yul\":3520:3587   */\n      tag_195\n      jump\t// in\n    tag_200:\n        /* \"#utility.yul\":3513:3587   */\n      swap2\n      pop\n        /* \"#utility.yul\":3596:3689   */\n      tag_201\n        /* \"#utility.yul\":3685:3688   */\n      dup3\n        /* \"#utility.yul\":3596:3689   */\n      tag_202\n      jump\t// in\n    tag_201:\n        /* \"#utility.yul\":3714:3716   */\n      0x40\n        /* \"#utility.yul\":3709:3712   */\n      dup3\n        /* \"#utility.yul\":3705:3717   */\n      add\n        /* \"#utility.yul\":3698:3717   */\n      swap1\n      pop\n        /* \"#utility.yul\":3357:3723   */\n      swap2\n      swap1\n      pop\n      jump\t// out\n        /* \"#utility.yul\":3729:4095   */\n    tag_203:\n        /* \"#utility.yul\":3871:3874   */\n      0x00\n        /* \"#utility.yul\":3892:3959   */\n      tag_205\n        /* \"#utility.yul\":3956:3958   */\n      0x1d\n        /* \"#utility.yul\":3951:3954   */\n      dup4\n        /* \"#utility.yul\":3892:3959   */\n      tag_195\n      jump\t// in\n    tag_205:\n        /* \"#utility.yul\":3885:3959   */\n      swap2\n      pop\n        /* \"#utility.yul\":3968:4061   */\n      tag_206\n        /* \"#utility.yul\":4057:4060   */\n      dup3\n        /* \"#utility.yul\":3968:4061   */\n      tag_207\n      jump\t// in\n    tag_206:\n        /* \"#utility.yul\":4086:4088   */\n      0x20\n        /* \"#utility.yul\":4081:4084   */\n      dup3\n        /* \"#utility.yul\":4077:4089   */\n      add\n        /* \"#utility.yul\":4070:4089   */\n      swap1\n      pop\n        /* \"#utility.yul\":3729:4095   */\n      swap2\n      swap1\n      pop\n      jump\t// out\n        /* \"#utility.yul\":4101:4467   */\n    tag_208:\n        /* \"#utility.yul\":4243:4246   */\n      0x00\n        /* \"#utility.yul\":4264:4331   */\n      tag_210\n        /* \"#utility.yul\":4328:4330   */\n      0x20\n        /* \"#utility.yul\":4323:4326   */\n      dup4\n        /* \"#utility.yul\":4264:4331   */\n      tag_195\n      jump\t// in\n    tag_210:\n        /* \"#utility.yul\":4257:4331   */\n      swap2\n      pop\n        /* \"#utility.yul\":4340:4433   */\n      tag_211\n        /* \"#utility.yul\":4429:4432   */\n      dup3\n        /* \"#utility.yul\":4340:4433   */\n      tag_212\n      jump\t// in\n    tag_211:\n        /* \"#utility.yul\":4458:4460   */\n      0x20\n        /* \"#utility.yul\":4453:4456   */\n      dup3\n        /* \"#utility.yul\":4449:4461   */\n      add\n        /* \"#utility.yul\":4442:4461   */\n      swap1\n      pop\n        /* \"#utility.yul\":4101:4467   */\n      swap2\n      swap1\n      pop\n      jump\t// out\n        /* \"#utility.yul\":4473:4871   */\n    tag_213:\n        /* \"#utility.yul\":4632:4635   */\n      0x00\n        /* \"#utility.yul\":4653:4736   */\n      tag_215\n        /* \"#utility.yul\":4734:4735   */\n      0x00\n        /* \"#utility.yul\":4729:4732   */\n      dup4\n        /* \"#utility.yul\":4653:4736   */\n      tag_216\n      jump\t// in\n    tag_215:\n        /* \"#utility.yul\":4646:4736   */\n      swap2\n      pop\n        /* \"#utility.yul\":4745:4838   */\n      tag_217\n        /* \"#utility.yul\":4834:4837   */\n      dup3\n        /* \"#utility.yul\":4745:4838   */\n      tag_218\n      jump\t// in\n    tag_217:\n        /* \"#utility.yul\":4863:4864   */\n      0x00\n        /* \"#utility.yul\":4858:4861   */\n      dup3\n        /* \"#utility.yul\":4854:4865   */\n      add\n        /* \"#utility.yul\":4847:4865   */\n      swap1\n      pop\n        /* \"#utility.yul\":4473:4871   */\n      swap2\n      swap1\n      pop\n      jump\t// out\n        /* \"#utility.yul\":4877:4995   */\n    tag_219:\n        /* \"#utility.yul\":4964:4988   */\n      tag_221\n        /* \"#utility.yul\":4982:4987   */\n      dup2\n        /* \"#utility.yul\":4964:4988   */\n      tag_222\n      jump\t// in\n    tag_221:\n        /* \"#utility.yul\":4959:4962   */\n      dup3\n        /* \"#utility.yul\":4952:4989   */\n      mstore\n        /* \"#utility.yul\":4877:4995   */\n      pop\n      pop\n      jump\t// out\n        /* \"#utility.yul\":5001:5380   */\n    tag_131:\n        /* \"#utility.yul\":5185:5188   */\n      0x00\n        /* \"#utility.yul\":5207:5354   */\n      tag_224\n        /* \"#utility.yul\":5350:5353   */\n      dup3\n        /* \"#utility.yul\":5207:5354   */\n      tag_213\n      jump\t// in\n    tag_224:\n        /* \"#utility.yul\":5200:5354   */\n      swap2\n      pop\n        /* \"#utility.yul\":5371:5374   */\n      dup2\n        /* \"#utility.yul\":5364:5374   */\n      swap1\n      pop\n        /* \"#utility.yul\":5001:5380   */\n      swap2\n      swap1\n      pop\n      jump\t// out\n        /* \"#utility.yul\":5386:5608   */\n    tag_21:\n        /* \"#utility.yul\":5479:5483   */\n      0x00\n        /* \"#utility.yul\":5517:5519   */\n      0x20\n        /* \"#utility.yul\":5506:5515   */\n      dup3\n        /* \"#utility.yul\":5502:5520   */\n      add\n        /* \"#utility.yul\":5494:5520   */\n      swap1\n      pop\n        /* \"#utility.yul\":5530:5601   */\n      tag_226\n        /* \"#utility.yul\":5598:5599   */\n      0x00\n        /* \"#utility.yul\":5587:5596   */\n      dup4\n        /* \"#utility.yul\":5583:5600   */\n      add\n        /* \"#utility.yul\":5574:5580   */\n      dup5\n        /* \"#utility.yul\":5530:5601   */\n      tag_184\n      jump\t// in\n    tag_226:\n        /* \"#utility.yul\":5386:5608   */\n      swap3\n      swap2\n      pop\n      pop\n      jump\t// out\n        /* \"#utility.yul\":5614:5868   */\n    tag_65:\n        /* \"#utility.yul\":5723:5727   */\n      0x00\n        /* \"#utility.yul\":5761:5763   */\n      0x20\n        /* \"#utility.yul\":5750:5759   */\n      dup3\n        /* \"#utility.yul\":5746:5764   */\n      add\n        /* \"#utility.yul\":5738:5764   */\n      swap1\n      pop\n        /* \"#utility.yul\":5774:5861   */\n      tag_228\n        /* \"#utility.yul\":5858:5859   */\n      0x00\n        /* \"#utility.yul\":5847:5856   */\n      dup4\n        /* \"#utility.yul\":5843:5860   */\n      add\n        /* \"#utility.yul\":5834:5840   */\n      dup5\n        /* \"#utility.yul\":5774:5861   */\n      tag_180\n      jump\t// in\n    tag_228:\n        /* \"#utility.yul\":5614:5868   */\n      swap3\n      swap2\n      pop\n      pop\n      jump\t// out\n        /* \"#utility.yul\":5874:6084   */\n    tag_52:\n        /* \"#utility.yul\":5961:5965   */\n      0x00\n        /* \"#utility.yul\":5999:6001   */\n      0x20\n        /* \"#utility.yul\":5988:5997   */\n      dup3\n        /* \"#utility.yul\":5984:6002   */\n      add\n        /* \"#utility.yul\":5976:6002   */\n      swap1\n      pop\n        /* \"#utility.yul\":6012:6077   */\n      tag_230\n        /* \"#utility.yul\":6074:6075   */\n      0x00\n        /* \"#utility.yul\":6063:6072   */\n      dup4\n        /* \"#utility.yul\":6059:6076   */\n      add\n        /* \"#utility.yul\":6050:6056   */\n      dup5\n        /* \"#utility.yul\":6012:6077   */\n      tag_188\n      jump\t// in\n    tag_230:\n        /* \"#utility.yul\":5874:6084   */\n      swap3\n      swap2\n      pop\n      pop\n      jump\t// out\n        /* \"#utility.yul\":6090:6509   */\n    tag_111:\n        /* \"#utility.yul\":6256:6260   */\n      0x00\n        /* \"#utility.yul\":6294:6296   */\n      0x20\n        /* \"#utility.yul\":6283:6292   */\n      dup3\n        /* \"#utility.yul\":6279:6297   */\n      add\n        /* \"#utility.yul\":6271:6297   */\n      swap1\n      pop\n        /* \"#utility.yul\":6343:6352   */\n      dup2\n        /* \"#utility.yul\":6337:6341   */\n      dup2\n        /* \"#utility.yul\":6333:6353   */\n      sub\n        /* \"#utility.yul\":6329:6330   */\n      0x00\n        /* \"#utility.yul\":6318:6327   */\n      dup4\n        /* \"#utility.yul\":6314:6331   */\n      add\n        /* \"#utility.yul\":6307:6354   */\n      mstore\n        /* \"#utility.yul\":6371:6502   */\n      tag_232\n        /* \"#utility.yul\":6497:6501   */\n      dup2\n        /* \"#utility.yul\":6371:6502   */\n      tag_192\n      jump\t// in\n    tag_232:\n        /* \"#utility.yul\":6363:6502   */\n      swap1\n      pop\n        /* \"#utility.yul\":6090:6509   */\n      swap2\n      swap1\n      pop\n      jump\t// out\n        /* \"#utility.yul\":6515:6934   */\n    tag_137:\n        /* \"#utility.yul\":6681:6685   */\n      0x00\n        /* \"#utility.yul\":6719:6721   */\n      0x20\n        /* \"#utility.yul\":6708:6717   */\n      dup3\n        /* \"#utility.yul\":6704:6722   */\n      add\n        /* \"#utility.yul\":6696:6722   */\n      swap1\n      pop\n        /* \"#utility.yul\":6768:6777   */\n      dup2\n        /* \"#utility.yul\":6762:6766   */\n      dup2\n        /* \"#utility.yul\":6758:6778   */\n      sub\n        /* \"#utility.yul\":6754:6755   */\n      0x00\n        /* \"#utility.yul\":6743:6752   */\n      dup4\n        /* \"#utility.yul\":6739:6756   */\n      add\n        /* \"#utility.yul\":6732:6779   */\n      mstore\n        /* \"#utility.yul\":6796:6927   */\n      tag_234\n        /* \"#utility.yul\":6922:6926   */\n      dup2\n        /* \"#utility.yul\":6796:6927   */\n      tag_198\n      jump\t// in\n    tag_234:\n        /* \"#utility.yul\":6788:6927   */\n      swap1\n      pop\n        /* \"#utility.yul\":6515:6934   */\n      swap2\n      swap1\n      pop\n      jump\t// out\n        /* \"#utility.yul\":6940:7359   */\n    tag_129:\n        /* \"#utility.yul\":7106:7110   */\n      0x00\n        /* \"#utility.yul\":7144:7146   */\n      0x20\n        /* \"#utility.yul\":7133:7142   */\n      dup3\n        /* \"#utility.yul\":7129:7147   */\n      add\n        /* \"#utility.yul\":7121:7147   */\n      swap1\n      pop\n        /* \"#utility.yul\":7193:7202   */\n      dup2\n        /* \"#utility.yul\":7187:7191   */\n      dup2\n        /* \"#utility.yul\":7183:7203   */\n      sub\n        /* \"#utility.yul\":7179:7180   */\n      0x00\n        /* \"#utility.yul\":7168:7177   */\n      dup4\n        /* \"#utility.yul\":7164:7181   */\n      add\n        /* \"#utility.yul\":7157:7204   */\n      mstore\n        /* \"#utility.yul\":7221:7352   */\n      tag_236\n        /* \"#utility.yul\":7347:7351   */\n      dup2\n        /* \"#utility.yul\":7221:7352   */\n      tag_203\n      jump\t// in\n    tag_236:\n        /* \"#utility.yul\":7213:7352   */\n      swap1\n      pop\n        /* \"#utility.yul\":6940:7359   */\n      swap2\n      swap1\n      pop\n      jump\t// out\n        /* \"#utility.yul\":7365:7784   */\n    tag_125:\n        /* \"#utility.yul\":7531:7535   */\n      0x00\n        /* \"#utility.yul\":7569:7571   */\n      0x20\n        /* \"#utility.yul\":7558:7567   */\n      dup3\n        /* \"#utility.yul\":7554:7572   */\n      add\n        /* \"#utility.yul\":7546:7572   */\n      swap1\n      pop\n        /* \"#utility.yul\":7618:7627   */\n      dup2\n        /* \"#utility.yul\":7612:7616   */\n      dup2\n        /* \"#utility.yul\":7608:7628   */\n      sub\n        /* \"#utility.yul\":7604:7605   */\n      0x00\n        /* \"#utility.yul\":7593:7602   */\n      dup4\n        /* \"#utility.yul\":7589:7606   */\n      add\n        /* \"#utility.yul\":7582:7629   */\n      mstore\n        /* \"#utility.yul\":7646:7777   */\n      tag_238\n        /* \"#utility.yul\":7772:7776   */\n      dup2\n        /* \"#utility.yul\":7646:7777   */\n      tag_208\n      jump\t// in\n    tag_238:\n        /* \"#utility.yul\":7638:7777   */\n      swap1\n      pop\n        /* \"#utility.yul\":7365:7784   */\n      swap2\n      swap1\n      pop\n      jump\t// out\n        /* \"#utility.yul\":7790:8012   */\n    tag_82:\n        /* \"#utility.yul\":7883:7887   */\n      0x00\n        /* \"#utility.yul\":7921:7923   */\n      0x20\n        /* \"#utility.yul\":7910:7919   */\n      dup3\n        /* \"#utility.yul\":7906:7924   */\n      add\n        /* \"#utility.yul\":7898:7924   */\n      swap1\n      pop\n        /* \"#utility.yul\":7934:8005   */\n      tag_240\n        /* \"#utility.yul\":8002:8003   */\n      0x00\n        /* \"#utility.yul\":7991:8000   */\n      dup4\n        /* \"#utility.yul\":7987:8004   */\n      add\n        /* \"#utility.yul\":7978:7984   */\n      dup5\n        /* \"#utility.yul\":7934:8005   */\n      tag_219\n      jump\t// in\n    tag_240:\n        /* \"#utility.yul\":7790:8012   */\n      swap3\n      swap2\n      pop\n      pop\n      jump\t// out\n        /* \"#utility.yul\":8099:8246   */\n    tag_216:\n        /* \"#utility.yul\":8200:8211   */\n      0x00\n        /* \"#utility.yul\":8237:8240   */\n      dup2\n        /* \"#utility.yul\":8222:8240   */\n      swap1\n      pop\n        /* \"#utility.yul\":8099:8246   */\n      swap3\n      swap2\n      pop\n      pop\n      jump\t// out\n        /* \"#utility.yul\":8252:8421   */\n    tag_195:\n        /* \"#utility.yul\":8336:8347   */\n      0x00\n        /* \"#utility.yul\":8370:8376   */\n      dup3\n        /* \"#utility.yul\":8365:8368   */\n      dup3\n        /* \"#utility.yul\":8358:8377   */\n      mstore\n        /* \"#utility.yul\":8410:8414   */\n      0x20\n        /* \"#utility.yul\":8405:8408   */\n      dup3\n        /* \"#utility.yul\":8401:8415   */\n      add\n        /* \"#utility.yul\":8386:8415   */\n      swap1\n      pop\n        /* \"#utility.yul\":8252:8421   */\n      swap3\n      swap2\n      pop\n      pop\n      jump\t// out\n        /* \"#utility.yul\":8427:8732   */\n    tag_117:\n        /* \"#utility.yul\":8467:8470   */\n      0x00\n        /* \"#utility.yul\":8486:8506   */\n      tag_246\n        /* \"#utility.yul\":8504:8505   */\n      dup3\n        /* \"#utility.yul\":8486:8506   */\n      tag_222\n      jump\t// in\n    tag_246:\n        /* \"#utility.yul\":8481:8506   */\n      swap2\n      pop\n        /* \"#utility.yul\":8520:8540   */\n      tag_247\n        /* \"#utility.yul\":8538:8539   */\n      dup4\n        /* \"#utility.yul\":8520:8540   */\n      tag_222\n      jump\t// in\n    tag_247:\n        /* \"#utility.yul\":8515:8540   */\n      swap3\n      pop\n        /* \"#utility.yul\":8674:8675   */\n      dup3\n        /* \"#utility.yul\":8606:8672   */\n      0xffffffffffffffffffffffffffffffffffffffffffffffffffffffffffffffff\n        /* \"#utility.yul\":8602:8676   */\n      sub\n        /* \"#utility.yul\":8599:8600   */\n      dup3\n        /* \"#utility.yul\":8596:8677   */\n      gt\n        /* \"#utility.yul\":8593:8700   */\n      iszero\n      tag_248\n      jumpi\n        /* \"#utility.yul\":8680:8698   */\n      tag_249\n      tag_250\n      jump\t// in\n    tag_249:\n        /* \"#utility.yul\":8593:8700   */\n    tag_248:\n        /* \"#utility.yul\":8724:8725   */\n      dup3\n        /* \"#utility.yul\":8721:8722   */\n      dup3\n        /* \"#utility.yul\":8717:8726   */\n      add\n        /* \"#utility.yul\":8710:8726   */\n      swap1\n      pop\n        /* \"#utility.yul\":8427:8732   */\n      swap3\n      swap2\n      pop\n      pop\n      jump\t// out\n        /* \"#utility.yul\":8738:8834   */\n    tag_187:\n        /* \"#utility.yul\":8775:8782   */\n      0x00\n        /* \"#utility.yul\":8804:8828   */\n      tag_252\n        /* \"#utility.yul\":8822:8827   */\n      dup3\n        /* \"#utility.yul\":8804:8828   */\n      tag_253\n      jump\t// in\n    tag_252:\n        /* \"#utility.yul\":8793:8828   */\n      swap1\n      pop\n        /* \"#utility.yul\":8738:8834   */\n      swap2\n      swap1\n      pop\n      jump\t// out\n        /* \"#utility.yul\":8840:8944   */\n    tag_183:\n        /* \"#utility.yul\":8885:8892   */\n      0x00\n        /* \"#utility.yul\":8914:8938   */\n      tag_255\n        /* \"#utility.yul\":8932:8937   */\n      dup3\n        /* \"#utility.yul\":8914:8938   */\n      tag_253\n      jump\t// in\n    tag_255:\n        /* \"#utility.yul\":8903:8938   */\n      swap1\n      pop\n        /* \"#utility.yul\":8840:8944   */\n      swap2\n      swap1\n      pop\n      jump\t// out\n        /* \"#utility.yul\":8950:9040   */\n    tag_191:\n        /* \"#utility.yul\":8984:8991   */\n      0x00\n        /* \"#utility.yul\":9027:9032   */\n      dup2\n        /* \"#utility.yul\":9020:9033   */\n      iszero\n        /* \"#utility.yul\":9013:9034   */\n      iszero\n        /* \"#utility.yul\":9002:9034   */\n      swap1\n      pop\n        /* \"#utility.yul\":8950:9040   */\n      swap2\n      swap1\n      pop\n      jump\t// out\n        /* \"#utility.yul\":9046:9172   */\n    tag_253:\n        /* \"#utility.yul\":9083:9090   */\n      0x00\n        /* \"#utility.yul\":9123:9165   */\n      0xffffffffffffffffffffffffffffffffffffffff\n        /* \"#utility.yul\":9116:9121   */\n      dup3\n        /* \"#utility.yul\":9112:9166   */\n      and\n        /* \"#utility.yul\":9101:9166   */\n      swap1\n      pop\n        /* \"#utility.yul\":9046:9172   */\n      swap2\n      swap1\n      pop\n      jump\t// out\n        /* \"#utility.yul\":9178:9255   */\n    tag_222:\n        /* \"#utility.yul\":9215:9222   */\n      0x00\n        /* \"#utility.yul\":9244:9249   */\n      dup2\n        /* \"#utility.yul\":9233:9249   */\n      swap1\n      pop\n        /* \"#utility.yul\":9178:9255   */\n      swap2\n      swap1\n      pop\n      jump\t// out\n        /* \"#utility.yul\":9261:9441   */\n    tag_250:\n        /* \"#utility.yul\":9309:9386   */\n      0x4e487b7100000000000000000000000000000000000000000000000000000000\n        /* \"#utility.yul\":9306:9307   */\n      0x00\n        /* \"#utility.yul\":9299:9387   */\n      mstore\n        /* \"#utility.yul\":9406:9410   */\n      0x11\n        /* \"#utility.yul\":9403:9404   */\n      0x04\n        /* \"#utility.yul\":9396:9411   */\n      mstore\n        /* \"#utility.yul\":9430:9434   */\n      0x24\n        /* \"#utility.yul\":9427:9428   */\n      0x00\n        /* \"#utility.yul\":9420:9435   */\n      revert\n        /* \"#utility.yul\":9570:9687   */\n    tag_160:\n        /* \"#utility.yul\":9679:9680   */\n      0x00\n        /* \"#utility.yul\":9676:9677   */\n      dup1\n        /* \"#utility.yul\":9669:9681   */\n      revert\n        /* \"#utility.yul\":9693:9918   */\n    tag_197:\n        /* \"#utility.yul\":9833:9867   */\n      0x4f776e61626c653a206e6577206f776e657220697320746865207a65726f2061\n        /* \"#utility.yul\":9829:9830   */\n      0x00\n        /* \"#utility.yul\":9821:9827   */\n      dup3\n        /* \"#utility.yul\":9817:9831   */\n      add\n        /* \"#utility.yul\":9810:9868   */\n      mstore\n        /* \"#utility.yul\":9902:9910   */\n      0x6464726573730000000000000000000000000000000000000000000000000000\n        /* \"#utility.yul\":9897:9899   */\n      0x20\n        /* \"#utility.yul\":9889:9895   */\n      dup3\n        /* \"#utility.yul\":9885:9900   */\n      add\n        /* \"#utility.yul\":9878:9911   */\n      mstore\n        /* \"#utility.yul\":9693:9918   */\n      pop\n      jump\t// out\n        /* \"#utility.yul\":9924:10169   */\n    tag_202:\n        /* \"#utility.yul\":10064:10098   */\n      0x416464726573733a20756e61626c6520746f2073656e642076616c75652c2072\n        /* \"#utility.yul\":10060:10061   */\n      0x00\n        /* \"#utility.yul\":10052:10058   */\n      dup3\n        /* \"#utility.yul\":10048:10062   */\n      add\n        /* \"#utility.yul\":10041:10099   */\n      mstore\n        /* \"#utility.yul\":10133:10161   */\n      0x6563697069656e74206d61792068617665207265766572746564000000000000\n        /* \"#utility.yul\":10128:10130   */\n      0x20\n        /* \"#utility.yul\":10120:10126   */\n      dup3\n        /* \"#utility.yul\":10116:10131   */\n      add\n        /* \"#utility.yul\":10109:10162   */\n      mstore\n        /* \"#utility.yul\":9924:10169   */\n      pop\n      jump\t// out\n        /* \"#utility.yul\":10175:10354   */\n    tag_207:\n        /* \"#utility.yul\":10315:10346   */\n      0x416464726573733a20696e73756666696369656e742062616c616e6365000000\n        /* \"#utility.yul\":10311:10312   */\n      0x00\n        /* \"#utility.yul\":10303:10309   */\n      dup3\n        /* \"#utility.yul\":10299:10313   */\n      add\n        /* \"#utility.yul\":10292:10347   */\n      mstore\n        /* \"#utility.yul\":10175:10354   */\n      pop\n      jump\t// out\n        /* \"#utility.yul\":10360:10542   */\n    tag_212:\n        /* \"#utility.yul\":10500:10534   */\n      0x4f776e61626c653a2063616c6c6572206973206e6f7420746865206f776e6572\n        /* \"#utility.yul\":10496:10497   */\n      0x00\n        /* \"#utility.yul\":10488:10494   */\n      dup3\n        /* \"#utility.yul\":10484:10498   */\n      add\n        /* \"#utility.yul\":10477:10535   */\n      mstore\n        /* \"#utility.yul\":10360:10542   */\n      pop\n      jump\t// out\n        /* \"#utility.yul\":10548:10662   */\n    tag_218:\n      pop\n      jump\t// out\n        /* \"#utility.yul\":10668:10790   */\n    tag_144:\n        /* \"#utility.yul\":10741:10765   */\n      tag_269\n        /* \"#utility.yul\":10759:10764   */\n      dup2\n        /* \"#utility.yul\":10741:10765   */\n      tag_187\n      jump\t// in\n    tag_269:\n        /* \"#utility.yul\":10734:10739   */\n      dup2\n        /* \"#utility.yul\":10731:10766   */\n      eq\n        /* \"#utility.yul\":10721:10784   */\n      tag_270\n      jumpi\n        /* \"#utility.yul\":10780:10781   */\n      0x00\n        /* \"#utility.yul\":10777:10778   */\n      dup1\n        /* \"#utility.yul\":10770:10782   */\n      revert\n        /* \"#utility.yul\":10721:10784   */\n    tag_270:\n        /* \"#utility.yul\":10668:10790   */\n      pop\n      jump\t// out\n        /* \"#utility.yul\":10796:10934   */\n    tag_148:\n        /* \"#utility.yul\":10877:10909   */\n      tag_272\n        /* \"#utility.yul\":10903:10908   */\n      dup2\n        /* \"#utility.yul\":10877:10909   */\n      tag_183\n      jump\t// in\n    tag_272:\n        /* \"#utility.yul\":10870:10875   */\n      dup2\n        /* \"#utility.yul\":10867:10910   */\n      eq\n        /* \"#utility.yul\":10857:10928   */\n      tag_273\n      jumpi\n        /* \"#utility.yul\":10924:10925   */\n      0x00\n        /* \"#utility.yul\":10921:10922   */\n      dup1\n        /* \"#utility.yul\":10914:10926   */\n      revert\n        /* \"#utility.yul\":10857:10928   */\n    tag_273:\n        /* \"#utility.yul\":10796:10934   */\n      pop\n      jump\t// out\n        /* \"#utility.yul\":10940:11056   */\n    tag_152:\n        /* \"#utility.yul\":11010:11031   */\n      tag_275\n        /* \"#utility.yul\":11025:11030   */\n      dup2\n        /* \"#utility.yul\":11010:11031   */\n      tag_191\n      jump\t// in\n    tag_275:\n        /* \"#utility.yul\":11003:11008   */\n      dup2\n        /* \"#utility.yul\":11000:11032   */\n      eq\n        /* \"#utility.yul\":10990:11050   */\n      tag_276\n      jumpi\n        /* \"#utility.yul\":11046:11047   */\n      0x00\n        /* \"#utility.yul\":11043:11044   */\n      dup1\n        /* \"#utility.yul\":11036:11048   */\n      revert\n        /* \"#utility.yul\":10990:11050   */\n    tag_276:\n        /* \"#utility.yul\":10940:11056   */\n      pop\n      jump\t// out\n        /* \"#utility.yul\":11062:11184   */\n    tag_156:\n        /* \"#utility.yul\":11135:11159   */\n      tag_278\n        /* \"#utility.yul\":11153:11158   */\n      dup2\n        /* \"#utility.yul\":11135:11159   */\n      tag_222\n      jump\t// in\n    tag_278:\n        /* \"#utility.yul\":11128:11133   */\n      dup2\n        /* \"#utility.yul\":11125:11160   */\n      eq\n        /* \"#utility.yul\":11115:11178   */\n      tag_279\n      jumpi\n        /* \"#utility.yul\":11174:11175   */\n      0x00\n        /* \"#utility.yul\":11171:11172   */\n      dup1\n        /* \"#utility.yul\":11164:11176   */\n      revert\n        /* \"#utility.yul\":11115:11178   */\n    tag_279:\n        /* \"#utility.yul\":11062:11184   */\n      pop\n      jump\t// out\n\n    auxdata: 0xa26469706673582212206df1399a32c679b446ecc0cb976a756c702b05bf0018620eaafc0623874be7e764736f6c63430008070033\n}\n",
				"bytecode": {
					"linkReferences": {},
					"object": "608060405234801561001057600080fd5b5061002d61002261003260201b60201c565b61003a60201b60201c565b6100fe565b600033905090565b60008060009054906101000a900473ffffffffffffffffffffffffffffffffffffffff169050816000806101000a81548173ffffffffffffffffffffffffffffffffffffffff021916908373ffffffffffffffffffffffffffffffffffffffff1602179055508173ffffffffffffffffffffffffffffffffffffffff168173ffffffffffffffffffffffffffffffffffffffff167f8be0079c531659141344cd1fd0a4f28419497f9722a3daafe3b4186f6b6457e060405160405180910390a35050565b61102f8061010d6000396000f3fe6080604052600436106100c25760003560e01c80639464c8b81161007f578063f2fde38b11610059578063f2fde38b1461021a578063f851a44014610243578063f9609f081461026e578063fbfd20451461028a576100c2565b80639464c8b8146101af578063a1d19361146101d8578063b0568eaa14610203576100c2565b8063109e94cf146100c7578063251d8cd5146100f257806351cff8d91461011b5780635e32c42514610144578063715018a61461016d5780638da5cb5b14610184575b600080fd5b3480156100d357600080fd5b506100dc6102b5565b6040516100e99190610cbe565b60405180910390f35b3480156100fe57600080fd5b5061011960048036038101906101149190610b51565b6102db565b005b34801561012757600080fd5b50610142600480360381019061013d9190610ae4565b6102f8565b005b34801561015057600080fd5b5061016b60048036038101906101669190610b7e565b610404565b005b34801561017957600080fd5b50610182610429565b005b34801561019057600080fd5b5061019961043d565b6040516101a69190610cbe565b60405180910390f35b3480156101bb57600080fd5b506101d660048036038101906101d19190610b51565b610466565b005b3480156101e457600080fd5b506101ed610483565b6040516101fa9190610cf4565b60405180910390f35b34801561020f57600080fd5b506102186104f6565b005b34801561022657600080fd5b50610241600480360381019061023c9190610ab7565b6105dc565b005b34801561024f57600080fd5b50610258610660565b6040516102659190610cd9565b60405180910390f35b61028860048036038101906102839190610b11565b610686565b005b34801561029657600080fd5b5061029f6107ff565b6040516102ac9190610cd9565b60405180910390f35b600260009054906101000a900473ffffffffffffffffffffffffffffffffffffffff1681565b80600560006101000a81548160ff02191690831515021790555050565b610300610825565b6000600460008373ffffffffffffffffffffffffffffffffffffffff1673ffffffffffffffffffffffffffffffffffffffff1681526020019081526020016000205490506000600460008473ffffffffffffffffffffffffffffffffffffffff1673ffffffffffffffffffffffffffffffffffffffff168152602001908152602001600020819055506103b2818373ffffffffffffffffffffffffffffffffffffffff166108a390919063ffffffff16565b8173ffffffffffffffffffffffffffffffffffffffff167f7084f5476618d8e60b11ef0d7d3f06914655adb8793e28ff7f018d4c76d505d5826040516103f89190610d8f565b60405180910390a25050565b81600560026101000a81548160ff021916908315150217905550806006819055505050565b610431610825565b61043b6000610997565b565b60008060009054906101000a900473ffffffffffffffffffffffffffffffffffffffff16905090565b80600560016101000a81548160ff02191690831515021790555050565b600060011515600560009054906101000a900460ff1615151480156104bb575060011515600560019054906101000a900460ff161515145b156104c957600190506104f3565b60011515600560029054906101000a900460ff16151514156104ee57600190506104f3565b600090505b90565b600047905060011515600560009054906101000a900460ff161515148015610531575060011515600560019054906101000a900460ff161515145b8061055d575060011515600560029054906101000a900460ff16151514801561055c57506001600654145b5b156105b2576105ad81600160009054906101000a900473ffffffffffffffffffffffffffffffffffffffff1673ffffffffffffffffffffffffffffffffffffffff166108a390919063ffffffff16565b6105d9565b60011515600560029054906101000a900460ff1615151480156105d757506000600654145b505b50565b6105e4610825565b600073ffffffffffffffffffffffffffffffffffffffff168173ffffffffffffffffffffffffffffffffffffffff161415610654576040517f08c379a000000000000000000000000000000000000000000000000000000000815260040161064b90610d0f565b60405180910390fd5b61065d81610997565b50565b600360009054906101000a900473ffffffffffffffffffffffffffffffffffffffff1681565b61068e610825565b81600160006101000a81548173ffffffffffffffffffffffffffffffffffffffff021916908373ffffffffffffffffffffffffffffffffffffffff16021790555033600260006101000a81548173ffffffffffffffffffffffffffffffffffffffff021916908373ffffffffffffffffffffffffffffffffffffffff16021790555080600360006101000a81548173ffffffffffffffffffffffffffffffffffffffff021916908373ffffffffffffffffffffffffffffffffffffffff160217905550600034905080600460008573ffffffffffffffffffffffffffffffffffffffff1673ffffffffffffffffffffffffffffffffffffffff16815260200190815260200160002060008282546107a59190610dc6565b925050819055508273ffffffffffffffffffffffffffffffffffffffff167f2da466a7b24304f47e87fa2e1e5a81b9831ce54fec19055ce277ca2f39ba42c4826040516107f29190610d8f565b60405180910390a2505050565b600160009054906101000a900473ffffffffffffffffffffffffffffffffffffffff1681565b61082d610a5b565b73ffffffffffffffffffffffffffffffffffffffff1661084b61043d565b73ffffffffffffffffffffffffffffffffffffffff16146108a1576040517f08c379a000000000000000000000000000000000000000000000000000000000815260040161089890610d6f565b60405180910390fd5b565b804710156108e6576040517f08c379a00000000000000000000000000000000000000000000000000000000081526004016108dd90610d4f565b60405180910390fd5b60008273ffffffffffffffffffffffffffffffffffffffff168260405161090c90610ca9565b60006040518083038185875af1925050503d8060008114610949576040519150601f19603f3d011682016040523d82523d6000602084013e61094e565b606091505b5050905080610992576040517f08c379a000000000000000000000000000000000000000000000000000000000815260040161098990610d2f565b60405180910390fd5b505050565b60008060009054906101000a900473ffffffffffffffffffffffffffffffffffffffff169050816000806101000a81548173ffffffffffffffffffffffffffffffffffffffff021916908373ffffffffffffffffffffffffffffffffffffffff1602179055508173ffffffffffffffffffffffffffffffffffffffff168173ffffffffffffffffffffffffffffffffffffffff167f8be0079c531659141344cd1fd0a4f28419497f9722a3daafe3b4186f6b6457e060405160405180910390a35050565b600033905090565b600081359050610a7281610f9d565b92915050565b600081359050610a8781610fb4565b92915050565b600081359050610a9c81610fcb565b92915050565b600081359050610ab181610fe2565b92915050565b600060208284031215610acd57610acc610ea5565b5b6000610adb84828501610a63565b91505092915050565b600060208284031215610afa57610af9610ea5565b5b6000610b0884828501610a78565b91505092915050565b60008060408385031215610b2857610b27610ea5565b5b6000610b3685828601610a78565b9250506020610b4785828601610a78565b9150509250929050565b600060208284031215610b6757610b66610ea5565b5b6000610b7584828501610a8d565b91505092915050565b60008060408385031215610b9557610b94610ea5565b5b6000610ba385828601610a8d565b9250506020610bb485828601610aa2565b9150509250929050565b610bc781610e2e565b82525050565b610bd681610e1c565b82525050565b610be581610e40565b82525050565b6000610bf8602683610db5565b9150610c0382610eaa565b604082019050919050565b6000610c1b603a83610db5565b9150610c2682610ef9565b604082019050919050565b6000610c3e601d83610db5565b9150610c4982610f48565b602082019050919050565b6000610c61602083610db5565b9150610c6c82610f71565b602082019050919050565b6000610c84600083610daa565b9150610c8f82610f9a565b600082019050919050565b610ca381610e6c565b82525050565b6000610cb482610c77565b9150819050919050565b6000602082019050610cd36000830184610bcd565b92915050565b6000602082019050610cee6000830184610bbe565b92915050565b6000602082019050610d096000830184610bdc565b92915050565b60006020820190508181036000830152610d2881610beb565b9050919050565b60006020820190508181036000830152610d4881610c0e565b9050919050565b60006020820190508181036000830152610d6881610c31565b9050919050565b60006020820190508181036000830152610d8881610c54565b9050919050565b6000602082019050610da46000830184610c9a565b92915050565b600081905092915050565b600082825260208201905092915050565b6000610dd182610e6c565b9150610ddc83610e6c565b9250827fffffffffffffffffffffffffffffffffffffffffffffffffffffffffffffffff03821115610e1157610e10610e76565b5b828201905092915050565b6000610e2782610e4c565b9050919050565b6000610e3982610e4c565b9050919050565b60008115159050919050565b600073ffffffffffffffffffffffffffffffffffffffff82169050919050565b6000819050919050565b7f4e487b7100000000000000000000000000000000000000000000000000000000600052601160045260246000fd5b600080fd5b7f4f776e61626c653a206e6577206f776e657220697320746865207a65726f206160008201527f6464726573730000000000000000000000000000000000000000000000000000602082015250565b7f416464726573733a20756e61626c6520746f2073656e642076616c75652c207260008201527f6563697069656e74206d61792068617665207265766572746564000000000000602082015250565b7f416464726573733a20696e73756666696369656e742062616c616e6365000000600082015250565b7f4f776e61626c653a2063616c6c6572206973206e6f7420746865206f776e6572600082015250565b50565b610fa681610e1c565b8114610fb157600080fd5b50565b610fbd81610e2e565b8114610fc857600080fd5b50565b610fd481610e40565b8114610fdf57600080fd5b50565b610feb81610e6c565b8114610ff657600080fd5b5056fea26469706673582212206df1399a32c679b446ecc0cb976a756c702b05bf0018620eaafc0623874be7e764736f6c63430008070033",
					"opcodes": "PUSH1 0x80 PUSH1 0x40 MSTORE CALLVALUE DUP1 ISZERO PUSH2 0x10 JUMPI PUSH1 0x0 DUP1 REVERT JUMPDEST POP PUSH2 0x2D PUSH2 0x22 PUSH2 0x32 PUSH1 0x20 SHL PUSH1 0x20 SHR JUMP JUMPDEST PUSH2 0x3A PUSH1 0x20 SHL PUSH1 0x20 SHR JUMP JUMPDEST PUSH2 0xFE JUMP JUMPDEST PUSH1 0x0 CALLER SWAP1 POP SWAP1 JUMP JUMPDEST PUSH1 0x0 DUP1 PUSH1 0x0 SWAP1 SLOAD SWAP1 PUSH2 0x100 EXP SWAP1 DIV PUSH20 0xFFFFFFFFFFFFFFFFFFFFFFFFFFFFFFFFFFFFFFFF AND SWAP1 POP DUP2 PUSH1 0x0 DUP1 PUSH2 0x100 EXP DUP2 SLOAD DUP2 PUSH20 0xFFFFFFFFFFFFFFFFFFFFFFFFFFFFFFFFFFFFFFFF MUL NOT AND SWAP1 DUP4 PUSH20 0xFFFFFFFFFFFFFFFFFFFFFFFFFFFFFFFFFFFFFFFF AND MUL OR SWAP1 SSTORE POP DUP2 PUSH20 0xFFFFFFFFFFFFFFFFFFFFFFFFFFFFFFFFFFFFFFFF AND DUP2 PUSH20 0xFFFFFFFFFFFFFFFFFFFFFFFFFFFFFFFFFFFFFFFF AND PUSH32 0x8BE0079C531659141344CD1FD0A4F28419497F9722A3DAAFE3B4186F6B6457E0 PUSH1 0x40 MLOAD PUSH1 0x40 MLOAD DUP1 SWAP2 SUB SWAP1 LOG3 POP POP JUMP JUMPDEST PUSH2 0x102F DUP1 PUSH2 0x10D PUSH1 0x0 CODECOPY PUSH1 0x0 RETURN INVALID PUSH1 0x80 PUSH1 0x40 MSTORE PUSH1 0x4 CALLDATASIZE LT PUSH2 0xC2 JUMPI PUSH1 0x0 CALLDATALOAD PUSH1 0xE0 SHR DUP1 PUSH4 0x9464C8B8 GT PUSH2 0x7F JUMPI DUP1 PUSH4 0xF2FDE38B GT PUSH2 0x59 JUMPI DUP1 PUSH4 0xF2FDE38B EQ PUSH2 0x21A JUMPI DUP1 PUSH4 0xF851A440 EQ PUSH2 0x243 JUMPI DUP1 PUSH4 0xF9609F08 EQ PUSH2 0x26E JUMPI DUP1 PUSH4 0xFBFD2045 EQ PUSH2 0x28A JUMPI PUSH2 0xC2 JUMP JUMPDEST DUP1 PUSH4 0x9464C8B8 EQ PUSH2 0x1AF JUMPI DUP1 PUSH4 0xA1D19361 EQ PUSH2 0x1D8 JUMPI DUP1 PUSH4 0xB0568EAA EQ PUSH2 0x203 JUMPI PUSH2 0xC2 JUMP JUMPDEST DUP1 PUSH4 0x109E94CF EQ PUSH2 0xC7 JUMPI DUP1 PUSH4 0x251D8CD5 EQ PUSH2 0xF2 JUMPI DUP1 PUSH4 0x51CFF8D9 EQ PUSH2 0x11B JUMPI DUP1 PUSH4 0x5E32C425 EQ PUSH2 0x144 JUMPI DUP1 PUSH4 0x715018A6 EQ PUSH2 0x16D JUMPI DUP1 PUSH4 0x8DA5CB5B EQ PUSH2 0x184 JUMPI JUMPDEST PUSH1 0x0 DUP1 REVERT JUMPDEST CALLVALUE DUP1 ISZERO PUSH2 0xD3 JUMPI PUSH1 0x0 DUP1 REVERT JUMPDEST POP PUSH2 0xDC PUSH2 0x2B5 JUMP JUMPDEST PUSH1 0x40 MLOAD PUSH2 0xE9 SWAP2 SWAP1 PUSH2 0xCBE JUMP JUMPDEST PUSH1 0x40 MLOAD DUP1 SWAP2 SUB SWAP1 RETURN JUMPDEST CALLVALUE DUP1 ISZERO PUSH2 0xFE JUMPI PUSH1 0x0 DUP1 REVERT JUMPDEST POP PUSH2 0x119 PUSH1 0x4 DUP1 CALLDATASIZE SUB DUP2 ADD SWAP1 PUSH2 0x114 SWAP2 SWAP1 PUSH2 0xB51 JUMP JUMPDEST PUSH2 0x2DB JUMP JUMPDEST STOP JUMPDEST CALLVALUE DUP1 ISZERO PUSH2 0x127 JUMPI PUSH1 0x0 DUP1 REVERT JUMPDEST POP PUSH2 0x142 PUSH1 0x4 DUP1 CALLDATASIZE SUB DUP2 ADD SWAP1 PUSH2 0x13D SWAP2 SWAP1 PUSH2 0xAE4 JUMP JUMPDEST PUSH2 0x2F8 JUMP JUMPDEST STOP JUMPDEST CALLVALUE DUP1 ISZERO PUSH2 0x150 JUMPI PUSH1 0x0 DUP1 REVERT JUMPDEST POP PUSH2 0x16B PUSH1 0x4 DUP1 CALLDATASIZE SUB DUP2 ADD SWAP1 PUSH2 0x166 SWAP2 SWAP1 PUSH2 0xB7E JUMP JUMPDEST PUSH2 0x404 JUMP JUMPDEST STOP JUMPDEST CALLVALUE DUP1 ISZERO PUSH2 0x179 JUMPI PUSH1 0x0 DUP1 REVERT JUMPDEST POP PUSH2 0x182 PUSH2 0x429 JUMP JUMPDEST STOP JUMPDEST CALLVALUE DUP1 ISZERO PUSH2 0x190 JUMPI PUSH1 0x0 DUP1 REVERT JUMPDEST POP PUSH2 0x199 PUSH2 0x43D JUMP JUMPDEST PUSH1 0x40 MLOAD PUSH2 0x1A6 SWAP2 SWAP1 PUSH2 0xCBE JUMP JUMPDEST PUSH1 0x40 MLOAD DUP1 SWAP2 SUB SWAP1 RETURN JUMPDEST CALLVALUE DUP1 ISZERO PUSH2 0x1BB JUMPI PUSH1 0x0 DUP1 REVERT JUMPDEST POP PUSH2 0x1D6 PUSH1 0x4 DUP1 CALLDATASIZE SUB DUP2 ADD SWAP1 PUSH2 0x1D1 SWAP2 SWAP1 PUSH2 0xB51 JUMP JUMPDEST PUSH2 0x466 JUMP JUMPDEST STOP JUMPDEST CALLVALUE DUP1 ISZERO PUSH2 0x1E4 JUMPI PUSH1 0x0 DUP1 REVERT JUMPDEST POP PUSH2 0x1ED PUSH2 0x483 JUMP JUMPDEST PUSH1 0x40 MLOAD PUSH2 0x1FA SWAP2 SWAP1 PUSH2 0xCF4 JUMP JUMPDEST PUSH1 0x40 MLOAD DUP1 SWAP2 SUB SWAP1 RETURN JUMPDEST CALLVALUE DUP1 ISZERO PUSH2 0x20F JUMPI PUSH1 0x0 DUP1 REVERT JUMPDEST POP PUSH2 0x218 PUSH2 0x4F6 JUMP JUMPDEST STOP JUMPDEST CALLVALUE DUP1 ISZERO PUSH2 0x226 JUMPI PUSH1 0x0 DUP1 REVERT JUMPDEST POP PUSH2 0x241 PUSH1 0x4 DUP1 CALLDATASIZE SUB DUP2 ADD SWAP1 PUSH2 0x23C SWAP2 SWAP1 PUSH2 0xAB7 JUMP JUMPDEST PUSH2 0x5DC JUMP JUMPDEST STOP JUMPDEST CALLVALUE DUP1 ISZERO PUSH2 0x24F JUMPI PUSH1 0x0 DUP1 REVERT JUMPDEST POP PUSH2 0x258 PUSH2 0x660 JUMP JUMPDEST PUSH1 0x40 MLOAD PUSH2 0x265 SWAP2 SWAP1 PUSH2 0xCD9 JUMP JUMPDEST PUSH1 0x40 MLOAD DUP1 SWAP2 SUB SWAP1 RETURN JUMPDEST PUSH2 0x288 PUSH1 0x4 DUP1 CALLDATASIZE SUB DUP2 ADD SWAP1 PUSH2 0x283 SWAP2 SWAP1 PUSH2 0xB11 JUMP JUMPDEST PUSH2 0x686 JUMP JUMPDEST STOP JUMPDEST CALLVALUE DUP1 ISZERO PUSH2 0x296 JUMPI PUSH1 0x0 DUP1 REVERT JUMPDEST POP PUSH2 0x29F PUSH2 0x7FF JUMP JUMPDEST PUSH1 0x40 MLOAD PUSH2 0x2AC SWAP2 SWAP1 PUSH2 0xCD9 JUMP JUMPDEST PUSH1 0x40 MLOAD DUP1 SWAP2 SUB SWAP1 RETURN JUMPDEST PUSH1 0x2 PUSH1 0x0 SWAP1 SLOAD SWAP1 PUSH2 0x100 EXP SWAP1 DIV PUSH20 0xFFFFFFFFFFFFFFFFFFFFFFFFFFFFFFFFFFFFFFFF AND DUP2 JUMP JUMPDEST DUP1 PUSH1 0x5 PUSH1 0x0 PUSH2 0x100 EXP DUP2 SLOAD DUP2 PUSH1 0xFF MUL NOT AND SWAP1 DUP4 ISZERO ISZERO MUL OR SWAP1 SSTORE POP POP JUMP JUMPDEST PUSH2 0x300 PUSH2 0x825 JUMP JUMPDEST PUSH1 0x0 PUSH1 0x4 PUSH1 0x0 DUP4 PUSH20 0xFFFFFFFFFFFFFFFFFFFFFFFFFFFFFFFFFFFFFFFF AND PUSH20 0xFFFFFFFFFFFFFFFFFFFFFFFFFFFFFFFFFFFFFFFF AND DUP2 MSTORE PUSH1 0x20 ADD SWAP1 DUP2 MSTORE PUSH1 0x20 ADD PUSH1 0x0 KECCAK256 SLOAD SWAP1 POP PUSH1 0x0 PUSH1 0x4 PUSH1 0x0 DUP5 PUSH20 0xFFFFFFFFFFFFFFFFFFFFFFFFFFFFFFFFFFFFFFFF AND PUSH20 0xFFFFFFFFFFFFFFFFFFFFFFFFFFFFFFFFFFFFFFFF AND DUP2 MSTORE PUSH1 0x20 ADD SWAP1 DUP2 MSTORE PUSH1 0x20 ADD PUSH1 0x0 KECCAK256 DUP2 SWAP1 SSTORE POP PUSH2 0x3B2 DUP2 DUP4 PUSH20 0xFFFFFFFFFFFFFFFFFFFFFFFFFFFFFFFFFFFFFFFF AND PUSH2 0x8A3 SWAP1 SWAP2 SWAP1 PUSH4 0xFFFFFFFF AND JUMP JUMPDEST DUP2 PUSH20 0xFFFFFFFFFFFFFFFFFFFFFFFFFFFFFFFFFFFFFFFF AND PUSH32 0x7084F5476618D8E60B11EF0D7D3F06914655ADB8793E28FF7F018D4C76D505D5 DUP3 PUSH1 0x40 MLOAD PUSH2 0x3F8 SWAP2 SWAP1 PUSH2 0xD8F JUMP JUMPDEST PUSH1 0x40 MLOAD DUP1 SWAP2 SUB SWAP1 LOG2 POP POP JUMP JUMPDEST DUP2 PUSH1 0x5 PUSH1 0x2 PUSH2 0x100 EXP DUP2 SLOAD DUP2 PUSH1 0xFF MUL NOT AND SWAP1 DUP4 ISZERO ISZERO MUL OR SWAP1 SSTORE POP DUP1 PUSH1 0x6 DUP2 SWAP1 SSTORE POP POP POP JUMP JUMPDEST PUSH2 0x431 PUSH2 0x825 JUMP JUMPDEST PUSH2 0x43B PUSH1 0x0 PUSH2 0x997 JUMP JUMPDEST JUMP JUMPDEST PUSH1 0x0 DUP1 PUSH1 0x0 SWAP1 SLOAD SWAP1 PUSH2 0x100 EXP SWAP1 DIV PUSH20 0xFFFFFFFFFFFFFFFFFFFFFFFFFFFFFFFFFFFFFFFF AND SWAP1 POP SWAP1 JUMP JUMPDEST DUP1 PUSH1 0x5 PUSH1 0x1 PUSH2 0x100 EXP DUP2 SLOAD DUP2 PUSH1 0xFF MUL NOT AND SWAP1 DUP4 ISZERO ISZERO MUL OR SWAP1 SSTORE POP POP JUMP JUMPDEST PUSH1 0x0 PUSH1 0x1 ISZERO ISZERO PUSH1 0x5 PUSH1 0x0 SWAP1 SLOAD SWAP1 PUSH2 0x100 EXP SWAP1 DIV PUSH1 0xFF AND ISZERO ISZERO EQ DUP1 ISZERO PUSH2 0x4BB JUMPI POP PUSH1 0x1 ISZERO ISZERO PUSH1 0x5 PUSH1 0x1 SWAP1 SLOAD SWAP1 PUSH2 0x100 EXP SWAP1 DIV PUSH1 0xFF AND ISZERO ISZERO EQ JUMPDEST ISZERO PUSH2 0x4C9 JUMPI PUSH1 0x1 SWAP1 POP PUSH2 0x4F3 JUMP JUMPDEST PUSH1 0x1 ISZERO ISZERO PUSH1 0x5 PUSH1 0x2 SWAP1 SLOAD SWAP1 PUSH2 0x100 EXP SWAP1 DIV PUSH1 0xFF AND ISZERO ISZERO EQ ISZERO PUSH2 0x4EE JUMPI PUSH1 0x1 SWAP1 POP PUSH2 0x4F3 JUMP JUMPDEST PUSH1 0x0 SWAP1 POP JUMPDEST SWAP1 JUMP JUMPDEST PUSH1 0x0 SELFBALANCE SWAP1 POP PUSH1 0x1 ISZERO ISZERO PUSH1 0x5 PUSH1 0x0 SWAP1 SLOAD SWAP1 PUSH2 0x100 EXP SWAP1 DIV PUSH1 0xFF AND ISZERO ISZERO EQ DUP1 ISZERO PUSH2 0x531 JUMPI POP PUSH1 0x1 ISZERO ISZERO PUSH1 0x5 PUSH1 0x1 SWAP1 SLOAD SWAP1 PUSH2 0x100 EXP SWAP1 DIV PUSH1 0xFF AND ISZERO ISZERO EQ JUMPDEST DUP1 PUSH2 0x55D JUMPI POP PUSH1 0x1 ISZERO ISZERO PUSH1 0x5 PUSH1 0x2 SWAP1 SLOAD SWAP1 PUSH2 0x100 EXP SWAP1 DIV PUSH1 0xFF AND ISZERO ISZERO EQ DUP1 ISZERO PUSH2 0x55C JUMPI POP PUSH1 0x1 PUSH1 0x6 SLOAD EQ JUMPDEST JUMPDEST ISZERO PUSH2 0x5B2 JUMPI PUSH2 0x5AD DUP2 PUSH1 0x1 PUSH1 0x0 SWAP1 SLOAD SWAP1 PUSH2 0x100 EXP SWAP1 DIV PUSH20 0xFFFFFFFFFFFFFFFFFFFFFFFFFFFFFFFFFFFFFFFF AND PUSH20 0xFFFFFFFFFFFFFFFFFFFFFFFFFFFFFFFFFFFFFFFF AND PUSH2 0x8A3 SWAP1 SWAP2 SWAP1 PUSH4 0xFFFFFFFF AND JUMP JUMPDEST PUSH2 0x5D9 JUMP JUMPDEST PUSH1 0x1 ISZERO ISZERO PUSH1 0x5 PUSH1 0x2 SWAP1 SLOAD SWAP1 PUSH2 0x100 EXP SWAP1 DIV PUSH1 0xFF AND ISZERO ISZERO EQ DUP1 ISZERO PUSH2 0x5D7 JUMPI POP PUSH1 0x0 PUSH1 0x6 SLOAD EQ JUMPDEST POP JUMPDEST POP JUMP JUMPDEST PUSH2 0x5E4 PUSH2 0x825 JUMP JUMPDEST PUSH1 0x0 PUSH20 0xFFFFFFFFFFFFFFFFFFFFFFFFFFFFFFFFFFFFFFFF AND DUP2 PUSH20 0xFFFFFFFFFFFFFFFFFFFFFFFFFFFFFFFFFFFFFFFF AND EQ ISZERO PUSH2 0x654 JUMPI PUSH1 0x40 MLOAD PUSH32 0x8C379A000000000000000000000000000000000000000000000000000000000 DUP2 MSTORE PUSH1 0x4 ADD PUSH2 0x64B SWAP1 PUSH2 0xD0F JUMP JUMPDEST PUSH1 0x40 MLOAD DUP1 SWAP2 SUB SWAP1 REVERT JUMPDEST PUSH2 0x65D DUP2 PUSH2 0x997 JUMP JUMPDEST POP JUMP JUMPDEST PUSH1 0x3 PUSH1 0x0 SWAP1 SLOAD SWAP1 PUSH2 0x100 EXP SWAP1 DIV PUSH20 0xFFFFFFFFFFFFFFFFFFFFFFFFFFFFFFFFFFFFFFFF AND DUP2 JUMP JUMPDEST PUSH2 0x68E PUSH2 0x825 JUMP JUMPDEST DUP2 PUSH1 0x1 PUSH1 0x0 PUSH2 0x100 EXP DUP2 SLOAD DUP2 PUSH20 0xFFFFFFFFFFFFFFFFFFFFFFFFFFFFFFFFFFFFFFFF MUL NOT AND SWAP1 DUP4 PUSH20 0xFFFFFFFFFFFFFFFFFFFFFFFFFFFFFFFFFFFFFFFF AND MUL OR SWAP1 SSTORE POP CALLER PUSH1 0x2 PUSH1 0x0 PUSH2 0x100 EXP DUP2 SLOAD DUP2 PUSH20 0xFFFFFFFFFFFFFFFFFFFFFFFFFFFFFFFFFFFFFFFF MUL NOT AND SWAP1 DUP4 PUSH20 0xFFFFFFFFFFFFFFFFFFFFFFFFFFFFFFFFFFFFFFFF AND MUL OR SWAP1 SSTORE POP DUP1 PUSH1 0x3 PUSH1 0x0 PUSH2 0x100 EXP DUP2 SLOAD DUP2 PUSH20 0xFFFFFFFFFFFFFFFFFFFFFFFFFFFFFFFFFFFFFFFF MUL NOT AND SWAP1 DUP4 PUSH20 0xFFFFFFFFFFFFFFFFFFFFFFFFFFFFFFFFFFFFFFFF AND MUL OR SWAP1 SSTORE POP PUSH1 0x0 CALLVALUE SWAP1 POP DUP1 PUSH1 0x4 PUSH1 0x0 DUP6 PUSH20 0xFFFFFFFFFFFFFFFFFFFFFFFFFFFFFFFFFFFFFFFF AND PUSH20 0xFFFFFFFFFFFFFFFFFFFFFFFFFFFFFFFFFFFFFFFF AND DUP2 MSTORE PUSH1 0x20 ADD SWAP1 DUP2 MSTORE PUSH1 0x20 ADD PUSH1 0x0 KECCAK256 PUSH1 0x0 DUP3 DUP3 SLOAD PUSH2 0x7A5 SWAP2 SWAP1 PUSH2 0xDC6 JUMP JUMPDEST SWAP3 POP POP DUP2 SWAP1 SSTORE POP DUP3 PUSH20 0xFFFFFFFFFFFFFFFFFFFFFFFFFFFFFFFFFFFFFFFF AND PUSH32 0x2DA466A7B24304F47E87FA2E1E5A81B9831CE54FEC19055CE277CA2F39BA42C4 DUP3 PUSH1 0x40 MLOAD PUSH2 0x7F2 SWAP2 SWAP1 PUSH2 0xD8F JUMP JUMPDEST PUSH1 0x40 MLOAD DUP1 SWAP2 SUB SWAP1 LOG2 POP POP POP JUMP JUMPDEST PUSH1 0x1 PUSH1 0x0 SWAP1 SLOAD SWAP1 PUSH2 0x100 EXP SWAP1 DIV PUSH20 0xFFFFFFFFFFFFFFFFFFFFFFFFFFFFFFFFFFFFFFFF AND DUP2 JUMP JUMPDEST PUSH2 0x82D PUSH2 0xA5B JUMP JUMPDEST PUSH20 0xFFFFFFFFFFFFFFFFFFFFFFFFFFFFFFFFFFFFFFFF AND PUSH2 0x84B PUSH2 0x43D JUMP JUMPDEST PUSH20 0xFFFFFFFFFFFFFFFFFFFFFFFFFFFFFFFFFFFFFFFF AND EQ PUSH2 0x8A1 JUMPI PUSH1 0x40 MLOAD PUSH32 0x8C379A000000000000000000000000000000000000000000000000000000000 DUP2 MSTORE PUSH1 0x4 ADD PUSH2 0x898 SWAP1 PUSH2 0xD6F JUMP JUMPDEST PUSH1 0x40 MLOAD DUP1 SWAP2 SUB SWAP1 REVERT JUMPDEST JUMP JUMPDEST DUP1 SELFBALANCE LT ISZERO PUSH2 0x8E6 JUMPI PUSH1 0x40 MLOAD PUSH32 0x8C379A000000000000000000000000000000000000000000000000000000000 DUP2 MSTORE PUSH1 0x4 ADD PUSH2 0x8DD SWAP1 PUSH2 0xD4F JUMP JUMPDEST PUSH1 0x40 MLOAD DUP1 SWAP2 SUB SWAP1 REVERT JUMPDEST PUSH1 0x0 DUP3 PUSH20 0xFFFFFFFFFFFFFFFFFFFFFFFFFFFFFFFFFFFFFFFF AND DUP3 PUSH1 0x40 MLOAD PUSH2 0x90C SWAP1 PUSH2 0xCA9 JUMP JUMPDEST PUSH1 0x0 PUSH1 0x40 MLOAD DUP1 DUP4 SUB DUP2 DUP6 DUP8 GAS CALL SWAP3 POP POP POP RETURNDATASIZE DUP1 PUSH1 0x0 DUP2 EQ PUSH2 0x949 JUMPI PUSH1 0x40 MLOAD SWAP2 POP PUSH1 0x1F NOT PUSH1 0x3F RETURNDATASIZE ADD AND DUP3 ADD PUSH1 0x40 MSTORE RETURNDATASIZE DUP3 MSTORE RETURNDATASIZE PUSH1 0x0 PUSH1 0x20 DUP5 ADD RETURNDATACOPY PUSH2 0x94E JUMP JUMPDEST PUSH1 0x60 SWAP2 POP JUMPDEST POP POP SWAP1 POP DUP1 PUSH2 0x992 JUMPI PUSH1 0x40 MLOAD PUSH32 0x8C379A000000000000000000000000000000000000000000000000000000000 DUP2 MSTORE PUSH1 0x4 ADD PUSH2 0x989 SWAP1 PUSH2 0xD2F JUMP JUMPDEST PUSH1 0x40 MLOAD DUP1 SWAP2 SUB SWAP1 REVERT JUMPDEST POP POP POP JUMP JUMPDEST PUSH1 0x0 DUP1 PUSH1 0x0 SWAP1 SLOAD SWAP1 PUSH2 0x100 EXP SWAP1 DIV PUSH20 0xFFFFFFFFFFFFFFFFFFFFFFFFFFFFFFFFFFFFFFFF AND SWAP1 POP DUP2 PUSH1 0x0 DUP1 PUSH2 0x100 EXP DUP2 SLOAD DUP2 PUSH20 0xFFFFFFFFFFFFFFFFFFFFFFFFFFFFFFFFFFFFFFFF MUL NOT AND SWAP1 DUP4 PUSH20 0xFFFFFFFFFFFFFFFFFFFFFFFFFFFFFFFFFFFFFFFF AND MUL OR SWAP1 SSTORE POP DUP2 PUSH20 0xFFFFFFFFFFFFFFFFFFFFFFFFFFFFFFFFFFFFFFFF AND DUP2 PUSH20 0xFFFFFFFFFFFFFFFFFFFFFFFFFFFFFFFFFFFFFFFF AND PUSH32 0x8BE0079C531659141344CD1FD0A4F28419497F9722A3DAAFE3B4186F6B6457E0 PUSH1 0x40 MLOAD PUSH1 0x40 MLOAD DUP1 SWAP2 SUB SWAP1 LOG3 POP POP JUMP JUMPDEST PUSH1 0x0 CALLER SWAP1 POP SWAP1 JUMP JUMPDEST PUSH1 0x0 DUP2 CALLDATALOAD SWAP1 POP PUSH2 0xA72 DUP2 PUSH2 0xF9D JUMP JUMPDEST SWAP3 SWAP2 POP POP JUMP JUMPDEST PUSH1 0x0 DUP2 CALLDATALOAD SWAP1 POP PUSH2 0xA87 DUP2 PUSH2 0xFB4 JUMP JUMPDEST SWAP3 SWAP2 POP POP JUMP JUMPDEST PUSH1 0x0 DUP2 CALLDATALOAD SWAP1 POP PUSH2 0xA9C DUP2 PUSH2 0xFCB JUMP JUMPDEST SWAP3 SWAP2 POP POP JUMP JUMPDEST PUSH1 0x0 DUP2 CALLDATALOAD SWAP1 POP PUSH2 0xAB1 DUP2 PUSH2 0xFE2 JUMP JUMPDEST SWAP3 SWAP2 POP POP JUMP JUMPDEST PUSH1 0x0 PUSH1 0x20 DUP3 DUP5 SUB SLT ISZERO PUSH2 0xACD JUMPI PUSH2 0xACC PUSH2 0xEA5 JUMP JUMPDEST JUMPDEST PUSH1 0x0 PUSH2 0xADB DUP5 DUP3 DUP6 ADD PUSH2 0xA63 JUMP JUMPDEST SWAP2 POP POP SWAP3 SWAP2 POP POP JUMP JUMPDEST PUSH1 0x0 PUSH1 0x20 DUP3 DUP5 SUB SLT ISZERO PUSH2 0xAFA JUMPI PUSH2 0xAF9 PUSH2 0xEA5 JUMP JUMPDEST JUMPDEST PUSH1 0x0 PUSH2 0xB08 DUP5 DUP3 DUP6 ADD PUSH2 0xA78 JUMP JUMPDEST SWAP2 POP POP SWAP3 SWAP2 POP POP JUMP JUMPDEST PUSH1 0x0 DUP1 PUSH1 0x40 DUP4 DUP6 SUB SLT ISZERO PUSH2 0xB28 JUMPI PUSH2 0xB27 PUSH2 0xEA5 JUMP JUMPDEST JUMPDEST PUSH1 0x0 PUSH2 0xB36 DUP6 DUP3 DUP7 ADD PUSH2 0xA78 JUMP JUMPDEST SWAP3 POP POP PUSH1 0x20 PUSH2 0xB47 DUP6 DUP3 DUP7 ADD PUSH2 0xA78 JUMP JUMPDEST SWAP2 POP POP SWAP3 POP SWAP3 SWAP1 POP JUMP JUMPDEST PUSH1 0x0 PUSH1 0x20 DUP3 DUP5 SUB SLT ISZERO PUSH2 0xB67 JUMPI PUSH2 0xB66 PUSH2 0xEA5 JUMP JUMPDEST JUMPDEST PUSH1 0x0 PUSH2 0xB75 DUP5 DUP3 DUP6 ADD PUSH2 0xA8D JUMP JUMPDEST SWAP2 POP POP SWAP3 SWAP2 POP POP JUMP JUMPDEST PUSH1 0x0 DUP1 PUSH1 0x40 DUP4 DUP6 SUB SLT ISZERO PUSH2 0xB95 JUMPI PUSH2 0xB94 PUSH2 0xEA5 JUMP JUMPDEST JUMPDEST PUSH1 0x0 PUSH2 0xBA3 DUP6 DUP3 DUP7 ADD PUSH2 0xA8D JUMP JUMPDEST SWAP3 POP POP PUSH1 0x20 PUSH2 0xBB4 DUP6 DUP3 DUP7 ADD PUSH2 0xAA2 JUMP JUMPDEST SWAP2 POP POP SWAP3 POP SWAP3 SWAP1 POP JUMP JUMPDEST PUSH2 0xBC7 DUP2 PUSH2 0xE2E JUMP JUMPDEST DUP3 MSTORE POP POP JUMP JUMPDEST PUSH2 0xBD6 DUP2 PUSH2 0xE1C JUMP JUMPDEST DUP3 MSTORE POP POP JUMP JUMPDEST PUSH2 0xBE5 DUP2 PUSH2 0xE40 JUMP JUMPDEST DUP3 MSTORE POP POP JUMP JUMPDEST PUSH1 0x0 PUSH2 0xBF8 PUSH1 0x26 DUP4 PUSH2 0xDB5 JUMP JUMPDEST SWAP2 POP PUSH2 0xC03 DUP3 PUSH2 0xEAA JUMP JUMPDEST PUSH1 0x40 DUP3 ADD SWAP1 POP SWAP2 SWAP1 POP JUMP JUMPDEST PUSH1 0x0 PUSH2 0xC1B PUSH1 0x3A DUP4 PUSH2 0xDB5 JUMP JUMPDEST SWAP2 POP PUSH2 0xC26 DUP3 PUSH2 0xEF9 JUMP JUMPDEST PUSH1 0x40 DUP3 ADD SWAP1 POP SWAP2 SWAP1 POP JUMP JUMPDEST PUSH1 0x0 PUSH2 0xC3E PUSH1 0x1D DUP4 PUSH2 0xDB5 JUMP JUMPDEST SWAP2 POP PUSH2 0xC49 DUP3 PUSH2 0xF48 JUMP JUMPDEST PUSH1 0x20 DUP3 ADD SWAP1 POP SWAP2 SWAP1 POP JUMP JUMPDEST PUSH1 0x0 PUSH2 0xC61 PUSH1 0x20 DUP4 PUSH2 0xDB5 JUMP JUMPDEST SWAP2 POP PUSH2 0xC6C DUP3 PUSH2 0xF71 JUMP JUMPDEST PUSH1 0x20 DUP3 ADD SWAP1 POP SWAP2 SWAP1 POP JUMP JUMPDEST PUSH1 0x0 PUSH2 0xC84 PUSH1 0x0 DUP4 PUSH2 0xDAA JUMP JUMPDEST SWAP2 POP PUSH2 0xC8F DUP3 PUSH2 0xF9A JUMP JUMPDEST PUSH1 0x0 DUP3 ADD SWAP1 POP SWAP2 SWAP1 POP JUMP JUMPDEST PUSH2 0xCA3 DUP2 PUSH2 0xE6C JUMP JUMPDEST DUP3 MSTORE POP POP JUMP JUMPDEST PUSH1 0x0 PUSH2 0xCB4 DUP3 PUSH2 0xC77 JUMP JUMPDEST SWAP2 POP DUP2 SWAP1 POP SWAP2 SWAP1 POP JUMP JUMPDEST PUSH1 0x0 PUSH1 0x20 DUP3 ADD SWAP1 POP PUSH2 0xCD3 PUSH1 0x0 DUP4 ADD DUP5 PUSH2 0xBCD JUMP JUMPDEST SWAP3 SWAP2 POP POP JUMP JUMPDEST PUSH1 0x0 PUSH1 0x20 DUP3 ADD SWAP1 POP PUSH2 0xCEE PUSH1 0x0 DUP4 ADD DUP5 PUSH2 0xBBE JUMP JUMPDEST SWAP3 SWAP2 POP POP JUMP JUMPDEST PUSH1 0x0 PUSH1 0x20 DUP3 ADD SWAP1 POP PUSH2 0xD09 PUSH1 0x0 DUP4 ADD DUP5 PUSH2 0xBDC JUMP JUMPDEST SWAP3 SWAP2 POP POP JUMP JUMPDEST PUSH1 0x0 PUSH1 0x20 DUP3 ADD SWAP1 POP DUP2 DUP2 SUB PUSH1 0x0 DUP4 ADD MSTORE PUSH2 0xD28 DUP2 PUSH2 0xBEB JUMP JUMPDEST SWAP1 POP SWAP2 SWAP1 POP JUMP JUMPDEST PUSH1 0x0 PUSH1 0x20 DUP3 ADD SWAP1 POP DUP2 DUP2 SUB PUSH1 0x0 DUP4 ADD MSTORE PUSH2 0xD48 DUP2 PUSH2 0xC0E JUMP JUMPDEST SWAP1 POP SWAP2 SWAP1 POP JUMP JUMPDEST PUSH1 0x0 PUSH1 0x20 DUP3 ADD SWAP1 POP DUP2 DUP2 SUB PUSH1 0x0 DUP4 ADD MSTORE PUSH2 0xD68 DUP2 PUSH2 0xC31 JUMP JUMPDEST SWAP1 POP SWAP2 SWAP1 POP JUMP JUMPDEST PUSH1 0x0 PUSH1 0x20 DUP3 ADD SWAP1 POP DUP2 DUP2 SUB PUSH1 0x0 DUP4 ADD MSTORE PUSH2 0xD88 DUP2 PUSH2 0xC54 JUMP JUMPDEST SWAP1 POP SWAP2 SWAP1 POP JUMP JUMPDEST PUSH1 0x0 PUSH1 0x20 DUP3 ADD SWAP1 POP PUSH2 0xDA4 PUSH1 0x0 DUP4 ADD DUP5 PUSH2 0xC9A JUMP JUMPDEST SWAP3 SWAP2 POP POP JUMP JUMPDEST PUSH1 0x0 DUP2 SWAP1 POP SWAP3 SWAP2 POP POP JUMP JUMPDEST PUSH1 0x0 DUP3 DUP3 MSTORE PUSH1 0x20 DUP3 ADD SWAP1 POP SWAP3 SWAP2 POP POP JUMP JUMPDEST PUSH1 0x0 PUSH2 0xDD1 DUP3 PUSH2 0xE6C JUMP JUMPDEST SWAP2 POP PUSH2 0xDDC DUP4 PUSH2 0xE6C JUMP JUMPDEST SWAP3 POP DUP3 PUSH32 0xFFFFFFFFFFFFFFFFFFFFFFFFFFFFFFFFFFFFFFFFFFFFFFFFFFFFFFFFFFFFFFFF SUB DUP3 GT ISZERO PUSH2 0xE11 JUMPI PUSH2 0xE10 PUSH2 0xE76 JUMP JUMPDEST JUMPDEST DUP3 DUP3 ADD SWAP1 POP SWAP3 SWAP2 POP POP JUMP JUMPDEST PUSH1 0x0 PUSH2 0xE27 DUP3 PUSH2 0xE4C JUMP JUMPDEST SWAP1 POP SWAP2 SWAP1 POP JUMP JUMPDEST PUSH1 0x0 PUSH2 0xE39 DUP3 PUSH2 0xE4C JUMP JUMPDEST SWAP1 POP SWAP2 SWAP1 POP JUMP JUMPDEST PUSH1 0x0 DUP2 ISZERO ISZERO SWAP1 POP SWAP2 SWAP1 POP JUMP JUMPDEST PUSH1 0x0 PUSH20 0xFFFFFFFFFFFFFFFFFFFFFFFFFFFFFFFFFFFFFFFF DUP3 AND SWAP1 POP SWAP2 SWAP1 POP JUMP JUMPDEST PUSH1 0x0 DUP2 SWAP1 POP SWAP2 SWAP1 POP JUMP JUMPDEST PUSH32 0x4E487B7100000000000000000000000000000000000000000000000000000000 PUSH1 0x0 MSTORE PUSH1 0x11 PUSH1 0x4 MSTORE PUSH1 0x24 PUSH1 0x0 REVERT JUMPDEST PUSH1 0x0 DUP1 REVERT JUMPDEST PUSH32 0x4F776E61626C653A206E6577206F776E657220697320746865207A65726F2061 PUSH1 0x0 DUP3 ADD MSTORE PUSH32 0x6464726573730000000000000000000000000000000000000000000000000000 PUSH1 0x20 DUP3 ADD MSTORE POP JUMP JUMPDEST PUSH32 0x416464726573733A20756E61626C6520746F2073656E642076616C75652C2072 PUSH1 0x0 DUP3 ADD MSTORE PUSH32 0x6563697069656E74206D61792068617665207265766572746564000000000000 PUSH1 0x20 DUP3 ADD MSTORE POP JUMP JUMPDEST PUSH32 0x416464726573733A20696E73756666696369656E742062616C616E6365000000 PUSH1 0x0 DUP3 ADD MSTORE POP JUMP JUMPDEST PUSH32 0x4F776E61626C653A2063616C6C6572206973206E6F7420746865206F776E6572 PUSH1 0x0 DUP3 ADD MSTORE POP JUMP JUMPDEST POP JUMP JUMPDEST PUSH2 0xFA6 DUP2 PUSH2 0xE1C JUMP JUMPDEST DUP2 EQ PUSH2 0xFB1 JUMPI PUSH1 0x0 DUP1 REVERT JUMPDEST POP JUMP JUMPDEST PUSH2 0xFBD DUP2 PUSH2 0xE2E JUMP JUMPDEST DUP2 EQ PUSH2 0xFC8 JUMPI PUSH1 0x0 DUP1 REVERT JUMPDEST POP JUMP JUMPDEST PUSH2 0xFD4 DUP2 PUSH2 0xE40 JUMP JUMPDEST DUP2 EQ PUSH2 0xFDF JUMPI PUSH1 0x0 DUP1 REVERT JUMPDEST POP JUMP JUMPDEST PUSH2 0xFEB DUP2 PUSH2 0xE6C JUMP JUMPDEST DUP2 EQ PUSH2 0xFF6 JUMPI PUSH1 0x0 DUP1 REVERT JUMPDEST POP JUMP INVALID LOG2 PUSH5 0x6970667358 0x22 SLT KECCAK256 PUSH14 0xF1399A32C679B446ECC0CB976A75 PUSH13 0x702B05BF0018620EAAFC062387 0x4B 0xE7 0xE7 PUSH5 0x736F6C6343 STOP ADDMOD SMOD STOP CALLER "
				},
				"gasEstimates": {
					"creation": {
						"codeDepositCost": "828600",
						"executionCost": "infinite",
						"totalCost": "infinite"
					},
					"external": {
						"admin()": "2558",
						"adminResolutionStatus(bool,uint256)": "47083",
						"client()": "2515",
						"contractor()": "2602",
						"deposit(address,address)": "infinite",
						"owner()": "2633",
						"renounceOwnership()": "30487",
						"taskCompletionStatus(bool)": "24702",
						"taskValidationStatus(bool)": "24752",
						"testPayment()": "infinite",
						"transferOwnership(address)": "30769",
						"withdraw(address)": "infinite",
						"withdrawalAllowed()": "7026"
					}
				},
				"methodIdentifiers": {
					"admin()": "f851a440",
					"adminResolutionStatus(bool,uint256)": "5e32c425",
					"client()": "109e94cf",
					"contractor()": "fbfd2045",
					"deposit(address,address)": "f9609f08",
					"owner()": "8da5cb5b",
					"renounceOwnership()": "715018a6",
					"taskCompletionStatus(bool)": "251d8cd5",
					"taskValidationStatus(bool)": "9464c8b8",
					"testPayment()": "b0568eaa",
					"transferOwnership(address)": "f2fde38b",
					"withdraw(address)": "51cff8d9",
					"withdrawalAllowed()": "a1d19361"
				}
			},
			"storageLayout": {
				"storage": [
					{
						"astId": 7,
						"contract": "contracts/Escrow.sol:Escrow",
						"label": "_owner",
						"offset": 0,
						"slot": "0",
						"type": "t_address"
					},
					{
						"astId": 446,
						"contract": "contracts/Escrow.sol:Escrow",
						"label": "contractor",
						"offset": 0,
						"slot": "1",
						"type": "t_address_payable"
					},
					{
						"astId": 448,
						"contract": "contracts/Escrow.sol:Escrow",
						"label": "client",
						"offset": 0,
						"slot": "2",
						"type": "t_address"
					},
					{
						"astId": 450,
						"contract": "contracts/Escrow.sol:Escrow",
						"label": "admin",
						"offset": 0,
						"slot": "3",
						"type": "t_address_payable"
					},
					{
						"astId": 454,
						"contract": "contracts/Escrow.sol:Escrow",
						"label": "_deposits",
						"offset": 0,
						"slot": "4",
						"type": "t_mapping(t_address,t_uint256)"
					},
					{
						"astId": 495,
						"contract": "contracts/Escrow.sol:Escrow",
						"label": "taskCompleted",
						"offset": 0,
						"slot": "5",
						"type": "t_bool"
					},
					{
						"astId": 497,
						"contract": "contracts/Escrow.sol:Escrow",
						"label": "taskValidated",
						"offset": 1,
						"slot": "5",
						"type": "t_bool"
					},
					{
						"astId": 499,
						"contract": "contracts/Escrow.sol:Escrow",
						"label": "adminResolution",
						"offset": 2,
						"slot": "5",
						"type": "t_bool"
					},
					{
						"astId": 501,
						"contract": "contracts/Escrow.sol:Escrow",
						"label": "adminDecision",
						"offset": 0,
						"slot": "6",
						"type": "t_uint256"
					}
				],
				"types": {
					"t_address": {
						"encoding": "inplace",
						"label": "address",
						"numberOfBytes": "20"
					},
					"t_address_payable": {
						"encoding": "inplace",
						"label": "address payable",
						"numberOfBytes": "20"
					},
					"t_bool": {
						"encoding": "inplace",
						"label": "bool",
						"numberOfBytes": "1"
					},
					"t_mapping(t_address,t_uint256)": {
						"encoding": "mapping",
						"key": "t_address",
						"label": "mapping(address => uint256)",
						"numberOfBytes": "32",
						"value": "t_uint256"
					},
					"t_uint256": {
						"encoding": "inplace",
						"label": "uint256",
						"numberOfBytes": "32"
					}
				}
			},
			"userdoc": {
				"kind": "user",
				"methods": {},
				"version": 1
			}
		}
	}
}