{
	"contracts/Escrow.sol": {
		"Escrow": {
			"abi": [
				{
					"anonymous": false,
					"inputs": [
						{
							"indexed": true,
							"internalType": "address",
							"name": "adminAddress",
							"type": "address"
						}
					],
					"name": "AdminAdded",
					"type": "event"
				},
				{
					"anonymous": false,
					"inputs": [
						{
							"indexed": true,
							"internalType": "address",
							"name": "clientAddress",
							"type": "address"
						}
					],
					"name": "ClientAdded",
					"type": "event"
				},
				{
					"anonymous": false,
					"inputs": [
						{
							"indexed": true,
							"internalType": "address",
							"name": "contractorAddress",
							"type": "address"
						}
					],
					"name": "ContractorAdded",
					"type": "event"
				},
				{
					"anonymous": false,
					"inputs": [
						{
							"indexed": false,
							"internalType": "uint256",
							"name": "weiAmount",
							"type": "uint256"
						}
					],
					"name": "Deposited",
					"type": "event"
				},
				{
					"anonymous": false,
					"inputs": [
						{
							"indexed": true,
							"internalType": "address",
							"name": "previousOwner",
							"type": "address"
						},
						{
							"indexed": true,
							"internalType": "address",
							"name": "newOwner",
							"type": "address"
						}
					],
					"name": "OwnershipTransferred",
					"type": "event"
				},
				{
					"inputs": [
						{
							"internalType": "address payable",
							"name": "adminAddress",
							"type": "address"
						}
					],
					"name": "addAdmin",
					"outputs": [],
					"stateMutability": "nonpayable",
					"type": "function"
				},
				{
					"inputs": [
						{
							"internalType": "address payable",
							"name": "clientAddress",
							"type": "address"
						}
					],
					"name": "addClient",
					"outputs": [],
					"stateMutability": "nonpayable",
					"type": "function"
				},
				{
					"inputs": [
						{
							"internalType": "address payable",
							"name": "contractorAddress",
							"type": "address"
						}
					],
					"name": "addContractor",
					"outputs": [],
					"stateMutability": "nonpayable",
					"type": "function"
				},
				{
					"inputs": [
						{
							"internalType": "bool",
							"name": "inputAdminResolution",
							"type": "bool"
						},
						{
							"internalType": "bool",
							"name": "inputAdminDecision",
							"type": "bool"
						}
					],
					"name": "adminResolutionStatus",
					"outputs": [],
					"stateMutability": "nonpayable",
					"type": "function"
				},
				{
					"inputs": [],
					"name": "deposit",
					"outputs": [],
					"stateMutability": "payable",
					"type": "function"
				},
				{
					"inputs": [],
					"name": "marketOwner",
					"outputs": [
						{
							"internalType": "address",
							"name": "",
							"type": "address"
						}
					],
					"stateMutability": "view",
					"type": "function"
				},
				{
					"inputs": [],
					"name": "owner",
					"outputs": [
						{
							"internalType": "address",
							"name": "",
							"type": "address"
						}
					],
					"stateMutability": "view",
					"type": "function"
				},
				{
					"inputs": [],
					"name": "renounceOwnership",
					"outputs": [],
					"stateMutability": "nonpayable",
					"type": "function"
				},
				{
					"inputs": [
						{
							"internalType": "bool",
							"name": "inputTaskCompleted",
							"type": "bool"
						}
					],
					"name": "taskCompletionStatus",
					"outputs": [],
					"stateMutability": "nonpayable",
					"type": "function"
				},
				{
					"inputs": [
						{
							"internalType": "bool",
							"name": "inputTaskValidated",
							"type": "bool"
						}
					],
					"name": "taskValidationStatus",
					"outputs": [],
					"stateMutability": "nonpayable",
					"type": "function"
				},
				{
					"inputs": [
						{
							"internalType": "address",
							"name": "newOwner",
							"type": "address"
						}
					],
					"name": "transferOwnership",
					"outputs": [],
					"stateMutability": "nonpayable",
					"type": "function"
				}
			],
			"devdoc": {
				"kind": "dev",
				"methods": {
					"owner()": {
						"details": "Returns the address of the current owner."
					},
					"renounceOwnership()": {
						"details": "Leaves the contract without owner. It will not be possible to call `onlyOwner` functions anymore. Can only be called by the current owner. NOTE: Renouncing ownership will leave the contract without an owner, thereby removing any functionality that is only available to the owner."
					},
					"transferOwnership(address)": {
						"details": "Transfers ownership of the contract to a new account (`newOwner`). Can only be called by the current owner."
					}
				},
				"version": 1
			},
			"evm": {
				"assembly": "    /* \"contracts/Escrow.sol\":238:5756  contract Escrow is Ownable {... */\n  mstore(0x40, 0x80)\n  callvalue\n  dup1\n  iszero\n  tag_1\n  jumpi\n  0x00\n  dup1\n  revert\ntag_1:\n  pop\n    /* \"@openzeppelin/contracts/access/Ownable.sol\":936:968  _transferOwnership(_msgSender()) */\n  tag_4\n    /* \"@openzeppelin/contracts/access/Ownable.sol\":955:967  _msgSender() */\n  tag_5\n    /* \"@openzeppelin/contracts/access/Ownable.sol\":955:965  _msgSender */\n  shl(0x20, tag_6)\n    /* \"@openzeppelin/contracts/access/Ownable.sol\":955:967  _msgSender() */\n  0x20\n  shr\n  jump\t// in\ntag_5:\n    /* \"@openzeppelin/contracts/access/Ownable.sol\":936:954  _transferOwnership */\n  shl(0x20, tag_7)\n    /* \"@openzeppelin/contracts/access/Ownable.sol\":936:968  _transferOwnership(_msgSender()) */\n  0x20\n  shr\n  jump\t// in\ntag_4:\n    /* \"contracts/Escrow.sol\":238:5756  contract Escrow is Ownable {... */\n  jump(tag_8)\n    /* \"@openzeppelin/contracts/utils/Context.sol\":640:736  function _msgSender() internal view virtual returns (address) {... */\ntag_6:\n    /* \"@openzeppelin/contracts/utils/Context.sol\":693:700  address */\n  0x00\n    /* \"@openzeppelin/contracts/utils/Context.sol\":719:729  msg.sender */\n  caller\n    /* \"@openzeppelin/contracts/utils/Context.sol\":712:729  return msg.sender */\n  swap1\n  pop\n    /* \"@openzeppelin/contracts/utils/Context.sol\":640:736  function _msgSender() internal view virtual returns (address) {... */\n  swap1\n  jump\t// out\n    /* \"@openzeppelin/contracts/access/Ownable.sol\":2433:2620  function _transferOwnership(address newOwner) internal virtual {... */\ntag_7:\n    /* \"@openzeppelin/contracts/access/Ownable.sol\":2506:2522  address oldOwner */\n  0x00\n    /* \"@openzeppelin/contracts/access/Ownable.sol\":2525:2531  _owner */\n  dup1\n  0x00\n  swap1\n  sload\n  swap1\n  0x0100\n  exp\n  swap1\n  div\n  0xffffffffffffffffffffffffffffffffffffffff\n  and\n    /* \"@openzeppelin/contracts/access/Ownable.sol\":2506:2531  address oldOwner = _owner */\n  swap1\n  pop\n    /* \"@openzeppelin/contracts/access/Ownable.sol\":2550:2558  newOwner */\n  dup2\n    /* \"@openzeppelin/contracts/access/Ownable.sol\":2541:2547  _owner */\n  0x00\n  dup1\n    /* \"@openzeppelin/contracts/access/Ownable.sol\":2541:2558  _owner = newOwner */\n  0x0100\n  exp\n  dup2\n  sload\n  dup2\n  0xffffffffffffffffffffffffffffffffffffffff\n  mul\n  not\n  and\n  swap1\n  dup4\n  0xffffffffffffffffffffffffffffffffffffffff\n  and\n  mul\n  or\n  swap1\n  sstore\n  pop\n    /* \"@openzeppelin/contracts/access/Ownable.sol\":2604:2612  newOwner */\n  dup2\n    /* \"@openzeppelin/contracts/access/Ownable.sol\":2573:2613  OwnershipTransferred(oldOwner, newOwner) */\n  0xffffffffffffffffffffffffffffffffffffffff\n  and\n    /* \"@openzeppelin/contracts/access/Ownable.sol\":2594:2602  oldOwner */\n  dup2\n    /* \"@openzeppelin/contracts/access/Ownable.sol\":2573:2613  OwnershipTransferred(oldOwner, newOwner) */\n  0xffffffffffffffffffffffffffffffffffffffff\n  and\n  0x8be0079c531659141344cd1fd0a4f28419497f9722a3daafe3b4186f6b6457e0\n  mload(0x40)\n  mload(0x40)\n  dup1\n  swap2\n  sub\n  swap1\n  log3\n    /* \"@openzeppelin/contracts/access/Ownable.sol\":2496:2620  {... */\n  pop\n    /* \"@openzeppelin/contracts/access/Ownable.sol\":2433:2620  function _transferOwnership(address newOwner) internal virtual {... */\n  pop\n  jump\t// out\n    /* \"contracts/Escrow.sol\":238:5756  contract Escrow is Ownable {... */\ntag_8:\n  dataSize(sub_0)\n  dup1\n  dataOffset(sub_0)\n  0x00\n  codecopy\n  0x00\n  return\nstop\n\nsub_0: assembly {\n        /* \"contracts/Escrow.sol\":238:5756  contract Escrow is Ownable {... */\n      mstore(0x40, 0x80)\n      jumpi(tag_1, lt(calldatasize, 0x04))\n      shr(0xe0, calldataload(0x00))\n      dup1\n      0x715018a6\n      gt\n      tag_13\n      jumpi\n      dup1\n      0x715018a6\n      eq\n      tag_7\n      jumpi\n      dup1\n      0x761768b6\n      eq\n      tag_8\n      jumpi\n      dup1\n      0x8da5cb5b\n      eq\n      tag_9\n      jumpi\n      dup1\n      0x9464c8b8\n      eq\n      tag_10\n      jumpi\n      dup1\n      0xd0e30db0\n      eq\n      tag_11\n      jumpi\n      dup1\n      0xf2fde38b\n      eq\n      tag_12\n      jumpi\n      jump(tag_1)\n    tag_13:\n      dup1\n      0x11571f30\n      eq\n      tag_2\n      jumpi\n      dup1\n      0x251d8cd5\n      eq\n      tag_3\n      jumpi\n      dup1\n      0x43928cfd\n      eq\n      tag_4\n      jumpi\n      dup1\n      0x47d90b5c\n      eq\n      tag_5\n      jumpi\n      dup1\n      0x70480275\n      eq\n      tag_6\n      jumpi\n    tag_1:\n      0x00\n      dup1\n      revert\n        /* \"contracts/Escrow.sol\":3872:4090  function adminResolutionStatus(bool inputAdminResolution, bool inputAdminDecision) public onlyAdmin{... */\n    tag_2:\n      callvalue\n      dup1\n      iszero\n      tag_14\n      jumpi\n      0x00\n      dup1\n      revert\n    tag_14:\n      pop\n      tag_15\n      0x04\n      dup1\n      calldatasize\n      sub\n      dup2\n      add\n      swap1\n      tag_16\n      swap2\n      swap1\n      tag_17\n      jump\t// in\n    tag_16:\n      tag_18\n      jump\t// in\n    tag_15:\n      stop\n        /* \"contracts/Escrow.sol\":4301:4425  function taskCompletionStatus(bool inputTaskCompleted) public onlyContractor {... */\n    tag_3:\n      callvalue\n      dup1\n      iszero\n      tag_19\n      jumpi\n      0x00\n      dup1\n      revert\n    tag_19:\n      pop\n      tag_20\n      0x04\n      dup1\n      calldatasize\n      sub\n      dup2\n      add\n      swap1\n      tag_21\n      swap2\n      swap1\n      tag_22\n      jump\t// in\n    tag_21:\n      tag_23\n      jump\t// in\n    tag_20:\n      stop\n        /* \"contracts/Escrow.sol\":3016:3153  function addClient(address payable clientAddress) public {... */\n    tag_4:\n      callvalue\n      dup1\n      iszero\n      tag_24\n      jumpi\n      0x00\n      dup1\n      revert\n    tag_24:\n      pop\n      tag_25\n      0x04\n      dup1\n      calldatasize\n      sub\n      dup2\n      add\n      swap1\n      tag_26\n      swap2\n      swap1\n      tag_27\n      jump\t// in\n    tag_26:\n      tag_28\n      jump\t// in\n    tag_25:\n      stop\n        /* \"contracts/Escrow.sol\":637:718  address constant public marketOwner =  0xCA35b7d915458EF540aDe6068dFe2F44E8fa733c */\n    tag_5:\n      callvalue\n      dup1\n      iszero\n      tag_29\n      jumpi\n      0x00\n      dup1\n      revert\n    tag_29:\n      pop\n      tag_30\n      tag_31\n      jump\t// in\n    tag_30:\n      mload(0x40)\n      tag_32\n      swap2\n      swap1\n      tag_33\n      jump\t// in\n    tag_32:\n      mload(0x40)\n      dup1\n      swap2\n      sub\n      swap1\n      return\n        /* \"contracts/Escrow.sol\":2618:2749  function addAdmin(address payable adminAddress) public {... */\n    tag_6:\n      callvalue\n      dup1\n      iszero\n      tag_34\n      jumpi\n      0x00\n      dup1\n      revert\n    tag_34:\n      pop\n      tag_35\n      0x04\n      dup1\n      calldatasize\n      sub\n      dup2\n      add\n      swap1\n      tag_36\n      swap2\n      swap1\n      tag_27\n      jump\t// in\n    tag_36:\n      tag_37\n      jump\t// in\n    tag_35:\n      stop\n        /* \"@openzeppelin/contracts/access/Ownable.sol\":1831:1932  function renounceOwnership() public virtual onlyOwner {... */\n    tag_7:\n      callvalue\n      dup1\n      iszero\n      tag_38\n      jumpi\n      0x00\n      dup1\n      revert\n    tag_38:\n      pop\n      tag_39\n      tag_40\n      jump\t// in\n    tag_39:\n      stop\n        /* \"contracts/Escrow.sol\":2181:2351  function addContractor(address payable contractorAddress) public onlyOwner{... */\n    tag_8:\n      callvalue\n      dup1\n      iszero\n      tag_41\n      jumpi\n      0x00\n      dup1\n      revert\n    tag_41:\n      pop\n      tag_42\n      0x04\n      dup1\n      calldatasize\n      sub\n      dup2\n      add\n      swap1\n      tag_43\n      swap2\n      swap1\n      tag_27\n      jump\t// in\n    tag_43:\n      tag_44\n      jump\t// in\n    tag_42:\n      stop\n        /* \"@openzeppelin/contracts/access/Ownable.sol\":1201:1286  function owner() public view virtual returns (address) {... */\n    tag_9:\n      callvalue\n      dup1\n      iszero\n      tag_45\n      jumpi\n      0x00\n      dup1\n      revert\n    tag_45:\n      pop\n      tag_46\n      tag_47\n      jump\t// in\n    tag_46:\n      mload(0x40)\n      tag_48\n      swap2\n      swap1\n      tag_33\n      jump\t// in\n    tag_48:\n      mload(0x40)\n      dup1\n      swap2\n      sub\n      swap1\n      return\n        /* \"contracts/Escrow.sol\":4641:4783  function taskValidationStatus(bool inputTaskValidated) public onlyClient{... */\n    tag_10:\n      callvalue\n      dup1\n      iszero\n      tag_49\n      jumpi\n      0x00\n      dup1\n      revert\n    tag_49:\n      pop\n      tag_50\n      0x04\n      dup1\n      calldatasize\n      sub\n      dup2\n      add\n      swap1\n      tag_51\n      swap2\n      swap1\n      tag_22\n      jump\t// in\n    tag_51:\n      tag_52\n      jump\t// in\n    tag_50:\n      stop\n        /* \"contracts/Escrow.sol\":1914:2034  function deposit() public payable onlyClient {... */\n    tag_11:\n      tag_53\n      tag_54\n      jump\t// in\n    tag_53:\n      stop\n        /* \"@openzeppelin/contracts/access/Ownable.sol\":2081:2279  function transferOwnership(address newOwner) public virtual onlyOwner {... */\n    tag_12:\n      callvalue\n      dup1\n      iszero\n      tag_55\n      jumpi\n      0x00\n      dup1\n      revert\n    tag_55:\n      pop\n      tag_56\n      0x04\n      dup1\n      calldatasize\n      sub\n      dup2\n      add\n      swap1\n      tag_57\n      swap2\n      swap1\n      tag_58\n      jump\t// in\n    tag_57:\n      tag_59\n      jump\t// in\n    tag_56:\n      stop\n        /* \"contracts/Escrow.sol\":3872:4090  function adminResolutionStatus(bool inputAdminResolution, bool inputAdminDecision) public onlyAdmin{... */\n    tag_18:\n        /* \"contracts/Escrow.sol\":1064:1077  _checkAdmin() */\n      tag_61\n        /* \"contracts/Escrow.sol\":1064:1075  _checkAdmin */\n      tag_62\n        /* \"contracts/Escrow.sol\":1064:1077  _checkAdmin() */\n      jump\t// in\n    tag_61:\n        /* \"contracts/Escrow.sol\":3995:4015  inputAdminResolution */\n      dup2\n        /* \"contracts/Escrow.sol\":3977:3992  adminResolution */\n      0x05\n      0x02\n        /* \"contracts/Escrow.sol\":3977:4015  adminResolution = inputAdminResolution */\n      0x0100\n      exp\n      dup2\n      sload\n      dup2\n      0xff\n      mul\n      not\n      and\n      swap1\n      dup4\n      iszero\n      iszero\n      mul\n      or\n      swap1\n      sstore\n      pop\n        /* \"contracts/Escrow.sol\":4042:4060  inputAdminDecision */\n      dup1\n        /* \"contracts/Escrow.sol\":4021:4039  adminPayContractor */\n      0x05\n      0x03\n        /* \"contracts/Escrow.sol\":4021:4060  adminPayContractor = inputAdminDecision */\n      0x0100\n      exp\n      dup2\n      sload\n      dup2\n      0xff\n      mul\n      not\n      and\n      swap1\n      dup4\n      iszero\n      iszero\n      mul\n      or\n      swap1\n      sstore\n      pop\n        /* \"contracts/Escrow.sol\":4066:4083  withdrawPayment() */\n      tag_64\n        /* \"contracts/Escrow.sol\":4066:4081  withdrawPayment */\n      tag_65\n        /* \"contracts/Escrow.sol\":4066:4083  withdrawPayment() */\n      jump\t// in\n    tag_64:\n        /* \"contracts/Escrow.sol\":3872:4090  function adminResolutionStatus(bool inputAdminResolution, bool inputAdminDecision) public onlyAdmin{... */\n      pop\n      pop\n      jump\t// out\n        /* \"contracts/Escrow.sol\":4301:4425  function taskCompletionStatus(bool inputTaskCompleted) public onlyContractor {... */\n    tag_23:\n        /* \"contracts/Escrow.sol\":1753:1771  _checkContractor() */\n      tag_67\n        /* \"contracts/Escrow.sol\":1753:1769  _checkContractor */\n      tag_68\n        /* \"contracts/Escrow.sol\":1753:1771  _checkContractor() */\n      jump\t// in\n    tag_67:\n        /* \"contracts/Escrow.sol\":4400:4418  inputTaskCompleted */\n      dup1\n        /* \"contracts/Escrow.sol\":4384:4397  taskCompleted */\n      0x05\n      0x00\n        /* \"contracts/Escrow.sol\":4384:4418  taskCompleted = inputTaskCompleted */\n      0x0100\n      exp\n      dup2\n      sload\n      dup2\n      0xff\n      mul\n      not\n      and\n      swap1\n      dup4\n      iszero\n      iszero\n      mul\n      or\n      swap1\n      sstore\n      pop\n        /* \"contracts/Escrow.sol\":4301:4425  function taskCompletionStatus(bool inputTaskCompleted) public onlyContractor {... */\n      pop\n      jump\t// out\n        /* \"contracts/Escrow.sol\":3016:3153  function addClient(address payable clientAddress) public {... */\n    tag_28:\n        /* \"contracts/Escrow.sol\":3092:3105  clientAddress */\n      dup1\n        /* \"contracts/Escrow.sol\":3083:3089  client */\n      0x02\n      0x00\n        /* \"contracts/Escrow.sol\":3083:3105  client = clientAddress */\n      0x0100\n      exp\n      dup2\n      sload\n      dup2\n      0xffffffffffffffffffffffffffffffffffffffff\n      mul\n      not\n      and\n      swap1\n      dup4\n      0xffffffffffffffffffffffffffffffffffffffff\n      and\n      mul\n      or\n      swap1\n      sstore\n      pop\n        /* \"contracts/Escrow.sol\":3132:3145  clientAddress */\n      dup1\n        /* \"contracts/Escrow.sol\":3120:3146  ClientAdded(clientAddress) */\n      0xffffffffffffffffffffffffffffffffffffffff\n      and\n      0x6c713924da8f1e694559181e3497cb03c970f0f7c023d913207d0410b531741e\n      mload(0x40)\n      mload(0x40)\n      dup1\n      swap2\n      sub\n      swap1\n      log2\n        /* \"contracts/Escrow.sol\":3016:3153  function addClient(address payable clientAddress) public {... */\n      pop\n      jump\t// out\n        /* \"contracts/Escrow.sol\":637:718  address constant public marketOwner =  0xCA35b7d915458EF540aDe6068dFe2F44E8fa733c */\n    tag_31:\n        /* \"contracts/Escrow.sol\":676:718  0xCA35b7d915458EF540aDe6068dFe2F44E8fa733c */\n      0xca35b7d915458ef540ade6068dfe2f44e8fa733c\n        /* \"contracts/Escrow.sol\":637:718  address constant public marketOwner =  0xCA35b7d915458EF540aDe6068dFe2F44E8fa733c */\n      dup2\n      jump\t// out\n        /* \"contracts/Escrow.sol\":2618:2749  function addAdmin(address payable adminAddress) public {... */\n    tag_37:\n        /* \"contracts/Escrow.sol\":2691:2703  adminAddress */\n      dup1\n        /* \"contracts/Escrow.sol\":2683:2688  admin */\n      0x03\n      0x00\n        /* \"contracts/Escrow.sol\":2683:2703  admin = adminAddress */\n      0x0100\n      exp\n      dup2\n      sload\n      dup2\n      0xffffffffffffffffffffffffffffffffffffffff\n      mul\n      not\n      and\n      swap1\n      dup4\n      0xffffffffffffffffffffffffffffffffffffffff\n      and\n      mul\n      or\n      swap1\n      sstore\n      pop\n        /* \"contracts/Escrow.sol\":2729:2741  adminAddress */\n      dup1\n        /* \"contracts/Escrow.sol\":2718:2742  AdminAdded(adminAddress) */\n      0xffffffffffffffffffffffffffffffffffffffff\n      and\n      0x44d6d25963f097ad14f29f06854a01f575648a1ef82f30e562ccd3889717e339\n      mload(0x40)\n      mload(0x40)\n      dup1\n      swap2\n      sub\n      swap1\n      log2\n        /* \"contracts/Escrow.sol\":2618:2749  function addAdmin(address payable adminAddress) public {... */\n      pop\n      jump\t// out\n        /* \"@openzeppelin/contracts/access/Ownable.sol\":1831:1932  function renounceOwnership() public virtual onlyOwner {... */\n    tag_40:\n        /* \"@openzeppelin/contracts/access/Ownable.sol\":1094:1107  _checkOwner() */\n      tag_73\n        /* \"@openzeppelin/contracts/access/Ownable.sol\":1094:1105  _checkOwner */\n      tag_74\n        /* \"@openzeppelin/contracts/access/Ownable.sol\":1094:1107  _checkOwner() */\n      jump\t// in\n    tag_73:\n        /* \"@openzeppelin/contracts/access/Ownable.sol\":1895:1925  _transferOwnership(address(0)) */\n      tag_76\n        /* \"@openzeppelin/contracts/access/Ownable.sol\":1922:1923  0 */\n      0x00\n        /* \"@openzeppelin/contracts/access/Ownable.sol\":1895:1913  _transferOwnership */\n      tag_77\n        /* \"@openzeppelin/contracts/access/Ownable.sol\":1895:1925  _transferOwnership(address(0)) */\n      jump\t// in\n    tag_76:\n        /* \"@openzeppelin/contracts/access/Ownable.sol\":1831:1932  function renounceOwnership() public virtual onlyOwner {... */\n      jump\t// out\n        /* \"contracts/Escrow.sol\":2181:2351  function addContractor(address payable contractorAddress) public onlyOwner{... */\n    tag_44:\n        /* \"@openzeppelin/contracts/access/Ownable.sol\":1094:1107  _checkOwner() */\n      tag_79\n        /* \"@openzeppelin/contracts/access/Ownable.sol\":1094:1105  _checkOwner */\n      tag_74\n        /* \"@openzeppelin/contracts/access/Ownable.sol\":1094:1107  _checkOwner() */\n      jump\t// in\n    tag_79:\n        /* \"contracts/Escrow.sol\":2278:2295  contractorAddress */\n      dup1\n        /* \"contracts/Escrow.sol\":2265:2275  contractor */\n      0x01\n      0x00\n        /* \"contracts/Escrow.sol\":2265:2295  contractor = contractorAddress */\n      0x0100\n      exp\n      dup2\n      sload\n      dup2\n      0xffffffffffffffffffffffffffffffffffffffff\n      mul\n      not\n      and\n      swap1\n      dup4\n      0xffffffffffffffffffffffffffffffffffffffff\n      and\n      mul\n      or\n      swap1\n      sstore\n      pop\n        /* \"contracts/Escrow.sol\":2326:2343  contractorAddress */\n      dup1\n        /* \"contracts/Escrow.sol\":2310:2344  ContractorAdded(contractorAddress) */\n      0xffffffffffffffffffffffffffffffffffffffff\n      and\n      0x29dc23bcd72bfb02ec013f6350778cb6e5908dc02e5e1234385f27e32676b6e1\n      mload(0x40)\n      mload(0x40)\n      dup1\n      swap2\n      sub\n      swap1\n      log2\n        /* \"contracts/Escrow.sol\":2181:2351  function addContractor(address payable contractorAddress) public onlyOwner{... */\n      pop\n      jump\t// out\n        /* \"@openzeppelin/contracts/access/Ownable.sol\":1201:1286  function owner() public view virtual returns (address) {... */\n    tag_47:\n        /* \"@openzeppelin/contracts/access/Ownable.sol\":1247:1254  address */\n      0x00\n        /* \"@openzeppelin/contracts/access/Ownable.sol\":1273:1279  _owner */\n      dup1\n      0x00\n      swap1\n      sload\n      swap1\n      0x0100\n      exp\n      swap1\n      div\n      0xffffffffffffffffffffffffffffffffffffffff\n      and\n        /* \"@openzeppelin/contracts/access/Ownable.sol\":1266:1279  return _owner */\n      swap1\n      pop\n        /* \"@openzeppelin/contracts/access/Ownable.sol\":1201:1286  function owner() public view virtual returns (address) {... */\n      swap1\n      jump\t// out\n        /* \"contracts/Escrow.sol\":4641:4783  function taskValidationStatus(bool inputTaskValidated) public onlyClient{... */\n    tag_52:\n        /* \"contracts/Escrow.sol\":1395:1409  _checkClient() */\n      tag_83\n        /* \"contracts/Escrow.sol\":1395:1407  _checkClient */\n      tag_84\n        /* \"contracts/Escrow.sol\":1395:1409  _checkClient() */\n      jump\t// in\n    tag_83:\n        /* \"contracts/Escrow.sol\":4735:4753  inputTaskValidated */\n      dup1\n        /* \"contracts/Escrow.sol\":4719:4732  taskValidated */\n      0x05\n      0x01\n        /* \"contracts/Escrow.sol\":4719:4753  taskValidated = inputTaskValidated */\n      0x0100\n      exp\n      dup2\n      sload\n      dup2\n      0xff\n      mul\n      not\n      and\n      swap1\n      dup4\n      iszero\n      iszero\n      mul\n      or\n      swap1\n      sstore\n      pop\n        /* \"contracts/Escrow.sol\":4759:4776  withdrawPayment() */\n      tag_86\n        /* \"contracts/Escrow.sol\":4759:4774  withdrawPayment */\n      tag_65\n        /* \"contracts/Escrow.sol\":4759:4776  withdrawPayment() */\n      jump\t// in\n    tag_86:\n        /* \"contracts/Escrow.sol\":4641:4783  function taskValidationStatus(bool inputTaskValidated) public onlyClient{... */\n      pop\n      jump\t// out\n        /* \"contracts/Escrow.sol\":1914:2034  function deposit() public payable onlyClient {... */\n    tag_54:\n        /* \"contracts/Escrow.sol\":1395:1409  _checkClient() */\n      tag_88\n        /* \"contracts/Escrow.sol\":1395:1407  _checkClient */\n      tag_84\n        /* \"contracts/Escrow.sol\":1395:1409  _checkClient() */\n      jump\t// in\n    tag_88:\n        /* \"contracts/Escrow.sol\":1969:1983  uint256 amount */\n      0x00\n        /* \"contracts/Escrow.sol\":1986:1995  msg.value */\n      callvalue\n        /* \"contracts/Escrow.sol\":1969:1995  uint256 amount = msg.value */\n      swap1\n      pop\n        /* \"contracts/Escrow.sol\":2010:2027  Deposited(amount) */\n      0x2a89b2e3d580398d6dc2db5e0f336b52602bbaa51afa9bb5cdf59239cf0d2bea\n        /* \"contracts/Escrow.sol\":2020:2026  amount */\n      dup2\n        /* \"contracts/Escrow.sol\":2010:2027  Deposited(amount) */\n      mload(0x40)\n      tag_90\n      swap2\n      swap1\n      tag_91\n      jump\t// in\n    tag_90:\n      mload(0x40)\n      dup1\n      swap2\n      sub\n      swap1\n      log1\n        /* \"contracts/Escrow.sol\":1959:2034  {... */\n      pop\n        /* \"contracts/Escrow.sol\":1914:2034  function deposit() public payable onlyClient {... */\n      jump\t// out\n        /* \"@openzeppelin/contracts/access/Ownable.sol\":2081:2279  function transferOwnership(address newOwner) public virtual onlyOwner {... */\n    tag_59:\n        /* \"@openzeppelin/contracts/access/Ownable.sol\":1094:1107  _checkOwner() */\n      tag_93\n        /* \"@openzeppelin/contracts/access/Ownable.sol\":1094:1105  _checkOwner */\n      tag_74\n        /* \"@openzeppelin/contracts/access/Ownable.sol\":1094:1107  _checkOwner() */\n      jump\t// in\n    tag_93:\n        /* \"@openzeppelin/contracts/access/Ownable.sol\":2189:2190  0 */\n      0x00\n        /* \"@openzeppelin/contracts/access/Ownable.sol\":2169:2191  newOwner != address(0) */\n      0xffffffffffffffffffffffffffffffffffffffff\n      and\n        /* \"@openzeppelin/contracts/access/Ownable.sol\":2169:2177  newOwner */\n      dup2\n        /* \"@openzeppelin/contracts/access/Ownable.sol\":2169:2191  newOwner != address(0) */\n      0xffffffffffffffffffffffffffffffffffffffff\n      and\n      eq\n      iszero\n        /* \"@openzeppelin/contracts/access/Ownable.sol\":2161:2234  require(newOwner != address(0), \"Ownable: new owner is the zero address\") */\n      tag_95\n      jumpi\n      mload(0x40)\n      0x08c379a000000000000000000000000000000000000000000000000000000000\n      dup2\n      mstore\n      0x04\n      add\n      tag_96\n      swap1\n      tag_97\n      jump\t// in\n    tag_96:\n      mload(0x40)\n      dup1\n      swap2\n      sub\n      swap1\n      revert\n    tag_95:\n        /* \"@openzeppelin/contracts/access/Ownable.sol\":2244:2272  _transferOwnership(newOwner) */\n      tag_98\n        /* \"@openzeppelin/contracts/access/Ownable.sol\":2263:2271  newOwner */\n      dup2\n        /* \"@openzeppelin/contracts/access/Ownable.sol\":2244:2262  _transferOwnership */\n      tag_77\n        /* \"@openzeppelin/contracts/access/Ownable.sol\":2244:2272  _transferOwnership(newOwner) */\n      jump\t// in\n    tag_98:\n        /* \"@openzeppelin/contracts/access/Ownable.sol\":2081:2279  function transferOwnership(address newOwner) public virtual onlyOwner {... */\n      pop\n      jump\t// out\n        /* \"contracts/Escrow.sol\":916:1025  function _checkAdmin() internal view {... */\n    tag_62:\n        /* \"contracts/Escrow.sol\":985:990  admin */\n      0x03\n      0x00\n      swap1\n      sload\n      swap1\n      0x0100\n      exp\n      swap1\n      div\n      0xffffffffffffffffffffffffffffffffffffffff\n      and\n        /* \"contracts/Escrow.sol\":971:990  msg.sender == admin */\n      0xffffffffffffffffffffffffffffffffffffffff\n      and\n        /* \"contracts/Escrow.sol\":971:981  msg.sender */\n      caller\n        /* \"contracts/Escrow.sol\":971:990  msg.sender == admin */\n      0xffffffffffffffffffffffffffffffffffffffff\n      and\n      eq\n        /* \"contracts/Escrow.sol\":963:1018  require(msg.sender == admin, \"caller is not the admin\") */\n      tag_100\n      jumpi\n      mload(0x40)\n      0x08c379a000000000000000000000000000000000000000000000000000000000\n      dup2\n      mstore\n      0x04\n      add\n      tag_101\n      swap1\n      tag_102\n      jump\t// in\n    tag_101:\n      mload(0x40)\n      dup1\n      swap2\n      sub\n      swap1\n      revert\n    tag_100:\n        /* \"contracts/Escrow.sol\":916:1025  function _checkAdmin() internal view {... */\n      jump\t// out\n        /* \"contracts/Escrow.sol\":5071:5753  function withdrawPayment() private{... */\n    tag_65:\n        /* \"contracts/Escrow.sol\":5111:5133  uint256 balancePayment */\n      0x00\n        /* \"contracts/Escrow.sol\":5136:5157  address(this).balance */\n      selfbalance\n        /* \"contracts/Escrow.sol\":5111:5157  uint256 balancePayment = address(this).balance */\n      swap1\n      pop\n        /* \"contracts/Escrow.sol\":5163:5183  uint256 adminPayment */\n      0x00\n        /* \"contracts/Escrow.sol\":5207:5209  10 */\n      0x0a\n        /* \"contracts/Escrow.sol\":5204:5205  2 */\n      0x02\n        /* \"contracts/Escrow.sol\":5187:5201  balancePayment */\n      dup4\n        /* \"contracts/Escrow.sol\":5187:5205  balancePayment * 2 */\n      tag_104\n      swap2\n      swap1\n      tag_105\n      jump\t// in\n    tag_104:\n        /* \"contracts/Escrow.sol\":5186:5209  (balancePayment * 2)/10 */\n      tag_106\n      swap2\n      swap1\n      tag_107\n      jump\t// in\n    tag_106:\n        /* \"contracts/Escrow.sol\":5163:5209  uint256 adminPayment = (balancePayment * 2)/10 */\n      swap1\n      pop\n        /* \"contracts/Escrow.sol\":5295:5307  adminPayment */\n      dup1\n        /* \"contracts/Escrow.sol\":5277:5307  balancePayment -= adminPayment */\n      dup3\n      tag_108\n      swap2\n      swap1\n      tag_109\n      jump\t// in\n    tag_108:\n      swap2\n      pop\n        /* \"contracts/Escrow.sol\":5377:5381  true */\n      0x01\n        /* \"contracts/Escrow.sol\":5360:5381  taskCompleted == true */\n      iszero\n      iszero\n        /* \"contracts/Escrow.sol\":5360:5373  taskCompleted */\n      0x05\n      0x00\n      swap1\n      sload\n      swap1\n      0x0100\n      exp\n      swap1\n      div\n      0xff\n      and\n        /* \"contracts/Escrow.sol\":5360:5381  taskCompleted == true */\n      iszero\n      iszero\n      eq\n        /* \"contracts/Escrow.sol\":5360:5406  taskCompleted == true && taskValidated == true */\n      dup1\n      iszero\n      tag_110\n      jumpi\n      pop\n        /* \"contracts/Escrow.sol\":5402:5406  true */\n      0x01\n        /* \"contracts/Escrow.sol\":5385:5406  taskValidated == true */\n      iszero\n      iszero\n        /* \"contracts/Escrow.sol\":5385:5398  taskValidated */\n      0x05\n      0x01\n      swap1\n      sload\n      swap1\n      0x0100\n      exp\n      swap1\n      div\n      0xff\n      and\n        /* \"contracts/Escrow.sol\":5385:5406  taskValidated == true */\n      iszero\n      iszero\n      eq\n        /* \"contracts/Escrow.sol\":5360:5406  taskCompleted == true && taskValidated == true */\n    tag_110:\n        /* \"contracts/Escrow.sol\":5359:5464  (taskCompleted == true && taskValidated == true)||(adminResolution == true && adminPayContractor == true) */\n      dup1\n      tag_111\n      jumpi\n      pop\n        /* \"contracts/Escrow.sol\":5429:5433  true */\n      0x01\n        /* \"contracts/Escrow.sol\":5410:5433  adminResolution == true */\n      iszero\n      iszero\n        /* \"contracts/Escrow.sol\":5410:5425  adminResolution */\n      0x05\n      0x02\n      swap1\n      sload\n      swap1\n      0x0100\n      exp\n      swap1\n      div\n      0xff\n      and\n        /* \"contracts/Escrow.sol\":5410:5433  adminResolution == true */\n      iszero\n      iszero\n      eq\n        /* \"contracts/Escrow.sol\":5410:5463  adminResolution == true && adminPayContractor == true */\n      dup1\n      iszero\n      tag_112\n      jumpi\n      pop\n        /* \"contracts/Escrow.sol\":5459:5463  true */\n      0x01\n        /* \"contracts/Escrow.sol\":5437:5463  adminPayContractor == true */\n      iszero\n      iszero\n        /* \"contracts/Escrow.sol\":5437:5455  adminPayContractor */\n      0x05\n      0x03\n      swap1\n      sload\n      swap1\n      0x0100\n      exp\n      swap1\n      div\n      0xff\n      and\n        /* \"contracts/Escrow.sol\":5437:5463  adminPayContractor == true */\n      iszero\n      iszero\n      eq\n        /* \"contracts/Escrow.sol\":5410:5463  adminResolution == true && adminPayContractor == true */\n    tag_112:\n        /* \"contracts/Escrow.sol\":5359:5464  (taskCompleted == true && taskValidated == true)||(adminResolution == true && adminPayContractor == true) */\n    tag_111:\n        /* \"contracts/Escrow.sol\":5356:5746  if((taskCompleted == true && taskValidated == true)||(adminResolution == true && adminPayContractor == true)){... */\n      iszero\n      tag_113\n      jumpi\n        /* \"contracts/Escrow.sol\":5479:5515  contractor.sendValue(balancePayment) */\n      tag_114\n        /* \"contracts/Escrow.sol\":5500:5514  balancePayment */\n      dup3\n        /* \"contracts/Escrow.sol\":5479:5489  contractor */\n      0x01\n      0x00\n      swap1\n      sload\n      swap1\n      0x0100\n      exp\n      swap1\n      div\n      0xffffffffffffffffffffffffffffffffffffffff\n      and\n        /* \"contracts/Escrow.sol\":5479:5499  contractor.sendValue */\n      0xffffffffffffffffffffffffffffffffffffffff\n      and\n      tag_115\n      swap1\n        /* \"contracts/Escrow.sol\":5479:5515  contractor.sendValue(balancePayment) */\n      swap2\n      swap1\n      0xffffffff\n      and\n      jump\t// in\n    tag_114:\n        /* \"contracts/Escrow.sol\":5529:5558  admin.sendValue(adminPayment) */\n      tag_116\n        /* \"contracts/Escrow.sol\":5545:5557  adminPayment */\n      dup2\n        /* \"contracts/Escrow.sol\":5529:5534  admin */\n      0x03\n      0x00\n      swap1\n      sload\n      swap1\n      0x0100\n      exp\n      swap1\n      div\n      0xffffffffffffffffffffffffffffffffffffffff\n      and\n        /* \"contracts/Escrow.sol\":5529:5544  admin.sendValue */\n      0xffffffffffffffffffffffffffffffffffffffff\n      and\n      tag_115\n      swap1\n        /* \"contracts/Escrow.sol\":5529:5558  admin.sendValue(adminPayment) */\n      swap2\n      swap1\n      0xffffffff\n      and\n      jump\t// in\n    tag_116:\n        /* \"contracts/Escrow.sol\":5356:5746  if((taskCompleted == true && taskValidated == true)||(adminResolution == true && adminPayContractor == true)){... */\n      jump(tag_117)\n    tag_113:\n        /* \"contracts/Escrow.sol\":5605:5609  true */\n      0x01\n        /* \"contracts/Escrow.sol\":5586:5609  adminResolution == true */\n      iszero\n      iszero\n        /* \"contracts/Escrow.sol\":5586:5601  adminResolution */\n      0x05\n      0x02\n      swap1\n      sload\n      swap1\n      0x0100\n      exp\n      swap1\n      div\n      0xff\n      and\n        /* \"contracts/Escrow.sol\":5586:5609  adminResolution == true */\n      iszero\n      iszero\n      eq\n        /* \"contracts/Escrow.sol\":5586:5640  adminResolution == true && adminPayContractor == false */\n      dup1\n      iszero\n      tag_118\n      jumpi\n      pop\n        /* \"contracts/Escrow.sol\":5635:5640  false */\n      0x00\n        /* \"contracts/Escrow.sol\":5613:5640  adminPayContractor == false */\n      iszero\n      iszero\n        /* \"contracts/Escrow.sol\":5613:5631  adminPayContractor */\n      0x05\n      0x03\n      swap1\n      sload\n      swap1\n      0x0100\n      exp\n      swap1\n      div\n      0xff\n      and\n        /* \"contracts/Escrow.sol\":5613:5640  adminPayContractor == false */\n      iszero\n      iszero\n      eq\n        /* \"contracts/Escrow.sol\":5586:5640  adminResolution == true && adminPayContractor == false */\n    tag_118:\n        /* \"contracts/Escrow.sol\":5583:5746  if(adminResolution == true && adminPayContractor == false){... */\n      iszero\n      tag_119\n      jumpi\n        /* \"contracts/Escrow.sol\":5655:5687  client.sendValue(balancePayment) */\n      tag_120\n        /* \"contracts/Escrow.sol\":5672:5686  balancePayment */\n      dup3\n        /* \"contracts/Escrow.sol\":5655:5661  client */\n      0x02\n      0x00\n      swap1\n      sload\n      swap1\n      0x0100\n      exp\n      swap1\n      div\n      0xffffffffffffffffffffffffffffffffffffffff\n      and\n        /* \"contracts/Escrow.sol\":5655:5671  client.sendValue */\n      0xffffffffffffffffffffffffffffffffffffffff\n      and\n      tag_115\n      swap1\n        /* \"contracts/Escrow.sol\":5655:5687  client.sendValue(balancePayment) */\n      swap2\n      swap1\n      0xffffffff\n      and\n      jump\t// in\n    tag_120:\n        /* \"contracts/Escrow.sol\":5701:5730  admin.sendValue(adminPayment) */\n      tag_121\n        /* \"contracts/Escrow.sol\":5717:5729  adminPayment */\n      dup2\n        /* \"contracts/Escrow.sol\":5701:5706  admin */\n      0x03\n      0x00\n      swap1\n      sload\n      swap1\n      0x0100\n      exp\n      swap1\n      div\n      0xffffffffffffffffffffffffffffffffffffffff\n      and\n        /* \"contracts/Escrow.sol\":5701:5716  admin.sendValue */\n      0xffffffffffffffffffffffffffffffffffffffff\n      and\n      tag_115\n      swap1\n        /* \"contracts/Escrow.sol\":5701:5730  admin.sendValue(adminPayment) */\n      swap2\n      swap1\n      0xffffffff\n      and\n      jump\t// in\n    tag_121:\n        /* \"contracts/Escrow.sol\":5583:5746  if(adminResolution == true && adminPayContractor == false){... */\n    tag_119:\n        /* \"contracts/Escrow.sol\":5356:5746  if((taskCompleted == true && taskValidated == true)||(adminResolution == true && adminPayContractor == true)){... */\n    tag_117:\n        /* \"contracts/Escrow.sol\":5105:5753  {... */\n      pop\n      pop\n        /* \"contracts/Escrow.sol\":5071:5753  function withdrawPayment() private{... */\n      jump\t// out\n        /* \"contracts/Escrow.sol\":1585:1709  function _checkContractor() internal view {... */\n    tag_68:\n        /* \"contracts/Escrow.sol\":1659:1669  contractor */\n      0x01\n      0x00\n      swap1\n      sload\n      swap1\n      0x0100\n      exp\n      swap1\n      div\n      0xffffffffffffffffffffffffffffffffffffffff\n      and\n        /* \"contracts/Escrow.sol\":1645:1669  msg.sender == contractor */\n      0xffffffffffffffffffffffffffffffffffffffff\n      and\n        /* \"contracts/Escrow.sol\":1645:1655  msg.sender */\n      caller\n        /* \"contracts/Escrow.sol\":1645:1669  msg.sender == contractor */\n      0xffffffffffffffffffffffffffffffffffffffff\n      and\n      eq\n        /* \"contracts/Escrow.sol\":1637:1702  require(msg.sender == contractor, \"caller is not the contractor\") */\n      tag_123\n      jumpi\n      mload(0x40)\n      0x08c379a000000000000000000000000000000000000000000000000000000000\n      dup2\n      mstore\n      0x04\n      add\n      tag_124\n      swap1\n      tag_125\n      jump\t// in\n    tag_124:\n      mload(0x40)\n      dup1\n      swap2\n      sub\n      swap1\n      revert\n    tag_123:\n        /* \"contracts/Escrow.sol\":1585:1709  function _checkContractor() internal view {... */\n      jump\t// out\n        /* \"@openzeppelin/contracts/access/Ownable.sol\":1359:1489  function _checkOwner() internal view virtual {... */\n    tag_74:\n        /* \"@openzeppelin/contracts/access/Ownable.sol\":1433:1445  _msgSender() */\n      tag_127\n        /* \"@openzeppelin/contracts/access/Ownable.sol\":1433:1443  _msgSender */\n      tag_128\n        /* \"@openzeppelin/contracts/access/Ownable.sol\":1433:1445  _msgSender() */\n      jump\t// in\n    tag_127:\n        /* \"@openzeppelin/contracts/access/Ownable.sol\":1422:1445  owner() == _msgSender() */\n      0xffffffffffffffffffffffffffffffffffffffff\n      and\n        /* \"@openzeppelin/contracts/access/Ownable.sol\":1422:1429  owner() */\n      tag_129\n        /* \"@openzeppelin/contracts/access/Ownable.sol\":1422:1427  owner */\n      tag_47\n        /* \"@openzeppelin/contracts/access/Ownable.sol\":1422:1429  owner() */\n      jump\t// in\n    tag_129:\n        /* \"@openzeppelin/contracts/access/Ownable.sol\":1422:1445  owner() == _msgSender() */\n      0xffffffffffffffffffffffffffffffffffffffff\n      and\n      eq\n        /* \"@openzeppelin/contracts/access/Ownable.sol\":1414:1482  require(owner() == _msgSender(), \"Ownable: caller is not the owner\") */\n      tag_130\n      jumpi\n      mload(0x40)\n      0x08c379a000000000000000000000000000000000000000000000000000000000\n      dup2\n      mstore\n      0x04\n      add\n      tag_131\n      swap1\n      tag_132\n      jump\t// in\n    tag_131:\n      mload(0x40)\n      dup1\n      swap2\n      sub\n      swap1\n      revert\n    tag_130:\n        /* \"@openzeppelin/contracts/access/Ownable.sol\":1359:1489  function _checkOwner() internal view virtual {... */\n      jump\t// out\n        /* \"@openzeppelin/contracts/access/Ownable.sol\":2433:2620  function _transferOwnership(address newOwner) internal virtual {... */\n    tag_77:\n        /* \"@openzeppelin/contracts/access/Ownable.sol\":2506:2522  address oldOwner */\n      0x00\n        /* \"@openzeppelin/contracts/access/Ownable.sol\":2525:2531  _owner */\n      dup1\n      0x00\n      swap1\n      sload\n      swap1\n      0x0100\n      exp\n      swap1\n      div\n      0xffffffffffffffffffffffffffffffffffffffff\n      and\n        /* \"@openzeppelin/contracts/access/Ownable.sol\":2506:2531  address oldOwner = _owner */\n      swap1\n      pop\n        /* \"@openzeppelin/contracts/access/Ownable.sol\":2550:2558  newOwner */\n      dup2\n        /* \"@openzeppelin/contracts/access/Ownable.sol\":2541:2547  _owner */\n      0x00\n      dup1\n        /* \"@openzeppelin/contracts/access/Ownable.sol\":2541:2558  _owner = newOwner */\n      0x0100\n      exp\n      dup2\n      sload\n      dup2\n      0xffffffffffffffffffffffffffffffffffffffff\n      mul\n      not\n      and\n      swap1\n      dup4\n      0xffffffffffffffffffffffffffffffffffffffff\n      and\n      mul\n      or\n      swap1\n      sstore\n      pop\n        /* \"@openzeppelin/contracts/access/Ownable.sol\":2604:2612  newOwner */\n      dup2\n        /* \"@openzeppelin/contracts/access/Ownable.sol\":2573:2613  OwnershipTransferred(oldOwner, newOwner) */\n      0xffffffffffffffffffffffffffffffffffffffff\n      and\n        /* \"@openzeppelin/contracts/access/Ownable.sol\":2594:2602  oldOwner */\n      dup2\n        /* \"@openzeppelin/contracts/access/Ownable.sol\":2573:2613  OwnershipTransferred(oldOwner, newOwner) */\n      0xffffffffffffffffffffffffffffffffffffffff\n      and\n      0x8be0079c531659141344cd1fd0a4f28419497f9722a3daafe3b4186f6b6457e0\n      mload(0x40)\n      mload(0x40)\n      dup1\n      swap2\n      sub\n      swap1\n      log3\n        /* \"@openzeppelin/contracts/access/Ownable.sol\":2496:2620  {... */\n      pop\n        /* \"@openzeppelin/contracts/access/Ownable.sol\":2433:2620  function _transferOwnership(address newOwner) internal virtual {... */\n      pop\n      jump\t// out\n        /* \"contracts/Escrow.sol\":1243:1355  function _checkClient() internal view {... */\n    tag_84:\n        /* \"contracts/Escrow.sol\":1313:1319  client */\n      0x02\n      0x00\n      swap1\n      sload\n      swap1\n      0x0100\n      exp\n      swap1\n      div\n      0xffffffffffffffffffffffffffffffffffffffff\n      and\n        /* \"contracts/Escrow.sol\":1299:1319  msg.sender == client */\n      0xffffffffffffffffffffffffffffffffffffffff\n      and\n        /* \"contracts/Escrow.sol\":1299:1309  msg.sender */\n      caller\n        /* \"contracts/Escrow.sol\":1299:1319  msg.sender == client */\n      0xffffffffffffffffffffffffffffffffffffffff\n      and\n      eq\n        /* \"contracts/Escrow.sol\":1291:1348  require(msg.sender == client, \"caller is not the client\") */\n      tag_135\n      jumpi\n      mload(0x40)\n      0x08c379a000000000000000000000000000000000000000000000000000000000\n      dup2\n      mstore\n      0x04\n      add\n      tag_136\n      swap1\n      tag_137\n      jump\t// in\n    tag_136:\n      mload(0x40)\n      dup1\n      swap2\n      sub\n      swap1\n      revert\n    tag_135:\n        /* \"contracts/Escrow.sol\":1243:1355  function _checkClient() internal view {... */\n      jump\t// out\n        /* \"@openzeppelin/contracts/utils/Address.sol\":2412:2724  function sendValue(address payable recipient, uint256 amount) internal {... */\n    tag_115:\n        /* \"@openzeppelin/contracts/utils/Address.sol\":2526:2532  amount */\n      dup1\n        /* \"@openzeppelin/contracts/utils/Address.sol\":2501:2522  address(this).balance */\n      selfbalance\n        /* \"@openzeppelin/contracts/utils/Address.sol\":2501:2532  address(this).balance >= amount */\n      lt\n      iszero\n        /* \"@openzeppelin/contracts/utils/Address.sol\":2493:2566  require(address(this).balance >= amount, \"Address: insufficient balance\") */\n      tag_139\n      jumpi\n      mload(0x40)\n      0x08c379a000000000000000000000000000000000000000000000000000000000\n      dup2\n      mstore\n      0x04\n      add\n      tag_140\n      swap1\n      tag_141\n      jump\t// in\n    tag_140:\n      mload(0x40)\n      dup1\n      swap2\n      sub\n      swap1\n      revert\n    tag_139:\n        /* \"@openzeppelin/contracts/utils/Address.sol\":2578:2590  bool success */\n      0x00\n        /* \"@openzeppelin/contracts/utils/Address.sol\":2596:2605  recipient */\n      dup3\n        /* \"@openzeppelin/contracts/utils/Address.sol\":2596:2610  recipient.call */\n      0xffffffffffffffffffffffffffffffffffffffff\n      and\n        /* \"@openzeppelin/contracts/utils/Address.sol\":2618:2624  amount */\n      dup3\n        /* \"@openzeppelin/contracts/utils/Address.sol\":2596:2629  recipient.call{value: amount}(\"\") */\n      mload(0x40)\n      tag_142\n      swap1\n      tag_143\n      jump\t// in\n    tag_142:\n      0x00\n      mload(0x40)\n      dup1\n      dup4\n      sub\n      dup2\n      dup6\n      dup8\n      gas\n      call\n      swap3\n      pop\n      pop\n      pop\n      returndatasize\n      dup1\n      0x00\n      dup2\n      eq\n      tag_146\n      jumpi\n      mload(0x40)\n      swap2\n      pop\n      and(add(returndatasize, 0x3f), not(0x1f))\n      dup3\n      add\n      0x40\n      mstore\n      returndatasize\n      dup3\n      mstore\n      returndatasize\n      0x00\n      0x20\n      dup5\n      add\n      returndatacopy\n      jump(tag_145)\n    tag_146:\n      0x60\n      swap2\n      pop\n    tag_145:\n      pop\n        /* \"@openzeppelin/contracts/utils/Address.sol\":2577:2629  (bool success, ) = recipient.call{value: amount}(\"\") */\n      pop\n      swap1\n      pop\n        /* \"@openzeppelin/contracts/utils/Address.sol\":2647:2654  success */\n      dup1\n        /* \"@openzeppelin/contracts/utils/Address.sol\":2639:2717  require(success, \"Address: unable to send value, recipient may have reverted\") */\n      tag_147\n      jumpi\n      mload(0x40)\n      0x08c379a000000000000000000000000000000000000000000000000000000000\n      dup2\n      mstore\n      0x04\n      add\n      tag_148\n      swap1\n      tag_149\n      jump\t// in\n    tag_148:\n      mload(0x40)\n      dup1\n      swap2\n      sub\n      swap1\n      revert\n    tag_147:\n        /* \"@openzeppelin/contracts/utils/Address.sol\":2483:2724  {... */\n      pop\n        /* \"@openzeppelin/contracts/utils/Address.sol\":2412:2724  function sendValue(address payable recipient, uint256 amount) internal {... */\n      pop\n      pop\n      jump\t// out\n        /* \"@openzeppelin/contracts/utils/Context.sol\":640:736  function _msgSender() internal view virtual returns (address) {... */\n    tag_128:\n        /* \"@openzeppelin/contracts/utils/Context.sol\":693:700  address */\n      0x00\n        /* \"@openzeppelin/contracts/utils/Context.sol\":719:729  msg.sender */\n      caller\n        /* \"@openzeppelin/contracts/utils/Context.sol\":712:729  return msg.sender */\n      swap1\n      pop\n        /* \"@openzeppelin/contracts/utils/Context.sol\":640:736  function _msgSender() internal view virtual returns (address) {... */\n      swap1\n      jump\t// out\n        /* \"#utility.yul\":7:146   */\n    tag_152:\n        /* \"#utility.yul\":53:58   */\n      0x00\n        /* \"#utility.yul\":91:97   */\n      dup2\n        /* \"#utility.yul\":78:98   */\n      calldataload\n        /* \"#utility.yul\":69:98   */\n      swap1\n      pop\n        /* \"#utility.yul\":107:140   */\n      tag_154\n        /* \"#utility.yul\":134:139   */\n      dup2\n        /* \"#utility.yul\":107:140   */\n      tag_155\n      jump\t// in\n    tag_154:\n        /* \"#utility.yul\":7:146   */\n      swap3\n      swap2\n      pop\n      pop\n      jump\t// out\n        /* \"#utility.yul\":152:307   */\n    tag_156:\n        /* \"#utility.yul\":206:211   */\n      0x00\n        /* \"#utility.yul\":244:250   */\n      dup2\n        /* \"#utility.yul\":231:251   */\n      calldataload\n        /* \"#utility.yul\":222:251   */\n      swap1\n      pop\n        /* \"#utility.yul\":260:301   */\n      tag_158\n        /* \"#utility.yul\":295:300   */\n      dup2\n        /* \"#utility.yul\":260:301   */\n      tag_159\n      jump\t// in\n    tag_158:\n        /* \"#utility.yul\":152:307   */\n      swap3\n      swap2\n      pop\n      pop\n      jump\t// out\n        /* \"#utility.yul\":313:446   */\n    tag_160:\n        /* \"#utility.yul\":356:361   */\n      0x00\n        /* \"#utility.yul\":394:400   */\n      dup2\n        /* \"#utility.yul\":381:401   */\n      calldataload\n        /* \"#utility.yul\":372:401   */\n      swap1\n      pop\n        /* \"#utility.yul\":410:440   */\n      tag_162\n        /* \"#utility.yul\":434:439   */\n      dup2\n        /* \"#utility.yul\":410:440   */\n      tag_163\n      jump\t// in\n    tag_162:\n        /* \"#utility.yul\":313:446   */\n      swap3\n      swap2\n      pop\n      pop\n      jump\t// out\n        /* \"#utility.yul\":452:781   */\n    tag_58:\n        /* \"#utility.yul\":511:517   */\n      0x00\n        /* \"#utility.yul\":560:562   */\n      0x20\n        /* \"#utility.yul\":548:557   */\n      dup3\n        /* \"#utility.yul\":539:546   */\n      dup5\n        /* \"#utility.yul\":535:558   */\n      sub\n        /* \"#utility.yul\":531:563   */\n      slt\n        /* \"#utility.yul\":528:647   */\n      iszero\n      tag_165\n      jumpi\n        /* \"#utility.yul\":566:645   */\n      tag_166\n      tag_167\n      jump\t// in\n    tag_166:\n        /* \"#utility.yul\":528:647   */\n    tag_165:\n        /* \"#utility.yul\":686:687   */\n      0x00\n        /* \"#utility.yul\":711:764   */\n      tag_168\n        /* \"#utility.yul\":756:763   */\n      dup5\n        /* \"#utility.yul\":747:753   */\n      dup3\n        /* \"#utility.yul\":736:745   */\n      dup6\n        /* \"#utility.yul\":732:754   */\n      add\n        /* \"#utility.yul\":711:764   */\n      tag_152\n      jump\t// in\n    tag_168:\n        /* \"#utility.yul\":701:764   */\n      swap2\n      pop\n        /* \"#utility.yul\":657:774   */\n      pop\n        /* \"#utility.yul\":452:781   */\n      swap3\n      swap2\n      pop\n      pop\n      jump\t// out\n        /* \"#utility.yul\":787:1132   */\n    tag_27:\n        /* \"#utility.yul\":854:860   */\n      0x00\n        /* \"#utility.yul\":903:905   */\n      0x20\n        /* \"#utility.yul\":891:900   */\n      dup3\n        /* \"#utility.yul\":882:889   */\n      dup5\n        /* \"#utility.yul\":878:901   */\n      sub\n        /* \"#utility.yul\":874:906   */\n      slt\n        /* \"#utility.yul\":871:990   */\n      iszero\n      tag_170\n      jumpi\n        /* \"#utility.yul\":909:988   */\n      tag_171\n      tag_167\n      jump\t// in\n    tag_171:\n        /* \"#utility.yul\":871:990   */\n    tag_170:\n        /* \"#utility.yul\":1029:1030   */\n      0x00\n        /* \"#utility.yul\":1054:1115   */\n      tag_172\n        /* \"#utility.yul\":1107:1114   */\n      dup5\n        /* \"#utility.yul\":1098:1104   */\n      dup3\n        /* \"#utility.yul\":1087:1096   */\n      dup6\n        /* \"#utility.yul\":1083:1105   */\n      add\n        /* \"#utility.yul\":1054:1115   */\n      tag_156\n      jump\t// in\n    tag_172:\n        /* \"#utility.yul\":1044:1115   */\n      swap2\n      pop\n        /* \"#utility.yul\":1000:1125   */\n      pop\n        /* \"#utility.yul\":787:1132   */\n      swap3\n      swap2\n      pop\n      pop\n      jump\t// out\n        /* \"#utility.yul\":1138:1461   */\n    tag_22:\n        /* \"#utility.yul\":1194:1200   */\n      0x00\n        /* \"#utility.yul\":1243:1245   */\n      0x20\n        /* \"#utility.yul\":1231:1240   */\n      dup3\n        /* \"#utility.yul\":1222:1229   */\n      dup5\n        /* \"#utility.yul\":1218:1241   */\n      sub\n        /* \"#utility.yul\":1214:1246   */\n      slt\n        /* \"#utility.yul\":1211:1330   */\n      iszero\n      tag_174\n      jumpi\n        /* \"#utility.yul\":1249:1328   */\n      tag_175\n      tag_167\n      jump\t// in\n    tag_175:\n        /* \"#utility.yul\":1211:1330   */\n    tag_174:\n        /* \"#utility.yul\":1369:1370   */\n      0x00\n        /* \"#utility.yul\":1394:1444   */\n      tag_176\n        /* \"#utility.yul\":1436:1443   */\n      dup5\n        /* \"#utility.yul\":1427:1433   */\n      dup3\n        /* \"#utility.yul\":1416:1425   */\n      dup6\n        /* \"#utility.yul\":1412:1434   */\n      add\n        /* \"#utility.yul\":1394:1444   */\n      tag_160\n      jump\t// in\n    tag_176:\n        /* \"#utility.yul\":1384:1444   */\n      swap2\n      pop\n        /* \"#utility.yul\":1340:1454   */\n      pop\n        /* \"#utility.yul\":1138:1461   */\n      swap3\n      swap2\n      pop\n      pop\n      jump\t// out\n        /* \"#utility.yul\":1467:1929   */\n    tag_17:\n        /* \"#utility.yul\":1529:1535   */\n      0x00\n        /* \"#utility.yul\":1537:1543   */\n      dup1\n        /* \"#utility.yul\":1586:1588   */\n      0x40\n        /* \"#utility.yul\":1574:1583   */\n      dup4\n        /* \"#utility.yul\":1565:1572   */\n      dup6\n        /* \"#utility.yul\":1561:1584   */\n      sub\n        /* \"#utility.yul\":1557:1589   */\n      slt\n        /* \"#utility.yul\":1554:1673   */\n      iszero\n      tag_178\n      jumpi\n        /* \"#utility.yul\":1592:1671   */\n      tag_179\n      tag_167\n      jump\t// in\n    tag_179:\n        /* \"#utility.yul\":1554:1673   */\n    tag_178:\n        /* \"#utility.yul\":1712:1713   */\n      0x00\n        /* \"#utility.yul\":1737:1787   */\n      tag_180\n        /* \"#utility.yul\":1779:1786   */\n      dup6\n        /* \"#utility.yul\":1770:1776   */\n      dup3\n        /* \"#utility.yul\":1759:1768   */\n      dup7\n        /* \"#utility.yul\":1755:1777   */\n      add\n        /* \"#utility.yul\":1737:1787   */\n      tag_160\n      jump\t// in\n    tag_180:\n        /* \"#utility.yul\":1727:1787   */\n      swap3\n      pop\n        /* \"#utility.yul\":1683:1797   */\n      pop\n        /* \"#utility.yul\":1836:1838   */\n      0x20\n        /* \"#utility.yul\":1862:1912   */\n      tag_181\n        /* \"#utility.yul\":1904:1911   */\n      dup6\n        /* \"#utility.yul\":1895:1901   */\n      dup3\n        /* \"#utility.yul\":1884:1893   */\n      dup7\n        /* \"#utility.yul\":1880:1902   */\n      add\n        /* \"#utility.yul\":1862:1912   */\n      tag_160\n      jump\t// in\n    tag_181:\n        /* \"#utility.yul\":1852:1912   */\n      swap2\n      pop\n        /* \"#utility.yul\":1807:1922   */\n      pop\n        /* \"#utility.yul\":1467:1929   */\n      swap3\n      pop\n      swap3\n      swap1\n      pop\n      jump\t// out\n        /* \"#utility.yul\":1935:2053   */\n    tag_182:\n        /* \"#utility.yul\":2022:2046   */\n      tag_184\n        /* \"#utility.yul\":2040:2045   */\n      dup2\n        /* \"#utility.yul\":2022:2046   */\n      tag_185\n      jump\t// in\n    tag_184:\n        /* \"#utility.yul\":2017:2020   */\n      dup3\n        /* \"#utility.yul\":2010:2047   */\n      mstore\n        /* \"#utility.yul\":1935:2053   */\n      pop\n      pop\n      jump\t// out\n        /* \"#utility.yul\":2059:2425   */\n    tag_186:\n        /* \"#utility.yul\":2201:2204   */\n      0x00\n        /* \"#utility.yul\":2222:2289   */\n      tag_188\n        /* \"#utility.yul\":2286:2288   */\n      0x26\n        /* \"#utility.yul\":2281:2284   */\n      dup4\n        /* \"#utility.yul\":2222:2289   */\n      tag_189\n      jump\t// in\n    tag_188:\n        /* \"#utility.yul\":2215:2289   */\n      swap2\n      pop\n        /* \"#utility.yul\":2298:2391   */\n      tag_190\n        /* \"#utility.yul\":2387:2390   */\n      dup3\n        /* \"#utility.yul\":2298:2391   */\n      tag_191\n      jump\t// in\n    tag_190:\n        /* \"#utility.yul\":2416:2418   */\n      0x40\n        /* \"#utility.yul\":2411:2414   */\n      dup3\n        /* \"#utility.yul\":2407:2419   */\n      add\n        /* \"#utility.yul\":2400:2419   */\n      swap1\n      pop\n        /* \"#utility.yul\":2059:2425   */\n      swap2\n      swap1\n      pop\n      jump\t// out\n        /* \"#utility.yul\":2431:2797   */\n    tag_192:\n        /* \"#utility.yul\":2573:2576   */\n      0x00\n        /* \"#utility.yul\":2594:2661   */\n      tag_194\n        /* \"#utility.yul\":2658:2660   */\n      0x3a\n        /* \"#utility.yul\":2653:2656   */\n      dup4\n        /* \"#utility.yul\":2594:2661   */\n      tag_189\n      jump\t// in\n    tag_194:\n        /* \"#utility.yul\":2587:2661   */\n      swap2\n      pop\n        /* \"#utility.yul\":2670:2763   */\n      tag_195\n        /* \"#utility.yul\":2759:2762   */\n      dup3\n        /* \"#utility.yul\":2670:2763   */\n      tag_196\n      jump\t// in\n    tag_195:\n        /* \"#utility.yul\":2788:2790   */\n      0x40\n        /* \"#utility.yul\":2783:2786   */\n      dup3\n        /* \"#utility.yul\":2779:2791   */\n      add\n        /* \"#utility.yul\":2772:2791   */\n      swap1\n      pop\n        /* \"#utility.yul\":2431:2797   */\n      swap2\n      swap1\n      pop\n      jump\t// out\n        /* \"#utility.yul\":2803:3169   */\n    tag_197:\n        /* \"#utility.yul\":2945:2948   */\n      0x00\n        /* \"#utility.yul\":2966:3033   */\n      tag_199\n        /* \"#utility.yul\":3030:3032   */\n      0x1d\n        /* \"#utility.yul\":3025:3028   */\n      dup4\n        /* \"#utility.yul\":2966:3033   */\n      tag_189\n      jump\t// in\n    tag_199:\n        /* \"#utility.yul\":2959:3033   */\n      swap2\n      pop\n        /* \"#utility.yul\":3042:3135   */\n      tag_200\n        /* \"#utility.yul\":3131:3134   */\n      dup3\n        /* \"#utility.yul\":3042:3135   */\n      tag_201\n      jump\t// in\n    tag_200:\n        /* \"#utility.yul\":3160:3162   */\n      0x20\n        /* \"#utility.yul\":3155:3158   */\n      dup3\n        /* \"#utility.yul\":3151:3163   */\n      add\n        /* \"#utility.yul\":3144:3163   */\n      swap1\n      pop\n        /* \"#utility.yul\":2803:3169   */\n      swap2\n      swap1\n      pop\n      jump\t// out\n        /* \"#utility.yul\":3175:3541   */\n    tag_202:\n        /* \"#utility.yul\":3317:3320   */\n      0x00\n        /* \"#utility.yul\":3338:3405   */\n      tag_204\n        /* \"#utility.yul\":3402:3404   */\n      0x1c\n        /* \"#utility.yul\":3397:3400   */\n      dup4\n        /* \"#utility.yul\":3338:3405   */\n      tag_189\n      jump\t// in\n    tag_204:\n        /* \"#utility.yul\":3331:3405   */\n      swap2\n      pop\n        /* \"#utility.yul\":3414:3507   */\n      tag_205\n        /* \"#utility.yul\":3503:3506   */\n      dup3\n        /* \"#utility.yul\":3414:3507   */\n      tag_206\n      jump\t// in\n    tag_205:\n        /* \"#utility.yul\":3532:3534   */\n      0x20\n        /* \"#utility.yul\":3527:3530   */\n      dup3\n        /* \"#utility.yul\":3523:3535   */\n      add\n        /* \"#utility.yul\":3516:3535   */\n      swap1\n      pop\n        /* \"#utility.yul\":3175:3541   */\n      swap2\n      swap1\n      pop\n      jump\t// out\n        /* \"#utility.yul\":3547:3913   */\n    tag_207:\n        /* \"#utility.yul\":3689:3692   */\n      0x00\n        /* \"#utility.yul\":3710:3777   */\n      tag_209\n        /* \"#utility.yul\":3774:3776   */\n      0x20\n        /* \"#utility.yul\":3769:3772   */\n      dup4\n        /* \"#utility.yul\":3710:3777   */\n      tag_189\n      jump\t// in\n    tag_209:\n        /* \"#utility.yul\":3703:3777   */\n      swap2\n      pop\n        /* \"#utility.yul\":3786:3879   */\n      tag_210\n        /* \"#utility.yul\":3875:3878   */\n      dup3\n        /* \"#utility.yul\":3786:3879   */\n      tag_211\n      jump\t// in\n    tag_210:\n        /* \"#utility.yul\":3904:3906   */\n      0x20\n        /* \"#utility.yul\":3899:3902   */\n      dup3\n        /* \"#utility.yul\":3895:3907   */\n      add\n        /* \"#utility.yul\":3888:3907   */\n      swap1\n      pop\n        /* \"#utility.yul\":3547:3913   */\n      swap2\n      swap1\n      pop\n      jump\t// out\n        /* \"#utility.yul\":3919:4317   */\n    tag_212:\n        /* \"#utility.yul\":4078:4081   */\n      0x00\n        /* \"#utility.yul\":4099:4182   */\n      tag_214\n        /* \"#utility.yul\":4180:4181   */\n      0x00\n        /* \"#utility.yul\":4175:4178   */\n      dup4\n        /* \"#utility.yul\":4099:4182   */\n      tag_215\n      jump\t// in\n    tag_214:\n        /* \"#utility.yul\":4092:4182   */\n      swap2\n      pop\n        /* \"#utility.yul\":4191:4284   */\n      tag_216\n        /* \"#utility.yul\":4280:4283   */\n      dup3\n        /* \"#utility.yul\":4191:4284   */\n      tag_217\n      jump\t// in\n    tag_216:\n        /* \"#utility.yul\":4309:4310   */\n      0x00\n        /* \"#utility.yul\":4304:4307   */\n      dup3\n        /* \"#utility.yul\":4300:4311   */\n      add\n        /* \"#utility.yul\":4293:4311   */\n      swap1\n      pop\n        /* \"#utility.yul\":3919:4317   */\n      swap2\n      swap1\n      pop\n      jump\t// out\n        /* \"#utility.yul\":4323:4689   */\n    tag_218:\n        /* \"#utility.yul\":4465:4468   */\n      0x00\n        /* \"#utility.yul\":4486:4553   */\n      tag_220\n        /* \"#utility.yul\":4550:4552   */\n      0x17\n        /* \"#utility.yul\":4545:4548   */\n      dup4\n        /* \"#utility.yul\":4486:4553   */\n      tag_189\n      jump\t// in\n    tag_220:\n        /* \"#utility.yul\":4479:4553   */\n      swap2\n      pop\n        /* \"#utility.yul\":4562:4655   */\n      tag_221\n        /* \"#utility.yul\":4651:4654   */\n      dup3\n        /* \"#utility.yul\":4562:4655   */\n      tag_222\n      jump\t// in\n    tag_221:\n        /* \"#utility.yul\":4680:4682   */\n      0x20\n        /* \"#utility.yul\":4675:4678   */\n      dup3\n        /* \"#utility.yul\":4671:4683   */\n      add\n        /* \"#utility.yul\":4664:4683   */\n      swap1\n      pop\n        /* \"#utility.yul\":4323:4689   */\n      swap2\n      swap1\n      pop\n      jump\t// out\n        /* \"#utility.yul\":4695:5061   */\n    tag_223:\n        /* \"#utility.yul\":4837:4840   */\n      0x00\n        /* \"#utility.yul\":4858:4925   */\n      tag_225\n        /* \"#utility.yul\":4922:4924   */\n      0x18\n        /* \"#utility.yul\":4917:4920   */\n      dup4\n        /* \"#utility.yul\":4858:4925   */\n      tag_189\n      jump\t// in\n    tag_225:\n        /* \"#utility.yul\":4851:4925   */\n      swap2\n      pop\n        /* \"#utility.yul\":4934:5027   */\n      tag_226\n        /* \"#utility.yul\":5023:5026   */\n      dup3\n        /* \"#utility.yul\":4934:5027   */\n      tag_227\n      jump\t// in\n    tag_226:\n        /* \"#utility.yul\":5052:5054   */\n      0x20\n        /* \"#utility.yul\":5047:5050   */\n      dup3\n        /* \"#utility.yul\":5043:5055   */\n      add\n        /* \"#utility.yul\":5036:5055   */\n      swap1\n      pop\n        /* \"#utility.yul\":4695:5061   */\n      swap2\n      swap1\n      pop\n      jump\t// out\n        /* \"#utility.yul\":5067:5185   */\n    tag_228:\n        /* \"#utility.yul\":5154:5178   */\n      tag_230\n        /* \"#utility.yul\":5172:5177   */\n      dup2\n        /* \"#utility.yul\":5154:5178   */\n      tag_231\n      jump\t// in\n    tag_230:\n        /* \"#utility.yul\":5149:5152   */\n      dup3\n        /* \"#utility.yul\":5142:5179   */\n      mstore\n        /* \"#utility.yul\":5067:5185   */\n      pop\n      pop\n      jump\t// out\n        /* \"#utility.yul\":5191:5570   */\n    tag_143:\n        /* \"#utility.yul\":5375:5378   */\n      0x00\n        /* \"#utility.yul\":5397:5544   */\n      tag_233\n        /* \"#utility.yul\":5540:5543   */\n      dup3\n        /* \"#utility.yul\":5397:5544   */\n      tag_212\n      jump\t// in\n    tag_233:\n        /* \"#utility.yul\":5390:5544   */\n      swap2\n      pop\n        /* \"#utility.yul\":5561:5564   */\n      dup2\n        /* \"#utility.yul\":5554:5564   */\n      swap1\n      pop\n        /* \"#utility.yul\":5191:5570   */\n      swap2\n      swap1\n      pop\n      jump\t// out\n        /* \"#utility.yul\":5576:5798   */\n    tag_33:\n        /* \"#utility.yul\":5669:5673   */\n      0x00\n        /* \"#utility.yul\":5707:5709   */\n      0x20\n        /* \"#utility.yul\":5696:5705   */\n      dup3\n        /* \"#utility.yul\":5692:5710   */\n      add\n        /* \"#utility.yul\":5684:5710   */\n      swap1\n      pop\n        /* \"#utility.yul\":5720:5791   */\n      tag_235\n        /* \"#utility.yul\":5788:5789   */\n      0x00\n        /* \"#utility.yul\":5777:5786   */\n      dup4\n        /* \"#utility.yul\":5773:5790   */\n      add\n        /* \"#utility.yul\":5764:5770   */\n      dup5\n        /* \"#utility.yul\":5720:5791   */\n      tag_182\n      jump\t// in\n    tag_235:\n        /* \"#utility.yul\":5576:5798   */\n      swap3\n      swap2\n      pop\n      pop\n      jump\t// out\n        /* \"#utility.yul\":5804:6223   */\n    tag_97:\n        /* \"#utility.yul\":5970:5974   */\n      0x00\n        /* \"#utility.yul\":6008:6010   */\n      0x20\n        /* \"#utility.yul\":5997:6006   */\n      dup3\n        /* \"#utility.yul\":5993:6011   */\n      add\n        /* \"#utility.yul\":5985:6011   */\n      swap1\n      pop\n        /* \"#utility.yul\":6057:6066   */\n      dup2\n        /* \"#utility.yul\":6051:6055   */\n      dup2\n        /* \"#utility.yul\":6047:6067   */\n      sub\n        /* \"#utility.yul\":6043:6044   */\n      0x00\n        /* \"#utility.yul\":6032:6041   */\n      dup4\n        /* \"#utility.yul\":6028:6045   */\n      add\n        /* \"#utility.yul\":6021:6068   */\n      mstore\n        /* \"#utility.yul\":6085:6216   */\n      tag_237\n        /* \"#utility.yul\":6211:6215   */\n      dup2\n        /* \"#utility.yul\":6085:6216   */\n      tag_186\n      jump\t// in\n    tag_237:\n        /* \"#utility.yul\":6077:6216   */\n      swap1\n      pop\n        /* \"#utility.yul\":5804:6223   */\n      swap2\n      swap1\n      pop\n      jump\t// out\n        /* \"#utility.yul\":6229:6648   */\n    tag_149:\n        /* \"#utility.yul\":6395:6399   */\n      0x00\n        /* \"#utility.yul\":6433:6435   */\n      0x20\n        /* \"#utility.yul\":6422:6431   */\n      dup3\n        /* \"#utility.yul\":6418:6436   */\n      add\n        /* \"#utility.yul\":6410:6436   */\n      swap1\n      pop\n        /* \"#utility.yul\":6482:6491   */\n      dup2\n        /* \"#utility.yul\":6476:6480   */\n      dup2\n        /* \"#utility.yul\":6472:6492   */\n      sub\n        /* \"#utility.yul\":6468:6469   */\n      0x00\n        /* \"#utility.yul\":6457:6466   */\n      dup4\n        /* \"#utility.yul\":6453:6470   */\n      add\n        /* \"#utility.yul\":6446:6493   */\n      mstore\n        /* \"#utility.yul\":6510:6641   */\n      tag_239\n        /* \"#utility.yul\":6636:6640   */\n      dup2\n        /* \"#utility.yul\":6510:6641   */\n      tag_192\n      jump\t// in\n    tag_239:\n        /* \"#utility.yul\":6502:6641   */\n      swap1\n      pop\n        /* \"#utility.yul\":6229:6648   */\n      swap2\n      swap1\n      pop\n      jump\t// out\n        /* \"#utility.yul\":6654:7073   */\n    tag_141:\n        /* \"#utility.yul\":6820:6824   */\n      0x00\n        /* \"#utility.yul\":6858:6860   */\n      0x20\n        /* \"#utility.yul\":6847:6856   */\n      dup3\n        /* \"#utility.yul\":6843:6861   */\n      add\n        /* \"#utility.yul\":6835:6861   */\n      swap1\n      pop\n        /* \"#utility.yul\":6907:6916   */\n      dup2\n        /* \"#utility.yul\":6901:6905   */\n      dup2\n        /* \"#utility.yul\":6897:6917   */\n      sub\n        /* \"#utility.yul\":6893:6894   */\n      0x00\n        /* \"#utility.yul\":6882:6891   */\n      dup4\n        /* \"#utility.yul\":6878:6895   */\n      add\n        /* \"#utility.yul\":6871:6918   */\n      mstore\n        /* \"#utility.yul\":6935:7066   */\n      tag_241\n        /* \"#utility.yul\":7061:7065   */\n      dup2\n        /* \"#utility.yul\":6935:7066   */\n      tag_197\n      jump\t// in\n    tag_241:\n        /* \"#utility.yul\":6927:7066   */\n      swap1\n      pop\n        /* \"#utility.yul\":6654:7073   */\n      swap2\n      swap1\n      pop\n      jump\t// out\n        /* \"#utility.yul\":7079:7498   */\n    tag_125:\n        /* \"#utility.yul\":7245:7249   */\n      0x00\n        /* \"#utility.yul\":7283:7285   */\n      0x20\n        /* \"#utility.yul\":7272:7281   */\n      dup3\n        /* \"#utility.yul\":7268:7286   */\n      add\n        /* \"#utility.yul\":7260:7286   */\n      swap1\n      pop\n        /* \"#utility.yul\":7332:7341   */\n      dup2\n        /* \"#utility.yul\":7326:7330   */\n      dup2\n        /* \"#utility.yul\":7322:7342   */\n      sub\n        /* \"#utility.yul\":7318:7319   */\n      0x00\n        /* \"#utility.yul\":7307:7316   */\n      dup4\n        /* \"#utility.yul\":7303:7320   */\n      add\n        /* \"#utility.yul\":7296:7343   */\n      mstore\n        /* \"#utility.yul\":7360:7491   */\n      tag_243\n        /* \"#utility.yul\":7486:7490   */\n      dup2\n        /* \"#utility.yul\":7360:7491   */\n      tag_202\n      jump\t// in\n    tag_243:\n        /* \"#utility.yul\":7352:7491   */\n      swap1\n      pop\n        /* \"#utility.yul\":7079:7498   */\n      swap2\n      swap1\n      pop\n      jump\t// out\n        /* \"#utility.yul\":7504:7923   */\n    tag_132:\n        /* \"#utility.yul\":7670:7674   */\n      0x00\n        /* \"#utility.yul\":7708:7710   */\n      0x20\n        /* \"#utility.yul\":7697:7706   */\n      dup3\n        /* \"#utility.yul\":7693:7711   */\n      add\n        /* \"#utility.yul\":7685:7711   */\n      swap1\n      pop\n        /* \"#utility.yul\":7757:7766   */\n      dup2\n        /* \"#utility.yul\":7751:7755   */\n      dup2\n        /* \"#utility.yul\":7747:7767   */\n      sub\n        /* \"#utility.yul\":7743:7744   */\n      0x00\n        /* \"#utility.yul\":7732:7741   */\n      dup4\n        /* \"#utility.yul\":7728:7745   */\n      add\n        /* \"#utility.yul\":7721:7768   */\n      mstore\n        /* \"#utility.yul\":7785:7916   */\n      tag_245\n        /* \"#utility.yul\":7911:7915   */\n      dup2\n        /* \"#utility.yul\":7785:7916   */\n      tag_207\n      jump\t// in\n    tag_245:\n        /* \"#utility.yul\":7777:7916   */\n      swap1\n      pop\n        /* \"#utility.yul\":7504:7923   */\n      swap2\n      swap1\n      pop\n      jump\t// out\n        /* \"#utility.yul\":7929:8348   */\n    tag_102:\n        /* \"#utility.yul\":8095:8099   */\n      0x00\n        /* \"#utility.yul\":8133:8135   */\n      0x20\n        /* \"#utility.yul\":8122:8131   */\n      dup3\n        /* \"#utility.yul\":8118:8136   */\n      add\n        /* \"#utility.yul\":8110:8136   */\n      swap1\n      pop\n        /* \"#utility.yul\":8182:8191   */\n      dup2\n        /* \"#utility.yul\":8176:8180   */\n      dup2\n        /* \"#utility.yul\":8172:8192   */\n      sub\n        /* \"#utility.yul\":8168:8169   */\n      0x00\n        /* \"#utility.yul\":8157:8166   */\n      dup4\n        /* \"#utility.yul\":8153:8170   */\n      add\n        /* \"#utility.yul\":8146:8193   */\n      mstore\n        /* \"#utility.yul\":8210:8341   */\n      tag_247\n        /* \"#utility.yul\":8336:8340   */\n      dup2\n        /* \"#utility.yul\":8210:8341   */\n      tag_218\n      jump\t// in\n    tag_247:\n        /* \"#utility.yul\":8202:8341   */\n      swap1\n      pop\n        /* \"#utility.yul\":7929:8348   */\n      swap2\n      swap1\n      pop\n      jump\t// out\n        /* \"#utility.yul\":8354:8773   */\n    tag_137:\n        /* \"#utility.yul\":8520:8524   */\n      0x00\n        /* \"#utility.yul\":8558:8560   */\n      0x20\n        /* \"#utility.yul\":8547:8556   */\n      dup3\n        /* \"#utility.yul\":8543:8561   */\n      add\n        /* \"#utility.yul\":8535:8561   */\n      swap1\n      pop\n        /* \"#utility.yul\":8607:8616   */\n      dup2\n        /* \"#utility.yul\":8601:8605   */\n      dup2\n        /* \"#utility.yul\":8597:8617   */\n      sub\n        /* \"#utility.yul\":8593:8594   */\n      0x00\n        /* \"#utility.yul\":8582:8591   */\n      dup4\n        /* \"#utility.yul\":8578:8595   */\n      add\n        /* \"#utility.yul\":8571:8618   */\n      mstore\n        /* \"#utility.yul\":8635:8766   */\n      tag_249\n        /* \"#utility.yul\":8761:8765   */\n      dup2\n        /* \"#utility.yul\":8635:8766   */\n      tag_223\n      jump\t// in\n    tag_249:\n        /* \"#utility.yul\":8627:8766   */\n      swap1\n      pop\n        /* \"#utility.yul\":8354:8773   */\n      swap2\n      swap1\n      pop\n      jump\t// out\n        /* \"#utility.yul\":8779:9001   */\n    tag_91:\n        /* \"#utility.yul\":8872:8876   */\n      0x00\n        /* \"#utility.yul\":8910:8912   */\n      0x20\n        /* \"#utility.yul\":8899:8908   */\n      dup3\n        /* \"#utility.yul\":8895:8913   */\n      add\n        /* \"#utility.yul\":8887:8913   */\n      swap1\n      pop\n        /* \"#utility.yul\":8923:8994   */\n      tag_251\n        /* \"#utility.yul\":8991:8992   */\n      0x00\n        /* \"#utility.yul\":8980:8989   */\n      dup4\n        /* \"#utility.yul\":8976:8993   */\n      add\n        /* \"#utility.yul\":8967:8973   */\n      dup5\n        /* \"#utility.yul\":8923:8994   */\n      tag_228\n      jump\t// in\n    tag_251:\n        /* \"#utility.yul\":8779:9001   */\n      swap3\n      swap2\n      pop\n      pop\n      jump\t// out\n        /* \"#utility.yul\":9088:9235   */\n    tag_215:\n        /* \"#utility.yul\":9189:9200   */\n      0x00\n        /* \"#utility.yul\":9226:9229   */\n      dup2\n        /* \"#utility.yul\":9211:9229   */\n      swap1\n      pop\n        /* \"#utility.yul\":9088:9235   */\n      swap3\n      swap2\n      pop\n      pop\n      jump\t// out\n        /* \"#utility.yul\":9241:9410   */\n    tag_189:\n        /* \"#utility.yul\":9325:9336   */\n      0x00\n        /* \"#utility.yul\":9359:9365   */\n      dup3\n        /* \"#utility.yul\":9354:9357   */\n      dup3\n        /* \"#utility.yul\":9347:9366   */\n      mstore\n        /* \"#utility.yul\":9399:9403   */\n      0x20\n        /* \"#utility.yul\":9394:9397   */\n      dup3\n        /* \"#utility.yul\":9390:9404   */\n      add\n        /* \"#utility.yul\":9375:9404   */\n      swap1\n      pop\n        /* \"#utility.yul\":9241:9410   */\n      swap3\n      swap2\n      pop\n      pop\n      jump\t// out\n        /* \"#utility.yul\":9416:9601   */\n    tag_107:\n        /* \"#utility.yul\":9456:9457   */\n      0x00\n        /* \"#utility.yul\":9473:9493   */\n      tag_257\n        /* \"#utility.yul\":9491:9492   */\n      dup3\n        /* \"#utility.yul\":9473:9493   */\n      tag_231\n      jump\t// in\n    tag_257:\n        /* \"#utility.yul\":9468:9493   */\n      swap2\n      pop\n        /* \"#utility.yul\":9507:9527   */\n      tag_258\n        /* \"#utility.yul\":9525:9526   */\n      dup4\n        /* \"#utility.yul\":9507:9527   */\n      tag_231\n      jump\t// in\n    tag_258:\n        /* \"#utility.yul\":9502:9527   */\n      swap3\n      pop\n        /* \"#utility.yul\":9546:9547   */\n      dup3\n        /* \"#utility.yul\":9536:9571   */\n      tag_259\n      jumpi\n        /* \"#utility.yul\":9551:9569   */\n      tag_260\n      tag_261\n      jump\t// in\n    tag_260:\n        /* \"#utility.yul\":9536:9571   */\n    tag_259:\n        /* \"#utility.yul\":9593:9594   */\n      dup3\n        /* \"#utility.yul\":9590:9591   */\n      dup3\n        /* \"#utility.yul\":9586:9595   */\n      div\n        /* \"#utility.yul\":9581:9595   */\n      swap1\n      pop\n        /* \"#utility.yul\":9416:9601   */\n      swap3\n      swap2\n      pop\n      pop\n      jump\t// out\n        /* \"#utility.yul\":9607:9955   */\n    tag_105:\n        /* \"#utility.yul\":9647:9654   */\n      0x00\n        /* \"#utility.yul\":9670:9690   */\n      tag_263\n        /* \"#utility.yul\":9688:9689   */\n      dup3\n        /* \"#utility.yul\":9670:9690   */\n      tag_231\n      jump\t// in\n    tag_263:\n        /* \"#utility.yul\":9665:9690   */\n      swap2\n      pop\n        /* \"#utility.yul\":9704:9724   */\n      tag_264\n        /* \"#utility.yul\":9722:9723   */\n      dup4\n        /* \"#utility.yul\":9704:9724   */\n      tag_231\n      jump\t// in\n    tag_264:\n        /* \"#utility.yul\":9699:9724   */\n      swap3\n      pop\n        /* \"#utility.yul\":9892:9893   */\n      dup2\n        /* \"#utility.yul\":9824:9890   */\n      0xffffffffffffffffffffffffffffffffffffffffffffffffffffffffffffffff\n        /* \"#utility.yul\":9820:9894   */\n      div\n        /* \"#utility.yul\":9817:9818   */\n      dup4\n        /* \"#utility.yul\":9814:9895   */\n      gt\n        /* \"#utility.yul\":9809:9810   */\n      dup3\n        /* \"#utility.yul\":9802:9811   */\n      iszero\n        /* \"#utility.yul\":9795:9812   */\n      iszero\n        /* \"#utility.yul\":9791:9896   */\n      and\n        /* \"#utility.yul\":9788:9919   */\n      iszero\n      tag_265\n      jumpi\n        /* \"#utility.yul\":9899:9917   */\n      tag_266\n      tag_267\n      jump\t// in\n    tag_266:\n        /* \"#utility.yul\":9788:9919   */\n    tag_265:\n        /* \"#utility.yul\":9947:9948   */\n      dup3\n        /* \"#utility.yul\":9944:9945   */\n      dup3\n        /* \"#utility.yul\":9940:9949   */\n      mul\n        /* \"#utility.yul\":9929:9949   */\n      swap1\n      pop\n        /* \"#utility.yul\":9607:9955   */\n      swap3\n      swap2\n      pop\n      pop\n      jump\t// out\n        /* \"#utility.yul\":9961:10152   */\n    tag_109:\n        /* \"#utility.yul\":10001:10005   */\n      0x00\n        /* \"#utility.yul\":10021:10041   */\n      tag_269\n        /* \"#utility.yul\":10039:10040   */\n      dup3\n        /* \"#utility.yul\":10021:10041   */\n      tag_231\n      jump\t// in\n    tag_269:\n        /* \"#utility.yul\":10016:10041   */\n      swap2\n      pop\n        /* \"#utility.yul\":10055:10075   */\n      tag_270\n        /* \"#utility.yul\":10073:10074   */\n      dup4\n        /* \"#utility.yul\":10055:10075   */\n      tag_231\n      jump\t// in\n    tag_270:\n        /* \"#utility.yul\":10050:10075   */\n      swap3\n      pop\n        /* \"#utility.yul\":10094:10095   */\n      dup3\n        /* \"#utility.yul\":10091:10092   */\n      dup3\n        /* \"#utility.yul\":10088:10096   */\n      lt\n        /* \"#utility.yul\":10085:10119   */\n      iszero\n      tag_271\n      jumpi\n        /* \"#utility.yul\":10099:10117   */\n      tag_272\n      tag_267\n      jump\t// in\n    tag_272:\n        /* \"#utility.yul\":10085:10119   */\n    tag_271:\n        /* \"#utility.yul\":10144:10145   */\n      dup3\n        /* \"#utility.yul\":10141:10142   */\n      dup3\n        /* \"#utility.yul\":10137:10146   */\n      sub\n        /* \"#utility.yul\":10129:10146   */\n      swap1\n      pop\n        /* \"#utility.yul\":9961:10152   */\n      swap3\n      swap2\n      pop\n      pop\n      jump\t// out\n        /* \"#utility.yul\":10158:10254   */\n    tag_185:\n        /* \"#utility.yul\":10195:10202   */\n      0x00\n        /* \"#utility.yul\":10224:10248   */\n      tag_274\n        /* \"#utility.yul\":10242:10247   */\n      dup3\n        /* \"#utility.yul\":10224:10248   */\n      tag_275\n      jump\t// in\n    tag_274:\n        /* \"#utility.yul\":10213:10248   */\n      swap1\n      pop\n        /* \"#utility.yul\":10158:10254   */\n      swap2\n      swap1\n      pop\n      jump\t// out\n        /* \"#utility.yul\":10260:10364   */\n    tag_276:\n        /* \"#utility.yul\":10305:10312   */\n      0x00\n        /* \"#utility.yul\":10334:10358   */\n      tag_278\n        /* \"#utility.yul\":10352:10357   */\n      dup3\n        /* \"#utility.yul\":10334:10358   */\n      tag_275\n      jump\t// in\n    tag_278:\n        /* \"#utility.yul\":10323:10358   */\n      swap1\n      pop\n        /* \"#utility.yul\":10260:10364   */\n      swap2\n      swap1\n      pop\n      jump\t// out\n        /* \"#utility.yul\":10370:10460   */\n    tag_279:\n        /* \"#utility.yul\":10404:10411   */\n      0x00\n        /* \"#utility.yul\":10447:10452   */\n      dup2\n        /* \"#utility.yul\":10440:10453   */\n      iszero\n        /* \"#utility.yul\":10433:10454   */\n      iszero\n        /* \"#utility.yul\":10422:10454   */\n      swap1\n      pop\n        /* \"#utility.yul\":10370:10460   */\n      swap2\n      swap1\n      pop\n      jump\t// out\n        /* \"#utility.yul\":10466:10592   */\n    tag_275:\n        /* \"#utility.yul\":10503:10510   */\n      0x00\n        /* \"#utility.yul\":10543:10585   */\n      0xffffffffffffffffffffffffffffffffffffffff\n        /* \"#utility.yul\":10536:10541   */\n      dup3\n        /* \"#utility.yul\":10532:10586   */\n      and\n        /* \"#utility.yul\":10521:10586   */\n      swap1\n      pop\n        /* \"#utility.yul\":10466:10592   */\n      swap2\n      swap1\n      pop\n      jump\t// out\n        /* \"#utility.yul\":10598:10675   */\n    tag_231:\n        /* \"#utility.yul\":10635:10642   */\n      0x00\n        /* \"#utility.yul\":10664:10669   */\n      dup2\n        /* \"#utility.yul\":10653:10669   */\n      swap1\n      pop\n        /* \"#utility.yul\":10598:10675   */\n      swap2\n      swap1\n      pop\n      jump\t// out\n        /* \"#utility.yul\":10681:10861   */\n    tag_267:\n        /* \"#utility.yul\":10729:10806   */\n      0x4e487b7100000000000000000000000000000000000000000000000000000000\n        /* \"#utility.yul\":10726:10727   */\n      0x00\n        /* \"#utility.yul\":10719:10807   */\n      mstore\n        /* \"#utility.yul\":10826:10830   */\n      0x11\n        /* \"#utility.yul\":10823:10824   */\n      0x04\n        /* \"#utility.yul\":10816:10831   */\n      mstore\n        /* \"#utility.yul\":10850:10854   */\n      0x24\n        /* \"#utility.yul\":10847:10848   */\n      0x00\n        /* \"#utility.yul\":10840:10855   */\n      revert\n        /* \"#utility.yul\":10867:11047   */\n    tag_261:\n        /* \"#utility.yul\":10915:10992   */\n      0x4e487b7100000000000000000000000000000000000000000000000000000000\n        /* \"#utility.yul\":10912:10913   */\n      0x00\n        /* \"#utility.yul\":10905:10993   */\n      mstore\n        /* \"#utility.yul\":11012:11016   */\n      0x12\n        /* \"#utility.yul\":11009:11010   */\n      0x04\n        /* \"#utility.yul\":11002:11017   */\n      mstore\n        /* \"#utility.yul\":11036:11040   */\n      0x24\n        /* \"#utility.yul\":11033:11034   */\n      0x00\n        /* \"#utility.yul\":11026:11041   */\n      revert\n        /* \"#utility.yul\":11176:11293   */\n    tag_167:\n        /* \"#utility.yul\":11285:11286   */\n      0x00\n        /* \"#utility.yul\":11282:11283   */\n      dup1\n        /* \"#utility.yul\":11275:11287   */\n      revert\n        /* \"#utility.yul\":11299:11524   */\n    tag_191:\n        /* \"#utility.yul\":11439:11473   */\n      0x4f776e61626c653a206e6577206f776e657220697320746865207a65726f2061\n        /* \"#utility.yul\":11435:11436   */\n      0x00\n        /* \"#utility.yul\":11427:11433   */\n      dup3\n        /* \"#utility.yul\":11423:11437   */\n      add\n        /* \"#utility.yul\":11416:11474   */\n      mstore\n        /* \"#utility.yul\":11508:11516   */\n      0x6464726573730000000000000000000000000000000000000000000000000000\n        /* \"#utility.yul\":11503:11505   */\n      0x20\n        /* \"#utility.yul\":11495:11501   */\n      dup3\n        /* \"#utility.yul\":11491:11506   */\n      add\n        /* \"#utility.yul\":11484:11517   */\n      mstore\n        /* \"#utility.yul\":11299:11524   */\n      pop\n      jump\t// out\n        /* \"#utility.yul\":11530:11775   */\n    tag_196:\n        /* \"#utility.yul\":11670:11704   */\n      0x416464726573733a20756e61626c6520746f2073656e642076616c75652c2072\n        /* \"#utility.yul\":11666:11667   */\n      0x00\n        /* \"#utility.yul\":11658:11664   */\n      dup3\n        /* \"#utility.yul\":11654:11668   */\n      add\n        /* \"#utility.yul\":11647:11705   */\n      mstore\n        /* \"#utility.yul\":11739:11767   */\n      0x6563697069656e74206d61792068617665207265766572746564000000000000\n        /* \"#utility.yul\":11734:11736   */\n      0x20\n        /* \"#utility.yul\":11726:11732   */\n      dup3\n        /* \"#utility.yul\":11722:11737   */\n      add\n        /* \"#utility.yul\":11715:11768   */\n      mstore\n        /* \"#utility.yul\":11530:11775   */\n      pop\n      jump\t// out\n        /* \"#utility.yul\":11781:11960   */\n    tag_201:\n        /* \"#utility.yul\":11921:11952   */\n      0x416464726573733a20696e73756666696369656e742062616c616e6365000000\n        /* \"#utility.yul\":11917:11918   */\n      0x00\n        /* \"#utility.yul\":11909:11915   */\n      dup3\n        /* \"#utility.yul\":11905:11919   */\n      add\n        /* \"#utility.yul\":11898:11953   */\n      mstore\n        /* \"#utility.yul\":11781:11960   */\n      pop\n      jump\t// out\n        /* \"#utility.yul\":11966:12144   */\n    tag_206:\n        /* \"#utility.yul\":12106:12136   */\n      0x63616c6c6572206973206e6f742074686520636f6e74726163746f7200000000\n        /* \"#utility.yul\":12102:12103   */\n      0x00\n        /* \"#utility.yul\":12094:12100   */\n      dup3\n        /* \"#utility.yul\":12090:12104   */\n      add\n        /* \"#utility.yul\":12083:12137   */\n      mstore\n        /* \"#utility.yul\":11966:12144   */\n      pop\n      jump\t// out\n        /* \"#utility.yul\":12150:12332   */\n    tag_211:\n        /* \"#utility.yul\":12290:12324   */\n      0x4f776e61626c653a2063616c6c6572206973206e6f7420746865206f776e6572\n        /* \"#utility.yul\":12286:12287   */\n      0x00\n        /* \"#utility.yul\":12278:12284   */\n      dup3\n        /* \"#utility.yul\":12274:12288   */\n      add\n        /* \"#utility.yul\":12267:12325   */\n      mstore\n        /* \"#utility.yul\":12150:12332   */\n      pop\n      jump\t// out\n        /* \"#utility.yul\":12338:12452   */\n    tag_217:\n      pop\n      jump\t// out\n        /* \"#utility.yul\":12458:12631   */\n    tag_222:\n        /* \"#utility.yul\":12598:12623   */\n      0x63616c6c6572206973206e6f74207468652061646d696e000000000000000000\n        /* \"#utility.yul\":12594:12595   */\n      0x00\n        /* \"#utility.yul\":12586:12592   */\n      dup3\n        /* \"#utility.yul\":12582:12596   */\n      add\n        /* \"#utility.yul\":12575:12624   */\n      mstore\n        /* \"#utility.yul\":12458:12631   */\n      pop\n      jump\t// out\n        /* \"#utility.yul\":12637:12811   */\n    tag_227:\n        /* \"#utility.yul\":12777:12803   */\n      0x63616c6c6572206973206e6f742074686520636c69656e740000000000000000\n        /* \"#utility.yul\":12773:12774   */\n      0x00\n        /* \"#utility.yul\":12765:12771   */\n      dup3\n        /* \"#utility.yul\":12761:12775   */\n      add\n        /* \"#utility.yul\":12754:12804   */\n      mstore\n        /* \"#utility.yul\":12637:12811   */\n      pop\n      jump\t// out\n        /* \"#utility.yul\":12817:12939   */\n    tag_155:\n        /* \"#utility.yul\":12890:12914   */\n      tag_297\n        /* \"#utility.yul\":12908:12913   */\n      dup2\n        /* \"#utility.yul\":12890:12914   */\n      tag_185\n      jump\t// in\n    tag_297:\n        /* \"#utility.yul\":12883:12888   */\n      dup2\n        /* \"#utility.yul\":12880:12915   */\n      eq\n        /* \"#utility.yul\":12870:12933   */\n      tag_298\n      jumpi\n        /* \"#utility.yul\":12929:12930   */\n      0x00\n        /* \"#utility.yul\":12926:12927   */\n      dup1\n        /* \"#utility.yul\":12919:12931   */\n      revert\n        /* \"#utility.yul\":12870:12933   */\n    tag_298:\n        /* \"#utility.yul\":12817:12939   */\n      pop\n      jump\t// out\n        /* \"#utility.yul\":12945:13083   */\n    tag_159:\n        /* \"#utility.yul\":13026:13058   */\n      tag_300\n        /* \"#utility.yul\":13052:13057   */\n      dup2\n        /* \"#utility.yul\":13026:13058   */\n      tag_276\n      jump\t// in\n    tag_300:\n        /* \"#utility.yul\":13019:13024   */\n      dup2\n        /* \"#utility.yul\":13016:13059   */\n      eq\n        /* \"#utility.yul\":13006:13077   */\n      tag_301\n      jumpi\n        /* \"#utility.yul\":13073:13074   */\n      0x00\n        /* \"#utility.yul\":13070:13071   */\n      dup1\n        /* \"#utility.yul\":13063:13075   */\n      revert\n        /* \"#utility.yul\":13006:13077   */\n    tag_301:\n        /* \"#utility.yul\":12945:13083   */\n      pop\n      jump\t// out\n        /* \"#utility.yul\":13089:13205   */\n    tag_163:\n        /* \"#utility.yul\":13159:13180   */\n      tag_303\n        /* \"#utility.yul\":13174:13179   */\n      dup2\n        /* \"#utility.yul\":13159:13180   */\n      tag_279\n      jump\t// in\n    tag_303:\n        /* \"#utility.yul\":13152:13157   */\n      dup2\n        /* \"#utility.yul\":13149:13181   */\n      eq\n        /* \"#utility.yul\":13139:13199   */\n      tag_304\n      jumpi\n        /* \"#utility.yul\":13195:13196   */\n      0x00\n        /* \"#utility.yul\":13192:13193   */\n      dup1\n        /* \"#utility.yul\":13185:13197   */\n      revert\n        /* \"#utility.yul\":13139:13199   */\n    tag_304:\n        /* \"#utility.yul\":13089:13205   */\n      pop\n      jump\t// out\n\n    auxdata: 0xa26469706673582212202322780a9e1d64c039079ec060f33b872274a2a1b795a7e04fb2becec28ae76c64736f6c63430008070033\n}\n",
				"bytecode": {
					"linkReferences": {},
					"object": "608060405234801561001057600080fd5b5061002d61002261003260201b60201c565b61003a60201b60201c565b6100fe565b600033905090565b60008060009054906101000a900473ffffffffffffffffffffffffffffffffffffffff169050816000806101000a81548173ffffffffffffffffffffffffffffffffffffffff021916908373ffffffffffffffffffffffffffffffffffffffff1602179055508173ffffffffffffffffffffffffffffffffffffffff168173ffffffffffffffffffffffffffffffffffffffff167f8be0079c531659141344cd1fd0a4f28419497f9722a3daafe3b4186f6b6457e060405160405180910390a35050565b6112848061010d6000396000f3fe60806040526004361061009c5760003560e01c8063715018a611610064578063715018a614610170578063761768b6146101875780638da5cb5b146101b05780639464c8b8146101db578063d0e30db014610204578063f2fde38b1461020e5761009c565b806311571f30146100a1578063251d8cd5146100ca57806343928cfd146100f357806347d90b5c1461011c5780637048027514610147575b600080fd5b3480156100ad57600080fd5b506100c860048036038101906100c39190610c62565b610237565b005b3480156100d657600080fd5b506100f160048036038101906100ec9190610c35565b61027f565b005b3480156100ff57600080fd5b5061011a60048036038101906101159190610c08565b6102a4565b005b34801561012857600080fd5b5061013161032b565b60405161013e9190610ded565b60405180910390f35b34801561015357600080fd5b5061016e60048036038101906101699190610c08565b610343565b005b34801561017c57600080fd5b506101856103ca565b005b34801561019357600080fd5b506101ae60048036038101906101a99190610c08565b6103de565b005b3480156101bc57600080fd5b506101c561046d565b6040516101d29190610ded565b60405180910390f35b3480156101e757600080fd5b5061020260048036038101906101fd9190610c35565b610496565b005b61020c6104c3565b005b34801561021a57600080fd5b5061023560048036038101906102309190610bdb565b61050a565b005b61023f61058e565b81600560026101000a81548160ff02191690831515021790555080600560036101000a81548160ff02191690831515021790555061027b610620565b5050565b61028761083a565b80600560006101000a81548160ff02191690831515021790555050565b80600260006101000a81548173ffffffffffffffffffffffffffffffffffffffff021916908373ffffffffffffffffffffffffffffffffffffffff1602179055508073ffffffffffffffffffffffffffffffffffffffff167f6c713924da8f1e694559181e3497cb03c970f0f7c023d913207d0410b531741e60405160405180910390a250565b73ca35b7d915458ef540ade6068dfe2f44e8fa733c81565b80600360006101000a81548173ffffffffffffffffffffffffffffffffffffffff021916908373ffffffffffffffffffffffffffffffffffffffff1602179055508073ffffffffffffffffffffffffffffffffffffffff167f44d6d25963f097ad14f29f06854a01f575648a1ef82f30e562ccd3889717e33960405160405180910390a250565b6103d26108cc565b6103dc600061094a565b565b6103e66108cc565b80600160006101000a81548173ffffffffffffffffffffffffffffffffffffffff021916908373ffffffffffffffffffffffffffffffffffffffff1602179055508073ffffffffffffffffffffffffffffffffffffffff167f29dc23bcd72bfb02ec013f6350778cb6e5908dc02e5e1234385f27e32676b6e160405160405180910390a250565b60008060009054906101000a900473ffffffffffffffffffffffffffffffffffffffff16905090565b61049e610a0e565b80600560016101000a81548160ff0219169083151502179055506104c0610620565b50565b6104cb610a0e565b60003490507f2a89b2e3d580398d6dc2db5e0f336b52602bbaa51afa9bb5cdf59239cf0d2bea816040516104ff9190610ee8565b60405180910390a150565b6105126108cc565b600073ffffffffffffffffffffffffffffffffffffffff168173ffffffffffffffffffffffffffffffffffffffff161415610582576040517f08c379a000000000000000000000000000000000000000000000000000000000815260040161057990610e08565b60405180910390fd5b61058b8161094a565b50565b600360009054906101000a900473ffffffffffffffffffffffffffffffffffffffff1673ffffffffffffffffffffffffffffffffffffffff163373ffffffffffffffffffffffffffffffffffffffff161461061e576040517f08c379a000000000000000000000000000000000000000000000000000000000815260040161061590610ea8565b60405180910390fd5b565b60004790506000600a6002836106369190610f50565b6106409190610f1f565b9050808261064e9190610faa565b915060011515600560009054906101000a900460ff161515148015610686575060011515600560019054906101000a900460ff161515145b806106c3575060011515600560029054906101000a900460ff1615151480156106c2575060011515600560039054906101000a900460ff161515145b5b156107635761071382600160009054906101000a900473ffffffffffffffffffffffffffffffffffffffff1673ffffffffffffffffffffffffffffffffffffffff16610aa090919063ffffffff16565b61075e81600360009054906101000a900473ffffffffffffffffffffffffffffffffffffffff1673ffffffffffffffffffffffffffffffffffffffff16610aa090919063ffffffff16565b610836565b60011515600560029054906101000a900460ff161515148015610799575060001515600560039054906101000a900460ff161515145b15610835576107e982600260009054906101000a900473ffffffffffffffffffffffffffffffffffffffff1673ffffffffffffffffffffffffffffffffffffffff16610aa090919063ffffffff16565b61083481600360009054906101000a900473ffffffffffffffffffffffffffffffffffffffff1673ffffffffffffffffffffffffffffffffffffffff16610aa090919063ffffffff16565b5b5b5050565b600160009054906101000a900473ffffffffffffffffffffffffffffffffffffffff1673ffffffffffffffffffffffffffffffffffffffff163373ffffffffffffffffffffffffffffffffffffffff16146108ca576040517f08c379a00000000000000000000000000000000000000000000000000000000081526004016108c190610e68565b60405180910390fd5b565b6108d4610b94565b73ffffffffffffffffffffffffffffffffffffffff166108f261046d565b73ffffffffffffffffffffffffffffffffffffffff1614610948576040517f08c379a000000000000000000000000000000000000000000000000000000000815260040161093f90610e88565b60405180910390fd5b565b60008060009054906101000a900473ffffffffffffffffffffffffffffffffffffffff169050816000806101000a81548173ffffffffffffffffffffffffffffffffffffffff021916908373ffffffffffffffffffffffffffffffffffffffff1602179055508173ffffffffffffffffffffffffffffffffffffffff168173ffffffffffffffffffffffffffffffffffffffff167f8be0079c531659141344cd1fd0a4f28419497f9722a3daafe3b4186f6b6457e060405160405180910390a35050565b600260009054906101000a900473ffffffffffffffffffffffffffffffffffffffff1673ffffffffffffffffffffffffffffffffffffffff163373ffffffffffffffffffffffffffffffffffffffff1614610a9e576040517f08c379a0000000000000000000000000000000000000000000000000000000008152600401610a9590610ec8565b60405180910390fd5b565b80471015610ae3576040517f08c379a0000000000000000000000000000000000000000000000000000000008152600401610ada90610e48565b60405180910390fd5b60008273ffffffffffffffffffffffffffffffffffffffff1682604051610b0990610dd8565b60006040518083038185875af1925050503d8060008114610b46576040519150601f19603f3d011682016040523d82523d6000602084013e610b4b565b606091505b5050905080610b8f576040517f08c379a0000000000000000000000000000000000000000000000000000000008152600401610b8690610e28565b60405180910390fd5b505050565b600033905090565b600081359050610bab81611209565b92915050565b600081359050610bc081611220565b92915050565b600081359050610bd581611237565b92915050565b600060208284031215610bf157610bf0611096565b5b6000610bff84828501610b9c565b91505092915050565b600060208284031215610c1e57610c1d611096565b5b6000610c2c84828501610bb1565b91505092915050565b600060208284031215610c4b57610c4a611096565b5b6000610c5984828501610bc6565b91505092915050565b60008060408385031215610c7957610c78611096565b5b6000610c8785828601610bc6565b9250506020610c9885828601610bc6565b9150509250929050565b610cab81610fde565b82525050565b6000610cbe602683610f0e565b9150610cc98261109b565b604082019050919050565b6000610ce1603a83610f0e565b9150610cec826110ea565b604082019050919050565b6000610d04601d83610f0e565b9150610d0f82611139565b602082019050919050565b6000610d27601c83610f0e565b9150610d3282611162565b602082019050919050565b6000610d4a602083610f0e565b9150610d558261118b565b602082019050919050565b6000610d6d600083610f03565b9150610d78826111b4565b600082019050919050565b6000610d90601783610f0e565b9150610d9b826111b7565b602082019050919050565b6000610db3601883610f0e565b9150610dbe826111e0565b602082019050919050565b610dd28161102e565b82525050565b6000610de382610d60565b9150819050919050565b6000602082019050610e026000830184610ca2565b92915050565b60006020820190508181036000830152610e2181610cb1565b9050919050565b60006020820190508181036000830152610e4181610cd4565b9050919050565b60006020820190508181036000830152610e6181610cf7565b9050919050565b60006020820190508181036000830152610e8181610d1a565b9050919050565b60006020820190508181036000830152610ea181610d3d565b9050919050565b60006020820190508181036000830152610ec181610d83565b9050919050565b60006020820190508181036000830152610ee181610da6565b9050919050565b6000602082019050610efd6000830184610dc9565b92915050565b600081905092915050565b600082825260208201905092915050565b6000610f2a8261102e565b9150610f358361102e565b925082610f4557610f44611067565b5b828204905092915050565b6000610f5b8261102e565b9150610f668361102e565b9250817fffffffffffffffffffffffffffffffffffffffffffffffffffffffffffffffff0483118215151615610f9f57610f9e611038565b5b828202905092915050565b6000610fb58261102e565b9150610fc08361102e565b925082821015610fd357610fd2611038565b5b828203905092915050565b6000610fe98261100e565b9050919050565b6000610ffb8261100e565b9050919050565b60008115159050919050565b600073ffffffffffffffffffffffffffffffffffffffff82169050919050565b6000819050919050565b7f4e487b7100000000000000000000000000000000000000000000000000000000600052601160045260246000fd5b7f4e487b7100000000000000000000000000000000000000000000000000000000600052601260045260246000fd5b600080fd5b7f4f776e61626c653a206e6577206f776e657220697320746865207a65726f206160008201527f6464726573730000000000000000000000000000000000000000000000000000602082015250565b7f416464726573733a20756e61626c6520746f2073656e642076616c75652c207260008201527f6563697069656e74206d61792068617665207265766572746564000000000000602082015250565b7f416464726573733a20696e73756666696369656e742062616c616e6365000000600082015250565b7f63616c6c6572206973206e6f742074686520636f6e74726163746f7200000000600082015250565b7f4f776e61626c653a2063616c6c6572206973206e6f7420746865206f776e6572600082015250565b50565b7f63616c6c6572206973206e6f74207468652061646d696e000000000000000000600082015250565b7f63616c6c6572206973206e6f742074686520636c69656e740000000000000000600082015250565b61121281610fde565b811461121d57600080fd5b50565b61122981610ff0565b811461123457600080fd5b50565b61124081611002565b811461124b57600080fd5b5056fea26469706673582212202322780a9e1d64c039079ec060f33b872274a2a1b795a7e04fb2becec28ae76c64736f6c63430008070033",
					"opcodes": "PUSH1 0x80 PUSH1 0x40 MSTORE CALLVALUE DUP1 ISZERO PUSH2 0x10 JUMPI PUSH1 0x0 DUP1 REVERT JUMPDEST POP PUSH2 0x2D PUSH2 0x22 PUSH2 0x32 PUSH1 0x20 SHL PUSH1 0x20 SHR JUMP JUMPDEST PUSH2 0x3A PUSH1 0x20 SHL PUSH1 0x20 SHR JUMP JUMPDEST PUSH2 0xFE JUMP JUMPDEST PUSH1 0x0 CALLER SWAP1 POP SWAP1 JUMP JUMPDEST PUSH1 0x0 DUP1 PUSH1 0x0 SWAP1 SLOAD SWAP1 PUSH2 0x100 EXP SWAP1 DIV PUSH20 0xFFFFFFFFFFFFFFFFFFFFFFFFFFFFFFFFFFFFFFFF AND SWAP1 POP DUP2 PUSH1 0x0 DUP1 PUSH2 0x100 EXP DUP2 SLOAD DUP2 PUSH20 0xFFFFFFFFFFFFFFFFFFFFFFFFFFFFFFFFFFFFFFFF MUL NOT AND SWAP1 DUP4 PUSH20 0xFFFFFFFFFFFFFFFFFFFFFFFFFFFFFFFFFFFFFFFF AND MUL OR SWAP1 SSTORE POP DUP2 PUSH20 0xFFFFFFFFFFFFFFFFFFFFFFFFFFFFFFFFFFFFFFFF AND DUP2 PUSH20 0xFFFFFFFFFFFFFFFFFFFFFFFFFFFFFFFFFFFFFFFF AND PUSH32 0x8BE0079C531659141344CD1FD0A4F28419497F9722A3DAAFE3B4186F6B6457E0 PUSH1 0x40 MLOAD PUSH1 0x40 MLOAD DUP1 SWAP2 SUB SWAP1 LOG3 POP POP JUMP JUMPDEST PUSH2 0x1284 DUP1 PUSH2 0x10D PUSH1 0x0 CODECOPY PUSH1 0x0 RETURN INVALID PUSH1 0x80 PUSH1 0x40 MSTORE PUSH1 0x4 CALLDATASIZE LT PUSH2 0x9C JUMPI PUSH1 0x0 CALLDATALOAD PUSH1 0xE0 SHR DUP1 PUSH4 0x715018A6 GT PUSH2 0x64 JUMPI DUP1 PUSH4 0x715018A6 EQ PUSH2 0x170 JUMPI DUP1 PUSH4 0x761768B6 EQ PUSH2 0x187 JUMPI DUP1 PUSH4 0x8DA5CB5B EQ PUSH2 0x1B0 JUMPI DUP1 PUSH4 0x9464C8B8 EQ PUSH2 0x1DB JUMPI DUP1 PUSH4 0xD0E30DB0 EQ PUSH2 0x204 JUMPI DUP1 PUSH4 0xF2FDE38B EQ PUSH2 0x20E JUMPI PUSH2 0x9C JUMP JUMPDEST DUP1 PUSH4 0x11571F30 EQ PUSH2 0xA1 JUMPI DUP1 PUSH4 0x251D8CD5 EQ PUSH2 0xCA JUMPI DUP1 PUSH4 0x43928CFD EQ PUSH2 0xF3 JUMPI DUP1 PUSH4 0x47D90B5C EQ PUSH2 0x11C JUMPI DUP1 PUSH4 0x70480275 EQ PUSH2 0x147 JUMPI JUMPDEST PUSH1 0x0 DUP1 REVERT JUMPDEST CALLVALUE DUP1 ISZERO PUSH2 0xAD JUMPI PUSH1 0x0 DUP1 REVERT JUMPDEST POP PUSH2 0xC8 PUSH1 0x4 DUP1 CALLDATASIZE SUB DUP2 ADD SWAP1 PUSH2 0xC3 SWAP2 SWAP1 PUSH2 0xC62 JUMP JUMPDEST PUSH2 0x237 JUMP JUMPDEST STOP JUMPDEST CALLVALUE DUP1 ISZERO PUSH2 0xD6 JUMPI PUSH1 0x0 DUP1 REVERT JUMPDEST POP PUSH2 0xF1 PUSH1 0x4 DUP1 CALLDATASIZE SUB DUP2 ADD SWAP1 PUSH2 0xEC SWAP2 SWAP1 PUSH2 0xC35 JUMP JUMPDEST PUSH2 0x27F JUMP JUMPDEST STOP JUMPDEST CALLVALUE DUP1 ISZERO PUSH2 0xFF JUMPI PUSH1 0x0 DUP1 REVERT JUMPDEST POP PUSH2 0x11A PUSH1 0x4 DUP1 CALLDATASIZE SUB DUP2 ADD SWAP1 PUSH2 0x115 SWAP2 SWAP1 PUSH2 0xC08 JUMP JUMPDEST PUSH2 0x2A4 JUMP JUMPDEST STOP JUMPDEST CALLVALUE DUP1 ISZERO PUSH2 0x128 JUMPI PUSH1 0x0 DUP1 REVERT JUMPDEST POP PUSH2 0x131 PUSH2 0x32B JUMP JUMPDEST PUSH1 0x40 MLOAD PUSH2 0x13E SWAP2 SWAP1 PUSH2 0xDED JUMP JUMPDEST PUSH1 0x40 MLOAD DUP1 SWAP2 SUB SWAP1 RETURN JUMPDEST CALLVALUE DUP1 ISZERO PUSH2 0x153 JUMPI PUSH1 0x0 DUP1 REVERT JUMPDEST POP PUSH2 0x16E PUSH1 0x4 DUP1 CALLDATASIZE SUB DUP2 ADD SWAP1 PUSH2 0x169 SWAP2 SWAP1 PUSH2 0xC08 JUMP JUMPDEST PUSH2 0x343 JUMP JUMPDEST STOP JUMPDEST CALLVALUE DUP1 ISZERO PUSH2 0x17C JUMPI PUSH1 0x0 DUP1 REVERT JUMPDEST POP PUSH2 0x185 PUSH2 0x3CA JUMP JUMPDEST STOP JUMPDEST CALLVALUE DUP1 ISZERO PUSH2 0x193 JUMPI PUSH1 0x0 DUP1 REVERT JUMPDEST POP PUSH2 0x1AE PUSH1 0x4 DUP1 CALLDATASIZE SUB DUP2 ADD SWAP1 PUSH2 0x1A9 SWAP2 SWAP1 PUSH2 0xC08 JUMP JUMPDEST PUSH2 0x3DE JUMP JUMPDEST STOP JUMPDEST CALLVALUE DUP1 ISZERO PUSH2 0x1BC JUMPI PUSH1 0x0 DUP1 REVERT JUMPDEST POP PUSH2 0x1C5 PUSH2 0x46D JUMP JUMPDEST PUSH1 0x40 MLOAD PUSH2 0x1D2 SWAP2 SWAP1 PUSH2 0xDED JUMP JUMPDEST PUSH1 0x40 MLOAD DUP1 SWAP2 SUB SWAP1 RETURN JUMPDEST CALLVALUE DUP1 ISZERO PUSH2 0x1E7 JUMPI PUSH1 0x0 DUP1 REVERT JUMPDEST POP PUSH2 0x202 PUSH1 0x4 DUP1 CALLDATASIZE SUB DUP2 ADD SWAP1 PUSH2 0x1FD SWAP2 SWAP1 PUSH2 0xC35 JUMP JUMPDEST PUSH2 0x496 JUMP JUMPDEST STOP JUMPDEST PUSH2 0x20C PUSH2 0x4C3 JUMP JUMPDEST STOP JUMPDEST CALLVALUE DUP1 ISZERO PUSH2 0x21A JUMPI PUSH1 0x0 DUP1 REVERT JUMPDEST POP PUSH2 0x235 PUSH1 0x4 DUP1 CALLDATASIZE SUB DUP2 ADD SWAP1 PUSH2 0x230 SWAP2 SWAP1 PUSH2 0xBDB JUMP JUMPDEST PUSH2 0x50A JUMP JUMPDEST STOP JUMPDEST PUSH2 0x23F PUSH2 0x58E JUMP JUMPDEST DUP2 PUSH1 0x5 PUSH1 0x2 PUSH2 0x100 EXP DUP2 SLOAD DUP2 PUSH1 0xFF MUL NOT AND SWAP1 DUP4 ISZERO ISZERO MUL OR SWAP1 SSTORE POP DUP1 PUSH1 0x5 PUSH1 0x3 PUSH2 0x100 EXP DUP2 SLOAD DUP2 PUSH1 0xFF MUL NOT AND SWAP1 DUP4 ISZERO ISZERO MUL OR SWAP1 SSTORE POP PUSH2 0x27B PUSH2 0x620 JUMP JUMPDEST POP POP JUMP JUMPDEST PUSH2 0x287 PUSH2 0x83A JUMP JUMPDEST DUP1 PUSH1 0x5 PUSH1 0x0 PUSH2 0x100 EXP DUP2 SLOAD DUP2 PUSH1 0xFF MUL NOT AND SWAP1 DUP4 ISZERO ISZERO MUL OR SWAP1 SSTORE POP POP JUMP JUMPDEST DUP1 PUSH1 0x2 PUSH1 0x0 PUSH2 0x100 EXP DUP2 SLOAD DUP2 PUSH20 0xFFFFFFFFFFFFFFFFFFFFFFFFFFFFFFFFFFFFFFFF MUL NOT AND SWAP1 DUP4 PUSH20 0xFFFFFFFFFFFFFFFFFFFFFFFFFFFFFFFFFFFFFFFF AND MUL OR SWAP1 SSTORE POP DUP1 PUSH20 0xFFFFFFFFFFFFFFFFFFFFFFFFFFFFFFFFFFFFFFFF AND PUSH32 0x6C713924DA8F1E694559181E3497CB03C970F0F7C023D913207D0410B531741E PUSH1 0x40 MLOAD PUSH1 0x40 MLOAD DUP1 SWAP2 SUB SWAP1 LOG2 POP JUMP JUMPDEST PUSH20 0xCA35B7D915458EF540ADE6068DFE2F44E8FA733C DUP2 JUMP JUMPDEST DUP1 PUSH1 0x3 PUSH1 0x0 PUSH2 0x100 EXP DUP2 SLOAD DUP2 PUSH20 0xFFFFFFFFFFFFFFFFFFFFFFFFFFFFFFFFFFFFFFFF MUL NOT AND SWAP1 DUP4 PUSH20 0xFFFFFFFFFFFFFFFFFFFFFFFFFFFFFFFFFFFFFFFF AND MUL OR SWAP1 SSTORE POP DUP1 PUSH20 0xFFFFFFFFFFFFFFFFFFFFFFFFFFFFFFFFFFFFFFFF AND PUSH32 0x44D6D25963F097AD14F29F06854A01F575648A1EF82F30E562CCD3889717E339 PUSH1 0x40 MLOAD PUSH1 0x40 MLOAD DUP1 SWAP2 SUB SWAP1 LOG2 POP JUMP JUMPDEST PUSH2 0x3D2 PUSH2 0x8CC JUMP JUMPDEST PUSH2 0x3DC PUSH1 0x0 PUSH2 0x94A JUMP JUMPDEST JUMP JUMPDEST PUSH2 0x3E6 PUSH2 0x8CC JUMP JUMPDEST DUP1 PUSH1 0x1 PUSH1 0x0 PUSH2 0x100 EXP DUP2 SLOAD DUP2 PUSH20 0xFFFFFFFFFFFFFFFFFFFFFFFFFFFFFFFFFFFFFFFF MUL NOT AND SWAP1 DUP4 PUSH20 0xFFFFFFFFFFFFFFFFFFFFFFFFFFFFFFFFFFFFFFFF AND MUL OR SWAP1 SSTORE POP DUP1 PUSH20 0xFFFFFFFFFFFFFFFFFFFFFFFFFFFFFFFFFFFFFFFF AND PUSH32 0x29DC23BCD72BFB02EC013F6350778CB6E5908DC02E5E1234385F27E32676B6E1 PUSH1 0x40 MLOAD PUSH1 0x40 MLOAD DUP1 SWAP2 SUB SWAP1 LOG2 POP JUMP JUMPDEST PUSH1 0x0 DUP1 PUSH1 0x0 SWAP1 SLOAD SWAP1 PUSH2 0x100 EXP SWAP1 DIV PUSH20 0xFFFFFFFFFFFFFFFFFFFFFFFFFFFFFFFFFFFFFFFF AND SWAP1 POP SWAP1 JUMP JUMPDEST PUSH2 0x49E PUSH2 0xA0E JUMP JUMPDEST DUP1 PUSH1 0x5 PUSH1 0x1 PUSH2 0x100 EXP DUP2 SLOAD DUP2 PUSH1 0xFF MUL NOT AND SWAP1 DUP4 ISZERO ISZERO MUL OR SWAP1 SSTORE POP PUSH2 0x4C0 PUSH2 0x620 JUMP JUMPDEST POP JUMP JUMPDEST PUSH2 0x4CB PUSH2 0xA0E JUMP JUMPDEST PUSH1 0x0 CALLVALUE SWAP1 POP PUSH32 0x2A89B2E3D580398D6DC2DB5E0F336B52602BBAA51AFA9BB5CDF59239CF0D2BEA DUP2 PUSH1 0x40 MLOAD PUSH2 0x4FF SWAP2 SWAP1 PUSH2 0xEE8 JUMP JUMPDEST PUSH1 0x40 MLOAD DUP1 SWAP2 SUB SWAP1 LOG1 POP JUMP JUMPDEST PUSH2 0x512 PUSH2 0x8CC JUMP JUMPDEST PUSH1 0x0 PUSH20 0xFFFFFFFFFFFFFFFFFFFFFFFFFFFFFFFFFFFFFFFF AND DUP2 PUSH20 0xFFFFFFFFFFFFFFFFFFFFFFFFFFFFFFFFFFFFFFFF AND EQ ISZERO PUSH2 0x582 JUMPI PUSH1 0x40 MLOAD PUSH32 0x8C379A000000000000000000000000000000000000000000000000000000000 DUP2 MSTORE PUSH1 0x4 ADD PUSH2 0x579 SWAP1 PUSH2 0xE08 JUMP JUMPDEST PUSH1 0x40 MLOAD DUP1 SWAP2 SUB SWAP1 REVERT JUMPDEST PUSH2 0x58B DUP2 PUSH2 0x94A JUMP JUMPDEST POP JUMP JUMPDEST PUSH1 0x3 PUSH1 0x0 SWAP1 SLOAD SWAP1 PUSH2 0x100 EXP SWAP1 DIV PUSH20 0xFFFFFFFFFFFFFFFFFFFFFFFFFFFFFFFFFFFFFFFF AND PUSH20 0xFFFFFFFFFFFFFFFFFFFFFFFFFFFFFFFFFFFFFFFF AND CALLER PUSH20 0xFFFFFFFFFFFFFFFFFFFFFFFFFFFFFFFFFFFFFFFF AND EQ PUSH2 0x61E JUMPI PUSH1 0x40 MLOAD PUSH32 0x8C379A000000000000000000000000000000000000000000000000000000000 DUP2 MSTORE PUSH1 0x4 ADD PUSH2 0x615 SWAP1 PUSH2 0xEA8 JUMP JUMPDEST PUSH1 0x40 MLOAD DUP1 SWAP2 SUB SWAP1 REVERT JUMPDEST JUMP JUMPDEST PUSH1 0x0 SELFBALANCE SWAP1 POP PUSH1 0x0 PUSH1 0xA PUSH1 0x2 DUP4 PUSH2 0x636 SWAP2 SWAP1 PUSH2 0xF50 JUMP JUMPDEST PUSH2 0x640 SWAP2 SWAP1 PUSH2 0xF1F JUMP JUMPDEST SWAP1 POP DUP1 DUP3 PUSH2 0x64E SWAP2 SWAP1 PUSH2 0xFAA JUMP JUMPDEST SWAP2 POP PUSH1 0x1 ISZERO ISZERO PUSH1 0x5 PUSH1 0x0 SWAP1 SLOAD SWAP1 PUSH2 0x100 EXP SWAP1 DIV PUSH1 0xFF AND ISZERO ISZERO EQ DUP1 ISZERO PUSH2 0x686 JUMPI POP PUSH1 0x1 ISZERO ISZERO PUSH1 0x5 PUSH1 0x1 SWAP1 SLOAD SWAP1 PUSH2 0x100 EXP SWAP1 DIV PUSH1 0xFF AND ISZERO ISZERO EQ JUMPDEST DUP1 PUSH2 0x6C3 JUMPI POP PUSH1 0x1 ISZERO ISZERO PUSH1 0x5 PUSH1 0x2 SWAP1 SLOAD SWAP1 PUSH2 0x100 EXP SWAP1 DIV PUSH1 0xFF AND ISZERO ISZERO EQ DUP1 ISZERO PUSH2 0x6C2 JUMPI POP PUSH1 0x1 ISZERO ISZERO PUSH1 0x5 PUSH1 0x3 SWAP1 SLOAD SWAP1 PUSH2 0x100 EXP SWAP1 DIV PUSH1 0xFF AND ISZERO ISZERO EQ JUMPDEST JUMPDEST ISZERO PUSH2 0x763 JUMPI PUSH2 0x713 DUP3 PUSH1 0x1 PUSH1 0x0 SWAP1 SLOAD SWAP1 PUSH2 0x100 EXP SWAP1 DIV PUSH20 0xFFFFFFFFFFFFFFFFFFFFFFFFFFFFFFFFFFFFFFFF AND PUSH20 0xFFFFFFFFFFFFFFFFFFFFFFFFFFFFFFFFFFFFFFFF AND PUSH2 0xAA0 SWAP1 SWAP2 SWAP1 PUSH4 0xFFFFFFFF AND JUMP JUMPDEST PUSH2 0x75E DUP2 PUSH1 0x3 PUSH1 0x0 SWAP1 SLOAD SWAP1 PUSH2 0x100 EXP SWAP1 DIV PUSH20 0xFFFFFFFFFFFFFFFFFFFFFFFFFFFFFFFFFFFFFFFF AND PUSH20 0xFFFFFFFFFFFFFFFFFFFFFFFFFFFFFFFFFFFFFFFF AND PUSH2 0xAA0 SWAP1 SWAP2 SWAP1 PUSH4 0xFFFFFFFF AND JUMP JUMPDEST PUSH2 0x836 JUMP JUMPDEST PUSH1 0x1 ISZERO ISZERO PUSH1 0x5 PUSH1 0x2 SWAP1 SLOAD SWAP1 PUSH2 0x100 EXP SWAP1 DIV PUSH1 0xFF AND ISZERO ISZERO EQ DUP1 ISZERO PUSH2 0x799 JUMPI POP PUSH1 0x0 ISZERO ISZERO PUSH1 0x5 PUSH1 0x3 SWAP1 SLOAD SWAP1 PUSH2 0x100 EXP SWAP1 DIV PUSH1 0xFF AND ISZERO ISZERO EQ JUMPDEST ISZERO PUSH2 0x835 JUMPI PUSH2 0x7E9 DUP3 PUSH1 0x2 PUSH1 0x0 SWAP1 SLOAD SWAP1 PUSH2 0x100 EXP SWAP1 DIV PUSH20 0xFFFFFFFFFFFFFFFFFFFFFFFFFFFFFFFFFFFFFFFF AND PUSH20 0xFFFFFFFFFFFFFFFFFFFFFFFFFFFFFFFFFFFFFFFF AND PUSH2 0xAA0 SWAP1 SWAP2 SWAP1 PUSH4 0xFFFFFFFF AND JUMP JUMPDEST PUSH2 0x834 DUP2 PUSH1 0x3 PUSH1 0x0 SWAP1 SLOAD SWAP1 PUSH2 0x100 EXP SWAP1 DIV PUSH20 0xFFFFFFFFFFFFFFFFFFFFFFFFFFFFFFFFFFFFFFFF AND PUSH20 0xFFFFFFFFFFFFFFFFFFFFFFFFFFFFFFFFFFFFFFFF AND PUSH2 0xAA0 SWAP1 SWAP2 SWAP1 PUSH4 0xFFFFFFFF AND JUMP JUMPDEST JUMPDEST JUMPDEST POP POP JUMP JUMPDEST PUSH1 0x1 PUSH1 0x0 SWAP1 SLOAD SWAP1 PUSH2 0x100 EXP SWAP1 DIV PUSH20 0xFFFFFFFFFFFFFFFFFFFFFFFFFFFFFFFFFFFFFFFF AND PUSH20 0xFFFFFFFFFFFFFFFFFFFFFFFFFFFFFFFFFFFFFFFF AND CALLER PUSH20 0xFFFFFFFFFFFFFFFFFFFFFFFFFFFFFFFFFFFFFFFF AND EQ PUSH2 0x8CA JUMPI PUSH1 0x40 MLOAD PUSH32 0x8C379A000000000000000000000000000000000000000000000000000000000 DUP2 MSTORE PUSH1 0x4 ADD PUSH2 0x8C1 SWAP1 PUSH2 0xE68 JUMP JUMPDEST PUSH1 0x40 MLOAD DUP1 SWAP2 SUB SWAP1 REVERT JUMPDEST JUMP JUMPDEST PUSH2 0x8D4 PUSH2 0xB94 JUMP JUMPDEST PUSH20 0xFFFFFFFFFFFFFFFFFFFFFFFFFFFFFFFFFFFFFFFF AND PUSH2 0x8F2 PUSH2 0x46D JUMP JUMPDEST PUSH20 0xFFFFFFFFFFFFFFFFFFFFFFFFFFFFFFFFFFFFFFFF AND EQ PUSH2 0x948 JUMPI PUSH1 0x40 MLOAD PUSH32 0x8C379A000000000000000000000000000000000000000000000000000000000 DUP2 MSTORE PUSH1 0x4 ADD PUSH2 0x93F SWAP1 PUSH2 0xE88 JUMP JUMPDEST PUSH1 0x40 MLOAD DUP1 SWAP2 SUB SWAP1 REVERT JUMPDEST JUMP JUMPDEST PUSH1 0x0 DUP1 PUSH1 0x0 SWAP1 SLOAD SWAP1 PUSH2 0x100 EXP SWAP1 DIV PUSH20 0xFFFFFFFFFFFFFFFFFFFFFFFFFFFFFFFFFFFFFFFF AND SWAP1 POP DUP2 PUSH1 0x0 DUP1 PUSH2 0x100 EXP DUP2 SLOAD DUP2 PUSH20 0xFFFFFFFFFFFFFFFFFFFFFFFFFFFFFFFFFFFFFFFF MUL NOT AND SWAP1 DUP4 PUSH20 0xFFFFFFFFFFFFFFFFFFFFFFFFFFFFFFFFFFFFFFFF AND MUL OR SWAP1 SSTORE POP DUP2 PUSH20 0xFFFFFFFFFFFFFFFFFFFFFFFFFFFFFFFFFFFFFFFF AND DUP2 PUSH20 0xFFFFFFFFFFFFFFFFFFFFFFFFFFFFFFFFFFFFFFFF AND PUSH32 0x8BE0079C531659141344CD1FD0A4F28419497F9722A3DAAFE3B4186F6B6457E0 PUSH1 0x40 MLOAD PUSH1 0x40 MLOAD DUP1 SWAP2 SUB SWAP1 LOG3 POP POP JUMP JUMPDEST PUSH1 0x2 PUSH1 0x0 SWAP1 SLOAD SWAP1 PUSH2 0x100 EXP SWAP1 DIV PUSH20 0xFFFFFFFFFFFFFFFFFFFFFFFFFFFFFFFFFFFFFFFF AND PUSH20 0xFFFFFFFFFFFFFFFFFFFFFFFFFFFFFFFFFFFFFFFF AND CALLER PUSH20 0xFFFFFFFFFFFFFFFFFFFFFFFFFFFFFFFFFFFFFFFF AND EQ PUSH2 0xA9E JUMPI PUSH1 0x40 MLOAD PUSH32 0x8C379A000000000000000000000000000000000000000000000000000000000 DUP2 MSTORE PUSH1 0x4 ADD PUSH2 0xA95 SWAP1 PUSH2 0xEC8 JUMP JUMPDEST PUSH1 0x40 MLOAD DUP1 SWAP2 SUB SWAP1 REVERT JUMPDEST JUMP JUMPDEST DUP1 SELFBALANCE LT ISZERO PUSH2 0xAE3 JUMPI PUSH1 0x40 MLOAD PUSH32 0x8C379A000000000000000000000000000000000000000000000000000000000 DUP2 MSTORE PUSH1 0x4 ADD PUSH2 0xADA SWAP1 PUSH2 0xE48 JUMP JUMPDEST PUSH1 0x40 MLOAD DUP1 SWAP2 SUB SWAP1 REVERT JUMPDEST PUSH1 0x0 DUP3 PUSH20 0xFFFFFFFFFFFFFFFFFFFFFFFFFFFFFFFFFFFFFFFF AND DUP3 PUSH1 0x40 MLOAD PUSH2 0xB09 SWAP1 PUSH2 0xDD8 JUMP JUMPDEST PUSH1 0x0 PUSH1 0x40 MLOAD DUP1 DUP4 SUB DUP2 DUP6 DUP8 GAS CALL SWAP3 POP POP POP RETURNDATASIZE DUP1 PUSH1 0x0 DUP2 EQ PUSH2 0xB46 JUMPI PUSH1 0x40 MLOAD SWAP2 POP PUSH1 0x1F NOT PUSH1 0x3F RETURNDATASIZE ADD AND DUP3 ADD PUSH1 0x40 MSTORE RETURNDATASIZE DUP3 MSTORE RETURNDATASIZE PUSH1 0x0 PUSH1 0x20 DUP5 ADD RETURNDATACOPY PUSH2 0xB4B JUMP JUMPDEST PUSH1 0x60 SWAP2 POP JUMPDEST POP POP SWAP1 POP DUP1 PUSH2 0xB8F JUMPI PUSH1 0x40 MLOAD PUSH32 0x8C379A000000000000000000000000000000000000000000000000000000000 DUP2 MSTORE PUSH1 0x4 ADD PUSH2 0xB86 SWAP1 PUSH2 0xE28 JUMP JUMPDEST PUSH1 0x40 MLOAD DUP1 SWAP2 SUB SWAP1 REVERT JUMPDEST POP POP POP JUMP JUMPDEST PUSH1 0x0 CALLER SWAP1 POP SWAP1 JUMP JUMPDEST PUSH1 0x0 DUP2 CALLDATALOAD SWAP1 POP PUSH2 0xBAB DUP2 PUSH2 0x1209 JUMP JUMPDEST SWAP3 SWAP2 POP POP JUMP JUMPDEST PUSH1 0x0 DUP2 CALLDATALOAD SWAP1 POP PUSH2 0xBC0 DUP2 PUSH2 0x1220 JUMP JUMPDEST SWAP3 SWAP2 POP POP JUMP JUMPDEST PUSH1 0x0 DUP2 CALLDATALOAD SWAP1 POP PUSH2 0xBD5 DUP2 PUSH2 0x1237 JUMP JUMPDEST SWAP3 SWAP2 POP POP JUMP JUMPDEST PUSH1 0x0 PUSH1 0x20 DUP3 DUP5 SUB SLT ISZERO PUSH2 0xBF1 JUMPI PUSH2 0xBF0 PUSH2 0x1096 JUMP JUMPDEST JUMPDEST PUSH1 0x0 PUSH2 0xBFF DUP5 DUP3 DUP6 ADD PUSH2 0xB9C JUMP JUMPDEST SWAP2 POP POP SWAP3 SWAP2 POP POP JUMP JUMPDEST PUSH1 0x0 PUSH1 0x20 DUP3 DUP5 SUB SLT ISZERO PUSH2 0xC1E JUMPI PUSH2 0xC1D PUSH2 0x1096 JUMP JUMPDEST JUMPDEST PUSH1 0x0 PUSH2 0xC2C DUP5 DUP3 DUP6 ADD PUSH2 0xBB1 JUMP JUMPDEST SWAP2 POP POP SWAP3 SWAP2 POP POP JUMP JUMPDEST PUSH1 0x0 PUSH1 0x20 DUP3 DUP5 SUB SLT ISZERO PUSH2 0xC4B JUMPI PUSH2 0xC4A PUSH2 0x1096 JUMP JUMPDEST JUMPDEST PUSH1 0x0 PUSH2 0xC59 DUP5 DUP3 DUP6 ADD PUSH2 0xBC6 JUMP JUMPDEST SWAP2 POP POP SWAP3 SWAP2 POP POP JUMP JUMPDEST PUSH1 0x0 DUP1 PUSH1 0x40 DUP4 DUP6 SUB SLT ISZERO PUSH2 0xC79 JUMPI PUSH2 0xC78 PUSH2 0x1096 JUMP JUMPDEST JUMPDEST PUSH1 0x0 PUSH2 0xC87 DUP6 DUP3 DUP7 ADD PUSH2 0xBC6 JUMP JUMPDEST SWAP3 POP POP PUSH1 0x20 PUSH2 0xC98 DUP6 DUP3 DUP7 ADD PUSH2 0xBC6 JUMP JUMPDEST SWAP2 POP POP SWAP3 POP SWAP3 SWAP1 POP JUMP JUMPDEST PUSH2 0xCAB DUP2 PUSH2 0xFDE JUMP JUMPDEST DUP3 MSTORE POP POP JUMP JUMPDEST PUSH1 0x0 PUSH2 0xCBE PUSH1 0x26 DUP4 PUSH2 0xF0E JUMP JUMPDEST SWAP2 POP PUSH2 0xCC9 DUP3 PUSH2 0x109B JUMP JUMPDEST PUSH1 0x40 DUP3 ADD SWAP1 POP SWAP2 SWAP1 POP JUMP JUMPDEST PUSH1 0x0 PUSH2 0xCE1 PUSH1 0x3A DUP4 PUSH2 0xF0E JUMP JUMPDEST SWAP2 POP PUSH2 0xCEC DUP3 PUSH2 0x10EA JUMP JUMPDEST PUSH1 0x40 DUP3 ADD SWAP1 POP SWAP2 SWAP1 POP JUMP JUMPDEST PUSH1 0x0 PUSH2 0xD04 PUSH1 0x1D DUP4 PUSH2 0xF0E JUMP JUMPDEST SWAP2 POP PUSH2 0xD0F DUP3 PUSH2 0x1139 JUMP JUMPDEST PUSH1 0x20 DUP3 ADD SWAP1 POP SWAP2 SWAP1 POP JUMP JUMPDEST PUSH1 0x0 PUSH2 0xD27 PUSH1 0x1C DUP4 PUSH2 0xF0E JUMP JUMPDEST SWAP2 POP PUSH2 0xD32 DUP3 PUSH2 0x1162 JUMP JUMPDEST PUSH1 0x20 DUP3 ADD SWAP1 POP SWAP2 SWAP1 POP JUMP JUMPDEST PUSH1 0x0 PUSH2 0xD4A PUSH1 0x20 DUP4 PUSH2 0xF0E JUMP JUMPDEST SWAP2 POP PUSH2 0xD55 DUP3 PUSH2 0x118B JUMP JUMPDEST PUSH1 0x20 DUP3 ADD SWAP1 POP SWAP2 SWAP1 POP JUMP JUMPDEST PUSH1 0x0 PUSH2 0xD6D PUSH1 0x0 DUP4 PUSH2 0xF03 JUMP JUMPDEST SWAP2 POP PUSH2 0xD78 DUP3 PUSH2 0x11B4 JUMP JUMPDEST PUSH1 0x0 DUP3 ADD SWAP1 POP SWAP2 SWAP1 POP JUMP JUMPDEST PUSH1 0x0 PUSH2 0xD90 PUSH1 0x17 DUP4 PUSH2 0xF0E JUMP JUMPDEST SWAP2 POP PUSH2 0xD9B DUP3 PUSH2 0x11B7 JUMP JUMPDEST PUSH1 0x20 DUP3 ADD SWAP1 POP SWAP2 SWAP1 POP JUMP JUMPDEST PUSH1 0x0 PUSH2 0xDB3 PUSH1 0x18 DUP4 PUSH2 0xF0E JUMP JUMPDEST SWAP2 POP PUSH2 0xDBE DUP3 PUSH2 0x11E0 JUMP JUMPDEST PUSH1 0x20 DUP3 ADD SWAP1 POP SWAP2 SWAP1 POP JUMP JUMPDEST PUSH2 0xDD2 DUP2 PUSH2 0x102E JUMP JUMPDEST DUP3 MSTORE POP POP JUMP JUMPDEST PUSH1 0x0 PUSH2 0xDE3 DUP3 PUSH2 0xD60 JUMP JUMPDEST SWAP2 POP DUP2 SWAP1 POP SWAP2 SWAP1 POP JUMP JUMPDEST PUSH1 0x0 PUSH1 0x20 DUP3 ADD SWAP1 POP PUSH2 0xE02 PUSH1 0x0 DUP4 ADD DUP5 PUSH2 0xCA2 JUMP JUMPDEST SWAP3 SWAP2 POP POP JUMP JUMPDEST PUSH1 0x0 PUSH1 0x20 DUP3 ADD SWAP1 POP DUP2 DUP2 SUB PUSH1 0x0 DUP4 ADD MSTORE PUSH2 0xE21 DUP2 PUSH2 0xCB1 JUMP JUMPDEST SWAP1 POP SWAP2 SWAP1 POP JUMP JUMPDEST PUSH1 0x0 PUSH1 0x20 DUP3 ADD SWAP1 POP DUP2 DUP2 SUB PUSH1 0x0 DUP4 ADD MSTORE PUSH2 0xE41 DUP2 PUSH2 0xCD4 JUMP JUMPDEST SWAP1 POP SWAP2 SWAP1 POP JUMP JUMPDEST PUSH1 0x0 PUSH1 0x20 DUP3 ADD SWAP1 POP DUP2 DUP2 SUB PUSH1 0x0 DUP4 ADD MSTORE PUSH2 0xE61 DUP2 PUSH2 0xCF7 JUMP JUMPDEST SWAP1 POP SWAP2 SWAP1 POP JUMP JUMPDEST PUSH1 0x0 PUSH1 0x20 DUP3 ADD SWAP1 POP DUP2 DUP2 SUB PUSH1 0x0 DUP4 ADD MSTORE PUSH2 0xE81 DUP2 PUSH2 0xD1A JUMP JUMPDEST SWAP1 POP SWAP2 SWAP1 POP JUMP JUMPDEST PUSH1 0x0 PUSH1 0x20 DUP3 ADD SWAP1 POP DUP2 DUP2 SUB PUSH1 0x0 DUP4 ADD MSTORE PUSH2 0xEA1 DUP2 PUSH2 0xD3D JUMP JUMPDEST SWAP1 POP SWAP2 SWAP1 POP JUMP JUMPDEST PUSH1 0x0 PUSH1 0x20 DUP3 ADD SWAP1 POP DUP2 DUP2 SUB PUSH1 0x0 DUP4 ADD MSTORE PUSH2 0xEC1 DUP2 PUSH2 0xD83 JUMP JUMPDEST SWAP1 POP SWAP2 SWAP1 POP JUMP JUMPDEST PUSH1 0x0 PUSH1 0x20 DUP3 ADD SWAP1 POP DUP2 DUP2 SUB PUSH1 0x0 DUP4 ADD MSTORE PUSH2 0xEE1 DUP2 PUSH2 0xDA6 JUMP JUMPDEST SWAP1 POP SWAP2 SWAP1 POP JUMP JUMPDEST PUSH1 0x0 PUSH1 0x20 DUP3 ADD SWAP1 POP PUSH2 0xEFD PUSH1 0x0 DUP4 ADD DUP5 PUSH2 0xDC9 JUMP JUMPDEST SWAP3 SWAP2 POP POP JUMP JUMPDEST PUSH1 0x0 DUP2 SWAP1 POP SWAP3 SWAP2 POP POP JUMP JUMPDEST PUSH1 0x0 DUP3 DUP3 MSTORE PUSH1 0x20 DUP3 ADD SWAP1 POP SWAP3 SWAP2 POP POP JUMP JUMPDEST PUSH1 0x0 PUSH2 0xF2A DUP3 PUSH2 0x102E JUMP JUMPDEST SWAP2 POP PUSH2 0xF35 DUP4 PUSH2 0x102E JUMP JUMPDEST SWAP3 POP DUP3 PUSH2 0xF45 JUMPI PUSH2 0xF44 PUSH2 0x1067 JUMP JUMPDEST JUMPDEST DUP3 DUP3 DIV SWAP1 POP SWAP3 SWAP2 POP POP JUMP JUMPDEST PUSH1 0x0 PUSH2 0xF5B DUP3 PUSH2 0x102E JUMP JUMPDEST SWAP2 POP PUSH2 0xF66 DUP4 PUSH2 0x102E JUMP JUMPDEST SWAP3 POP DUP2 PUSH32 0xFFFFFFFFFFFFFFFFFFFFFFFFFFFFFFFFFFFFFFFFFFFFFFFFFFFFFFFFFFFFFFFF DIV DUP4 GT DUP3 ISZERO ISZERO AND ISZERO PUSH2 0xF9F JUMPI PUSH2 0xF9E PUSH2 0x1038 JUMP JUMPDEST JUMPDEST DUP3 DUP3 MUL SWAP1 POP SWAP3 SWAP2 POP POP JUMP JUMPDEST PUSH1 0x0 PUSH2 0xFB5 DUP3 PUSH2 0x102E JUMP JUMPDEST SWAP2 POP PUSH2 0xFC0 DUP4 PUSH2 0x102E JUMP JUMPDEST SWAP3 POP DUP3 DUP3 LT ISZERO PUSH2 0xFD3 JUMPI PUSH2 0xFD2 PUSH2 0x1038 JUMP JUMPDEST JUMPDEST DUP3 DUP3 SUB SWAP1 POP SWAP3 SWAP2 POP POP JUMP JUMPDEST PUSH1 0x0 PUSH2 0xFE9 DUP3 PUSH2 0x100E JUMP JUMPDEST SWAP1 POP SWAP2 SWAP1 POP JUMP JUMPDEST PUSH1 0x0 PUSH2 0xFFB DUP3 PUSH2 0x100E JUMP JUMPDEST SWAP1 POP SWAP2 SWAP1 POP JUMP JUMPDEST PUSH1 0x0 DUP2 ISZERO ISZERO SWAP1 POP SWAP2 SWAP1 POP JUMP JUMPDEST PUSH1 0x0 PUSH20 0xFFFFFFFFFFFFFFFFFFFFFFFFFFFFFFFFFFFFFFFF DUP3 AND SWAP1 POP SWAP2 SWAP1 POP JUMP JUMPDEST PUSH1 0x0 DUP2 SWAP1 POP SWAP2 SWAP1 POP JUMP JUMPDEST PUSH32 0x4E487B7100000000000000000000000000000000000000000000000000000000 PUSH1 0x0 MSTORE PUSH1 0x11 PUSH1 0x4 MSTORE PUSH1 0x24 PUSH1 0x0 REVERT JUMPDEST PUSH32 0x4E487B7100000000000000000000000000000000000000000000000000000000 PUSH1 0x0 MSTORE PUSH1 0x12 PUSH1 0x4 MSTORE PUSH1 0x24 PUSH1 0x0 REVERT JUMPDEST PUSH1 0x0 DUP1 REVERT JUMPDEST PUSH32 0x4F776E61626C653A206E6577206F776E657220697320746865207A65726F2061 PUSH1 0x0 DUP3 ADD MSTORE PUSH32 0x6464726573730000000000000000000000000000000000000000000000000000 PUSH1 0x20 DUP3 ADD MSTORE POP JUMP JUMPDEST PUSH32 0x416464726573733A20756E61626C6520746F2073656E642076616C75652C2072 PUSH1 0x0 DUP3 ADD MSTORE PUSH32 0x6563697069656E74206D61792068617665207265766572746564000000000000 PUSH1 0x20 DUP3 ADD MSTORE POP JUMP JUMPDEST PUSH32 0x416464726573733A20696E73756666696369656E742062616C616E6365000000 PUSH1 0x0 DUP3 ADD MSTORE POP JUMP JUMPDEST PUSH32 0x63616C6C6572206973206E6F742074686520636F6E74726163746F7200000000 PUSH1 0x0 DUP3 ADD MSTORE POP JUMP JUMPDEST PUSH32 0x4F776E61626C653A2063616C6C6572206973206E6F7420746865206F776E6572 PUSH1 0x0 DUP3 ADD MSTORE POP JUMP JUMPDEST POP JUMP JUMPDEST PUSH32 0x63616C6C6572206973206E6F74207468652061646D696E000000000000000000 PUSH1 0x0 DUP3 ADD MSTORE POP JUMP JUMPDEST PUSH32 0x63616C6C6572206973206E6F742074686520636C69656E740000000000000000 PUSH1 0x0 DUP3 ADD MSTORE POP JUMP JUMPDEST PUSH2 0x1212 DUP2 PUSH2 0xFDE JUMP JUMPDEST DUP2 EQ PUSH2 0x121D JUMPI PUSH1 0x0 DUP1 REVERT JUMPDEST POP JUMP JUMPDEST PUSH2 0x1229 DUP2 PUSH2 0xFF0 JUMP JUMPDEST DUP2 EQ PUSH2 0x1234 JUMPI PUSH1 0x0 DUP1 REVERT JUMPDEST POP JUMP JUMPDEST PUSH2 0x1240 DUP2 PUSH2 0x1002 JUMP JUMPDEST DUP2 EQ PUSH2 0x124B JUMPI PUSH1 0x0 DUP1 REVERT JUMPDEST POP JUMP INVALID LOG2 PUSH5 0x6970667358 0x22 SLT KECCAK256 0x23 0x22 PUSH25 0xA9E1D64C039079EC060F33B872274A2A1B795A7E04FB2BECE 0xC2 DUP11 0xE7 PUSH13 0x64736F6C634300080700330000 "
				},
				"gasEstimates": {
					"creation": {
						"codeDepositCost": "948000",
						"executionCost": "infinite",
						"totalCost": "infinite"
					},
					"external": {
						"addAdmin(address)": "25972",
						"addClient(address)": "25928",
						"addContractor(address)": "28169",
						"adminResolutionStatus(bool,bool)": "infinite",
						"deposit()": "3605",
						"marketOwner()": "445",
						"owner()": "2566",
						"renounceOwnership()": "30398",
						"taskCompletionStatus(bool)": "26896",
						"taskValidationStatus(bool)": "infinite",
						"transferOwnership(address)": "30857"
					},
					"internal": {
						"_checkAdmin()": "infinite",
						"_checkClient()": "infinite",
						"_checkContractor()": "infinite",
						"withdrawPayment()": "infinite"
					}
				},
				"methodIdentifiers": {
					"addAdmin(address)": "70480275",
					"addClient(address)": "43928cfd",
					"addContractor(address)": "761768b6",
					"adminResolutionStatus(bool,bool)": "11571f30",
					"deposit()": "d0e30db0",
					"marketOwner()": "47d90b5c",
					"owner()": "8da5cb5b",
					"renounceOwnership()": "715018a6",
					"taskCompletionStatus(bool)": "251d8cd5",
					"taskValidationStatus(bool)": "9464c8b8",
					"transferOwnership(address)": "f2fde38b"
				}
			},
			"storageLayout": {
				"storage": [
					{
						"astId": 7,
						"contract": "contracts/Escrow.sol:Escrow",
						"label": "_owner",
						"offset": 0,
						"slot": "0",
						"type": "t_address"
					},
					{
						"astId": 456,
						"contract": "contracts/Escrow.sol:Escrow",
						"label": "contractor",
						"offset": 0,
						"slot": "1",
						"type": "t_address_payable"
					},
					{
						"astId": 458,
						"contract": "contracts/Escrow.sol:Escrow",
						"label": "client",
						"offset": 0,
						"slot": "2",
						"type": "t_address_payable"
					},
					{
						"astId": 460,
						"contract": "contracts/Escrow.sol:Escrow",
						"label": "admin",
						"offset": 0,
						"slot": "3",
						"type": "t_address_payable"
					},
					{
						"astId": 467,
						"contract": "contracts/Escrow.sol:Escrow",
						"label": "_deposits",
						"offset": 0,
						"slot": "4",
						"type": "t_mapping(t_address,t_uint256)"
					},
					{
						"astId": 585,
						"contract": "contracts/Escrow.sol:Escrow",
						"label": "taskCompleted",
						"offset": 0,
						"slot": "5",
						"type": "t_bool"
					},
					{
						"astId": 587,
						"contract": "contracts/Escrow.sol:Escrow",
						"label": "taskValidated",
						"offset": 1,
						"slot": "5",
						"type": "t_bool"
					},
					{
						"astId": 589,
						"contract": "contracts/Escrow.sol:Escrow",
						"label": "adminResolution",
						"offset": 2,
						"slot": "5",
						"type": "t_bool"
					},
					{
						"astId": 591,
						"contract": "contracts/Escrow.sol:Escrow",
						"label": "adminPayContractor",
						"offset": 3,
						"slot": "5",
						"type": "t_bool"
					}
				],
				"types": {
					"t_address": {
						"encoding": "inplace",
						"label": "address",
						"numberOfBytes": "20"
					},
					"t_address_payable": {
						"encoding": "inplace",
						"label": "address payable",
						"numberOfBytes": "20"
					},
					"t_bool": {
						"encoding": "inplace",
						"label": "bool",
						"numberOfBytes": "1"
					},
					"t_mapping(t_address,t_uint256)": {
						"encoding": "mapping",
						"key": "t_address",
						"label": "mapping(address => uint256)",
						"numberOfBytes": "32",
						"value": "t_uint256"
					},
					"t_uint256": {
						"encoding": "inplace",
						"label": "uint256",
						"numberOfBytes": "32"
					}
				}
			},
			"userdoc": {
				"kind": "user",
				"methods": {},
				"version": 1
			}
		}
	}
}