{
	"contracts/Escrow.sol": {
		"Escrow": {
			"abi": [
				{
					"anonymous": false,
					"inputs": [
						{
							"indexed": true,
							"internalType": "address",
							"name": "payee",
							"type": "address"
						}
					],
					"name": "AdminAdded",
					"type": "event"
				},
				{
					"anonymous": false,
					"inputs": [
						{
							"indexed": true,
							"internalType": "address",
							"name": "payee",
							"type": "address"
						}
					],
					"name": "ContractorAdded",
					"type": "event"
				},
				{
					"anonymous": false,
					"inputs": [
						{
							"indexed": false,
							"internalType": "uint256",
							"name": "weiAmount",
							"type": "uint256"
						}
					],
					"name": "Deposited",
					"type": "event"
				},
				{
					"anonymous": false,
					"inputs": [
						{
							"indexed": true,
							"internalType": "address",
							"name": "previousOwner",
							"type": "address"
						},
						{
							"indexed": true,
							"internalType": "address",
							"name": "newOwner",
							"type": "address"
						}
					],
					"name": "OwnershipTransferred",
					"type": "event"
				},
				{
					"inputs": [
						{
							"internalType": "address payable",
							"name": "payee",
							"type": "address"
						}
					],
					"name": "addAdmin",
					"outputs": [],
					"stateMutability": "nonpayable",
					"type": "function"
				},
				{
					"inputs": [
						{
							"internalType": "address payable",
							"name": "payee",
							"type": "address"
						}
					],
					"name": "addContractor",
					"outputs": [],
					"stateMutability": "nonpayable",
					"type": "function"
				},
				{
					"inputs": [
						{
							"internalType": "bool",
							"name": "inputAdminResolution",
							"type": "bool"
						},
						{
							"internalType": "bool",
							"name": "inputAdminDecision",
							"type": "bool"
						}
					],
					"name": "adminResolutionStatus",
					"outputs": [],
					"stateMutability": "nonpayable",
					"type": "function"
				},
				{
					"inputs": [],
					"name": "deposit",
					"outputs": [],
					"stateMutability": "payable",
					"type": "function"
				},
				{
					"inputs": [],
					"name": "owner",
					"outputs": [
						{
							"internalType": "address",
							"name": "",
							"type": "address"
						}
					],
					"stateMutability": "view",
					"type": "function"
				},
				{
					"inputs": [],
					"name": "renounceOwnership",
					"outputs": [],
					"stateMutability": "nonpayable",
					"type": "function"
				},
				{
					"inputs": [
						{
							"internalType": "bool",
							"name": "inputTaskCompleted",
							"type": "bool"
						}
					],
					"name": "taskCompletionStatus",
					"outputs": [],
					"stateMutability": "nonpayable",
					"type": "function"
				},
				{
					"inputs": [
						{
							"internalType": "bool",
							"name": "inputTaskValidated",
							"type": "bool"
						}
					],
					"name": "taskValidationStatus",
					"outputs": [],
					"stateMutability": "nonpayable",
					"type": "function"
				},
				{
					"inputs": [],
					"name": "testPayment",
					"outputs": [],
					"stateMutability": "nonpayable",
					"type": "function"
				},
				{
					"inputs": [
						{
							"internalType": "address",
							"name": "newOwner",
							"type": "address"
						}
					],
					"name": "transferOwnership",
					"outputs": [],
					"stateMutability": "nonpayable",
					"type": "function"
				}
			],
			"devdoc": {
				"kind": "dev",
				"methods": {
					"owner()": {
						"details": "Returns the address of the current owner."
					},
					"renounceOwnership()": {
						"details": "Leaves the contract without owner. It will not be possible to call `onlyOwner` functions anymore. Can only be called by the current owner. NOTE: Renouncing ownership will leave the contract without an owner, thereby removing any functionality that is only available to the owner."
					},
					"transferOwnership(address)": {
						"details": "Transfers ownership of the contract to a new account (`newOwner`). Can only be called by the current owner."
					}
				},
				"version": 1
			},
			"evm": {
				"assembly": "    /* \"contracts/Escrow.sol\":238:3641  contract Escrow is Ownable {... */\n  mstore(0x40, 0x80)\n  callvalue\n  dup1\n  iszero\n  tag_1\n  jumpi\n  0x00\n  dup1\n  revert\ntag_1:\n  pop\n    /* \"@openzeppelin/contracts/access/Ownable.sol\":936:968  _transferOwnership(_msgSender()) */\n  tag_4\n    /* \"@openzeppelin/contracts/access/Ownable.sol\":955:967  _msgSender() */\n  tag_5\n    /* \"@openzeppelin/contracts/access/Ownable.sol\":955:965  _msgSender */\n  shl(0x20, tag_6)\n    /* \"@openzeppelin/contracts/access/Ownable.sol\":955:967  _msgSender() */\n  0x20\n  shr\n  jump\t// in\ntag_5:\n    /* \"@openzeppelin/contracts/access/Ownable.sol\":936:954  _transferOwnership */\n  shl(0x20, tag_7)\n    /* \"@openzeppelin/contracts/access/Ownable.sol\":936:968  _transferOwnership(_msgSender()) */\n  0x20\n  shr\n  jump\t// in\ntag_4:\n    /* \"contracts/Escrow.sol\":238:3641  contract Escrow is Ownable {... */\n  jump(tag_8)\n    /* \"@openzeppelin/contracts/utils/Context.sol\":640:736  function _msgSender() internal view virtual returns (address) {... */\ntag_6:\n    /* \"@openzeppelin/contracts/utils/Context.sol\":693:700  address */\n  0x00\n    /* \"@openzeppelin/contracts/utils/Context.sol\":719:729  msg.sender */\n  caller\n    /* \"@openzeppelin/contracts/utils/Context.sol\":712:729  return msg.sender */\n  swap1\n  pop\n    /* \"@openzeppelin/contracts/utils/Context.sol\":640:736  function _msgSender() internal view virtual returns (address) {... */\n  swap1\n  jump\t// out\n    /* \"@openzeppelin/contracts/access/Ownable.sol\":2433:2620  function _transferOwnership(address newOwner) internal virtual {... */\ntag_7:\n    /* \"@openzeppelin/contracts/access/Ownable.sol\":2506:2522  address oldOwner */\n  0x00\n    /* \"@openzeppelin/contracts/access/Ownable.sol\":2525:2531  _owner */\n  dup1\n  0x00\n  swap1\n  sload\n  swap1\n  0x0100\n  exp\n  swap1\n  div\n  0xffffffffffffffffffffffffffffffffffffffff\n  and\n    /* \"@openzeppelin/contracts/access/Ownable.sol\":2506:2531  address oldOwner = _owner */\n  swap1\n  pop\n    /* \"@openzeppelin/contracts/access/Ownable.sol\":2550:2558  newOwner */\n  dup2\n    /* \"@openzeppelin/contracts/access/Ownable.sol\":2541:2547  _owner */\n  0x00\n  dup1\n    /* \"@openzeppelin/contracts/access/Ownable.sol\":2541:2558  _owner = newOwner */\n  0x0100\n  exp\n  dup2\n  sload\n  dup2\n  0xffffffffffffffffffffffffffffffffffffffff\n  mul\n  not\n  and\n  swap1\n  dup4\n  0xffffffffffffffffffffffffffffffffffffffff\n  and\n  mul\n  or\n  swap1\n  sstore\n  pop\n    /* \"@openzeppelin/contracts/access/Ownable.sol\":2604:2612  newOwner */\n  dup2\n    /* \"@openzeppelin/contracts/access/Ownable.sol\":2573:2613  OwnershipTransferred(oldOwner, newOwner) */\n  0xffffffffffffffffffffffffffffffffffffffff\n  and\n    /* \"@openzeppelin/contracts/access/Ownable.sol\":2594:2602  oldOwner */\n  dup2\n    /* \"@openzeppelin/contracts/access/Ownable.sol\":2573:2613  OwnershipTransferred(oldOwner, newOwner) */\n  0xffffffffffffffffffffffffffffffffffffffff\n  and\n  0x8be0079c531659141344cd1fd0a4f28419497f9722a3daafe3b4186f6b6457e0\n  mload(0x40)\n  mload(0x40)\n  dup1\n  swap2\n  sub\n  swap1\n  log3\n    /* \"@openzeppelin/contracts/access/Ownable.sol\":2496:2620  {... */\n  pop\n    /* \"@openzeppelin/contracts/access/Ownable.sol\":2433:2620  function _transferOwnership(address newOwner) internal virtual {... */\n  pop\n  jump\t// out\n    /* \"contracts/Escrow.sol\":238:3641  contract Escrow is Ownable {... */\ntag_8:\n  dataSize(sub_0)\n  dup1\n  dataOffset(sub_0)\n  0x00\n  codecopy\n  0x00\n  return\nstop\n\nsub_0: assembly {\n        /* \"contracts/Escrow.sol\":238:3641  contract Escrow is Ownable {... */\n      mstore(0x40, 0x80)\n      jumpi(tag_1, lt(calldatasize, 0x04))\n      shr(0xe0, calldataload(0x00))\n      dup1\n      0x8da5cb5b\n      gt\n      tag_12\n      jumpi\n      dup1\n      0x8da5cb5b\n      eq\n      tag_7\n      jumpi\n      dup1\n      0x9464c8b8\n      eq\n      tag_8\n      jumpi\n      dup1\n      0xb0568eaa\n      eq\n      tag_9\n      jumpi\n      dup1\n      0xd0e30db0\n      eq\n      tag_10\n      jumpi\n      dup1\n      0xf2fde38b\n      eq\n      tag_11\n      jumpi\n      jump(tag_1)\n    tag_12:\n      dup1\n      0x11571f30\n      eq\n      tag_2\n      jumpi\n      dup1\n      0x251d8cd5\n      eq\n      tag_3\n      jumpi\n      dup1\n      0x70480275\n      eq\n      tag_4\n      jumpi\n      dup1\n      0x715018a6\n      eq\n      tag_5\n      jumpi\n      dup1\n      0x761768b6\n      eq\n      tag_6\n      jumpi\n    tag_1:\n      0x00\n      dup1\n      revert\n        /* \"contracts/Escrow.sol\":2474:2696  function adminResolutionStatus(bool inputAdminResolution, bool inputAdminDecision) public virtual onlyAdmin{... */\n    tag_2:\n      callvalue\n      dup1\n      iszero\n      tag_13\n      jumpi\n      0x00\n      dup1\n      revert\n    tag_13:\n      pop\n      tag_14\n      0x04\n      dup1\n      calldatasize\n      sub\n      dup2\n      add\n      swap1\n      tag_15\n      swap2\n      swap1\n      tag_16\n      jump\t// in\n    tag_15:\n      tag_17\n      jump\t// in\n    tag_14:\n      stop\n        /* \"contracts/Escrow.sol\":2702:2834  function taskCompletionStatus(bool inputTaskCompleted) public virtual onlyContractor {... */\n    tag_3:\n      callvalue\n      dup1\n      iszero\n      tag_18\n      jumpi\n      0x00\n      dup1\n      revert\n    tag_18:\n      pop\n      tag_19\n      0x04\n      dup1\n      calldatasize\n      sub\n      dup2\n      add\n      swap1\n      tag_20\n      swap2\n      swap1\n      tag_21\n      jump\t// in\n    tag_20:\n      tag_22\n      jump\t// in\n    tag_19:\n      stop\n        /* \"contracts/Escrow.sol\":1381:1498  function addAdmin(address payable payee) public virtual{... */\n    tag_4:\n      callvalue\n      dup1\n      iszero\n      tag_23\n      jumpi\n      0x00\n      dup1\n      revert\n    tag_23:\n      pop\n      tag_24\n      0x04\n      dup1\n      calldatasize\n      sub\n      dup2\n      add\n      swap1\n      tag_25\n      swap2\n      swap1\n      tag_26\n      jump\t// in\n    tag_25:\n      tag_27\n      jump\t// in\n    tag_24:\n      stop\n        /* \"@openzeppelin/contracts/access/Ownable.sol\":1831:1932  function renounceOwnership() public virtual onlyOwner {... */\n    tag_5:\n      callvalue\n      dup1\n      iszero\n      tag_28\n      jumpi\n      0x00\n      dup1\n      revert\n    tag_28:\n      pop\n      tag_29\n      tag_30\n      jump\t// in\n    tag_29:\n      stop\n        /* \"contracts/Escrow.sol\":1052:1194  function addContractor(address payable payee) public virtual onlyOwner{... */\n    tag_6:\n      callvalue\n      dup1\n      iszero\n      tag_31\n      jumpi\n      0x00\n      dup1\n      revert\n    tag_31:\n      pop\n      tag_32\n      0x04\n      dup1\n      calldatasize\n      sub\n      dup2\n      add\n      swap1\n      tag_33\n      swap2\n      swap1\n      tag_26\n      jump\t// in\n    tag_33:\n      tag_34\n      jump\t// in\n    tag_32:\n      stop\n        /* \"@openzeppelin/contracts/access/Ownable.sol\":1201:1286  function owner() public view virtual returns (address) {... */\n    tag_7:\n      callvalue\n      dup1\n      iszero\n      tag_35\n      jumpi\n      0x00\n      dup1\n      revert\n    tag_35:\n      pop\n      tag_36\n      tag_37\n      jump\t// in\n    tag_36:\n      mload(0x40)\n      tag_38\n      swap2\n      swap1\n      tag_39\n      jump\t// in\n    tag_38:\n      mload(0x40)\n      dup1\n      swap2\n      sub\n      swap1\n      return\n        /* \"contracts/Escrow.sol\":2840:2985  function taskValidationStatus(bool inputTaskValidated) public virtual onlyOwner{... */\n    tag_8:\n      callvalue\n      dup1\n      iszero\n      tag_40\n      jumpi\n      0x00\n      dup1\n      revert\n    tag_40:\n      pop\n      tag_41\n      0x04\n      dup1\n      calldatasize\n      sub\n      dup2\n      add\n      swap1\n      tag_42\n      swap2\n      swap1\n      tag_21\n      jump\t// in\n    tag_42:\n      tag_43\n      jump\t// in\n    tag_41:\n      stop\n        /* \"contracts/Escrow.sol\":2991:3638  function testPayment() public virtual{... */\n    tag_9:\n      callvalue\n      dup1\n      iszero\n      tag_44\n      jumpi\n      0x00\n      dup1\n      revert\n    tag_44:\n      pop\n      tag_45\n      tag_46\n      jump\t// in\n    tag_45:\n      stop\n        /* \"contracts/Escrow.sol\":741:905  function deposit() public payable virtual onlyOwner {... */\n    tag_10:\n      tag_47\n      tag_48\n      jump\t// in\n    tag_47:\n      stop\n        /* \"@openzeppelin/contracts/access/Ownable.sol\":2081:2279  function transferOwnership(address newOwner) public virtual onlyOwner {... */\n    tag_11:\n      callvalue\n      dup1\n      iszero\n      tag_49\n      jumpi\n      0x00\n      dup1\n      revert\n    tag_49:\n      pop\n      tag_50\n      0x04\n      dup1\n      calldatasize\n      sub\n      dup2\n      add\n      swap1\n      tag_51\n      swap2\n      swap1\n      tag_52\n      jump\t// in\n    tag_51:\n      tag_53\n      jump\t// in\n    tag_50:\n      stop\n        /* \"contracts/Escrow.sol\":2474:2696  function adminResolutionStatus(bool inputAdminResolution, bool inputAdminDecision) public virtual onlyAdmin{... */\n    tag_17:\n        /* \"contracts/Escrow.sol\":2174:2187  _checkAdmin() */\n      tag_55\n        /* \"contracts/Escrow.sol\":2174:2185  _checkAdmin */\n      tag_56\n        /* \"contracts/Escrow.sol\":2174:2187  _checkAdmin() */\n      jump\t// in\n    tag_55:\n        /* \"contracts/Escrow.sol\":2605:2625  inputAdminResolution */\n      dup2\n        /* \"contracts/Escrow.sol\":2587:2602  adminResolution */\n      0x05\n      0x02\n        /* \"contracts/Escrow.sol\":2587:2625  adminResolution = inputAdminResolution */\n      0x0100\n      exp\n      dup2\n      sload\n      dup2\n      0xff\n      mul\n      not\n      and\n      swap1\n      dup4\n      iszero\n      iszero\n      mul\n      or\n      swap1\n      sstore\n      pop\n        /* \"contracts/Escrow.sol\":2652:2670  inputAdminDecision */\n      dup1\n        /* \"contracts/Escrow.sol\":2631:2649  adminPayContractor */\n      0x05\n      0x03\n        /* \"contracts/Escrow.sol\":2631:2670  adminPayContractor = inputAdminDecision */\n      0x0100\n      exp\n      dup2\n      sload\n      dup2\n      0xff\n      mul\n      not\n      and\n      swap1\n      dup4\n      iszero\n      iszero\n      mul\n      or\n      swap1\n      sstore\n      pop\n        /* \"contracts/Escrow.sol\":2676:2689  testPayment() */\n      tag_58\n        /* \"contracts/Escrow.sol\":2676:2687  testPayment */\n      tag_46\n        /* \"contracts/Escrow.sol\":2676:2689  testPayment() */\n      jump\t// in\n    tag_58:\n        /* \"contracts/Escrow.sol\":2474:2696  function adminResolutionStatus(bool inputAdminResolution, bool inputAdminDecision) public virtual onlyAdmin{... */\n      pop\n      pop\n      jump\t// out\n        /* \"contracts/Escrow.sol\":2702:2834  function taskCompletionStatus(bool inputTaskCompleted) public virtual onlyContractor {... */\n    tag_22:\n        /* \"contracts/Escrow.sol\":2392:2410  _checkContractor() */\n      tag_60\n        /* \"contracts/Escrow.sol\":2392:2408  _checkContractor */\n      tag_61\n        /* \"contracts/Escrow.sol\":2392:2410  _checkContractor() */\n      jump\t// in\n    tag_60:\n        /* \"contracts/Escrow.sol\":2809:2827  inputTaskCompleted */\n      dup1\n        /* \"contracts/Escrow.sol\":2793:2806  taskCompleted */\n      0x05\n      0x00\n        /* \"contracts/Escrow.sol\":2793:2827  taskCompleted = inputTaskCompleted */\n      0x0100\n      exp\n      dup2\n      sload\n      dup2\n      0xff\n      mul\n      not\n      and\n      swap1\n      dup4\n      iszero\n      iszero\n      mul\n      or\n      swap1\n      sstore\n      pop\n        /* \"contracts/Escrow.sol\":2702:2834  function taskCompletionStatus(bool inputTaskCompleted) public virtual onlyContractor {... */\n      pop\n      jump\t// out\n        /* \"contracts/Escrow.sol\":1381:1498  function addAdmin(address payable payee) public virtual{... */\n    tag_27:\n        /* \"contracts/Escrow.sol\":1454:1459  payee */\n      dup1\n        /* \"contracts/Escrow.sol\":1446:1451  admin */\n      0x03\n      0x00\n        /* \"contracts/Escrow.sol\":1446:1459  admin = payee */\n      0x0100\n      exp\n      dup2\n      sload\n      dup2\n      0xffffffffffffffffffffffffffffffffffffffff\n      mul\n      not\n      and\n      swap1\n      dup4\n      0xffffffffffffffffffffffffffffffffffffffff\n      and\n      mul\n      or\n      swap1\n      sstore\n      pop\n        /* \"contracts/Escrow.sol\":1485:1490  payee */\n      dup1\n        /* \"contracts/Escrow.sol\":1474:1491  AdminAdded(payee) */\n      0xffffffffffffffffffffffffffffffffffffffff\n      and\n      0x44d6d25963f097ad14f29f06854a01f575648a1ef82f30e562ccd3889717e339\n      mload(0x40)\n      mload(0x40)\n      dup1\n      swap2\n      sub\n      swap1\n      log2\n        /* \"contracts/Escrow.sol\":1381:1498  function addAdmin(address payable payee) public virtual{... */\n      pop\n      jump\t// out\n        /* \"@openzeppelin/contracts/access/Ownable.sol\":1831:1932  function renounceOwnership() public virtual onlyOwner {... */\n    tag_30:\n        /* \"@openzeppelin/contracts/access/Ownable.sol\":1094:1107  _checkOwner() */\n      tag_65\n        /* \"@openzeppelin/contracts/access/Ownable.sol\":1094:1105  _checkOwner */\n      tag_66\n        /* \"@openzeppelin/contracts/access/Ownable.sol\":1094:1107  _checkOwner() */\n      jump\t// in\n    tag_65:\n        /* \"@openzeppelin/contracts/access/Ownable.sol\":1895:1925  _transferOwnership(address(0)) */\n      tag_68\n        /* \"@openzeppelin/contracts/access/Ownable.sol\":1922:1923  0 */\n      0x00\n        /* \"@openzeppelin/contracts/access/Ownable.sol\":1895:1913  _transferOwnership */\n      tag_69\n        /* \"@openzeppelin/contracts/access/Ownable.sol\":1895:1925  _transferOwnership(address(0)) */\n      jump\t// in\n    tag_68:\n        /* \"@openzeppelin/contracts/access/Ownable.sol\":1831:1932  function renounceOwnership() public virtual onlyOwner {... */\n      jump\t// out\n        /* \"contracts/Escrow.sol\":1052:1194  function addContractor(address payable payee) public virtual onlyOwner{... */\n    tag_34:\n        /* \"@openzeppelin/contracts/access/Ownable.sol\":1094:1107  _checkOwner() */\n      tag_71\n        /* \"@openzeppelin/contracts/access/Ownable.sol\":1094:1105  _checkOwner */\n      tag_66\n        /* \"@openzeppelin/contracts/access/Ownable.sol\":1094:1107  _checkOwner() */\n      jump\t// in\n    tag_71:\n        /* \"contracts/Escrow.sol\":1145:1150  payee */\n      dup1\n        /* \"contracts/Escrow.sol\":1132:1142  contractor */\n      0x01\n      0x00\n        /* \"contracts/Escrow.sol\":1132:1150  contractor = payee */\n      0x0100\n      exp\n      dup2\n      sload\n      dup2\n      0xffffffffffffffffffffffffffffffffffffffff\n      mul\n      not\n      and\n      swap1\n      dup4\n      0xffffffffffffffffffffffffffffffffffffffff\n      and\n      mul\n      or\n      swap1\n      sstore\n      pop\n        /* \"contracts/Escrow.sol\":1181:1186  payee */\n      dup1\n        /* \"contracts/Escrow.sol\":1165:1187  ContractorAdded(payee) */\n      0xffffffffffffffffffffffffffffffffffffffff\n      and\n      0x29dc23bcd72bfb02ec013f6350778cb6e5908dc02e5e1234385f27e32676b6e1\n      mload(0x40)\n      mload(0x40)\n      dup1\n      swap2\n      sub\n      swap1\n      log2\n        /* \"contracts/Escrow.sol\":1052:1194  function addContractor(address payable payee) public virtual onlyOwner{... */\n      pop\n      jump\t// out\n        /* \"@openzeppelin/contracts/access/Ownable.sol\":1201:1286  function owner() public view virtual returns (address) {... */\n    tag_37:\n        /* \"@openzeppelin/contracts/access/Ownable.sol\":1247:1254  address */\n      0x00\n        /* \"@openzeppelin/contracts/access/Ownable.sol\":1273:1279  _owner */\n      dup1\n      0x00\n      swap1\n      sload\n      swap1\n      0x0100\n      exp\n      swap1\n      div\n      0xffffffffffffffffffffffffffffffffffffffff\n      and\n        /* \"@openzeppelin/contracts/access/Ownable.sol\":1266:1279  return _owner */\n      swap1\n      pop\n        /* \"@openzeppelin/contracts/access/Ownable.sol\":1201:1286  function owner() public view virtual returns (address) {... */\n      swap1\n      jump\t// out\n        /* \"contracts/Escrow.sol\":2840:2985  function taskValidationStatus(bool inputTaskValidated) public virtual onlyOwner{... */\n    tag_43:\n        /* \"@openzeppelin/contracts/access/Ownable.sol\":1094:1107  _checkOwner() */\n      tag_75\n        /* \"@openzeppelin/contracts/access/Ownable.sol\":1094:1105  _checkOwner */\n      tag_66\n        /* \"@openzeppelin/contracts/access/Ownable.sol\":1094:1107  _checkOwner() */\n      jump\t// in\n    tag_75:\n        /* \"contracts/Escrow.sol\":2941:2959  inputTaskValidated */\n      dup1\n        /* \"contracts/Escrow.sol\":2925:2938  taskValidated */\n      0x05\n      0x01\n        /* \"contracts/Escrow.sol\":2925:2959  taskValidated = inputTaskValidated */\n      0x0100\n      exp\n      dup2\n      sload\n      dup2\n      0xff\n      mul\n      not\n      and\n      swap1\n      dup4\n      iszero\n      iszero\n      mul\n      or\n      swap1\n      sstore\n      pop\n        /* \"contracts/Escrow.sol\":2965:2978  testPayment() */\n      tag_77\n        /* \"contracts/Escrow.sol\":2965:2976  testPayment */\n      tag_46\n        /* \"contracts/Escrow.sol\":2965:2978  testPayment() */\n      jump\t// in\n    tag_77:\n        /* \"contracts/Escrow.sol\":2840:2985  function taskValidationStatus(bool inputTaskValidated) public virtual onlyOwner{... */\n      pop\n      jump\t// out\n        /* \"contracts/Escrow.sol\":2991:3638  function testPayment() public virtual{... */\n    tag_46:\n        /* \"contracts/Escrow.sol\":3034:3056  uint256 balancePayment */\n      0x00\n        /* \"contracts/Escrow.sol\":3059:3080  address(this).balance */\n      selfbalance\n        /* \"contracts/Escrow.sol\":3034:3080  uint256 balancePayment = address(this).balance */\n      swap1\n      pop\n        /* \"contracts/Escrow.sol\":3086:3106  uint256 adminPayment */\n      0x00\n        /* \"contracts/Escrow.sol\":3130:3132  10 */\n      0x0a\n        /* \"contracts/Escrow.sol\":3127:3128  2 */\n      0x02\n        /* \"contracts/Escrow.sol\":3110:3124  balancePayment */\n      dup4\n        /* \"contracts/Escrow.sol\":3110:3128  balancePayment * 2 */\n      tag_79\n      swap2\n      swap1\n      tag_80\n      jump\t// in\n    tag_79:\n        /* \"contracts/Escrow.sol\":3109:3132  (balancePayment * 2)/10 */\n      tag_81\n      swap2\n      swap1\n      tag_82\n      jump\t// in\n    tag_81:\n        /* \"contracts/Escrow.sol\":3086:3132  uint256 adminPayment = (balancePayment * 2)/10 */\n      swap1\n      pop\n        /* \"contracts/Escrow.sol\":3180:3192  adminPayment */\n      dup1\n        /* \"contracts/Escrow.sol\":3162:3192  balancePayment -= adminPayment */\n      dup3\n      tag_83\n      swap2\n      swap1\n      tag_84\n      jump\t// in\n    tag_83:\n      swap2\n      pop\n        /* \"contracts/Escrow.sol\":3262:3266  true */\n      0x01\n        /* \"contracts/Escrow.sol\":3245:3266  taskCompleted == true */\n      iszero\n      iszero\n        /* \"contracts/Escrow.sol\":3245:3258  taskCompleted */\n      0x05\n      0x00\n      swap1\n      sload\n      swap1\n      0x0100\n      exp\n      swap1\n      div\n      0xff\n      and\n        /* \"contracts/Escrow.sol\":3245:3266  taskCompleted == true */\n      iszero\n      iszero\n      eq\n        /* \"contracts/Escrow.sol\":3245:3291  taskCompleted == true && taskValidated == true */\n      dup1\n      iszero\n      tag_85\n      jumpi\n      pop\n        /* \"contracts/Escrow.sol\":3287:3291  true */\n      0x01\n        /* \"contracts/Escrow.sol\":3270:3291  taskValidated == true */\n      iszero\n      iszero\n        /* \"contracts/Escrow.sol\":3270:3283  taskValidated */\n      0x05\n      0x01\n      swap1\n      sload\n      swap1\n      0x0100\n      exp\n      swap1\n      div\n      0xff\n      and\n        /* \"contracts/Escrow.sol\":3270:3291  taskValidated == true */\n      iszero\n      iszero\n      eq\n        /* \"contracts/Escrow.sol\":3245:3291  taskCompleted == true && taskValidated == true */\n    tag_85:\n        /* \"contracts/Escrow.sol\":3244:3349  (taskCompleted == true && taskValidated == true)||(adminResolution == true && adminPayContractor == true) */\n      dup1\n      tag_86\n      jumpi\n      pop\n        /* \"contracts/Escrow.sol\":3314:3318  true */\n      0x01\n        /* \"contracts/Escrow.sol\":3295:3318  adminResolution == true */\n      iszero\n      iszero\n        /* \"contracts/Escrow.sol\":3295:3310  adminResolution */\n      0x05\n      0x02\n      swap1\n      sload\n      swap1\n      0x0100\n      exp\n      swap1\n      div\n      0xff\n      and\n        /* \"contracts/Escrow.sol\":3295:3318  adminResolution == true */\n      iszero\n      iszero\n      eq\n        /* \"contracts/Escrow.sol\":3295:3348  adminResolution == true && adminPayContractor == true */\n      dup1\n      iszero\n      tag_87\n      jumpi\n      pop\n        /* \"contracts/Escrow.sol\":3344:3348  true */\n      0x01\n        /* \"contracts/Escrow.sol\":3322:3348  adminPayContractor == true */\n      iszero\n      iszero\n        /* \"contracts/Escrow.sol\":3322:3340  adminPayContractor */\n      0x05\n      0x03\n      swap1\n      sload\n      swap1\n      0x0100\n      exp\n      swap1\n      div\n      0xff\n      and\n        /* \"contracts/Escrow.sol\":3322:3348  adminPayContractor == true */\n      iszero\n      iszero\n      eq\n        /* \"contracts/Escrow.sol\":3295:3348  adminResolution == true && adminPayContractor == true */\n    tag_87:\n        /* \"contracts/Escrow.sol\":3244:3349  (taskCompleted == true && taskValidated == true)||(adminResolution == true && adminPayContractor == true) */\n    tag_86:\n        /* \"contracts/Escrow.sol\":3241:3631  if((taskCompleted == true && taskValidated == true)||(adminResolution == true && adminPayContractor == true)){... */\n      iszero\n      tag_88\n      jumpi\n        /* \"contracts/Escrow.sol\":3364:3400  contractor.sendValue(balancePayment) */\n      tag_89\n        /* \"contracts/Escrow.sol\":3385:3399  balancePayment */\n      dup3\n        /* \"contracts/Escrow.sol\":3364:3374  contractor */\n      0x01\n      0x00\n      swap1\n      sload\n      swap1\n      0x0100\n      exp\n      swap1\n      div\n      0xffffffffffffffffffffffffffffffffffffffff\n      and\n        /* \"contracts/Escrow.sol\":3364:3384  contractor.sendValue */\n      0xffffffffffffffffffffffffffffffffffffffff\n      and\n      tag_90\n      swap1\n        /* \"contracts/Escrow.sol\":3364:3400  contractor.sendValue(balancePayment) */\n      swap2\n      swap1\n      0xffffffff\n      and\n      jump\t// in\n    tag_89:\n        /* \"contracts/Escrow.sol\":3414:3443  admin.sendValue(adminPayment) */\n      tag_91\n        /* \"contracts/Escrow.sol\":3430:3442  adminPayment */\n      dup2\n        /* \"contracts/Escrow.sol\":3414:3419  admin */\n      0x03\n      0x00\n      swap1\n      sload\n      swap1\n      0x0100\n      exp\n      swap1\n      div\n      0xffffffffffffffffffffffffffffffffffffffff\n      and\n        /* \"contracts/Escrow.sol\":3414:3429  admin.sendValue */\n      0xffffffffffffffffffffffffffffffffffffffff\n      and\n      tag_90\n      swap1\n        /* \"contracts/Escrow.sol\":3414:3443  admin.sendValue(adminPayment) */\n      swap2\n      swap1\n      0xffffffff\n      and\n      jump\t// in\n    tag_91:\n        /* \"contracts/Escrow.sol\":3241:3631  if((taskCompleted == true && taskValidated == true)||(adminResolution == true && adminPayContractor == true)){... */\n      jump(tag_92)\n    tag_88:\n        /* \"contracts/Escrow.sol\":3490:3494  true */\n      0x01\n        /* \"contracts/Escrow.sol\":3471:3494  adminResolution == true */\n      iszero\n      iszero\n        /* \"contracts/Escrow.sol\":3471:3486  adminResolution */\n      0x05\n      0x02\n      swap1\n      sload\n      swap1\n      0x0100\n      exp\n      swap1\n      div\n      0xff\n      and\n        /* \"contracts/Escrow.sol\":3471:3494  adminResolution == true */\n      iszero\n      iszero\n      eq\n        /* \"contracts/Escrow.sol\":3471:3525  adminResolution == true && adminPayContractor == false */\n      dup1\n      iszero\n      tag_93\n      jumpi\n      pop\n        /* \"contracts/Escrow.sol\":3520:3525  false */\n      0x00\n        /* \"contracts/Escrow.sol\":3498:3525  adminPayContractor == false */\n      iszero\n      iszero\n        /* \"contracts/Escrow.sol\":3498:3516  adminPayContractor */\n      0x05\n      0x03\n      swap1\n      sload\n      swap1\n      0x0100\n      exp\n      swap1\n      div\n      0xff\n      and\n        /* \"contracts/Escrow.sol\":3498:3525  adminPayContractor == false */\n      iszero\n      iszero\n      eq\n        /* \"contracts/Escrow.sol\":3471:3525  adminResolution == true && adminPayContractor == false */\n    tag_93:\n        /* \"contracts/Escrow.sol\":3468:3631  if(adminResolution == true && adminPayContractor == false){... */\n      iszero\n      tag_94\n      jumpi\n        /* \"contracts/Escrow.sol\":3540:3572  client.sendValue(balancePayment) */\n      tag_95\n        /* \"contracts/Escrow.sol\":3557:3571  balancePayment */\n      dup3\n        /* \"contracts/Escrow.sol\":3540:3546  client */\n      0x02\n      0x00\n      swap1\n      sload\n      swap1\n      0x0100\n      exp\n      swap1\n      div\n      0xffffffffffffffffffffffffffffffffffffffff\n      and\n        /* \"contracts/Escrow.sol\":3540:3556  client.sendValue */\n      0xffffffffffffffffffffffffffffffffffffffff\n      and\n      tag_90\n      swap1\n        /* \"contracts/Escrow.sol\":3540:3572  client.sendValue(balancePayment) */\n      swap2\n      swap1\n      0xffffffff\n      and\n      jump\t// in\n    tag_95:\n        /* \"contracts/Escrow.sol\":3586:3615  admin.sendValue(adminPayment) */\n      tag_96\n        /* \"contracts/Escrow.sol\":3602:3614  adminPayment */\n      dup2\n        /* \"contracts/Escrow.sol\":3586:3591  admin */\n      0x03\n      0x00\n      swap1\n      sload\n      swap1\n      0x0100\n      exp\n      swap1\n      div\n      0xffffffffffffffffffffffffffffffffffffffff\n      and\n        /* \"contracts/Escrow.sol\":3586:3601  admin.sendValue */\n      0xffffffffffffffffffffffffffffffffffffffff\n      and\n      tag_90\n      swap1\n        /* \"contracts/Escrow.sol\":3586:3615  admin.sendValue(adminPayment) */\n      swap2\n      swap1\n      0xffffffff\n      and\n      jump\t// in\n    tag_96:\n        /* \"contracts/Escrow.sol\":3468:3631  if(adminResolution == true && adminPayContractor == false){... */\n    tag_94:\n        /* \"contracts/Escrow.sol\":3241:3631  if((taskCompleted == true && taskValidated == true)||(adminResolution == true && adminPayContractor == true)){... */\n    tag_92:\n        /* \"contracts/Escrow.sol\":3028:3638  {... */\n      pop\n      pop\n        /* \"contracts/Escrow.sol\":2991:3638  function testPayment() public virtual{... */\n      jump\t// out\n        /* \"contracts/Escrow.sol\":741:905  function deposit() public payable virtual onlyOwner {... */\n    tag_48:\n        /* \"@openzeppelin/contracts/access/Ownable.sol\":1094:1107  _checkOwner() */\n      tag_98\n        /* \"@openzeppelin/contracts/access/Ownable.sol\":1094:1105  _checkOwner */\n      tag_66\n        /* \"@openzeppelin/contracts/access/Ownable.sol\":1094:1107  _checkOwner() */\n      jump\t// in\n    tag_98:\n        /* \"contracts/Escrow.sol\":819:829  msg.sender */\n      caller\n        /* \"contracts/Escrow.sol\":803:809  client */\n      0x02\n      0x00\n        /* \"contracts/Escrow.sol\":803:830  client= payable(msg.sender) */\n      0x0100\n      exp\n      dup2\n      sload\n      dup2\n      0xffffffffffffffffffffffffffffffffffffffff\n      mul\n      not\n      and\n      swap1\n      dup4\n      0xffffffffffffffffffffffffffffffffffffffff\n      and\n      mul\n      or\n      swap1\n      sstore\n      pop\n        /* \"contracts/Escrow.sol\":840:854  uint256 amount */\n      0x00\n        /* \"contracts/Escrow.sol\":857:866  msg.value */\n      callvalue\n        /* \"contracts/Escrow.sol\":840:866  uint256 amount = msg.value */\n      swap1\n      pop\n        /* \"contracts/Escrow.sol\":881:898  Deposited(amount) */\n      0x2a89b2e3d580398d6dc2db5e0f336b52602bbaa51afa9bb5cdf59239cf0d2bea\n        /* \"contracts/Escrow.sol\":891:897  amount */\n      dup2\n        /* \"contracts/Escrow.sol\":881:898  Deposited(amount) */\n      mload(0x40)\n      tag_100\n      swap2\n      swap1\n      tag_101\n      jump\t// in\n    tag_100:\n      mload(0x40)\n      dup1\n      swap2\n      sub\n      swap1\n      log1\n        /* \"contracts/Escrow.sol\":793:905  {... */\n      pop\n        /* \"contracts/Escrow.sol\":741:905  function deposit() public payable virtual onlyOwner {... */\n      jump\t// out\n        /* \"@openzeppelin/contracts/access/Ownable.sol\":2081:2279  function transferOwnership(address newOwner) public virtual onlyOwner {... */\n    tag_53:\n        /* \"@openzeppelin/contracts/access/Ownable.sol\":1094:1107  _checkOwner() */\n      tag_103\n        /* \"@openzeppelin/contracts/access/Ownable.sol\":1094:1105  _checkOwner */\n      tag_66\n        /* \"@openzeppelin/contracts/access/Ownable.sol\":1094:1107  _checkOwner() */\n      jump\t// in\n    tag_103:\n        /* \"@openzeppelin/contracts/access/Ownable.sol\":2189:2190  0 */\n      0x00\n        /* \"@openzeppelin/contracts/access/Ownable.sol\":2169:2191  newOwner != address(0) */\n      0xffffffffffffffffffffffffffffffffffffffff\n      and\n        /* \"@openzeppelin/contracts/access/Ownable.sol\":2169:2177  newOwner */\n      dup2\n        /* \"@openzeppelin/contracts/access/Ownable.sol\":2169:2191  newOwner != address(0) */\n      0xffffffffffffffffffffffffffffffffffffffff\n      and\n      eq\n      iszero\n        /* \"@openzeppelin/contracts/access/Ownable.sol\":2161:2234  require(newOwner != address(0), \"Ownable: new owner is the zero address\") */\n      tag_105\n      jumpi\n      mload(0x40)\n      0x08c379a000000000000000000000000000000000000000000000000000000000\n      dup2\n      mstore\n      0x04\n      add\n      tag_106\n      swap1\n      tag_107\n      jump\t// in\n    tag_106:\n      mload(0x40)\n      dup1\n      swap2\n      sub\n      swap1\n      revert\n    tag_105:\n        /* \"@openzeppelin/contracts/access/Ownable.sol\":2244:2272  _transferOwnership(newOwner) */\n      tag_108\n        /* \"@openzeppelin/contracts/access/Ownable.sol\":2263:2271  newOwner */\n      dup2\n        /* \"@openzeppelin/contracts/access/Ownable.sol\":2244:2262  _transferOwnership */\n      tag_69\n        /* \"@openzeppelin/contracts/access/Ownable.sol\":2244:2272  _transferOwnership(newOwner) */\n      jump\t// in\n    tag_108:\n        /* \"@openzeppelin/contracts/access/Ownable.sol\":2081:2279  function transferOwnership(address newOwner) public virtual onlyOwner {... */\n      pop\n      jump\t// out\n        /* \"contracts/Escrow.sol\":2018:2135  function _checkAdmin() internal view virtual {... */\n    tag_56:\n        /* \"contracts/Escrow.sol\":2095:2100  admin */\n      0x03\n      0x00\n      swap1\n      sload\n      swap1\n      0x0100\n      exp\n      swap1\n      div\n      0xffffffffffffffffffffffffffffffffffffffff\n      and\n        /* \"contracts/Escrow.sol\":2081:2100  msg.sender == admin */\n      0xffffffffffffffffffffffffffffffffffffffff\n      and\n        /* \"contracts/Escrow.sol\":2081:2091  msg.sender */\n      caller\n        /* \"contracts/Escrow.sol\":2081:2100  msg.sender == admin */\n      0xffffffffffffffffffffffffffffffffffffffff\n      and\n      eq\n        /* \"contracts/Escrow.sol\":2073:2128  require(msg.sender == admin, \"caller is not the admin\") */\n      tag_110\n      jumpi\n      mload(0x40)\n      0x08c379a000000000000000000000000000000000000000000000000000000000\n      dup2\n      mstore\n      0x04\n      add\n      tag_111\n      swap1\n      tag_112\n      jump\t// in\n    tag_111:\n      mload(0x40)\n      dup1\n      swap2\n      sub\n      swap1\n      revert\n    tag_110:\n        /* \"contracts/Escrow.sol\":2018:2135  function _checkAdmin() internal view virtual {... */\n      jump\t// out\n        /* \"contracts/Escrow.sol\":2216:2348  function _checkContractor() internal view virtual {... */\n    tag_61:\n        /* \"contracts/Escrow.sol\":2298:2308  contractor */\n      0x01\n      0x00\n      swap1\n      sload\n      swap1\n      0x0100\n      exp\n      swap1\n      div\n      0xffffffffffffffffffffffffffffffffffffffff\n      and\n        /* \"contracts/Escrow.sol\":2284:2308  msg.sender == contractor */\n      0xffffffffffffffffffffffffffffffffffffffff\n      and\n        /* \"contracts/Escrow.sol\":2284:2294  msg.sender */\n      caller\n        /* \"contracts/Escrow.sol\":2284:2308  msg.sender == contractor */\n      0xffffffffffffffffffffffffffffffffffffffff\n      and\n      eq\n        /* \"contracts/Escrow.sol\":2276:2341  require(msg.sender == contractor, \"caller is not the contractor\") */\n      tag_114\n      jumpi\n      mload(0x40)\n      0x08c379a000000000000000000000000000000000000000000000000000000000\n      dup2\n      mstore\n      0x04\n      add\n      tag_115\n      swap1\n      tag_116\n      jump\t// in\n    tag_115:\n      mload(0x40)\n      dup1\n      swap2\n      sub\n      swap1\n      revert\n    tag_114:\n        /* \"contracts/Escrow.sol\":2216:2348  function _checkContractor() internal view virtual {... */\n      jump\t// out\n        /* \"@openzeppelin/contracts/access/Ownable.sol\":1359:1489  function _checkOwner() internal view virtual {... */\n    tag_66:\n        /* \"@openzeppelin/contracts/access/Ownable.sol\":1433:1445  _msgSender() */\n      tag_118\n        /* \"@openzeppelin/contracts/access/Ownable.sol\":1433:1443  _msgSender */\n      tag_119\n        /* \"@openzeppelin/contracts/access/Ownable.sol\":1433:1445  _msgSender() */\n      jump\t// in\n    tag_118:\n        /* \"@openzeppelin/contracts/access/Ownable.sol\":1422:1445  owner() == _msgSender() */\n      0xffffffffffffffffffffffffffffffffffffffff\n      and\n        /* \"@openzeppelin/contracts/access/Ownable.sol\":1422:1429  owner() */\n      tag_120\n        /* \"@openzeppelin/contracts/access/Ownable.sol\":1422:1427  owner */\n      tag_37\n        /* \"@openzeppelin/contracts/access/Ownable.sol\":1422:1429  owner() */\n      jump\t// in\n    tag_120:\n        /* \"@openzeppelin/contracts/access/Ownable.sol\":1422:1445  owner() == _msgSender() */\n      0xffffffffffffffffffffffffffffffffffffffff\n      and\n      eq\n        /* \"@openzeppelin/contracts/access/Ownable.sol\":1414:1482  require(owner() == _msgSender(), \"Ownable: caller is not the owner\") */\n      tag_121\n      jumpi\n      mload(0x40)\n      0x08c379a000000000000000000000000000000000000000000000000000000000\n      dup2\n      mstore\n      0x04\n      add\n      tag_122\n      swap1\n      tag_123\n      jump\t// in\n    tag_122:\n      mload(0x40)\n      dup1\n      swap2\n      sub\n      swap1\n      revert\n    tag_121:\n        /* \"@openzeppelin/contracts/access/Ownable.sol\":1359:1489  function _checkOwner() internal view virtual {... */\n      jump\t// out\n        /* \"@openzeppelin/contracts/access/Ownable.sol\":2433:2620  function _transferOwnership(address newOwner) internal virtual {... */\n    tag_69:\n        /* \"@openzeppelin/contracts/access/Ownable.sol\":2506:2522  address oldOwner */\n      0x00\n        /* \"@openzeppelin/contracts/access/Ownable.sol\":2525:2531  _owner */\n      dup1\n      0x00\n      swap1\n      sload\n      swap1\n      0x0100\n      exp\n      swap1\n      div\n      0xffffffffffffffffffffffffffffffffffffffff\n      and\n        /* \"@openzeppelin/contracts/access/Ownable.sol\":2506:2531  address oldOwner = _owner */\n      swap1\n      pop\n        /* \"@openzeppelin/contracts/access/Ownable.sol\":2550:2558  newOwner */\n      dup2\n        /* \"@openzeppelin/contracts/access/Ownable.sol\":2541:2547  _owner */\n      0x00\n      dup1\n        /* \"@openzeppelin/contracts/access/Ownable.sol\":2541:2558  _owner = newOwner */\n      0x0100\n      exp\n      dup2\n      sload\n      dup2\n      0xffffffffffffffffffffffffffffffffffffffff\n      mul\n      not\n      and\n      swap1\n      dup4\n      0xffffffffffffffffffffffffffffffffffffffff\n      and\n      mul\n      or\n      swap1\n      sstore\n      pop\n        /* \"@openzeppelin/contracts/access/Ownable.sol\":2604:2612  newOwner */\n      dup2\n        /* \"@openzeppelin/contracts/access/Ownable.sol\":2573:2613  OwnershipTransferred(oldOwner, newOwner) */\n      0xffffffffffffffffffffffffffffffffffffffff\n      and\n        /* \"@openzeppelin/contracts/access/Ownable.sol\":2594:2602  oldOwner */\n      dup2\n        /* \"@openzeppelin/contracts/access/Ownable.sol\":2573:2613  OwnershipTransferred(oldOwner, newOwner) */\n      0xffffffffffffffffffffffffffffffffffffffff\n      and\n      0x8be0079c531659141344cd1fd0a4f28419497f9722a3daafe3b4186f6b6457e0\n      mload(0x40)\n      mload(0x40)\n      dup1\n      swap2\n      sub\n      swap1\n      log3\n        /* \"@openzeppelin/contracts/access/Ownable.sol\":2496:2620  {... */\n      pop\n        /* \"@openzeppelin/contracts/access/Ownable.sol\":2433:2620  function _transferOwnership(address newOwner) internal virtual {... */\n      pop\n      jump\t// out\n        /* \"@openzeppelin/contracts/utils/Address.sol\":2412:2724  function sendValue(address payable recipient, uint256 amount) internal {... */\n    tag_90:\n        /* \"@openzeppelin/contracts/utils/Address.sol\":2526:2532  amount */\n      dup1\n        /* \"@openzeppelin/contracts/utils/Address.sol\":2501:2522  address(this).balance */\n      selfbalance\n        /* \"@openzeppelin/contracts/utils/Address.sol\":2501:2532  address(this).balance >= amount */\n      lt\n      iszero\n        /* \"@openzeppelin/contracts/utils/Address.sol\":2493:2566  require(address(this).balance >= amount, \"Address: insufficient balance\") */\n      tag_126\n      jumpi\n      mload(0x40)\n      0x08c379a000000000000000000000000000000000000000000000000000000000\n      dup2\n      mstore\n      0x04\n      add\n      tag_127\n      swap1\n      tag_128\n      jump\t// in\n    tag_127:\n      mload(0x40)\n      dup1\n      swap2\n      sub\n      swap1\n      revert\n    tag_126:\n        /* \"@openzeppelin/contracts/utils/Address.sol\":2578:2590  bool success */\n      0x00\n        /* \"@openzeppelin/contracts/utils/Address.sol\":2596:2605  recipient */\n      dup3\n        /* \"@openzeppelin/contracts/utils/Address.sol\":2596:2610  recipient.call */\n      0xffffffffffffffffffffffffffffffffffffffff\n      and\n        /* \"@openzeppelin/contracts/utils/Address.sol\":2618:2624  amount */\n      dup3\n        /* \"@openzeppelin/contracts/utils/Address.sol\":2596:2629  recipient.call{value: amount}(\"\") */\n      mload(0x40)\n      tag_129\n      swap1\n      tag_130\n      jump\t// in\n    tag_129:\n      0x00\n      mload(0x40)\n      dup1\n      dup4\n      sub\n      dup2\n      dup6\n      dup8\n      gas\n      call\n      swap3\n      pop\n      pop\n      pop\n      returndatasize\n      dup1\n      0x00\n      dup2\n      eq\n      tag_133\n      jumpi\n      mload(0x40)\n      swap2\n      pop\n      and(add(returndatasize, 0x3f), not(0x1f))\n      dup3\n      add\n      0x40\n      mstore\n      returndatasize\n      dup3\n      mstore\n      returndatasize\n      0x00\n      0x20\n      dup5\n      add\n      returndatacopy\n      jump(tag_132)\n    tag_133:\n      0x60\n      swap2\n      pop\n    tag_132:\n      pop\n        /* \"@openzeppelin/contracts/utils/Address.sol\":2577:2629  (bool success, ) = recipient.call{value: amount}(\"\") */\n      pop\n      swap1\n      pop\n        /* \"@openzeppelin/contracts/utils/Address.sol\":2647:2654  success */\n      dup1\n        /* \"@openzeppelin/contracts/utils/Address.sol\":2639:2717  require(success, \"Address: unable to send value, recipient may have reverted\") */\n      tag_134\n      jumpi\n      mload(0x40)\n      0x08c379a000000000000000000000000000000000000000000000000000000000\n      dup2\n      mstore\n      0x04\n      add\n      tag_135\n      swap1\n      tag_136\n      jump\t// in\n    tag_135:\n      mload(0x40)\n      dup1\n      swap2\n      sub\n      swap1\n      revert\n    tag_134:\n        /* \"@openzeppelin/contracts/utils/Address.sol\":2483:2724  {... */\n      pop\n        /* \"@openzeppelin/contracts/utils/Address.sol\":2412:2724  function sendValue(address payable recipient, uint256 amount) internal {... */\n      pop\n      pop\n      jump\t// out\n        /* \"@openzeppelin/contracts/utils/Context.sol\":640:736  function _msgSender() internal view virtual returns (address) {... */\n    tag_119:\n        /* \"@openzeppelin/contracts/utils/Context.sol\":693:700  address */\n      0x00\n        /* \"@openzeppelin/contracts/utils/Context.sol\":719:729  msg.sender */\n      caller\n        /* \"@openzeppelin/contracts/utils/Context.sol\":712:729  return msg.sender */\n      swap1\n      pop\n        /* \"@openzeppelin/contracts/utils/Context.sol\":640:736  function _msgSender() internal view virtual returns (address) {... */\n      swap1\n      jump\t// out\n        /* \"#utility.yul\":7:146   */\n    tag_139:\n        /* \"#utility.yul\":53:58   */\n      0x00\n        /* \"#utility.yul\":91:97   */\n      dup2\n        /* \"#utility.yul\":78:98   */\n      calldataload\n        /* \"#utility.yul\":69:98   */\n      swap1\n      pop\n        /* \"#utility.yul\":107:140   */\n      tag_141\n        /* \"#utility.yul\":134:139   */\n      dup2\n        /* \"#utility.yul\":107:140   */\n      tag_142\n      jump\t// in\n    tag_141:\n        /* \"#utility.yul\":7:146   */\n      swap3\n      swap2\n      pop\n      pop\n      jump\t// out\n        /* \"#utility.yul\":152:307   */\n    tag_143:\n        /* \"#utility.yul\":206:211   */\n      0x00\n        /* \"#utility.yul\":244:250   */\n      dup2\n        /* \"#utility.yul\":231:251   */\n      calldataload\n        /* \"#utility.yul\":222:251   */\n      swap1\n      pop\n        /* \"#utility.yul\":260:301   */\n      tag_145\n        /* \"#utility.yul\":295:300   */\n      dup2\n        /* \"#utility.yul\":260:301   */\n      tag_146\n      jump\t// in\n    tag_145:\n        /* \"#utility.yul\":152:307   */\n      swap3\n      swap2\n      pop\n      pop\n      jump\t// out\n        /* \"#utility.yul\":313:446   */\n    tag_147:\n        /* \"#utility.yul\":356:361   */\n      0x00\n        /* \"#utility.yul\":394:400   */\n      dup2\n        /* \"#utility.yul\":381:401   */\n      calldataload\n        /* \"#utility.yul\":372:401   */\n      swap1\n      pop\n        /* \"#utility.yul\":410:440   */\n      tag_149\n        /* \"#utility.yul\":434:439   */\n      dup2\n        /* \"#utility.yul\":410:440   */\n      tag_150\n      jump\t// in\n    tag_149:\n        /* \"#utility.yul\":313:446   */\n      swap3\n      swap2\n      pop\n      pop\n      jump\t// out\n        /* \"#utility.yul\":452:781   */\n    tag_52:\n        /* \"#utility.yul\":511:517   */\n      0x00\n        /* \"#utility.yul\":560:562   */\n      0x20\n        /* \"#utility.yul\":548:557   */\n      dup3\n        /* \"#utility.yul\":539:546   */\n      dup5\n        /* \"#utility.yul\":535:558   */\n      sub\n        /* \"#utility.yul\":531:563   */\n      slt\n        /* \"#utility.yul\":528:647   */\n      iszero\n      tag_152\n      jumpi\n        /* \"#utility.yul\":566:645   */\n      tag_153\n      tag_154\n      jump\t// in\n    tag_153:\n        /* \"#utility.yul\":528:647   */\n    tag_152:\n        /* \"#utility.yul\":686:687   */\n      0x00\n        /* \"#utility.yul\":711:764   */\n      tag_155\n        /* \"#utility.yul\":756:763   */\n      dup5\n        /* \"#utility.yul\":747:753   */\n      dup3\n        /* \"#utility.yul\":736:745   */\n      dup6\n        /* \"#utility.yul\":732:754   */\n      add\n        /* \"#utility.yul\":711:764   */\n      tag_139\n      jump\t// in\n    tag_155:\n        /* \"#utility.yul\":701:764   */\n      swap2\n      pop\n        /* \"#utility.yul\":657:774   */\n      pop\n        /* \"#utility.yul\":452:781   */\n      swap3\n      swap2\n      pop\n      pop\n      jump\t// out\n        /* \"#utility.yul\":787:1132   */\n    tag_26:\n        /* \"#utility.yul\":854:860   */\n      0x00\n        /* \"#utility.yul\":903:905   */\n      0x20\n        /* \"#utility.yul\":891:900   */\n      dup3\n        /* \"#utility.yul\":882:889   */\n      dup5\n        /* \"#utility.yul\":878:901   */\n      sub\n        /* \"#utility.yul\":874:906   */\n      slt\n        /* \"#utility.yul\":871:990   */\n      iszero\n      tag_157\n      jumpi\n        /* \"#utility.yul\":909:988   */\n      tag_158\n      tag_154\n      jump\t// in\n    tag_158:\n        /* \"#utility.yul\":871:990   */\n    tag_157:\n        /* \"#utility.yul\":1029:1030   */\n      0x00\n        /* \"#utility.yul\":1054:1115   */\n      tag_159\n        /* \"#utility.yul\":1107:1114   */\n      dup5\n        /* \"#utility.yul\":1098:1104   */\n      dup3\n        /* \"#utility.yul\":1087:1096   */\n      dup6\n        /* \"#utility.yul\":1083:1105   */\n      add\n        /* \"#utility.yul\":1054:1115   */\n      tag_143\n      jump\t// in\n    tag_159:\n        /* \"#utility.yul\":1044:1115   */\n      swap2\n      pop\n        /* \"#utility.yul\":1000:1125   */\n      pop\n        /* \"#utility.yul\":787:1132   */\n      swap3\n      swap2\n      pop\n      pop\n      jump\t// out\n        /* \"#utility.yul\":1138:1461   */\n    tag_21:\n        /* \"#utility.yul\":1194:1200   */\n      0x00\n        /* \"#utility.yul\":1243:1245   */\n      0x20\n        /* \"#utility.yul\":1231:1240   */\n      dup3\n        /* \"#utility.yul\":1222:1229   */\n      dup5\n        /* \"#utility.yul\":1218:1241   */\n      sub\n        /* \"#utility.yul\":1214:1246   */\n      slt\n        /* \"#utility.yul\":1211:1330   */\n      iszero\n      tag_161\n      jumpi\n        /* \"#utility.yul\":1249:1328   */\n      tag_162\n      tag_154\n      jump\t// in\n    tag_162:\n        /* \"#utility.yul\":1211:1330   */\n    tag_161:\n        /* \"#utility.yul\":1369:1370   */\n      0x00\n        /* \"#utility.yul\":1394:1444   */\n      tag_163\n        /* \"#utility.yul\":1436:1443   */\n      dup5\n        /* \"#utility.yul\":1427:1433   */\n      dup3\n        /* \"#utility.yul\":1416:1425   */\n      dup6\n        /* \"#utility.yul\":1412:1434   */\n      add\n        /* \"#utility.yul\":1394:1444   */\n      tag_147\n      jump\t// in\n    tag_163:\n        /* \"#utility.yul\":1384:1444   */\n      swap2\n      pop\n        /* \"#utility.yul\":1340:1454   */\n      pop\n        /* \"#utility.yul\":1138:1461   */\n      swap3\n      swap2\n      pop\n      pop\n      jump\t// out\n        /* \"#utility.yul\":1467:1929   */\n    tag_16:\n        /* \"#utility.yul\":1529:1535   */\n      0x00\n        /* \"#utility.yul\":1537:1543   */\n      dup1\n        /* \"#utility.yul\":1586:1588   */\n      0x40\n        /* \"#utility.yul\":1574:1583   */\n      dup4\n        /* \"#utility.yul\":1565:1572   */\n      dup6\n        /* \"#utility.yul\":1561:1584   */\n      sub\n        /* \"#utility.yul\":1557:1589   */\n      slt\n        /* \"#utility.yul\":1554:1673   */\n      iszero\n      tag_165\n      jumpi\n        /* \"#utility.yul\":1592:1671   */\n      tag_166\n      tag_154\n      jump\t// in\n    tag_166:\n        /* \"#utility.yul\":1554:1673   */\n    tag_165:\n        /* \"#utility.yul\":1712:1713   */\n      0x00\n        /* \"#utility.yul\":1737:1787   */\n      tag_167\n        /* \"#utility.yul\":1779:1786   */\n      dup6\n        /* \"#utility.yul\":1770:1776   */\n      dup3\n        /* \"#utility.yul\":1759:1768   */\n      dup7\n        /* \"#utility.yul\":1755:1777   */\n      add\n        /* \"#utility.yul\":1737:1787   */\n      tag_147\n      jump\t// in\n    tag_167:\n        /* \"#utility.yul\":1727:1787   */\n      swap3\n      pop\n        /* \"#utility.yul\":1683:1797   */\n      pop\n        /* \"#utility.yul\":1836:1838   */\n      0x20\n        /* \"#utility.yul\":1862:1912   */\n      tag_168\n        /* \"#utility.yul\":1904:1911   */\n      dup6\n        /* \"#utility.yul\":1895:1901   */\n      dup3\n        /* \"#utility.yul\":1884:1893   */\n      dup7\n        /* \"#utility.yul\":1880:1902   */\n      add\n        /* \"#utility.yul\":1862:1912   */\n      tag_147\n      jump\t// in\n    tag_168:\n        /* \"#utility.yul\":1852:1912   */\n      swap2\n      pop\n        /* \"#utility.yul\":1807:1922   */\n      pop\n        /* \"#utility.yul\":1467:1929   */\n      swap3\n      pop\n      swap3\n      swap1\n      pop\n      jump\t// out\n        /* \"#utility.yul\":1935:2053   */\n    tag_169:\n        /* \"#utility.yul\":2022:2046   */\n      tag_171\n        /* \"#utility.yul\":2040:2045   */\n      dup2\n        /* \"#utility.yul\":2022:2046   */\n      tag_172\n      jump\t// in\n    tag_171:\n        /* \"#utility.yul\":2017:2020   */\n      dup3\n        /* \"#utility.yul\":2010:2047   */\n      mstore\n        /* \"#utility.yul\":1935:2053   */\n      pop\n      pop\n      jump\t// out\n        /* \"#utility.yul\":2059:2425   */\n    tag_173:\n        /* \"#utility.yul\":2201:2204   */\n      0x00\n        /* \"#utility.yul\":2222:2289   */\n      tag_175\n        /* \"#utility.yul\":2286:2288   */\n      0x26\n        /* \"#utility.yul\":2281:2284   */\n      dup4\n        /* \"#utility.yul\":2222:2289   */\n      tag_176\n      jump\t// in\n    tag_175:\n        /* \"#utility.yul\":2215:2289   */\n      swap2\n      pop\n        /* \"#utility.yul\":2298:2391   */\n      tag_177\n        /* \"#utility.yul\":2387:2390   */\n      dup3\n        /* \"#utility.yul\":2298:2391   */\n      tag_178\n      jump\t// in\n    tag_177:\n        /* \"#utility.yul\":2416:2418   */\n      0x40\n        /* \"#utility.yul\":2411:2414   */\n      dup3\n        /* \"#utility.yul\":2407:2419   */\n      add\n        /* \"#utility.yul\":2400:2419   */\n      swap1\n      pop\n        /* \"#utility.yul\":2059:2425   */\n      swap2\n      swap1\n      pop\n      jump\t// out\n        /* \"#utility.yul\":2431:2797   */\n    tag_179:\n        /* \"#utility.yul\":2573:2576   */\n      0x00\n        /* \"#utility.yul\":2594:2661   */\n      tag_181\n        /* \"#utility.yul\":2658:2660   */\n      0x3a\n        /* \"#utility.yul\":2653:2656   */\n      dup4\n        /* \"#utility.yul\":2594:2661   */\n      tag_176\n      jump\t// in\n    tag_181:\n        /* \"#utility.yul\":2587:2661   */\n      swap2\n      pop\n        /* \"#utility.yul\":2670:2763   */\n      tag_182\n        /* \"#utility.yul\":2759:2762   */\n      dup3\n        /* \"#utility.yul\":2670:2763   */\n      tag_183\n      jump\t// in\n    tag_182:\n        /* \"#utility.yul\":2788:2790   */\n      0x40\n        /* \"#utility.yul\":2783:2786   */\n      dup3\n        /* \"#utility.yul\":2779:2791   */\n      add\n        /* \"#utility.yul\":2772:2791   */\n      swap1\n      pop\n        /* \"#utility.yul\":2431:2797   */\n      swap2\n      swap1\n      pop\n      jump\t// out\n        /* \"#utility.yul\":2803:3169   */\n    tag_184:\n        /* \"#utility.yul\":2945:2948   */\n      0x00\n        /* \"#utility.yul\":2966:3033   */\n      tag_186\n        /* \"#utility.yul\":3030:3032   */\n      0x1d\n        /* \"#utility.yul\":3025:3028   */\n      dup4\n        /* \"#utility.yul\":2966:3033   */\n      tag_176\n      jump\t// in\n    tag_186:\n        /* \"#utility.yul\":2959:3033   */\n      swap2\n      pop\n        /* \"#utility.yul\":3042:3135   */\n      tag_187\n        /* \"#utility.yul\":3131:3134   */\n      dup3\n        /* \"#utility.yul\":3042:3135   */\n      tag_188\n      jump\t// in\n    tag_187:\n        /* \"#utility.yul\":3160:3162   */\n      0x20\n        /* \"#utility.yul\":3155:3158   */\n      dup3\n        /* \"#utility.yul\":3151:3163   */\n      add\n        /* \"#utility.yul\":3144:3163   */\n      swap1\n      pop\n        /* \"#utility.yul\":2803:3169   */\n      swap2\n      swap1\n      pop\n      jump\t// out\n        /* \"#utility.yul\":3175:3541   */\n    tag_189:\n        /* \"#utility.yul\":3317:3320   */\n      0x00\n        /* \"#utility.yul\":3338:3405   */\n      tag_191\n        /* \"#utility.yul\":3402:3404   */\n      0x1c\n        /* \"#utility.yul\":3397:3400   */\n      dup4\n        /* \"#utility.yul\":3338:3405   */\n      tag_176\n      jump\t// in\n    tag_191:\n        /* \"#utility.yul\":3331:3405   */\n      swap2\n      pop\n        /* \"#utility.yul\":3414:3507   */\n      tag_192\n        /* \"#utility.yul\":3503:3506   */\n      dup3\n        /* \"#utility.yul\":3414:3507   */\n      tag_193\n      jump\t// in\n    tag_192:\n        /* \"#utility.yul\":3532:3534   */\n      0x20\n        /* \"#utility.yul\":3527:3530   */\n      dup3\n        /* \"#utility.yul\":3523:3535   */\n      add\n        /* \"#utility.yul\":3516:3535   */\n      swap1\n      pop\n        /* \"#utility.yul\":3175:3541   */\n      swap2\n      swap1\n      pop\n      jump\t// out\n        /* \"#utility.yul\":3547:3913   */\n    tag_194:\n        /* \"#utility.yul\":3689:3692   */\n      0x00\n        /* \"#utility.yul\":3710:3777   */\n      tag_196\n        /* \"#utility.yul\":3774:3776   */\n      0x20\n        /* \"#utility.yul\":3769:3772   */\n      dup4\n        /* \"#utility.yul\":3710:3777   */\n      tag_176\n      jump\t// in\n    tag_196:\n        /* \"#utility.yul\":3703:3777   */\n      swap2\n      pop\n        /* \"#utility.yul\":3786:3879   */\n      tag_197\n        /* \"#utility.yul\":3875:3878   */\n      dup3\n        /* \"#utility.yul\":3786:3879   */\n      tag_198\n      jump\t// in\n    tag_197:\n        /* \"#utility.yul\":3904:3906   */\n      0x20\n        /* \"#utility.yul\":3899:3902   */\n      dup3\n        /* \"#utility.yul\":3895:3907   */\n      add\n        /* \"#utility.yul\":3888:3907   */\n      swap1\n      pop\n        /* \"#utility.yul\":3547:3913   */\n      swap2\n      swap1\n      pop\n      jump\t// out\n        /* \"#utility.yul\":3919:4317   */\n    tag_199:\n        /* \"#utility.yul\":4078:4081   */\n      0x00\n        /* \"#utility.yul\":4099:4182   */\n      tag_201\n        /* \"#utility.yul\":4180:4181   */\n      0x00\n        /* \"#utility.yul\":4175:4178   */\n      dup4\n        /* \"#utility.yul\":4099:4182   */\n      tag_202\n      jump\t// in\n    tag_201:\n        /* \"#utility.yul\":4092:4182   */\n      swap2\n      pop\n        /* \"#utility.yul\":4191:4284   */\n      tag_203\n        /* \"#utility.yul\":4280:4283   */\n      dup3\n        /* \"#utility.yul\":4191:4284   */\n      tag_204\n      jump\t// in\n    tag_203:\n        /* \"#utility.yul\":4309:4310   */\n      0x00\n        /* \"#utility.yul\":4304:4307   */\n      dup3\n        /* \"#utility.yul\":4300:4311   */\n      add\n        /* \"#utility.yul\":4293:4311   */\n      swap1\n      pop\n        /* \"#utility.yul\":3919:4317   */\n      swap2\n      swap1\n      pop\n      jump\t// out\n        /* \"#utility.yul\":4323:4689   */\n    tag_205:\n        /* \"#utility.yul\":4465:4468   */\n      0x00\n        /* \"#utility.yul\":4486:4553   */\n      tag_207\n        /* \"#utility.yul\":4550:4552   */\n      0x17\n        /* \"#utility.yul\":4545:4548   */\n      dup4\n        /* \"#utility.yul\":4486:4553   */\n      tag_176\n      jump\t// in\n    tag_207:\n        /* \"#utility.yul\":4479:4553   */\n      swap2\n      pop\n        /* \"#utility.yul\":4562:4655   */\n      tag_208\n        /* \"#utility.yul\":4651:4654   */\n      dup3\n        /* \"#utility.yul\":4562:4655   */\n      tag_209\n      jump\t// in\n    tag_208:\n        /* \"#utility.yul\":4680:4682   */\n      0x20\n        /* \"#utility.yul\":4675:4678   */\n      dup3\n        /* \"#utility.yul\":4671:4683   */\n      add\n        /* \"#utility.yul\":4664:4683   */\n      swap1\n      pop\n        /* \"#utility.yul\":4323:4689   */\n      swap2\n      swap1\n      pop\n      jump\t// out\n        /* \"#utility.yul\":4695:4813   */\n    tag_210:\n        /* \"#utility.yul\":4782:4806   */\n      tag_212\n        /* \"#utility.yul\":4800:4805   */\n      dup2\n        /* \"#utility.yul\":4782:4806   */\n      tag_213\n      jump\t// in\n    tag_212:\n        /* \"#utility.yul\":4777:4780   */\n      dup3\n        /* \"#utility.yul\":4770:4807   */\n      mstore\n        /* \"#utility.yul\":4695:4813   */\n      pop\n      pop\n      jump\t// out\n        /* \"#utility.yul\":4819:5198   */\n    tag_130:\n        /* \"#utility.yul\":5003:5006   */\n      0x00\n        /* \"#utility.yul\":5025:5172   */\n      tag_215\n        /* \"#utility.yul\":5168:5171   */\n      dup3\n        /* \"#utility.yul\":5025:5172   */\n      tag_199\n      jump\t// in\n    tag_215:\n        /* \"#utility.yul\":5018:5172   */\n      swap2\n      pop\n        /* \"#utility.yul\":5189:5192   */\n      dup2\n        /* \"#utility.yul\":5182:5192   */\n      swap1\n      pop\n        /* \"#utility.yul\":4819:5198   */\n      swap2\n      swap1\n      pop\n      jump\t// out\n        /* \"#utility.yul\":5204:5426   */\n    tag_39:\n        /* \"#utility.yul\":5297:5301   */\n      0x00\n        /* \"#utility.yul\":5335:5337   */\n      0x20\n        /* \"#utility.yul\":5324:5333   */\n      dup3\n        /* \"#utility.yul\":5320:5338   */\n      add\n        /* \"#utility.yul\":5312:5338   */\n      swap1\n      pop\n        /* \"#utility.yul\":5348:5419   */\n      tag_217\n        /* \"#utility.yul\":5416:5417   */\n      0x00\n        /* \"#utility.yul\":5405:5414   */\n      dup4\n        /* \"#utility.yul\":5401:5418   */\n      add\n        /* \"#utility.yul\":5392:5398   */\n      dup5\n        /* \"#utility.yul\":5348:5419   */\n      tag_169\n      jump\t// in\n    tag_217:\n        /* \"#utility.yul\":5204:5426   */\n      swap3\n      swap2\n      pop\n      pop\n      jump\t// out\n        /* \"#utility.yul\":5432:5851   */\n    tag_107:\n        /* \"#utility.yul\":5598:5602   */\n      0x00\n        /* \"#utility.yul\":5636:5638   */\n      0x20\n        /* \"#utility.yul\":5625:5634   */\n      dup3\n        /* \"#utility.yul\":5621:5639   */\n      add\n        /* \"#utility.yul\":5613:5639   */\n      swap1\n      pop\n        /* \"#utility.yul\":5685:5694   */\n      dup2\n        /* \"#utility.yul\":5679:5683   */\n      dup2\n        /* \"#utility.yul\":5675:5695   */\n      sub\n        /* \"#utility.yul\":5671:5672   */\n      0x00\n        /* \"#utility.yul\":5660:5669   */\n      dup4\n        /* \"#utility.yul\":5656:5673   */\n      add\n        /* \"#utility.yul\":5649:5696   */\n      mstore\n        /* \"#utility.yul\":5713:5844   */\n      tag_219\n        /* \"#utility.yul\":5839:5843   */\n      dup2\n        /* \"#utility.yul\":5713:5844   */\n      tag_173\n      jump\t// in\n    tag_219:\n        /* \"#utility.yul\":5705:5844   */\n      swap1\n      pop\n        /* \"#utility.yul\":5432:5851   */\n      swap2\n      swap1\n      pop\n      jump\t// out\n        /* \"#utility.yul\":5857:6276   */\n    tag_136:\n        /* \"#utility.yul\":6023:6027   */\n      0x00\n        /* \"#utility.yul\":6061:6063   */\n      0x20\n        /* \"#utility.yul\":6050:6059   */\n      dup3\n        /* \"#utility.yul\":6046:6064   */\n      add\n        /* \"#utility.yul\":6038:6064   */\n      swap1\n      pop\n        /* \"#utility.yul\":6110:6119   */\n      dup2\n        /* \"#utility.yul\":6104:6108   */\n      dup2\n        /* \"#utility.yul\":6100:6120   */\n      sub\n        /* \"#utility.yul\":6096:6097   */\n      0x00\n        /* \"#utility.yul\":6085:6094   */\n      dup4\n        /* \"#utility.yul\":6081:6098   */\n      add\n        /* \"#utility.yul\":6074:6121   */\n      mstore\n        /* \"#utility.yul\":6138:6269   */\n      tag_221\n        /* \"#utility.yul\":6264:6268   */\n      dup2\n        /* \"#utility.yul\":6138:6269   */\n      tag_179\n      jump\t// in\n    tag_221:\n        /* \"#utility.yul\":6130:6269   */\n      swap1\n      pop\n        /* \"#utility.yul\":5857:6276   */\n      swap2\n      swap1\n      pop\n      jump\t// out\n        /* \"#utility.yul\":6282:6701   */\n    tag_128:\n        /* \"#utility.yul\":6448:6452   */\n      0x00\n        /* \"#utility.yul\":6486:6488   */\n      0x20\n        /* \"#utility.yul\":6475:6484   */\n      dup3\n        /* \"#utility.yul\":6471:6489   */\n      add\n        /* \"#utility.yul\":6463:6489   */\n      swap1\n      pop\n        /* \"#utility.yul\":6535:6544   */\n      dup2\n        /* \"#utility.yul\":6529:6533   */\n      dup2\n        /* \"#utility.yul\":6525:6545   */\n      sub\n        /* \"#utility.yul\":6521:6522   */\n      0x00\n        /* \"#utility.yul\":6510:6519   */\n      dup4\n        /* \"#utility.yul\":6506:6523   */\n      add\n        /* \"#utility.yul\":6499:6546   */\n      mstore\n        /* \"#utility.yul\":6563:6694   */\n      tag_223\n        /* \"#utility.yul\":6689:6693   */\n      dup2\n        /* \"#utility.yul\":6563:6694   */\n      tag_184\n      jump\t// in\n    tag_223:\n        /* \"#utility.yul\":6555:6694   */\n      swap1\n      pop\n        /* \"#utility.yul\":6282:6701   */\n      swap2\n      swap1\n      pop\n      jump\t// out\n        /* \"#utility.yul\":6707:7126   */\n    tag_116:\n        /* \"#utility.yul\":6873:6877   */\n      0x00\n        /* \"#utility.yul\":6911:6913   */\n      0x20\n        /* \"#utility.yul\":6900:6909   */\n      dup3\n        /* \"#utility.yul\":6896:6914   */\n      add\n        /* \"#utility.yul\":6888:6914   */\n      swap1\n      pop\n        /* \"#utility.yul\":6960:6969   */\n      dup2\n        /* \"#utility.yul\":6954:6958   */\n      dup2\n        /* \"#utility.yul\":6950:6970   */\n      sub\n        /* \"#utility.yul\":6946:6947   */\n      0x00\n        /* \"#utility.yul\":6935:6944   */\n      dup4\n        /* \"#utility.yul\":6931:6948   */\n      add\n        /* \"#utility.yul\":6924:6971   */\n      mstore\n        /* \"#utility.yul\":6988:7119   */\n      tag_225\n        /* \"#utility.yul\":7114:7118   */\n      dup2\n        /* \"#utility.yul\":6988:7119   */\n      tag_189\n      jump\t// in\n    tag_225:\n        /* \"#utility.yul\":6980:7119   */\n      swap1\n      pop\n        /* \"#utility.yul\":6707:7126   */\n      swap2\n      swap1\n      pop\n      jump\t// out\n        /* \"#utility.yul\":7132:7551   */\n    tag_123:\n        /* \"#utility.yul\":7298:7302   */\n      0x00\n        /* \"#utility.yul\":7336:7338   */\n      0x20\n        /* \"#utility.yul\":7325:7334   */\n      dup3\n        /* \"#utility.yul\":7321:7339   */\n      add\n        /* \"#utility.yul\":7313:7339   */\n      swap1\n      pop\n        /* \"#utility.yul\":7385:7394   */\n      dup2\n        /* \"#utility.yul\":7379:7383   */\n      dup2\n        /* \"#utility.yul\":7375:7395   */\n      sub\n        /* \"#utility.yul\":7371:7372   */\n      0x00\n        /* \"#utility.yul\":7360:7369   */\n      dup4\n        /* \"#utility.yul\":7356:7373   */\n      add\n        /* \"#utility.yul\":7349:7396   */\n      mstore\n        /* \"#utility.yul\":7413:7544   */\n      tag_227\n        /* \"#utility.yul\":7539:7543   */\n      dup2\n        /* \"#utility.yul\":7413:7544   */\n      tag_194\n      jump\t// in\n    tag_227:\n        /* \"#utility.yul\":7405:7544   */\n      swap1\n      pop\n        /* \"#utility.yul\":7132:7551   */\n      swap2\n      swap1\n      pop\n      jump\t// out\n        /* \"#utility.yul\":7557:7976   */\n    tag_112:\n        /* \"#utility.yul\":7723:7727   */\n      0x00\n        /* \"#utility.yul\":7761:7763   */\n      0x20\n        /* \"#utility.yul\":7750:7759   */\n      dup3\n        /* \"#utility.yul\":7746:7764   */\n      add\n        /* \"#utility.yul\":7738:7764   */\n      swap1\n      pop\n        /* \"#utility.yul\":7810:7819   */\n      dup2\n        /* \"#utility.yul\":7804:7808   */\n      dup2\n        /* \"#utility.yul\":7800:7820   */\n      sub\n        /* \"#utility.yul\":7796:7797   */\n      0x00\n        /* \"#utility.yul\":7785:7794   */\n      dup4\n        /* \"#utility.yul\":7781:7798   */\n      add\n        /* \"#utility.yul\":7774:7821   */\n      mstore\n        /* \"#utility.yul\":7838:7969   */\n      tag_229\n        /* \"#utility.yul\":7964:7968   */\n      dup2\n        /* \"#utility.yul\":7838:7969   */\n      tag_205\n      jump\t// in\n    tag_229:\n        /* \"#utility.yul\":7830:7969   */\n      swap1\n      pop\n        /* \"#utility.yul\":7557:7976   */\n      swap2\n      swap1\n      pop\n      jump\t// out\n        /* \"#utility.yul\":7982:8204   */\n    tag_101:\n        /* \"#utility.yul\":8075:8079   */\n      0x00\n        /* \"#utility.yul\":8113:8115   */\n      0x20\n        /* \"#utility.yul\":8102:8111   */\n      dup3\n        /* \"#utility.yul\":8098:8116   */\n      add\n        /* \"#utility.yul\":8090:8116   */\n      swap1\n      pop\n        /* \"#utility.yul\":8126:8197   */\n      tag_231\n        /* \"#utility.yul\":8194:8195   */\n      0x00\n        /* \"#utility.yul\":8183:8192   */\n      dup4\n        /* \"#utility.yul\":8179:8196   */\n      add\n        /* \"#utility.yul\":8170:8176   */\n      dup5\n        /* \"#utility.yul\":8126:8197   */\n      tag_210\n      jump\t// in\n    tag_231:\n        /* \"#utility.yul\":7982:8204   */\n      swap3\n      swap2\n      pop\n      pop\n      jump\t// out\n        /* \"#utility.yul\":8291:8438   */\n    tag_202:\n        /* \"#utility.yul\":8392:8403   */\n      0x00\n        /* \"#utility.yul\":8429:8432   */\n      dup2\n        /* \"#utility.yul\":8414:8432   */\n      swap1\n      pop\n        /* \"#utility.yul\":8291:8438   */\n      swap3\n      swap2\n      pop\n      pop\n      jump\t// out\n        /* \"#utility.yul\":8444:8613   */\n    tag_176:\n        /* \"#utility.yul\":8528:8539   */\n      0x00\n        /* \"#utility.yul\":8562:8568   */\n      dup3\n        /* \"#utility.yul\":8557:8560   */\n      dup3\n        /* \"#utility.yul\":8550:8569   */\n      mstore\n        /* \"#utility.yul\":8602:8606   */\n      0x20\n        /* \"#utility.yul\":8597:8600   */\n      dup3\n        /* \"#utility.yul\":8593:8607   */\n      add\n        /* \"#utility.yul\":8578:8607   */\n      swap1\n      pop\n        /* \"#utility.yul\":8444:8613   */\n      swap3\n      swap2\n      pop\n      pop\n      jump\t// out\n        /* \"#utility.yul\":8619:8804   */\n    tag_82:\n        /* \"#utility.yul\":8659:8660   */\n      0x00\n        /* \"#utility.yul\":8676:8696   */\n      tag_237\n        /* \"#utility.yul\":8694:8695   */\n      dup3\n        /* \"#utility.yul\":8676:8696   */\n      tag_213\n      jump\t// in\n    tag_237:\n        /* \"#utility.yul\":8671:8696   */\n      swap2\n      pop\n        /* \"#utility.yul\":8710:8730   */\n      tag_238\n        /* \"#utility.yul\":8728:8729   */\n      dup4\n        /* \"#utility.yul\":8710:8730   */\n      tag_213\n      jump\t// in\n    tag_238:\n        /* \"#utility.yul\":8705:8730   */\n      swap3\n      pop\n        /* \"#utility.yul\":8749:8750   */\n      dup3\n        /* \"#utility.yul\":8739:8774   */\n      tag_239\n      jumpi\n        /* \"#utility.yul\":8754:8772   */\n      tag_240\n      tag_241\n      jump\t// in\n    tag_240:\n        /* \"#utility.yul\":8739:8774   */\n    tag_239:\n        /* \"#utility.yul\":8796:8797   */\n      dup3\n        /* \"#utility.yul\":8793:8794   */\n      dup3\n        /* \"#utility.yul\":8789:8798   */\n      div\n        /* \"#utility.yul\":8784:8798   */\n      swap1\n      pop\n        /* \"#utility.yul\":8619:8804   */\n      swap3\n      swap2\n      pop\n      pop\n      jump\t// out\n        /* \"#utility.yul\":8810:9158   */\n    tag_80:\n        /* \"#utility.yul\":8850:8857   */\n      0x00\n        /* \"#utility.yul\":8873:8893   */\n      tag_243\n        /* \"#utility.yul\":8891:8892   */\n      dup3\n        /* \"#utility.yul\":8873:8893   */\n      tag_213\n      jump\t// in\n    tag_243:\n        /* \"#utility.yul\":8868:8893   */\n      swap2\n      pop\n        /* \"#utility.yul\":8907:8927   */\n      tag_244\n        /* \"#utility.yul\":8925:8926   */\n      dup4\n        /* \"#utility.yul\":8907:8927   */\n      tag_213\n      jump\t// in\n    tag_244:\n        /* \"#utility.yul\":8902:8927   */\n      swap3\n      pop\n        /* \"#utility.yul\":9095:9096   */\n      dup2\n        /* \"#utility.yul\":9027:9093   */\n      0xffffffffffffffffffffffffffffffffffffffffffffffffffffffffffffffff\n        /* \"#utility.yul\":9023:9097   */\n      div\n        /* \"#utility.yul\":9020:9021   */\n      dup4\n        /* \"#utility.yul\":9017:9098   */\n      gt\n        /* \"#utility.yul\":9012:9013   */\n      dup3\n        /* \"#utility.yul\":9005:9014   */\n      iszero\n        /* \"#utility.yul\":8998:9015   */\n      iszero\n        /* \"#utility.yul\":8994:9099   */\n      and\n        /* \"#utility.yul\":8991:9122   */\n      iszero\n      tag_245\n      jumpi\n        /* \"#utility.yul\":9102:9120   */\n      tag_246\n      tag_247\n      jump\t// in\n    tag_246:\n        /* \"#utility.yul\":8991:9122   */\n    tag_245:\n        /* \"#utility.yul\":9150:9151   */\n      dup3\n        /* \"#utility.yul\":9147:9148   */\n      dup3\n        /* \"#utility.yul\":9143:9152   */\n      mul\n        /* \"#utility.yul\":9132:9152   */\n      swap1\n      pop\n        /* \"#utility.yul\":8810:9158   */\n      swap3\n      swap2\n      pop\n      pop\n      jump\t// out\n        /* \"#utility.yul\":9164:9355   */\n    tag_84:\n        /* \"#utility.yul\":9204:9208   */\n      0x00\n        /* \"#utility.yul\":9224:9244   */\n      tag_249\n        /* \"#utility.yul\":9242:9243   */\n      dup3\n        /* \"#utility.yul\":9224:9244   */\n      tag_213\n      jump\t// in\n    tag_249:\n        /* \"#utility.yul\":9219:9244   */\n      swap2\n      pop\n        /* \"#utility.yul\":9258:9278   */\n      tag_250\n        /* \"#utility.yul\":9276:9277   */\n      dup4\n        /* \"#utility.yul\":9258:9278   */\n      tag_213\n      jump\t// in\n    tag_250:\n        /* \"#utility.yul\":9253:9278   */\n      swap3\n      pop\n        /* \"#utility.yul\":9297:9298   */\n      dup3\n        /* \"#utility.yul\":9294:9295   */\n      dup3\n        /* \"#utility.yul\":9291:9299   */\n      lt\n        /* \"#utility.yul\":9288:9322   */\n      iszero\n      tag_251\n      jumpi\n        /* \"#utility.yul\":9302:9320   */\n      tag_252\n      tag_247\n      jump\t// in\n    tag_252:\n        /* \"#utility.yul\":9288:9322   */\n    tag_251:\n        /* \"#utility.yul\":9347:9348   */\n      dup3\n        /* \"#utility.yul\":9344:9345   */\n      dup3\n        /* \"#utility.yul\":9340:9349   */\n      sub\n        /* \"#utility.yul\":9332:9349   */\n      swap1\n      pop\n        /* \"#utility.yul\":9164:9355   */\n      swap3\n      swap2\n      pop\n      pop\n      jump\t// out\n        /* \"#utility.yul\":9361:9457   */\n    tag_172:\n        /* \"#utility.yul\":9398:9405   */\n      0x00\n        /* \"#utility.yul\":9427:9451   */\n      tag_254\n        /* \"#utility.yul\":9445:9450   */\n      dup3\n        /* \"#utility.yul\":9427:9451   */\n      tag_255\n      jump\t// in\n    tag_254:\n        /* \"#utility.yul\":9416:9451   */\n      swap1\n      pop\n        /* \"#utility.yul\":9361:9457   */\n      swap2\n      swap1\n      pop\n      jump\t// out\n        /* \"#utility.yul\":9463:9567   */\n    tag_256:\n        /* \"#utility.yul\":9508:9515   */\n      0x00\n        /* \"#utility.yul\":9537:9561   */\n      tag_258\n        /* \"#utility.yul\":9555:9560   */\n      dup3\n        /* \"#utility.yul\":9537:9561   */\n      tag_255\n      jump\t// in\n    tag_258:\n        /* \"#utility.yul\":9526:9561   */\n      swap1\n      pop\n        /* \"#utility.yul\":9463:9567   */\n      swap2\n      swap1\n      pop\n      jump\t// out\n        /* \"#utility.yul\":9573:9663   */\n    tag_259:\n        /* \"#utility.yul\":9607:9614   */\n      0x00\n        /* \"#utility.yul\":9650:9655   */\n      dup2\n        /* \"#utility.yul\":9643:9656   */\n      iszero\n        /* \"#utility.yul\":9636:9657   */\n      iszero\n        /* \"#utility.yul\":9625:9657   */\n      swap1\n      pop\n        /* \"#utility.yul\":9573:9663   */\n      swap2\n      swap1\n      pop\n      jump\t// out\n        /* \"#utility.yul\":9669:9795   */\n    tag_255:\n        /* \"#utility.yul\":9706:9713   */\n      0x00\n        /* \"#utility.yul\":9746:9788   */\n      0xffffffffffffffffffffffffffffffffffffffff\n        /* \"#utility.yul\":9739:9744   */\n      dup3\n        /* \"#utility.yul\":9735:9789   */\n      and\n        /* \"#utility.yul\":9724:9789   */\n      swap1\n      pop\n        /* \"#utility.yul\":9669:9795   */\n      swap2\n      swap1\n      pop\n      jump\t// out\n        /* \"#utility.yul\":9801:9878   */\n    tag_213:\n        /* \"#utility.yul\":9838:9845   */\n      0x00\n        /* \"#utility.yul\":9867:9872   */\n      dup2\n        /* \"#utility.yul\":9856:9872   */\n      swap1\n      pop\n        /* \"#utility.yul\":9801:9878   */\n      swap2\n      swap1\n      pop\n      jump\t// out\n        /* \"#utility.yul\":9884:10064   */\n    tag_247:\n        /* \"#utility.yul\":9932:10009   */\n      0x4e487b7100000000000000000000000000000000000000000000000000000000\n        /* \"#utility.yul\":9929:9930   */\n      0x00\n        /* \"#utility.yul\":9922:10010   */\n      mstore\n        /* \"#utility.yul\":10029:10033   */\n      0x11\n        /* \"#utility.yul\":10026:10027   */\n      0x04\n        /* \"#utility.yul\":10019:10034   */\n      mstore\n        /* \"#utility.yul\":10053:10057   */\n      0x24\n        /* \"#utility.yul\":10050:10051   */\n      0x00\n        /* \"#utility.yul\":10043:10058   */\n      revert\n        /* \"#utility.yul\":10070:10250   */\n    tag_241:\n        /* \"#utility.yul\":10118:10195   */\n      0x4e487b7100000000000000000000000000000000000000000000000000000000\n        /* \"#utility.yul\":10115:10116   */\n      0x00\n        /* \"#utility.yul\":10108:10196   */\n      mstore\n        /* \"#utility.yul\":10215:10219   */\n      0x12\n        /* \"#utility.yul\":10212:10213   */\n      0x04\n        /* \"#utility.yul\":10205:10220   */\n      mstore\n        /* \"#utility.yul\":10239:10243   */\n      0x24\n        /* \"#utility.yul\":10236:10237   */\n      0x00\n        /* \"#utility.yul\":10229:10244   */\n      revert\n        /* \"#utility.yul\":10379:10496   */\n    tag_154:\n        /* \"#utility.yul\":10488:10489   */\n      0x00\n        /* \"#utility.yul\":10485:10486   */\n      dup1\n        /* \"#utility.yul\":10478:10490   */\n      revert\n        /* \"#utility.yul\":10502:10727   */\n    tag_178:\n        /* \"#utility.yul\":10642:10676   */\n      0x4f776e61626c653a206e6577206f776e657220697320746865207a65726f2061\n        /* \"#utility.yul\":10638:10639   */\n      0x00\n        /* \"#utility.yul\":10630:10636   */\n      dup3\n        /* \"#utility.yul\":10626:10640   */\n      add\n        /* \"#utility.yul\":10619:10677   */\n      mstore\n        /* \"#utility.yul\":10711:10719   */\n      0x6464726573730000000000000000000000000000000000000000000000000000\n        /* \"#utility.yul\":10706:10708   */\n      0x20\n        /* \"#utility.yul\":10698:10704   */\n      dup3\n        /* \"#utility.yul\":10694:10709   */\n      add\n        /* \"#utility.yul\":10687:10720   */\n      mstore\n        /* \"#utility.yul\":10502:10727   */\n      pop\n      jump\t// out\n        /* \"#utility.yul\":10733:10978   */\n    tag_183:\n        /* \"#utility.yul\":10873:10907   */\n      0x416464726573733a20756e61626c6520746f2073656e642076616c75652c2072\n        /* \"#utility.yul\":10869:10870   */\n      0x00\n        /* \"#utility.yul\":10861:10867   */\n      dup3\n        /* \"#utility.yul\":10857:10871   */\n      add\n        /* \"#utility.yul\":10850:10908   */\n      mstore\n        /* \"#utility.yul\":10942:10970   */\n      0x6563697069656e74206d61792068617665207265766572746564000000000000\n        /* \"#utility.yul\":10937:10939   */\n      0x20\n        /* \"#utility.yul\":10929:10935   */\n      dup3\n        /* \"#utility.yul\":10925:10940   */\n      add\n        /* \"#utility.yul\":10918:10971   */\n      mstore\n        /* \"#utility.yul\":10733:10978   */\n      pop\n      jump\t// out\n        /* \"#utility.yul\":10984:11163   */\n    tag_188:\n        /* \"#utility.yul\":11124:11155   */\n      0x416464726573733a20696e73756666696369656e742062616c616e6365000000\n        /* \"#utility.yul\":11120:11121   */\n      0x00\n        /* \"#utility.yul\":11112:11118   */\n      dup3\n        /* \"#utility.yul\":11108:11122   */\n      add\n        /* \"#utility.yul\":11101:11156   */\n      mstore\n        /* \"#utility.yul\":10984:11163   */\n      pop\n      jump\t// out\n        /* \"#utility.yul\":11169:11347   */\n    tag_193:\n        /* \"#utility.yul\":11309:11339   */\n      0x63616c6c6572206973206e6f742074686520636f6e74726163746f7200000000\n        /* \"#utility.yul\":11305:11306   */\n      0x00\n        /* \"#utility.yul\":11297:11303   */\n      dup3\n        /* \"#utility.yul\":11293:11307   */\n      add\n        /* \"#utility.yul\":11286:11340   */\n      mstore\n        /* \"#utility.yul\":11169:11347   */\n      pop\n      jump\t// out\n        /* \"#utility.yul\":11353:11535   */\n    tag_198:\n        /* \"#utility.yul\":11493:11527   */\n      0x4f776e61626c653a2063616c6c6572206973206e6f7420746865206f776e6572\n        /* \"#utility.yul\":11489:11490   */\n      0x00\n        /* \"#utility.yul\":11481:11487   */\n      dup3\n        /* \"#utility.yul\":11477:11491   */\n      add\n        /* \"#utility.yul\":11470:11528   */\n      mstore\n        /* \"#utility.yul\":11353:11535   */\n      pop\n      jump\t// out\n        /* \"#utility.yul\":11541:11655   */\n    tag_204:\n      pop\n      jump\t// out\n        /* \"#utility.yul\":11661:11834   */\n    tag_209:\n        /* \"#utility.yul\":11801:11826   */\n      0x63616c6c6572206973206e6f74207468652061646d696e000000000000000000\n        /* \"#utility.yul\":11797:11798   */\n      0x00\n        /* \"#utility.yul\":11789:11795   */\n      dup3\n        /* \"#utility.yul\":11785:11799   */\n      add\n        /* \"#utility.yul\":11778:11827   */\n      mstore\n        /* \"#utility.yul\":11661:11834   */\n      pop\n      jump\t// out\n        /* \"#utility.yul\":11840:11962   */\n    tag_142:\n        /* \"#utility.yul\":11913:11937   */\n      tag_276\n        /* \"#utility.yul\":11931:11936   */\n      dup2\n        /* \"#utility.yul\":11913:11937   */\n      tag_172\n      jump\t// in\n    tag_276:\n        /* \"#utility.yul\":11906:11911   */\n      dup2\n        /* \"#utility.yul\":11903:11938   */\n      eq\n        /* \"#utility.yul\":11893:11956   */\n      tag_277\n      jumpi\n        /* \"#utility.yul\":11952:11953   */\n      0x00\n        /* \"#utility.yul\":11949:11950   */\n      dup1\n        /* \"#utility.yul\":11942:11954   */\n      revert\n        /* \"#utility.yul\":11893:11956   */\n    tag_277:\n        /* \"#utility.yul\":11840:11962   */\n      pop\n      jump\t// out\n        /* \"#utility.yul\":11968:12106   */\n    tag_146:\n        /* \"#utility.yul\":12049:12081   */\n      tag_279\n        /* \"#utility.yul\":12075:12080   */\n      dup2\n        /* \"#utility.yul\":12049:12081   */\n      tag_256\n      jump\t// in\n    tag_279:\n        /* \"#utility.yul\":12042:12047   */\n      dup2\n        /* \"#utility.yul\":12039:12082   */\n      eq\n        /* \"#utility.yul\":12029:12100   */\n      tag_280\n      jumpi\n        /* \"#utility.yul\":12096:12097   */\n      0x00\n        /* \"#utility.yul\":12093:12094   */\n      dup1\n        /* \"#utility.yul\":12086:12098   */\n      revert\n        /* \"#utility.yul\":12029:12100   */\n    tag_280:\n        /* \"#utility.yul\":11968:12106   */\n      pop\n      jump\t// out\n        /* \"#utility.yul\":12112:12228   */\n    tag_150:\n        /* \"#utility.yul\":12182:12203   */\n      tag_282\n        /* \"#utility.yul\":12197:12202   */\n      dup2\n        /* \"#utility.yul\":12182:12203   */\n      tag_259\n      jump\t// in\n    tag_282:\n        /* \"#utility.yul\":12175:12180   */\n      dup2\n        /* \"#utility.yul\":12172:12204   */\n      eq\n        /* \"#utility.yul\":12162:12222   */\n      tag_283\n      jumpi\n        /* \"#utility.yul\":12218:12219   */\n      0x00\n        /* \"#utility.yul\":12215:12216   */\n      dup1\n        /* \"#utility.yul\":12208:12220   */\n      revert\n        /* \"#utility.yul\":12162:12222   */\n    tag_283:\n        /* \"#utility.yul\":12112:12228   */\n      pop\n      jump\t// out\n\n    auxdata: 0xa26469706673582212207d4a4f1d323c2ce0cb97af5cd46a2a722083710ba0516b85555eb01360d4c88f64736f6c63430008070033\n}\n",
				"bytecode": {
					"linkReferences": {},
					"object": "608060405234801561001057600080fd5b5061002d61002261003260201b60201c565b61003a60201b60201c565b6100fe565b600033905090565b60008060009054906101000a900473ffffffffffffffffffffffffffffffffffffffff169050816000806101000a81548173ffffffffffffffffffffffffffffffffffffffff021916908373ffffffffffffffffffffffffffffffffffffffff1602179055508173ffffffffffffffffffffffffffffffffffffffff168173ffffffffffffffffffffffffffffffffffffffff167f8be0079c531659141344cd1fd0a4f28419497f9722a3daafe3b4186f6b6457e060405160405180910390a35050565b6110e08061010d6000396000f3fe6080604052600436106100915760003560e01c80638da5cb5b116100595780638da5cb5b146101515780639464c8b81461017c578063b0568eaa146101a5578063d0e30db0146101bc578063f2fde38b146101c657610091565b806311571f3014610096578063251d8cd5146100bf57806370480275146100e8578063715018a614610111578063761768b614610128575b600080fd5b3480156100a257600080fd5b506100bd60048036038101906100b89190610b2a565b6101ef565b005b3480156100cb57600080fd5b506100e660048036038101906100e19190610afd565b610237565b005b3480156100f457600080fd5b5061010f600480360381019061010a9190610ad0565b61025c565b005b34801561011d57600080fd5b506101266102e3565b005b34801561013457600080fd5b5061014f600480360381019061014a9190610ad0565b6102f7565b005b34801561015d57600080fd5b50610166610386565b6040516101739190610c92565b60405180910390f35b34801561018857600080fd5b506101a3600480360381019061019e9190610afd565b6103af565b005b3480156101b157600080fd5b506101ba6103dc565b005b6101c46105f6565b005b3480156101d257600080fd5b506101ed60048036038101906101e89190610aa3565b61067e565b005b6101f7610702565b81600560026101000a81548160ff02191690831515021790555080600560036101000a81548160ff0219169083151502179055506102336103dc565b5050565b61023f610794565b80600560006101000a81548160ff02191690831515021790555050565b80600360006101000a81548173ffffffffffffffffffffffffffffffffffffffff021916908373ffffffffffffffffffffffffffffffffffffffff1602179055508073ffffffffffffffffffffffffffffffffffffffff167f44d6d25963f097ad14f29f06854a01f575648a1ef82f30e562ccd3889717e33960405160405180910390a250565b6102eb610826565b6102f560006108a4565b565b6102ff610826565b80600160006101000a81548173ffffffffffffffffffffffffffffffffffffffff021916908373ffffffffffffffffffffffffffffffffffffffff1602179055508073ffffffffffffffffffffffffffffffffffffffff167f29dc23bcd72bfb02ec013f6350778cb6e5908dc02e5e1234385f27e32676b6e160405160405180910390a250565b60008060009054906101000a900473ffffffffffffffffffffffffffffffffffffffff16905090565b6103b7610826565b80600560016101000a81548160ff0219169083151502179055506103d96103dc565b50565b60004790506000600a6002836103f29190610dd5565b6103fc9190610da4565b9050808261040a9190610e2f565b915060011515600560009054906101000a900460ff161515148015610442575060011515600560019054906101000a900460ff161515145b8061047f575060011515600560029054906101000a900460ff16151514801561047e575060011515600560039054906101000a900460ff161515145b5b1561051f576104cf82600160009054906101000a900473ffffffffffffffffffffffffffffffffffffffff1673ffffffffffffffffffffffffffffffffffffffff1661096890919063ffffffff16565b61051a81600360009054906101000a900473ffffffffffffffffffffffffffffffffffffffff1673ffffffffffffffffffffffffffffffffffffffff1661096890919063ffffffff16565b6105f2565b60011515600560029054906101000a900460ff161515148015610555575060001515600560039054906101000a900460ff161515145b156105f1576105a582600260009054906101000a900473ffffffffffffffffffffffffffffffffffffffff1673ffffffffffffffffffffffffffffffffffffffff1661096890919063ffffffff16565b6105f081600360009054906101000a900473ffffffffffffffffffffffffffffffffffffffff1673ffffffffffffffffffffffffffffffffffffffff1661096890919063ffffffff16565b5b5b5050565b6105fe610826565b33600260006101000a81548173ffffffffffffffffffffffffffffffffffffffff021916908373ffffffffffffffffffffffffffffffffffffffff16021790555060003490507f2a89b2e3d580398d6dc2db5e0f336b52602bbaa51afa9bb5cdf59239cf0d2bea816040516106739190610d6d565b60405180910390a150565b610686610826565b600073ffffffffffffffffffffffffffffffffffffffff168173ffffffffffffffffffffffffffffffffffffffff1614156106f6576040517f08c379a00000000000000000000000000000000000000000000000000000000081526004016106ed90610cad565b60405180910390fd5b6106ff816108a4565b50565b600360009054906101000a900473ffffffffffffffffffffffffffffffffffffffff1673ffffffffffffffffffffffffffffffffffffffff163373ffffffffffffffffffffffffffffffffffffffff1614610792576040517f08c379a000000000000000000000000000000000000000000000000000000000815260040161078990610d4d565b60405180910390fd5b565b600160009054906101000a900473ffffffffffffffffffffffffffffffffffffffff1673ffffffffffffffffffffffffffffffffffffffff163373ffffffffffffffffffffffffffffffffffffffff1614610824576040517f08c379a000000000000000000000000000000000000000000000000000000000815260040161081b90610d0d565b60405180910390fd5b565b61082e610a5c565b73ffffffffffffffffffffffffffffffffffffffff1661084c610386565b73ffffffffffffffffffffffffffffffffffffffff16146108a2576040517f08c379a000000000000000000000000000000000000000000000000000000000815260040161089990610d2d565b60405180910390fd5b565b60008060009054906101000a900473ffffffffffffffffffffffffffffffffffffffff169050816000806101000a81548173ffffffffffffffffffffffffffffffffffffffff021916908373ffffffffffffffffffffffffffffffffffffffff1602179055508173ffffffffffffffffffffffffffffffffffffffff168173ffffffffffffffffffffffffffffffffffffffff167f8be0079c531659141344cd1fd0a4f28419497f9722a3daafe3b4186f6b6457e060405160405180910390a35050565b804710156109ab576040517f08c379a00000000000000000000000000000000000000000000000000000000081526004016109a290610ced565b60405180910390fd5b60008273ffffffffffffffffffffffffffffffffffffffff16826040516109d190610c7d565b60006040518083038185875af1925050503d8060008114610a0e576040519150601f19603f3d011682016040523d82523d6000602084013e610a13565b606091505b5050905080610a57576040517f08c379a0000000000000000000000000000000000000000000000000000000008152600401610a4e90610ccd565b60405180910390fd5b505050565b600033905090565b600081359050610a7381611065565b92915050565b600081359050610a888161107c565b92915050565b600081359050610a9d81611093565b92915050565b600060208284031215610ab957610ab8610f1b565b5b6000610ac784828501610a64565b91505092915050565b600060208284031215610ae657610ae5610f1b565b5b6000610af484828501610a79565b91505092915050565b600060208284031215610b1357610b12610f1b565b5b6000610b2184828501610a8e565b91505092915050565b60008060408385031215610b4157610b40610f1b565b5b6000610b4f85828601610a8e565b9250506020610b6085828601610a8e565b9150509250929050565b610b7381610e63565b82525050565b6000610b86602683610d93565b9150610b9182610f20565b604082019050919050565b6000610ba9603a83610d93565b9150610bb482610f6f565b604082019050919050565b6000610bcc601d83610d93565b9150610bd782610fbe565b602082019050919050565b6000610bef601c83610d93565b9150610bfa82610fe7565b602082019050919050565b6000610c12602083610d93565b9150610c1d82611010565b602082019050919050565b6000610c35600083610d88565b9150610c4082611039565b600082019050919050565b6000610c58601783610d93565b9150610c638261103c565b602082019050919050565b610c7781610eb3565b82525050565b6000610c8882610c28565b9150819050919050565b6000602082019050610ca76000830184610b6a565b92915050565b60006020820190508181036000830152610cc681610b79565b9050919050565b60006020820190508181036000830152610ce681610b9c565b9050919050565b60006020820190508181036000830152610d0681610bbf565b9050919050565b60006020820190508181036000830152610d2681610be2565b9050919050565b60006020820190508181036000830152610d4681610c05565b9050919050565b60006020820190508181036000830152610d6681610c4b565b9050919050565b6000602082019050610d826000830184610c6e565b92915050565b600081905092915050565b600082825260208201905092915050565b6000610daf82610eb3565b9150610dba83610eb3565b925082610dca57610dc9610eec565b5b828204905092915050565b6000610de082610eb3565b9150610deb83610eb3565b9250817fffffffffffffffffffffffffffffffffffffffffffffffffffffffffffffffff0483118215151615610e2457610e23610ebd565b5b828202905092915050565b6000610e3a82610eb3565b9150610e4583610eb3565b925082821015610e5857610e57610ebd565b5b828203905092915050565b6000610e6e82610e93565b9050919050565b6000610e8082610e93565b9050919050565b60008115159050919050565b600073ffffffffffffffffffffffffffffffffffffffff82169050919050565b6000819050919050565b7f4e487b7100000000000000000000000000000000000000000000000000000000600052601160045260246000fd5b7f4e487b7100000000000000000000000000000000000000000000000000000000600052601260045260246000fd5b600080fd5b7f4f776e61626c653a206e6577206f776e657220697320746865207a65726f206160008201527f6464726573730000000000000000000000000000000000000000000000000000602082015250565b7f416464726573733a20756e61626c6520746f2073656e642076616c75652c207260008201527f6563697069656e74206d61792068617665207265766572746564000000000000602082015250565b7f416464726573733a20696e73756666696369656e742062616c616e6365000000600082015250565b7f63616c6c6572206973206e6f742074686520636f6e74726163746f7200000000600082015250565b7f4f776e61626c653a2063616c6c6572206973206e6f7420746865206f776e6572600082015250565b50565b7f63616c6c6572206973206e6f74207468652061646d696e000000000000000000600082015250565b61106e81610e63565b811461107957600080fd5b50565b61108581610e75565b811461109057600080fd5b50565b61109c81610e87565b81146110a757600080fd5b5056fea26469706673582212207d4a4f1d323c2ce0cb97af5cd46a2a722083710ba0516b85555eb01360d4c88f64736f6c63430008070033",
					"opcodes": "PUSH1 0x80 PUSH1 0x40 MSTORE CALLVALUE DUP1 ISZERO PUSH2 0x10 JUMPI PUSH1 0x0 DUP1 REVERT JUMPDEST POP PUSH2 0x2D PUSH2 0x22 PUSH2 0x32 PUSH1 0x20 SHL PUSH1 0x20 SHR JUMP JUMPDEST PUSH2 0x3A PUSH1 0x20 SHL PUSH1 0x20 SHR JUMP JUMPDEST PUSH2 0xFE JUMP JUMPDEST PUSH1 0x0 CALLER SWAP1 POP SWAP1 JUMP JUMPDEST PUSH1 0x0 DUP1 PUSH1 0x0 SWAP1 SLOAD SWAP1 PUSH2 0x100 EXP SWAP1 DIV PUSH20 0xFFFFFFFFFFFFFFFFFFFFFFFFFFFFFFFFFFFFFFFF AND SWAP1 POP DUP2 PUSH1 0x0 DUP1 PUSH2 0x100 EXP DUP2 SLOAD DUP2 PUSH20 0xFFFFFFFFFFFFFFFFFFFFFFFFFFFFFFFFFFFFFFFF MUL NOT AND SWAP1 DUP4 PUSH20 0xFFFFFFFFFFFFFFFFFFFFFFFFFFFFFFFFFFFFFFFF AND MUL OR SWAP1 SSTORE POP DUP2 PUSH20 0xFFFFFFFFFFFFFFFFFFFFFFFFFFFFFFFFFFFFFFFF AND DUP2 PUSH20 0xFFFFFFFFFFFFFFFFFFFFFFFFFFFFFFFFFFFFFFFF AND PUSH32 0x8BE0079C531659141344CD1FD0A4F28419497F9722A3DAAFE3B4186F6B6457E0 PUSH1 0x40 MLOAD PUSH1 0x40 MLOAD DUP1 SWAP2 SUB SWAP1 LOG3 POP POP JUMP JUMPDEST PUSH2 0x10E0 DUP1 PUSH2 0x10D PUSH1 0x0 CODECOPY PUSH1 0x0 RETURN INVALID PUSH1 0x80 PUSH1 0x40 MSTORE PUSH1 0x4 CALLDATASIZE LT PUSH2 0x91 JUMPI PUSH1 0x0 CALLDATALOAD PUSH1 0xE0 SHR DUP1 PUSH4 0x8DA5CB5B GT PUSH2 0x59 JUMPI DUP1 PUSH4 0x8DA5CB5B EQ PUSH2 0x151 JUMPI DUP1 PUSH4 0x9464C8B8 EQ PUSH2 0x17C JUMPI DUP1 PUSH4 0xB0568EAA EQ PUSH2 0x1A5 JUMPI DUP1 PUSH4 0xD0E30DB0 EQ PUSH2 0x1BC JUMPI DUP1 PUSH4 0xF2FDE38B EQ PUSH2 0x1C6 JUMPI PUSH2 0x91 JUMP JUMPDEST DUP1 PUSH4 0x11571F30 EQ PUSH2 0x96 JUMPI DUP1 PUSH4 0x251D8CD5 EQ PUSH2 0xBF JUMPI DUP1 PUSH4 0x70480275 EQ PUSH2 0xE8 JUMPI DUP1 PUSH4 0x715018A6 EQ PUSH2 0x111 JUMPI DUP1 PUSH4 0x761768B6 EQ PUSH2 0x128 JUMPI JUMPDEST PUSH1 0x0 DUP1 REVERT JUMPDEST CALLVALUE DUP1 ISZERO PUSH2 0xA2 JUMPI PUSH1 0x0 DUP1 REVERT JUMPDEST POP PUSH2 0xBD PUSH1 0x4 DUP1 CALLDATASIZE SUB DUP2 ADD SWAP1 PUSH2 0xB8 SWAP2 SWAP1 PUSH2 0xB2A JUMP JUMPDEST PUSH2 0x1EF JUMP JUMPDEST STOP JUMPDEST CALLVALUE DUP1 ISZERO PUSH2 0xCB JUMPI PUSH1 0x0 DUP1 REVERT JUMPDEST POP PUSH2 0xE6 PUSH1 0x4 DUP1 CALLDATASIZE SUB DUP2 ADD SWAP1 PUSH2 0xE1 SWAP2 SWAP1 PUSH2 0xAFD JUMP JUMPDEST PUSH2 0x237 JUMP JUMPDEST STOP JUMPDEST CALLVALUE DUP1 ISZERO PUSH2 0xF4 JUMPI PUSH1 0x0 DUP1 REVERT JUMPDEST POP PUSH2 0x10F PUSH1 0x4 DUP1 CALLDATASIZE SUB DUP2 ADD SWAP1 PUSH2 0x10A SWAP2 SWAP1 PUSH2 0xAD0 JUMP JUMPDEST PUSH2 0x25C JUMP JUMPDEST STOP JUMPDEST CALLVALUE DUP1 ISZERO PUSH2 0x11D JUMPI PUSH1 0x0 DUP1 REVERT JUMPDEST POP PUSH2 0x126 PUSH2 0x2E3 JUMP JUMPDEST STOP JUMPDEST CALLVALUE DUP1 ISZERO PUSH2 0x134 JUMPI PUSH1 0x0 DUP1 REVERT JUMPDEST POP PUSH2 0x14F PUSH1 0x4 DUP1 CALLDATASIZE SUB DUP2 ADD SWAP1 PUSH2 0x14A SWAP2 SWAP1 PUSH2 0xAD0 JUMP JUMPDEST PUSH2 0x2F7 JUMP JUMPDEST STOP JUMPDEST CALLVALUE DUP1 ISZERO PUSH2 0x15D JUMPI PUSH1 0x0 DUP1 REVERT JUMPDEST POP PUSH2 0x166 PUSH2 0x386 JUMP JUMPDEST PUSH1 0x40 MLOAD PUSH2 0x173 SWAP2 SWAP1 PUSH2 0xC92 JUMP JUMPDEST PUSH1 0x40 MLOAD DUP1 SWAP2 SUB SWAP1 RETURN JUMPDEST CALLVALUE DUP1 ISZERO PUSH2 0x188 JUMPI PUSH1 0x0 DUP1 REVERT JUMPDEST POP PUSH2 0x1A3 PUSH1 0x4 DUP1 CALLDATASIZE SUB DUP2 ADD SWAP1 PUSH2 0x19E SWAP2 SWAP1 PUSH2 0xAFD JUMP JUMPDEST PUSH2 0x3AF JUMP JUMPDEST STOP JUMPDEST CALLVALUE DUP1 ISZERO PUSH2 0x1B1 JUMPI PUSH1 0x0 DUP1 REVERT JUMPDEST POP PUSH2 0x1BA PUSH2 0x3DC JUMP JUMPDEST STOP JUMPDEST PUSH2 0x1C4 PUSH2 0x5F6 JUMP JUMPDEST STOP JUMPDEST CALLVALUE DUP1 ISZERO PUSH2 0x1D2 JUMPI PUSH1 0x0 DUP1 REVERT JUMPDEST POP PUSH2 0x1ED PUSH1 0x4 DUP1 CALLDATASIZE SUB DUP2 ADD SWAP1 PUSH2 0x1E8 SWAP2 SWAP1 PUSH2 0xAA3 JUMP JUMPDEST PUSH2 0x67E JUMP JUMPDEST STOP JUMPDEST PUSH2 0x1F7 PUSH2 0x702 JUMP JUMPDEST DUP2 PUSH1 0x5 PUSH1 0x2 PUSH2 0x100 EXP DUP2 SLOAD DUP2 PUSH1 0xFF MUL NOT AND SWAP1 DUP4 ISZERO ISZERO MUL OR SWAP1 SSTORE POP DUP1 PUSH1 0x5 PUSH1 0x3 PUSH2 0x100 EXP DUP2 SLOAD DUP2 PUSH1 0xFF MUL NOT AND SWAP1 DUP4 ISZERO ISZERO MUL OR SWAP1 SSTORE POP PUSH2 0x233 PUSH2 0x3DC JUMP JUMPDEST POP POP JUMP JUMPDEST PUSH2 0x23F PUSH2 0x794 JUMP JUMPDEST DUP1 PUSH1 0x5 PUSH1 0x0 PUSH2 0x100 EXP DUP2 SLOAD DUP2 PUSH1 0xFF MUL NOT AND SWAP1 DUP4 ISZERO ISZERO MUL OR SWAP1 SSTORE POP POP JUMP JUMPDEST DUP1 PUSH1 0x3 PUSH1 0x0 PUSH2 0x100 EXP DUP2 SLOAD DUP2 PUSH20 0xFFFFFFFFFFFFFFFFFFFFFFFFFFFFFFFFFFFFFFFF MUL NOT AND SWAP1 DUP4 PUSH20 0xFFFFFFFFFFFFFFFFFFFFFFFFFFFFFFFFFFFFFFFF AND MUL OR SWAP1 SSTORE POP DUP1 PUSH20 0xFFFFFFFFFFFFFFFFFFFFFFFFFFFFFFFFFFFFFFFF AND PUSH32 0x44D6D25963F097AD14F29F06854A01F575648A1EF82F30E562CCD3889717E339 PUSH1 0x40 MLOAD PUSH1 0x40 MLOAD DUP1 SWAP2 SUB SWAP1 LOG2 POP JUMP JUMPDEST PUSH2 0x2EB PUSH2 0x826 JUMP JUMPDEST PUSH2 0x2F5 PUSH1 0x0 PUSH2 0x8A4 JUMP JUMPDEST JUMP JUMPDEST PUSH2 0x2FF PUSH2 0x826 JUMP JUMPDEST DUP1 PUSH1 0x1 PUSH1 0x0 PUSH2 0x100 EXP DUP2 SLOAD DUP2 PUSH20 0xFFFFFFFFFFFFFFFFFFFFFFFFFFFFFFFFFFFFFFFF MUL NOT AND SWAP1 DUP4 PUSH20 0xFFFFFFFFFFFFFFFFFFFFFFFFFFFFFFFFFFFFFFFF AND MUL OR SWAP1 SSTORE POP DUP1 PUSH20 0xFFFFFFFFFFFFFFFFFFFFFFFFFFFFFFFFFFFFFFFF AND PUSH32 0x29DC23BCD72BFB02EC013F6350778CB6E5908DC02E5E1234385F27E32676B6E1 PUSH1 0x40 MLOAD PUSH1 0x40 MLOAD DUP1 SWAP2 SUB SWAP1 LOG2 POP JUMP JUMPDEST PUSH1 0x0 DUP1 PUSH1 0x0 SWAP1 SLOAD SWAP1 PUSH2 0x100 EXP SWAP1 DIV PUSH20 0xFFFFFFFFFFFFFFFFFFFFFFFFFFFFFFFFFFFFFFFF AND SWAP1 POP SWAP1 JUMP JUMPDEST PUSH2 0x3B7 PUSH2 0x826 JUMP JUMPDEST DUP1 PUSH1 0x5 PUSH1 0x1 PUSH2 0x100 EXP DUP2 SLOAD DUP2 PUSH1 0xFF MUL NOT AND SWAP1 DUP4 ISZERO ISZERO MUL OR SWAP1 SSTORE POP PUSH2 0x3D9 PUSH2 0x3DC JUMP JUMPDEST POP JUMP JUMPDEST PUSH1 0x0 SELFBALANCE SWAP1 POP PUSH1 0x0 PUSH1 0xA PUSH1 0x2 DUP4 PUSH2 0x3F2 SWAP2 SWAP1 PUSH2 0xDD5 JUMP JUMPDEST PUSH2 0x3FC SWAP2 SWAP1 PUSH2 0xDA4 JUMP JUMPDEST SWAP1 POP DUP1 DUP3 PUSH2 0x40A SWAP2 SWAP1 PUSH2 0xE2F JUMP JUMPDEST SWAP2 POP PUSH1 0x1 ISZERO ISZERO PUSH1 0x5 PUSH1 0x0 SWAP1 SLOAD SWAP1 PUSH2 0x100 EXP SWAP1 DIV PUSH1 0xFF AND ISZERO ISZERO EQ DUP1 ISZERO PUSH2 0x442 JUMPI POP PUSH1 0x1 ISZERO ISZERO PUSH1 0x5 PUSH1 0x1 SWAP1 SLOAD SWAP1 PUSH2 0x100 EXP SWAP1 DIV PUSH1 0xFF AND ISZERO ISZERO EQ JUMPDEST DUP1 PUSH2 0x47F JUMPI POP PUSH1 0x1 ISZERO ISZERO PUSH1 0x5 PUSH1 0x2 SWAP1 SLOAD SWAP1 PUSH2 0x100 EXP SWAP1 DIV PUSH1 0xFF AND ISZERO ISZERO EQ DUP1 ISZERO PUSH2 0x47E JUMPI POP PUSH1 0x1 ISZERO ISZERO PUSH1 0x5 PUSH1 0x3 SWAP1 SLOAD SWAP1 PUSH2 0x100 EXP SWAP1 DIV PUSH1 0xFF AND ISZERO ISZERO EQ JUMPDEST JUMPDEST ISZERO PUSH2 0x51F JUMPI PUSH2 0x4CF DUP3 PUSH1 0x1 PUSH1 0x0 SWAP1 SLOAD SWAP1 PUSH2 0x100 EXP SWAP1 DIV PUSH20 0xFFFFFFFFFFFFFFFFFFFFFFFFFFFFFFFFFFFFFFFF AND PUSH20 0xFFFFFFFFFFFFFFFFFFFFFFFFFFFFFFFFFFFFFFFF AND PUSH2 0x968 SWAP1 SWAP2 SWAP1 PUSH4 0xFFFFFFFF AND JUMP JUMPDEST PUSH2 0x51A DUP2 PUSH1 0x3 PUSH1 0x0 SWAP1 SLOAD SWAP1 PUSH2 0x100 EXP SWAP1 DIV PUSH20 0xFFFFFFFFFFFFFFFFFFFFFFFFFFFFFFFFFFFFFFFF AND PUSH20 0xFFFFFFFFFFFFFFFFFFFFFFFFFFFFFFFFFFFFFFFF AND PUSH2 0x968 SWAP1 SWAP2 SWAP1 PUSH4 0xFFFFFFFF AND JUMP JUMPDEST PUSH2 0x5F2 JUMP JUMPDEST PUSH1 0x1 ISZERO ISZERO PUSH1 0x5 PUSH1 0x2 SWAP1 SLOAD SWAP1 PUSH2 0x100 EXP SWAP1 DIV PUSH1 0xFF AND ISZERO ISZERO EQ DUP1 ISZERO PUSH2 0x555 JUMPI POP PUSH1 0x0 ISZERO ISZERO PUSH1 0x5 PUSH1 0x3 SWAP1 SLOAD SWAP1 PUSH2 0x100 EXP SWAP1 DIV PUSH1 0xFF AND ISZERO ISZERO EQ JUMPDEST ISZERO PUSH2 0x5F1 JUMPI PUSH2 0x5A5 DUP3 PUSH1 0x2 PUSH1 0x0 SWAP1 SLOAD SWAP1 PUSH2 0x100 EXP SWAP1 DIV PUSH20 0xFFFFFFFFFFFFFFFFFFFFFFFFFFFFFFFFFFFFFFFF AND PUSH20 0xFFFFFFFFFFFFFFFFFFFFFFFFFFFFFFFFFFFFFFFF AND PUSH2 0x968 SWAP1 SWAP2 SWAP1 PUSH4 0xFFFFFFFF AND JUMP JUMPDEST PUSH2 0x5F0 DUP2 PUSH1 0x3 PUSH1 0x0 SWAP1 SLOAD SWAP1 PUSH2 0x100 EXP SWAP1 DIV PUSH20 0xFFFFFFFFFFFFFFFFFFFFFFFFFFFFFFFFFFFFFFFF AND PUSH20 0xFFFFFFFFFFFFFFFFFFFFFFFFFFFFFFFFFFFFFFFF AND PUSH2 0x968 SWAP1 SWAP2 SWAP1 PUSH4 0xFFFFFFFF AND JUMP JUMPDEST JUMPDEST JUMPDEST POP POP JUMP JUMPDEST PUSH2 0x5FE PUSH2 0x826 JUMP JUMPDEST CALLER PUSH1 0x2 PUSH1 0x0 PUSH2 0x100 EXP DUP2 SLOAD DUP2 PUSH20 0xFFFFFFFFFFFFFFFFFFFFFFFFFFFFFFFFFFFFFFFF MUL NOT AND SWAP1 DUP4 PUSH20 0xFFFFFFFFFFFFFFFFFFFFFFFFFFFFFFFFFFFFFFFF AND MUL OR SWAP1 SSTORE POP PUSH1 0x0 CALLVALUE SWAP1 POP PUSH32 0x2A89B2E3D580398D6DC2DB5E0F336B52602BBAA51AFA9BB5CDF59239CF0D2BEA DUP2 PUSH1 0x40 MLOAD PUSH2 0x673 SWAP2 SWAP1 PUSH2 0xD6D JUMP JUMPDEST PUSH1 0x40 MLOAD DUP1 SWAP2 SUB SWAP1 LOG1 POP JUMP JUMPDEST PUSH2 0x686 PUSH2 0x826 JUMP JUMPDEST PUSH1 0x0 PUSH20 0xFFFFFFFFFFFFFFFFFFFFFFFFFFFFFFFFFFFFFFFF AND DUP2 PUSH20 0xFFFFFFFFFFFFFFFFFFFFFFFFFFFFFFFFFFFFFFFF AND EQ ISZERO PUSH2 0x6F6 JUMPI PUSH1 0x40 MLOAD PUSH32 0x8C379A000000000000000000000000000000000000000000000000000000000 DUP2 MSTORE PUSH1 0x4 ADD PUSH2 0x6ED SWAP1 PUSH2 0xCAD JUMP JUMPDEST PUSH1 0x40 MLOAD DUP1 SWAP2 SUB SWAP1 REVERT JUMPDEST PUSH2 0x6FF DUP2 PUSH2 0x8A4 JUMP JUMPDEST POP JUMP JUMPDEST PUSH1 0x3 PUSH1 0x0 SWAP1 SLOAD SWAP1 PUSH2 0x100 EXP SWAP1 DIV PUSH20 0xFFFFFFFFFFFFFFFFFFFFFFFFFFFFFFFFFFFFFFFF AND PUSH20 0xFFFFFFFFFFFFFFFFFFFFFFFFFFFFFFFFFFFFFFFF AND CALLER PUSH20 0xFFFFFFFFFFFFFFFFFFFFFFFFFFFFFFFFFFFFFFFF AND EQ PUSH2 0x792 JUMPI PUSH1 0x40 MLOAD PUSH32 0x8C379A000000000000000000000000000000000000000000000000000000000 DUP2 MSTORE PUSH1 0x4 ADD PUSH2 0x789 SWAP1 PUSH2 0xD4D JUMP JUMPDEST PUSH1 0x40 MLOAD DUP1 SWAP2 SUB SWAP1 REVERT JUMPDEST JUMP JUMPDEST PUSH1 0x1 PUSH1 0x0 SWAP1 SLOAD SWAP1 PUSH2 0x100 EXP SWAP1 DIV PUSH20 0xFFFFFFFFFFFFFFFFFFFFFFFFFFFFFFFFFFFFFFFF AND PUSH20 0xFFFFFFFFFFFFFFFFFFFFFFFFFFFFFFFFFFFFFFFF AND CALLER PUSH20 0xFFFFFFFFFFFFFFFFFFFFFFFFFFFFFFFFFFFFFFFF AND EQ PUSH2 0x824 JUMPI PUSH1 0x40 MLOAD PUSH32 0x8C379A000000000000000000000000000000000000000000000000000000000 DUP2 MSTORE PUSH1 0x4 ADD PUSH2 0x81B SWAP1 PUSH2 0xD0D JUMP JUMPDEST PUSH1 0x40 MLOAD DUP1 SWAP2 SUB SWAP1 REVERT JUMPDEST JUMP JUMPDEST PUSH2 0x82E PUSH2 0xA5C JUMP JUMPDEST PUSH20 0xFFFFFFFFFFFFFFFFFFFFFFFFFFFFFFFFFFFFFFFF AND PUSH2 0x84C PUSH2 0x386 JUMP JUMPDEST PUSH20 0xFFFFFFFFFFFFFFFFFFFFFFFFFFFFFFFFFFFFFFFF AND EQ PUSH2 0x8A2 JUMPI PUSH1 0x40 MLOAD PUSH32 0x8C379A000000000000000000000000000000000000000000000000000000000 DUP2 MSTORE PUSH1 0x4 ADD PUSH2 0x899 SWAP1 PUSH2 0xD2D JUMP JUMPDEST PUSH1 0x40 MLOAD DUP1 SWAP2 SUB SWAP1 REVERT JUMPDEST JUMP JUMPDEST PUSH1 0x0 DUP1 PUSH1 0x0 SWAP1 SLOAD SWAP1 PUSH2 0x100 EXP SWAP1 DIV PUSH20 0xFFFFFFFFFFFFFFFFFFFFFFFFFFFFFFFFFFFFFFFF AND SWAP1 POP DUP2 PUSH1 0x0 DUP1 PUSH2 0x100 EXP DUP2 SLOAD DUP2 PUSH20 0xFFFFFFFFFFFFFFFFFFFFFFFFFFFFFFFFFFFFFFFF MUL NOT AND SWAP1 DUP4 PUSH20 0xFFFFFFFFFFFFFFFFFFFFFFFFFFFFFFFFFFFFFFFF AND MUL OR SWAP1 SSTORE POP DUP2 PUSH20 0xFFFFFFFFFFFFFFFFFFFFFFFFFFFFFFFFFFFFFFFF AND DUP2 PUSH20 0xFFFFFFFFFFFFFFFFFFFFFFFFFFFFFFFFFFFFFFFF AND PUSH32 0x8BE0079C531659141344CD1FD0A4F28419497F9722A3DAAFE3B4186F6B6457E0 PUSH1 0x40 MLOAD PUSH1 0x40 MLOAD DUP1 SWAP2 SUB SWAP1 LOG3 POP POP JUMP JUMPDEST DUP1 SELFBALANCE LT ISZERO PUSH2 0x9AB JUMPI PUSH1 0x40 MLOAD PUSH32 0x8C379A000000000000000000000000000000000000000000000000000000000 DUP2 MSTORE PUSH1 0x4 ADD PUSH2 0x9A2 SWAP1 PUSH2 0xCED JUMP JUMPDEST PUSH1 0x40 MLOAD DUP1 SWAP2 SUB SWAP1 REVERT JUMPDEST PUSH1 0x0 DUP3 PUSH20 0xFFFFFFFFFFFFFFFFFFFFFFFFFFFFFFFFFFFFFFFF AND DUP3 PUSH1 0x40 MLOAD PUSH2 0x9D1 SWAP1 PUSH2 0xC7D JUMP JUMPDEST PUSH1 0x0 PUSH1 0x40 MLOAD DUP1 DUP4 SUB DUP2 DUP6 DUP8 GAS CALL SWAP3 POP POP POP RETURNDATASIZE DUP1 PUSH1 0x0 DUP2 EQ PUSH2 0xA0E JUMPI PUSH1 0x40 MLOAD SWAP2 POP PUSH1 0x1F NOT PUSH1 0x3F RETURNDATASIZE ADD AND DUP3 ADD PUSH1 0x40 MSTORE RETURNDATASIZE DUP3 MSTORE RETURNDATASIZE PUSH1 0x0 PUSH1 0x20 DUP5 ADD RETURNDATACOPY PUSH2 0xA13 JUMP JUMPDEST PUSH1 0x60 SWAP2 POP JUMPDEST POP POP SWAP1 POP DUP1 PUSH2 0xA57 JUMPI PUSH1 0x40 MLOAD PUSH32 0x8C379A000000000000000000000000000000000000000000000000000000000 DUP2 MSTORE PUSH1 0x4 ADD PUSH2 0xA4E SWAP1 PUSH2 0xCCD JUMP JUMPDEST PUSH1 0x40 MLOAD DUP1 SWAP2 SUB SWAP1 REVERT JUMPDEST POP POP POP JUMP JUMPDEST PUSH1 0x0 CALLER SWAP1 POP SWAP1 JUMP JUMPDEST PUSH1 0x0 DUP2 CALLDATALOAD SWAP1 POP PUSH2 0xA73 DUP2 PUSH2 0x1065 JUMP JUMPDEST SWAP3 SWAP2 POP POP JUMP JUMPDEST PUSH1 0x0 DUP2 CALLDATALOAD SWAP1 POP PUSH2 0xA88 DUP2 PUSH2 0x107C JUMP JUMPDEST SWAP3 SWAP2 POP POP JUMP JUMPDEST PUSH1 0x0 DUP2 CALLDATALOAD SWAP1 POP PUSH2 0xA9D DUP2 PUSH2 0x1093 JUMP JUMPDEST SWAP3 SWAP2 POP POP JUMP JUMPDEST PUSH1 0x0 PUSH1 0x20 DUP3 DUP5 SUB SLT ISZERO PUSH2 0xAB9 JUMPI PUSH2 0xAB8 PUSH2 0xF1B JUMP JUMPDEST JUMPDEST PUSH1 0x0 PUSH2 0xAC7 DUP5 DUP3 DUP6 ADD PUSH2 0xA64 JUMP JUMPDEST SWAP2 POP POP SWAP3 SWAP2 POP POP JUMP JUMPDEST PUSH1 0x0 PUSH1 0x20 DUP3 DUP5 SUB SLT ISZERO PUSH2 0xAE6 JUMPI PUSH2 0xAE5 PUSH2 0xF1B JUMP JUMPDEST JUMPDEST PUSH1 0x0 PUSH2 0xAF4 DUP5 DUP3 DUP6 ADD PUSH2 0xA79 JUMP JUMPDEST SWAP2 POP POP SWAP3 SWAP2 POP POP JUMP JUMPDEST PUSH1 0x0 PUSH1 0x20 DUP3 DUP5 SUB SLT ISZERO PUSH2 0xB13 JUMPI PUSH2 0xB12 PUSH2 0xF1B JUMP JUMPDEST JUMPDEST PUSH1 0x0 PUSH2 0xB21 DUP5 DUP3 DUP6 ADD PUSH2 0xA8E JUMP JUMPDEST SWAP2 POP POP SWAP3 SWAP2 POP POP JUMP JUMPDEST PUSH1 0x0 DUP1 PUSH1 0x40 DUP4 DUP6 SUB SLT ISZERO PUSH2 0xB41 JUMPI PUSH2 0xB40 PUSH2 0xF1B JUMP JUMPDEST JUMPDEST PUSH1 0x0 PUSH2 0xB4F DUP6 DUP3 DUP7 ADD PUSH2 0xA8E JUMP JUMPDEST SWAP3 POP POP PUSH1 0x20 PUSH2 0xB60 DUP6 DUP3 DUP7 ADD PUSH2 0xA8E JUMP JUMPDEST SWAP2 POP POP SWAP3 POP SWAP3 SWAP1 POP JUMP JUMPDEST PUSH2 0xB73 DUP2 PUSH2 0xE63 JUMP JUMPDEST DUP3 MSTORE POP POP JUMP JUMPDEST PUSH1 0x0 PUSH2 0xB86 PUSH1 0x26 DUP4 PUSH2 0xD93 JUMP JUMPDEST SWAP2 POP PUSH2 0xB91 DUP3 PUSH2 0xF20 JUMP JUMPDEST PUSH1 0x40 DUP3 ADD SWAP1 POP SWAP2 SWAP1 POP JUMP JUMPDEST PUSH1 0x0 PUSH2 0xBA9 PUSH1 0x3A DUP4 PUSH2 0xD93 JUMP JUMPDEST SWAP2 POP PUSH2 0xBB4 DUP3 PUSH2 0xF6F JUMP JUMPDEST PUSH1 0x40 DUP3 ADD SWAP1 POP SWAP2 SWAP1 POP JUMP JUMPDEST PUSH1 0x0 PUSH2 0xBCC PUSH1 0x1D DUP4 PUSH2 0xD93 JUMP JUMPDEST SWAP2 POP PUSH2 0xBD7 DUP3 PUSH2 0xFBE JUMP JUMPDEST PUSH1 0x20 DUP3 ADD SWAP1 POP SWAP2 SWAP1 POP JUMP JUMPDEST PUSH1 0x0 PUSH2 0xBEF PUSH1 0x1C DUP4 PUSH2 0xD93 JUMP JUMPDEST SWAP2 POP PUSH2 0xBFA DUP3 PUSH2 0xFE7 JUMP JUMPDEST PUSH1 0x20 DUP3 ADD SWAP1 POP SWAP2 SWAP1 POP JUMP JUMPDEST PUSH1 0x0 PUSH2 0xC12 PUSH1 0x20 DUP4 PUSH2 0xD93 JUMP JUMPDEST SWAP2 POP PUSH2 0xC1D DUP3 PUSH2 0x1010 JUMP JUMPDEST PUSH1 0x20 DUP3 ADD SWAP1 POP SWAP2 SWAP1 POP JUMP JUMPDEST PUSH1 0x0 PUSH2 0xC35 PUSH1 0x0 DUP4 PUSH2 0xD88 JUMP JUMPDEST SWAP2 POP PUSH2 0xC40 DUP3 PUSH2 0x1039 JUMP JUMPDEST PUSH1 0x0 DUP3 ADD SWAP1 POP SWAP2 SWAP1 POP JUMP JUMPDEST PUSH1 0x0 PUSH2 0xC58 PUSH1 0x17 DUP4 PUSH2 0xD93 JUMP JUMPDEST SWAP2 POP PUSH2 0xC63 DUP3 PUSH2 0x103C JUMP JUMPDEST PUSH1 0x20 DUP3 ADD SWAP1 POP SWAP2 SWAP1 POP JUMP JUMPDEST PUSH2 0xC77 DUP2 PUSH2 0xEB3 JUMP JUMPDEST DUP3 MSTORE POP POP JUMP JUMPDEST PUSH1 0x0 PUSH2 0xC88 DUP3 PUSH2 0xC28 JUMP JUMPDEST SWAP2 POP DUP2 SWAP1 POP SWAP2 SWAP1 POP JUMP JUMPDEST PUSH1 0x0 PUSH1 0x20 DUP3 ADD SWAP1 POP PUSH2 0xCA7 PUSH1 0x0 DUP4 ADD DUP5 PUSH2 0xB6A JUMP JUMPDEST SWAP3 SWAP2 POP POP JUMP JUMPDEST PUSH1 0x0 PUSH1 0x20 DUP3 ADD SWAP1 POP DUP2 DUP2 SUB PUSH1 0x0 DUP4 ADD MSTORE PUSH2 0xCC6 DUP2 PUSH2 0xB79 JUMP JUMPDEST SWAP1 POP SWAP2 SWAP1 POP JUMP JUMPDEST PUSH1 0x0 PUSH1 0x20 DUP3 ADD SWAP1 POP DUP2 DUP2 SUB PUSH1 0x0 DUP4 ADD MSTORE PUSH2 0xCE6 DUP2 PUSH2 0xB9C JUMP JUMPDEST SWAP1 POP SWAP2 SWAP1 POP JUMP JUMPDEST PUSH1 0x0 PUSH1 0x20 DUP3 ADD SWAP1 POP DUP2 DUP2 SUB PUSH1 0x0 DUP4 ADD MSTORE PUSH2 0xD06 DUP2 PUSH2 0xBBF JUMP JUMPDEST SWAP1 POP SWAP2 SWAP1 POP JUMP JUMPDEST PUSH1 0x0 PUSH1 0x20 DUP3 ADD SWAP1 POP DUP2 DUP2 SUB PUSH1 0x0 DUP4 ADD MSTORE PUSH2 0xD26 DUP2 PUSH2 0xBE2 JUMP JUMPDEST SWAP1 POP SWAP2 SWAP1 POP JUMP JUMPDEST PUSH1 0x0 PUSH1 0x20 DUP3 ADD SWAP1 POP DUP2 DUP2 SUB PUSH1 0x0 DUP4 ADD MSTORE PUSH2 0xD46 DUP2 PUSH2 0xC05 JUMP JUMPDEST SWAP1 POP SWAP2 SWAP1 POP JUMP JUMPDEST PUSH1 0x0 PUSH1 0x20 DUP3 ADD SWAP1 POP DUP2 DUP2 SUB PUSH1 0x0 DUP4 ADD MSTORE PUSH2 0xD66 DUP2 PUSH2 0xC4B JUMP JUMPDEST SWAP1 POP SWAP2 SWAP1 POP JUMP JUMPDEST PUSH1 0x0 PUSH1 0x20 DUP3 ADD SWAP1 POP PUSH2 0xD82 PUSH1 0x0 DUP4 ADD DUP5 PUSH2 0xC6E JUMP JUMPDEST SWAP3 SWAP2 POP POP JUMP JUMPDEST PUSH1 0x0 DUP2 SWAP1 POP SWAP3 SWAP2 POP POP JUMP JUMPDEST PUSH1 0x0 DUP3 DUP3 MSTORE PUSH1 0x20 DUP3 ADD SWAP1 POP SWAP3 SWAP2 POP POP JUMP JUMPDEST PUSH1 0x0 PUSH2 0xDAF DUP3 PUSH2 0xEB3 JUMP JUMPDEST SWAP2 POP PUSH2 0xDBA DUP4 PUSH2 0xEB3 JUMP JUMPDEST SWAP3 POP DUP3 PUSH2 0xDCA JUMPI PUSH2 0xDC9 PUSH2 0xEEC JUMP JUMPDEST JUMPDEST DUP3 DUP3 DIV SWAP1 POP SWAP3 SWAP2 POP POP JUMP JUMPDEST PUSH1 0x0 PUSH2 0xDE0 DUP3 PUSH2 0xEB3 JUMP JUMPDEST SWAP2 POP PUSH2 0xDEB DUP4 PUSH2 0xEB3 JUMP JUMPDEST SWAP3 POP DUP2 PUSH32 0xFFFFFFFFFFFFFFFFFFFFFFFFFFFFFFFFFFFFFFFFFFFFFFFFFFFFFFFFFFFFFFFF DIV DUP4 GT DUP3 ISZERO ISZERO AND ISZERO PUSH2 0xE24 JUMPI PUSH2 0xE23 PUSH2 0xEBD JUMP JUMPDEST JUMPDEST DUP3 DUP3 MUL SWAP1 POP SWAP3 SWAP2 POP POP JUMP JUMPDEST PUSH1 0x0 PUSH2 0xE3A DUP3 PUSH2 0xEB3 JUMP JUMPDEST SWAP2 POP PUSH2 0xE45 DUP4 PUSH2 0xEB3 JUMP JUMPDEST SWAP3 POP DUP3 DUP3 LT ISZERO PUSH2 0xE58 JUMPI PUSH2 0xE57 PUSH2 0xEBD JUMP JUMPDEST JUMPDEST DUP3 DUP3 SUB SWAP1 POP SWAP3 SWAP2 POP POP JUMP JUMPDEST PUSH1 0x0 PUSH2 0xE6E DUP3 PUSH2 0xE93 JUMP JUMPDEST SWAP1 POP SWAP2 SWAP1 POP JUMP JUMPDEST PUSH1 0x0 PUSH2 0xE80 DUP3 PUSH2 0xE93 JUMP JUMPDEST SWAP1 POP SWAP2 SWAP1 POP JUMP JUMPDEST PUSH1 0x0 DUP2 ISZERO ISZERO SWAP1 POP SWAP2 SWAP1 POP JUMP JUMPDEST PUSH1 0x0 PUSH20 0xFFFFFFFFFFFFFFFFFFFFFFFFFFFFFFFFFFFFFFFF DUP3 AND SWAP1 POP SWAP2 SWAP1 POP JUMP JUMPDEST PUSH1 0x0 DUP2 SWAP1 POP SWAP2 SWAP1 POP JUMP JUMPDEST PUSH32 0x4E487B7100000000000000000000000000000000000000000000000000000000 PUSH1 0x0 MSTORE PUSH1 0x11 PUSH1 0x4 MSTORE PUSH1 0x24 PUSH1 0x0 REVERT JUMPDEST PUSH32 0x4E487B7100000000000000000000000000000000000000000000000000000000 PUSH1 0x0 MSTORE PUSH1 0x12 PUSH1 0x4 MSTORE PUSH1 0x24 PUSH1 0x0 REVERT JUMPDEST PUSH1 0x0 DUP1 REVERT JUMPDEST PUSH32 0x4F776E61626C653A206E6577206F776E657220697320746865207A65726F2061 PUSH1 0x0 DUP3 ADD MSTORE PUSH32 0x6464726573730000000000000000000000000000000000000000000000000000 PUSH1 0x20 DUP3 ADD MSTORE POP JUMP JUMPDEST PUSH32 0x416464726573733A20756E61626C6520746F2073656E642076616C75652C2072 PUSH1 0x0 DUP3 ADD MSTORE PUSH32 0x6563697069656E74206D61792068617665207265766572746564000000000000 PUSH1 0x20 DUP3 ADD MSTORE POP JUMP JUMPDEST PUSH32 0x416464726573733A20696E73756666696369656E742062616C616E6365000000 PUSH1 0x0 DUP3 ADD MSTORE POP JUMP JUMPDEST PUSH32 0x63616C6C6572206973206E6F742074686520636F6E74726163746F7200000000 PUSH1 0x0 DUP3 ADD MSTORE POP JUMP JUMPDEST PUSH32 0x4F776E61626C653A2063616C6C6572206973206E6F7420746865206F776E6572 PUSH1 0x0 DUP3 ADD MSTORE POP JUMP JUMPDEST POP JUMP JUMPDEST PUSH32 0x63616C6C6572206973206E6F74207468652061646D696E000000000000000000 PUSH1 0x0 DUP3 ADD MSTORE POP JUMP JUMPDEST PUSH2 0x106E DUP2 PUSH2 0xE63 JUMP JUMPDEST DUP2 EQ PUSH2 0x1079 JUMPI PUSH1 0x0 DUP1 REVERT JUMPDEST POP JUMP JUMPDEST PUSH2 0x1085 DUP2 PUSH2 0xE75 JUMP JUMPDEST DUP2 EQ PUSH2 0x1090 JUMPI PUSH1 0x0 DUP1 REVERT JUMPDEST POP JUMP JUMPDEST PUSH2 0x109C DUP2 PUSH2 0xE87 JUMP JUMPDEST DUP2 EQ PUSH2 0x10A7 JUMPI PUSH1 0x0 DUP1 REVERT JUMPDEST POP JUMP INVALID LOG2 PUSH5 0x6970667358 0x22 SLT KECCAK256 PUSH30 0x4A4F1D323C2CE0CB97AF5CD46A2A722083710BA0516B85555EB01360D4C8 DUP16 PUSH5 0x736F6C6343 STOP ADDMOD SMOD STOP CALLER "
				},
				"gasEstimates": {
					"creation": {
						"codeDepositCost": "864000",
						"executionCost": "infinite",
						"totalCost": "infinite"
					},
					"external": {
						"addAdmin(address)": "25928",
						"addContractor(address)": "28236",
						"adminResolutionStatus(bool,bool)": "infinite",
						"deposit()": "27919",
						"owner()": "2522",
						"renounceOwnership()": "30465",
						"taskCompletionStatus(bool)": "26896",
						"taskValidationStatus(bool)": "infinite",
						"testPayment()": "infinite",
						"transferOwnership(address)": "30835"
					},
					"internal": {
						"_checkAdmin()": "infinite",
						"_checkContractor()": "infinite"
					}
				},
				"methodIdentifiers": {
					"addAdmin(address)": "70480275",
					"addContractor(address)": "761768b6",
					"adminResolutionStatus(bool,bool)": "11571f30",
					"deposit()": "d0e30db0",
					"owner()": "8da5cb5b",
					"renounceOwnership()": "715018a6",
					"taskCompletionStatus(bool)": "251d8cd5",
					"taskValidationStatus(bool)": "9464c8b8",
					"testPayment()": "b0568eaa",
					"transferOwnership(address)": "f2fde38b"
				}
			},
			"storageLayout": {
				"storage": [
					{
						"astId": 7,
						"contract": "contracts/Escrow.sol:Escrow",
						"label": "_owner",
						"offset": 0,
						"slot": "0",
						"type": "t_address"
					},
					{
						"astId": 452,
						"contract": "contracts/Escrow.sol:Escrow",
						"label": "contractor",
						"offset": 0,
						"slot": "1",
						"type": "t_address_payable"
					},
					{
						"astId": 454,
						"contract": "contracts/Escrow.sol:Escrow",
						"label": "client",
						"offset": 0,
						"slot": "2",
						"type": "t_address_payable"
					},
					{
						"astId": 456,
						"contract": "contracts/Escrow.sol:Escrow",
						"label": "admin",
						"offset": 0,
						"slot": "3",
						"type": "t_address_payable"
					},
					{
						"astId": 460,
						"contract": "contracts/Escrow.sol:Escrow",
						"label": "_deposits",
						"offset": 0,
						"slot": "4",
						"type": "t_mapping(t_address,t_uint256)"
					},
					{
						"astId": 515,
						"contract": "contracts/Escrow.sol:Escrow",
						"label": "taskCompleted",
						"offset": 0,
						"slot": "5",
						"type": "t_bool"
					},
					{
						"astId": 517,
						"contract": "contracts/Escrow.sol:Escrow",
						"label": "taskValidated",
						"offset": 1,
						"slot": "5",
						"type": "t_bool"
					},
					{
						"astId": 519,
						"contract": "contracts/Escrow.sol:Escrow",
						"label": "adminResolution",
						"offset": 2,
						"slot": "5",
						"type": "t_bool"
					},
					{
						"astId": 521,
						"contract": "contracts/Escrow.sol:Escrow",
						"label": "adminPayContractor",
						"offset": 3,
						"slot": "5",
						"type": "t_bool"
					}
				],
				"types": {
					"t_address": {
						"encoding": "inplace",
						"label": "address",
						"numberOfBytes": "20"
					},
					"t_address_payable": {
						"encoding": "inplace",
						"label": "address payable",
						"numberOfBytes": "20"
					},
					"t_bool": {
						"encoding": "inplace",
						"label": "bool",
						"numberOfBytes": "1"
					},
					"t_mapping(t_address,t_uint256)": {
						"encoding": "mapping",
						"key": "t_address",
						"label": "mapping(address => uint256)",
						"numberOfBytes": "32",
						"value": "t_uint256"
					},
					"t_uint256": {
						"encoding": "inplace",
						"label": "uint256",
						"numberOfBytes": "32"
					}
				}
			},
			"userdoc": {
				"kind": "user",
				"methods": {},
				"version": 1
			}
		}
	}
}