{
	"contracts/Escrow.sol": {
		"Escrow": {
			"abi": [
				{
					"anonymous": false,
					"inputs": [
						{
							"indexed": true,
							"internalType": "address",
							"name": "payee",
							"type": "address"
						},
						{
							"indexed": false,
							"internalType": "uint256",
							"name": "weiAmount",
							"type": "uint256"
						}
					],
					"name": "Deposited",
					"type": "event"
				},
				{
					"anonymous": false,
					"inputs": [
						{
							"indexed": true,
							"internalType": "address",
							"name": "previousOwner",
							"type": "address"
						},
						{
							"indexed": true,
							"internalType": "address",
							"name": "newOwner",
							"type": "address"
						}
					],
					"name": "OwnershipTransferred",
					"type": "event"
				},
				{
					"inputs": [],
					"name": "admin",
					"outputs": [
						{
							"internalType": "address payable",
							"name": "",
							"type": "address"
						}
					],
					"stateMutability": "view",
					"type": "function"
				},
				{
					"inputs": [
						{
							"internalType": "bool",
							"name": "inputAdminResolution",
							"type": "bool"
						},
						{
							"internalType": "uint256",
							"name": "inputAdminDecision",
							"type": "uint256"
						}
					],
					"name": "adminResolutionStatus",
					"outputs": [],
					"stateMutability": "nonpayable",
					"type": "function"
				},
				{
					"inputs": [],
					"name": "client",
					"outputs": [
						{
							"internalType": "address",
							"name": "",
							"type": "address"
						}
					],
					"stateMutability": "view",
					"type": "function"
				},
				{
					"inputs": [],
					"name": "contractor",
					"outputs": [
						{
							"internalType": "address payable",
							"name": "",
							"type": "address"
						}
					],
					"stateMutability": "view",
					"type": "function"
				},
				{
					"inputs": [
						{
							"internalType": "address payable",
							"name": "payee",
							"type": "address"
						},
						{
							"internalType": "address payable",
							"name": "broker",
							"type": "address"
						}
					],
					"name": "deposit",
					"outputs": [],
					"stateMutability": "payable",
					"type": "function"
				},
				{
					"inputs": [],
					"name": "owner",
					"outputs": [
						{
							"internalType": "address",
							"name": "",
							"type": "address"
						}
					],
					"stateMutability": "view",
					"type": "function"
				},
				{
					"inputs": [],
					"name": "renounceOwnership",
					"outputs": [],
					"stateMutability": "nonpayable",
					"type": "function"
				},
				{
					"inputs": [
						{
							"internalType": "bool",
							"name": "inputTaskCompleted",
							"type": "bool"
						}
					],
					"name": "taskCompletionStatus",
					"outputs": [],
					"stateMutability": "nonpayable",
					"type": "function"
				},
				{
					"inputs": [
						{
							"internalType": "bool",
							"name": "inputTaskValidated",
							"type": "bool"
						}
					],
					"name": "taskValidationStatus",
					"outputs": [],
					"stateMutability": "nonpayable",
					"type": "function"
				},
				{
					"inputs": [],
					"name": "testPayment",
					"outputs": [],
					"stateMutability": "nonpayable",
					"type": "function"
				},
				{
					"inputs": [
						{
							"internalType": "address",
							"name": "newOwner",
							"type": "address"
						}
					],
					"name": "transferOwnership",
					"outputs": [],
					"stateMutability": "nonpayable",
					"type": "function"
				}
			],
			"devdoc": {
				"kind": "dev",
				"methods": {
					"owner()": {
						"details": "Returns the address of the current owner."
					},
					"renounceOwnership()": {
						"details": "Leaves the contract without owner. It will not be possible to call `onlyOwner` functions anymore. Can only be called by the current owner. NOTE: Renouncing ownership will leave the contract without an owner, thereby removing any functionality that is only available to the owner."
					},
					"transferOwnership(address)": {
						"details": "Transfers ownership of the contract to a new account (`newOwner`). Can only be called by the current owner."
					}
				},
				"version": 1
			},
			"evm": {
				"assembly": "    /* \"contracts/Escrow.sol\":238:3925  contract Escrow is Ownable {... */\n  mstore(0x40, 0x80)\n  callvalue\n  dup1\n  iszero\n  tag_1\n  jumpi\n  0x00\n  dup1\n  revert\ntag_1:\n  pop\n    /* \"@openzeppelin/contracts/access/Ownable.sol\":936:968  _transferOwnership(_msgSender()) */\n  tag_4\n    /* \"@openzeppelin/contracts/access/Ownable.sol\":955:967  _msgSender() */\n  tag_5\n    /* \"@openzeppelin/contracts/access/Ownable.sol\":955:965  _msgSender */\n  shl(0x20, tag_6)\n    /* \"@openzeppelin/contracts/access/Ownable.sol\":955:967  _msgSender() */\n  0x20\n  shr\n  jump\t// in\ntag_5:\n    /* \"@openzeppelin/contracts/access/Ownable.sol\":936:954  _transferOwnership */\n  shl(0x20, tag_7)\n    /* \"@openzeppelin/contracts/access/Ownable.sol\":936:968  _transferOwnership(_msgSender()) */\n  0x20\n  shr\n  jump\t// in\ntag_4:\n    /* \"contracts/Escrow.sol\":238:3925  contract Escrow is Ownable {... */\n  jump(tag_8)\n    /* \"@openzeppelin/contracts/utils/Context.sol\":640:736  function _msgSender() internal view virtual returns (address) {... */\ntag_6:\n    /* \"@openzeppelin/contracts/utils/Context.sol\":693:700  address */\n  0x00\n    /* \"@openzeppelin/contracts/utils/Context.sol\":719:729  msg.sender */\n  caller\n    /* \"@openzeppelin/contracts/utils/Context.sol\":712:729  return msg.sender */\n  swap1\n  pop\n    /* \"@openzeppelin/contracts/utils/Context.sol\":640:736  function _msgSender() internal view virtual returns (address) {... */\n  swap1\n  jump\t// out\n    /* \"@openzeppelin/contracts/access/Ownable.sol\":2433:2620  function _transferOwnership(address newOwner) internal virtual {... */\ntag_7:\n    /* \"@openzeppelin/contracts/access/Ownable.sol\":2506:2522  address oldOwner */\n  0x00\n    /* \"@openzeppelin/contracts/access/Ownable.sol\":2525:2531  _owner */\n  dup1\n  0x00\n  swap1\n  sload\n  swap1\n  0x0100\n  exp\n  swap1\n  div\n  0xffffffffffffffffffffffffffffffffffffffff\n  and\n    /* \"@openzeppelin/contracts/access/Ownable.sol\":2506:2531  address oldOwner = _owner */\n  swap1\n  pop\n    /* \"@openzeppelin/contracts/access/Ownable.sol\":2550:2558  newOwner */\n  dup2\n    /* \"@openzeppelin/contracts/access/Ownable.sol\":2541:2547  _owner */\n  0x00\n  dup1\n    /* \"@openzeppelin/contracts/access/Ownable.sol\":2541:2558  _owner = newOwner */\n  0x0100\n  exp\n  dup2\n  sload\n  dup2\n  0xffffffffffffffffffffffffffffffffffffffff\n  mul\n  not\n  and\n  swap1\n  dup4\n  0xffffffffffffffffffffffffffffffffffffffff\n  and\n  mul\n  or\n  swap1\n  sstore\n  pop\n    /* \"@openzeppelin/contracts/access/Ownable.sol\":2604:2612  newOwner */\n  dup2\n    /* \"@openzeppelin/contracts/access/Ownable.sol\":2573:2613  OwnershipTransferred(oldOwner, newOwner) */\n  0xffffffffffffffffffffffffffffffffffffffff\n  and\n    /* \"@openzeppelin/contracts/access/Ownable.sol\":2594:2602  oldOwner */\n  dup2\n    /* \"@openzeppelin/contracts/access/Ownable.sol\":2573:2613  OwnershipTransferred(oldOwner, newOwner) */\n  0xffffffffffffffffffffffffffffffffffffffff\n  and\n  0x8be0079c531659141344cd1fd0a4f28419497f9722a3daafe3b4186f6b6457e0\n  mload(0x40)\n  mload(0x40)\n  dup1\n  swap2\n  sub\n  swap1\n  log3\n    /* \"@openzeppelin/contracts/access/Ownable.sol\":2496:2620  {... */\n  pop\n    /* \"@openzeppelin/contracts/access/Ownable.sol\":2433:2620  function _transferOwnership(address newOwner) internal virtual {... */\n  pop\n  jump\t// out\n    /* \"contracts/Escrow.sol\":238:3925  contract Escrow is Ownable {... */\ntag_8:\n  dataSize(sub_0)\n  dup1\n  dataOffset(sub_0)\n  0x00\n  codecopy\n  0x00\n  return\nstop\n\nsub_0: assembly {\n        /* \"contracts/Escrow.sol\":238:3925  contract Escrow is Ownable {... */\n      mstore(0x40, 0x80)\n      jumpi(tag_1, lt(calldatasize, 0x04))\n      shr(0xe0, calldataload(0x00))\n      dup1\n      0x9464c8b8\n      gt\n      tag_13\n      jumpi\n      dup1\n      0x9464c8b8\n      eq\n      tag_7\n      jumpi\n      dup1\n      0xb0568eaa\n      eq\n      tag_8\n      jumpi\n      dup1\n      0xf2fde38b\n      eq\n      tag_9\n      jumpi\n      dup1\n      0xf851a440\n      eq\n      tag_10\n      jumpi\n      dup1\n      0xf9609f08\n      eq\n      tag_11\n      jumpi\n      dup1\n      0xfbfd2045\n      eq\n      tag_12\n      jumpi\n      jump(tag_1)\n    tag_13:\n      dup1\n      0x109e94cf\n      eq\n      tag_2\n      jumpi\n      dup1\n      0x251d8cd5\n      eq\n      tag_3\n      jumpi\n      dup1\n      0x5e32c425\n      eq\n      tag_4\n      jumpi\n      dup1\n      0x715018a6\n      eq\n      tag_5\n      jumpi\n      dup1\n      0x8da5cb5b\n      eq\n      tag_6\n      jumpi\n    tag_1:\n      0x00\n      dup1\n      revert\n        /* \"contracts/Escrow.sol\":453:474  address public client */\n    tag_2:\n      callvalue\n      dup1\n      iszero\n      tag_14\n      jumpi\n      0x00\n      dup1\n      revert\n    tag_14:\n      pop\n      tag_15\n      tag_16\n      jump\t// in\n    tag_15:\n      mload(0x40)\n      tag_17\n      swap2\n      swap1\n      tag_18\n      jump\t// in\n    tag_17:\n      mload(0x40)\n      dup1\n      swap2\n      sub\n      swap1\n      return\n        /* \"contracts/Escrow.sol\":2158:2290  function taskCompletionStatus(bool inputTaskCompleted) public virtual onlyContractor {... */\n    tag_3:\n      callvalue\n      dup1\n      iszero\n      tag_19\n      jumpi\n      0x00\n      dup1\n      revert\n    tag_19:\n      pop\n      tag_20\n      0x04\n      dup1\n      calldatasize\n      sub\n      dup2\n      add\n      swap1\n      tag_21\n      swap2\n      swap1\n      tag_22\n      jump\t// in\n    tag_21:\n      tag_23\n      jump\t// in\n    tag_20:\n      stop\n        /* \"contracts/Escrow.sol\":1932:2152  function adminResolutionStatus(bool inputAdminResolution, uint256 inputAdminDecision) public virtual onlyAdmin{... */\n    tag_4:\n      callvalue\n      dup1\n      iszero\n      tag_24\n      jumpi\n      0x00\n      dup1\n      revert\n    tag_24:\n      pop\n      tag_25\n      0x04\n      dup1\n      calldatasize\n      sub\n      dup2\n      add\n      swap1\n      tag_26\n      swap2\n      swap1\n      tag_27\n      jump\t// in\n    tag_26:\n      tag_28\n      jump\t// in\n    tag_25:\n      stop\n        /* \"@openzeppelin/contracts/access/Ownable.sol\":1831:1932  function renounceOwnership() public virtual onlyOwner {... */\n    tag_5:\n      callvalue\n      dup1\n      iszero\n      tag_29\n      jumpi\n      0x00\n      dup1\n      revert\n    tag_29:\n      pop\n      tag_30\n      tag_31\n      jump\t// in\n    tag_30:\n      stop\n        /* \"@openzeppelin/contracts/access/Ownable.sol\":1201:1286  function owner() public view virtual returns (address) {... */\n    tag_6:\n      callvalue\n      dup1\n      iszero\n      tag_32\n      jumpi\n      0x00\n      dup1\n      revert\n    tag_32:\n      pop\n      tag_33\n      tag_34\n      jump\t// in\n    tag_33:\n      mload(0x40)\n      tag_35\n      swap2\n      swap1\n      tag_18\n      jump\t// in\n    tag_35:\n      mload(0x40)\n      dup1\n      swap2\n      sub\n      swap1\n      return\n        /* \"contracts/Escrow.sol\":2296:2441  function taskValidationStatus(bool inputTaskValidated) public virtual onlyOwner{... */\n    tag_7:\n      callvalue\n      dup1\n      iszero\n      tag_36\n      jumpi\n      0x00\n      dup1\n      revert\n    tag_36:\n      pop\n      tag_37\n      0x04\n      dup1\n      calldatasize\n      sub\n      dup2\n      add\n      swap1\n      tag_38\n      swap2\n      swap1\n      tag_22\n      jump\t// in\n    tag_38:\n      tag_39\n      jump\t// in\n    tag_37:\n      stop\n        /* \"contracts/Escrow.sol\":2447:3109  function testPayment() public virtual{... */\n    tag_8:\n      callvalue\n      dup1\n      iszero\n      tag_40\n      jumpi\n      0x00\n      dup1\n      revert\n    tag_40:\n      pop\n      tag_41\n      tag_42\n      jump\t// in\n    tag_41:\n      stop\n        /* \"@openzeppelin/contracts/access/Ownable.sol\":2081:2279  function transferOwnership(address newOwner) public virtual onlyOwner {... */\n    tag_9:\n      callvalue\n      dup1\n      iszero\n      tag_43\n      jumpi\n      0x00\n      dup1\n      revert\n    tag_43:\n      pop\n      tag_44\n      0x04\n      dup1\n      calldatasize\n      sub\n      dup2\n      add\n      swap1\n      tag_45\n      swap2\n      swap1\n      tag_46\n      jump\t// in\n    tag_45:\n      tag_47\n      jump\t// in\n    tag_44:\n      stop\n        /* \"contracts/Escrow.sol\":480:508  address payable public admin */\n    tag_10:\n      callvalue\n      dup1\n      iszero\n      tag_48\n      jumpi\n      0x00\n      dup1\n      revert\n    tag_48:\n      pop\n      tag_49\n      tag_50\n      jump\t// in\n    tag_49:\n      mload(0x40)\n      tag_51\n      swap2\n      swap1\n      tag_52\n      jump\t// in\n    tag_51:\n      mload(0x40)\n      dup1\n      swap2\n      sub\n      swap1\n      return\n        /* \"contracts/Escrow.sol\":664:958  function deposit(address payable payee, address payable broker) public payable virtual onlyOwner {... */\n    tag_11:\n      tag_53\n      0x04\n      dup1\n      calldatasize\n      sub\n      dup2\n      add\n      swap1\n      tag_54\n      swap2\n      swap1\n      tag_55\n      jump\t// in\n    tag_54:\n      tag_56\n      jump\t// in\n    tag_53:\n      stop\n        /* \"contracts/Escrow.sol\":414:447  address payable public contractor */\n    tag_12:\n      callvalue\n      dup1\n      iszero\n      tag_57\n      jumpi\n      0x00\n      dup1\n      revert\n    tag_57:\n      pop\n      tag_58\n      tag_59\n      jump\t// in\n    tag_58:\n      mload(0x40)\n      tag_60\n      swap2\n      swap1\n      tag_52\n      jump\t// in\n    tag_60:\n      mload(0x40)\n      dup1\n      swap2\n      sub\n      swap1\n      return\n        /* \"contracts/Escrow.sol\":453:474  address public client */\n    tag_16:\n      0x02\n      0x00\n      swap1\n      sload\n      swap1\n      0x0100\n      exp\n      swap1\n      div\n      0xffffffffffffffffffffffffffffffffffffffff\n      and\n      dup2\n      jump\t// out\n        /* \"contracts/Escrow.sol\":2158:2290  function taskCompletionStatus(bool inputTaskCompleted) public virtual onlyContractor {... */\n    tag_23:\n        /* \"contracts/Escrow.sol\":1855:1868  _checkAdmin() */\n      tag_62\n        /* \"contracts/Escrow.sol\":1855:1866  _checkAdmin */\n      tag_63\n        /* \"contracts/Escrow.sol\":1855:1868  _checkAdmin() */\n      jump\t// in\n    tag_62:\n        /* \"contracts/Escrow.sol\":2265:2283  inputTaskCompleted */\n      dup1\n        /* \"contracts/Escrow.sol\":2249:2262  taskCompleted */\n      0x05\n      0x00\n        /* \"contracts/Escrow.sol\":2249:2283  taskCompleted = inputTaskCompleted */\n      0x0100\n      exp\n      dup2\n      sload\n      dup2\n      0xff\n      mul\n      not\n      and\n      swap1\n      dup4\n      iszero\n      iszero\n      mul\n      or\n      swap1\n      sstore\n      pop\n        /* \"contracts/Escrow.sol\":2158:2290  function taskCompletionStatus(bool inputTaskCompleted) public virtual onlyContractor {... */\n      pop\n      jump\t// out\n        /* \"contracts/Escrow.sol\":1932:2152  function adminResolutionStatus(bool inputAdminResolution, uint256 inputAdminDecision) public virtual onlyAdmin{... */\n    tag_28:\n        /* \"contracts/Escrow.sol\":1637:1650  _checkAdmin() */\n      tag_66\n        /* \"contracts/Escrow.sol\":1637:1648  _checkAdmin */\n      tag_63\n        /* \"contracts/Escrow.sol\":1637:1650  _checkAdmin() */\n      jump\t// in\n    tag_66:\n        /* \"contracts/Escrow.sol\":2066:2086  inputAdminResolution */\n      dup2\n        /* \"contracts/Escrow.sol\":2048:2063  adminResolution */\n      0x05\n      0x02\n        /* \"contracts/Escrow.sol\":2048:2086  adminResolution = inputAdminResolution */\n      0x0100\n      exp\n      dup2\n      sload\n      dup2\n      0xff\n      mul\n      not\n      and\n      swap1\n      dup4\n      iszero\n      iszero\n      mul\n      or\n      swap1\n      sstore\n      pop\n        /* \"contracts/Escrow.sol\":2108:2126  inputAdminDecision */\n      dup1\n        /* \"contracts/Escrow.sol\":2092:2105  adminDecision */\n      0x06\n        /* \"contracts/Escrow.sol\":2092:2126  adminDecision = inputAdminDecision */\n      dup2\n      swap1\n      sstore\n      pop\n        /* \"contracts/Escrow.sol\":2132:2145  testPayment() */\n      tag_68\n        /* \"contracts/Escrow.sol\":2132:2143  testPayment */\n      tag_42\n        /* \"contracts/Escrow.sol\":2132:2145  testPayment() */\n      jump\t// in\n    tag_68:\n        /* \"contracts/Escrow.sol\":1932:2152  function adminResolutionStatus(bool inputAdminResolution, uint256 inputAdminDecision) public virtual onlyAdmin{... */\n      pop\n      pop\n      jump\t// out\n        /* \"@openzeppelin/contracts/access/Ownable.sol\":1831:1932  function renounceOwnership() public virtual onlyOwner {... */\n    tag_31:\n        /* \"@openzeppelin/contracts/access/Ownable.sol\":1094:1107  _checkOwner() */\n      tag_70\n        /* \"@openzeppelin/contracts/access/Ownable.sol\":1094:1105  _checkOwner */\n      tag_71\n        /* \"@openzeppelin/contracts/access/Ownable.sol\":1094:1107  _checkOwner() */\n      jump\t// in\n    tag_70:\n        /* \"@openzeppelin/contracts/access/Ownable.sol\":1895:1925  _transferOwnership(address(0)) */\n      tag_73\n        /* \"@openzeppelin/contracts/access/Ownable.sol\":1922:1923  0 */\n      0x00\n        /* \"@openzeppelin/contracts/access/Ownable.sol\":1895:1913  _transferOwnership */\n      tag_74\n        /* \"@openzeppelin/contracts/access/Ownable.sol\":1895:1925  _transferOwnership(address(0)) */\n      jump\t// in\n    tag_73:\n        /* \"@openzeppelin/contracts/access/Ownable.sol\":1831:1932  function renounceOwnership() public virtual onlyOwner {... */\n      jump\t// out\n        /* \"@openzeppelin/contracts/access/Ownable.sol\":1201:1286  function owner() public view virtual returns (address) {... */\n    tag_34:\n        /* \"@openzeppelin/contracts/access/Ownable.sol\":1247:1254  address */\n      0x00\n        /* \"@openzeppelin/contracts/access/Ownable.sol\":1273:1279  _owner */\n      dup1\n      0x00\n      swap1\n      sload\n      swap1\n      0x0100\n      exp\n      swap1\n      div\n      0xffffffffffffffffffffffffffffffffffffffff\n      and\n        /* \"@openzeppelin/contracts/access/Ownable.sol\":1266:1279  return _owner */\n      swap1\n      pop\n        /* \"@openzeppelin/contracts/access/Ownable.sol\":1201:1286  function owner() public view virtual returns (address) {... */\n      swap1\n      jump\t// out\n        /* \"contracts/Escrow.sol\":2296:2441  function taskValidationStatus(bool inputTaskValidated) public virtual onlyOwner{... */\n    tag_39:\n        /* \"@openzeppelin/contracts/access/Ownable.sol\":1094:1107  _checkOwner() */\n      tag_77\n        /* \"@openzeppelin/contracts/access/Ownable.sol\":1094:1105  _checkOwner */\n      tag_71\n        /* \"@openzeppelin/contracts/access/Ownable.sol\":1094:1107  _checkOwner() */\n      jump\t// in\n    tag_77:\n        /* \"contracts/Escrow.sol\":2397:2415  inputTaskValidated */\n      dup1\n        /* \"contracts/Escrow.sol\":2381:2394  taskValidated */\n      0x05\n      0x01\n        /* \"contracts/Escrow.sol\":2381:2415  taskValidated = inputTaskValidated */\n      0x0100\n      exp\n      dup2\n      sload\n      dup2\n      0xff\n      mul\n      not\n      and\n      swap1\n      dup4\n      iszero\n      iszero\n      mul\n      or\n      swap1\n      sstore\n      pop\n        /* \"contracts/Escrow.sol\":2421:2434  testPayment() */\n      tag_79\n        /* \"contracts/Escrow.sol\":2421:2432  testPayment */\n      tag_42\n        /* \"contracts/Escrow.sol\":2421:2434  testPayment() */\n      jump\t// in\n    tag_79:\n        /* \"contracts/Escrow.sol\":2296:2441  function taskValidationStatus(bool inputTaskValidated) public virtual onlyOwner{... */\n      pop\n      jump\t// out\n        /* \"contracts/Escrow.sol\":2447:3109  function testPayment() public virtual{... */\n    tag_42:\n        /* \"contracts/Escrow.sol\":2490:2512  uint256 balancePayment */\n      0x00\n        /* \"contracts/Escrow.sol\":2515:2536  address(this).balance */\n      selfbalance\n        /* \"contracts/Escrow.sol\":2490:2536  uint256 balancePayment = address(this).balance */\n      swap1\n      pop\n        /* \"contracts/Escrow.sol\":2542:2562  uint256 adminPayment */\n      0x00\n        /* \"contracts/Escrow.sol\":2586:2588  10 */\n      0x0a\n        /* \"contracts/Escrow.sol\":2583:2584  2 */\n      0x02\n        /* \"contracts/Escrow.sol\":2566:2580  balancePayment */\n      dup4\n        /* \"contracts/Escrow.sol\":2566:2584  balancePayment * 2 */\n      tag_81\n      swap2\n      swap1\n      tag_82\n      jump\t// in\n    tag_81:\n        /* \"contracts/Escrow.sol\":2565:2588  (balancePayment * 2)/10 */\n      tag_83\n      swap2\n      swap1\n      tag_84\n      jump\t// in\n    tag_83:\n        /* \"contracts/Escrow.sol\":2542:2588  uint256 adminPayment = (balancePayment * 2)/10 */\n      swap1\n      pop\n        /* \"contracts/Escrow.sol\":2636:2648  adminPayment */\n      dup1\n        /* \"contracts/Escrow.sol\":2618:2648  balancePayment -= adminPayment */\n      dup3\n      tag_85\n      swap2\n      swap1\n      tag_86\n      jump\t// in\n    tag_85:\n      swap2\n      pop\n        /* \"contracts/Escrow.sol\":2718:2722  true */\n      0x01\n        /* \"contracts/Escrow.sol\":2701:2722  taskCompleted == true */\n      iszero\n      iszero\n        /* \"contracts/Escrow.sol\":2701:2714  taskCompleted */\n      0x05\n      0x00\n      swap1\n      sload\n      swap1\n      0x0100\n      exp\n      swap1\n      div\n      0xff\n      and\n        /* \"contracts/Escrow.sol\":2701:2722  taskCompleted == true */\n      iszero\n      iszero\n      eq\n        /* \"contracts/Escrow.sol\":2701:2747  taskCompleted == true && taskValidated == true */\n      dup1\n      iszero\n      tag_87\n      jumpi\n      pop\n        /* \"contracts/Escrow.sol\":2743:2747  true */\n      0x01\n        /* \"contracts/Escrow.sol\":2726:2747  taskValidated == true */\n      iszero\n      iszero\n        /* \"contracts/Escrow.sol\":2726:2739  taskValidated */\n      0x05\n      0x01\n      swap1\n      sload\n      swap1\n      0x0100\n      exp\n      swap1\n      div\n      0xff\n      and\n        /* \"contracts/Escrow.sol\":2726:2747  taskValidated == true */\n      iszero\n      iszero\n      eq\n        /* \"contracts/Escrow.sol\":2701:2747  taskCompleted == true && taskValidated == true */\n    tag_87:\n        /* \"contracts/Escrow.sol\":2700:2797  (taskCompleted == true && taskValidated == true)||(adminResolution == true && adminDecision == 1) */\n      dup1\n      tag_88\n      jumpi\n      pop\n        /* \"contracts/Escrow.sol\":2770:2774  true */\n      0x01\n        /* \"contracts/Escrow.sol\":2751:2774  adminResolution == true */\n      iszero\n      iszero\n        /* \"contracts/Escrow.sol\":2751:2766  adminResolution */\n      0x05\n      0x02\n      swap1\n      sload\n      swap1\n      0x0100\n      exp\n      swap1\n      div\n      0xff\n      and\n        /* \"contracts/Escrow.sol\":2751:2774  adminResolution == true */\n      iszero\n      iszero\n      eq\n        /* \"contracts/Escrow.sol\":2751:2796  adminResolution == true && adminDecision == 1 */\n      dup1\n      iszero\n      tag_89\n      jumpi\n      pop\n        /* \"contracts/Escrow.sol\":2795:2796  1 */\n      0x01\n        /* \"contracts/Escrow.sol\":2778:2791  adminDecision */\n      sload(0x06)\n        /* \"contracts/Escrow.sol\":2778:2796  adminDecision == 1 */\n      eq\n        /* \"contracts/Escrow.sol\":2751:2796  adminResolution == true && adminDecision == 1 */\n    tag_89:\n        /* \"contracts/Escrow.sol\":2700:2797  (taskCompleted == true && taskValidated == true)||(adminResolution == true && adminDecision == 1) */\n    tag_88:\n        /* \"contracts/Escrow.sol\":2697:3102  if((taskCompleted == true && taskValidated == true)||(adminResolution == true && adminDecision == 1)){... */\n      iszero\n      tag_90\n      jumpi\n        /* \"contracts/Escrow.sol\":2812:2848  contractor.sendValue(balancePayment) */\n      tag_91\n        /* \"contracts/Escrow.sol\":2833:2847  balancePayment */\n      dup3\n        /* \"contracts/Escrow.sol\":2812:2822  contractor */\n      0x01\n      0x00\n      swap1\n      sload\n      swap1\n      0x0100\n      exp\n      swap1\n      div\n      0xffffffffffffffffffffffffffffffffffffffff\n      and\n        /* \"contracts/Escrow.sol\":2812:2832  contractor.sendValue */\n      0xffffffffffffffffffffffffffffffffffffffff\n      and\n      tag_92\n      swap1\n        /* \"contracts/Escrow.sol\":2812:2848  contractor.sendValue(balancePayment) */\n      swap2\n      swap1\n      0xffffffff\n      and\n      jump\t// in\n    tag_91:\n        /* \"contracts/Escrow.sol\":2862:2891  admin.sendValue(adminPayment) */\n      tag_93\n        /* \"contracts/Escrow.sol\":2878:2890  adminPayment */\n      dup2\n        /* \"contracts/Escrow.sol\":2862:2867  admin */\n      0x03\n      0x00\n      swap1\n      sload\n      swap1\n      0x0100\n      exp\n      swap1\n      div\n      0xffffffffffffffffffffffffffffffffffffffff\n      and\n        /* \"contracts/Escrow.sol\":2862:2877  admin.sendValue */\n      0xffffffffffffffffffffffffffffffffffffffff\n      and\n      tag_92\n      swap1\n        /* \"contracts/Escrow.sol\":2862:2891  admin.sendValue(adminPayment) */\n      swap2\n      swap1\n      0xffffffff\n      and\n      jump\t// in\n    tag_93:\n        /* \"contracts/Escrow.sol\":2697:3102  if((taskCompleted == true && taskValidated == true)||(adminResolution == true && adminDecision == 1)){... */\n      jump(tag_94)\n    tag_90:\n        /* \"contracts/Escrow.sol\":2938:2942  true */\n      0x01\n        /* \"contracts/Escrow.sol\":2919:2942  adminResolution == true */\n      iszero\n      iszero\n        /* \"contracts/Escrow.sol\":2919:2934  adminResolution */\n      0x05\n      0x02\n      swap1\n      sload\n      swap1\n      0x0100\n      exp\n      swap1\n      div\n      0xff\n      and\n        /* \"contracts/Escrow.sol\":2919:2942  adminResolution == true */\n      iszero\n      iszero\n      eq\n        /* \"contracts/Escrow.sol\":2919:2964  adminResolution == true && adminDecision == 0 */\n      dup1\n      iszero\n      tag_95\n      jumpi\n      pop\n        /* \"contracts/Escrow.sol\":2963:2964  0 */\n      0x00\n        /* \"contracts/Escrow.sol\":2946:2959  adminDecision */\n      sload(0x06)\n        /* \"contracts/Escrow.sol\":2946:2964  adminDecision == 0 */\n      eq\n        /* \"contracts/Escrow.sol\":2919:2964  adminResolution == true && adminDecision == 0 */\n    tag_95:\n        /* \"contracts/Escrow.sol\":2916:3102  if(adminResolution == true && adminDecision == 0){... */\n      iszero\n      tag_96\n      jumpi\n        /* \"contracts/Escrow.sol\":3058:3087  admin.sendValue(adminPayment) */\n      tag_97\n        /* \"contracts/Escrow.sol\":3074:3086  adminPayment */\n      dup2\n        /* \"contracts/Escrow.sol\":3058:3063  admin */\n      0x03\n      0x00\n      swap1\n      sload\n      swap1\n      0x0100\n      exp\n      swap1\n      div\n      0xffffffffffffffffffffffffffffffffffffffff\n      and\n        /* \"contracts/Escrow.sol\":3058:3073  admin.sendValue */\n      0xffffffffffffffffffffffffffffffffffffffff\n      and\n      tag_92\n      swap1\n        /* \"contracts/Escrow.sol\":3058:3087  admin.sendValue(adminPayment) */\n      swap2\n      swap1\n      0xffffffff\n      and\n      jump\t// in\n    tag_97:\n        /* \"contracts/Escrow.sol\":2916:3102  if(adminResolution == true && adminDecision == 0){... */\n    tag_96:\n        /* \"contracts/Escrow.sol\":2697:3102  if((taskCompleted == true && taskValidated == true)||(adminResolution == true && adminDecision == 1)){... */\n    tag_94:\n        /* \"contracts/Escrow.sol\":2484:3109  {... */\n      pop\n      pop\n        /* \"contracts/Escrow.sol\":2447:3109  function testPayment() public virtual{... */\n      jump\t// out\n        /* \"@openzeppelin/contracts/access/Ownable.sol\":2081:2279  function transferOwnership(address newOwner) public virtual onlyOwner {... */\n    tag_47:\n        /* \"@openzeppelin/contracts/access/Ownable.sol\":1094:1107  _checkOwner() */\n      tag_99\n        /* \"@openzeppelin/contracts/access/Ownable.sol\":1094:1105  _checkOwner */\n      tag_71\n        /* \"@openzeppelin/contracts/access/Ownable.sol\":1094:1107  _checkOwner() */\n      jump\t// in\n    tag_99:\n        /* \"@openzeppelin/contracts/access/Ownable.sol\":2189:2190  0 */\n      0x00\n        /* \"@openzeppelin/contracts/access/Ownable.sol\":2169:2191  newOwner != address(0) */\n      0xffffffffffffffffffffffffffffffffffffffff\n      and\n        /* \"@openzeppelin/contracts/access/Ownable.sol\":2169:2177  newOwner */\n      dup2\n        /* \"@openzeppelin/contracts/access/Ownable.sol\":2169:2191  newOwner != address(0) */\n      0xffffffffffffffffffffffffffffffffffffffff\n      and\n      eq\n      iszero\n        /* \"@openzeppelin/contracts/access/Ownable.sol\":2161:2234  require(newOwner != address(0), \"Ownable: new owner is the zero address\") */\n      tag_101\n      jumpi\n      mload(0x40)\n      0x08c379a000000000000000000000000000000000000000000000000000000000\n      dup2\n      mstore\n      0x04\n      add\n      tag_102\n      swap1\n      tag_103\n      jump\t// in\n    tag_102:\n      mload(0x40)\n      dup1\n      swap2\n      sub\n      swap1\n      revert\n    tag_101:\n        /* \"@openzeppelin/contracts/access/Ownable.sol\":2244:2272  _transferOwnership(newOwner) */\n      tag_104\n        /* \"@openzeppelin/contracts/access/Ownable.sol\":2263:2271  newOwner */\n      dup2\n        /* \"@openzeppelin/contracts/access/Ownable.sol\":2244:2262  _transferOwnership */\n      tag_74\n        /* \"@openzeppelin/contracts/access/Ownable.sol\":2244:2272  _transferOwnership(newOwner) */\n      jump\t// in\n    tag_104:\n        /* \"@openzeppelin/contracts/access/Ownable.sol\":2081:2279  function transferOwnership(address newOwner) public virtual onlyOwner {... */\n      pop\n      jump\t// out\n        /* \"contracts/Escrow.sol\":480:508  address payable public admin */\n    tag_50:\n      0x03\n      0x00\n      swap1\n      sload\n      swap1\n      0x0100\n      exp\n      swap1\n      div\n      0xffffffffffffffffffffffffffffffffffffffff\n      and\n      dup2\n      jump\t// out\n        /* \"contracts/Escrow.sol\":664:958  function deposit(address payable payee, address payable broker) public payable virtual onlyOwner {... */\n    tag_56:\n        /* \"@openzeppelin/contracts/access/Ownable.sol\":1094:1107  _checkOwner() */\n      tag_106\n        /* \"@openzeppelin/contracts/access/Ownable.sol\":1094:1105  _checkOwner */\n      tag_71\n        /* \"@openzeppelin/contracts/access/Ownable.sol\":1094:1107  _checkOwner() */\n      jump\t// in\n    tag_106:\n        /* \"contracts/Escrow.sol\":784:789  payee */\n      dup2\n        /* \"contracts/Escrow.sol\":771:781  contractor */\n      0x01\n      0x00\n        /* \"contracts/Escrow.sol\":771:789  contractor = payee */\n      0x0100\n      exp\n      dup2\n      sload\n      dup2\n      0xffffffffffffffffffffffffffffffffffffffff\n      mul\n      not\n      and\n      swap1\n      dup4\n      0xffffffffffffffffffffffffffffffffffffffff\n      and\n      mul\n      or\n      swap1\n      sstore\n      pop\n        /* \"contracts/Escrow.sol\":806:816  msg.sender */\n      caller\n        /* \"contracts/Escrow.sol\":799:805  client */\n      0x02\n      0x00\n        /* \"contracts/Escrow.sol\":799:816  client=msg.sender */\n      0x0100\n      exp\n      dup2\n      sload\n      dup2\n      0xffffffffffffffffffffffffffffffffffffffff\n      mul\n      not\n      and\n      swap1\n      dup4\n      0xffffffffffffffffffffffffffffffffffffffff\n      and\n      mul\n      or\n      swap1\n      sstore\n      pop\n        /* \"contracts/Escrow.sol\":834:840  broker */\n      dup1\n        /* \"contracts/Escrow.sol\":826:831  admin */\n      0x03\n      0x00\n        /* \"contracts/Escrow.sol\":826:840  admin = broker */\n      0x0100\n      exp\n      dup2\n      sload\n      dup2\n      0xffffffffffffffffffffffffffffffffffffffff\n      mul\n      not\n      and\n      swap1\n      dup4\n      0xffffffffffffffffffffffffffffffffffffffff\n      and\n      mul\n      or\n      swap1\n      sstore\n      pop\n        /* \"contracts/Escrow.sol\":850:864  uint256 amount */\n      0x00\n        /* \"contracts/Escrow.sol\":867:876  msg.value */\n      callvalue\n        /* \"contracts/Escrow.sol\":850:876  uint256 amount = msg.value */\n      swap1\n      pop\n        /* \"contracts/Escrow.sol\":906:912  amount */\n      dup1\n        /* \"contracts/Escrow.sol\":886:895  _deposits */\n      0x04\n        /* \"contracts/Escrow.sol\":886:902  _deposits[payee] */\n      0x00\n        /* \"contracts/Escrow.sol\":896:901  payee */\n      dup6\n        /* \"contracts/Escrow.sol\":886:902  _deposits[payee] */\n      0xffffffffffffffffffffffffffffffffffffffff\n      and\n      0xffffffffffffffffffffffffffffffffffffffff\n      and\n      dup2\n      mstore\n      0x20\n      add\n      swap1\n      dup2\n      mstore\n      0x20\n      add\n      0x00\n      keccak256\n      0x00\n        /* \"contracts/Escrow.sol\":886:912  _deposits[payee] += amount */\n      dup3\n      dup3\n      sload\n      tag_108\n      swap2\n      swap1\n      tag_109\n      jump\t// in\n    tag_108:\n      swap3\n      pop\n      pop\n      dup2\n      swap1\n      sstore\n      pop\n        /* \"contracts/Escrow.sol\":937:942  payee */\n      dup3\n        /* \"contracts/Escrow.sol\":927:951  Deposited(payee, amount) */\n      0xffffffffffffffffffffffffffffffffffffffff\n      and\n      0x2da466a7b24304f47e87fa2e1e5a81b9831ce54fec19055ce277ca2f39ba42c4\n        /* \"contracts/Escrow.sol\":944:950  amount */\n      dup3\n        /* \"contracts/Escrow.sol\":927:951  Deposited(payee, amount) */\n      mload(0x40)\n      tag_110\n      swap2\n      swap1\n      tag_111\n      jump\t// in\n    tag_110:\n      mload(0x40)\n      dup1\n      swap2\n      sub\n      swap1\n      log2\n        /* \"contracts/Escrow.sol\":761:958  {... */\n      pop\n        /* \"contracts/Escrow.sol\":664:958  function deposit(address payable payee, address payable broker) public payable virtual onlyOwner {... */\n      pop\n      pop\n      jump\t// out\n        /* \"contracts/Escrow.sol\":414:447  address payable public contractor */\n    tag_59:\n      0x01\n      0x00\n      swap1\n      sload\n      swap1\n      0x0100\n      exp\n      swap1\n      div\n      0xffffffffffffffffffffffffffffffffffffffff\n      and\n      dup2\n      jump\t// out\n        /* \"contracts/Escrow.sol\":1481:1598  function _checkAdmin() internal view virtual {... */\n    tag_63:\n        /* \"contracts/Escrow.sol\":1558:1563  admin */\n      0x03\n      0x00\n      swap1\n      sload\n      swap1\n      0x0100\n      exp\n      swap1\n      div\n      0xffffffffffffffffffffffffffffffffffffffff\n      and\n        /* \"contracts/Escrow.sol\":1544:1563  msg.sender == admin */\n      0xffffffffffffffffffffffffffffffffffffffff\n      and\n        /* \"contracts/Escrow.sol\":1544:1554  msg.sender */\n      caller\n        /* \"contracts/Escrow.sol\":1544:1563  msg.sender == admin */\n      0xffffffffffffffffffffffffffffffffffffffff\n      and\n      eq\n        /* \"contracts/Escrow.sol\":1536:1591  require(msg.sender == admin, \"caller is not the admin\") */\n      tag_113\n      jumpi\n      mload(0x40)\n      0x08c379a000000000000000000000000000000000000000000000000000000000\n      dup2\n      mstore\n      0x04\n      add\n      tag_114\n      swap1\n      tag_115\n      jump\t// in\n    tag_114:\n      mload(0x40)\n      dup1\n      swap2\n      sub\n      swap1\n      revert\n    tag_113:\n        /* \"contracts/Escrow.sol\":1481:1598  function _checkAdmin() internal view virtual {... */\n      jump\t// out\n        /* \"@openzeppelin/contracts/access/Ownable.sol\":1359:1489  function _checkOwner() internal view virtual {... */\n    tag_71:\n        /* \"@openzeppelin/contracts/access/Ownable.sol\":1433:1445  _msgSender() */\n      tag_117\n        /* \"@openzeppelin/contracts/access/Ownable.sol\":1433:1443  _msgSender */\n      tag_118\n        /* \"@openzeppelin/contracts/access/Ownable.sol\":1433:1445  _msgSender() */\n      jump\t// in\n    tag_117:\n        /* \"@openzeppelin/contracts/access/Ownable.sol\":1422:1445  owner() == _msgSender() */\n      0xffffffffffffffffffffffffffffffffffffffff\n      and\n        /* \"@openzeppelin/contracts/access/Ownable.sol\":1422:1429  owner() */\n      tag_119\n        /* \"@openzeppelin/contracts/access/Ownable.sol\":1422:1427  owner */\n      tag_34\n        /* \"@openzeppelin/contracts/access/Ownable.sol\":1422:1429  owner() */\n      jump\t// in\n    tag_119:\n        /* \"@openzeppelin/contracts/access/Ownable.sol\":1422:1445  owner() == _msgSender() */\n      0xffffffffffffffffffffffffffffffffffffffff\n      and\n      eq\n        /* \"@openzeppelin/contracts/access/Ownable.sol\":1414:1482  require(owner() == _msgSender(), \"Ownable: caller is not the owner\") */\n      tag_120\n      jumpi\n      mload(0x40)\n      0x08c379a000000000000000000000000000000000000000000000000000000000\n      dup2\n      mstore\n      0x04\n      add\n      tag_121\n      swap1\n      tag_122\n      jump\t// in\n    tag_121:\n      mload(0x40)\n      dup1\n      swap2\n      sub\n      swap1\n      revert\n    tag_120:\n        /* \"@openzeppelin/contracts/access/Ownable.sol\":1359:1489  function _checkOwner() internal view virtual {... */\n      jump\t// out\n        /* \"@openzeppelin/contracts/access/Ownable.sol\":2433:2620  function _transferOwnership(address newOwner) internal virtual {... */\n    tag_74:\n        /* \"@openzeppelin/contracts/access/Ownable.sol\":2506:2522  address oldOwner */\n      0x00\n        /* \"@openzeppelin/contracts/access/Ownable.sol\":2525:2531  _owner */\n      dup1\n      0x00\n      swap1\n      sload\n      swap1\n      0x0100\n      exp\n      swap1\n      div\n      0xffffffffffffffffffffffffffffffffffffffff\n      and\n        /* \"@openzeppelin/contracts/access/Ownable.sol\":2506:2531  address oldOwner = _owner */\n      swap1\n      pop\n        /* \"@openzeppelin/contracts/access/Ownable.sol\":2550:2558  newOwner */\n      dup2\n        /* \"@openzeppelin/contracts/access/Ownable.sol\":2541:2547  _owner */\n      0x00\n      dup1\n        /* \"@openzeppelin/contracts/access/Ownable.sol\":2541:2558  _owner = newOwner */\n      0x0100\n      exp\n      dup2\n      sload\n      dup2\n      0xffffffffffffffffffffffffffffffffffffffff\n      mul\n      not\n      and\n      swap1\n      dup4\n      0xffffffffffffffffffffffffffffffffffffffff\n      and\n      mul\n      or\n      swap1\n      sstore\n      pop\n        /* \"@openzeppelin/contracts/access/Ownable.sol\":2604:2612  newOwner */\n      dup2\n        /* \"@openzeppelin/contracts/access/Ownable.sol\":2573:2613  OwnershipTransferred(oldOwner, newOwner) */\n      0xffffffffffffffffffffffffffffffffffffffff\n      and\n        /* \"@openzeppelin/contracts/access/Ownable.sol\":2594:2602  oldOwner */\n      dup2\n        /* \"@openzeppelin/contracts/access/Ownable.sol\":2573:2613  OwnershipTransferred(oldOwner, newOwner) */\n      0xffffffffffffffffffffffffffffffffffffffff\n      and\n      0x8be0079c531659141344cd1fd0a4f28419497f9722a3daafe3b4186f6b6457e0\n      mload(0x40)\n      mload(0x40)\n      dup1\n      swap2\n      sub\n      swap1\n      log3\n        /* \"@openzeppelin/contracts/access/Ownable.sol\":2496:2620  {... */\n      pop\n        /* \"@openzeppelin/contracts/access/Ownable.sol\":2433:2620  function _transferOwnership(address newOwner) internal virtual {... */\n      pop\n      jump\t// out\n        /* \"@openzeppelin/contracts/utils/Address.sol\":2412:2724  function sendValue(address payable recipient, uint256 amount) internal {... */\n    tag_92:\n        /* \"@openzeppelin/contracts/utils/Address.sol\":2526:2532  amount */\n      dup1\n        /* \"@openzeppelin/contracts/utils/Address.sol\":2501:2522  address(this).balance */\n      selfbalance\n        /* \"@openzeppelin/contracts/utils/Address.sol\":2501:2532  address(this).balance >= amount */\n      lt\n      iszero\n        /* \"@openzeppelin/contracts/utils/Address.sol\":2493:2566  require(address(this).balance >= amount, \"Address: insufficient balance\") */\n      tag_125\n      jumpi\n      mload(0x40)\n      0x08c379a000000000000000000000000000000000000000000000000000000000\n      dup2\n      mstore\n      0x04\n      add\n      tag_126\n      swap1\n      tag_127\n      jump\t// in\n    tag_126:\n      mload(0x40)\n      dup1\n      swap2\n      sub\n      swap1\n      revert\n    tag_125:\n        /* \"@openzeppelin/contracts/utils/Address.sol\":2578:2590  bool success */\n      0x00\n        /* \"@openzeppelin/contracts/utils/Address.sol\":2596:2605  recipient */\n      dup3\n        /* \"@openzeppelin/contracts/utils/Address.sol\":2596:2610  recipient.call */\n      0xffffffffffffffffffffffffffffffffffffffff\n      and\n        /* \"@openzeppelin/contracts/utils/Address.sol\":2618:2624  amount */\n      dup3\n        /* \"@openzeppelin/contracts/utils/Address.sol\":2596:2629  recipient.call{value: amount}(\"\") */\n      mload(0x40)\n      tag_128\n      swap1\n      tag_129\n      jump\t// in\n    tag_128:\n      0x00\n      mload(0x40)\n      dup1\n      dup4\n      sub\n      dup2\n      dup6\n      dup8\n      gas\n      call\n      swap3\n      pop\n      pop\n      pop\n      returndatasize\n      dup1\n      0x00\n      dup2\n      eq\n      tag_132\n      jumpi\n      mload(0x40)\n      swap2\n      pop\n      and(add(returndatasize, 0x3f), not(0x1f))\n      dup3\n      add\n      0x40\n      mstore\n      returndatasize\n      dup3\n      mstore\n      returndatasize\n      0x00\n      0x20\n      dup5\n      add\n      returndatacopy\n      jump(tag_131)\n    tag_132:\n      0x60\n      swap2\n      pop\n    tag_131:\n      pop\n        /* \"@openzeppelin/contracts/utils/Address.sol\":2577:2629  (bool success, ) = recipient.call{value: amount}(\"\") */\n      pop\n      swap1\n      pop\n        /* \"@openzeppelin/contracts/utils/Address.sol\":2647:2654  success */\n      dup1\n        /* \"@openzeppelin/contracts/utils/Address.sol\":2639:2717  require(success, \"Address: unable to send value, recipient may have reverted\") */\n      tag_133\n      jumpi\n      mload(0x40)\n      0x08c379a000000000000000000000000000000000000000000000000000000000\n      dup2\n      mstore\n      0x04\n      add\n      tag_134\n      swap1\n      tag_135\n      jump\t// in\n    tag_134:\n      mload(0x40)\n      dup1\n      swap2\n      sub\n      swap1\n      revert\n    tag_133:\n        /* \"@openzeppelin/contracts/utils/Address.sol\":2483:2724  {... */\n      pop\n        /* \"@openzeppelin/contracts/utils/Address.sol\":2412:2724  function sendValue(address payable recipient, uint256 amount) internal {... */\n      pop\n      pop\n      jump\t// out\n        /* \"@openzeppelin/contracts/utils/Context.sol\":640:736  function _msgSender() internal view virtual returns (address) {... */\n    tag_118:\n        /* \"@openzeppelin/contracts/utils/Context.sol\":693:700  address */\n      0x00\n        /* \"@openzeppelin/contracts/utils/Context.sol\":719:729  msg.sender */\n      caller\n        /* \"@openzeppelin/contracts/utils/Context.sol\":712:729  return msg.sender */\n      swap1\n      pop\n        /* \"@openzeppelin/contracts/utils/Context.sol\":640:736  function _msgSender() internal view virtual returns (address) {... */\n      swap1\n      jump\t// out\n        /* \"#utility.yul\":7:146   */\n    tag_138:\n        /* \"#utility.yul\":53:58   */\n      0x00\n        /* \"#utility.yul\":91:97   */\n      dup2\n        /* \"#utility.yul\":78:98   */\n      calldataload\n        /* \"#utility.yul\":69:98   */\n      swap1\n      pop\n        /* \"#utility.yul\":107:140   */\n      tag_140\n        /* \"#utility.yul\":134:139   */\n      dup2\n        /* \"#utility.yul\":107:140   */\n      tag_141\n      jump\t// in\n    tag_140:\n        /* \"#utility.yul\":7:146   */\n      swap3\n      swap2\n      pop\n      pop\n      jump\t// out\n        /* \"#utility.yul\":152:307   */\n    tag_142:\n        /* \"#utility.yul\":206:211   */\n      0x00\n        /* \"#utility.yul\":244:250   */\n      dup2\n        /* \"#utility.yul\":231:251   */\n      calldataload\n        /* \"#utility.yul\":222:251   */\n      swap1\n      pop\n        /* \"#utility.yul\":260:301   */\n      tag_144\n        /* \"#utility.yul\":295:300   */\n      dup2\n        /* \"#utility.yul\":260:301   */\n      tag_145\n      jump\t// in\n    tag_144:\n        /* \"#utility.yul\":152:307   */\n      swap3\n      swap2\n      pop\n      pop\n      jump\t// out\n        /* \"#utility.yul\":313:446   */\n    tag_146:\n        /* \"#utility.yul\":356:361   */\n      0x00\n        /* \"#utility.yul\":394:400   */\n      dup2\n        /* \"#utility.yul\":381:401   */\n      calldataload\n        /* \"#utility.yul\":372:401   */\n      swap1\n      pop\n        /* \"#utility.yul\":410:440   */\n      tag_148\n        /* \"#utility.yul\":434:439   */\n      dup2\n        /* \"#utility.yul\":410:440   */\n      tag_149\n      jump\t// in\n    tag_148:\n        /* \"#utility.yul\":313:446   */\n      swap3\n      swap2\n      pop\n      pop\n      jump\t// out\n        /* \"#utility.yul\":452:591   */\n    tag_150:\n        /* \"#utility.yul\":498:503   */\n      0x00\n        /* \"#utility.yul\":536:542   */\n      dup2\n        /* \"#utility.yul\":523:543   */\n      calldataload\n        /* \"#utility.yul\":514:543   */\n      swap1\n      pop\n        /* \"#utility.yul\":552:585   */\n      tag_152\n        /* \"#utility.yul\":579:584   */\n      dup2\n        /* \"#utility.yul\":552:585   */\n      tag_153\n      jump\t// in\n    tag_152:\n        /* \"#utility.yul\":452:591   */\n      swap3\n      swap2\n      pop\n      pop\n      jump\t// out\n        /* \"#utility.yul\":597:926   */\n    tag_46:\n        /* \"#utility.yul\":656:662   */\n      0x00\n        /* \"#utility.yul\":705:707   */\n      0x20\n        /* \"#utility.yul\":693:702   */\n      dup3\n        /* \"#utility.yul\":684:691   */\n      dup5\n        /* \"#utility.yul\":680:703   */\n      sub\n        /* \"#utility.yul\":676:708   */\n      slt\n        /* \"#utility.yul\":673:792   */\n      iszero\n      tag_155\n      jumpi\n        /* \"#utility.yul\":711:790   */\n      tag_156\n      tag_157\n      jump\t// in\n    tag_156:\n        /* \"#utility.yul\":673:792   */\n    tag_155:\n        /* \"#utility.yul\":831:832   */\n      0x00\n        /* \"#utility.yul\":856:909   */\n      tag_158\n        /* \"#utility.yul\":901:908   */\n      dup5\n        /* \"#utility.yul\":892:898   */\n      dup3\n        /* \"#utility.yul\":881:890   */\n      dup6\n        /* \"#utility.yul\":877:899   */\n      add\n        /* \"#utility.yul\":856:909   */\n      tag_138\n      jump\t// in\n    tag_158:\n        /* \"#utility.yul\":846:909   */\n      swap2\n      pop\n        /* \"#utility.yul\":802:919   */\n      pop\n        /* \"#utility.yul\":597:926   */\n      swap3\n      swap2\n      pop\n      pop\n      jump\t// out\n        /* \"#utility.yul\":932:1438   */\n    tag_55:\n        /* \"#utility.yul\":1016:1022   */\n      0x00\n        /* \"#utility.yul\":1024:1030   */\n      dup1\n        /* \"#utility.yul\":1073:1075   */\n      0x40\n        /* \"#utility.yul\":1061:1070   */\n      dup4\n        /* \"#utility.yul\":1052:1059   */\n      dup6\n        /* \"#utility.yul\":1048:1071   */\n      sub\n        /* \"#utility.yul\":1044:1076   */\n      slt\n        /* \"#utility.yul\":1041:1160   */\n      iszero\n      tag_160\n      jumpi\n        /* \"#utility.yul\":1079:1158   */\n      tag_161\n      tag_157\n      jump\t// in\n    tag_161:\n        /* \"#utility.yul\":1041:1160   */\n    tag_160:\n        /* \"#utility.yul\":1199:1200   */\n      0x00\n        /* \"#utility.yul\":1224:1285   */\n      tag_162\n        /* \"#utility.yul\":1277:1284   */\n      dup6\n        /* \"#utility.yul\":1268:1274   */\n      dup3\n        /* \"#utility.yul\":1257:1266   */\n      dup7\n        /* \"#utility.yul\":1253:1275   */\n      add\n        /* \"#utility.yul\":1224:1285   */\n      tag_142\n      jump\t// in\n    tag_162:\n        /* \"#utility.yul\":1214:1285   */\n      swap3\n      pop\n        /* \"#utility.yul\":1170:1295   */\n      pop\n        /* \"#utility.yul\":1334:1336   */\n      0x20\n        /* \"#utility.yul\":1360:1421   */\n      tag_163\n        /* \"#utility.yul\":1413:1420   */\n      dup6\n        /* \"#utility.yul\":1404:1410   */\n      dup3\n        /* \"#utility.yul\":1393:1402   */\n      dup7\n        /* \"#utility.yul\":1389:1411   */\n      add\n        /* \"#utility.yul\":1360:1421   */\n      tag_142\n      jump\t// in\n    tag_163:\n        /* \"#utility.yul\":1350:1421   */\n      swap2\n      pop\n        /* \"#utility.yul\":1305:1431   */\n      pop\n        /* \"#utility.yul\":932:1438   */\n      swap3\n      pop\n      swap3\n      swap1\n      pop\n      jump\t// out\n        /* \"#utility.yul\":1444:1767   */\n    tag_22:\n        /* \"#utility.yul\":1500:1506   */\n      0x00\n        /* \"#utility.yul\":1549:1551   */\n      0x20\n        /* \"#utility.yul\":1537:1546   */\n      dup3\n        /* \"#utility.yul\":1528:1535   */\n      dup5\n        /* \"#utility.yul\":1524:1547   */\n      sub\n        /* \"#utility.yul\":1520:1552   */\n      slt\n        /* \"#utility.yul\":1517:1636   */\n      iszero\n      tag_165\n      jumpi\n        /* \"#utility.yul\":1555:1634   */\n      tag_166\n      tag_157\n      jump\t// in\n    tag_166:\n        /* \"#utility.yul\":1517:1636   */\n    tag_165:\n        /* \"#utility.yul\":1675:1676   */\n      0x00\n        /* \"#utility.yul\":1700:1750   */\n      tag_167\n        /* \"#utility.yul\":1742:1749   */\n      dup5\n        /* \"#utility.yul\":1733:1739   */\n      dup3\n        /* \"#utility.yul\":1722:1731   */\n      dup6\n        /* \"#utility.yul\":1718:1740   */\n      add\n        /* \"#utility.yul\":1700:1750   */\n      tag_146\n      jump\t// in\n    tag_167:\n        /* \"#utility.yul\":1690:1750   */\n      swap2\n      pop\n        /* \"#utility.yul\":1646:1760   */\n      pop\n        /* \"#utility.yul\":1444:1767   */\n      swap3\n      swap2\n      pop\n      pop\n      jump\t// out\n        /* \"#utility.yul\":1773:2241   */\n    tag_27:\n        /* \"#utility.yul\":1838:1844   */\n      0x00\n        /* \"#utility.yul\":1846:1852   */\n      dup1\n        /* \"#utility.yul\":1895:1897   */\n      0x40\n        /* \"#utility.yul\":1883:1892   */\n      dup4\n        /* \"#utility.yul\":1874:1881   */\n      dup6\n        /* \"#utility.yul\":1870:1893   */\n      sub\n        /* \"#utility.yul\":1866:1898   */\n      slt\n        /* \"#utility.yul\":1863:1982   */\n      iszero\n      tag_169\n      jumpi\n        /* \"#utility.yul\":1901:1980   */\n      tag_170\n      tag_157\n      jump\t// in\n    tag_170:\n        /* \"#utility.yul\":1863:1982   */\n    tag_169:\n        /* \"#utility.yul\":2021:2022   */\n      0x00\n        /* \"#utility.yul\":2046:2096   */\n      tag_171\n        /* \"#utility.yul\":2088:2095   */\n      dup6\n        /* \"#utility.yul\":2079:2085   */\n      dup3\n        /* \"#utility.yul\":2068:2077   */\n      dup7\n        /* \"#utility.yul\":2064:2086   */\n      add\n        /* \"#utility.yul\":2046:2096   */\n      tag_146\n      jump\t// in\n    tag_171:\n        /* \"#utility.yul\":2036:2096   */\n      swap3\n      pop\n        /* \"#utility.yul\":1992:2106   */\n      pop\n        /* \"#utility.yul\":2145:2147   */\n      0x20\n        /* \"#utility.yul\":2171:2224   */\n      tag_172\n        /* \"#utility.yul\":2216:2223   */\n      dup6\n        /* \"#utility.yul\":2207:2213   */\n      dup3\n        /* \"#utility.yul\":2196:2205   */\n      dup7\n        /* \"#utility.yul\":2192:2214   */\n      add\n        /* \"#utility.yul\":2171:2224   */\n      tag_150\n      jump\t// in\n    tag_172:\n        /* \"#utility.yul\":2161:2224   */\n      swap2\n      pop\n        /* \"#utility.yul\":2116:2234   */\n      pop\n        /* \"#utility.yul\":1773:2241   */\n      swap3\n      pop\n      swap3\n      swap1\n      pop\n      jump\t// out\n        /* \"#utility.yul\":2247:2389   */\n    tag_173:\n        /* \"#utility.yul\":2350:2382   */\n      tag_175\n        /* \"#utility.yul\":2376:2381   */\n      dup2\n        /* \"#utility.yul\":2350:2382   */\n      tag_176\n      jump\t// in\n    tag_175:\n        /* \"#utility.yul\":2345:2348   */\n      dup3\n        /* \"#utility.yul\":2338:2383   */\n      mstore\n        /* \"#utility.yul\":2247:2389   */\n      pop\n      pop\n      jump\t// out\n        /* \"#utility.yul\":2395:2513   */\n    tag_177:\n        /* \"#utility.yul\":2482:2506   */\n      tag_179\n        /* \"#utility.yul\":2500:2505   */\n      dup2\n        /* \"#utility.yul\":2482:2506   */\n      tag_180\n      jump\t// in\n    tag_179:\n        /* \"#utility.yul\":2477:2480   */\n      dup3\n        /* \"#utility.yul\":2470:2507   */\n      mstore\n        /* \"#utility.yul\":2395:2513   */\n      pop\n      pop\n      jump\t// out\n        /* \"#utility.yul\":2519:2885   */\n    tag_181:\n        /* \"#utility.yul\":2661:2664   */\n      0x00\n        /* \"#utility.yul\":2682:2749   */\n      tag_183\n        /* \"#utility.yul\":2746:2748   */\n      0x26\n        /* \"#utility.yul\":2741:2744   */\n      dup4\n        /* \"#utility.yul\":2682:2749   */\n      tag_184\n      jump\t// in\n    tag_183:\n        /* \"#utility.yul\":2675:2749   */\n      swap2\n      pop\n        /* \"#utility.yul\":2758:2851   */\n      tag_185\n        /* \"#utility.yul\":2847:2850   */\n      dup3\n        /* \"#utility.yul\":2758:2851   */\n      tag_186\n      jump\t// in\n    tag_185:\n        /* \"#utility.yul\":2876:2878   */\n      0x40\n        /* \"#utility.yul\":2871:2874   */\n      dup3\n        /* \"#utility.yul\":2867:2879   */\n      add\n        /* \"#utility.yul\":2860:2879   */\n      swap1\n      pop\n        /* \"#utility.yul\":2519:2885   */\n      swap2\n      swap1\n      pop\n      jump\t// out\n        /* \"#utility.yul\":2891:3257   */\n    tag_187:\n        /* \"#utility.yul\":3033:3036   */\n      0x00\n        /* \"#utility.yul\":3054:3121   */\n      tag_189\n        /* \"#utility.yul\":3118:3120   */\n      0x3a\n        /* \"#utility.yul\":3113:3116   */\n      dup4\n        /* \"#utility.yul\":3054:3121   */\n      tag_184\n      jump\t// in\n    tag_189:\n        /* \"#utility.yul\":3047:3121   */\n      swap2\n      pop\n        /* \"#utility.yul\":3130:3223   */\n      tag_190\n        /* \"#utility.yul\":3219:3222   */\n      dup3\n        /* \"#utility.yul\":3130:3223   */\n      tag_191\n      jump\t// in\n    tag_190:\n        /* \"#utility.yul\":3248:3250   */\n      0x40\n        /* \"#utility.yul\":3243:3246   */\n      dup3\n        /* \"#utility.yul\":3239:3251   */\n      add\n        /* \"#utility.yul\":3232:3251   */\n      swap1\n      pop\n        /* \"#utility.yul\":2891:3257   */\n      swap2\n      swap1\n      pop\n      jump\t// out\n        /* \"#utility.yul\":3263:3629   */\n    tag_192:\n        /* \"#utility.yul\":3405:3408   */\n      0x00\n        /* \"#utility.yul\":3426:3493   */\n      tag_194\n        /* \"#utility.yul\":3490:3492   */\n      0x1d\n        /* \"#utility.yul\":3485:3488   */\n      dup4\n        /* \"#utility.yul\":3426:3493   */\n      tag_184\n      jump\t// in\n    tag_194:\n        /* \"#utility.yul\":3419:3493   */\n      swap2\n      pop\n        /* \"#utility.yul\":3502:3595   */\n      tag_195\n        /* \"#utility.yul\":3591:3594   */\n      dup3\n        /* \"#utility.yul\":3502:3595   */\n      tag_196\n      jump\t// in\n    tag_195:\n        /* \"#utility.yul\":3620:3622   */\n      0x20\n        /* \"#utility.yul\":3615:3618   */\n      dup3\n        /* \"#utility.yul\":3611:3623   */\n      add\n        /* \"#utility.yul\":3604:3623   */\n      swap1\n      pop\n        /* \"#utility.yul\":3263:3629   */\n      swap2\n      swap1\n      pop\n      jump\t// out\n        /* \"#utility.yul\":3635:4001   */\n    tag_197:\n        /* \"#utility.yul\":3777:3780   */\n      0x00\n        /* \"#utility.yul\":3798:3865   */\n      tag_199\n        /* \"#utility.yul\":3862:3864   */\n      0x20\n        /* \"#utility.yul\":3857:3860   */\n      dup4\n        /* \"#utility.yul\":3798:3865   */\n      tag_184\n      jump\t// in\n    tag_199:\n        /* \"#utility.yul\":3791:3865   */\n      swap2\n      pop\n        /* \"#utility.yul\":3874:3967   */\n      tag_200\n        /* \"#utility.yul\":3963:3966   */\n      dup3\n        /* \"#utility.yul\":3874:3967   */\n      tag_201\n      jump\t// in\n    tag_200:\n        /* \"#utility.yul\":3992:3994   */\n      0x20\n        /* \"#utility.yul\":3987:3990   */\n      dup3\n        /* \"#utility.yul\":3983:3995   */\n      add\n        /* \"#utility.yul\":3976:3995   */\n      swap1\n      pop\n        /* \"#utility.yul\":3635:4001   */\n      swap2\n      swap1\n      pop\n      jump\t// out\n        /* \"#utility.yul\":4007:4405   */\n    tag_202:\n        /* \"#utility.yul\":4166:4169   */\n      0x00\n        /* \"#utility.yul\":4187:4270   */\n      tag_204\n        /* \"#utility.yul\":4268:4269   */\n      0x00\n        /* \"#utility.yul\":4263:4266   */\n      dup4\n        /* \"#utility.yul\":4187:4270   */\n      tag_205\n      jump\t// in\n    tag_204:\n        /* \"#utility.yul\":4180:4270   */\n      swap2\n      pop\n        /* \"#utility.yul\":4279:4372   */\n      tag_206\n        /* \"#utility.yul\":4368:4371   */\n      dup3\n        /* \"#utility.yul\":4279:4372   */\n      tag_207\n      jump\t// in\n    tag_206:\n        /* \"#utility.yul\":4397:4398   */\n      0x00\n        /* \"#utility.yul\":4392:4395   */\n      dup3\n        /* \"#utility.yul\":4388:4399   */\n      add\n        /* \"#utility.yul\":4381:4399   */\n      swap1\n      pop\n        /* \"#utility.yul\":4007:4405   */\n      swap2\n      swap1\n      pop\n      jump\t// out\n        /* \"#utility.yul\":4411:4777   */\n    tag_208:\n        /* \"#utility.yul\":4553:4556   */\n      0x00\n        /* \"#utility.yul\":4574:4641   */\n      tag_210\n        /* \"#utility.yul\":4638:4640   */\n      0x17\n        /* \"#utility.yul\":4633:4636   */\n      dup4\n        /* \"#utility.yul\":4574:4641   */\n      tag_184\n      jump\t// in\n    tag_210:\n        /* \"#utility.yul\":4567:4641   */\n      swap2\n      pop\n        /* \"#utility.yul\":4650:4743   */\n      tag_211\n        /* \"#utility.yul\":4739:4742   */\n      dup3\n        /* \"#utility.yul\":4650:4743   */\n      tag_212\n      jump\t// in\n    tag_211:\n        /* \"#utility.yul\":4768:4770   */\n      0x20\n        /* \"#utility.yul\":4763:4766   */\n      dup3\n        /* \"#utility.yul\":4759:4771   */\n      add\n        /* \"#utility.yul\":4752:4771   */\n      swap1\n      pop\n        /* \"#utility.yul\":4411:4777   */\n      swap2\n      swap1\n      pop\n      jump\t// out\n        /* \"#utility.yul\":4783:4901   */\n    tag_213:\n        /* \"#utility.yul\":4870:4894   */\n      tag_215\n        /* \"#utility.yul\":4888:4893   */\n      dup2\n        /* \"#utility.yul\":4870:4894   */\n      tag_216\n      jump\t// in\n    tag_215:\n        /* \"#utility.yul\":4865:4868   */\n      dup3\n        /* \"#utility.yul\":4858:4895   */\n      mstore\n        /* \"#utility.yul\":4783:4901   */\n      pop\n      pop\n      jump\t// out\n        /* \"#utility.yul\":4907:5286   */\n    tag_129:\n        /* \"#utility.yul\":5091:5094   */\n      0x00\n        /* \"#utility.yul\":5113:5260   */\n      tag_218\n        /* \"#utility.yul\":5256:5259   */\n      dup3\n        /* \"#utility.yul\":5113:5260   */\n      tag_202\n      jump\t// in\n    tag_218:\n        /* \"#utility.yul\":5106:5260   */\n      swap2\n      pop\n        /* \"#utility.yul\":5277:5280   */\n      dup2\n        /* \"#utility.yul\":5270:5280   */\n      swap1\n      pop\n        /* \"#utility.yul\":4907:5286   */\n      swap2\n      swap1\n      pop\n      jump\t// out\n        /* \"#utility.yul\":5292:5514   */\n    tag_18:\n        /* \"#utility.yul\":5385:5389   */\n      0x00\n        /* \"#utility.yul\":5423:5425   */\n      0x20\n        /* \"#utility.yul\":5412:5421   */\n      dup3\n        /* \"#utility.yul\":5408:5426   */\n      add\n        /* \"#utility.yul\":5400:5426   */\n      swap1\n      pop\n        /* \"#utility.yul\":5436:5507   */\n      tag_220\n        /* \"#utility.yul\":5504:5505   */\n      0x00\n        /* \"#utility.yul\":5493:5502   */\n      dup4\n        /* \"#utility.yul\":5489:5506   */\n      add\n        /* \"#utility.yul\":5480:5486   */\n      dup5\n        /* \"#utility.yul\":5436:5507   */\n      tag_177\n      jump\t// in\n    tag_220:\n        /* \"#utility.yul\":5292:5514   */\n      swap3\n      swap2\n      pop\n      pop\n      jump\t// out\n        /* \"#utility.yul\":5520:5774   */\n    tag_52:\n        /* \"#utility.yul\":5629:5633   */\n      0x00\n        /* \"#utility.yul\":5667:5669   */\n      0x20\n        /* \"#utility.yul\":5656:5665   */\n      dup3\n        /* \"#utility.yul\":5652:5670   */\n      add\n        /* \"#utility.yul\":5644:5670   */\n      swap1\n      pop\n        /* \"#utility.yul\":5680:5767   */\n      tag_222\n        /* \"#utility.yul\":5764:5765   */\n      0x00\n        /* \"#utility.yul\":5753:5762   */\n      dup4\n        /* \"#utility.yul\":5749:5766   */\n      add\n        /* \"#utility.yul\":5740:5746   */\n      dup5\n        /* \"#utility.yul\":5680:5767   */\n      tag_173\n      jump\t// in\n    tag_222:\n        /* \"#utility.yul\":5520:5774   */\n      swap3\n      swap2\n      pop\n      pop\n      jump\t// out\n        /* \"#utility.yul\":5780:6199   */\n    tag_103:\n        /* \"#utility.yul\":5946:5950   */\n      0x00\n        /* \"#utility.yul\":5984:5986   */\n      0x20\n        /* \"#utility.yul\":5973:5982   */\n      dup3\n        /* \"#utility.yul\":5969:5987   */\n      add\n        /* \"#utility.yul\":5961:5987   */\n      swap1\n      pop\n        /* \"#utility.yul\":6033:6042   */\n      dup2\n        /* \"#utility.yul\":6027:6031   */\n      dup2\n        /* \"#utility.yul\":6023:6043   */\n      sub\n        /* \"#utility.yul\":6019:6020   */\n      0x00\n        /* \"#utility.yul\":6008:6017   */\n      dup4\n        /* \"#utility.yul\":6004:6021   */\n      add\n        /* \"#utility.yul\":5997:6044   */\n      mstore\n        /* \"#utility.yul\":6061:6192   */\n      tag_224\n        /* \"#utility.yul\":6187:6191   */\n      dup2\n        /* \"#utility.yul\":6061:6192   */\n      tag_181\n      jump\t// in\n    tag_224:\n        /* \"#utility.yul\":6053:6192   */\n      swap1\n      pop\n        /* \"#utility.yul\":5780:6199   */\n      swap2\n      swap1\n      pop\n      jump\t// out\n        /* \"#utility.yul\":6205:6624   */\n    tag_135:\n        /* \"#utility.yul\":6371:6375   */\n      0x00\n        /* \"#utility.yul\":6409:6411   */\n      0x20\n        /* \"#utility.yul\":6398:6407   */\n      dup3\n        /* \"#utility.yul\":6394:6412   */\n      add\n        /* \"#utility.yul\":6386:6412   */\n      swap1\n      pop\n        /* \"#utility.yul\":6458:6467   */\n      dup2\n        /* \"#utility.yul\":6452:6456   */\n      dup2\n        /* \"#utility.yul\":6448:6468   */\n      sub\n        /* \"#utility.yul\":6444:6445   */\n      0x00\n        /* \"#utility.yul\":6433:6442   */\n      dup4\n        /* \"#utility.yul\":6429:6446   */\n      add\n        /* \"#utility.yul\":6422:6469   */\n      mstore\n        /* \"#utility.yul\":6486:6617   */\n      tag_226\n        /* \"#utility.yul\":6612:6616   */\n      dup2\n        /* \"#utility.yul\":6486:6617   */\n      tag_187\n      jump\t// in\n    tag_226:\n        /* \"#utility.yul\":6478:6617   */\n      swap1\n      pop\n        /* \"#utility.yul\":6205:6624   */\n      swap2\n      swap1\n      pop\n      jump\t// out\n        /* \"#utility.yul\":6630:7049   */\n    tag_127:\n        /* \"#utility.yul\":6796:6800   */\n      0x00\n        /* \"#utility.yul\":6834:6836   */\n      0x20\n        /* \"#utility.yul\":6823:6832   */\n      dup3\n        /* \"#utility.yul\":6819:6837   */\n      add\n        /* \"#utility.yul\":6811:6837   */\n      swap1\n      pop\n        /* \"#utility.yul\":6883:6892   */\n      dup2\n        /* \"#utility.yul\":6877:6881   */\n      dup2\n        /* \"#utility.yul\":6873:6893   */\n      sub\n        /* \"#utility.yul\":6869:6870   */\n      0x00\n        /* \"#utility.yul\":6858:6867   */\n      dup4\n        /* \"#utility.yul\":6854:6871   */\n      add\n        /* \"#utility.yul\":6847:6894   */\n      mstore\n        /* \"#utility.yul\":6911:7042   */\n      tag_228\n        /* \"#utility.yul\":7037:7041   */\n      dup2\n        /* \"#utility.yul\":6911:7042   */\n      tag_192\n      jump\t// in\n    tag_228:\n        /* \"#utility.yul\":6903:7042   */\n      swap1\n      pop\n        /* \"#utility.yul\":6630:7049   */\n      swap2\n      swap1\n      pop\n      jump\t// out\n        /* \"#utility.yul\":7055:7474   */\n    tag_122:\n        /* \"#utility.yul\":7221:7225   */\n      0x00\n        /* \"#utility.yul\":7259:7261   */\n      0x20\n        /* \"#utility.yul\":7248:7257   */\n      dup3\n        /* \"#utility.yul\":7244:7262   */\n      add\n        /* \"#utility.yul\":7236:7262   */\n      swap1\n      pop\n        /* \"#utility.yul\":7308:7317   */\n      dup2\n        /* \"#utility.yul\":7302:7306   */\n      dup2\n        /* \"#utility.yul\":7298:7318   */\n      sub\n        /* \"#utility.yul\":7294:7295   */\n      0x00\n        /* \"#utility.yul\":7283:7292   */\n      dup4\n        /* \"#utility.yul\":7279:7296   */\n      add\n        /* \"#utility.yul\":7272:7319   */\n      mstore\n        /* \"#utility.yul\":7336:7467   */\n      tag_230\n        /* \"#utility.yul\":7462:7466   */\n      dup2\n        /* \"#utility.yul\":7336:7467   */\n      tag_197\n      jump\t// in\n    tag_230:\n        /* \"#utility.yul\":7328:7467   */\n      swap1\n      pop\n        /* \"#utility.yul\":7055:7474   */\n      swap2\n      swap1\n      pop\n      jump\t// out\n        /* \"#utility.yul\":7480:7899   */\n    tag_115:\n        /* \"#utility.yul\":7646:7650   */\n      0x00\n        /* \"#utility.yul\":7684:7686   */\n      0x20\n        /* \"#utility.yul\":7673:7682   */\n      dup3\n        /* \"#utility.yul\":7669:7687   */\n      add\n        /* \"#utility.yul\":7661:7687   */\n      swap1\n      pop\n        /* \"#utility.yul\":7733:7742   */\n      dup2\n        /* \"#utility.yul\":7727:7731   */\n      dup2\n        /* \"#utility.yul\":7723:7743   */\n      sub\n        /* \"#utility.yul\":7719:7720   */\n      0x00\n        /* \"#utility.yul\":7708:7717   */\n      dup4\n        /* \"#utility.yul\":7704:7721   */\n      add\n        /* \"#utility.yul\":7697:7744   */\n      mstore\n        /* \"#utility.yul\":7761:7892   */\n      tag_232\n        /* \"#utility.yul\":7887:7891   */\n      dup2\n        /* \"#utility.yul\":7761:7892   */\n      tag_208\n      jump\t// in\n    tag_232:\n        /* \"#utility.yul\":7753:7892   */\n      swap1\n      pop\n        /* \"#utility.yul\":7480:7899   */\n      swap2\n      swap1\n      pop\n      jump\t// out\n        /* \"#utility.yul\":7905:8127   */\n    tag_111:\n        /* \"#utility.yul\":7998:8002   */\n      0x00\n        /* \"#utility.yul\":8036:8038   */\n      0x20\n        /* \"#utility.yul\":8025:8034   */\n      dup3\n        /* \"#utility.yul\":8021:8039   */\n      add\n        /* \"#utility.yul\":8013:8039   */\n      swap1\n      pop\n        /* \"#utility.yul\":8049:8120   */\n      tag_234\n        /* \"#utility.yul\":8117:8118   */\n      0x00\n        /* \"#utility.yul\":8106:8115   */\n      dup4\n        /* \"#utility.yul\":8102:8119   */\n      add\n        /* \"#utility.yul\":8093:8099   */\n      dup5\n        /* \"#utility.yul\":8049:8120   */\n      tag_213\n      jump\t// in\n    tag_234:\n        /* \"#utility.yul\":7905:8127   */\n      swap3\n      swap2\n      pop\n      pop\n      jump\t// out\n        /* \"#utility.yul\":8214:8361   */\n    tag_205:\n        /* \"#utility.yul\":8315:8326   */\n      0x00\n        /* \"#utility.yul\":8352:8355   */\n      dup2\n        /* \"#utility.yul\":8337:8355   */\n      swap1\n      pop\n        /* \"#utility.yul\":8214:8361   */\n      swap3\n      swap2\n      pop\n      pop\n      jump\t// out\n        /* \"#utility.yul\":8367:8536   */\n    tag_184:\n        /* \"#utility.yul\":8451:8462   */\n      0x00\n        /* \"#utility.yul\":8485:8491   */\n      dup3\n        /* \"#utility.yul\":8480:8483   */\n      dup3\n        /* \"#utility.yul\":8473:8492   */\n      mstore\n        /* \"#utility.yul\":8525:8529   */\n      0x20\n        /* \"#utility.yul\":8520:8523   */\n      dup3\n        /* \"#utility.yul\":8516:8530   */\n      add\n        /* \"#utility.yul\":8501:8530   */\n      swap1\n      pop\n        /* \"#utility.yul\":8367:8536   */\n      swap3\n      swap2\n      pop\n      pop\n      jump\t// out\n        /* \"#utility.yul\":8542:8847   */\n    tag_109:\n        /* \"#utility.yul\":8582:8585   */\n      0x00\n        /* \"#utility.yul\":8601:8621   */\n      tag_240\n        /* \"#utility.yul\":8619:8620   */\n      dup3\n        /* \"#utility.yul\":8601:8621   */\n      tag_216\n      jump\t// in\n    tag_240:\n        /* \"#utility.yul\":8596:8621   */\n      swap2\n      pop\n        /* \"#utility.yul\":8635:8655   */\n      tag_241\n        /* \"#utility.yul\":8653:8654   */\n      dup4\n        /* \"#utility.yul\":8635:8655   */\n      tag_216\n      jump\t// in\n    tag_241:\n        /* \"#utility.yul\":8630:8655   */\n      swap3\n      pop\n        /* \"#utility.yul\":8789:8790   */\n      dup3\n        /* \"#utility.yul\":8721:8787   */\n      0xffffffffffffffffffffffffffffffffffffffffffffffffffffffffffffffff\n        /* \"#utility.yul\":8717:8791   */\n      sub\n        /* \"#utility.yul\":8714:8715   */\n      dup3\n        /* \"#utility.yul\":8711:8792   */\n      gt\n        /* \"#utility.yul\":8708:8815   */\n      iszero\n      tag_242\n      jumpi\n        /* \"#utility.yul\":8795:8813   */\n      tag_243\n      tag_244\n      jump\t// in\n    tag_243:\n        /* \"#utility.yul\":8708:8815   */\n    tag_242:\n        /* \"#utility.yul\":8839:8840   */\n      dup3\n        /* \"#utility.yul\":8836:8837   */\n      dup3\n        /* \"#utility.yul\":8832:8841   */\n      add\n        /* \"#utility.yul\":8825:8841   */\n      swap1\n      pop\n        /* \"#utility.yul\":8542:8847   */\n      swap3\n      swap2\n      pop\n      pop\n      jump\t// out\n        /* \"#utility.yul\":8853:9038   */\n    tag_84:\n        /* \"#utility.yul\":8893:8894   */\n      0x00\n        /* \"#utility.yul\":8910:8930   */\n      tag_246\n        /* \"#utility.yul\":8928:8929   */\n      dup3\n        /* \"#utility.yul\":8910:8930   */\n      tag_216\n      jump\t// in\n    tag_246:\n        /* \"#utility.yul\":8905:8930   */\n      swap2\n      pop\n        /* \"#utility.yul\":8944:8964   */\n      tag_247\n        /* \"#utility.yul\":8962:8963   */\n      dup4\n        /* \"#utility.yul\":8944:8964   */\n      tag_216\n      jump\t// in\n    tag_247:\n        /* \"#utility.yul\":8939:8964   */\n      swap3\n      pop\n        /* \"#utility.yul\":8983:8984   */\n      dup3\n        /* \"#utility.yul\":8973:9008   */\n      tag_248\n      jumpi\n        /* \"#utility.yul\":8988:9006   */\n      tag_249\n      tag_250\n      jump\t// in\n    tag_249:\n        /* \"#utility.yul\":8973:9008   */\n    tag_248:\n        /* \"#utility.yul\":9030:9031   */\n      dup3\n        /* \"#utility.yul\":9027:9028   */\n      dup3\n        /* \"#utility.yul\":9023:9032   */\n      div\n        /* \"#utility.yul\":9018:9032   */\n      swap1\n      pop\n        /* \"#utility.yul\":8853:9038   */\n      swap3\n      swap2\n      pop\n      pop\n      jump\t// out\n        /* \"#utility.yul\":9044:9392   */\n    tag_82:\n        /* \"#utility.yul\":9084:9091   */\n      0x00\n        /* \"#utility.yul\":9107:9127   */\n      tag_252\n        /* \"#utility.yul\":9125:9126   */\n      dup3\n        /* \"#utility.yul\":9107:9127   */\n      tag_216\n      jump\t// in\n    tag_252:\n        /* \"#utility.yul\":9102:9127   */\n      swap2\n      pop\n        /* \"#utility.yul\":9141:9161   */\n      tag_253\n        /* \"#utility.yul\":9159:9160   */\n      dup4\n        /* \"#utility.yul\":9141:9161   */\n      tag_216\n      jump\t// in\n    tag_253:\n        /* \"#utility.yul\":9136:9161   */\n      swap3\n      pop\n        /* \"#utility.yul\":9329:9330   */\n      dup2\n        /* \"#utility.yul\":9261:9327   */\n      0xffffffffffffffffffffffffffffffffffffffffffffffffffffffffffffffff\n        /* \"#utility.yul\":9257:9331   */\n      div\n        /* \"#utility.yul\":9254:9255   */\n      dup4\n        /* \"#utility.yul\":9251:9332   */\n      gt\n        /* \"#utility.yul\":9246:9247   */\n      dup3\n        /* \"#utility.yul\":9239:9248   */\n      iszero\n        /* \"#utility.yul\":9232:9249   */\n      iszero\n        /* \"#utility.yul\":9228:9333   */\n      and\n        /* \"#utility.yul\":9225:9356   */\n      iszero\n      tag_254\n      jumpi\n        /* \"#utility.yul\":9336:9354   */\n      tag_255\n      tag_244\n      jump\t// in\n    tag_255:\n        /* \"#utility.yul\":9225:9356   */\n    tag_254:\n        /* \"#utility.yul\":9384:9385   */\n      dup3\n        /* \"#utility.yul\":9381:9382   */\n      dup3\n        /* \"#utility.yul\":9377:9386   */\n      mul\n        /* \"#utility.yul\":9366:9386   */\n      swap1\n      pop\n        /* \"#utility.yul\":9044:9392   */\n      swap3\n      swap2\n      pop\n      pop\n      jump\t// out\n        /* \"#utility.yul\":9398:9589   */\n    tag_86:\n        /* \"#utility.yul\":9438:9442   */\n      0x00\n        /* \"#utility.yul\":9458:9478   */\n      tag_257\n        /* \"#utility.yul\":9476:9477   */\n      dup3\n        /* \"#utility.yul\":9458:9478   */\n      tag_216\n      jump\t// in\n    tag_257:\n        /* \"#utility.yul\":9453:9478   */\n      swap2\n      pop\n        /* \"#utility.yul\":9492:9512   */\n      tag_258\n        /* \"#utility.yul\":9510:9511   */\n      dup4\n        /* \"#utility.yul\":9492:9512   */\n      tag_216\n      jump\t// in\n    tag_258:\n        /* \"#utility.yul\":9487:9512   */\n      swap3\n      pop\n        /* \"#utility.yul\":9531:9532   */\n      dup3\n        /* \"#utility.yul\":9528:9529   */\n      dup3\n        /* \"#utility.yul\":9525:9533   */\n      lt\n        /* \"#utility.yul\":9522:9556   */\n      iszero\n      tag_259\n      jumpi\n        /* \"#utility.yul\":9536:9554   */\n      tag_260\n      tag_244\n      jump\t// in\n    tag_260:\n        /* \"#utility.yul\":9522:9556   */\n    tag_259:\n        /* \"#utility.yul\":9581:9582   */\n      dup3\n        /* \"#utility.yul\":9578:9579   */\n      dup3\n        /* \"#utility.yul\":9574:9583   */\n      sub\n        /* \"#utility.yul\":9566:9583   */\n      swap1\n      pop\n        /* \"#utility.yul\":9398:9589   */\n      swap3\n      swap2\n      pop\n      pop\n      jump\t// out\n        /* \"#utility.yul\":9595:9691   */\n    tag_180:\n        /* \"#utility.yul\":9632:9639   */\n      0x00\n        /* \"#utility.yul\":9661:9685   */\n      tag_262\n        /* \"#utility.yul\":9679:9684   */\n      dup3\n        /* \"#utility.yul\":9661:9685   */\n      tag_263\n      jump\t// in\n    tag_262:\n        /* \"#utility.yul\":9650:9685   */\n      swap1\n      pop\n        /* \"#utility.yul\":9595:9691   */\n      swap2\n      swap1\n      pop\n      jump\t// out\n        /* \"#utility.yul\":9697:9801   */\n    tag_176:\n        /* \"#utility.yul\":9742:9749   */\n      0x00\n        /* \"#utility.yul\":9771:9795   */\n      tag_265\n        /* \"#utility.yul\":9789:9794   */\n      dup3\n        /* \"#utility.yul\":9771:9795   */\n      tag_263\n      jump\t// in\n    tag_265:\n        /* \"#utility.yul\":9760:9795   */\n      swap1\n      pop\n        /* \"#utility.yul\":9697:9801   */\n      swap2\n      swap1\n      pop\n      jump\t// out\n        /* \"#utility.yul\":9807:9897   */\n    tag_266:\n        /* \"#utility.yul\":9841:9848   */\n      0x00\n        /* \"#utility.yul\":9884:9889   */\n      dup2\n        /* \"#utility.yul\":9877:9890   */\n      iszero\n        /* \"#utility.yul\":9870:9891   */\n      iszero\n        /* \"#utility.yul\":9859:9891   */\n      swap1\n      pop\n        /* \"#utility.yul\":9807:9897   */\n      swap2\n      swap1\n      pop\n      jump\t// out\n        /* \"#utility.yul\":9903:10029   */\n    tag_263:\n        /* \"#utility.yul\":9940:9947   */\n      0x00\n        /* \"#utility.yul\":9980:10022   */\n      0xffffffffffffffffffffffffffffffffffffffff\n        /* \"#utility.yul\":9973:9978   */\n      dup3\n        /* \"#utility.yul\":9969:10023   */\n      and\n        /* \"#utility.yul\":9958:10023   */\n      swap1\n      pop\n        /* \"#utility.yul\":9903:10029   */\n      swap2\n      swap1\n      pop\n      jump\t// out\n        /* \"#utility.yul\":10035:10112   */\n    tag_216:\n        /* \"#utility.yul\":10072:10079   */\n      0x00\n        /* \"#utility.yul\":10101:10106   */\n      dup2\n        /* \"#utility.yul\":10090:10106   */\n      swap1\n      pop\n        /* \"#utility.yul\":10035:10112   */\n      swap2\n      swap1\n      pop\n      jump\t// out\n        /* \"#utility.yul\":10118:10298   */\n    tag_244:\n        /* \"#utility.yul\":10166:10243   */\n      0x4e487b7100000000000000000000000000000000000000000000000000000000\n        /* \"#utility.yul\":10163:10164   */\n      0x00\n        /* \"#utility.yul\":10156:10244   */\n      mstore\n        /* \"#utility.yul\":10263:10267   */\n      0x11\n        /* \"#utility.yul\":10260:10261   */\n      0x04\n        /* \"#utility.yul\":10253:10268   */\n      mstore\n        /* \"#utility.yul\":10287:10291   */\n      0x24\n        /* \"#utility.yul\":10284:10285   */\n      0x00\n        /* \"#utility.yul\":10277:10292   */\n      revert\n        /* \"#utility.yul\":10304:10484   */\n    tag_250:\n        /* \"#utility.yul\":10352:10429   */\n      0x4e487b7100000000000000000000000000000000000000000000000000000000\n        /* \"#utility.yul\":10349:10350   */\n      0x00\n        /* \"#utility.yul\":10342:10430   */\n      mstore\n        /* \"#utility.yul\":10449:10453   */\n      0x12\n        /* \"#utility.yul\":10446:10447   */\n      0x04\n        /* \"#utility.yul\":10439:10454   */\n      mstore\n        /* \"#utility.yul\":10473:10477   */\n      0x24\n        /* \"#utility.yul\":10470:10471   */\n      0x00\n        /* \"#utility.yul\":10463:10478   */\n      revert\n        /* \"#utility.yul\":10613:10730   */\n    tag_157:\n        /* \"#utility.yul\":10722:10723   */\n      0x00\n        /* \"#utility.yul\":10719:10720   */\n      dup1\n        /* \"#utility.yul\":10712:10724   */\n      revert\n        /* \"#utility.yul\":10736:10961   */\n    tag_186:\n        /* \"#utility.yul\":10876:10910   */\n      0x4f776e61626c653a206e6577206f776e657220697320746865207a65726f2061\n        /* \"#utility.yul\":10872:10873   */\n      0x00\n        /* \"#utility.yul\":10864:10870   */\n      dup3\n        /* \"#utility.yul\":10860:10874   */\n      add\n        /* \"#utility.yul\":10853:10911   */\n      mstore\n        /* \"#utility.yul\":10945:10953   */\n      0x6464726573730000000000000000000000000000000000000000000000000000\n        /* \"#utility.yul\":10940:10942   */\n      0x20\n        /* \"#utility.yul\":10932:10938   */\n      dup3\n        /* \"#utility.yul\":10928:10943   */\n      add\n        /* \"#utility.yul\":10921:10954   */\n      mstore\n        /* \"#utility.yul\":10736:10961   */\n      pop\n      jump\t// out\n        /* \"#utility.yul\":10967:11212   */\n    tag_191:\n        /* \"#utility.yul\":11107:11141   */\n      0x416464726573733a20756e61626c6520746f2073656e642076616c75652c2072\n        /* \"#utility.yul\":11103:11104   */\n      0x00\n        /* \"#utility.yul\":11095:11101   */\n      dup3\n        /* \"#utility.yul\":11091:11105   */\n      add\n        /* \"#utility.yul\":11084:11142   */\n      mstore\n        /* \"#utility.yul\":11176:11204   */\n      0x6563697069656e74206d61792068617665207265766572746564000000000000\n        /* \"#utility.yul\":11171:11173   */\n      0x20\n        /* \"#utility.yul\":11163:11169   */\n      dup3\n        /* \"#utility.yul\":11159:11174   */\n      add\n        /* \"#utility.yul\":11152:11205   */\n      mstore\n        /* \"#utility.yul\":10967:11212   */\n      pop\n      jump\t// out\n        /* \"#utility.yul\":11218:11397   */\n    tag_196:\n        /* \"#utility.yul\":11358:11389   */\n      0x416464726573733a20696e73756666696369656e742062616c616e6365000000\n        /* \"#utility.yul\":11354:11355   */\n      0x00\n        /* \"#utility.yul\":11346:11352   */\n      dup3\n        /* \"#utility.yul\":11342:11356   */\n      add\n        /* \"#utility.yul\":11335:11390   */\n      mstore\n        /* \"#utility.yul\":11218:11397   */\n      pop\n      jump\t// out\n        /* \"#utility.yul\":11403:11585   */\n    tag_201:\n        /* \"#utility.yul\":11543:11577   */\n      0x4f776e61626c653a2063616c6c6572206973206e6f7420746865206f776e6572\n        /* \"#utility.yul\":11539:11540   */\n      0x00\n        /* \"#utility.yul\":11531:11537   */\n      dup3\n        /* \"#utility.yul\":11527:11541   */\n      add\n        /* \"#utility.yul\":11520:11578   */\n      mstore\n        /* \"#utility.yul\":11403:11585   */\n      pop\n      jump\t// out\n        /* \"#utility.yul\":11591:11705   */\n    tag_207:\n      pop\n      jump\t// out\n        /* \"#utility.yul\":11711:11884   */\n    tag_212:\n        /* \"#utility.yul\":11851:11876   */\n      0x63616c6c6572206973206e6f74207468652061646d696e000000000000000000\n        /* \"#utility.yul\":11847:11848   */\n      0x00\n        /* \"#utility.yul\":11839:11845   */\n      dup3\n        /* \"#utility.yul\":11835:11849   */\n      add\n        /* \"#utility.yul\":11828:11877   */\n      mstore\n        /* \"#utility.yul\":11711:11884   */\n      pop\n      jump\t// out\n        /* \"#utility.yul\":11890:12012   */\n    tag_141:\n        /* \"#utility.yul\":11963:11987   */\n      tag_282\n        /* \"#utility.yul\":11981:11986   */\n      dup2\n        /* \"#utility.yul\":11963:11987   */\n      tag_180\n      jump\t// in\n    tag_282:\n        /* \"#utility.yul\":11956:11961   */\n      dup2\n        /* \"#utility.yul\":11953:11988   */\n      eq\n        /* \"#utility.yul\":11943:12006   */\n      tag_283\n      jumpi\n        /* \"#utility.yul\":12002:12003   */\n      0x00\n        /* \"#utility.yul\":11999:12000   */\n      dup1\n        /* \"#utility.yul\":11992:12004   */\n      revert\n        /* \"#utility.yul\":11943:12006   */\n    tag_283:\n        /* \"#utility.yul\":11890:12012   */\n      pop\n      jump\t// out\n        /* \"#utility.yul\":12018:12156   */\n    tag_145:\n        /* \"#utility.yul\":12099:12131   */\n      tag_285\n        /* \"#utility.yul\":12125:12130   */\n      dup2\n        /* \"#utility.yul\":12099:12131   */\n      tag_176\n      jump\t// in\n    tag_285:\n        /* \"#utility.yul\":12092:12097   */\n      dup2\n        /* \"#utility.yul\":12089:12132   */\n      eq\n        /* \"#utility.yul\":12079:12150   */\n      tag_286\n      jumpi\n        /* \"#utility.yul\":12146:12147   */\n      0x00\n        /* \"#utility.yul\":12143:12144   */\n      dup1\n        /* \"#utility.yul\":12136:12148   */\n      revert\n        /* \"#utility.yul\":12079:12150   */\n    tag_286:\n        /* \"#utility.yul\":12018:12156   */\n      pop\n      jump\t// out\n        /* \"#utility.yul\":12162:12278   */\n    tag_149:\n        /* \"#utility.yul\":12232:12253   */\n      tag_288\n        /* \"#utility.yul\":12247:12252   */\n      dup2\n        /* \"#utility.yul\":12232:12253   */\n      tag_266\n      jump\t// in\n    tag_288:\n        /* \"#utility.yul\":12225:12230   */\n      dup2\n        /* \"#utility.yul\":12222:12254   */\n      eq\n        /* \"#utility.yul\":12212:12272   */\n      tag_289\n      jumpi\n        /* \"#utility.yul\":12268:12269   */\n      0x00\n        /* \"#utility.yul\":12265:12266   */\n      dup1\n        /* \"#utility.yul\":12258:12270   */\n      revert\n        /* \"#utility.yul\":12212:12272   */\n    tag_289:\n        /* \"#utility.yul\":12162:12278   */\n      pop\n      jump\t// out\n        /* \"#utility.yul\":12284:12406   */\n    tag_153:\n        /* \"#utility.yul\":12357:12381   */\n      tag_291\n        /* \"#utility.yul\":12375:12380   */\n      dup2\n        /* \"#utility.yul\":12357:12381   */\n      tag_216\n      jump\t// in\n    tag_291:\n        /* \"#utility.yul\":12350:12355   */\n      dup2\n        /* \"#utility.yul\":12347:12382   */\n      eq\n        /* \"#utility.yul\":12337:12400   */\n      tag_292\n      jumpi\n        /* \"#utility.yul\":12396:12397   */\n      0x00\n        /* \"#utility.yul\":12393:12394   */\n      dup1\n        /* \"#utility.yul\":12386:12398   */\n      revert\n        /* \"#utility.yul\":12337:12400   */\n    tag_292:\n        /* \"#utility.yul\":12284:12406   */\n      pop\n      jump\t// out\n\n    auxdata: 0xa26469706673582212208337cc357f16787e19c554790225c71948c4b8fb7800a33e4e4faa56a3b2dc8e64736f6c63430008070033\n}\n",
				"bytecode": {
					"linkReferences": {},
					"object": "608060405234801561001057600080fd5b5061002d61002261003260201b60201c565b61003a60201b60201c565b6100fe565b600033905090565b60008060009054906101000a900473ffffffffffffffffffffffffffffffffffffffff169050816000806101000a81548173ffffffffffffffffffffffffffffffffffffffff021916908373ffffffffffffffffffffffffffffffffffffffff1602179055508173ffffffffffffffffffffffffffffffffffffffff168173ffffffffffffffffffffffffffffffffffffffff167f8be0079c531659141344cd1fd0a4f28419497f9722a3daafe3b4186f6b6457e060405160405180910390a35050565b6110ba8061010d6000396000f3fe60806040526004361061009c5760003560e01c80639464c8b8116100645780639464c8b814610160578063b0568eaa14610189578063f2fde38b146101a0578063f851a440146101c9578063f9609f08146101f4578063fbfd2045146102105761009c565b8063109e94cf146100a1578063251d8cd5146100cc5780635e32c425146100f5578063715018a61461011e5780638da5cb5b14610135575b600080fd5b3480156100ad57600080fd5b506100b661023b565b6040516100c39190610c2d565b60405180910390f35b3480156100d857600080fd5b506100f360048036038101906100ee9190610aac565b610261565b005b34801561010157600080fd5b5061011c60048036038101906101179190610ad9565b610286565b005b34801561012a57600080fd5b506101336102bb565b005b34801561014157600080fd5b5061014a6102cf565b6040516101579190610c2d565b60405180910390f35b34801561016c57600080fd5b5061018760048036038101906101829190610aac565b6102f8565b005b34801561019557600080fd5b5061019e610325565b005b3480156101ac57600080fd5b506101c760048036038101906101c29190610a3f565b6104d2565b005b3480156101d557600080fd5b506101de610556565b6040516101eb9190610c48565b60405180910390f35b61020e60048036038101906102099190610a6c565b61057c565b005b34801561021c57600080fd5b506102256106f5565b6040516102329190610c48565b60405180910390f35b600260009054906101000a900473ffffffffffffffffffffffffffffffffffffffff1681565b61026961071b565b80600560006101000a81548160ff02191690831515021790555050565b61028e61071b565b81600560026101000a81548160ff021916908315150217905550806006819055506102b7610325565b5050565b6102c36107ad565b6102cd600061082b565b565b60008060009054906101000a900473ffffffffffffffffffffffffffffffffffffffff16905090565b6103006107ad565b80600560016101000a81548160ff021916908315150217905550610322610325565b50565b60004790506000600a60028361033b9190610dc1565b6103459190610d90565b905080826103539190610e1b565b915060011515600560009054906101000a900460ff16151514801561038b575060011515600560019054906101000a900460ff161515145b806103b7575060011515600560029054906101000a900460ff1615151480156103b657506001600654145b5b156104575761040782600160009054906101000a900473ffffffffffffffffffffffffffffffffffffffff1673ffffffffffffffffffffffffffffffffffffffff166108ef90919063ffffffff16565b61045281600360009054906101000a900473ffffffffffffffffffffffffffffffffffffffff1673ffffffffffffffffffffffffffffffffffffffff166108ef90919063ffffffff16565b6104ce565b60011515600560029054906101000a900460ff16151514801561047c57506000600654145b156104cd576104cc81600360009054906101000a900473ffffffffffffffffffffffffffffffffffffffff1673ffffffffffffffffffffffffffffffffffffffff166108ef90919063ffffffff16565b5b5b5050565b6104da6107ad565b600073ffffffffffffffffffffffffffffffffffffffff168173ffffffffffffffffffffffffffffffffffffffff16141561054a576040517f08c379a000000000000000000000000000000000000000000000000000000000815260040161054190610c63565b60405180910390fd5b6105538161082b565b50565b600360009054906101000a900473ffffffffffffffffffffffffffffffffffffffff1681565b6105846107ad565b81600160006101000a81548173ffffffffffffffffffffffffffffffffffffffff021916908373ffffffffffffffffffffffffffffffffffffffff16021790555033600260006101000a81548173ffffffffffffffffffffffffffffffffffffffff021916908373ffffffffffffffffffffffffffffffffffffffff16021790555080600360006101000a81548173ffffffffffffffffffffffffffffffffffffffff021916908373ffffffffffffffffffffffffffffffffffffffff160217905550600034905080600460008573ffffffffffffffffffffffffffffffffffffffff1673ffffffffffffffffffffffffffffffffffffffff168152602001908152602001600020600082825461069b9190610d3a565b925050819055508273ffffffffffffffffffffffffffffffffffffffff167f2da466a7b24304f47e87fa2e1e5a81b9831ce54fec19055ce277ca2f39ba42c4826040516106e89190610d03565b60405180910390a2505050565b600160009054906101000a900473ffffffffffffffffffffffffffffffffffffffff1681565b600360009054906101000a900473ffffffffffffffffffffffffffffffffffffffff1673ffffffffffffffffffffffffffffffffffffffff163373ffffffffffffffffffffffffffffffffffffffff16146107ab576040517f08c379a00000000000000000000000000000000000000000000000000000000081526004016107a290610ce3565b60405180910390fd5b565b6107b56109e3565b73ffffffffffffffffffffffffffffffffffffffff166107d36102cf565b73ffffffffffffffffffffffffffffffffffffffff1614610829576040517f08c379a000000000000000000000000000000000000000000000000000000000815260040161082090610cc3565b60405180910390fd5b565b60008060009054906101000a900473ffffffffffffffffffffffffffffffffffffffff169050816000806101000a81548173ffffffffffffffffffffffffffffffffffffffff021916908373ffffffffffffffffffffffffffffffffffffffff1602179055508173ffffffffffffffffffffffffffffffffffffffff168173ffffffffffffffffffffffffffffffffffffffff167f8be0079c531659141344cd1fd0a4f28419497f9722a3daafe3b4186f6b6457e060405160405180910390a35050565b80471015610932576040517f08c379a000000000000000000000000000000000000000000000000000000000815260040161092990610ca3565b60405180910390fd5b60008273ffffffffffffffffffffffffffffffffffffffff168260405161095890610c18565b60006040518083038185875af1925050503d8060008114610995576040519150601f19603f3d011682016040523d82523d6000602084013e61099a565b606091505b50509050806109de576040517f08c379a00000000000000000000000000000000000000000000000000000000081526004016109d590610c83565b60405180910390fd5b505050565b600033905090565b6000813590506109fa81611028565b92915050565b600081359050610a0f8161103f565b92915050565b600081359050610a2481611056565b92915050565b600081359050610a398161106d565b92915050565b600060208284031215610a5557610a54610f07565b5b6000610a63848285016109eb565b91505092915050565b60008060408385031215610a8357610a82610f07565b5b6000610a9185828601610a00565b9250506020610aa285828601610a00565b9150509250929050565b600060208284031215610ac257610ac1610f07565b5b6000610ad084828501610a15565b91505092915050565b60008060408385031215610af057610aef610f07565b5b6000610afe85828601610a15565b9250506020610b0f85828601610a2a565b9150509250929050565b610b2281610e61565b82525050565b610b3181610e4f565b82525050565b6000610b44602683610d29565b9150610b4f82610f0c565b604082019050919050565b6000610b67603a83610d29565b9150610b7282610f5b565b604082019050919050565b6000610b8a601d83610d29565b9150610b9582610faa565b602082019050919050565b6000610bad602083610d29565b9150610bb882610fd3565b602082019050919050565b6000610bd0600083610d1e565b9150610bdb82610ffc565b600082019050919050565b6000610bf3601783610d29565b9150610bfe82610fff565b602082019050919050565b610c1281610e9f565b82525050565b6000610c2382610bc3565b9150819050919050565b6000602082019050610c426000830184610b28565b92915050565b6000602082019050610c5d6000830184610b19565b92915050565b60006020820190508181036000830152610c7c81610b37565b9050919050565b60006020820190508181036000830152610c9c81610b5a565b9050919050565b60006020820190508181036000830152610cbc81610b7d565b9050919050565b60006020820190508181036000830152610cdc81610ba0565b9050919050565b60006020820190508181036000830152610cfc81610be6565b9050919050565b6000602082019050610d186000830184610c09565b92915050565b600081905092915050565b600082825260208201905092915050565b6000610d4582610e9f565b9150610d5083610e9f565b9250827fffffffffffffffffffffffffffffffffffffffffffffffffffffffffffffffff03821115610d8557610d84610ea9565b5b828201905092915050565b6000610d9b82610e9f565b9150610da683610e9f565b925082610db657610db5610ed8565b5b828204905092915050565b6000610dcc82610e9f565b9150610dd783610e9f565b9250817fffffffffffffffffffffffffffffffffffffffffffffffffffffffffffffffff0483118215151615610e1057610e0f610ea9565b5b828202905092915050565b6000610e2682610e9f565b9150610e3183610e9f565b925082821015610e4457610e43610ea9565b5b828203905092915050565b6000610e5a82610e7f565b9050919050565b6000610e6c82610e7f565b9050919050565b60008115159050919050565b600073ffffffffffffffffffffffffffffffffffffffff82169050919050565b6000819050919050565b7f4e487b7100000000000000000000000000000000000000000000000000000000600052601160045260246000fd5b7f4e487b7100000000000000000000000000000000000000000000000000000000600052601260045260246000fd5b600080fd5b7f4f776e61626c653a206e6577206f776e657220697320746865207a65726f206160008201527f6464726573730000000000000000000000000000000000000000000000000000602082015250565b7f416464726573733a20756e61626c6520746f2073656e642076616c75652c207260008201527f6563697069656e74206d61792068617665207265766572746564000000000000602082015250565b7f416464726573733a20696e73756666696369656e742062616c616e6365000000600082015250565b7f4f776e61626c653a2063616c6c6572206973206e6f7420746865206f776e6572600082015250565b50565b7f63616c6c6572206973206e6f74207468652061646d696e000000000000000000600082015250565b61103181610e4f565b811461103c57600080fd5b50565b61104881610e61565b811461105357600080fd5b50565b61105f81610e73565b811461106a57600080fd5b50565b61107681610e9f565b811461108157600080fd5b5056fea26469706673582212208337cc357f16787e19c554790225c71948c4b8fb7800a33e4e4faa56a3b2dc8e64736f6c63430008070033",
					"opcodes": "PUSH1 0x80 PUSH1 0x40 MSTORE CALLVALUE DUP1 ISZERO PUSH2 0x10 JUMPI PUSH1 0x0 DUP1 REVERT JUMPDEST POP PUSH2 0x2D PUSH2 0x22 PUSH2 0x32 PUSH1 0x20 SHL PUSH1 0x20 SHR JUMP JUMPDEST PUSH2 0x3A PUSH1 0x20 SHL PUSH1 0x20 SHR JUMP JUMPDEST PUSH2 0xFE JUMP JUMPDEST PUSH1 0x0 CALLER SWAP1 POP SWAP1 JUMP JUMPDEST PUSH1 0x0 DUP1 PUSH1 0x0 SWAP1 SLOAD SWAP1 PUSH2 0x100 EXP SWAP1 DIV PUSH20 0xFFFFFFFFFFFFFFFFFFFFFFFFFFFFFFFFFFFFFFFF AND SWAP1 POP DUP2 PUSH1 0x0 DUP1 PUSH2 0x100 EXP DUP2 SLOAD DUP2 PUSH20 0xFFFFFFFFFFFFFFFFFFFFFFFFFFFFFFFFFFFFFFFF MUL NOT AND SWAP1 DUP4 PUSH20 0xFFFFFFFFFFFFFFFFFFFFFFFFFFFFFFFFFFFFFFFF AND MUL OR SWAP1 SSTORE POP DUP2 PUSH20 0xFFFFFFFFFFFFFFFFFFFFFFFFFFFFFFFFFFFFFFFF AND DUP2 PUSH20 0xFFFFFFFFFFFFFFFFFFFFFFFFFFFFFFFFFFFFFFFF AND PUSH32 0x8BE0079C531659141344CD1FD0A4F28419497F9722A3DAAFE3B4186F6B6457E0 PUSH1 0x40 MLOAD PUSH1 0x40 MLOAD DUP1 SWAP2 SUB SWAP1 LOG3 POP POP JUMP JUMPDEST PUSH2 0x10BA DUP1 PUSH2 0x10D PUSH1 0x0 CODECOPY PUSH1 0x0 RETURN INVALID PUSH1 0x80 PUSH1 0x40 MSTORE PUSH1 0x4 CALLDATASIZE LT PUSH2 0x9C JUMPI PUSH1 0x0 CALLDATALOAD PUSH1 0xE0 SHR DUP1 PUSH4 0x9464C8B8 GT PUSH2 0x64 JUMPI DUP1 PUSH4 0x9464C8B8 EQ PUSH2 0x160 JUMPI DUP1 PUSH4 0xB0568EAA EQ PUSH2 0x189 JUMPI DUP1 PUSH4 0xF2FDE38B EQ PUSH2 0x1A0 JUMPI DUP1 PUSH4 0xF851A440 EQ PUSH2 0x1C9 JUMPI DUP1 PUSH4 0xF9609F08 EQ PUSH2 0x1F4 JUMPI DUP1 PUSH4 0xFBFD2045 EQ PUSH2 0x210 JUMPI PUSH2 0x9C JUMP JUMPDEST DUP1 PUSH4 0x109E94CF EQ PUSH2 0xA1 JUMPI DUP1 PUSH4 0x251D8CD5 EQ PUSH2 0xCC JUMPI DUP1 PUSH4 0x5E32C425 EQ PUSH2 0xF5 JUMPI DUP1 PUSH4 0x715018A6 EQ PUSH2 0x11E JUMPI DUP1 PUSH4 0x8DA5CB5B EQ PUSH2 0x135 JUMPI JUMPDEST PUSH1 0x0 DUP1 REVERT JUMPDEST CALLVALUE DUP1 ISZERO PUSH2 0xAD JUMPI PUSH1 0x0 DUP1 REVERT JUMPDEST POP PUSH2 0xB6 PUSH2 0x23B JUMP JUMPDEST PUSH1 0x40 MLOAD PUSH2 0xC3 SWAP2 SWAP1 PUSH2 0xC2D JUMP JUMPDEST PUSH1 0x40 MLOAD DUP1 SWAP2 SUB SWAP1 RETURN JUMPDEST CALLVALUE DUP1 ISZERO PUSH2 0xD8 JUMPI PUSH1 0x0 DUP1 REVERT JUMPDEST POP PUSH2 0xF3 PUSH1 0x4 DUP1 CALLDATASIZE SUB DUP2 ADD SWAP1 PUSH2 0xEE SWAP2 SWAP1 PUSH2 0xAAC JUMP JUMPDEST PUSH2 0x261 JUMP JUMPDEST STOP JUMPDEST CALLVALUE DUP1 ISZERO PUSH2 0x101 JUMPI PUSH1 0x0 DUP1 REVERT JUMPDEST POP PUSH2 0x11C PUSH1 0x4 DUP1 CALLDATASIZE SUB DUP2 ADD SWAP1 PUSH2 0x117 SWAP2 SWAP1 PUSH2 0xAD9 JUMP JUMPDEST PUSH2 0x286 JUMP JUMPDEST STOP JUMPDEST CALLVALUE DUP1 ISZERO PUSH2 0x12A JUMPI PUSH1 0x0 DUP1 REVERT JUMPDEST POP PUSH2 0x133 PUSH2 0x2BB JUMP JUMPDEST STOP JUMPDEST CALLVALUE DUP1 ISZERO PUSH2 0x141 JUMPI PUSH1 0x0 DUP1 REVERT JUMPDEST POP PUSH2 0x14A PUSH2 0x2CF JUMP JUMPDEST PUSH1 0x40 MLOAD PUSH2 0x157 SWAP2 SWAP1 PUSH2 0xC2D JUMP JUMPDEST PUSH1 0x40 MLOAD DUP1 SWAP2 SUB SWAP1 RETURN JUMPDEST CALLVALUE DUP1 ISZERO PUSH2 0x16C JUMPI PUSH1 0x0 DUP1 REVERT JUMPDEST POP PUSH2 0x187 PUSH1 0x4 DUP1 CALLDATASIZE SUB DUP2 ADD SWAP1 PUSH2 0x182 SWAP2 SWAP1 PUSH2 0xAAC JUMP JUMPDEST PUSH2 0x2F8 JUMP JUMPDEST STOP JUMPDEST CALLVALUE DUP1 ISZERO PUSH2 0x195 JUMPI PUSH1 0x0 DUP1 REVERT JUMPDEST POP PUSH2 0x19E PUSH2 0x325 JUMP JUMPDEST STOP JUMPDEST CALLVALUE DUP1 ISZERO PUSH2 0x1AC JUMPI PUSH1 0x0 DUP1 REVERT JUMPDEST POP PUSH2 0x1C7 PUSH1 0x4 DUP1 CALLDATASIZE SUB DUP2 ADD SWAP1 PUSH2 0x1C2 SWAP2 SWAP1 PUSH2 0xA3F JUMP JUMPDEST PUSH2 0x4D2 JUMP JUMPDEST STOP JUMPDEST CALLVALUE DUP1 ISZERO PUSH2 0x1D5 JUMPI PUSH1 0x0 DUP1 REVERT JUMPDEST POP PUSH2 0x1DE PUSH2 0x556 JUMP JUMPDEST PUSH1 0x40 MLOAD PUSH2 0x1EB SWAP2 SWAP1 PUSH2 0xC48 JUMP JUMPDEST PUSH1 0x40 MLOAD DUP1 SWAP2 SUB SWAP1 RETURN JUMPDEST PUSH2 0x20E PUSH1 0x4 DUP1 CALLDATASIZE SUB DUP2 ADD SWAP1 PUSH2 0x209 SWAP2 SWAP1 PUSH2 0xA6C JUMP JUMPDEST PUSH2 0x57C JUMP JUMPDEST STOP JUMPDEST CALLVALUE DUP1 ISZERO PUSH2 0x21C JUMPI PUSH1 0x0 DUP1 REVERT JUMPDEST POP PUSH2 0x225 PUSH2 0x6F5 JUMP JUMPDEST PUSH1 0x40 MLOAD PUSH2 0x232 SWAP2 SWAP1 PUSH2 0xC48 JUMP JUMPDEST PUSH1 0x40 MLOAD DUP1 SWAP2 SUB SWAP1 RETURN JUMPDEST PUSH1 0x2 PUSH1 0x0 SWAP1 SLOAD SWAP1 PUSH2 0x100 EXP SWAP1 DIV PUSH20 0xFFFFFFFFFFFFFFFFFFFFFFFFFFFFFFFFFFFFFFFF AND DUP2 JUMP JUMPDEST PUSH2 0x269 PUSH2 0x71B JUMP JUMPDEST DUP1 PUSH1 0x5 PUSH1 0x0 PUSH2 0x100 EXP DUP2 SLOAD DUP2 PUSH1 0xFF MUL NOT AND SWAP1 DUP4 ISZERO ISZERO MUL OR SWAP1 SSTORE POP POP JUMP JUMPDEST PUSH2 0x28E PUSH2 0x71B JUMP JUMPDEST DUP2 PUSH1 0x5 PUSH1 0x2 PUSH2 0x100 EXP DUP2 SLOAD DUP2 PUSH1 0xFF MUL NOT AND SWAP1 DUP4 ISZERO ISZERO MUL OR SWAP1 SSTORE POP DUP1 PUSH1 0x6 DUP2 SWAP1 SSTORE POP PUSH2 0x2B7 PUSH2 0x325 JUMP JUMPDEST POP POP JUMP JUMPDEST PUSH2 0x2C3 PUSH2 0x7AD JUMP JUMPDEST PUSH2 0x2CD PUSH1 0x0 PUSH2 0x82B JUMP JUMPDEST JUMP JUMPDEST PUSH1 0x0 DUP1 PUSH1 0x0 SWAP1 SLOAD SWAP1 PUSH2 0x100 EXP SWAP1 DIV PUSH20 0xFFFFFFFFFFFFFFFFFFFFFFFFFFFFFFFFFFFFFFFF AND SWAP1 POP SWAP1 JUMP JUMPDEST PUSH2 0x300 PUSH2 0x7AD JUMP JUMPDEST DUP1 PUSH1 0x5 PUSH1 0x1 PUSH2 0x100 EXP DUP2 SLOAD DUP2 PUSH1 0xFF MUL NOT AND SWAP1 DUP4 ISZERO ISZERO MUL OR SWAP1 SSTORE POP PUSH2 0x322 PUSH2 0x325 JUMP JUMPDEST POP JUMP JUMPDEST PUSH1 0x0 SELFBALANCE SWAP1 POP PUSH1 0x0 PUSH1 0xA PUSH1 0x2 DUP4 PUSH2 0x33B SWAP2 SWAP1 PUSH2 0xDC1 JUMP JUMPDEST PUSH2 0x345 SWAP2 SWAP1 PUSH2 0xD90 JUMP JUMPDEST SWAP1 POP DUP1 DUP3 PUSH2 0x353 SWAP2 SWAP1 PUSH2 0xE1B JUMP JUMPDEST SWAP2 POP PUSH1 0x1 ISZERO ISZERO PUSH1 0x5 PUSH1 0x0 SWAP1 SLOAD SWAP1 PUSH2 0x100 EXP SWAP1 DIV PUSH1 0xFF AND ISZERO ISZERO EQ DUP1 ISZERO PUSH2 0x38B JUMPI POP PUSH1 0x1 ISZERO ISZERO PUSH1 0x5 PUSH1 0x1 SWAP1 SLOAD SWAP1 PUSH2 0x100 EXP SWAP1 DIV PUSH1 0xFF AND ISZERO ISZERO EQ JUMPDEST DUP1 PUSH2 0x3B7 JUMPI POP PUSH1 0x1 ISZERO ISZERO PUSH1 0x5 PUSH1 0x2 SWAP1 SLOAD SWAP1 PUSH2 0x100 EXP SWAP1 DIV PUSH1 0xFF AND ISZERO ISZERO EQ DUP1 ISZERO PUSH2 0x3B6 JUMPI POP PUSH1 0x1 PUSH1 0x6 SLOAD EQ JUMPDEST JUMPDEST ISZERO PUSH2 0x457 JUMPI PUSH2 0x407 DUP3 PUSH1 0x1 PUSH1 0x0 SWAP1 SLOAD SWAP1 PUSH2 0x100 EXP SWAP1 DIV PUSH20 0xFFFFFFFFFFFFFFFFFFFFFFFFFFFFFFFFFFFFFFFF AND PUSH20 0xFFFFFFFFFFFFFFFFFFFFFFFFFFFFFFFFFFFFFFFF AND PUSH2 0x8EF SWAP1 SWAP2 SWAP1 PUSH4 0xFFFFFFFF AND JUMP JUMPDEST PUSH2 0x452 DUP2 PUSH1 0x3 PUSH1 0x0 SWAP1 SLOAD SWAP1 PUSH2 0x100 EXP SWAP1 DIV PUSH20 0xFFFFFFFFFFFFFFFFFFFFFFFFFFFFFFFFFFFFFFFF AND PUSH20 0xFFFFFFFFFFFFFFFFFFFFFFFFFFFFFFFFFFFFFFFF AND PUSH2 0x8EF SWAP1 SWAP2 SWAP1 PUSH4 0xFFFFFFFF AND JUMP JUMPDEST PUSH2 0x4CE JUMP JUMPDEST PUSH1 0x1 ISZERO ISZERO PUSH1 0x5 PUSH1 0x2 SWAP1 SLOAD SWAP1 PUSH2 0x100 EXP SWAP1 DIV PUSH1 0xFF AND ISZERO ISZERO EQ DUP1 ISZERO PUSH2 0x47C JUMPI POP PUSH1 0x0 PUSH1 0x6 SLOAD EQ JUMPDEST ISZERO PUSH2 0x4CD JUMPI PUSH2 0x4CC DUP2 PUSH1 0x3 PUSH1 0x0 SWAP1 SLOAD SWAP1 PUSH2 0x100 EXP SWAP1 DIV PUSH20 0xFFFFFFFFFFFFFFFFFFFFFFFFFFFFFFFFFFFFFFFF AND PUSH20 0xFFFFFFFFFFFFFFFFFFFFFFFFFFFFFFFFFFFFFFFF AND PUSH2 0x8EF SWAP1 SWAP2 SWAP1 PUSH4 0xFFFFFFFF AND JUMP JUMPDEST JUMPDEST JUMPDEST POP POP JUMP JUMPDEST PUSH2 0x4DA PUSH2 0x7AD JUMP JUMPDEST PUSH1 0x0 PUSH20 0xFFFFFFFFFFFFFFFFFFFFFFFFFFFFFFFFFFFFFFFF AND DUP2 PUSH20 0xFFFFFFFFFFFFFFFFFFFFFFFFFFFFFFFFFFFFFFFF AND EQ ISZERO PUSH2 0x54A JUMPI PUSH1 0x40 MLOAD PUSH32 0x8C379A000000000000000000000000000000000000000000000000000000000 DUP2 MSTORE PUSH1 0x4 ADD PUSH2 0x541 SWAP1 PUSH2 0xC63 JUMP JUMPDEST PUSH1 0x40 MLOAD DUP1 SWAP2 SUB SWAP1 REVERT JUMPDEST PUSH2 0x553 DUP2 PUSH2 0x82B JUMP JUMPDEST POP JUMP JUMPDEST PUSH1 0x3 PUSH1 0x0 SWAP1 SLOAD SWAP1 PUSH2 0x100 EXP SWAP1 DIV PUSH20 0xFFFFFFFFFFFFFFFFFFFFFFFFFFFFFFFFFFFFFFFF AND DUP2 JUMP JUMPDEST PUSH2 0x584 PUSH2 0x7AD JUMP JUMPDEST DUP2 PUSH1 0x1 PUSH1 0x0 PUSH2 0x100 EXP DUP2 SLOAD DUP2 PUSH20 0xFFFFFFFFFFFFFFFFFFFFFFFFFFFFFFFFFFFFFFFF MUL NOT AND SWAP1 DUP4 PUSH20 0xFFFFFFFFFFFFFFFFFFFFFFFFFFFFFFFFFFFFFFFF AND MUL OR SWAP1 SSTORE POP CALLER PUSH1 0x2 PUSH1 0x0 PUSH2 0x100 EXP DUP2 SLOAD DUP2 PUSH20 0xFFFFFFFFFFFFFFFFFFFFFFFFFFFFFFFFFFFFFFFF MUL NOT AND SWAP1 DUP4 PUSH20 0xFFFFFFFFFFFFFFFFFFFFFFFFFFFFFFFFFFFFFFFF AND MUL OR SWAP1 SSTORE POP DUP1 PUSH1 0x3 PUSH1 0x0 PUSH2 0x100 EXP DUP2 SLOAD DUP2 PUSH20 0xFFFFFFFFFFFFFFFFFFFFFFFFFFFFFFFFFFFFFFFF MUL NOT AND SWAP1 DUP4 PUSH20 0xFFFFFFFFFFFFFFFFFFFFFFFFFFFFFFFFFFFFFFFF AND MUL OR SWAP1 SSTORE POP PUSH1 0x0 CALLVALUE SWAP1 POP DUP1 PUSH1 0x4 PUSH1 0x0 DUP6 PUSH20 0xFFFFFFFFFFFFFFFFFFFFFFFFFFFFFFFFFFFFFFFF AND PUSH20 0xFFFFFFFFFFFFFFFFFFFFFFFFFFFFFFFFFFFFFFFF AND DUP2 MSTORE PUSH1 0x20 ADD SWAP1 DUP2 MSTORE PUSH1 0x20 ADD PUSH1 0x0 KECCAK256 PUSH1 0x0 DUP3 DUP3 SLOAD PUSH2 0x69B SWAP2 SWAP1 PUSH2 0xD3A JUMP JUMPDEST SWAP3 POP POP DUP2 SWAP1 SSTORE POP DUP3 PUSH20 0xFFFFFFFFFFFFFFFFFFFFFFFFFFFFFFFFFFFFFFFF AND PUSH32 0x2DA466A7B24304F47E87FA2E1E5A81B9831CE54FEC19055CE277CA2F39BA42C4 DUP3 PUSH1 0x40 MLOAD PUSH2 0x6E8 SWAP2 SWAP1 PUSH2 0xD03 JUMP JUMPDEST PUSH1 0x40 MLOAD DUP1 SWAP2 SUB SWAP1 LOG2 POP POP POP JUMP JUMPDEST PUSH1 0x1 PUSH1 0x0 SWAP1 SLOAD SWAP1 PUSH2 0x100 EXP SWAP1 DIV PUSH20 0xFFFFFFFFFFFFFFFFFFFFFFFFFFFFFFFFFFFFFFFF AND DUP2 JUMP JUMPDEST PUSH1 0x3 PUSH1 0x0 SWAP1 SLOAD SWAP1 PUSH2 0x100 EXP SWAP1 DIV PUSH20 0xFFFFFFFFFFFFFFFFFFFFFFFFFFFFFFFFFFFFFFFF AND PUSH20 0xFFFFFFFFFFFFFFFFFFFFFFFFFFFFFFFFFFFFFFFF AND CALLER PUSH20 0xFFFFFFFFFFFFFFFFFFFFFFFFFFFFFFFFFFFFFFFF AND EQ PUSH2 0x7AB JUMPI PUSH1 0x40 MLOAD PUSH32 0x8C379A000000000000000000000000000000000000000000000000000000000 DUP2 MSTORE PUSH1 0x4 ADD PUSH2 0x7A2 SWAP1 PUSH2 0xCE3 JUMP JUMPDEST PUSH1 0x40 MLOAD DUP1 SWAP2 SUB SWAP1 REVERT JUMPDEST JUMP JUMPDEST PUSH2 0x7B5 PUSH2 0x9E3 JUMP JUMPDEST PUSH20 0xFFFFFFFFFFFFFFFFFFFFFFFFFFFFFFFFFFFFFFFF AND PUSH2 0x7D3 PUSH2 0x2CF JUMP JUMPDEST PUSH20 0xFFFFFFFFFFFFFFFFFFFFFFFFFFFFFFFFFFFFFFFF AND EQ PUSH2 0x829 JUMPI PUSH1 0x40 MLOAD PUSH32 0x8C379A000000000000000000000000000000000000000000000000000000000 DUP2 MSTORE PUSH1 0x4 ADD PUSH2 0x820 SWAP1 PUSH2 0xCC3 JUMP JUMPDEST PUSH1 0x40 MLOAD DUP1 SWAP2 SUB SWAP1 REVERT JUMPDEST JUMP JUMPDEST PUSH1 0x0 DUP1 PUSH1 0x0 SWAP1 SLOAD SWAP1 PUSH2 0x100 EXP SWAP1 DIV PUSH20 0xFFFFFFFFFFFFFFFFFFFFFFFFFFFFFFFFFFFFFFFF AND SWAP1 POP DUP2 PUSH1 0x0 DUP1 PUSH2 0x100 EXP DUP2 SLOAD DUP2 PUSH20 0xFFFFFFFFFFFFFFFFFFFFFFFFFFFFFFFFFFFFFFFF MUL NOT AND SWAP1 DUP4 PUSH20 0xFFFFFFFFFFFFFFFFFFFFFFFFFFFFFFFFFFFFFFFF AND MUL OR SWAP1 SSTORE POP DUP2 PUSH20 0xFFFFFFFFFFFFFFFFFFFFFFFFFFFFFFFFFFFFFFFF AND DUP2 PUSH20 0xFFFFFFFFFFFFFFFFFFFFFFFFFFFFFFFFFFFFFFFF AND PUSH32 0x8BE0079C531659141344CD1FD0A4F28419497F9722A3DAAFE3B4186F6B6457E0 PUSH1 0x40 MLOAD PUSH1 0x40 MLOAD DUP1 SWAP2 SUB SWAP1 LOG3 POP POP JUMP JUMPDEST DUP1 SELFBALANCE LT ISZERO PUSH2 0x932 JUMPI PUSH1 0x40 MLOAD PUSH32 0x8C379A000000000000000000000000000000000000000000000000000000000 DUP2 MSTORE PUSH1 0x4 ADD PUSH2 0x929 SWAP1 PUSH2 0xCA3 JUMP JUMPDEST PUSH1 0x40 MLOAD DUP1 SWAP2 SUB SWAP1 REVERT JUMPDEST PUSH1 0x0 DUP3 PUSH20 0xFFFFFFFFFFFFFFFFFFFFFFFFFFFFFFFFFFFFFFFF AND DUP3 PUSH1 0x40 MLOAD PUSH2 0x958 SWAP1 PUSH2 0xC18 JUMP JUMPDEST PUSH1 0x0 PUSH1 0x40 MLOAD DUP1 DUP4 SUB DUP2 DUP6 DUP8 GAS CALL SWAP3 POP POP POP RETURNDATASIZE DUP1 PUSH1 0x0 DUP2 EQ PUSH2 0x995 JUMPI PUSH1 0x40 MLOAD SWAP2 POP PUSH1 0x1F NOT PUSH1 0x3F RETURNDATASIZE ADD AND DUP3 ADD PUSH1 0x40 MSTORE RETURNDATASIZE DUP3 MSTORE RETURNDATASIZE PUSH1 0x0 PUSH1 0x20 DUP5 ADD RETURNDATACOPY PUSH2 0x99A JUMP JUMPDEST PUSH1 0x60 SWAP2 POP JUMPDEST POP POP SWAP1 POP DUP1 PUSH2 0x9DE JUMPI PUSH1 0x40 MLOAD PUSH32 0x8C379A000000000000000000000000000000000000000000000000000000000 DUP2 MSTORE PUSH1 0x4 ADD PUSH2 0x9D5 SWAP1 PUSH2 0xC83 JUMP JUMPDEST PUSH1 0x40 MLOAD DUP1 SWAP2 SUB SWAP1 REVERT JUMPDEST POP POP POP JUMP JUMPDEST PUSH1 0x0 CALLER SWAP1 POP SWAP1 JUMP JUMPDEST PUSH1 0x0 DUP2 CALLDATALOAD SWAP1 POP PUSH2 0x9FA DUP2 PUSH2 0x1028 JUMP JUMPDEST SWAP3 SWAP2 POP POP JUMP JUMPDEST PUSH1 0x0 DUP2 CALLDATALOAD SWAP1 POP PUSH2 0xA0F DUP2 PUSH2 0x103F JUMP JUMPDEST SWAP3 SWAP2 POP POP JUMP JUMPDEST PUSH1 0x0 DUP2 CALLDATALOAD SWAP1 POP PUSH2 0xA24 DUP2 PUSH2 0x1056 JUMP JUMPDEST SWAP3 SWAP2 POP POP JUMP JUMPDEST PUSH1 0x0 DUP2 CALLDATALOAD SWAP1 POP PUSH2 0xA39 DUP2 PUSH2 0x106D JUMP JUMPDEST SWAP3 SWAP2 POP POP JUMP JUMPDEST PUSH1 0x0 PUSH1 0x20 DUP3 DUP5 SUB SLT ISZERO PUSH2 0xA55 JUMPI PUSH2 0xA54 PUSH2 0xF07 JUMP JUMPDEST JUMPDEST PUSH1 0x0 PUSH2 0xA63 DUP5 DUP3 DUP6 ADD PUSH2 0x9EB JUMP JUMPDEST SWAP2 POP POP SWAP3 SWAP2 POP POP JUMP JUMPDEST PUSH1 0x0 DUP1 PUSH1 0x40 DUP4 DUP6 SUB SLT ISZERO PUSH2 0xA83 JUMPI PUSH2 0xA82 PUSH2 0xF07 JUMP JUMPDEST JUMPDEST PUSH1 0x0 PUSH2 0xA91 DUP6 DUP3 DUP7 ADD PUSH2 0xA00 JUMP JUMPDEST SWAP3 POP POP PUSH1 0x20 PUSH2 0xAA2 DUP6 DUP3 DUP7 ADD PUSH2 0xA00 JUMP JUMPDEST SWAP2 POP POP SWAP3 POP SWAP3 SWAP1 POP JUMP JUMPDEST PUSH1 0x0 PUSH1 0x20 DUP3 DUP5 SUB SLT ISZERO PUSH2 0xAC2 JUMPI PUSH2 0xAC1 PUSH2 0xF07 JUMP JUMPDEST JUMPDEST PUSH1 0x0 PUSH2 0xAD0 DUP5 DUP3 DUP6 ADD PUSH2 0xA15 JUMP JUMPDEST SWAP2 POP POP SWAP3 SWAP2 POP POP JUMP JUMPDEST PUSH1 0x0 DUP1 PUSH1 0x40 DUP4 DUP6 SUB SLT ISZERO PUSH2 0xAF0 JUMPI PUSH2 0xAEF PUSH2 0xF07 JUMP JUMPDEST JUMPDEST PUSH1 0x0 PUSH2 0xAFE DUP6 DUP3 DUP7 ADD PUSH2 0xA15 JUMP JUMPDEST SWAP3 POP POP PUSH1 0x20 PUSH2 0xB0F DUP6 DUP3 DUP7 ADD PUSH2 0xA2A JUMP JUMPDEST SWAP2 POP POP SWAP3 POP SWAP3 SWAP1 POP JUMP JUMPDEST PUSH2 0xB22 DUP2 PUSH2 0xE61 JUMP JUMPDEST DUP3 MSTORE POP POP JUMP JUMPDEST PUSH2 0xB31 DUP2 PUSH2 0xE4F JUMP JUMPDEST DUP3 MSTORE POP POP JUMP JUMPDEST PUSH1 0x0 PUSH2 0xB44 PUSH1 0x26 DUP4 PUSH2 0xD29 JUMP JUMPDEST SWAP2 POP PUSH2 0xB4F DUP3 PUSH2 0xF0C JUMP JUMPDEST PUSH1 0x40 DUP3 ADD SWAP1 POP SWAP2 SWAP1 POP JUMP JUMPDEST PUSH1 0x0 PUSH2 0xB67 PUSH1 0x3A DUP4 PUSH2 0xD29 JUMP JUMPDEST SWAP2 POP PUSH2 0xB72 DUP3 PUSH2 0xF5B JUMP JUMPDEST PUSH1 0x40 DUP3 ADD SWAP1 POP SWAP2 SWAP1 POP JUMP JUMPDEST PUSH1 0x0 PUSH2 0xB8A PUSH1 0x1D DUP4 PUSH2 0xD29 JUMP JUMPDEST SWAP2 POP PUSH2 0xB95 DUP3 PUSH2 0xFAA JUMP JUMPDEST PUSH1 0x20 DUP3 ADD SWAP1 POP SWAP2 SWAP1 POP JUMP JUMPDEST PUSH1 0x0 PUSH2 0xBAD PUSH1 0x20 DUP4 PUSH2 0xD29 JUMP JUMPDEST SWAP2 POP PUSH2 0xBB8 DUP3 PUSH2 0xFD3 JUMP JUMPDEST PUSH1 0x20 DUP3 ADD SWAP1 POP SWAP2 SWAP1 POP JUMP JUMPDEST PUSH1 0x0 PUSH2 0xBD0 PUSH1 0x0 DUP4 PUSH2 0xD1E JUMP JUMPDEST SWAP2 POP PUSH2 0xBDB DUP3 PUSH2 0xFFC JUMP JUMPDEST PUSH1 0x0 DUP3 ADD SWAP1 POP SWAP2 SWAP1 POP JUMP JUMPDEST PUSH1 0x0 PUSH2 0xBF3 PUSH1 0x17 DUP4 PUSH2 0xD29 JUMP JUMPDEST SWAP2 POP PUSH2 0xBFE DUP3 PUSH2 0xFFF JUMP JUMPDEST PUSH1 0x20 DUP3 ADD SWAP1 POP SWAP2 SWAP1 POP JUMP JUMPDEST PUSH2 0xC12 DUP2 PUSH2 0xE9F JUMP JUMPDEST DUP3 MSTORE POP POP JUMP JUMPDEST PUSH1 0x0 PUSH2 0xC23 DUP3 PUSH2 0xBC3 JUMP JUMPDEST SWAP2 POP DUP2 SWAP1 POP SWAP2 SWAP1 POP JUMP JUMPDEST PUSH1 0x0 PUSH1 0x20 DUP3 ADD SWAP1 POP PUSH2 0xC42 PUSH1 0x0 DUP4 ADD DUP5 PUSH2 0xB28 JUMP JUMPDEST SWAP3 SWAP2 POP POP JUMP JUMPDEST PUSH1 0x0 PUSH1 0x20 DUP3 ADD SWAP1 POP PUSH2 0xC5D PUSH1 0x0 DUP4 ADD DUP5 PUSH2 0xB19 JUMP JUMPDEST SWAP3 SWAP2 POP POP JUMP JUMPDEST PUSH1 0x0 PUSH1 0x20 DUP3 ADD SWAP1 POP DUP2 DUP2 SUB PUSH1 0x0 DUP4 ADD MSTORE PUSH2 0xC7C DUP2 PUSH2 0xB37 JUMP JUMPDEST SWAP1 POP SWAP2 SWAP1 POP JUMP JUMPDEST PUSH1 0x0 PUSH1 0x20 DUP3 ADD SWAP1 POP DUP2 DUP2 SUB PUSH1 0x0 DUP4 ADD MSTORE PUSH2 0xC9C DUP2 PUSH2 0xB5A JUMP JUMPDEST SWAP1 POP SWAP2 SWAP1 POP JUMP JUMPDEST PUSH1 0x0 PUSH1 0x20 DUP3 ADD SWAP1 POP DUP2 DUP2 SUB PUSH1 0x0 DUP4 ADD MSTORE PUSH2 0xCBC DUP2 PUSH2 0xB7D JUMP JUMPDEST SWAP1 POP SWAP2 SWAP1 POP JUMP JUMPDEST PUSH1 0x0 PUSH1 0x20 DUP3 ADD SWAP1 POP DUP2 DUP2 SUB PUSH1 0x0 DUP4 ADD MSTORE PUSH2 0xCDC DUP2 PUSH2 0xBA0 JUMP JUMPDEST SWAP1 POP SWAP2 SWAP1 POP JUMP JUMPDEST PUSH1 0x0 PUSH1 0x20 DUP3 ADD SWAP1 POP DUP2 DUP2 SUB PUSH1 0x0 DUP4 ADD MSTORE PUSH2 0xCFC DUP2 PUSH2 0xBE6 JUMP JUMPDEST SWAP1 POP SWAP2 SWAP1 POP JUMP JUMPDEST PUSH1 0x0 PUSH1 0x20 DUP3 ADD SWAP1 POP PUSH2 0xD18 PUSH1 0x0 DUP4 ADD DUP5 PUSH2 0xC09 JUMP JUMPDEST SWAP3 SWAP2 POP POP JUMP JUMPDEST PUSH1 0x0 DUP2 SWAP1 POP SWAP3 SWAP2 POP POP JUMP JUMPDEST PUSH1 0x0 DUP3 DUP3 MSTORE PUSH1 0x20 DUP3 ADD SWAP1 POP SWAP3 SWAP2 POP POP JUMP JUMPDEST PUSH1 0x0 PUSH2 0xD45 DUP3 PUSH2 0xE9F JUMP JUMPDEST SWAP2 POP PUSH2 0xD50 DUP4 PUSH2 0xE9F JUMP JUMPDEST SWAP3 POP DUP3 PUSH32 0xFFFFFFFFFFFFFFFFFFFFFFFFFFFFFFFFFFFFFFFFFFFFFFFFFFFFFFFFFFFFFFFF SUB DUP3 GT ISZERO PUSH2 0xD85 JUMPI PUSH2 0xD84 PUSH2 0xEA9 JUMP JUMPDEST JUMPDEST DUP3 DUP3 ADD SWAP1 POP SWAP3 SWAP2 POP POP JUMP JUMPDEST PUSH1 0x0 PUSH2 0xD9B DUP3 PUSH2 0xE9F JUMP JUMPDEST SWAP2 POP PUSH2 0xDA6 DUP4 PUSH2 0xE9F JUMP JUMPDEST SWAP3 POP DUP3 PUSH2 0xDB6 JUMPI PUSH2 0xDB5 PUSH2 0xED8 JUMP JUMPDEST JUMPDEST DUP3 DUP3 DIV SWAP1 POP SWAP3 SWAP2 POP POP JUMP JUMPDEST PUSH1 0x0 PUSH2 0xDCC DUP3 PUSH2 0xE9F JUMP JUMPDEST SWAP2 POP PUSH2 0xDD7 DUP4 PUSH2 0xE9F JUMP JUMPDEST SWAP3 POP DUP2 PUSH32 0xFFFFFFFFFFFFFFFFFFFFFFFFFFFFFFFFFFFFFFFFFFFFFFFFFFFFFFFFFFFFFFFF DIV DUP4 GT DUP3 ISZERO ISZERO AND ISZERO PUSH2 0xE10 JUMPI PUSH2 0xE0F PUSH2 0xEA9 JUMP JUMPDEST JUMPDEST DUP3 DUP3 MUL SWAP1 POP SWAP3 SWAP2 POP POP JUMP JUMPDEST PUSH1 0x0 PUSH2 0xE26 DUP3 PUSH2 0xE9F JUMP JUMPDEST SWAP2 POP PUSH2 0xE31 DUP4 PUSH2 0xE9F JUMP JUMPDEST SWAP3 POP DUP3 DUP3 LT ISZERO PUSH2 0xE44 JUMPI PUSH2 0xE43 PUSH2 0xEA9 JUMP JUMPDEST JUMPDEST DUP3 DUP3 SUB SWAP1 POP SWAP3 SWAP2 POP POP JUMP JUMPDEST PUSH1 0x0 PUSH2 0xE5A DUP3 PUSH2 0xE7F JUMP JUMPDEST SWAP1 POP SWAP2 SWAP1 POP JUMP JUMPDEST PUSH1 0x0 PUSH2 0xE6C DUP3 PUSH2 0xE7F JUMP JUMPDEST SWAP1 POP SWAP2 SWAP1 POP JUMP JUMPDEST PUSH1 0x0 DUP2 ISZERO ISZERO SWAP1 POP SWAP2 SWAP1 POP JUMP JUMPDEST PUSH1 0x0 PUSH20 0xFFFFFFFFFFFFFFFFFFFFFFFFFFFFFFFFFFFFFFFF DUP3 AND SWAP1 POP SWAP2 SWAP1 POP JUMP JUMPDEST PUSH1 0x0 DUP2 SWAP1 POP SWAP2 SWAP1 POP JUMP JUMPDEST PUSH32 0x4E487B7100000000000000000000000000000000000000000000000000000000 PUSH1 0x0 MSTORE PUSH1 0x11 PUSH1 0x4 MSTORE PUSH1 0x24 PUSH1 0x0 REVERT JUMPDEST PUSH32 0x4E487B7100000000000000000000000000000000000000000000000000000000 PUSH1 0x0 MSTORE PUSH1 0x12 PUSH1 0x4 MSTORE PUSH1 0x24 PUSH1 0x0 REVERT JUMPDEST PUSH1 0x0 DUP1 REVERT JUMPDEST PUSH32 0x4F776E61626C653A206E6577206F776E657220697320746865207A65726F2061 PUSH1 0x0 DUP3 ADD MSTORE PUSH32 0x6464726573730000000000000000000000000000000000000000000000000000 PUSH1 0x20 DUP3 ADD MSTORE POP JUMP JUMPDEST PUSH32 0x416464726573733A20756E61626C6520746F2073656E642076616C75652C2072 PUSH1 0x0 DUP3 ADD MSTORE PUSH32 0x6563697069656E74206D61792068617665207265766572746564000000000000 PUSH1 0x20 DUP3 ADD MSTORE POP JUMP JUMPDEST PUSH32 0x416464726573733A20696E73756666696369656E742062616C616E6365000000 PUSH1 0x0 DUP3 ADD MSTORE POP JUMP JUMPDEST PUSH32 0x4F776E61626C653A2063616C6C6572206973206E6F7420746865206F776E6572 PUSH1 0x0 DUP3 ADD MSTORE POP JUMP JUMPDEST POP JUMP JUMPDEST PUSH32 0x63616C6C6572206973206E6F74207468652061646D696E000000000000000000 PUSH1 0x0 DUP3 ADD MSTORE POP JUMP JUMPDEST PUSH2 0x1031 DUP2 PUSH2 0xE4F JUMP JUMPDEST DUP2 EQ PUSH2 0x103C JUMPI PUSH1 0x0 DUP1 REVERT JUMPDEST POP JUMP JUMPDEST PUSH2 0x1048 DUP2 PUSH2 0xE61 JUMP JUMPDEST DUP2 EQ PUSH2 0x1053 JUMPI PUSH1 0x0 DUP1 REVERT JUMPDEST POP JUMP JUMPDEST PUSH2 0x105F DUP2 PUSH2 0xE73 JUMP JUMPDEST DUP2 EQ PUSH2 0x106A JUMPI PUSH1 0x0 DUP1 REVERT JUMPDEST POP JUMP JUMPDEST PUSH2 0x1076 DUP2 PUSH2 0xE9F JUMP JUMPDEST DUP2 EQ PUSH2 0x1081 JUMPI PUSH1 0x0 DUP1 REVERT JUMPDEST POP JUMP INVALID LOG2 PUSH5 0x6970667358 0x22 SLT KECCAK256 DUP4 CALLDATACOPY 0xCC CALLDATALOAD PUSH32 0x16787E19C554790225C71948C4B8FB7800A33E4E4FAA56A3B2DC8E64736F6C63 NUMBER STOP ADDMOD SMOD STOP CALLER "
				},
				"gasEstimates": {
					"creation": {
						"codeDepositCost": "856400",
						"executionCost": "infinite",
						"totalCost": "infinite"
					},
					"external": {
						"admin()": "2580",
						"adminResolutionStatus(bool,uint256)": "infinite",
						"client()": "2515",
						"contractor()": "2624",
						"deposit(address,address)": "infinite",
						"owner()": "2611",
						"renounceOwnership()": "30465",
						"taskCompletionStatus(bool)": "26896",
						"taskValidationStatus(bool)": "infinite",
						"testPayment()": "infinite",
						"transferOwnership(address)": "30791"
					},
					"internal": {
						"_checkAdmin()": "infinite",
						"_checkContractor()": "infinite"
					}
				},
				"methodIdentifiers": {
					"admin()": "f851a440",
					"adminResolutionStatus(bool,uint256)": "5e32c425",
					"client()": "109e94cf",
					"contractor()": "fbfd2045",
					"deposit(address,address)": "f9609f08",
					"owner()": "8da5cb5b",
					"renounceOwnership()": "715018a6",
					"taskCompletionStatus(bool)": "251d8cd5",
					"taskValidationStatus(bool)": "9464c8b8",
					"testPayment()": "b0568eaa",
					"transferOwnership(address)": "f2fde38b"
				}
			},
			"storageLayout": {
				"storage": [
					{
						"astId": 7,
						"contract": "contracts/Escrow.sol:Escrow",
						"label": "_owner",
						"offset": 0,
						"slot": "0",
						"type": "t_address"
					},
					{
						"astId": 446,
						"contract": "contracts/Escrow.sol:Escrow",
						"label": "contractor",
						"offset": 0,
						"slot": "1",
						"type": "t_address_payable"
					},
					{
						"astId": 448,
						"contract": "contracts/Escrow.sol:Escrow",
						"label": "client",
						"offset": 0,
						"slot": "2",
						"type": "t_address"
					},
					{
						"astId": 450,
						"contract": "contracts/Escrow.sol:Escrow",
						"label": "admin",
						"offset": 0,
						"slot": "3",
						"type": "t_address_payable"
					},
					{
						"astId": 454,
						"contract": "contracts/Escrow.sol:Escrow",
						"label": "_deposits",
						"offset": 0,
						"slot": "4",
						"type": "t_mapping(t_address,t_uint256)"
					},
					{
						"astId": 495,
						"contract": "contracts/Escrow.sol:Escrow",
						"label": "taskCompleted",
						"offset": 0,
						"slot": "5",
						"type": "t_bool"
					},
					{
						"astId": 497,
						"contract": "contracts/Escrow.sol:Escrow",
						"label": "taskValidated",
						"offset": 1,
						"slot": "5",
						"type": "t_bool"
					},
					{
						"astId": 499,
						"contract": "contracts/Escrow.sol:Escrow",
						"label": "adminResolution",
						"offset": 2,
						"slot": "5",
						"type": "t_bool"
					},
					{
						"astId": 501,
						"contract": "contracts/Escrow.sol:Escrow",
						"label": "adminDecision",
						"offset": 0,
						"slot": "6",
						"type": "t_uint256"
					}
				],
				"types": {
					"t_address": {
						"encoding": "inplace",
						"label": "address",
						"numberOfBytes": "20"
					},
					"t_address_payable": {
						"encoding": "inplace",
						"label": "address payable",
						"numberOfBytes": "20"
					},
					"t_bool": {
						"encoding": "inplace",
						"label": "bool",
						"numberOfBytes": "1"
					},
					"t_mapping(t_address,t_uint256)": {
						"encoding": "mapping",
						"key": "t_address",
						"label": "mapping(address => uint256)",
						"numberOfBytes": "32",
						"value": "t_uint256"
					},
					"t_uint256": {
						"encoding": "inplace",
						"label": "uint256",
						"numberOfBytes": "32"
					}
				}
			},
			"userdoc": {
				"kind": "user",
				"methods": {},
				"version": 1
			}
		}
	}
}