{
	"contracts/Escrow.sol": {
		"Escrow": {
			"abi": [
				{
					"anonymous": false,
					"inputs": [
						{
							"indexed": true,
							"internalType": "address",
							"name": "payee",
							"type": "address"
						},
						{
							"indexed": false,
							"internalType": "uint256",
							"name": "weiAmount",
							"type": "uint256"
						}
					],
					"name": "Deposited",
					"type": "event"
				},
				{
					"anonymous": false,
					"inputs": [
						{
							"indexed": true,
							"internalType": "address",
							"name": "previousOwner",
							"type": "address"
						},
						{
							"indexed": true,
							"internalType": "address",
							"name": "newOwner",
							"type": "address"
						}
					],
					"name": "OwnershipTransferred",
					"type": "event"
				},
				{
					"inputs": [
						{
							"internalType": "bool",
							"name": "inputAdminResolution",
							"type": "bool"
						},
						{
							"internalType": "bool",
							"name": "inputAdminDecision",
							"type": "bool"
						}
					],
					"name": "adminResolutionStatus",
					"outputs": [],
					"stateMutability": "nonpayable",
					"type": "function"
				},
				{
					"inputs": [
						{
							"internalType": "address payable",
							"name": "payee",
							"type": "address"
						},
						{
							"internalType": "address payable",
							"name": "broker",
							"type": "address"
						}
					],
					"name": "deposit",
					"outputs": [],
					"stateMutability": "payable",
					"type": "function"
				},
				{
					"inputs": [],
					"name": "owner",
					"outputs": [
						{
							"internalType": "address",
							"name": "",
							"type": "address"
						}
					],
					"stateMutability": "view",
					"type": "function"
				},
				{
					"inputs": [],
					"name": "renounceOwnership",
					"outputs": [],
					"stateMutability": "nonpayable",
					"type": "function"
				},
				{
					"inputs": [
						{
							"internalType": "bool",
							"name": "inputTaskCompleted",
							"type": "bool"
						}
					],
					"name": "taskCompletionStatus",
					"outputs": [],
					"stateMutability": "nonpayable",
					"type": "function"
				},
				{
					"inputs": [
						{
							"internalType": "bool",
							"name": "inputTaskValidated",
							"type": "bool"
						}
					],
					"name": "taskValidationStatus",
					"outputs": [],
					"stateMutability": "nonpayable",
					"type": "function"
				},
				{
					"inputs": [],
					"name": "testPayment",
					"outputs": [],
					"stateMutability": "nonpayable",
					"type": "function"
				},
				{
					"inputs": [
						{
							"internalType": "address",
							"name": "newOwner",
							"type": "address"
						}
					],
					"name": "transferOwnership",
					"outputs": [],
					"stateMutability": "nonpayable",
					"type": "function"
				}
			],
			"devdoc": {
				"kind": "dev",
				"methods": {
					"owner()": {
						"details": "Returns the address of the current owner."
					},
					"renounceOwnership()": {
						"details": "Leaves the contract without owner. It will not be possible to call `onlyOwner` functions anymore. Can only be called by the current owner. NOTE: Renouncing ownership will leave the contract without an owner, thereby removing any functionality that is only available to the owner."
					},
					"transferOwnership(address)": {
						"details": "Transfers ownership of the contract to a new account (`newOwner`). Can only be called by the current owner."
					}
				},
				"version": 1
			},
			"evm": {
				"assembly": "    /* \"contracts/Escrow.sol\":238:3007  contract Escrow is Ownable {... */\n  mstore(0x40, 0x80)\n  callvalue\n  dup1\n  iszero\n  tag_1\n  jumpi\n  0x00\n  dup1\n  revert\ntag_1:\n  pop\n    /* \"@openzeppelin/contracts/access/Ownable.sol\":936:968  _transferOwnership(_msgSender()) */\n  tag_4\n    /* \"@openzeppelin/contracts/access/Ownable.sol\":955:967  _msgSender() */\n  tag_5\n    /* \"@openzeppelin/contracts/access/Ownable.sol\":955:965  _msgSender */\n  shl(0x20, tag_6)\n    /* \"@openzeppelin/contracts/access/Ownable.sol\":955:967  _msgSender() */\n  0x20\n  shr\n  jump\t// in\ntag_5:\n    /* \"@openzeppelin/contracts/access/Ownable.sol\":936:954  _transferOwnership */\n  shl(0x20, tag_7)\n    /* \"@openzeppelin/contracts/access/Ownable.sol\":936:968  _transferOwnership(_msgSender()) */\n  0x20\n  shr\n  jump\t// in\ntag_4:\n    /* \"contracts/Escrow.sol\":238:3007  contract Escrow is Ownable {... */\n  jump(tag_8)\n    /* \"@openzeppelin/contracts/utils/Context.sol\":640:736  function _msgSender() internal view virtual returns (address) {... */\ntag_6:\n    /* \"@openzeppelin/contracts/utils/Context.sol\":693:700  address */\n  0x00\n    /* \"@openzeppelin/contracts/utils/Context.sol\":719:729  msg.sender */\n  caller\n    /* \"@openzeppelin/contracts/utils/Context.sol\":712:729  return msg.sender */\n  swap1\n  pop\n    /* \"@openzeppelin/contracts/utils/Context.sol\":640:736  function _msgSender() internal view virtual returns (address) {... */\n  swap1\n  jump\t// out\n    /* \"@openzeppelin/contracts/access/Ownable.sol\":2433:2620  function _transferOwnership(address newOwner) internal virtual {... */\ntag_7:\n    /* \"@openzeppelin/contracts/access/Ownable.sol\":2506:2522  address oldOwner */\n  0x00\n    /* \"@openzeppelin/contracts/access/Ownable.sol\":2525:2531  _owner */\n  dup1\n  0x00\n  swap1\n  sload\n  swap1\n  0x0100\n  exp\n  swap1\n  div\n  0xffffffffffffffffffffffffffffffffffffffff\n  and\n    /* \"@openzeppelin/contracts/access/Ownable.sol\":2506:2531  address oldOwner = _owner */\n  swap1\n  pop\n    /* \"@openzeppelin/contracts/access/Ownable.sol\":2550:2558  newOwner */\n  dup2\n    /* \"@openzeppelin/contracts/access/Ownable.sol\":2541:2547  _owner */\n  0x00\n  dup1\n    /* \"@openzeppelin/contracts/access/Ownable.sol\":2541:2558  _owner = newOwner */\n  0x0100\n  exp\n  dup2\n  sload\n  dup2\n  0xffffffffffffffffffffffffffffffffffffffff\n  mul\n  not\n  and\n  swap1\n  dup4\n  0xffffffffffffffffffffffffffffffffffffffff\n  and\n  mul\n  or\n  swap1\n  sstore\n  pop\n    /* \"@openzeppelin/contracts/access/Ownable.sol\":2604:2612  newOwner */\n  dup2\n    /* \"@openzeppelin/contracts/access/Ownable.sol\":2573:2613  OwnershipTransferred(oldOwner, newOwner) */\n  0xffffffffffffffffffffffffffffffffffffffff\n  and\n    /* \"@openzeppelin/contracts/access/Ownable.sol\":2594:2602  oldOwner */\n  dup2\n    /* \"@openzeppelin/contracts/access/Ownable.sol\":2573:2613  OwnershipTransferred(oldOwner, newOwner) */\n  0xffffffffffffffffffffffffffffffffffffffff\n  and\n  0x8be0079c531659141344cd1fd0a4f28419497f9722a3daafe3b4186f6b6457e0\n  mload(0x40)\n  mload(0x40)\n  dup1\n  swap2\n  sub\n  swap1\n  log3\n    /* \"@openzeppelin/contracts/access/Ownable.sol\":2496:2620  {... */\n  pop\n    /* \"@openzeppelin/contracts/access/Ownable.sol\":2433:2620  function _transferOwnership(address newOwner) internal virtual {... */\n  pop\n  jump\t// out\n    /* \"contracts/Escrow.sol\":238:3007  contract Escrow is Ownable {... */\ntag_8:\n  dataSize(sub_0)\n  dup1\n  dataOffset(sub_0)\n  0x00\n  codecopy\n  0x00\n  return\nstop\n\nsub_0: assembly {\n        /* \"contracts/Escrow.sol\":238:3007  contract Escrow is Ownable {... */\n      mstore(0x40, 0x80)\n      jumpi(tag_1, lt(calldatasize, 0x04))\n      shr(0xe0, calldataload(0x00))\n      dup1\n      0x9464c8b8\n      gt\n      tag_10\n      jumpi\n      dup1\n      0x9464c8b8\n      eq\n      tag_6\n      jumpi\n      dup1\n      0xb0568eaa\n      eq\n      tag_7\n      jumpi\n      dup1\n      0xf2fde38b\n      eq\n      tag_8\n      jumpi\n      dup1\n      0xf9609f08\n      eq\n      tag_9\n      jumpi\n      jump(tag_1)\n    tag_10:\n      dup1\n      0x11571f30\n      eq\n      tag_2\n      jumpi\n      dup1\n      0x251d8cd5\n      eq\n      tag_3\n      jumpi\n      dup1\n      0x715018a6\n      eq\n      tag_4\n      jumpi\n      dup1\n      0x8da5cb5b\n      eq\n      tag_5\n      jumpi\n    tag_1:\n      0x00\n      dup1\n      revert\n        /* \"contracts/Escrow.sol\":1840:2062  function adminResolutionStatus(bool inputAdminResolution, bool inputAdminDecision) public virtual onlyAdmin{... */\n    tag_2:\n      callvalue\n      dup1\n      iszero\n      tag_11\n      jumpi\n      0x00\n      dup1\n      revert\n    tag_11:\n      pop\n      tag_12\n      0x04\n      dup1\n      calldatasize\n      sub\n      dup2\n      add\n      swap1\n      tag_13\n      swap2\n      swap1\n      tag_14\n      jump\t// in\n    tag_13:\n      tag_15\n      jump\t// in\n    tag_12:\n      stop\n        /* \"contracts/Escrow.sol\":2068:2200  function taskCompletionStatus(bool inputTaskCompleted) public virtual onlyContractor {... */\n    tag_3:\n      callvalue\n      dup1\n      iszero\n      tag_16\n      jumpi\n      0x00\n      dup1\n      revert\n    tag_16:\n      pop\n      tag_17\n      0x04\n      dup1\n      calldatasize\n      sub\n      dup2\n      add\n      swap1\n      tag_18\n      swap2\n      swap1\n      tag_19\n      jump\t// in\n    tag_18:\n      tag_20\n      jump\t// in\n    tag_17:\n      stop\n        /* \"@openzeppelin/contracts/access/Ownable.sol\":1831:1932  function renounceOwnership() public virtual onlyOwner {... */\n    tag_4:\n      callvalue\n      dup1\n      iszero\n      tag_21\n      jumpi\n      0x00\n      dup1\n      revert\n    tag_21:\n      pop\n      tag_22\n      tag_23\n      jump\t// in\n    tag_22:\n      stop\n        /* \"@openzeppelin/contracts/access/Ownable.sol\":1201:1286  function owner() public view virtual returns (address) {... */\n    tag_5:\n      callvalue\n      dup1\n      iszero\n      tag_24\n      jumpi\n      0x00\n      dup1\n      revert\n    tag_24:\n      pop\n      tag_25\n      tag_26\n      jump\t// in\n    tag_25:\n      mload(0x40)\n      tag_27\n      swap2\n      swap1\n      tag_28\n      jump\t// in\n    tag_27:\n      mload(0x40)\n      dup1\n      swap2\n      sub\n      swap1\n      return\n        /* \"contracts/Escrow.sol\":2206:2351  function taskValidationStatus(bool inputTaskValidated) public virtual onlyOwner{... */\n    tag_6:\n      callvalue\n      dup1\n      iszero\n      tag_29\n      jumpi\n      0x00\n      dup1\n      revert\n    tag_29:\n      pop\n      tag_30\n      0x04\n      dup1\n      calldatasize\n      sub\n      dup2\n      add\n      swap1\n      tag_31\n      swap2\n      swap1\n      tag_19\n      jump\t// in\n    tag_31:\n      tag_32\n      jump\t// in\n    tag_30:\n      stop\n        /* \"contracts/Escrow.sol\":2357:3004  function testPayment() public virtual{... */\n    tag_7:\n      callvalue\n      dup1\n      iszero\n      tag_33\n      jumpi\n      0x00\n      dup1\n      revert\n    tag_33:\n      pop\n      tag_34\n      tag_35\n      jump\t// in\n    tag_34:\n      stop\n        /* \"@openzeppelin/contracts/access/Ownable.sol\":2081:2279  function transferOwnership(address newOwner) public virtual onlyOwner {... */\n    tag_8:\n      callvalue\n      dup1\n      iszero\n      tag_36\n      jumpi\n      0x00\n      dup1\n      revert\n    tag_36:\n      pop\n      tag_37\n      0x04\n      dup1\n      calldatasize\n      sub\n      dup2\n      add\n      swap1\n      tag_38\n      swap2\n      swap1\n      tag_39\n      jump\t// in\n    tag_38:\n      tag_40\n      jump\t// in\n    tag_37:\n      stop\n        /* \"contracts/Escrow.sol\":555:859  function deposit(address payable payee, address payable broker) public payable virtual onlyOwner {... */\n    tag_9:\n      tag_41\n      0x04\n      dup1\n      calldatasize\n      sub\n      dup2\n      add\n      swap1\n      tag_42\n      swap2\n      swap1\n      tag_43\n      jump\t// in\n    tag_42:\n      tag_44\n      jump\t// in\n    tag_41:\n      stop\n        /* \"contracts/Escrow.sol\":1840:2062  function adminResolutionStatus(bool inputAdminResolution, bool inputAdminDecision) public virtual onlyAdmin{... */\n    tag_15:\n        /* \"contracts/Escrow.sol\":1540:1553  _checkAdmin() */\n      tag_46\n        /* \"contracts/Escrow.sol\":1540:1551  _checkAdmin */\n      tag_47\n        /* \"contracts/Escrow.sol\":1540:1553  _checkAdmin() */\n      jump\t// in\n    tag_46:\n        /* \"contracts/Escrow.sol\":1971:1991  inputAdminResolution */\n      dup2\n        /* \"contracts/Escrow.sol\":1953:1968  adminResolution */\n      0x05\n      0x02\n        /* \"contracts/Escrow.sol\":1953:1991  adminResolution = inputAdminResolution */\n      0x0100\n      exp\n      dup2\n      sload\n      dup2\n      0xff\n      mul\n      not\n      and\n      swap1\n      dup4\n      iszero\n      iszero\n      mul\n      or\n      swap1\n      sstore\n      pop\n        /* \"contracts/Escrow.sol\":2018:2036  inputAdminDecision */\n      dup1\n        /* \"contracts/Escrow.sol\":1997:2015  adminPayContractor */\n      0x05\n      0x03\n        /* \"contracts/Escrow.sol\":1997:2036  adminPayContractor = inputAdminDecision */\n      0x0100\n      exp\n      dup2\n      sload\n      dup2\n      0xff\n      mul\n      not\n      and\n      swap1\n      dup4\n      iszero\n      iszero\n      mul\n      or\n      swap1\n      sstore\n      pop\n        /* \"contracts/Escrow.sol\":2042:2055  testPayment() */\n      tag_49\n        /* \"contracts/Escrow.sol\":2042:2053  testPayment */\n      tag_35\n        /* \"contracts/Escrow.sol\":2042:2055  testPayment() */\n      jump\t// in\n    tag_49:\n        /* \"contracts/Escrow.sol\":1840:2062  function adminResolutionStatus(bool inputAdminResolution, bool inputAdminDecision) public virtual onlyAdmin{... */\n      pop\n      pop\n      jump\t// out\n        /* \"contracts/Escrow.sol\":2068:2200  function taskCompletionStatus(bool inputTaskCompleted) public virtual onlyContractor {... */\n    tag_20:\n        /* \"contracts/Escrow.sol\":1758:1776  _checkContractor() */\n      tag_51\n        /* \"contracts/Escrow.sol\":1758:1774  _checkContractor */\n      tag_52\n        /* \"contracts/Escrow.sol\":1758:1776  _checkContractor() */\n      jump\t// in\n    tag_51:\n        /* \"contracts/Escrow.sol\":2175:2193  inputTaskCompleted */\n      dup1\n        /* \"contracts/Escrow.sol\":2159:2172  taskCompleted */\n      0x05\n      0x00\n        /* \"contracts/Escrow.sol\":2159:2193  taskCompleted = inputTaskCompleted */\n      0x0100\n      exp\n      dup2\n      sload\n      dup2\n      0xff\n      mul\n      not\n      and\n      swap1\n      dup4\n      iszero\n      iszero\n      mul\n      or\n      swap1\n      sstore\n      pop\n        /* \"contracts/Escrow.sol\":2068:2200  function taskCompletionStatus(bool inputTaskCompleted) public virtual onlyContractor {... */\n      pop\n      jump\t// out\n        /* \"@openzeppelin/contracts/access/Ownable.sol\":1831:1932  function renounceOwnership() public virtual onlyOwner {... */\n    tag_23:\n        /* \"@openzeppelin/contracts/access/Ownable.sol\":1094:1107  _checkOwner() */\n      tag_55\n        /* \"@openzeppelin/contracts/access/Ownable.sol\":1094:1105  _checkOwner */\n      tag_56\n        /* \"@openzeppelin/contracts/access/Ownable.sol\":1094:1107  _checkOwner() */\n      jump\t// in\n    tag_55:\n        /* \"@openzeppelin/contracts/access/Ownable.sol\":1895:1925  _transferOwnership(address(0)) */\n      tag_58\n        /* \"@openzeppelin/contracts/access/Ownable.sol\":1922:1923  0 */\n      0x00\n        /* \"@openzeppelin/contracts/access/Ownable.sol\":1895:1913  _transferOwnership */\n      tag_59\n        /* \"@openzeppelin/contracts/access/Ownable.sol\":1895:1925  _transferOwnership(address(0)) */\n      jump\t// in\n    tag_58:\n        /* \"@openzeppelin/contracts/access/Ownable.sol\":1831:1932  function renounceOwnership() public virtual onlyOwner {... */\n      jump\t// out\n        /* \"@openzeppelin/contracts/access/Ownable.sol\":1201:1286  function owner() public view virtual returns (address) {... */\n    tag_26:\n        /* \"@openzeppelin/contracts/access/Ownable.sol\":1247:1254  address */\n      0x00\n        /* \"@openzeppelin/contracts/access/Ownable.sol\":1273:1279  _owner */\n      dup1\n      0x00\n      swap1\n      sload\n      swap1\n      0x0100\n      exp\n      swap1\n      div\n      0xffffffffffffffffffffffffffffffffffffffff\n      and\n        /* \"@openzeppelin/contracts/access/Ownable.sol\":1266:1279  return _owner */\n      swap1\n      pop\n        /* \"@openzeppelin/contracts/access/Ownable.sol\":1201:1286  function owner() public view virtual returns (address) {... */\n      swap1\n      jump\t// out\n        /* \"contracts/Escrow.sol\":2206:2351  function taskValidationStatus(bool inputTaskValidated) public virtual onlyOwner{... */\n    tag_32:\n        /* \"@openzeppelin/contracts/access/Ownable.sol\":1094:1107  _checkOwner() */\n      tag_62\n        /* \"@openzeppelin/contracts/access/Ownable.sol\":1094:1105  _checkOwner */\n      tag_56\n        /* \"@openzeppelin/contracts/access/Ownable.sol\":1094:1107  _checkOwner() */\n      jump\t// in\n    tag_62:\n        /* \"contracts/Escrow.sol\":2307:2325  inputTaskValidated */\n      dup1\n        /* \"contracts/Escrow.sol\":2291:2304  taskValidated */\n      0x05\n      0x01\n        /* \"contracts/Escrow.sol\":2291:2325  taskValidated = inputTaskValidated */\n      0x0100\n      exp\n      dup2\n      sload\n      dup2\n      0xff\n      mul\n      not\n      and\n      swap1\n      dup4\n      iszero\n      iszero\n      mul\n      or\n      swap1\n      sstore\n      pop\n        /* \"contracts/Escrow.sol\":2331:2344  testPayment() */\n      tag_64\n        /* \"contracts/Escrow.sol\":2331:2342  testPayment */\n      tag_35\n        /* \"contracts/Escrow.sol\":2331:2344  testPayment() */\n      jump\t// in\n    tag_64:\n        /* \"contracts/Escrow.sol\":2206:2351  function taskValidationStatus(bool inputTaskValidated) public virtual onlyOwner{... */\n      pop\n      jump\t// out\n        /* \"contracts/Escrow.sol\":2357:3004  function testPayment() public virtual{... */\n    tag_35:\n        /* \"contracts/Escrow.sol\":2400:2422  uint256 balancePayment */\n      0x00\n        /* \"contracts/Escrow.sol\":2425:2446  address(this).balance */\n      selfbalance\n        /* \"contracts/Escrow.sol\":2400:2446  uint256 balancePayment = address(this).balance */\n      swap1\n      pop\n        /* \"contracts/Escrow.sol\":2452:2472  uint256 adminPayment */\n      0x00\n        /* \"contracts/Escrow.sol\":2496:2498  10 */\n      0x0a\n        /* \"contracts/Escrow.sol\":2493:2494  2 */\n      0x02\n        /* \"contracts/Escrow.sol\":2476:2490  balancePayment */\n      dup4\n        /* \"contracts/Escrow.sol\":2476:2494  balancePayment * 2 */\n      tag_66\n      swap2\n      swap1\n      tag_67\n      jump\t// in\n    tag_66:\n        /* \"contracts/Escrow.sol\":2475:2498  (balancePayment * 2)/10 */\n      tag_68\n      swap2\n      swap1\n      tag_69\n      jump\t// in\n    tag_68:\n        /* \"contracts/Escrow.sol\":2452:2498  uint256 adminPayment = (balancePayment * 2)/10 */\n      swap1\n      pop\n        /* \"contracts/Escrow.sol\":2546:2558  adminPayment */\n      dup1\n        /* \"contracts/Escrow.sol\":2528:2558  balancePayment -= adminPayment */\n      dup3\n      tag_70\n      swap2\n      swap1\n      tag_71\n      jump\t// in\n    tag_70:\n      swap2\n      pop\n        /* \"contracts/Escrow.sol\":2628:2632  true */\n      0x01\n        /* \"contracts/Escrow.sol\":2611:2632  taskCompleted == true */\n      iszero\n      iszero\n        /* \"contracts/Escrow.sol\":2611:2624  taskCompleted */\n      0x05\n      0x00\n      swap1\n      sload\n      swap1\n      0x0100\n      exp\n      swap1\n      div\n      0xff\n      and\n        /* \"contracts/Escrow.sol\":2611:2632  taskCompleted == true */\n      iszero\n      iszero\n      eq\n        /* \"contracts/Escrow.sol\":2611:2657  taskCompleted == true && taskValidated == true */\n      dup1\n      iszero\n      tag_72\n      jumpi\n      pop\n        /* \"contracts/Escrow.sol\":2653:2657  true */\n      0x01\n        /* \"contracts/Escrow.sol\":2636:2657  taskValidated == true */\n      iszero\n      iszero\n        /* \"contracts/Escrow.sol\":2636:2649  taskValidated */\n      0x05\n      0x01\n      swap1\n      sload\n      swap1\n      0x0100\n      exp\n      swap1\n      div\n      0xff\n      and\n        /* \"contracts/Escrow.sol\":2636:2657  taskValidated == true */\n      iszero\n      iszero\n      eq\n        /* \"contracts/Escrow.sol\":2611:2657  taskCompleted == true && taskValidated == true */\n    tag_72:\n        /* \"contracts/Escrow.sol\":2610:2715  (taskCompleted == true && taskValidated == true)||(adminResolution == true && adminPayContractor == true) */\n      dup1\n      tag_73\n      jumpi\n      pop\n        /* \"contracts/Escrow.sol\":2680:2684  true */\n      0x01\n        /* \"contracts/Escrow.sol\":2661:2684  adminResolution == true */\n      iszero\n      iszero\n        /* \"contracts/Escrow.sol\":2661:2676  adminResolution */\n      0x05\n      0x02\n      swap1\n      sload\n      swap1\n      0x0100\n      exp\n      swap1\n      div\n      0xff\n      and\n        /* \"contracts/Escrow.sol\":2661:2684  adminResolution == true */\n      iszero\n      iszero\n      eq\n        /* \"contracts/Escrow.sol\":2661:2714  adminResolution == true && adminPayContractor == true */\n      dup1\n      iszero\n      tag_74\n      jumpi\n      pop\n        /* \"contracts/Escrow.sol\":2710:2714  true */\n      0x01\n        /* \"contracts/Escrow.sol\":2688:2714  adminPayContractor == true */\n      iszero\n      iszero\n        /* \"contracts/Escrow.sol\":2688:2706  adminPayContractor */\n      0x05\n      0x03\n      swap1\n      sload\n      swap1\n      0x0100\n      exp\n      swap1\n      div\n      0xff\n      and\n        /* \"contracts/Escrow.sol\":2688:2714  adminPayContractor == true */\n      iszero\n      iszero\n      eq\n        /* \"contracts/Escrow.sol\":2661:2714  adminResolution == true && adminPayContractor == true */\n    tag_74:\n        /* \"contracts/Escrow.sol\":2610:2715  (taskCompleted == true && taskValidated == true)||(adminResolution == true && adminPayContractor == true) */\n    tag_73:\n        /* \"contracts/Escrow.sol\":2607:2997  if((taskCompleted == true && taskValidated == true)||(adminResolution == true && adminPayContractor == true)){... */\n      iszero\n      tag_75\n      jumpi\n        /* \"contracts/Escrow.sol\":2730:2766  contractor.sendValue(balancePayment) */\n      tag_76\n        /* \"contracts/Escrow.sol\":2751:2765  balancePayment */\n      dup3\n        /* \"contracts/Escrow.sol\":2730:2740  contractor */\n      0x01\n      0x00\n      swap1\n      sload\n      swap1\n      0x0100\n      exp\n      swap1\n      div\n      0xffffffffffffffffffffffffffffffffffffffff\n      and\n        /* \"contracts/Escrow.sol\":2730:2750  contractor.sendValue */\n      0xffffffffffffffffffffffffffffffffffffffff\n      and\n      tag_77\n      swap1\n        /* \"contracts/Escrow.sol\":2730:2766  contractor.sendValue(balancePayment) */\n      swap2\n      swap1\n      0xffffffff\n      and\n      jump\t// in\n    tag_76:\n        /* \"contracts/Escrow.sol\":2780:2809  admin.sendValue(adminPayment) */\n      tag_78\n        /* \"contracts/Escrow.sol\":2796:2808  adminPayment */\n      dup2\n        /* \"contracts/Escrow.sol\":2780:2785  admin */\n      0x03\n      0x00\n      swap1\n      sload\n      swap1\n      0x0100\n      exp\n      swap1\n      div\n      0xffffffffffffffffffffffffffffffffffffffff\n      and\n        /* \"contracts/Escrow.sol\":2780:2795  admin.sendValue */\n      0xffffffffffffffffffffffffffffffffffffffff\n      and\n      tag_77\n      swap1\n        /* \"contracts/Escrow.sol\":2780:2809  admin.sendValue(adminPayment) */\n      swap2\n      swap1\n      0xffffffff\n      and\n      jump\t// in\n    tag_78:\n        /* \"contracts/Escrow.sol\":2607:2997  if((taskCompleted == true && taskValidated == true)||(adminResolution == true && adminPayContractor == true)){... */\n      jump(tag_79)\n    tag_75:\n        /* \"contracts/Escrow.sol\":2856:2860  true */\n      0x01\n        /* \"contracts/Escrow.sol\":2837:2860  adminResolution == true */\n      iszero\n      iszero\n        /* \"contracts/Escrow.sol\":2837:2852  adminResolution */\n      0x05\n      0x02\n      swap1\n      sload\n      swap1\n      0x0100\n      exp\n      swap1\n      div\n      0xff\n      and\n        /* \"contracts/Escrow.sol\":2837:2860  adminResolution == true */\n      iszero\n      iszero\n      eq\n        /* \"contracts/Escrow.sol\":2837:2891  adminResolution == true && adminPayContractor == false */\n      dup1\n      iszero\n      tag_80\n      jumpi\n      pop\n        /* \"contracts/Escrow.sol\":2886:2891  false */\n      0x00\n        /* \"contracts/Escrow.sol\":2864:2891  adminPayContractor == false */\n      iszero\n      iszero\n        /* \"contracts/Escrow.sol\":2864:2882  adminPayContractor */\n      0x05\n      0x03\n      swap1\n      sload\n      swap1\n      0x0100\n      exp\n      swap1\n      div\n      0xff\n      and\n        /* \"contracts/Escrow.sol\":2864:2891  adminPayContractor == false */\n      iszero\n      iszero\n      eq\n        /* \"contracts/Escrow.sol\":2837:2891  adminResolution == true && adminPayContractor == false */\n    tag_80:\n        /* \"contracts/Escrow.sol\":2834:2997  if(adminResolution == true && adminPayContractor == false){... */\n      iszero\n      tag_81\n      jumpi\n        /* \"contracts/Escrow.sol\":2906:2938  client.sendValue(balancePayment) */\n      tag_82\n        /* \"contracts/Escrow.sol\":2923:2937  balancePayment */\n      dup3\n        /* \"contracts/Escrow.sol\":2906:2912  client */\n      0x02\n      0x00\n      swap1\n      sload\n      swap1\n      0x0100\n      exp\n      swap1\n      div\n      0xffffffffffffffffffffffffffffffffffffffff\n      and\n        /* \"contracts/Escrow.sol\":2906:2922  client.sendValue */\n      0xffffffffffffffffffffffffffffffffffffffff\n      and\n      tag_77\n      swap1\n        /* \"contracts/Escrow.sol\":2906:2938  client.sendValue(balancePayment) */\n      swap2\n      swap1\n      0xffffffff\n      and\n      jump\t// in\n    tag_82:\n        /* \"contracts/Escrow.sol\":2952:2981  admin.sendValue(adminPayment) */\n      tag_83\n        /* \"contracts/Escrow.sol\":2968:2980  adminPayment */\n      dup2\n        /* \"contracts/Escrow.sol\":2952:2957  admin */\n      0x03\n      0x00\n      swap1\n      sload\n      swap1\n      0x0100\n      exp\n      swap1\n      div\n      0xffffffffffffffffffffffffffffffffffffffff\n      and\n        /* \"contracts/Escrow.sol\":2952:2967  admin.sendValue */\n      0xffffffffffffffffffffffffffffffffffffffff\n      and\n      tag_77\n      swap1\n        /* \"contracts/Escrow.sol\":2952:2981  admin.sendValue(adminPayment) */\n      swap2\n      swap1\n      0xffffffff\n      and\n      jump\t// in\n    tag_83:\n        /* \"contracts/Escrow.sol\":2834:2997  if(adminResolution == true && adminPayContractor == false){... */\n    tag_81:\n        /* \"contracts/Escrow.sol\":2607:2997  if((taskCompleted == true && taskValidated == true)||(adminResolution == true && adminPayContractor == true)){... */\n    tag_79:\n        /* \"contracts/Escrow.sol\":2394:3004  {... */\n      pop\n      pop\n        /* \"contracts/Escrow.sol\":2357:3004  function testPayment() public virtual{... */\n      jump\t// out\n        /* \"@openzeppelin/contracts/access/Ownable.sol\":2081:2279  function transferOwnership(address newOwner) public virtual onlyOwner {... */\n    tag_40:\n        /* \"@openzeppelin/contracts/access/Ownable.sol\":1094:1107  _checkOwner() */\n      tag_85\n        /* \"@openzeppelin/contracts/access/Ownable.sol\":1094:1105  _checkOwner */\n      tag_56\n        /* \"@openzeppelin/contracts/access/Ownable.sol\":1094:1107  _checkOwner() */\n      jump\t// in\n    tag_85:\n        /* \"@openzeppelin/contracts/access/Ownable.sol\":2189:2190  0 */\n      0x00\n        /* \"@openzeppelin/contracts/access/Ownable.sol\":2169:2191  newOwner != address(0) */\n      0xffffffffffffffffffffffffffffffffffffffff\n      and\n        /* \"@openzeppelin/contracts/access/Ownable.sol\":2169:2177  newOwner */\n      dup2\n        /* \"@openzeppelin/contracts/access/Ownable.sol\":2169:2191  newOwner != address(0) */\n      0xffffffffffffffffffffffffffffffffffffffff\n      and\n      eq\n      iszero\n        /* \"@openzeppelin/contracts/access/Ownable.sol\":2161:2234  require(newOwner != address(0), \"Ownable: new owner is the zero address\") */\n      tag_87\n      jumpi\n      mload(0x40)\n      0x08c379a000000000000000000000000000000000000000000000000000000000\n      dup2\n      mstore\n      0x04\n      add\n      tag_88\n      swap1\n      tag_89\n      jump\t// in\n    tag_88:\n      mload(0x40)\n      dup1\n      swap2\n      sub\n      swap1\n      revert\n    tag_87:\n        /* \"@openzeppelin/contracts/access/Ownable.sol\":2244:2272  _transferOwnership(newOwner) */\n      tag_90\n        /* \"@openzeppelin/contracts/access/Ownable.sol\":2263:2271  newOwner */\n      dup2\n        /* \"@openzeppelin/contracts/access/Ownable.sol\":2244:2262  _transferOwnership */\n      tag_59\n        /* \"@openzeppelin/contracts/access/Ownable.sol\":2244:2272  _transferOwnership(newOwner) */\n      jump\t// in\n    tag_90:\n        /* \"@openzeppelin/contracts/access/Ownable.sol\":2081:2279  function transferOwnership(address newOwner) public virtual onlyOwner {... */\n      pop\n      jump\t// out\n        /* \"contracts/Escrow.sol\":555:859  function deposit(address payable payee, address payable broker) public payable virtual onlyOwner {... */\n    tag_44:\n        /* \"@openzeppelin/contracts/access/Ownable.sol\":1094:1107  _checkOwner() */\n      tag_92\n        /* \"@openzeppelin/contracts/access/Ownable.sol\":1094:1105  _checkOwner */\n      tag_56\n        /* \"@openzeppelin/contracts/access/Ownable.sol\":1094:1107  _checkOwner() */\n      jump\t// in\n    tag_92:\n        /* \"contracts/Escrow.sol\":675:680  payee */\n      dup2\n        /* \"contracts/Escrow.sol\":662:672  contractor */\n      0x01\n      0x00\n        /* \"contracts/Escrow.sol\":662:680  contractor = payee */\n      0x0100\n      exp\n      dup2\n      sload\n      dup2\n      0xffffffffffffffffffffffffffffffffffffffff\n      mul\n      not\n      and\n      swap1\n      dup4\n      0xffffffffffffffffffffffffffffffffffffffff\n      and\n      mul\n      or\n      swap1\n      sstore\n      pop\n        /* \"contracts/Escrow.sol\":706:716  msg.sender */\n      caller\n        /* \"contracts/Escrow.sol\":690:696  client */\n      0x02\n      0x00\n        /* \"contracts/Escrow.sol\":690:717  client= payable(msg.sender) */\n      0x0100\n      exp\n      dup2\n      sload\n      dup2\n      0xffffffffffffffffffffffffffffffffffffffff\n      mul\n      not\n      and\n      swap1\n      dup4\n      0xffffffffffffffffffffffffffffffffffffffff\n      and\n      mul\n      or\n      swap1\n      sstore\n      pop\n        /* \"contracts/Escrow.sol\":735:741  broker */\n      dup1\n        /* \"contracts/Escrow.sol\":727:732  admin */\n      0x03\n      0x00\n        /* \"contracts/Escrow.sol\":727:741  admin = broker */\n      0x0100\n      exp\n      dup2\n      sload\n      dup2\n      0xffffffffffffffffffffffffffffffffffffffff\n      mul\n      not\n      and\n      swap1\n      dup4\n      0xffffffffffffffffffffffffffffffffffffffff\n      and\n      mul\n      or\n      swap1\n      sstore\n      pop\n        /* \"contracts/Escrow.sol\":751:765  uint256 amount */\n      0x00\n        /* \"contracts/Escrow.sol\":768:777  msg.value */\n      callvalue\n        /* \"contracts/Escrow.sol\":751:777  uint256 amount = msg.value */\n      swap1\n      pop\n        /* \"contracts/Escrow.sol\":807:813  amount */\n      dup1\n        /* \"contracts/Escrow.sol\":787:796  _deposits */\n      0x04\n        /* \"contracts/Escrow.sol\":787:803  _deposits[payee] */\n      0x00\n        /* \"contracts/Escrow.sol\":797:802  payee */\n      dup6\n        /* \"contracts/Escrow.sol\":787:803  _deposits[payee] */\n      0xffffffffffffffffffffffffffffffffffffffff\n      and\n      0xffffffffffffffffffffffffffffffffffffffff\n      and\n      dup2\n      mstore\n      0x20\n      add\n      swap1\n      dup2\n      mstore\n      0x20\n      add\n      0x00\n      keccak256\n      0x00\n        /* \"contracts/Escrow.sol\":787:813  _deposits[payee] += amount */\n      dup3\n      dup3\n      sload\n      tag_94\n      swap2\n      swap1\n      tag_95\n      jump\t// in\n    tag_94:\n      swap3\n      pop\n      pop\n      dup2\n      swap1\n      sstore\n      pop\n        /* \"contracts/Escrow.sol\":838:843  payee */\n      dup3\n        /* \"contracts/Escrow.sol\":828:852  Deposited(payee, amount) */\n      0xffffffffffffffffffffffffffffffffffffffff\n      and\n      0x2da466a7b24304f47e87fa2e1e5a81b9831ce54fec19055ce277ca2f39ba42c4\n        /* \"contracts/Escrow.sol\":845:851  amount */\n      dup3\n        /* \"contracts/Escrow.sol\":828:852  Deposited(payee, amount) */\n      mload(0x40)\n      tag_96\n      swap2\n      swap1\n      tag_97\n      jump\t// in\n    tag_96:\n      mload(0x40)\n      dup1\n      swap2\n      sub\n      swap1\n      log2\n        /* \"contracts/Escrow.sol\":652:859  {... */\n      pop\n        /* \"contracts/Escrow.sol\":555:859  function deposit(address payable payee, address payable broker) public payable virtual onlyOwner {... */\n      pop\n      pop\n      jump\t// out\n        /* \"contracts/Escrow.sol\":1384:1501  function _checkAdmin() internal view virtual {... */\n    tag_47:\n        /* \"contracts/Escrow.sol\":1461:1466  admin */\n      0x03\n      0x00\n      swap1\n      sload\n      swap1\n      0x0100\n      exp\n      swap1\n      div\n      0xffffffffffffffffffffffffffffffffffffffff\n      and\n        /* \"contracts/Escrow.sol\":1447:1466  msg.sender == admin */\n      0xffffffffffffffffffffffffffffffffffffffff\n      and\n        /* \"contracts/Escrow.sol\":1447:1457  msg.sender */\n      caller\n        /* \"contracts/Escrow.sol\":1447:1466  msg.sender == admin */\n      0xffffffffffffffffffffffffffffffffffffffff\n      and\n      eq\n        /* \"contracts/Escrow.sol\":1439:1494  require(msg.sender == admin, \"caller is not the admin\") */\n      tag_99\n      jumpi\n      mload(0x40)\n      0x08c379a000000000000000000000000000000000000000000000000000000000\n      dup2\n      mstore\n      0x04\n      add\n      tag_100\n      swap1\n      tag_101\n      jump\t// in\n    tag_100:\n      mload(0x40)\n      dup1\n      swap2\n      sub\n      swap1\n      revert\n    tag_99:\n        /* \"contracts/Escrow.sol\":1384:1501  function _checkAdmin() internal view virtual {... */\n      jump\t// out\n        /* \"contracts/Escrow.sol\":1582:1714  function _checkContractor() internal view virtual {... */\n    tag_52:\n        /* \"contracts/Escrow.sol\":1664:1674  contractor */\n      0x01\n      0x00\n      swap1\n      sload\n      swap1\n      0x0100\n      exp\n      swap1\n      div\n      0xffffffffffffffffffffffffffffffffffffffff\n      and\n        /* \"contracts/Escrow.sol\":1650:1674  msg.sender == contractor */\n      0xffffffffffffffffffffffffffffffffffffffff\n      and\n        /* \"contracts/Escrow.sol\":1650:1660  msg.sender */\n      caller\n        /* \"contracts/Escrow.sol\":1650:1674  msg.sender == contractor */\n      0xffffffffffffffffffffffffffffffffffffffff\n      and\n      eq\n        /* \"contracts/Escrow.sol\":1642:1707  require(msg.sender == contractor, \"caller is not the contractor\") */\n      tag_103\n      jumpi\n      mload(0x40)\n      0x08c379a000000000000000000000000000000000000000000000000000000000\n      dup2\n      mstore\n      0x04\n      add\n      tag_104\n      swap1\n      tag_105\n      jump\t// in\n    tag_104:\n      mload(0x40)\n      dup1\n      swap2\n      sub\n      swap1\n      revert\n    tag_103:\n        /* \"contracts/Escrow.sol\":1582:1714  function _checkContractor() internal view virtual {... */\n      jump\t// out\n        /* \"@openzeppelin/contracts/access/Ownable.sol\":1359:1489  function _checkOwner() internal view virtual {... */\n    tag_56:\n        /* \"@openzeppelin/contracts/access/Ownable.sol\":1433:1445  _msgSender() */\n      tag_107\n        /* \"@openzeppelin/contracts/access/Ownable.sol\":1433:1443  _msgSender */\n      tag_108\n        /* \"@openzeppelin/contracts/access/Ownable.sol\":1433:1445  _msgSender() */\n      jump\t// in\n    tag_107:\n        /* \"@openzeppelin/contracts/access/Ownable.sol\":1422:1445  owner() == _msgSender() */\n      0xffffffffffffffffffffffffffffffffffffffff\n      and\n        /* \"@openzeppelin/contracts/access/Ownable.sol\":1422:1429  owner() */\n      tag_109\n        /* \"@openzeppelin/contracts/access/Ownable.sol\":1422:1427  owner */\n      tag_26\n        /* \"@openzeppelin/contracts/access/Ownable.sol\":1422:1429  owner() */\n      jump\t// in\n    tag_109:\n        /* \"@openzeppelin/contracts/access/Ownable.sol\":1422:1445  owner() == _msgSender() */\n      0xffffffffffffffffffffffffffffffffffffffff\n      and\n      eq\n        /* \"@openzeppelin/contracts/access/Ownable.sol\":1414:1482  require(owner() == _msgSender(), \"Ownable: caller is not the owner\") */\n      tag_110\n      jumpi\n      mload(0x40)\n      0x08c379a000000000000000000000000000000000000000000000000000000000\n      dup2\n      mstore\n      0x04\n      add\n      tag_111\n      swap1\n      tag_112\n      jump\t// in\n    tag_111:\n      mload(0x40)\n      dup1\n      swap2\n      sub\n      swap1\n      revert\n    tag_110:\n        /* \"@openzeppelin/contracts/access/Ownable.sol\":1359:1489  function _checkOwner() internal view virtual {... */\n      jump\t// out\n        /* \"@openzeppelin/contracts/access/Ownable.sol\":2433:2620  function _transferOwnership(address newOwner) internal virtual {... */\n    tag_59:\n        /* \"@openzeppelin/contracts/access/Ownable.sol\":2506:2522  address oldOwner */\n      0x00\n        /* \"@openzeppelin/contracts/access/Ownable.sol\":2525:2531  _owner */\n      dup1\n      0x00\n      swap1\n      sload\n      swap1\n      0x0100\n      exp\n      swap1\n      div\n      0xffffffffffffffffffffffffffffffffffffffff\n      and\n        /* \"@openzeppelin/contracts/access/Ownable.sol\":2506:2531  address oldOwner = _owner */\n      swap1\n      pop\n        /* \"@openzeppelin/contracts/access/Ownable.sol\":2550:2558  newOwner */\n      dup2\n        /* \"@openzeppelin/contracts/access/Ownable.sol\":2541:2547  _owner */\n      0x00\n      dup1\n        /* \"@openzeppelin/contracts/access/Ownable.sol\":2541:2558  _owner = newOwner */\n      0x0100\n      exp\n      dup2\n      sload\n      dup2\n      0xffffffffffffffffffffffffffffffffffffffff\n      mul\n      not\n      and\n      swap1\n      dup4\n      0xffffffffffffffffffffffffffffffffffffffff\n      and\n      mul\n      or\n      swap1\n      sstore\n      pop\n        /* \"@openzeppelin/contracts/access/Ownable.sol\":2604:2612  newOwner */\n      dup2\n        /* \"@openzeppelin/contracts/access/Ownable.sol\":2573:2613  OwnershipTransferred(oldOwner, newOwner) */\n      0xffffffffffffffffffffffffffffffffffffffff\n      and\n        /* \"@openzeppelin/contracts/access/Ownable.sol\":2594:2602  oldOwner */\n      dup2\n        /* \"@openzeppelin/contracts/access/Ownable.sol\":2573:2613  OwnershipTransferred(oldOwner, newOwner) */\n      0xffffffffffffffffffffffffffffffffffffffff\n      and\n      0x8be0079c531659141344cd1fd0a4f28419497f9722a3daafe3b4186f6b6457e0\n      mload(0x40)\n      mload(0x40)\n      dup1\n      swap2\n      sub\n      swap1\n      log3\n        /* \"@openzeppelin/contracts/access/Ownable.sol\":2496:2620  {... */\n      pop\n        /* \"@openzeppelin/contracts/access/Ownable.sol\":2433:2620  function _transferOwnership(address newOwner) internal virtual {... */\n      pop\n      jump\t// out\n        /* \"@openzeppelin/contracts/utils/Address.sol\":2412:2724  function sendValue(address payable recipient, uint256 amount) internal {... */\n    tag_77:\n        /* \"@openzeppelin/contracts/utils/Address.sol\":2526:2532  amount */\n      dup1\n        /* \"@openzeppelin/contracts/utils/Address.sol\":2501:2522  address(this).balance */\n      selfbalance\n        /* \"@openzeppelin/contracts/utils/Address.sol\":2501:2532  address(this).balance >= amount */\n      lt\n      iszero\n        /* \"@openzeppelin/contracts/utils/Address.sol\":2493:2566  require(address(this).balance >= amount, \"Address: insufficient balance\") */\n      tag_115\n      jumpi\n      mload(0x40)\n      0x08c379a000000000000000000000000000000000000000000000000000000000\n      dup2\n      mstore\n      0x04\n      add\n      tag_116\n      swap1\n      tag_117\n      jump\t// in\n    tag_116:\n      mload(0x40)\n      dup1\n      swap2\n      sub\n      swap1\n      revert\n    tag_115:\n        /* \"@openzeppelin/contracts/utils/Address.sol\":2578:2590  bool success */\n      0x00\n        /* \"@openzeppelin/contracts/utils/Address.sol\":2596:2605  recipient */\n      dup3\n        /* \"@openzeppelin/contracts/utils/Address.sol\":2596:2610  recipient.call */\n      0xffffffffffffffffffffffffffffffffffffffff\n      and\n        /* \"@openzeppelin/contracts/utils/Address.sol\":2618:2624  amount */\n      dup3\n        /* \"@openzeppelin/contracts/utils/Address.sol\":2596:2629  recipient.call{value: amount}(\"\") */\n      mload(0x40)\n      tag_118\n      swap1\n      tag_119\n      jump\t// in\n    tag_118:\n      0x00\n      mload(0x40)\n      dup1\n      dup4\n      sub\n      dup2\n      dup6\n      dup8\n      gas\n      call\n      swap3\n      pop\n      pop\n      pop\n      returndatasize\n      dup1\n      0x00\n      dup2\n      eq\n      tag_122\n      jumpi\n      mload(0x40)\n      swap2\n      pop\n      and(add(returndatasize, 0x3f), not(0x1f))\n      dup3\n      add\n      0x40\n      mstore\n      returndatasize\n      dup3\n      mstore\n      returndatasize\n      0x00\n      0x20\n      dup5\n      add\n      returndatacopy\n      jump(tag_121)\n    tag_122:\n      0x60\n      swap2\n      pop\n    tag_121:\n      pop\n        /* \"@openzeppelin/contracts/utils/Address.sol\":2577:2629  (bool success, ) = recipient.call{value: amount}(\"\") */\n      pop\n      swap1\n      pop\n        /* \"@openzeppelin/contracts/utils/Address.sol\":2647:2654  success */\n      dup1\n        /* \"@openzeppelin/contracts/utils/Address.sol\":2639:2717  require(success, \"Address: unable to send value, recipient may have reverted\") */\n      tag_123\n      jumpi\n      mload(0x40)\n      0x08c379a000000000000000000000000000000000000000000000000000000000\n      dup2\n      mstore\n      0x04\n      add\n      tag_124\n      swap1\n      tag_125\n      jump\t// in\n    tag_124:\n      mload(0x40)\n      dup1\n      swap2\n      sub\n      swap1\n      revert\n    tag_123:\n        /* \"@openzeppelin/contracts/utils/Address.sol\":2483:2724  {... */\n      pop\n        /* \"@openzeppelin/contracts/utils/Address.sol\":2412:2724  function sendValue(address payable recipient, uint256 amount) internal {... */\n      pop\n      pop\n      jump\t// out\n        /* \"@openzeppelin/contracts/utils/Context.sol\":640:736  function _msgSender() internal view virtual returns (address) {... */\n    tag_108:\n        /* \"@openzeppelin/contracts/utils/Context.sol\":693:700  address */\n      0x00\n        /* \"@openzeppelin/contracts/utils/Context.sol\":719:729  msg.sender */\n      caller\n        /* \"@openzeppelin/contracts/utils/Context.sol\":712:729  return msg.sender */\n      swap1\n      pop\n        /* \"@openzeppelin/contracts/utils/Context.sol\":640:736  function _msgSender() internal view virtual returns (address) {... */\n      swap1\n      jump\t// out\n        /* \"#utility.yul\":7:146   */\n    tag_128:\n        /* \"#utility.yul\":53:58   */\n      0x00\n        /* \"#utility.yul\":91:97   */\n      dup2\n        /* \"#utility.yul\":78:98   */\n      calldataload\n        /* \"#utility.yul\":69:98   */\n      swap1\n      pop\n        /* \"#utility.yul\":107:140   */\n      tag_130\n        /* \"#utility.yul\":134:139   */\n      dup2\n        /* \"#utility.yul\":107:140   */\n      tag_131\n      jump\t// in\n    tag_130:\n        /* \"#utility.yul\":7:146   */\n      swap3\n      swap2\n      pop\n      pop\n      jump\t// out\n        /* \"#utility.yul\":152:307   */\n    tag_132:\n        /* \"#utility.yul\":206:211   */\n      0x00\n        /* \"#utility.yul\":244:250   */\n      dup2\n        /* \"#utility.yul\":231:251   */\n      calldataload\n        /* \"#utility.yul\":222:251   */\n      swap1\n      pop\n        /* \"#utility.yul\":260:301   */\n      tag_134\n        /* \"#utility.yul\":295:300   */\n      dup2\n        /* \"#utility.yul\":260:301   */\n      tag_135\n      jump\t// in\n    tag_134:\n        /* \"#utility.yul\":152:307   */\n      swap3\n      swap2\n      pop\n      pop\n      jump\t// out\n        /* \"#utility.yul\":313:446   */\n    tag_136:\n        /* \"#utility.yul\":356:361   */\n      0x00\n        /* \"#utility.yul\":394:400   */\n      dup2\n        /* \"#utility.yul\":381:401   */\n      calldataload\n        /* \"#utility.yul\":372:401   */\n      swap1\n      pop\n        /* \"#utility.yul\":410:440   */\n      tag_138\n        /* \"#utility.yul\":434:439   */\n      dup2\n        /* \"#utility.yul\":410:440   */\n      tag_139\n      jump\t// in\n    tag_138:\n        /* \"#utility.yul\":313:446   */\n      swap3\n      swap2\n      pop\n      pop\n      jump\t// out\n        /* \"#utility.yul\":452:781   */\n    tag_39:\n        /* \"#utility.yul\":511:517   */\n      0x00\n        /* \"#utility.yul\":560:562   */\n      0x20\n        /* \"#utility.yul\":548:557   */\n      dup3\n        /* \"#utility.yul\":539:546   */\n      dup5\n        /* \"#utility.yul\":535:558   */\n      sub\n        /* \"#utility.yul\":531:563   */\n      slt\n        /* \"#utility.yul\":528:647   */\n      iszero\n      tag_141\n      jumpi\n        /* \"#utility.yul\":566:645   */\n      tag_142\n      tag_143\n      jump\t// in\n    tag_142:\n        /* \"#utility.yul\":528:647   */\n    tag_141:\n        /* \"#utility.yul\":686:687   */\n      0x00\n        /* \"#utility.yul\":711:764   */\n      tag_144\n        /* \"#utility.yul\":756:763   */\n      dup5\n        /* \"#utility.yul\":747:753   */\n      dup3\n        /* \"#utility.yul\":736:745   */\n      dup6\n        /* \"#utility.yul\":732:754   */\n      add\n        /* \"#utility.yul\":711:764   */\n      tag_128\n      jump\t// in\n    tag_144:\n        /* \"#utility.yul\":701:764   */\n      swap2\n      pop\n        /* \"#utility.yul\":657:774   */\n      pop\n        /* \"#utility.yul\":452:781   */\n      swap3\n      swap2\n      pop\n      pop\n      jump\t// out\n        /* \"#utility.yul\":787:1293   */\n    tag_43:\n        /* \"#utility.yul\":871:877   */\n      0x00\n        /* \"#utility.yul\":879:885   */\n      dup1\n        /* \"#utility.yul\":928:930   */\n      0x40\n        /* \"#utility.yul\":916:925   */\n      dup4\n        /* \"#utility.yul\":907:914   */\n      dup6\n        /* \"#utility.yul\":903:926   */\n      sub\n        /* \"#utility.yul\":899:931   */\n      slt\n        /* \"#utility.yul\":896:1015   */\n      iszero\n      tag_146\n      jumpi\n        /* \"#utility.yul\":934:1013   */\n      tag_147\n      tag_143\n      jump\t// in\n    tag_147:\n        /* \"#utility.yul\":896:1015   */\n    tag_146:\n        /* \"#utility.yul\":1054:1055   */\n      0x00\n        /* \"#utility.yul\":1079:1140   */\n      tag_148\n        /* \"#utility.yul\":1132:1139   */\n      dup6\n        /* \"#utility.yul\":1123:1129   */\n      dup3\n        /* \"#utility.yul\":1112:1121   */\n      dup7\n        /* \"#utility.yul\":1108:1130   */\n      add\n        /* \"#utility.yul\":1079:1140   */\n      tag_132\n      jump\t// in\n    tag_148:\n        /* \"#utility.yul\":1069:1140   */\n      swap3\n      pop\n        /* \"#utility.yul\":1025:1150   */\n      pop\n        /* \"#utility.yul\":1189:1191   */\n      0x20\n        /* \"#utility.yul\":1215:1276   */\n      tag_149\n        /* \"#utility.yul\":1268:1275   */\n      dup6\n        /* \"#utility.yul\":1259:1265   */\n      dup3\n        /* \"#utility.yul\":1248:1257   */\n      dup7\n        /* \"#utility.yul\":1244:1266   */\n      add\n        /* \"#utility.yul\":1215:1276   */\n      tag_132\n      jump\t// in\n    tag_149:\n        /* \"#utility.yul\":1205:1276   */\n      swap2\n      pop\n        /* \"#utility.yul\":1160:1286   */\n      pop\n        /* \"#utility.yul\":787:1293   */\n      swap3\n      pop\n      swap3\n      swap1\n      pop\n      jump\t// out\n        /* \"#utility.yul\":1299:1622   */\n    tag_19:\n        /* \"#utility.yul\":1355:1361   */\n      0x00\n        /* \"#utility.yul\":1404:1406   */\n      0x20\n        /* \"#utility.yul\":1392:1401   */\n      dup3\n        /* \"#utility.yul\":1383:1390   */\n      dup5\n        /* \"#utility.yul\":1379:1402   */\n      sub\n        /* \"#utility.yul\":1375:1407   */\n      slt\n        /* \"#utility.yul\":1372:1491   */\n      iszero\n      tag_151\n      jumpi\n        /* \"#utility.yul\":1410:1489   */\n      tag_152\n      tag_143\n      jump\t// in\n    tag_152:\n        /* \"#utility.yul\":1372:1491   */\n    tag_151:\n        /* \"#utility.yul\":1530:1531   */\n      0x00\n        /* \"#utility.yul\":1555:1605   */\n      tag_153\n        /* \"#utility.yul\":1597:1604   */\n      dup5\n        /* \"#utility.yul\":1588:1594   */\n      dup3\n        /* \"#utility.yul\":1577:1586   */\n      dup6\n        /* \"#utility.yul\":1573:1595   */\n      add\n        /* \"#utility.yul\":1555:1605   */\n      tag_136\n      jump\t// in\n    tag_153:\n        /* \"#utility.yul\":1545:1605   */\n      swap2\n      pop\n        /* \"#utility.yul\":1501:1615   */\n      pop\n        /* \"#utility.yul\":1299:1622   */\n      swap3\n      swap2\n      pop\n      pop\n      jump\t// out\n        /* \"#utility.yul\":1628:2090   */\n    tag_14:\n        /* \"#utility.yul\":1690:1696   */\n      0x00\n        /* \"#utility.yul\":1698:1704   */\n      dup1\n        /* \"#utility.yul\":1747:1749   */\n      0x40\n        /* \"#utility.yul\":1735:1744   */\n      dup4\n        /* \"#utility.yul\":1726:1733   */\n      dup6\n        /* \"#utility.yul\":1722:1745   */\n      sub\n        /* \"#utility.yul\":1718:1750   */\n      slt\n        /* \"#utility.yul\":1715:1834   */\n      iszero\n      tag_155\n      jumpi\n        /* \"#utility.yul\":1753:1832   */\n      tag_156\n      tag_143\n      jump\t// in\n    tag_156:\n        /* \"#utility.yul\":1715:1834   */\n    tag_155:\n        /* \"#utility.yul\":1873:1874   */\n      0x00\n        /* \"#utility.yul\":1898:1948   */\n      tag_157\n        /* \"#utility.yul\":1940:1947   */\n      dup6\n        /* \"#utility.yul\":1931:1937   */\n      dup3\n        /* \"#utility.yul\":1920:1929   */\n      dup7\n        /* \"#utility.yul\":1916:1938   */\n      add\n        /* \"#utility.yul\":1898:1948   */\n      tag_136\n      jump\t// in\n    tag_157:\n        /* \"#utility.yul\":1888:1948   */\n      swap3\n      pop\n        /* \"#utility.yul\":1844:1958   */\n      pop\n        /* \"#utility.yul\":1997:1999   */\n      0x20\n        /* \"#utility.yul\":2023:2073   */\n      tag_158\n        /* \"#utility.yul\":2065:2072   */\n      dup6\n        /* \"#utility.yul\":2056:2062   */\n      dup3\n        /* \"#utility.yul\":2045:2054   */\n      dup7\n        /* \"#utility.yul\":2041:2063   */\n      add\n        /* \"#utility.yul\":2023:2073   */\n      tag_136\n      jump\t// in\n    tag_158:\n        /* \"#utility.yul\":2013:2073   */\n      swap2\n      pop\n        /* \"#utility.yul\":1968:2083   */\n      pop\n        /* \"#utility.yul\":1628:2090   */\n      swap3\n      pop\n      swap3\n      swap1\n      pop\n      jump\t// out\n        /* \"#utility.yul\":2096:2214   */\n    tag_159:\n        /* \"#utility.yul\":2183:2207   */\n      tag_161\n        /* \"#utility.yul\":2201:2206   */\n      dup2\n        /* \"#utility.yul\":2183:2207   */\n      tag_162\n      jump\t// in\n    tag_161:\n        /* \"#utility.yul\":2178:2181   */\n      dup3\n        /* \"#utility.yul\":2171:2208   */\n      mstore\n        /* \"#utility.yul\":2096:2214   */\n      pop\n      pop\n      jump\t// out\n        /* \"#utility.yul\":2220:2586   */\n    tag_163:\n        /* \"#utility.yul\":2362:2365   */\n      0x00\n        /* \"#utility.yul\":2383:2450   */\n      tag_165\n        /* \"#utility.yul\":2447:2449   */\n      0x26\n        /* \"#utility.yul\":2442:2445   */\n      dup4\n        /* \"#utility.yul\":2383:2450   */\n      tag_166\n      jump\t// in\n    tag_165:\n        /* \"#utility.yul\":2376:2450   */\n      swap2\n      pop\n        /* \"#utility.yul\":2459:2552   */\n      tag_167\n        /* \"#utility.yul\":2548:2551   */\n      dup3\n        /* \"#utility.yul\":2459:2552   */\n      tag_168\n      jump\t// in\n    tag_167:\n        /* \"#utility.yul\":2577:2579   */\n      0x40\n        /* \"#utility.yul\":2572:2575   */\n      dup3\n        /* \"#utility.yul\":2568:2580   */\n      add\n        /* \"#utility.yul\":2561:2580   */\n      swap1\n      pop\n        /* \"#utility.yul\":2220:2586   */\n      swap2\n      swap1\n      pop\n      jump\t// out\n        /* \"#utility.yul\":2592:2958   */\n    tag_169:\n        /* \"#utility.yul\":2734:2737   */\n      0x00\n        /* \"#utility.yul\":2755:2822   */\n      tag_171\n        /* \"#utility.yul\":2819:2821   */\n      0x3a\n        /* \"#utility.yul\":2814:2817   */\n      dup4\n        /* \"#utility.yul\":2755:2822   */\n      tag_166\n      jump\t// in\n    tag_171:\n        /* \"#utility.yul\":2748:2822   */\n      swap2\n      pop\n        /* \"#utility.yul\":2831:2924   */\n      tag_172\n        /* \"#utility.yul\":2920:2923   */\n      dup3\n        /* \"#utility.yul\":2831:2924   */\n      tag_173\n      jump\t// in\n    tag_172:\n        /* \"#utility.yul\":2949:2951   */\n      0x40\n        /* \"#utility.yul\":2944:2947   */\n      dup3\n        /* \"#utility.yul\":2940:2952   */\n      add\n        /* \"#utility.yul\":2933:2952   */\n      swap1\n      pop\n        /* \"#utility.yul\":2592:2958   */\n      swap2\n      swap1\n      pop\n      jump\t// out\n        /* \"#utility.yul\":2964:3330   */\n    tag_174:\n        /* \"#utility.yul\":3106:3109   */\n      0x00\n        /* \"#utility.yul\":3127:3194   */\n      tag_176\n        /* \"#utility.yul\":3191:3193   */\n      0x1d\n        /* \"#utility.yul\":3186:3189   */\n      dup4\n        /* \"#utility.yul\":3127:3194   */\n      tag_166\n      jump\t// in\n    tag_176:\n        /* \"#utility.yul\":3120:3194   */\n      swap2\n      pop\n        /* \"#utility.yul\":3203:3296   */\n      tag_177\n        /* \"#utility.yul\":3292:3295   */\n      dup3\n        /* \"#utility.yul\":3203:3296   */\n      tag_178\n      jump\t// in\n    tag_177:\n        /* \"#utility.yul\":3321:3323   */\n      0x20\n        /* \"#utility.yul\":3316:3319   */\n      dup3\n        /* \"#utility.yul\":3312:3324   */\n      add\n        /* \"#utility.yul\":3305:3324   */\n      swap1\n      pop\n        /* \"#utility.yul\":2964:3330   */\n      swap2\n      swap1\n      pop\n      jump\t// out\n        /* \"#utility.yul\":3336:3702   */\n    tag_179:\n        /* \"#utility.yul\":3478:3481   */\n      0x00\n        /* \"#utility.yul\":3499:3566   */\n      tag_181\n        /* \"#utility.yul\":3563:3565   */\n      0x1c\n        /* \"#utility.yul\":3558:3561   */\n      dup4\n        /* \"#utility.yul\":3499:3566   */\n      tag_166\n      jump\t// in\n    tag_181:\n        /* \"#utility.yul\":3492:3566   */\n      swap2\n      pop\n        /* \"#utility.yul\":3575:3668   */\n      tag_182\n        /* \"#utility.yul\":3664:3667   */\n      dup3\n        /* \"#utility.yul\":3575:3668   */\n      tag_183\n      jump\t// in\n    tag_182:\n        /* \"#utility.yul\":3693:3695   */\n      0x20\n        /* \"#utility.yul\":3688:3691   */\n      dup3\n        /* \"#utility.yul\":3684:3696   */\n      add\n        /* \"#utility.yul\":3677:3696   */\n      swap1\n      pop\n        /* \"#utility.yul\":3336:3702   */\n      swap2\n      swap1\n      pop\n      jump\t// out\n        /* \"#utility.yul\":3708:4074   */\n    tag_184:\n        /* \"#utility.yul\":3850:3853   */\n      0x00\n        /* \"#utility.yul\":3871:3938   */\n      tag_186\n        /* \"#utility.yul\":3935:3937   */\n      0x20\n        /* \"#utility.yul\":3930:3933   */\n      dup4\n        /* \"#utility.yul\":3871:3938   */\n      tag_166\n      jump\t// in\n    tag_186:\n        /* \"#utility.yul\":3864:3938   */\n      swap2\n      pop\n        /* \"#utility.yul\":3947:4040   */\n      tag_187\n        /* \"#utility.yul\":4036:4039   */\n      dup3\n        /* \"#utility.yul\":3947:4040   */\n      tag_188\n      jump\t// in\n    tag_187:\n        /* \"#utility.yul\":4065:4067   */\n      0x20\n        /* \"#utility.yul\":4060:4063   */\n      dup3\n        /* \"#utility.yul\":4056:4068   */\n      add\n        /* \"#utility.yul\":4049:4068   */\n      swap1\n      pop\n        /* \"#utility.yul\":3708:4074   */\n      swap2\n      swap1\n      pop\n      jump\t// out\n        /* \"#utility.yul\":4080:4478   */\n    tag_189:\n        /* \"#utility.yul\":4239:4242   */\n      0x00\n        /* \"#utility.yul\":4260:4343   */\n      tag_191\n        /* \"#utility.yul\":4341:4342   */\n      0x00\n        /* \"#utility.yul\":4336:4339   */\n      dup4\n        /* \"#utility.yul\":4260:4343   */\n      tag_192\n      jump\t// in\n    tag_191:\n        /* \"#utility.yul\":4253:4343   */\n      swap2\n      pop\n        /* \"#utility.yul\":4352:4445   */\n      tag_193\n        /* \"#utility.yul\":4441:4444   */\n      dup3\n        /* \"#utility.yul\":4352:4445   */\n      tag_194\n      jump\t// in\n    tag_193:\n        /* \"#utility.yul\":4470:4471   */\n      0x00\n        /* \"#utility.yul\":4465:4468   */\n      dup3\n        /* \"#utility.yul\":4461:4472   */\n      add\n        /* \"#utility.yul\":4454:4472   */\n      swap1\n      pop\n        /* \"#utility.yul\":4080:4478   */\n      swap2\n      swap1\n      pop\n      jump\t// out\n        /* \"#utility.yul\":4484:4850   */\n    tag_195:\n        /* \"#utility.yul\":4626:4629   */\n      0x00\n        /* \"#utility.yul\":4647:4714   */\n      tag_197\n        /* \"#utility.yul\":4711:4713   */\n      0x17\n        /* \"#utility.yul\":4706:4709   */\n      dup4\n        /* \"#utility.yul\":4647:4714   */\n      tag_166\n      jump\t// in\n    tag_197:\n        /* \"#utility.yul\":4640:4714   */\n      swap2\n      pop\n        /* \"#utility.yul\":4723:4816   */\n      tag_198\n        /* \"#utility.yul\":4812:4815   */\n      dup3\n        /* \"#utility.yul\":4723:4816   */\n      tag_199\n      jump\t// in\n    tag_198:\n        /* \"#utility.yul\":4841:4843   */\n      0x20\n        /* \"#utility.yul\":4836:4839   */\n      dup3\n        /* \"#utility.yul\":4832:4844   */\n      add\n        /* \"#utility.yul\":4825:4844   */\n      swap1\n      pop\n        /* \"#utility.yul\":4484:4850   */\n      swap2\n      swap1\n      pop\n      jump\t// out\n        /* \"#utility.yul\":4856:4974   */\n    tag_200:\n        /* \"#utility.yul\":4943:4967   */\n      tag_202\n        /* \"#utility.yul\":4961:4966   */\n      dup2\n        /* \"#utility.yul\":4943:4967   */\n      tag_203\n      jump\t// in\n    tag_202:\n        /* \"#utility.yul\":4938:4941   */\n      dup3\n        /* \"#utility.yul\":4931:4968   */\n      mstore\n        /* \"#utility.yul\":4856:4974   */\n      pop\n      pop\n      jump\t// out\n        /* \"#utility.yul\":4980:5359   */\n    tag_119:\n        /* \"#utility.yul\":5164:5167   */\n      0x00\n        /* \"#utility.yul\":5186:5333   */\n      tag_205\n        /* \"#utility.yul\":5329:5332   */\n      dup3\n        /* \"#utility.yul\":5186:5333   */\n      tag_189\n      jump\t// in\n    tag_205:\n        /* \"#utility.yul\":5179:5333   */\n      swap2\n      pop\n        /* \"#utility.yul\":5350:5353   */\n      dup2\n        /* \"#utility.yul\":5343:5353   */\n      swap1\n      pop\n        /* \"#utility.yul\":4980:5359   */\n      swap2\n      swap1\n      pop\n      jump\t// out\n        /* \"#utility.yul\":5365:5587   */\n    tag_28:\n        /* \"#utility.yul\":5458:5462   */\n      0x00\n        /* \"#utility.yul\":5496:5498   */\n      0x20\n        /* \"#utility.yul\":5485:5494   */\n      dup3\n        /* \"#utility.yul\":5481:5499   */\n      add\n        /* \"#utility.yul\":5473:5499   */\n      swap1\n      pop\n        /* \"#utility.yul\":5509:5580   */\n      tag_207\n        /* \"#utility.yul\":5577:5578   */\n      0x00\n        /* \"#utility.yul\":5566:5575   */\n      dup4\n        /* \"#utility.yul\":5562:5579   */\n      add\n        /* \"#utility.yul\":5553:5559   */\n      dup5\n        /* \"#utility.yul\":5509:5580   */\n      tag_159\n      jump\t// in\n    tag_207:\n        /* \"#utility.yul\":5365:5587   */\n      swap3\n      swap2\n      pop\n      pop\n      jump\t// out\n        /* \"#utility.yul\":5593:6012   */\n    tag_89:\n        /* \"#utility.yul\":5759:5763   */\n      0x00\n        /* \"#utility.yul\":5797:5799   */\n      0x20\n        /* \"#utility.yul\":5786:5795   */\n      dup3\n        /* \"#utility.yul\":5782:5800   */\n      add\n        /* \"#utility.yul\":5774:5800   */\n      swap1\n      pop\n        /* \"#utility.yul\":5846:5855   */\n      dup2\n        /* \"#utility.yul\":5840:5844   */\n      dup2\n        /* \"#utility.yul\":5836:5856   */\n      sub\n        /* \"#utility.yul\":5832:5833   */\n      0x00\n        /* \"#utility.yul\":5821:5830   */\n      dup4\n        /* \"#utility.yul\":5817:5834   */\n      add\n        /* \"#utility.yul\":5810:5857   */\n      mstore\n        /* \"#utility.yul\":5874:6005   */\n      tag_209\n        /* \"#utility.yul\":6000:6004   */\n      dup2\n        /* \"#utility.yul\":5874:6005   */\n      tag_163\n      jump\t// in\n    tag_209:\n        /* \"#utility.yul\":5866:6005   */\n      swap1\n      pop\n        /* \"#utility.yul\":5593:6012   */\n      swap2\n      swap1\n      pop\n      jump\t// out\n        /* \"#utility.yul\":6018:6437   */\n    tag_125:\n        /* \"#utility.yul\":6184:6188   */\n      0x00\n        /* \"#utility.yul\":6222:6224   */\n      0x20\n        /* \"#utility.yul\":6211:6220   */\n      dup3\n        /* \"#utility.yul\":6207:6225   */\n      add\n        /* \"#utility.yul\":6199:6225   */\n      swap1\n      pop\n        /* \"#utility.yul\":6271:6280   */\n      dup2\n        /* \"#utility.yul\":6265:6269   */\n      dup2\n        /* \"#utility.yul\":6261:6281   */\n      sub\n        /* \"#utility.yul\":6257:6258   */\n      0x00\n        /* \"#utility.yul\":6246:6255   */\n      dup4\n        /* \"#utility.yul\":6242:6259   */\n      add\n        /* \"#utility.yul\":6235:6282   */\n      mstore\n        /* \"#utility.yul\":6299:6430   */\n      tag_211\n        /* \"#utility.yul\":6425:6429   */\n      dup2\n        /* \"#utility.yul\":6299:6430   */\n      tag_169\n      jump\t// in\n    tag_211:\n        /* \"#utility.yul\":6291:6430   */\n      swap1\n      pop\n        /* \"#utility.yul\":6018:6437   */\n      swap2\n      swap1\n      pop\n      jump\t// out\n        /* \"#utility.yul\":6443:6862   */\n    tag_117:\n        /* \"#utility.yul\":6609:6613   */\n      0x00\n        /* \"#utility.yul\":6647:6649   */\n      0x20\n        /* \"#utility.yul\":6636:6645   */\n      dup3\n        /* \"#utility.yul\":6632:6650   */\n      add\n        /* \"#utility.yul\":6624:6650   */\n      swap1\n      pop\n        /* \"#utility.yul\":6696:6705   */\n      dup2\n        /* \"#utility.yul\":6690:6694   */\n      dup2\n        /* \"#utility.yul\":6686:6706   */\n      sub\n        /* \"#utility.yul\":6682:6683   */\n      0x00\n        /* \"#utility.yul\":6671:6680   */\n      dup4\n        /* \"#utility.yul\":6667:6684   */\n      add\n        /* \"#utility.yul\":6660:6707   */\n      mstore\n        /* \"#utility.yul\":6724:6855   */\n      tag_213\n        /* \"#utility.yul\":6850:6854   */\n      dup2\n        /* \"#utility.yul\":6724:6855   */\n      tag_174\n      jump\t// in\n    tag_213:\n        /* \"#utility.yul\":6716:6855   */\n      swap1\n      pop\n        /* \"#utility.yul\":6443:6862   */\n      swap2\n      swap1\n      pop\n      jump\t// out\n        /* \"#utility.yul\":6868:7287   */\n    tag_105:\n        /* \"#utility.yul\":7034:7038   */\n      0x00\n        /* \"#utility.yul\":7072:7074   */\n      0x20\n        /* \"#utility.yul\":7061:7070   */\n      dup3\n        /* \"#utility.yul\":7057:7075   */\n      add\n        /* \"#utility.yul\":7049:7075   */\n      swap1\n      pop\n        /* \"#utility.yul\":7121:7130   */\n      dup2\n        /* \"#utility.yul\":7115:7119   */\n      dup2\n        /* \"#utility.yul\":7111:7131   */\n      sub\n        /* \"#utility.yul\":7107:7108   */\n      0x00\n        /* \"#utility.yul\":7096:7105   */\n      dup4\n        /* \"#utility.yul\":7092:7109   */\n      add\n        /* \"#utility.yul\":7085:7132   */\n      mstore\n        /* \"#utility.yul\":7149:7280   */\n      tag_215\n        /* \"#utility.yul\":7275:7279   */\n      dup2\n        /* \"#utility.yul\":7149:7280   */\n      tag_179\n      jump\t// in\n    tag_215:\n        /* \"#utility.yul\":7141:7280   */\n      swap1\n      pop\n        /* \"#utility.yul\":6868:7287   */\n      swap2\n      swap1\n      pop\n      jump\t// out\n        /* \"#utility.yul\":7293:7712   */\n    tag_112:\n        /* \"#utility.yul\":7459:7463   */\n      0x00\n        /* \"#utility.yul\":7497:7499   */\n      0x20\n        /* \"#utility.yul\":7486:7495   */\n      dup3\n        /* \"#utility.yul\":7482:7500   */\n      add\n        /* \"#utility.yul\":7474:7500   */\n      swap1\n      pop\n        /* \"#utility.yul\":7546:7555   */\n      dup2\n        /* \"#utility.yul\":7540:7544   */\n      dup2\n        /* \"#utility.yul\":7536:7556   */\n      sub\n        /* \"#utility.yul\":7532:7533   */\n      0x00\n        /* \"#utility.yul\":7521:7530   */\n      dup4\n        /* \"#utility.yul\":7517:7534   */\n      add\n        /* \"#utility.yul\":7510:7557   */\n      mstore\n        /* \"#utility.yul\":7574:7705   */\n      tag_217\n        /* \"#utility.yul\":7700:7704   */\n      dup2\n        /* \"#utility.yul\":7574:7705   */\n      tag_184\n      jump\t// in\n    tag_217:\n        /* \"#utility.yul\":7566:7705   */\n      swap1\n      pop\n        /* \"#utility.yul\":7293:7712   */\n      swap2\n      swap1\n      pop\n      jump\t// out\n        /* \"#utility.yul\":7718:8137   */\n    tag_101:\n        /* \"#utility.yul\":7884:7888   */\n      0x00\n        /* \"#utility.yul\":7922:7924   */\n      0x20\n        /* \"#utility.yul\":7911:7920   */\n      dup3\n        /* \"#utility.yul\":7907:7925   */\n      add\n        /* \"#utility.yul\":7899:7925   */\n      swap1\n      pop\n        /* \"#utility.yul\":7971:7980   */\n      dup2\n        /* \"#utility.yul\":7965:7969   */\n      dup2\n        /* \"#utility.yul\":7961:7981   */\n      sub\n        /* \"#utility.yul\":7957:7958   */\n      0x00\n        /* \"#utility.yul\":7946:7955   */\n      dup4\n        /* \"#utility.yul\":7942:7959   */\n      add\n        /* \"#utility.yul\":7935:7982   */\n      mstore\n        /* \"#utility.yul\":7999:8130   */\n      tag_219\n        /* \"#utility.yul\":8125:8129   */\n      dup2\n        /* \"#utility.yul\":7999:8130   */\n      tag_195\n      jump\t// in\n    tag_219:\n        /* \"#utility.yul\":7991:8130   */\n      swap1\n      pop\n        /* \"#utility.yul\":7718:8137   */\n      swap2\n      swap1\n      pop\n      jump\t// out\n        /* \"#utility.yul\":8143:8365   */\n    tag_97:\n        /* \"#utility.yul\":8236:8240   */\n      0x00\n        /* \"#utility.yul\":8274:8276   */\n      0x20\n        /* \"#utility.yul\":8263:8272   */\n      dup3\n        /* \"#utility.yul\":8259:8277   */\n      add\n        /* \"#utility.yul\":8251:8277   */\n      swap1\n      pop\n        /* \"#utility.yul\":8287:8358   */\n      tag_221\n        /* \"#utility.yul\":8355:8356   */\n      0x00\n        /* \"#utility.yul\":8344:8353   */\n      dup4\n        /* \"#utility.yul\":8340:8357   */\n      add\n        /* \"#utility.yul\":8331:8337   */\n      dup5\n        /* \"#utility.yul\":8287:8358   */\n      tag_200\n      jump\t// in\n    tag_221:\n        /* \"#utility.yul\":8143:8365   */\n      swap3\n      swap2\n      pop\n      pop\n      jump\t// out\n        /* \"#utility.yul\":8452:8599   */\n    tag_192:\n        /* \"#utility.yul\":8553:8564   */\n      0x00\n        /* \"#utility.yul\":8590:8593   */\n      dup2\n        /* \"#utility.yul\":8575:8593   */\n      swap1\n      pop\n        /* \"#utility.yul\":8452:8599   */\n      swap3\n      swap2\n      pop\n      pop\n      jump\t// out\n        /* \"#utility.yul\":8605:8774   */\n    tag_166:\n        /* \"#utility.yul\":8689:8700   */\n      0x00\n        /* \"#utility.yul\":8723:8729   */\n      dup3\n        /* \"#utility.yul\":8718:8721   */\n      dup3\n        /* \"#utility.yul\":8711:8730   */\n      mstore\n        /* \"#utility.yul\":8763:8767   */\n      0x20\n        /* \"#utility.yul\":8758:8761   */\n      dup3\n        /* \"#utility.yul\":8754:8768   */\n      add\n        /* \"#utility.yul\":8739:8768   */\n      swap1\n      pop\n        /* \"#utility.yul\":8605:8774   */\n      swap3\n      swap2\n      pop\n      pop\n      jump\t// out\n        /* \"#utility.yul\":8780:9085   */\n    tag_95:\n        /* \"#utility.yul\":8820:8823   */\n      0x00\n        /* \"#utility.yul\":8839:8859   */\n      tag_227\n        /* \"#utility.yul\":8857:8858   */\n      dup3\n        /* \"#utility.yul\":8839:8859   */\n      tag_203\n      jump\t// in\n    tag_227:\n        /* \"#utility.yul\":8834:8859   */\n      swap2\n      pop\n        /* \"#utility.yul\":8873:8893   */\n      tag_228\n        /* \"#utility.yul\":8891:8892   */\n      dup4\n        /* \"#utility.yul\":8873:8893   */\n      tag_203\n      jump\t// in\n    tag_228:\n        /* \"#utility.yul\":8868:8893   */\n      swap3\n      pop\n        /* \"#utility.yul\":9027:9028   */\n      dup3\n        /* \"#utility.yul\":8959:9025   */\n      0xffffffffffffffffffffffffffffffffffffffffffffffffffffffffffffffff\n        /* \"#utility.yul\":8955:9029   */\n      sub\n        /* \"#utility.yul\":8952:8953   */\n      dup3\n        /* \"#utility.yul\":8949:9030   */\n      gt\n        /* \"#utility.yul\":8946:9053   */\n      iszero\n      tag_229\n      jumpi\n        /* \"#utility.yul\":9033:9051   */\n      tag_230\n      tag_231\n      jump\t// in\n    tag_230:\n        /* \"#utility.yul\":8946:9053   */\n    tag_229:\n        /* \"#utility.yul\":9077:9078   */\n      dup3\n        /* \"#utility.yul\":9074:9075   */\n      dup3\n        /* \"#utility.yul\":9070:9079   */\n      add\n        /* \"#utility.yul\":9063:9079   */\n      swap1\n      pop\n        /* \"#utility.yul\":8780:9085   */\n      swap3\n      swap2\n      pop\n      pop\n      jump\t// out\n        /* \"#utility.yul\":9091:9276   */\n    tag_69:\n        /* \"#utility.yul\":9131:9132   */\n      0x00\n        /* \"#utility.yul\":9148:9168   */\n      tag_233\n        /* \"#utility.yul\":9166:9167   */\n      dup3\n        /* \"#utility.yul\":9148:9168   */\n      tag_203\n      jump\t// in\n    tag_233:\n        /* \"#utility.yul\":9143:9168   */\n      swap2\n      pop\n        /* \"#utility.yul\":9182:9202   */\n      tag_234\n        /* \"#utility.yul\":9200:9201   */\n      dup4\n        /* \"#utility.yul\":9182:9202   */\n      tag_203\n      jump\t// in\n    tag_234:\n        /* \"#utility.yul\":9177:9202   */\n      swap3\n      pop\n        /* \"#utility.yul\":9221:9222   */\n      dup3\n        /* \"#utility.yul\":9211:9246   */\n      tag_235\n      jumpi\n        /* \"#utility.yul\":9226:9244   */\n      tag_236\n      tag_237\n      jump\t// in\n    tag_236:\n        /* \"#utility.yul\":9211:9246   */\n    tag_235:\n        /* \"#utility.yul\":9268:9269   */\n      dup3\n        /* \"#utility.yul\":9265:9266   */\n      dup3\n        /* \"#utility.yul\":9261:9270   */\n      div\n        /* \"#utility.yul\":9256:9270   */\n      swap1\n      pop\n        /* \"#utility.yul\":9091:9276   */\n      swap3\n      swap2\n      pop\n      pop\n      jump\t// out\n        /* \"#utility.yul\":9282:9630   */\n    tag_67:\n        /* \"#utility.yul\":9322:9329   */\n      0x00\n        /* \"#utility.yul\":9345:9365   */\n      tag_239\n        /* \"#utility.yul\":9363:9364   */\n      dup3\n        /* \"#utility.yul\":9345:9365   */\n      tag_203\n      jump\t// in\n    tag_239:\n        /* \"#utility.yul\":9340:9365   */\n      swap2\n      pop\n        /* \"#utility.yul\":9379:9399   */\n      tag_240\n        /* \"#utility.yul\":9397:9398   */\n      dup4\n        /* \"#utility.yul\":9379:9399   */\n      tag_203\n      jump\t// in\n    tag_240:\n        /* \"#utility.yul\":9374:9399   */\n      swap3\n      pop\n        /* \"#utility.yul\":9567:9568   */\n      dup2\n        /* \"#utility.yul\":9499:9565   */\n      0xffffffffffffffffffffffffffffffffffffffffffffffffffffffffffffffff\n        /* \"#utility.yul\":9495:9569   */\n      div\n        /* \"#utility.yul\":9492:9493   */\n      dup4\n        /* \"#utility.yul\":9489:9570   */\n      gt\n        /* \"#utility.yul\":9484:9485   */\n      dup3\n        /* \"#utility.yul\":9477:9486   */\n      iszero\n        /* \"#utility.yul\":9470:9487   */\n      iszero\n        /* \"#utility.yul\":9466:9571   */\n      and\n        /* \"#utility.yul\":9463:9594   */\n      iszero\n      tag_241\n      jumpi\n        /* \"#utility.yul\":9574:9592   */\n      tag_242\n      tag_231\n      jump\t// in\n    tag_242:\n        /* \"#utility.yul\":9463:9594   */\n    tag_241:\n        /* \"#utility.yul\":9622:9623   */\n      dup3\n        /* \"#utility.yul\":9619:9620   */\n      dup3\n        /* \"#utility.yul\":9615:9624   */\n      mul\n        /* \"#utility.yul\":9604:9624   */\n      swap1\n      pop\n        /* \"#utility.yul\":9282:9630   */\n      swap3\n      swap2\n      pop\n      pop\n      jump\t// out\n        /* \"#utility.yul\":9636:9827   */\n    tag_71:\n        /* \"#utility.yul\":9676:9680   */\n      0x00\n        /* \"#utility.yul\":9696:9716   */\n      tag_244\n        /* \"#utility.yul\":9714:9715   */\n      dup3\n        /* \"#utility.yul\":9696:9716   */\n      tag_203\n      jump\t// in\n    tag_244:\n        /* \"#utility.yul\":9691:9716   */\n      swap2\n      pop\n        /* \"#utility.yul\":9730:9750   */\n      tag_245\n        /* \"#utility.yul\":9748:9749   */\n      dup4\n        /* \"#utility.yul\":9730:9750   */\n      tag_203\n      jump\t// in\n    tag_245:\n        /* \"#utility.yul\":9725:9750   */\n      swap3\n      pop\n        /* \"#utility.yul\":9769:9770   */\n      dup3\n        /* \"#utility.yul\":9766:9767   */\n      dup3\n        /* \"#utility.yul\":9763:9771   */\n      lt\n        /* \"#utility.yul\":9760:9794   */\n      iszero\n      tag_246\n      jumpi\n        /* \"#utility.yul\":9774:9792   */\n      tag_247\n      tag_231\n      jump\t// in\n    tag_247:\n        /* \"#utility.yul\":9760:9794   */\n    tag_246:\n        /* \"#utility.yul\":9819:9820   */\n      dup3\n        /* \"#utility.yul\":9816:9817   */\n      dup3\n        /* \"#utility.yul\":9812:9821   */\n      sub\n        /* \"#utility.yul\":9804:9821   */\n      swap1\n      pop\n        /* \"#utility.yul\":9636:9827   */\n      swap3\n      swap2\n      pop\n      pop\n      jump\t// out\n        /* \"#utility.yul\":9833:9929   */\n    tag_162:\n        /* \"#utility.yul\":9870:9877   */\n      0x00\n        /* \"#utility.yul\":9899:9923   */\n      tag_249\n        /* \"#utility.yul\":9917:9922   */\n      dup3\n        /* \"#utility.yul\":9899:9923   */\n      tag_250\n      jump\t// in\n    tag_249:\n        /* \"#utility.yul\":9888:9923   */\n      swap1\n      pop\n        /* \"#utility.yul\":9833:9929   */\n      swap2\n      swap1\n      pop\n      jump\t// out\n        /* \"#utility.yul\":9935:10039   */\n    tag_251:\n        /* \"#utility.yul\":9980:9987   */\n      0x00\n        /* \"#utility.yul\":10009:10033   */\n      tag_253\n        /* \"#utility.yul\":10027:10032   */\n      dup3\n        /* \"#utility.yul\":10009:10033   */\n      tag_250\n      jump\t// in\n    tag_253:\n        /* \"#utility.yul\":9998:10033   */\n      swap1\n      pop\n        /* \"#utility.yul\":9935:10039   */\n      swap2\n      swap1\n      pop\n      jump\t// out\n        /* \"#utility.yul\":10045:10135   */\n    tag_254:\n        /* \"#utility.yul\":10079:10086   */\n      0x00\n        /* \"#utility.yul\":10122:10127   */\n      dup2\n        /* \"#utility.yul\":10115:10128   */\n      iszero\n        /* \"#utility.yul\":10108:10129   */\n      iszero\n        /* \"#utility.yul\":10097:10129   */\n      swap1\n      pop\n        /* \"#utility.yul\":10045:10135   */\n      swap2\n      swap1\n      pop\n      jump\t// out\n        /* \"#utility.yul\":10141:10267   */\n    tag_250:\n        /* \"#utility.yul\":10178:10185   */\n      0x00\n        /* \"#utility.yul\":10218:10260   */\n      0xffffffffffffffffffffffffffffffffffffffff\n        /* \"#utility.yul\":10211:10216   */\n      dup3\n        /* \"#utility.yul\":10207:10261   */\n      and\n        /* \"#utility.yul\":10196:10261   */\n      swap1\n      pop\n        /* \"#utility.yul\":10141:10267   */\n      swap2\n      swap1\n      pop\n      jump\t// out\n        /* \"#utility.yul\":10273:10350   */\n    tag_203:\n        /* \"#utility.yul\":10310:10317   */\n      0x00\n        /* \"#utility.yul\":10339:10344   */\n      dup2\n        /* \"#utility.yul\":10328:10344   */\n      swap1\n      pop\n        /* \"#utility.yul\":10273:10350   */\n      swap2\n      swap1\n      pop\n      jump\t// out\n        /* \"#utility.yul\":10356:10536   */\n    tag_231:\n        /* \"#utility.yul\":10404:10481   */\n      0x4e487b7100000000000000000000000000000000000000000000000000000000\n        /* \"#utility.yul\":10401:10402   */\n      0x00\n        /* \"#utility.yul\":10394:10482   */\n      mstore\n        /* \"#utility.yul\":10501:10505   */\n      0x11\n        /* \"#utility.yul\":10498:10499   */\n      0x04\n        /* \"#utility.yul\":10491:10506   */\n      mstore\n        /* \"#utility.yul\":10525:10529   */\n      0x24\n        /* \"#utility.yul\":10522:10523   */\n      0x00\n        /* \"#utility.yul\":10515:10530   */\n      revert\n        /* \"#utility.yul\":10542:10722   */\n    tag_237:\n        /* \"#utility.yul\":10590:10667   */\n      0x4e487b7100000000000000000000000000000000000000000000000000000000\n        /* \"#utility.yul\":10587:10588   */\n      0x00\n        /* \"#utility.yul\":10580:10668   */\n      mstore\n        /* \"#utility.yul\":10687:10691   */\n      0x12\n        /* \"#utility.yul\":10684:10685   */\n      0x04\n        /* \"#utility.yul\":10677:10692   */\n      mstore\n        /* \"#utility.yul\":10711:10715   */\n      0x24\n        /* \"#utility.yul\":10708:10709   */\n      0x00\n        /* \"#utility.yul\":10701:10716   */\n      revert\n        /* \"#utility.yul\":10851:10968   */\n    tag_143:\n        /* \"#utility.yul\":10960:10961   */\n      0x00\n        /* \"#utility.yul\":10957:10958   */\n      dup1\n        /* \"#utility.yul\":10950:10962   */\n      revert\n        /* \"#utility.yul\":10974:11199   */\n    tag_168:\n        /* \"#utility.yul\":11114:11148   */\n      0x4f776e61626c653a206e6577206f776e657220697320746865207a65726f2061\n        /* \"#utility.yul\":11110:11111   */\n      0x00\n        /* \"#utility.yul\":11102:11108   */\n      dup3\n        /* \"#utility.yul\":11098:11112   */\n      add\n        /* \"#utility.yul\":11091:11149   */\n      mstore\n        /* \"#utility.yul\":11183:11191   */\n      0x6464726573730000000000000000000000000000000000000000000000000000\n        /* \"#utility.yul\":11178:11180   */\n      0x20\n        /* \"#utility.yul\":11170:11176   */\n      dup3\n        /* \"#utility.yul\":11166:11181   */\n      add\n        /* \"#utility.yul\":11159:11192   */\n      mstore\n        /* \"#utility.yul\":10974:11199   */\n      pop\n      jump\t// out\n        /* \"#utility.yul\":11205:11450   */\n    tag_173:\n        /* \"#utility.yul\":11345:11379   */\n      0x416464726573733a20756e61626c6520746f2073656e642076616c75652c2072\n        /* \"#utility.yul\":11341:11342   */\n      0x00\n        /* \"#utility.yul\":11333:11339   */\n      dup3\n        /* \"#utility.yul\":11329:11343   */\n      add\n        /* \"#utility.yul\":11322:11380   */\n      mstore\n        /* \"#utility.yul\":11414:11442   */\n      0x6563697069656e74206d61792068617665207265766572746564000000000000\n        /* \"#utility.yul\":11409:11411   */\n      0x20\n        /* \"#utility.yul\":11401:11407   */\n      dup3\n        /* \"#utility.yul\":11397:11412   */\n      add\n        /* \"#utility.yul\":11390:11443   */\n      mstore\n        /* \"#utility.yul\":11205:11450   */\n      pop\n      jump\t// out\n        /* \"#utility.yul\":11456:11635   */\n    tag_178:\n        /* \"#utility.yul\":11596:11627   */\n      0x416464726573733a20696e73756666696369656e742062616c616e6365000000\n        /* \"#utility.yul\":11592:11593   */\n      0x00\n        /* \"#utility.yul\":11584:11590   */\n      dup3\n        /* \"#utility.yul\":11580:11594   */\n      add\n        /* \"#utility.yul\":11573:11628   */\n      mstore\n        /* \"#utility.yul\":11456:11635   */\n      pop\n      jump\t// out\n        /* \"#utility.yul\":11641:11819   */\n    tag_183:\n        /* \"#utility.yul\":11781:11811   */\n      0x63616c6c6572206973206e6f742074686520636f6e74726163746f7200000000\n        /* \"#utility.yul\":11777:11778   */\n      0x00\n        /* \"#utility.yul\":11769:11775   */\n      dup3\n        /* \"#utility.yul\":11765:11779   */\n      add\n        /* \"#utility.yul\":11758:11812   */\n      mstore\n        /* \"#utility.yul\":11641:11819   */\n      pop\n      jump\t// out\n        /* \"#utility.yul\":11825:12007   */\n    tag_188:\n        /* \"#utility.yul\":11965:11999   */\n      0x4f776e61626c653a2063616c6c6572206973206e6f7420746865206f776e6572\n        /* \"#utility.yul\":11961:11962   */\n      0x00\n        /* \"#utility.yul\":11953:11959   */\n      dup3\n        /* \"#utility.yul\":11949:11963   */\n      add\n        /* \"#utility.yul\":11942:12000   */\n      mstore\n        /* \"#utility.yul\":11825:12007   */\n      pop\n      jump\t// out\n        /* \"#utility.yul\":12013:12127   */\n    tag_194:\n      pop\n      jump\t// out\n        /* \"#utility.yul\":12133:12306   */\n    tag_199:\n        /* \"#utility.yul\":12273:12298   */\n      0x63616c6c6572206973206e6f74207468652061646d696e000000000000000000\n        /* \"#utility.yul\":12269:12270   */\n      0x00\n        /* \"#utility.yul\":12261:12267   */\n      dup3\n        /* \"#utility.yul\":12257:12271   */\n      add\n        /* \"#utility.yul\":12250:12299   */\n      mstore\n        /* \"#utility.yul\":12133:12306   */\n      pop\n      jump\t// out\n        /* \"#utility.yul\":12312:12434   */\n    tag_131:\n        /* \"#utility.yul\":12385:12409   */\n      tag_271\n        /* \"#utility.yul\":12403:12408   */\n      dup2\n        /* \"#utility.yul\":12385:12409   */\n      tag_162\n      jump\t// in\n    tag_271:\n        /* \"#utility.yul\":12378:12383   */\n      dup2\n        /* \"#utility.yul\":12375:12410   */\n      eq\n        /* \"#utility.yul\":12365:12428   */\n      tag_272\n      jumpi\n        /* \"#utility.yul\":12424:12425   */\n      0x00\n        /* \"#utility.yul\":12421:12422   */\n      dup1\n        /* \"#utility.yul\":12414:12426   */\n      revert\n        /* \"#utility.yul\":12365:12428   */\n    tag_272:\n        /* \"#utility.yul\":12312:12434   */\n      pop\n      jump\t// out\n        /* \"#utility.yul\":12440:12578   */\n    tag_135:\n        /* \"#utility.yul\":12521:12553   */\n      tag_274\n        /* \"#utility.yul\":12547:12552   */\n      dup2\n        /* \"#utility.yul\":12521:12553   */\n      tag_251\n      jump\t// in\n    tag_274:\n        /* \"#utility.yul\":12514:12519   */\n      dup2\n        /* \"#utility.yul\":12511:12554   */\n      eq\n        /* \"#utility.yul\":12501:12572   */\n      tag_275\n      jumpi\n        /* \"#utility.yul\":12568:12569   */\n      0x00\n        /* \"#utility.yul\":12565:12566   */\n      dup1\n        /* \"#utility.yul\":12558:12570   */\n      revert\n        /* \"#utility.yul\":12501:12572   */\n    tag_275:\n        /* \"#utility.yul\":12440:12578   */\n      pop\n      jump\t// out\n        /* \"#utility.yul\":12584:12700   */\n    tag_139:\n        /* \"#utility.yul\":12654:12675   */\n      tag_277\n        /* \"#utility.yul\":12669:12674   */\n      dup2\n        /* \"#utility.yul\":12654:12675   */\n      tag_254\n      jump\t// in\n    tag_277:\n        /* \"#utility.yul\":12647:12652   */\n      dup2\n        /* \"#utility.yul\":12644:12676   */\n      eq\n        /* \"#utility.yul\":12634:12694   */\n      tag_278\n      jumpi\n        /* \"#utility.yul\":12690:12691   */\n      0x00\n        /* \"#utility.yul\":12687:12688   */\n      dup1\n        /* \"#utility.yul\":12680:12692   */\n      revert\n        /* \"#utility.yul\":12634:12694   */\n    tag_278:\n        /* \"#utility.yul\":12584:12700   */\n      pop\n      jump\t// out\n\n    auxdata: 0xa2646970667358221220112de71095744e3c5e20f982fc401d497484b6d63afc979f9b5ff5b243e7393864736f6c63430008070033\n}\n",
				"bytecode": {
					"linkReferences": {},
					"object": "608060405234801561001057600080fd5b5061002d61002261003260201b60201c565b61003a60201b60201c565b6100fe565b600033905090565b60008060009054906101000a900473ffffffffffffffffffffffffffffffffffffffff169050816000806101000a81548173ffffffffffffffffffffffffffffffffffffffff021916908373ffffffffffffffffffffffffffffffffffffffff1602179055508173ffffffffffffffffffffffffffffffffffffffff168173ffffffffffffffffffffffffffffffffffffffff167f8be0079c531659141344cd1fd0a4f28419497f9722a3daafe3b4186f6b6457e060405160405180910390a35050565b6110ce8061010d6000396000f3fe60806040526004361061007b5760003560e01c80639464c8b81161004e5780639464c8b814610114578063b0568eaa1461013d578063f2fde38b14610154578063f9609f081461017d5761007b565b806311571f3014610080578063251d8cd5146100a9578063715018a6146100d25780638da5cb5b146100e9575b600080fd5b34801561008c57600080fd5b506100a760048036038101906100a29190610ac2565b610199565b005b3480156100b557600080fd5b506100d060048036038101906100cb9190610a95565b6101e1565b005b3480156100de57600080fd5b506100e7610206565b005b3480156100f557600080fd5b506100fe61021a565b60405161010b9190610c2a565b60405180910390f35b34801561012057600080fd5b5061013b60048036038101906101369190610a95565b610243565b005b34801561014957600080fd5b50610152610270565b005b34801561016057600080fd5b5061017b60048036038101906101769190610a28565b61048a565b005b61019760048036038101906101929190610a55565b61050e565b005b6101a1610687565b81600560026101000a81548160ff02191690831515021790555080600560036101000a81548160ff0219169083151502179055506101dd610270565b5050565b6101e9610719565b80600560006101000a81548160ff02191690831515021790555050565b61020e6107ab565b6102186000610829565b565b60008060009054906101000a900473ffffffffffffffffffffffffffffffffffffffff16905090565b61024b6107ab565b80600560016101000a81548160ff02191690831515021790555061026d610270565b50565b60004790506000600a6002836102869190610dc3565b6102909190610d92565b9050808261029e9190610e1d565b915060011515600560009054906101000a900460ff1615151480156102d6575060011515600560019054906101000a900460ff161515145b80610313575060011515600560029054906101000a900460ff161515148015610312575060011515600560039054906101000a900460ff161515145b5b156103b35761036382600160009054906101000a900473ffffffffffffffffffffffffffffffffffffffff1673ffffffffffffffffffffffffffffffffffffffff166108ed90919063ffffffff16565b6103ae81600360009054906101000a900473ffffffffffffffffffffffffffffffffffffffff1673ffffffffffffffffffffffffffffffffffffffff166108ed90919063ffffffff16565b610486565b60011515600560029054906101000a900460ff1615151480156103e9575060001515600560039054906101000a900460ff161515145b156104855761043982600260009054906101000a900473ffffffffffffffffffffffffffffffffffffffff1673ffffffffffffffffffffffffffffffffffffffff166108ed90919063ffffffff16565b61048481600360009054906101000a900473ffffffffffffffffffffffffffffffffffffffff1673ffffffffffffffffffffffffffffffffffffffff166108ed90919063ffffffff16565b5b5b5050565b6104926107ab565b600073ffffffffffffffffffffffffffffffffffffffff168173ffffffffffffffffffffffffffffffffffffffff161415610502576040517f08c379a00000000000000000000000000000000000000000000000000000000081526004016104f990610c45565b60405180910390fd5b61050b81610829565b50565b6105166107ab565b81600160006101000a81548173ffffffffffffffffffffffffffffffffffffffff021916908373ffffffffffffffffffffffffffffffffffffffff16021790555033600260006101000a81548173ffffffffffffffffffffffffffffffffffffffff021916908373ffffffffffffffffffffffffffffffffffffffff16021790555080600360006101000a81548173ffffffffffffffffffffffffffffffffffffffff021916908373ffffffffffffffffffffffffffffffffffffffff160217905550600034905080600460008573ffffffffffffffffffffffffffffffffffffffff1673ffffffffffffffffffffffffffffffffffffffff168152602001908152602001600020600082825461062d9190610d3c565b925050819055508273ffffffffffffffffffffffffffffffffffffffff167f2da466a7b24304f47e87fa2e1e5a81b9831ce54fec19055ce277ca2f39ba42c48260405161067a9190610d05565b60405180910390a2505050565b600360009054906101000a900473ffffffffffffffffffffffffffffffffffffffff1673ffffffffffffffffffffffffffffffffffffffff163373ffffffffffffffffffffffffffffffffffffffff1614610717576040517f08c379a000000000000000000000000000000000000000000000000000000000815260040161070e90610ce5565b60405180910390fd5b565b600160009054906101000a900473ffffffffffffffffffffffffffffffffffffffff1673ffffffffffffffffffffffffffffffffffffffff163373ffffffffffffffffffffffffffffffffffffffff16146107a9576040517f08c379a00000000000000000000000000000000000000000000000000000000081526004016107a090610ca5565b60405180910390fd5b565b6107b36109e1565b73ffffffffffffffffffffffffffffffffffffffff166107d161021a565b73ffffffffffffffffffffffffffffffffffffffff1614610827576040517f08c379a000000000000000000000000000000000000000000000000000000000815260040161081e90610cc5565b60405180910390fd5b565b60008060009054906101000a900473ffffffffffffffffffffffffffffffffffffffff169050816000806101000a81548173ffffffffffffffffffffffffffffffffffffffff021916908373ffffffffffffffffffffffffffffffffffffffff1602179055508173ffffffffffffffffffffffffffffffffffffffff168173ffffffffffffffffffffffffffffffffffffffff167f8be0079c531659141344cd1fd0a4f28419497f9722a3daafe3b4186f6b6457e060405160405180910390a35050565b80471015610930576040517f08c379a000000000000000000000000000000000000000000000000000000000815260040161092790610c85565b60405180910390fd5b60008273ffffffffffffffffffffffffffffffffffffffff168260405161095690610c15565b60006040518083038185875af1925050503d8060008114610993576040519150601f19603f3d011682016040523d82523d6000602084013e610998565b606091505b50509050806109dc576040517f08c379a00000000000000000000000000000000000000000000000000000000081526004016109d390610c65565b60405180910390fd5b505050565b600033905090565b6000813590506109f881611053565b92915050565b600081359050610a0d8161106a565b92915050565b600081359050610a2281611081565b92915050565b600060208284031215610a3e57610a3d610f09565b5b6000610a4c848285016109e9565b91505092915050565b60008060408385031215610a6c57610a6b610f09565b5b6000610a7a858286016109fe565b9250506020610a8b858286016109fe565b9150509250929050565b600060208284031215610aab57610aaa610f09565b5b6000610ab984828501610a13565b91505092915050565b60008060408385031215610ad957610ad8610f09565b5b6000610ae785828601610a13565b9250506020610af885828601610a13565b9150509250929050565b610b0b81610e51565b82525050565b6000610b1e602683610d2b565b9150610b2982610f0e565b604082019050919050565b6000610b41603a83610d2b565b9150610b4c82610f5d565b604082019050919050565b6000610b64601d83610d2b565b9150610b6f82610fac565b602082019050919050565b6000610b87601c83610d2b565b9150610b9282610fd5565b602082019050919050565b6000610baa602083610d2b565b9150610bb582610ffe565b602082019050919050565b6000610bcd600083610d20565b9150610bd882611027565b600082019050919050565b6000610bf0601783610d2b565b9150610bfb8261102a565b602082019050919050565b610c0f81610ea1565b82525050565b6000610c2082610bc0565b9150819050919050565b6000602082019050610c3f6000830184610b02565b92915050565b60006020820190508181036000830152610c5e81610b11565b9050919050565b60006020820190508181036000830152610c7e81610b34565b9050919050565b60006020820190508181036000830152610c9e81610b57565b9050919050565b60006020820190508181036000830152610cbe81610b7a565b9050919050565b60006020820190508181036000830152610cde81610b9d565b9050919050565b60006020820190508181036000830152610cfe81610be3565b9050919050565b6000602082019050610d1a6000830184610c06565b92915050565b600081905092915050565b600082825260208201905092915050565b6000610d4782610ea1565b9150610d5283610ea1565b9250827fffffffffffffffffffffffffffffffffffffffffffffffffffffffffffffffff03821115610d8757610d86610eab565b5b828201905092915050565b6000610d9d82610ea1565b9150610da883610ea1565b925082610db857610db7610eda565b5b828204905092915050565b6000610dce82610ea1565b9150610dd983610ea1565b9250817fffffffffffffffffffffffffffffffffffffffffffffffffffffffffffffffff0483118215151615610e1257610e11610eab565b5b828202905092915050565b6000610e2882610ea1565b9150610e3383610ea1565b925082821015610e4657610e45610eab565b5b828203905092915050565b6000610e5c82610e81565b9050919050565b6000610e6e82610e81565b9050919050565b60008115159050919050565b600073ffffffffffffffffffffffffffffffffffffffff82169050919050565b6000819050919050565b7f4e487b7100000000000000000000000000000000000000000000000000000000600052601160045260246000fd5b7f4e487b7100000000000000000000000000000000000000000000000000000000600052601260045260246000fd5b600080fd5b7f4f776e61626c653a206e6577206f776e657220697320746865207a65726f206160008201527f6464726573730000000000000000000000000000000000000000000000000000602082015250565b7f416464726573733a20756e61626c6520746f2073656e642076616c75652c207260008201527f6563697069656e74206d61792068617665207265766572746564000000000000602082015250565b7f416464726573733a20696e73756666696369656e742062616c616e6365000000600082015250565b7f63616c6c6572206973206e6f742074686520636f6e74726163746f7200000000600082015250565b7f4f776e61626c653a2063616c6c6572206973206e6f7420746865206f776e6572600082015250565b50565b7f63616c6c6572206973206e6f74207468652061646d696e000000000000000000600082015250565b61105c81610e51565b811461106757600080fd5b50565b61107381610e63565b811461107e57600080fd5b50565b61108a81610e75565b811461109557600080fd5b5056fea2646970667358221220112de71095744e3c5e20f982fc401d497484b6d63afc979f9b5ff5b243e7393864736f6c63430008070033",
					"opcodes": "PUSH1 0x80 PUSH1 0x40 MSTORE CALLVALUE DUP1 ISZERO PUSH2 0x10 JUMPI PUSH1 0x0 DUP1 REVERT JUMPDEST POP PUSH2 0x2D PUSH2 0x22 PUSH2 0x32 PUSH1 0x20 SHL PUSH1 0x20 SHR JUMP JUMPDEST PUSH2 0x3A PUSH1 0x20 SHL PUSH1 0x20 SHR JUMP JUMPDEST PUSH2 0xFE JUMP JUMPDEST PUSH1 0x0 CALLER SWAP1 POP SWAP1 JUMP JUMPDEST PUSH1 0x0 DUP1 PUSH1 0x0 SWAP1 SLOAD SWAP1 PUSH2 0x100 EXP SWAP1 DIV PUSH20 0xFFFFFFFFFFFFFFFFFFFFFFFFFFFFFFFFFFFFFFFF AND SWAP1 POP DUP2 PUSH1 0x0 DUP1 PUSH2 0x100 EXP DUP2 SLOAD DUP2 PUSH20 0xFFFFFFFFFFFFFFFFFFFFFFFFFFFFFFFFFFFFFFFF MUL NOT AND SWAP1 DUP4 PUSH20 0xFFFFFFFFFFFFFFFFFFFFFFFFFFFFFFFFFFFFFFFF AND MUL OR SWAP1 SSTORE POP DUP2 PUSH20 0xFFFFFFFFFFFFFFFFFFFFFFFFFFFFFFFFFFFFFFFF AND DUP2 PUSH20 0xFFFFFFFFFFFFFFFFFFFFFFFFFFFFFFFFFFFFFFFF AND PUSH32 0x8BE0079C531659141344CD1FD0A4F28419497F9722A3DAAFE3B4186F6B6457E0 PUSH1 0x40 MLOAD PUSH1 0x40 MLOAD DUP1 SWAP2 SUB SWAP1 LOG3 POP POP JUMP JUMPDEST PUSH2 0x10CE DUP1 PUSH2 0x10D PUSH1 0x0 CODECOPY PUSH1 0x0 RETURN INVALID PUSH1 0x80 PUSH1 0x40 MSTORE PUSH1 0x4 CALLDATASIZE LT PUSH2 0x7B JUMPI PUSH1 0x0 CALLDATALOAD PUSH1 0xE0 SHR DUP1 PUSH4 0x9464C8B8 GT PUSH2 0x4E JUMPI DUP1 PUSH4 0x9464C8B8 EQ PUSH2 0x114 JUMPI DUP1 PUSH4 0xB0568EAA EQ PUSH2 0x13D JUMPI DUP1 PUSH4 0xF2FDE38B EQ PUSH2 0x154 JUMPI DUP1 PUSH4 0xF9609F08 EQ PUSH2 0x17D JUMPI PUSH2 0x7B JUMP JUMPDEST DUP1 PUSH4 0x11571F30 EQ PUSH2 0x80 JUMPI DUP1 PUSH4 0x251D8CD5 EQ PUSH2 0xA9 JUMPI DUP1 PUSH4 0x715018A6 EQ PUSH2 0xD2 JUMPI DUP1 PUSH4 0x8DA5CB5B EQ PUSH2 0xE9 JUMPI JUMPDEST PUSH1 0x0 DUP1 REVERT JUMPDEST CALLVALUE DUP1 ISZERO PUSH2 0x8C JUMPI PUSH1 0x0 DUP1 REVERT JUMPDEST POP PUSH2 0xA7 PUSH1 0x4 DUP1 CALLDATASIZE SUB DUP2 ADD SWAP1 PUSH2 0xA2 SWAP2 SWAP1 PUSH2 0xAC2 JUMP JUMPDEST PUSH2 0x199 JUMP JUMPDEST STOP JUMPDEST CALLVALUE DUP1 ISZERO PUSH2 0xB5 JUMPI PUSH1 0x0 DUP1 REVERT JUMPDEST POP PUSH2 0xD0 PUSH1 0x4 DUP1 CALLDATASIZE SUB DUP2 ADD SWAP1 PUSH2 0xCB SWAP2 SWAP1 PUSH2 0xA95 JUMP JUMPDEST PUSH2 0x1E1 JUMP JUMPDEST STOP JUMPDEST CALLVALUE DUP1 ISZERO PUSH2 0xDE JUMPI PUSH1 0x0 DUP1 REVERT JUMPDEST POP PUSH2 0xE7 PUSH2 0x206 JUMP JUMPDEST STOP JUMPDEST CALLVALUE DUP1 ISZERO PUSH2 0xF5 JUMPI PUSH1 0x0 DUP1 REVERT JUMPDEST POP PUSH2 0xFE PUSH2 0x21A JUMP JUMPDEST PUSH1 0x40 MLOAD PUSH2 0x10B SWAP2 SWAP1 PUSH2 0xC2A JUMP JUMPDEST PUSH1 0x40 MLOAD DUP1 SWAP2 SUB SWAP1 RETURN JUMPDEST CALLVALUE DUP1 ISZERO PUSH2 0x120 JUMPI PUSH1 0x0 DUP1 REVERT JUMPDEST POP PUSH2 0x13B PUSH1 0x4 DUP1 CALLDATASIZE SUB DUP2 ADD SWAP1 PUSH2 0x136 SWAP2 SWAP1 PUSH2 0xA95 JUMP JUMPDEST PUSH2 0x243 JUMP JUMPDEST STOP JUMPDEST CALLVALUE DUP1 ISZERO PUSH2 0x149 JUMPI PUSH1 0x0 DUP1 REVERT JUMPDEST POP PUSH2 0x152 PUSH2 0x270 JUMP JUMPDEST STOP JUMPDEST CALLVALUE DUP1 ISZERO PUSH2 0x160 JUMPI PUSH1 0x0 DUP1 REVERT JUMPDEST POP PUSH2 0x17B PUSH1 0x4 DUP1 CALLDATASIZE SUB DUP2 ADD SWAP1 PUSH2 0x176 SWAP2 SWAP1 PUSH2 0xA28 JUMP JUMPDEST PUSH2 0x48A JUMP JUMPDEST STOP JUMPDEST PUSH2 0x197 PUSH1 0x4 DUP1 CALLDATASIZE SUB DUP2 ADD SWAP1 PUSH2 0x192 SWAP2 SWAP1 PUSH2 0xA55 JUMP JUMPDEST PUSH2 0x50E JUMP JUMPDEST STOP JUMPDEST PUSH2 0x1A1 PUSH2 0x687 JUMP JUMPDEST DUP2 PUSH1 0x5 PUSH1 0x2 PUSH2 0x100 EXP DUP2 SLOAD DUP2 PUSH1 0xFF MUL NOT AND SWAP1 DUP4 ISZERO ISZERO MUL OR SWAP1 SSTORE POP DUP1 PUSH1 0x5 PUSH1 0x3 PUSH2 0x100 EXP DUP2 SLOAD DUP2 PUSH1 0xFF MUL NOT AND SWAP1 DUP4 ISZERO ISZERO MUL OR SWAP1 SSTORE POP PUSH2 0x1DD PUSH2 0x270 JUMP JUMPDEST POP POP JUMP JUMPDEST PUSH2 0x1E9 PUSH2 0x719 JUMP JUMPDEST DUP1 PUSH1 0x5 PUSH1 0x0 PUSH2 0x100 EXP DUP2 SLOAD DUP2 PUSH1 0xFF MUL NOT AND SWAP1 DUP4 ISZERO ISZERO MUL OR SWAP1 SSTORE POP POP JUMP JUMPDEST PUSH2 0x20E PUSH2 0x7AB JUMP JUMPDEST PUSH2 0x218 PUSH1 0x0 PUSH2 0x829 JUMP JUMPDEST JUMP JUMPDEST PUSH1 0x0 DUP1 PUSH1 0x0 SWAP1 SLOAD SWAP1 PUSH2 0x100 EXP SWAP1 DIV PUSH20 0xFFFFFFFFFFFFFFFFFFFFFFFFFFFFFFFFFFFFFFFF AND SWAP1 POP SWAP1 JUMP JUMPDEST PUSH2 0x24B PUSH2 0x7AB JUMP JUMPDEST DUP1 PUSH1 0x5 PUSH1 0x1 PUSH2 0x100 EXP DUP2 SLOAD DUP2 PUSH1 0xFF MUL NOT AND SWAP1 DUP4 ISZERO ISZERO MUL OR SWAP1 SSTORE POP PUSH2 0x26D PUSH2 0x270 JUMP JUMPDEST POP JUMP JUMPDEST PUSH1 0x0 SELFBALANCE SWAP1 POP PUSH1 0x0 PUSH1 0xA PUSH1 0x2 DUP4 PUSH2 0x286 SWAP2 SWAP1 PUSH2 0xDC3 JUMP JUMPDEST PUSH2 0x290 SWAP2 SWAP1 PUSH2 0xD92 JUMP JUMPDEST SWAP1 POP DUP1 DUP3 PUSH2 0x29E SWAP2 SWAP1 PUSH2 0xE1D JUMP JUMPDEST SWAP2 POP PUSH1 0x1 ISZERO ISZERO PUSH1 0x5 PUSH1 0x0 SWAP1 SLOAD SWAP1 PUSH2 0x100 EXP SWAP1 DIV PUSH1 0xFF AND ISZERO ISZERO EQ DUP1 ISZERO PUSH2 0x2D6 JUMPI POP PUSH1 0x1 ISZERO ISZERO PUSH1 0x5 PUSH1 0x1 SWAP1 SLOAD SWAP1 PUSH2 0x100 EXP SWAP1 DIV PUSH1 0xFF AND ISZERO ISZERO EQ JUMPDEST DUP1 PUSH2 0x313 JUMPI POP PUSH1 0x1 ISZERO ISZERO PUSH1 0x5 PUSH1 0x2 SWAP1 SLOAD SWAP1 PUSH2 0x100 EXP SWAP1 DIV PUSH1 0xFF AND ISZERO ISZERO EQ DUP1 ISZERO PUSH2 0x312 JUMPI POP PUSH1 0x1 ISZERO ISZERO PUSH1 0x5 PUSH1 0x3 SWAP1 SLOAD SWAP1 PUSH2 0x100 EXP SWAP1 DIV PUSH1 0xFF AND ISZERO ISZERO EQ JUMPDEST JUMPDEST ISZERO PUSH2 0x3B3 JUMPI PUSH2 0x363 DUP3 PUSH1 0x1 PUSH1 0x0 SWAP1 SLOAD SWAP1 PUSH2 0x100 EXP SWAP1 DIV PUSH20 0xFFFFFFFFFFFFFFFFFFFFFFFFFFFFFFFFFFFFFFFF AND PUSH20 0xFFFFFFFFFFFFFFFFFFFFFFFFFFFFFFFFFFFFFFFF AND PUSH2 0x8ED SWAP1 SWAP2 SWAP1 PUSH4 0xFFFFFFFF AND JUMP JUMPDEST PUSH2 0x3AE DUP2 PUSH1 0x3 PUSH1 0x0 SWAP1 SLOAD SWAP1 PUSH2 0x100 EXP SWAP1 DIV PUSH20 0xFFFFFFFFFFFFFFFFFFFFFFFFFFFFFFFFFFFFFFFF AND PUSH20 0xFFFFFFFFFFFFFFFFFFFFFFFFFFFFFFFFFFFFFFFF AND PUSH2 0x8ED SWAP1 SWAP2 SWAP1 PUSH4 0xFFFFFFFF AND JUMP JUMPDEST PUSH2 0x486 JUMP JUMPDEST PUSH1 0x1 ISZERO ISZERO PUSH1 0x5 PUSH1 0x2 SWAP1 SLOAD SWAP1 PUSH2 0x100 EXP SWAP1 DIV PUSH1 0xFF AND ISZERO ISZERO EQ DUP1 ISZERO PUSH2 0x3E9 JUMPI POP PUSH1 0x0 ISZERO ISZERO PUSH1 0x5 PUSH1 0x3 SWAP1 SLOAD SWAP1 PUSH2 0x100 EXP SWAP1 DIV PUSH1 0xFF AND ISZERO ISZERO EQ JUMPDEST ISZERO PUSH2 0x485 JUMPI PUSH2 0x439 DUP3 PUSH1 0x2 PUSH1 0x0 SWAP1 SLOAD SWAP1 PUSH2 0x100 EXP SWAP1 DIV PUSH20 0xFFFFFFFFFFFFFFFFFFFFFFFFFFFFFFFFFFFFFFFF AND PUSH20 0xFFFFFFFFFFFFFFFFFFFFFFFFFFFFFFFFFFFFFFFF AND PUSH2 0x8ED SWAP1 SWAP2 SWAP1 PUSH4 0xFFFFFFFF AND JUMP JUMPDEST PUSH2 0x484 DUP2 PUSH1 0x3 PUSH1 0x0 SWAP1 SLOAD SWAP1 PUSH2 0x100 EXP SWAP1 DIV PUSH20 0xFFFFFFFFFFFFFFFFFFFFFFFFFFFFFFFFFFFFFFFF AND PUSH20 0xFFFFFFFFFFFFFFFFFFFFFFFFFFFFFFFFFFFFFFFF AND PUSH2 0x8ED SWAP1 SWAP2 SWAP1 PUSH4 0xFFFFFFFF AND JUMP JUMPDEST JUMPDEST JUMPDEST POP POP JUMP JUMPDEST PUSH2 0x492 PUSH2 0x7AB JUMP JUMPDEST PUSH1 0x0 PUSH20 0xFFFFFFFFFFFFFFFFFFFFFFFFFFFFFFFFFFFFFFFF AND DUP2 PUSH20 0xFFFFFFFFFFFFFFFFFFFFFFFFFFFFFFFFFFFFFFFF AND EQ ISZERO PUSH2 0x502 JUMPI PUSH1 0x40 MLOAD PUSH32 0x8C379A000000000000000000000000000000000000000000000000000000000 DUP2 MSTORE PUSH1 0x4 ADD PUSH2 0x4F9 SWAP1 PUSH2 0xC45 JUMP JUMPDEST PUSH1 0x40 MLOAD DUP1 SWAP2 SUB SWAP1 REVERT JUMPDEST PUSH2 0x50B DUP2 PUSH2 0x829 JUMP JUMPDEST POP JUMP JUMPDEST PUSH2 0x516 PUSH2 0x7AB JUMP JUMPDEST DUP2 PUSH1 0x1 PUSH1 0x0 PUSH2 0x100 EXP DUP2 SLOAD DUP2 PUSH20 0xFFFFFFFFFFFFFFFFFFFFFFFFFFFFFFFFFFFFFFFF MUL NOT AND SWAP1 DUP4 PUSH20 0xFFFFFFFFFFFFFFFFFFFFFFFFFFFFFFFFFFFFFFFF AND MUL OR SWAP1 SSTORE POP CALLER PUSH1 0x2 PUSH1 0x0 PUSH2 0x100 EXP DUP2 SLOAD DUP2 PUSH20 0xFFFFFFFFFFFFFFFFFFFFFFFFFFFFFFFFFFFFFFFF MUL NOT AND SWAP1 DUP4 PUSH20 0xFFFFFFFFFFFFFFFFFFFFFFFFFFFFFFFFFFFFFFFF AND MUL OR SWAP1 SSTORE POP DUP1 PUSH1 0x3 PUSH1 0x0 PUSH2 0x100 EXP DUP2 SLOAD DUP2 PUSH20 0xFFFFFFFFFFFFFFFFFFFFFFFFFFFFFFFFFFFFFFFF MUL NOT AND SWAP1 DUP4 PUSH20 0xFFFFFFFFFFFFFFFFFFFFFFFFFFFFFFFFFFFFFFFF AND MUL OR SWAP1 SSTORE POP PUSH1 0x0 CALLVALUE SWAP1 POP DUP1 PUSH1 0x4 PUSH1 0x0 DUP6 PUSH20 0xFFFFFFFFFFFFFFFFFFFFFFFFFFFFFFFFFFFFFFFF AND PUSH20 0xFFFFFFFFFFFFFFFFFFFFFFFFFFFFFFFFFFFFFFFF AND DUP2 MSTORE PUSH1 0x20 ADD SWAP1 DUP2 MSTORE PUSH1 0x20 ADD PUSH1 0x0 KECCAK256 PUSH1 0x0 DUP3 DUP3 SLOAD PUSH2 0x62D SWAP2 SWAP1 PUSH2 0xD3C JUMP JUMPDEST SWAP3 POP POP DUP2 SWAP1 SSTORE POP DUP3 PUSH20 0xFFFFFFFFFFFFFFFFFFFFFFFFFFFFFFFFFFFFFFFF AND PUSH32 0x2DA466A7B24304F47E87FA2E1E5A81B9831CE54FEC19055CE277CA2F39BA42C4 DUP3 PUSH1 0x40 MLOAD PUSH2 0x67A SWAP2 SWAP1 PUSH2 0xD05 JUMP JUMPDEST PUSH1 0x40 MLOAD DUP1 SWAP2 SUB SWAP1 LOG2 POP POP POP JUMP JUMPDEST PUSH1 0x3 PUSH1 0x0 SWAP1 SLOAD SWAP1 PUSH2 0x100 EXP SWAP1 DIV PUSH20 0xFFFFFFFFFFFFFFFFFFFFFFFFFFFFFFFFFFFFFFFF AND PUSH20 0xFFFFFFFFFFFFFFFFFFFFFFFFFFFFFFFFFFFFFFFF AND CALLER PUSH20 0xFFFFFFFFFFFFFFFFFFFFFFFFFFFFFFFFFFFFFFFF AND EQ PUSH2 0x717 JUMPI PUSH1 0x40 MLOAD PUSH32 0x8C379A000000000000000000000000000000000000000000000000000000000 DUP2 MSTORE PUSH1 0x4 ADD PUSH2 0x70E SWAP1 PUSH2 0xCE5 JUMP JUMPDEST PUSH1 0x40 MLOAD DUP1 SWAP2 SUB SWAP1 REVERT JUMPDEST JUMP JUMPDEST PUSH1 0x1 PUSH1 0x0 SWAP1 SLOAD SWAP1 PUSH2 0x100 EXP SWAP1 DIV PUSH20 0xFFFFFFFFFFFFFFFFFFFFFFFFFFFFFFFFFFFFFFFF AND PUSH20 0xFFFFFFFFFFFFFFFFFFFFFFFFFFFFFFFFFFFFFFFF AND CALLER PUSH20 0xFFFFFFFFFFFFFFFFFFFFFFFFFFFFFFFFFFFFFFFF AND EQ PUSH2 0x7A9 JUMPI PUSH1 0x40 MLOAD PUSH32 0x8C379A000000000000000000000000000000000000000000000000000000000 DUP2 MSTORE PUSH1 0x4 ADD PUSH2 0x7A0 SWAP1 PUSH2 0xCA5 JUMP JUMPDEST PUSH1 0x40 MLOAD DUP1 SWAP2 SUB SWAP1 REVERT JUMPDEST JUMP JUMPDEST PUSH2 0x7B3 PUSH2 0x9E1 JUMP JUMPDEST PUSH20 0xFFFFFFFFFFFFFFFFFFFFFFFFFFFFFFFFFFFFFFFF AND PUSH2 0x7D1 PUSH2 0x21A JUMP JUMPDEST PUSH20 0xFFFFFFFFFFFFFFFFFFFFFFFFFFFFFFFFFFFFFFFF AND EQ PUSH2 0x827 JUMPI PUSH1 0x40 MLOAD PUSH32 0x8C379A000000000000000000000000000000000000000000000000000000000 DUP2 MSTORE PUSH1 0x4 ADD PUSH2 0x81E SWAP1 PUSH2 0xCC5 JUMP JUMPDEST PUSH1 0x40 MLOAD DUP1 SWAP2 SUB SWAP1 REVERT JUMPDEST JUMP JUMPDEST PUSH1 0x0 DUP1 PUSH1 0x0 SWAP1 SLOAD SWAP1 PUSH2 0x100 EXP SWAP1 DIV PUSH20 0xFFFFFFFFFFFFFFFFFFFFFFFFFFFFFFFFFFFFFFFF AND SWAP1 POP DUP2 PUSH1 0x0 DUP1 PUSH2 0x100 EXP DUP2 SLOAD DUP2 PUSH20 0xFFFFFFFFFFFFFFFFFFFFFFFFFFFFFFFFFFFFFFFF MUL NOT AND SWAP1 DUP4 PUSH20 0xFFFFFFFFFFFFFFFFFFFFFFFFFFFFFFFFFFFFFFFF AND MUL OR SWAP1 SSTORE POP DUP2 PUSH20 0xFFFFFFFFFFFFFFFFFFFFFFFFFFFFFFFFFFFFFFFF AND DUP2 PUSH20 0xFFFFFFFFFFFFFFFFFFFFFFFFFFFFFFFFFFFFFFFF AND PUSH32 0x8BE0079C531659141344CD1FD0A4F28419497F9722A3DAAFE3B4186F6B6457E0 PUSH1 0x40 MLOAD PUSH1 0x40 MLOAD DUP1 SWAP2 SUB SWAP1 LOG3 POP POP JUMP JUMPDEST DUP1 SELFBALANCE LT ISZERO PUSH2 0x930 JUMPI PUSH1 0x40 MLOAD PUSH32 0x8C379A000000000000000000000000000000000000000000000000000000000 DUP2 MSTORE PUSH1 0x4 ADD PUSH2 0x927 SWAP1 PUSH2 0xC85 JUMP JUMPDEST PUSH1 0x40 MLOAD DUP1 SWAP2 SUB SWAP1 REVERT JUMPDEST PUSH1 0x0 DUP3 PUSH20 0xFFFFFFFFFFFFFFFFFFFFFFFFFFFFFFFFFFFFFFFF AND DUP3 PUSH1 0x40 MLOAD PUSH2 0x956 SWAP1 PUSH2 0xC15 JUMP JUMPDEST PUSH1 0x0 PUSH1 0x40 MLOAD DUP1 DUP4 SUB DUP2 DUP6 DUP8 GAS CALL SWAP3 POP POP POP RETURNDATASIZE DUP1 PUSH1 0x0 DUP2 EQ PUSH2 0x993 JUMPI PUSH1 0x40 MLOAD SWAP2 POP PUSH1 0x1F NOT PUSH1 0x3F RETURNDATASIZE ADD AND DUP3 ADD PUSH1 0x40 MSTORE RETURNDATASIZE DUP3 MSTORE RETURNDATASIZE PUSH1 0x0 PUSH1 0x20 DUP5 ADD RETURNDATACOPY PUSH2 0x998 JUMP JUMPDEST PUSH1 0x60 SWAP2 POP JUMPDEST POP POP SWAP1 POP DUP1 PUSH2 0x9DC JUMPI PUSH1 0x40 MLOAD PUSH32 0x8C379A000000000000000000000000000000000000000000000000000000000 DUP2 MSTORE PUSH1 0x4 ADD PUSH2 0x9D3 SWAP1 PUSH2 0xC65 JUMP JUMPDEST PUSH1 0x40 MLOAD DUP1 SWAP2 SUB SWAP1 REVERT JUMPDEST POP POP POP JUMP JUMPDEST PUSH1 0x0 CALLER SWAP1 POP SWAP1 JUMP JUMPDEST PUSH1 0x0 DUP2 CALLDATALOAD SWAP1 POP PUSH2 0x9F8 DUP2 PUSH2 0x1053 JUMP JUMPDEST SWAP3 SWAP2 POP POP JUMP JUMPDEST PUSH1 0x0 DUP2 CALLDATALOAD SWAP1 POP PUSH2 0xA0D DUP2 PUSH2 0x106A JUMP JUMPDEST SWAP3 SWAP2 POP POP JUMP JUMPDEST PUSH1 0x0 DUP2 CALLDATALOAD SWAP1 POP PUSH2 0xA22 DUP2 PUSH2 0x1081 JUMP JUMPDEST SWAP3 SWAP2 POP POP JUMP JUMPDEST PUSH1 0x0 PUSH1 0x20 DUP3 DUP5 SUB SLT ISZERO PUSH2 0xA3E JUMPI PUSH2 0xA3D PUSH2 0xF09 JUMP JUMPDEST JUMPDEST PUSH1 0x0 PUSH2 0xA4C DUP5 DUP3 DUP6 ADD PUSH2 0x9E9 JUMP JUMPDEST SWAP2 POP POP SWAP3 SWAP2 POP POP JUMP JUMPDEST PUSH1 0x0 DUP1 PUSH1 0x40 DUP4 DUP6 SUB SLT ISZERO PUSH2 0xA6C JUMPI PUSH2 0xA6B PUSH2 0xF09 JUMP JUMPDEST JUMPDEST PUSH1 0x0 PUSH2 0xA7A DUP6 DUP3 DUP7 ADD PUSH2 0x9FE JUMP JUMPDEST SWAP3 POP POP PUSH1 0x20 PUSH2 0xA8B DUP6 DUP3 DUP7 ADD PUSH2 0x9FE JUMP JUMPDEST SWAP2 POP POP SWAP3 POP SWAP3 SWAP1 POP JUMP JUMPDEST PUSH1 0x0 PUSH1 0x20 DUP3 DUP5 SUB SLT ISZERO PUSH2 0xAAB JUMPI PUSH2 0xAAA PUSH2 0xF09 JUMP JUMPDEST JUMPDEST PUSH1 0x0 PUSH2 0xAB9 DUP5 DUP3 DUP6 ADD PUSH2 0xA13 JUMP JUMPDEST SWAP2 POP POP SWAP3 SWAP2 POP POP JUMP JUMPDEST PUSH1 0x0 DUP1 PUSH1 0x40 DUP4 DUP6 SUB SLT ISZERO PUSH2 0xAD9 JUMPI PUSH2 0xAD8 PUSH2 0xF09 JUMP JUMPDEST JUMPDEST PUSH1 0x0 PUSH2 0xAE7 DUP6 DUP3 DUP7 ADD PUSH2 0xA13 JUMP JUMPDEST SWAP3 POP POP PUSH1 0x20 PUSH2 0xAF8 DUP6 DUP3 DUP7 ADD PUSH2 0xA13 JUMP JUMPDEST SWAP2 POP POP SWAP3 POP SWAP3 SWAP1 POP JUMP JUMPDEST PUSH2 0xB0B DUP2 PUSH2 0xE51 JUMP JUMPDEST DUP3 MSTORE POP POP JUMP JUMPDEST PUSH1 0x0 PUSH2 0xB1E PUSH1 0x26 DUP4 PUSH2 0xD2B JUMP JUMPDEST SWAP2 POP PUSH2 0xB29 DUP3 PUSH2 0xF0E JUMP JUMPDEST PUSH1 0x40 DUP3 ADD SWAP1 POP SWAP2 SWAP1 POP JUMP JUMPDEST PUSH1 0x0 PUSH2 0xB41 PUSH1 0x3A DUP4 PUSH2 0xD2B JUMP JUMPDEST SWAP2 POP PUSH2 0xB4C DUP3 PUSH2 0xF5D JUMP JUMPDEST PUSH1 0x40 DUP3 ADD SWAP1 POP SWAP2 SWAP1 POP JUMP JUMPDEST PUSH1 0x0 PUSH2 0xB64 PUSH1 0x1D DUP4 PUSH2 0xD2B JUMP JUMPDEST SWAP2 POP PUSH2 0xB6F DUP3 PUSH2 0xFAC JUMP JUMPDEST PUSH1 0x20 DUP3 ADD SWAP1 POP SWAP2 SWAP1 POP JUMP JUMPDEST PUSH1 0x0 PUSH2 0xB87 PUSH1 0x1C DUP4 PUSH2 0xD2B JUMP JUMPDEST SWAP2 POP PUSH2 0xB92 DUP3 PUSH2 0xFD5 JUMP JUMPDEST PUSH1 0x20 DUP3 ADD SWAP1 POP SWAP2 SWAP1 POP JUMP JUMPDEST PUSH1 0x0 PUSH2 0xBAA PUSH1 0x20 DUP4 PUSH2 0xD2B JUMP JUMPDEST SWAP2 POP PUSH2 0xBB5 DUP3 PUSH2 0xFFE JUMP JUMPDEST PUSH1 0x20 DUP3 ADD SWAP1 POP SWAP2 SWAP1 POP JUMP JUMPDEST PUSH1 0x0 PUSH2 0xBCD PUSH1 0x0 DUP4 PUSH2 0xD20 JUMP JUMPDEST SWAP2 POP PUSH2 0xBD8 DUP3 PUSH2 0x1027 JUMP JUMPDEST PUSH1 0x0 DUP3 ADD SWAP1 POP SWAP2 SWAP1 POP JUMP JUMPDEST PUSH1 0x0 PUSH2 0xBF0 PUSH1 0x17 DUP4 PUSH2 0xD2B JUMP JUMPDEST SWAP2 POP PUSH2 0xBFB DUP3 PUSH2 0x102A JUMP JUMPDEST PUSH1 0x20 DUP3 ADD SWAP1 POP SWAP2 SWAP1 POP JUMP JUMPDEST PUSH2 0xC0F DUP2 PUSH2 0xEA1 JUMP JUMPDEST DUP3 MSTORE POP POP JUMP JUMPDEST PUSH1 0x0 PUSH2 0xC20 DUP3 PUSH2 0xBC0 JUMP JUMPDEST SWAP2 POP DUP2 SWAP1 POP SWAP2 SWAP1 POP JUMP JUMPDEST PUSH1 0x0 PUSH1 0x20 DUP3 ADD SWAP1 POP PUSH2 0xC3F PUSH1 0x0 DUP4 ADD DUP5 PUSH2 0xB02 JUMP JUMPDEST SWAP3 SWAP2 POP POP JUMP JUMPDEST PUSH1 0x0 PUSH1 0x20 DUP3 ADD SWAP1 POP DUP2 DUP2 SUB PUSH1 0x0 DUP4 ADD MSTORE PUSH2 0xC5E DUP2 PUSH2 0xB11 JUMP JUMPDEST SWAP1 POP SWAP2 SWAP1 POP JUMP JUMPDEST PUSH1 0x0 PUSH1 0x20 DUP3 ADD SWAP1 POP DUP2 DUP2 SUB PUSH1 0x0 DUP4 ADD MSTORE PUSH2 0xC7E DUP2 PUSH2 0xB34 JUMP JUMPDEST SWAP1 POP SWAP2 SWAP1 POP JUMP JUMPDEST PUSH1 0x0 PUSH1 0x20 DUP3 ADD SWAP1 POP DUP2 DUP2 SUB PUSH1 0x0 DUP4 ADD MSTORE PUSH2 0xC9E DUP2 PUSH2 0xB57 JUMP JUMPDEST SWAP1 POP SWAP2 SWAP1 POP JUMP JUMPDEST PUSH1 0x0 PUSH1 0x20 DUP3 ADD SWAP1 POP DUP2 DUP2 SUB PUSH1 0x0 DUP4 ADD MSTORE PUSH2 0xCBE DUP2 PUSH2 0xB7A JUMP JUMPDEST SWAP1 POP SWAP2 SWAP1 POP JUMP JUMPDEST PUSH1 0x0 PUSH1 0x20 DUP3 ADD SWAP1 POP DUP2 DUP2 SUB PUSH1 0x0 DUP4 ADD MSTORE PUSH2 0xCDE DUP2 PUSH2 0xB9D JUMP JUMPDEST SWAP1 POP SWAP2 SWAP1 POP JUMP JUMPDEST PUSH1 0x0 PUSH1 0x20 DUP3 ADD SWAP1 POP DUP2 DUP2 SUB PUSH1 0x0 DUP4 ADD MSTORE PUSH2 0xCFE DUP2 PUSH2 0xBE3 JUMP JUMPDEST SWAP1 POP SWAP2 SWAP1 POP JUMP JUMPDEST PUSH1 0x0 PUSH1 0x20 DUP3 ADD SWAP1 POP PUSH2 0xD1A PUSH1 0x0 DUP4 ADD DUP5 PUSH2 0xC06 JUMP JUMPDEST SWAP3 SWAP2 POP POP JUMP JUMPDEST PUSH1 0x0 DUP2 SWAP1 POP SWAP3 SWAP2 POP POP JUMP JUMPDEST PUSH1 0x0 DUP3 DUP3 MSTORE PUSH1 0x20 DUP3 ADD SWAP1 POP SWAP3 SWAP2 POP POP JUMP JUMPDEST PUSH1 0x0 PUSH2 0xD47 DUP3 PUSH2 0xEA1 JUMP JUMPDEST SWAP2 POP PUSH2 0xD52 DUP4 PUSH2 0xEA1 JUMP JUMPDEST SWAP3 POP DUP3 PUSH32 0xFFFFFFFFFFFFFFFFFFFFFFFFFFFFFFFFFFFFFFFFFFFFFFFFFFFFFFFFFFFFFFFF SUB DUP3 GT ISZERO PUSH2 0xD87 JUMPI PUSH2 0xD86 PUSH2 0xEAB JUMP JUMPDEST JUMPDEST DUP3 DUP3 ADD SWAP1 POP SWAP3 SWAP2 POP POP JUMP JUMPDEST PUSH1 0x0 PUSH2 0xD9D DUP3 PUSH2 0xEA1 JUMP JUMPDEST SWAP2 POP PUSH2 0xDA8 DUP4 PUSH2 0xEA1 JUMP JUMPDEST SWAP3 POP DUP3 PUSH2 0xDB8 JUMPI PUSH2 0xDB7 PUSH2 0xEDA JUMP JUMPDEST JUMPDEST DUP3 DUP3 DIV SWAP1 POP SWAP3 SWAP2 POP POP JUMP JUMPDEST PUSH1 0x0 PUSH2 0xDCE DUP3 PUSH2 0xEA1 JUMP JUMPDEST SWAP2 POP PUSH2 0xDD9 DUP4 PUSH2 0xEA1 JUMP JUMPDEST SWAP3 POP DUP2 PUSH32 0xFFFFFFFFFFFFFFFFFFFFFFFFFFFFFFFFFFFFFFFFFFFFFFFFFFFFFFFFFFFFFFFF DIV DUP4 GT DUP3 ISZERO ISZERO AND ISZERO PUSH2 0xE12 JUMPI PUSH2 0xE11 PUSH2 0xEAB JUMP JUMPDEST JUMPDEST DUP3 DUP3 MUL SWAP1 POP SWAP3 SWAP2 POP POP JUMP JUMPDEST PUSH1 0x0 PUSH2 0xE28 DUP3 PUSH2 0xEA1 JUMP JUMPDEST SWAP2 POP PUSH2 0xE33 DUP4 PUSH2 0xEA1 JUMP JUMPDEST SWAP3 POP DUP3 DUP3 LT ISZERO PUSH2 0xE46 JUMPI PUSH2 0xE45 PUSH2 0xEAB JUMP JUMPDEST JUMPDEST DUP3 DUP3 SUB SWAP1 POP SWAP3 SWAP2 POP POP JUMP JUMPDEST PUSH1 0x0 PUSH2 0xE5C DUP3 PUSH2 0xE81 JUMP JUMPDEST SWAP1 POP SWAP2 SWAP1 POP JUMP JUMPDEST PUSH1 0x0 PUSH2 0xE6E DUP3 PUSH2 0xE81 JUMP JUMPDEST SWAP1 POP SWAP2 SWAP1 POP JUMP JUMPDEST PUSH1 0x0 DUP2 ISZERO ISZERO SWAP1 POP SWAP2 SWAP1 POP JUMP JUMPDEST PUSH1 0x0 PUSH20 0xFFFFFFFFFFFFFFFFFFFFFFFFFFFFFFFFFFFFFFFF DUP3 AND SWAP1 POP SWAP2 SWAP1 POP JUMP JUMPDEST PUSH1 0x0 DUP2 SWAP1 POP SWAP2 SWAP1 POP JUMP JUMPDEST PUSH32 0x4E487B7100000000000000000000000000000000000000000000000000000000 PUSH1 0x0 MSTORE PUSH1 0x11 PUSH1 0x4 MSTORE PUSH1 0x24 PUSH1 0x0 REVERT JUMPDEST PUSH32 0x4E487B7100000000000000000000000000000000000000000000000000000000 PUSH1 0x0 MSTORE PUSH1 0x12 PUSH1 0x4 MSTORE PUSH1 0x24 PUSH1 0x0 REVERT JUMPDEST PUSH1 0x0 DUP1 REVERT JUMPDEST PUSH32 0x4F776E61626C653A206E6577206F776E657220697320746865207A65726F2061 PUSH1 0x0 DUP3 ADD MSTORE PUSH32 0x6464726573730000000000000000000000000000000000000000000000000000 PUSH1 0x20 DUP3 ADD MSTORE POP JUMP JUMPDEST PUSH32 0x416464726573733A20756E61626C6520746F2073656E642076616C75652C2072 PUSH1 0x0 DUP3 ADD MSTORE PUSH32 0x6563697069656E74206D61792068617665207265766572746564000000000000 PUSH1 0x20 DUP3 ADD MSTORE POP JUMP JUMPDEST PUSH32 0x416464726573733A20696E73756666696369656E742062616C616E6365000000 PUSH1 0x0 DUP3 ADD MSTORE POP JUMP JUMPDEST PUSH32 0x63616C6C6572206973206E6F742074686520636F6E74726163746F7200000000 PUSH1 0x0 DUP3 ADD MSTORE POP JUMP JUMPDEST PUSH32 0x4F776E61626C653A2063616C6C6572206973206E6F7420746865206F776E6572 PUSH1 0x0 DUP3 ADD MSTORE POP JUMP JUMPDEST POP JUMP JUMPDEST PUSH32 0x63616C6C6572206973206E6F74207468652061646D696E000000000000000000 PUSH1 0x0 DUP3 ADD MSTORE POP JUMP JUMPDEST PUSH2 0x105C DUP2 PUSH2 0xE51 JUMP JUMPDEST DUP2 EQ PUSH2 0x1067 JUMPI PUSH1 0x0 DUP1 REVERT JUMPDEST POP JUMP JUMPDEST PUSH2 0x1073 DUP2 PUSH2 0xE63 JUMP JUMPDEST DUP2 EQ PUSH2 0x107E JUMPI PUSH1 0x0 DUP1 REVERT JUMPDEST POP JUMP JUMPDEST PUSH2 0x108A DUP2 PUSH2 0xE75 JUMP JUMPDEST DUP2 EQ PUSH2 0x1095 JUMPI PUSH1 0x0 DUP1 REVERT JUMPDEST POP JUMP INVALID LOG2 PUSH5 0x6970667358 0x22 SLT KECCAK256 GT 0x2D 0xE7 LT SWAP6 PUSH21 0x4E3C5E20F982FC401D497484B6D63AFC979F9B5FF5 0xB2 NUMBER 0xE7 CODECOPY CODESIZE PUSH5 0x736F6C6343 STOP ADDMOD SMOD STOP CALLER "
				},
				"gasEstimates": {
					"creation": {
						"codeDepositCost": "860400",
						"executionCost": "infinite",
						"totalCost": "infinite"
					},
					"external": {
						"adminResolutionStatus(bool,bool)": "infinite",
						"deposit(address,address)": "infinite",
						"owner()": "2589",
						"renounceOwnership()": "30443",
						"taskCompletionStatus(bool)": "26896",
						"taskValidationStatus(bool)": "infinite",
						"testPayment()": "infinite",
						"transferOwnership(address)": "30791"
					},
					"internal": {
						"_checkAdmin()": "infinite",
						"_checkContractor()": "infinite"
					}
				},
				"methodIdentifiers": {
					"adminResolutionStatus(bool,bool)": "11571f30",
					"deposit(address,address)": "f9609f08",
					"owner()": "8da5cb5b",
					"renounceOwnership()": "715018a6",
					"taskCompletionStatus(bool)": "251d8cd5",
					"taskValidationStatus(bool)": "9464c8b8",
					"testPayment()": "b0568eaa",
					"transferOwnership(address)": "f2fde38b"
				}
			},
			"storageLayout": {
				"storage": [
					{
						"astId": 7,
						"contract": "contracts/Escrow.sol:Escrow",
						"label": "_owner",
						"offset": 0,
						"slot": "0",
						"type": "t_address"
					},
					{
						"astId": 446,
						"contract": "contracts/Escrow.sol:Escrow",
						"label": "contractor",
						"offset": 0,
						"slot": "1",
						"type": "t_address_payable"
					},
					{
						"astId": 448,
						"contract": "contracts/Escrow.sol:Escrow",
						"label": "client",
						"offset": 0,
						"slot": "2",
						"type": "t_address_payable"
					},
					{
						"astId": 450,
						"contract": "contracts/Escrow.sol:Escrow",
						"label": "admin",
						"offset": 0,
						"slot": "3",
						"type": "t_address_payable"
					},
					{
						"astId": 454,
						"contract": "contracts/Escrow.sol:Escrow",
						"label": "_deposits",
						"offset": 0,
						"slot": "4",
						"type": "t_mapping(t_address,t_uint256)"
					},
					{
						"astId": 498,
						"contract": "contracts/Escrow.sol:Escrow",
						"label": "taskCompleted",
						"offset": 0,
						"slot": "5",
						"type": "t_bool"
					},
					{
						"astId": 500,
						"contract": "contracts/Escrow.sol:Escrow",
						"label": "taskValidated",
						"offset": 1,
						"slot": "5",
						"type": "t_bool"
					},
					{
						"astId": 502,
						"contract": "contracts/Escrow.sol:Escrow",
						"label": "adminResolution",
						"offset": 2,
						"slot": "5",
						"type": "t_bool"
					},
					{
						"astId": 504,
						"contract": "contracts/Escrow.sol:Escrow",
						"label": "adminPayContractor",
						"offset": 3,
						"slot": "5",
						"type": "t_bool"
					}
				],
				"types": {
					"t_address": {
						"encoding": "inplace",
						"label": "address",
						"numberOfBytes": "20"
					},
					"t_address_payable": {
						"encoding": "inplace",
						"label": "address payable",
						"numberOfBytes": "20"
					},
					"t_bool": {
						"encoding": "inplace",
						"label": "bool",
						"numberOfBytes": "1"
					},
					"t_mapping(t_address,t_uint256)": {
						"encoding": "mapping",
						"key": "t_address",
						"label": "mapping(address => uint256)",
						"numberOfBytes": "32",
						"value": "t_uint256"
					},
					"t_uint256": {
						"encoding": "inplace",
						"label": "uint256",
						"numberOfBytes": "32"
					}
				}
			},
			"userdoc": {
				"kind": "user",
				"methods": {},
				"version": 1
			}
		}
	}
}