{
	"contracts/Escrow.sol": {
		"Escrow": {
			"abi": [
				{
					"anonymous": false,
					"inputs": [
						{
							"indexed": true,
							"internalType": "address",
							"name": "payee",
							"type": "address"
						},
						{
							"indexed": false,
							"internalType": "uint256",
							"name": "weiAmount",
							"type": "uint256"
						}
					],
					"name": "Deposited",
					"type": "event"
				},
				{
					"anonymous": false,
					"inputs": [
						{
							"indexed": true,
							"internalType": "address",
							"name": "previousOwner",
							"type": "address"
						},
						{
							"indexed": true,
							"internalType": "address",
							"name": "newOwner",
							"type": "address"
						}
					],
					"name": "OwnershipTransferred",
					"type": "event"
				},
				{
					"inputs": [],
					"name": "admin",
					"outputs": [
						{
							"internalType": "address payable",
							"name": "",
							"type": "address"
						}
					],
					"stateMutability": "view",
					"type": "function"
				},
				{
					"inputs": [
						{
							"internalType": "bool",
							"name": "inputAdminResolution",
							"type": "bool"
						},
						{
							"internalType": "uint256",
							"name": "inputAdminDecision",
							"type": "uint256"
						}
					],
					"name": "adminResolutionStatus",
					"outputs": [],
					"stateMutability": "nonpayable",
					"type": "function"
				},
				{
					"inputs": [],
					"name": "client",
					"outputs": [
						{
							"internalType": "address",
							"name": "",
							"type": "address"
						}
					],
					"stateMutability": "view",
					"type": "function"
				},
				{
					"inputs": [],
					"name": "contractor",
					"outputs": [
						{
							"internalType": "address payable",
							"name": "",
							"type": "address"
						}
					],
					"stateMutability": "view",
					"type": "function"
				},
				{
					"inputs": [
						{
							"internalType": "address payable",
							"name": "payee",
							"type": "address"
						},
						{
							"internalType": "address payable",
							"name": "broker",
							"type": "address"
						}
					],
					"name": "deposit",
					"outputs": [],
					"stateMutability": "payable",
					"type": "function"
				},
				{
					"inputs": [],
					"name": "owner",
					"outputs": [
						{
							"internalType": "address",
							"name": "",
							"type": "address"
						}
					],
					"stateMutability": "view",
					"type": "function"
				},
				{
					"inputs": [],
					"name": "renounceOwnership",
					"outputs": [],
					"stateMutability": "nonpayable",
					"type": "function"
				},
				{
					"inputs": [
						{
							"internalType": "bool",
							"name": "inputTaskCompleted",
							"type": "bool"
						}
					],
					"name": "taskCompletionStatus",
					"outputs": [],
					"stateMutability": "nonpayable",
					"type": "function"
				},
				{
					"inputs": [
						{
							"internalType": "bool",
							"name": "inputTaskValidated",
							"type": "bool"
						}
					],
					"name": "taskValidationStatus",
					"outputs": [],
					"stateMutability": "nonpayable",
					"type": "function"
				},
				{
					"inputs": [],
					"name": "testPayment",
					"outputs": [],
					"stateMutability": "nonpayable",
					"type": "function"
				},
				{
					"inputs": [
						{
							"internalType": "address",
							"name": "newOwner",
							"type": "address"
						}
					],
					"name": "transferOwnership",
					"outputs": [],
					"stateMutability": "nonpayable",
					"type": "function"
				},
				{
					"inputs": [],
					"name": "withdrawalAllowed",
					"outputs": [
						{
							"internalType": "bool",
							"name": "",
							"type": "bool"
						}
					],
					"stateMutability": "view",
					"type": "function"
				}
			],
			"devdoc": {
				"kind": "dev",
				"methods": {
					"owner()": {
						"details": "Returns the address of the current owner."
					},
					"renounceOwnership()": {
						"details": "Leaves the contract without owner. It will not be possible to call `onlyOwner` functions anymore. Can only be called by the current owner. NOTE: Renouncing ownership will leave the contract without an owner, thereby removing any functionality that is only available to the owner."
					},
					"transferOwnership(address)": {
						"details": "Transfers ownership of the contract to a new account (`newOwner`). Can only be called by the current owner."
					}
				},
				"version": 1
			},
			"evm": {
				"assembly": "    /* \"contracts/Escrow.sol\":238:3045  contract Escrow is Ownable {... */\n  mstore(0x40, 0x80)\n  callvalue\n  dup1\n  iszero\n  tag_1\n  jumpi\n  0x00\n  dup1\n  revert\ntag_1:\n  pop\n    /* \"@openzeppelin/contracts/access/Ownable.sol\":936:968  _transferOwnership(_msgSender()) */\n  tag_4\n    /* \"@openzeppelin/contracts/access/Ownable.sol\":955:967  _msgSender() */\n  tag_5\n    /* \"@openzeppelin/contracts/access/Ownable.sol\":955:965  _msgSender */\n  shl(0x20, tag_6)\n    /* \"@openzeppelin/contracts/access/Ownable.sol\":955:967  _msgSender() */\n  0x20\n  shr\n  jump\t// in\ntag_5:\n    /* \"@openzeppelin/contracts/access/Ownable.sol\":936:954  _transferOwnership */\n  shl(0x20, tag_7)\n    /* \"@openzeppelin/contracts/access/Ownable.sol\":936:968  _transferOwnership(_msgSender()) */\n  0x20\n  shr\n  jump\t// in\ntag_4:\n    /* \"contracts/Escrow.sol\":238:3045  contract Escrow is Ownable {... */\n  jump(tag_8)\n    /* \"@openzeppelin/contracts/utils/Context.sol\":640:736  function _msgSender() internal view virtual returns (address) {... */\ntag_6:\n    /* \"@openzeppelin/contracts/utils/Context.sol\":693:700  address */\n  0x00\n    /* \"@openzeppelin/contracts/utils/Context.sol\":719:729  msg.sender */\n  caller\n    /* \"@openzeppelin/contracts/utils/Context.sol\":712:729  return msg.sender */\n  swap1\n  pop\n    /* \"@openzeppelin/contracts/utils/Context.sol\":640:736  function _msgSender() internal view virtual returns (address) {... */\n  swap1\n  jump\t// out\n    /* \"@openzeppelin/contracts/access/Ownable.sol\":2433:2620  function _transferOwnership(address newOwner) internal virtual {... */\ntag_7:\n    /* \"@openzeppelin/contracts/access/Ownable.sol\":2506:2522  address oldOwner */\n  0x00\n    /* \"@openzeppelin/contracts/access/Ownable.sol\":2525:2531  _owner */\n  dup1\n  0x00\n  swap1\n  sload\n  swap1\n  0x0100\n  exp\n  swap1\n  div\n  0xffffffffffffffffffffffffffffffffffffffff\n  and\n    /* \"@openzeppelin/contracts/access/Ownable.sol\":2506:2531  address oldOwner = _owner */\n  swap1\n  pop\n    /* \"@openzeppelin/contracts/access/Ownable.sol\":2550:2558  newOwner */\n  dup2\n    /* \"@openzeppelin/contracts/access/Ownable.sol\":2541:2547  _owner */\n  0x00\n  dup1\n    /* \"@openzeppelin/contracts/access/Ownable.sol\":2541:2558  _owner = newOwner */\n  0x0100\n  exp\n  dup2\n  sload\n  dup2\n  0xffffffffffffffffffffffffffffffffffffffff\n  mul\n  not\n  and\n  swap1\n  dup4\n  0xffffffffffffffffffffffffffffffffffffffff\n  and\n  mul\n  or\n  swap1\n  sstore\n  pop\n    /* \"@openzeppelin/contracts/access/Ownable.sol\":2604:2612  newOwner */\n  dup2\n    /* \"@openzeppelin/contracts/access/Ownable.sol\":2573:2613  OwnershipTransferred(oldOwner, newOwner) */\n  0xffffffffffffffffffffffffffffffffffffffff\n  and\n    /* \"@openzeppelin/contracts/access/Ownable.sol\":2594:2602  oldOwner */\n  dup2\n    /* \"@openzeppelin/contracts/access/Ownable.sol\":2573:2613  OwnershipTransferred(oldOwner, newOwner) */\n  0xffffffffffffffffffffffffffffffffffffffff\n  and\n  0x8be0079c531659141344cd1fd0a4f28419497f9722a3daafe3b4186f6b6457e0\n  mload(0x40)\n  mload(0x40)\n  dup1\n  swap2\n  sub\n  swap1\n  log3\n    /* \"@openzeppelin/contracts/access/Ownable.sol\":2496:2620  {... */\n  pop\n    /* \"@openzeppelin/contracts/access/Ownable.sol\":2433:2620  function _transferOwnership(address newOwner) internal virtual {... */\n  pop\n  jump\t// out\n    /* \"contracts/Escrow.sol\":238:3045  contract Escrow is Ownable {... */\ntag_8:\n  dataSize(sub_0)\n  dup1\n  dataOffset(sub_0)\n  0x00\n  codecopy\n  0x00\n  return\nstop\n\nsub_0: assembly {\n        /* \"contracts/Escrow.sol\":238:3045  contract Escrow is Ownable {... */\n      mstore(0x40, 0x80)\n      jumpi(tag_1, lt(calldatasize, 0x04))\n      shr(0xe0, calldataload(0x00))\n      dup1\n      0xa1d19361\n      gt\n      tag_14\n      jumpi\n      dup1\n      0xa1d19361\n      eq\n      tag_8\n      jumpi\n      dup1\n      0xb0568eaa\n      eq\n      tag_9\n      jumpi\n      dup1\n      0xf2fde38b\n      eq\n      tag_10\n      jumpi\n      dup1\n      0xf851a440\n      eq\n      tag_11\n      jumpi\n      dup1\n      0xf9609f08\n      eq\n      tag_12\n      jumpi\n      dup1\n      0xfbfd2045\n      eq\n      tag_13\n      jumpi\n      jump(tag_1)\n    tag_14:\n      dup1\n      0x109e94cf\n      eq\n      tag_2\n      jumpi\n      dup1\n      0x251d8cd5\n      eq\n      tag_3\n      jumpi\n      dup1\n      0x5e32c425\n      eq\n      tag_4\n      jumpi\n      dup1\n      0x715018a6\n      eq\n      tag_5\n      jumpi\n      dup1\n      0x8da5cb5b\n      eq\n      tag_6\n      jumpi\n      dup1\n      0x9464c8b8\n      eq\n      tag_7\n      jumpi\n    tag_1:\n      0x00\n      dup1\n      revert\n        /* \"contracts/Escrow.sol\":453:474  address public client */\n    tag_2:\n      callvalue\n      dup1\n      iszero\n      tag_15\n      jumpi\n      0x00\n      dup1\n      revert\n    tag_15:\n      pop\n      tag_16\n      tag_17\n      jump\t// in\n    tag_16:\n      mload(0x40)\n      tag_18\n      swap2\n      swap1\n      tag_19\n      jump\t// in\n    tag_18:\n      mload(0x40)\n      dup1\n      swap2\n      sub\n      swap1\n      return\n        /* \"contracts/Escrow.sol\":1763:1879  function taskCompletionStatus(bool inputTaskCompleted) public virtual{... */\n    tag_3:\n      callvalue\n      dup1\n      iszero\n      tag_20\n      jumpi\n      0x00\n      dup1\n      revert\n    tag_20:\n      pop\n      tag_21\n      0x04\n      dup1\n      calldatasize\n      sub\n      dup2\n      add\n      swap1\n      tag_22\n      swap2\n      swap1\n      tag_23\n      jump\t// in\n    tag_22:\n      tag_24\n      jump\t// in\n    tag_21:\n      stop\n        /* \"contracts/Escrow.sol\":1444:1635  function adminResolutionStatus(bool inputAdminResolution, uint256 inputAdminDecision) public virtual{... */\n    tag_4:\n      callvalue\n      dup1\n      iszero\n      tag_25\n      jumpi\n      0x00\n      dup1\n      revert\n    tag_25:\n      pop\n      tag_26\n      0x04\n      dup1\n      calldatasize\n      sub\n      dup2\n      add\n      swap1\n      tag_27\n      swap2\n      swap1\n      tag_28\n      jump\t// in\n    tag_27:\n      tag_29\n      jump\t// in\n    tag_26:\n      stop\n        /* \"@openzeppelin/contracts/access/Ownable.sol\":1831:1932  function renounceOwnership() public virtual onlyOwner {... */\n    tag_5:\n      callvalue\n      dup1\n      iszero\n      tag_30\n      jumpi\n      0x00\n      dup1\n      revert\n    tag_30:\n      pop\n      tag_31\n      tag_32\n      jump\t// in\n    tag_31:\n      stop\n        /* \"@openzeppelin/contracts/access/Ownable.sol\":1201:1286  function owner() public view virtual returns (address) {... */\n    tag_6:\n      callvalue\n      dup1\n      iszero\n      tag_33\n      jumpi\n      0x00\n      dup1\n      revert\n    tag_33:\n      pop\n      tag_34\n      tag_35\n      jump\t// in\n    tag_34:\n      mload(0x40)\n      tag_36\n      swap2\n      swap1\n      tag_19\n      jump\t// in\n    tag_36:\n      mload(0x40)\n      dup1\n      swap2\n      sub\n      swap1\n      return\n        /* \"contracts/Escrow.sol\":1641:1757  function taskValidationStatus(bool inputTaskValidated) public virtual{... */\n    tag_7:\n      callvalue\n      dup1\n      iszero\n      tag_37\n      jumpi\n      0x00\n      dup1\n      revert\n    tag_37:\n      pop\n      tag_38\n      0x04\n      dup1\n      calldatasize\n      sub\n      dup2\n      add\n      swap1\n      tag_39\n      swap2\n      swap1\n      tag_23\n      jump\t// in\n    tag_39:\n      tag_40\n      jump\t// in\n    tag_38:\n      stop\n        /* \"contracts/Escrow.sol\":1887:2136  function withdrawalAllowed() public view virtual returns (bool){... */\n    tag_8:\n      callvalue\n      dup1\n      iszero\n      tag_41\n      jumpi\n      0x00\n      dup1\n      revert\n    tag_41:\n      pop\n      tag_42\n      tag_43\n      jump\t// in\n    tag_42:\n      mload(0x40)\n      tag_44\n      swap2\n      swap1\n      tag_45\n      jump\t// in\n    tag_44:\n      mload(0x40)\n      dup1\n      swap2\n      sub\n      swap1\n      return\n        /* \"contracts/Escrow.sol\":2146:2509  function testPayment() public virtual{... */\n    tag_9:\n      callvalue\n      dup1\n      iszero\n      tag_46\n      jumpi\n      0x00\n      dup1\n      revert\n    tag_46:\n      pop\n      tag_47\n      tag_48\n      jump\t// in\n    tag_47:\n      stop\n        /* \"@openzeppelin/contracts/access/Ownable.sol\":2081:2279  function transferOwnership(address newOwner) public virtual onlyOwner {... */\n    tag_10:\n      callvalue\n      dup1\n      iszero\n      tag_49\n      jumpi\n      0x00\n      dup1\n      revert\n    tag_49:\n      pop\n      tag_50\n      0x04\n      dup1\n      calldatasize\n      sub\n      dup2\n      add\n      swap1\n      tag_51\n      swap2\n      swap1\n      tag_52\n      jump\t// in\n    tag_51:\n      tag_53\n      jump\t// in\n    tag_50:\n      stop\n        /* \"contracts/Escrow.sol\":480:508  address payable public admin */\n    tag_11:\n      callvalue\n      dup1\n      iszero\n      tag_54\n      jumpi\n      0x00\n      dup1\n      revert\n    tag_54:\n      pop\n      tag_55\n      tag_56\n      jump\t// in\n    tag_55:\n      mload(0x40)\n      tag_57\n      swap2\n      swap1\n      tag_58\n      jump\t// in\n    tag_57:\n      mload(0x40)\n      dup1\n      swap2\n      sub\n      swap1\n      return\n        /* \"contracts/Escrow.sol\":664:958  function deposit(address payable payee, address payable broker) public payable virtual onlyOwner {... */\n    tag_12:\n      tag_59\n      0x04\n      dup1\n      calldatasize\n      sub\n      dup2\n      add\n      swap1\n      tag_60\n      swap2\n      swap1\n      tag_61\n      jump\t// in\n    tag_60:\n      tag_62\n      jump\t// in\n    tag_59:\n      stop\n        /* \"contracts/Escrow.sol\":414:447  address payable public contractor */\n    tag_13:\n      callvalue\n      dup1\n      iszero\n      tag_63\n      jumpi\n      0x00\n      dup1\n      revert\n    tag_63:\n      pop\n      tag_64\n      tag_65\n      jump\t// in\n    tag_64:\n      mload(0x40)\n      tag_66\n      swap2\n      swap1\n      tag_58\n      jump\t// in\n    tag_66:\n      mload(0x40)\n      dup1\n      swap2\n      sub\n      swap1\n      return\n        /* \"contracts/Escrow.sol\":453:474  address public client */\n    tag_17:\n      0x02\n      0x00\n      swap1\n      sload\n      swap1\n      0x0100\n      exp\n      swap1\n      div\n      0xffffffffffffffffffffffffffffffffffffffff\n      and\n      dup2\n      jump\t// out\n        /* \"contracts/Escrow.sol\":1763:1879  function taskCompletionStatus(bool inputTaskCompleted) public virtual{... */\n    tag_24:\n        /* \"contracts/Escrow.sol\":1854:1872  inputTaskCompleted */\n      dup1\n        /* \"contracts/Escrow.sol\":1838:1851  taskCompleted */\n      0x05\n      0x00\n        /* \"contracts/Escrow.sol\":1838:1872  taskCompleted = inputTaskCompleted */\n      0x0100\n      exp\n      dup2\n      sload\n      dup2\n      0xff\n      mul\n      not\n      and\n      swap1\n      dup4\n      iszero\n      iszero\n      mul\n      or\n      swap1\n      sstore\n      pop\n        /* \"contracts/Escrow.sol\":1763:1879  function taskCompletionStatus(bool inputTaskCompleted) public virtual{... */\n      pop\n      jump\t// out\n        /* \"contracts/Escrow.sol\":1444:1635  function adminResolutionStatus(bool inputAdminResolution, uint256 inputAdminDecision) public virtual{... */\n    tag_29:\n        /* \"contracts/Escrow.sol\":1568:1588  inputAdminResolution */\n      dup2\n        /* \"contracts/Escrow.sol\":1550:1565  adminResolution */\n      0x05\n      0x02\n        /* \"contracts/Escrow.sol\":1550:1588  adminResolution = inputAdminResolution */\n      0x0100\n      exp\n      dup2\n      sload\n      dup2\n      0xff\n      mul\n      not\n      and\n      swap1\n      dup4\n      iszero\n      iszero\n      mul\n      or\n      swap1\n      sstore\n      pop\n        /* \"contracts/Escrow.sol\":1610:1628  inputAdminDecision */\n      dup1\n        /* \"contracts/Escrow.sol\":1594:1607  adminDecision */\n      0x06\n        /* \"contracts/Escrow.sol\":1594:1628  adminDecision = inputAdminDecision */\n      dup2\n      swap1\n      sstore\n      pop\n        /* \"contracts/Escrow.sol\":1444:1635  function adminResolutionStatus(bool inputAdminResolution, uint256 inputAdminDecision) public virtual{... */\n      pop\n      pop\n      jump\t// out\n        /* \"@openzeppelin/contracts/access/Ownable.sol\":1831:1932  function renounceOwnership() public virtual onlyOwner {... */\n    tag_32:\n        /* \"@openzeppelin/contracts/access/Ownable.sol\":1094:1107  _checkOwner() */\n      tag_70\n        /* \"@openzeppelin/contracts/access/Ownable.sol\":1094:1105  _checkOwner */\n      tag_71\n        /* \"@openzeppelin/contracts/access/Ownable.sol\":1094:1107  _checkOwner() */\n      jump\t// in\n    tag_70:\n        /* \"@openzeppelin/contracts/access/Ownable.sol\":1895:1925  _transferOwnership(address(0)) */\n      tag_73\n        /* \"@openzeppelin/contracts/access/Ownable.sol\":1922:1923  0 */\n      0x00\n        /* \"@openzeppelin/contracts/access/Ownable.sol\":1895:1913  _transferOwnership */\n      tag_74\n        /* \"@openzeppelin/contracts/access/Ownable.sol\":1895:1925  _transferOwnership(address(0)) */\n      jump\t// in\n    tag_73:\n        /* \"@openzeppelin/contracts/access/Ownable.sol\":1831:1932  function renounceOwnership() public virtual onlyOwner {... */\n      jump\t// out\n        /* \"@openzeppelin/contracts/access/Ownable.sol\":1201:1286  function owner() public view virtual returns (address) {... */\n    tag_35:\n        /* \"@openzeppelin/contracts/access/Ownable.sol\":1247:1254  address */\n      0x00\n        /* \"@openzeppelin/contracts/access/Ownable.sol\":1273:1279  _owner */\n      dup1\n      0x00\n      swap1\n      sload\n      swap1\n      0x0100\n      exp\n      swap1\n      div\n      0xffffffffffffffffffffffffffffffffffffffff\n      and\n        /* \"@openzeppelin/contracts/access/Ownable.sol\":1266:1279  return _owner */\n      swap1\n      pop\n        /* \"@openzeppelin/contracts/access/Ownable.sol\":1201:1286  function owner() public view virtual returns (address) {... */\n      swap1\n      jump\t// out\n        /* \"contracts/Escrow.sol\":1641:1757  function taskValidationStatus(bool inputTaskValidated) public virtual{... */\n    tag_40:\n        /* \"contracts/Escrow.sol\":1732:1750  inputTaskValidated */\n      dup1\n        /* \"contracts/Escrow.sol\":1716:1729  taskValidated */\n      0x05\n      0x01\n        /* \"contracts/Escrow.sol\":1716:1750  taskValidated = inputTaskValidated */\n      0x0100\n      exp\n      dup2\n      sload\n      dup2\n      0xff\n      mul\n      not\n      and\n      swap1\n      dup4\n      iszero\n      iszero\n      mul\n      or\n      swap1\n      sstore\n      pop\n        /* \"contracts/Escrow.sol\":1641:1757  function taskValidationStatus(bool inputTaskValidated) public virtual{... */\n      pop\n      jump\t// out\n        /* \"contracts/Escrow.sol\":1887:2136  function withdrawalAllowed() public view virtual returns (bool){... */\n    tag_43:\n        /* \"contracts/Escrow.sol\":1945:1949  bool */\n      0x00\n        /* \"contracts/Escrow.sol\":1980:1984  true */\n      0x01\n        /* \"contracts/Escrow.sol\":1963:1984  taskCompleted == true */\n      iszero\n      iszero\n        /* \"contracts/Escrow.sol\":1963:1976  taskCompleted */\n      0x05\n      0x00\n      swap1\n      sload\n      swap1\n      0x0100\n      exp\n      swap1\n      div\n      0xff\n      and\n        /* \"contracts/Escrow.sol\":1963:1984  taskCompleted == true */\n      iszero\n      iszero\n      eq\n        /* \"contracts/Escrow.sol\":1963:2009  taskCompleted == true && taskValidated == true */\n      dup1\n      iszero\n      tag_78\n      jumpi\n      pop\n        /* \"contracts/Escrow.sol\":2005:2009  true */\n      0x01\n        /* \"contracts/Escrow.sol\":1988:2009  taskValidated == true */\n      iszero\n      iszero\n        /* \"contracts/Escrow.sol\":1988:2001  taskValidated */\n      0x05\n      0x01\n      swap1\n      sload\n      swap1\n      0x0100\n      exp\n      swap1\n      div\n      0xff\n      and\n        /* \"contracts/Escrow.sol\":1988:2009  taskValidated == true */\n      iszero\n      iszero\n      eq\n        /* \"contracts/Escrow.sol\":1963:2009  taskCompleted == true && taskValidated == true */\n    tag_78:\n        /* \"contracts/Escrow.sol\":1960:2130  if(taskCompleted == true && taskValidated == true){... */\n      iszero\n      tag_79\n      jumpi\n        /* \"contracts/Escrow.sol\":2031:2035  true */\n      0x01\n        /* \"contracts/Escrow.sol\":2024:2035  return true */\n      swap1\n      pop\n      jump(tag_77)\n        /* \"contracts/Escrow.sol\":1960:2130  if(taskCompleted == true && taskValidated == true){... */\n    tag_79:\n        /* \"contracts/Escrow.sol\":2082:2086  true */\n      0x01\n        /* \"contracts/Escrow.sol\":2063:2086  adminResolution == true */\n      iszero\n      iszero\n        /* \"contracts/Escrow.sol\":2063:2078  adminResolution */\n      0x05\n      0x02\n      swap1\n      sload\n      swap1\n      0x0100\n      exp\n      swap1\n      div\n      0xff\n      and\n        /* \"contracts/Escrow.sol\":2063:2086  adminResolution == true */\n      iszero\n      iszero\n      eq\n        /* \"contracts/Escrow.sol\":2060:2130  if(adminResolution == true){return true;}... */\n      iszero\n      tag_81\n      jumpi\n        /* \"contracts/Escrow.sol\":2095:2099  true */\n      0x01\n        /* \"contracts/Escrow.sol\":2088:2099  return true */\n      swap1\n      pop\n      jump(tag_77)\n        /* \"contracts/Escrow.sol\":2060:2130  if(adminResolution == true){return true;}... */\n    tag_81:\n        /* \"contracts/Escrow.sol\":2123:2128  false */\n      0x00\n        /* \"contracts/Escrow.sol\":2116:2128  return false */\n      swap1\n      pop\n        /* \"contracts/Escrow.sol\":1887:2136  function withdrawalAllowed() public view virtual returns (bool){... */\n    tag_77:\n      swap1\n      jump\t// out\n        /* \"contracts/Escrow.sol\":2146:2509  function testPayment() public virtual{... */\n    tag_48:\n        /* \"contracts/Escrow.sol\":2189:2204  uint256 payment */\n      0x00\n        /* \"contracts/Escrow.sol\":2207:2228  address(this).balance */\n      selfbalance\n        /* \"contracts/Escrow.sol\":2189:2228  uint256 payment = address(this).balance */\n      swap1\n      pop\n        /* \"contracts/Escrow.sol\":2264:2268  true */\n      0x01\n        /* \"contracts/Escrow.sol\":2247:2268  taskCompleted == true */\n      iszero\n      iszero\n        /* \"contracts/Escrow.sol\":2247:2260  taskCompleted */\n      0x05\n      0x00\n      swap1\n      sload\n      swap1\n      0x0100\n      exp\n      swap1\n      div\n      0xff\n      and\n        /* \"contracts/Escrow.sol\":2247:2268  taskCompleted == true */\n      iszero\n      iszero\n      eq\n        /* \"contracts/Escrow.sol\":2247:2293  taskCompleted == true && taskValidated == true */\n      dup1\n      iszero\n      tag_84\n      jumpi\n      pop\n        /* \"contracts/Escrow.sol\":2289:2293  true */\n      0x01\n        /* \"contracts/Escrow.sol\":2272:2293  taskValidated == true */\n      iszero\n      iszero\n        /* \"contracts/Escrow.sol\":2272:2285  taskValidated */\n      0x05\n      0x01\n      swap1\n      sload\n      swap1\n      0x0100\n      exp\n      swap1\n      div\n      0xff\n      and\n        /* \"contracts/Escrow.sol\":2272:2293  taskValidated == true */\n      iszero\n      iszero\n      eq\n        /* \"contracts/Escrow.sol\":2247:2293  taskCompleted == true && taskValidated == true */\n    tag_84:\n        /* \"contracts/Escrow.sol\":2246:2343  (taskCompleted == true && taskValidated == true)||(adminResolution == true && adminDecision == 1) */\n      dup1\n      tag_85\n      jumpi\n      pop\n        /* \"contracts/Escrow.sol\":2316:2320  true */\n      0x01\n        /* \"contracts/Escrow.sol\":2297:2320  adminResolution == true */\n      iszero\n      iszero\n        /* \"contracts/Escrow.sol\":2297:2312  adminResolution */\n      0x05\n      0x02\n      swap1\n      sload\n      swap1\n      0x0100\n      exp\n      swap1\n      div\n      0xff\n      and\n        /* \"contracts/Escrow.sol\":2297:2320  adminResolution == true */\n      iszero\n      iszero\n      eq\n        /* \"contracts/Escrow.sol\":2297:2342  adminResolution == true && adminDecision == 1 */\n      dup1\n      iszero\n      tag_86\n      jumpi\n      pop\n        /* \"contracts/Escrow.sol\":2341:2342  1 */\n      0x01\n        /* \"contracts/Escrow.sol\":2324:2337  adminDecision */\n      sload(0x06)\n        /* \"contracts/Escrow.sol\":2324:2342  adminDecision == 1 */\n      eq\n        /* \"contracts/Escrow.sol\":2297:2342  adminResolution == true && adminDecision == 1 */\n    tag_86:\n        /* \"contracts/Escrow.sol\":2246:2343  (taskCompleted == true && taskValidated == true)||(adminResolution == true && adminDecision == 1) */\n    tag_85:\n        /* \"contracts/Escrow.sol\":2243:2502  if((taskCompleted == true && taskValidated == true)||(adminResolution == true && adminDecision == 1)){... */\n      iszero\n      tag_87\n      jumpi\n        /* \"contracts/Escrow.sol\":2358:2387  contractor.sendValue(payment) */\n      tag_88\n        /* \"contracts/Escrow.sol\":2379:2386  payment */\n      dup2\n        /* \"contracts/Escrow.sol\":2358:2368  contractor */\n      0x01\n      0x00\n      swap1\n      sload\n      swap1\n      0x0100\n      exp\n      swap1\n      div\n      0xffffffffffffffffffffffffffffffffffffffff\n      and\n        /* \"contracts/Escrow.sol\":2358:2378  contractor.sendValue */\n      0xffffffffffffffffffffffffffffffffffffffff\n      and\n      tag_89\n      swap1\n        /* \"contracts/Escrow.sol\":2358:2387  contractor.sendValue(payment) */\n      swap2\n      swap1\n      0xffffffff\n      and\n      jump\t// in\n    tag_88:\n        /* \"contracts/Escrow.sol\":2243:2502  if((taskCompleted == true && taskValidated == true)||(adminResolution == true && adminDecision == 1)){... */\n      jump(tag_90)\n    tag_87:\n        /* \"contracts/Escrow.sol\":2434:2438  true */\n      0x01\n        /* \"contracts/Escrow.sol\":2415:2438  adminResolution == true */\n      iszero\n      iszero\n        /* \"contracts/Escrow.sol\":2415:2430  adminResolution */\n      0x05\n      0x02\n      swap1\n      sload\n      swap1\n      0x0100\n      exp\n      swap1\n      div\n      0xff\n      and\n        /* \"contracts/Escrow.sol\":2415:2438  adminResolution == true */\n      iszero\n      iszero\n      eq\n        /* \"contracts/Escrow.sol\":2415:2460  adminResolution == true && adminDecision == 0 */\n      dup1\n      iszero\n      tag_91\n      jumpi\n      pop\n        /* \"contracts/Escrow.sol\":2459:2460  0 */\n      0x00\n        /* \"contracts/Escrow.sol\":2442:2455  adminDecision */\n      sload(0x06)\n        /* \"contracts/Escrow.sol\":2442:2460  adminDecision == 0 */\n      eq\n        /* \"contracts/Escrow.sol\":2415:2460  adminResolution == true && adminDecision == 0 */\n    tag_91:\n        /* \"contracts/Escrow.sol\":2412:2502  if(adminResolution == true && adminDecision == 0){... */\n      pop\n        /* \"contracts/Escrow.sol\":2243:2502  if((taskCompleted == true && taskValidated == true)||(adminResolution == true && adminDecision == 1)){... */\n    tag_90:\n        /* \"contracts/Escrow.sol\":2183:2509  {... */\n      pop\n        /* \"contracts/Escrow.sol\":2146:2509  function testPayment() public virtual{... */\n      jump\t// out\n        /* \"@openzeppelin/contracts/access/Ownable.sol\":2081:2279  function transferOwnership(address newOwner) public virtual onlyOwner {... */\n    tag_53:\n        /* \"@openzeppelin/contracts/access/Ownable.sol\":1094:1107  _checkOwner() */\n      tag_94\n        /* \"@openzeppelin/contracts/access/Ownable.sol\":1094:1105  _checkOwner */\n      tag_71\n        /* \"@openzeppelin/contracts/access/Ownable.sol\":1094:1107  _checkOwner() */\n      jump\t// in\n    tag_94:\n        /* \"@openzeppelin/contracts/access/Ownable.sol\":2189:2190  0 */\n      0x00\n        /* \"@openzeppelin/contracts/access/Ownable.sol\":2169:2191  newOwner != address(0) */\n      0xffffffffffffffffffffffffffffffffffffffff\n      and\n        /* \"@openzeppelin/contracts/access/Ownable.sol\":2169:2177  newOwner */\n      dup2\n        /* \"@openzeppelin/contracts/access/Ownable.sol\":2169:2191  newOwner != address(0) */\n      0xffffffffffffffffffffffffffffffffffffffff\n      and\n      eq\n      iszero\n        /* \"@openzeppelin/contracts/access/Ownable.sol\":2161:2234  require(newOwner != address(0), \"Ownable: new owner is the zero address\") */\n      tag_96\n      jumpi\n      mload(0x40)\n      0x08c379a000000000000000000000000000000000000000000000000000000000\n      dup2\n      mstore\n      0x04\n      add\n      tag_97\n      swap1\n      tag_98\n      jump\t// in\n    tag_97:\n      mload(0x40)\n      dup1\n      swap2\n      sub\n      swap1\n      revert\n    tag_96:\n        /* \"@openzeppelin/contracts/access/Ownable.sol\":2244:2272  _transferOwnership(newOwner) */\n      tag_99\n        /* \"@openzeppelin/contracts/access/Ownable.sol\":2263:2271  newOwner */\n      dup2\n        /* \"@openzeppelin/contracts/access/Ownable.sol\":2244:2262  _transferOwnership */\n      tag_74\n        /* \"@openzeppelin/contracts/access/Ownable.sol\":2244:2272  _transferOwnership(newOwner) */\n      jump\t// in\n    tag_99:\n        /* \"@openzeppelin/contracts/access/Ownable.sol\":2081:2279  function transferOwnership(address newOwner) public virtual onlyOwner {... */\n      pop\n      jump\t// out\n        /* \"contracts/Escrow.sol\":480:508  address payable public admin */\n    tag_56:\n      0x03\n      0x00\n      swap1\n      sload\n      swap1\n      0x0100\n      exp\n      swap1\n      div\n      0xffffffffffffffffffffffffffffffffffffffff\n      and\n      dup2\n      jump\t// out\n        /* \"contracts/Escrow.sol\":664:958  function deposit(address payable payee, address payable broker) public payable virtual onlyOwner {... */\n    tag_62:\n        /* \"@openzeppelin/contracts/access/Ownable.sol\":1094:1107  _checkOwner() */\n      tag_101\n        /* \"@openzeppelin/contracts/access/Ownable.sol\":1094:1105  _checkOwner */\n      tag_71\n        /* \"@openzeppelin/contracts/access/Ownable.sol\":1094:1107  _checkOwner() */\n      jump\t// in\n    tag_101:\n        /* \"contracts/Escrow.sol\":784:789  payee */\n      dup2\n        /* \"contracts/Escrow.sol\":771:781  contractor */\n      0x01\n      0x00\n        /* \"contracts/Escrow.sol\":771:789  contractor = payee */\n      0x0100\n      exp\n      dup2\n      sload\n      dup2\n      0xffffffffffffffffffffffffffffffffffffffff\n      mul\n      not\n      and\n      swap1\n      dup4\n      0xffffffffffffffffffffffffffffffffffffffff\n      and\n      mul\n      or\n      swap1\n      sstore\n      pop\n        /* \"contracts/Escrow.sol\":806:816  msg.sender */\n      caller\n        /* \"contracts/Escrow.sol\":799:805  client */\n      0x02\n      0x00\n        /* \"contracts/Escrow.sol\":799:816  client=msg.sender */\n      0x0100\n      exp\n      dup2\n      sload\n      dup2\n      0xffffffffffffffffffffffffffffffffffffffff\n      mul\n      not\n      and\n      swap1\n      dup4\n      0xffffffffffffffffffffffffffffffffffffffff\n      and\n      mul\n      or\n      swap1\n      sstore\n      pop\n        /* \"contracts/Escrow.sol\":834:840  broker */\n      dup1\n        /* \"contracts/Escrow.sol\":826:831  admin */\n      0x03\n      0x00\n        /* \"contracts/Escrow.sol\":826:840  admin = broker */\n      0x0100\n      exp\n      dup2\n      sload\n      dup2\n      0xffffffffffffffffffffffffffffffffffffffff\n      mul\n      not\n      and\n      swap1\n      dup4\n      0xffffffffffffffffffffffffffffffffffffffff\n      and\n      mul\n      or\n      swap1\n      sstore\n      pop\n        /* \"contracts/Escrow.sol\":850:864  uint256 amount */\n      0x00\n        /* \"contracts/Escrow.sol\":867:876  msg.value */\n      callvalue\n        /* \"contracts/Escrow.sol\":850:876  uint256 amount = msg.value */\n      swap1\n      pop\n        /* \"contracts/Escrow.sol\":906:912  amount */\n      dup1\n        /* \"contracts/Escrow.sol\":886:895  _deposits */\n      0x04\n        /* \"contracts/Escrow.sol\":886:902  _deposits[payee] */\n      0x00\n        /* \"contracts/Escrow.sol\":896:901  payee */\n      dup6\n        /* \"contracts/Escrow.sol\":886:902  _deposits[payee] */\n      0xffffffffffffffffffffffffffffffffffffffff\n      and\n      0xffffffffffffffffffffffffffffffffffffffff\n      and\n      dup2\n      mstore\n      0x20\n      add\n      swap1\n      dup2\n      mstore\n      0x20\n      add\n      0x00\n      keccak256\n      0x00\n        /* \"contracts/Escrow.sol\":886:912  _deposits[payee] += amount */\n      dup3\n      dup3\n      sload\n      tag_103\n      swap2\n      swap1\n      tag_104\n      jump\t// in\n    tag_103:\n      swap3\n      pop\n      pop\n      dup2\n      swap1\n      sstore\n      pop\n        /* \"contracts/Escrow.sol\":937:942  payee */\n      dup3\n        /* \"contracts/Escrow.sol\":927:951  Deposited(payee, amount) */\n      0xffffffffffffffffffffffffffffffffffffffff\n      and\n      0x2da466a7b24304f47e87fa2e1e5a81b9831ce54fec19055ce277ca2f39ba42c4\n        /* \"contracts/Escrow.sol\":944:950  amount */\n      dup3\n        /* \"contracts/Escrow.sol\":927:951  Deposited(payee, amount) */\n      mload(0x40)\n      tag_105\n      swap2\n      swap1\n      tag_106\n      jump\t// in\n    tag_105:\n      mload(0x40)\n      dup1\n      swap2\n      sub\n      swap1\n      log2\n        /* \"contracts/Escrow.sol\":761:958  {... */\n      pop\n        /* \"contracts/Escrow.sol\":664:958  function deposit(address payable payee, address payable broker) public payable virtual onlyOwner {... */\n      pop\n      pop\n      jump\t// out\n        /* \"contracts/Escrow.sol\":414:447  address payable public contractor */\n    tag_65:\n      0x01\n      0x00\n      swap1\n      sload\n      swap1\n      0x0100\n      exp\n      swap1\n      div\n      0xffffffffffffffffffffffffffffffffffffffff\n      and\n      dup2\n      jump\t// out\n        /* \"@openzeppelin/contracts/access/Ownable.sol\":1359:1489  function _checkOwner() internal view virtual {... */\n    tag_71:\n        /* \"@openzeppelin/contracts/access/Ownable.sol\":1433:1445  _msgSender() */\n      tag_108\n        /* \"@openzeppelin/contracts/access/Ownable.sol\":1433:1443  _msgSender */\n      tag_109\n        /* \"@openzeppelin/contracts/access/Ownable.sol\":1433:1445  _msgSender() */\n      jump\t// in\n    tag_108:\n        /* \"@openzeppelin/contracts/access/Ownable.sol\":1422:1445  owner() == _msgSender() */\n      0xffffffffffffffffffffffffffffffffffffffff\n      and\n        /* \"@openzeppelin/contracts/access/Ownable.sol\":1422:1429  owner() */\n      tag_110\n        /* \"@openzeppelin/contracts/access/Ownable.sol\":1422:1427  owner */\n      tag_35\n        /* \"@openzeppelin/contracts/access/Ownable.sol\":1422:1429  owner() */\n      jump\t// in\n    tag_110:\n        /* \"@openzeppelin/contracts/access/Ownable.sol\":1422:1445  owner() == _msgSender() */\n      0xffffffffffffffffffffffffffffffffffffffff\n      and\n      eq\n        /* \"@openzeppelin/contracts/access/Ownable.sol\":1414:1482  require(owner() == _msgSender(), \"Ownable: caller is not the owner\") */\n      tag_111\n      jumpi\n      mload(0x40)\n      0x08c379a000000000000000000000000000000000000000000000000000000000\n      dup2\n      mstore\n      0x04\n      add\n      tag_112\n      swap1\n      tag_113\n      jump\t// in\n    tag_112:\n      mload(0x40)\n      dup1\n      swap2\n      sub\n      swap1\n      revert\n    tag_111:\n        /* \"@openzeppelin/contracts/access/Ownable.sol\":1359:1489  function _checkOwner() internal view virtual {... */\n      jump\t// out\n        /* \"@openzeppelin/contracts/access/Ownable.sol\":2433:2620  function _transferOwnership(address newOwner) internal virtual {... */\n    tag_74:\n        /* \"@openzeppelin/contracts/access/Ownable.sol\":2506:2522  address oldOwner */\n      0x00\n        /* \"@openzeppelin/contracts/access/Ownable.sol\":2525:2531  _owner */\n      dup1\n      0x00\n      swap1\n      sload\n      swap1\n      0x0100\n      exp\n      swap1\n      div\n      0xffffffffffffffffffffffffffffffffffffffff\n      and\n        /* \"@openzeppelin/contracts/access/Ownable.sol\":2506:2531  address oldOwner = _owner */\n      swap1\n      pop\n        /* \"@openzeppelin/contracts/access/Ownable.sol\":2550:2558  newOwner */\n      dup2\n        /* \"@openzeppelin/contracts/access/Ownable.sol\":2541:2547  _owner */\n      0x00\n      dup1\n        /* \"@openzeppelin/contracts/access/Ownable.sol\":2541:2558  _owner = newOwner */\n      0x0100\n      exp\n      dup2\n      sload\n      dup2\n      0xffffffffffffffffffffffffffffffffffffffff\n      mul\n      not\n      and\n      swap1\n      dup4\n      0xffffffffffffffffffffffffffffffffffffffff\n      and\n      mul\n      or\n      swap1\n      sstore\n      pop\n        /* \"@openzeppelin/contracts/access/Ownable.sol\":2604:2612  newOwner */\n      dup2\n        /* \"@openzeppelin/contracts/access/Ownable.sol\":2573:2613  OwnershipTransferred(oldOwner, newOwner) */\n      0xffffffffffffffffffffffffffffffffffffffff\n      and\n        /* \"@openzeppelin/contracts/access/Ownable.sol\":2594:2602  oldOwner */\n      dup2\n        /* \"@openzeppelin/contracts/access/Ownable.sol\":2573:2613  OwnershipTransferred(oldOwner, newOwner) */\n      0xffffffffffffffffffffffffffffffffffffffff\n      and\n      0x8be0079c531659141344cd1fd0a4f28419497f9722a3daafe3b4186f6b6457e0\n      mload(0x40)\n      mload(0x40)\n      dup1\n      swap2\n      sub\n      swap1\n      log3\n        /* \"@openzeppelin/contracts/access/Ownable.sol\":2496:2620  {... */\n      pop\n        /* \"@openzeppelin/contracts/access/Ownable.sol\":2433:2620  function _transferOwnership(address newOwner) internal virtual {... */\n      pop\n      jump\t// out\n        /* \"@openzeppelin/contracts/utils/Address.sol\":2412:2724  function sendValue(address payable recipient, uint256 amount) internal {... */\n    tag_89:\n        /* \"@openzeppelin/contracts/utils/Address.sol\":2526:2532  amount */\n      dup1\n        /* \"@openzeppelin/contracts/utils/Address.sol\":2501:2522  address(this).balance */\n      selfbalance\n        /* \"@openzeppelin/contracts/utils/Address.sol\":2501:2532  address(this).balance >= amount */\n      lt\n      iszero\n        /* \"@openzeppelin/contracts/utils/Address.sol\":2493:2566  require(address(this).balance >= amount, \"Address: insufficient balance\") */\n      tag_116\n      jumpi\n      mload(0x40)\n      0x08c379a000000000000000000000000000000000000000000000000000000000\n      dup2\n      mstore\n      0x04\n      add\n      tag_117\n      swap1\n      tag_118\n      jump\t// in\n    tag_117:\n      mload(0x40)\n      dup1\n      swap2\n      sub\n      swap1\n      revert\n    tag_116:\n        /* \"@openzeppelin/contracts/utils/Address.sol\":2578:2590  bool success */\n      0x00\n        /* \"@openzeppelin/contracts/utils/Address.sol\":2596:2605  recipient */\n      dup3\n        /* \"@openzeppelin/contracts/utils/Address.sol\":2596:2610  recipient.call */\n      0xffffffffffffffffffffffffffffffffffffffff\n      and\n        /* \"@openzeppelin/contracts/utils/Address.sol\":2618:2624  amount */\n      dup3\n        /* \"@openzeppelin/contracts/utils/Address.sol\":2596:2629  recipient.call{value: amount}(\"\") */\n      mload(0x40)\n      tag_119\n      swap1\n      tag_120\n      jump\t// in\n    tag_119:\n      0x00\n      mload(0x40)\n      dup1\n      dup4\n      sub\n      dup2\n      dup6\n      dup8\n      gas\n      call\n      swap3\n      pop\n      pop\n      pop\n      returndatasize\n      dup1\n      0x00\n      dup2\n      eq\n      tag_123\n      jumpi\n      mload(0x40)\n      swap2\n      pop\n      and(add(returndatasize, 0x3f), not(0x1f))\n      dup3\n      add\n      0x40\n      mstore\n      returndatasize\n      dup3\n      mstore\n      returndatasize\n      0x00\n      0x20\n      dup5\n      add\n      returndatacopy\n      jump(tag_122)\n    tag_123:\n      0x60\n      swap2\n      pop\n    tag_122:\n      pop\n        /* \"@openzeppelin/contracts/utils/Address.sol\":2577:2629  (bool success, ) = recipient.call{value: amount}(\"\") */\n      pop\n      swap1\n      pop\n        /* \"@openzeppelin/contracts/utils/Address.sol\":2647:2654  success */\n      dup1\n        /* \"@openzeppelin/contracts/utils/Address.sol\":2639:2717  require(success, \"Address: unable to send value, recipient may have reverted\") */\n      tag_124\n      jumpi\n      mload(0x40)\n      0x08c379a000000000000000000000000000000000000000000000000000000000\n      dup2\n      mstore\n      0x04\n      add\n      tag_125\n      swap1\n      tag_126\n      jump\t// in\n    tag_125:\n      mload(0x40)\n      dup1\n      swap2\n      sub\n      swap1\n      revert\n    tag_124:\n        /* \"@openzeppelin/contracts/utils/Address.sol\":2483:2724  {... */\n      pop\n        /* \"@openzeppelin/contracts/utils/Address.sol\":2412:2724  function sendValue(address payable recipient, uint256 amount) internal {... */\n      pop\n      pop\n      jump\t// out\n        /* \"@openzeppelin/contracts/utils/Context.sol\":640:736  function _msgSender() internal view virtual returns (address) {... */\n    tag_109:\n        /* \"@openzeppelin/contracts/utils/Context.sol\":693:700  address */\n      0x00\n        /* \"@openzeppelin/contracts/utils/Context.sol\":719:729  msg.sender */\n      caller\n        /* \"@openzeppelin/contracts/utils/Context.sol\":712:729  return msg.sender */\n      swap1\n      pop\n        /* \"@openzeppelin/contracts/utils/Context.sol\":640:736  function _msgSender() internal view virtual returns (address) {... */\n      swap1\n      jump\t// out\n        /* \"#utility.yul\":7:146   */\n    tag_129:\n        /* \"#utility.yul\":53:58   */\n      0x00\n        /* \"#utility.yul\":91:97   */\n      dup2\n        /* \"#utility.yul\":78:98   */\n      calldataload\n        /* \"#utility.yul\":69:98   */\n      swap1\n      pop\n        /* \"#utility.yul\":107:140   */\n      tag_131\n        /* \"#utility.yul\":134:139   */\n      dup2\n        /* \"#utility.yul\":107:140   */\n      tag_132\n      jump\t// in\n    tag_131:\n        /* \"#utility.yul\":7:146   */\n      swap3\n      swap2\n      pop\n      pop\n      jump\t// out\n        /* \"#utility.yul\":152:307   */\n    tag_133:\n        /* \"#utility.yul\":206:211   */\n      0x00\n        /* \"#utility.yul\":244:250   */\n      dup2\n        /* \"#utility.yul\":231:251   */\n      calldataload\n        /* \"#utility.yul\":222:251   */\n      swap1\n      pop\n        /* \"#utility.yul\":260:301   */\n      tag_135\n        /* \"#utility.yul\":295:300   */\n      dup2\n        /* \"#utility.yul\":260:301   */\n      tag_136\n      jump\t// in\n    tag_135:\n        /* \"#utility.yul\":152:307   */\n      swap3\n      swap2\n      pop\n      pop\n      jump\t// out\n        /* \"#utility.yul\":313:446   */\n    tag_137:\n        /* \"#utility.yul\":356:361   */\n      0x00\n        /* \"#utility.yul\":394:400   */\n      dup2\n        /* \"#utility.yul\":381:401   */\n      calldataload\n        /* \"#utility.yul\":372:401   */\n      swap1\n      pop\n        /* \"#utility.yul\":410:440   */\n      tag_139\n        /* \"#utility.yul\":434:439   */\n      dup2\n        /* \"#utility.yul\":410:440   */\n      tag_140\n      jump\t// in\n    tag_139:\n        /* \"#utility.yul\":313:446   */\n      swap3\n      swap2\n      pop\n      pop\n      jump\t// out\n        /* \"#utility.yul\":452:591   */\n    tag_141:\n        /* \"#utility.yul\":498:503   */\n      0x00\n        /* \"#utility.yul\":536:542   */\n      dup2\n        /* \"#utility.yul\":523:543   */\n      calldataload\n        /* \"#utility.yul\":514:543   */\n      swap1\n      pop\n        /* \"#utility.yul\":552:585   */\n      tag_143\n        /* \"#utility.yul\":579:584   */\n      dup2\n        /* \"#utility.yul\":552:585   */\n      tag_144\n      jump\t// in\n    tag_143:\n        /* \"#utility.yul\":452:591   */\n      swap3\n      swap2\n      pop\n      pop\n      jump\t// out\n        /* \"#utility.yul\":597:926   */\n    tag_52:\n        /* \"#utility.yul\":656:662   */\n      0x00\n        /* \"#utility.yul\":705:707   */\n      0x20\n        /* \"#utility.yul\":693:702   */\n      dup3\n        /* \"#utility.yul\":684:691   */\n      dup5\n        /* \"#utility.yul\":680:703   */\n      sub\n        /* \"#utility.yul\":676:708   */\n      slt\n        /* \"#utility.yul\":673:792   */\n      iszero\n      tag_146\n      jumpi\n        /* \"#utility.yul\":711:790   */\n      tag_147\n      tag_148\n      jump\t// in\n    tag_147:\n        /* \"#utility.yul\":673:792   */\n    tag_146:\n        /* \"#utility.yul\":831:832   */\n      0x00\n        /* \"#utility.yul\":856:909   */\n      tag_149\n        /* \"#utility.yul\":901:908   */\n      dup5\n        /* \"#utility.yul\":892:898   */\n      dup3\n        /* \"#utility.yul\":881:890   */\n      dup6\n        /* \"#utility.yul\":877:899   */\n      add\n        /* \"#utility.yul\":856:909   */\n      tag_129\n      jump\t// in\n    tag_149:\n        /* \"#utility.yul\":846:909   */\n      swap2\n      pop\n        /* \"#utility.yul\":802:919   */\n      pop\n        /* \"#utility.yul\":597:926   */\n      swap3\n      swap2\n      pop\n      pop\n      jump\t// out\n        /* \"#utility.yul\":932:1438   */\n    tag_61:\n        /* \"#utility.yul\":1016:1022   */\n      0x00\n        /* \"#utility.yul\":1024:1030   */\n      dup1\n        /* \"#utility.yul\":1073:1075   */\n      0x40\n        /* \"#utility.yul\":1061:1070   */\n      dup4\n        /* \"#utility.yul\":1052:1059   */\n      dup6\n        /* \"#utility.yul\":1048:1071   */\n      sub\n        /* \"#utility.yul\":1044:1076   */\n      slt\n        /* \"#utility.yul\":1041:1160   */\n      iszero\n      tag_151\n      jumpi\n        /* \"#utility.yul\":1079:1158   */\n      tag_152\n      tag_148\n      jump\t// in\n    tag_152:\n        /* \"#utility.yul\":1041:1160   */\n    tag_151:\n        /* \"#utility.yul\":1199:1200   */\n      0x00\n        /* \"#utility.yul\":1224:1285   */\n      tag_153\n        /* \"#utility.yul\":1277:1284   */\n      dup6\n        /* \"#utility.yul\":1268:1274   */\n      dup3\n        /* \"#utility.yul\":1257:1266   */\n      dup7\n        /* \"#utility.yul\":1253:1275   */\n      add\n        /* \"#utility.yul\":1224:1285   */\n      tag_133\n      jump\t// in\n    tag_153:\n        /* \"#utility.yul\":1214:1285   */\n      swap3\n      pop\n        /* \"#utility.yul\":1170:1295   */\n      pop\n        /* \"#utility.yul\":1334:1336   */\n      0x20\n        /* \"#utility.yul\":1360:1421   */\n      tag_154\n        /* \"#utility.yul\":1413:1420   */\n      dup6\n        /* \"#utility.yul\":1404:1410   */\n      dup3\n        /* \"#utility.yul\":1393:1402   */\n      dup7\n        /* \"#utility.yul\":1389:1411   */\n      add\n        /* \"#utility.yul\":1360:1421   */\n      tag_133\n      jump\t// in\n    tag_154:\n        /* \"#utility.yul\":1350:1421   */\n      swap2\n      pop\n        /* \"#utility.yul\":1305:1431   */\n      pop\n        /* \"#utility.yul\":932:1438   */\n      swap3\n      pop\n      swap3\n      swap1\n      pop\n      jump\t// out\n        /* \"#utility.yul\":1444:1767   */\n    tag_23:\n        /* \"#utility.yul\":1500:1506   */\n      0x00\n        /* \"#utility.yul\":1549:1551   */\n      0x20\n        /* \"#utility.yul\":1537:1546   */\n      dup3\n        /* \"#utility.yul\":1528:1535   */\n      dup5\n        /* \"#utility.yul\":1524:1547   */\n      sub\n        /* \"#utility.yul\":1520:1552   */\n      slt\n        /* \"#utility.yul\":1517:1636   */\n      iszero\n      tag_156\n      jumpi\n        /* \"#utility.yul\":1555:1634   */\n      tag_157\n      tag_148\n      jump\t// in\n    tag_157:\n        /* \"#utility.yul\":1517:1636   */\n    tag_156:\n        /* \"#utility.yul\":1675:1676   */\n      0x00\n        /* \"#utility.yul\":1700:1750   */\n      tag_158\n        /* \"#utility.yul\":1742:1749   */\n      dup5\n        /* \"#utility.yul\":1733:1739   */\n      dup3\n        /* \"#utility.yul\":1722:1731   */\n      dup6\n        /* \"#utility.yul\":1718:1740   */\n      add\n        /* \"#utility.yul\":1700:1750   */\n      tag_137\n      jump\t// in\n    tag_158:\n        /* \"#utility.yul\":1690:1750   */\n      swap2\n      pop\n        /* \"#utility.yul\":1646:1760   */\n      pop\n        /* \"#utility.yul\":1444:1767   */\n      swap3\n      swap2\n      pop\n      pop\n      jump\t// out\n        /* \"#utility.yul\":1773:2241   */\n    tag_28:\n        /* \"#utility.yul\":1838:1844   */\n      0x00\n        /* \"#utility.yul\":1846:1852   */\n      dup1\n        /* \"#utility.yul\":1895:1897   */\n      0x40\n        /* \"#utility.yul\":1883:1892   */\n      dup4\n        /* \"#utility.yul\":1874:1881   */\n      dup6\n        /* \"#utility.yul\":1870:1893   */\n      sub\n        /* \"#utility.yul\":1866:1898   */\n      slt\n        /* \"#utility.yul\":1863:1982   */\n      iszero\n      tag_160\n      jumpi\n        /* \"#utility.yul\":1901:1980   */\n      tag_161\n      tag_148\n      jump\t// in\n    tag_161:\n        /* \"#utility.yul\":1863:1982   */\n    tag_160:\n        /* \"#utility.yul\":2021:2022   */\n      0x00\n        /* \"#utility.yul\":2046:2096   */\n      tag_162\n        /* \"#utility.yul\":2088:2095   */\n      dup6\n        /* \"#utility.yul\":2079:2085   */\n      dup3\n        /* \"#utility.yul\":2068:2077   */\n      dup7\n        /* \"#utility.yul\":2064:2086   */\n      add\n        /* \"#utility.yul\":2046:2096   */\n      tag_137\n      jump\t// in\n    tag_162:\n        /* \"#utility.yul\":2036:2096   */\n      swap3\n      pop\n        /* \"#utility.yul\":1992:2106   */\n      pop\n        /* \"#utility.yul\":2145:2147   */\n      0x20\n        /* \"#utility.yul\":2171:2224   */\n      tag_163\n        /* \"#utility.yul\":2216:2223   */\n      dup6\n        /* \"#utility.yul\":2207:2213   */\n      dup3\n        /* \"#utility.yul\":2196:2205   */\n      dup7\n        /* \"#utility.yul\":2192:2214   */\n      add\n        /* \"#utility.yul\":2171:2224   */\n      tag_141\n      jump\t// in\n    tag_163:\n        /* \"#utility.yul\":2161:2224   */\n      swap2\n      pop\n        /* \"#utility.yul\":2116:2234   */\n      pop\n        /* \"#utility.yul\":1773:2241   */\n      swap3\n      pop\n      swap3\n      swap1\n      pop\n      jump\t// out\n        /* \"#utility.yul\":2247:2389   */\n    tag_164:\n        /* \"#utility.yul\":2350:2382   */\n      tag_166\n        /* \"#utility.yul\":2376:2381   */\n      dup2\n        /* \"#utility.yul\":2350:2382   */\n      tag_167\n      jump\t// in\n    tag_166:\n        /* \"#utility.yul\":2345:2348   */\n      dup3\n        /* \"#utility.yul\":2338:2383   */\n      mstore\n        /* \"#utility.yul\":2247:2389   */\n      pop\n      pop\n      jump\t// out\n        /* \"#utility.yul\":2395:2513   */\n    tag_168:\n        /* \"#utility.yul\":2482:2506   */\n      tag_170\n        /* \"#utility.yul\":2500:2505   */\n      dup2\n        /* \"#utility.yul\":2482:2506   */\n      tag_171\n      jump\t// in\n    tag_170:\n        /* \"#utility.yul\":2477:2480   */\n      dup3\n        /* \"#utility.yul\":2470:2507   */\n      mstore\n        /* \"#utility.yul\":2395:2513   */\n      pop\n      pop\n      jump\t// out\n        /* \"#utility.yul\":2519:2628   */\n    tag_172:\n        /* \"#utility.yul\":2600:2621   */\n      tag_174\n        /* \"#utility.yul\":2615:2620   */\n      dup2\n        /* \"#utility.yul\":2600:2621   */\n      tag_175\n      jump\t// in\n    tag_174:\n        /* \"#utility.yul\":2595:2598   */\n      dup3\n        /* \"#utility.yul\":2588:2622   */\n      mstore\n        /* \"#utility.yul\":2519:2628   */\n      pop\n      pop\n      jump\t// out\n        /* \"#utility.yul\":2634:3000   */\n    tag_176:\n        /* \"#utility.yul\":2776:2779   */\n      0x00\n        /* \"#utility.yul\":2797:2864   */\n      tag_178\n        /* \"#utility.yul\":2861:2863   */\n      0x26\n        /* \"#utility.yul\":2856:2859   */\n      dup4\n        /* \"#utility.yul\":2797:2864   */\n      tag_179\n      jump\t// in\n    tag_178:\n        /* \"#utility.yul\":2790:2864   */\n      swap2\n      pop\n        /* \"#utility.yul\":2873:2966   */\n      tag_180\n        /* \"#utility.yul\":2962:2965   */\n      dup3\n        /* \"#utility.yul\":2873:2966   */\n      tag_181\n      jump\t// in\n    tag_180:\n        /* \"#utility.yul\":2991:2993   */\n      0x40\n        /* \"#utility.yul\":2986:2989   */\n      dup3\n        /* \"#utility.yul\":2982:2994   */\n      add\n        /* \"#utility.yul\":2975:2994   */\n      swap1\n      pop\n        /* \"#utility.yul\":2634:3000   */\n      swap2\n      swap1\n      pop\n      jump\t// out\n        /* \"#utility.yul\":3006:3372   */\n    tag_182:\n        /* \"#utility.yul\":3148:3151   */\n      0x00\n        /* \"#utility.yul\":3169:3236   */\n      tag_184\n        /* \"#utility.yul\":3233:3235   */\n      0x3a\n        /* \"#utility.yul\":3228:3231   */\n      dup4\n        /* \"#utility.yul\":3169:3236   */\n      tag_179\n      jump\t// in\n    tag_184:\n        /* \"#utility.yul\":3162:3236   */\n      swap2\n      pop\n        /* \"#utility.yul\":3245:3338   */\n      tag_185\n        /* \"#utility.yul\":3334:3337   */\n      dup3\n        /* \"#utility.yul\":3245:3338   */\n      tag_186\n      jump\t// in\n    tag_185:\n        /* \"#utility.yul\":3363:3365   */\n      0x40\n        /* \"#utility.yul\":3358:3361   */\n      dup3\n        /* \"#utility.yul\":3354:3366   */\n      add\n        /* \"#utility.yul\":3347:3366   */\n      swap1\n      pop\n        /* \"#utility.yul\":3006:3372   */\n      swap2\n      swap1\n      pop\n      jump\t// out\n        /* \"#utility.yul\":3378:3744   */\n    tag_187:\n        /* \"#utility.yul\":3520:3523   */\n      0x00\n        /* \"#utility.yul\":3541:3608   */\n      tag_189\n        /* \"#utility.yul\":3605:3607   */\n      0x1d\n        /* \"#utility.yul\":3600:3603   */\n      dup4\n        /* \"#utility.yul\":3541:3608   */\n      tag_179\n      jump\t// in\n    tag_189:\n        /* \"#utility.yul\":3534:3608   */\n      swap2\n      pop\n        /* \"#utility.yul\":3617:3710   */\n      tag_190\n        /* \"#utility.yul\":3706:3709   */\n      dup3\n        /* \"#utility.yul\":3617:3710   */\n      tag_191\n      jump\t// in\n    tag_190:\n        /* \"#utility.yul\":3735:3737   */\n      0x20\n        /* \"#utility.yul\":3730:3733   */\n      dup3\n        /* \"#utility.yul\":3726:3738   */\n      add\n        /* \"#utility.yul\":3719:3738   */\n      swap1\n      pop\n        /* \"#utility.yul\":3378:3744   */\n      swap2\n      swap1\n      pop\n      jump\t// out\n        /* \"#utility.yul\":3750:4116   */\n    tag_192:\n        /* \"#utility.yul\":3892:3895   */\n      0x00\n        /* \"#utility.yul\":3913:3980   */\n      tag_194\n        /* \"#utility.yul\":3977:3979   */\n      0x20\n        /* \"#utility.yul\":3972:3975   */\n      dup4\n        /* \"#utility.yul\":3913:3980   */\n      tag_179\n      jump\t// in\n    tag_194:\n        /* \"#utility.yul\":3906:3980   */\n      swap2\n      pop\n        /* \"#utility.yul\":3989:4082   */\n      tag_195\n        /* \"#utility.yul\":4078:4081   */\n      dup3\n        /* \"#utility.yul\":3989:4082   */\n      tag_196\n      jump\t// in\n    tag_195:\n        /* \"#utility.yul\":4107:4109   */\n      0x20\n        /* \"#utility.yul\":4102:4105   */\n      dup3\n        /* \"#utility.yul\":4098:4110   */\n      add\n        /* \"#utility.yul\":4091:4110   */\n      swap1\n      pop\n        /* \"#utility.yul\":3750:4116   */\n      swap2\n      swap1\n      pop\n      jump\t// out\n        /* \"#utility.yul\":4122:4520   */\n    tag_197:\n        /* \"#utility.yul\":4281:4284   */\n      0x00\n        /* \"#utility.yul\":4302:4385   */\n      tag_199\n        /* \"#utility.yul\":4383:4384   */\n      0x00\n        /* \"#utility.yul\":4378:4381   */\n      dup4\n        /* \"#utility.yul\":4302:4385   */\n      tag_200\n      jump\t// in\n    tag_199:\n        /* \"#utility.yul\":4295:4385   */\n      swap2\n      pop\n        /* \"#utility.yul\":4394:4487   */\n      tag_201\n        /* \"#utility.yul\":4483:4486   */\n      dup3\n        /* \"#utility.yul\":4394:4487   */\n      tag_202\n      jump\t// in\n    tag_201:\n        /* \"#utility.yul\":4512:4513   */\n      0x00\n        /* \"#utility.yul\":4507:4510   */\n      dup3\n        /* \"#utility.yul\":4503:4514   */\n      add\n        /* \"#utility.yul\":4496:4514   */\n      swap1\n      pop\n        /* \"#utility.yul\":4122:4520   */\n      swap2\n      swap1\n      pop\n      jump\t// out\n        /* \"#utility.yul\":4526:4644   */\n    tag_203:\n        /* \"#utility.yul\":4613:4637   */\n      tag_205\n        /* \"#utility.yul\":4631:4636   */\n      dup2\n        /* \"#utility.yul\":4613:4637   */\n      tag_206\n      jump\t// in\n    tag_205:\n        /* \"#utility.yul\":4608:4611   */\n      dup3\n        /* \"#utility.yul\":4601:4638   */\n      mstore\n        /* \"#utility.yul\":4526:4644   */\n      pop\n      pop\n      jump\t// out\n        /* \"#utility.yul\":4650:5029   */\n    tag_120:\n        /* \"#utility.yul\":4834:4837   */\n      0x00\n        /* \"#utility.yul\":4856:5003   */\n      tag_208\n        /* \"#utility.yul\":4999:5002   */\n      dup3\n        /* \"#utility.yul\":4856:5003   */\n      tag_197\n      jump\t// in\n    tag_208:\n        /* \"#utility.yul\":4849:5003   */\n      swap2\n      pop\n        /* \"#utility.yul\":5020:5023   */\n      dup2\n        /* \"#utility.yul\":5013:5023   */\n      swap1\n      pop\n        /* \"#utility.yul\":4650:5029   */\n      swap2\n      swap1\n      pop\n      jump\t// out\n        /* \"#utility.yul\":5035:5257   */\n    tag_19:\n        /* \"#utility.yul\":5128:5132   */\n      0x00\n        /* \"#utility.yul\":5166:5168   */\n      0x20\n        /* \"#utility.yul\":5155:5164   */\n      dup3\n        /* \"#utility.yul\":5151:5169   */\n      add\n        /* \"#utility.yul\":5143:5169   */\n      swap1\n      pop\n        /* \"#utility.yul\":5179:5250   */\n      tag_210\n        /* \"#utility.yul\":5247:5248   */\n      0x00\n        /* \"#utility.yul\":5236:5245   */\n      dup4\n        /* \"#utility.yul\":5232:5249   */\n      add\n        /* \"#utility.yul\":5223:5229   */\n      dup5\n        /* \"#utility.yul\":5179:5250   */\n      tag_168\n      jump\t// in\n    tag_210:\n        /* \"#utility.yul\":5035:5257   */\n      swap3\n      swap2\n      pop\n      pop\n      jump\t// out\n        /* \"#utility.yul\":5263:5517   */\n    tag_58:\n        /* \"#utility.yul\":5372:5376   */\n      0x00\n        /* \"#utility.yul\":5410:5412   */\n      0x20\n        /* \"#utility.yul\":5399:5408   */\n      dup3\n        /* \"#utility.yul\":5395:5413   */\n      add\n        /* \"#utility.yul\":5387:5413   */\n      swap1\n      pop\n        /* \"#utility.yul\":5423:5510   */\n      tag_212\n        /* \"#utility.yul\":5507:5508   */\n      0x00\n        /* \"#utility.yul\":5496:5505   */\n      dup4\n        /* \"#utility.yul\":5492:5509   */\n      add\n        /* \"#utility.yul\":5483:5489   */\n      dup5\n        /* \"#utility.yul\":5423:5510   */\n      tag_164\n      jump\t// in\n    tag_212:\n        /* \"#utility.yul\":5263:5517   */\n      swap3\n      swap2\n      pop\n      pop\n      jump\t// out\n        /* \"#utility.yul\":5523:5733   */\n    tag_45:\n        /* \"#utility.yul\":5610:5614   */\n      0x00\n        /* \"#utility.yul\":5648:5650   */\n      0x20\n        /* \"#utility.yul\":5637:5646   */\n      dup3\n        /* \"#utility.yul\":5633:5651   */\n      add\n        /* \"#utility.yul\":5625:5651   */\n      swap1\n      pop\n        /* \"#utility.yul\":5661:5726   */\n      tag_214\n        /* \"#utility.yul\":5723:5724   */\n      0x00\n        /* \"#utility.yul\":5712:5721   */\n      dup4\n        /* \"#utility.yul\":5708:5725   */\n      add\n        /* \"#utility.yul\":5699:5705   */\n      dup5\n        /* \"#utility.yul\":5661:5726   */\n      tag_172\n      jump\t// in\n    tag_214:\n        /* \"#utility.yul\":5523:5733   */\n      swap3\n      swap2\n      pop\n      pop\n      jump\t// out\n        /* \"#utility.yul\":5739:6158   */\n    tag_98:\n        /* \"#utility.yul\":5905:5909   */\n      0x00\n        /* \"#utility.yul\":5943:5945   */\n      0x20\n        /* \"#utility.yul\":5932:5941   */\n      dup3\n        /* \"#utility.yul\":5928:5946   */\n      add\n        /* \"#utility.yul\":5920:5946   */\n      swap1\n      pop\n        /* \"#utility.yul\":5992:6001   */\n      dup2\n        /* \"#utility.yul\":5986:5990   */\n      dup2\n        /* \"#utility.yul\":5982:6002   */\n      sub\n        /* \"#utility.yul\":5978:5979   */\n      0x00\n        /* \"#utility.yul\":5967:5976   */\n      dup4\n        /* \"#utility.yul\":5963:5980   */\n      add\n        /* \"#utility.yul\":5956:6003   */\n      mstore\n        /* \"#utility.yul\":6020:6151   */\n      tag_216\n        /* \"#utility.yul\":6146:6150   */\n      dup2\n        /* \"#utility.yul\":6020:6151   */\n      tag_176\n      jump\t// in\n    tag_216:\n        /* \"#utility.yul\":6012:6151   */\n      swap1\n      pop\n        /* \"#utility.yul\":5739:6158   */\n      swap2\n      swap1\n      pop\n      jump\t// out\n        /* \"#utility.yul\":6164:6583   */\n    tag_126:\n        /* \"#utility.yul\":6330:6334   */\n      0x00\n        /* \"#utility.yul\":6368:6370   */\n      0x20\n        /* \"#utility.yul\":6357:6366   */\n      dup3\n        /* \"#utility.yul\":6353:6371   */\n      add\n        /* \"#utility.yul\":6345:6371   */\n      swap1\n      pop\n        /* \"#utility.yul\":6417:6426   */\n      dup2\n        /* \"#utility.yul\":6411:6415   */\n      dup2\n        /* \"#utility.yul\":6407:6427   */\n      sub\n        /* \"#utility.yul\":6403:6404   */\n      0x00\n        /* \"#utility.yul\":6392:6401   */\n      dup4\n        /* \"#utility.yul\":6388:6405   */\n      add\n        /* \"#utility.yul\":6381:6428   */\n      mstore\n        /* \"#utility.yul\":6445:6576   */\n      tag_218\n        /* \"#utility.yul\":6571:6575   */\n      dup2\n        /* \"#utility.yul\":6445:6576   */\n      tag_182\n      jump\t// in\n    tag_218:\n        /* \"#utility.yul\":6437:6576   */\n      swap1\n      pop\n        /* \"#utility.yul\":6164:6583   */\n      swap2\n      swap1\n      pop\n      jump\t// out\n        /* \"#utility.yul\":6589:7008   */\n    tag_118:\n        /* \"#utility.yul\":6755:6759   */\n      0x00\n        /* \"#utility.yul\":6793:6795   */\n      0x20\n        /* \"#utility.yul\":6782:6791   */\n      dup3\n        /* \"#utility.yul\":6778:6796   */\n      add\n        /* \"#utility.yul\":6770:6796   */\n      swap1\n      pop\n        /* \"#utility.yul\":6842:6851   */\n      dup2\n        /* \"#utility.yul\":6836:6840   */\n      dup2\n        /* \"#utility.yul\":6832:6852   */\n      sub\n        /* \"#utility.yul\":6828:6829   */\n      0x00\n        /* \"#utility.yul\":6817:6826   */\n      dup4\n        /* \"#utility.yul\":6813:6830   */\n      add\n        /* \"#utility.yul\":6806:6853   */\n      mstore\n        /* \"#utility.yul\":6870:7001   */\n      tag_220\n        /* \"#utility.yul\":6996:7000   */\n      dup2\n        /* \"#utility.yul\":6870:7001   */\n      tag_187\n      jump\t// in\n    tag_220:\n        /* \"#utility.yul\":6862:7001   */\n      swap1\n      pop\n        /* \"#utility.yul\":6589:7008   */\n      swap2\n      swap1\n      pop\n      jump\t// out\n        /* \"#utility.yul\":7014:7433   */\n    tag_113:\n        /* \"#utility.yul\":7180:7184   */\n      0x00\n        /* \"#utility.yul\":7218:7220   */\n      0x20\n        /* \"#utility.yul\":7207:7216   */\n      dup3\n        /* \"#utility.yul\":7203:7221   */\n      add\n        /* \"#utility.yul\":7195:7221   */\n      swap1\n      pop\n        /* \"#utility.yul\":7267:7276   */\n      dup2\n        /* \"#utility.yul\":7261:7265   */\n      dup2\n        /* \"#utility.yul\":7257:7277   */\n      sub\n        /* \"#utility.yul\":7253:7254   */\n      0x00\n        /* \"#utility.yul\":7242:7251   */\n      dup4\n        /* \"#utility.yul\":7238:7255   */\n      add\n        /* \"#utility.yul\":7231:7278   */\n      mstore\n        /* \"#utility.yul\":7295:7426   */\n      tag_222\n        /* \"#utility.yul\":7421:7425   */\n      dup2\n        /* \"#utility.yul\":7295:7426   */\n      tag_192\n      jump\t// in\n    tag_222:\n        /* \"#utility.yul\":7287:7426   */\n      swap1\n      pop\n        /* \"#utility.yul\":7014:7433   */\n      swap2\n      swap1\n      pop\n      jump\t// out\n        /* \"#utility.yul\":7439:7661   */\n    tag_106:\n        /* \"#utility.yul\":7532:7536   */\n      0x00\n        /* \"#utility.yul\":7570:7572   */\n      0x20\n        /* \"#utility.yul\":7559:7568   */\n      dup3\n        /* \"#utility.yul\":7555:7573   */\n      add\n        /* \"#utility.yul\":7547:7573   */\n      swap1\n      pop\n        /* \"#utility.yul\":7583:7654   */\n      tag_224\n        /* \"#utility.yul\":7651:7652   */\n      0x00\n        /* \"#utility.yul\":7640:7649   */\n      dup4\n        /* \"#utility.yul\":7636:7653   */\n      add\n        /* \"#utility.yul\":7627:7633   */\n      dup5\n        /* \"#utility.yul\":7583:7654   */\n      tag_203\n      jump\t// in\n    tag_224:\n        /* \"#utility.yul\":7439:7661   */\n      swap3\n      swap2\n      pop\n      pop\n      jump\t// out\n        /* \"#utility.yul\":7748:7895   */\n    tag_200:\n        /* \"#utility.yul\":7849:7860   */\n      0x00\n        /* \"#utility.yul\":7886:7889   */\n      dup2\n        /* \"#utility.yul\":7871:7889   */\n      swap1\n      pop\n        /* \"#utility.yul\":7748:7895   */\n      swap3\n      swap2\n      pop\n      pop\n      jump\t// out\n        /* \"#utility.yul\":7901:8070   */\n    tag_179:\n        /* \"#utility.yul\":7985:7996   */\n      0x00\n        /* \"#utility.yul\":8019:8025   */\n      dup3\n        /* \"#utility.yul\":8014:8017   */\n      dup3\n        /* \"#utility.yul\":8007:8026   */\n      mstore\n        /* \"#utility.yul\":8059:8063   */\n      0x20\n        /* \"#utility.yul\":8054:8057   */\n      dup3\n        /* \"#utility.yul\":8050:8064   */\n      add\n        /* \"#utility.yul\":8035:8064   */\n      swap1\n      pop\n        /* \"#utility.yul\":7901:8070   */\n      swap3\n      swap2\n      pop\n      pop\n      jump\t// out\n        /* \"#utility.yul\":8076:8381   */\n    tag_104:\n        /* \"#utility.yul\":8116:8119   */\n      0x00\n        /* \"#utility.yul\":8135:8155   */\n      tag_230\n        /* \"#utility.yul\":8153:8154   */\n      dup3\n        /* \"#utility.yul\":8135:8155   */\n      tag_206\n      jump\t// in\n    tag_230:\n        /* \"#utility.yul\":8130:8155   */\n      swap2\n      pop\n        /* \"#utility.yul\":8169:8189   */\n      tag_231\n        /* \"#utility.yul\":8187:8188   */\n      dup4\n        /* \"#utility.yul\":8169:8189   */\n      tag_206\n      jump\t// in\n    tag_231:\n        /* \"#utility.yul\":8164:8189   */\n      swap3\n      pop\n        /* \"#utility.yul\":8323:8324   */\n      dup3\n        /* \"#utility.yul\":8255:8321   */\n      0xffffffffffffffffffffffffffffffffffffffffffffffffffffffffffffffff\n        /* \"#utility.yul\":8251:8325   */\n      sub\n        /* \"#utility.yul\":8248:8249   */\n      dup3\n        /* \"#utility.yul\":8245:8326   */\n      gt\n        /* \"#utility.yul\":8242:8349   */\n      iszero\n      tag_232\n      jumpi\n        /* \"#utility.yul\":8329:8347   */\n      tag_233\n      tag_234\n      jump\t// in\n    tag_233:\n        /* \"#utility.yul\":8242:8349   */\n    tag_232:\n        /* \"#utility.yul\":8373:8374   */\n      dup3\n        /* \"#utility.yul\":8370:8371   */\n      dup3\n        /* \"#utility.yul\":8366:8375   */\n      add\n        /* \"#utility.yul\":8359:8375   */\n      swap1\n      pop\n        /* \"#utility.yul\":8076:8381   */\n      swap3\n      swap2\n      pop\n      pop\n      jump\t// out\n        /* \"#utility.yul\":8387:8483   */\n    tag_171:\n        /* \"#utility.yul\":8424:8431   */\n      0x00\n        /* \"#utility.yul\":8453:8477   */\n      tag_236\n        /* \"#utility.yul\":8471:8476   */\n      dup3\n        /* \"#utility.yul\":8453:8477   */\n      tag_237\n      jump\t// in\n    tag_236:\n        /* \"#utility.yul\":8442:8477   */\n      swap1\n      pop\n        /* \"#utility.yul\":8387:8483   */\n      swap2\n      swap1\n      pop\n      jump\t// out\n        /* \"#utility.yul\":8489:8593   */\n    tag_167:\n        /* \"#utility.yul\":8534:8541   */\n      0x00\n        /* \"#utility.yul\":8563:8587   */\n      tag_239\n        /* \"#utility.yul\":8581:8586   */\n      dup3\n        /* \"#utility.yul\":8563:8587   */\n      tag_237\n      jump\t// in\n    tag_239:\n        /* \"#utility.yul\":8552:8587   */\n      swap1\n      pop\n        /* \"#utility.yul\":8489:8593   */\n      swap2\n      swap1\n      pop\n      jump\t// out\n        /* \"#utility.yul\":8599:8689   */\n    tag_175:\n        /* \"#utility.yul\":8633:8640   */\n      0x00\n        /* \"#utility.yul\":8676:8681   */\n      dup2\n        /* \"#utility.yul\":8669:8682   */\n      iszero\n        /* \"#utility.yul\":8662:8683   */\n      iszero\n        /* \"#utility.yul\":8651:8683   */\n      swap1\n      pop\n        /* \"#utility.yul\":8599:8689   */\n      swap2\n      swap1\n      pop\n      jump\t// out\n        /* \"#utility.yul\":8695:8821   */\n    tag_237:\n        /* \"#utility.yul\":8732:8739   */\n      0x00\n        /* \"#utility.yul\":8772:8814   */\n      0xffffffffffffffffffffffffffffffffffffffff\n        /* \"#utility.yul\":8765:8770   */\n      dup3\n        /* \"#utility.yul\":8761:8815   */\n      and\n        /* \"#utility.yul\":8750:8815   */\n      swap1\n      pop\n        /* \"#utility.yul\":8695:8821   */\n      swap2\n      swap1\n      pop\n      jump\t// out\n        /* \"#utility.yul\":8827:8904   */\n    tag_206:\n        /* \"#utility.yul\":8864:8871   */\n      0x00\n        /* \"#utility.yul\":8893:8898   */\n      dup2\n        /* \"#utility.yul\":8882:8898   */\n      swap1\n      pop\n        /* \"#utility.yul\":8827:8904   */\n      swap2\n      swap1\n      pop\n      jump\t// out\n        /* \"#utility.yul\":8910:9090   */\n    tag_234:\n        /* \"#utility.yul\":8958:9035   */\n      0x4e487b7100000000000000000000000000000000000000000000000000000000\n        /* \"#utility.yul\":8955:8956   */\n      0x00\n        /* \"#utility.yul\":8948:9036   */\n      mstore\n        /* \"#utility.yul\":9055:9059   */\n      0x11\n        /* \"#utility.yul\":9052:9053   */\n      0x04\n        /* \"#utility.yul\":9045:9060   */\n      mstore\n        /* \"#utility.yul\":9079:9083   */\n      0x24\n        /* \"#utility.yul\":9076:9077   */\n      0x00\n        /* \"#utility.yul\":9069:9084   */\n      revert\n        /* \"#utility.yul\":9219:9336   */\n    tag_148:\n        /* \"#utility.yul\":9328:9329   */\n      0x00\n        /* \"#utility.yul\":9325:9326   */\n      dup1\n        /* \"#utility.yul\":9318:9330   */\n      revert\n        /* \"#utility.yul\":9342:9567   */\n    tag_181:\n        /* \"#utility.yul\":9482:9516   */\n      0x4f776e61626c653a206e6577206f776e657220697320746865207a65726f2061\n        /* \"#utility.yul\":9478:9479   */\n      0x00\n        /* \"#utility.yul\":9470:9476   */\n      dup3\n        /* \"#utility.yul\":9466:9480   */\n      add\n        /* \"#utility.yul\":9459:9517   */\n      mstore\n        /* \"#utility.yul\":9551:9559   */\n      0x6464726573730000000000000000000000000000000000000000000000000000\n        /* \"#utility.yul\":9546:9548   */\n      0x20\n        /* \"#utility.yul\":9538:9544   */\n      dup3\n        /* \"#utility.yul\":9534:9549   */\n      add\n        /* \"#utility.yul\":9527:9560   */\n      mstore\n        /* \"#utility.yul\":9342:9567   */\n      pop\n      jump\t// out\n        /* \"#utility.yul\":9573:9818   */\n    tag_186:\n        /* \"#utility.yul\":9713:9747   */\n      0x416464726573733a20756e61626c6520746f2073656e642076616c75652c2072\n        /* \"#utility.yul\":9709:9710   */\n      0x00\n        /* \"#utility.yul\":9701:9707   */\n      dup3\n        /* \"#utility.yul\":9697:9711   */\n      add\n        /* \"#utility.yul\":9690:9748   */\n      mstore\n        /* \"#utility.yul\":9782:9810   */\n      0x6563697069656e74206d61792068617665207265766572746564000000000000\n        /* \"#utility.yul\":9777:9779   */\n      0x20\n        /* \"#utility.yul\":9769:9775   */\n      dup3\n        /* \"#utility.yul\":9765:9780   */\n      add\n        /* \"#utility.yul\":9758:9811   */\n      mstore\n        /* \"#utility.yul\":9573:9818   */\n      pop\n      jump\t// out\n        /* \"#utility.yul\":9824:10003   */\n    tag_191:\n        /* \"#utility.yul\":9964:9995   */\n      0x416464726573733a20696e73756666696369656e742062616c616e6365000000\n        /* \"#utility.yul\":9960:9961   */\n      0x00\n        /* \"#utility.yul\":9952:9958   */\n      dup3\n        /* \"#utility.yul\":9948:9962   */\n      add\n        /* \"#utility.yul\":9941:9996   */\n      mstore\n        /* \"#utility.yul\":9824:10003   */\n      pop\n      jump\t// out\n        /* \"#utility.yul\":10009:10191   */\n    tag_196:\n        /* \"#utility.yul\":10149:10183   */\n      0x4f776e61626c653a2063616c6c6572206973206e6f7420746865206f776e6572\n        /* \"#utility.yul\":10145:10146   */\n      0x00\n        /* \"#utility.yul\":10137:10143   */\n      dup3\n        /* \"#utility.yul\":10133:10147   */\n      add\n        /* \"#utility.yul\":10126:10184   */\n      mstore\n        /* \"#utility.yul\":10009:10191   */\n      pop\n      jump\t// out\n        /* \"#utility.yul\":10197:10311   */\n    tag_202:\n      pop\n      jump\t// out\n        /* \"#utility.yul\":10317:10439   */\n    tag_132:\n        /* \"#utility.yul\":10390:10414   */\n      tag_253\n        /* \"#utility.yul\":10408:10413   */\n      dup2\n        /* \"#utility.yul\":10390:10414   */\n      tag_171\n      jump\t// in\n    tag_253:\n        /* \"#utility.yul\":10383:10388   */\n      dup2\n        /* \"#utility.yul\":10380:10415   */\n      eq\n        /* \"#utility.yul\":10370:10433   */\n      tag_254\n      jumpi\n        /* \"#utility.yul\":10429:10430   */\n      0x00\n        /* \"#utility.yul\":10426:10427   */\n      dup1\n        /* \"#utility.yul\":10419:10431   */\n      revert\n        /* \"#utility.yul\":10370:10433   */\n    tag_254:\n        /* \"#utility.yul\":10317:10439   */\n      pop\n      jump\t// out\n        /* \"#utility.yul\":10445:10583   */\n    tag_136:\n        /* \"#utility.yul\":10526:10558   */\n      tag_256\n        /* \"#utility.yul\":10552:10557   */\n      dup2\n        /* \"#utility.yul\":10526:10558   */\n      tag_167\n      jump\t// in\n    tag_256:\n        /* \"#utility.yul\":10519:10524   */\n      dup2\n        /* \"#utility.yul\":10516:10559   */\n      eq\n        /* \"#utility.yul\":10506:10577   */\n      tag_257\n      jumpi\n        /* \"#utility.yul\":10573:10574   */\n      0x00\n        /* \"#utility.yul\":10570:10571   */\n      dup1\n        /* \"#utility.yul\":10563:10575   */\n      revert\n        /* \"#utility.yul\":10506:10577   */\n    tag_257:\n        /* \"#utility.yul\":10445:10583   */\n      pop\n      jump\t// out\n        /* \"#utility.yul\":10589:10705   */\n    tag_140:\n        /* \"#utility.yul\":10659:10680   */\n      tag_259\n        /* \"#utility.yul\":10674:10679   */\n      dup2\n        /* \"#utility.yul\":10659:10680   */\n      tag_175\n      jump\t// in\n    tag_259:\n        /* \"#utility.yul\":10652:10657   */\n      dup2\n        /* \"#utility.yul\":10649:10681   */\n      eq\n        /* \"#utility.yul\":10639:10699   */\n      tag_260\n      jumpi\n        /* \"#utility.yul\":10695:10696   */\n      0x00\n        /* \"#utility.yul\":10692:10693   */\n      dup1\n        /* \"#utility.yul\":10685:10697   */\n      revert\n        /* \"#utility.yul\":10639:10699   */\n    tag_260:\n        /* \"#utility.yul\":10589:10705   */\n      pop\n      jump\t// out\n        /* \"#utility.yul\":10711:10833   */\n    tag_144:\n        /* \"#utility.yul\":10784:10808   */\n      tag_262\n        /* \"#utility.yul\":10802:10807   */\n      dup2\n        /* \"#utility.yul\":10784:10808   */\n      tag_206\n      jump\t// in\n    tag_262:\n        /* \"#utility.yul\":10777:10782   */\n      dup2\n        /* \"#utility.yul\":10774:10809   */\n      eq\n        /* \"#utility.yul\":10764:10827   */\n      tag_263\n      jumpi\n        /* \"#utility.yul\":10823:10824   */\n      0x00\n        /* \"#utility.yul\":10820:10821   */\n      dup1\n        /* \"#utility.yul\":10813:10825   */\n      revert\n        /* \"#utility.yul\":10764:10827   */\n    tag_263:\n        /* \"#utility.yul\":10711:10833   */\n      pop\n      jump\t// out\n\n    auxdata: 0xa26469706673582212202efdad3ebccd53008fdc9cf0694e3d056be4e973e2eebbb918b0e19d0721adeb64736f6c63430008070033\n}\n",
				"bytecode": {
					"linkReferences": {},
					"object": "608060405234801561001057600080fd5b5061002d61002261003260201b60201c565b61003a60201b60201c565b6100fe565b600033905090565b60008060009054906101000a900473ffffffffffffffffffffffffffffffffffffffff169050816000806101000a81548173ffffffffffffffffffffffffffffffffffffffff021916908373ffffffffffffffffffffffffffffffffffffffff1602179055508173ffffffffffffffffffffffffffffffffffffffff168173ffffffffffffffffffffffffffffffffffffffff167f8be0079c531659141344cd1fd0a4f28419497f9722a3daafe3b4186f6b6457e060405160405180910390a35050565b610eb28061010d6000396000f3fe6080604052600436106100a75760003560e01c8063a1d1936111610064578063a1d1936114610194578063b0568eaa146101bf578063f2fde38b146101d6578063f851a440146101ff578063f9609f081461022a578063fbfd204514610246576100a7565b8063109e94cf146100ac578063251d8cd5146100d75780635e32c42514610100578063715018a6146101295780638da5cb5b146101405780639464c8b81461016b575b600080fd5b3480156100b857600080fd5b506100c1610271565b6040516100ce9190610b41565b60405180910390f35b3480156100e357600080fd5b506100fe60048036038101906100f991906109d4565b610297565b005b34801561010c57600080fd5b5061012760048036038101906101229190610a01565b6102b4565b005b34801561013557600080fd5b5061013e6102d9565b005b34801561014c57600080fd5b506101556102ed565b6040516101629190610b41565b60405180910390f35b34801561017757600080fd5b50610192600480360381019061018d91906109d4565b610316565b005b3480156101a057600080fd5b506101a9610333565b6040516101b69190610b77565b60405180910390f35b3480156101cb57600080fd5b506101d46103a6565b005b3480156101e257600080fd5b506101fd60048036038101906101f89190610967565b61048c565b005b34801561020b57600080fd5b50610214610510565b6040516102219190610b5c565b60405180910390f35b610244600480360381019061023f9190610994565b610536565b005b34801561025257600080fd5b5061025b6106af565b6040516102689190610b5c565b60405180910390f35b600260009054906101000a900473ffffffffffffffffffffffffffffffffffffffff1681565b80600560006101000a81548160ff02191690831515021790555050565b81600560026101000a81548160ff021916908315150217905550806006819055505050565b6102e16106d5565b6102eb6000610753565b565b60008060009054906101000a900473ffffffffffffffffffffffffffffffffffffffff16905090565b80600560016101000a81548160ff02191690831515021790555050565b600060011515600560009054906101000a900460ff16151514801561036b575060011515600560019054906101000a900460ff161515145b1561037957600190506103a3565b60011515600560029054906101000a900460ff161515141561039e57600190506103a3565b600090505b90565b600047905060011515600560009054906101000a900460ff1615151480156103e1575060011515600560019054906101000a900460ff161515145b8061040d575060011515600560029054906101000a900460ff16151514801561040c57506001600654145b5b156104625761045d81600160009054906101000a900473ffffffffffffffffffffffffffffffffffffffff1673ffffffffffffffffffffffffffffffffffffffff1661081790919063ffffffff16565b610489565b60011515600560029054906101000a900460ff16151514801561048757506000600654145b505b50565b6104946106d5565b600073ffffffffffffffffffffffffffffffffffffffff168173ffffffffffffffffffffffffffffffffffffffff161415610504576040517f08c379a00000000000000000000000000000000000000000000000000000000081526004016104fb90610b92565b60405180910390fd5b61050d81610753565b50565b600360009054906101000a900473ffffffffffffffffffffffffffffffffffffffff1681565b61053e6106d5565b81600160006101000a81548173ffffffffffffffffffffffffffffffffffffffff021916908373ffffffffffffffffffffffffffffffffffffffff16021790555033600260006101000a81548173ffffffffffffffffffffffffffffffffffffffff021916908373ffffffffffffffffffffffffffffffffffffffff16021790555080600360006101000a81548173ffffffffffffffffffffffffffffffffffffffff021916908373ffffffffffffffffffffffffffffffffffffffff160217905550600034905080600460008573ffffffffffffffffffffffffffffffffffffffff1673ffffffffffffffffffffffffffffffffffffffff16815260200190815260200160002060008282546106559190610c49565b925050819055508273ffffffffffffffffffffffffffffffffffffffff167f2da466a7b24304f47e87fa2e1e5a81b9831ce54fec19055ce277ca2f39ba42c4826040516106a29190610c12565b60405180910390a2505050565b600160009054906101000a900473ffffffffffffffffffffffffffffffffffffffff1681565b6106dd61090b565b73ffffffffffffffffffffffffffffffffffffffff166106fb6102ed565b73ffffffffffffffffffffffffffffffffffffffff1614610751576040517f08c379a000000000000000000000000000000000000000000000000000000000815260040161074890610bf2565b60405180910390fd5b565b60008060009054906101000a900473ffffffffffffffffffffffffffffffffffffffff169050816000806101000a81548173ffffffffffffffffffffffffffffffffffffffff021916908373ffffffffffffffffffffffffffffffffffffffff1602179055508173ffffffffffffffffffffffffffffffffffffffff168173ffffffffffffffffffffffffffffffffffffffff167f8be0079c531659141344cd1fd0a4f28419497f9722a3daafe3b4186f6b6457e060405160405180910390a35050565b8047101561085a576040517f08c379a000000000000000000000000000000000000000000000000000000000815260040161085190610bd2565b60405180910390fd5b60008273ffffffffffffffffffffffffffffffffffffffff168260405161088090610b2c565b60006040518083038185875af1925050503d80600081146108bd576040519150601f19603f3d011682016040523d82523d6000602084013e6108c2565b606091505b5050905080610906576040517f08c379a00000000000000000000000000000000000000000000000000000000081526004016108fd90610bb2565b60405180910390fd5b505050565b600033905090565b60008135905061092281610e20565b92915050565b60008135905061093781610e37565b92915050565b60008135905061094c81610e4e565b92915050565b60008135905061096181610e65565b92915050565b60006020828403121561097d5761097c610d28565b5b600061098b84828501610913565b91505092915050565b600080604083850312156109ab576109aa610d28565b5b60006109b985828601610928565b92505060206109ca85828601610928565b9150509250929050565b6000602082840312156109ea576109e9610d28565b5b60006109f88482850161093d565b91505092915050565b60008060408385031215610a1857610a17610d28565b5b6000610a268582860161093d565b9250506020610a3785828601610952565b9150509250929050565b610a4a81610cb1565b82525050565b610a5981610c9f565b82525050565b610a6881610cc3565b82525050565b6000610a7b602683610c38565b9150610a8682610d2d565b604082019050919050565b6000610a9e603a83610c38565b9150610aa982610d7c565b604082019050919050565b6000610ac1601d83610c38565b9150610acc82610dcb565b602082019050919050565b6000610ae4602083610c38565b9150610aef82610df4565b602082019050919050565b6000610b07600083610c2d565b9150610b1282610e1d565b600082019050919050565b610b2681610cef565b82525050565b6000610b3782610afa565b9150819050919050565b6000602082019050610b566000830184610a50565b92915050565b6000602082019050610b716000830184610a41565b92915050565b6000602082019050610b8c6000830184610a5f565b92915050565b60006020820190508181036000830152610bab81610a6e565b9050919050565b60006020820190508181036000830152610bcb81610a91565b9050919050565b60006020820190508181036000830152610beb81610ab4565b9050919050565b60006020820190508181036000830152610c0b81610ad7565b9050919050565b6000602082019050610c276000830184610b1d565b92915050565b600081905092915050565b600082825260208201905092915050565b6000610c5482610cef565b9150610c5f83610cef565b9250827fffffffffffffffffffffffffffffffffffffffffffffffffffffffffffffffff03821115610c9457610c93610cf9565b5b828201905092915050565b6000610caa82610ccf565b9050919050565b6000610cbc82610ccf565b9050919050565b60008115159050919050565b600073ffffffffffffffffffffffffffffffffffffffff82169050919050565b6000819050919050565b7f4e487b7100000000000000000000000000000000000000000000000000000000600052601160045260246000fd5b600080fd5b7f4f776e61626c653a206e6577206f776e657220697320746865207a65726f206160008201527f6464726573730000000000000000000000000000000000000000000000000000602082015250565b7f416464726573733a20756e61626c6520746f2073656e642076616c75652c207260008201527f6563697069656e74206d61792068617665207265766572746564000000000000602082015250565b7f416464726573733a20696e73756666696369656e742062616c616e6365000000600082015250565b7f4f776e61626c653a2063616c6c6572206973206e6f7420746865206f776e6572600082015250565b50565b610e2981610c9f565b8114610e3457600080fd5b50565b610e4081610cb1565b8114610e4b57600080fd5b50565b610e5781610cc3565b8114610e6257600080fd5b50565b610e6e81610cef565b8114610e7957600080fd5b5056fea26469706673582212202efdad3ebccd53008fdc9cf0694e3d056be4e973e2eebbb918b0e19d0721adeb64736f6c63430008070033",
					"opcodes": "PUSH1 0x80 PUSH1 0x40 MSTORE CALLVALUE DUP1 ISZERO PUSH2 0x10 JUMPI PUSH1 0x0 DUP1 REVERT JUMPDEST POP PUSH2 0x2D PUSH2 0x22 PUSH2 0x32 PUSH1 0x20 SHL PUSH1 0x20 SHR JUMP JUMPDEST PUSH2 0x3A PUSH1 0x20 SHL PUSH1 0x20 SHR JUMP JUMPDEST PUSH2 0xFE JUMP JUMPDEST PUSH1 0x0 CALLER SWAP1 POP SWAP1 JUMP JUMPDEST PUSH1 0x0 DUP1 PUSH1 0x0 SWAP1 SLOAD SWAP1 PUSH2 0x100 EXP SWAP1 DIV PUSH20 0xFFFFFFFFFFFFFFFFFFFFFFFFFFFFFFFFFFFFFFFF AND SWAP1 POP DUP2 PUSH1 0x0 DUP1 PUSH2 0x100 EXP DUP2 SLOAD DUP2 PUSH20 0xFFFFFFFFFFFFFFFFFFFFFFFFFFFFFFFFFFFFFFFF MUL NOT AND SWAP1 DUP4 PUSH20 0xFFFFFFFFFFFFFFFFFFFFFFFFFFFFFFFFFFFFFFFF AND MUL OR SWAP1 SSTORE POP DUP2 PUSH20 0xFFFFFFFFFFFFFFFFFFFFFFFFFFFFFFFFFFFFFFFF AND DUP2 PUSH20 0xFFFFFFFFFFFFFFFFFFFFFFFFFFFFFFFFFFFFFFFF AND PUSH32 0x8BE0079C531659141344CD1FD0A4F28419497F9722A3DAAFE3B4186F6B6457E0 PUSH1 0x40 MLOAD PUSH1 0x40 MLOAD DUP1 SWAP2 SUB SWAP1 LOG3 POP POP JUMP JUMPDEST PUSH2 0xEB2 DUP1 PUSH2 0x10D PUSH1 0x0 CODECOPY PUSH1 0x0 RETURN INVALID PUSH1 0x80 PUSH1 0x40 MSTORE PUSH1 0x4 CALLDATASIZE LT PUSH2 0xA7 JUMPI PUSH1 0x0 CALLDATALOAD PUSH1 0xE0 SHR DUP1 PUSH4 0xA1D19361 GT PUSH2 0x64 JUMPI DUP1 PUSH4 0xA1D19361 EQ PUSH2 0x194 JUMPI DUP1 PUSH4 0xB0568EAA EQ PUSH2 0x1BF JUMPI DUP1 PUSH4 0xF2FDE38B EQ PUSH2 0x1D6 JUMPI DUP1 PUSH4 0xF851A440 EQ PUSH2 0x1FF JUMPI DUP1 PUSH4 0xF9609F08 EQ PUSH2 0x22A JUMPI DUP1 PUSH4 0xFBFD2045 EQ PUSH2 0x246 JUMPI PUSH2 0xA7 JUMP JUMPDEST DUP1 PUSH4 0x109E94CF EQ PUSH2 0xAC JUMPI DUP1 PUSH4 0x251D8CD5 EQ PUSH2 0xD7 JUMPI DUP1 PUSH4 0x5E32C425 EQ PUSH2 0x100 JUMPI DUP1 PUSH4 0x715018A6 EQ PUSH2 0x129 JUMPI DUP1 PUSH4 0x8DA5CB5B EQ PUSH2 0x140 JUMPI DUP1 PUSH4 0x9464C8B8 EQ PUSH2 0x16B JUMPI JUMPDEST PUSH1 0x0 DUP1 REVERT JUMPDEST CALLVALUE DUP1 ISZERO PUSH2 0xB8 JUMPI PUSH1 0x0 DUP1 REVERT JUMPDEST POP PUSH2 0xC1 PUSH2 0x271 JUMP JUMPDEST PUSH1 0x40 MLOAD PUSH2 0xCE SWAP2 SWAP1 PUSH2 0xB41 JUMP JUMPDEST PUSH1 0x40 MLOAD DUP1 SWAP2 SUB SWAP1 RETURN JUMPDEST CALLVALUE DUP1 ISZERO PUSH2 0xE3 JUMPI PUSH1 0x0 DUP1 REVERT JUMPDEST POP PUSH2 0xFE PUSH1 0x4 DUP1 CALLDATASIZE SUB DUP2 ADD SWAP1 PUSH2 0xF9 SWAP2 SWAP1 PUSH2 0x9D4 JUMP JUMPDEST PUSH2 0x297 JUMP JUMPDEST STOP JUMPDEST CALLVALUE DUP1 ISZERO PUSH2 0x10C JUMPI PUSH1 0x0 DUP1 REVERT JUMPDEST POP PUSH2 0x127 PUSH1 0x4 DUP1 CALLDATASIZE SUB DUP2 ADD SWAP1 PUSH2 0x122 SWAP2 SWAP1 PUSH2 0xA01 JUMP JUMPDEST PUSH2 0x2B4 JUMP JUMPDEST STOP JUMPDEST CALLVALUE DUP1 ISZERO PUSH2 0x135 JUMPI PUSH1 0x0 DUP1 REVERT JUMPDEST POP PUSH2 0x13E PUSH2 0x2D9 JUMP JUMPDEST STOP JUMPDEST CALLVALUE DUP1 ISZERO PUSH2 0x14C JUMPI PUSH1 0x0 DUP1 REVERT JUMPDEST POP PUSH2 0x155 PUSH2 0x2ED JUMP JUMPDEST PUSH1 0x40 MLOAD PUSH2 0x162 SWAP2 SWAP1 PUSH2 0xB41 JUMP JUMPDEST PUSH1 0x40 MLOAD DUP1 SWAP2 SUB SWAP1 RETURN JUMPDEST CALLVALUE DUP1 ISZERO PUSH2 0x177 JUMPI PUSH1 0x0 DUP1 REVERT JUMPDEST POP PUSH2 0x192 PUSH1 0x4 DUP1 CALLDATASIZE SUB DUP2 ADD SWAP1 PUSH2 0x18D SWAP2 SWAP1 PUSH2 0x9D4 JUMP JUMPDEST PUSH2 0x316 JUMP JUMPDEST STOP JUMPDEST CALLVALUE DUP1 ISZERO PUSH2 0x1A0 JUMPI PUSH1 0x0 DUP1 REVERT JUMPDEST POP PUSH2 0x1A9 PUSH2 0x333 JUMP JUMPDEST PUSH1 0x40 MLOAD PUSH2 0x1B6 SWAP2 SWAP1 PUSH2 0xB77 JUMP JUMPDEST PUSH1 0x40 MLOAD DUP1 SWAP2 SUB SWAP1 RETURN JUMPDEST CALLVALUE DUP1 ISZERO PUSH2 0x1CB JUMPI PUSH1 0x0 DUP1 REVERT JUMPDEST POP PUSH2 0x1D4 PUSH2 0x3A6 JUMP JUMPDEST STOP JUMPDEST CALLVALUE DUP1 ISZERO PUSH2 0x1E2 JUMPI PUSH1 0x0 DUP1 REVERT JUMPDEST POP PUSH2 0x1FD PUSH1 0x4 DUP1 CALLDATASIZE SUB DUP2 ADD SWAP1 PUSH2 0x1F8 SWAP2 SWAP1 PUSH2 0x967 JUMP JUMPDEST PUSH2 0x48C JUMP JUMPDEST STOP JUMPDEST CALLVALUE DUP1 ISZERO PUSH2 0x20B JUMPI PUSH1 0x0 DUP1 REVERT JUMPDEST POP PUSH2 0x214 PUSH2 0x510 JUMP JUMPDEST PUSH1 0x40 MLOAD PUSH2 0x221 SWAP2 SWAP1 PUSH2 0xB5C JUMP JUMPDEST PUSH1 0x40 MLOAD DUP1 SWAP2 SUB SWAP1 RETURN JUMPDEST PUSH2 0x244 PUSH1 0x4 DUP1 CALLDATASIZE SUB DUP2 ADD SWAP1 PUSH2 0x23F SWAP2 SWAP1 PUSH2 0x994 JUMP JUMPDEST PUSH2 0x536 JUMP JUMPDEST STOP JUMPDEST CALLVALUE DUP1 ISZERO PUSH2 0x252 JUMPI PUSH1 0x0 DUP1 REVERT JUMPDEST POP PUSH2 0x25B PUSH2 0x6AF JUMP JUMPDEST PUSH1 0x40 MLOAD PUSH2 0x268 SWAP2 SWAP1 PUSH2 0xB5C JUMP JUMPDEST PUSH1 0x40 MLOAD DUP1 SWAP2 SUB SWAP1 RETURN JUMPDEST PUSH1 0x2 PUSH1 0x0 SWAP1 SLOAD SWAP1 PUSH2 0x100 EXP SWAP1 DIV PUSH20 0xFFFFFFFFFFFFFFFFFFFFFFFFFFFFFFFFFFFFFFFF AND DUP2 JUMP JUMPDEST DUP1 PUSH1 0x5 PUSH1 0x0 PUSH2 0x100 EXP DUP2 SLOAD DUP2 PUSH1 0xFF MUL NOT AND SWAP1 DUP4 ISZERO ISZERO MUL OR SWAP1 SSTORE POP POP JUMP JUMPDEST DUP2 PUSH1 0x5 PUSH1 0x2 PUSH2 0x100 EXP DUP2 SLOAD DUP2 PUSH1 0xFF MUL NOT AND SWAP1 DUP4 ISZERO ISZERO MUL OR SWAP1 SSTORE POP DUP1 PUSH1 0x6 DUP2 SWAP1 SSTORE POP POP POP JUMP JUMPDEST PUSH2 0x2E1 PUSH2 0x6D5 JUMP JUMPDEST PUSH2 0x2EB PUSH1 0x0 PUSH2 0x753 JUMP JUMPDEST JUMP JUMPDEST PUSH1 0x0 DUP1 PUSH1 0x0 SWAP1 SLOAD SWAP1 PUSH2 0x100 EXP SWAP1 DIV PUSH20 0xFFFFFFFFFFFFFFFFFFFFFFFFFFFFFFFFFFFFFFFF AND SWAP1 POP SWAP1 JUMP JUMPDEST DUP1 PUSH1 0x5 PUSH1 0x1 PUSH2 0x100 EXP DUP2 SLOAD DUP2 PUSH1 0xFF MUL NOT AND SWAP1 DUP4 ISZERO ISZERO MUL OR SWAP1 SSTORE POP POP JUMP JUMPDEST PUSH1 0x0 PUSH1 0x1 ISZERO ISZERO PUSH1 0x5 PUSH1 0x0 SWAP1 SLOAD SWAP1 PUSH2 0x100 EXP SWAP1 DIV PUSH1 0xFF AND ISZERO ISZERO EQ DUP1 ISZERO PUSH2 0x36B JUMPI POP PUSH1 0x1 ISZERO ISZERO PUSH1 0x5 PUSH1 0x1 SWAP1 SLOAD SWAP1 PUSH2 0x100 EXP SWAP1 DIV PUSH1 0xFF AND ISZERO ISZERO EQ JUMPDEST ISZERO PUSH2 0x379 JUMPI PUSH1 0x1 SWAP1 POP PUSH2 0x3A3 JUMP JUMPDEST PUSH1 0x1 ISZERO ISZERO PUSH1 0x5 PUSH1 0x2 SWAP1 SLOAD SWAP1 PUSH2 0x100 EXP SWAP1 DIV PUSH1 0xFF AND ISZERO ISZERO EQ ISZERO PUSH2 0x39E JUMPI PUSH1 0x1 SWAP1 POP PUSH2 0x3A3 JUMP JUMPDEST PUSH1 0x0 SWAP1 POP JUMPDEST SWAP1 JUMP JUMPDEST PUSH1 0x0 SELFBALANCE SWAP1 POP PUSH1 0x1 ISZERO ISZERO PUSH1 0x5 PUSH1 0x0 SWAP1 SLOAD SWAP1 PUSH2 0x100 EXP SWAP1 DIV PUSH1 0xFF AND ISZERO ISZERO EQ DUP1 ISZERO PUSH2 0x3E1 JUMPI POP PUSH1 0x1 ISZERO ISZERO PUSH1 0x5 PUSH1 0x1 SWAP1 SLOAD SWAP1 PUSH2 0x100 EXP SWAP1 DIV PUSH1 0xFF AND ISZERO ISZERO EQ JUMPDEST DUP1 PUSH2 0x40D JUMPI POP PUSH1 0x1 ISZERO ISZERO PUSH1 0x5 PUSH1 0x2 SWAP1 SLOAD SWAP1 PUSH2 0x100 EXP SWAP1 DIV PUSH1 0xFF AND ISZERO ISZERO EQ DUP1 ISZERO PUSH2 0x40C JUMPI POP PUSH1 0x1 PUSH1 0x6 SLOAD EQ JUMPDEST JUMPDEST ISZERO PUSH2 0x462 JUMPI PUSH2 0x45D DUP2 PUSH1 0x1 PUSH1 0x0 SWAP1 SLOAD SWAP1 PUSH2 0x100 EXP SWAP1 DIV PUSH20 0xFFFFFFFFFFFFFFFFFFFFFFFFFFFFFFFFFFFFFFFF AND PUSH20 0xFFFFFFFFFFFFFFFFFFFFFFFFFFFFFFFFFFFFFFFF AND PUSH2 0x817 SWAP1 SWAP2 SWAP1 PUSH4 0xFFFFFFFF AND JUMP JUMPDEST PUSH2 0x489 JUMP JUMPDEST PUSH1 0x1 ISZERO ISZERO PUSH1 0x5 PUSH1 0x2 SWAP1 SLOAD SWAP1 PUSH2 0x100 EXP SWAP1 DIV PUSH1 0xFF AND ISZERO ISZERO EQ DUP1 ISZERO PUSH2 0x487 JUMPI POP PUSH1 0x0 PUSH1 0x6 SLOAD EQ JUMPDEST POP JUMPDEST POP JUMP JUMPDEST PUSH2 0x494 PUSH2 0x6D5 JUMP JUMPDEST PUSH1 0x0 PUSH20 0xFFFFFFFFFFFFFFFFFFFFFFFFFFFFFFFFFFFFFFFF AND DUP2 PUSH20 0xFFFFFFFFFFFFFFFFFFFFFFFFFFFFFFFFFFFFFFFF AND EQ ISZERO PUSH2 0x504 JUMPI PUSH1 0x40 MLOAD PUSH32 0x8C379A000000000000000000000000000000000000000000000000000000000 DUP2 MSTORE PUSH1 0x4 ADD PUSH2 0x4FB SWAP1 PUSH2 0xB92 JUMP JUMPDEST PUSH1 0x40 MLOAD DUP1 SWAP2 SUB SWAP1 REVERT JUMPDEST PUSH2 0x50D DUP2 PUSH2 0x753 JUMP JUMPDEST POP JUMP JUMPDEST PUSH1 0x3 PUSH1 0x0 SWAP1 SLOAD SWAP1 PUSH2 0x100 EXP SWAP1 DIV PUSH20 0xFFFFFFFFFFFFFFFFFFFFFFFFFFFFFFFFFFFFFFFF AND DUP2 JUMP JUMPDEST PUSH2 0x53E PUSH2 0x6D5 JUMP JUMPDEST DUP2 PUSH1 0x1 PUSH1 0x0 PUSH2 0x100 EXP DUP2 SLOAD DUP2 PUSH20 0xFFFFFFFFFFFFFFFFFFFFFFFFFFFFFFFFFFFFFFFF MUL NOT AND SWAP1 DUP4 PUSH20 0xFFFFFFFFFFFFFFFFFFFFFFFFFFFFFFFFFFFFFFFF AND MUL OR SWAP1 SSTORE POP CALLER PUSH1 0x2 PUSH1 0x0 PUSH2 0x100 EXP DUP2 SLOAD DUP2 PUSH20 0xFFFFFFFFFFFFFFFFFFFFFFFFFFFFFFFFFFFFFFFF MUL NOT AND SWAP1 DUP4 PUSH20 0xFFFFFFFFFFFFFFFFFFFFFFFFFFFFFFFFFFFFFFFF AND MUL OR SWAP1 SSTORE POP DUP1 PUSH1 0x3 PUSH1 0x0 PUSH2 0x100 EXP DUP2 SLOAD DUP2 PUSH20 0xFFFFFFFFFFFFFFFFFFFFFFFFFFFFFFFFFFFFFFFF MUL NOT AND SWAP1 DUP4 PUSH20 0xFFFFFFFFFFFFFFFFFFFFFFFFFFFFFFFFFFFFFFFF AND MUL OR SWAP1 SSTORE POP PUSH1 0x0 CALLVALUE SWAP1 POP DUP1 PUSH1 0x4 PUSH1 0x0 DUP6 PUSH20 0xFFFFFFFFFFFFFFFFFFFFFFFFFFFFFFFFFFFFFFFF AND PUSH20 0xFFFFFFFFFFFFFFFFFFFFFFFFFFFFFFFFFFFFFFFF AND DUP2 MSTORE PUSH1 0x20 ADD SWAP1 DUP2 MSTORE PUSH1 0x20 ADD PUSH1 0x0 KECCAK256 PUSH1 0x0 DUP3 DUP3 SLOAD PUSH2 0x655 SWAP2 SWAP1 PUSH2 0xC49 JUMP JUMPDEST SWAP3 POP POP DUP2 SWAP1 SSTORE POP DUP3 PUSH20 0xFFFFFFFFFFFFFFFFFFFFFFFFFFFFFFFFFFFFFFFF AND PUSH32 0x2DA466A7B24304F47E87FA2E1E5A81B9831CE54FEC19055CE277CA2F39BA42C4 DUP3 PUSH1 0x40 MLOAD PUSH2 0x6A2 SWAP2 SWAP1 PUSH2 0xC12 JUMP JUMPDEST PUSH1 0x40 MLOAD DUP1 SWAP2 SUB SWAP1 LOG2 POP POP POP JUMP JUMPDEST PUSH1 0x1 PUSH1 0x0 SWAP1 SLOAD SWAP1 PUSH2 0x100 EXP SWAP1 DIV PUSH20 0xFFFFFFFFFFFFFFFFFFFFFFFFFFFFFFFFFFFFFFFF AND DUP2 JUMP JUMPDEST PUSH2 0x6DD PUSH2 0x90B JUMP JUMPDEST PUSH20 0xFFFFFFFFFFFFFFFFFFFFFFFFFFFFFFFFFFFFFFFF AND PUSH2 0x6FB PUSH2 0x2ED JUMP JUMPDEST PUSH20 0xFFFFFFFFFFFFFFFFFFFFFFFFFFFFFFFFFFFFFFFF AND EQ PUSH2 0x751 JUMPI PUSH1 0x40 MLOAD PUSH32 0x8C379A000000000000000000000000000000000000000000000000000000000 DUP2 MSTORE PUSH1 0x4 ADD PUSH2 0x748 SWAP1 PUSH2 0xBF2 JUMP JUMPDEST PUSH1 0x40 MLOAD DUP1 SWAP2 SUB SWAP1 REVERT JUMPDEST JUMP JUMPDEST PUSH1 0x0 DUP1 PUSH1 0x0 SWAP1 SLOAD SWAP1 PUSH2 0x100 EXP SWAP1 DIV PUSH20 0xFFFFFFFFFFFFFFFFFFFFFFFFFFFFFFFFFFFFFFFF AND SWAP1 POP DUP2 PUSH1 0x0 DUP1 PUSH2 0x100 EXP DUP2 SLOAD DUP2 PUSH20 0xFFFFFFFFFFFFFFFFFFFFFFFFFFFFFFFFFFFFFFFF MUL NOT AND SWAP1 DUP4 PUSH20 0xFFFFFFFFFFFFFFFFFFFFFFFFFFFFFFFFFFFFFFFF AND MUL OR SWAP1 SSTORE POP DUP2 PUSH20 0xFFFFFFFFFFFFFFFFFFFFFFFFFFFFFFFFFFFFFFFF AND DUP2 PUSH20 0xFFFFFFFFFFFFFFFFFFFFFFFFFFFFFFFFFFFFFFFF AND PUSH32 0x8BE0079C531659141344CD1FD0A4F28419497F9722A3DAAFE3B4186F6B6457E0 PUSH1 0x40 MLOAD PUSH1 0x40 MLOAD DUP1 SWAP2 SUB SWAP1 LOG3 POP POP JUMP JUMPDEST DUP1 SELFBALANCE LT ISZERO PUSH2 0x85A JUMPI PUSH1 0x40 MLOAD PUSH32 0x8C379A000000000000000000000000000000000000000000000000000000000 DUP2 MSTORE PUSH1 0x4 ADD PUSH2 0x851 SWAP1 PUSH2 0xBD2 JUMP JUMPDEST PUSH1 0x40 MLOAD DUP1 SWAP2 SUB SWAP1 REVERT JUMPDEST PUSH1 0x0 DUP3 PUSH20 0xFFFFFFFFFFFFFFFFFFFFFFFFFFFFFFFFFFFFFFFF AND DUP3 PUSH1 0x40 MLOAD PUSH2 0x880 SWAP1 PUSH2 0xB2C JUMP JUMPDEST PUSH1 0x0 PUSH1 0x40 MLOAD DUP1 DUP4 SUB DUP2 DUP6 DUP8 GAS CALL SWAP3 POP POP POP RETURNDATASIZE DUP1 PUSH1 0x0 DUP2 EQ PUSH2 0x8BD JUMPI PUSH1 0x40 MLOAD SWAP2 POP PUSH1 0x1F NOT PUSH1 0x3F RETURNDATASIZE ADD AND DUP3 ADD PUSH1 0x40 MSTORE RETURNDATASIZE DUP3 MSTORE RETURNDATASIZE PUSH1 0x0 PUSH1 0x20 DUP5 ADD RETURNDATACOPY PUSH2 0x8C2 JUMP JUMPDEST PUSH1 0x60 SWAP2 POP JUMPDEST POP POP SWAP1 POP DUP1 PUSH2 0x906 JUMPI PUSH1 0x40 MLOAD PUSH32 0x8C379A000000000000000000000000000000000000000000000000000000000 DUP2 MSTORE PUSH1 0x4 ADD PUSH2 0x8FD SWAP1 PUSH2 0xBB2 JUMP JUMPDEST PUSH1 0x40 MLOAD DUP1 SWAP2 SUB SWAP1 REVERT JUMPDEST POP POP POP JUMP JUMPDEST PUSH1 0x0 CALLER SWAP1 POP SWAP1 JUMP JUMPDEST PUSH1 0x0 DUP2 CALLDATALOAD SWAP1 POP PUSH2 0x922 DUP2 PUSH2 0xE20 JUMP JUMPDEST SWAP3 SWAP2 POP POP JUMP JUMPDEST PUSH1 0x0 DUP2 CALLDATALOAD SWAP1 POP PUSH2 0x937 DUP2 PUSH2 0xE37 JUMP JUMPDEST SWAP3 SWAP2 POP POP JUMP JUMPDEST PUSH1 0x0 DUP2 CALLDATALOAD SWAP1 POP PUSH2 0x94C DUP2 PUSH2 0xE4E JUMP JUMPDEST SWAP3 SWAP2 POP POP JUMP JUMPDEST PUSH1 0x0 DUP2 CALLDATALOAD SWAP1 POP PUSH2 0x961 DUP2 PUSH2 0xE65 JUMP JUMPDEST SWAP3 SWAP2 POP POP JUMP JUMPDEST PUSH1 0x0 PUSH1 0x20 DUP3 DUP5 SUB SLT ISZERO PUSH2 0x97D JUMPI PUSH2 0x97C PUSH2 0xD28 JUMP JUMPDEST JUMPDEST PUSH1 0x0 PUSH2 0x98B DUP5 DUP3 DUP6 ADD PUSH2 0x913 JUMP JUMPDEST SWAP2 POP POP SWAP3 SWAP2 POP POP JUMP JUMPDEST PUSH1 0x0 DUP1 PUSH1 0x40 DUP4 DUP6 SUB SLT ISZERO PUSH2 0x9AB JUMPI PUSH2 0x9AA PUSH2 0xD28 JUMP JUMPDEST JUMPDEST PUSH1 0x0 PUSH2 0x9B9 DUP6 DUP3 DUP7 ADD PUSH2 0x928 JUMP JUMPDEST SWAP3 POP POP PUSH1 0x20 PUSH2 0x9CA DUP6 DUP3 DUP7 ADD PUSH2 0x928 JUMP JUMPDEST SWAP2 POP POP SWAP3 POP SWAP3 SWAP1 POP JUMP JUMPDEST PUSH1 0x0 PUSH1 0x20 DUP3 DUP5 SUB SLT ISZERO PUSH2 0x9EA JUMPI PUSH2 0x9E9 PUSH2 0xD28 JUMP JUMPDEST JUMPDEST PUSH1 0x0 PUSH2 0x9F8 DUP5 DUP3 DUP6 ADD PUSH2 0x93D JUMP JUMPDEST SWAP2 POP POP SWAP3 SWAP2 POP POP JUMP JUMPDEST PUSH1 0x0 DUP1 PUSH1 0x40 DUP4 DUP6 SUB SLT ISZERO PUSH2 0xA18 JUMPI PUSH2 0xA17 PUSH2 0xD28 JUMP JUMPDEST JUMPDEST PUSH1 0x0 PUSH2 0xA26 DUP6 DUP3 DUP7 ADD PUSH2 0x93D JUMP JUMPDEST SWAP3 POP POP PUSH1 0x20 PUSH2 0xA37 DUP6 DUP3 DUP7 ADD PUSH2 0x952 JUMP JUMPDEST SWAP2 POP POP SWAP3 POP SWAP3 SWAP1 POP JUMP JUMPDEST PUSH2 0xA4A DUP2 PUSH2 0xCB1 JUMP JUMPDEST DUP3 MSTORE POP POP JUMP JUMPDEST PUSH2 0xA59 DUP2 PUSH2 0xC9F JUMP JUMPDEST DUP3 MSTORE POP POP JUMP JUMPDEST PUSH2 0xA68 DUP2 PUSH2 0xCC3 JUMP JUMPDEST DUP3 MSTORE POP POP JUMP JUMPDEST PUSH1 0x0 PUSH2 0xA7B PUSH1 0x26 DUP4 PUSH2 0xC38 JUMP JUMPDEST SWAP2 POP PUSH2 0xA86 DUP3 PUSH2 0xD2D JUMP JUMPDEST PUSH1 0x40 DUP3 ADD SWAP1 POP SWAP2 SWAP1 POP JUMP JUMPDEST PUSH1 0x0 PUSH2 0xA9E PUSH1 0x3A DUP4 PUSH2 0xC38 JUMP JUMPDEST SWAP2 POP PUSH2 0xAA9 DUP3 PUSH2 0xD7C JUMP JUMPDEST PUSH1 0x40 DUP3 ADD SWAP1 POP SWAP2 SWAP1 POP JUMP JUMPDEST PUSH1 0x0 PUSH2 0xAC1 PUSH1 0x1D DUP4 PUSH2 0xC38 JUMP JUMPDEST SWAP2 POP PUSH2 0xACC DUP3 PUSH2 0xDCB JUMP JUMPDEST PUSH1 0x20 DUP3 ADD SWAP1 POP SWAP2 SWAP1 POP JUMP JUMPDEST PUSH1 0x0 PUSH2 0xAE4 PUSH1 0x20 DUP4 PUSH2 0xC38 JUMP JUMPDEST SWAP2 POP PUSH2 0xAEF DUP3 PUSH2 0xDF4 JUMP JUMPDEST PUSH1 0x20 DUP3 ADD SWAP1 POP SWAP2 SWAP1 POP JUMP JUMPDEST PUSH1 0x0 PUSH2 0xB07 PUSH1 0x0 DUP4 PUSH2 0xC2D JUMP JUMPDEST SWAP2 POP PUSH2 0xB12 DUP3 PUSH2 0xE1D JUMP JUMPDEST PUSH1 0x0 DUP3 ADD SWAP1 POP SWAP2 SWAP1 POP JUMP JUMPDEST PUSH2 0xB26 DUP2 PUSH2 0xCEF JUMP JUMPDEST DUP3 MSTORE POP POP JUMP JUMPDEST PUSH1 0x0 PUSH2 0xB37 DUP3 PUSH2 0xAFA JUMP JUMPDEST SWAP2 POP DUP2 SWAP1 POP SWAP2 SWAP1 POP JUMP JUMPDEST PUSH1 0x0 PUSH1 0x20 DUP3 ADD SWAP1 POP PUSH2 0xB56 PUSH1 0x0 DUP4 ADD DUP5 PUSH2 0xA50 JUMP JUMPDEST SWAP3 SWAP2 POP POP JUMP JUMPDEST PUSH1 0x0 PUSH1 0x20 DUP3 ADD SWAP1 POP PUSH2 0xB71 PUSH1 0x0 DUP4 ADD DUP5 PUSH2 0xA41 JUMP JUMPDEST SWAP3 SWAP2 POP POP JUMP JUMPDEST PUSH1 0x0 PUSH1 0x20 DUP3 ADD SWAP1 POP PUSH2 0xB8C PUSH1 0x0 DUP4 ADD DUP5 PUSH2 0xA5F JUMP JUMPDEST SWAP3 SWAP2 POP POP JUMP JUMPDEST PUSH1 0x0 PUSH1 0x20 DUP3 ADD SWAP1 POP DUP2 DUP2 SUB PUSH1 0x0 DUP4 ADD MSTORE PUSH2 0xBAB DUP2 PUSH2 0xA6E JUMP JUMPDEST SWAP1 POP SWAP2 SWAP1 POP JUMP JUMPDEST PUSH1 0x0 PUSH1 0x20 DUP3 ADD SWAP1 POP DUP2 DUP2 SUB PUSH1 0x0 DUP4 ADD MSTORE PUSH2 0xBCB DUP2 PUSH2 0xA91 JUMP JUMPDEST SWAP1 POP SWAP2 SWAP1 POP JUMP JUMPDEST PUSH1 0x0 PUSH1 0x20 DUP3 ADD SWAP1 POP DUP2 DUP2 SUB PUSH1 0x0 DUP4 ADD MSTORE PUSH2 0xBEB DUP2 PUSH2 0xAB4 JUMP JUMPDEST SWAP1 POP SWAP2 SWAP1 POP JUMP JUMPDEST PUSH1 0x0 PUSH1 0x20 DUP3 ADD SWAP1 POP DUP2 DUP2 SUB PUSH1 0x0 DUP4 ADD MSTORE PUSH2 0xC0B DUP2 PUSH2 0xAD7 JUMP JUMPDEST SWAP1 POP SWAP2 SWAP1 POP JUMP JUMPDEST PUSH1 0x0 PUSH1 0x20 DUP3 ADD SWAP1 POP PUSH2 0xC27 PUSH1 0x0 DUP4 ADD DUP5 PUSH2 0xB1D JUMP JUMPDEST SWAP3 SWAP2 POP POP JUMP JUMPDEST PUSH1 0x0 DUP2 SWAP1 POP SWAP3 SWAP2 POP POP JUMP JUMPDEST PUSH1 0x0 DUP3 DUP3 MSTORE PUSH1 0x20 DUP3 ADD SWAP1 POP SWAP3 SWAP2 POP POP JUMP JUMPDEST PUSH1 0x0 PUSH2 0xC54 DUP3 PUSH2 0xCEF JUMP JUMPDEST SWAP2 POP PUSH2 0xC5F DUP4 PUSH2 0xCEF JUMP JUMPDEST SWAP3 POP DUP3 PUSH32 0xFFFFFFFFFFFFFFFFFFFFFFFFFFFFFFFFFFFFFFFFFFFFFFFFFFFFFFFFFFFFFFFF SUB DUP3 GT ISZERO PUSH2 0xC94 JUMPI PUSH2 0xC93 PUSH2 0xCF9 JUMP JUMPDEST JUMPDEST DUP3 DUP3 ADD SWAP1 POP SWAP3 SWAP2 POP POP JUMP JUMPDEST PUSH1 0x0 PUSH2 0xCAA DUP3 PUSH2 0xCCF JUMP JUMPDEST SWAP1 POP SWAP2 SWAP1 POP JUMP JUMPDEST PUSH1 0x0 PUSH2 0xCBC DUP3 PUSH2 0xCCF JUMP JUMPDEST SWAP1 POP SWAP2 SWAP1 POP JUMP JUMPDEST PUSH1 0x0 DUP2 ISZERO ISZERO SWAP1 POP SWAP2 SWAP1 POP JUMP JUMPDEST PUSH1 0x0 PUSH20 0xFFFFFFFFFFFFFFFFFFFFFFFFFFFFFFFFFFFFFFFF DUP3 AND SWAP1 POP SWAP2 SWAP1 POP JUMP JUMPDEST PUSH1 0x0 DUP2 SWAP1 POP SWAP2 SWAP1 POP JUMP JUMPDEST PUSH32 0x4E487B7100000000000000000000000000000000000000000000000000000000 PUSH1 0x0 MSTORE PUSH1 0x11 PUSH1 0x4 MSTORE PUSH1 0x24 PUSH1 0x0 REVERT JUMPDEST PUSH1 0x0 DUP1 REVERT JUMPDEST PUSH32 0x4F776E61626C653A206E6577206F776E657220697320746865207A65726F2061 PUSH1 0x0 DUP3 ADD MSTORE PUSH32 0x6464726573730000000000000000000000000000000000000000000000000000 PUSH1 0x20 DUP3 ADD MSTORE POP JUMP JUMPDEST PUSH32 0x416464726573733A20756E61626C6520746F2073656E642076616C75652C2072 PUSH1 0x0 DUP3 ADD MSTORE PUSH32 0x6563697069656E74206D61792068617665207265766572746564000000000000 PUSH1 0x20 DUP3 ADD MSTORE POP JUMP JUMPDEST PUSH32 0x416464726573733A20696E73756666696369656E742062616C616E6365000000 PUSH1 0x0 DUP3 ADD MSTORE POP JUMP JUMPDEST PUSH32 0x4F776E61626C653A2063616C6C6572206973206E6F7420746865206F776E6572 PUSH1 0x0 DUP3 ADD MSTORE POP JUMP JUMPDEST POP JUMP JUMPDEST PUSH2 0xE29 DUP2 PUSH2 0xC9F JUMP JUMPDEST DUP2 EQ PUSH2 0xE34 JUMPI PUSH1 0x0 DUP1 REVERT JUMPDEST POP JUMP JUMPDEST PUSH2 0xE40 DUP2 PUSH2 0xCB1 JUMP JUMPDEST DUP2 EQ PUSH2 0xE4B JUMPI PUSH1 0x0 DUP1 REVERT JUMPDEST POP JUMP JUMPDEST PUSH2 0xE57 DUP2 PUSH2 0xCC3 JUMP JUMPDEST DUP2 EQ PUSH2 0xE62 JUMPI PUSH1 0x0 DUP1 REVERT JUMPDEST POP JUMP JUMPDEST PUSH2 0xE6E DUP2 PUSH2 0xCEF JUMP JUMPDEST DUP2 EQ PUSH2 0xE79 JUMPI PUSH1 0x0 DUP1 REVERT JUMPDEST POP JUMP INVALID LOG2 PUSH5 0x6970667358 0x22 SLT KECCAK256 0x2E REVERT 0xAD RETURNDATACOPY 0xBC 0xCD MSTORE8 STOP DUP16 0xDC SWAP13 CREATE PUSH10 0x4E3D056BE4E973E2EEBB 0xB9 XOR 0xB0 0xE1 SWAP14 SMOD 0x21 0xAD 0xEB PUSH5 0x736F6C6343 STOP ADDMOD SMOD STOP CALLER "
				},
				"gasEstimates": {
					"creation": {
						"codeDepositCost": "752400",
						"executionCost": "infinite",
						"totalCost": "infinite"
					},
					"external": {
						"admin()": "2580",
						"adminResolutionStatus(bool,uint256)": "47061",
						"client()": "2515",
						"contractor()": "2624",
						"deposit(address,address)": "infinite",
						"owner()": "2611",
						"renounceOwnership()": "30465",
						"taskCompletionStatus(bool)": "24702",
						"taskValidationStatus(bool)": "24840",
						"testPayment()": "infinite",
						"transferOwnership(address)": "30791",
						"withdrawalAllowed()": "6981"
					}
				},
				"methodIdentifiers": {
					"admin()": "f851a440",
					"adminResolutionStatus(bool,uint256)": "5e32c425",
					"client()": "109e94cf",
					"contractor()": "fbfd2045",
					"deposit(address,address)": "f9609f08",
					"owner()": "8da5cb5b",
					"renounceOwnership()": "715018a6",
					"taskCompletionStatus(bool)": "251d8cd5",
					"taskValidationStatus(bool)": "9464c8b8",
					"testPayment()": "b0568eaa",
					"transferOwnership(address)": "f2fde38b",
					"withdrawalAllowed()": "a1d19361"
				}
			},
			"storageLayout": {
				"storage": [
					{
						"astId": 7,
						"contract": "contracts/Escrow.sol:Escrow",
						"label": "_owner",
						"offset": 0,
						"slot": "0",
						"type": "t_address"
					},
					{
						"astId": 446,
						"contract": "contracts/Escrow.sol:Escrow",
						"label": "contractor",
						"offset": 0,
						"slot": "1",
						"type": "t_address_payable"
					},
					{
						"astId": 448,
						"contract": "contracts/Escrow.sol:Escrow",
						"label": "client",
						"offset": 0,
						"slot": "2",
						"type": "t_address"
					},
					{
						"astId": 450,
						"contract": "contracts/Escrow.sol:Escrow",
						"label": "admin",
						"offset": 0,
						"slot": "3",
						"type": "t_address_payable"
					},
					{
						"astId": 454,
						"contract": "contracts/Escrow.sol:Escrow",
						"label": "_deposits",
						"offset": 0,
						"slot": "4",
						"type": "t_mapping(t_address,t_uint256)"
					},
					{
						"astId": 495,
						"contract": "contracts/Escrow.sol:Escrow",
						"label": "taskCompleted",
						"offset": 0,
						"slot": "5",
						"type": "t_bool"
					},
					{
						"astId": 497,
						"contract": "contracts/Escrow.sol:Escrow",
						"label": "taskValidated",
						"offset": 1,
						"slot": "5",
						"type": "t_bool"
					},
					{
						"astId": 499,
						"contract": "contracts/Escrow.sol:Escrow",
						"label": "adminResolution",
						"offset": 2,
						"slot": "5",
						"type": "t_bool"
					},
					{
						"astId": 501,
						"contract": "contracts/Escrow.sol:Escrow",
						"label": "adminDecision",
						"offset": 0,
						"slot": "6",
						"type": "t_uint256"
					}
				],
				"types": {
					"t_address": {
						"encoding": "inplace",
						"label": "address",
						"numberOfBytes": "20"
					},
					"t_address_payable": {
						"encoding": "inplace",
						"label": "address payable",
						"numberOfBytes": "20"
					},
					"t_bool": {
						"encoding": "inplace",
						"label": "bool",
						"numberOfBytes": "1"
					},
					"t_mapping(t_address,t_uint256)": {
						"encoding": "mapping",
						"key": "t_address",
						"label": "mapping(address => uint256)",
						"numberOfBytes": "32",
						"value": "t_uint256"
					},
					"t_uint256": {
						"encoding": "inplace",
						"label": "uint256",
						"numberOfBytes": "32"
					}
				}
			},
			"userdoc": {
				"kind": "user",
				"methods": {},
				"version": 1
			}
		}
	}
}