{
	"contracts/Escrow.sol": {
		"Escrow": {
			"abi": [
				{
					"anonymous": false,
					"inputs": [
						{
							"indexed": true,
							"internalType": "address",
							"name": "",
							"type": "address"
						},
						{
							"indexed": true,
							"internalType": "address",
							"name": "adminAddress",
							"type": "address"
						}
					],
					"name": "AdminAdded",
					"type": "event"
				},
				{
					"anonymous": false,
					"inputs": [
						{
							"indexed": true,
							"internalType": "uint256",
							"name": "adminPayment",
							"type": "uint256"
						}
					],
					"name": "AdminPaid",
					"type": "event"
				},
				{
					"anonymous": false,
					"inputs": [
						{
							"indexed": true,
							"internalType": "address",
							"name": "",
							"type": "address"
						},
						{
							"indexed": true,
							"internalType": "bool",
							"name": "inputAdminResolution",
							"type": "bool"
						},
						{
							"indexed": true,
							"internalType": "bool",
							"name": "inputAdminDecision",
							"type": "bool"
						}
					],
					"name": "AdminResolutionDone",
					"type": "event"
				},
				{
					"anonymous": false,
					"inputs": [
						{
							"indexed": true,
							"internalType": "address",
							"name": "",
							"type": "address"
						},
						{
							"indexed": true,
							"internalType": "address",
							"name": "clientAddress",
							"type": "address"
						}
					],
					"name": "ClientAdded",
					"type": "event"
				},
				{
					"anonymous": false,
					"inputs": [
						{
							"indexed": true,
							"internalType": "uint256",
							"name": "balancePayment",
							"type": "uint256"
						}
					],
					"name": "ClientPaid",
					"type": "event"
				},
				{
					"anonymous": false,
					"inputs": [
						{
							"indexed": true,
							"internalType": "address",
							"name": "",
							"type": "address"
						},
						{
							"indexed": true,
							"internalType": "address",
							"name": "contractorAddress",
							"type": "address"
						}
					],
					"name": "ContractorAdded",
					"type": "event"
				},
				{
					"anonymous": false,
					"inputs": [
						{
							"indexed": true,
							"internalType": "uint256",
							"name": "balancePayment",
							"type": "uint256"
						}
					],
					"name": "ContractorPaid",
					"type": "event"
				},
				{
					"anonymous": false,
					"inputs": [
						{
							"indexed": true,
							"internalType": "address",
							"name": "",
							"type": "address"
						},
						{
							"indexed": false,
							"internalType": "uint256",
							"name": "weiAmount",
							"type": "uint256"
						}
					],
					"name": "Deposited",
					"type": "event"
				},
				{
					"anonymous": false,
					"inputs": [
						{
							"indexed": true,
							"internalType": "address",
							"name": "previousOwner",
							"type": "address"
						},
						{
							"indexed": true,
							"internalType": "address",
							"name": "newOwner",
							"type": "address"
						}
					],
					"name": "OwnershipTransferred",
					"type": "event"
				},
				{
					"anonymous": false,
					"inputs": [
						{
							"indexed": true,
							"internalType": "address",
							"name": "",
							"type": "address"
						},
						{
							"indexed": true,
							"internalType": "bool",
							"name": "inputTaskCompleted",
							"type": "bool"
						}
					],
					"name": "TaskCompleted",
					"type": "event"
				},
				{
					"anonymous": false,
					"inputs": [
						{
							"indexed": true,
							"internalType": "address",
							"name": "",
							"type": "address"
						},
						{
							"indexed": true,
							"internalType": "bool",
							"name": "inputTaskValidated",
							"type": "bool"
						}
					],
					"name": "TaskValidated",
					"type": "event"
				},
				{
					"inputs": [
						{
							"internalType": "address payable",
							"name": "adminAddress",
							"type": "address"
						}
					],
					"name": "addAdmin",
					"outputs": [],
					"stateMutability": "nonpayable",
					"type": "function"
				},
				{
					"inputs": [
						{
							"internalType": "address payable",
							"name": "clientAddress",
							"type": "address"
						}
					],
					"name": "addClient",
					"outputs": [],
					"stateMutability": "nonpayable",
					"type": "function"
				},
				{
					"inputs": [
						{
							"internalType": "address payable",
							"name": "contractorAddress",
							"type": "address"
						}
					],
					"name": "addContractor",
					"outputs": [],
					"stateMutability": "nonpayable",
					"type": "function"
				},
				{
					"inputs": [
						{
							"internalType": "bool",
							"name": "inputAdminResolution",
							"type": "bool"
						},
						{
							"internalType": "bool",
							"name": "inputAdminDecision",
							"type": "bool"
						}
					],
					"name": "adminResolutionStatus",
					"outputs": [],
					"stateMutability": "nonpayable",
					"type": "function"
				},
				{
					"inputs": [],
					"name": "deposit",
					"outputs": [],
					"stateMutability": "payable",
					"type": "function"
				},
				{
					"inputs": [],
					"name": "owner",
					"outputs": [
						{
							"internalType": "address",
							"name": "",
							"type": "address"
						}
					],
					"stateMutability": "view",
					"type": "function"
				},
				{
					"inputs": [],
					"name": "renounceOwnership",
					"outputs": [],
					"stateMutability": "nonpayable",
					"type": "function"
				},
				{
					"inputs": [
						{
							"internalType": "bool",
							"name": "inputTaskCompleted",
							"type": "bool"
						}
					],
					"name": "taskCompletionStatus",
					"outputs": [],
					"stateMutability": "nonpayable",
					"type": "function"
				},
				{
					"inputs": [
						{
							"internalType": "bool",
							"name": "inputTaskValidated",
							"type": "bool"
						}
					],
					"name": "taskValidationStatus",
					"outputs": [],
					"stateMutability": "nonpayable",
					"type": "function"
				},
				{
					"inputs": [
						{
							"internalType": "address",
							"name": "newOwner",
							"type": "address"
						}
					],
					"name": "transferOwnership",
					"outputs": [],
					"stateMutability": "nonpayable",
					"type": "function"
				}
			],
			"devdoc": {
				"kind": "dev",
				"methods": {
					"owner()": {
						"details": "Returns the address of the current owner."
					},
					"renounceOwnership()": {
						"details": "Leaves the contract without owner. It will not be possible to call `onlyOwner` functions anymore. Can only be called by the current owner. NOTE: Renouncing ownership will leave the contract without an owner, thereby removing any functionality that is only available to the owner."
					},
					"transferOwnership(address)": {
						"details": "Transfers ownership of the contract to a new account (`newOwner`). Can only be called by the current owner."
					}
				},
				"version": 1
			},
			"evm": {
				"assembly": "    /* \"contracts/Escrow.sol\":238:7393  contract Escrow is Ownable {... */\n  mstore(0x40, 0x80)\n  callvalue\n  dup1\n  iszero\n  tag_1\n  jumpi\n  0x00\n  dup1\n  revert\ntag_1:\n  pop\n    /* \"@openzeppelin/contracts/access/Ownable.sol\":936:968  _transferOwnership(_msgSender()) */\n  tag_4\n    /* \"@openzeppelin/contracts/access/Ownable.sol\":955:967  _msgSender() */\n  tag_5\n    /* \"@openzeppelin/contracts/access/Ownable.sol\":955:965  _msgSender */\n  shl(0x20, tag_6)\n    /* \"@openzeppelin/contracts/access/Ownable.sol\":955:967  _msgSender() */\n  0x20\n  shr\n  jump\t// in\ntag_5:\n    /* \"@openzeppelin/contracts/access/Ownable.sol\":936:954  _transferOwnership */\n  shl(0x20, tag_7)\n    /* \"@openzeppelin/contracts/access/Ownable.sol\":936:968  _transferOwnership(_msgSender()) */\n  0x20\n  shr\n  jump\t// in\ntag_4:\n    /* \"contracts/Escrow.sol\":238:7393  contract Escrow is Ownable {... */\n  jump(tag_8)\n    /* \"@openzeppelin/contracts/utils/Context.sol\":640:736  function _msgSender() internal view virtual returns (address) {... */\ntag_6:\n    /* \"@openzeppelin/contracts/utils/Context.sol\":693:700  address */\n  0x00\n    /* \"@openzeppelin/contracts/utils/Context.sol\":719:729  msg.sender */\n  caller\n    /* \"@openzeppelin/contracts/utils/Context.sol\":712:729  return msg.sender */\n  swap1\n  pop\n    /* \"@openzeppelin/contracts/utils/Context.sol\":640:736  function _msgSender() internal view virtual returns (address) {... */\n  swap1\n  jump\t// out\n    /* \"@openzeppelin/contracts/access/Ownable.sol\":2433:2620  function _transferOwnership(address newOwner) internal virtual {... */\ntag_7:\n    /* \"@openzeppelin/contracts/access/Ownable.sol\":2506:2522  address oldOwner */\n  0x00\n    /* \"@openzeppelin/contracts/access/Ownable.sol\":2525:2531  _owner */\n  dup1\n  0x00\n  swap1\n  sload\n  swap1\n  0x0100\n  exp\n  swap1\n  div\n  0xffffffffffffffffffffffffffffffffffffffff\n  and\n    /* \"@openzeppelin/contracts/access/Ownable.sol\":2506:2531  address oldOwner = _owner */\n  swap1\n  pop\n    /* \"@openzeppelin/contracts/access/Ownable.sol\":2550:2558  newOwner */\n  dup2\n    /* \"@openzeppelin/contracts/access/Ownable.sol\":2541:2547  _owner */\n  0x00\n  dup1\n    /* \"@openzeppelin/contracts/access/Ownable.sol\":2541:2558  _owner = newOwner */\n  0x0100\n  exp\n  dup2\n  sload\n  dup2\n  0xffffffffffffffffffffffffffffffffffffffff\n  mul\n  not\n  and\n  swap1\n  dup4\n  0xffffffffffffffffffffffffffffffffffffffff\n  and\n  mul\n  or\n  swap1\n  sstore\n  pop\n    /* \"@openzeppelin/contracts/access/Ownable.sol\":2604:2612  newOwner */\n  dup2\n    /* \"@openzeppelin/contracts/access/Ownable.sol\":2573:2613  OwnershipTransferred(oldOwner, newOwner) */\n  0xffffffffffffffffffffffffffffffffffffffff\n  and\n    /* \"@openzeppelin/contracts/access/Ownable.sol\":2594:2602  oldOwner */\n  dup2\n    /* \"@openzeppelin/contracts/access/Ownable.sol\":2573:2613  OwnershipTransferred(oldOwner, newOwner) */\n  0xffffffffffffffffffffffffffffffffffffffff\n  and\n  0x8be0079c531659141344cd1fd0a4f28419497f9722a3daafe3b4186f6b6457e0\n  mload(0x40)\n  mload(0x40)\n  dup1\n  swap2\n  sub\n  swap1\n  log3\n    /* \"@openzeppelin/contracts/access/Ownable.sol\":2496:2620  {... */\n  pop\n    /* \"@openzeppelin/contracts/access/Ownable.sol\":2433:2620  function _transferOwnership(address newOwner) internal virtual {... */\n  pop\n  jump\t// out\n    /* \"contracts/Escrow.sol\":238:7393  contract Escrow is Ownable {... */\ntag_8:\n  dataSize(sub_0)\n  dup1\n  dataOffset(sub_0)\n  0x00\n  codecopy\n  0x00\n  return\nstop\n\nsub_0: assembly {\n        /* \"contracts/Escrow.sol\":238:7393  contract Escrow is Ownable {... */\n      mstore(0x40, 0x80)\n      jumpi(tag_1, lt(calldatasize, 0x04))\n      shr(0xe0, calldataload(0x00))\n      dup1\n      0x761768b6\n      gt\n      tag_12\n      jumpi\n      dup1\n      0x761768b6\n      eq\n      tag_7\n      jumpi\n      dup1\n      0x8da5cb5b\n      eq\n      tag_8\n      jumpi\n      dup1\n      0x9464c8b8\n      eq\n      tag_9\n      jumpi\n      dup1\n      0xd0e30db0\n      eq\n      tag_10\n      jumpi\n      dup1\n      0xf2fde38b\n      eq\n      tag_11\n      jumpi\n      jump(tag_1)\n    tag_12:\n      dup1\n      0x11571f30\n      eq\n      tag_2\n      jumpi\n      dup1\n      0x251d8cd5\n      eq\n      tag_3\n      jumpi\n      dup1\n      0x43928cfd\n      eq\n      tag_4\n      jumpi\n      dup1\n      0x70480275\n      eq\n      tag_5\n      jumpi\n      dup1\n      0x715018a6\n      eq\n      tag_6\n      jumpi\n    tag_1:\n      0x00\n      dup1\n      revert\n        /* \"contracts/Escrow.sol\":4998:5298  function adminResolutionStatus(bool inputAdminResolution, bool inputAdminDecision) public onlyAdmin{... */\n    tag_2:\n      callvalue\n      dup1\n      iszero\n      tag_13\n      jumpi\n      0x00\n      dup1\n      revert\n    tag_13:\n      pop\n      tag_14\n      0x04\n      dup1\n      calldatasize\n      sub\n      dup2\n      add\n      swap1\n      tag_15\n      swap2\n      swap1\n      tag_16\n      jump\t// in\n    tag_15:\n      tag_17\n      jump\t// in\n    tag_14:\n      stop\n        /* \"contracts/Escrow.sol\":5509:5759  function taskCompletionStatus(bool inputTaskCompleted) public onlyContractor {... */\n    tag_3:\n      callvalue\n      dup1\n      iszero\n      tag_18\n      jumpi\n      0x00\n      dup1\n      revert\n    tag_18:\n      pop\n      tag_19\n      0x04\n      dup1\n      calldatasize\n      sub\n      dup2\n      add\n      swap1\n      tag_20\n      swap2\n      swap1\n      tag_21\n      jump\t// in\n    tag_20:\n      tag_22\n      jump\t// in\n    tag_19:\n      stop\n        /* \"contracts/Escrow.sol\":3914:4279  function addClient(address payable clientAddress) public onlyOwner{... */\n    tag_4:\n      callvalue\n      dup1\n      iszero\n      tag_23\n      jumpi\n      0x00\n      dup1\n      revert\n    tag_23:\n      pop\n      tag_24\n      0x04\n      dup1\n      calldatasize\n      sub\n      dup2\n      add\n      swap1\n      tag_25\n      swap2\n      swap1\n      tag_26\n      jump\t// in\n    tag_25:\n      tag_27\n      jump\t// in\n    tag_24:\n      stop\n        /* \"contracts/Escrow.sol\":3454:3596  function addAdmin(address payable adminAddress) public {... */\n    tag_5:\n      callvalue\n      dup1\n      iszero\n      tag_28\n      jumpi\n      0x00\n      dup1\n      revert\n    tag_28:\n      pop\n      tag_29\n      0x04\n      dup1\n      calldatasize\n      sub\n      dup2\n      add\n      swap1\n      tag_30\n      swap2\n      swap1\n      tag_26\n      jump\t// in\n    tag_30:\n      tag_31\n      jump\t// in\n    tag_29:\n      stop\n        /* \"@openzeppelin/contracts/access/Ownable.sol\":1831:1932  function renounceOwnership() public virtual onlyOwner {... */\n    tag_6:\n      callvalue\n      dup1\n      iszero\n      tag_32\n      jumpi\n      0x00\n      dup1\n      revert\n    tag_32:\n      pop\n      tag_33\n      tag_34\n      jump\t// in\n    tag_33:\n      stop\n        /* \"contracts/Escrow.sol\":2764:3170  function addContractor(address payable contractorAddress) public onlyOwner{... */\n    tag_7:\n      callvalue\n      dup1\n      iszero\n      tag_35\n      jumpi\n      0x00\n      dup1\n      revert\n    tag_35:\n      pop\n      tag_36\n      0x04\n      dup1\n      calldatasize\n      sub\n      dup2\n      add\n      swap1\n      tag_37\n      swap2\n      swap1\n      tag_26\n      jump\t// in\n    tag_37:\n      tag_38\n      jump\t// in\n    tag_36:\n      stop\n        /* \"@openzeppelin/contracts/access/Ownable.sol\":1201:1286  function owner() public view virtual returns (address) {... */\n    tag_8:\n      callvalue\n      dup1\n      iszero\n      tag_39\n      jumpi\n      0x00\n      dup1\n      revert\n    tag_39:\n      pop\n      tag_40\n      tag_41\n      jump\t// in\n    tag_40:\n      mload(0x40)\n      tag_42\n      swap2\n      swap1\n      tag_43\n      jump\t// in\n    tag_42:\n      mload(0x40)\n      dup1\n      swap2\n      sub\n      swap1\n      return\n        /* \"contracts/Escrow.sol\":5975:6242  function taskValidationStatus(bool inputTaskValidated) public onlyClient{... */\n    tag_9:\n      callvalue\n      dup1\n      iszero\n      tag_44\n      jumpi\n      0x00\n      dup1\n      revert\n    tag_44:\n      pop\n      tag_45\n      0x04\n      dup1\n      calldatasize\n      sub\n      dup2\n      add\n      swap1\n      tag_46\n      swap2\n      swap1\n      tag_21\n      jump\t// in\n    tag_46:\n      tag_47\n      jump\t// in\n    tag_45:\n      stop\n        /* \"contracts/Escrow.sol\":2448:2580  function deposit() public payable onlyClient {... */\n    tag_10:\n      tag_48\n      tag_49\n      jump\t// in\n    tag_48:\n      stop\n        /* \"@openzeppelin/contracts/access/Ownable.sol\":2081:2279  function transferOwnership(address newOwner) public virtual onlyOwner {... */\n    tag_11:\n      callvalue\n      dup1\n      iszero\n      tag_50\n      jumpi\n      0x00\n      dup1\n      revert\n    tag_50:\n      pop\n      tag_51\n      0x04\n      dup1\n      calldatasize\n      sub\n      dup2\n      add\n      swap1\n      tag_52\n      swap2\n      swap1\n      tag_53\n      jump\t// in\n    tag_52:\n      tag_54\n      jump\t// in\n    tag_51:\n      stop\n        /* \"contracts/Escrow.sol\":4998:5298  function adminResolutionStatus(bool inputAdminResolution, bool inputAdminDecision) public onlyAdmin{... */\n    tag_17:\n        /* \"contracts/Escrow.sol\":1598:1611  _checkAdmin() */\n      tag_56\n        /* \"contracts/Escrow.sol\":1598:1609  _checkAdmin */\n      tag_57\n        /* \"contracts/Escrow.sol\":1598:1611  _checkAdmin() */\n      jump\t// in\n    tag_56:\n        /* \"contracts/Escrow.sol\":5121:5141  inputAdminResolution */\n      dup2\n        /* \"contracts/Escrow.sol\":5103:5118  adminResolution */\n      0x07\n      0x02\n        /* \"contracts/Escrow.sol\":5103:5141  adminResolution = inputAdminResolution */\n      0x0100\n      exp\n      dup2\n      sload\n      dup2\n      0xff\n      mul\n      not\n      and\n      swap1\n      dup4\n      iszero\n      iszero\n      mul\n      or\n      swap1\n      sstore\n      pop\n        /* \"contracts/Escrow.sol\":5168:5186  inputAdminDecision */\n      dup1\n        /* \"contracts/Escrow.sol\":5147:5165  adminPayContractor */\n      0x07\n      0x03\n        /* \"contracts/Escrow.sol\":5147:5186  adminPayContractor = inputAdminDecision */\n      0x0100\n      exp\n      dup2\n      sload\n      dup2\n      0xff\n      mul\n      not\n      and\n      swap1\n      dup4\n      iszero\n      iszero\n      mul\n      or\n      swap1\n      sstore\n      pop\n        /* \"contracts/Escrow.sol\":5192:5209  withdrawPayment() */\n      tag_59\n        /* \"contracts/Escrow.sol\":5192:5207  withdrawPayment */\n      tag_60\n        /* \"contracts/Escrow.sol\":5192:5209  withdrawPayment() */\n      jump\t// in\n    tag_59:\n        /* \"contracts/Escrow.sol\":5272:5290  inputAdminDecision */\n      dup1\n        /* \"contracts/Escrow.sol\":5220:5291  AdminResolutionDone(msg.sender,inputAdminResolution,inputAdminDecision) */\n      iszero\n      iszero\n        /* \"contracts/Escrow.sol\":5251:5271  inputAdminResolution */\n      dup3\n        /* \"contracts/Escrow.sol\":5220:5291  AdminResolutionDone(msg.sender,inputAdminResolution,inputAdminDecision) */\n      iszero\n      iszero\n        /* \"contracts/Escrow.sol\":5240:5250  msg.sender */\n      caller\n        /* \"contracts/Escrow.sol\":5220:5291  AdminResolutionDone(msg.sender,inputAdminResolution,inputAdminDecision) */\n      0xffffffffffffffffffffffffffffffffffffffff\n      and\n      0xcb2a9bd5cdd4b0340f50bddf7b979225baadb90aa82c9563d744b95fde4b94f8\n      mload(0x40)\n      mload(0x40)\n      dup1\n      swap2\n      sub\n      swap1\n      log4\n        /* \"contracts/Escrow.sol\":4998:5298  function adminResolutionStatus(bool inputAdminResolution, bool inputAdminDecision) public onlyAdmin{... */\n      pop\n      pop\n      jump\t// out\n        /* \"contracts/Escrow.sol\":5509:5759  function taskCompletionStatus(bool inputTaskCompleted) public onlyContractor {... */\n    tag_22:\n        /* \"contracts/Escrow.sol\":2287:2305  _checkContractor() */\n      tag_62\n        /* \"contracts/Escrow.sol\":2287:2303  _checkContractor */\n      tag_63\n        /* \"contracts/Escrow.sol\":2287:2305  _checkContractor() */\n      jump\t// in\n    tag_62:\n        /* \"contracts/Escrow.sol\":5624:5625  0 */\n      0x00\n        /* \"contracts/Escrow.sol\":5600:5621  address(this).balance */\n      selfbalance\n        /* \"contracts/Escrow.sol\":5600:5625  address(this).balance !=0 */\n      eq\n      iszero\n        /* \"contracts/Escrow.sol\":5592:5656  require(address(this).balance !=0 , \"Add funds to the contract\") */\n      tag_65\n      jumpi\n      mload(0x40)\n      0x08c379a000000000000000000000000000000000000000000000000000000000\n      dup2\n      mstore\n      0x04\n      add\n      tag_66\n      swap1\n      tag_67\n      jump\t// in\n    tag_66:\n      mload(0x40)\n      dup1\n      swap2\n      sub\n      swap1\n      revert\n    tag_65:\n        /* \"contracts/Escrow.sol\":5678:5696  inputTaskCompleted */\n      dup1\n        /* \"contracts/Escrow.sol\":5662:5675  taskCompleted */\n      0x07\n      0x00\n        /* \"contracts/Escrow.sol\":5662:5696  taskCompleted = inputTaskCompleted */\n      0x0100\n      exp\n      dup2\n      sload\n      dup2\n      0xff\n      mul\n      not\n      and\n      swap1\n      dup4\n      iszero\n      iszero\n      mul\n      or\n      swap1\n      sstore\n      pop\n        /* \"contracts/Escrow.sol\":5733:5751  inputTaskCompleted */\n      dup1\n        /* \"contracts/Escrow.sol\":5707:5752  TaskCompleted(msg.sender, inputTaskCompleted) */\n      iszero\n      iszero\n        /* \"contracts/Escrow.sol\":5721:5731  msg.sender */\n      caller\n        /* \"contracts/Escrow.sol\":5707:5752  TaskCompleted(msg.sender, inputTaskCompleted) */\n      0xffffffffffffffffffffffffffffffffffffffff\n      and\n      0x86b0f06518059e6fa59b029ea6c3a62862f6ce17f5ba015e229c7b66bdd43943\n      mload(0x40)\n      mload(0x40)\n      dup1\n      swap2\n      sub\n      swap1\n      log3\n        /* \"contracts/Escrow.sol\":5509:5759  function taskCompletionStatus(bool inputTaskCompleted) public onlyContractor {... */\n      pop\n      jump\t// out\n        /* \"contracts/Escrow.sol\":3914:4279  function addClient(address payable clientAddress) public onlyOwner{... */\n    tag_27:\n        /* \"@openzeppelin/contracts/access/Ownable.sol\":1094:1107  _checkOwner() */\n      tag_69\n        /* \"@openzeppelin/contracts/access/Ownable.sol\":1094:1105  _checkOwner */\n      tag_70\n        /* \"@openzeppelin/contracts/access/Ownable.sol\":1094:1107  _checkOwner() */\n      jump\t// in\n    tag_69:\n        /* \"contracts/Escrow.sol\":4011:4012  1 */\n      0x01\n        /* \"contracts/Escrow.sol\":3998:4009  clientState */\n      sload(0x06)\n        /* \"contracts/Escrow.sol\":3998:4012  clientState <1 */\n      lt\n        /* \"contracts/Escrow.sol\":3990:4061  require(clientState <1 , \"Client Address cannot be changed once added\") */\n      tag_72\n      jumpi\n      mload(0x40)\n      0x08c379a000000000000000000000000000000000000000000000000000000000\n      dup2\n      mstore\n      0x04\n      add\n      tag_73\n      swap1\n      tag_74\n      jump\t// in\n    tag_73:\n      mload(0x40)\n      dup1\n      swap2\n      sub\n      swap1\n      revert\n    tag_72:\n        /* \"contracts/Escrow.sol\":4096:4102  client */\n      0x02\n      0x00\n      swap1\n      sload\n      swap1\n      0x0100\n      exp\n      swap1\n      div\n      0xffffffffffffffffffffffffffffffffffffffff\n      and\n        /* \"contracts/Escrow.sol\":4079:4102  clientAddress != client */\n      0xffffffffffffffffffffffffffffffffffffffff\n      and\n        /* \"contracts/Escrow.sol\":4079:4092  clientAddress */\n      dup2\n        /* \"contracts/Escrow.sol\":4079:4102  clientAddress != client */\n      0xffffffffffffffffffffffffffffffffffffffff\n      and\n      eq\n      iszero\n        /* \"contracts/Escrow.sol\":4071:4163  require(clientAddress != client , \"Contractor Address cannot be the same as CLient Address\") */\n      tag_75\n      jumpi\n      mload(0x40)\n      0x08c379a000000000000000000000000000000000000000000000000000000000\n      dup2\n      mstore\n      0x04\n      add\n      tag_76\n      swap1\n      tag_77\n      jump\t// in\n    tag_76:\n      mload(0x40)\n      dup1\n      swap2\n      sub\n      swap1\n      revert\n    tag_75:\n        /* \"contracts/Escrow.sol\":4182:4195  clientAddress */\n      dup1\n        /* \"contracts/Escrow.sol\":4173:4179  client */\n      0x02\n      0x00\n        /* \"contracts/Escrow.sol\":4173:4195  client = clientAddress */\n      0x0100\n      exp\n      dup2\n      sload\n      dup2\n      0xffffffffffffffffffffffffffffffffffffffff\n      mul\n      not\n      and\n      swap1\n      dup4\n      0xffffffffffffffffffffffffffffffffffffffff\n      and\n      mul\n      or\n      swap1\n      sstore\n      pop\n        /* \"contracts/Escrow.sol\":4219:4220  1 */\n      0x01\n        /* \"contracts/Escrow.sol\":4205:4216  clientState */\n      0x06\n      0x00\n        /* \"contracts/Escrow.sol\":4205:4220  clientState +=1 */\n      dup3\n      dup3\n      sload\n      tag_78\n      swap2\n      swap1\n      tag_79\n      jump\t// in\n    tag_78:\n      swap3\n      pop\n      pop\n      dup2\n      swap1\n      sstore\n      pop\n        /* \"contracts/Escrow.sol\":4258:4271  clientAddress */\n      dup1\n        /* \"contracts/Escrow.sol\":4235:4272  ClientAdded(msg.sender,clientAddress) */\n      0xffffffffffffffffffffffffffffffffffffffff\n      and\n        /* \"contracts/Escrow.sol\":4247:4257  msg.sender */\n      caller\n        /* \"contracts/Escrow.sol\":4235:4272  ClientAdded(msg.sender,clientAddress) */\n      0xffffffffffffffffffffffffffffffffffffffff\n      and\n      0xe27d4d26fcc4a6050babcf645d911ab0100dc766cbc6986d7f217c5bf38d7d79\n      mload(0x40)\n      mload(0x40)\n      dup1\n      swap2\n      sub\n      swap1\n      log3\n        /* \"contracts/Escrow.sol\":3914:4279  function addClient(address payable clientAddress) public onlyOwner{... */\n      pop\n      jump\t// out\n        /* \"contracts/Escrow.sol\":3454:3596  function addAdmin(address payable adminAddress) public {... */\n    tag_31:\n        /* \"contracts/Escrow.sol\":3527:3539  adminAddress */\n      dup1\n        /* \"contracts/Escrow.sol\":3519:3524  admin */\n      0x03\n      0x00\n        /* \"contracts/Escrow.sol\":3519:3539  admin = adminAddress */\n      0x0100\n      exp\n      dup2\n      sload\n      dup2\n      0xffffffffffffffffffffffffffffffffffffffff\n      mul\n      not\n      and\n      swap1\n      dup4\n      0xffffffffffffffffffffffffffffffffffffffff\n      and\n      mul\n      or\n      swap1\n      sstore\n      pop\n        /* \"contracts/Escrow.sol\":3576:3588  adminAddress */\n      dup1\n        /* \"contracts/Escrow.sol\":3554:3589  AdminAdded(msg.sender,adminAddress) */\n      0xffffffffffffffffffffffffffffffffffffffff\n      and\n        /* \"contracts/Escrow.sol\":3565:3575  msg.sender */\n      caller\n        /* \"contracts/Escrow.sol\":3554:3589  AdminAdded(msg.sender,adminAddress) */\n      0xffffffffffffffffffffffffffffffffffffffff\n      and\n      0xbf3f493c772c8c283fd124432c2d0f539ab343faa04258fe88e52912d36b102b\n      mload(0x40)\n      mload(0x40)\n      dup1\n      swap2\n      sub\n      swap1\n      log3\n        /* \"contracts/Escrow.sol\":3454:3596  function addAdmin(address payable adminAddress) public {... */\n      pop\n      jump\t// out\n        /* \"@openzeppelin/contracts/access/Ownable.sol\":1831:1932  function renounceOwnership() public virtual onlyOwner {... */\n    tag_34:\n        /* \"@openzeppelin/contracts/access/Ownable.sol\":1094:1107  _checkOwner() */\n      tag_82\n        /* \"@openzeppelin/contracts/access/Ownable.sol\":1094:1105  _checkOwner */\n      tag_70\n        /* \"@openzeppelin/contracts/access/Ownable.sol\":1094:1107  _checkOwner() */\n      jump\t// in\n    tag_82:\n        /* \"@openzeppelin/contracts/access/Ownable.sol\":1895:1925  _transferOwnership(address(0)) */\n      tag_84\n        /* \"@openzeppelin/contracts/access/Ownable.sol\":1922:1923  0 */\n      0x00\n        /* \"@openzeppelin/contracts/access/Ownable.sol\":1895:1913  _transferOwnership */\n      tag_85\n        /* \"@openzeppelin/contracts/access/Ownable.sol\":1895:1925  _transferOwnership(address(0)) */\n      jump\t// in\n    tag_84:\n        /* \"@openzeppelin/contracts/access/Ownable.sol\":1831:1932  function renounceOwnership() public virtual onlyOwner {... */\n      jump\t// out\n        /* \"contracts/Escrow.sol\":2764:3170  function addContractor(address payable contractorAddress) public onlyOwner{... */\n    tag_38:\n        /* \"@openzeppelin/contracts/access/Ownable.sol\":1094:1107  _checkOwner() */\n      tag_87\n        /* \"@openzeppelin/contracts/access/Ownable.sol\":1094:1105  _checkOwner */\n      tag_70\n        /* \"@openzeppelin/contracts/access/Ownable.sol\":1094:1107  _checkOwner() */\n      jump\t// in\n    tag_87:\n        /* \"contracts/Escrow.sol\":2873:2874  1 */\n      0x01\n        /* \"contracts/Escrow.sol\":2856:2871  contractorState */\n      sload(0x05)\n        /* \"contracts/Escrow.sol\":2856:2874  contractorState <1 */\n      lt\n        /* \"contracts/Escrow.sol\":2848:2927  require(contractorState <1 , \"Contractor Address cannot be changed once added\") */\n      tag_89\n      jumpi\n      mload(0x40)\n      0x08c379a000000000000000000000000000000000000000000000000000000000\n      dup2\n      mstore\n      0x04\n      add\n      tag_90\n      swap1\n      tag_91\n      jump\t// in\n    tag_90:\n      mload(0x40)\n      dup1\n      swap2\n      sub\n      swap1\n      revert\n    tag_89:\n        /* \"contracts/Escrow.sol\":2966:2972  client */\n      0x02\n      0x00\n      swap1\n      sload\n      swap1\n      0x0100\n      exp\n      swap1\n      div\n      0xffffffffffffffffffffffffffffffffffffffff\n      and\n        /* \"contracts/Escrow.sol\":2945:2972  contractorAddress != client */\n      0xffffffffffffffffffffffffffffffffffffffff\n      and\n        /* \"contracts/Escrow.sol\":2945:2962  contractorAddress */\n      dup2\n        /* \"contracts/Escrow.sol\":2945:2972  contractorAddress != client */\n      0xffffffffffffffffffffffffffffffffffffffff\n      and\n      eq\n      iszero\n        /* \"contracts/Escrow.sol\":2937:3033  require(contractorAddress != client , \"Contractor Address cannot be the same as CLient Address\") */\n      tag_92\n      jumpi\n      mload(0x40)\n      0x08c379a000000000000000000000000000000000000000000000000000000000\n      dup2\n      mstore\n      0x04\n      add\n      tag_93\n      swap1\n      tag_77\n      jump\t// in\n    tag_93:\n      mload(0x40)\n      dup1\n      swap2\n      sub\n      swap1\n      revert\n    tag_92:\n        /* \"contracts/Escrow.sol\":3056:3073  contractorAddress */\n      dup1\n        /* \"contracts/Escrow.sol\":3043:3053  contractor */\n      0x01\n      0x00\n        /* \"contracts/Escrow.sol\":3043:3073  contractor = contractorAddress */\n      0x0100\n      exp\n      dup2\n      sload\n      dup2\n      0xffffffffffffffffffffffffffffffffffffffff\n      mul\n      not\n      and\n      swap1\n      dup4\n      0xffffffffffffffffffffffffffffffffffffffff\n      and\n      mul\n      or\n      swap1\n      sstore\n      pop\n        /* \"contracts/Escrow.sol\":3102:3103  1 */\n      0x01\n        /* \"contracts/Escrow.sol\":3083:3098  contractorState */\n      0x05\n      0x00\n        /* \"contracts/Escrow.sol\":3083:3103  contractorState += 1 */\n      dup3\n      dup3\n      sload\n      tag_94\n      swap2\n      swap1\n      tag_79\n      jump\t// in\n    tag_94:\n      swap3\n      pop\n      pop\n      dup2\n      swap1\n      sstore\n      pop\n        /* \"contracts/Escrow.sol\":3145:3162  contractorAddress */\n      dup1\n        /* \"contracts/Escrow.sol\":3118:3163  ContractorAdded(msg.sender,contractorAddress) */\n      0xffffffffffffffffffffffffffffffffffffffff\n      and\n        /* \"contracts/Escrow.sol\":3134:3144  msg.sender */\n      caller\n        /* \"contracts/Escrow.sol\":3118:3163  ContractorAdded(msg.sender,contractorAddress) */\n      0xffffffffffffffffffffffffffffffffffffffff\n      and\n      0x2be2f3212d36e0a64cd66ce6ce42568a8285e64220a5e3a90a66d2b29f13d636\n      mload(0x40)\n      mload(0x40)\n      dup1\n      swap2\n      sub\n      swap1\n      log3\n        /* \"contracts/Escrow.sol\":2764:3170  function addContractor(address payable contractorAddress) public onlyOwner{... */\n      pop\n      jump\t// out\n        /* \"@openzeppelin/contracts/access/Ownable.sol\":1201:1286  function owner() public view virtual returns (address) {... */\n    tag_41:\n        /* \"@openzeppelin/contracts/access/Ownable.sol\":1247:1254  address */\n      0x00\n        /* \"@openzeppelin/contracts/access/Ownable.sol\":1273:1279  _owner */\n      dup1\n      0x00\n      swap1\n      sload\n      swap1\n      0x0100\n      exp\n      swap1\n      div\n      0xffffffffffffffffffffffffffffffffffffffff\n      and\n        /* \"@openzeppelin/contracts/access/Ownable.sol\":1266:1279  return _owner */\n      swap1\n      pop\n        /* \"@openzeppelin/contracts/access/Ownable.sol\":1201:1286  function owner() public view virtual returns (address) {... */\n      swap1\n      jump\t// out\n        /* \"contracts/Escrow.sol\":5975:6242  function taskValidationStatus(bool inputTaskValidated) public onlyClient{... */\n    tag_47:\n        /* \"contracts/Escrow.sol\":1929:1943  _checkClient() */\n      tag_97\n        /* \"contracts/Escrow.sol\":1929:1941  _checkClient */\n      tag_98\n        /* \"contracts/Escrow.sol\":1929:1943  _checkClient() */\n      jump\t// in\n    tag_97:\n        /* \"contracts/Escrow.sol\":6085:6086  0 */\n      0x00\n        /* \"contracts/Escrow.sol\":6061:6082  address(this).balance */\n      selfbalance\n        /* \"contracts/Escrow.sol\":6061:6086  address(this).balance !=0 */\n      eq\n      iszero\n        /* \"contracts/Escrow.sol\":6053:6117  require(address(this).balance !=0 , \"Add funds to the contract\") */\n      tag_100\n      jumpi\n      mload(0x40)\n      0x08c379a000000000000000000000000000000000000000000000000000000000\n      dup2\n      mstore\n      0x04\n      add\n      tag_101\n      swap1\n      tag_67\n      jump\t// in\n    tag_101:\n      mload(0x40)\n      dup1\n      swap2\n      sub\n      swap1\n      revert\n    tag_100:\n        /* \"contracts/Escrow.sol\":6139:6157  inputTaskValidated */\n      dup1\n        /* \"contracts/Escrow.sol\":6123:6136  taskValidated */\n      0x07\n      0x01\n        /* \"contracts/Escrow.sol\":6123:6157  taskValidated = inputTaskValidated */\n      0x0100\n      exp\n      dup2\n      sload\n      dup2\n      0xff\n      mul\n      not\n      and\n      swap1\n      dup4\n      iszero\n      iszero\n      mul\n      or\n      swap1\n      sstore\n      pop\n        /* \"contracts/Escrow.sol\":6163:6180  withdrawPayment() */\n      tag_102\n        /* \"contracts/Escrow.sol\":6163:6178  withdrawPayment */\n      tag_60\n        /* \"contracts/Escrow.sol\":6163:6180  withdrawPayment() */\n      jump\t// in\n    tag_102:\n        /* \"contracts/Escrow.sol\":6216:6234  inputTaskValidated */\n      dup1\n        /* \"contracts/Escrow.sol\":6191:6235  TaskValidated(msg.sender,inputTaskValidated) */\n      iszero\n      iszero\n        /* \"contracts/Escrow.sol\":6205:6215  msg.sender */\n      caller\n        /* \"contracts/Escrow.sol\":6191:6235  TaskValidated(msg.sender,inputTaskValidated) */\n      0xffffffffffffffffffffffffffffffffffffffff\n      and\n      0xd4370d74364ad854a41b3b33a65801a8ee79e544a255db783bbb748ddcf08071\n      mload(0x40)\n      mload(0x40)\n      dup1\n      swap2\n      sub\n      swap1\n      log3\n        /* \"contracts/Escrow.sol\":5975:6242  function taskValidationStatus(bool inputTaskValidated) public onlyClient{... */\n      pop\n      jump\t// out\n        /* \"contracts/Escrow.sol\":2448:2580  function deposit() public payable onlyClient {... */\n    tag_49:\n        /* \"contracts/Escrow.sol\":1929:1943  _checkClient() */\n      tag_104\n        /* \"contracts/Escrow.sol\":1929:1941  _checkClient */\n      tag_98\n        /* \"contracts/Escrow.sol\":1929:1943  _checkClient() */\n      jump\t// in\n    tag_104:\n        /* \"contracts/Escrow.sol\":2503:2517  uint256 amount */\n      0x00\n        /* \"contracts/Escrow.sol\":2520:2529  msg.value */\n      callvalue\n        /* \"contracts/Escrow.sol\":2503:2529  uint256 amount = msg.value */\n      swap1\n      pop\n        /* \"contracts/Escrow.sol\":2554:2564  msg.sender */\n      caller\n        /* \"contracts/Escrow.sol\":2544:2573  Deposited(msg.sender, amount) */\n      0xffffffffffffffffffffffffffffffffffffffff\n      and\n      0x2da466a7b24304f47e87fa2e1e5a81b9831ce54fec19055ce277ca2f39ba42c4\n        /* \"contracts/Escrow.sol\":2566:2572  amount */\n      dup3\n        /* \"contracts/Escrow.sol\":2544:2573  Deposited(msg.sender, amount) */\n      mload(0x40)\n      tag_106\n      swap2\n      swap1\n      tag_107\n      jump\t// in\n    tag_106:\n      mload(0x40)\n      dup1\n      swap2\n      sub\n      swap1\n      log2\n        /* \"contracts/Escrow.sol\":2493:2580  {... */\n      pop\n        /* \"contracts/Escrow.sol\":2448:2580  function deposit() public payable onlyClient {... */\n      jump\t// out\n        /* \"@openzeppelin/contracts/access/Ownable.sol\":2081:2279  function transferOwnership(address newOwner) public virtual onlyOwner {... */\n    tag_54:\n        /* \"@openzeppelin/contracts/access/Ownable.sol\":1094:1107  _checkOwner() */\n      tag_109\n        /* \"@openzeppelin/contracts/access/Ownable.sol\":1094:1105  _checkOwner */\n      tag_70\n        /* \"@openzeppelin/contracts/access/Ownable.sol\":1094:1107  _checkOwner() */\n      jump\t// in\n    tag_109:\n        /* \"@openzeppelin/contracts/access/Ownable.sol\":2189:2190  0 */\n      0x00\n        /* \"@openzeppelin/contracts/access/Ownable.sol\":2169:2191  newOwner != address(0) */\n      0xffffffffffffffffffffffffffffffffffffffff\n      and\n        /* \"@openzeppelin/contracts/access/Ownable.sol\":2169:2177  newOwner */\n      dup2\n        /* \"@openzeppelin/contracts/access/Ownable.sol\":2169:2191  newOwner != address(0) */\n      0xffffffffffffffffffffffffffffffffffffffff\n      and\n      eq\n      iszero\n        /* \"@openzeppelin/contracts/access/Ownable.sol\":2161:2234  require(newOwner != address(0), \"Ownable: new owner is the zero address\") */\n      tag_111\n      jumpi\n      mload(0x40)\n      0x08c379a000000000000000000000000000000000000000000000000000000000\n      dup2\n      mstore\n      0x04\n      add\n      tag_112\n      swap1\n      tag_113\n      jump\t// in\n    tag_112:\n      mload(0x40)\n      dup1\n      swap2\n      sub\n      swap1\n      revert\n    tag_111:\n        /* \"@openzeppelin/contracts/access/Ownable.sol\":2244:2272  _transferOwnership(newOwner) */\n      tag_114\n        /* \"@openzeppelin/contracts/access/Ownable.sol\":2263:2271  newOwner */\n      dup2\n        /* \"@openzeppelin/contracts/access/Ownable.sol\":2244:2262  _transferOwnership */\n      tag_85\n        /* \"@openzeppelin/contracts/access/Ownable.sol\":2244:2272  _transferOwnership(newOwner) */\n      jump\t// in\n    tag_114:\n        /* \"@openzeppelin/contracts/access/Ownable.sol\":2081:2279  function transferOwnership(address newOwner) public virtual onlyOwner {... */\n      pop\n      jump\t// out\n        /* \"contracts/Escrow.sol\":1450:1559  function _checkAdmin() internal view {... */\n    tag_57:\n        /* \"contracts/Escrow.sol\":1519:1524  admin */\n      0x03\n      0x00\n      swap1\n      sload\n      swap1\n      0x0100\n      exp\n      swap1\n      div\n      0xffffffffffffffffffffffffffffffffffffffff\n      and\n        /* \"contracts/Escrow.sol\":1505:1524  msg.sender == admin */\n      0xffffffffffffffffffffffffffffffffffffffff\n      and\n        /* \"contracts/Escrow.sol\":1505:1515  msg.sender */\n      caller\n        /* \"contracts/Escrow.sol\":1505:1524  msg.sender == admin */\n      0xffffffffffffffffffffffffffffffffffffffff\n      and\n      eq\n        /* \"contracts/Escrow.sol\":1497:1552  require(msg.sender == admin, \"caller is not the admin\") */\n      tag_116\n      jumpi\n      mload(0x40)\n      0x08c379a000000000000000000000000000000000000000000000000000000000\n      dup2\n      mstore\n      0x04\n      add\n      tag_117\n      swap1\n      tag_118\n      jump\t// in\n    tag_117:\n      mload(0x40)\n      dup1\n      swap2\n      sub\n      swap1\n      revert\n    tag_116:\n        /* \"contracts/Escrow.sol\":1450:1559  function _checkAdmin() internal view {... */\n      jump\t// out\n        /* \"contracts/Escrow.sol\":6530:7390  function withdrawPayment() private{... */\n    tag_60:\n        /* \"contracts/Escrow.sol\":6570:6592  uint256 balancePayment */\n      0x00\n        /* \"contracts/Escrow.sol\":6595:6616  address(this).balance */\n      selfbalance\n        /* \"contracts/Escrow.sol\":6570:6616  uint256 balancePayment = address(this).balance */\n      swap1\n      pop\n        /* \"contracts/Escrow.sol\":6622:6642  uint256 adminPayment */\n      0x00\n        /* \"contracts/Escrow.sol\":6666:6669  100 */\n      0x64\n        /* \"contracts/Escrow.sol\":6663:6664  2 */\n      0x02\n        /* \"contracts/Escrow.sol\":6646:6660  balancePayment */\n      dup4\n        /* \"contracts/Escrow.sol\":6646:6664  balancePayment * 2 */\n      tag_120\n      swap2\n      swap1\n      tag_121\n      jump\t// in\n    tag_120:\n        /* \"contracts/Escrow.sol\":6645:6669  (balancePayment * 2)/100 */\n      tag_122\n      swap2\n      swap1\n      tag_123\n      jump\t// in\n    tag_122:\n        /* \"contracts/Escrow.sol\":6622:6669  uint256 adminPayment = (balancePayment * 2)/100 */\n      swap1\n      pop\n        /* \"contracts/Escrow.sol\":6755:6767  adminPayment */\n      dup1\n        /* \"contracts/Escrow.sol\":6737:6767  balancePayment -= adminPayment */\n      dup3\n      tag_124\n      swap2\n      swap1\n      tag_125\n      jump\t// in\n    tag_124:\n      swap2\n      pop\n        /* \"contracts/Escrow.sol\":6837:6841  true */\n      0x01\n        /* \"contracts/Escrow.sol\":6820:6841  taskCompleted == true */\n      iszero\n      iszero\n        /* \"contracts/Escrow.sol\":6820:6833  taskCompleted */\n      0x07\n      0x00\n      swap1\n      sload\n      swap1\n      0x0100\n      exp\n      swap1\n      div\n      0xff\n      and\n        /* \"contracts/Escrow.sol\":6820:6841  taskCompleted == true */\n      iszero\n      iszero\n      eq\n        /* \"contracts/Escrow.sol\":6820:6866  taskCompleted == true && taskValidated == true */\n      dup1\n      iszero\n      tag_126\n      jumpi\n      pop\n        /* \"contracts/Escrow.sol\":6862:6866  true */\n      0x01\n        /* \"contracts/Escrow.sol\":6845:6866  taskValidated == true */\n      iszero\n      iszero\n        /* \"contracts/Escrow.sol\":6845:6858  taskValidated */\n      0x07\n      0x01\n      swap1\n      sload\n      swap1\n      0x0100\n      exp\n      swap1\n      div\n      0xff\n      and\n        /* \"contracts/Escrow.sol\":6845:6866  taskValidated == true */\n      iszero\n      iszero\n      eq\n        /* \"contracts/Escrow.sol\":6820:6866  taskCompleted == true && taskValidated == true */\n    tag_126:\n        /* \"contracts/Escrow.sol\":6819:6924  (taskCompleted == true && taskValidated == true)||(adminResolution == true && adminPayContractor == true) */\n      dup1\n      tag_127\n      jumpi\n      pop\n        /* \"contracts/Escrow.sol\":6889:6893  true */\n      0x01\n        /* \"contracts/Escrow.sol\":6870:6893  adminResolution == true */\n      iszero\n      iszero\n        /* \"contracts/Escrow.sol\":6870:6885  adminResolution */\n      0x07\n      0x02\n      swap1\n      sload\n      swap1\n      0x0100\n      exp\n      swap1\n      div\n      0xff\n      and\n        /* \"contracts/Escrow.sol\":6870:6893  adminResolution == true */\n      iszero\n      iszero\n      eq\n        /* \"contracts/Escrow.sol\":6870:6923  adminResolution == true && adminPayContractor == true */\n      dup1\n      iszero\n      tag_128\n      jumpi\n      pop\n        /* \"contracts/Escrow.sol\":6919:6923  true */\n      0x01\n        /* \"contracts/Escrow.sol\":6897:6923  adminPayContractor == true */\n      iszero\n      iszero\n        /* \"contracts/Escrow.sol\":6897:6915  adminPayContractor */\n      0x07\n      0x03\n      swap1\n      sload\n      swap1\n      0x0100\n      exp\n      swap1\n      div\n      0xff\n      and\n        /* \"contracts/Escrow.sol\":6897:6923  adminPayContractor == true */\n      iszero\n      iszero\n      eq\n        /* \"contracts/Escrow.sol\":6870:6923  adminResolution == true && adminPayContractor == true */\n    tag_128:\n        /* \"contracts/Escrow.sol\":6819:6924  (taskCompleted == true && taskValidated == true)||(adminResolution == true && adminPayContractor == true) */\n    tag_127:\n        /* \"contracts/Escrow.sol\":6816:7383  if((taskCompleted == true && taskValidated == true)||(adminResolution == true && adminPayContractor == true)){... */\n      iszero\n      tag_129\n      jumpi\n        /* \"contracts/Escrow.sol\":6939:6975  contractor.sendValue(balancePayment) */\n      tag_130\n        /* \"contracts/Escrow.sol\":6960:6974  balancePayment */\n      dup3\n        /* \"contracts/Escrow.sol\":6939:6949  contractor */\n      0x01\n      0x00\n      swap1\n      sload\n      swap1\n      0x0100\n      exp\n      swap1\n      div\n      0xffffffffffffffffffffffffffffffffffffffff\n      and\n        /* \"contracts/Escrow.sol\":6939:6959  contractor.sendValue */\n      0xffffffffffffffffffffffffffffffffffffffff\n      and\n      tag_131\n      swap1\n        /* \"contracts/Escrow.sol\":6939:6975  contractor.sendValue(balancePayment) */\n      swap2\n      swap1\n      0xffffffff\n      and\n      jump\t// in\n    tag_130:\n        /* \"contracts/Escrow.sol\":6989:7018  admin.sendValue(adminPayment) */\n      tag_132\n        /* \"contracts/Escrow.sol\":7005:7017  adminPayment */\n      dup2\n        /* \"contracts/Escrow.sol\":6989:6994  admin */\n      0x03\n      0x00\n      swap1\n      sload\n      swap1\n      0x0100\n      exp\n      swap1\n      div\n      0xffffffffffffffffffffffffffffffffffffffff\n      and\n        /* \"contracts/Escrow.sol\":6989:7004  admin.sendValue */\n      0xffffffffffffffffffffffffffffffffffffffff\n      and\n      tag_131\n      swap1\n        /* \"contracts/Escrow.sol\":6989:7018  admin.sendValue(adminPayment) */\n      swap2\n      swap1\n      0xffffffff\n      and\n      jump\t// in\n    tag_132:\n        /* \"contracts/Escrow.sol\":7052:7066  balancePayment */\n      dup2\n        /* \"contracts/Escrow.sol\":7037:7067  ContractorPaid(balancePayment) */\n      0x7cfba278765aa1b181ffd1c4f0c8d7f8b8918b5f65cec05e7f3f1d3257146ebf\n      mload(0x40)\n      mload(0x40)\n      dup1\n      swap2\n      sub\n      swap1\n      log2\n        /* \"contracts/Escrow.sol\":7096:7108  adminPayment */\n      dup1\n        /* \"contracts/Escrow.sol\":7086:7109  AdminPaid(adminPayment) */\n      0x1146bf3c5b3a7ee2f6886943b992e2884e0c0cf9bc52acd299fa2e4d3442c734\n      mload(0x40)\n      mload(0x40)\n      dup1\n      swap2\n      sub\n      swap1\n      log2\n        /* \"contracts/Escrow.sol\":6816:7383  if((taskCompleted == true && taskValidated == true)||(adminResolution == true && adminPayContractor == true)){... */\n      jump(tag_133)\n    tag_129:\n        /* \"contracts/Escrow.sol\":7156:7160  true */\n      0x01\n        /* \"contracts/Escrow.sol\":7137:7160  adminResolution == true */\n      iszero\n      iszero\n        /* \"contracts/Escrow.sol\":7137:7152  adminResolution */\n      0x07\n      0x02\n      swap1\n      sload\n      swap1\n      0x0100\n      exp\n      swap1\n      div\n      0xff\n      and\n        /* \"contracts/Escrow.sol\":7137:7160  adminResolution == true */\n      iszero\n      iszero\n      eq\n        /* \"contracts/Escrow.sol\":7137:7191  adminResolution == true && adminPayContractor == false */\n      dup1\n      iszero\n      tag_134\n      jumpi\n      pop\n        /* \"contracts/Escrow.sol\":7186:7191  false */\n      0x00\n        /* \"contracts/Escrow.sol\":7164:7191  adminPayContractor == false */\n      iszero\n      iszero\n        /* \"contracts/Escrow.sol\":7164:7182  adminPayContractor */\n      0x07\n      0x03\n      swap1\n      sload\n      swap1\n      0x0100\n      exp\n      swap1\n      div\n      0xff\n      and\n        /* \"contracts/Escrow.sol\":7164:7191  adminPayContractor == false */\n      iszero\n      iszero\n      eq\n        /* \"contracts/Escrow.sol\":7137:7191  adminResolution == true && adminPayContractor == false */\n    tag_134:\n        /* \"contracts/Escrow.sol\":7134:7383  if(adminResolution == true && adminPayContractor == false){... */\n      iszero\n      tag_135\n      jumpi\n        /* \"contracts/Escrow.sol\":7206:7238  client.sendValue(balancePayment) */\n      tag_136\n        /* \"contracts/Escrow.sol\":7223:7237  balancePayment */\n      dup3\n        /* \"contracts/Escrow.sol\":7206:7212  client */\n      0x02\n      0x00\n      swap1\n      sload\n      swap1\n      0x0100\n      exp\n      swap1\n      div\n      0xffffffffffffffffffffffffffffffffffffffff\n      and\n        /* \"contracts/Escrow.sol\":7206:7222  client.sendValue */\n      0xffffffffffffffffffffffffffffffffffffffff\n      and\n      tag_131\n      swap1\n        /* \"contracts/Escrow.sol\":7206:7238  client.sendValue(balancePayment) */\n      swap2\n      swap1\n      0xffffffff\n      and\n      jump\t// in\n    tag_136:\n        /* \"contracts/Escrow.sol\":7252:7281  admin.sendValue(adminPayment) */\n      tag_137\n        /* \"contracts/Escrow.sol\":7268:7280  adminPayment */\n      dup2\n        /* \"contracts/Escrow.sol\":7252:7257  admin */\n      0x03\n      0x00\n      swap1\n      sload\n      swap1\n      0x0100\n      exp\n      swap1\n      div\n      0xffffffffffffffffffffffffffffffffffffffff\n      and\n        /* \"contracts/Escrow.sol\":7252:7267  admin.sendValue */\n      0xffffffffffffffffffffffffffffffffffffffff\n      and\n      tag_131\n      swap1\n        /* \"contracts/Escrow.sol\":7252:7281  admin.sendValue(adminPayment) */\n      swap2\n      swap1\n      0xffffffff\n      and\n      jump\t// in\n    tag_137:\n        /* \"contracts/Escrow.sol\":7311:7325  balancePayment */\n      dup2\n        /* \"contracts/Escrow.sol\":7300:7326  ClientPaid(balancePayment) */\n      0x821720cf74f712bafd9428b0071c7f73f7bc776321f3ddca4c9f47a6956b8125\n      mload(0x40)\n      mload(0x40)\n      dup1\n      swap2\n      sub\n      swap1\n      log2\n        /* \"contracts/Escrow.sol\":7355:7367  adminPayment */\n      dup1\n        /* \"contracts/Escrow.sol\":7345:7368  AdminPaid(adminPayment) */\n      0x1146bf3c5b3a7ee2f6886943b992e2884e0c0cf9bc52acd299fa2e4d3442c734\n      mload(0x40)\n      mload(0x40)\n      dup1\n      swap2\n      sub\n      swap1\n      log2\n        /* \"contracts/Escrow.sol\":7134:7383  if(adminResolution == true && adminPayContractor == false){... */\n    tag_135:\n        /* \"contracts/Escrow.sol\":6816:7383  if((taskCompleted == true && taskValidated == true)||(adminResolution == true && adminPayContractor == true)){... */\n    tag_133:\n        /* \"contracts/Escrow.sol\":6564:7390  {... */\n      pop\n      pop\n        /* \"contracts/Escrow.sol\":6530:7390  function withdrawPayment() private{... */\n      jump\t// out\n        /* \"contracts/Escrow.sol\":2119:2243  function _checkContractor() internal view {... */\n    tag_63:\n        /* \"contracts/Escrow.sol\":2193:2203  contractor */\n      0x01\n      0x00\n      swap1\n      sload\n      swap1\n      0x0100\n      exp\n      swap1\n      div\n      0xffffffffffffffffffffffffffffffffffffffff\n      and\n        /* \"contracts/Escrow.sol\":2179:2203  msg.sender == contractor */\n      0xffffffffffffffffffffffffffffffffffffffff\n      and\n        /* \"contracts/Escrow.sol\":2179:2189  msg.sender */\n      caller\n        /* \"contracts/Escrow.sol\":2179:2203  msg.sender == contractor */\n      0xffffffffffffffffffffffffffffffffffffffff\n      and\n      eq\n        /* \"contracts/Escrow.sol\":2171:2236  require(msg.sender == contractor, \"caller is not the contractor\") */\n      tag_139\n      jumpi\n      mload(0x40)\n      0x08c379a000000000000000000000000000000000000000000000000000000000\n      dup2\n      mstore\n      0x04\n      add\n      tag_140\n      swap1\n      tag_141\n      jump\t// in\n    tag_140:\n      mload(0x40)\n      dup1\n      swap2\n      sub\n      swap1\n      revert\n    tag_139:\n        /* \"contracts/Escrow.sol\":2119:2243  function _checkContractor() internal view {... */\n      jump\t// out\n        /* \"@openzeppelin/contracts/access/Ownable.sol\":1359:1489  function _checkOwner() internal view virtual {... */\n    tag_70:\n        /* \"@openzeppelin/contracts/access/Ownable.sol\":1433:1445  _msgSender() */\n      tag_143\n        /* \"@openzeppelin/contracts/access/Ownable.sol\":1433:1443  _msgSender */\n      tag_144\n        /* \"@openzeppelin/contracts/access/Ownable.sol\":1433:1445  _msgSender() */\n      jump\t// in\n    tag_143:\n        /* \"@openzeppelin/contracts/access/Ownable.sol\":1422:1445  owner() == _msgSender() */\n      0xffffffffffffffffffffffffffffffffffffffff\n      and\n        /* \"@openzeppelin/contracts/access/Ownable.sol\":1422:1429  owner() */\n      tag_145\n        /* \"@openzeppelin/contracts/access/Ownable.sol\":1422:1427  owner */\n      tag_41\n        /* \"@openzeppelin/contracts/access/Ownable.sol\":1422:1429  owner() */\n      jump\t// in\n    tag_145:\n        /* \"@openzeppelin/contracts/access/Ownable.sol\":1422:1445  owner() == _msgSender() */\n      0xffffffffffffffffffffffffffffffffffffffff\n      and\n      eq\n        /* \"@openzeppelin/contracts/access/Ownable.sol\":1414:1482  require(owner() == _msgSender(), \"Ownable: caller is not the owner\") */\n      tag_146\n      jumpi\n      mload(0x40)\n      0x08c379a000000000000000000000000000000000000000000000000000000000\n      dup2\n      mstore\n      0x04\n      add\n      tag_147\n      swap1\n      tag_148\n      jump\t// in\n    tag_147:\n      mload(0x40)\n      dup1\n      swap2\n      sub\n      swap1\n      revert\n    tag_146:\n        /* \"@openzeppelin/contracts/access/Ownable.sol\":1359:1489  function _checkOwner() internal view virtual {... */\n      jump\t// out\n        /* \"@openzeppelin/contracts/access/Ownable.sol\":2433:2620  function _transferOwnership(address newOwner) internal virtual {... */\n    tag_85:\n        /* \"@openzeppelin/contracts/access/Ownable.sol\":2506:2522  address oldOwner */\n      0x00\n        /* \"@openzeppelin/contracts/access/Ownable.sol\":2525:2531  _owner */\n      dup1\n      0x00\n      swap1\n      sload\n      swap1\n      0x0100\n      exp\n      swap1\n      div\n      0xffffffffffffffffffffffffffffffffffffffff\n      and\n        /* \"@openzeppelin/contracts/access/Ownable.sol\":2506:2531  address oldOwner = _owner */\n      swap1\n      pop\n        /* \"@openzeppelin/contracts/access/Ownable.sol\":2550:2558  newOwner */\n      dup2\n        /* \"@openzeppelin/contracts/access/Ownable.sol\":2541:2547  _owner */\n      0x00\n      dup1\n        /* \"@openzeppelin/contracts/access/Ownable.sol\":2541:2558  _owner = newOwner */\n      0x0100\n      exp\n      dup2\n      sload\n      dup2\n      0xffffffffffffffffffffffffffffffffffffffff\n      mul\n      not\n      and\n      swap1\n      dup4\n      0xffffffffffffffffffffffffffffffffffffffff\n      and\n      mul\n      or\n      swap1\n      sstore\n      pop\n        /* \"@openzeppelin/contracts/access/Ownable.sol\":2604:2612  newOwner */\n      dup2\n        /* \"@openzeppelin/contracts/access/Ownable.sol\":2573:2613  OwnershipTransferred(oldOwner, newOwner) */\n      0xffffffffffffffffffffffffffffffffffffffff\n      and\n        /* \"@openzeppelin/contracts/access/Ownable.sol\":2594:2602  oldOwner */\n      dup2\n        /* \"@openzeppelin/contracts/access/Ownable.sol\":2573:2613  OwnershipTransferred(oldOwner, newOwner) */\n      0xffffffffffffffffffffffffffffffffffffffff\n      and\n      0x8be0079c531659141344cd1fd0a4f28419497f9722a3daafe3b4186f6b6457e0\n      mload(0x40)\n      mload(0x40)\n      dup1\n      swap2\n      sub\n      swap1\n      log3\n        /* \"@openzeppelin/contracts/access/Ownable.sol\":2496:2620  {... */\n      pop\n        /* \"@openzeppelin/contracts/access/Ownable.sol\":2433:2620  function _transferOwnership(address newOwner) internal virtual {... */\n      pop\n      jump\t// out\n        /* \"contracts/Escrow.sol\":1777:1889  function _checkClient() internal view {... */\n    tag_98:\n        /* \"contracts/Escrow.sol\":1847:1853  client */\n      0x02\n      0x00\n      swap1\n      sload\n      swap1\n      0x0100\n      exp\n      swap1\n      div\n      0xffffffffffffffffffffffffffffffffffffffff\n      and\n        /* \"contracts/Escrow.sol\":1833:1853  msg.sender == client */\n      0xffffffffffffffffffffffffffffffffffffffff\n      and\n        /* \"contracts/Escrow.sol\":1833:1843  msg.sender */\n      caller\n        /* \"contracts/Escrow.sol\":1833:1853  msg.sender == client */\n      0xffffffffffffffffffffffffffffffffffffffff\n      and\n      eq\n        /* \"contracts/Escrow.sol\":1825:1882  require(msg.sender == client, \"caller is not the client\") */\n      tag_151\n      jumpi\n      mload(0x40)\n      0x08c379a000000000000000000000000000000000000000000000000000000000\n      dup2\n      mstore\n      0x04\n      add\n      tag_152\n      swap1\n      tag_153\n      jump\t// in\n    tag_152:\n      mload(0x40)\n      dup1\n      swap2\n      sub\n      swap1\n      revert\n    tag_151:\n        /* \"contracts/Escrow.sol\":1777:1889  function _checkClient() internal view {... */\n      jump\t// out\n        /* \"@openzeppelin/contracts/utils/Address.sol\":2412:2724  function sendValue(address payable recipient, uint256 amount) internal {... */\n    tag_131:\n        /* \"@openzeppelin/contracts/utils/Address.sol\":2526:2532  amount */\n      dup1\n        /* \"@openzeppelin/contracts/utils/Address.sol\":2501:2522  address(this).balance */\n      selfbalance\n        /* \"@openzeppelin/contracts/utils/Address.sol\":2501:2532  address(this).balance >= amount */\n      lt\n      iszero\n        /* \"@openzeppelin/contracts/utils/Address.sol\":2493:2566  require(address(this).balance >= amount, \"Address: insufficient balance\") */\n      tag_155\n      jumpi\n      mload(0x40)\n      0x08c379a000000000000000000000000000000000000000000000000000000000\n      dup2\n      mstore\n      0x04\n      add\n      tag_156\n      swap1\n      tag_157\n      jump\t// in\n    tag_156:\n      mload(0x40)\n      dup1\n      swap2\n      sub\n      swap1\n      revert\n    tag_155:\n        /* \"@openzeppelin/contracts/utils/Address.sol\":2578:2590  bool success */\n      0x00\n        /* \"@openzeppelin/contracts/utils/Address.sol\":2596:2605  recipient */\n      dup3\n        /* \"@openzeppelin/contracts/utils/Address.sol\":2596:2610  recipient.call */\n      0xffffffffffffffffffffffffffffffffffffffff\n      and\n        /* \"@openzeppelin/contracts/utils/Address.sol\":2618:2624  amount */\n      dup3\n        /* \"@openzeppelin/contracts/utils/Address.sol\":2596:2629  recipient.call{value: amount}(\"\") */\n      mload(0x40)\n      tag_158\n      swap1\n      tag_159\n      jump\t// in\n    tag_158:\n      0x00\n      mload(0x40)\n      dup1\n      dup4\n      sub\n      dup2\n      dup6\n      dup8\n      gas\n      call\n      swap3\n      pop\n      pop\n      pop\n      returndatasize\n      dup1\n      0x00\n      dup2\n      eq\n      tag_162\n      jumpi\n      mload(0x40)\n      swap2\n      pop\n      and(add(returndatasize, 0x3f), not(0x1f))\n      dup3\n      add\n      0x40\n      mstore\n      returndatasize\n      dup3\n      mstore\n      returndatasize\n      0x00\n      0x20\n      dup5\n      add\n      returndatacopy\n      jump(tag_161)\n    tag_162:\n      0x60\n      swap2\n      pop\n    tag_161:\n      pop\n        /* \"@openzeppelin/contracts/utils/Address.sol\":2577:2629  (bool success, ) = recipient.call{value: amount}(\"\") */\n      pop\n      swap1\n      pop\n        /* \"@openzeppelin/contracts/utils/Address.sol\":2647:2654  success */\n      dup1\n        /* \"@openzeppelin/contracts/utils/Address.sol\":2639:2717  require(success, \"Address: unable to send value, recipient may have reverted\") */\n      tag_163\n      jumpi\n      mload(0x40)\n      0x08c379a000000000000000000000000000000000000000000000000000000000\n      dup2\n      mstore\n      0x04\n      add\n      tag_164\n      swap1\n      tag_165\n      jump\t// in\n    tag_164:\n      mload(0x40)\n      dup1\n      swap2\n      sub\n      swap1\n      revert\n    tag_163:\n        /* \"@openzeppelin/contracts/utils/Address.sol\":2483:2724  {... */\n      pop\n        /* \"@openzeppelin/contracts/utils/Address.sol\":2412:2724  function sendValue(address payable recipient, uint256 amount) internal {... */\n      pop\n      pop\n      jump\t// out\n        /* \"@openzeppelin/contracts/utils/Context.sol\":640:736  function _msgSender() internal view virtual returns (address) {... */\n    tag_144:\n        /* \"@openzeppelin/contracts/utils/Context.sol\":693:700  address */\n      0x00\n        /* \"@openzeppelin/contracts/utils/Context.sol\":719:729  msg.sender */\n      caller\n        /* \"@openzeppelin/contracts/utils/Context.sol\":712:729  return msg.sender */\n      swap1\n      pop\n        /* \"@openzeppelin/contracts/utils/Context.sol\":640:736  function _msgSender() internal view virtual returns (address) {... */\n      swap1\n      jump\t// out\n        /* \"#utility.yul\":7:146   */\n    tag_168:\n        /* \"#utility.yul\":53:58   */\n      0x00\n        /* \"#utility.yul\":91:97   */\n      dup2\n        /* \"#utility.yul\":78:98   */\n      calldataload\n        /* \"#utility.yul\":69:98   */\n      swap1\n      pop\n        /* \"#utility.yul\":107:140   */\n      tag_170\n        /* \"#utility.yul\":134:139   */\n      dup2\n        /* \"#utility.yul\":107:140   */\n      tag_171\n      jump\t// in\n    tag_170:\n        /* \"#utility.yul\":7:146   */\n      swap3\n      swap2\n      pop\n      pop\n      jump\t// out\n        /* \"#utility.yul\":152:307   */\n    tag_172:\n        /* \"#utility.yul\":206:211   */\n      0x00\n        /* \"#utility.yul\":244:250   */\n      dup2\n        /* \"#utility.yul\":231:251   */\n      calldataload\n        /* \"#utility.yul\":222:251   */\n      swap1\n      pop\n        /* \"#utility.yul\":260:301   */\n      tag_174\n        /* \"#utility.yul\":295:300   */\n      dup2\n        /* \"#utility.yul\":260:301   */\n      tag_175\n      jump\t// in\n    tag_174:\n        /* \"#utility.yul\":152:307   */\n      swap3\n      swap2\n      pop\n      pop\n      jump\t// out\n        /* \"#utility.yul\":313:446   */\n    tag_176:\n        /* \"#utility.yul\":356:361   */\n      0x00\n        /* \"#utility.yul\":394:400   */\n      dup2\n        /* \"#utility.yul\":381:401   */\n      calldataload\n        /* \"#utility.yul\":372:401   */\n      swap1\n      pop\n        /* \"#utility.yul\":410:440   */\n      tag_178\n        /* \"#utility.yul\":434:439   */\n      dup2\n        /* \"#utility.yul\":410:440   */\n      tag_179\n      jump\t// in\n    tag_178:\n        /* \"#utility.yul\":313:446   */\n      swap3\n      swap2\n      pop\n      pop\n      jump\t// out\n        /* \"#utility.yul\":452:781   */\n    tag_53:\n        /* \"#utility.yul\":511:517   */\n      0x00\n        /* \"#utility.yul\":560:562   */\n      0x20\n        /* \"#utility.yul\":548:557   */\n      dup3\n        /* \"#utility.yul\":539:546   */\n      dup5\n        /* \"#utility.yul\":535:558   */\n      sub\n        /* \"#utility.yul\":531:563   */\n      slt\n        /* \"#utility.yul\":528:647   */\n      iszero\n      tag_181\n      jumpi\n        /* \"#utility.yul\":566:645   */\n      tag_182\n      tag_183\n      jump\t// in\n    tag_182:\n        /* \"#utility.yul\":528:647   */\n    tag_181:\n        /* \"#utility.yul\":686:687   */\n      0x00\n        /* \"#utility.yul\":711:764   */\n      tag_184\n        /* \"#utility.yul\":756:763   */\n      dup5\n        /* \"#utility.yul\":747:753   */\n      dup3\n        /* \"#utility.yul\":736:745   */\n      dup6\n        /* \"#utility.yul\":732:754   */\n      add\n        /* \"#utility.yul\":711:764   */\n      tag_168\n      jump\t// in\n    tag_184:\n        /* \"#utility.yul\":701:764   */\n      swap2\n      pop\n        /* \"#utility.yul\":657:774   */\n      pop\n        /* \"#utility.yul\":452:781   */\n      swap3\n      swap2\n      pop\n      pop\n      jump\t// out\n        /* \"#utility.yul\":787:1132   */\n    tag_26:\n        /* \"#utility.yul\":854:860   */\n      0x00\n        /* \"#utility.yul\":903:905   */\n      0x20\n        /* \"#utility.yul\":891:900   */\n      dup3\n        /* \"#utility.yul\":882:889   */\n      dup5\n        /* \"#utility.yul\":878:901   */\n      sub\n        /* \"#utility.yul\":874:906   */\n      slt\n        /* \"#utility.yul\":871:990   */\n      iszero\n      tag_186\n      jumpi\n        /* \"#utility.yul\":909:988   */\n      tag_187\n      tag_183\n      jump\t// in\n    tag_187:\n        /* \"#utility.yul\":871:990   */\n    tag_186:\n        /* \"#utility.yul\":1029:1030   */\n      0x00\n        /* \"#utility.yul\":1054:1115   */\n      tag_188\n        /* \"#utility.yul\":1107:1114   */\n      dup5\n        /* \"#utility.yul\":1098:1104   */\n      dup3\n        /* \"#utility.yul\":1087:1096   */\n      dup6\n        /* \"#utility.yul\":1083:1105   */\n      add\n        /* \"#utility.yul\":1054:1115   */\n      tag_172\n      jump\t// in\n    tag_188:\n        /* \"#utility.yul\":1044:1115   */\n      swap2\n      pop\n        /* \"#utility.yul\":1000:1125   */\n      pop\n        /* \"#utility.yul\":787:1132   */\n      swap3\n      swap2\n      pop\n      pop\n      jump\t// out\n        /* \"#utility.yul\":1138:1461   */\n    tag_21:\n        /* \"#utility.yul\":1194:1200   */\n      0x00\n        /* \"#utility.yul\":1243:1245   */\n      0x20\n        /* \"#utility.yul\":1231:1240   */\n      dup3\n        /* \"#utility.yul\":1222:1229   */\n      dup5\n        /* \"#utility.yul\":1218:1241   */\n      sub\n        /* \"#utility.yul\":1214:1246   */\n      slt\n        /* \"#utility.yul\":1211:1330   */\n      iszero\n      tag_190\n      jumpi\n        /* \"#utility.yul\":1249:1328   */\n      tag_191\n      tag_183\n      jump\t// in\n    tag_191:\n        /* \"#utility.yul\":1211:1330   */\n    tag_190:\n        /* \"#utility.yul\":1369:1370   */\n      0x00\n        /* \"#utility.yul\":1394:1444   */\n      tag_192\n        /* \"#utility.yul\":1436:1443   */\n      dup5\n        /* \"#utility.yul\":1427:1433   */\n      dup3\n        /* \"#utility.yul\":1416:1425   */\n      dup6\n        /* \"#utility.yul\":1412:1434   */\n      add\n        /* \"#utility.yul\":1394:1444   */\n      tag_176\n      jump\t// in\n    tag_192:\n        /* \"#utility.yul\":1384:1444   */\n      swap2\n      pop\n        /* \"#utility.yul\":1340:1454   */\n      pop\n        /* \"#utility.yul\":1138:1461   */\n      swap3\n      swap2\n      pop\n      pop\n      jump\t// out\n        /* \"#utility.yul\":1467:1929   */\n    tag_16:\n        /* \"#utility.yul\":1529:1535   */\n      0x00\n        /* \"#utility.yul\":1537:1543   */\n      dup1\n        /* \"#utility.yul\":1586:1588   */\n      0x40\n        /* \"#utility.yul\":1574:1583   */\n      dup4\n        /* \"#utility.yul\":1565:1572   */\n      dup6\n        /* \"#utility.yul\":1561:1584   */\n      sub\n        /* \"#utility.yul\":1557:1589   */\n      slt\n        /* \"#utility.yul\":1554:1673   */\n      iszero\n      tag_194\n      jumpi\n        /* \"#utility.yul\":1592:1671   */\n      tag_195\n      tag_183\n      jump\t// in\n    tag_195:\n        /* \"#utility.yul\":1554:1673   */\n    tag_194:\n        /* \"#utility.yul\":1712:1713   */\n      0x00\n        /* \"#utility.yul\":1737:1787   */\n      tag_196\n        /* \"#utility.yul\":1779:1786   */\n      dup6\n        /* \"#utility.yul\":1770:1776   */\n      dup3\n        /* \"#utility.yul\":1759:1768   */\n      dup7\n        /* \"#utility.yul\":1755:1777   */\n      add\n        /* \"#utility.yul\":1737:1787   */\n      tag_176\n      jump\t// in\n    tag_196:\n        /* \"#utility.yul\":1727:1787   */\n      swap3\n      pop\n        /* \"#utility.yul\":1683:1797   */\n      pop\n        /* \"#utility.yul\":1836:1838   */\n      0x20\n        /* \"#utility.yul\":1862:1912   */\n      tag_197\n        /* \"#utility.yul\":1904:1911   */\n      dup6\n        /* \"#utility.yul\":1895:1901   */\n      dup3\n        /* \"#utility.yul\":1884:1893   */\n      dup7\n        /* \"#utility.yul\":1880:1902   */\n      add\n        /* \"#utility.yul\":1862:1912   */\n      tag_176\n      jump\t// in\n    tag_197:\n        /* \"#utility.yul\":1852:1912   */\n      swap2\n      pop\n        /* \"#utility.yul\":1807:1922   */\n      pop\n        /* \"#utility.yul\":1467:1929   */\n      swap3\n      pop\n      swap3\n      swap1\n      pop\n      jump\t// out\n        /* \"#utility.yul\":1935:2053   */\n    tag_198:\n        /* \"#utility.yul\":2022:2046   */\n      tag_200\n        /* \"#utility.yul\":2040:2045   */\n      dup2\n        /* \"#utility.yul\":2022:2046   */\n      tag_201\n      jump\t// in\n    tag_200:\n        /* \"#utility.yul\":2017:2020   */\n      dup3\n        /* \"#utility.yul\":2010:2047   */\n      mstore\n        /* \"#utility.yul\":1935:2053   */\n      pop\n      pop\n      jump\t// out\n        /* \"#utility.yul\":2059:2425   */\n    tag_202:\n        /* \"#utility.yul\":2201:2204   */\n      0x00\n        /* \"#utility.yul\":2222:2289   */\n      tag_204\n        /* \"#utility.yul\":2286:2288   */\n      0x26\n        /* \"#utility.yul\":2281:2284   */\n      dup4\n        /* \"#utility.yul\":2222:2289   */\n      tag_205\n      jump\t// in\n    tag_204:\n        /* \"#utility.yul\":2215:2289   */\n      swap2\n      pop\n        /* \"#utility.yul\":2298:2391   */\n      tag_206\n        /* \"#utility.yul\":2387:2390   */\n      dup3\n        /* \"#utility.yul\":2298:2391   */\n      tag_207\n      jump\t// in\n    tag_206:\n        /* \"#utility.yul\":2416:2418   */\n      0x40\n        /* \"#utility.yul\":2411:2414   */\n      dup3\n        /* \"#utility.yul\":2407:2419   */\n      add\n        /* \"#utility.yul\":2400:2419   */\n      swap1\n      pop\n        /* \"#utility.yul\":2059:2425   */\n      swap2\n      swap1\n      pop\n      jump\t// out\n        /* \"#utility.yul\":2431:2797   */\n    tag_208:\n        /* \"#utility.yul\":2573:2576   */\n      0x00\n        /* \"#utility.yul\":2594:2661   */\n      tag_210\n        /* \"#utility.yul\":2658:2660   */\n      0x3a\n        /* \"#utility.yul\":2653:2656   */\n      dup4\n        /* \"#utility.yul\":2594:2661   */\n      tag_205\n      jump\t// in\n    tag_210:\n        /* \"#utility.yul\":2587:2661   */\n      swap2\n      pop\n        /* \"#utility.yul\":2670:2763   */\n      tag_211\n        /* \"#utility.yul\":2759:2762   */\n      dup3\n        /* \"#utility.yul\":2670:2763   */\n      tag_212\n      jump\t// in\n    tag_211:\n        /* \"#utility.yul\":2788:2790   */\n      0x40\n        /* \"#utility.yul\":2783:2786   */\n      dup3\n        /* \"#utility.yul\":2779:2791   */\n      add\n        /* \"#utility.yul\":2772:2791   */\n      swap1\n      pop\n        /* \"#utility.yul\":2431:2797   */\n      swap2\n      swap1\n      pop\n      jump\t// out\n        /* \"#utility.yul\":2803:3169   */\n    tag_213:\n        /* \"#utility.yul\":2945:2948   */\n      0x00\n        /* \"#utility.yul\":2966:3033   */\n      tag_215\n        /* \"#utility.yul\":3030:3032   */\n      0x37\n        /* \"#utility.yul\":3025:3028   */\n      dup4\n        /* \"#utility.yul\":2966:3033   */\n      tag_205\n      jump\t// in\n    tag_215:\n        /* \"#utility.yul\":2959:3033   */\n      swap2\n      pop\n        /* \"#utility.yul\":3042:3135   */\n      tag_216\n        /* \"#utility.yul\":3131:3134   */\n      dup3\n        /* \"#utility.yul\":3042:3135   */\n      tag_217\n      jump\t// in\n    tag_216:\n        /* \"#utility.yul\":3160:3162   */\n      0x40\n        /* \"#utility.yul\":3155:3158   */\n      dup3\n        /* \"#utility.yul\":3151:3163   */\n      add\n        /* \"#utility.yul\":3144:3163   */\n      swap1\n      pop\n        /* \"#utility.yul\":2803:3169   */\n      swap2\n      swap1\n      pop\n      jump\t// out\n        /* \"#utility.yul\":3175:3541   */\n    tag_218:\n        /* \"#utility.yul\":3317:3320   */\n      0x00\n        /* \"#utility.yul\":3338:3405   */\n      tag_220\n        /* \"#utility.yul\":3402:3404   */\n      0x1d\n        /* \"#utility.yul\":3397:3400   */\n      dup4\n        /* \"#utility.yul\":3338:3405   */\n      tag_205\n      jump\t// in\n    tag_220:\n        /* \"#utility.yul\":3331:3405   */\n      swap2\n      pop\n        /* \"#utility.yul\":3414:3507   */\n      tag_221\n        /* \"#utility.yul\":3503:3506   */\n      dup3\n        /* \"#utility.yul\":3414:3507   */\n      tag_222\n      jump\t// in\n    tag_221:\n        /* \"#utility.yul\":3532:3534   */\n      0x20\n        /* \"#utility.yul\":3527:3530   */\n      dup3\n        /* \"#utility.yul\":3523:3535   */\n      add\n        /* \"#utility.yul\":3516:3535   */\n      swap1\n      pop\n        /* \"#utility.yul\":3175:3541   */\n      swap2\n      swap1\n      pop\n      jump\t// out\n        /* \"#utility.yul\":3547:3913   */\n    tag_223:\n        /* \"#utility.yul\":3689:3692   */\n      0x00\n        /* \"#utility.yul\":3710:3777   */\n      tag_225\n        /* \"#utility.yul\":3774:3776   */\n      0x19\n        /* \"#utility.yul\":3769:3772   */\n      dup4\n        /* \"#utility.yul\":3710:3777   */\n      tag_205\n      jump\t// in\n    tag_225:\n        /* \"#utility.yul\":3703:3777   */\n      swap2\n      pop\n        /* \"#utility.yul\":3786:3879   */\n      tag_226\n        /* \"#utility.yul\":3875:3878   */\n      dup3\n        /* \"#utility.yul\":3786:3879   */\n      tag_227\n      jump\t// in\n    tag_226:\n        /* \"#utility.yul\":3904:3906   */\n      0x20\n        /* \"#utility.yul\":3899:3902   */\n      dup3\n        /* \"#utility.yul\":3895:3907   */\n      add\n        /* \"#utility.yul\":3888:3907   */\n      swap1\n      pop\n        /* \"#utility.yul\":3547:3913   */\n      swap2\n      swap1\n      pop\n      jump\t// out\n        /* \"#utility.yul\":3919:4285   */\n    tag_228:\n        /* \"#utility.yul\":4061:4064   */\n      0x00\n        /* \"#utility.yul\":4082:4149   */\n      tag_230\n        /* \"#utility.yul\":4146:4148   */\n      0x1c\n        /* \"#utility.yul\":4141:4144   */\n      dup4\n        /* \"#utility.yul\":4082:4149   */\n      tag_205\n      jump\t// in\n    tag_230:\n        /* \"#utility.yul\":4075:4149   */\n      swap2\n      pop\n        /* \"#utility.yul\":4158:4251   */\n      tag_231\n        /* \"#utility.yul\":4247:4250   */\n      dup3\n        /* \"#utility.yul\":4158:4251   */\n      tag_232\n      jump\t// in\n    tag_231:\n        /* \"#utility.yul\":4276:4278   */\n      0x20\n        /* \"#utility.yul\":4271:4274   */\n      dup3\n        /* \"#utility.yul\":4267:4279   */\n      add\n        /* \"#utility.yul\":4260:4279   */\n      swap1\n      pop\n        /* \"#utility.yul\":3919:4285   */\n      swap2\n      swap1\n      pop\n      jump\t// out\n        /* \"#utility.yul\":4291:4657   */\n    tag_233:\n        /* \"#utility.yul\":4433:4436   */\n      0x00\n        /* \"#utility.yul\":4454:4521   */\n      tag_235\n        /* \"#utility.yul\":4518:4520   */\n      0x20\n        /* \"#utility.yul\":4513:4516   */\n      dup4\n        /* \"#utility.yul\":4454:4521   */\n      tag_205\n      jump\t// in\n    tag_235:\n        /* \"#utility.yul\":4447:4521   */\n      swap2\n      pop\n        /* \"#utility.yul\":4530:4623   */\n      tag_236\n        /* \"#utility.yul\":4619:4622   */\n      dup3\n        /* \"#utility.yul\":4530:4623   */\n      tag_237\n      jump\t// in\n    tag_236:\n        /* \"#utility.yul\":4648:4650   */\n      0x20\n        /* \"#utility.yul\":4643:4646   */\n      dup3\n        /* \"#utility.yul\":4639:4651   */\n      add\n        /* \"#utility.yul\":4632:4651   */\n      swap1\n      pop\n        /* \"#utility.yul\":4291:4657   */\n      swap2\n      swap1\n      pop\n      jump\t// out\n        /* \"#utility.yul\":4663:5061   */\n    tag_238:\n        /* \"#utility.yul\":4822:4825   */\n      0x00\n        /* \"#utility.yul\":4843:4926   */\n      tag_240\n        /* \"#utility.yul\":4924:4925   */\n      0x00\n        /* \"#utility.yul\":4919:4922   */\n      dup4\n        /* \"#utility.yul\":4843:4926   */\n      tag_241\n      jump\t// in\n    tag_240:\n        /* \"#utility.yul\":4836:4926   */\n      swap2\n      pop\n        /* \"#utility.yul\":4935:5028   */\n      tag_242\n        /* \"#utility.yul\":5024:5027   */\n      dup3\n        /* \"#utility.yul\":4935:5028   */\n      tag_243\n      jump\t// in\n    tag_242:\n        /* \"#utility.yul\":5053:5054   */\n      0x00\n        /* \"#utility.yul\":5048:5051   */\n      dup3\n        /* \"#utility.yul\":5044:5055   */\n      add\n        /* \"#utility.yul\":5037:5055   */\n      swap1\n      pop\n        /* \"#utility.yul\":4663:5061   */\n      swap2\n      swap1\n      pop\n      jump\t// out\n        /* \"#utility.yul\":5067:5433   */\n    tag_244:\n        /* \"#utility.yul\":5209:5212   */\n      0x00\n        /* \"#utility.yul\":5230:5297   */\n      tag_246\n        /* \"#utility.yul\":5294:5296   */\n      0x2f\n        /* \"#utility.yul\":5289:5292   */\n      dup4\n        /* \"#utility.yul\":5230:5297   */\n      tag_205\n      jump\t// in\n    tag_246:\n        /* \"#utility.yul\":5223:5297   */\n      swap2\n      pop\n        /* \"#utility.yul\":5306:5399   */\n      tag_247\n        /* \"#utility.yul\":5395:5398   */\n      dup3\n        /* \"#utility.yul\":5306:5399   */\n      tag_248\n      jump\t// in\n    tag_247:\n        /* \"#utility.yul\":5424:5426   */\n      0x40\n        /* \"#utility.yul\":5419:5422   */\n      dup3\n        /* \"#utility.yul\":5415:5427   */\n      add\n        /* \"#utility.yul\":5408:5427   */\n      swap1\n      pop\n        /* \"#utility.yul\":5067:5433   */\n      swap2\n      swap1\n      pop\n      jump\t// out\n        /* \"#utility.yul\":5439:5805   */\n    tag_249:\n        /* \"#utility.yul\":5581:5584   */\n      0x00\n        /* \"#utility.yul\":5602:5669   */\n      tag_251\n        /* \"#utility.yul\":5666:5668   */\n      0x17\n        /* \"#utility.yul\":5661:5664   */\n      dup4\n        /* \"#utility.yul\":5602:5669   */\n      tag_205\n      jump\t// in\n    tag_251:\n        /* \"#utility.yul\":5595:5669   */\n      swap2\n      pop\n        /* \"#utility.yul\":5678:5771   */\n      tag_252\n        /* \"#utility.yul\":5767:5770   */\n      dup3\n        /* \"#utility.yul\":5678:5771   */\n      tag_253\n      jump\t// in\n    tag_252:\n        /* \"#utility.yul\":5796:5798   */\n      0x20\n        /* \"#utility.yul\":5791:5794   */\n      dup3\n        /* \"#utility.yul\":5787:5799   */\n      add\n        /* \"#utility.yul\":5780:5799   */\n      swap1\n      pop\n        /* \"#utility.yul\":5439:5805   */\n      swap2\n      swap1\n      pop\n      jump\t// out\n        /* \"#utility.yul\":5811:6177   */\n    tag_254:\n        /* \"#utility.yul\":5953:5956   */\n      0x00\n        /* \"#utility.yul\":5974:6041   */\n      tag_256\n        /* \"#utility.yul\":6038:6040   */\n      0x18\n        /* \"#utility.yul\":6033:6036   */\n      dup4\n        /* \"#utility.yul\":5974:6041   */\n      tag_205\n      jump\t// in\n    tag_256:\n        /* \"#utility.yul\":5967:6041   */\n      swap2\n      pop\n        /* \"#utility.yul\":6050:6143   */\n      tag_257\n        /* \"#utility.yul\":6139:6142   */\n      dup3\n        /* \"#utility.yul\":6050:6143   */\n      tag_258\n      jump\t// in\n    tag_257:\n        /* \"#utility.yul\":6168:6170   */\n      0x20\n        /* \"#utility.yul\":6163:6166   */\n      dup3\n        /* \"#utility.yul\":6159:6171   */\n      add\n        /* \"#utility.yul\":6152:6171   */\n      swap1\n      pop\n        /* \"#utility.yul\":5811:6177   */\n      swap2\n      swap1\n      pop\n      jump\t// out\n        /* \"#utility.yul\":6183:6549   */\n    tag_259:\n        /* \"#utility.yul\":6325:6328   */\n      0x00\n        /* \"#utility.yul\":6346:6413   */\n      tag_261\n        /* \"#utility.yul\":6410:6412   */\n      0x2b\n        /* \"#utility.yul\":6405:6408   */\n      dup4\n        /* \"#utility.yul\":6346:6413   */\n      tag_205\n      jump\t// in\n    tag_261:\n        /* \"#utility.yul\":6339:6413   */\n      swap2\n      pop\n        /* \"#utility.yul\":6422:6515   */\n      tag_262\n        /* \"#utility.yul\":6511:6514   */\n      dup3\n        /* \"#utility.yul\":6422:6515   */\n      tag_263\n      jump\t// in\n    tag_262:\n        /* \"#utility.yul\":6540:6542   */\n      0x40\n        /* \"#utility.yul\":6535:6538   */\n      dup3\n        /* \"#utility.yul\":6531:6543   */\n      add\n        /* \"#utility.yul\":6524:6543   */\n      swap1\n      pop\n        /* \"#utility.yul\":6183:6549   */\n      swap2\n      swap1\n      pop\n      jump\t// out\n        /* \"#utility.yul\":6555:6673   */\n    tag_264:\n        /* \"#utility.yul\":6642:6666   */\n      tag_266\n        /* \"#utility.yul\":6660:6665   */\n      dup2\n        /* \"#utility.yul\":6642:6666   */\n      tag_267\n      jump\t// in\n    tag_266:\n        /* \"#utility.yul\":6637:6640   */\n      dup3\n        /* \"#utility.yul\":6630:6667   */\n      mstore\n        /* \"#utility.yul\":6555:6673   */\n      pop\n      pop\n      jump\t// out\n        /* \"#utility.yul\":6679:7058   */\n    tag_159:\n        /* \"#utility.yul\":6863:6866   */\n      0x00\n        /* \"#utility.yul\":6885:7032   */\n      tag_269\n        /* \"#utility.yul\":7028:7031   */\n      dup3\n        /* \"#utility.yul\":6885:7032   */\n      tag_238\n      jump\t// in\n    tag_269:\n        /* \"#utility.yul\":6878:7032   */\n      swap2\n      pop\n        /* \"#utility.yul\":7049:7052   */\n      dup2\n        /* \"#utility.yul\":7042:7052   */\n      swap1\n      pop\n        /* \"#utility.yul\":6679:7058   */\n      swap2\n      swap1\n      pop\n      jump\t// out\n        /* \"#utility.yul\":7064:7286   */\n    tag_43:\n        /* \"#utility.yul\":7157:7161   */\n      0x00\n        /* \"#utility.yul\":7195:7197   */\n      0x20\n        /* \"#utility.yul\":7184:7193   */\n      dup3\n        /* \"#utility.yul\":7180:7198   */\n      add\n        /* \"#utility.yul\":7172:7198   */\n      swap1\n      pop\n        /* \"#utility.yul\":7208:7279   */\n      tag_271\n        /* \"#utility.yul\":7276:7277   */\n      0x00\n        /* \"#utility.yul\":7265:7274   */\n      dup4\n        /* \"#utility.yul\":7261:7278   */\n      add\n        /* \"#utility.yul\":7252:7258   */\n      dup5\n        /* \"#utility.yul\":7208:7279   */\n      tag_198\n      jump\t// in\n    tag_271:\n        /* \"#utility.yul\":7064:7286   */\n      swap3\n      swap2\n      pop\n      pop\n      jump\t// out\n        /* \"#utility.yul\":7292:7711   */\n    tag_113:\n        /* \"#utility.yul\":7458:7462   */\n      0x00\n        /* \"#utility.yul\":7496:7498   */\n      0x20\n        /* \"#utility.yul\":7485:7494   */\n      dup3\n        /* \"#utility.yul\":7481:7499   */\n      add\n        /* \"#utility.yul\":7473:7499   */\n      swap1\n      pop\n        /* \"#utility.yul\":7545:7554   */\n      dup2\n        /* \"#utility.yul\":7539:7543   */\n      dup2\n        /* \"#utility.yul\":7535:7555   */\n      sub\n        /* \"#utility.yul\":7531:7532   */\n      0x00\n        /* \"#utility.yul\":7520:7529   */\n      dup4\n        /* \"#utility.yul\":7516:7533   */\n      add\n        /* \"#utility.yul\":7509:7556   */\n      mstore\n        /* \"#utility.yul\":7573:7704   */\n      tag_273\n        /* \"#utility.yul\":7699:7703   */\n      dup2\n        /* \"#utility.yul\":7573:7704   */\n      tag_202\n      jump\t// in\n    tag_273:\n        /* \"#utility.yul\":7565:7704   */\n      swap1\n      pop\n        /* \"#utility.yul\":7292:7711   */\n      swap2\n      swap1\n      pop\n      jump\t// out\n        /* \"#utility.yul\":7717:8136   */\n    tag_165:\n        /* \"#utility.yul\":7883:7887   */\n      0x00\n        /* \"#utility.yul\":7921:7923   */\n      0x20\n        /* \"#utility.yul\":7910:7919   */\n      dup3\n        /* \"#utility.yul\":7906:7924   */\n      add\n        /* \"#utility.yul\":7898:7924   */\n      swap1\n      pop\n        /* \"#utility.yul\":7970:7979   */\n      dup2\n        /* \"#utility.yul\":7964:7968   */\n      dup2\n        /* \"#utility.yul\":7960:7980   */\n      sub\n        /* \"#utility.yul\":7956:7957   */\n      0x00\n        /* \"#utility.yul\":7945:7954   */\n      dup4\n        /* \"#utility.yul\":7941:7958   */\n      add\n        /* \"#utility.yul\":7934:7981   */\n      mstore\n        /* \"#utility.yul\":7998:8129   */\n      tag_275\n        /* \"#utility.yul\":8124:8128   */\n      dup2\n        /* \"#utility.yul\":7998:8129   */\n      tag_208\n      jump\t// in\n    tag_275:\n        /* \"#utility.yul\":7990:8129   */\n      swap1\n      pop\n        /* \"#utility.yul\":7717:8136   */\n      swap2\n      swap1\n      pop\n      jump\t// out\n        /* \"#utility.yul\":8142:8561   */\n    tag_77:\n        /* \"#utility.yul\":8308:8312   */\n      0x00\n        /* \"#utility.yul\":8346:8348   */\n      0x20\n        /* \"#utility.yul\":8335:8344   */\n      dup3\n        /* \"#utility.yul\":8331:8349   */\n      add\n        /* \"#utility.yul\":8323:8349   */\n      swap1\n      pop\n        /* \"#utility.yul\":8395:8404   */\n      dup2\n        /* \"#utility.yul\":8389:8393   */\n      dup2\n        /* \"#utility.yul\":8385:8405   */\n      sub\n        /* \"#utility.yul\":8381:8382   */\n      0x00\n        /* \"#utility.yul\":8370:8379   */\n      dup4\n        /* \"#utility.yul\":8366:8383   */\n      add\n        /* \"#utility.yul\":8359:8406   */\n      mstore\n        /* \"#utility.yul\":8423:8554   */\n      tag_277\n        /* \"#utility.yul\":8549:8553   */\n      dup2\n        /* \"#utility.yul\":8423:8554   */\n      tag_213\n      jump\t// in\n    tag_277:\n        /* \"#utility.yul\":8415:8554   */\n      swap1\n      pop\n        /* \"#utility.yul\":8142:8561   */\n      swap2\n      swap1\n      pop\n      jump\t// out\n        /* \"#utility.yul\":8567:8986   */\n    tag_157:\n        /* \"#utility.yul\":8733:8737   */\n      0x00\n        /* \"#utility.yul\":8771:8773   */\n      0x20\n        /* \"#utility.yul\":8760:8769   */\n      dup3\n        /* \"#utility.yul\":8756:8774   */\n      add\n        /* \"#utility.yul\":8748:8774   */\n      swap1\n      pop\n        /* \"#utility.yul\":8820:8829   */\n      dup2\n        /* \"#utility.yul\":8814:8818   */\n      dup2\n        /* \"#utility.yul\":8810:8830   */\n      sub\n        /* \"#utility.yul\":8806:8807   */\n      0x00\n        /* \"#utility.yul\":8795:8804   */\n      dup4\n        /* \"#utility.yul\":8791:8808   */\n      add\n        /* \"#utility.yul\":8784:8831   */\n      mstore\n        /* \"#utility.yul\":8848:8979   */\n      tag_279\n        /* \"#utility.yul\":8974:8978   */\n      dup2\n        /* \"#utility.yul\":8848:8979   */\n      tag_218\n      jump\t// in\n    tag_279:\n        /* \"#utility.yul\":8840:8979   */\n      swap1\n      pop\n        /* \"#utility.yul\":8567:8986   */\n      swap2\n      swap1\n      pop\n      jump\t// out\n        /* \"#utility.yul\":8992:9411   */\n    tag_67:\n        /* \"#utility.yul\":9158:9162   */\n      0x00\n        /* \"#utility.yul\":9196:9198   */\n      0x20\n        /* \"#utility.yul\":9185:9194   */\n      dup3\n        /* \"#utility.yul\":9181:9199   */\n      add\n        /* \"#utility.yul\":9173:9199   */\n      swap1\n      pop\n        /* \"#utility.yul\":9245:9254   */\n      dup2\n        /* \"#utility.yul\":9239:9243   */\n      dup2\n        /* \"#utility.yul\":9235:9255   */\n      sub\n        /* \"#utility.yul\":9231:9232   */\n      0x00\n        /* \"#utility.yul\":9220:9229   */\n      dup4\n        /* \"#utility.yul\":9216:9233   */\n      add\n        /* \"#utility.yul\":9209:9256   */\n      mstore\n        /* \"#utility.yul\":9273:9404   */\n      tag_281\n        /* \"#utility.yul\":9399:9403   */\n      dup2\n        /* \"#utility.yul\":9273:9404   */\n      tag_223\n      jump\t// in\n    tag_281:\n        /* \"#utility.yul\":9265:9404   */\n      swap1\n      pop\n        /* \"#utility.yul\":8992:9411   */\n      swap2\n      swap1\n      pop\n      jump\t// out\n        /* \"#utility.yul\":9417:9836   */\n    tag_141:\n        /* \"#utility.yul\":9583:9587   */\n      0x00\n        /* \"#utility.yul\":9621:9623   */\n      0x20\n        /* \"#utility.yul\":9610:9619   */\n      dup3\n        /* \"#utility.yul\":9606:9624   */\n      add\n        /* \"#utility.yul\":9598:9624   */\n      swap1\n      pop\n        /* \"#utility.yul\":9670:9679   */\n      dup2\n        /* \"#utility.yul\":9664:9668   */\n      dup2\n        /* \"#utility.yul\":9660:9680   */\n      sub\n        /* \"#utility.yul\":9656:9657   */\n      0x00\n        /* \"#utility.yul\":9645:9654   */\n      dup4\n        /* \"#utility.yul\":9641:9658   */\n      add\n        /* \"#utility.yul\":9634:9681   */\n      mstore\n        /* \"#utility.yul\":9698:9829   */\n      tag_283\n        /* \"#utility.yul\":9824:9828   */\n      dup2\n        /* \"#utility.yul\":9698:9829   */\n      tag_228\n      jump\t// in\n    tag_283:\n        /* \"#utility.yul\":9690:9829   */\n      swap1\n      pop\n        /* \"#utility.yul\":9417:9836   */\n      swap2\n      swap1\n      pop\n      jump\t// out\n        /* \"#utility.yul\":9842:10261   */\n    tag_148:\n        /* \"#utility.yul\":10008:10012   */\n      0x00\n        /* \"#utility.yul\":10046:10048   */\n      0x20\n        /* \"#utility.yul\":10035:10044   */\n      dup3\n        /* \"#utility.yul\":10031:10049   */\n      add\n        /* \"#utility.yul\":10023:10049   */\n      swap1\n      pop\n        /* \"#utility.yul\":10095:10104   */\n      dup2\n        /* \"#utility.yul\":10089:10093   */\n      dup2\n        /* \"#utility.yul\":10085:10105   */\n      sub\n        /* \"#utility.yul\":10081:10082   */\n      0x00\n        /* \"#utility.yul\":10070:10079   */\n      dup4\n        /* \"#utility.yul\":10066:10083   */\n      add\n        /* \"#utility.yul\":10059:10106   */\n      mstore\n        /* \"#utility.yul\":10123:10254   */\n      tag_285\n        /* \"#utility.yul\":10249:10253   */\n      dup2\n        /* \"#utility.yul\":10123:10254   */\n      tag_233\n      jump\t// in\n    tag_285:\n        /* \"#utility.yul\":10115:10254   */\n      swap1\n      pop\n        /* \"#utility.yul\":9842:10261   */\n      swap2\n      swap1\n      pop\n      jump\t// out\n        /* \"#utility.yul\":10267:10686   */\n    tag_91:\n        /* \"#utility.yul\":10433:10437   */\n      0x00\n        /* \"#utility.yul\":10471:10473   */\n      0x20\n        /* \"#utility.yul\":10460:10469   */\n      dup3\n        /* \"#utility.yul\":10456:10474   */\n      add\n        /* \"#utility.yul\":10448:10474   */\n      swap1\n      pop\n        /* \"#utility.yul\":10520:10529   */\n      dup2\n        /* \"#utility.yul\":10514:10518   */\n      dup2\n        /* \"#utility.yul\":10510:10530   */\n      sub\n        /* \"#utility.yul\":10506:10507   */\n      0x00\n        /* \"#utility.yul\":10495:10504   */\n      dup4\n        /* \"#utility.yul\":10491:10508   */\n      add\n        /* \"#utility.yul\":10484:10531   */\n      mstore\n        /* \"#utility.yul\":10548:10679   */\n      tag_287\n        /* \"#utility.yul\":10674:10678   */\n      dup2\n        /* \"#utility.yul\":10548:10679   */\n      tag_244\n      jump\t// in\n    tag_287:\n        /* \"#utility.yul\":10540:10679   */\n      swap1\n      pop\n        /* \"#utility.yul\":10267:10686   */\n      swap2\n      swap1\n      pop\n      jump\t// out\n        /* \"#utility.yul\":10692:11111   */\n    tag_118:\n        /* \"#utility.yul\":10858:10862   */\n      0x00\n        /* \"#utility.yul\":10896:10898   */\n      0x20\n        /* \"#utility.yul\":10885:10894   */\n      dup3\n        /* \"#utility.yul\":10881:10899   */\n      add\n        /* \"#utility.yul\":10873:10899   */\n      swap1\n      pop\n        /* \"#utility.yul\":10945:10954   */\n      dup2\n        /* \"#utility.yul\":10939:10943   */\n      dup2\n        /* \"#utility.yul\":10935:10955   */\n      sub\n        /* \"#utility.yul\":10931:10932   */\n      0x00\n        /* \"#utility.yul\":10920:10929   */\n      dup4\n        /* \"#utility.yul\":10916:10933   */\n      add\n        /* \"#utility.yul\":10909:10956   */\n      mstore\n        /* \"#utility.yul\":10973:11104   */\n      tag_289\n        /* \"#utility.yul\":11099:11103   */\n      dup2\n        /* \"#utility.yul\":10973:11104   */\n      tag_249\n      jump\t// in\n    tag_289:\n        /* \"#utility.yul\":10965:11104   */\n      swap1\n      pop\n        /* \"#utility.yul\":10692:11111   */\n      swap2\n      swap1\n      pop\n      jump\t// out\n        /* \"#utility.yul\":11117:11536   */\n    tag_153:\n        /* \"#utility.yul\":11283:11287   */\n      0x00\n        /* \"#utility.yul\":11321:11323   */\n      0x20\n        /* \"#utility.yul\":11310:11319   */\n      dup3\n        /* \"#utility.yul\":11306:11324   */\n      add\n        /* \"#utility.yul\":11298:11324   */\n      swap1\n      pop\n        /* \"#utility.yul\":11370:11379   */\n      dup2\n        /* \"#utility.yul\":11364:11368   */\n      dup2\n        /* \"#utility.yul\":11360:11380   */\n      sub\n        /* \"#utility.yul\":11356:11357   */\n      0x00\n        /* \"#utility.yul\":11345:11354   */\n      dup4\n        /* \"#utility.yul\":11341:11358   */\n      add\n        /* \"#utility.yul\":11334:11381   */\n      mstore\n        /* \"#utility.yul\":11398:11529   */\n      tag_291\n        /* \"#utility.yul\":11524:11528   */\n      dup2\n        /* \"#utility.yul\":11398:11529   */\n      tag_254\n      jump\t// in\n    tag_291:\n        /* \"#utility.yul\":11390:11529   */\n      swap1\n      pop\n        /* \"#utility.yul\":11117:11536   */\n      swap2\n      swap1\n      pop\n      jump\t// out\n        /* \"#utility.yul\":11542:11961   */\n    tag_74:\n        /* \"#utility.yul\":11708:11712   */\n      0x00\n        /* \"#utility.yul\":11746:11748   */\n      0x20\n        /* \"#utility.yul\":11735:11744   */\n      dup3\n        /* \"#utility.yul\":11731:11749   */\n      add\n        /* \"#utility.yul\":11723:11749   */\n      swap1\n      pop\n        /* \"#utility.yul\":11795:11804   */\n      dup2\n        /* \"#utility.yul\":11789:11793   */\n      dup2\n        /* \"#utility.yul\":11785:11805   */\n      sub\n        /* \"#utility.yul\":11781:11782   */\n      0x00\n        /* \"#utility.yul\":11770:11779   */\n      dup4\n        /* \"#utility.yul\":11766:11783   */\n      add\n        /* \"#utility.yul\":11759:11806   */\n      mstore\n        /* \"#utility.yul\":11823:11954   */\n      tag_293\n        /* \"#utility.yul\":11949:11953   */\n      dup2\n        /* \"#utility.yul\":11823:11954   */\n      tag_259\n      jump\t// in\n    tag_293:\n        /* \"#utility.yul\":11815:11954   */\n      swap1\n      pop\n        /* \"#utility.yul\":11542:11961   */\n      swap2\n      swap1\n      pop\n      jump\t// out\n        /* \"#utility.yul\":11967:12189   */\n    tag_107:\n        /* \"#utility.yul\":12060:12064   */\n      0x00\n        /* \"#utility.yul\":12098:12100   */\n      0x20\n        /* \"#utility.yul\":12087:12096   */\n      dup3\n        /* \"#utility.yul\":12083:12101   */\n      add\n        /* \"#utility.yul\":12075:12101   */\n      swap1\n      pop\n        /* \"#utility.yul\":12111:12182   */\n      tag_295\n        /* \"#utility.yul\":12179:12180   */\n      0x00\n        /* \"#utility.yul\":12168:12177   */\n      dup4\n        /* \"#utility.yul\":12164:12181   */\n      add\n        /* \"#utility.yul\":12155:12161   */\n      dup5\n        /* \"#utility.yul\":12111:12182   */\n      tag_264\n      jump\t// in\n    tag_295:\n        /* \"#utility.yul\":11967:12189   */\n      swap3\n      swap2\n      pop\n      pop\n      jump\t// out\n        /* \"#utility.yul\":12276:12423   */\n    tag_241:\n        /* \"#utility.yul\":12377:12388   */\n      0x00\n        /* \"#utility.yul\":12414:12417   */\n      dup2\n        /* \"#utility.yul\":12399:12417   */\n      swap1\n      pop\n        /* \"#utility.yul\":12276:12423   */\n      swap3\n      swap2\n      pop\n      pop\n      jump\t// out\n        /* \"#utility.yul\":12429:12598   */\n    tag_205:\n        /* \"#utility.yul\":12513:12524   */\n      0x00\n        /* \"#utility.yul\":12547:12553   */\n      dup3\n        /* \"#utility.yul\":12542:12545   */\n      dup3\n        /* \"#utility.yul\":12535:12554   */\n      mstore\n        /* \"#utility.yul\":12587:12591   */\n      0x20\n        /* \"#utility.yul\":12582:12585   */\n      dup3\n        /* \"#utility.yul\":12578:12592   */\n      add\n        /* \"#utility.yul\":12563:12592   */\n      swap1\n      pop\n        /* \"#utility.yul\":12429:12598   */\n      swap3\n      swap2\n      pop\n      pop\n      jump\t// out\n        /* \"#utility.yul\":12604:12909   */\n    tag_79:\n        /* \"#utility.yul\":12644:12647   */\n      0x00\n        /* \"#utility.yul\":12663:12683   */\n      tag_301\n        /* \"#utility.yul\":12681:12682   */\n      dup3\n        /* \"#utility.yul\":12663:12683   */\n      tag_267\n      jump\t// in\n    tag_301:\n        /* \"#utility.yul\":12658:12683   */\n      swap2\n      pop\n        /* \"#utility.yul\":12697:12717   */\n      tag_302\n        /* \"#utility.yul\":12715:12716   */\n      dup4\n        /* \"#utility.yul\":12697:12717   */\n      tag_267\n      jump\t// in\n    tag_302:\n        /* \"#utility.yul\":12692:12717   */\n      swap3\n      pop\n        /* \"#utility.yul\":12851:12852   */\n      dup3\n        /* \"#utility.yul\":12783:12849   */\n      0xffffffffffffffffffffffffffffffffffffffffffffffffffffffffffffffff\n        /* \"#utility.yul\":12779:12853   */\n      sub\n        /* \"#utility.yul\":12776:12777   */\n      dup3\n        /* \"#utility.yul\":12773:12854   */\n      gt\n        /* \"#utility.yul\":12770:12877   */\n      iszero\n      tag_303\n      jumpi\n        /* \"#utility.yul\":12857:12875   */\n      tag_304\n      tag_305\n      jump\t// in\n    tag_304:\n        /* \"#utility.yul\":12770:12877   */\n    tag_303:\n        /* \"#utility.yul\":12901:12902   */\n      dup3\n        /* \"#utility.yul\":12898:12899   */\n      dup3\n        /* \"#utility.yul\":12894:12903   */\n      add\n        /* \"#utility.yul\":12887:12903   */\n      swap1\n      pop\n        /* \"#utility.yul\":12604:12909   */\n      swap3\n      swap2\n      pop\n      pop\n      jump\t// out\n        /* \"#utility.yul\":12915:13100   */\n    tag_123:\n        /* \"#utility.yul\":12955:12956   */\n      0x00\n        /* \"#utility.yul\":12972:12992   */\n      tag_307\n        /* \"#utility.yul\":12990:12991   */\n      dup3\n        /* \"#utility.yul\":12972:12992   */\n      tag_267\n      jump\t// in\n    tag_307:\n        /* \"#utility.yul\":12967:12992   */\n      swap2\n      pop\n        /* \"#utility.yul\":13006:13026   */\n      tag_308\n        /* \"#utility.yul\":13024:13025   */\n      dup4\n        /* \"#utility.yul\":13006:13026   */\n      tag_267\n      jump\t// in\n    tag_308:\n        /* \"#utility.yul\":13001:13026   */\n      swap3\n      pop\n        /* \"#utility.yul\":13045:13046   */\n      dup3\n        /* \"#utility.yul\":13035:13070   */\n      tag_309\n      jumpi\n        /* \"#utility.yul\":13050:13068   */\n      tag_310\n      tag_311\n      jump\t// in\n    tag_310:\n        /* \"#utility.yul\":13035:13070   */\n    tag_309:\n        /* \"#utility.yul\":13092:13093   */\n      dup3\n        /* \"#utility.yul\":13089:13090   */\n      dup3\n        /* \"#utility.yul\":13085:13094   */\n      div\n        /* \"#utility.yul\":13080:13094   */\n      swap1\n      pop\n        /* \"#utility.yul\":12915:13100   */\n      swap3\n      swap2\n      pop\n      pop\n      jump\t// out\n        /* \"#utility.yul\":13106:13454   */\n    tag_121:\n        /* \"#utility.yul\":13146:13153   */\n      0x00\n        /* \"#utility.yul\":13169:13189   */\n      tag_313\n        /* \"#utility.yul\":13187:13188   */\n      dup3\n        /* \"#utility.yul\":13169:13189   */\n      tag_267\n      jump\t// in\n    tag_313:\n        /* \"#utility.yul\":13164:13189   */\n      swap2\n      pop\n        /* \"#utility.yul\":13203:13223   */\n      tag_314\n        /* \"#utility.yul\":13221:13222   */\n      dup4\n        /* \"#utility.yul\":13203:13223   */\n      tag_267\n      jump\t// in\n    tag_314:\n        /* \"#utility.yul\":13198:13223   */\n      swap3\n      pop\n        /* \"#utility.yul\":13391:13392   */\n      dup2\n        /* \"#utility.yul\":13323:13389   */\n      0xffffffffffffffffffffffffffffffffffffffffffffffffffffffffffffffff\n        /* \"#utility.yul\":13319:13393   */\n      div\n        /* \"#utility.yul\":13316:13317   */\n      dup4\n        /* \"#utility.yul\":13313:13394   */\n      gt\n        /* \"#utility.yul\":13308:13309   */\n      dup3\n        /* \"#utility.yul\":13301:13310   */\n      iszero\n        /* \"#utility.yul\":13294:13311   */\n      iszero\n        /* \"#utility.yul\":13290:13395   */\n      and\n        /* \"#utility.yul\":13287:13418   */\n      iszero\n      tag_315\n      jumpi\n        /* \"#utility.yul\":13398:13416   */\n      tag_316\n      tag_305\n      jump\t// in\n    tag_316:\n        /* \"#utility.yul\":13287:13418   */\n    tag_315:\n        /* \"#utility.yul\":13446:13447   */\n      dup3\n        /* \"#utility.yul\":13443:13444   */\n      dup3\n        /* \"#utility.yul\":13439:13448   */\n      mul\n        /* \"#utility.yul\":13428:13448   */\n      swap1\n      pop\n        /* \"#utility.yul\":13106:13454   */\n      swap3\n      swap2\n      pop\n      pop\n      jump\t// out\n        /* \"#utility.yul\":13460:13651   */\n    tag_125:\n        /* \"#utility.yul\":13500:13504   */\n      0x00\n        /* \"#utility.yul\":13520:13540   */\n      tag_318\n        /* \"#utility.yul\":13538:13539   */\n      dup3\n        /* \"#utility.yul\":13520:13540   */\n      tag_267\n      jump\t// in\n    tag_318:\n        /* \"#utility.yul\":13515:13540   */\n      swap2\n      pop\n        /* \"#utility.yul\":13554:13574   */\n      tag_319\n        /* \"#utility.yul\":13572:13573   */\n      dup4\n        /* \"#utility.yul\":13554:13574   */\n      tag_267\n      jump\t// in\n    tag_319:\n        /* \"#utility.yul\":13549:13574   */\n      swap3\n      pop\n        /* \"#utility.yul\":13593:13594   */\n      dup3\n        /* \"#utility.yul\":13590:13591   */\n      dup3\n        /* \"#utility.yul\":13587:13595   */\n      lt\n        /* \"#utility.yul\":13584:13618   */\n      iszero\n      tag_320\n      jumpi\n        /* \"#utility.yul\":13598:13616   */\n      tag_321\n      tag_305\n      jump\t// in\n    tag_321:\n        /* \"#utility.yul\":13584:13618   */\n    tag_320:\n        /* \"#utility.yul\":13643:13644   */\n      dup3\n        /* \"#utility.yul\":13640:13641   */\n      dup3\n        /* \"#utility.yul\":13636:13645   */\n      sub\n        /* \"#utility.yul\":13628:13645   */\n      swap1\n      pop\n        /* \"#utility.yul\":13460:13651   */\n      swap3\n      swap2\n      pop\n      pop\n      jump\t// out\n        /* \"#utility.yul\":13657:13753   */\n    tag_201:\n        /* \"#utility.yul\":13694:13701   */\n      0x00\n        /* \"#utility.yul\":13723:13747   */\n      tag_323\n        /* \"#utility.yul\":13741:13746   */\n      dup3\n        /* \"#utility.yul\":13723:13747   */\n      tag_324\n      jump\t// in\n    tag_323:\n        /* \"#utility.yul\":13712:13747   */\n      swap1\n      pop\n        /* \"#utility.yul\":13657:13753   */\n      swap2\n      swap1\n      pop\n      jump\t// out\n        /* \"#utility.yul\":13759:13863   */\n    tag_325:\n        /* \"#utility.yul\":13804:13811   */\n      0x00\n        /* \"#utility.yul\":13833:13857   */\n      tag_327\n        /* \"#utility.yul\":13851:13856   */\n      dup3\n        /* \"#utility.yul\":13833:13857   */\n      tag_324\n      jump\t// in\n    tag_327:\n        /* \"#utility.yul\":13822:13857   */\n      swap1\n      pop\n        /* \"#utility.yul\":13759:13863   */\n      swap2\n      swap1\n      pop\n      jump\t// out\n        /* \"#utility.yul\":13869:13959   */\n    tag_328:\n        /* \"#utility.yul\":13903:13910   */\n      0x00\n        /* \"#utility.yul\":13946:13951   */\n      dup2\n        /* \"#utility.yul\":13939:13952   */\n      iszero\n        /* \"#utility.yul\":13932:13953   */\n      iszero\n        /* \"#utility.yul\":13921:13953   */\n      swap1\n      pop\n        /* \"#utility.yul\":13869:13959   */\n      swap2\n      swap1\n      pop\n      jump\t// out\n        /* \"#utility.yul\":13965:14091   */\n    tag_324:\n        /* \"#utility.yul\":14002:14009   */\n      0x00\n        /* \"#utility.yul\":14042:14084   */\n      0xffffffffffffffffffffffffffffffffffffffff\n        /* \"#utility.yul\":14035:14040   */\n      dup3\n        /* \"#utility.yul\":14031:14085   */\n      and\n        /* \"#utility.yul\":14020:14085   */\n      swap1\n      pop\n        /* \"#utility.yul\":13965:14091   */\n      swap2\n      swap1\n      pop\n      jump\t// out\n        /* \"#utility.yul\":14097:14174   */\n    tag_267:\n        /* \"#utility.yul\":14134:14141   */\n      0x00\n        /* \"#utility.yul\":14163:14168   */\n      dup2\n        /* \"#utility.yul\":14152:14168   */\n      swap1\n      pop\n        /* \"#utility.yul\":14097:14174   */\n      swap2\n      swap1\n      pop\n      jump\t// out\n        /* \"#utility.yul\":14180:14360   */\n    tag_305:\n        /* \"#utility.yul\":14228:14305   */\n      0x4e487b7100000000000000000000000000000000000000000000000000000000\n        /* \"#utility.yul\":14225:14226   */\n      0x00\n        /* \"#utility.yul\":14218:14306   */\n      mstore\n        /* \"#utility.yul\":14325:14329   */\n      0x11\n        /* \"#utility.yul\":14322:14323   */\n      0x04\n        /* \"#utility.yul\":14315:14330   */\n      mstore\n        /* \"#utility.yul\":14349:14353   */\n      0x24\n        /* \"#utility.yul\":14346:14347   */\n      0x00\n        /* \"#utility.yul\":14339:14354   */\n      revert\n        /* \"#utility.yul\":14366:14546   */\n    tag_311:\n        /* \"#utility.yul\":14414:14491   */\n      0x4e487b7100000000000000000000000000000000000000000000000000000000\n        /* \"#utility.yul\":14411:14412   */\n      0x00\n        /* \"#utility.yul\":14404:14492   */\n      mstore\n        /* \"#utility.yul\":14511:14515   */\n      0x12\n        /* \"#utility.yul\":14508:14509   */\n      0x04\n        /* \"#utility.yul\":14501:14516   */\n      mstore\n        /* \"#utility.yul\":14535:14539   */\n      0x24\n        /* \"#utility.yul\":14532:14533   */\n      0x00\n        /* \"#utility.yul\":14525:14540   */\n      revert\n        /* \"#utility.yul\":14675:14792   */\n    tag_183:\n        /* \"#utility.yul\":14784:14785   */\n      0x00\n        /* \"#utility.yul\":14781:14782   */\n      dup1\n        /* \"#utility.yul\":14774:14786   */\n      revert\n        /* \"#utility.yul\":14798:15023   */\n    tag_207:\n        /* \"#utility.yul\":14938:14972   */\n      0x4f776e61626c653a206e6577206f776e657220697320746865207a65726f2061\n        /* \"#utility.yul\":14934:14935   */\n      0x00\n        /* \"#utility.yul\":14926:14932   */\n      dup3\n        /* \"#utility.yul\":14922:14936   */\n      add\n        /* \"#utility.yul\":14915:14973   */\n      mstore\n        /* \"#utility.yul\":15007:15015   */\n      0x6464726573730000000000000000000000000000000000000000000000000000\n        /* \"#utility.yul\":15002:15004   */\n      0x20\n        /* \"#utility.yul\":14994:15000   */\n      dup3\n        /* \"#utility.yul\":14990:15005   */\n      add\n        /* \"#utility.yul\":14983:15016   */\n      mstore\n        /* \"#utility.yul\":14798:15023   */\n      pop\n      jump\t// out\n        /* \"#utility.yul\":15029:15274   */\n    tag_212:\n        /* \"#utility.yul\":15169:15203   */\n      0x416464726573733a20756e61626c6520746f2073656e642076616c75652c2072\n        /* \"#utility.yul\":15165:15166   */\n      0x00\n        /* \"#utility.yul\":15157:15163   */\n      dup3\n        /* \"#utility.yul\":15153:15167   */\n      add\n        /* \"#utility.yul\":15146:15204   */\n      mstore\n        /* \"#utility.yul\":15238:15266   */\n      0x6563697069656e74206d61792068617665207265766572746564000000000000\n        /* \"#utility.yul\":15233:15235   */\n      0x20\n        /* \"#utility.yul\":15225:15231   */\n      dup3\n        /* \"#utility.yul\":15221:15236   */\n      add\n        /* \"#utility.yul\":15214:15267   */\n      mstore\n        /* \"#utility.yul\":15029:15274   */\n      pop\n      jump\t// out\n        /* \"#utility.yul\":15280:15522   */\n    tag_217:\n        /* \"#utility.yul\":15420:15454   */\n      0x436f6e74726163746f7220416464726573732063616e6e6f7420626520746865\n        /* \"#utility.yul\":15416:15417   */\n      0x00\n        /* \"#utility.yul\":15408:15414   */\n      dup3\n        /* \"#utility.yul\":15404:15418   */\n      add\n        /* \"#utility.yul\":15397:15455   */\n      mstore\n        /* \"#utility.yul\":15489:15514   */\n      0x2073616d6520617320434c69656e742041646472657373000000000000000000\n        /* \"#utility.yul\":15484:15486   */\n      0x20\n        /* \"#utility.yul\":15476:15482   */\n      dup3\n        /* \"#utility.yul\":15472:15487   */\n      add\n        /* \"#utility.yul\":15465:15515   */\n      mstore\n        /* \"#utility.yul\":15280:15522   */\n      pop\n      jump\t// out\n        /* \"#utility.yul\":15528:15707   */\n    tag_222:\n        /* \"#utility.yul\":15668:15699   */\n      0x416464726573733a20696e73756666696369656e742062616c616e6365000000\n        /* \"#utility.yul\":15664:15665   */\n      0x00\n        /* \"#utility.yul\":15656:15662   */\n      dup3\n        /* \"#utility.yul\":15652:15666   */\n      add\n        /* \"#utility.yul\":15645:15700   */\n      mstore\n        /* \"#utility.yul\":15528:15707   */\n      pop\n      jump\t// out\n        /* \"#utility.yul\":15713:15888   */\n    tag_227:\n        /* \"#utility.yul\":15853:15880   */\n      0x4164642066756e647320746f2074686520636f6e747261637400000000000000\n        /* \"#utility.yul\":15849:15850   */\n      0x00\n        /* \"#utility.yul\":15841:15847   */\n      dup3\n        /* \"#utility.yul\":15837:15851   */\n      add\n        /* \"#utility.yul\":15830:15881   */\n      mstore\n        /* \"#utility.yul\":15713:15888   */\n      pop\n      jump\t// out\n        /* \"#utility.yul\":15894:16072   */\n    tag_232:\n        /* \"#utility.yul\":16034:16064   */\n      0x63616c6c6572206973206e6f742074686520636f6e74726163746f7200000000\n        /* \"#utility.yul\":16030:16031   */\n      0x00\n        /* \"#utility.yul\":16022:16028   */\n      dup3\n        /* \"#utility.yul\":16018:16032   */\n      add\n        /* \"#utility.yul\":16011:16065   */\n      mstore\n        /* \"#utility.yul\":15894:16072   */\n      pop\n      jump\t// out\n        /* \"#utility.yul\":16078:16260   */\n    tag_237:\n        /* \"#utility.yul\":16218:16252   */\n      0x4f776e61626c653a2063616c6c6572206973206e6f7420746865206f776e6572\n        /* \"#utility.yul\":16214:16215   */\n      0x00\n        /* \"#utility.yul\":16206:16212   */\n      dup3\n        /* \"#utility.yul\":16202:16216   */\n      add\n        /* \"#utility.yul\":16195:16253   */\n      mstore\n        /* \"#utility.yul\":16078:16260   */\n      pop\n      jump\t// out\n        /* \"#utility.yul\":16266:16380   */\n    tag_243:\n      pop\n      jump\t// out\n        /* \"#utility.yul\":16386:16620   */\n    tag_248:\n        /* \"#utility.yul\":16526:16560   */\n      0x436f6e74726163746f7220416464726573732063616e6e6f7420626520636861\n        /* \"#utility.yul\":16522:16523   */\n      0x00\n        /* \"#utility.yul\":16514:16520   */\n      dup3\n        /* \"#utility.yul\":16510:16524   */\n      add\n        /* \"#utility.yul\":16503:16561   */\n      mstore\n        /* \"#utility.yul\":16595:16612   */\n      0x6e676564206f6e63652061646465640000000000000000000000000000000000\n        /* \"#utility.yul\":16590:16592   */\n      0x20\n        /* \"#utility.yul\":16582:16588   */\n      dup3\n        /* \"#utility.yul\":16578:16593   */\n      add\n        /* \"#utility.yul\":16571:16613   */\n      mstore\n        /* \"#utility.yul\":16386:16620   */\n      pop\n      jump\t// out\n        /* \"#utility.yul\":16626:16799   */\n    tag_253:\n        /* \"#utility.yul\":16766:16791   */\n      0x63616c6c6572206973206e6f74207468652061646d696e000000000000000000\n        /* \"#utility.yul\":16762:16763   */\n      0x00\n        /* \"#utility.yul\":16754:16760   */\n      dup3\n        /* \"#utility.yul\":16750:16764   */\n      add\n        /* \"#utility.yul\":16743:16792   */\n      mstore\n        /* \"#utility.yul\":16626:16799   */\n      pop\n      jump\t// out\n        /* \"#utility.yul\":16805:16979   */\n    tag_258:\n        /* \"#utility.yul\":16945:16971   */\n      0x63616c6c6572206973206e6f742074686520636c69656e740000000000000000\n        /* \"#utility.yul\":16941:16942   */\n      0x00\n        /* \"#utility.yul\":16933:16939   */\n      dup3\n        /* \"#utility.yul\":16929:16943   */\n      add\n        /* \"#utility.yul\":16922:16972   */\n      mstore\n        /* \"#utility.yul\":16805:16979   */\n      pop\n      jump\t// out\n        /* \"#utility.yul\":16985:17215   */\n    tag_263:\n        /* \"#utility.yul\":17125:17159   */\n      0x436c69656e7420416464726573732063616e6e6f74206265206368616e676564\n        /* \"#utility.yul\":17121:17122   */\n      0x00\n        /* \"#utility.yul\":17113:17119   */\n      dup3\n        /* \"#utility.yul\":17109:17123   */\n      add\n        /* \"#utility.yul\":17102:17160   */\n      mstore\n        /* \"#utility.yul\":17194:17207   */\n      0x206f6e6365206164646564000000000000000000000000000000000000000000\n        /* \"#utility.yul\":17189:17191   */\n      0x20\n        /* \"#utility.yul\":17181:17187   */\n      dup3\n        /* \"#utility.yul\":17177:17192   */\n      add\n        /* \"#utility.yul\":17170:17208   */\n      mstore\n        /* \"#utility.yul\":16985:17215   */\n      pop\n      jump\t// out\n        /* \"#utility.yul\":17221:17343   */\n    tag_171:\n        /* \"#utility.yul\":17294:17318   */\n      tag_350\n        /* \"#utility.yul\":17312:17317   */\n      dup2\n        /* \"#utility.yul\":17294:17318   */\n      tag_201\n      jump\t// in\n    tag_350:\n        /* \"#utility.yul\":17287:17292   */\n      dup2\n        /* \"#utility.yul\":17284:17319   */\n      eq\n        /* \"#utility.yul\":17274:17337   */\n      tag_351\n      jumpi\n        /* \"#utility.yul\":17333:17334   */\n      0x00\n        /* \"#utility.yul\":17330:17331   */\n      dup1\n        /* \"#utility.yul\":17323:17335   */\n      revert\n        /* \"#utility.yul\":17274:17337   */\n    tag_351:\n        /* \"#utility.yul\":17221:17343   */\n      pop\n      jump\t// out\n        /* \"#utility.yul\":17349:17487   */\n    tag_175:\n        /* \"#utility.yul\":17430:17462   */\n      tag_353\n        /* \"#utility.yul\":17456:17461   */\n      dup2\n        /* \"#utility.yul\":17430:17462   */\n      tag_325\n      jump\t// in\n    tag_353:\n        /* \"#utility.yul\":17423:17428   */\n      dup2\n        /* \"#utility.yul\":17420:17463   */\n      eq\n        /* \"#utility.yul\":17410:17481   */\n      tag_354\n      jumpi\n        /* \"#utility.yul\":17477:17478   */\n      0x00\n        /* \"#utility.yul\":17474:17475   */\n      dup1\n        /* \"#utility.yul\":17467:17479   */\n      revert\n        /* \"#utility.yul\":17410:17481   */\n    tag_354:\n        /* \"#utility.yul\":17349:17487   */\n      pop\n      jump\t// out\n        /* \"#utility.yul\":17493:17609   */\n    tag_179:\n        /* \"#utility.yul\":17563:17584   */\n      tag_356\n        /* \"#utility.yul\":17578:17583   */\n      dup2\n        /* \"#utility.yul\":17563:17584   */\n      tag_328\n      jump\t// in\n    tag_356:\n        /* \"#utility.yul\":17556:17561   */\n      dup2\n        /* \"#utility.yul\":17553:17585   */\n      eq\n        /* \"#utility.yul\":17543:17603   */\n      tag_357\n      jumpi\n        /* \"#utility.yul\":17599:17600   */\n      0x00\n        /* \"#utility.yul\":17596:17597   */\n      dup1\n        /* \"#utility.yul\":17589:17601   */\n      revert\n        /* \"#utility.yul\":17543:17603   */\n    tag_357:\n        /* \"#utility.yul\":17493:17609   */\n      pop\n      jump\t// out\n\n    auxdata: 0xa2646970667358221220c8400251b8efd8b385e676541a7f1a7faef5a3ed593a30a12afd819b53e7f11964736f6c63430008070033\n}\n",
				"bytecode": {
					"linkReferences": {},
					"object": "608060405234801561001057600080fd5b5061002d61002261003260201b60201c565b61003a60201b60201c565b6100fe565b600033905090565b60008060009054906101000a900473ffffffffffffffffffffffffffffffffffffffff169050816000806101000a81548173ffffffffffffffffffffffffffffffffffffffff021916908373ffffffffffffffffffffffffffffffffffffffff1602179055508173ffffffffffffffffffffffffffffffffffffffff168173ffffffffffffffffffffffffffffffffffffffff167f8be0079c531659141344cd1fd0a4f28419497f9722a3daafe3b4186f6b6457e060405160405180910390a35050565b6119038061010d6000396000f3fe6080604052600436106100915760003560e01c8063761768b611610059578063761768b6146101515780638da5cb5b1461017a5780639464c8b8146101a5578063d0e30db0146101ce578063f2fde38b146101d857610091565b806311571f3014610096578063251d8cd5146100bf57806343928cfd146100e85780637048027514610111578063715018a61461013a575b600080fd5b3480156100a257600080fd5b506100bd60048036038101906100b89190611069565b610201565b005b3480156100cb57600080fd5b506100e660048036038101906100e1919061103c565b610292565b005b3480156100f457600080fd5b5061010f600480360381019061010a919061100f565b610341565b005b34801561011d57600080fd5b506101386004803603810190610133919061100f565b6104d7565b005b34801561014657600080fd5b5061014f610575565b005b34801561015d57600080fd5b506101786004803603810190610173919061100f565b610589565b005b34801561018657600080fd5b5061018f61071f565b60405161019c9190611280565b60405180910390f35b3480156101b157600080fd5b506101cc60048036038101906101c7919061103c565b610748565b005b6101d66107ff565b005b3480156101e457600080fd5b506101ff60048036038101906101fa9190610fe2565b61085d565b005b6102096108e1565b81600760026101000a81548160ff02191690831515021790555080600760036101000a81548160ff021916908315150217905550610245610973565b8015158215153373ffffffffffffffffffffffffffffffffffffffff167fcb2a9bd5cdd4b0340f50bddf7b979225baadb90aa82c9563d744b95fde4b94f860405160405180910390a45050565b61029a610c41565b60004714156102de576040517f08c379a00000000000000000000000000000000000000000000000000000000081526004016102d59061131b565b60405180910390fd5b80600760006101000a81548160ff0219169083151502179055508015153373ffffffffffffffffffffffffffffffffffffffff167f86b0f06518059e6fa59b029ea6c3a62862f6ce17f5ba015e229c7b66bdd4394360405160405180910390a350565b610349610cd3565b60016006541061038e576040517f08c379a0000000000000000000000000000000000000000000000000000000008152600401610385906113db565b60405180910390fd5b600260009054906101000a900473ffffffffffffffffffffffffffffffffffffffff1673ffffffffffffffffffffffffffffffffffffffff168173ffffffffffffffffffffffffffffffffffffffff16141561041f576040517f08c379a0000000000000000000000000000000000000000000000000000000008152600401610416906112db565b60405180910390fd5b80600260006101000a81548173ffffffffffffffffffffffffffffffffffffffff021916908373ffffffffffffffffffffffffffffffffffffffff1602179055506001600660008282546104739190611432565b925050819055508073ffffffffffffffffffffffffffffffffffffffff163373ffffffffffffffffffffffffffffffffffffffff167fe27d4d26fcc4a6050babcf645d911ab0100dc766cbc6986d7f217c5bf38d7d7960405160405180910390a350565b80600360006101000a81548173ffffffffffffffffffffffffffffffffffffffff021916908373ffffffffffffffffffffffffffffffffffffffff1602179055508073ffffffffffffffffffffffffffffffffffffffff163373ffffffffffffffffffffffffffffffffffffffff167fbf3f493c772c8c283fd124432c2d0f539ab343faa04258fe88e52912d36b102b60405160405180910390a350565b61057d610cd3565b6105876000610d51565b565b610591610cd3565b6001600554106105d6576040517f08c379a00000000000000000000000000000000000000000000000000000000081526004016105cd9061137b565b60405180910390fd5b600260009054906101000a900473ffffffffffffffffffffffffffffffffffffffff1673ffffffffffffffffffffffffffffffffffffffff168173ffffffffffffffffffffffffffffffffffffffff161415610667576040517f08c379a000000000000000000000000000000000000000000000000000000000815260040161065e906112db565b60405180910390fd5b80600160006101000a81548173ffffffffffffffffffffffffffffffffffffffff021916908373ffffffffffffffffffffffffffffffffffffffff1602179055506001600560008282546106bb9190611432565b925050819055508073ffffffffffffffffffffffffffffffffffffffff163373ffffffffffffffffffffffffffffffffffffffff167f2be2f3212d36e0a64cd66ce6ce42568a8285e64220a5e3a90a66d2b29f13d63660405160405180910390a350565b60008060009054906101000a900473ffffffffffffffffffffffffffffffffffffffff16905090565b610750610e15565b6000471415610794576040517f08c379a000000000000000000000000000000000000000000000000000000000815260040161078b9061131b565b60405180910390fd5b80600760016101000a81548160ff0219169083151502179055506107b6610973565b8015153373ffffffffffffffffffffffffffffffffffffffff167fd4370d74364ad854a41b3b33a65801a8ee79e544a255db783bbb748ddcf0807160405160405180910390a350565b610807610e15565b60003490503373ffffffffffffffffffffffffffffffffffffffff167f2da466a7b24304f47e87fa2e1e5a81b9831ce54fec19055ce277ca2f39ba42c48260405161085291906113fb565b60405180910390a250565b610865610cd3565b600073ffffffffffffffffffffffffffffffffffffffff168173ffffffffffffffffffffffffffffffffffffffff1614156108d5576040517f08c379a00000000000000000000000000000000000000000000000000000000081526004016108cc9061129b565b60405180910390fd5b6108de81610d51565b50565b600360009054906101000a900473ffffffffffffffffffffffffffffffffffffffff1673ffffffffffffffffffffffffffffffffffffffff163373ffffffffffffffffffffffffffffffffffffffff1614610971576040517f08c379a00000000000000000000000000000000000000000000000000000000081526004016109689061139b565b60405180910390fd5b565b60004790506000606460028361098991906114b9565b6109939190611488565b905080826109a19190611513565b915060011515600760009054906101000a900460ff1615151480156109d9575060011515600760019054906101000a900460ff161515145b80610a16575060011515600760029054906101000a900460ff161515148015610a15575060011515600760039054906101000a900460ff161515145b5b15610b1057610a6682600160009054906101000a900473ffffffffffffffffffffffffffffffffffffffff1673ffffffffffffffffffffffffffffffffffffffff16610ea790919063ffffffff16565b610ab181600360009054906101000a900473ffffffffffffffffffffffffffffffffffffffff1673ffffffffffffffffffffffffffffffffffffffff16610ea790919063ffffffff16565b817f7cfba278765aa1b181ffd1c4f0c8d7f8b8918b5f65cec05e7f3f1d3257146ebf60405160405180910390a2807f1146bf3c5b3a7ee2f6886943b992e2884e0c0cf9bc52acd299fa2e4d3442c73460405160405180910390a2610c3d565b60011515600760029054906101000a900460ff161515148015610b46575060001515600760039054906101000a900460ff161515145b15610c3c57610b9682600260009054906101000a900473ffffffffffffffffffffffffffffffffffffffff1673ffffffffffffffffffffffffffffffffffffffff16610ea790919063ffffffff16565b610be181600360009054906101000a900473ffffffffffffffffffffffffffffffffffffffff1673ffffffffffffffffffffffffffffffffffffffff16610ea790919063ffffffff16565b817f821720cf74f712bafd9428b0071c7f73f7bc776321f3ddca4c9f47a6956b812560405160405180910390a2807f1146bf3c5b3a7ee2f6886943b992e2884e0c0cf9bc52acd299fa2e4d3442c73460405160405180910390a25b5b5050565b600160009054906101000a900473ffffffffffffffffffffffffffffffffffffffff1673ffffffffffffffffffffffffffffffffffffffff163373ffffffffffffffffffffffffffffffffffffffff1614610cd1576040517f08c379a0000000000000000000000000000000000000000000000000000000008152600401610cc89061133b565b60405180910390fd5b565b610cdb610f9b565b73ffffffffffffffffffffffffffffffffffffffff16610cf961071f565b73ffffffffffffffffffffffffffffffffffffffff1614610d4f576040517f08c379a0000000000000000000000000000000000000000000000000000000008152600401610d469061135b565b60405180910390fd5b565b60008060009054906101000a900473ffffffffffffffffffffffffffffffffffffffff169050816000806101000a81548173ffffffffffffffffffffffffffffffffffffffff021916908373ffffffffffffffffffffffffffffffffffffffff1602179055508173ffffffffffffffffffffffffffffffffffffffff168173ffffffffffffffffffffffffffffffffffffffff167f8be0079c531659141344cd1fd0a4f28419497f9722a3daafe3b4186f6b6457e060405160405180910390a35050565b600260009054906101000a900473ffffffffffffffffffffffffffffffffffffffff1673ffffffffffffffffffffffffffffffffffffffff163373ffffffffffffffffffffffffffffffffffffffff1614610ea5576040517f08c379a0000000000000000000000000000000000000000000000000000000008152600401610e9c906113bb565b60405180910390fd5b565b80471015610eea576040517f08c379a0000000000000000000000000000000000000000000000000000000008152600401610ee1906112fb565b60405180910390fd5b60008273ffffffffffffffffffffffffffffffffffffffff1682604051610f109061126b565b60006040518083038185875af1925050503d8060008114610f4d576040519150601f19603f3d011682016040523d82523d6000602084013e610f52565b606091505b5050905080610f96576040517f08c379a0000000000000000000000000000000000000000000000000000000008152600401610f8d906112bb565b60405180910390fd5b505050565b600033905090565b600081359050610fb281611888565b92915050565b600081359050610fc78161189f565b92915050565b600081359050610fdc816118b6565b92915050565b600060208284031215610ff857610ff76115ff565b5b600061100684828501610fa3565b91505092915050565b600060208284031215611025576110246115ff565b5b600061103384828501610fb8565b91505092915050565b600060208284031215611052576110516115ff565b5b600061106084828501610fcd565b91505092915050565b600080604083850312156110805761107f6115ff565b5b600061108e85828601610fcd565b925050602061109f85828601610fcd565b9150509250929050565b6110b281611547565b82525050565b60006110c5602683611421565b91506110d082611604565b604082019050919050565b60006110e8603a83611421565b91506110f382611653565b604082019050919050565b600061110b603783611421565b9150611116826116a2565b604082019050919050565b600061112e601d83611421565b9150611139826116f1565b602082019050919050565b6000611151601983611421565b915061115c8261171a565b602082019050919050565b6000611174601c83611421565b915061117f82611743565b602082019050919050565b6000611197602083611421565b91506111a28261176c565b602082019050919050565b60006111ba600083611416565b91506111c582611795565b600082019050919050565b60006111dd602f83611421565b91506111e882611798565b604082019050919050565b6000611200601783611421565b915061120b826117e7565b602082019050919050565b6000611223601883611421565b915061122e82611810565b602082019050919050565b6000611246602b83611421565b915061125182611839565b604082019050919050565b61126581611597565b82525050565b6000611276826111ad565b9150819050919050565b600060208201905061129560008301846110a9565b92915050565b600060208201905081810360008301526112b4816110b8565b9050919050565b600060208201905081810360008301526112d4816110db565b9050919050565b600060208201905081810360008301526112f4816110fe565b9050919050565b6000602082019050818103600083015261131481611121565b9050919050565b6000602082019050818103600083015261133481611144565b9050919050565b6000602082019050818103600083015261135481611167565b9050919050565b600060208201905081810360008301526113748161118a565b9050919050565b60006020820190508181036000830152611394816111d0565b9050919050565b600060208201905081810360008301526113b4816111f3565b9050919050565b600060208201905081810360008301526113d481611216565b9050919050565b600060208201905081810360008301526113f481611239565b9050919050565b6000602082019050611410600083018461125c565b92915050565b600081905092915050565b600082825260208201905092915050565b600061143d82611597565b915061144883611597565b9250827fffffffffffffffffffffffffffffffffffffffffffffffffffffffffffffffff0382111561147d5761147c6115a1565b5b828201905092915050565b600061149382611597565b915061149e83611597565b9250826114ae576114ad6115d0565b5b828204905092915050565b60006114c482611597565b91506114cf83611597565b9250817fffffffffffffffffffffffffffffffffffffffffffffffffffffffffffffffff0483118215151615611508576115076115a1565b5b828202905092915050565b600061151e82611597565b915061152983611597565b92508282101561153c5761153b6115a1565b5b828203905092915050565b600061155282611577565b9050919050565b600061156482611577565b9050919050565b60008115159050919050565b600073ffffffffffffffffffffffffffffffffffffffff82169050919050565b6000819050919050565b7f4e487b7100000000000000000000000000000000000000000000000000000000600052601160045260246000fd5b7f4e487b7100000000000000000000000000000000000000000000000000000000600052601260045260246000fd5b600080fd5b7f4f776e61626c653a206e6577206f776e657220697320746865207a65726f206160008201527f6464726573730000000000000000000000000000000000000000000000000000602082015250565b7f416464726573733a20756e61626c6520746f2073656e642076616c75652c207260008201527f6563697069656e74206d61792068617665207265766572746564000000000000602082015250565b7f436f6e74726163746f7220416464726573732063616e6e6f742062652074686560008201527f2073616d6520617320434c69656e742041646472657373000000000000000000602082015250565b7f416464726573733a20696e73756666696369656e742062616c616e6365000000600082015250565b7f4164642066756e647320746f2074686520636f6e747261637400000000000000600082015250565b7f63616c6c6572206973206e6f742074686520636f6e74726163746f7200000000600082015250565b7f4f776e61626c653a2063616c6c6572206973206e6f7420746865206f776e6572600082015250565b50565b7f436f6e74726163746f7220416464726573732063616e6e6f742062652063686160008201527f6e676564206f6e63652061646465640000000000000000000000000000000000602082015250565b7f63616c6c6572206973206e6f74207468652061646d696e000000000000000000600082015250565b7f63616c6c6572206973206e6f742074686520636c69656e740000000000000000600082015250565b7f436c69656e7420416464726573732063616e6e6f74206265206368616e67656460008201527f206f6e6365206164646564000000000000000000000000000000000000000000602082015250565b61189181611547565b811461189c57600080fd5b50565b6118a881611559565b81146118b357600080fd5b50565b6118bf8161156b565b81146118ca57600080fd5b5056fea2646970667358221220c8400251b8efd8b385e676541a7f1a7faef5a3ed593a30a12afd819b53e7f11964736f6c63430008070033",
					"opcodes": "PUSH1 0x80 PUSH1 0x40 MSTORE CALLVALUE DUP1 ISZERO PUSH2 0x10 JUMPI PUSH1 0x0 DUP1 REVERT JUMPDEST POP PUSH2 0x2D PUSH2 0x22 PUSH2 0x32 PUSH1 0x20 SHL PUSH1 0x20 SHR JUMP JUMPDEST PUSH2 0x3A PUSH1 0x20 SHL PUSH1 0x20 SHR JUMP JUMPDEST PUSH2 0xFE JUMP JUMPDEST PUSH1 0x0 CALLER SWAP1 POP SWAP1 JUMP JUMPDEST PUSH1 0x0 DUP1 PUSH1 0x0 SWAP1 SLOAD SWAP1 PUSH2 0x100 EXP SWAP1 DIV PUSH20 0xFFFFFFFFFFFFFFFFFFFFFFFFFFFFFFFFFFFFFFFF AND SWAP1 POP DUP2 PUSH1 0x0 DUP1 PUSH2 0x100 EXP DUP2 SLOAD DUP2 PUSH20 0xFFFFFFFFFFFFFFFFFFFFFFFFFFFFFFFFFFFFFFFF MUL NOT AND SWAP1 DUP4 PUSH20 0xFFFFFFFFFFFFFFFFFFFFFFFFFFFFFFFFFFFFFFFF AND MUL OR SWAP1 SSTORE POP DUP2 PUSH20 0xFFFFFFFFFFFFFFFFFFFFFFFFFFFFFFFFFFFFFFFF AND DUP2 PUSH20 0xFFFFFFFFFFFFFFFFFFFFFFFFFFFFFFFFFFFFFFFF AND PUSH32 0x8BE0079C531659141344CD1FD0A4F28419497F9722A3DAAFE3B4186F6B6457E0 PUSH1 0x40 MLOAD PUSH1 0x40 MLOAD DUP1 SWAP2 SUB SWAP1 LOG3 POP POP JUMP JUMPDEST PUSH2 0x1903 DUP1 PUSH2 0x10D PUSH1 0x0 CODECOPY PUSH1 0x0 RETURN INVALID PUSH1 0x80 PUSH1 0x40 MSTORE PUSH1 0x4 CALLDATASIZE LT PUSH2 0x91 JUMPI PUSH1 0x0 CALLDATALOAD PUSH1 0xE0 SHR DUP1 PUSH4 0x761768B6 GT PUSH2 0x59 JUMPI DUP1 PUSH4 0x761768B6 EQ PUSH2 0x151 JUMPI DUP1 PUSH4 0x8DA5CB5B EQ PUSH2 0x17A JUMPI DUP1 PUSH4 0x9464C8B8 EQ PUSH2 0x1A5 JUMPI DUP1 PUSH4 0xD0E30DB0 EQ PUSH2 0x1CE JUMPI DUP1 PUSH4 0xF2FDE38B EQ PUSH2 0x1D8 JUMPI PUSH2 0x91 JUMP JUMPDEST DUP1 PUSH4 0x11571F30 EQ PUSH2 0x96 JUMPI DUP1 PUSH4 0x251D8CD5 EQ PUSH2 0xBF JUMPI DUP1 PUSH4 0x43928CFD EQ PUSH2 0xE8 JUMPI DUP1 PUSH4 0x70480275 EQ PUSH2 0x111 JUMPI DUP1 PUSH4 0x715018A6 EQ PUSH2 0x13A JUMPI JUMPDEST PUSH1 0x0 DUP1 REVERT JUMPDEST CALLVALUE DUP1 ISZERO PUSH2 0xA2 JUMPI PUSH1 0x0 DUP1 REVERT JUMPDEST POP PUSH2 0xBD PUSH1 0x4 DUP1 CALLDATASIZE SUB DUP2 ADD SWAP1 PUSH2 0xB8 SWAP2 SWAP1 PUSH2 0x1069 JUMP JUMPDEST PUSH2 0x201 JUMP JUMPDEST STOP JUMPDEST CALLVALUE DUP1 ISZERO PUSH2 0xCB JUMPI PUSH1 0x0 DUP1 REVERT JUMPDEST POP PUSH2 0xE6 PUSH1 0x4 DUP1 CALLDATASIZE SUB DUP2 ADD SWAP1 PUSH2 0xE1 SWAP2 SWAP1 PUSH2 0x103C JUMP JUMPDEST PUSH2 0x292 JUMP JUMPDEST STOP JUMPDEST CALLVALUE DUP1 ISZERO PUSH2 0xF4 JUMPI PUSH1 0x0 DUP1 REVERT JUMPDEST POP PUSH2 0x10F PUSH1 0x4 DUP1 CALLDATASIZE SUB DUP2 ADD SWAP1 PUSH2 0x10A SWAP2 SWAP1 PUSH2 0x100F JUMP JUMPDEST PUSH2 0x341 JUMP JUMPDEST STOP JUMPDEST CALLVALUE DUP1 ISZERO PUSH2 0x11D JUMPI PUSH1 0x0 DUP1 REVERT JUMPDEST POP PUSH2 0x138 PUSH1 0x4 DUP1 CALLDATASIZE SUB DUP2 ADD SWAP1 PUSH2 0x133 SWAP2 SWAP1 PUSH2 0x100F JUMP JUMPDEST PUSH2 0x4D7 JUMP JUMPDEST STOP JUMPDEST CALLVALUE DUP1 ISZERO PUSH2 0x146 JUMPI PUSH1 0x0 DUP1 REVERT JUMPDEST POP PUSH2 0x14F PUSH2 0x575 JUMP JUMPDEST STOP JUMPDEST CALLVALUE DUP1 ISZERO PUSH2 0x15D JUMPI PUSH1 0x0 DUP1 REVERT JUMPDEST POP PUSH2 0x178 PUSH1 0x4 DUP1 CALLDATASIZE SUB DUP2 ADD SWAP1 PUSH2 0x173 SWAP2 SWAP1 PUSH2 0x100F JUMP JUMPDEST PUSH2 0x589 JUMP JUMPDEST STOP JUMPDEST CALLVALUE DUP1 ISZERO PUSH2 0x186 JUMPI PUSH1 0x0 DUP1 REVERT JUMPDEST POP PUSH2 0x18F PUSH2 0x71F JUMP JUMPDEST PUSH1 0x40 MLOAD PUSH2 0x19C SWAP2 SWAP1 PUSH2 0x1280 JUMP JUMPDEST PUSH1 0x40 MLOAD DUP1 SWAP2 SUB SWAP1 RETURN JUMPDEST CALLVALUE DUP1 ISZERO PUSH2 0x1B1 JUMPI PUSH1 0x0 DUP1 REVERT JUMPDEST POP PUSH2 0x1CC PUSH1 0x4 DUP1 CALLDATASIZE SUB DUP2 ADD SWAP1 PUSH2 0x1C7 SWAP2 SWAP1 PUSH2 0x103C JUMP JUMPDEST PUSH2 0x748 JUMP JUMPDEST STOP JUMPDEST PUSH2 0x1D6 PUSH2 0x7FF JUMP JUMPDEST STOP JUMPDEST CALLVALUE DUP1 ISZERO PUSH2 0x1E4 JUMPI PUSH1 0x0 DUP1 REVERT JUMPDEST POP PUSH2 0x1FF PUSH1 0x4 DUP1 CALLDATASIZE SUB DUP2 ADD SWAP1 PUSH2 0x1FA SWAP2 SWAP1 PUSH2 0xFE2 JUMP JUMPDEST PUSH2 0x85D JUMP JUMPDEST STOP JUMPDEST PUSH2 0x209 PUSH2 0x8E1 JUMP JUMPDEST DUP2 PUSH1 0x7 PUSH1 0x2 PUSH2 0x100 EXP DUP2 SLOAD DUP2 PUSH1 0xFF MUL NOT AND SWAP1 DUP4 ISZERO ISZERO MUL OR SWAP1 SSTORE POP DUP1 PUSH1 0x7 PUSH1 0x3 PUSH2 0x100 EXP DUP2 SLOAD DUP2 PUSH1 0xFF MUL NOT AND SWAP1 DUP4 ISZERO ISZERO MUL OR SWAP1 SSTORE POP PUSH2 0x245 PUSH2 0x973 JUMP JUMPDEST DUP1 ISZERO ISZERO DUP3 ISZERO ISZERO CALLER PUSH20 0xFFFFFFFFFFFFFFFFFFFFFFFFFFFFFFFFFFFFFFFF AND PUSH32 0xCB2A9BD5CDD4B0340F50BDDF7B979225BAADB90AA82C9563D744B95FDE4B94F8 PUSH1 0x40 MLOAD PUSH1 0x40 MLOAD DUP1 SWAP2 SUB SWAP1 LOG4 POP POP JUMP JUMPDEST PUSH2 0x29A PUSH2 0xC41 JUMP JUMPDEST PUSH1 0x0 SELFBALANCE EQ ISZERO PUSH2 0x2DE JUMPI PUSH1 0x40 MLOAD PUSH32 0x8C379A000000000000000000000000000000000000000000000000000000000 DUP2 MSTORE PUSH1 0x4 ADD PUSH2 0x2D5 SWAP1 PUSH2 0x131B JUMP JUMPDEST PUSH1 0x40 MLOAD DUP1 SWAP2 SUB SWAP1 REVERT JUMPDEST DUP1 PUSH1 0x7 PUSH1 0x0 PUSH2 0x100 EXP DUP2 SLOAD DUP2 PUSH1 0xFF MUL NOT AND SWAP1 DUP4 ISZERO ISZERO MUL OR SWAP1 SSTORE POP DUP1 ISZERO ISZERO CALLER PUSH20 0xFFFFFFFFFFFFFFFFFFFFFFFFFFFFFFFFFFFFFFFF AND PUSH32 0x86B0F06518059E6FA59B029EA6C3A62862F6CE17F5BA015E229C7B66BDD43943 PUSH1 0x40 MLOAD PUSH1 0x40 MLOAD DUP1 SWAP2 SUB SWAP1 LOG3 POP JUMP JUMPDEST PUSH2 0x349 PUSH2 0xCD3 JUMP JUMPDEST PUSH1 0x1 PUSH1 0x6 SLOAD LT PUSH2 0x38E JUMPI PUSH1 0x40 MLOAD PUSH32 0x8C379A000000000000000000000000000000000000000000000000000000000 DUP2 MSTORE PUSH1 0x4 ADD PUSH2 0x385 SWAP1 PUSH2 0x13DB JUMP JUMPDEST PUSH1 0x40 MLOAD DUP1 SWAP2 SUB SWAP1 REVERT JUMPDEST PUSH1 0x2 PUSH1 0x0 SWAP1 SLOAD SWAP1 PUSH2 0x100 EXP SWAP1 DIV PUSH20 0xFFFFFFFFFFFFFFFFFFFFFFFFFFFFFFFFFFFFFFFF AND PUSH20 0xFFFFFFFFFFFFFFFFFFFFFFFFFFFFFFFFFFFFFFFF AND DUP2 PUSH20 0xFFFFFFFFFFFFFFFFFFFFFFFFFFFFFFFFFFFFFFFF AND EQ ISZERO PUSH2 0x41F JUMPI PUSH1 0x40 MLOAD PUSH32 0x8C379A000000000000000000000000000000000000000000000000000000000 DUP2 MSTORE PUSH1 0x4 ADD PUSH2 0x416 SWAP1 PUSH2 0x12DB JUMP JUMPDEST PUSH1 0x40 MLOAD DUP1 SWAP2 SUB SWAP1 REVERT JUMPDEST DUP1 PUSH1 0x2 PUSH1 0x0 PUSH2 0x100 EXP DUP2 SLOAD DUP2 PUSH20 0xFFFFFFFFFFFFFFFFFFFFFFFFFFFFFFFFFFFFFFFF MUL NOT AND SWAP1 DUP4 PUSH20 0xFFFFFFFFFFFFFFFFFFFFFFFFFFFFFFFFFFFFFFFF AND MUL OR SWAP1 SSTORE POP PUSH1 0x1 PUSH1 0x6 PUSH1 0x0 DUP3 DUP3 SLOAD PUSH2 0x473 SWAP2 SWAP1 PUSH2 0x1432 JUMP JUMPDEST SWAP3 POP POP DUP2 SWAP1 SSTORE POP DUP1 PUSH20 0xFFFFFFFFFFFFFFFFFFFFFFFFFFFFFFFFFFFFFFFF AND CALLER PUSH20 0xFFFFFFFFFFFFFFFFFFFFFFFFFFFFFFFFFFFFFFFF AND PUSH32 0xE27D4D26FCC4A6050BABCF645D911AB0100DC766CBC6986D7F217C5BF38D7D79 PUSH1 0x40 MLOAD PUSH1 0x40 MLOAD DUP1 SWAP2 SUB SWAP1 LOG3 POP JUMP JUMPDEST DUP1 PUSH1 0x3 PUSH1 0x0 PUSH2 0x100 EXP DUP2 SLOAD DUP2 PUSH20 0xFFFFFFFFFFFFFFFFFFFFFFFFFFFFFFFFFFFFFFFF MUL NOT AND SWAP1 DUP4 PUSH20 0xFFFFFFFFFFFFFFFFFFFFFFFFFFFFFFFFFFFFFFFF AND MUL OR SWAP1 SSTORE POP DUP1 PUSH20 0xFFFFFFFFFFFFFFFFFFFFFFFFFFFFFFFFFFFFFFFF AND CALLER PUSH20 0xFFFFFFFFFFFFFFFFFFFFFFFFFFFFFFFFFFFFFFFF AND PUSH32 0xBF3F493C772C8C283FD124432C2D0F539AB343FAA04258FE88E52912D36B102B PUSH1 0x40 MLOAD PUSH1 0x40 MLOAD DUP1 SWAP2 SUB SWAP1 LOG3 POP JUMP JUMPDEST PUSH2 0x57D PUSH2 0xCD3 JUMP JUMPDEST PUSH2 0x587 PUSH1 0x0 PUSH2 0xD51 JUMP JUMPDEST JUMP JUMPDEST PUSH2 0x591 PUSH2 0xCD3 JUMP JUMPDEST PUSH1 0x1 PUSH1 0x5 SLOAD LT PUSH2 0x5D6 JUMPI PUSH1 0x40 MLOAD PUSH32 0x8C379A000000000000000000000000000000000000000000000000000000000 DUP2 MSTORE PUSH1 0x4 ADD PUSH2 0x5CD SWAP1 PUSH2 0x137B JUMP JUMPDEST PUSH1 0x40 MLOAD DUP1 SWAP2 SUB SWAP1 REVERT JUMPDEST PUSH1 0x2 PUSH1 0x0 SWAP1 SLOAD SWAP1 PUSH2 0x100 EXP SWAP1 DIV PUSH20 0xFFFFFFFFFFFFFFFFFFFFFFFFFFFFFFFFFFFFFFFF AND PUSH20 0xFFFFFFFFFFFFFFFFFFFFFFFFFFFFFFFFFFFFFFFF AND DUP2 PUSH20 0xFFFFFFFFFFFFFFFFFFFFFFFFFFFFFFFFFFFFFFFF AND EQ ISZERO PUSH2 0x667 JUMPI PUSH1 0x40 MLOAD PUSH32 0x8C379A000000000000000000000000000000000000000000000000000000000 DUP2 MSTORE PUSH1 0x4 ADD PUSH2 0x65E SWAP1 PUSH2 0x12DB JUMP JUMPDEST PUSH1 0x40 MLOAD DUP1 SWAP2 SUB SWAP1 REVERT JUMPDEST DUP1 PUSH1 0x1 PUSH1 0x0 PUSH2 0x100 EXP DUP2 SLOAD DUP2 PUSH20 0xFFFFFFFFFFFFFFFFFFFFFFFFFFFFFFFFFFFFFFFF MUL NOT AND SWAP1 DUP4 PUSH20 0xFFFFFFFFFFFFFFFFFFFFFFFFFFFFFFFFFFFFFFFF AND MUL OR SWAP1 SSTORE POP PUSH1 0x1 PUSH1 0x5 PUSH1 0x0 DUP3 DUP3 SLOAD PUSH2 0x6BB SWAP2 SWAP1 PUSH2 0x1432 JUMP JUMPDEST SWAP3 POP POP DUP2 SWAP1 SSTORE POP DUP1 PUSH20 0xFFFFFFFFFFFFFFFFFFFFFFFFFFFFFFFFFFFFFFFF AND CALLER PUSH20 0xFFFFFFFFFFFFFFFFFFFFFFFFFFFFFFFFFFFFFFFF AND PUSH32 0x2BE2F3212D36E0A64CD66CE6CE42568A8285E64220A5E3A90A66D2B29F13D636 PUSH1 0x40 MLOAD PUSH1 0x40 MLOAD DUP1 SWAP2 SUB SWAP1 LOG3 POP JUMP JUMPDEST PUSH1 0x0 DUP1 PUSH1 0x0 SWAP1 SLOAD SWAP1 PUSH2 0x100 EXP SWAP1 DIV PUSH20 0xFFFFFFFFFFFFFFFFFFFFFFFFFFFFFFFFFFFFFFFF AND SWAP1 POP SWAP1 JUMP JUMPDEST PUSH2 0x750 PUSH2 0xE15 JUMP JUMPDEST PUSH1 0x0 SELFBALANCE EQ ISZERO PUSH2 0x794 JUMPI PUSH1 0x40 MLOAD PUSH32 0x8C379A000000000000000000000000000000000000000000000000000000000 DUP2 MSTORE PUSH1 0x4 ADD PUSH2 0x78B SWAP1 PUSH2 0x131B JUMP JUMPDEST PUSH1 0x40 MLOAD DUP1 SWAP2 SUB SWAP1 REVERT JUMPDEST DUP1 PUSH1 0x7 PUSH1 0x1 PUSH2 0x100 EXP DUP2 SLOAD DUP2 PUSH1 0xFF MUL NOT AND SWAP1 DUP4 ISZERO ISZERO MUL OR SWAP1 SSTORE POP PUSH2 0x7B6 PUSH2 0x973 JUMP JUMPDEST DUP1 ISZERO ISZERO CALLER PUSH20 0xFFFFFFFFFFFFFFFFFFFFFFFFFFFFFFFFFFFFFFFF AND PUSH32 0xD4370D74364AD854A41B3B33A65801A8EE79E544A255DB783BBB748DDCF08071 PUSH1 0x40 MLOAD PUSH1 0x40 MLOAD DUP1 SWAP2 SUB SWAP1 LOG3 POP JUMP JUMPDEST PUSH2 0x807 PUSH2 0xE15 JUMP JUMPDEST PUSH1 0x0 CALLVALUE SWAP1 POP CALLER PUSH20 0xFFFFFFFFFFFFFFFFFFFFFFFFFFFFFFFFFFFFFFFF AND PUSH32 0x2DA466A7B24304F47E87FA2E1E5A81B9831CE54FEC19055CE277CA2F39BA42C4 DUP3 PUSH1 0x40 MLOAD PUSH2 0x852 SWAP2 SWAP1 PUSH2 0x13FB JUMP JUMPDEST PUSH1 0x40 MLOAD DUP1 SWAP2 SUB SWAP1 LOG2 POP JUMP JUMPDEST PUSH2 0x865 PUSH2 0xCD3 JUMP JUMPDEST PUSH1 0x0 PUSH20 0xFFFFFFFFFFFFFFFFFFFFFFFFFFFFFFFFFFFFFFFF AND DUP2 PUSH20 0xFFFFFFFFFFFFFFFFFFFFFFFFFFFFFFFFFFFFFFFF AND EQ ISZERO PUSH2 0x8D5 JUMPI PUSH1 0x40 MLOAD PUSH32 0x8C379A000000000000000000000000000000000000000000000000000000000 DUP2 MSTORE PUSH1 0x4 ADD PUSH2 0x8CC SWAP1 PUSH2 0x129B JUMP JUMPDEST PUSH1 0x40 MLOAD DUP1 SWAP2 SUB SWAP1 REVERT JUMPDEST PUSH2 0x8DE DUP2 PUSH2 0xD51 JUMP JUMPDEST POP JUMP JUMPDEST PUSH1 0x3 PUSH1 0x0 SWAP1 SLOAD SWAP1 PUSH2 0x100 EXP SWAP1 DIV PUSH20 0xFFFFFFFFFFFFFFFFFFFFFFFFFFFFFFFFFFFFFFFF AND PUSH20 0xFFFFFFFFFFFFFFFFFFFFFFFFFFFFFFFFFFFFFFFF AND CALLER PUSH20 0xFFFFFFFFFFFFFFFFFFFFFFFFFFFFFFFFFFFFFFFF AND EQ PUSH2 0x971 JUMPI PUSH1 0x40 MLOAD PUSH32 0x8C379A000000000000000000000000000000000000000000000000000000000 DUP2 MSTORE PUSH1 0x4 ADD PUSH2 0x968 SWAP1 PUSH2 0x139B JUMP JUMPDEST PUSH1 0x40 MLOAD DUP1 SWAP2 SUB SWAP1 REVERT JUMPDEST JUMP JUMPDEST PUSH1 0x0 SELFBALANCE SWAP1 POP PUSH1 0x0 PUSH1 0x64 PUSH1 0x2 DUP4 PUSH2 0x989 SWAP2 SWAP1 PUSH2 0x14B9 JUMP JUMPDEST PUSH2 0x993 SWAP2 SWAP1 PUSH2 0x1488 JUMP JUMPDEST SWAP1 POP DUP1 DUP3 PUSH2 0x9A1 SWAP2 SWAP1 PUSH2 0x1513 JUMP JUMPDEST SWAP2 POP PUSH1 0x1 ISZERO ISZERO PUSH1 0x7 PUSH1 0x0 SWAP1 SLOAD SWAP1 PUSH2 0x100 EXP SWAP1 DIV PUSH1 0xFF AND ISZERO ISZERO EQ DUP1 ISZERO PUSH2 0x9D9 JUMPI POP PUSH1 0x1 ISZERO ISZERO PUSH1 0x7 PUSH1 0x1 SWAP1 SLOAD SWAP1 PUSH2 0x100 EXP SWAP1 DIV PUSH1 0xFF AND ISZERO ISZERO EQ JUMPDEST DUP1 PUSH2 0xA16 JUMPI POP PUSH1 0x1 ISZERO ISZERO PUSH1 0x7 PUSH1 0x2 SWAP1 SLOAD SWAP1 PUSH2 0x100 EXP SWAP1 DIV PUSH1 0xFF AND ISZERO ISZERO EQ DUP1 ISZERO PUSH2 0xA15 JUMPI POP PUSH1 0x1 ISZERO ISZERO PUSH1 0x7 PUSH1 0x3 SWAP1 SLOAD SWAP1 PUSH2 0x100 EXP SWAP1 DIV PUSH1 0xFF AND ISZERO ISZERO EQ JUMPDEST JUMPDEST ISZERO PUSH2 0xB10 JUMPI PUSH2 0xA66 DUP3 PUSH1 0x1 PUSH1 0x0 SWAP1 SLOAD SWAP1 PUSH2 0x100 EXP SWAP1 DIV PUSH20 0xFFFFFFFFFFFFFFFFFFFFFFFFFFFFFFFFFFFFFFFF AND PUSH20 0xFFFFFFFFFFFFFFFFFFFFFFFFFFFFFFFFFFFFFFFF AND PUSH2 0xEA7 SWAP1 SWAP2 SWAP1 PUSH4 0xFFFFFFFF AND JUMP JUMPDEST PUSH2 0xAB1 DUP2 PUSH1 0x3 PUSH1 0x0 SWAP1 SLOAD SWAP1 PUSH2 0x100 EXP SWAP1 DIV PUSH20 0xFFFFFFFFFFFFFFFFFFFFFFFFFFFFFFFFFFFFFFFF AND PUSH20 0xFFFFFFFFFFFFFFFFFFFFFFFFFFFFFFFFFFFFFFFF AND PUSH2 0xEA7 SWAP1 SWAP2 SWAP1 PUSH4 0xFFFFFFFF AND JUMP JUMPDEST DUP2 PUSH32 0x7CFBA278765AA1B181FFD1C4F0C8D7F8B8918B5F65CEC05E7F3F1D3257146EBF PUSH1 0x40 MLOAD PUSH1 0x40 MLOAD DUP1 SWAP2 SUB SWAP1 LOG2 DUP1 PUSH32 0x1146BF3C5B3A7EE2F6886943B992E2884E0C0CF9BC52ACD299FA2E4D3442C734 PUSH1 0x40 MLOAD PUSH1 0x40 MLOAD DUP1 SWAP2 SUB SWAP1 LOG2 PUSH2 0xC3D JUMP JUMPDEST PUSH1 0x1 ISZERO ISZERO PUSH1 0x7 PUSH1 0x2 SWAP1 SLOAD SWAP1 PUSH2 0x100 EXP SWAP1 DIV PUSH1 0xFF AND ISZERO ISZERO EQ DUP1 ISZERO PUSH2 0xB46 JUMPI POP PUSH1 0x0 ISZERO ISZERO PUSH1 0x7 PUSH1 0x3 SWAP1 SLOAD SWAP1 PUSH2 0x100 EXP SWAP1 DIV PUSH1 0xFF AND ISZERO ISZERO EQ JUMPDEST ISZERO PUSH2 0xC3C JUMPI PUSH2 0xB96 DUP3 PUSH1 0x2 PUSH1 0x0 SWAP1 SLOAD SWAP1 PUSH2 0x100 EXP SWAP1 DIV PUSH20 0xFFFFFFFFFFFFFFFFFFFFFFFFFFFFFFFFFFFFFFFF AND PUSH20 0xFFFFFFFFFFFFFFFFFFFFFFFFFFFFFFFFFFFFFFFF AND PUSH2 0xEA7 SWAP1 SWAP2 SWAP1 PUSH4 0xFFFFFFFF AND JUMP JUMPDEST PUSH2 0xBE1 DUP2 PUSH1 0x3 PUSH1 0x0 SWAP1 SLOAD SWAP1 PUSH2 0x100 EXP SWAP1 DIV PUSH20 0xFFFFFFFFFFFFFFFFFFFFFFFFFFFFFFFFFFFFFFFF AND PUSH20 0xFFFFFFFFFFFFFFFFFFFFFFFFFFFFFFFFFFFFFFFF AND PUSH2 0xEA7 SWAP1 SWAP2 SWAP1 PUSH4 0xFFFFFFFF AND JUMP JUMPDEST DUP2 PUSH32 0x821720CF74F712BAFD9428B0071C7F73F7BC776321F3DDCA4C9F47A6956B8125 PUSH1 0x40 MLOAD PUSH1 0x40 MLOAD DUP1 SWAP2 SUB SWAP1 LOG2 DUP1 PUSH32 0x1146BF3C5B3A7EE2F6886943B992E2884E0C0CF9BC52ACD299FA2E4D3442C734 PUSH1 0x40 MLOAD PUSH1 0x40 MLOAD DUP1 SWAP2 SUB SWAP1 LOG2 JUMPDEST JUMPDEST POP POP JUMP JUMPDEST PUSH1 0x1 PUSH1 0x0 SWAP1 SLOAD SWAP1 PUSH2 0x100 EXP SWAP1 DIV PUSH20 0xFFFFFFFFFFFFFFFFFFFFFFFFFFFFFFFFFFFFFFFF AND PUSH20 0xFFFFFFFFFFFFFFFFFFFFFFFFFFFFFFFFFFFFFFFF AND CALLER PUSH20 0xFFFFFFFFFFFFFFFFFFFFFFFFFFFFFFFFFFFFFFFF AND EQ PUSH2 0xCD1 JUMPI PUSH1 0x40 MLOAD PUSH32 0x8C379A000000000000000000000000000000000000000000000000000000000 DUP2 MSTORE PUSH1 0x4 ADD PUSH2 0xCC8 SWAP1 PUSH2 0x133B JUMP JUMPDEST PUSH1 0x40 MLOAD DUP1 SWAP2 SUB SWAP1 REVERT JUMPDEST JUMP JUMPDEST PUSH2 0xCDB PUSH2 0xF9B JUMP JUMPDEST PUSH20 0xFFFFFFFFFFFFFFFFFFFFFFFFFFFFFFFFFFFFFFFF AND PUSH2 0xCF9 PUSH2 0x71F JUMP JUMPDEST PUSH20 0xFFFFFFFFFFFFFFFFFFFFFFFFFFFFFFFFFFFFFFFF AND EQ PUSH2 0xD4F JUMPI PUSH1 0x40 MLOAD PUSH32 0x8C379A000000000000000000000000000000000000000000000000000000000 DUP2 MSTORE PUSH1 0x4 ADD PUSH2 0xD46 SWAP1 PUSH2 0x135B JUMP JUMPDEST PUSH1 0x40 MLOAD DUP1 SWAP2 SUB SWAP1 REVERT JUMPDEST JUMP JUMPDEST PUSH1 0x0 DUP1 PUSH1 0x0 SWAP1 SLOAD SWAP1 PUSH2 0x100 EXP SWAP1 DIV PUSH20 0xFFFFFFFFFFFFFFFFFFFFFFFFFFFFFFFFFFFFFFFF AND SWAP1 POP DUP2 PUSH1 0x0 DUP1 PUSH2 0x100 EXP DUP2 SLOAD DUP2 PUSH20 0xFFFFFFFFFFFFFFFFFFFFFFFFFFFFFFFFFFFFFFFF MUL NOT AND SWAP1 DUP4 PUSH20 0xFFFFFFFFFFFFFFFFFFFFFFFFFFFFFFFFFFFFFFFF AND MUL OR SWAP1 SSTORE POP DUP2 PUSH20 0xFFFFFFFFFFFFFFFFFFFFFFFFFFFFFFFFFFFFFFFF AND DUP2 PUSH20 0xFFFFFFFFFFFFFFFFFFFFFFFFFFFFFFFFFFFFFFFF AND PUSH32 0x8BE0079C531659141344CD1FD0A4F28419497F9722A3DAAFE3B4186F6B6457E0 PUSH1 0x40 MLOAD PUSH1 0x40 MLOAD DUP1 SWAP2 SUB SWAP1 LOG3 POP POP JUMP JUMPDEST PUSH1 0x2 PUSH1 0x0 SWAP1 SLOAD SWAP1 PUSH2 0x100 EXP SWAP1 DIV PUSH20 0xFFFFFFFFFFFFFFFFFFFFFFFFFFFFFFFFFFFFFFFF AND PUSH20 0xFFFFFFFFFFFFFFFFFFFFFFFFFFFFFFFFFFFFFFFF AND CALLER PUSH20 0xFFFFFFFFFFFFFFFFFFFFFFFFFFFFFFFFFFFFFFFF AND EQ PUSH2 0xEA5 JUMPI PUSH1 0x40 MLOAD PUSH32 0x8C379A000000000000000000000000000000000000000000000000000000000 DUP2 MSTORE PUSH1 0x4 ADD PUSH2 0xE9C SWAP1 PUSH2 0x13BB JUMP JUMPDEST PUSH1 0x40 MLOAD DUP1 SWAP2 SUB SWAP1 REVERT JUMPDEST JUMP JUMPDEST DUP1 SELFBALANCE LT ISZERO PUSH2 0xEEA JUMPI PUSH1 0x40 MLOAD PUSH32 0x8C379A000000000000000000000000000000000000000000000000000000000 DUP2 MSTORE PUSH1 0x4 ADD PUSH2 0xEE1 SWAP1 PUSH2 0x12FB JUMP JUMPDEST PUSH1 0x40 MLOAD DUP1 SWAP2 SUB SWAP1 REVERT JUMPDEST PUSH1 0x0 DUP3 PUSH20 0xFFFFFFFFFFFFFFFFFFFFFFFFFFFFFFFFFFFFFFFF AND DUP3 PUSH1 0x40 MLOAD PUSH2 0xF10 SWAP1 PUSH2 0x126B JUMP JUMPDEST PUSH1 0x0 PUSH1 0x40 MLOAD DUP1 DUP4 SUB DUP2 DUP6 DUP8 GAS CALL SWAP3 POP POP POP RETURNDATASIZE DUP1 PUSH1 0x0 DUP2 EQ PUSH2 0xF4D JUMPI PUSH1 0x40 MLOAD SWAP2 POP PUSH1 0x1F NOT PUSH1 0x3F RETURNDATASIZE ADD AND DUP3 ADD PUSH1 0x40 MSTORE RETURNDATASIZE DUP3 MSTORE RETURNDATASIZE PUSH1 0x0 PUSH1 0x20 DUP5 ADD RETURNDATACOPY PUSH2 0xF52 JUMP JUMPDEST PUSH1 0x60 SWAP2 POP JUMPDEST POP POP SWAP1 POP DUP1 PUSH2 0xF96 JUMPI PUSH1 0x40 MLOAD PUSH32 0x8C379A000000000000000000000000000000000000000000000000000000000 DUP2 MSTORE PUSH1 0x4 ADD PUSH2 0xF8D SWAP1 PUSH2 0x12BB JUMP JUMPDEST PUSH1 0x40 MLOAD DUP1 SWAP2 SUB SWAP1 REVERT JUMPDEST POP POP POP JUMP JUMPDEST PUSH1 0x0 CALLER SWAP1 POP SWAP1 JUMP JUMPDEST PUSH1 0x0 DUP2 CALLDATALOAD SWAP1 POP PUSH2 0xFB2 DUP2 PUSH2 0x1888 JUMP JUMPDEST SWAP3 SWAP2 POP POP JUMP JUMPDEST PUSH1 0x0 DUP2 CALLDATALOAD SWAP1 POP PUSH2 0xFC7 DUP2 PUSH2 0x189F JUMP JUMPDEST SWAP3 SWAP2 POP POP JUMP JUMPDEST PUSH1 0x0 DUP2 CALLDATALOAD SWAP1 POP PUSH2 0xFDC DUP2 PUSH2 0x18B6 JUMP JUMPDEST SWAP3 SWAP2 POP POP JUMP JUMPDEST PUSH1 0x0 PUSH1 0x20 DUP3 DUP5 SUB SLT ISZERO PUSH2 0xFF8 JUMPI PUSH2 0xFF7 PUSH2 0x15FF JUMP JUMPDEST JUMPDEST PUSH1 0x0 PUSH2 0x1006 DUP5 DUP3 DUP6 ADD PUSH2 0xFA3 JUMP JUMPDEST SWAP2 POP POP SWAP3 SWAP2 POP POP JUMP JUMPDEST PUSH1 0x0 PUSH1 0x20 DUP3 DUP5 SUB SLT ISZERO PUSH2 0x1025 JUMPI PUSH2 0x1024 PUSH2 0x15FF JUMP JUMPDEST JUMPDEST PUSH1 0x0 PUSH2 0x1033 DUP5 DUP3 DUP6 ADD PUSH2 0xFB8 JUMP JUMPDEST SWAP2 POP POP SWAP3 SWAP2 POP POP JUMP JUMPDEST PUSH1 0x0 PUSH1 0x20 DUP3 DUP5 SUB SLT ISZERO PUSH2 0x1052 JUMPI PUSH2 0x1051 PUSH2 0x15FF JUMP JUMPDEST JUMPDEST PUSH1 0x0 PUSH2 0x1060 DUP5 DUP3 DUP6 ADD PUSH2 0xFCD JUMP JUMPDEST SWAP2 POP POP SWAP3 SWAP2 POP POP JUMP JUMPDEST PUSH1 0x0 DUP1 PUSH1 0x40 DUP4 DUP6 SUB SLT ISZERO PUSH2 0x1080 JUMPI PUSH2 0x107F PUSH2 0x15FF JUMP JUMPDEST JUMPDEST PUSH1 0x0 PUSH2 0x108E DUP6 DUP3 DUP7 ADD PUSH2 0xFCD JUMP JUMPDEST SWAP3 POP POP PUSH1 0x20 PUSH2 0x109F DUP6 DUP3 DUP7 ADD PUSH2 0xFCD JUMP JUMPDEST SWAP2 POP POP SWAP3 POP SWAP3 SWAP1 POP JUMP JUMPDEST PUSH2 0x10B2 DUP2 PUSH2 0x1547 JUMP JUMPDEST DUP3 MSTORE POP POP JUMP JUMPDEST PUSH1 0x0 PUSH2 0x10C5 PUSH1 0x26 DUP4 PUSH2 0x1421 JUMP JUMPDEST SWAP2 POP PUSH2 0x10D0 DUP3 PUSH2 0x1604 JUMP JUMPDEST PUSH1 0x40 DUP3 ADD SWAP1 POP SWAP2 SWAP1 POP JUMP JUMPDEST PUSH1 0x0 PUSH2 0x10E8 PUSH1 0x3A DUP4 PUSH2 0x1421 JUMP JUMPDEST SWAP2 POP PUSH2 0x10F3 DUP3 PUSH2 0x1653 JUMP JUMPDEST PUSH1 0x40 DUP3 ADD SWAP1 POP SWAP2 SWAP1 POP JUMP JUMPDEST PUSH1 0x0 PUSH2 0x110B PUSH1 0x37 DUP4 PUSH2 0x1421 JUMP JUMPDEST SWAP2 POP PUSH2 0x1116 DUP3 PUSH2 0x16A2 JUMP JUMPDEST PUSH1 0x40 DUP3 ADD SWAP1 POP SWAP2 SWAP1 POP JUMP JUMPDEST PUSH1 0x0 PUSH2 0x112E PUSH1 0x1D DUP4 PUSH2 0x1421 JUMP JUMPDEST SWAP2 POP PUSH2 0x1139 DUP3 PUSH2 0x16F1 JUMP JUMPDEST PUSH1 0x20 DUP3 ADD SWAP1 POP SWAP2 SWAP1 POP JUMP JUMPDEST PUSH1 0x0 PUSH2 0x1151 PUSH1 0x19 DUP4 PUSH2 0x1421 JUMP JUMPDEST SWAP2 POP PUSH2 0x115C DUP3 PUSH2 0x171A JUMP JUMPDEST PUSH1 0x20 DUP3 ADD SWAP1 POP SWAP2 SWAP1 POP JUMP JUMPDEST PUSH1 0x0 PUSH2 0x1174 PUSH1 0x1C DUP4 PUSH2 0x1421 JUMP JUMPDEST SWAP2 POP PUSH2 0x117F DUP3 PUSH2 0x1743 JUMP JUMPDEST PUSH1 0x20 DUP3 ADD SWAP1 POP SWAP2 SWAP1 POP JUMP JUMPDEST PUSH1 0x0 PUSH2 0x1197 PUSH1 0x20 DUP4 PUSH2 0x1421 JUMP JUMPDEST SWAP2 POP PUSH2 0x11A2 DUP3 PUSH2 0x176C JUMP JUMPDEST PUSH1 0x20 DUP3 ADD SWAP1 POP SWAP2 SWAP1 POP JUMP JUMPDEST PUSH1 0x0 PUSH2 0x11BA PUSH1 0x0 DUP4 PUSH2 0x1416 JUMP JUMPDEST SWAP2 POP PUSH2 0x11C5 DUP3 PUSH2 0x1795 JUMP JUMPDEST PUSH1 0x0 DUP3 ADD SWAP1 POP SWAP2 SWAP1 POP JUMP JUMPDEST PUSH1 0x0 PUSH2 0x11DD PUSH1 0x2F DUP4 PUSH2 0x1421 JUMP JUMPDEST SWAP2 POP PUSH2 0x11E8 DUP3 PUSH2 0x1798 JUMP JUMPDEST PUSH1 0x40 DUP3 ADD SWAP1 POP SWAP2 SWAP1 POP JUMP JUMPDEST PUSH1 0x0 PUSH2 0x1200 PUSH1 0x17 DUP4 PUSH2 0x1421 JUMP JUMPDEST SWAP2 POP PUSH2 0x120B DUP3 PUSH2 0x17E7 JUMP JUMPDEST PUSH1 0x20 DUP3 ADD SWAP1 POP SWAP2 SWAP1 POP JUMP JUMPDEST PUSH1 0x0 PUSH2 0x1223 PUSH1 0x18 DUP4 PUSH2 0x1421 JUMP JUMPDEST SWAP2 POP PUSH2 0x122E DUP3 PUSH2 0x1810 JUMP JUMPDEST PUSH1 0x20 DUP3 ADD SWAP1 POP SWAP2 SWAP1 POP JUMP JUMPDEST PUSH1 0x0 PUSH2 0x1246 PUSH1 0x2B DUP4 PUSH2 0x1421 JUMP JUMPDEST SWAP2 POP PUSH2 0x1251 DUP3 PUSH2 0x1839 JUMP JUMPDEST PUSH1 0x40 DUP3 ADD SWAP1 POP SWAP2 SWAP1 POP JUMP JUMPDEST PUSH2 0x1265 DUP2 PUSH2 0x1597 JUMP JUMPDEST DUP3 MSTORE POP POP JUMP JUMPDEST PUSH1 0x0 PUSH2 0x1276 DUP3 PUSH2 0x11AD JUMP JUMPDEST SWAP2 POP DUP2 SWAP1 POP SWAP2 SWAP1 POP JUMP JUMPDEST PUSH1 0x0 PUSH1 0x20 DUP3 ADD SWAP1 POP PUSH2 0x1295 PUSH1 0x0 DUP4 ADD DUP5 PUSH2 0x10A9 JUMP JUMPDEST SWAP3 SWAP2 POP POP JUMP JUMPDEST PUSH1 0x0 PUSH1 0x20 DUP3 ADD SWAP1 POP DUP2 DUP2 SUB PUSH1 0x0 DUP4 ADD MSTORE PUSH2 0x12B4 DUP2 PUSH2 0x10B8 JUMP JUMPDEST SWAP1 POP SWAP2 SWAP1 POP JUMP JUMPDEST PUSH1 0x0 PUSH1 0x20 DUP3 ADD SWAP1 POP DUP2 DUP2 SUB PUSH1 0x0 DUP4 ADD MSTORE PUSH2 0x12D4 DUP2 PUSH2 0x10DB JUMP JUMPDEST SWAP1 POP SWAP2 SWAP1 POP JUMP JUMPDEST PUSH1 0x0 PUSH1 0x20 DUP3 ADD SWAP1 POP DUP2 DUP2 SUB PUSH1 0x0 DUP4 ADD MSTORE PUSH2 0x12F4 DUP2 PUSH2 0x10FE JUMP JUMPDEST SWAP1 POP SWAP2 SWAP1 POP JUMP JUMPDEST PUSH1 0x0 PUSH1 0x20 DUP3 ADD SWAP1 POP DUP2 DUP2 SUB PUSH1 0x0 DUP4 ADD MSTORE PUSH2 0x1314 DUP2 PUSH2 0x1121 JUMP JUMPDEST SWAP1 POP SWAP2 SWAP1 POP JUMP JUMPDEST PUSH1 0x0 PUSH1 0x20 DUP3 ADD SWAP1 POP DUP2 DUP2 SUB PUSH1 0x0 DUP4 ADD MSTORE PUSH2 0x1334 DUP2 PUSH2 0x1144 JUMP JUMPDEST SWAP1 POP SWAP2 SWAP1 POP JUMP JUMPDEST PUSH1 0x0 PUSH1 0x20 DUP3 ADD SWAP1 POP DUP2 DUP2 SUB PUSH1 0x0 DUP4 ADD MSTORE PUSH2 0x1354 DUP2 PUSH2 0x1167 JUMP JUMPDEST SWAP1 POP SWAP2 SWAP1 POP JUMP JUMPDEST PUSH1 0x0 PUSH1 0x20 DUP3 ADD SWAP1 POP DUP2 DUP2 SUB PUSH1 0x0 DUP4 ADD MSTORE PUSH2 0x1374 DUP2 PUSH2 0x118A JUMP JUMPDEST SWAP1 POP SWAP2 SWAP1 POP JUMP JUMPDEST PUSH1 0x0 PUSH1 0x20 DUP3 ADD SWAP1 POP DUP2 DUP2 SUB PUSH1 0x0 DUP4 ADD MSTORE PUSH2 0x1394 DUP2 PUSH2 0x11D0 JUMP JUMPDEST SWAP1 POP SWAP2 SWAP1 POP JUMP JUMPDEST PUSH1 0x0 PUSH1 0x20 DUP3 ADD SWAP1 POP DUP2 DUP2 SUB PUSH1 0x0 DUP4 ADD MSTORE PUSH2 0x13B4 DUP2 PUSH2 0x11F3 JUMP JUMPDEST SWAP1 POP SWAP2 SWAP1 POP JUMP JUMPDEST PUSH1 0x0 PUSH1 0x20 DUP3 ADD SWAP1 POP DUP2 DUP2 SUB PUSH1 0x0 DUP4 ADD MSTORE PUSH2 0x13D4 DUP2 PUSH2 0x1216 JUMP JUMPDEST SWAP1 POP SWAP2 SWAP1 POP JUMP JUMPDEST PUSH1 0x0 PUSH1 0x20 DUP3 ADD SWAP1 POP DUP2 DUP2 SUB PUSH1 0x0 DUP4 ADD MSTORE PUSH2 0x13F4 DUP2 PUSH2 0x1239 JUMP JUMPDEST SWAP1 POP SWAP2 SWAP1 POP JUMP JUMPDEST PUSH1 0x0 PUSH1 0x20 DUP3 ADD SWAP1 POP PUSH2 0x1410 PUSH1 0x0 DUP4 ADD DUP5 PUSH2 0x125C JUMP JUMPDEST SWAP3 SWAP2 POP POP JUMP JUMPDEST PUSH1 0x0 DUP2 SWAP1 POP SWAP3 SWAP2 POP POP JUMP JUMPDEST PUSH1 0x0 DUP3 DUP3 MSTORE PUSH1 0x20 DUP3 ADD SWAP1 POP SWAP3 SWAP2 POP POP JUMP JUMPDEST PUSH1 0x0 PUSH2 0x143D DUP3 PUSH2 0x1597 JUMP JUMPDEST SWAP2 POP PUSH2 0x1448 DUP4 PUSH2 0x1597 JUMP JUMPDEST SWAP3 POP DUP3 PUSH32 0xFFFFFFFFFFFFFFFFFFFFFFFFFFFFFFFFFFFFFFFFFFFFFFFFFFFFFFFFFFFFFFFF SUB DUP3 GT ISZERO PUSH2 0x147D JUMPI PUSH2 0x147C PUSH2 0x15A1 JUMP JUMPDEST JUMPDEST DUP3 DUP3 ADD SWAP1 POP SWAP3 SWAP2 POP POP JUMP JUMPDEST PUSH1 0x0 PUSH2 0x1493 DUP3 PUSH2 0x1597 JUMP JUMPDEST SWAP2 POP PUSH2 0x149E DUP4 PUSH2 0x1597 JUMP JUMPDEST SWAP3 POP DUP3 PUSH2 0x14AE JUMPI PUSH2 0x14AD PUSH2 0x15D0 JUMP JUMPDEST JUMPDEST DUP3 DUP3 DIV SWAP1 POP SWAP3 SWAP2 POP POP JUMP JUMPDEST PUSH1 0x0 PUSH2 0x14C4 DUP3 PUSH2 0x1597 JUMP JUMPDEST SWAP2 POP PUSH2 0x14CF DUP4 PUSH2 0x1597 JUMP JUMPDEST SWAP3 POP DUP2 PUSH32 0xFFFFFFFFFFFFFFFFFFFFFFFFFFFFFFFFFFFFFFFFFFFFFFFFFFFFFFFFFFFFFFFF DIV DUP4 GT DUP3 ISZERO ISZERO AND ISZERO PUSH2 0x1508 JUMPI PUSH2 0x1507 PUSH2 0x15A1 JUMP JUMPDEST JUMPDEST DUP3 DUP3 MUL SWAP1 POP SWAP3 SWAP2 POP POP JUMP JUMPDEST PUSH1 0x0 PUSH2 0x151E DUP3 PUSH2 0x1597 JUMP JUMPDEST SWAP2 POP PUSH2 0x1529 DUP4 PUSH2 0x1597 JUMP JUMPDEST SWAP3 POP DUP3 DUP3 LT ISZERO PUSH2 0x153C JUMPI PUSH2 0x153B PUSH2 0x15A1 JUMP JUMPDEST JUMPDEST DUP3 DUP3 SUB SWAP1 POP SWAP3 SWAP2 POP POP JUMP JUMPDEST PUSH1 0x0 PUSH2 0x1552 DUP3 PUSH2 0x1577 JUMP JUMPDEST SWAP1 POP SWAP2 SWAP1 POP JUMP JUMPDEST PUSH1 0x0 PUSH2 0x1564 DUP3 PUSH2 0x1577 JUMP JUMPDEST SWAP1 POP SWAP2 SWAP1 POP JUMP JUMPDEST PUSH1 0x0 DUP2 ISZERO ISZERO SWAP1 POP SWAP2 SWAP1 POP JUMP JUMPDEST PUSH1 0x0 PUSH20 0xFFFFFFFFFFFFFFFFFFFFFFFFFFFFFFFFFFFFFFFF DUP3 AND SWAP1 POP SWAP2 SWAP1 POP JUMP JUMPDEST PUSH1 0x0 DUP2 SWAP1 POP SWAP2 SWAP1 POP JUMP JUMPDEST PUSH32 0x4E487B7100000000000000000000000000000000000000000000000000000000 PUSH1 0x0 MSTORE PUSH1 0x11 PUSH1 0x4 MSTORE PUSH1 0x24 PUSH1 0x0 REVERT JUMPDEST PUSH32 0x4E487B7100000000000000000000000000000000000000000000000000000000 PUSH1 0x0 MSTORE PUSH1 0x12 PUSH1 0x4 MSTORE PUSH1 0x24 PUSH1 0x0 REVERT JUMPDEST PUSH1 0x0 DUP1 REVERT JUMPDEST PUSH32 0x4F776E61626C653A206E6577206F776E657220697320746865207A65726F2061 PUSH1 0x0 DUP3 ADD MSTORE PUSH32 0x6464726573730000000000000000000000000000000000000000000000000000 PUSH1 0x20 DUP3 ADD MSTORE POP JUMP JUMPDEST PUSH32 0x416464726573733A20756E61626C6520746F2073656E642076616C75652C2072 PUSH1 0x0 DUP3 ADD MSTORE PUSH32 0x6563697069656E74206D61792068617665207265766572746564000000000000 PUSH1 0x20 DUP3 ADD MSTORE POP JUMP JUMPDEST PUSH32 0x436F6E74726163746F7220416464726573732063616E6E6F7420626520746865 PUSH1 0x0 DUP3 ADD MSTORE PUSH32 0x2073616D6520617320434C69656E742041646472657373000000000000000000 PUSH1 0x20 DUP3 ADD MSTORE POP JUMP JUMPDEST PUSH32 0x416464726573733A20696E73756666696369656E742062616C616E6365000000 PUSH1 0x0 DUP3 ADD MSTORE POP JUMP JUMPDEST PUSH32 0x4164642066756E647320746F2074686520636F6E747261637400000000000000 PUSH1 0x0 DUP3 ADD MSTORE POP JUMP JUMPDEST PUSH32 0x63616C6C6572206973206E6F742074686520636F6E74726163746F7200000000 PUSH1 0x0 DUP3 ADD MSTORE POP JUMP JUMPDEST PUSH32 0x4F776E61626C653A2063616C6C6572206973206E6F7420746865206F776E6572 PUSH1 0x0 DUP3 ADD MSTORE POP JUMP JUMPDEST POP JUMP JUMPDEST PUSH32 0x436F6E74726163746F7220416464726573732063616E6E6F7420626520636861 PUSH1 0x0 DUP3 ADD MSTORE PUSH32 0x6E676564206F6E63652061646465640000000000000000000000000000000000 PUSH1 0x20 DUP3 ADD MSTORE POP JUMP JUMPDEST PUSH32 0x63616C6C6572206973206E6F74207468652061646D696E000000000000000000 PUSH1 0x0 DUP3 ADD MSTORE POP JUMP JUMPDEST PUSH32 0x63616C6C6572206973206E6F742074686520636C69656E740000000000000000 PUSH1 0x0 DUP3 ADD MSTORE POP JUMP JUMPDEST PUSH32 0x436C69656E7420416464726573732063616E6E6F74206265206368616E676564 PUSH1 0x0 DUP3 ADD MSTORE PUSH32 0x206F6E6365206164646564000000000000000000000000000000000000000000 PUSH1 0x20 DUP3 ADD MSTORE POP JUMP JUMPDEST PUSH2 0x1891 DUP2 PUSH2 0x1547 JUMP JUMPDEST DUP2 EQ PUSH2 0x189C JUMPI PUSH1 0x0 DUP1 REVERT JUMPDEST POP JUMP JUMPDEST PUSH2 0x18A8 DUP2 PUSH2 0x1559 JUMP JUMPDEST DUP2 EQ PUSH2 0x18B3 JUMPI PUSH1 0x0 DUP1 REVERT JUMPDEST POP JUMP JUMPDEST PUSH2 0x18BF DUP2 PUSH2 0x156B JUMP JUMPDEST DUP2 EQ PUSH2 0x18CA JUMPI PUSH1 0x0 DUP1 REVERT JUMPDEST POP JUMP INVALID LOG2 PUSH5 0x6970667358 0x22 SLT KECCAK256 0xC8 BLOCKHASH MUL MLOAD 0xB8 0xEF 0xD8 0xB3 DUP6 0xE6 PUSH23 0x541A7F1A7FAEF5A3ED593A30A12AFD819B53E7F1196473 PUSH16 0x6C634300080700330000000000000000 "
				},
				"gasEstimates": {
					"creation": {
						"codeDepositCost": "1280600",
						"executionCost": "infinite",
						"totalCost": "infinite"
					},
					"external": {
						"addAdmin(address)": "26333",
						"addClient(address)": "infinite",
						"addContractor(address)": "infinite",
						"adminResolutionStatus(bool,bool)": "infinite",
						"deposit()": "3966",
						"owner()": "2544",
						"renounceOwnership()": "30487",
						"taskCompletionStatus(bool)": "28468",
						"taskValidationStatus(bool)": "infinite",
						"transferOwnership(address)": "30835"
					},
					"internal": {
						"_checkAdmin()": "infinite",
						"_checkClient()": "infinite",
						"_checkContractor()": "infinite",
						"withdrawPayment()": "infinite"
					}
				},
				"methodIdentifiers": {
					"addAdmin(address)": "70480275",
					"addClient(address)": "43928cfd",
					"addContractor(address)": "761768b6",
					"adminResolutionStatus(bool,bool)": "11571f30",
					"deposit()": "d0e30db0",
					"owner()": "8da5cb5b",
					"renounceOwnership()": "715018a6",
					"taskCompletionStatus(bool)": "251d8cd5",
					"taskValidationStatus(bool)": "9464c8b8",
					"transferOwnership(address)": "f2fde38b"
				}
			},
			"storageLayout": {
				"storage": [
					{
						"astId": 7,
						"contract": "contracts/Escrow.sol:Escrow",
						"label": "_owner",
						"offset": 0,
						"slot": "0",
						"type": "t_address"
					},
					{
						"astId": 496,
						"contract": "contracts/Escrow.sol:Escrow",
						"label": "contractor",
						"offset": 0,
						"slot": "1",
						"type": "t_address_payable"
					},
					{
						"astId": 498,
						"contract": "contracts/Escrow.sol:Escrow",
						"label": "client",
						"offset": 0,
						"slot": "2",
						"type": "t_address_payable"
					},
					{
						"astId": 500,
						"contract": "contracts/Escrow.sol:Escrow",
						"label": "admin",
						"offset": 0,
						"slot": "3",
						"type": "t_address_payable"
					},
					{
						"astId": 504,
						"contract": "contracts/Escrow.sol:Escrow",
						"label": "_deposits",
						"offset": 0,
						"slot": "4",
						"type": "t_mapping(t_address,t_uint256)"
					},
					{
						"astId": 580,
						"contract": "contracts/Escrow.sol:Escrow",
						"label": "contractorState",
						"offset": 0,
						"slot": "5",
						"type": "t_uint256"
					},
					{
						"astId": 634,
						"contract": "contracts/Escrow.sol:Escrow",
						"label": "clientState",
						"offset": 0,
						"slot": "6",
						"type": "t_uint256"
					},
					{
						"astId": 672,
						"contract": "contracts/Escrow.sol:Escrow",
						"label": "taskCompleted",
						"offset": 0,
						"slot": "7",
						"type": "t_bool"
					},
					{
						"astId": 674,
						"contract": "contracts/Escrow.sol:Escrow",
						"label": "taskValidated",
						"offset": 1,
						"slot": "7",
						"type": "t_bool"
					},
					{
						"astId": 676,
						"contract": "contracts/Escrow.sol:Escrow",
						"label": "adminResolution",
						"offset": 2,
						"slot": "7",
						"type": "t_bool"
					},
					{
						"astId": 678,
						"contract": "contracts/Escrow.sol:Escrow",
						"label": "adminPayContractor",
						"offset": 3,
						"slot": "7",
						"type": "t_bool"
					}
				],
				"types": {
					"t_address": {
						"encoding": "inplace",
						"label": "address",
						"numberOfBytes": "20"
					},
					"t_address_payable": {
						"encoding": "inplace",
						"label": "address payable",
						"numberOfBytes": "20"
					},
					"t_bool": {
						"encoding": "inplace",
						"label": "bool",
						"numberOfBytes": "1"
					},
					"t_mapping(t_address,t_uint256)": {
						"encoding": "mapping",
						"key": "t_address",
						"label": "mapping(address => uint256)",
						"numberOfBytes": "32",
						"value": "t_uint256"
					},
					"t_uint256": {
						"encoding": "inplace",
						"label": "uint256",
						"numberOfBytes": "32"
					}
				}
			},
			"userdoc": {
				"kind": "user",
				"methods": {},
				"version": 1
			}
		}
	}
}