{
	"contracts/Escrow.sol": {
		"Escrow": {
			"abi": [
				{
					"anonymous": false,
					"inputs": [
						{
							"indexed": true,
							"internalType": "address",
							"name": "payee",
							"type": "address"
						},
						{
							"indexed": false,
							"internalType": "uint256",
							"name": "weiAmount",
							"type": "uint256"
						}
					],
					"name": "Deposited",
					"type": "event"
				},
				{
					"anonymous": false,
					"inputs": [
						{
							"indexed": true,
							"internalType": "address",
							"name": "previousOwner",
							"type": "address"
						},
						{
							"indexed": true,
							"internalType": "address",
							"name": "newOwner",
							"type": "address"
						}
					],
					"name": "OwnershipTransferred",
					"type": "event"
				},
				{
					"inputs": [],
					"name": "admin",
					"outputs": [
						{
							"internalType": "address payable",
							"name": "",
							"type": "address"
						}
					],
					"stateMutability": "view",
					"type": "function"
				},
				{
					"inputs": [
						{
							"internalType": "bool",
							"name": "inputAdminResolution",
							"type": "bool"
						},
						{
							"internalType": "uint256",
							"name": "inputAdminDecision",
							"type": "uint256"
						}
					],
					"name": "adminResolutionStatus",
					"outputs": [],
					"stateMutability": "nonpayable",
					"type": "function"
				},
				{
					"inputs": [],
					"name": "client",
					"outputs": [
						{
							"internalType": "address",
							"name": "",
							"type": "address"
						}
					],
					"stateMutability": "view",
					"type": "function"
				},
				{
					"inputs": [],
					"name": "contractor",
					"outputs": [
						{
							"internalType": "address payable",
							"name": "",
							"type": "address"
						}
					],
					"stateMutability": "view",
					"type": "function"
				},
				{
					"inputs": [
						{
							"internalType": "address payable",
							"name": "payee",
							"type": "address"
						},
						{
							"internalType": "address payable",
							"name": "broker",
							"type": "address"
						}
					],
					"name": "deposit",
					"outputs": [],
					"stateMutability": "payable",
					"type": "function"
				},
				{
					"inputs": [],
					"name": "owner",
					"outputs": [
						{
							"internalType": "address",
							"name": "",
							"type": "address"
						}
					],
					"stateMutability": "view",
					"type": "function"
				},
				{
					"inputs": [],
					"name": "renounceOwnership",
					"outputs": [],
					"stateMutability": "nonpayable",
					"type": "function"
				},
				{
					"inputs": [
						{
							"internalType": "bool",
							"name": "inputTaskCompleted",
							"type": "bool"
						}
					],
					"name": "taskCompletionStatus",
					"outputs": [],
					"stateMutability": "nonpayable",
					"type": "function"
				},
				{
					"inputs": [
						{
							"internalType": "bool",
							"name": "inputTaskValidated",
							"type": "bool"
						}
					],
					"name": "taskValidationStatus",
					"outputs": [],
					"stateMutability": "nonpayable",
					"type": "function"
				},
				{
					"inputs": [],
					"name": "testPayment",
					"outputs": [],
					"stateMutability": "nonpayable",
					"type": "function"
				},
				{
					"inputs": [
						{
							"internalType": "address",
							"name": "newOwner",
							"type": "address"
						}
					],
					"name": "transferOwnership",
					"outputs": [],
					"stateMutability": "nonpayable",
					"type": "function"
				},
				{
					"inputs": [],
					"name": "withdrawalAllowed",
					"outputs": [
						{
							"internalType": "bool",
							"name": "",
							"type": "bool"
						}
					],
					"stateMutability": "view",
					"type": "function"
				}
			],
			"devdoc": {
				"kind": "dev",
				"methods": {
					"owner()": {
						"details": "Returns the address of the current owner."
					},
					"renounceOwnership()": {
						"details": "Leaves the contract without owner. It will not be possible to call `onlyOwner` functions anymore. Can only be called by the current owner. NOTE: Renouncing ownership will leave the contract without an owner, thereby removing any functionality that is only available to the owner."
					},
					"transferOwnership(address)": {
						"details": "Transfers ownership of the contract to a new account (`newOwner`). Can only be called by the current owner."
					}
				},
				"version": 1
			},
			"evm": {
				"assembly": "    /* \"contracts/Escrow.sol\":238:3243  contract Escrow is Ownable {... */\n  mstore(0x40, 0x80)\n  callvalue\n  dup1\n  iszero\n  tag_1\n  jumpi\n  0x00\n  dup1\n  revert\ntag_1:\n  pop\n    /* \"@openzeppelin/contracts/access/Ownable.sol\":936:968  _transferOwnership(_msgSender()) */\n  tag_4\n    /* \"@openzeppelin/contracts/access/Ownable.sol\":955:967  _msgSender() */\n  tag_5\n    /* \"@openzeppelin/contracts/access/Ownable.sol\":955:965  _msgSender */\n  shl(0x20, tag_6)\n    /* \"@openzeppelin/contracts/access/Ownable.sol\":955:967  _msgSender() */\n  0x20\n  shr\n  jump\t// in\ntag_5:\n    /* \"@openzeppelin/contracts/access/Ownable.sol\":936:954  _transferOwnership */\n  shl(0x20, tag_7)\n    /* \"@openzeppelin/contracts/access/Ownable.sol\":936:968  _transferOwnership(_msgSender()) */\n  0x20\n  shr\n  jump\t// in\ntag_4:\n    /* \"contracts/Escrow.sol\":238:3243  contract Escrow is Ownable {... */\n  jump(tag_8)\n    /* \"@openzeppelin/contracts/utils/Context.sol\":640:736  function _msgSender() internal view virtual returns (address) {... */\ntag_6:\n    /* \"@openzeppelin/contracts/utils/Context.sol\":693:700  address */\n  0x00\n    /* \"@openzeppelin/contracts/utils/Context.sol\":719:729  msg.sender */\n  caller\n    /* \"@openzeppelin/contracts/utils/Context.sol\":712:729  return msg.sender */\n  swap1\n  pop\n    /* \"@openzeppelin/contracts/utils/Context.sol\":640:736  function _msgSender() internal view virtual returns (address) {... */\n  swap1\n  jump\t// out\n    /* \"@openzeppelin/contracts/access/Ownable.sol\":2433:2620  function _transferOwnership(address newOwner) internal virtual {... */\ntag_7:\n    /* \"@openzeppelin/contracts/access/Ownable.sol\":2506:2522  address oldOwner */\n  0x00\n    /* \"@openzeppelin/contracts/access/Ownable.sol\":2525:2531  _owner */\n  dup1\n  0x00\n  swap1\n  sload\n  swap1\n  0x0100\n  exp\n  swap1\n  div\n  0xffffffffffffffffffffffffffffffffffffffff\n  and\n    /* \"@openzeppelin/contracts/access/Ownable.sol\":2506:2531  address oldOwner = _owner */\n  swap1\n  pop\n    /* \"@openzeppelin/contracts/access/Ownable.sol\":2550:2558  newOwner */\n  dup2\n    /* \"@openzeppelin/contracts/access/Ownable.sol\":2541:2547  _owner */\n  0x00\n  dup1\n    /* \"@openzeppelin/contracts/access/Ownable.sol\":2541:2558  _owner = newOwner */\n  0x0100\n  exp\n  dup2\n  sload\n  dup2\n  0xffffffffffffffffffffffffffffffffffffffff\n  mul\n  not\n  and\n  swap1\n  dup4\n  0xffffffffffffffffffffffffffffffffffffffff\n  and\n  mul\n  or\n  swap1\n  sstore\n  pop\n    /* \"@openzeppelin/contracts/access/Ownable.sol\":2604:2612  newOwner */\n  dup2\n    /* \"@openzeppelin/contracts/access/Ownable.sol\":2573:2613  OwnershipTransferred(oldOwner, newOwner) */\n  0xffffffffffffffffffffffffffffffffffffffff\n  and\n    /* \"@openzeppelin/contracts/access/Ownable.sol\":2594:2602  oldOwner */\n  dup2\n    /* \"@openzeppelin/contracts/access/Ownable.sol\":2573:2613  OwnershipTransferred(oldOwner, newOwner) */\n  0xffffffffffffffffffffffffffffffffffffffff\n  and\n  0x8be0079c531659141344cd1fd0a4f28419497f9722a3daafe3b4186f6b6457e0\n  mload(0x40)\n  mload(0x40)\n  dup1\n  swap2\n  sub\n  swap1\n  log3\n    /* \"@openzeppelin/contracts/access/Ownable.sol\":2496:2620  {... */\n  pop\n    /* \"@openzeppelin/contracts/access/Ownable.sol\":2433:2620  function _transferOwnership(address newOwner) internal virtual {... */\n  pop\n  jump\t// out\n    /* \"contracts/Escrow.sol\":238:3243  contract Escrow is Ownable {... */\ntag_8:\n  dataSize(sub_0)\n  dup1\n  dataOffset(sub_0)\n  0x00\n  codecopy\n  0x00\n  return\nstop\n\nsub_0: assembly {\n        /* \"contracts/Escrow.sol\":238:3243  contract Escrow is Ownable {... */\n      mstore(0x40, 0x80)\n      jumpi(tag_1, lt(calldatasize, 0x04))\n      shr(0xe0, calldataload(0x00))\n      dup1\n      0xa1d19361\n      gt\n      tag_14\n      jumpi\n      dup1\n      0xa1d19361\n      eq\n      tag_8\n      jumpi\n      dup1\n      0xb0568eaa\n      eq\n      tag_9\n      jumpi\n      dup1\n      0xf2fde38b\n      eq\n      tag_10\n      jumpi\n      dup1\n      0xf851a440\n      eq\n      tag_11\n      jumpi\n      dup1\n      0xf9609f08\n      eq\n      tag_12\n      jumpi\n      dup1\n      0xfbfd2045\n      eq\n      tag_13\n      jumpi\n      jump(tag_1)\n    tag_14:\n      dup1\n      0x109e94cf\n      eq\n      tag_2\n      jumpi\n      dup1\n      0x251d8cd5\n      eq\n      tag_3\n      jumpi\n      dup1\n      0x5e32c425\n      eq\n      tag_4\n      jumpi\n      dup1\n      0x715018a6\n      eq\n      tag_5\n      jumpi\n      dup1\n      0x8da5cb5b\n      eq\n      tag_6\n      jumpi\n      dup1\n      0x9464c8b8\n      eq\n      tag_7\n      jumpi\n    tag_1:\n      0x00\n      dup1\n      revert\n        /* \"contracts/Escrow.sol\":453:474  address public client */\n    tag_2:\n      callvalue\n      dup1\n      iszero\n      tag_15\n      jumpi\n      0x00\n      dup1\n      revert\n    tag_15:\n      pop\n      tag_16\n      tag_17\n      jump\t// in\n    tag_16:\n      mload(0x40)\n      tag_18\n      swap2\n      swap1\n      tag_19\n      jump\t// in\n    tag_18:\n      mload(0x40)\n      dup1\n      swap2\n      sub\n      swap1\n      return\n        /* \"contracts/Escrow.sol\":1763:1884  function taskCompletionStatus(bool inputTaskCompleted) public virtual{... */\n    tag_3:\n      callvalue\n      dup1\n      iszero\n      tag_20\n      jumpi\n      0x00\n      dup1\n      revert\n    tag_20:\n      pop\n      tag_21\n      0x04\n      dup1\n      calldatasize\n      sub\n      dup2\n      add\n      swap1\n      tag_22\n      swap2\n      swap1\n      tag_23\n      jump\t// in\n    tag_22:\n      tag_24\n      jump\t// in\n    tag_21:\n      stop\n        /* \"contracts/Escrow.sol\":1444:1635  function adminResolutionStatus(bool inputAdminResolution, uint256 inputAdminDecision) public virtual{... */\n    tag_4:\n      callvalue\n      dup1\n      iszero\n      tag_25\n      jumpi\n      0x00\n      dup1\n      revert\n    tag_25:\n      pop\n      tag_26\n      0x04\n      dup1\n      calldatasize\n      sub\n      dup2\n      add\n      swap1\n      tag_27\n      swap2\n      swap1\n      tag_28\n      jump\t// in\n    tag_27:\n      tag_29\n      jump\t// in\n    tag_26:\n      stop\n        /* \"@openzeppelin/contracts/access/Ownable.sol\":1831:1932  function renounceOwnership() public virtual onlyOwner {... */\n    tag_5:\n      callvalue\n      dup1\n      iszero\n      tag_30\n      jumpi\n      0x00\n      dup1\n      revert\n    tag_30:\n      pop\n      tag_31\n      tag_32\n      jump\t// in\n    tag_31:\n      stop\n        /* \"@openzeppelin/contracts/access/Ownable.sol\":1201:1286  function owner() public view virtual returns (address) {... */\n    tag_6:\n      callvalue\n      dup1\n      iszero\n      tag_33\n      jumpi\n      0x00\n      dup1\n      revert\n    tag_33:\n      pop\n      tag_34\n      tag_35\n      jump\t// in\n    tag_34:\n      mload(0x40)\n      tag_36\n      swap2\n      swap1\n      tag_19\n      jump\t// in\n    tag_36:\n      mload(0x40)\n      dup1\n      swap2\n      sub\n      swap1\n      return\n        /* \"contracts/Escrow.sol\":1641:1757  function taskValidationStatus(bool inputTaskValidated) public virtual{... */\n    tag_7:\n      callvalue\n      dup1\n      iszero\n      tag_37\n      jumpi\n      0x00\n      dup1\n      revert\n    tag_37:\n      pop\n      tag_38\n      0x04\n      dup1\n      calldatasize\n      sub\n      dup2\n      add\n      swap1\n      tag_39\n      swap2\n      swap1\n      tag_23\n      jump\t// in\n    tag_39:\n      tag_40\n      jump\t// in\n    tag_38:\n      stop\n        /* \"contracts/Escrow.sol\":1892:2141  function withdrawalAllowed() public view virtual returns (bool){... */\n    tag_8:\n      callvalue\n      dup1\n      iszero\n      tag_41\n      jumpi\n      0x00\n      dup1\n      revert\n    tag_41:\n      pop\n      tag_42\n      tag_43\n      jump\t// in\n    tag_42:\n      mload(0x40)\n      tag_44\n      swap2\n      swap1\n      tag_45\n      jump\t// in\n    tag_44:\n      mload(0x40)\n      dup1\n      swap2\n      sub\n      swap1\n      return\n        /* \"contracts/Escrow.sol\":2151:2707  function testPayment() public virtual{... */\n    tag_9:\n      callvalue\n      dup1\n      iszero\n      tag_46\n      jumpi\n      0x00\n      dup1\n      revert\n    tag_46:\n      pop\n      tag_47\n      tag_48\n      jump\t// in\n    tag_47:\n      stop\n        /* \"@openzeppelin/contracts/access/Ownable.sol\":2081:2279  function transferOwnership(address newOwner) public virtual onlyOwner {... */\n    tag_10:\n      callvalue\n      dup1\n      iszero\n      tag_49\n      jumpi\n      0x00\n      dup1\n      revert\n    tag_49:\n      pop\n      tag_50\n      0x04\n      dup1\n      calldatasize\n      sub\n      dup2\n      add\n      swap1\n      tag_51\n      swap2\n      swap1\n      tag_52\n      jump\t// in\n    tag_51:\n      tag_53\n      jump\t// in\n    tag_50:\n      stop\n        /* \"contracts/Escrow.sol\":480:508  address payable public admin */\n    tag_11:\n      callvalue\n      dup1\n      iszero\n      tag_54\n      jumpi\n      0x00\n      dup1\n      revert\n    tag_54:\n      pop\n      tag_55\n      tag_56\n      jump\t// in\n    tag_55:\n      mload(0x40)\n      tag_57\n      swap2\n      swap1\n      tag_58\n      jump\t// in\n    tag_57:\n      mload(0x40)\n      dup1\n      swap2\n      sub\n      swap1\n      return\n        /* \"contracts/Escrow.sol\":664:958  function deposit(address payable payee, address payable broker) public payable virtual onlyOwner {... */\n    tag_12:\n      tag_59\n      0x04\n      dup1\n      calldatasize\n      sub\n      dup2\n      add\n      swap1\n      tag_60\n      swap2\n      swap1\n      tag_61\n      jump\t// in\n    tag_60:\n      tag_62\n      jump\t// in\n    tag_59:\n      stop\n        /* \"contracts/Escrow.sol\":414:447  address payable public contractor */\n    tag_13:\n      callvalue\n      dup1\n      iszero\n      tag_63\n      jumpi\n      0x00\n      dup1\n      revert\n    tag_63:\n      pop\n      tag_64\n      tag_65\n      jump\t// in\n    tag_64:\n      mload(0x40)\n      tag_66\n      swap2\n      swap1\n      tag_58\n      jump\t// in\n    tag_66:\n      mload(0x40)\n      dup1\n      swap2\n      sub\n      swap1\n      return\n        /* \"contracts/Escrow.sol\":453:474  address public client */\n    tag_17:\n      0x02\n      0x00\n      swap1\n      sload\n      swap1\n      0x0100\n      exp\n      swap1\n      div\n      0xffffffffffffffffffffffffffffffffffffffff\n      and\n      dup2\n      jump\t// out\n        /* \"contracts/Escrow.sol\":1763:1884  function taskCompletionStatus(bool inputTaskCompleted) public virtual{... */\n    tag_24:\n        /* \"contracts/Escrow.sol\":1854:1872  inputTaskCompleted */\n      dup1\n        /* \"contracts/Escrow.sol\":1838:1851  taskCompleted */\n      0x05\n      0x00\n        /* \"contracts/Escrow.sol\":1838:1872  taskCompleted = inputTaskCompleted */\n      0x0100\n      exp\n      dup2\n      sload\n      dup2\n      0xff\n      mul\n      not\n      and\n      swap1\n      dup4\n      iszero\n      iszero\n      mul\n      or\n      swap1\n      sstore\n      pop\n        /* \"contracts/Escrow.sol\":1763:1884  function taskCompletionStatus(bool inputTaskCompleted) public virtual{... */\n      pop\n      jump\t// out\n        /* \"contracts/Escrow.sol\":1444:1635  function adminResolutionStatus(bool inputAdminResolution, uint256 inputAdminDecision) public virtual{... */\n    tag_29:\n        /* \"contracts/Escrow.sol\":1568:1588  inputAdminResolution */\n      dup2\n        /* \"contracts/Escrow.sol\":1550:1565  adminResolution */\n      0x05\n      0x02\n        /* \"contracts/Escrow.sol\":1550:1588  adminResolution = inputAdminResolution */\n      0x0100\n      exp\n      dup2\n      sload\n      dup2\n      0xff\n      mul\n      not\n      and\n      swap1\n      dup4\n      iszero\n      iszero\n      mul\n      or\n      swap1\n      sstore\n      pop\n        /* \"contracts/Escrow.sol\":1610:1628  inputAdminDecision */\n      dup1\n        /* \"contracts/Escrow.sol\":1594:1607  adminDecision */\n      0x06\n        /* \"contracts/Escrow.sol\":1594:1628  adminDecision = inputAdminDecision */\n      dup2\n      swap1\n      sstore\n      pop\n        /* \"contracts/Escrow.sol\":1444:1635  function adminResolutionStatus(bool inputAdminResolution, uint256 inputAdminDecision) public virtual{... */\n      pop\n      pop\n      jump\t// out\n        /* \"@openzeppelin/contracts/access/Ownable.sol\":1831:1932  function renounceOwnership() public virtual onlyOwner {... */\n    tag_32:\n        /* \"@openzeppelin/contracts/access/Ownable.sol\":1094:1107  _checkOwner() */\n      tag_70\n        /* \"@openzeppelin/contracts/access/Ownable.sol\":1094:1105  _checkOwner */\n      tag_71\n        /* \"@openzeppelin/contracts/access/Ownable.sol\":1094:1107  _checkOwner() */\n      jump\t// in\n    tag_70:\n        /* \"@openzeppelin/contracts/access/Ownable.sol\":1895:1925  _transferOwnership(address(0)) */\n      tag_73\n        /* \"@openzeppelin/contracts/access/Ownable.sol\":1922:1923  0 */\n      0x00\n        /* \"@openzeppelin/contracts/access/Ownable.sol\":1895:1913  _transferOwnership */\n      tag_74\n        /* \"@openzeppelin/contracts/access/Ownable.sol\":1895:1925  _transferOwnership(address(0)) */\n      jump\t// in\n    tag_73:\n        /* \"@openzeppelin/contracts/access/Ownable.sol\":1831:1932  function renounceOwnership() public virtual onlyOwner {... */\n      jump\t// out\n        /* \"@openzeppelin/contracts/access/Ownable.sol\":1201:1286  function owner() public view virtual returns (address) {... */\n    tag_35:\n        /* \"@openzeppelin/contracts/access/Ownable.sol\":1247:1254  address */\n      0x00\n        /* \"@openzeppelin/contracts/access/Ownable.sol\":1273:1279  _owner */\n      dup1\n      0x00\n      swap1\n      sload\n      swap1\n      0x0100\n      exp\n      swap1\n      div\n      0xffffffffffffffffffffffffffffffffffffffff\n      and\n        /* \"@openzeppelin/contracts/access/Ownable.sol\":1266:1279  return _owner */\n      swap1\n      pop\n        /* \"@openzeppelin/contracts/access/Ownable.sol\":1201:1286  function owner() public view virtual returns (address) {... */\n      swap1\n      jump\t// out\n        /* \"contracts/Escrow.sol\":1641:1757  function taskValidationStatus(bool inputTaskValidated) public virtual{... */\n    tag_40:\n        /* \"contracts/Escrow.sol\":1732:1750  inputTaskValidated */\n      dup1\n        /* \"contracts/Escrow.sol\":1716:1729  taskValidated */\n      0x05\n      0x01\n        /* \"contracts/Escrow.sol\":1716:1750  taskValidated = inputTaskValidated */\n      0x0100\n      exp\n      dup2\n      sload\n      dup2\n      0xff\n      mul\n      not\n      and\n      swap1\n      dup4\n      iszero\n      iszero\n      mul\n      or\n      swap1\n      sstore\n      pop\n        /* \"contracts/Escrow.sol\":1641:1757  function taskValidationStatus(bool inputTaskValidated) public virtual{... */\n      pop\n      jump\t// out\n        /* \"contracts/Escrow.sol\":1892:2141  function withdrawalAllowed() public view virtual returns (bool){... */\n    tag_43:\n        /* \"contracts/Escrow.sol\":1950:1954  bool */\n      0x00\n        /* \"contracts/Escrow.sol\":1985:1989  true */\n      0x01\n        /* \"contracts/Escrow.sol\":1968:1989  taskCompleted == true */\n      iszero\n      iszero\n        /* \"contracts/Escrow.sol\":1968:1981  taskCompleted */\n      0x05\n      0x00\n      swap1\n      sload\n      swap1\n      0x0100\n      exp\n      swap1\n      div\n      0xff\n      and\n        /* \"contracts/Escrow.sol\":1968:1989  taskCompleted == true */\n      iszero\n      iszero\n      eq\n        /* \"contracts/Escrow.sol\":1968:2014  taskCompleted == true && taskValidated == true */\n      dup1\n      iszero\n      tag_78\n      jumpi\n      pop\n        /* \"contracts/Escrow.sol\":2010:2014  true */\n      0x01\n        /* \"contracts/Escrow.sol\":1993:2014  taskValidated == true */\n      iszero\n      iszero\n        /* \"contracts/Escrow.sol\":1993:2006  taskValidated */\n      0x05\n      0x01\n      swap1\n      sload\n      swap1\n      0x0100\n      exp\n      swap1\n      div\n      0xff\n      and\n        /* \"contracts/Escrow.sol\":1993:2014  taskValidated == true */\n      iszero\n      iszero\n      eq\n        /* \"contracts/Escrow.sol\":1968:2014  taskCompleted == true && taskValidated == true */\n    tag_78:\n        /* \"contracts/Escrow.sol\":1965:2135  if(taskCompleted == true && taskValidated == true){... */\n      iszero\n      tag_79\n      jumpi\n        /* \"contracts/Escrow.sol\":2036:2040  true */\n      0x01\n        /* \"contracts/Escrow.sol\":2029:2040  return true */\n      swap1\n      pop\n      jump(tag_77)\n        /* \"contracts/Escrow.sol\":1965:2135  if(taskCompleted == true && taskValidated == true){... */\n    tag_79:\n        /* \"contracts/Escrow.sol\":2087:2091  true */\n      0x01\n        /* \"contracts/Escrow.sol\":2068:2091  adminResolution == true */\n      iszero\n      iszero\n        /* \"contracts/Escrow.sol\":2068:2083  adminResolution */\n      0x05\n      0x02\n      swap1\n      sload\n      swap1\n      0x0100\n      exp\n      swap1\n      div\n      0xff\n      and\n        /* \"contracts/Escrow.sol\":2068:2091  adminResolution == true */\n      iszero\n      iszero\n      eq\n        /* \"contracts/Escrow.sol\":2065:2135  if(adminResolution == true){return true;}... */\n      iszero\n      tag_81\n      jumpi\n        /* \"contracts/Escrow.sol\":2100:2104  true */\n      0x01\n        /* \"contracts/Escrow.sol\":2093:2104  return true */\n      swap1\n      pop\n      jump(tag_77)\n        /* \"contracts/Escrow.sol\":2065:2135  if(adminResolution == true){return true;}... */\n    tag_81:\n        /* \"contracts/Escrow.sol\":2128:2133  false */\n      0x00\n        /* \"contracts/Escrow.sol\":2121:2133  return false */\n      swap1\n      pop\n        /* \"contracts/Escrow.sol\":1892:2141  function withdrawalAllowed() public view virtual returns (bool){... */\n    tag_77:\n      swap1\n      jump\t// out\n        /* \"contracts/Escrow.sol\":2151:2707  function testPayment() public virtual{... */\n    tag_48:\n        /* \"contracts/Escrow.sol\":2194:2217  uint256 contractBalance */\n      0x00\n        /* \"contracts/Escrow.sol\":2220:2241  address(this).balance */\n      selfbalance\n        /* \"contracts/Escrow.sol\":2194:2241  uint256 contractBalance = address(this).balance */\n      swap1\n      pop\n        /* \"contracts/Escrow.sol\":2247:2267  uint256 adminPayment */\n      0x00\n        /* \"contracts/Escrow.sol\":2292:2294  10 */\n      0x0a\n        /* \"contracts/Escrow.sol\":2289:2290  2 */\n      0x02\n        /* \"contracts/Escrow.sol\":2271:2286  contractBalance */\n      dup4\n        /* \"contracts/Escrow.sol\":2271:2290  contractBalance * 2 */\n      tag_84\n      swap2\n      swap1\n      tag_85\n      jump\t// in\n    tag_84:\n        /* \"contracts/Escrow.sol\":2270:2294  (contractBalance * 2)/10 */\n      tag_86\n      swap2\n      swap1\n      tag_87\n      jump\t// in\n    tag_86:\n        /* \"contracts/Escrow.sol\":2247:2294  uint256 adminPayment = (contractBalance * 2)/10 */\n      swap1\n      pop\n        /* \"contracts/Escrow.sol\":2324:2346  uint256 balancePayment */\n      0x00\n        /* \"contracts/Escrow.sol\":2367:2379  adminPayment */\n      dup2\n        /* \"contracts/Escrow.sol\":2349:2364  contractBalance */\n      dup4\n        /* \"contracts/Escrow.sol\":2349:2379  contractBalance - adminPayment */\n      tag_88\n      swap2\n      swap1\n      tag_89\n      jump\t// in\n    tag_88:\n        /* \"contracts/Escrow.sol\":2324:2379  uint256 balancePayment = contractBalance - adminPayment */\n      swap1\n      pop\n        /* \"contracts/Escrow.sol\":2412:2416  true */\n      0x01\n        /* \"contracts/Escrow.sol\":2395:2416  taskCompleted == true */\n      iszero\n      iszero\n        /* \"contracts/Escrow.sol\":2395:2408  taskCompleted */\n      0x05\n      0x00\n      swap1\n      sload\n      swap1\n      0x0100\n      exp\n      swap1\n      div\n      0xff\n      and\n        /* \"contracts/Escrow.sol\":2395:2416  taskCompleted == true */\n      iszero\n      iszero\n      eq\n        /* \"contracts/Escrow.sol\":2395:2441  taskCompleted == true && taskValidated == true */\n      dup1\n      iszero\n      tag_90\n      jumpi\n      pop\n        /* \"contracts/Escrow.sol\":2437:2441  true */\n      0x01\n        /* \"contracts/Escrow.sol\":2420:2441  taskValidated == true */\n      iszero\n      iszero\n        /* \"contracts/Escrow.sol\":2420:2433  taskValidated */\n      0x05\n      0x01\n      swap1\n      sload\n      swap1\n      0x0100\n      exp\n      swap1\n      div\n      0xff\n      and\n        /* \"contracts/Escrow.sol\":2420:2441  taskValidated == true */\n      iszero\n      iszero\n      eq\n        /* \"contracts/Escrow.sol\":2395:2441  taskCompleted == true && taskValidated == true */\n    tag_90:\n        /* \"contracts/Escrow.sol\":2394:2491  (taskCompleted == true && taskValidated == true)||(adminResolution == true && adminDecision == 1) */\n      dup1\n      tag_91\n      jumpi\n      pop\n        /* \"contracts/Escrow.sol\":2464:2468  true */\n      0x01\n        /* \"contracts/Escrow.sol\":2445:2468  adminResolution == true */\n      iszero\n      iszero\n        /* \"contracts/Escrow.sol\":2445:2460  adminResolution */\n      0x05\n      0x02\n      swap1\n      sload\n      swap1\n      0x0100\n      exp\n      swap1\n      div\n      0xff\n      and\n        /* \"contracts/Escrow.sol\":2445:2468  adminResolution == true */\n      iszero\n      iszero\n      eq\n        /* \"contracts/Escrow.sol\":2445:2490  adminResolution == true && adminDecision == 1 */\n      dup1\n      iszero\n      tag_92\n      jumpi\n      pop\n        /* \"contracts/Escrow.sol\":2489:2490  1 */\n      0x01\n        /* \"contracts/Escrow.sol\":2472:2485  adminDecision */\n      sload(0x06)\n        /* \"contracts/Escrow.sol\":2472:2490  adminDecision == 1 */\n      eq\n        /* \"contracts/Escrow.sol\":2445:2490  adminResolution == true && adminDecision == 1 */\n    tag_92:\n        /* \"contracts/Escrow.sol\":2394:2491  (taskCompleted == true && taskValidated == true)||(adminResolution == true && adminDecision == 1) */\n    tag_91:\n        /* \"contracts/Escrow.sol\":2391:2700  if((taskCompleted == true && taskValidated == true)||(adminResolution == true && adminDecision == 1)){... */\n      iszero\n      tag_93\n      jumpi\n        /* \"contracts/Escrow.sol\":2506:2542  contractor.sendValue(balancePayment) */\n      tag_94\n        /* \"contracts/Escrow.sol\":2527:2541  balancePayment */\n      dup2\n        /* \"contracts/Escrow.sol\":2506:2516  contractor */\n      0x01\n      0x00\n      swap1\n      sload\n      swap1\n      0x0100\n      exp\n      swap1\n      div\n      0xffffffffffffffffffffffffffffffffffffffff\n      and\n        /* \"contracts/Escrow.sol\":2506:2526  contractor.sendValue */\n      0xffffffffffffffffffffffffffffffffffffffff\n      and\n      tag_95\n      swap1\n        /* \"contracts/Escrow.sol\":2506:2542  contractor.sendValue(balancePayment) */\n      swap2\n      swap1\n      0xffffffff\n      and\n      jump\t// in\n    tag_94:\n        /* \"contracts/Escrow.sol\":2556:2585  admin.sendValue(adminPayment) */\n      tag_96\n        /* \"contracts/Escrow.sol\":2572:2584  adminPayment */\n      dup3\n        /* \"contracts/Escrow.sol\":2556:2561  admin */\n      0x03\n      0x00\n      swap1\n      sload\n      swap1\n      0x0100\n      exp\n      swap1\n      div\n      0xffffffffffffffffffffffffffffffffffffffff\n      and\n        /* \"contracts/Escrow.sol\":2556:2571  admin.sendValue */\n      0xffffffffffffffffffffffffffffffffffffffff\n      and\n      tag_95\n      swap1\n        /* \"contracts/Escrow.sol\":2556:2585  admin.sendValue(adminPayment) */\n      swap2\n      swap1\n      0xffffffff\n      and\n      jump\t// in\n    tag_96:\n        /* \"contracts/Escrow.sol\":2391:2700  if((taskCompleted == true && taskValidated == true)||(adminResolution == true && adminDecision == 1)){... */\n      jump(tag_97)\n    tag_93:\n        /* \"contracts/Escrow.sol\":2632:2636  true */\n      0x01\n        /* \"contracts/Escrow.sol\":2613:2636  adminResolution == true */\n      iszero\n      iszero\n        /* \"contracts/Escrow.sol\":2613:2628  adminResolution */\n      0x05\n      0x02\n      swap1\n      sload\n      swap1\n      0x0100\n      exp\n      swap1\n      div\n      0xff\n      and\n        /* \"contracts/Escrow.sol\":2613:2636  adminResolution == true */\n      iszero\n      iszero\n      eq\n        /* \"contracts/Escrow.sol\":2613:2658  adminResolution == true && adminDecision == 0 */\n      dup1\n      iszero\n      tag_98\n      jumpi\n      pop\n        /* \"contracts/Escrow.sol\":2657:2658  0 */\n      0x00\n        /* \"contracts/Escrow.sol\":2640:2653  adminDecision */\n      sload(0x06)\n        /* \"contracts/Escrow.sol\":2640:2658  adminDecision == 0 */\n      eq\n        /* \"contracts/Escrow.sol\":2613:2658  adminResolution == true && adminDecision == 0 */\n    tag_98:\n        /* \"contracts/Escrow.sol\":2610:2700  if(adminResolution == true && adminDecision == 0){... */\n      pop\n        /* \"contracts/Escrow.sol\":2391:2700  if((taskCompleted == true && taskValidated == true)||(adminResolution == true && adminDecision == 1)){... */\n    tag_97:\n        /* \"contracts/Escrow.sol\":2188:2707  {... */\n      pop\n      pop\n      pop\n        /* \"contracts/Escrow.sol\":2151:2707  function testPayment() public virtual{... */\n      jump\t// out\n        /* \"@openzeppelin/contracts/access/Ownable.sol\":2081:2279  function transferOwnership(address newOwner) public virtual onlyOwner {... */\n    tag_53:\n        /* \"@openzeppelin/contracts/access/Ownable.sol\":1094:1107  _checkOwner() */\n      tag_101\n        /* \"@openzeppelin/contracts/access/Ownable.sol\":1094:1105  _checkOwner */\n      tag_71\n        /* \"@openzeppelin/contracts/access/Ownable.sol\":1094:1107  _checkOwner() */\n      jump\t// in\n    tag_101:\n        /* \"@openzeppelin/contracts/access/Ownable.sol\":2189:2190  0 */\n      0x00\n        /* \"@openzeppelin/contracts/access/Ownable.sol\":2169:2191  newOwner != address(0) */\n      0xffffffffffffffffffffffffffffffffffffffff\n      and\n        /* \"@openzeppelin/contracts/access/Ownable.sol\":2169:2177  newOwner */\n      dup2\n        /* \"@openzeppelin/contracts/access/Ownable.sol\":2169:2191  newOwner != address(0) */\n      0xffffffffffffffffffffffffffffffffffffffff\n      and\n      eq\n      iszero\n        /* \"@openzeppelin/contracts/access/Ownable.sol\":2161:2234  require(newOwner != address(0), \"Ownable: new owner is the zero address\") */\n      tag_103\n      jumpi\n      mload(0x40)\n      0x08c379a000000000000000000000000000000000000000000000000000000000\n      dup2\n      mstore\n      0x04\n      add\n      tag_104\n      swap1\n      tag_105\n      jump\t// in\n    tag_104:\n      mload(0x40)\n      dup1\n      swap2\n      sub\n      swap1\n      revert\n    tag_103:\n        /* \"@openzeppelin/contracts/access/Ownable.sol\":2244:2272  _transferOwnership(newOwner) */\n      tag_106\n        /* \"@openzeppelin/contracts/access/Ownable.sol\":2263:2271  newOwner */\n      dup2\n        /* \"@openzeppelin/contracts/access/Ownable.sol\":2244:2262  _transferOwnership */\n      tag_74\n        /* \"@openzeppelin/contracts/access/Ownable.sol\":2244:2272  _transferOwnership(newOwner) */\n      jump\t// in\n    tag_106:\n        /* \"@openzeppelin/contracts/access/Ownable.sol\":2081:2279  function transferOwnership(address newOwner) public virtual onlyOwner {... */\n      pop\n      jump\t// out\n        /* \"contracts/Escrow.sol\":480:508  address payable public admin */\n    tag_56:\n      0x03\n      0x00\n      swap1\n      sload\n      swap1\n      0x0100\n      exp\n      swap1\n      div\n      0xffffffffffffffffffffffffffffffffffffffff\n      and\n      dup2\n      jump\t// out\n        /* \"contracts/Escrow.sol\":664:958  function deposit(address payable payee, address payable broker) public payable virtual onlyOwner {... */\n    tag_62:\n        /* \"@openzeppelin/contracts/access/Ownable.sol\":1094:1107  _checkOwner() */\n      tag_108\n        /* \"@openzeppelin/contracts/access/Ownable.sol\":1094:1105  _checkOwner */\n      tag_71\n        /* \"@openzeppelin/contracts/access/Ownable.sol\":1094:1107  _checkOwner() */\n      jump\t// in\n    tag_108:\n        /* \"contracts/Escrow.sol\":784:789  payee */\n      dup2\n        /* \"contracts/Escrow.sol\":771:781  contractor */\n      0x01\n      0x00\n        /* \"contracts/Escrow.sol\":771:789  contractor = payee */\n      0x0100\n      exp\n      dup2\n      sload\n      dup2\n      0xffffffffffffffffffffffffffffffffffffffff\n      mul\n      not\n      and\n      swap1\n      dup4\n      0xffffffffffffffffffffffffffffffffffffffff\n      and\n      mul\n      or\n      swap1\n      sstore\n      pop\n        /* \"contracts/Escrow.sol\":806:816  msg.sender */\n      caller\n        /* \"contracts/Escrow.sol\":799:805  client */\n      0x02\n      0x00\n        /* \"contracts/Escrow.sol\":799:816  client=msg.sender */\n      0x0100\n      exp\n      dup2\n      sload\n      dup2\n      0xffffffffffffffffffffffffffffffffffffffff\n      mul\n      not\n      and\n      swap1\n      dup4\n      0xffffffffffffffffffffffffffffffffffffffff\n      and\n      mul\n      or\n      swap1\n      sstore\n      pop\n        /* \"contracts/Escrow.sol\":834:840  broker */\n      dup1\n        /* \"contracts/Escrow.sol\":826:831  admin */\n      0x03\n      0x00\n        /* \"contracts/Escrow.sol\":826:840  admin = broker */\n      0x0100\n      exp\n      dup2\n      sload\n      dup2\n      0xffffffffffffffffffffffffffffffffffffffff\n      mul\n      not\n      and\n      swap1\n      dup4\n      0xffffffffffffffffffffffffffffffffffffffff\n      and\n      mul\n      or\n      swap1\n      sstore\n      pop\n        /* \"contracts/Escrow.sol\":850:864  uint256 amount */\n      0x00\n        /* \"contracts/Escrow.sol\":867:876  msg.value */\n      callvalue\n        /* \"contracts/Escrow.sol\":850:876  uint256 amount = msg.value */\n      swap1\n      pop\n        /* \"contracts/Escrow.sol\":906:912  amount */\n      dup1\n        /* \"contracts/Escrow.sol\":886:895  _deposits */\n      0x04\n        /* \"contracts/Escrow.sol\":886:902  _deposits[payee] */\n      0x00\n        /* \"contracts/Escrow.sol\":896:901  payee */\n      dup6\n        /* \"contracts/Escrow.sol\":886:902  _deposits[payee] */\n      0xffffffffffffffffffffffffffffffffffffffff\n      and\n      0xffffffffffffffffffffffffffffffffffffffff\n      and\n      dup2\n      mstore\n      0x20\n      add\n      swap1\n      dup2\n      mstore\n      0x20\n      add\n      0x00\n      keccak256\n      0x00\n        /* \"contracts/Escrow.sol\":886:912  _deposits[payee] += amount */\n      dup3\n      dup3\n      sload\n      tag_110\n      swap2\n      swap1\n      tag_111\n      jump\t// in\n    tag_110:\n      swap3\n      pop\n      pop\n      dup2\n      swap1\n      sstore\n      pop\n        /* \"contracts/Escrow.sol\":937:942  payee */\n      dup3\n        /* \"contracts/Escrow.sol\":927:951  Deposited(payee, amount) */\n      0xffffffffffffffffffffffffffffffffffffffff\n      and\n      0x2da466a7b24304f47e87fa2e1e5a81b9831ce54fec19055ce277ca2f39ba42c4\n        /* \"contracts/Escrow.sol\":944:950  amount */\n      dup3\n        /* \"contracts/Escrow.sol\":927:951  Deposited(payee, amount) */\n      mload(0x40)\n      tag_112\n      swap2\n      swap1\n      tag_113\n      jump\t// in\n    tag_112:\n      mload(0x40)\n      dup1\n      swap2\n      sub\n      swap1\n      log2\n        /* \"contracts/Escrow.sol\":761:958  {... */\n      pop\n        /* \"contracts/Escrow.sol\":664:958  function deposit(address payable payee, address payable broker) public payable virtual onlyOwner {... */\n      pop\n      pop\n      jump\t// out\n        /* \"contracts/Escrow.sol\":414:447  address payable public contractor */\n    tag_65:\n      0x01\n      0x00\n      swap1\n      sload\n      swap1\n      0x0100\n      exp\n      swap1\n      div\n      0xffffffffffffffffffffffffffffffffffffffff\n      and\n      dup2\n      jump\t// out\n        /* \"@openzeppelin/contracts/access/Ownable.sol\":1359:1489  function _checkOwner() internal view virtual {... */\n    tag_71:\n        /* \"@openzeppelin/contracts/access/Ownable.sol\":1433:1445  _msgSender() */\n      tag_115\n        /* \"@openzeppelin/contracts/access/Ownable.sol\":1433:1443  _msgSender */\n      tag_116\n        /* \"@openzeppelin/contracts/access/Ownable.sol\":1433:1445  _msgSender() */\n      jump\t// in\n    tag_115:\n        /* \"@openzeppelin/contracts/access/Ownable.sol\":1422:1445  owner() == _msgSender() */\n      0xffffffffffffffffffffffffffffffffffffffff\n      and\n        /* \"@openzeppelin/contracts/access/Ownable.sol\":1422:1429  owner() */\n      tag_117\n        /* \"@openzeppelin/contracts/access/Ownable.sol\":1422:1427  owner */\n      tag_35\n        /* \"@openzeppelin/contracts/access/Ownable.sol\":1422:1429  owner() */\n      jump\t// in\n    tag_117:\n        /* \"@openzeppelin/contracts/access/Ownable.sol\":1422:1445  owner() == _msgSender() */\n      0xffffffffffffffffffffffffffffffffffffffff\n      and\n      eq\n        /* \"@openzeppelin/contracts/access/Ownable.sol\":1414:1482  require(owner() == _msgSender(), \"Ownable: caller is not the owner\") */\n      tag_118\n      jumpi\n      mload(0x40)\n      0x08c379a000000000000000000000000000000000000000000000000000000000\n      dup2\n      mstore\n      0x04\n      add\n      tag_119\n      swap1\n      tag_120\n      jump\t// in\n    tag_119:\n      mload(0x40)\n      dup1\n      swap2\n      sub\n      swap1\n      revert\n    tag_118:\n        /* \"@openzeppelin/contracts/access/Ownable.sol\":1359:1489  function _checkOwner() internal view virtual {... */\n      jump\t// out\n        /* \"@openzeppelin/contracts/access/Ownable.sol\":2433:2620  function _transferOwnership(address newOwner) internal virtual {... */\n    tag_74:\n        /* \"@openzeppelin/contracts/access/Ownable.sol\":2506:2522  address oldOwner */\n      0x00\n        /* \"@openzeppelin/contracts/access/Ownable.sol\":2525:2531  _owner */\n      dup1\n      0x00\n      swap1\n      sload\n      swap1\n      0x0100\n      exp\n      swap1\n      div\n      0xffffffffffffffffffffffffffffffffffffffff\n      and\n        /* \"@openzeppelin/contracts/access/Ownable.sol\":2506:2531  address oldOwner = _owner */\n      swap1\n      pop\n        /* \"@openzeppelin/contracts/access/Ownable.sol\":2550:2558  newOwner */\n      dup2\n        /* \"@openzeppelin/contracts/access/Ownable.sol\":2541:2547  _owner */\n      0x00\n      dup1\n        /* \"@openzeppelin/contracts/access/Ownable.sol\":2541:2558  _owner = newOwner */\n      0x0100\n      exp\n      dup2\n      sload\n      dup2\n      0xffffffffffffffffffffffffffffffffffffffff\n      mul\n      not\n      and\n      swap1\n      dup4\n      0xffffffffffffffffffffffffffffffffffffffff\n      and\n      mul\n      or\n      swap1\n      sstore\n      pop\n        /* \"@openzeppelin/contracts/access/Ownable.sol\":2604:2612  newOwner */\n      dup2\n        /* \"@openzeppelin/contracts/access/Ownable.sol\":2573:2613  OwnershipTransferred(oldOwner, newOwner) */\n      0xffffffffffffffffffffffffffffffffffffffff\n      and\n        /* \"@openzeppelin/contracts/access/Ownable.sol\":2594:2602  oldOwner */\n      dup2\n        /* \"@openzeppelin/contracts/access/Ownable.sol\":2573:2613  OwnershipTransferred(oldOwner, newOwner) */\n      0xffffffffffffffffffffffffffffffffffffffff\n      and\n      0x8be0079c531659141344cd1fd0a4f28419497f9722a3daafe3b4186f6b6457e0\n      mload(0x40)\n      mload(0x40)\n      dup1\n      swap2\n      sub\n      swap1\n      log3\n        /* \"@openzeppelin/contracts/access/Ownable.sol\":2496:2620  {... */\n      pop\n        /* \"@openzeppelin/contracts/access/Ownable.sol\":2433:2620  function _transferOwnership(address newOwner) internal virtual {... */\n      pop\n      jump\t// out\n        /* \"@openzeppelin/contracts/utils/Address.sol\":2412:2724  function sendValue(address payable recipient, uint256 amount) internal {... */\n    tag_95:\n        /* \"@openzeppelin/contracts/utils/Address.sol\":2526:2532  amount */\n      dup1\n        /* \"@openzeppelin/contracts/utils/Address.sol\":2501:2522  address(this).balance */\n      selfbalance\n        /* \"@openzeppelin/contracts/utils/Address.sol\":2501:2532  address(this).balance >= amount */\n      lt\n      iszero\n        /* \"@openzeppelin/contracts/utils/Address.sol\":2493:2566  require(address(this).balance >= amount, \"Address: insufficient balance\") */\n      tag_123\n      jumpi\n      mload(0x40)\n      0x08c379a000000000000000000000000000000000000000000000000000000000\n      dup2\n      mstore\n      0x04\n      add\n      tag_124\n      swap1\n      tag_125\n      jump\t// in\n    tag_124:\n      mload(0x40)\n      dup1\n      swap2\n      sub\n      swap1\n      revert\n    tag_123:\n        /* \"@openzeppelin/contracts/utils/Address.sol\":2578:2590  bool success */\n      0x00\n        /* \"@openzeppelin/contracts/utils/Address.sol\":2596:2605  recipient */\n      dup3\n        /* \"@openzeppelin/contracts/utils/Address.sol\":2596:2610  recipient.call */\n      0xffffffffffffffffffffffffffffffffffffffff\n      and\n        /* \"@openzeppelin/contracts/utils/Address.sol\":2618:2624  amount */\n      dup3\n        /* \"@openzeppelin/contracts/utils/Address.sol\":2596:2629  recipient.call{value: amount}(\"\") */\n      mload(0x40)\n      tag_126\n      swap1\n      tag_127\n      jump\t// in\n    tag_126:\n      0x00\n      mload(0x40)\n      dup1\n      dup4\n      sub\n      dup2\n      dup6\n      dup8\n      gas\n      call\n      swap3\n      pop\n      pop\n      pop\n      returndatasize\n      dup1\n      0x00\n      dup2\n      eq\n      tag_130\n      jumpi\n      mload(0x40)\n      swap2\n      pop\n      and(add(returndatasize, 0x3f), not(0x1f))\n      dup3\n      add\n      0x40\n      mstore\n      returndatasize\n      dup3\n      mstore\n      returndatasize\n      0x00\n      0x20\n      dup5\n      add\n      returndatacopy\n      jump(tag_129)\n    tag_130:\n      0x60\n      swap2\n      pop\n    tag_129:\n      pop\n        /* \"@openzeppelin/contracts/utils/Address.sol\":2577:2629  (bool success, ) = recipient.call{value: amount}(\"\") */\n      pop\n      swap1\n      pop\n        /* \"@openzeppelin/contracts/utils/Address.sol\":2647:2654  success */\n      dup1\n        /* \"@openzeppelin/contracts/utils/Address.sol\":2639:2717  require(success, \"Address: unable to send value, recipient may have reverted\") */\n      tag_131\n      jumpi\n      mload(0x40)\n      0x08c379a000000000000000000000000000000000000000000000000000000000\n      dup2\n      mstore\n      0x04\n      add\n      tag_132\n      swap1\n      tag_133\n      jump\t// in\n    tag_132:\n      mload(0x40)\n      dup1\n      swap2\n      sub\n      swap1\n      revert\n    tag_131:\n        /* \"@openzeppelin/contracts/utils/Address.sol\":2483:2724  {... */\n      pop\n        /* \"@openzeppelin/contracts/utils/Address.sol\":2412:2724  function sendValue(address payable recipient, uint256 amount) internal {... */\n      pop\n      pop\n      jump\t// out\n        /* \"@openzeppelin/contracts/utils/Context.sol\":640:736  function _msgSender() internal view virtual returns (address) {... */\n    tag_116:\n        /* \"@openzeppelin/contracts/utils/Context.sol\":693:700  address */\n      0x00\n        /* \"@openzeppelin/contracts/utils/Context.sol\":719:729  msg.sender */\n      caller\n        /* \"@openzeppelin/contracts/utils/Context.sol\":712:729  return msg.sender */\n      swap1\n      pop\n        /* \"@openzeppelin/contracts/utils/Context.sol\":640:736  function _msgSender() internal view virtual returns (address) {... */\n      swap1\n      jump\t// out\n        /* \"#utility.yul\":7:146   */\n    tag_136:\n        /* \"#utility.yul\":53:58   */\n      0x00\n        /* \"#utility.yul\":91:97   */\n      dup2\n        /* \"#utility.yul\":78:98   */\n      calldataload\n        /* \"#utility.yul\":69:98   */\n      swap1\n      pop\n        /* \"#utility.yul\":107:140   */\n      tag_138\n        /* \"#utility.yul\":134:139   */\n      dup2\n        /* \"#utility.yul\":107:140   */\n      tag_139\n      jump\t// in\n    tag_138:\n        /* \"#utility.yul\":7:146   */\n      swap3\n      swap2\n      pop\n      pop\n      jump\t// out\n        /* \"#utility.yul\":152:307   */\n    tag_140:\n        /* \"#utility.yul\":206:211   */\n      0x00\n        /* \"#utility.yul\":244:250   */\n      dup2\n        /* \"#utility.yul\":231:251   */\n      calldataload\n        /* \"#utility.yul\":222:251   */\n      swap1\n      pop\n        /* \"#utility.yul\":260:301   */\n      tag_142\n        /* \"#utility.yul\":295:300   */\n      dup2\n        /* \"#utility.yul\":260:301   */\n      tag_143\n      jump\t// in\n    tag_142:\n        /* \"#utility.yul\":152:307   */\n      swap3\n      swap2\n      pop\n      pop\n      jump\t// out\n        /* \"#utility.yul\":313:446   */\n    tag_144:\n        /* \"#utility.yul\":356:361   */\n      0x00\n        /* \"#utility.yul\":394:400   */\n      dup2\n        /* \"#utility.yul\":381:401   */\n      calldataload\n        /* \"#utility.yul\":372:401   */\n      swap1\n      pop\n        /* \"#utility.yul\":410:440   */\n      tag_146\n        /* \"#utility.yul\":434:439   */\n      dup2\n        /* \"#utility.yul\":410:440   */\n      tag_147\n      jump\t// in\n    tag_146:\n        /* \"#utility.yul\":313:446   */\n      swap3\n      swap2\n      pop\n      pop\n      jump\t// out\n        /* \"#utility.yul\":452:591   */\n    tag_148:\n        /* \"#utility.yul\":498:503   */\n      0x00\n        /* \"#utility.yul\":536:542   */\n      dup2\n        /* \"#utility.yul\":523:543   */\n      calldataload\n        /* \"#utility.yul\":514:543   */\n      swap1\n      pop\n        /* \"#utility.yul\":552:585   */\n      tag_150\n        /* \"#utility.yul\":579:584   */\n      dup2\n        /* \"#utility.yul\":552:585   */\n      tag_151\n      jump\t// in\n    tag_150:\n        /* \"#utility.yul\":452:591   */\n      swap3\n      swap2\n      pop\n      pop\n      jump\t// out\n        /* \"#utility.yul\":597:926   */\n    tag_52:\n        /* \"#utility.yul\":656:662   */\n      0x00\n        /* \"#utility.yul\":705:707   */\n      0x20\n        /* \"#utility.yul\":693:702   */\n      dup3\n        /* \"#utility.yul\":684:691   */\n      dup5\n        /* \"#utility.yul\":680:703   */\n      sub\n        /* \"#utility.yul\":676:708   */\n      slt\n        /* \"#utility.yul\":673:792   */\n      iszero\n      tag_153\n      jumpi\n        /* \"#utility.yul\":711:790   */\n      tag_154\n      tag_155\n      jump\t// in\n    tag_154:\n        /* \"#utility.yul\":673:792   */\n    tag_153:\n        /* \"#utility.yul\":831:832   */\n      0x00\n        /* \"#utility.yul\":856:909   */\n      tag_156\n        /* \"#utility.yul\":901:908   */\n      dup5\n        /* \"#utility.yul\":892:898   */\n      dup3\n        /* \"#utility.yul\":881:890   */\n      dup6\n        /* \"#utility.yul\":877:899   */\n      add\n        /* \"#utility.yul\":856:909   */\n      tag_136\n      jump\t// in\n    tag_156:\n        /* \"#utility.yul\":846:909   */\n      swap2\n      pop\n        /* \"#utility.yul\":802:919   */\n      pop\n        /* \"#utility.yul\":597:926   */\n      swap3\n      swap2\n      pop\n      pop\n      jump\t// out\n        /* \"#utility.yul\":932:1438   */\n    tag_61:\n        /* \"#utility.yul\":1016:1022   */\n      0x00\n        /* \"#utility.yul\":1024:1030   */\n      dup1\n        /* \"#utility.yul\":1073:1075   */\n      0x40\n        /* \"#utility.yul\":1061:1070   */\n      dup4\n        /* \"#utility.yul\":1052:1059   */\n      dup6\n        /* \"#utility.yul\":1048:1071   */\n      sub\n        /* \"#utility.yul\":1044:1076   */\n      slt\n        /* \"#utility.yul\":1041:1160   */\n      iszero\n      tag_158\n      jumpi\n        /* \"#utility.yul\":1079:1158   */\n      tag_159\n      tag_155\n      jump\t// in\n    tag_159:\n        /* \"#utility.yul\":1041:1160   */\n    tag_158:\n        /* \"#utility.yul\":1199:1200   */\n      0x00\n        /* \"#utility.yul\":1224:1285   */\n      tag_160\n        /* \"#utility.yul\":1277:1284   */\n      dup6\n        /* \"#utility.yul\":1268:1274   */\n      dup3\n        /* \"#utility.yul\":1257:1266   */\n      dup7\n        /* \"#utility.yul\":1253:1275   */\n      add\n        /* \"#utility.yul\":1224:1285   */\n      tag_140\n      jump\t// in\n    tag_160:\n        /* \"#utility.yul\":1214:1285   */\n      swap3\n      pop\n        /* \"#utility.yul\":1170:1295   */\n      pop\n        /* \"#utility.yul\":1334:1336   */\n      0x20\n        /* \"#utility.yul\":1360:1421   */\n      tag_161\n        /* \"#utility.yul\":1413:1420   */\n      dup6\n        /* \"#utility.yul\":1404:1410   */\n      dup3\n        /* \"#utility.yul\":1393:1402   */\n      dup7\n        /* \"#utility.yul\":1389:1411   */\n      add\n        /* \"#utility.yul\":1360:1421   */\n      tag_140\n      jump\t// in\n    tag_161:\n        /* \"#utility.yul\":1350:1421   */\n      swap2\n      pop\n        /* \"#utility.yul\":1305:1431   */\n      pop\n        /* \"#utility.yul\":932:1438   */\n      swap3\n      pop\n      swap3\n      swap1\n      pop\n      jump\t// out\n        /* \"#utility.yul\":1444:1767   */\n    tag_23:\n        /* \"#utility.yul\":1500:1506   */\n      0x00\n        /* \"#utility.yul\":1549:1551   */\n      0x20\n        /* \"#utility.yul\":1537:1546   */\n      dup3\n        /* \"#utility.yul\":1528:1535   */\n      dup5\n        /* \"#utility.yul\":1524:1547   */\n      sub\n        /* \"#utility.yul\":1520:1552   */\n      slt\n        /* \"#utility.yul\":1517:1636   */\n      iszero\n      tag_163\n      jumpi\n        /* \"#utility.yul\":1555:1634   */\n      tag_164\n      tag_155\n      jump\t// in\n    tag_164:\n        /* \"#utility.yul\":1517:1636   */\n    tag_163:\n        /* \"#utility.yul\":1675:1676   */\n      0x00\n        /* \"#utility.yul\":1700:1750   */\n      tag_165\n        /* \"#utility.yul\":1742:1749   */\n      dup5\n        /* \"#utility.yul\":1733:1739   */\n      dup3\n        /* \"#utility.yul\":1722:1731   */\n      dup6\n        /* \"#utility.yul\":1718:1740   */\n      add\n        /* \"#utility.yul\":1700:1750   */\n      tag_144\n      jump\t// in\n    tag_165:\n        /* \"#utility.yul\":1690:1750   */\n      swap2\n      pop\n        /* \"#utility.yul\":1646:1760   */\n      pop\n        /* \"#utility.yul\":1444:1767   */\n      swap3\n      swap2\n      pop\n      pop\n      jump\t// out\n        /* \"#utility.yul\":1773:2241   */\n    tag_28:\n        /* \"#utility.yul\":1838:1844   */\n      0x00\n        /* \"#utility.yul\":1846:1852   */\n      dup1\n        /* \"#utility.yul\":1895:1897   */\n      0x40\n        /* \"#utility.yul\":1883:1892   */\n      dup4\n        /* \"#utility.yul\":1874:1881   */\n      dup6\n        /* \"#utility.yul\":1870:1893   */\n      sub\n        /* \"#utility.yul\":1866:1898   */\n      slt\n        /* \"#utility.yul\":1863:1982   */\n      iszero\n      tag_167\n      jumpi\n        /* \"#utility.yul\":1901:1980   */\n      tag_168\n      tag_155\n      jump\t// in\n    tag_168:\n        /* \"#utility.yul\":1863:1982   */\n    tag_167:\n        /* \"#utility.yul\":2021:2022   */\n      0x00\n        /* \"#utility.yul\":2046:2096   */\n      tag_169\n        /* \"#utility.yul\":2088:2095   */\n      dup6\n        /* \"#utility.yul\":2079:2085   */\n      dup3\n        /* \"#utility.yul\":2068:2077   */\n      dup7\n        /* \"#utility.yul\":2064:2086   */\n      add\n        /* \"#utility.yul\":2046:2096   */\n      tag_144\n      jump\t// in\n    tag_169:\n        /* \"#utility.yul\":2036:2096   */\n      swap3\n      pop\n        /* \"#utility.yul\":1992:2106   */\n      pop\n        /* \"#utility.yul\":2145:2147   */\n      0x20\n        /* \"#utility.yul\":2171:2224   */\n      tag_170\n        /* \"#utility.yul\":2216:2223   */\n      dup6\n        /* \"#utility.yul\":2207:2213   */\n      dup3\n        /* \"#utility.yul\":2196:2205   */\n      dup7\n        /* \"#utility.yul\":2192:2214   */\n      add\n        /* \"#utility.yul\":2171:2224   */\n      tag_148\n      jump\t// in\n    tag_170:\n        /* \"#utility.yul\":2161:2224   */\n      swap2\n      pop\n        /* \"#utility.yul\":2116:2234   */\n      pop\n        /* \"#utility.yul\":1773:2241   */\n      swap3\n      pop\n      swap3\n      swap1\n      pop\n      jump\t// out\n        /* \"#utility.yul\":2247:2389   */\n    tag_171:\n        /* \"#utility.yul\":2350:2382   */\n      tag_173\n        /* \"#utility.yul\":2376:2381   */\n      dup2\n        /* \"#utility.yul\":2350:2382   */\n      tag_174\n      jump\t// in\n    tag_173:\n        /* \"#utility.yul\":2345:2348   */\n      dup3\n        /* \"#utility.yul\":2338:2383   */\n      mstore\n        /* \"#utility.yul\":2247:2389   */\n      pop\n      pop\n      jump\t// out\n        /* \"#utility.yul\":2395:2513   */\n    tag_175:\n        /* \"#utility.yul\":2482:2506   */\n      tag_177\n        /* \"#utility.yul\":2500:2505   */\n      dup2\n        /* \"#utility.yul\":2482:2506   */\n      tag_178\n      jump\t// in\n    tag_177:\n        /* \"#utility.yul\":2477:2480   */\n      dup3\n        /* \"#utility.yul\":2470:2507   */\n      mstore\n        /* \"#utility.yul\":2395:2513   */\n      pop\n      pop\n      jump\t// out\n        /* \"#utility.yul\":2519:2628   */\n    tag_179:\n        /* \"#utility.yul\":2600:2621   */\n      tag_181\n        /* \"#utility.yul\":2615:2620   */\n      dup2\n        /* \"#utility.yul\":2600:2621   */\n      tag_182\n      jump\t// in\n    tag_181:\n        /* \"#utility.yul\":2595:2598   */\n      dup3\n        /* \"#utility.yul\":2588:2622   */\n      mstore\n        /* \"#utility.yul\":2519:2628   */\n      pop\n      pop\n      jump\t// out\n        /* \"#utility.yul\":2634:3000   */\n    tag_183:\n        /* \"#utility.yul\":2776:2779   */\n      0x00\n        /* \"#utility.yul\":2797:2864   */\n      tag_185\n        /* \"#utility.yul\":2861:2863   */\n      0x26\n        /* \"#utility.yul\":2856:2859   */\n      dup4\n        /* \"#utility.yul\":2797:2864   */\n      tag_186\n      jump\t// in\n    tag_185:\n        /* \"#utility.yul\":2790:2864   */\n      swap2\n      pop\n        /* \"#utility.yul\":2873:2966   */\n      tag_187\n        /* \"#utility.yul\":2962:2965   */\n      dup3\n        /* \"#utility.yul\":2873:2966   */\n      tag_188\n      jump\t// in\n    tag_187:\n        /* \"#utility.yul\":2991:2993   */\n      0x40\n        /* \"#utility.yul\":2986:2989   */\n      dup3\n        /* \"#utility.yul\":2982:2994   */\n      add\n        /* \"#utility.yul\":2975:2994   */\n      swap1\n      pop\n        /* \"#utility.yul\":2634:3000   */\n      swap2\n      swap1\n      pop\n      jump\t// out\n        /* \"#utility.yul\":3006:3372   */\n    tag_189:\n        /* \"#utility.yul\":3148:3151   */\n      0x00\n        /* \"#utility.yul\":3169:3236   */\n      tag_191\n        /* \"#utility.yul\":3233:3235   */\n      0x3a\n        /* \"#utility.yul\":3228:3231   */\n      dup4\n        /* \"#utility.yul\":3169:3236   */\n      tag_186\n      jump\t// in\n    tag_191:\n        /* \"#utility.yul\":3162:3236   */\n      swap2\n      pop\n        /* \"#utility.yul\":3245:3338   */\n      tag_192\n        /* \"#utility.yul\":3334:3337   */\n      dup3\n        /* \"#utility.yul\":3245:3338   */\n      tag_193\n      jump\t// in\n    tag_192:\n        /* \"#utility.yul\":3363:3365   */\n      0x40\n        /* \"#utility.yul\":3358:3361   */\n      dup3\n        /* \"#utility.yul\":3354:3366   */\n      add\n        /* \"#utility.yul\":3347:3366   */\n      swap1\n      pop\n        /* \"#utility.yul\":3006:3372   */\n      swap2\n      swap1\n      pop\n      jump\t// out\n        /* \"#utility.yul\":3378:3744   */\n    tag_194:\n        /* \"#utility.yul\":3520:3523   */\n      0x00\n        /* \"#utility.yul\":3541:3608   */\n      tag_196\n        /* \"#utility.yul\":3605:3607   */\n      0x1d\n        /* \"#utility.yul\":3600:3603   */\n      dup4\n        /* \"#utility.yul\":3541:3608   */\n      tag_186\n      jump\t// in\n    tag_196:\n        /* \"#utility.yul\":3534:3608   */\n      swap2\n      pop\n        /* \"#utility.yul\":3617:3710   */\n      tag_197\n        /* \"#utility.yul\":3706:3709   */\n      dup3\n        /* \"#utility.yul\":3617:3710   */\n      tag_198\n      jump\t// in\n    tag_197:\n        /* \"#utility.yul\":3735:3737   */\n      0x20\n        /* \"#utility.yul\":3730:3733   */\n      dup3\n        /* \"#utility.yul\":3726:3738   */\n      add\n        /* \"#utility.yul\":3719:3738   */\n      swap1\n      pop\n        /* \"#utility.yul\":3378:3744   */\n      swap2\n      swap1\n      pop\n      jump\t// out\n        /* \"#utility.yul\":3750:4116   */\n    tag_199:\n        /* \"#utility.yul\":3892:3895   */\n      0x00\n        /* \"#utility.yul\":3913:3980   */\n      tag_201\n        /* \"#utility.yul\":3977:3979   */\n      0x20\n        /* \"#utility.yul\":3972:3975   */\n      dup4\n        /* \"#utility.yul\":3913:3980   */\n      tag_186\n      jump\t// in\n    tag_201:\n        /* \"#utility.yul\":3906:3980   */\n      swap2\n      pop\n        /* \"#utility.yul\":3989:4082   */\n      tag_202\n        /* \"#utility.yul\":4078:4081   */\n      dup3\n        /* \"#utility.yul\":3989:4082   */\n      tag_203\n      jump\t// in\n    tag_202:\n        /* \"#utility.yul\":4107:4109   */\n      0x20\n        /* \"#utility.yul\":4102:4105   */\n      dup3\n        /* \"#utility.yul\":4098:4110   */\n      add\n        /* \"#utility.yul\":4091:4110   */\n      swap1\n      pop\n        /* \"#utility.yul\":3750:4116   */\n      swap2\n      swap1\n      pop\n      jump\t// out\n        /* \"#utility.yul\":4122:4520   */\n    tag_204:\n        /* \"#utility.yul\":4281:4284   */\n      0x00\n        /* \"#utility.yul\":4302:4385   */\n      tag_206\n        /* \"#utility.yul\":4383:4384   */\n      0x00\n        /* \"#utility.yul\":4378:4381   */\n      dup4\n        /* \"#utility.yul\":4302:4385   */\n      tag_207\n      jump\t// in\n    tag_206:\n        /* \"#utility.yul\":4295:4385   */\n      swap2\n      pop\n        /* \"#utility.yul\":4394:4487   */\n      tag_208\n        /* \"#utility.yul\":4483:4486   */\n      dup3\n        /* \"#utility.yul\":4394:4487   */\n      tag_209\n      jump\t// in\n    tag_208:\n        /* \"#utility.yul\":4512:4513   */\n      0x00\n        /* \"#utility.yul\":4507:4510   */\n      dup3\n        /* \"#utility.yul\":4503:4514   */\n      add\n        /* \"#utility.yul\":4496:4514   */\n      swap1\n      pop\n        /* \"#utility.yul\":4122:4520   */\n      swap2\n      swap1\n      pop\n      jump\t// out\n        /* \"#utility.yul\":4526:4644   */\n    tag_210:\n        /* \"#utility.yul\":4613:4637   */\n      tag_212\n        /* \"#utility.yul\":4631:4636   */\n      dup2\n        /* \"#utility.yul\":4613:4637   */\n      tag_213\n      jump\t// in\n    tag_212:\n        /* \"#utility.yul\":4608:4611   */\n      dup3\n        /* \"#utility.yul\":4601:4638   */\n      mstore\n        /* \"#utility.yul\":4526:4644   */\n      pop\n      pop\n      jump\t// out\n        /* \"#utility.yul\":4650:5029   */\n    tag_127:\n        /* \"#utility.yul\":4834:4837   */\n      0x00\n        /* \"#utility.yul\":4856:5003   */\n      tag_215\n        /* \"#utility.yul\":4999:5002   */\n      dup3\n        /* \"#utility.yul\":4856:5003   */\n      tag_204\n      jump\t// in\n    tag_215:\n        /* \"#utility.yul\":4849:5003   */\n      swap2\n      pop\n        /* \"#utility.yul\":5020:5023   */\n      dup2\n        /* \"#utility.yul\":5013:5023   */\n      swap1\n      pop\n        /* \"#utility.yul\":4650:5029   */\n      swap2\n      swap1\n      pop\n      jump\t// out\n        /* \"#utility.yul\":5035:5257   */\n    tag_19:\n        /* \"#utility.yul\":5128:5132   */\n      0x00\n        /* \"#utility.yul\":5166:5168   */\n      0x20\n        /* \"#utility.yul\":5155:5164   */\n      dup3\n        /* \"#utility.yul\":5151:5169   */\n      add\n        /* \"#utility.yul\":5143:5169   */\n      swap1\n      pop\n        /* \"#utility.yul\":5179:5250   */\n      tag_217\n        /* \"#utility.yul\":5247:5248   */\n      0x00\n        /* \"#utility.yul\":5236:5245   */\n      dup4\n        /* \"#utility.yul\":5232:5249   */\n      add\n        /* \"#utility.yul\":5223:5229   */\n      dup5\n        /* \"#utility.yul\":5179:5250   */\n      tag_175\n      jump\t// in\n    tag_217:\n        /* \"#utility.yul\":5035:5257   */\n      swap3\n      swap2\n      pop\n      pop\n      jump\t// out\n        /* \"#utility.yul\":5263:5517   */\n    tag_58:\n        /* \"#utility.yul\":5372:5376   */\n      0x00\n        /* \"#utility.yul\":5410:5412   */\n      0x20\n        /* \"#utility.yul\":5399:5408   */\n      dup3\n        /* \"#utility.yul\":5395:5413   */\n      add\n        /* \"#utility.yul\":5387:5413   */\n      swap1\n      pop\n        /* \"#utility.yul\":5423:5510   */\n      tag_219\n        /* \"#utility.yul\":5507:5508   */\n      0x00\n        /* \"#utility.yul\":5496:5505   */\n      dup4\n        /* \"#utility.yul\":5492:5509   */\n      add\n        /* \"#utility.yul\":5483:5489   */\n      dup5\n        /* \"#utility.yul\":5423:5510   */\n      tag_171\n      jump\t// in\n    tag_219:\n        /* \"#utility.yul\":5263:5517   */\n      swap3\n      swap2\n      pop\n      pop\n      jump\t// out\n        /* \"#utility.yul\":5523:5733   */\n    tag_45:\n        /* \"#utility.yul\":5610:5614   */\n      0x00\n        /* \"#utility.yul\":5648:5650   */\n      0x20\n        /* \"#utility.yul\":5637:5646   */\n      dup3\n        /* \"#utility.yul\":5633:5651   */\n      add\n        /* \"#utility.yul\":5625:5651   */\n      swap1\n      pop\n        /* \"#utility.yul\":5661:5726   */\n      tag_221\n        /* \"#utility.yul\":5723:5724   */\n      0x00\n        /* \"#utility.yul\":5712:5721   */\n      dup4\n        /* \"#utility.yul\":5708:5725   */\n      add\n        /* \"#utility.yul\":5699:5705   */\n      dup5\n        /* \"#utility.yul\":5661:5726   */\n      tag_179\n      jump\t// in\n    tag_221:\n        /* \"#utility.yul\":5523:5733   */\n      swap3\n      swap2\n      pop\n      pop\n      jump\t// out\n        /* \"#utility.yul\":5739:6158   */\n    tag_105:\n        /* \"#utility.yul\":5905:5909   */\n      0x00\n        /* \"#utility.yul\":5943:5945   */\n      0x20\n        /* \"#utility.yul\":5932:5941   */\n      dup3\n        /* \"#utility.yul\":5928:5946   */\n      add\n        /* \"#utility.yul\":5920:5946   */\n      swap1\n      pop\n        /* \"#utility.yul\":5992:6001   */\n      dup2\n        /* \"#utility.yul\":5986:5990   */\n      dup2\n        /* \"#utility.yul\":5982:6002   */\n      sub\n        /* \"#utility.yul\":5978:5979   */\n      0x00\n        /* \"#utility.yul\":5967:5976   */\n      dup4\n        /* \"#utility.yul\":5963:5980   */\n      add\n        /* \"#utility.yul\":5956:6003   */\n      mstore\n        /* \"#utility.yul\":6020:6151   */\n      tag_223\n        /* \"#utility.yul\":6146:6150   */\n      dup2\n        /* \"#utility.yul\":6020:6151   */\n      tag_183\n      jump\t// in\n    tag_223:\n        /* \"#utility.yul\":6012:6151   */\n      swap1\n      pop\n        /* \"#utility.yul\":5739:6158   */\n      swap2\n      swap1\n      pop\n      jump\t// out\n        /* \"#utility.yul\":6164:6583   */\n    tag_133:\n        /* \"#utility.yul\":6330:6334   */\n      0x00\n        /* \"#utility.yul\":6368:6370   */\n      0x20\n        /* \"#utility.yul\":6357:6366   */\n      dup3\n        /* \"#utility.yul\":6353:6371   */\n      add\n        /* \"#utility.yul\":6345:6371   */\n      swap1\n      pop\n        /* \"#utility.yul\":6417:6426   */\n      dup2\n        /* \"#utility.yul\":6411:6415   */\n      dup2\n        /* \"#utility.yul\":6407:6427   */\n      sub\n        /* \"#utility.yul\":6403:6404   */\n      0x00\n        /* \"#utility.yul\":6392:6401   */\n      dup4\n        /* \"#utility.yul\":6388:6405   */\n      add\n        /* \"#utility.yul\":6381:6428   */\n      mstore\n        /* \"#utility.yul\":6445:6576   */\n      tag_225\n        /* \"#utility.yul\":6571:6575   */\n      dup2\n        /* \"#utility.yul\":6445:6576   */\n      tag_189\n      jump\t// in\n    tag_225:\n        /* \"#utility.yul\":6437:6576   */\n      swap1\n      pop\n        /* \"#utility.yul\":6164:6583   */\n      swap2\n      swap1\n      pop\n      jump\t// out\n        /* \"#utility.yul\":6589:7008   */\n    tag_125:\n        /* \"#utility.yul\":6755:6759   */\n      0x00\n        /* \"#utility.yul\":6793:6795   */\n      0x20\n        /* \"#utility.yul\":6782:6791   */\n      dup3\n        /* \"#utility.yul\":6778:6796   */\n      add\n        /* \"#utility.yul\":6770:6796   */\n      swap1\n      pop\n        /* \"#utility.yul\":6842:6851   */\n      dup2\n        /* \"#utility.yul\":6836:6840   */\n      dup2\n        /* \"#utility.yul\":6832:6852   */\n      sub\n        /* \"#utility.yul\":6828:6829   */\n      0x00\n        /* \"#utility.yul\":6817:6826   */\n      dup4\n        /* \"#utility.yul\":6813:6830   */\n      add\n        /* \"#utility.yul\":6806:6853   */\n      mstore\n        /* \"#utility.yul\":6870:7001   */\n      tag_227\n        /* \"#utility.yul\":6996:7000   */\n      dup2\n        /* \"#utility.yul\":6870:7001   */\n      tag_194\n      jump\t// in\n    tag_227:\n        /* \"#utility.yul\":6862:7001   */\n      swap1\n      pop\n        /* \"#utility.yul\":6589:7008   */\n      swap2\n      swap1\n      pop\n      jump\t// out\n        /* \"#utility.yul\":7014:7433   */\n    tag_120:\n        /* \"#utility.yul\":7180:7184   */\n      0x00\n        /* \"#utility.yul\":7218:7220   */\n      0x20\n        /* \"#utility.yul\":7207:7216   */\n      dup3\n        /* \"#utility.yul\":7203:7221   */\n      add\n        /* \"#utility.yul\":7195:7221   */\n      swap1\n      pop\n        /* \"#utility.yul\":7267:7276   */\n      dup2\n        /* \"#utility.yul\":7261:7265   */\n      dup2\n        /* \"#utility.yul\":7257:7277   */\n      sub\n        /* \"#utility.yul\":7253:7254   */\n      0x00\n        /* \"#utility.yul\":7242:7251   */\n      dup4\n        /* \"#utility.yul\":7238:7255   */\n      add\n        /* \"#utility.yul\":7231:7278   */\n      mstore\n        /* \"#utility.yul\":7295:7426   */\n      tag_229\n        /* \"#utility.yul\":7421:7425   */\n      dup2\n        /* \"#utility.yul\":7295:7426   */\n      tag_199\n      jump\t// in\n    tag_229:\n        /* \"#utility.yul\":7287:7426   */\n      swap1\n      pop\n        /* \"#utility.yul\":7014:7433   */\n      swap2\n      swap1\n      pop\n      jump\t// out\n        /* \"#utility.yul\":7439:7661   */\n    tag_113:\n        /* \"#utility.yul\":7532:7536   */\n      0x00\n        /* \"#utility.yul\":7570:7572   */\n      0x20\n        /* \"#utility.yul\":7559:7568   */\n      dup3\n        /* \"#utility.yul\":7555:7573   */\n      add\n        /* \"#utility.yul\":7547:7573   */\n      swap1\n      pop\n        /* \"#utility.yul\":7583:7654   */\n      tag_231\n        /* \"#utility.yul\":7651:7652   */\n      0x00\n        /* \"#utility.yul\":7640:7649   */\n      dup4\n        /* \"#utility.yul\":7636:7653   */\n      add\n        /* \"#utility.yul\":7627:7633   */\n      dup5\n        /* \"#utility.yul\":7583:7654   */\n      tag_210\n      jump\t// in\n    tag_231:\n        /* \"#utility.yul\":7439:7661   */\n      swap3\n      swap2\n      pop\n      pop\n      jump\t// out\n        /* \"#utility.yul\":7748:7895   */\n    tag_207:\n        /* \"#utility.yul\":7849:7860   */\n      0x00\n        /* \"#utility.yul\":7886:7889   */\n      dup2\n        /* \"#utility.yul\":7871:7889   */\n      swap1\n      pop\n        /* \"#utility.yul\":7748:7895   */\n      swap3\n      swap2\n      pop\n      pop\n      jump\t// out\n        /* \"#utility.yul\":7901:8070   */\n    tag_186:\n        /* \"#utility.yul\":7985:7996   */\n      0x00\n        /* \"#utility.yul\":8019:8025   */\n      dup3\n        /* \"#utility.yul\":8014:8017   */\n      dup3\n        /* \"#utility.yul\":8007:8026   */\n      mstore\n        /* \"#utility.yul\":8059:8063   */\n      0x20\n        /* \"#utility.yul\":8054:8057   */\n      dup3\n        /* \"#utility.yul\":8050:8064   */\n      add\n        /* \"#utility.yul\":8035:8064   */\n      swap1\n      pop\n        /* \"#utility.yul\":7901:8070   */\n      swap3\n      swap2\n      pop\n      pop\n      jump\t// out\n        /* \"#utility.yul\":8076:8381   */\n    tag_111:\n        /* \"#utility.yul\":8116:8119   */\n      0x00\n        /* \"#utility.yul\":8135:8155   */\n      tag_237\n        /* \"#utility.yul\":8153:8154   */\n      dup3\n        /* \"#utility.yul\":8135:8155   */\n      tag_213\n      jump\t// in\n    tag_237:\n        /* \"#utility.yul\":8130:8155   */\n      swap2\n      pop\n        /* \"#utility.yul\":8169:8189   */\n      tag_238\n        /* \"#utility.yul\":8187:8188   */\n      dup4\n        /* \"#utility.yul\":8169:8189   */\n      tag_213\n      jump\t// in\n    tag_238:\n        /* \"#utility.yul\":8164:8189   */\n      swap3\n      pop\n        /* \"#utility.yul\":8323:8324   */\n      dup3\n        /* \"#utility.yul\":8255:8321   */\n      0xffffffffffffffffffffffffffffffffffffffffffffffffffffffffffffffff\n        /* \"#utility.yul\":8251:8325   */\n      sub\n        /* \"#utility.yul\":8248:8249   */\n      dup3\n        /* \"#utility.yul\":8245:8326   */\n      gt\n        /* \"#utility.yul\":8242:8349   */\n      iszero\n      tag_239\n      jumpi\n        /* \"#utility.yul\":8329:8347   */\n      tag_240\n      tag_241\n      jump\t// in\n    tag_240:\n        /* \"#utility.yul\":8242:8349   */\n    tag_239:\n        /* \"#utility.yul\":8373:8374   */\n      dup3\n        /* \"#utility.yul\":8370:8371   */\n      dup3\n        /* \"#utility.yul\":8366:8375   */\n      add\n        /* \"#utility.yul\":8359:8375   */\n      swap1\n      pop\n        /* \"#utility.yul\":8076:8381   */\n      swap3\n      swap2\n      pop\n      pop\n      jump\t// out\n        /* \"#utility.yul\":8387:8572   */\n    tag_87:\n        /* \"#utility.yul\":8427:8428   */\n      0x00\n        /* \"#utility.yul\":8444:8464   */\n      tag_243\n        /* \"#utility.yul\":8462:8463   */\n      dup3\n        /* \"#utility.yul\":8444:8464   */\n      tag_213\n      jump\t// in\n    tag_243:\n        /* \"#utility.yul\":8439:8464   */\n      swap2\n      pop\n        /* \"#utility.yul\":8478:8498   */\n      tag_244\n        /* \"#utility.yul\":8496:8497   */\n      dup4\n        /* \"#utility.yul\":8478:8498   */\n      tag_213\n      jump\t// in\n    tag_244:\n        /* \"#utility.yul\":8473:8498   */\n      swap3\n      pop\n        /* \"#utility.yul\":8517:8518   */\n      dup3\n        /* \"#utility.yul\":8507:8542   */\n      tag_245\n      jumpi\n        /* \"#utility.yul\":8522:8540   */\n      tag_246\n      tag_247\n      jump\t// in\n    tag_246:\n        /* \"#utility.yul\":8507:8542   */\n    tag_245:\n        /* \"#utility.yul\":8564:8565   */\n      dup3\n        /* \"#utility.yul\":8561:8562   */\n      dup3\n        /* \"#utility.yul\":8557:8566   */\n      div\n        /* \"#utility.yul\":8552:8566   */\n      swap1\n      pop\n        /* \"#utility.yul\":8387:8572   */\n      swap3\n      swap2\n      pop\n      pop\n      jump\t// out\n        /* \"#utility.yul\":8578:8926   */\n    tag_85:\n        /* \"#utility.yul\":8618:8625   */\n      0x00\n        /* \"#utility.yul\":8641:8661   */\n      tag_249\n        /* \"#utility.yul\":8659:8660   */\n      dup3\n        /* \"#utility.yul\":8641:8661   */\n      tag_213\n      jump\t// in\n    tag_249:\n        /* \"#utility.yul\":8636:8661   */\n      swap2\n      pop\n        /* \"#utility.yul\":8675:8695   */\n      tag_250\n        /* \"#utility.yul\":8693:8694   */\n      dup4\n        /* \"#utility.yul\":8675:8695   */\n      tag_213\n      jump\t// in\n    tag_250:\n        /* \"#utility.yul\":8670:8695   */\n      swap3\n      pop\n        /* \"#utility.yul\":8863:8864   */\n      dup2\n        /* \"#utility.yul\":8795:8861   */\n      0xffffffffffffffffffffffffffffffffffffffffffffffffffffffffffffffff\n        /* \"#utility.yul\":8791:8865   */\n      div\n        /* \"#utility.yul\":8788:8789   */\n      dup4\n        /* \"#utility.yul\":8785:8866   */\n      gt\n        /* \"#utility.yul\":8780:8781   */\n      dup3\n        /* \"#utility.yul\":8773:8782   */\n      iszero\n        /* \"#utility.yul\":8766:8783   */\n      iszero\n        /* \"#utility.yul\":8762:8867   */\n      and\n        /* \"#utility.yul\":8759:8890   */\n      iszero\n      tag_251\n      jumpi\n        /* \"#utility.yul\":8870:8888   */\n      tag_252\n      tag_241\n      jump\t// in\n    tag_252:\n        /* \"#utility.yul\":8759:8890   */\n    tag_251:\n        /* \"#utility.yul\":8918:8919   */\n      dup3\n        /* \"#utility.yul\":8915:8916   */\n      dup3\n        /* \"#utility.yul\":8911:8920   */\n      mul\n        /* \"#utility.yul\":8900:8920   */\n      swap1\n      pop\n        /* \"#utility.yul\":8578:8926   */\n      swap3\n      swap2\n      pop\n      pop\n      jump\t// out\n        /* \"#utility.yul\":8932:9123   */\n    tag_89:\n        /* \"#utility.yul\":8972:8976   */\n      0x00\n        /* \"#utility.yul\":8992:9012   */\n      tag_254\n        /* \"#utility.yul\":9010:9011   */\n      dup3\n        /* \"#utility.yul\":8992:9012   */\n      tag_213\n      jump\t// in\n    tag_254:\n        /* \"#utility.yul\":8987:9012   */\n      swap2\n      pop\n        /* \"#utility.yul\":9026:9046   */\n      tag_255\n        /* \"#utility.yul\":9044:9045   */\n      dup4\n        /* \"#utility.yul\":9026:9046   */\n      tag_213\n      jump\t// in\n    tag_255:\n        /* \"#utility.yul\":9021:9046   */\n      swap3\n      pop\n        /* \"#utility.yul\":9065:9066   */\n      dup3\n        /* \"#utility.yul\":9062:9063   */\n      dup3\n        /* \"#utility.yul\":9059:9067   */\n      lt\n        /* \"#utility.yul\":9056:9090   */\n      iszero\n      tag_256\n      jumpi\n        /* \"#utility.yul\":9070:9088   */\n      tag_257\n      tag_241\n      jump\t// in\n    tag_257:\n        /* \"#utility.yul\":9056:9090   */\n    tag_256:\n        /* \"#utility.yul\":9115:9116   */\n      dup3\n        /* \"#utility.yul\":9112:9113   */\n      dup3\n        /* \"#utility.yul\":9108:9117   */\n      sub\n        /* \"#utility.yul\":9100:9117   */\n      swap1\n      pop\n        /* \"#utility.yul\":8932:9123   */\n      swap3\n      swap2\n      pop\n      pop\n      jump\t// out\n        /* \"#utility.yul\":9129:9225   */\n    tag_178:\n        /* \"#utility.yul\":9166:9173   */\n      0x00\n        /* \"#utility.yul\":9195:9219   */\n      tag_259\n        /* \"#utility.yul\":9213:9218   */\n      dup3\n        /* \"#utility.yul\":9195:9219   */\n      tag_260\n      jump\t// in\n    tag_259:\n        /* \"#utility.yul\":9184:9219   */\n      swap1\n      pop\n        /* \"#utility.yul\":9129:9225   */\n      swap2\n      swap1\n      pop\n      jump\t// out\n        /* \"#utility.yul\":9231:9335   */\n    tag_174:\n        /* \"#utility.yul\":9276:9283   */\n      0x00\n        /* \"#utility.yul\":9305:9329   */\n      tag_262\n        /* \"#utility.yul\":9323:9328   */\n      dup3\n        /* \"#utility.yul\":9305:9329   */\n      tag_260\n      jump\t// in\n    tag_262:\n        /* \"#utility.yul\":9294:9329   */\n      swap1\n      pop\n        /* \"#utility.yul\":9231:9335   */\n      swap2\n      swap1\n      pop\n      jump\t// out\n        /* \"#utility.yul\":9341:9431   */\n    tag_182:\n        /* \"#utility.yul\":9375:9382   */\n      0x00\n        /* \"#utility.yul\":9418:9423   */\n      dup2\n        /* \"#utility.yul\":9411:9424   */\n      iszero\n        /* \"#utility.yul\":9404:9425   */\n      iszero\n        /* \"#utility.yul\":9393:9425   */\n      swap1\n      pop\n        /* \"#utility.yul\":9341:9431   */\n      swap2\n      swap1\n      pop\n      jump\t// out\n        /* \"#utility.yul\":9437:9563   */\n    tag_260:\n        /* \"#utility.yul\":9474:9481   */\n      0x00\n        /* \"#utility.yul\":9514:9556   */\n      0xffffffffffffffffffffffffffffffffffffffff\n        /* \"#utility.yul\":9507:9512   */\n      dup3\n        /* \"#utility.yul\":9503:9557   */\n      and\n        /* \"#utility.yul\":9492:9557   */\n      swap1\n      pop\n        /* \"#utility.yul\":9437:9563   */\n      swap2\n      swap1\n      pop\n      jump\t// out\n        /* \"#utility.yul\":9569:9646   */\n    tag_213:\n        /* \"#utility.yul\":9606:9613   */\n      0x00\n        /* \"#utility.yul\":9635:9640   */\n      dup2\n        /* \"#utility.yul\":9624:9640   */\n      swap1\n      pop\n        /* \"#utility.yul\":9569:9646   */\n      swap2\n      swap1\n      pop\n      jump\t// out\n        /* \"#utility.yul\":9652:9832   */\n    tag_241:\n        /* \"#utility.yul\":9700:9777   */\n      0x4e487b7100000000000000000000000000000000000000000000000000000000\n        /* \"#utility.yul\":9697:9698   */\n      0x00\n        /* \"#utility.yul\":9690:9778   */\n      mstore\n        /* \"#utility.yul\":9797:9801   */\n      0x11\n        /* \"#utility.yul\":9794:9795   */\n      0x04\n        /* \"#utility.yul\":9787:9802   */\n      mstore\n        /* \"#utility.yul\":9821:9825   */\n      0x24\n        /* \"#utility.yul\":9818:9819   */\n      0x00\n        /* \"#utility.yul\":9811:9826   */\n      revert\n        /* \"#utility.yul\":9838:10018   */\n    tag_247:\n        /* \"#utility.yul\":9886:9963   */\n      0x4e487b7100000000000000000000000000000000000000000000000000000000\n        /* \"#utility.yul\":9883:9884   */\n      0x00\n        /* \"#utility.yul\":9876:9964   */\n      mstore\n        /* \"#utility.yul\":9983:9987   */\n      0x12\n        /* \"#utility.yul\":9980:9981   */\n      0x04\n        /* \"#utility.yul\":9973:9988   */\n      mstore\n        /* \"#utility.yul\":10007:10011   */\n      0x24\n        /* \"#utility.yul\":10004:10005   */\n      0x00\n        /* \"#utility.yul\":9997:10012   */\n      revert\n        /* \"#utility.yul\":10147:10264   */\n    tag_155:\n        /* \"#utility.yul\":10256:10257   */\n      0x00\n        /* \"#utility.yul\":10253:10254   */\n      dup1\n        /* \"#utility.yul\":10246:10258   */\n      revert\n        /* \"#utility.yul\":10270:10495   */\n    tag_188:\n        /* \"#utility.yul\":10410:10444   */\n      0x4f776e61626c653a206e6577206f776e657220697320746865207a65726f2061\n        /* \"#utility.yul\":10406:10407   */\n      0x00\n        /* \"#utility.yul\":10398:10404   */\n      dup3\n        /* \"#utility.yul\":10394:10408   */\n      add\n        /* \"#utility.yul\":10387:10445   */\n      mstore\n        /* \"#utility.yul\":10479:10487   */\n      0x6464726573730000000000000000000000000000000000000000000000000000\n        /* \"#utility.yul\":10474:10476   */\n      0x20\n        /* \"#utility.yul\":10466:10472   */\n      dup3\n        /* \"#utility.yul\":10462:10477   */\n      add\n        /* \"#utility.yul\":10455:10488   */\n      mstore\n        /* \"#utility.yul\":10270:10495   */\n      pop\n      jump\t// out\n        /* \"#utility.yul\":10501:10746   */\n    tag_193:\n        /* \"#utility.yul\":10641:10675   */\n      0x416464726573733a20756e61626c6520746f2073656e642076616c75652c2072\n        /* \"#utility.yul\":10637:10638   */\n      0x00\n        /* \"#utility.yul\":10629:10635   */\n      dup3\n        /* \"#utility.yul\":10625:10639   */\n      add\n        /* \"#utility.yul\":10618:10676   */\n      mstore\n        /* \"#utility.yul\":10710:10738   */\n      0x6563697069656e74206d61792068617665207265766572746564000000000000\n        /* \"#utility.yul\":10705:10707   */\n      0x20\n        /* \"#utility.yul\":10697:10703   */\n      dup3\n        /* \"#utility.yul\":10693:10708   */\n      add\n        /* \"#utility.yul\":10686:10739   */\n      mstore\n        /* \"#utility.yul\":10501:10746   */\n      pop\n      jump\t// out\n        /* \"#utility.yul\":10752:10931   */\n    tag_198:\n        /* \"#utility.yul\":10892:10923   */\n      0x416464726573733a20696e73756666696369656e742062616c616e6365000000\n        /* \"#utility.yul\":10888:10889   */\n      0x00\n        /* \"#utility.yul\":10880:10886   */\n      dup3\n        /* \"#utility.yul\":10876:10890   */\n      add\n        /* \"#utility.yul\":10869:10924   */\n      mstore\n        /* \"#utility.yul\":10752:10931   */\n      pop\n      jump\t// out\n        /* \"#utility.yul\":10937:11119   */\n    tag_203:\n        /* \"#utility.yul\":11077:11111   */\n      0x4f776e61626c653a2063616c6c6572206973206e6f7420746865206f776e6572\n        /* \"#utility.yul\":11073:11074   */\n      0x00\n        /* \"#utility.yul\":11065:11071   */\n      dup3\n        /* \"#utility.yul\":11061:11075   */\n      add\n        /* \"#utility.yul\":11054:11112   */\n      mstore\n        /* \"#utility.yul\":10937:11119   */\n      pop\n      jump\t// out\n        /* \"#utility.yul\":11125:11239   */\n    tag_209:\n      pop\n      jump\t// out\n        /* \"#utility.yul\":11245:11367   */\n    tag_139:\n        /* \"#utility.yul\":11318:11342   */\n      tag_277\n        /* \"#utility.yul\":11336:11341   */\n      dup2\n        /* \"#utility.yul\":11318:11342   */\n      tag_178\n      jump\t// in\n    tag_277:\n        /* \"#utility.yul\":11311:11316   */\n      dup2\n        /* \"#utility.yul\":11308:11343   */\n      eq\n        /* \"#utility.yul\":11298:11361   */\n      tag_278\n      jumpi\n        /* \"#utility.yul\":11357:11358   */\n      0x00\n        /* \"#utility.yul\":11354:11355   */\n      dup1\n        /* \"#utility.yul\":11347:11359   */\n      revert\n        /* \"#utility.yul\":11298:11361   */\n    tag_278:\n        /* \"#utility.yul\":11245:11367   */\n      pop\n      jump\t// out\n        /* \"#utility.yul\":11373:11511   */\n    tag_143:\n        /* \"#utility.yul\":11454:11486   */\n      tag_280\n        /* \"#utility.yul\":11480:11485   */\n      dup2\n        /* \"#utility.yul\":11454:11486   */\n      tag_174\n      jump\t// in\n    tag_280:\n        /* \"#utility.yul\":11447:11452   */\n      dup2\n        /* \"#utility.yul\":11444:11487   */\n      eq\n        /* \"#utility.yul\":11434:11505   */\n      tag_281\n      jumpi\n        /* \"#utility.yul\":11501:11502   */\n      0x00\n        /* \"#utility.yul\":11498:11499   */\n      dup1\n        /* \"#utility.yul\":11491:11503   */\n      revert\n        /* \"#utility.yul\":11434:11505   */\n    tag_281:\n        /* \"#utility.yul\":11373:11511   */\n      pop\n      jump\t// out\n        /* \"#utility.yul\":11517:11633   */\n    tag_147:\n        /* \"#utility.yul\":11587:11608   */\n      tag_283\n        /* \"#utility.yul\":11602:11607   */\n      dup2\n        /* \"#utility.yul\":11587:11608   */\n      tag_182\n      jump\t// in\n    tag_283:\n        /* \"#utility.yul\":11580:11585   */\n      dup2\n        /* \"#utility.yul\":11577:11609   */\n      eq\n        /* \"#utility.yul\":11567:11627   */\n      tag_284\n      jumpi\n        /* \"#utility.yul\":11623:11624   */\n      0x00\n        /* \"#utility.yul\":11620:11621   */\n      dup1\n        /* \"#utility.yul\":11613:11625   */\n      revert\n        /* \"#utility.yul\":11567:11627   */\n    tag_284:\n        /* \"#utility.yul\":11517:11633   */\n      pop\n      jump\t// out\n        /* \"#utility.yul\":11639:11761   */\n    tag_151:\n        /* \"#utility.yul\":11712:11736   */\n      tag_286\n        /* \"#utility.yul\":11730:11735   */\n      dup2\n        /* \"#utility.yul\":11712:11736   */\n      tag_213\n      jump\t// in\n    tag_286:\n        /* \"#utility.yul\":11705:11710   */\n      dup2\n        /* \"#utility.yul\":11702:11737   */\n      eq\n        /* \"#utility.yul\":11692:11755   */\n      tag_287\n      jumpi\n        /* \"#utility.yul\":11751:11752   */\n      0x00\n        /* \"#utility.yul\":11748:11749   */\n      dup1\n        /* \"#utility.yul\":11741:11753   */\n      revert\n        /* \"#utility.yul\":11692:11755   */\n    tag_287:\n        /* \"#utility.yul\":11639:11761   */\n      pop\n      jump\t// out\n\n    auxdata: 0xa264697066735822122088d1fd387c9e45b7de922877853f3a400713413474d68fcc98ed76bd2de716d764736f6c63430008070033\n}\n",
				"bytecode": {
					"linkReferences": {},
					"object": "608060405234801561001057600080fd5b5061002d61002261003260201b60201c565b61003a60201b60201c565b6100fe565b600033905090565b60008060009054906101000a900473ffffffffffffffffffffffffffffffffffffffff169050816000806101000a81548173ffffffffffffffffffffffffffffffffffffffff021916908373ffffffffffffffffffffffffffffffffffffffff1602179055508173ffffffffffffffffffffffffffffffffffffffff168173ffffffffffffffffffffffffffffffffffffffff167f8be0079c531659141344cd1fd0a4f28419497f9722a3daafe3b4186f6b6457e060405160405180910390a35050565b61101a8061010d6000396000f3fe6080604052600436106100a75760003560e01c8063a1d1936111610064578063a1d1936114610194578063b0568eaa146101bf578063f2fde38b146101d6578063f851a440146101ff578063f9609f081461022a578063fbfd204514610246576100a7565b8063109e94cf146100ac578063251d8cd5146100d75780635e32c42514610100578063715018a6146101295780638da5cb5b146101405780639464c8b81461016b575b600080fd5b3480156100b857600080fd5b506100c1610271565b6040516100ce9190610bbb565b60405180910390f35b3480156100e357600080fd5b506100fe60048036038101906100f99190610a4e565b610297565b005b34801561010c57600080fd5b5061012760048036038101906101229190610a7b565b6102b4565b005b34801561013557600080fd5b5061013e6102d9565b005b34801561014c57600080fd5b506101556102ed565b6040516101629190610bbb565b60405180910390f35b34801561017757600080fd5b50610192600480360381019061018d9190610a4e565b610316565b005b3480156101a057600080fd5b506101a9610333565b6040516101b69190610bf1565b60405180910390f35b3480156101cb57600080fd5b506101d46103a6565b005b3480156101e257600080fd5b506101fd60048036038101906101f891906109e1565b610506565b005b34801561020b57600080fd5b5061021461058a565b6040516102219190610bd6565b60405180910390f35b610244600480360381019061023f9190610a0e565b6105b0565b005b34801561025257600080fd5b5061025b610729565b6040516102689190610bd6565b60405180910390f35b600260009054906101000a900473ffffffffffffffffffffffffffffffffffffffff1681565b80600560006101000a81548160ff02191690831515021790555050565b81600560026101000a81548160ff021916908315150217905550806006819055505050565b6102e161074f565b6102eb60006107cd565b565b60008060009054906101000a900473ffffffffffffffffffffffffffffffffffffffff16905090565b80600560016101000a81548160ff02191690831515021790555050565b600060011515600560009054906101000a900460ff16151514801561036b575060011515600560019054906101000a900460ff161515145b1561037957600190506103a3565b60011515600560029054906101000a900460ff161515141561039e57600190506103a3565b600090505b90565b60004790506000600a6002836103bc9190610d4a565b6103c69190610d19565b9050600081836103d69190610da4565b905060011515600560009054906101000a900460ff16151514801561040e575060011515600560019054906101000a900460ff161515145b8061043a575060011515600560029054906101000a900460ff16151514801561043957506001600654145b5b156104da5761048a81600160009054906101000a900473ffffffffffffffffffffffffffffffffffffffff1673ffffffffffffffffffffffffffffffffffffffff1661089190919063ffffffff16565b6104d582600360009054906101000a900473ffffffffffffffffffffffffffffffffffffffff1673ffffffffffffffffffffffffffffffffffffffff1661089190919063ffffffff16565b610501565b60011515600560029054906101000a900460ff1615151480156104ff57506000600654145b505b505050565b61050e61074f565b600073ffffffffffffffffffffffffffffffffffffffff168173ffffffffffffffffffffffffffffffffffffffff16141561057e576040517f08c379a000000000000000000000000000000000000000000000000000000000815260040161057590610c0c565b60405180910390fd5b610587816107cd565b50565b600360009054906101000a900473ffffffffffffffffffffffffffffffffffffffff1681565b6105b861074f565b81600160006101000a81548173ffffffffffffffffffffffffffffffffffffffff021916908373ffffffffffffffffffffffffffffffffffffffff16021790555033600260006101000a81548173ffffffffffffffffffffffffffffffffffffffff021916908373ffffffffffffffffffffffffffffffffffffffff16021790555080600360006101000a81548173ffffffffffffffffffffffffffffffffffffffff021916908373ffffffffffffffffffffffffffffffffffffffff160217905550600034905080600460008573ffffffffffffffffffffffffffffffffffffffff1673ffffffffffffffffffffffffffffffffffffffff16815260200190815260200160002060008282546106cf9190610cc3565b925050819055508273ffffffffffffffffffffffffffffffffffffffff167f2da466a7b24304f47e87fa2e1e5a81b9831ce54fec19055ce277ca2f39ba42c48260405161071c9190610c8c565b60405180910390a2505050565b600160009054906101000a900473ffffffffffffffffffffffffffffffffffffffff1681565b610757610985565b73ffffffffffffffffffffffffffffffffffffffff166107756102ed565b73ffffffffffffffffffffffffffffffffffffffff16146107cb576040517f08c379a00000000000000000000000000000000000000000000000000000000081526004016107c290610c6c565b60405180910390fd5b565b60008060009054906101000a900473ffffffffffffffffffffffffffffffffffffffff169050816000806101000a81548173ffffffffffffffffffffffffffffffffffffffff021916908373ffffffffffffffffffffffffffffffffffffffff1602179055508173ffffffffffffffffffffffffffffffffffffffff168173ffffffffffffffffffffffffffffffffffffffff167f8be0079c531659141344cd1fd0a4f28419497f9722a3daafe3b4186f6b6457e060405160405180910390a35050565b804710156108d4576040517f08c379a00000000000000000000000000000000000000000000000000000000081526004016108cb90610c4c565b60405180910390fd5b60008273ffffffffffffffffffffffffffffffffffffffff16826040516108fa90610ba6565b60006040518083038185875af1925050503d8060008114610937576040519150601f19603f3d011682016040523d82523d6000602084013e61093c565b606091505b5050905080610980576040517f08c379a000000000000000000000000000000000000000000000000000000000815260040161097790610c2c565b60405180910390fd5b505050565b600033905090565b60008135905061099c81610f88565b92915050565b6000813590506109b181610f9f565b92915050565b6000813590506109c681610fb6565b92915050565b6000813590506109db81610fcd565b92915050565b6000602082840312156109f7576109f6610e90565b5b6000610a058482850161098d565b91505092915050565b60008060408385031215610a2557610a24610e90565b5b6000610a33858286016109a2565b9250506020610a44858286016109a2565b9150509250929050565b600060208284031215610a6457610a63610e90565b5b6000610a72848285016109b7565b91505092915050565b60008060408385031215610a9257610a91610e90565b5b6000610aa0858286016109b7565b9250506020610ab1858286016109cc565b9150509250929050565b610ac481610dea565b82525050565b610ad381610dd8565b82525050565b610ae281610dfc565b82525050565b6000610af5602683610cb2565b9150610b0082610e95565b604082019050919050565b6000610b18603a83610cb2565b9150610b2382610ee4565b604082019050919050565b6000610b3b601d83610cb2565b9150610b4682610f33565b602082019050919050565b6000610b5e602083610cb2565b9150610b6982610f5c565b602082019050919050565b6000610b81600083610ca7565b9150610b8c82610f85565b600082019050919050565b610ba081610e28565b82525050565b6000610bb182610b74565b9150819050919050565b6000602082019050610bd06000830184610aca565b92915050565b6000602082019050610beb6000830184610abb565b92915050565b6000602082019050610c066000830184610ad9565b92915050565b60006020820190508181036000830152610c2581610ae8565b9050919050565b60006020820190508181036000830152610c4581610b0b565b9050919050565b60006020820190508181036000830152610c6581610b2e565b9050919050565b60006020820190508181036000830152610c8581610b51565b9050919050565b6000602082019050610ca16000830184610b97565b92915050565b600081905092915050565b600082825260208201905092915050565b6000610cce82610e28565b9150610cd983610e28565b9250827fffffffffffffffffffffffffffffffffffffffffffffffffffffffffffffffff03821115610d0e57610d0d610e32565b5b828201905092915050565b6000610d2482610e28565b9150610d2f83610e28565b925082610d3f57610d3e610e61565b5b828204905092915050565b6000610d5582610e28565b9150610d6083610e28565b9250817fffffffffffffffffffffffffffffffffffffffffffffffffffffffffffffffff0483118215151615610d9957610d98610e32565b5b828202905092915050565b6000610daf82610e28565b9150610dba83610e28565b925082821015610dcd57610dcc610e32565b5b828203905092915050565b6000610de382610e08565b9050919050565b6000610df582610e08565b9050919050565b60008115159050919050565b600073ffffffffffffffffffffffffffffffffffffffff82169050919050565b6000819050919050565b7f4e487b7100000000000000000000000000000000000000000000000000000000600052601160045260246000fd5b7f4e487b7100000000000000000000000000000000000000000000000000000000600052601260045260246000fd5b600080fd5b7f4f776e61626c653a206e6577206f776e657220697320746865207a65726f206160008201527f6464726573730000000000000000000000000000000000000000000000000000602082015250565b7f416464726573733a20756e61626c6520746f2073656e642076616c75652c207260008201527f6563697069656e74206d61792068617665207265766572746564000000000000602082015250565b7f416464726573733a20696e73756666696369656e742062616c616e6365000000600082015250565b7f4f776e61626c653a2063616c6c6572206973206e6f7420746865206f776e6572600082015250565b50565b610f9181610dd8565b8114610f9c57600080fd5b50565b610fa881610dea565b8114610fb357600080fd5b50565b610fbf81610dfc565b8114610fca57600080fd5b50565b610fd681610e28565b8114610fe157600080fd5b5056fea264697066735822122088d1fd387c9e45b7de922877853f3a400713413474d68fcc98ed76bd2de716d764736f6c63430008070033",
					"opcodes": "PUSH1 0x80 PUSH1 0x40 MSTORE CALLVALUE DUP1 ISZERO PUSH2 0x10 JUMPI PUSH1 0x0 DUP1 REVERT JUMPDEST POP PUSH2 0x2D PUSH2 0x22 PUSH2 0x32 PUSH1 0x20 SHL PUSH1 0x20 SHR JUMP JUMPDEST PUSH2 0x3A PUSH1 0x20 SHL PUSH1 0x20 SHR JUMP JUMPDEST PUSH2 0xFE JUMP JUMPDEST PUSH1 0x0 CALLER SWAP1 POP SWAP1 JUMP JUMPDEST PUSH1 0x0 DUP1 PUSH1 0x0 SWAP1 SLOAD SWAP1 PUSH2 0x100 EXP SWAP1 DIV PUSH20 0xFFFFFFFFFFFFFFFFFFFFFFFFFFFFFFFFFFFFFFFF AND SWAP1 POP DUP2 PUSH1 0x0 DUP1 PUSH2 0x100 EXP DUP2 SLOAD DUP2 PUSH20 0xFFFFFFFFFFFFFFFFFFFFFFFFFFFFFFFFFFFFFFFF MUL NOT AND SWAP1 DUP4 PUSH20 0xFFFFFFFFFFFFFFFFFFFFFFFFFFFFFFFFFFFFFFFF AND MUL OR SWAP1 SSTORE POP DUP2 PUSH20 0xFFFFFFFFFFFFFFFFFFFFFFFFFFFFFFFFFFFFFFFF AND DUP2 PUSH20 0xFFFFFFFFFFFFFFFFFFFFFFFFFFFFFFFFFFFFFFFF AND PUSH32 0x8BE0079C531659141344CD1FD0A4F28419497F9722A3DAAFE3B4186F6B6457E0 PUSH1 0x40 MLOAD PUSH1 0x40 MLOAD DUP1 SWAP2 SUB SWAP1 LOG3 POP POP JUMP JUMPDEST PUSH2 0x101A DUP1 PUSH2 0x10D PUSH1 0x0 CODECOPY PUSH1 0x0 RETURN INVALID PUSH1 0x80 PUSH1 0x40 MSTORE PUSH1 0x4 CALLDATASIZE LT PUSH2 0xA7 JUMPI PUSH1 0x0 CALLDATALOAD PUSH1 0xE0 SHR DUP1 PUSH4 0xA1D19361 GT PUSH2 0x64 JUMPI DUP1 PUSH4 0xA1D19361 EQ PUSH2 0x194 JUMPI DUP1 PUSH4 0xB0568EAA EQ PUSH2 0x1BF JUMPI DUP1 PUSH4 0xF2FDE38B EQ PUSH2 0x1D6 JUMPI DUP1 PUSH4 0xF851A440 EQ PUSH2 0x1FF JUMPI DUP1 PUSH4 0xF9609F08 EQ PUSH2 0x22A JUMPI DUP1 PUSH4 0xFBFD2045 EQ PUSH2 0x246 JUMPI PUSH2 0xA7 JUMP JUMPDEST DUP1 PUSH4 0x109E94CF EQ PUSH2 0xAC JUMPI DUP1 PUSH4 0x251D8CD5 EQ PUSH2 0xD7 JUMPI DUP1 PUSH4 0x5E32C425 EQ PUSH2 0x100 JUMPI DUP1 PUSH4 0x715018A6 EQ PUSH2 0x129 JUMPI DUP1 PUSH4 0x8DA5CB5B EQ PUSH2 0x140 JUMPI DUP1 PUSH4 0x9464C8B8 EQ PUSH2 0x16B JUMPI JUMPDEST PUSH1 0x0 DUP1 REVERT JUMPDEST CALLVALUE DUP1 ISZERO PUSH2 0xB8 JUMPI PUSH1 0x0 DUP1 REVERT JUMPDEST POP PUSH2 0xC1 PUSH2 0x271 JUMP JUMPDEST PUSH1 0x40 MLOAD PUSH2 0xCE SWAP2 SWAP1 PUSH2 0xBBB JUMP JUMPDEST PUSH1 0x40 MLOAD DUP1 SWAP2 SUB SWAP1 RETURN JUMPDEST CALLVALUE DUP1 ISZERO PUSH2 0xE3 JUMPI PUSH1 0x0 DUP1 REVERT JUMPDEST POP PUSH2 0xFE PUSH1 0x4 DUP1 CALLDATASIZE SUB DUP2 ADD SWAP1 PUSH2 0xF9 SWAP2 SWAP1 PUSH2 0xA4E JUMP JUMPDEST PUSH2 0x297 JUMP JUMPDEST STOP JUMPDEST CALLVALUE DUP1 ISZERO PUSH2 0x10C JUMPI PUSH1 0x0 DUP1 REVERT JUMPDEST POP PUSH2 0x127 PUSH1 0x4 DUP1 CALLDATASIZE SUB DUP2 ADD SWAP1 PUSH2 0x122 SWAP2 SWAP1 PUSH2 0xA7B JUMP JUMPDEST PUSH2 0x2B4 JUMP JUMPDEST STOP JUMPDEST CALLVALUE DUP1 ISZERO PUSH2 0x135 JUMPI PUSH1 0x0 DUP1 REVERT JUMPDEST POP PUSH2 0x13E PUSH2 0x2D9 JUMP JUMPDEST STOP JUMPDEST CALLVALUE DUP1 ISZERO PUSH2 0x14C JUMPI PUSH1 0x0 DUP1 REVERT JUMPDEST POP PUSH2 0x155 PUSH2 0x2ED JUMP JUMPDEST PUSH1 0x40 MLOAD PUSH2 0x162 SWAP2 SWAP1 PUSH2 0xBBB JUMP JUMPDEST PUSH1 0x40 MLOAD DUP1 SWAP2 SUB SWAP1 RETURN JUMPDEST CALLVALUE DUP1 ISZERO PUSH2 0x177 JUMPI PUSH1 0x0 DUP1 REVERT JUMPDEST POP PUSH2 0x192 PUSH1 0x4 DUP1 CALLDATASIZE SUB DUP2 ADD SWAP1 PUSH2 0x18D SWAP2 SWAP1 PUSH2 0xA4E JUMP JUMPDEST PUSH2 0x316 JUMP JUMPDEST STOP JUMPDEST CALLVALUE DUP1 ISZERO PUSH2 0x1A0 JUMPI PUSH1 0x0 DUP1 REVERT JUMPDEST POP PUSH2 0x1A9 PUSH2 0x333 JUMP JUMPDEST PUSH1 0x40 MLOAD PUSH2 0x1B6 SWAP2 SWAP1 PUSH2 0xBF1 JUMP JUMPDEST PUSH1 0x40 MLOAD DUP1 SWAP2 SUB SWAP1 RETURN JUMPDEST CALLVALUE DUP1 ISZERO PUSH2 0x1CB JUMPI PUSH1 0x0 DUP1 REVERT JUMPDEST POP PUSH2 0x1D4 PUSH2 0x3A6 JUMP JUMPDEST STOP JUMPDEST CALLVALUE DUP1 ISZERO PUSH2 0x1E2 JUMPI PUSH1 0x0 DUP1 REVERT JUMPDEST POP PUSH2 0x1FD PUSH1 0x4 DUP1 CALLDATASIZE SUB DUP2 ADD SWAP1 PUSH2 0x1F8 SWAP2 SWAP1 PUSH2 0x9E1 JUMP JUMPDEST PUSH2 0x506 JUMP JUMPDEST STOP JUMPDEST CALLVALUE DUP1 ISZERO PUSH2 0x20B JUMPI PUSH1 0x0 DUP1 REVERT JUMPDEST POP PUSH2 0x214 PUSH2 0x58A JUMP JUMPDEST PUSH1 0x40 MLOAD PUSH2 0x221 SWAP2 SWAP1 PUSH2 0xBD6 JUMP JUMPDEST PUSH1 0x40 MLOAD DUP1 SWAP2 SUB SWAP1 RETURN JUMPDEST PUSH2 0x244 PUSH1 0x4 DUP1 CALLDATASIZE SUB DUP2 ADD SWAP1 PUSH2 0x23F SWAP2 SWAP1 PUSH2 0xA0E JUMP JUMPDEST PUSH2 0x5B0 JUMP JUMPDEST STOP JUMPDEST CALLVALUE DUP1 ISZERO PUSH2 0x252 JUMPI PUSH1 0x0 DUP1 REVERT JUMPDEST POP PUSH2 0x25B PUSH2 0x729 JUMP JUMPDEST PUSH1 0x40 MLOAD PUSH2 0x268 SWAP2 SWAP1 PUSH2 0xBD6 JUMP JUMPDEST PUSH1 0x40 MLOAD DUP1 SWAP2 SUB SWAP1 RETURN JUMPDEST PUSH1 0x2 PUSH1 0x0 SWAP1 SLOAD SWAP1 PUSH2 0x100 EXP SWAP1 DIV PUSH20 0xFFFFFFFFFFFFFFFFFFFFFFFFFFFFFFFFFFFFFFFF AND DUP2 JUMP JUMPDEST DUP1 PUSH1 0x5 PUSH1 0x0 PUSH2 0x100 EXP DUP2 SLOAD DUP2 PUSH1 0xFF MUL NOT AND SWAP1 DUP4 ISZERO ISZERO MUL OR SWAP1 SSTORE POP POP JUMP JUMPDEST DUP2 PUSH1 0x5 PUSH1 0x2 PUSH2 0x100 EXP DUP2 SLOAD DUP2 PUSH1 0xFF MUL NOT AND SWAP1 DUP4 ISZERO ISZERO MUL OR SWAP1 SSTORE POP DUP1 PUSH1 0x6 DUP2 SWAP1 SSTORE POP POP POP JUMP JUMPDEST PUSH2 0x2E1 PUSH2 0x74F JUMP JUMPDEST PUSH2 0x2EB PUSH1 0x0 PUSH2 0x7CD JUMP JUMPDEST JUMP JUMPDEST PUSH1 0x0 DUP1 PUSH1 0x0 SWAP1 SLOAD SWAP1 PUSH2 0x100 EXP SWAP1 DIV PUSH20 0xFFFFFFFFFFFFFFFFFFFFFFFFFFFFFFFFFFFFFFFF AND SWAP1 POP SWAP1 JUMP JUMPDEST DUP1 PUSH1 0x5 PUSH1 0x1 PUSH2 0x100 EXP DUP2 SLOAD DUP2 PUSH1 0xFF MUL NOT AND SWAP1 DUP4 ISZERO ISZERO MUL OR SWAP1 SSTORE POP POP JUMP JUMPDEST PUSH1 0x0 PUSH1 0x1 ISZERO ISZERO PUSH1 0x5 PUSH1 0x0 SWAP1 SLOAD SWAP1 PUSH2 0x100 EXP SWAP1 DIV PUSH1 0xFF AND ISZERO ISZERO EQ DUP1 ISZERO PUSH2 0x36B JUMPI POP PUSH1 0x1 ISZERO ISZERO PUSH1 0x5 PUSH1 0x1 SWAP1 SLOAD SWAP1 PUSH2 0x100 EXP SWAP1 DIV PUSH1 0xFF AND ISZERO ISZERO EQ JUMPDEST ISZERO PUSH2 0x379 JUMPI PUSH1 0x1 SWAP1 POP PUSH2 0x3A3 JUMP JUMPDEST PUSH1 0x1 ISZERO ISZERO PUSH1 0x5 PUSH1 0x2 SWAP1 SLOAD SWAP1 PUSH2 0x100 EXP SWAP1 DIV PUSH1 0xFF AND ISZERO ISZERO EQ ISZERO PUSH2 0x39E JUMPI PUSH1 0x1 SWAP1 POP PUSH2 0x3A3 JUMP JUMPDEST PUSH1 0x0 SWAP1 POP JUMPDEST SWAP1 JUMP JUMPDEST PUSH1 0x0 SELFBALANCE SWAP1 POP PUSH1 0x0 PUSH1 0xA PUSH1 0x2 DUP4 PUSH2 0x3BC SWAP2 SWAP1 PUSH2 0xD4A JUMP JUMPDEST PUSH2 0x3C6 SWAP2 SWAP1 PUSH2 0xD19 JUMP JUMPDEST SWAP1 POP PUSH1 0x0 DUP2 DUP4 PUSH2 0x3D6 SWAP2 SWAP1 PUSH2 0xDA4 JUMP JUMPDEST SWAP1 POP PUSH1 0x1 ISZERO ISZERO PUSH1 0x5 PUSH1 0x0 SWAP1 SLOAD SWAP1 PUSH2 0x100 EXP SWAP1 DIV PUSH1 0xFF AND ISZERO ISZERO EQ DUP1 ISZERO PUSH2 0x40E JUMPI POP PUSH1 0x1 ISZERO ISZERO PUSH1 0x5 PUSH1 0x1 SWAP1 SLOAD SWAP1 PUSH2 0x100 EXP SWAP1 DIV PUSH1 0xFF AND ISZERO ISZERO EQ JUMPDEST DUP1 PUSH2 0x43A JUMPI POP PUSH1 0x1 ISZERO ISZERO PUSH1 0x5 PUSH1 0x2 SWAP1 SLOAD SWAP1 PUSH2 0x100 EXP SWAP1 DIV PUSH1 0xFF AND ISZERO ISZERO EQ DUP1 ISZERO PUSH2 0x439 JUMPI POP PUSH1 0x1 PUSH1 0x6 SLOAD EQ JUMPDEST JUMPDEST ISZERO PUSH2 0x4DA JUMPI PUSH2 0x48A DUP2 PUSH1 0x1 PUSH1 0x0 SWAP1 SLOAD SWAP1 PUSH2 0x100 EXP SWAP1 DIV PUSH20 0xFFFFFFFFFFFFFFFFFFFFFFFFFFFFFFFFFFFFFFFF AND PUSH20 0xFFFFFFFFFFFFFFFFFFFFFFFFFFFFFFFFFFFFFFFF AND PUSH2 0x891 SWAP1 SWAP2 SWAP1 PUSH4 0xFFFFFFFF AND JUMP JUMPDEST PUSH2 0x4D5 DUP3 PUSH1 0x3 PUSH1 0x0 SWAP1 SLOAD SWAP1 PUSH2 0x100 EXP SWAP1 DIV PUSH20 0xFFFFFFFFFFFFFFFFFFFFFFFFFFFFFFFFFFFFFFFF AND PUSH20 0xFFFFFFFFFFFFFFFFFFFFFFFFFFFFFFFFFFFFFFFF AND PUSH2 0x891 SWAP1 SWAP2 SWAP1 PUSH4 0xFFFFFFFF AND JUMP JUMPDEST PUSH2 0x501 JUMP JUMPDEST PUSH1 0x1 ISZERO ISZERO PUSH1 0x5 PUSH1 0x2 SWAP1 SLOAD SWAP1 PUSH2 0x100 EXP SWAP1 DIV PUSH1 0xFF AND ISZERO ISZERO EQ DUP1 ISZERO PUSH2 0x4FF JUMPI POP PUSH1 0x0 PUSH1 0x6 SLOAD EQ JUMPDEST POP JUMPDEST POP POP POP JUMP JUMPDEST PUSH2 0x50E PUSH2 0x74F JUMP JUMPDEST PUSH1 0x0 PUSH20 0xFFFFFFFFFFFFFFFFFFFFFFFFFFFFFFFFFFFFFFFF AND DUP2 PUSH20 0xFFFFFFFFFFFFFFFFFFFFFFFFFFFFFFFFFFFFFFFF AND EQ ISZERO PUSH2 0x57E JUMPI PUSH1 0x40 MLOAD PUSH32 0x8C379A000000000000000000000000000000000000000000000000000000000 DUP2 MSTORE PUSH1 0x4 ADD PUSH2 0x575 SWAP1 PUSH2 0xC0C JUMP JUMPDEST PUSH1 0x40 MLOAD DUP1 SWAP2 SUB SWAP1 REVERT JUMPDEST PUSH2 0x587 DUP2 PUSH2 0x7CD JUMP JUMPDEST POP JUMP JUMPDEST PUSH1 0x3 PUSH1 0x0 SWAP1 SLOAD SWAP1 PUSH2 0x100 EXP SWAP1 DIV PUSH20 0xFFFFFFFFFFFFFFFFFFFFFFFFFFFFFFFFFFFFFFFF AND DUP2 JUMP JUMPDEST PUSH2 0x5B8 PUSH2 0x74F JUMP JUMPDEST DUP2 PUSH1 0x1 PUSH1 0x0 PUSH2 0x100 EXP DUP2 SLOAD DUP2 PUSH20 0xFFFFFFFFFFFFFFFFFFFFFFFFFFFFFFFFFFFFFFFF MUL NOT AND SWAP1 DUP4 PUSH20 0xFFFFFFFFFFFFFFFFFFFFFFFFFFFFFFFFFFFFFFFF AND MUL OR SWAP1 SSTORE POP CALLER PUSH1 0x2 PUSH1 0x0 PUSH2 0x100 EXP DUP2 SLOAD DUP2 PUSH20 0xFFFFFFFFFFFFFFFFFFFFFFFFFFFFFFFFFFFFFFFF MUL NOT AND SWAP1 DUP4 PUSH20 0xFFFFFFFFFFFFFFFFFFFFFFFFFFFFFFFFFFFFFFFF AND MUL OR SWAP1 SSTORE POP DUP1 PUSH1 0x3 PUSH1 0x0 PUSH2 0x100 EXP DUP2 SLOAD DUP2 PUSH20 0xFFFFFFFFFFFFFFFFFFFFFFFFFFFFFFFFFFFFFFFF MUL NOT AND SWAP1 DUP4 PUSH20 0xFFFFFFFFFFFFFFFFFFFFFFFFFFFFFFFFFFFFFFFF AND MUL OR SWAP1 SSTORE POP PUSH1 0x0 CALLVALUE SWAP1 POP DUP1 PUSH1 0x4 PUSH1 0x0 DUP6 PUSH20 0xFFFFFFFFFFFFFFFFFFFFFFFFFFFFFFFFFFFFFFFF AND PUSH20 0xFFFFFFFFFFFFFFFFFFFFFFFFFFFFFFFFFFFFFFFF AND DUP2 MSTORE PUSH1 0x20 ADD SWAP1 DUP2 MSTORE PUSH1 0x20 ADD PUSH1 0x0 KECCAK256 PUSH1 0x0 DUP3 DUP3 SLOAD PUSH2 0x6CF SWAP2 SWAP1 PUSH2 0xCC3 JUMP JUMPDEST SWAP3 POP POP DUP2 SWAP1 SSTORE POP DUP3 PUSH20 0xFFFFFFFFFFFFFFFFFFFFFFFFFFFFFFFFFFFFFFFF AND PUSH32 0x2DA466A7B24304F47E87FA2E1E5A81B9831CE54FEC19055CE277CA2F39BA42C4 DUP3 PUSH1 0x40 MLOAD PUSH2 0x71C SWAP2 SWAP1 PUSH2 0xC8C JUMP JUMPDEST PUSH1 0x40 MLOAD DUP1 SWAP2 SUB SWAP1 LOG2 POP POP POP JUMP JUMPDEST PUSH1 0x1 PUSH1 0x0 SWAP1 SLOAD SWAP1 PUSH2 0x100 EXP SWAP1 DIV PUSH20 0xFFFFFFFFFFFFFFFFFFFFFFFFFFFFFFFFFFFFFFFF AND DUP2 JUMP JUMPDEST PUSH2 0x757 PUSH2 0x985 JUMP JUMPDEST PUSH20 0xFFFFFFFFFFFFFFFFFFFFFFFFFFFFFFFFFFFFFFFF AND PUSH2 0x775 PUSH2 0x2ED JUMP JUMPDEST PUSH20 0xFFFFFFFFFFFFFFFFFFFFFFFFFFFFFFFFFFFFFFFF AND EQ PUSH2 0x7CB JUMPI PUSH1 0x40 MLOAD PUSH32 0x8C379A000000000000000000000000000000000000000000000000000000000 DUP2 MSTORE PUSH1 0x4 ADD PUSH2 0x7C2 SWAP1 PUSH2 0xC6C JUMP JUMPDEST PUSH1 0x40 MLOAD DUP1 SWAP2 SUB SWAP1 REVERT JUMPDEST JUMP JUMPDEST PUSH1 0x0 DUP1 PUSH1 0x0 SWAP1 SLOAD SWAP1 PUSH2 0x100 EXP SWAP1 DIV PUSH20 0xFFFFFFFFFFFFFFFFFFFFFFFFFFFFFFFFFFFFFFFF AND SWAP1 POP DUP2 PUSH1 0x0 DUP1 PUSH2 0x100 EXP DUP2 SLOAD DUP2 PUSH20 0xFFFFFFFFFFFFFFFFFFFFFFFFFFFFFFFFFFFFFFFF MUL NOT AND SWAP1 DUP4 PUSH20 0xFFFFFFFFFFFFFFFFFFFFFFFFFFFFFFFFFFFFFFFF AND MUL OR SWAP1 SSTORE POP DUP2 PUSH20 0xFFFFFFFFFFFFFFFFFFFFFFFFFFFFFFFFFFFFFFFF AND DUP2 PUSH20 0xFFFFFFFFFFFFFFFFFFFFFFFFFFFFFFFFFFFFFFFF AND PUSH32 0x8BE0079C531659141344CD1FD0A4F28419497F9722A3DAAFE3B4186F6B6457E0 PUSH1 0x40 MLOAD PUSH1 0x40 MLOAD DUP1 SWAP2 SUB SWAP1 LOG3 POP POP JUMP JUMPDEST DUP1 SELFBALANCE LT ISZERO PUSH2 0x8D4 JUMPI PUSH1 0x40 MLOAD PUSH32 0x8C379A000000000000000000000000000000000000000000000000000000000 DUP2 MSTORE PUSH1 0x4 ADD PUSH2 0x8CB SWAP1 PUSH2 0xC4C JUMP JUMPDEST PUSH1 0x40 MLOAD DUP1 SWAP2 SUB SWAP1 REVERT JUMPDEST PUSH1 0x0 DUP3 PUSH20 0xFFFFFFFFFFFFFFFFFFFFFFFFFFFFFFFFFFFFFFFF AND DUP3 PUSH1 0x40 MLOAD PUSH2 0x8FA SWAP1 PUSH2 0xBA6 JUMP JUMPDEST PUSH1 0x0 PUSH1 0x40 MLOAD DUP1 DUP4 SUB DUP2 DUP6 DUP8 GAS CALL SWAP3 POP POP POP RETURNDATASIZE DUP1 PUSH1 0x0 DUP2 EQ PUSH2 0x937 JUMPI PUSH1 0x40 MLOAD SWAP2 POP PUSH1 0x1F NOT PUSH1 0x3F RETURNDATASIZE ADD AND DUP3 ADD PUSH1 0x40 MSTORE RETURNDATASIZE DUP3 MSTORE RETURNDATASIZE PUSH1 0x0 PUSH1 0x20 DUP5 ADD RETURNDATACOPY PUSH2 0x93C JUMP JUMPDEST PUSH1 0x60 SWAP2 POP JUMPDEST POP POP SWAP1 POP DUP1 PUSH2 0x980 JUMPI PUSH1 0x40 MLOAD PUSH32 0x8C379A000000000000000000000000000000000000000000000000000000000 DUP2 MSTORE PUSH1 0x4 ADD PUSH2 0x977 SWAP1 PUSH2 0xC2C JUMP JUMPDEST PUSH1 0x40 MLOAD DUP1 SWAP2 SUB SWAP1 REVERT JUMPDEST POP POP POP JUMP JUMPDEST PUSH1 0x0 CALLER SWAP1 POP SWAP1 JUMP JUMPDEST PUSH1 0x0 DUP2 CALLDATALOAD SWAP1 POP PUSH2 0x99C DUP2 PUSH2 0xF88 JUMP JUMPDEST SWAP3 SWAP2 POP POP JUMP JUMPDEST PUSH1 0x0 DUP2 CALLDATALOAD SWAP1 POP PUSH2 0x9B1 DUP2 PUSH2 0xF9F JUMP JUMPDEST SWAP3 SWAP2 POP POP JUMP JUMPDEST PUSH1 0x0 DUP2 CALLDATALOAD SWAP1 POP PUSH2 0x9C6 DUP2 PUSH2 0xFB6 JUMP JUMPDEST SWAP3 SWAP2 POP POP JUMP JUMPDEST PUSH1 0x0 DUP2 CALLDATALOAD SWAP1 POP PUSH2 0x9DB DUP2 PUSH2 0xFCD JUMP JUMPDEST SWAP3 SWAP2 POP POP JUMP JUMPDEST PUSH1 0x0 PUSH1 0x20 DUP3 DUP5 SUB SLT ISZERO PUSH2 0x9F7 JUMPI PUSH2 0x9F6 PUSH2 0xE90 JUMP JUMPDEST JUMPDEST PUSH1 0x0 PUSH2 0xA05 DUP5 DUP3 DUP6 ADD PUSH2 0x98D JUMP JUMPDEST SWAP2 POP POP SWAP3 SWAP2 POP POP JUMP JUMPDEST PUSH1 0x0 DUP1 PUSH1 0x40 DUP4 DUP6 SUB SLT ISZERO PUSH2 0xA25 JUMPI PUSH2 0xA24 PUSH2 0xE90 JUMP JUMPDEST JUMPDEST PUSH1 0x0 PUSH2 0xA33 DUP6 DUP3 DUP7 ADD PUSH2 0x9A2 JUMP JUMPDEST SWAP3 POP POP PUSH1 0x20 PUSH2 0xA44 DUP6 DUP3 DUP7 ADD PUSH2 0x9A2 JUMP JUMPDEST SWAP2 POP POP SWAP3 POP SWAP3 SWAP1 POP JUMP JUMPDEST PUSH1 0x0 PUSH1 0x20 DUP3 DUP5 SUB SLT ISZERO PUSH2 0xA64 JUMPI PUSH2 0xA63 PUSH2 0xE90 JUMP JUMPDEST JUMPDEST PUSH1 0x0 PUSH2 0xA72 DUP5 DUP3 DUP6 ADD PUSH2 0x9B7 JUMP JUMPDEST SWAP2 POP POP SWAP3 SWAP2 POP POP JUMP JUMPDEST PUSH1 0x0 DUP1 PUSH1 0x40 DUP4 DUP6 SUB SLT ISZERO PUSH2 0xA92 JUMPI PUSH2 0xA91 PUSH2 0xE90 JUMP JUMPDEST JUMPDEST PUSH1 0x0 PUSH2 0xAA0 DUP6 DUP3 DUP7 ADD PUSH2 0x9B7 JUMP JUMPDEST SWAP3 POP POP PUSH1 0x20 PUSH2 0xAB1 DUP6 DUP3 DUP7 ADD PUSH2 0x9CC JUMP JUMPDEST SWAP2 POP POP SWAP3 POP SWAP3 SWAP1 POP JUMP JUMPDEST PUSH2 0xAC4 DUP2 PUSH2 0xDEA JUMP JUMPDEST DUP3 MSTORE POP POP JUMP JUMPDEST PUSH2 0xAD3 DUP2 PUSH2 0xDD8 JUMP JUMPDEST DUP3 MSTORE POP POP JUMP JUMPDEST PUSH2 0xAE2 DUP2 PUSH2 0xDFC JUMP JUMPDEST DUP3 MSTORE POP POP JUMP JUMPDEST PUSH1 0x0 PUSH2 0xAF5 PUSH1 0x26 DUP4 PUSH2 0xCB2 JUMP JUMPDEST SWAP2 POP PUSH2 0xB00 DUP3 PUSH2 0xE95 JUMP JUMPDEST PUSH1 0x40 DUP3 ADD SWAP1 POP SWAP2 SWAP1 POP JUMP JUMPDEST PUSH1 0x0 PUSH2 0xB18 PUSH1 0x3A DUP4 PUSH2 0xCB2 JUMP JUMPDEST SWAP2 POP PUSH2 0xB23 DUP3 PUSH2 0xEE4 JUMP JUMPDEST PUSH1 0x40 DUP3 ADD SWAP1 POP SWAP2 SWAP1 POP JUMP JUMPDEST PUSH1 0x0 PUSH2 0xB3B PUSH1 0x1D DUP4 PUSH2 0xCB2 JUMP JUMPDEST SWAP2 POP PUSH2 0xB46 DUP3 PUSH2 0xF33 JUMP JUMPDEST PUSH1 0x20 DUP3 ADD SWAP1 POP SWAP2 SWAP1 POP JUMP JUMPDEST PUSH1 0x0 PUSH2 0xB5E PUSH1 0x20 DUP4 PUSH2 0xCB2 JUMP JUMPDEST SWAP2 POP PUSH2 0xB69 DUP3 PUSH2 0xF5C JUMP JUMPDEST PUSH1 0x20 DUP3 ADD SWAP1 POP SWAP2 SWAP1 POP JUMP JUMPDEST PUSH1 0x0 PUSH2 0xB81 PUSH1 0x0 DUP4 PUSH2 0xCA7 JUMP JUMPDEST SWAP2 POP PUSH2 0xB8C DUP3 PUSH2 0xF85 JUMP JUMPDEST PUSH1 0x0 DUP3 ADD SWAP1 POP SWAP2 SWAP1 POP JUMP JUMPDEST PUSH2 0xBA0 DUP2 PUSH2 0xE28 JUMP JUMPDEST DUP3 MSTORE POP POP JUMP JUMPDEST PUSH1 0x0 PUSH2 0xBB1 DUP3 PUSH2 0xB74 JUMP JUMPDEST SWAP2 POP DUP2 SWAP1 POP SWAP2 SWAP1 POP JUMP JUMPDEST PUSH1 0x0 PUSH1 0x20 DUP3 ADD SWAP1 POP PUSH2 0xBD0 PUSH1 0x0 DUP4 ADD DUP5 PUSH2 0xACA JUMP JUMPDEST SWAP3 SWAP2 POP POP JUMP JUMPDEST PUSH1 0x0 PUSH1 0x20 DUP3 ADD SWAP1 POP PUSH2 0xBEB PUSH1 0x0 DUP4 ADD DUP5 PUSH2 0xABB JUMP JUMPDEST SWAP3 SWAP2 POP POP JUMP JUMPDEST PUSH1 0x0 PUSH1 0x20 DUP3 ADD SWAP1 POP PUSH2 0xC06 PUSH1 0x0 DUP4 ADD DUP5 PUSH2 0xAD9 JUMP JUMPDEST SWAP3 SWAP2 POP POP JUMP JUMPDEST PUSH1 0x0 PUSH1 0x20 DUP3 ADD SWAP1 POP DUP2 DUP2 SUB PUSH1 0x0 DUP4 ADD MSTORE PUSH2 0xC25 DUP2 PUSH2 0xAE8 JUMP JUMPDEST SWAP1 POP SWAP2 SWAP1 POP JUMP JUMPDEST PUSH1 0x0 PUSH1 0x20 DUP3 ADD SWAP1 POP DUP2 DUP2 SUB PUSH1 0x0 DUP4 ADD MSTORE PUSH2 0xC45 DUP2 PUSH2 0xB0B JUMP JUMPDEST SWAP1 POP SWAP2 SWAP1 POP JUMP JUMPDEST PUSH1 0x0 PUSH1 0x20 DUP3 ADD SWAP1 POP DUP2 DUP2 SUB PUSH1 0x0 DUP4 ADD MSTORE PUSH2 0xC65 DUP2 PUSH2 0xB2E JUMP JUMPDEST SWAP1 POP SWAP2 SWAP1 POP JUMP JUMPDEST PUSH1 0x0 PUSH1 0x20 DUP3 ADD SWAP1 POP DUP2 DUP2 SUB PUSH1 0x0 DUP4 ADD MSTORE PUSH2 0xC85 DUP2 PUSH2 0xB51 JUMP JUMPDEST SWAP1 POP SWAP2 SWAP1 POP JUMP JUMPDEST PUSH1 0x0 PUSH1 0x20 DUP3 ADD SWAP1 POP PUSH2 0xCA1 PUSH1 0x0 DUP4 ADD DUP5 PUSH2 0xB97 JUMP JUMPDEST SWAP3 SWAP2 POP POP JUMP JUMPDEST PUSH1 0x0 DUP2 SWAP1 POP SWAP3 SWAP2 POP POP JUMP JUMPDEST PUSH1 0x0 DUP3 DUP3 MSTORE PUSH1 0x20 DUP3 ADD SWAP1 POP SWAP3 SWAP2 POP POP JUMP JUMPDEST PUSH1 0x0 PUSH2 0xCCE DUP3 PUSH2 0xE28 JUMP JUMPDEST SWAP2 POP PUSH2 0xCD9 DUP4 PUSH2 0xE28 JUMP JUMPDEST SWAP3 POP DUP3 PUSH32 0xFFFFFFFFFFFFFFFFFFFFFFFFFFFFFFFFFFFFFFFFFFFFFFFFFFFFFFFFFFFFFFFF SUB DUP3 GT ISZERO PUSH2 0xD0E JUMPI PUSH2 0xD0D PUSH2 0xE32 JUMP JUMPDEST JUMPDEST DUP3 DUP3 ADD SWAP1 POP SWAP3 SWAP2 POP POP JUMP JUMPDEST PUSH1 0x0 PUSH2 0xD24 DUP3 PUSH2 0xE28 JUMP JUMPDEST SWAP2 POP PUSH2 0xD2F DUP4 PUSH2 0xE28 JUMP JUMPDEST SWAP3 POP DUP3 PUSH2 0xD3F JUMPI PUSH2 0xD3E PUSH2 0xE61 JUMP JUMPDEST JUMPDEST DUP3 DUP3 DIV SWAP1 POP SWAP3 SWAP2 POP POP JUMP JUMPDEST PUSH1 0x0 PUSH2 0xD55 DUP3 PUSH2 0xE28 JUMP JUMPDEST SWAP2 POP PUSH2 0xD60 DUP4 PUSH2 0xE28 JUMP JUMPDEST SWAP3 POP DUP2 PUSH32 0xFFFFFFFFFFFFFFFFFFFFFFFFFFFFFFFFFFFFFFFFFFFFFFFFFFFFFFFFFFFFFFFF DIV DUP4 GT DUP3 ISZERO ISZERO AND ISZERO PUSH2 0xD99 JUMPI PUSH2 0xD98 PUSH2 0xE32 JUMP JUMPDEST JUMPDEST DUP3 DUP3 MUL SWAP1 POP SWAP3 SWAP2 POP POP JUMP JUMPDEST PUSH1 0x0 PUSH2 0xDAF DUP3 PUSH2 0xE28 JUMP JUMPDEST SWAP2 POP PUSH2 0xDBA DUP4 PUSH2 0xE28 JUMP JUMPDEST SWAP3 POP DUP3 DUP3 LT ISZERO PUSH2 0xDCD JUMPI PUSH2 0xDCC PUSH2 0xE32 JUMP JUMPDEST JUMPDEST DUP3 DUP3 SUB SWAP1 POP SWAP3 SWAP2 POP POP JUMP JUMPDEST PUSH1 0x0 PUSH2 0xDE3 DUP3 PUSH2 0xE08 JUMP JUMPDEST SWAP1 POP SWAP2 SWAP1 POP JUMP JUMPDEST PUSH1 0x0 PUSH2 0xDF5 DUP3 PUSH2 0xE08 JUMP JUMPDEST SWAP1 POP SWAP2 SWAP1 POP JUMP JUMPDEST PUSH1 0x0 DUP2 ISZERO ISZERO SWAP1 POP SWAP2 SWAP1 POP JUMP JUMPDEST PUSH1 0x0 PUSH20 0xFFFFFFFFFFFFFFFFFFFFFFFFFFFFFFFFFFFFFFFF DUP3 AND SWAP1 POP SWAP2 SWAP1 POP JUMP JUMPDEST PUSH1 0x0 DUP2 SWAP1 POP SWAP2 SWAP1 POP JUMP JUMPDEST PUSH32 0x4E487B7100000000000000000000000000000000000000000000000000000000 PUSH1 0x0 MSTORE PUSH1 0x11 PUSH1 0x4 MSTORE PUSH1 0x24 PUSH1 0x0 REVERT JUMPDEST PUSH32 0x4E487B7100000000000000000000000000000000000000000000000000000000 PUSH1 0x0 MSTORE PUSH1 0x12 PUSH1 0x4 MSTORE PUSH1 0x24 PUSH1 0x0 REVERT JUMPDEST PUSH1 0x0 DUP1 REVERT JUMPDEST PUSH32 0x4F776E61626C653A206E6577206F776E657220697320746865207A65726F2061 PUSH1 0x0 DUP3 ADD MSTORE PUSH32 0x6464726573730000000000000000000000000000000000000000000000000000 PUSH1 0x20 DUP3 ADD MSTORE POP JUMP JUMPDEST PUSH32 0x416464726573733A20756E61626C6520746F2073656E642076616C75652C2072 PUSH1 0x0 DUP3 ADD MSTORE PUSH32 0x6563697069656E74206D61792068617665207265766572746564000000000000 PUSH1 0x20 DUP3 ADD MSTORE POP JUMP JUMPDEST PUSH32 0x416464726573733A20696E73756666696369656E742062616C616E6365000000 PUSH1 0x0 DUP3 ADD MSTORE POP JUMP JUMPDEST PUSH32 0x4F776E61626C653A2063616C6C6572206973206E6F7420746865206F776E6572 PUSH1 0x0 DUP3 ADD MSTORE POP JUMP JUMPDEST POP JUMP JUMPDEST PUSH2 0xF91 DUP2 PUSH2 0xDD8 JUMP JUMPDEST DUP2 EQ PUSH2 0xF9C JUMPI PUSH1 0x0 DUP1 REVERT JUMPDEST POP JUMP JUMPDEST PUSH2 0xFA8 DUP2 PUSH2 0xDEA JUMP JUMPDEST DUP2 EQ PUSH2 0xFB3 JUMPI PUSH1 0x0 DUP1 REVERT JUMPDEST POP JUMP JUMPDEST PUSH2 0xFBF DUP2 PUSH2 0xDFC JUMP JUMPDEST DUP2 EQ PUSH2 0xFCA JUMPI PUSH1 0x0 DUP1 REVERT JUMPDEST POP JUMP JUMPDEST PUSH2 0xFD6 DUP2 PUSH2 0xE28 JUMP JUMPDEST DUP2 EQ PUSH2 0xFE1 JUMPI PUSH1 0x0 DUP1 REVERT JUMPDEST POP JUMP INVALID LOG2 PUSH5 0x6970667358 0x22 SLT KECCAK256 DUP9 0xD1 REVERT CODESIZE PUSH29 0x9E45B7DE922877853F3A400713413474D68FCC98ED76BD2DE716D76473 PUSH16 0x6C634300080700330000000000000000 "
				},
				"gasEstimates": {
					"creation": {
						"codeDepositCost": "824400",
						"executionCost": "infinite",
						"totalCost": "infinite"
					},
					"external": {
						"admin()": "2580",
						"adminResolutionStatus(bool,uint256)": "47061",
						"client()": "2515",
						"contractor()": "2624",
						"deposit(address,address)": "infinite",
						"owner()": "2611",
						"renounceOwnership()": "30465",
						"taskCompletionStatus(bool)": "24702",
						"taskValidationStatus(bool)": "24840",
						"testPayment()": "infinite",
						"transferOwnership(address)": "30791",
						"withdrawalAllowed()": "6981"
					}
				},
				"methodIdentifiers": {
					"admin()": "f851a440",
					"adminResolutionStatus(bool,uint256)": "5e32c425",
					"client()": "109e94cf",
					"contractor()": "fbfd2045",
					"deposit(address,address)": "f9609f08",
					"owner()": "8da5cb5b",
					"renounceOwnership()": "715018a6",
					"taskCompletionStatus(bool)": "251d8cd5",
					"taskValidationStatus(bool)": "9464c8b8",
					"testPayment()": "b0568eaa",
					"transferOwnership(address)": "f2fde38b",
					"withdrawalAllowed()": "a1d19361"
				}
			},
			"storageLayout": {
				"storage": [
					{
						"astId": 7,
						"contract": "contracts/Escrow.sol:Escrow",
						"label": "_owner",
						"offset": 0,
						"slot": "0",
						"type": "t_address"
					},
					{
						"astId": 446,
						"contract": "contracts/Escrow.sol:Escrow",
						"label": "contractor",
						"offset": 0,
						"slot": "1",
						"type": "t_address_payable"
					},
					{
						"astId": 448,
						"contract": "contracts/Escrow.sol:Escrow",
						"label": "client",
						"offset": 0,
						"slot": "2",
						"type": "t_address"
					},
					{
						"astId": 450,
						"contract": "contracts/Escrow.sol:Escrow",
						"label": "admin",
						"offset": 0,
						"slot": "3",
						"type": "t_address_payable"
					},
					{
						"astId": 454,
						"contract": "contracts/Escrow.sol:Escrow",
						"label": "_deposits",
						"offset": 0,
						"slot": "4",
						"type": "t_mapping(t_address,t_uint256)"
					},
					{
						"astId": 495,
						"contract": "contracts/Escrow.sol:Escrow",
						"label": "taskCompleted",
						"offset": 0,
						"slot": "5",
						"type": "t_bool"
					},
					{
						"astId": 497,
						"contract": "contracts/Escrow.sol:Escrow",
						"label": "taskValidated",
						"offset": 1,
						"slot": "5",
						"type": "t_bool"
					},
					{
						"astId": 499,
						"contract": "contracts/Escrow.sol:Escrow",
						"label": "adminResolution",
						"offset": 2,
						"slot": "5",
						"type": "t_bool"
					},
					{
						"astId": 501,
						"contract": "contracts/Escrow.sol:Escrow",
						"label": "adminDecision",
						"offset": 0,
						"slot": "6",
						"type": "t_uint256"
					}
				],
				"types": {
					"t_address": {
						"encoding": "inplace",
						"label": "address",
						"numberOfBytes": "20"
					},
					"t_address_payable": {
						"encoding": "inplace",
						"label": "address payable",
						"numberOfBytes": "20"
					},
					"t_bool": {
						"encoding": "inplace",
						"label": "bool",
						"numberOfBytes": "1"
					},
					"t_mapping(t_address,t_uint256)": {
						"encoding": "mapping",
						"key": "t_address",
						"label": "mapping(address => uint256)",
						"numberOfBytes": "32",
						"value": "t_uint256"
					},
					"t_uint256": {
						"encoding": "inplace",
						"label": "uint256",
						"numberOfBytes": "32"
					}
				}
			},
			"userdoc": {
				"kind": "user",
				"methods": {},
				"version": 1
			}
		}
	}
}