{
	"contracts/Escrow.sol": {
		"Escrow": {
			"abi": [
				{
					"anonymous": false,
					"inputs": [
						{
							"indexed": true,
							"internalType": "address",
							"name": "payee",
							"type": "address"
						}
					],
					"name": "ContractorAdded",
					"type": "event"
				},
				{
					"anonymous": false,
					"inputs": [
						{
							"indexed": true,
							"internalType": "address",
							"name": "payee",
							"type": "address"
						},
						{
							"indexed": false,
							"internalType": "uint256",
							"name": "weiAmount",
							"type": "uint256"
						}
					],
					"name": "Deposited",
					"type": "event"
				},
				{
					"anonymous": false,
					"inputs": [
						{
							"indexed": true,
							"internalType": "address",
							"name": "previousOwner",
							"type": "address"
						},
						{
							"indexed": true,
							"internalType": "address",
							"name": "newOwner",
							"type": "address"
						}
					],
					"name": "OwnershipTransferred",
					"type": "event"
				},
				{
					"inputs": [
						{
							"internalType": "address payable",
							"name": "payee",
							"type": "address"
						}
					],
					"name": "addContractor",
					"outputs": [],
					"stateMutability": "nonpayable",
					"type": "function"
				},
				{
					"inputs": [
						{
							"internalType": "bool",
							"name": "inputAdminResolution",
							"type": "bool"
						},
						{
							"internalType": "bool",
							"name": "inputAdminDecision",
							"type": "bool"
						}
					],
					"name": "adminResolutionStatus",
					"outputs": [],
					"stateMutability": "nonpayable",
					"type": "function"
				},
				{
					"inputs": [
						{
							"internalType": "address payable",
							"name": "payee",
							"type": "address"
						},
						{
							"internalType": "address payable",
							"name": "broker",
							"type": "address"
						}
					],
					"name": "deposit",
					"outputs": [],
					"stateMutability": "payable",
					"type": "function"
				},
				{
					"inputs": [],
					"name": "owner",
					"outputs": [
						{
							"internalType": "address",
							"name": "",
							"type": "address"
						}
					],
					"stateMutability": "view",
					"type": "function"
				},
				{
					"inputs": [],
					"name": "renounceOwnership",
					"outputs": [],
					"stateMutability": "nonpayable",
					"type": "function"
				},
				{
					"inputs": [
						{
							"internalType": "bool",
							"name": "inputTaskCompleted",
							"type": "bool"
						}
					],
					"name": "taskCompletionStatus",
					"outputs": [],
					"stateMutability": "nonpayable",
					"type": "function"
				},
				{
					"inputs": [
						{
							"internalType": "bool",
							"name": "inputTaskValidated",
							"type": "bool"
						}
					],
					"name": "taskValidationStatus",
					"outputs": [],
					"stateMutability": "nonpayable",
					"type": "function"
				},
				{
					"inputs": [],
					"name": "testPayment",
					"outputs": [],
					"stateMutability": "nonpayable",
					"type": "function"
				},
				{
					"inputs": [
						{
							"internalType": "address",
							"name": "newOwner",
							"type": "address"
						}
					],
					"name": "transferOwnership",
					"outputs": [],
					"stateMutability": "nonpayable",
					"type": "function"
				}
			],
			"devdoc": {
				"kind": "dev",
				"methods": {
					"owner()": {
						"details": "Returns the address of the current owner."
					},
					"renounceOwnership()": {
						"details": "Leaves the contract without owner. It will not be possible to call `onlyOwner` functions anymore. Can only be called by the current owner. NOTE: Renouncing ownership will leave the contract without an owner, thereby removing any functionality that is only available to the owner."
					},
					"transferOwnership(address)": {
						"details": "Transfers ownership of the contract to a new account (`newOwner`). Can only be called by the current owner."
					}
				},
				"version": 1
			},
			"evm": {
				"assembly": "    /* \"contracts/Escrow.sol\":238:3215  contract Escrow is Ownable {... */\n  mstore(0x40, 0x80)\n  callvalue\n  dup1\n  iszero\n  tag_1\n  jumpi\n  0x00\n  dup1\n  revert\ntag_1:\n  pop\n    /* \"@openzeppelin/contracts/access/Ownable.sol\":936:968  _transferOwnership(_msgSender()) */\n  tag_4\n    /* \"@openzeppelin/contracts/access/Ownable.sol\":955:967  _msgSender() */\n  tag_5\n    /* \"@openzeppelin/contracts/access/Ownable.sol\":955:965  _msgSender */\n  shl(0x20, tag_6)\n    /* \"@openzeppelin/contracts/access/Ownable.sol\":955:967  _msgSender() */\n  0x20\n  shr\n  jump\t// in\ntag_5:\n    /* \"@openzeppelin/contracts/access/Ownable.sol\":936:954  _transferOwnership */\n  shl(0x20, tag_7)\n    /* \"@openzeppelin/contracts/access/Ownable.sol\":936:968  _transferOwnership(_msgSender()) */\n  0x20\n  shr\n  jump\t// in\ntag_4:\n    /* \"contracts/Escrow.sol\":238:3215  contract Escrow is Ownable {... */\n  jump(tag_8)\n    /* \"@openzeppelin/contracts/utils/Context.sol\":640:736  function _msgSender() internal view virtual returns (address) {... */\ntag_6:\n    /* \"@openzeppelin/contracts/utils/Context.sol\":693:700  address */\n  0x00\n    /* \"@openzeppelin/contracts/utils/Context.sol\":719:729  msg.sender */\n  caller\n    /* \"@openzeppelin/contracts/utils/Context.sol\":712:729  return msg.sender */\n  swap1\n  pop\n    /* \"@openzeppelin/contracts/utils/Context.sol\":640:736  function _msgSender() internal view virtual returns (address) {... */\n  swap1\n  jump\t// out\n    /* \"@openzeppelin/contracts/access/Ownable.sol\":2433:2620  function _transferOwnership(address newOwner) internal virtual {... */\ntag_7:\n    /* \"@openzeppelin/contracts/access/Ownable.sol\":2506:2522  address oldOwner */\n  0x00\n    /* \"@openzeppelin/contracts/access/Ownable.sol\":2525:2531  _owner */\n  dup1\n  0x00\n  swap1\n  sload\n  swap1\n  0x0100\n  exp\n  swap1\n  div\n  0xffffffffffffffffffffffffffffffffffffffff\n  and\n    /* \"@openzeppelin/contracts/access/Ownable.sol\":2506:2531  address oldOwner = _owner */\n  swap1\n  pop\n    /* \"@openzeppelin/contracts/access/Ownable.sol\":2550:2558  newOwner */\n  dup2\n    /* \"@openzeppelin/contracts/access/Ownable.sol\":2541:2547  _owner */\n  0x00\n  dup1\n    /* \"@openzeppelin/contracts/access/Ownable.sol\":2541:2558  _owner = newOwner */\n  0x0100\n  exp\n  dup2\n  sload\n  dup2\n  0xffffffffffffffffffffffffffffffffffffffff\n  mul\n  not\n  and\n  swap1\n  dup4\n  0xffffffffffffffffffffffffffffffffffffffff\n  and\n  mul\n  or\n  swap1\n  sstore\n  pop\n    /* \"@openzeppelin/contracts/access/Ownable.sol\":2604:2612  newOwner */\n  dup2\n    /* \"@openzeppelin/contracts/access/Ownable.sol\":2573:2613  OwnershipTransferred(oldOwner, newOwner) */\n  0xffffffffffffffffffffffffffffffffffffffff\n  and\n    /* \"@openzeppelin/contracts/access/Ownable.sol\":2594:2602  oldOwner */\n  dup2\n    /* \"@openzeppelin/contracts/access/Ownable.sol\":2573:2613  OwnershipTransferred(oldOwner, newOwner) */\n  0xffffffffffffffffffffffffffffffffffffffff\n  and\n  0x8be0079c531659141344cd1fd0a4f28419497f9722a3daafe3b4186f6b6457e0\n  mload(0x40)\n  mload(0x40)\n  dup1\n  swap2\n  sub\n  swap1\n  log3\n    /* \"@openzeppelin/contracts/access/Ownable.sol\":2496:2620  {... */\n  pop\n    /* \"@openzeppelin/contracts/access/Ownable.sol\":2433:2620  function _transferOwnership(address newOwner) internal virtual {... */\n  pop\n  jump\t// out\n    /* \"contracts/Escrow.sol\":238:3215  contract Escrow is Ownable {... */\ntag_8:\n  dataSize(sub_0)\n  dup1\n  dataOffset(sub_0)\n  0x00\n  codecopy\n  0x00\n  return\nstop\n\nsub_0: assembly {\n        /* \"contracts/Escrow.sol\":238:3215  contract Escrow is Ownable {... */\n      mstore(0x40, 0x80)\n      jumpi(tag_1, lt(calldatasize, 0x04))\n      shr(0xe0, calldataload(0x00))\n      dup1\n      0x8da5cb5b\n      gt\n      tag_11\n      jumpi\n      dup1\n      0x8da5cb5b\n      eq\n      tag_6\n      jumpi\n      dup1\n      0x9464c8b8\n      eq\n      tag_7\n      jumpi\n      dup1\n      0xb0568eaa\n      eq\n      tag_8\n      jumpi\n      dup1\n      0xf2fde38b\n      eq\n      tag_9\n      jumpi\n      dup1\n      0xf9609f08\n      eq\n      tag_10\n      jumpi\n      jump(tag_1)\n    tag_11:\n      dup1\n      0x11571f30\n      eq\n      tag_2\n      jumpi\n      dup1\n      0x251d8cd5\n      eq\n      tag_3\n      jumpi\n      dup1\n      0x715018a6\n      eq\n      tag_4\n      jumpi\n      dup1\n      0x761768b6\n      eq\n      tag_5\n      jumpi\n    tag_1:\n      0x00\n      dup1\n      revert\n        /* \"contracts/Escrow.sol\":2048:2270  function adminResolutionStatus(bool inputAdminResolution, bool inputAdminDecision) public virtual onlyAdmin{... */\n    tag_2:\n      callvalue\n      dup1\n      iszero\n      tag_12\n      jumpi\n      0x00\n      dup1\n      revert\n    tag_12:\n      pop\n      tag_13\n      0x04\n      dup1\n      calldatasize\n      sub\n      dup2\n      add\n      swap1\n      tag_14\n      swap2\n      swap1\n      tag_15\n      jump\t// in\n    tag_14:\n      tag_16\n      jump\t// in\n    tag_13:\n      stop\n        /* \"contracts/Escrow.sol\":2276:2408  function taskCompletionStatus(bool inputTaskCompleted) public virtual onlyContractor {... */\n    tag_3:\n      callvalue\n      dup1\n      iszero\n      tag_17\n      jumpi\n      0x00\n      dup1\n      revert\n    tag_17:\n      pop\n      tag_18\n      0x04\n      dup1\n      calldatasize\n      sub\n      dup2\n      add\n      swap1\n      tag_19\n      swap2\n      swap1\n      tag_20\n      jump\t// in\n    tag_19:\n      tag_21\n      jump\t// in\n    tag_18:\n      stop\n        /* \"@openzeppelin/contracts/access/Ownable.sol\":1831:1932  function renounceOwnership() public virtual onlyOwner {... */\n    tag_4:\n      callvalue\n      dup1\n      iszero\n      tag_22\n      jumpi\n      0x00\n      dup1\n      revert\n    tag_22:\n      pop\n      tag_23\n      tag_24\n      jump\t// in\n    tag_23:\n      stop\n        /* \"contracts/Escrow.sol\":940:1072  function addContractor(address payable payee) public virtual{... */\n    tag_5:\n      callvalue\n      dup1\n      iszero\n      tag_25\n      jumpi\n      0x00\n      dup1\n      revert\n    tag_25:\n      pop\n      tag_26\n      0x04\n      dup1\n      calldatasize\n      sub\n      dup2\n      add\n      swap1\n      tag_27\n      swap2\n      swap1\n      tag_28\n      jump\t// in\n    tag_27:\n      tag_29\n      jump\t// in\n    tag_26:\n      stop\n        /* \"@openzeppelin/contracts/access/Ownable.sol\":1201:1286  function owner() public view virtual returns (address) {... */\n    tag_6:\n      callvalue\n      dup1\n      iszero\n      tag_30\n      jumpi\n      0x00\n      dup1\n      revert\n    tag_30:\n      pop\n      tag_31\n      tag_32\n      jump\t// in\n    tag_31:\n      mload(0x40)\n      tag_33\n      swap2\n      swap1\n      tag_34\n      jump\t// in\n    tag_33:\n      mload(0x40)\n      dup1\n      swap2\n      sub\n      swap1\n      return\n        /* \"contracts/Escrow.sol\":2414:2559  function taskValidationStatus(bool inputTaskValidated) public virtual onlyOwner{... */\n    tag_7:\n      callvalue\n      dup1\n      iszero\n      tag_35\n      jumpi\n      0x00\n      dup1\n      revert\n    tag_35:\n      pop\n      tag_36\n      0x04\n      dup1\n      calldatasize\n      sub\n      dup2\n      add\n      swap1\n      tag_37\n      swap2\n      swap1\n      tag_20\n      jump\t// in\n    tag_37:\n      tag_38\n      jump\t// in\n    tag_36:\n      stop\n        /* \"contracts/Escrow.sol\":2565:3212  function testPayment() public virtual{... */\n    tag_8:\n      callvalue\n      dup1\n      iszero\n      tag_39\n      jumpi\n      0x00\n      dup1\n      revert\n    tag_39:\n      pop\n      tag_40\n      tag_41\n      jump\t// in\n    tag_40:\n      stop\n        /* \"@openzeppelin/contracts/access/Ownable.sol\":2081:2279  function transferOwnership(address newOwner) public virtual onlyOwner {... */\n    tag_9:\n      callvalue\n      dup1\n      iszero\n      tag_42\n      jumpi\n      0x00\n      dup1\n      revert\n    tag_42:\n      pop\n      tag_43\n      0x04\n      dup1\n      calldatasize\n      sub\n      dup2\n      add\n      swap1\n      tag_44\n      swap2\n      swap1\n      tag_45\n      jump\t// in\n    tag_44:\n      tag_46\n      jump\t// in\n    tag_43:\n      stop\n        /* \"contracts/Escrow.sol\":625:929  function deposit(address payable payee, address payable broker) public payable virtual onlyOwner {... */\n    tag_10:\n      tag_47\n      0x04\n      dup1\n      calldatasize\n      sub\n      dup2\n      add\n      swap1\n      tag_48\n      swap2\n      swap1\n      tag_49\n      jump\t// in\n    tag_48:\n      tag_50\n      jump\t// in\n    tag_47:\n      stop\n        /* \"contracts/Escrow.sol\":2048:2270  function adminResolutionStatus(bool inputAdminResolution, bool inputAdminDecision) public virtual onlyAdmin{... */\n    tag_16:\n        /* \"contracts/Escrow.sol\":1748:1761  _checkAdmin() */\n      tag_52\n        /* \"contracts/Escrow.sol\":1748:1759  _checkAdmin */\n      tag_53\n        /* \"contracts/Escrow.sol\":1748:1761  _checkAdmin() */\n      jump\t// in\n    tag_52:\n        /* \"contracts/Escrow.sol\":2179:2199  inputAdminResolution */\n      dup2\n        /* \"contracts/Escrow.sol\":2161:2176  adminResolution */\n      0x05\n      0x02\n        /* \"contracts/Escrow.sol\":2161:2199  adminResolution = inputAdminResolution */\n      0x0100\n      exp\n      dup2\n      sload\n      dup2\n      0xff\n      mul\n      not\n      and\n      swap1\n      dup4\n      iszero\n      iszero\n      mul\n      or\n      swap1\n      sstore\n      pop\n        /* \"contracts/Escrow.sol\":2226:2244  inputAdminDecision */\n      dup1\n        /* \"contracts/Escrow.sol\":2205:2223  adminPayContractor */\n      0x05\n      0x03\n        /* \"contracts/Escrow.sol\":2205:2244  adminPayContractor = inputAdminDecision */\n      0x0100\n      exp\n      dup2\n      sload\n      dup2\n      0xff\n      mul\n      not\n      and\n      swap1\n      dup4\n      iszero\n      iszero\n      mul\n      or\n      swap1\n      sstore\n      pop\n        /* \"contracts/Escrow.sol\":2250:2263  testPayment() */\n      tag_55\n        /* \"contracts/Escrow.sol\":2250:2261  testPayment */\n      tag_41\n        /* \"contracts/Escrow.sol\":2250:2263  testPayment() */\n      jump\t// in\n    tag_55:\n        /* \"contracts/Escrow.sol\":2048:2270  function adminResolutionStatus(bool inputAdminResolution, bool inputAdminDecision) public virtual onlyAdmin{... */\n      pop\n      pop\n      jump\t// out\n        /* \"contracts/Escrow.sol\":2276:2408  function taskCompletionStatus(bool inputTaskCompleted) public virtual onlyContractor {... */\n    tag_21:\n        /* \"contracts/Escrow.sol\":1966:1984  _checkContractor() */\n      tag_57\n        /* \"contracts/Escrow.sol\":1966:1982  _checkContractor */\n      tag_58\n        /* \"contracts/Escrow.sol\":1966:1984  _checkContractor() */\n      jump\t// in\n    tag_57:\n        /* \"contracts/Escrow.sol\":2383:2401  inputTaskCompleted */\n      dup1\n        /* \"contracts/Escrow.sol\":2367:2380  taskCompleted */\n      0x05\n      0x00\n        /* \"contracts/Escrow.sol\":2367:2401  taskCompleted = inputTaskCompleted */\n      0x0100\n      exp\n      dup2\n      sload\n      dup2\n      0xff\n      mul\n      not\n      and\n      swap1\n      dup4\n      iszero\n      iszero\n      mul\n      or\n      swap1\n      sstore\n      pop\n        /* \"contracts/Escrow.sol\":2276:2408  function taskCompletionStatus(bool inputTaskCompleted) public virtual onlyContractor {... */\n      pop\n      jump\t// out\n        /* \"@openzeppelin/contracts/access/Ownable.sol\":1831:1932  function renounceOwnership() public virtual onlyOwner {... */\n    tag_24:\n        /* \"@openzeppelin/contracts/access/Ownable.sol\":1094:1107  _checkOwner() */\n      tag_61\n        /* \"@openzeppelin/contracts/access/Ownable.sol\":1094:1105  _checkOwner */\n      tag_62\n        /* \"@openzeppelin/contracts/access/Ownable.sol\":1094:1107  _checkOwner() */\n      jump\t// in\n    tag_61:\n        /* \"@openzeppelin/contracts/access/Ownable.sol\":1895:1925  _transferOwnership(address(0)) */\n      tag_64\n        /* \"@openzeppelin/contracts/access/Ownable.sol\":1922:1923  0 */\n      0x00\n        /* \"@openzeppelin/contracts/access/Ownable.sol\":1895:1913  _transferOwnership */\n      tag_65\n        /* \"@openzeppelin/contracts/access/Ownable.sol\":1895:1925  _transferOwnership(address(0)) */\n      jump\t// in\n    tag_64:\n        /* \"@openzeppelin/contracts/access/Ownable.sol\":1831:1932  function renounceOwnership() public virtual onlyOwner {... */\n      jump\t// out\n        /* \"contracts/Escrow.sol\":940:1072  function addContractor(address payable payee) public virtual{... */\n    tag_29:\n        /* \"contracts/Escrow.sol\":1023:1028  payee */\n      dup1\n        /* \"contracts/Escrow.sol\":1010:1020  contractor */\n      0x01\n      0x00\n        /* \"contracts/Escrow.sol\":1010:1028  contractor = payee */\n      0x0100\n      exp\n      dup2\n      sload\n      dup2\n      0xffffffffffffffffffffffffffffffffffffffff\n      mul\n      not\n      and\n      swap1\n      dup4\n      0xffffffffffffffffffffffffffffffffffffffff\n      and\n      mul\n      or\n      swap1\n      sstore\n      pop\n        /* \"contracts/Escrow.sol\":1059:1064  payee */\n      dup1\n        /* \"contracts/Escrow.sol\":1043:1065  ContractorAdded(payee) */\n      0xffffffffffffffffffffffffffffffffffffffff\n      and\n      0x29dc23bcd72bfb02ec013f6350778cb6e5908dc02e5e1234385f27e32676b6e1\n      mload(0x40)\n      mload(0x40)\n      dup1\n      swap2\n      sub\n      swap1\n      log2\n        /* \"contracts/Escrow.sol\":940:1072  function addContractor(address payable payee) public virtual{... */\n      pop\n      jump\t// out\n        /* \"@openzeppelin/contracts/access/Ownable.sol\":1201:1286  function owner() public view virtual returns (address) {... */\n    tag_32:\n        /* \"@openzeppelin/contracts/access/Ownable.sol\":1247:1254  address */\n      0x00\n        /* \"@openzeppelin/contracts/access/Ownable.sol\":1273:1279  _owner */\n      dup1\n      0x00\n      swap1\n      sload\n      swap1\n      0x0100\n      exp\n      swap1\n      div\n      0xffffffffffffffffffffffffffffffffffffffff\n      and\n        /* \"@openzeppelin/contracts/access/Ownable.sol\":1266:1279  return _owner */\n      swap1\n      pop\n        /* \"@openzeppelin/contracts/access/Ownable.sol\":1201:1286  function owner() public view virtual returns (address) {... */\n      swap1\n      jump\t// out\n        /* \"contracts/Escrow.sol\":2414:2559  function taskValidationStatus(bool inputTaskValidated) public virtual onlyOwner{... */\n    tag_38:\n        /* \"@openzeppelin/contracts/access/Ownable.sol\":1094:1107  _checkOwner() */\n      tag_69\n        /* \"@openzeppelin/contracts/access/Ownable.sol\":1094:1105  _checkOwner */\n      tag_62\n        /* \"@openzeppelin/contracts/access/Ownable.sol\":1094:1107  _checkOwner() */\n      jump\t// in\n    tag_69:\n        /* \"contracts/Escrow.sol\":2515:2533  inputTaskValidated */\n      dup1\n        /* \"contracts/Escrow.sol\":2499:2512  taskValidated */\n      0x05\n      0x01\n        /* \"contracts/Escrow.sol\":2499:2533  taskValidated = inputTaskValidated */\n      0x0100\n      exp\n      dup2\n      sload\n      dup2\n      0xff\n      mul\n      not\n      and\n      swap1\n      dup4\n      iszero\n      iszero\n      mul\n      or\n      swap1\n      sstore\n      pop\n        /* \"contracts/Escrow.sol\":2539:2552  testPayment() */\n      tag_71\n        /* \"contracts/Escrow.sol\":2539:2550  testPayment */\n      tag_41\n        /* \"contracts/Escrow.sol\":2539:2552  testPayment() */\n      jump\t// in\n    tag_71:\n        /* \"contracts/Escrow.sol\":2414:2559  function taskValidationStatus(bool inputTaskValidated) public virtual onlyOwner{... */\n      pop\n      jump\t// out\n        /* \"contracts/Escrow.sol\":2565:3212  function testPayment() public virtual{... */\n    tag_41:\n        /* \"contracts/Escrow.sol\":2608:2630  uint256 balancePayment */\n      0x00\n        /* \"contracts/Escrow.sol\":2633:2654  address(this).balance */\n      selfbalance\n        /* \"contracts/Escrow.sol\":2608:2654  uint256 balancePayment = address(this).balance */\n      swap1\n      pop\n        /* \"contracts/Escrow.sol\":2660:2680  uint256 adminPayment */\n      0x00\n        /* \"contracts/Escrow.sol\":2704:2706  10 */\n      0x0a\n        /* \"contracts/Escrow.sol\":2701:2702  2 */\n      0x02\n        /* \"contracts/Escrow.sol\":2684:2698  balancePayment */\n      dup4\n        /* \"contracts/Escrow.sol\":2684:2702  balancePayment * 2 */\n      tag_73\n      swap2\n      swap1\n      tag_74\n      jump\t// in\n    tag_73:\n        /* \"contracts/Escrow.sol\":2683:2706  (balancePayment * 2)/10 */\n      tag_75\n      swap2\n      swap1\n      tag_76\n      jump\t// in\n    tag_75:\n        /* \"contracts/Escrow.sol\":2660:2706  uint256 adminPayment = (balancePayment * 2)/10 */\n      swap1\n      pop\n        /* \"contracts/Escrow.sol\":2754:2766  adminPayment */\n      dup1\n        /* \"contracts/Escrow.sol\":2736:2766  balancePayment -= adminPayment */\n      dup3\n      tag_77\n      swap2\n      swap1\n      tag_78\n      jump\t// in\n    tag_77:\n      swap2\n      pop\n        /* \"contracts/Escrow.sol\":2836:2840  true */\n      0x01\n        /* \"contracts/Escrow.sol\":2819:2840  taskCompleted == true */\n      iszero\n      iszero\n        /* \"contracts/Escrow.sol\":2819:2832  taskCompleted */\n      0x05\n      0x00\n      swap1\n      sload\n      swap1\n      0x0100\n      exp\n      swap1\n      div\n      0xff\n      and\n        /* \"contracts/Escrow.sol\":2819:2840  taskCompleted == true */\n      iszero\n      iszero\n      eq\n        /* \"contracts/Escrow.sol\":2819:2865  taskCompleted == true && taskValidated == true */\n      dup1\n      iszero\n      tag_79\n      jumpi\n      pop\n        /* \"contracts/Escrow.sol\":2861:2865  true */\n      0x01\n        /* \"contracts/Escrow.sol\":2844:2865  taskValidated == true */\n      iszero\n      iszero\n        /* \"contracts/Escrow.sol\":2844:2857  taskValidated */\n      0x05\n      0x01\n      swap1\n      sload\n      swap1\n      0x0100\n      exp\n      swap1\n      div\n      0xff\n      and\n        /* \"contracts/Escrow.sol\":2844:2865  taskValidated == true */\n      iszero\n      iszero\n      eq\n        /* \"contracts/Escrow.sol\":2819:2865  taskCompleted == true && taskValidated == true */\n    tag_79:\n        /* \"contracts/Escrow.sol\":2818:2923  (taskCompleted == true && taskValidated == true)||(adminResolution == true && adminPayContractor == true) */\n      dup1\n      tag_80\n      jumpi\n      pop\n        /* \"contracts/Escrow.sol\":2888:2892  true */\n      0x01\n        /* \"contracts/Escrow.sol\":2869:2892  adminResolution == true */\n      iszero\n      iszero\n        /* \"contracts/Escrow.sol\":2869:2884  adminResolution */\n      0x05\n      0x02\n      swap1\n      sload\n      swap1\n      0x0100\n      exp\n      swap1\n      div\n      0xff\n      and\n        /* \"contracts/Escrow.sol\":2869:2892  adminResolution == true */\n      iszero\n      iszero\n      eq\n        /* \"contracts/Escrow.sol\":2869:2922  adminResolution == true && adminPayContractor == true */\n      dup1\n      iszero\n      tag_81\n      jumpi\n      pop\n        /* \"contracts/Escrow.sol\":2918:2922  true */\n      0x01\n        /* \"contracts/Escrow.sol\":2896:2922  adminPayContractor == true */\n      iszero\n      iszero\n        /* \"contracts/Escrow.sol\":2896:2914  adminPayContractor */\n      0x05\n      0x03\n      swap1\n      sload\n      swap1\n      0x0100\n      exp\n      swap1\n      div\n      0xff\n      and\n        /* \"contracts/Escrow.sol\":2896:2922  adminPayContractor == true */\n      iszero\n      iszero\n      eq\n        /* \"contracts/Escrow.sol\":2869:2922  adminResolution == true && adminPayContractor == true */\n    tag_81:\n        /* \"contracts/Escrow.sol\":2818:2923  (taskCompleted == true && taskValidated == true)||(adminResolution == true && adminPayContractor == true) */\n    tag_80:\n        /* \"contracts/Escrow.sol\":2815:3205  if((taskCompleted == true && taskValidated == true)||(adminResolution == true && adminPayContractor == true)){... */\n      iszero\n      tag_82\n      jumpi\n        /* \"contracts/Escrow.sol\":2938:2974  contractor.sendValue(balancePayment) */\n      tag_83\n        /* \"contracts/Escrow.sol\":2959:2973  balancePayment */\n      dup3\n        /* \"contracts/Escrow.sol\":2938:2948  contractor */\n      0x01\n      0x00\n      swap1\n      sload\n      swap1\n      0x0100\n      exp\n      swap1\n      div\n      0xffffffffffffffffffffffffffffffffffffffff\n      and\n        /* \"contracts/Escrow.sol\":2938:2958  contractor.sendValue */\n      0xffffffffffffffffffffffffffffffffffffffff\n      and\n      tag_84\n      swap1\n        /* \"contracts/Escrow.sol\":2938:2974  contractor.sendValue(balancePayment) */\n      swap2\n      swap1\n      0xffffffff\n      and\n      jump\t// in\n    tag_83:\n        /* \"contracts/Escrow.sol\":2988:3017  admin.sendValue(adminPayment) */\n      tag_85\n        /* \"contracts/Escrow.sol\":3004:3016  adminPayment */\n      dup2\n        /* \"contracts/Escrow.sol\":2988:2993  admin */\n      0x03\n      0x00\n      swap1\n      sload\n      swap1\n      0x0100\n      exp\n      swap1\n      div\n      0xffffffffffffffffffffffffffffffffffffffff\n      and\n        /* \"contracts/Escrow.sol\":2988:3003  admin.sendValue */\n      0xffffffffffffffffffffffffffffffffffffffff\n      and\n      tag_84\n      swap1\n        /* \"contracts/Escrow.sol\":2988:3017  admin.sendValue(adminPayment) */\n      swap2\n      swap1\n      0xffffffff\n      and\n      jump\t// in\n    tag_85:\n        /* \"contracts/Escrow.sol\":2815:3205  if((taskCompleted == true && taskValidated == true)||(adminResolution == true && adminPayContractor == true)){... */\n      jump(tag_86)\n    tag_82:\n        /* \"contracts/Escrow.sol\":3064:3068  true */\n      0x01\n        /* \"contracts/Escrow.sol\":3045:3068  adminResolution == true */\n      iszero\n      iszero\n        /* \"contracts/Escrow.sol\":3045:3060  adminResolution */\n      0x05\n      0x02\n      swap1\n      sload\n      swap1\n      0x0100\n      exp\n      swap1\n      div\n      0xff\n      and\n        /* \"contracts/Escrow.sol\":3045:3068  adminResolution == true */\n      iszero\n      iszero\n      eq\n        /* \"contracts/Escrow.sol\":3045:3099  adminResolution == true && adminPayContractor == false */\n      dup1\n      iszero\n      tag_87\n      jumpi\n      pop\n        /* \"contracts/Escrow.sol\":3094:3099  false */\n      0x00\n        /* \"contracts/Escrow.sol\":3072:3099  adminPayContractor == false */\n      iszero\n      iszero\n        /* \"contracts/Escrow.sol\":3072:3090  adminPayContractor */\n      0x05\n      0x03\n      swap1\n      sload\n      swap1\n      0x0100\n      exp\n      swap1\n      div\n      0xff\n      and\n        /* \"contracts/Escrow.sol\":3072:3099  adminPayContractor == false */\n      iszero\n      iszero\n      eq\n        /* \"contracts/Escrow.sol\":3045:3099  adminResolution == true && adminPayContractor == false */\n    tag_87:\n        /* \"contracts/Escrow.sol\":3042:3205  if(adminResolution == true && adminPayContractor == false){... */\n      iszero\n      tag_88\n      jumpi\n        /* \"contracts/Escrow.sol\":3114:3146  client.sendValue(balancePayment) */\n      tag_89\n        /* \"contracts/Escrow.sol\":3131:3145  balancePayment */\n      dup3\n        /* \"contracts/Escrow.sol\":3114:3120  client */\n      0x02\n      0x00\n      swap1\n      sload\n      swap1\n      0x0100\n      exp\n      swap1\n      div\n      0xffffffffffffffffffffffffffffffffffffffff\n      and\n        /* \"contracts/Escrow.sol\":3114:3130  client.sendValue */\n      0xffffffffffffffffffffffffffffffffffffffff\n      and\n      tag_84\n      swap1\n        /* \"contracts/Escrow.sol\":3114:3146  client.sendValue(balancePayment) */\n      swap2\n      swap1\n      0xffffffff\n      and\n      jump\t// in\n    tag_89:\n        /* \"contracts/Escrow.sol\":3160:3189  admin.sendValue(adminPayment) */\n      tag_90\n        /* \"contracts/Escrow.sol\":3176:3188  adminPayment */\n      dup2\n        /* \"contracts/Escrow.sol\":3160:3165  admin */\n      0x03\n      0x00\n      swap1\n      sload\n      swap1\n      0x0100\n      exp\n      swap1\n      div\n      0xffffffffffffffffffffffffffffffffffffffff\n      and\n        /* \"contracts/Escrow.sol\":3160:3175  admin.sendValue */\n      0xffffffffffffffffffffffffffffffffffffffff\n      and\n      tag_84\n      swap1\n        /* \"contracts/Escrow.sol\":3160:3189  admin.sendValue(adminPayment) */\n      swap2\n      swap1\n      0xffffffff\n      and\n      jump\t// in\n    tag_90:\n        /* \"contracts/Escrow.sol\":3042:3205  if(adminResolution == true && adminPayContractor == false){... */\n    tag_88:\n        /* \"contracts/Escrow.sol\":2815:3205  if((taskCompleted == true && taskValidated == true)||(adminResolution == true && adminPayContractor == true)){... */\n    tag_86:\n        /* \"contracts/Escrow.sol\":2602:3212  {... */\n      pop\n      pop\n        /* \"contracts/Escrow.sol\":2565:3212  function testPayment() public virtual{... */\n      jump\t// out\n        /* \"@openzeppelin/contracts/access/Ownable.sol\":2081:2279  function transferOwnership(address newOwner) public virtual onlyOwner {... */\n    tag_46:\n        /* \"@openzeppelin/contracts/access/Ownable.sol\":1094:1107  _checkOwner() */\n      tag_92\n        /* \"@openzeppelin/contracts/access/Ownable.sol\":1094:1105  _checkOwner */\n      tag_62\n        /* \"@openzeppelin/contracts/access/Ownable.sol\":1094:1107  _checkOwner() */\n      jump\t// in\n    tag_92:\n        /* \"@openzeppelin/contracts/access/Ownable.sol\":2189:2190  0 */\n      0x00\n        /* \"@openzeppelin/contracts/access/Ownable.sol\":2169:2191  newOwner != address(0) */\n      0xffffffffffffffffffffffffffffffffffffffff\n      and\n        /* \"@openzeppelin/contracts/access/Ownable.sol\":2169:2177  newOwner */\n      dup2\n        /* \"@openzeppelin/contracts/access/Ownable.sol\":2169:2191  newOwner != address(0) */\n      0xffffffffffffffffffffffffffffffffffffffff\n      and\n      eq\n      iszero\n        /* \"@openzeppelin/contracts/access/Ownable.sol\":2161:2234  require(newOwner != address(0), \"Ownable: new owner is the zero address\") */\n      tag_94\n      jumpi\n      mload(0x40)\n      0x08c379a000000000000000000000000000000000000000000000000000000000\n      dup2\n      mstore\n      0x04\n      add\n      tag_95\n      swap1\n      tag_96\n      jump\t// in\n    tag_95:\n      mload(0x40)\n      dup1\n      swap2\n      sub\n      swap1\n      revert\n    tag_94:\n        /* \"@openzeppelin/contracts/access/Ownable.sol\":2244:2272  _transferOwnership(newOwner) */\n      tag_97\n        /* \"@openzeppelin/contracts/access/Ownable.sol\":2263:2271  newOwner */\n      dup2\n        /* \"@openzeppelin/contracts/access/Ownable.sol\":2244:2262  _transferOwnership */\n      tag_65\n        /* \"@openzeppelin/contracts/access/Ownable.sol\":2244:2272  _transferOwnership(newOwner) */\n      jump\t// in\n    tag_97:\n        /* \"@openzeppelin/contracts/access/Ownable.sol\":2081:2279  function transferOwnership(address newOwner) public virtual onlyOwner {... */\n      pop\n      jump\t// out\n        /* \"contracts/Escrow.sol\":625:929  function deposit(address payable payee, address payable broker) public payable virtual onlyOwner {... */\n    tag_50:\n        /* \"@openzeppelin/contracts/access/Ownable.sol\":1094:1107  _checkOwner() */\n      tag_99\n        /* \"@openzeppelin/contracts/access/Ownable.sol\":1094:1105  _checkOwner */\n      tag_62\n        /* \"@openzeppelin/contracts/access/Ownable.sol\":1094:1107  _checkOwner() */\n      jump\t// in\n    tag_99:\n        /* \"contracts/Escrow.sol\":745:750  payee */\n      dup2\n        /* \"contracts/Escrow.sol\":732:742  contractor */\n      0x01\n      0x00\n        /* \"contracts/Escrow.sol\":732:750  contractor = payee */\n      0x0100\n      exp\n      dup2\n      sload\n      dup2\n      0xffffffffffffffffffffffffffffffffffffffff\n      mul\n      not\n      and\n      swap1\n      dup4\n      0xffffffffffffffffffffffffffffffffffffffff\n      and\n      mul\n      or\n      swap1\n      sstore\n      pop\n        /* \"contracts/Escrow.sol\":776:786  msg.sender */\n      caller\n        /* \"contracts/Escrow.sol\":760:766  client */\n      0x02\n      0x00\n        /* \"contracts/Escrow.sol\":760:787  client= payable(msg.sender) */\n      0x0100\n      exp\n      dup2\n      sload\n      dup2\n      0xffffffffffffffffffffffffffffffffffffffff\n      mul\n      not\n      and\n      swap1\n      dup4\n      0xffffffffffffffffffffffffffffffffffffffff\n      and\n      mul\n      or\n      swap1\n      sstore\n      pop\n        /* \"contracts/Escrow.sol\":805:811  broker */\n      dup1\n        /* \"contracts/Escrow.sol\":797:802  admin */\n      0x03\n      0x00\n        /* \"contracts/Escrow.sol\":797:811  admin = broker */\n      0x0100\n      exp\n      dup2\n      sload\n      dup2\n      0xffffffffffffffffffffffffffffffffffffffff\n      mul\n      not\n      and\n      swap1\n      dup4\n      0xffffffffffffffffffffffffffffffffffffffff\n      and\n      mul\n      or\n      swap1\n      sstore\n      pop\n        /* \"contracts/Escrow.sol\":821:835  uint256 amount */\n      0x00\n        /* \"contracts/Escrow.sol\":838:847  msg.value */\n      callvalue\n        /* \"contracts/Escrow.sol\":821:847  uint256 amount = msg.value */\n      swap1\n      pop\n        /* \"contracts/Escrow.sol\":877:883  amount */\n      dup1\n        /* \"contracts/Escrow.sol\":857:866  _deposits */\n      0x04\n        /* \"contracts/Escrow.sol\":857:873  _deposits[payee] */\n      0x00\n        /* \"contracts/Escrow.sol\":867:872  payee */\n      dup6\n        /* \"contracts/Escrow.sol\":857:873  _deposits[payee] */\n      0xffffffffffffffffffffffffffffffffffffffff\n      and\n      0xffffffffffffffffffffffffffffffffffffffff\n      and\n      dup2\n      mstore\n      0x20\n      add\n      swap1\n      dup2\n      mstore\n      0x20\n      add\n      0x00\n      keccak256\n      0x00\n        /* \"contracts/Escrow.sol\":857:883  _deposits[payee] += amount */\n      dup3\n      dup3\n      sload\n      tag_101\n      swap2\n      swap1\n      tag_102\n      jump\t// in\n    tag_101:\n      swap3\n      pop\n      pop\n      dup2\n      swap1\n      sstore\n      pop\n        /* \"contracts/Escrow.sol\":908:913  payee */\n      dup3\n        /* \"contracts/Escrow.sol\":898:922  Deposited(payee, amount) */\n      0xffffffffffffffffffffffffffffffffffffffff\n      and\n      0x2da466a7b24304f47e87fa2e1e5a81b9831ce54fec19055ce277ca2f39ba42c4\n        /* \"contracts/Escrow.sol\":915:921  amount */\n      dup3\n        /* \"contracts/Escrow.sol\":898:922  Deposited(payee, amount) */\n      mload(0x40)\n      tag_103\n      swap2\n      swap1\n      tag_104\n      jump\t// in\n    tag_103:\n      mload(0x40)\n      dup1\n      swap2\n      sub\n      swap1\n      log2\n        /* \"contracts/Escrow.sol\":722:929  {... */\n      pop\n        /* \"contracts/Escrow.sol\":625:929  function deposit(address payable payee, address payable broker) public payable virtual onlyOwner {... */\n      pop\n      pop\n      jump\t// out\n        /* \"contracts/Escrow.sol\":1592:1709  function _checkAdmin() internal view virtual {... */\n    tag_53:\n        /* \"contracts/Escrow.sol\":1669:1674  admin */\n      0x03\n      0x00\n      swap1\n      sload\n      swap1\n      0x0100\n      exp\n      swap1\n      div\n      0xffffffffffffffffffffffffffffffffffffffff\n      and\n        /* \"contracts/Escrow.sol\":1655:1674  msg.sender == admin */\n      0xffffffffffffffffffffffffffffffffffffffff\n      and\n        /* \"contracts/Escrow.sol\":1655:1665  msg.sender */\n      caller\n        /* \"contracts/Escrow.sol\":1655:1674  msg.sender == admin */\n      0xffffffffffffffffffffffffffffffffffffffff\n      and\n      eq\n        /* \"contracts/Escrow.sol\":1647:1702  require(msg.sender == admin, \"caller is not the admin\") */\n      tag_106\n      jumpi\n      mload(0x40)\n      0x08c379a000000000000000000000000000000000000000000000000000000000\n      dup2\n      mstore\n      0x04\n      add\n      tag_107\n      swap1\n      tag_108\n      jump\t// in\n    tag_107:\n      mload(0x40)\n      dup1\n      swap2\n      sub\n      swap1\n      revert\n    tag_106:\n        /* \"contracts/Escrow.sol\":1592:1709  function _checkAdmin() internal view virtual {... */\n      jump\t// out\n        /* \"contracts/Escrow.sol\":1790:1922  function _checkContractor() internal view virtual {... */\n    tag_58:\n        /* \"contracts/Escrow.sol\":1872:1882  contractor */\n      0x01\n      0x00\n      swap1\n      sload\n      swap1\n      0x0100\n      exp\n      swap1\n      div\n      0xffffffffffffffffffffffffffffffffffffffff\n      and\n        /* \"contracts/Escrow.sol\":1858:1882  msg.sender == contractor */\n      0xffffffffffffffffffffffffffffffffffffffff\n      and\n        /* \"contracts/Escrow.sol\":1858:1868  msg.sender */\n      caller\n        /* \"contracts/Escrow.sol\":1858:1882  msg.sender == contractor */\n      0xffffffffffffffffffffffffffffffffffffffff\n      and\n      eq\n        /* \"contracts/Escrow.sol\":1850:1915  require(msg.sender == contractor, \"caller is not the contractor\") */\n      tag_110\n      jumpi\n      mload(0x40)\n      0x08c379a000000000000000000000000000000000000000000000000000000000\n      dup2\n      mstore\n      0x04\n      add\n      tag_111\n      swap1\n      tag_112\n      jump\t// in\n    tag_111:\n      mload(0x40)\n      dup1\n      swap2\n      sub\n      swap1\n      revert\n    tag_110:\n        /* \"contracts/Escrow.sol\":1790:1922  function _checkContractor() internal view virtual {... */\n      jump\t// out\n        /* \"@openzeppelin/contracts/access/Ownable.sol\":1359:1489  function _checkOwner() internal view virtual {... */\n    tag_62:\n        /* \"@openzeppelin/contracts/access/Ownable.sol\":1433:1445  _msgSender() */\n      tag_114\n        /* \"@openzeppelin/contracts/access/Ownable.sol\":1433:1443  _msgSender */\n      tag_115\n        /* \"@openzeppelin/contracts/access/Ownable.sol\":1433:1445  _msgSender() */\n      jump\t// in\n    tag_114:\n        /* \"@openzeppelin/contracts/access/Ownable.sol\":1422:1445  owner() == _msgSender() */\n      0xffffffffffffffffffffffffffffffffffffffff\n      and\n        /* \"@openzeppelin/contracts/access/Ownable.sol\":1422:1429  owner() */\n      tag_116\n        /* \"@openzeppelin/contracts/access/Ownable.sol\":1422:1427  owner */\n      tag_32\n        /* \"@openzeppelin/contracts/access/Ownable.sol\":1422:1429  owner() */\n      jump\t// in\n    tag_116:\n        /* \"@openzeppelin/contracts/access/Ownable.sol\":1422:1445  owner() == _msgSender() */\n      0xffffffffffffffffffffffffffffffffffffffff\n      and\n      eq\n        /* \"@openzeppelin/contracts/access/Ownable.sol\":1414:1482  require(owner() == _msgSender(), \"Ownable: caller is not the owner\") */\n      tag_117\n      jumpi\n      mload(0x40)\n      0x08c379a000000000000000000000000000000000000000000000000000000000\n      dup2\n      mstore\n      0x04\n      add\n      tag_118\n      swap1\n      tag_119\n      jump\t// in\n    tag_118:\n      mload(0x40)\n      dup1\n      swap2\n      sub\n      swap1\n      revert\n    tag_117:\n        /* \"@openzeppelin/contracts/access/Ownable.sol\":1359:1489  function _checkOwner() internal view virtual {... */\n      jump\t// out\n        /* \"@openzeppelin/contracts/access/Ownable.sol\":2433:2620  function _transferOwnership(address newOwner) internal virtual {... */\n    tag_65:\n        /* \"@openzeppelin/contracts/access/Ownable.sol\":2506:2522  address oldOwner */\n      0x00\n        /* \"@openzeppelin/contracts/access/Ownable.sol\":2525:2531  _owner */\n      dup1\n      0x00\n      swap1\n      sload\n      swap1\n      0x0100\n      exp\n      swap1\n      div\n      0xffffffffffffffffffffffffffffffffffffffff\n      and\n        /* \"@openzeppelin/contracts/access/Ownable.sol\":2506:2531  address oldOwner = _owner */\n      swap1\n      pop\n        /* \"@openzeppelin/contracts/access/Ownable.sol\":2550:2558  newOwner */\n      dup2\n        /* \"@openzeppelin/contracts/access/Ownable.sol\":2541:2547  _owner */\n      0x00\n      dup1\n        /* \"@openzeppelin/contracts/access/Ownable.sol\":2541:2558  _owner = newOwner */\n      0x0100\n      exp\n      dup2\n      sload\n      dup2\n      0xffffffffffffffffffffffffffffffffffffffff\n      mul\n      not\n      and\n      swap1\n      dup4\n      0xffffffffffffffffffffffffffffffffffffffff\n      and\n      mul\n      or\n      swap1\n      sstore\n      pop\n        /* \"@openzeppelin/contracts/access/Ownable.sol\":2604:2612  newOwner */\n      dup2\n        /* \"@openzeppelin/contracts/access/Ownable.sol\":2573:2613  OwnershipTransferred(oldOwner, newOwner) */\n      0xffffffffffffffffffffffffffffffffffffffff\n      and\n        /* \"@openzeppelin/contracts/access/Ownable.sol\":2594:2602  oldOwner */\n      dup2\n        /* \"@openzeppelin/contracts/access/Ownable.sol\":2573:2613  OwnershipTransferred(oldOwner, newOwner) */\n      0xffffffffffffffffffffffffffffffffffffffff\n      and\n      0x8be0079c531659141344cd1fd0a4f28419497f9722a3daafe3b4186f6b6457e0\n      mload(0x40)\n      mload(0x40)\n      dup1\n      swap2\n      sub\n      swap1\n      log3\n        /* \"@openzeppelin/contracts/access/Ownable.sol\":2496:2620  {... */\n      pop\n        /* \"@openzeppelin/contracts/access/Ownable.sol\":2433:2620  function _transferOwnership(address newOwner) internal virtual {... */\n      pop\n      jump\t// out\n        /* \"@openzeppelin/contracts/utils/Address.sol\":2412:2724  function sendValue(address payable recipient, uint256 amount) internal {... */\n    tag_84:\n        /* \"@openzeppelin/contracts/utils/Address.sol\":2526:2532  amount */\n      dup1\n        /* \"@openzeppelin/contracts/utils/Address.sol\":2501:2522  address(this).balance */\n      selfbalance\n        /* \"@openzeppelin/contracts/utils/Address.sol\":2501:2532  address(this).balance >= amount */\n      lt\n      iszero\n        /* \"@openzeppelin/contracts/utils/Address.sol\":2493:2566  require(address(this).balance >= amount, \"Address: insufficient balance\") */\n      tag_122\n      jumpi\n      mload(0x40)\n      0x08c379a000000000000000000000000000000000000000000000000000000000\n      dup2\n      mstore\n      0x04\n      add\n      tag_123\n      swap1\n      tag_124\n      jump\t// in\n    tag_123:\n      mload(0x40)\n      dup1\n      swap2\n      sub\n      swap1\n      revert\n    tag_122:\n        /* \"@openzeppelin/contracts/utils/Address.sol\":2578:2590  bool success */\n      0x00\n        /* \"@openzeppelin/contracts/utils/Address.sol\":2596:2605  recipient */\n      dup3\n        /* \"@openzeppelin/contracts/utils/Address.sol\":2596:2610  recipient.call */\n      0xffffffffffffffffffffffffffffffffffffffff\n      and\n        /* \"@openzeppelin/contracts/utils/Address.sol\":2618:2624  amount */\n      dup3\n        /* \"@openzeppelin/contracts/utils/Address.sol\":2596:2629  recipient.call{value: amount}(\"\") */\n      mload(0x40)\n      tag_125\n      swap1\n      tag_126\n      jump\t// in\n    tag_125:\n      0x00\n      mload(0x40)\n      dup1\n      dup4\n      sub\n      dup2\n      dup6\n      dup8\n      gas\n      call\n      swap3\n      pop\n      pop\n      pop\n      returndatasize\n      dup1\n      0x00\n      dup2\n      eq\n      tag_129\n      jumpi\n      mload(0x40)\n      swap2\n      pop\n      and(add(returndatasize, 0x3f), not(0x1f))\n      dup3\n      add\n      0x40\n      mstore\n      returndatasize\n      dup3\n      mstore\n      returndatasize\n      0x00\n      0x20\n      dup5\n      add\n      returndatacopy\n      jump(tag_128)\n    tag_129:\n      0x60\n      swap2\n      pop\n    tag_128:\n      pop\n        /* \"@openzeppelin/contracts/utils/Address.sol\":2577:2629  (bool success, ) = recipient.call{value: amount}(\"\") */\n      pop\n      swap1\n      pop\n        /* \"@openzeppelin/contracts/utils/Address.sol\":2647:2654  success */\n      dup1\n        /* \"@openzeppelin/contracts/utils/Address.sol\":2639:2717  require(success, \"Address: unable to send value, recipient may have reverted\") */\n      tag_130\n      jumpi\n      mload(0x40)\n      0x08c379a000000000000000000000000000000000000000000000000000000000\n      dup2\n      mstore\n      0x04\n      add\n      tag_131\n      swap1\n      tag_132\n      jump\t// in\n    tag_131:\n      mload(0x40)\n      dup1\n      swap2\n      sub\n      swap1\n      revert\n    tag_130:\n        /* \"@openzeppelin/contracts/utils/Address.sol\":2483:2724  {... */\n      pop\n        /* \"@openzeppelin/contracts/utils/Address.sol\":2412:2724  function sendValue(address payable recipient, uint256 amount) internal {... */\n      pop\n      pop\n      jump\t// out\n        /* \"@openzeppelin/contracts/utils/Context.sol\":640:736  function _msgSender() internal view virtual returns (address) {... */\n    tag_115:\n        /* \"@openzeppelin/contracts/utils/Context.sol\":693:700  address */\n      0x00\n        /* \"@openzeppelin/contracts/utils/Context.sol\":719:729  msg.sender */\n      caller\n        /* \"@openzeppelin/contracts/utils/Context.sol\":712:729  return msg.sender */\n      swap1\n      pop\n        /* \"@openzeppelin/contracts/utils/Context.sol\":640:736  function _msgSender() internal view virtual returns (address) {... */\n      swap1\n      jump\t// out\n        /* \"#utility.yul\":7:146   */\n    tag_135:\n        /* \"#utility.yul\":53:58   */\n      0x00\n        /* \"#utility.yul\":91:97   */\n      dup2\n        /* \"#utility.yul\":78:98   */\n      calldataload\n        /* \"#utility.yul\":69:98   */\n      swap1\n      pop\n        /* \"#utility.yul\":107:140   */\n      tag_137\n        /* \"#utility.yul\":134:139   */\n      dup2\n        /* \"#utility.yul\":107:140   */\n      tag_138\n      jump\t// in\n    tag_137:\n        /* \"#utility.yul\":7:146   */\n      swap3\n      swap2\n      pop\n      pop\n      jump\t// out\n        /* \"#utility.yul\":152:307   */\n    tag_139:\n        /* \"#utility.yul\":206:211   */\n      0x00\n        /* \"#utility.yul\":244:250   */\n      dup2\n        /* \"#utility.yul\":231:251   */\n      calldataload\n        /* \"#utility.yul\":222:251   */\n      swap1\n      pop\n        /* \"#utility.yul\":260:301   */\n      tag_141\n        /* \"#utility.yul\":295:300   */\n      dup2\n        /* \"#utility.yul\":260:301   */\n      tag_142\n      jump\t// in\n    tag_141:\n        /* \"#utility.yul\":152:307   */\n      swap3\n      swap2\n      pop\n      pop\n      jump\t// out\n        /* \"#utility.yul\":313:446   */\n    tag_143:\n        /* \"#utility.yul\":356:361   */\n      0x00\n        /* \"#utility.yul\":394:400   */\n      dup2\n        /* \"#utility.yul\":381:401   */\n      calldataload\n        /* \"#utility.yul\":372:401   */\n      swap1\n      pop\n        /* \"#utility.yul\":410:440   */\n      tag_145\n        /* \"#utility.yul\":434:439   */\n      dup2\n        /* \"#utility.yul\":410:440   */\n      tag_146\n      jump\t// in\n    tag_145:\n        /* \"#utility.yul\":313:446   */\n      swap3\n      swap2\n      pop\n      pop\n      jump\t// out\n        /* \"#utility.yul\":452:781   */\n    tag_45:\n        /* \"#utility.yul\":511:517   */\n      0x00\n        /* \"#utility.yul\":560:562   */\n      0x20\n        /* \"#utility.yul\":548:557   */\n      dup3\n        /* \"#utility.yul\":539:546   */\n      dup5\n        /* \"#utility.yul\":535:558   */\n      sub\n        /* \"#utility.yul\":531:563   */\n      slt\n        /* \"#utility.yul\":528:647   */\n      iszero\n      tag_148\n      jumpi\n        /* \"#utility.yul\":566:645   */\n      tag_149\n      tag_150\n      jump\t// in\n    tag_149:\n        /* \"#utility.yul\":528:647   */\n    tag_148:\n        /* \"#utility.yul\":686:687   */\n      0x00\n        /* \"#utility.yul\":711:764   */\n      tag_151\n        /* \"#utility.yul\":756:763   */\n      dup5\n        /* \"#utility.yul\":747:753   */\n      dup3\n        /* \"#utility.yul\":736:745   */\n      dup6\n        /* \"#utility.yul\":732:754   */\n      add\n        /* \"#utility.yul\":711:764   */\n      tag_135\n      jump\t// in\n    tag_151:\n        /* \"#utility.yul\":701:764   */\n      swap2\n      pop\n        /* \"#utility.yul\":657:774   */\n      pop\n        /* \"#utility.yul\":452:781   */\n      swap3\n      swap2\n      pop\n      pop\n      jump\t// out\n        /* \"#utility.yul\":787:1132   */\n    tag_28:\n        /* \"#utility.yul\":854:860   */\n      0x00\n        /* \"#utility.yul\":903:905   */\n      0x20\n        /* \"#utility.yul\":891:900   */\n      dup3\n        /* \"#utility.yul\":882:889   */\n      dup5\n        /* \"#utility.yul\":878:901   */\n      sub\n        /* \"#utility.yul\":874:906   */\n      slt\n        /* \"#utility.yul\":871:990   */\n      iszero\n      tag_153\n      jumpi\n        /* \"#utility.yul\":909:988   */\n      tag_154\n      tag_150\n      jump\t// in\n    tag_154:\n        /* \"#utility.yul\":871:990   */\n    tag_153:\n        /* \"#utility.yul\":1029:1030   */\n      0x00\n        /* \"#utility.yul\":1054:1115   */\n      tag_155\n        /* \"#utility.yul\":1107:1114   */\n      dup5\n        /* \"#utility.yul\":1098:1104   */\n      dup3\n        /* \"#utility.yul\":1087:1096   */\n      dup6\n        /* \"#utility.yul\":1083:1105   */\n      add\n        /* \"#utility.yul\":1054:1115   */\n      tag_139\n      jump\t// in\n    tag_155:\n        /* \"#utility.yul\":1044:1115   */\n      swap2\n      pop\n        /* \"#utility.yul\":1000:1125   */\n      pop\n        /* \"#utility.yul\":787:1132   */\n      swap3\n      swap2\n      pop\n      pop\n      jump\t// out\n        /* \"#utility.yul\":1138:1644   */\n    tag_49:\n        /* \"#utility.yul\":1222:1228   */\n      0x00\n        /* \"#utility.yul\":1230:1236   */\n      dup1\n        /* \"#utility.yul\":1279:1281   */\n      0x40\n        /* \"#utility.yul\":1267:1276   */\n      dup4\n        /* \"#utility.yul\":1258:1265   */\n      dup6\n        /* \"#utility.yul\":1254:1277   */\n      sub\n        /* \"#utility.yul\":1250:1282   */\n      slt\n        /* \"#utility.yul\":1247:1366   */\n      iszero\n      tag_157\n      jumpi\n        /* \"#utility.yul\":1285:1364   */\n      tag_158\n      tag_150\n      jump\t// in\n    tag_158:\n        /* \"#utility.yul\":1247:1366   */\n    tag_157:\n        /* \"#utility.yul\":1405:1406   */\n      0x00\n        /* \"#utility.yul\":1430:1491   */\n      tag_159\n        /* \"#utility.yul\":1483:1490   */\n      dup6\n        /* \"#utility.yul\":1474:1480   */\n      dup3\n        /* \"#utility.yul\":1463:1472   */\n      dup7\n        /* \"#utility.yul\":1459:1481   */\n      add\n        /* \"#utility.yul\":1430:1491   */\n      tag_139\n      jump\t// in\n    tag_159:\n        /* \"#utility.yul\":1420:1491   */\n      swap3\n      pop\n        /* \"#utility.yul\":1376:1501   */\n      pop\n        /* \"#utility.yul\":1540:1542   */\n      0x20\n        /* \"#utility.yul\":1566:1627   */\n      tag_160\n        /* \"#utility.yul\":1619:1626   */\n      dup6\n        /* \"#utility.yul\":1610:1616   */\n      dup3\n        /* \"#utility.yul\":1599:1608   */\n      dup7\n        /* \"#utility.yul\":1595:1617   */\n      add\n        /* \"#utility.yul\":1566:1627   */\n      tag_139\n      jump\t// in\n    tag_160:\n        /* \"#utility.yul\":1556:1627   */\n      swap2\n      pop\n        /* \"#utility.yul\":1511:1637   */\n      pop\n        /* \"#utility.yul\":1138:1644   */\n      swap3\n      pop\n      swap3\n      swap1\n      pop\n      jump\t// out\n        /* \"#utility.yul\":1650:1973   */\n    tag_20:\n        /* \"#utility.yul\":1706:1712   */\n      0x00\n        /* \"#utility.yul\":1755:1757   */\n      0x20\n        /* \"#utility.yul\":1743:1752   */\n      dup3\n        /* \"#utility.yul\":1734:1741   */\n      dup5\n        /* \"#utility.yul\":1730:1753   */\n      sub\n        /* \"#utility.yul\":1726:1758   */\n      slt\n        /* \"#utility.yul\":1723:1842   */\n      iszero\n      tag_162\n      jumpi\n        /* \"#utility.yul\":1761:1840   */\n      tag_163\n      tag_150\n      jump\t// in\n    tag_163:\n        /* \"#utility.yul\":1723:1842   */\n    tag_162:\n        /* \"#utility.yul\":1881:1882   */\n      0x00\n        /* \"#utility.yul\":1906:1956   */\n      tag_164\n        /* \"#utility.yul\":1948:1955   */\n      dup5\n        /* \"#utility.yul\":1939:1945   */\n      dup3\n        /* \"#utility.yul\":1928:1937   */\n      dup6\n        /* \"#utility.yul\":1924:1946   */\n      add\n        /* \"#utility.yul\":1906:1956   */\n      tag_143\n      jump\t// in\n    tag_164:\n        /* \"#utility.yul\":1896:1956   */\n      swap2\n      pop\n        /* \"#utility.yul\":1852:1966   */\n      pop\n        /* \"#utility.yul\":1650:1973   */\n      swap3\n      swap2\n      pop\n      pop\n      jump\t// out\n        /* \"#utility.yul\":1979:2441   */\n    tag_15:\n        /* \"#utility.yul\":2041:2047   */\n      0x00\n        /* \"#utility.yul\":2049:2055   */\n      dup1\n        /* \"#utility.yul\":2098:2100   */\n      0x40\n        /* \"#utility.yul\":2086:2095   */\n      dup4\n        /* \"#utility.yul\":2077:2084   */\n      dup6\n        /* \"#utility.yul\":2073:2096   */\n      sub\n        /* \"#utility.yul\":2069:2101   */\n      slt\n        /* \"#utility.yul\":2066:2185   */\n      iszero\n      tag_166\n      jumpi\n        /* \"#utility.yul\":2104:2183   */\n      tag_167\n      tag_150\n      jump\t// in\n    tag_167:\n        /* \"#utility.yul\":2066:2185   */\n    tag_166:\n        /* \"#utility.yul\":2224:2225   */\n      0x00\n        /* \"#utility.yul\":2249:2299   */\n      tag_168\n        /* \"#utility.yul\":2291:2298   */\n      dup6\n        /* \"#utility.yul\":2282:2288   */\n      dup3\n        /* \"#utility.yul\":2271:2280   */\n      dup7\n        /* \"#utility.yul\":2267:2289   */\n      add\n        /* \"#utility.yul\":2249:2299   */\n      tag_143\n      jump\t// in\n    tag_168:\n        /* \"#utility.yul\":2239:2299   */\n      swap3\n      pop\n        /* \"#utility.yul\":2195:2309   */\n      pop\n        /* \"#utility.yul\":2348:2350   */\n      0x20\n        /* \"#utility.yul\":2374:2424   */\n      tag_169\n        /* \"#utility.yul\":2416:2423   */\n      dup6\n        /* \"#utility.yul\":2407:2413   */\n      dup3\n        /* \"#utility.yul\":2396:2405   */\n      dup7\n        /* \"#utility.yul\":2392:2414   */\n      add\n        /* \"#utility.yul\":2374:2424   */\n      tag_143\n      jump\t// in\n    tag_169:\n        /* \"#utility.yul\":2364:2424   */\n      swap2\n      pop\n        /* \"#utility.yul\":2319:2434   */\n      pop\n        /* \"#utility.yul\":1979:2441   */\n      swap3\n      pop\n      swap3\n      swap1\n      pop\n      jump\t// out\n        /* \"#utility.yul\":2447:2565   */\n    tag_170:\n        /* \"#utility.yul\":2534:2558   */\n      tag_172\n        /* \"#utility.yul\":2552:2557   */\n      dup2\n        /* \"#utility.yul\":2534:2558   */\n      tag_173\n      jump\t// in\n    tag_172:\n        /* \"#utility.yul\":2529:2532   */\n      dup3\n        /* \"#utility.yul\":2522:2559   */\n      mstore\n        /* \"#utility.yul\":2447:2565   */\n      pop\n      pop\n      jump\t// out\n        /* \"#utility.yul\":2571:2937   */\n    tag_174:\n        /* \"#utility.yul\":2713:2716   */\n      0x00\n        /* \"#utility.yul\":2734:2801   */\n      tag_176\n        /* \"#utility.yul\":2798:2800   */\n      0x26\n        /* \"#utility.yul\":2793:2796   */\n      dup4\n        /* \"#utility.yul\":2734:2801   */\n      tag_177\n      jump\t// in\n    tag_176:\n        /* \"#utility.yul\":2727:2801   */\n      swap2\n      pop\n        /* \"#utility.yul\":2810:2903   */\n      tag_178\n        /* \"#utility.yul\":2899:2902   */\n      dup3\n        /* \"#utility.yul\":2810:2903   */\n      tag_179\n      jump\t// in\n    tag_178:\n        /* \"#utility.yul\":2928:2930   */\n      0x40\n        /* \"#utility.yul\":2923:2926   */\n      dup3\n        /* \"#utility.yul\":2919:2931   */\n      add\n        /* \"#utility.yul\":2912:2931   */\n      swap1\n      pop\n        /* \"#utility.yul\":2571:2937   */\n      swap2\n      swap1\n      pop\n      jump\t// out\n        /* \"#utility.yul\":2943:3309   */\n    tag_180:\n        /* \"#utility.yul\":3085:3088   */\n      0x00\n        /* \"#utility.yul\":3106:3173   */\n      tag_182\n        /* \"#utility.yul\":3170:3172   */\n      0x3a\n        /* \"#utility.yul\":3165:3168   */\n      dup4\n        /* \"#utility.yul\":3106:3173   */\n      tag_177\n      jump\t// in\n    tag_182:\n        /* \"#utility.yul\":3099:3173   */\n      swap2\n      pop\n        /* \"#utility.yul\":3182:3275   */\n      tag_183\n        /* \"#utility.yul\":3271:3274   */\n      dup3\n        /* \"#utility.yul\":3182:3275   */\n      tag_184\n      jump\t// in\n    tag_183:\n        /* \"#utility.yul\":3300:3302   */\n      0x40\n        /* \"#utility.yul\":3295:3298   */\n      dup3\n        /* \"#utility.yul\":3291:3303   */\n      add\n        /* \"#utility.yul\":3284:3303   */\n      swap1\n      pop\n        /* \"#utility.yul\":2943:3309   */\n      swap2\n      swap1\n      pop\n      jump\t// out\n        /* \"#utility.yul\":3315:3681   */\n    tag_185:\n        /* \"#utility.yul\":3457:3460   */\n      0x00\n        /* \"#utility.yul\":3478:3545   */\n      tag_187\n        /* \"#utility.yul\":3542:3544   */\n      0x1d\n        /* \"#utility.yul\":3537:3540   */\n      dup4\n        /* \"#utility.yul\":3478:3545   */\n      tag_177\n      jump\t// in\n    tag_187:\n        /* \"#utility.yul\":3471:3545   */\n      swap2\n      pop\n        /* \"#utility.yul\":3554:3647   */\n      tag_188\n        /* \"#utility.yul\":3643:3646   */\n      dup3\n        /* \"#utility.yul\":3554:3647   */\n      tag_189\n      jump\t// in\n    tag_188:\n        /* \"#utility.yul\":3672:3674   */\n      0x20\n        /* \"#utility.yul\":3667:3670   */\n      dup3\n        /* \"#utility.yul\":3663:3675   */\n      add\n        /* \"#utility.yul\":3656:3675   */\n      swap1\n      pop\n        /* \"#utility.yul\":3315:3681   */\n      swap2\n      swap1\n      pop\n      jump\t// out\n        /* \"#utility.yul\":3687:4053   */\n    tag_190:\n        /* \"#utility.yul\":3829:3832   */\n      0x00\n        /* \"#utility.yul\":3850:3917   */\n      tag_192\n        /* \"#utility.yul\":3914:3916   */\n      0x1c\n        /* \"#utility.yul\":3909:3912   */\n      dup4\n        /* \"#utility.yul\":3850:3917   */\n      tag_177\n      jump\t// in\n    tag_192:\n        /* \"#utility.yul\":3843:3917   */\n      swap2\n      pop\n        /* \"#utility.yul\":3926:4019   */\n      tag_193\n        /* \"#utility.yul\":4015:4018   */\n      dup3\n        /* \"#utility.yul\":3926:4019   */\n      tag_194\n      jump\t// in\n    tag_193:\n        /* \"#utility.yul\":4044:4046   */\n      0x20\n        /* \"#utility.yul\":4039:4042   */\n      dup3\n        /* \"#utility.yul\":4035:4047   */\n      add\n        /* \"#utility.yul\":4028:4047   */\n      swap1\n      pop\n        /* \"#utility.yul\":3687:4053   */\n      swap2\n      swap1\n      pop\n      jump\t// out\n        /* \"#utility.yul\":4059:4425   */\n    tag_195:\n        /* \"#utility.yul\":4201:4204   */\n      0x00\n        /* \"#utility.yul\":4222:4289   */\n      tag_197\n        /* \"#utility.yul\":4286:4288   */\n      0x20\n        /* \"#utility.yul\":4281:4284   */\n      dup4\n        /* \"#utility.yul\":4222:4289   */\n      tag_177\n      jump\t// in\n    tag_197:\n        /* \"#utility.yul\":4215:4289   */\n      swap2\n      pop\n        /* \"#utility.yul\":4298:4391   */\n      tag_198\n        /* \"#utility.yul\":4387:4390   */\n      dup3\n        /* \"#utility.yul\":4298:4391   */\n      tag_199\n      jump\t// in\n    tag_198:\n        /* \"#utility.yul\":4416:4418   */\n      0x20\n        /* \"#utility.yul\":4411:4414   */\n      dup3\n        /* \"#utility.yul\":4407:4419   */\n      add\n        /* \"#utility.yul\":4400:4419   */\n      swap1\n      pop\n        /* \"#utility.yul\":4059:4425   */\n      swap2\n      swap1\n      pop\n      jump\t// out\n        /* \"#utility.yul\":4431:4829   */\n    tag_200:\n        /* \"#utility.yul\":4590:4593   */\n      0x00\n        /* \"#utility.yul\":4611:4694   */\n      tag_202\n        /* \"#utility.yul\":4692:4693   */\n      0x00\n        /* \"#utility.yul\":4687:4690   */\n      dup4\n        /* \"#utility.yul\":4611:4694   */\n      tag_203\n      jump\t// in\n    tag_202:\n        /* \"#utility.yul\":4604:4694   */\n      swap2\n      pop\n        /* \"#utility.yul\":4703:4796   */\n      tag_204\n        /* \"#utility.yul\":4792:4795   */\n      dup3\n        /* \"#utility.yul\":4703:4796   */\n      tag_205\n      jump\t// in\n    tag_204:\n        /* \"#utility.yul\":4821:4822   */\n      0x00\n        /* \"#utility.yul\":4816:4819   */\n      dup3\n        /* \"#utility.yul\":4812:4823   */\n      add\n        /* \"#utility.yul\":4805:4823   */\n      swap1\n      pop\n        /* \"#utility.yul\":4431:4829   */\n      swap2\n      swap1\n      pop\n      jump\t// out\n        /* \"#utility.yul\":4835:5201   */\n    tag_206:\n        /* \"#utility.yul\":4977:4980   */\n      0x00\n        /* \"#utility.yul\":4998:5065   */\n      tag_208\n        /* \"#utility.yul\":5062:5064   */\n      0x17\n        /* \"#utility.yul\":5057:5060   */\n      dup4\n        /* \"#utility.yul\":4998:5065   */\n      tag_177\n      jump\t// in\n    tag_208:\n        /* \"#utility.yul\":4991:5065   */\n      swap2\n      pop\n        /* \"#utility.yul\":5074:5167   */\n      tag_209\n        /* \"#utility.yul\":5163:5166   */\n      dup3\n        /* \"#utility.yul\":5074:5167   */\n      tag_210\n      jump\t// in\n    tag_209:\n        /* \"#utility.yul\":5192:5194   */\n      0x20\n        /* \"#utility.yul\":5187:5190   */\n      dup3\n        /* \"#utility.yul\":5183:5195   */\n      add\n        /* \"#utility.yul\":5176:5195   */\n      swap1\n      pop\n        /* \"#utility.yul\":4835:5201   */\n      swap2\n      swap1\n      pop\n      jump\t// out\n        /* \"#utility.yul\":5207:5325   */\n    tag_211:\n        /* \"#utility.yul\":5294:5318   */\n      tag_213\n        /* \"#utility.yul\":5312:5317   */\n      dup2\n        /* \"#utility.yul\":5294:5318   */\n      tag_214\n      jump\t// in\n    tag_213:\n        /* \"#utility.yul\":5289:5292   */\n      dup3\n        /* \"#utility.yul\":5282:5319   */\n      mstore\n        /* \"#utility.yul\":5207:5325   */\n      pop\n      pop\n      jump\t// out\n        /* \"#utility.yul\":5331:5710   */\n    tag_126:\n        /* \"#utility.yul\":5515:5518   */\n      0x00\n        /* \"#utility.yul\":5537:5684   */\n      tag_216\n        /* \"#utility.yul\":5680:5683   */\n      dup3\n        /* \"#utility.yul\":5537:5684   */\n      tag_200\n      jump\t// in\n    tag_216:\n        /* \"#utility.yul\":5530:5684   */\n      swap2\n      pop\n        /* \"#utility.yul\":5701:5704   */\n      dup2\n        /* \"#utility.yul\":5694:5704   */\n      swap1\n      pop\n        /* \"#utility.yul\":5331:5710   */\n      swap2\n      swap1\n      pop\n      jump\t// out\n        /* \"#utility.yul\":5716:5938   */\n    tag_34:\n        /* \"#utility.yul\":5809:5813   */\n      0x00\n        /* \"#utility.yul\":5847:5849   */\n      0x20\n        /* \"#utility.yul\":5836:5845   */\n      dup3\n        /* \"#utility.yul\":5832:5850   */\n      add\n        /* \"#utility.yul\":5824:5850   */\n      swap1\n      pop\n        /* \"#utility.yul\":5860:5931   */\n      tag_218\n        /* \"#utility.yul\":5928:5929   */\n      0x00\n        /* \"#utility.yul\":5917:5926   */\n      dup4\n        /* \"#utility.yul\":5913:5930   */\n      add\n        /* \"#utility.yul\":5904:5910   */\n      dup5\n        /* \"#utility.yul\":5860:5931   */\n      tag_170\n      jump\t// in\n    tag_218:\n        /* \"#utility.yul\":5716:5938   */\n      swap3\n      swap2\n      pop\n      pop\n      jump\t// out\n        /* \"#utility.yul\":5944:6363   */\n    tag_96:\n        /* \"#utility.yul\":6110:6114   */\n      0x00\n        /* \"#utility.yul\":6148:6150   */\n      0x20\n        /* \"#utility.yul\":6137:6146   */\n      dup3\n        /* \"#utility.yul\":6133:6151   */\n      add\n        /* \"#utility.yul\":6125:6151   */\n      swap1\n      pop\n        /* \"#utility.yul\":6197:6206   */\n      dup2\n        /* \"#utility.yul\":6191:6195   */\n      dup2\n        /* \"#utility.yul\":6187:6207   */\n      sub\n        /* \"#utility.yul\":6183:6184   */\n      0x00\n        /* \"#utility.yul\":6172:6181   */\n      dup4\n        /* \"#utility.yul\":6168:6185   */\n      add\n        /* \"#utility.yul\":6161:6208   */\n      mstore\n        /* \"#utility.yul\":6225:6356   */\n      tag_220\n        /* \"#utility.yul\":6351:6355   */\n      dup2\n        /* \"#utility.yul\":6225:6356   */\n      tag_174\n      jump\t// in\n    tag_220:\n        /* \"#utility.yul\":6217:6356   */\n      swap1\n      pop\n        /* \"#utility.yul\":5944:6363   */\n      swap2\n      swap1\n      pop\n      jump\t// out\n        /* \"#utility.yul\":6369:6788   */\n    tag_132:\n        /* \"#utility.yul\":6535:6539   */\n      0x00\n        /* \"#utility.yul\":6573:6575   */\n      0x20\n        /* \"#utility.yul\":6562:6571   */\n      dup3\n        /* \"#utility.yul\":6558:6576   */\n      add\n        /* \"#utility.yul\":6550:6576   */\n      swap1\n      pop\n        /* \"#utility.yul\":6622:6631   */\n      dup2\n        /* \"#utility.yul\":6616:6620   */\n      dup2\n        /* \"#utility.yul\":6612:6632   */\n      sub\n        /* \"#utility.yul\":6608:6609   */\n      0x00\n        /* \"#utility.yul\":6597:6606   */\n      dup4\n        /* \"#utility.yul\":6593:6610   */\n      add\n        /* \"#utility.yul\":6586:6633   */\n      mstore\n        /* \"#utility.yul\":6650:6781   */\n      tag_222\n        /* \"#utility.yul\":6776:6780   */\n      dup2\n        /* \"#utility.yul\":6650:6781   */\n      tag_180\n      jump\t// in\n    tag_222:\n        /* \"#utility.yul\":6642:6781   */\n      swap1\n      pop\n        /* \"#utility.yul\":6369:6788   */\n      swap2\n      swap1\n      pop\n      jump\t// out\n        /* \"#utility.yul\":6794:7213   */\n    tag_124:\n        /* \"#utility.yul\":6960:6964   */\n      0x00\n        /* \"#utility.yul\":6998:7000   */\n      0x20\n        /* \"#utility.yul\":6987:6996   */\n      dup3\n        /* \"#utility.yul\":6983:7001   */\n      add\n        /* \"#utility.yul\":6975:7001   */\n      swap1\n      pop\n        /* \"#utility.yul\":7047:7056   */\n      dup2\n        /* \"#utility.yul\":7041:7045   */\n      dup2\n        /* \"#utility.yul\":7037:7057   */\n      sub\n        /* \"#utility.yul\":7033:7034   */\n      0x00\n        /* \"#utility.yul\":7022:7031   */\n      dup4\n        /* \"#utility.yul\":7018:7035   */\n      add\n        /* \"#utility.yul\":7011:7058   */\n      mstore\n        /* \"#utility.yul\":7075:7206   */\n      tag_224\n        /* \"#utility.yul\":7201:7205   */\n      dup2\n        /* \"#utility.yul\":7075:7206   */\n      tag_185\n      jump\t// in\n    tag_224:\n        /* \"#utility.yul\":7067:7206   */\n      swap1\n      pop\n        /* \"#utility.yul\":6794:7213   */\n      swap2\n      swap1\n      pop\n      jump\t// out\n        /* \"#utility.yul\":7219:7638   */\n    tag_112:\n        /* \"#utility.yul\":7385:7389   */\n      0x00\n        /* \"#utility.yul\":7423:7425   */\n      0x20\n        /* \"#utility.yul\":7412:7421   */\n      dup3\n        /* \"#utility.yul\":7408:7426   */\n      add\n        /* \"#utility.yul\":7400:7426   */\n      swap1\n      pop\n        /* \"#utility.yul\":7472:7481   */\n      dup2\n        /* \"#utility.yul\":7466:7470   */\n      dup2\n        /* \"#utility.yul\":7462:7482   */\n      sub\n        /* \"#utility.yul\":7458:7459   */\n      0x00\n        /* \"#utility.yul\":7447:7456   */\n      dup4\n        /* \"#utility.yul\":7443:7460   */\n      add\n        /* \"#utility.yul\":7436:7483   */\n      mstore\n        /* \"#utility.yul\":7500:7631   */\n      tag_226\n        /* \"#utility.yul\":7626:7630   */\n      dup2\n        /* \"#utility.yul\":7500:7631   */\n      tag_190\n      jump\t// in\n    tag_226:\n        /* \"#utility.yul\":7492:7631   */\n      swap1\n      pop\n        /* \"#utility.yul\":7219:7638   */\n      swap2\n      swap1\n      pop\n      jump\t// out\n        /* \"#utility.yul\":7644:8063   */\n    tag_119:\n        /* \"#utility.yul\":7810:7814   */\n      0x00\n        /* \"#utility.yul\":7848:7850   */\n      0x20\n        /* \"#utility.yul\":7837:7846   */\n      dup3\n        /* \"#utility.yul\":7833:7851   */\n      add\n        /* \"#utility.yul\":7825:7851   */\n      swap1\n      pop\n        /* \"#utility.yul\":7897:7906   */\n      dup2\n        /* \"#utility.yul\":7891:7895   */\n      dup2\n        /* \"#utility.yul\":7887:7907   */\n      sub\n        /* \"#utility.yul\":7883:7884   */\n      0x00\n        /* \"#utility.yul\":7872:7881   */\n      dup4\n        /* \"#utility.yul\":7868:7885   */\n      add\n        /* \"#utility.yul\":7861:7908   */\n      mstore\n        /* \"#utility.yul\":7925:8056   */\n      tag_228\n        /* \"#utility.yul\":8051:8055   */\n      dup2\n        /* \"#utility.yul\":7925:8056   */\n      tag_195\n      jump\t// in\n    tag_228:\n        /* \"#utility.yul\":7917:8056   */\n      swap1\n      pop\n        /* \"#utility.yul\":7644:8063   */\n      swap2\n      swap1\n      pop\n      jump\t// out\n        /* \"#utility.yul\":8069:8488   */\n    tag_108:\n        /* \"#utility.yul\":8235:8239   */\n      0x00\n        /* \"#utility.yul\":8273:8275   */\n      0x20\n        /* \"#utility.yul\":8262:8271   */\n      dup3\n        /* \"#utility.yul\":8258:8276   */\n      add\n        /* \"#utility.yul\":8250:8276   */\n      swap1\n      pop\n        /* \"#utility.yul\":8322:8331   */\n      dup2\n        /* \"#utility.yul\":8316:8320   */\n      dup2\n        /* \"#utility.yul\":8312:8332   */\n      sub\n        /* \"#utility.yul\":8308:8309   */\n      0x00\n        /* \"#utility.yul\":8297:8306   */\n      dup4\n        /* \"#utility.yul\":8293:8310   */\n      add\n        /* \"#utility.yul\":8286:8333   */\n      mstore\n        /* \"#utility.yul\":8350:8481   */\n      tag_230\n        /* \"#utility.yul\":8476:8480   */\n      dup2\n        /* \"#utility.yul\":8350:8481   */\n      tag_206\n      jump\t// in\n    tag_230:\n        /* \"#utility.yul\":8342:8481   */\n      swap1\n      pop\n        /* \"#utility.yul\":8069:8488   */\n      swap2\n      swap1\n      pop\n      jump\t// out\n        /* \"#utility.yul\":8494:8716   */\n    tag_104:\n        /* \"#utility.yul\":8587:8591   */\n      0x00\n        /* \"#utility.yul\":8625:8627   */\n      0x20\n        /* \"#utility.yul\":8614:8623   */\n      dup3\n        /* \"#utility.yul\":8610:8628   */\n      add\n        /* \"#utility.yul\":8602:8628   */\n      swap1\n      pop\n        /* \"#utility.yul\":8638:8709   */\n      tag_232\n        /* \"#utility.yul\":8706:8707   */\n      0x00\n        /* \"#utility.yul\":8695:8704   */\n      dup4\n        /* \"#utility.yul\":8691:8708   */\n      add\n        /* \"#utility.yul\":8682:8688   */\n      dup5\n        /* \"#utility.yul\":8638:8709   */\n      tag_211\n      jump\t// in\n    tag_232:\n        /* \"#utility.yul\":8494:8716   */\n      swap3\n      swap2\n      pop\n      pop\n      jump\t// out\n        /* \"#utility.yul\":8803:8950   */\n    tag_203:\n        /* \"#utility.yul\":8904:8915   */\n      0x00\n        /* \"#utility.yul\":8941:8944   */\n      dup2\n        /* \"#utility.yul\":8926:8944   */\n      swap1\n      pop\n        /* \"#utility.yul\":8803:8950   */\n      swap3\n      swap2\n      pop\n      pop\n      jump\t// out\n        /* \"#utility.yul\":8956:9125   */\n    tag_177:\n        /* \"#utility.yul\":9040:9051   */\n      0x00\n        /* \"#utility.yul\":9074:9080   */\n      dup3\n        /* \"#utility.yul\":9069:9072   */\n      dup3\n        /* \"#utility.yul\":9062:9081   */\n      mstore\n        /* \"#utility.yul\":9114:9118   */\n      0x20\n        /* \"#utility.yul\":9109:9112   */\n      dup3\n        /* \"#utility.yul\":9105:9119   */\n      add\n        /* \"#utility.yul\":9090:9119   */\n      swap1\n      pop\n        /* \"#utility.yul\":8956:9125   */\n      swap3\n      swap2\n      pop\n      pop\n      jump\t// out\n        /* \"#utility.yul\":9131:9436   */\n    tag_102:\n        /* \"#utility.yul\":9171:9174   */\n      0x00\n        /* \"#utility.yul\":9190:9210   */\n      tag_238\n        /* \"#utility.yul\":9208:9209   */\n      dup3\n        /* \"#utility.yul\":9190:9210   */\n      tag_214\n      jump\t// in\n    tag_238:\n        /* \"#utility.yul\":9185:9210   */\n      swap2\n      pop\n        /* \"#utility.yul\":9224:9244   */\n      tag_239\n        /* \"#utility.yul\":9242:9243   */\n      dup4\n        /* \"#utility.yul\":9224:9244   */\n      tag_214\n      jump\t// in\n    tag_239:\n        /* \"#utility.yul\":9219:9244   */\n      swap3\n      pop\n        /* \"#utility.yul\":9378:9379   */\n      dup3\n        /* \"#utility.yul\":9310:9376   */\n      0xffffffffffffffffffffffffffffffffffffffffffffffffffffffffffffffff\n        /* \"#utility.yul\":9306:9380   */\n      sub\n        /* \"#utility.yul\":9303:9304   */\n      dup3\n        /* \"#utility.yul\":9300:9381   */\n      gt\n        /* \"#utility.yul\":9297:9404   */\n      iszero\n      tag_240\n      jumpi\n        /* \"#utility.yul\":9384:9402   */\n      tag_241\n      tag_242\n      jump\t// in\n    tag_241:\n        /* \"#utility.yul\":9297:9404   */\n    tag_240:\n        /* \"#utility.yul\":9428:9429   */\n      dup3\n        /* \"#utility.yul\":9425:9426   */\n      dup3\n        /* \"#utility.yul\":9421:9430   */\n      add\n        /* \"#utility.yul\":9414:9430   */\n      swap1\n      pop\n        /* \"#utility.yul\":9131:9436   */\n      swap3\n      swap2\n      pop\n      pop\n      jump\t// out\n        /* \"#utility.yul\":9442:9627   */\n    tag_76:\n        /* \"#utility.yul\":9482:9483   */\n      0x00\n        /* \"#utility.yul\":9499:9519   */\n      tag_244\n        /* \"#utility.yul\":9517:9518   */\n      dup3\n        /* \"#utility.yul\":9499:9519   */\n      tag_214\n      jump\t// in\n    tag_244:\n        /* \"#utility.yul\":9494:9519   */\n      swap2\n      pop\n        /* \"#utility.yul\":9533:9553   */\n      tag_245\n        /* \"#utility.yul\":9551:9552   */\n      dup4\n        /* \"#utility.yul\":9533:9553   */\n      tag_214\n      jump\t// in\n    tag_245:\n        /* \"#utility.yul\":9528:9553   */\n      swap3\n      pop\n        /* \"#utility.yul\":9572:9573   */\n      dup3\n        /* \"#utility.yul\":9562:9597   */\n      tag_246\n      jumpi\n        /* \"#utility.yul\":9577:9595   */\n      tag_247\n      tag_248\n      jump\t// in\n    tag_247:\n        /* \"#utility.yul\":9562:9597   */\n    tag_246:\n        /* \"#utility.yul\":9619:9620   */\n      dup3\n        /* \"#utility.yul\":9616:9617   */\n      dup3\n        /* \"#utility.yul\":9612:9621   */\n      div\n        /* \"#utility.yul\":9607:9621   */\n      swap1\n      pop\n        /* \"#utility.yul\":9442:9627   */\n      swap3\n      swap2\n      pop\n      pop\n      jump\t// out\n        /* \"#utility.yul\":9633:9981   */\n    tag_74:\n        /* \"#utility.yul\":9673:9680   */\n      0x00\n        /* \"#utility.yul\":9696:9716   */\n      tag_250\n        /* \"#utility.yul\":9714:9715   */\n      dup3\n        /* \"#utility.yul\":9696:9716   */\n      tag_214\n      jump\t// in\n    tag_250:\n        /* \"#utility.yul\":9691:9716   */\n      swap2\n      pop\n        /* \"#utility.yul\":9730:9750   */\n      tag_251\n        /* \"#utility.yul\":9748:9749   */\n      dup4\n        /* \"#utility.yul\":9730:9750   */\n      tag_214\n      jump\t// in\n    tag_251:\n        /* \"#utility.yul\":9725:9750   */\n      swap3\n      pop\n        /* \"#utility.yul\":9918:9919   */\n      dup2\n        /* \"#utility.yul\":9850:9916   */\n      0xffffffffffffffffffffffffffffffffffffffffffffffffffffffffffffffff\n        /* \"#utility.yul\":9846:9920   */\n      div\n        /* \"#utility.yul\":9843:9844   */\n      dup4\n        /* \"#utility.yul\":9840:9921   */\n      gt\n        /* \"#utility.yul\":9835:9836   */\n      dup3\n        /* \"#utility.yul\":9828:9837   */\n      iszero\n        /* \"#utility.yul\":9821:9838   */\n      iszero\n        /* \"#utility.yul\":9817:9922   */\n      and\n        /* \"#utility.yul\":9814:9945   */\n      iszero\n      tag_252\n      jumpi\n        /* \"#utility.yul\":9925:9943   */\n      tag_253\n      tag_242\n      jump\t// in\n    tag_253:\n        /* \"#utility.yul\":9814:9945   */\n    tag_252:\n        /* \"#utility.yul\":9973:9974   */\n      dup3\n        /* \"#utility.yul\":9970:9971   */\n      dup3\n        /* \"#utility.yul\":9966:9975   */\n      mul\n        /* \"#utility.yul\":9955:9975   */\n      swap1\n      pop\n        /* \"#utility.yul\":9633:9981   */\n      swap3\n      swap2\n      pop\n      pop\n      jump\t// out\n        /* \"#utility.yul\":9987:10178   */\n    tag_78:\n        /* \"#utility.yul\":10027:10031   */\n      0x00\n        /* \"#utility.yul\":10047:10067   */\n      tag_255\n        /* \"#utility.yul\":10065:10066   */\n      dup3\n        /* \"#utility.yul\":10047:10067   */\n      tag_214\n      jump\t// in\n    tag_255:\n        /* \"#utility.yul\":10042:10067   */\n      swap2\n      pop\n        /* \"#utility.yul\":10081:10101   */\n      tag_256\n        /* \"#utility.yul\":10099:10100   */\n      dup4\n        /* \"#utility.yul\":10081:10101   */\n      tag_214\n      jump\t// in\n    tag_256:\n        /* \"#utility.yul\":10076:10101   */\n      swap3\n      pop\n        /* \"#utility.yul\":10120:10121   */\n      dup3\n        /* \"#utility.yul\":10117:10118   */\n      dup3\n        /* \"#utility.yul\":10114:10122   */\n      lt\n        /* \"#utility.yul\":10111:10145   */\n      iszero\n      tag_257\n      jumpi\n        /* \"#utility.yul\":10125:10143   */\n      tag_258\n      tag_242\n      jump\t// in\n    tag_258:\n        /* \"#utility.yul\":10111:10145   */\n    tag_257:\n        /* \"#utility.yul\":10170:10171   */\n      dup3\n        /* \"#utility.yul\":10167:10168   */\n      dup3\n        /* \"#utility.yul\":10163:10172   */\n      sub\n        /* \"#utility.yul\":10155:10172   */\n      swap1\n      pop\n        /* \"#utility.yul\":9987:10178   */\n      swap3\n      swap2\n      pop\n      pop\n      jump\t// out\n        /* \"#utility.yul\":10184:10280   */\n    tag_173:\n        /* \"#utility.yul\":10221:10228   */\n      0x00\n        /* \"#utility.yul\":10250:10274   */\n      tag_260\n        /* \"#utility.yul\":10268:10273   */\n      dup3\n        /* \"#utility.yul\":10250:10274   */\n      tag_261\n      jump\t// in\n    tag_260:\n        /* \"#utility.yul\":10239:10274   */\n      swap1\n      pop\n        /* \"#utility.yul\":10184:10280   */\n      swap2\n      swap1\n      pop\n      jump\t// out\n        /* \"#utility.yul\":10286:10390   */\n    tag_262:\n        /* \"#utility.yul\":10331:10338   */\n      0x00\n        /* \"#utility.yul\":10360:10384   */\n      tag_264\n        /* \"#utility.yul\":10378:10383   */\n      dup3\n        /* \"#utility.yul\":10360:10384   */\n      tag_261\n      jump\t// in\n    tag_264:\n        /* \"#utility.yul\":10349:10384   */\n      swap1\n      pop\n        /* \"#utility.yul\":10286:10390   */\n      swap2\n      swap1\n      pop\n      jump\t// out\n        /* \"#utility.yul\":10396:10486   */\n    tag_265:\n        /* \"#utility.yul\":10430:10437   */\n      0x00\n        /* \"#utility.yul\":10473:10478   */\n      dup2\n        /* \"#utility.yul\":10466:10479   */\n      iszero\n        /* \"#utility.yul\":10459:10480   */\n      iszero\n        /* \"#utility.yul\":10448:10480   */\n      swap1\n      pop\n        /* \"#utility.yul\":10396:10486   */\n      swap2\n      swap1\n      pop\n      jump\t// out\n        /* \"#utility.yul\":10492:10618   */\n    tag_261:\n        /* \"#utility.yul\":10529:10536   */\n      0x00\n        /* \"#utility.yul\":10569:10611   */\n      0xffffffffffffffffffffffffffffffffffffffff\n        /* \"#utility.yul\":10562:10567   */\n      dup3\n        /* \"#utility.yul\":10558:10612   */\n      and\n        /* \"#utility.yul\":10547:10612   */\n      swap1\n      pop\n        /* \"#utility.yul\":10492:10618   */\n      swap2\n      swap1\n      pop\n      jump\t// out\n        /* \"#utility.yul\":10624:10701   */\n    tag_214:\n        /* \"#utility.yul\":10661:10668   */\n      0x00\n        /* \"#utility.yul\":10690:10695   */\n      dup2\n        /* \"#utility.yul\":10679:10695   */\n      swap1\n      pop\n        /* \"#utility.yul\":10624:10701   */\n      swap2\n      swap1\n      pop\n      jump\t// out\n        /* \"#utility.yul\":10707:10887   */\n    tag_242:\n        /* \"#utility.yul\":10755:10832   */\n      0x4e487b7100000000000000000000000000000000000000000000000000000000\n        /* \"#utility.yul\":10752:10753   */\n      0x00\n        /* \"#utility.yul\":10745:10833   */\n      mstore\n        /* \"#utility.yul\":10852:10856   */\n      0x11\n        /* \"#utility.yul\":10849:10850   */\n      0x04\n        /* \"#utility.yul\":10842:10857   */\n      mstore\n        /* \"#utility.yul\":10876:10880   */\n      0x24\n        /* \"#utility.yul\":10873:10874   */\n      0x00\n        /* \"#utility.yul\":10866:10881   */\n      revert\n        /* \"#utility.yul\":10893:11073   */\n    tag_248:\n        /* \"#utility.yul\":10941:11018   */\n      0x4e487b7100000000000000000000000000000000000000000000000000000000\n        /* \"#utility.yul\":10938:10939   */\n      0x00\n        /* \"#utility.yul\":10931:11019   */\n      mstore\n        /* \"#utility.yul\":11038:11042   */\n      0x12\n        /* \"#utility.yul\":11035:11036   */\n      0x04\n        /* \"#utility.yul\":11028:11043   */\n      mstore\n        /* \"#utility.yul\":11062:11066   */\n      0x24\n        /* \"#utility.yul\":11059:11060   */\n      0x00\n        /* \"#utility.yul\":11052:11067   */\n      revert\n        /* \"#utility.yul\":11202:11319   */\n    tag_150:\n        /* \"#utility.yul\":11311:11312   */\n      0x00\n        /* \"#utility.yul\":11308:11309   */\n      dup1\n        /* \"#utility.yul\":11301:11313   */\n      revert\n        /* \"#utility.yul\":11325:11550   */\n    tag_179:\n        /* \"#utility.yul\":11465:11499   */\n      0x4f776e61626c653a206e6577206f776e657220697320746865207a65726f2061\n        /* \"#utility.yul\":11461:11462   */\n      0x00\n        /* \"#utility.yul\":11453:11459   */\n      dup3\n        /* \"#utility.yul\":11449:11463   */\n      add\n        /* \"#utility.yul\":11442:11500   */\n      mstore\n        /* \"#utility.yul\":11534:11542   */\n      0x6464726573730000000000000000000000000000000000000000000000000000\n        /* \"#utility.yul\":11529:11531   */\n      0x20\n        /* \"#utility.yul\":11521:11527   */\n      dup3\n        /* \"#utility.yul\":11517:11532   */\n      add\n        /* \"#utility.yul\":11510:11543   */\n      mstore\n        /* \"#utility.yul\":11325:11550   */\n      pop\n      jump\t// out\n        /* \"#utility.yul\":11556:11801   */\n    tag_184:\n        /* \"#utility.yul\":11696:11730   */\n      0x416464726573733a20756e61626c6520746f2073656e642076616c75652c2072\n        /* \"#utility.yul\":11692:11693   */\n      0x00\n        /* \"#utility.yul\":11684:11690   */\n      dup3\n        /* \"#utility.yul\":11680:11694   */\n      add\n        /* \"#utility.yul\":11673:11731   */\n      mstore\n        /* \"#utility.yul\":11765:11793   */\n      0x6563697069656e74206d61792068617665207265766572746564000000000000\n        /* \"#utility.yul\":11760:11762   */\n      0x20\n        /* \"#utility.yul\":11752:11758   */\n      dup3\n        /* \"#utility.yul\":11748:11763   */\n      add\n        /* \"#utility.yul\":11741:11794   */\n      mstore\n        /* \"#utility.yul\":11556:11801   */\n      pop\n      jump\t// out\n        /* \"#utility.yul\":11807:11986   */\n    tag_189:\n        /* \"#utility.yul\":11947:11978   */\n      0x416464726573733a20696e73756666696369656e742062616c616e6365000000\n        /* \"#utility.yul\":11943:11944   */\n      0x00\n        /* \"#utility.yul\":11935:11941   */\n      dup3\n        /* \"#utility.yul\":11931:11945   */\n      add\n        /* \"#utility.yul\":11924:11979   */\n      mstore\n        /* \"#utility.yul\":11807:11986   */\n      pop\n      jump\t// out\n        /* \"#utility.yul\":11992:12170   */\n    tag_194:\n        /* \"#utility.yul\":12132:12162   */\n      0x63616c6c6572206973206e6f742074686520636f6e74726163746f7200000000\n        /* \"#utility.yul\":12128:12129   */\n      0x00\n        /* \"#utility.yul\":12120:12126   */\n      dup3\n        /* \"#utility.yul\":12116:12130   */\n      add\n        /* \"#utility.yul\":12109:12163   */\n      mstore\n        /* \"#utility.yul\":11992:12170   */\n      pop\n      jump\t// out\n        /* \"#utility.yul\":12176:12358   */\n    tag_199:\n        /* \"#utility.yul\":12316:12350   */\n      0x4f776e61626c653a2063616c6c6572206973206e6f7420746865206f776e6572\n        /* \"#utility.yul\":12312:12313   */\n      0x00\n        /* \"#utility.yul\":12304:12310   */\n      dup3\n        /* \"#utility.yul\":12300:12314   */\n      add\n        /* \"#utility.yul\":12293:12351   */\n      mstore\n        /* \"#utility.yul\":12176:12358   */\n      pop\n      jump\t// out\n        /* \"#utility.yul\":12364:12478   */\n    tag_205:\n      pop\n      jump\t// out\n        /* \"#utility.yul\":12484:12657   */\n    tag_210:\n        /* \"#utility.yul\":12624:12649   */\n      0x63616c6c6572206973206e6f74207468652061646d696e000000000000000000\n        /* \"#utility.yul\":12620:12621   */\n      0x00\n        /* \"#utility.yul\":12612:12618   */\n      dup3\n        /* \"#utility.yul\":12608:12622   */\n      add\n        /* \"#utility.yul\":12601:12650   */\n      mstore\n        /* \"#utility.yul\":12484:12657   */\n      pop\n      jump\t// out\n        /* \"#utility.yul\":12663:12785   */\n    tag_138:\n        /* \"#utility.yul\":12736:12760   */\n      tag_282\n        /* \"#utility.yul\":12754:12759   */\n      dup2\n        /* \"#utility.yul\":12736:12760   */\n      tag_173\n      jump\t// in\n    tag_282:\n        /* \"#utility.yul\":12729:12734   */\n      dup2\n        /* \"#utility.yul\":12726:12761   */\n      eq\n        /* \"#utility.yul\":12716:12779   */\n      tag_283\n      jumpi\n        /* \"#utility.yul\":12775:12776   */\n      0x00\n        /* \"#utility.yul\":12772:12773   */\n      dup1\n        /* \"#utility.yul\":12765:12777   */\n      revert\n        /* \"#utility.yul\":12716:12779   */\n    tag_283:\n        /* \"#utility.yul\":12663:12785   */\n      pop\n      jump\t// out\n        /* \"#utility.yul\":12791:12929   */\n    tag_142:\n        /* \"#utility.yul\":12872:12904   */\n      tag_285\n        /* \"#utility.yul\":12898:12903   */\n      dup2\n        /* \"#utility.yul\":12872:12904   */\n      tag_262\n      jump\t// in\n    tag_285:\n        /* \"#utility.yul\":12865:12870   */\n      dup2\n        /* \"#utility.yul\":12862:12905   */\n      eq\n        /* \"#utility.yul\":12852:12923   */\n      tag_286\n      jumpi\n        /* \"#utility.yul\":12919:12920   */\n      0x00\n        /* \"#utility.yul\":12916:12917   */\n      dup1\n        /* \"#utility.yul\":12909:12921   */\n      revert\n        /* \"#utility.yul\":12852:12923   */\n    tag_286:\n        /* \"#utility.yul\":12791:12929   */\n      pop\n      jump\t// out\n        /* \"#utility.yul\":12935:13051   */\n    tag_146:\n        /* \"#utility.yul\":13005:13026   */\n      tag_288\n        /* \"#utility.yul\":13020:13025   */\n      dup2\n        /* \"#utility.yul\":13005:13026   */\n      tag_265\n      jump\t// in\n    tag_288:\n        /* \"#utility.yul\":12998:13003   */\n      dup2\n        /* \"#utility.yul\":12995:13027   */\n      eq\n        /* \"#utility.yul\":12985:13045   */\n      tag_289\n      jumpi\n        /* \"#utility.yul\":13041:13042   */\n      0x00\n        /* \"#utility.yul\":13038:13039   */\n      dup1\n        /* \"#utility.yul\":13031:13043   */\n      revert\n        /* \"#utility.yul\":12985:13045   */\n    tag_289:\n        /* \"#utility.yul\":12935:13051   */\n      pop\n      jump\t// out\n\n    auxdata: 0xa26469706673582212200c6dc059a9f22bd355f09e644ddf93f10aec786af6182f432de58d1f7294e23b64736f6c63430008070033\n}\n",
				"bytecode": {
					"linkReferences": {},
					"object": "608060405234801561001057600080fd5b5061002d61002261003260201b60201c565b61003a60201b60201c565b6100fe565b600033905090565b60008060009054906101000a900473ffffffffffffffffffffffffffffffffffffffff169050816000806101000a81548173ffffffffffffffffffffffffffffffffffffffff021916908373ffffffffffffffffffffffffffffffffffffffff1602179055508173ffffffffffffffffffffffffffffffffffffffff168173ffffffffffffffffffffffffffffffffffffffff167f8be0079c531659141344cd1fd0a4f28419497f9722a3daafe3b4186f6b6457e060405160405180910390a35050565b6111b68061010d6000396000f3fe6080604052600436106100865760003560e01c80638da5cb5b116100595780638da5cb5b1461011d5780639464c8b814610148578063b0568eaa14610171578063f2fde38b14610188578063f9609f08146101b157610086565b806311571f301461008b578063251d8cd5146100b4578063715018a6146100dd578063761768b6146100f4575b600080fd5b34801561009757600080fd5b506100b260048036038101906100ad9190610baa565b6101cd565b005b3480156100c057600080fd5b506100db60048036038101906100d69190610b7d565b610215565b005b3480156100e957600080fd5b506100f261023a565b005b34801561010057600080fd5b5061011b60048036038101906101169190610b10565b61024e565b005b34801561012957600080fd5b506101326102d5565b60405161013f9190610d12565b60405180910390f35b34801561015457600080fd5b5061016f600480360381019061016a9190610b7d565b6102fe565b005b34801561017d57600080fd5b5061018661032b565b005b34801561019457600080fd5b506101af60048036038101906101aa9190610ae3565b610545565b005b6101cb60048036038101906101c69190610b3d565b6105c9565b005b6101d5610742565b81600560026101000a81548160ff02191690831515021790555080600560036101000a81548160ff02191690831515021790555061021161032b565b5050565b61021d6107d4565b80600560006101000a81548160ff02191690831515021790555050565b610242610866565b61024c60006108e4565b565b80600160006101000a81548173ffffffffffffffffffffffffffffffffffffffff021916908373ffffffffffffffffffffffffffffffffffffffff1602179055508073ffffffffffffffffffffffffffffffffffffffff167f29dc23bcd72bfb02ec013f6350778cb6e5908dc02e5e1234385f27e32676b6e160405160405180910390a250565b60008060009054906101000a900473ffffffffffffffffffffffffffffffffffffffff16905090565b610306610866565b80600560016101000a81548160ff02191690831515021790555061032861032b565b50565b60004790506000600a6002836103419190610eab565b61034b9190610e7a565b905080826103599190610f05565b915060011515600560009054906101000a900460ff161515148015610391575060011515600560019054906101000a900460ff161515145b806103ce575060011515600560029054906101000a900460ff1615151480156103cd575060011515600560039054906101000a900460ff161515145b5b1561046e5761041e82600160009054906101000a900473ffffffffffffffffffffffffffffffffffffffff1673ffffffffffffffffffffffffffffffffffffffff166109a890919063ffffffff16565b61046981600360009054906101000a900473ffffffffffffffffffffffffffffffffffffffff1673ffffffffffffffffffffffffffffffffffffffff166109a890919063ffffffff16565b610541565b60011515600560029054906101000a900460ff1615151480156104a4575060001515600560039054906101000a900460ff161515145b15610540576104f482600260009054906101000a900473ffffffffffffffffffffffffffffffffffffffff1673ffffffffffffffffffffffffffffffffffffffff166109a890919063ffffffff16565b61053f81600360009054906101000a900473ffffffffffffffffffffffffffffffffffffffff1673ffffffffffffffffffffffffffffffffffffffff166109a890919063ffffffff16565b5b5b5050565b61054d610866565b600073ffffffffffffffffffffffffffffffffffffffff168173ffffffffffffffffffffffffffffffffffffffff1614156105bd576040517f08c379a00000000000000000000000000000000000000000000000000000000081526004016105b490610d2d565b60405180910390fd5b6105c6816108e4565b50565b6105d1610866565b81600160006101000a81548173ffffffffffffffffffffffffffffffffffffffff021916908373ffffffffffffffffffffffffffffffffffffffff16021790555033600260006101000a81548173ffffffffffffffffffffffffffffffffffffffff021916908373ffffffffffffffffffffffffffffffffffffffff16021790555080600360006101000a81548173ffffffffffffffffffffffffffffffffffffffff021916908373ffffffffffffffffffffffffffffffffffffffff160217905550600034905080600460008573ffffffffffffffffffffffffffffffffffffffff1673ffffffffffffffffffffffffffffffffffffffff16815260200190815260200160002060008282546106e89190610e24565b925050819055508273ffffffffffffffffffffffffffffffffffffffff167f2da466a7b24304f47e87fa2e1e5a81b9831ce54fec19055ce277ca2f39ba42c4826040516107359190610ded565b60405180910390a2505050565b600360009054906101000a900473ffffffffffffffffffffffffffffffffffffffff1673ffffffffffffffffffffffffffffffffffffffff163373ffffffffffffffffffffffffffffffffffffffff16146107d2576040517f08c379a00000000000000000000000000000000000000000000000000000000081526004016107c990610dcd565b60405180910390fd5b565b600160009054906101000a900473ffffffffffffffffffffffffffffffffffffffff1673ffffffffffffffffffffffffffffffffffffffff163373ffffffffffffffffffffffffffffffffffffffff1614610864576040517f08c379a000000000000000000000000000000000000000000000000000000000815260040161085b90610d8d565b60405180910390fd5b565b61086e610a9c565b73ffffffffffffffffffffffffffffffffffffffff1661088c6102d5565b73ffffffffffffffffffffffffffffffffffffffff16146108e2576040517f08c379a00000000000000000000000000000000000000000000000000000000081526004016108d990610dad565b60405180910390fd5b565b60008060009054906101000a900473ffffffffffffffffffffffffffffffffffffffff169050816000806101000a81548173ffffffffffffffffffffffffffffffffffffffff021916908373ffffffffffffffffffffffffffffffffffffffff1602179055508173ffffffffffffffffffffffffffffffffffffffff168173ffffffffffffffffffffffffffffffffffffffff167f8be0079c531659141344cd1fd0a4f28419497f9722a3daafe3b4186f6b6457e060405160405180910390a35050565b804710156109eb576040517f08c379a00000000000000000000000000000000000000000000000000000000081526004016109e290610d6d565b60405180910390fd5b60008273ffffffffffffffffffffffffffffffffffffffff1682604051610a1190610cfd565b60006040518083038185875af1925050503d8060008114610a4e576040519150601f19603f3d011682016040523d82523d6000602084013e610a53565b606091505b5050905080610a97576040517f08c379a0000000000000000000000000000000000000000000000000000000008152600401610a8e90610d4d565b60405180910390fd5b505050565b600033905090565b600081359050610ab38161113b565b92915050565b600081359050610ac881611152565b92915050565b600081359050610add81611169565b92915050565b600060208284031215610af957610af8610ff1565b5b6000610b0784828501610aa4565b91505092915050565b600060208284031215610b2657610b25610ff1565b5b6000610b3484828501610ab9565b91505092915050565b60008060408385031215610b5457610b53610ff1565b5b6000610b6285828601610ab9565b9250506020610b7385828601610ab9565b9150509250929050565b600060208284031215610b9357610b92610ff1565b5b6000610ba184828501610ace565b91505092915050565b60008060408385031215610bc157610bc0610ff1565b5b6000610bcf85828601610ace565b9250506020610be085828601610ace565b9150509250929050565b610bf381610f39565b82525050565b6000610c06602683610e13565b9150610c1182610ff6565b604082019050919050565b6000610c29603a83610e13565b9150610c3482611045565b604082019050919050565b6000610c4c601d83610e13565b9150610c5782611094565b602082019050919050565b6000610c6f601c83610e13565b9150610c7a826110bd565b602082019050919050565b6000610c92602083610e13565b9150610c9d826110e6565b602082019050919050565b6000610cb5600083610e08565b9150610cc08261110f565b600082019050919050565b6000610cd8601783610e13565b9150610ce382611112565b602082019050919050565b610cf781610f89565b82525050565b6000610d0882610ca8565b9150819050919050565b6000602082019050610d276000830184610bea565b92915050565b60006020820190508181036000830152610d4681610bf9565b9050919050565b60006020820190508181036000830152610d6681610c1c565b9050919050565b60006020820190508181036000830152610d8681610c3f565b9050919050565b60006020820190508181036000830152610da681610c62565b9050919050565b60006020820190508181036000830152610dc681610c85565b9050919050565b60006020820190508181036000830152610de681610ccb565b9050919050565b6000602082019050610e026000830184610cee565b92915050565b600081905092915050565b600082825260208201905092915050565b6000610e2f82610f89565b9150610e3a83610f89565b9250827fffffffffffffffffffffffffffffffffffffffffffffffffffffffffffffffff03821115610e6f57610e6e610f93565b5b828201905092915050565b6000610e8582610f89565b9150610e9083610f89565b925082610ea057610e9f610fc2565b5b828204905092915050565b6000610eb682610f89565b9150610ec183610f89565b9250817fffffffffffffffffffffffffffffffffffffffffffffffffffffffffffffffff0483118215151615610efa57610ef9610f93565b5b828202905092915050565b6000610f1082610f89565b9150610f1b83610f89565b925082821015610f2e57610f2d610f93565b5b828203905092915050565b6000610f4482610f69565b9050919050565b6000610f5682610f69565b9050919050565b60008115159050919050565b600073ffffffffffffffffffffffffffffffffffffffff82169050919050565b6000819050919050565b7f4e487b7100000000000000000000000000000000000000000000000000000000600052601160045260246000fd5b7f4e487b7100000000000000000000000000000000000000000000000000000000600052601260045260246000fd5b600080fd5b7f4f776e61626c653a206e6577206f776e657220697320746865207a65726f206160008201527f6464726573730000000000000000000000000000000000000000000000000000602082015250565b7f416464726573733a20756e61626c6520746f2073656e642076616c75652c207260008201527f6563697069656e74206d61792068617665207265766572746564000000000000602082015250565b7f416464726573733a20696e73756666696369656e742062616c616e6365000000600082015250565b7f63616c6c6572206973206e6f742074686520636f6e74726163746f7200000000600082015250565b7f4f776e61626c653a2063616c6c6572206973206e6f7420746865206f776e6572600082015250565b50565b7f63616c6c6572206973206e6f74207468652061646d696e000000000000000000600082015250565b61114481610f39565b811461114f57600080fd5b50565b61115b81610f4b565b811461116657600080fd5b50565b61117281610f5d565b811461117d57600080fd5b5056fea26469706673582212200c6dc059a9f22bd355f09e644ddf93f10aec786af6182f432de58d1f7294e23b64736f6c63430008070033",
					"opcodes": "PUSH1 0x80 PUSH1 0x40 MSTORE CALLVALUE DUP1 ISZERO PUSH2 0x10 JUMPI PUSH1 0x0 DUP1 REVERT JUMPDEST POP PUSH2 0x2D PUSH2 0x22 PUSH2 0x32 PUSH1 0x20 SHL PUSH1 0x20 SHR JUMP JUMPDEST PUSH2 0x3A PUSH1 0x20 SHL PUSH1 0x20 SHR JUMP JUMPDEST PUSH2 0xFE JUMP JUMPDEST PUSH1 0x0 CALLER SWAP1 POP SWAP1 JUMP JUMPDEST PUSH1 0x0 DUP1 PUSH1 0x0 SWAP1 SLOAD SWAP1 PUSH2 0x100 EXP SWAP1 DIV PUSH20 0xFFFFFFFFFFFFFFFFFFFFFFFFFFFFFFFFFFFFFFFF AND SWAP1 POP DUP2 PUSH1 0x0 DUP1 PUSH2 0x100 EXP DUP2 SLOAD DUP2 PUSH20 0xFFFFFFFFFFFFFFFFFFFFFFFFFFFFFFFFFFFFFFFF MUL NOT AND SWAP1 DUP4 PUSH20 0xFFFFFFFFFFFFFFFFFFFFFFFFFFFFFFFFFFFFFFFF AND MUL OR SWAP1 SSTORE POP DUP2 PUSH20 0xFFFFFFFFFFFFFFFFFFFFFFFFFFFFFFFFFFFFFFFF AND DUP2 PUSH20 0xFFFFFFFFFFFFFFFFFFFFFFFFFFFFFFFFFFFFFFFF AND PUSH32 0x8BE0079C531659141344CD1FD0A4F28419497F9722A3DAAFE3B4186F6B6457E0 PUSH1 0x40 MLOAD PUSH1 0x40 MLOAD DUP1 SWAP2 SUB SWAP1 LOG3 POP POP JUMP JUMPDEST PUSH2 0x11B6 DUP1 PUSH2 0x10D PUSH1 0x0 CODECOPY PUSH1 0x0 RETURN INVALID PUSH1 0x80 PUSH1 0x40 MSTORE PUSH1 0x4 CALLDATASIZE LT PUSH2 0x86 JUMPI PUSH1 0x0 CALLDATALOAD PUSH1 0xE0 SHR DUP1 PUSH4 0x8DA5CB5B GT PUSH2 0x59 JUMPI DUP1 PUSH4 0x8DA5CB5B EQ PUSH2 0x11D JUMPI DUP1 PUSH4 0x9464C8B8 EQ PUSH2 0x148 JUMPI DUP1 PUSH4 0xB0568EAA EQ PUSH2 0x171 JUMPI DUP1 PUSH4 0xF2FDE38B EQ PUSH2 0x188 JUMPI DUP1 PUSH4 0xF9609F08 EQ PUSH2 0x1B1 JUMPI PUSH2 0x86 JUMP JUMPDEST DUP1 PUSH4 0x11571F30 EQ PUSH2 0x8B JUMPI DUP1 PUSH4 0x251D8CD5 EQ PUSH2 0xB4 JUMPI DUP1 PUSH4 0x715018A6 EQ PUSH2 0xDD JUMPI DUP1 PUSH4 0x761768B6 EQ PUSH2 0xF4 JUMPI JUMPDEST PUSH1 0x0 DUP1 REVERT JUMPDEST CALLVALUE DUP1 ISZERO PUSH2 0x97 JUMPI PUSH1 0x0 DUP1 REVERT JUMPDEST POP PUSH2 0xB2 PUSH1 0x4 DUP1 CALLDATASIZE SUB DUP2 ADD SWAP1 PUSH2 0xAD SWAP2 SWAP1 PUSH2 0xBAA JUMP JUMPDEST PUSH2 0x1CD JUMP JUMPDEST STOP JUMPDEST CALLVALUE DUP1 ISZERO PUSH2 0xC0 JUMPI PUSH1 0x0 DUP1 REVERT JUMPDEST POP PUSH2 0xDB PUSH1 0x4 DUP1 CALLDATASIZE SUB DUP2 ADD SWAP1 PUSH2 0xD6 SWAP2 SWAP1 PUSH2 0xB7D JUMP JUMPDEST PUSH2 0x215 JUMP JUMPDEST STOP JUMPDEST CALLVALUE DUP1 ISZERO PUSH2 0xE9 JUMPI PUSH1 0x0 DUP1 REVERT JUMPDEST POP PUSH2 0xF2 PUSH2 0x23A JUMP JUMPDEST STOP JUMPDEST CALLVALUE DUP1 ISZERO PUSH2 0x100 JUMPI PUSH1 0x0 DUP1 REVERT JUMPDEST POP PUSH2 0x11B PUSH1 0x4 DUP1 CALLDATASIZE SUB DUP2 ADD SWAP1 PUSH2 0x116 SWAP2 SWAP1 PUSH2 0xB10 JUMP JUMPDEST PUSH2 0x24E JUMP JUMPDEST STOP JUMPDEST CALLVALUE DUP1 ISZERO PUSH2 0x129 JUMPI PUSH1 0x0 DUP1 REVERT JUMPDEST POP PUSH2 0x132 PUSH2 0x2D5 JUMP JUMPDEST PUSH1 0x40 MLOAD PUSH2 0x13F SWAP2 SWAP1 PUSH2 0xD12 JUMP JUMPDEST PUSH1 0x40 MLOAD DUP1 SWAP2 SUB SWAP1 RETURN JUMPDEST CALLVALUE DUP1 ISZERO PUSH2 0x154 JUMPI PUSH1 0x0 DUP1 REVERT JUMPDEST POP PUSH2 0x16F PUSH1 0x4 DUP1 CALLDATASIZE SUB DUP2 ADD SWAP1 PUSH2 0x16A SWAP2 SWAP1 PUSH2 0xB7D JUMP JUMPDEST PUSH2 0x2FE JUMP JUMPDEST STOP JUMPDEST CALLVALUE DUP1 ISZERO PUSH2 0x17D JUMPI PUSH1 0x0 DUP1 REVERT JUMPDEST POP PUSH2 0x186 PUSH2 0x32B JUMP JUMPDEST STOP JUMPDEST CALLVALUE DUP1 ISZERO PUSH2 0x194 JUMPI PUSH1 0x0 DUP1 REVERT JUMPDEST POP PUSH2 0x1AF PUSH1 0x4 DUP1 CALLDATASIZE SUB DUP2 ADD SWAP1 PUSH2 0x1AA SWAP2 SWAP1 PUSH2 0xAE3 JUMP JUMPDEST PUSH2 0x545 JUMP JUMPDEST STOP JUMPDEST PUSH2 0x1CB PUSH1 0x4 DUP1 CALLDATASIZE SUB DUP2 ADD SWAP1 PUSH2 0x1C6 SWAP2 SWAP1 PUSH2 0xB3D JUMP JUMPDEST PUSH2 0x5C9 JUMP JUMPDEST STOP JUMPDEST PUSH2 0x1D5 PUSH2 0x742 JUMP JUMPDEST DUP2 PUSH1 0x5 PUSH1 0x2 PUSH2 0x100 EXP DUP2 SLOAD DUP2 PUSH1 0xFF MUL NOT AND SWAP1 DUP4 ISZERO ISZERO MUL OR SWAP1 SSTORE POP DUP1 PUSH1 0x5 PUSH1 0x3 PUSH2 0x100 EXP DUP2 SLOAD DUP2 PUSH1 0xFF MUL NOT AND SWAP1 DUP4 ISZERO ISZERO MUL OR SWAP1 SSTORE POP PUSH2 0x211 PUSH2 0x32B JUMP JUMPDEST POP POP JUMP JUMPDEST PUSH2 0x21D PUSH2 0x7D4 JUMP JUMPDEST DUP1 PUSH1 0x5 PUSH1 0x0 PUSH2 0x100 EXP DUP2 SLOAD DUP2 PUSH1 0xFF MUL NOT AND SWAP1 DUP4 ISZERO ISZERO MUL OR SWAP1 SSTORE POP POP JUMP JUMPDEST PUSH2 0x242 PUSH2 0x866 JUMP JUMPDEST PUSH2 0x24C PUSH1 0x0 PUSH2 0x8E4 JUMP JUMPDEST JUMP JUMPDEST DUP1 PUSH1 0x1 PUSH1 0x0 PUSH2 0x100 EXP DUP2 SLOAD DUP2 PUSH20 0xFFFFFFFFFFFFFFFFFFFFFFFFFFFFFFFFFFFFFFFF MUL NOT AND SWAP1 DUP4 PUSH20 0xFFFFFFFFFFFFFFFFFFFFFFFFFFFFFFFFFFFFFFFF AND MUL OR SWAP1 SSTORE POP DUP1 PUSH20 0xFFFFFFFFFFFFFFFFFFFFFFFFFFFFFFFFFFFFFFFF AND PUSH32 0x29DC23BCD72BFB02EC013F6350778CB6E5908DC02E5E1234385F27E32676B6E1 PUSH1 0x40 MLOAD PUSH1 0x40 MLOAD DUP1 SWAP2 SUB SWAP1 LOG2 POP JUMP JUMPDEST PUSH1 0x0 DUP1 PUSH1 0x0 SWAP1 SLOAD SWAP1 PUSH2 0x100 EXP SWAP1 DIV PUSH20 0xFFFFFFFFFFFFFFFFFFFFFFFFFFFFFFFFFFFFFFFF AND SWAP1 POP SWAP1 JUMP JUMPDEST PUSH2 0x306 PUSH2 0x866 JUMP JUMPDEST DUP1 PUSH1 0x5 PUSH1 0x1 PUSH2 0x100 EXP DUP2 SLOAD DUP2 PUSH1 0xFF MUL NOT AND SWAP1 DUP4 ISZERO ISZERO MUL OR SWAP1 SSTORE POP PUSH2 0x328 PUSH2 0x32B JUMP JUMPDEST POP JUMP JUMPDEST PUSH1 0x0 SELFBALANCE SWAP1 POP PUSH1 0x0 PUSH1 0xA PUSH1 0x2 DUP4 PUSH2 0x341 SWAP2 SWAP1 PUSH2 0xEAB JUMP JUMPDEST PUSH2 0x34B SWAP2 SWAP1 PUSH2 0xE7A JUMP JUMPDEST SWAP1 POP DUP1 DUP3 PUSH2 0x359 SWAP2 SWAP1 PUSH2 0xF05 JUMP JUMPDEST SWAP2 POP PUSH1 0x1 ISZERO ISZERO PUSH1 0x5 PUSH1 0x0 SWAP1 SLOAD SWAP1 PUSH2 0x100 EXP SWAP1 DIV PUSH1 0xFF AND ISZERO ISZERO EQ DUP1 ISZERO PUSH2 0x391 JUMPI POP PUSH1 0x1 ISZERO ISZERO PUSH1 0x5 PUSH1 0x1 SWAP1 SLOAD SWAP1 PUSH2 0x100 EXP SWAP1 DIV PUSH1 0xFF AND ISZERO ISZERO EQ JUMPDEST DUP1 PUSH2 0x3CE JUMPI POP PUSH1 0x1 ISZERO ISZERO PUSH1 0x5 PUSH1 0x2 SWAP1 SLOAD SWAP1 PUSH2 0x100 EXP SWAP1 DIV PUSH1 0xFF AND ISZERO ISZERO EQ DUP1 ISZERO PUSH2 0x3CD JUMPI POP PUSH1 0x1 ISZERO ISZERO PUSH1 0x5 PUSH1 0x3 SWAP1 SLOAD SWAP1 PUSH2 0x100 EXP SWAP1 DIV PUSH1 0xFF AND ISZERO ISZERO EQ JUMPDEST JUMPDEST ISZERO PUSH2 0x46E JUMPI PUSH2 0x41E DUP3 PUSH1 0x1 PUSH1 0x0 SWAP1 SLOAD SWAP1 PUSH2 0x100 EXP SWAP1 DIV PUSH20 0xFFFFFFFFFFFFFFFFFFFFFFFFFFFFFFFFFFFFFFFF AND PUSH20 0xFFFFFFFFFFFFFFFFFFFFFFFFFFFFFFFFFFFFFFFF AND PUSH2 0x9A8 SWAP1 SWAP2 SWAP1 PUSH4 0xFFFFFFFF AND JUMP JUMPDEST PUSH2 0x469 DUP2 PUSH1 0x3 PUSH1 0x0 SWAP1 SLOAD SWAP1 PUSH2 0x100 EXP SWAP1 DIV PUSH20 0xFFFFFFFFFFFFFFFFFFFFFFFFFFFFFFFFFFFFFFFF AND PUSH20 0xFFFFFFFFFFFFFFFFFFFFFFFFFFFFFFFFFFFFFFFF AND PUSH2 0x9A8 SWAP1 SWAP2 SWAP1 PUSH4 0xFFFFFFFF AND JUMP JUMPDEST PUSH2 0x541 JUMP JUMPDEST PUSH1 0x1 ISZERO ISZERO PUSH1 0x5 PUSH1 0x2 SWAP1 SLOAD SWAP1 PUSH2 0x100 EXP SWAP1 DIV PUSH1 0xFF AND ISZERO ISZERO EQ DUP1 ISZERO PUSH2 0x4A4 JUMPI POP PUSH1 0x0 ISZERO ISZERO PUSH1 0x5 PUSH1 0x3 SWAP1 SLOAD SWAP1 PUSH2 0x100 EXP SWAP1 DIV PUSH1 0xFF AND ISZERO ISZERO EQ JUMPDEST ISZERO PUSH2 0x540 JUMPI PUSH2 0x4F4 DUP3 PUSH1 0x2 PUSH1 0x0 SWAP1 SLOAD SWAP1 PUSH2 0x100 EXP SWAP1 DIV PUSH20 0xFFFFFFFFFFFFFFFFFFFFFFFFFFFFFFFFFFFFFFFF AND PUSH20 0xFFFFFFFFFFFFFFFFFFFFFFFFFFFFFFFFFFFFFFFF AND PUSH2 0x9A8 SWAP1 SWAP2 SWAP1 PUSH4 0xFFFFFFFF AND JUMP JUMPDEST PUSH2 0x53F DUP2 PUSH1 0x3 PUSH1 0x0 SWAP1 SLOAD SWAP1 PUSH2 0x100 EXP SWAP1 DIV PUSH20 0xFFFFFFFFFFFFFFFFFFFFFFFFFFFFFFFFFFFFFFFF AND PUSH20 0xFFFFFFFFFFFFFFFFFFFFFFFFFFFFFFFFFFFFFFFF AND PUSH2 0x9A8 SWAP1 SWAP2 SWAP1 PUSH4 0xFFFFFFFF AND JUMP JUMPDEST JUMPDEST JUMPDEST POP POP JUMP JUMPDEST PUSH2 0x54D PUSH2 0x866 JUMP JUMPDEST PUSH1 0x0 PUSH20 0xFFFFFFFFFFFFFFFFFFFFFFFFFFFFFFFFFFFFFFFF AND DUP2 PUSH20 0xFFFFFFFFFFFFFFFFFFFFFFFFFFFFFFFFFFFFFFFF AND EQ ISZERO PUSH2 0x5BD JUMPI PUSH1 0x40 MLOAD PUSH32 0x8C379A000000000000000000000000000000000000000000000000000000000 DUP2 MSTORE PUSH1 0x4 ADD PUSH2 0x5B4 SWAP1 PUSH2 0xD2D JUMP JUMPDEST PUSH1 0x40 MLOAD DUP1 SWAP2 SUB SWAP1 REVERT JUMPDEST PUSH2 0x5C6 DUP2 PUSH2 0x8E4 JUMP JUMPDEST POP JUMP JUMPDEST PUSH2 0x5D1 PUSH2 0x866 JUMP JUMPDEST DUP2 PUSH1 0x1 PUSH1 0x0 PUSH2 0x100 EXP DUP2 SLOAD DUP2 PUSH20 0xFFFFFFFFFFFFFFFFFFFFFFFFFFFFFFFFFFFFFFFF MUL NOT AND SWAP1 DUP4 PUSH20 0xFFFFFFFFFFFFFFFFFFFFFFFFFFFFFFFFFFFFFFFF AND MUL OR SWAP1 SSTORE POP CALLER PUSH1 0x2 PUSH1 0x0 PUSH2 0x100 EXP DUP2 SLOAD DUP2 PUSH20 0xFFFFFFFFFFFFFFFFFFFFFFFFFFFFFFFFFFFFFFFF MUL NOT AND SWAP1 DUP4 PUSH20 0xFFFFFFFFFFFFFFFFFFFFFFFFFFFFFFFFFFFFFFFF AND MUL OR SWAP1 SSTORE POP DUP1 PUSH1 0x3 PUSH1 0x0 PUSH2 0x100 EXP DUP2 SLOAD DUP2 PUSH20 0xFFFFFFFFFFFFFFFFFFFFFFFFFFFFFFFFFFFFFFFF MUL NOT AND SWAP1 DUP4 PUSH20 0xFFFFFFFFFFFFFFFFFFFFFFFFFFFFFFFFFFFFFFFF AND MUL OR SWAP1 SSTORE POP PUSH1 0x0 CALLVALUE SWAP1 POP DUP1 PUSH1 0x4 PUSH1 0x0 DUP6 PUSH20 0xFFFFFFFFFFFFFFFFFFFFFFFFFFFFFFFFFFFFFFFF AND PUSH20 0xFFFFFFFFFFFFFFFFFFFFFFFFFFFFFFFFFFFFFFFF AND DUP2 MSTORE PUSH1 0x20 ADD SWAP1 DUP2 MSTORE PUSH1 0x20 ADD PUSH1 0x0 KECCAK256 PUSH1 0x0 DUP3 DUP3 SLOAD PUSH2 0x6E8 SWAP2 SWAP1 PUSH2 0xE24 JUMP JUMPDEST SWAP3 POP POP DUP2 SWAP1 SSTORE POP DUP3 PUSH20 0xFFFFFFFFFFFFFFFFFFFFFFFFFFFFFFFFFFFFFFFF AND PUSH32 0x2DA466A7B24304F47E87FA2E1E5A81B9831CE54FEC19055CE277CA2F39BA42C4 DUP3 PUSH1 0x40 MLOAD PUSH2 0x735 SWAP2 SWAP1 PUSH2 0xDED JUMP JUMPDEST PUSH1 0x40 MLOAD DUP1 SWAP2 SUB SWAP1 LOG2 POP POP POP JUMP JUMPDEST PUSH1 0x3 PUSH1 0x0 SWAP1 SLOAD SWAP1 PUSH2 0x100 EXP SWAP1 DIV PUSH20 0xFFFFFFFFFFFFFFFFFFFFFFFFFFFFFFFFFFFFFFFF AND PUSH20 0xFFFFFFFFFFFFFFFFFFFFFFFFFFFFFFFFFFFFFFFF AND CALLER PUSH20 0xFFFFFFFFFFFFFFFFFFFFFFFFFFFFFFFFFFFFFFFF AND EQ PUSH2 0x7D2 JUMPI PUSH1 0x40 MLOAD PUSH32 0x8C379A000000000000000000000000000000000000000000000000000000000 DUP2 MSTORE PUSH1 0x4 ADD PUSH2 0x7C9 SWAP1 PUSH2 0xDCD JUMP JUMPDEST PUSH1 0x40 MLOAD DUP1 SWAP2 SUB SWAP1 REVERT JUMPDEST JUMP JUMPDEST PUSH1 0x1 PUSH1 0x0 SWAP1 SLOAD SWAP1 PUSH2 0x100 EXP SWAP1 DIV PUSH20 0xFFFFFFFFFFFFFFFFFFFFFFFFFFFFFFFFFFFFFFFF AND PUSH20 0xFFFFFFFFFFFFFFFFFFFFFFFFFFFFFFFFFFFFFFFF AND CALLER PUSH20 0xFFFFFFFFFFFFFFFFFFFFFFFFFFFFFFFFFFFFFFFF AND EQ PUSH2 0x864 JUMPI PUSH1 0x40 MLOAD PUSH32 0x8C379A000000000000000000000000000000000000000000000000000000000 DUP2 MSTORE PUSH1 0x4 ADD PUSH2 0x85B SWAP1 PUSH2 0xD8D JUMP JUMPDEST PUSH1 0x40 MLOAD DUP1 SWAP2 SUB SWAP1 REVERT JUMPDEST JUMP JUMPDEST PUSH2 0x86E PUSH2 0xA9C JUMP JUMPDEST PUSH20 0xFFFFFFFFFFFFFFFFFFFFFFFFFFFFFFFFFFFFFFFF AND PUSH2 0x88C PUSH2 0x2D5 JUMP JUMPDEST PUSH20 0xFFFFFFFFFFFFFFFFFFFFFFFFFFFFFFFFFFFFFFFF AND EQ PUSH2 0x8E2 JUMPI PUSH1 0x40 MLOAD PUSH32 0x8C379A000000000000000000000000000000000000000000000000000000000 DUP2 MSTORE PUSH1 0x4 ADD PUSH2 0x8D9 SWAP1 PUSH2 0xDAD JUMP JUMPDEST PUSH1 0x40 MLOAD DUP1 SWAP2 SUB SWAP1 REVERT JUMPDEST JUMP JUMPDEST PUSH1 0x0 DUP1 PUSH1 0x0 SWAP1 SLOAD SWAP1 PUSH2 0x100 EXP SWAP1 DIV PUSH20 0xFFFFFFFFFFFFFFFFFFFFFFFFFFFFFFFFFFFFFFFF AND SWAP1 POP DUP2 PUSH1 0x0 DUP1 PUSH2 0x100 EXP DUP2 SLOAD DUP2 PUSH20 0xFFFFFFFFFFFFFFFFFFFFFFFFFFFFFFFFFFFFFFFF MUL NOT AND SWAP1 DUP4 PUSH20 0xFFFFFFFFFFFFFFFFFFFFFFFFFFFFFFFFFFFFFFFF AND MUL OR SWAP1 SSTORE POP DUP2 PUSH20 0xFFFFFFFFFFFFFFFFFFFFFFFFFFFFFFFFFFFFFFFF AND DUP2 PUSH20 0xFFFFFFFFFFFFFFFFFFFFFFFFFFFFFFFFFFFFFFFF AND PUSH32 0x8BE0079C531659141344CD1FD0A4F28419497F9722A3DAAFE3B4186F6B6457E0 PUSH1 0x40 MLOAD PUSH1 0x40 MLOAD DUP1 SWAP2 SUB SWAP1 LOG3 POP POP JUMP JUMPDEST DUP1 SELFBALANCE LT ISZERO PUSH2 0x9EB JUMPI PUSH1 0x40 MLOAD PUSH32 0x8C379A000000000000000000000000000000000000000000000000000000000 DUP2 MSTORE PUSH1 0x4 ADD PUSH2 0x9E2 SWAP1 PUSH2 0xD6D JUMP JUMPDEST PUSH1 0x40 MLOAD DUP1 SWAP2 SUB SWAP1 REVERT JUMPDEST PUSH1 0x0 DUP3 PUSH20 0xFFFFFFFFFFFFFFFFFFFFFFFFFFFFFFFFFFFFFFFF AND DUP3 PUSH1 0x40 MLOAD PUSH2 0xA11 SWAP1 PUSH2 0xCFD JUMP JUMPDEST PUSH1 0x0 PUSH1 0x40 MLOAD DUP1 DUP4 SUB DUP2 DUP6 DUP8 GAS CALL SWAP3 POP POP POP RETURNDATASIZE DUP1 PUSH1 0x0 DUP2 EQ PUSH2 0xA4E JUMPI PUSH1 0x40 MLOAD SWAP2 POP PUSH1 0x1F NOT PUSH1 0x3F RETURNDATASIZE ADD AND DUP3 ADD PUSH1 0x40 MSTORE RETURNDATASIZE DUP3 MSTORE RETURNDATASIZE PUSH1 0x0 PUSH1 0x20 DUP5 ADD RETURNDATACOPY PUSH2 0xA53 JUMP JUMPDEST PUSH1 0x60 SWAP2 POP JUMPDEST POP POP SWAP1 POP DUP1 PUSH2 0xA97 JUMPI PUSH1 0x40 MLOAD PUSH32 0x8C379A000000000000000000000000000000000000000000000000000000000 DUP2 MSTORE PUSH1 0x4 ADD PUSH2 0xA8E SWAP1 PUSH2 0xD4D JUMP JUMPDEST PUSH1 0x40 MLOAD DUP1 SWAP2 SUB SWAP1 REVERT JUMPDEST POP POP POP JUMP JUMPDEST PUSH1 0x0 CALLER SWAP1 POP SWAP1 JUMP JUMPDEST PUSH1 0x0 DUP2 CALLDATALOAD SWAP1 POP PUSH2 0xAB3 DUP2 PUSH2 0x113B JUMP JUMPDEST SWAP3 SWAP2 POP POP JUMP JUMPDEST PUSH1 0x0 DUP2 CALLDATALOAD SWAP1 POP PUSH2 0xAC8 DUP2 PUSH2 0x1152 JUMP JUMPDEST SWAP3 SWAP2 POP POP JUMP JUMPDEST PUSH1 0x0 DUP2 CALLDATALOAD SWAP1 POP PUSH2 0xADD DUP2 PUSH2 0x1169 JUMP JUMPDEST SWAP3 SWAP2 POP POP JUMP JUMPDEST PUSH1 0x0 PUSH1 0x20 DUP3 DUP5 SUB SLT ISZERO PUSH2 0xAF9 JUMPI PUSH2 0xAF8 PUSH2 0xFF1 JUMP JUMPDEST JUMPDEST PUSH1 0x0 PUSH2 0xB07 DUP5 DUP3 DUP6 ADD PUSH2 0xAA4 JUMP JUMPDEST SWAP2 POP POP SWAP3 SWAP2 POP POP JUMP JUMPDEST PUSH1 0x0 PUSH1 0x20 DUP3 DUP5 SUB SLT ISZERO PUSH2 0xB26 JUMPI PUSH2 0xB25 PUSH2 0xFF1 JUMP JUMPDEST JUMPDEST PUSH1 0x0 PUSH2 0xB34 DUP5 DUP3 DUP6 ADD PUSH2 0xAB9 JUMP JUMPDEST SWAP2 POP POP SWAP3 SWAP2 POP POP JUMP JUMPDEST PUSH1 0x0 DUP1 PUSH1 0x40 DUP4 DUP6 SUB SLT ISZERO PUSH2 0xB54 JUMPI PUSH2 0xB53 PUSH2 0xFF1 JUMP JUMPDEST JUMPDEST PUSH1 0x0 PUSH2 0xB62 DUP6 DUP3 DUP7 ADD PUSH2 0xAB9 JUMP JUMPDEST SWAP3 POP POP PUSH1 0x20 PUSH2 0xB73 DUP6 DUP3 DUP7 ADD PUSH2 0xAB9 JUMP JUMPDEST SWAP2 POP POP SWAP3 POP SWAP3 SWAP1 POP JUMP JUMPDEST PUSH1 0x0 PUSH1 0x20 DUP3 DUP5 SUB SLT ISZERO PUSH2 0xB93 JUMPI PUSH2 0xB92 PUSH2 0xFF1 JUMP JUMPDEST JUMPDEST PUSH1 0x0 PUSH2 0xBA1 DUP5 DUP3 DUP6 ADD PUSH2 0xACE JUMP JUMPDEST SWAP2 POP POP SWAP3 SWAP2 POP POP JUMP JUMPDEST PUSH1 0x0 DUP1 PUSH1 0x40 DUP4 DUP6 SUB SLT ISZERO PUSH2 0xBC1 JUMPI PUSH2 0xBC0 PUSH2 0xFF1 JUMP JUMPDEST JUMPDEST PUSH1 0x0 PUSH2 0xBCF DUP6 DUP3 DUP7 ADD PUSH2 0xACE JUMP JUMPDEST SWAP3 POP POP PUSH1 0x20 PUSH2 0xBE0 DUP6 DUP3 DUP7 ADD PUSH2 0xACE JUMP JUMPDEST SWAP2 POP POP SWAP3 POP SWAP3 SWAP1 POP JUMP JUMPDEST PUSH2 0xBF3 DUP2 PUSH2 0xF39 JUMP JUMPDEST DUP3 MSTORE POP POP JUMP JUMPDEST PUSH1 0x0 PUSH2 0xC06 PUSH1 0x26 DUP4 PUSH2 0xE13 JUMP JUMPDEST SWAP2 POP PUSH2 0xC11 DUP3 PUSH2 0xFF6 JUMP JUMPDEST PUSH1 0x40 DUP3 ADD SWAP1 POP SWAP2 SWAP1 POP JUMP JUMPDEST PUSH1 0x0 PUSH2 0xC29 PUSH1 0x3A DUP4 PUSH2 0xE13 JUMP JUMPDEST SWAP2 POP PUSH2 0xC34 DUP3 PUSH2 0x1045 JUMP JUMPDEST PUSH1 0x40 DUP3 ADD SWAP1 POP SWAP2 SWAP1 POP JUMP JUMPDEST PUSH1 0x0 PUSH2 0xC4C PUSH1 0x1D DUP4 PUSH2 0xE13 JUMP JUMPDEST SWAP2 POP PUSH2 0xC57 DUP3 PUSH2 0x1094 JUMP JUMPDEST PUSH1 0x20 DUP3 ADD SWAP1 POP SWAP2 SWAP1 POP JUMP JUMPDEST PUSH1 0x0 PUSH2 0xC6F PUSH1 0x1C DUP4 PUSH2 0xE13 JUMP JUMPDEST SWAP2 POP PUSH2 0xC7A DUP3 PUSH2 0x10BD JUMP JUMPDEST PUSH1 0x20 DUP3 ADD SWAP1 POP SWAP2 SWAP1 POP JUMP JUMPDEST PUSH1 0x0 PUSH2 0xC92 PUSH1 0x20 DUP4 PUSH2 0xE13 JUMP JUMPDEST SWAP2 POP PUSH2 0xC9D DUP3 PUSH2 0x10E6 JUMP JUMPDEST PUSH1 0x20 DUP3 ADD SWAP1 POP SWAP2 SWAP1 POP JUMP JUMPDEST PUSH1 0x0 PUSH2 0xCB5 PUSH1 0x0 DUP4 PUSH2 0xE08 JUMP JUMPDEST SWAP2 POP PUSH2 0xCC0 DUP3 PUSH2 0x110F JUMP JUMPDEST PUSH1 0x0 DUP3 ADD SWAP1 POP SWAP2 SWAP1 POP JUMP JUMPDEST PUSH1 0x0 PUSH2 0xCD8 PUSH1 0x17 DUP4 PUSH2 0xE13 JUMP JUMPDEST SWAP2 POP PUSH2 0xCE3 DUP3 PUSH2 0x1112 JUMP JUMPDEST PUSH1 0x20 DUP3 ADD SWAP1 POP SWAP2 SWAP1 POP JUMP JUMPDEST PUSH2 0xCF7 DUP2 PUSH2 0xF89 JUMP JUMPDEST DUP3 MSTORE POP POP JUMP JUMPDEST PUSH1 0x0 PUSH2 0xD08 DUP3 PUSH2 0xCA8 JUMP JUMPDEST SWAP2 POP DUP2 SWAP1 POP SWAP2 SWAP1 POP JUMP JUMPDEST PUSH1 0x0 PUSH1 0x20 DUP3 ADD SWAP1 POP PUSH2 0xD27 PUSH1 0x0 DUP4 ADD DUP5 PUSH2 0xBEA JUMP JUMPDEST SWAP3 SWAP2 POP POP JUMP JUMPDEST PUSH1 0x0 PUSH1 0x20 DUP3 ADD SWAP1 POP DUP2 DUP2 SUB PUSH1 0x0 DUP4 ADD MSTORE PUSH2 0xD46 DUP2 PUSH2 0xBF9 JUMP JUMPDEST SWAP1 POP SWAP2 SWAP1 POP JUMP JUMPDEST PUSH1 0x0 PUSH1 0x20 DUP3 ADD SWAP1 POP DUP2 DUP2 SUB PUSH1 0x0 DUP4 ADD MSTORE PUSH2 0xD66 DUP2 PUSH2 0xC1C JUMP JUMPDEST SWAP1 POP SWAP2 SWAP1 POP JUMP JUMPDEST PUSH1 0x0 PUSH1 0x20 DUP3 ADD SWAP1 POP DUP2 DUP2 SUB PUSH1 0x0 DUP4 ADD MSTORE PUSH2 0xD86 DUP2 PUSH2 0xC3F JUMP JUMPDEST SWAP1 POP SWAP2 SWAP1 POP JUMP JUMPDEST PUSH1 0x0 PUSH1 0x20 DUP3 ADD SWAP1 POP DUP2 DUP2 SUB PUSH1 0x0 DUP4 ADD MSTORE PUSH2 0xDA6 DUP2 PUSH2 0xC62 JUMP JUMPDEST SWAP1 POP SWAP2 SWAP1 POP JUMP JUMPDEST PUSH1 0x0 PUSH1 0x20 DUP3 ADD SWAP1 POP DUP2 DUP2 SUB PUSH1 0x0 DUP4 ADD MSTORE PUSH2 0xDC6 DUP2 PUSH2 0xC85 JUMP JUMPDEST SWAP1 POP SWAP2 SWAP1 POP JUMP JUMPDEST PUSH1 0x0 PUSH1 0x20 DUP3 ADD SWAP1 POP DUP2 DUP2 SUB PUSH1 0x0 DUP4 ADD MSTORE PUSH2 0xDE6 DUP2 PUSH2 0xCCB JUMP JUMPDEST SWAP1 POP SWAP2 SWAP1 POP JUMP JUMPDEST PUSH1 0x0 PUSH1 0x20 DUP3 ADD SWAP1 POP PUSH2 0xE02 PUSH1 0x0 DUP4 ADD DUP5 PUSH2 0xCEE JUMP JUMPDEST SWAP3 SWAP2 POP POP JUMP JUMPDEST PUSH1 0x0 DUP2 SWAP1 POP SWAP3 SWAP2 POP POP JUMP JUMPDEST PUSH1 0x0 DUP3 DUP3 MSTORE PUSH1 0x20 DUP3 ADD SWAP1 POP SWAP3 SWAP2 POP POP JUMP JUMPDEST PUSH1 0x0 PUSH2 0xE2F DUP3 PUSH2 0xF89 JUMP JUMPDEST SWAP2 POP PUSH2 0xE3A DUP4 PUSH2 0xF89 JUMP JUMPDEST SWAP3 POP DUP3 PUSH32 0xFFFFFFFFFFFFFFFFFFFFFFFFFFFFFFFFFFFFFFFFFFFFFFFFFFFFFFFFFFFFFFFF SUB DUP3 GT ISZERO PUSH2 0xE6F JUMPI PUSH2 0xE6E PUSH2 0xF93 JUMP JUMPDEST JUMPDEST DUP3 DUP3 ADD SWAP1 POP SWAP3 SWAP2 POP POP JUMP JUMPDEST PUSH1 0x0 PUSH2 0xE85 DUP3 PUSH2 0xF89 JUMP JUMPDEST SWAP2 POP PUSH2 0xE90 DUP4 PUSH2 0xF89 JUMP JUMPDEST SWAP3 POP DUP3 PUSH2 0xEA0 JUMPI PUSH2 0xE9F PUSH2 0xFC2 JUMP JUMPDEST JUMPDEST DUP3 DUP3 DIV SWAP1 POP SWAP3 SWAP2 POP POP JUMP JUMPDEST PUSH1 0x0 PUSH2 0xEB6 DUP3 PUSH2 0xF89 JUMP JUMPDEST SWAP2 POP PUSH2 0xEC1 DUP4 PUSH2 0xF89 JUMP JUMPDEST SWAP3 POP DUP2 PUSH32 0xFFFFFFFFFFFFFFFFFFFFFFFFFFFFFFFFFFFFFFFFFFFFFFFFFFFFFFFFFFFFFFFF DIV DUP4 GT DUP3 ISZERO ISZERO AND ISZERO PUSH2 0xEFA JUMPI PUSH2 0xEF9 PUSH2 0xF93 JUMP JUMPDEST JUMPDEST DUP3 DUP3 MUL SWAP1 POP SWAP3 SWAP2 POP POP JUMP JUMPDEST PUSH1 0x0 PUSH2 0xF10 DUP3 PUSH2 0xF89 JUMP JUMPDEST SWAP2 POP PUSH2 0xF1B DUP4 PUSH2 0xF89 JUMP JUMPDEST SWAP3 POP DUP3 DUP3 LT ISZERO PUSH2 0xF2E JUMPI PUSH2 0xF2D PUSH2 0xF93 JUMP JUMPDEST JUMPDEST DUP3 DUP3 SUB SWAP1 POP SWAP3 SWAP2 POP POP JUMP JUMPDEST PUSH1 0x0 PUSH2 0xF44 DUP3 PUSH2 0xF69 JUMP JUMPDEST SWAP1 POP SWAP2 SWAP1 POP JUMP JUMPDEST PUSH1 0x0 PUSH2 0xF56 DUP3 PUSH2 0xF69 JUMP JUMPDEST SWAP1 POP SWAP2 SWAP1 POP JUMP JUMPDEST PUSH1 0x0 DUP2 ISZERO ISZERO SWAP1 POP SWAP2 SWAP1 POP JUMP JUMPDEST PUSH1 0x0 PUSH20 0xFFFFFFFFFFFFFFFFFFFFFFFFFFFFFFFFFFFFFFFF DUP3 AND SWAP1 POP SWAP2 SWAP1 POP JUMP JUMPDEST PUSH1 0x0 DUP2 SWAP1 POP SWAP2 SWAP1 POP JUMP JUMPDEST PUSH32 0x4E487B7100000000000000000000000000000000000000000000000000000000 PUSH1 0x0 MSTORE PUSH1 0x11 PUSH1 0x4 MSTORE PUSH1 0x24 PUSH1 0x0 REVERT JUMPDEST PUSH32 0x4E487B7100000000000000000000000000000000000000000000000000000000 PUSH1 0x0 MSTORE PUSH1 0x12 PUSH1 0x4 MSTORE PUSH1 0x24 PUSH1 0x0 REVERT JUMPDEST PUSH1 0x0 DUP1 REVERT JUMPDEST PUSH32 0x4F776E61626C653A206E6577206F776E657220697320746865207A65726F2061 PUSH1 0x0 DUP3 ADD MSTORE PUSH32 0x6464726573730000000000000000000000000000000000000000000000000000 PUSH1 0x20 DUP3 ADD MSTORE POP JUMP JUMPDEST PUSH32 0x416464726573733A20756E61626C6520746F2073656E642076616C75652C2072 PUSH1 0x0 DUP3 ADD MSTORE PUSH32 0x6563697069656E74206D61792068617665207265766572746564000000000000 PUSH1 0x20 DUP3 ADD MSTORE POP JUMP JUMPDEST PUSH32 0x416464726573733A20696E73756666696369656E742062616C616E6365000000 PUSH1 0x0 DUP3 ADD MSTORE POP JUMP JUMPDEST PUSH32 0x63616C6C6572206973206E6F742074686520636F6E74726163746F7200000000 PUSH1 0x0 DUP3 ADD MSTORE POP JUMP JUMPDEST PUSH32 0x4F776E61626C653A2063616C6C6572206973206E6F7420746865206F776E6572 PUSH1 0x0 DUP3 ADD MSTORE POP JUMP JUMPDEST POP JUMP JUMPDEST PUSH32 0x63616C6C6572206973206E6F74207468652061646D696E000000000000000000 PUSH1 0x0 DUP3 ADD MSTORE POP JUMP JUMPDEST PUSH2 0x1144 DUP2 PUSH2 0xF39 JUMP JUMPDEST DUP2 EQ PUSH2 0x114F JUMPI PUSH1 0x0 DUP1 REVERT JUMPDEST POP JUMP JUMPDEST PUSH2 0x115B DUP2 PUSH2 0xF4B JUMP JUMPDEST DUP2 EQ PUSH2 0x1166 JUMPI PUSH1 0x0 DUP1 REVERT JUMPDEST POP JUMP JUMPDEST PUSH2 0x1172 DUP2 PUSH2 0xF5D JUMP JUMPDEST DUP2 EQ PUSH2 0x117D JUMPI PUSH1 0x0 DUP1 REVERT JUMPDEST POP JUMP INVALID LOG2 PUSH5 0x6970667358 0x22 SLT KECCAK256 0xC PUSH14 0xC059A9F22BD355F09E644DDF93F1 EXP 0xEC PUSH25 0x6AF6182F432DE58D1F7294E23B64736F6C6343000807003300 "
				},
				"gasEstimates": {
					"creation": {
						"codeDepositCost": "906800",
						"executionCost": "infinite",
						"totalCost": "infinite"
					},
					"external": {
						"addContractor(address)": "25950",
						"adminResolutionStatus(bool,bool)": "infinite",
						"deposit(address,address)": "infinite",
						"owner()": "2522",
						"renounceOwnership()": "30443",
						"taskCompletionStatus(bool)": "26896",
						"taskValidationStatus(bool)": "infinite",
						"testPayment()": "infinite",
						"transferOwnership(address)": "30813"
					},
					"internal": {
						"_checkAdmin()": "infinite",
						"_checkContractor()": "infinite"
					}
				},
				"methodIdentifiers": {
					"addContractor(address)": "761768b6",
					"adminResolutionStatus(bool,bool)": "11571f30",
					"deposit(address,address)": "f9609f08",
					"owner()": "8da5cb5b",
					"renounceOwnership()": "715018a6",
					"taskCompletionStatus(bool)": "251d8cd5",
					"taskValidationStatus(bool)": "9464c8b8",
					"testPayment()": "b0568eaa",
					"transferOwnership(address)": "f2fde38b"
				}
			},
			"storageLayout": {
				"storage": [
					{
						"astId": 7,
						"contract": "contracts/Escrow.sol:Escrow",
						"label": "_owner",
						"offset": 0,
						"slot": "0",
						"type": "t_address"
					},
					{
						"astId": 450,
						"contract": "contracts/Escrow.sol:Escrow",
						"label": "contractor",
						"offset": 0,
						"slot": "1",
						"type": "t_address_payable"
					},
					{
						"astId": 452,
						"contract": "contracts/Escrow.sol:Escrow",
						"label": "client",
						"offset": 0,
						"slot": "2",
						"type": "t_address_payable"
					},
					{
						"astId": 454,
						"contract": "contracts/Escrow.sol:Escrow",
						"label": "admin",
						"offset": 0,
						"slot": "3",
						"type": "t_address_payable"
					},
					{
						"astId": 458,
						"contract": "contracts/Escrow.sol:Escrow",
						"label": "_deposits",
						"offset": 0,
						"slot": "4",
						"type": "t_mapping(t_address,t_uint256)"
					},
					{
						"astId": 516,
						"contract": "contracts/Escrow.sol:Escrow",
						"label": "taskCompleted",
						"offset": 0,
						"slot": "5",
						"type": "t_bool"
					},
					{
						"astId": 518,
						"contract": "contracts/Escrow.sol:Escrow",
						"label": "taskValidated",
						"offset": 1,
						"slot": "5",
						"type": "t_bool"
					},
					{
						"astId": 520,
						"contract": "contracts/Escrow.sol:Escrow",
						"label": "adminResolution",
						"offset": 2,
						"slot": "5",
						"type": "t_bool"
					},
					{
						"astId": 522,
						"contract": "contracts/Escrow.sol:Escrow",
						"label": "adminPayContractor",
						"offset": 3,
						"slot": "5",
						"type": "t_bool"
					}
				],
				"types": {
					"t_address": {
						"encoding": "inplace",
						"label": "address",
						"numberOfBytes": "20"
					},
					"t_address_payable": {
						"encoding": "inplace",
						"label": "address payable",
						"numberOfBytes": "20"
					},
					"t_bool": {
						"encoding": "inplace",
						"label": "bool",
						"numberOfBytes": "1"
					},
					"t_mapping(t_address,t_uint256)": {
						"encoding": "mapping",
						"key": "t_address",
						"label": "mapping(address => uint256)",
						"numberOfBytes": "32",
						"value": "t_uint256"
					},
					"t_uint256": {
						"encoding": "inplace",
						"label": "uint256",
						"numberOfBytes": "32"
					}
				}
			},
			"userdoc": {
				"kind": "user",
				"methods": {},
				"version": 1
			}
		}
	}
}