{
	"contracts/Escrow.sol": {
		"Escrow": {
			"abi": [
				{
					"anonymous": false,
					"inputs": [
						{
							"indexed": true,
							"internalType": "address",
							"name": "adminAddress",
							"type": "address"
						}
					],
					"name": "AdminAdded",
					"type": "event"
				},
				{
					"anonymous": false,
					"inputs": [
						{
							"indexed": true,
							"internalType": "address",
							"name": "clientAddress",
							"type": "address"
						}
					],
					"name": "ClientAdded",
					"type": "event"
				},
				{
					"anonymous": false,
					"inputs": [
						{
							"indexed": true,
							"internalType": "address",
							"name": "contractorAddress",
							"type": "address"
						}
					],
					"name": "ContractorAdded",
					"type": "event"
				},
				{
					"anonymous": false,
					"inputs": [
						{
							"indexed": false,
							"internalType": "uint256",
							"name": "weiAmount",
							"type": "uint256"
						}
					],
					"name": "Deposited",
					"type": "event"
				},
				{
					"anonymous": false,
					"inputs": [
						{
							"indexed": true,
							"internalType": "address",
							"name": "previousOwner",
							"type": "address"
						},
						{
							"indexed": true,
							"internalType": "address",
							"name": "newOwner",
							"type": "address"
						}
					],
					"name": "OwnershipTransferred",
					"type": "event"
				},
				{
					"inputs": [
						{
							"internalType": "address payable",
							"name": "adminAddress",
							"type": "address"
						}
					],
					"name": "addAdmin",
					"outputs": [],
					"stateMutability": "nonpayable",
					"type": "function"
				},
				{
					"inputs": [
						{
							"internalType": "address payable",
							"name": "clientAddress",
							"type": "address"
						}
					],
					"name": "addClient",
					"outputs": [],
					"stateMutability": "nonpayable",
					"type": "function"
				},
				{
					"inputs": [
						{
							"internalType": "address payable",
							"name": "contractorAddress",
							"type": "address"
						}
					],
					"name": "addContractor",
					"outputs": [],
					"stateMutability": "nonpayable",
					"type": "function"
				},
				{
					"inputs": [
						{
							"internalType": "bool",
							"name": "inputAdminResolution",
							"type": "bool"
						},
						{
							"internalType": "bool",
							"name": "inputAdminDecision",
							"type": "bool"
						}
					],
					"name": "adminResolutionStatus",
					"outputs": [],
					"stateMutability": "nonpayable",
					"type": "function"
				},
				{
					"inputs": [],
					"name": "contractorState",
					"outputs": [
						{
							"internalType": "uint256",
							"name": "",
							"type": "uint256"
						}
					],
					"stateMutability": "view",
					"type": "function"
				},
				{
					"inputs": [],
					"name": "deposit",
					"outputs": [],
					"stateMutability": "payable",
					"type": "function"
				},
				{
					"inputs": [],
					"name": "owner",
					"outputs": [
						{
							"internalType": "address",
							"name": "",
							"type": "address"
						}
					],
					"stateMutability": "view",
					"type": "function"
				},
				{
					"inputs": [],
					"name": "renounceOwnership",
					"outputs": [],
					"stateMutability": "nonpayable",
					"type": "function"
				},
				{
					"inputs": [
						{
							"internalType": "bool",
							"name": "inputTaskCompleted",
							"type": "bool"
						}
					],
					"name": "taskCompletionStatus",
					"outputs": [],
					"stateMutability": "nonpayable",
					"type": "function"
				},
				{
					"inputs": [
						{
							"internalType": "bool",
							"name": "inputTaskValidated",
							"type": "bool"
						}
					],
					"name": "taskValidationStatus",
					"outputs": [],
					"stateMutability": "nonpayable",
					"type": "function"
				},
				{
					"inputs": [
						{
							"internalType": "address",
							"name": "newOwner",
							"type": "address"
						}
					],
					"name": "transferOwnership",
					"outputs": [],
					"stateMutability": "nonpayable",
					"type": "function"
				}
			],
			"devdoc": {
				"kind": "dev",
				"methods": {
					"owner()": {
						"details": "Returns the address of the current owner."
					},
					"renounceOwnership()": {
						"details": "Leaves the contract without owner. It will not be possible to call `onlyOwner` functions anymore. Can only be called by the current owner. NOTE: Renouncing ownership will leave the contract without an owner, thereby removing any functionality that is only available to the owner."
					},
					"transferOwnership(address)": {
						"details": "Transfers ownership of the contract to a new account (`newOwner`). Can only be called by the current owner."
					}
				},
				"version": 1
			},
			"evm": {
				"assembly": "    /* \"contracts/Escrow.sol\":238:5953  contract Escrow is Ownable {... */\n  mstore(0x40, 0x80)\n  callvalue\n  dup1\n  iszero\n  tag_1\n  jumpi\n  0x00\n  dup1\n  revert\ntag_1:\n  pop\n    /* \"@openzeppelin/contracts/access/Ownable.sol\":936:968  _transferOwnership(_msgSender()) */\n  tag_4\n    /* \"@openzeppelin/contracts/access/Ownable.sol\":955:967  _msgSender() */\n  tag_5\n    /* \"@openzeppelin/contracts/access/Ownable.sol\":955:965  _msgSender */\n  shl(0x20, tag_6)\n    /* \"@openzeppelin/contracts/access/Ownable.sol\":955:967  _msgSender() */\n  0x20\n  shr\n  jump\t// in\ntag_5:\n    /* \"@openzeppelin/contracts/access/Ownable.sol\":936:954  _transferOwnership */\n  shl(0x20, tag_7)\n    /* \"@openzeppelin/contracts/access/Ownable.sol\":936:968  _transferOwnership(_msgSender()) */\n  0x20\n  shr\n  jump\t// in\ntag_4:\n    /* \"contracts/Escrow.sol\":238:5953  contract Escrow is Ownable {... */\n  jump(tag_8)\n    /* \"@openzeppelin/contracts/utils/Context.sol\":640:736  function _msgSender() internal view virtual returns (address) {... */\ntag_6:\n    /* \"@openzeppelin/contracts/utils/Context.sol\":693:700  address */\n  0x00\n    /* \"@openzeppelin/contracts/utils/Context.sol\":719:729  msg.sender */\n  caller\n    /* \"@openzeppelin/contracts/utils/Context.sol\":712:729  return msg.sender */\n  swap1\n  pop\n    /* \"@openzeppelin/contracts/utils/Context.sol\":640:736  function _msgSender() internal view virtual returns (address) {... */\n  swap1\n  jump\t// out\n    /* \"@openzeppelin/contracts/access/Ownable.sol\":2433:2620  function _transferOwnership(address newOwner) internal virtual {... */\ntag_7:\n    /* \"@openzeppelin/contracts/access/Ownable.sol\":2506:2522  address oldOwner */\n  0x00\n    /* \"@openzeppelin/contracts/access/Ownable.sol\":2525:2531  _owner */\n  dup1\n  0x00\n  swap1\n  sload\n  swap1\n  0x0100\n  exp\n  swap1\n  div\n  0xffffffffffffffffffffffffffffffffffffffff\n  and\n    /* \"@openzeppelin/contracts/access/Ownable.sol\":2506:2531  address oldOwner = _owner */\n  swap1\n  pop\n    /* \"@openzeppelin/contracts/access/Ownable.sol\":2550:2558  newOwner */\n  dup2\n    /* \"@openzeppelin/contracts/access/Ownable.sol\":2541:2547  _owner */\n  0x00\n  dup1\n    /* \"@openzeppelin/contracts/access/Ownable.sol\":2541:2558  _owner = newOwner */\n  0x0100\n  exp\n  dup2\n  sload\n  dup2\n  0xffffffffffffffffffffffffffffffffffffffff\n  mul\n  not\n  and\n  swap1\n  dup4\n  0xffffffffffffffffffffffffffffffffffffffff\n  and\n  mul\n  or\n  swap1\n  sstore\n  pop\n    /* \"@openzeppelin/contracts/access/Ownable.sol\":2604:2612  newOwner */\n  dup2\n    /* \"@openzeppelin/contracts/access/Ownable.sol\":2573:2613  OwnershipTransferred(oldOwner, newOwner) */\n  0xffffffffffffffffffffffffffffffffffffffff\n  and\n    /* \"@openzeppelin/contracts/access/Ownable.sol\":2594:2602  oldOwner */\n  dup2\n    /* \"@openzeppelin/contracts/access/Ownable.sol\":2573:2613  OwnershipTransferred(oldOwner, newOwner) */\n  0xffffffffffffffffffffffffffffffffffffffff\n  and\n  0x8be0079c531659141344cd1fd0a4f28419497f9722a3daafe3b4186f6b6457e0\n  mload(0x40)\n  mload(0x40)\n  dup1\n  swap2\n  sub\n  swap1\n  log3\n    /* \"@openzeppelin/contracts/access/Ownable.sol\":2496:2620  {... */\n  pop\n    /* \"@openzeppelin/contracts/access/Ownable.sol\":2433:2620  function _transferOwnership(address newOwner) internal virtual {... */\n  pop\n  jump\t// out\n    /* \"contracts/Escrow.sol\":238:5953  contract Escrow is Ownable {... */\ntag_8:\n  dataSize(sub_0)\n  dup1\n  dataOffset(sub_0)\n  0x00\n  codecopy\n  0x00\n  return\nstop\n\nsub_0: assembly {\n        /* \"contracts/Escrow.sol\":238:5953  contract Escrow is Ownable {... */\n      mstore(0x40, 0x80)\n      jumpi(tag_1, lt(calldatasize, 0x04))\n      shr(0xe0, calldataload(0x00))\n      dup1\n      0x715018a6\n      gt\n      tag_13\n      jumpi\n      dup1\n      0x715018a6\n      eq\n      tag_7\n      jumpi\n      dup1\n      0x761768b6\n      eq\n      tag_8\n      jumpi\n      dup1\n      0x8da5cb5b\n      eq\n      tag_9\n      jumpi\n      dup1\n      0x9464c8b8\n      eq\n      tag_10\n      jumpi\n      dup1\n      0xd0e30db0\n      eq\n      tag_11\n      jumpi\n      dup1\n      0xf2fde38b\n      eq\n      tag_12\n      jumpi\n      jump(tag_1)\n    tag_13:\n      dup1\n      0x11571f30\n      eq\n      tag_2\n      jumpi\n      dup1\n      0x251d8cd5\n      eq\n      tag_3\n      jumpi\n      dup1\n      0x3bed7965\n      eq\n      tag_4\n      jumpi\n      dup1\n      0x43928cfd\n      eq\n      tag_5\n      jumpi\n      dup1\n      0x70480275\n      eq\n      tag_6\n      jumpi\n    tag_1:\n      0x00\n      dup1\n      revert\n        /* \"contracts/Escrow.sol\":4068:4286  function adminResolutionStatus(bool inputAdminResolution, bool inputAdminDecision) public onlyAdmin{... */\n    tag_2:\n      callvalue\n      dup1\n      iszero\n      tag_14\n      jumpi\n      0x00\n      dup1\n      revert\n    tag_14:\n      pop\n      tag_15\n      0x04\n      dup1\n      calldatasize\n      sub\n      dup2\n      add\n      swap1\n      tag_16\n      swap2\n      swap1\n      tag_17\n      jump\t// in\n    tag_16:\n      tag_18\n      jump\t// in\n    tag_15:\n      stop\n        /* \"contracts/Escrow.sol\":4497:4621  function taskCompletionStatus(bool inputTaskCompleted) public onlyContractor {... */\n    tag_3:\n      callvalue\n      dup1\n      iszero\n      tag_19\n      jumpi\n      0x00\n      dup1\n      revert\n    tag_19:\n      pop\n      tag_20\n      0x04\n      dup1\n      calldatasize\n      sub\n      dup2\n      add\n      swap1\n      tag_21\n      swap2\n      swap1\n      tag_22\n      jump\t// in\n    tag_21:\n      tag_23\n      jump\t// in\n    tag_20:\n      stop\n        /* \"contracts/Escrow.sol\":2224:2254  uint256 public contractorState */\n    tag_4:\n      callvalue\n      dup1\n      iszero\n      tag_24\n      jumpi\n      0x00\n      dup1\n      revert\n    tag_24:\n      pop\n      tag_25\n      tag_26\n      jump\t// in\n    tag_25:\n      mload(0x40)\n      tag_27\n      swap2\n      swap1\n      tag_28\n      jump\t// in\n    tag_27:\n      mload(0x40)\n      dup1\n      swap2\n      sub\n      swap1\n      return\n        /* \"contracts/Escrow.sol\":3203:3349  function addClient(address payable clientAddress) public onlyOwner{... */\n    tag_5:\n      callvalue\n      dup1\n      iszero\n      tag_29\n      jumpi\n      0x00\n      dup1\n      revert\n    tag_29:\n      pop\n      tag_30\n      0x04\n      dup1\n      calldatasize\n      sub\n      dup2\n      add\n      swap1\n      tag_31\n      swap2\n      swap1\n      tag_32\n      jump\t// in\n    tag_31:\n      tag_33\n      jump\t// in\n    tag_30:\n      stop\n        /* \"contracts/Escrow.sol\":2788:2919  function addAdmin(address payable adminAddress) public {... */\n    tag_6:\n      callvalue\n      dup1\n      iszero\n      tag_34\n      jumpi\n      0x00\n      dup1\n      revert\n    tag_34:\n      pop\n      tag_35\n      0x04\n      dup1\n      calldatasize\n      sub\n      dup2\n      add\n      swap1\n      tag_36\n      swap2\n      swap1\n      tag_32\n      jump\t// in\n    tag_36:\n      tag_37\n      jump\t// in\n    tag_35:\n      stop\n        /* \"@openzeppelin/contracts/access/Ownable.sol\":1831:1932  function renounceOwnership() public virtual onlyOwner {... */\n    tag_7:\n      callvalue\n      dup1\n      iszero\n      tag_38\n      jumpi\n      0x00\n      dup1\n      revert\n    tag_38:\n      pop\n      tag_39\n      tag_40\n      jump\t// in\n    tag_39:\n      stop\n        /* \"contracts/Escrow.sol\":2260:2504  function addContractor(address payable contractorAddress) public onlyOwner{... */\n    tag_8:\n      callvalue\n      dup1\n      iszero\n      tag_41\n      jumpi\n      0x00\n      dup1\n      revert\n    tag_41:\n      pop\n      tag_42\n      0x04\n      dup1\n      calldatasize\n      sub\n      dup2\n      add\n      swap1\n      tag_43\n      swap2\n      swap1\n      tag_32\n      jump\t// in\n    tag_43:\n      tag_44\n      jump\t// in\n    tag_42:\n      stop\n        /* \"@openzeppelin/contracts/access/Ownable.sol\":1201:1286  function owner() public view virtual returns (address) {... */\n    tag_9:\n      callvalue\n      dup1\n      iszero\n      tag_45\n      jumpi\n      0x00\n      dup1\n      revert\n    tag_45:\n      pop\n      tag_46\n      tag_47\n      jump\t// in\n    tag_46:\n      mload(0x40)\n      tag_48\n      swap2\n      swap1\n      tag_49\n      jump\t// in\n    tag_48:\n      mload(0x40)\n      dup1\n      swap2\n      sub\n      swap1\n      return\n        /* \"contracts/Escrow.sol\":4837:4979  function taskValidationStatus(bool inputTaskValidated) public onlyClient{... */\n    tag_10:\n      callvalue\n      dup1\n      iszero\n      tag_50\n      jumpi\n      0x00\n      dup1\n      revert\n    tag_50:\n      pop\n      tag_51\n      0x04\n      dup1\n      calldatasize\n      sub\n      dup2\n      add\n      swap1\n      tag_52\n      swap2\n      swap1\n      tag_22\n      jump\t// in\n    tag_52:\n      tag_53\n      jump\t// in\n    tag_51:\n      stop\n        /* \"contracts/Escrow.sol\":1957:2077  function deposit() public payable onlyClient {... */\n    tag_11:\n      tag_54\n      tag_55\n      jump\t// in\n    tag_54:\n      stop\n        /* \"@openzeppelin/contracts/access/Ownable.sol\":2081:2279  function transferOwnership(address newOwner) public virtual onlyOwner {... */\n    tag_12:\n      callvalue\n      dup1\n      iszero\n      tag_56\n      jumpi\n      0x00\n      dup1\n      revert\n    tag_56:\n      pop\n      tag_57\n      0x04\n      dup1\n      calldatasize\n      sub\n      dup2\n      add\n      swap1\n      tag_58\n      swap2\n      swap1\n      tag_59\n      jump\t// in\n    tag_58:\n      tag_60\n      jump\t// in\n    tag_57:\n      stop\n        /* \"contracts/Escrow.sol\":4068:4286  function adminResolutionStatus(bool inputAdminResolution, bool inputAdminDecision) public onlyAdmin{... */\n    tag_18:\n        /* \"contracts/Escrow.sol\":1107:1120  _checkAdmin() */\n      tag_62\n        /* \"contracts/Escrow.sol\":1107:1118  _checkAdmin */\n      tag_63\n        /* \"contracts/Escrow.sol\":1107:1120  _checkAdmin() */\n      jump\t// in\n    tag_62:\n        /* \"contracts/Escrow.sol\":4191:4211  inputAdminResolution */\n      dup2\n        /* \"contracts/Escrow.sol\":4173:4188  adminResolution */\n      0x06\n      0x02\n        /* \"contracts/Escrow.sol\":4173:4211  adminResolution = inputAdminResolution */\n      0x0100\n      exp\n      dup2\n      sload\n      dup2\n      0xff\n      mul\n      not\n      and\n      swap1\n      dup4\n      iszero\n      iszero\n      mul\n      or\n      swap1\n      sstore\n      pop\n        /* \"contracts/Escrow.sol\":4238:4256  inputAdminDecision */\n      dup1\n        /* \"contracts/Escrow.sol\":4217:4235  adminPayContractor */\n      0x06\n      0x03\n        /* \"contracts/Escrow.sol\":4217:4256  adminPayContractor = inputAdminDecision */\n      0x0100\n      exp\n      dup2\n      sload\n      dup2\n      0xff\n      mul\n      not\n      and\n      swap1\n      dup4\n      iszero\n      iszero\n      mul\n      or\n      swap1\n      sstore\n      pop\n        /* \"contracts/Escrow.sol\":4262:4279  withdrawPayment() */\n      tag_65\n        /* \"contracts/Escrow.sol\":4262:4277  withdrawPayment */\n      tag_66\n        /* \"contracts/Escrow.sol\":4262:4279  withdrawPayment() */\n      jump\t// in\n    tag_65:\n        /* \"contracts/Escrow.sol\":4068:4286  function adminResolutionStatus(bool inputAdminResolution, bool inputAdminDecision) public onlyAdmin{... */\n      pop\n      pop\n      jump\t// out\n        /* \"contracts/Escrow.sol\":4497:4621  function taskCompletionStatus(bool inputTaskCompleted) public onlyContractor {... */\n    tag_23:\n        /* \"contracts/Escrow.sol\":1796:1814  _checkContractor() */\n      tag_68\n        /* \"contracts/Escrow.sol\":1796:1812  _checkContractor */\n      tag_69\n        /* \"contracts/Escrow.sol\":1796:1814  _checkContractor() */\n      jump\t// in\n    tag_68:\n        /* \"contracts/Escrow.sol\":4596:4614  inputTaskCompleted */\n      dup1\n        /* \"contracts/Escrow.sol\":4580:4593  taskCompleted */\n      0x06\n      0x00\n        /* \"contracts/Escrow.sol\":4580:4614  taskCompleted = inputTaskCompleted */\n      0x0100\n      exp\n      dup2\n      sload\n      dup2\n      0xff\n      mul\n      not\n      and\n      swap1\n      dup4\n      iszero\n      iszero\n      mul\n      or\n      swap1\n      sstore\n      pop\n        /* \"contracts/Escrow.sol\":4497:4621  function taskCompletionStatus(bool inputTaskCompleted) public onlyContractor {... */\n      pop\n      jump\t// out\n        /* \"contracts/Escrow.sol\":2224:2254  uint256 public contractorState */\n    tag_26:\n      sload(0x05)\n      dup2\n      jump\t// out\n        /* \"contracts/Escrow.sol\":3203:3349  function addClient(address payable clientAddress) public onlyOwner{... */\n    tag_33:\n        /* \"@openzeppelin/contracts/access/Ownable.sol\":1094:1107  _checkOwner() */\n      tag_72\n        /* \"@openzeppelin/contracts/access/Ownable.sol\":1094:1105  _checkOwner */\n      tag_73\n        /* \"@openzeppelin/contracts/access/Ownable.sol\":1094:1107  _checkOwner() */\n      jump\t// in\n    tag_72:\n        /* \"contracts/Escrow.sol\":3288:3301  clientAddress */\n      dup1\n        /* \"contracts/Escrow.sol\":3279:3285  client */\n      0x02\n      0x00\n        /* \"contracts/Escrow.sol\":3279:3301  client = clientAddress */\n      0x0100\n      exp\n      dup2\n      sload\n      dup2\n      0xffffffffffffffffffffffffffffffffffffffff\n      mul\n      not\n      and\n      swap1\n      dup4\n      0xffffffffffffffffffffffffffffffffffffffff\n      and\n      mul\n      or\n      swap1\n      sstore\n      pop\n        /* \"contracts/Escrow.sol\":3328:3341  clientAddress */\n      dup1\n        /* \"contracts/Escrow.sol\":3316:3342  ClientAdded(clientAddress) */\n      0xffffffffffffffffffffffffffffffffffffffff\n      and\n      0x6c713924da8f1e694559181e3497cb03c970f0f7c023d913207d0410b531741e\n      mload(0x40)\n      mload(0x40)\n      dup1\n      swap2\n      sub\n      swap1\n      log2\n        /* \"contracts/Escrow.sol\":3203:3349  function addClient(address payable clientAddress) public onlyOwner{... */\n      pop\n      jump\t// out\n        /* \"contracts/Escrow.sol\":2788:2919  function addAdmin(address payable adminAddress) public {... */\n    tag_37:\n        /* \"contracts/Escrow.sol\":2861:2873  adminAddress */\n      dup1\n        /* \"contracts/Escrow.sol\":2853:2858  admin */\n      0x03\n      0x00\n        /* \"contracts/Escrow.sol\":2853:2873  admin = adminAddress */\n      0x0100\n      exp\n      dup2\n      sload\n      dup2\n      0xffffffffffffffffffffffffffffffffffffffff\n      mul\n      not\n      and\n      swap1\n      dup4\n      0xffffffffffffffffffffffffffffffffffffffff\n      and\n      mul\n      or\n      swap1\n      sstore\n      pop\n        /* \"contracts/Escrow.sol\":2899:2911  adminAddress */\n      dup1\n        /* \"contracts/Escrow.sol\":2888:2912  AdminAdded(adminAddress) */\n      0xffffffffffffffffffffffffffffffffffffffff\n      and\n      0x44d6d25963f097ad14f29f06854a01f575648a1ef82f30e562ccd3889717e339\n      mload(0x40)\n      mload(0x40)\n      dup1\n      swap2\n      sub\n      swap1\n      log2\n        /* \"contracts/Escrow.sol\":2788:2919  function addAdmin(address payable adminAddress) public {... */\n      pop\n      jump\t// out\n        /* \"@openzeppelin/contracts/access/Ownable.sol\":1831:1932  function renounceOwnership() public virtual onlyOwner {... */\n    tag_40:\n        /* \"@openzeppelin/contracts/access/Ownable.sol\":1094:1107  _checkOwner() */\n      tag_77\n        /* \"@openzeppelin/contracts/access/Ownable.sol\":1094:1105  _checkOwner */\n      tag_73\n        /* \"@openzeppelin/contracts/access/Ownable.sol\":1094:1107  _checkOwner() */\n      jump\t// in\n    tag_77:\n        /* \"@openzeppelin/contracts/access/Ownable.sol\":1895:1925  _transferOwnership(address(0)) */\n      tag_79\n        /* \"@openzeppelin/contracts/access/Ownable.sol\":1922:1923  0 */\n      0x00\n        /* \"@openzeppelin/contracts/access/Ownable.sol\":1895:1913  _transferOwnership */\n      tag_80\n        /* \"@openzeppelin/contracts/access/Ownable.sol\":1895:1925  _transferOwnership(address(0)) */\n      jump\t// in\n    tag_79:\n        /* \"@openzeppelin/contracts/access/Ownable.sol\":1831:1932  function renounceOwnership() public virtual onlyOwner {... */\n      jump\t// out\n        /* \"contracts/Escrow.sol\":2260:2504  function addContractor(address payable contractorAddress) public onlyOwner{... */\n    tag_44:\n        /* \"@openzeppelin/contracts/access/Ownable.sol\":1094:1107  _checkOwner() */\n      tag_82\n        /* \"@openzeppelin/contracts/access/Ownable.sol\":1094:1105  _checkOwner */\n      tag_73\n        /* \"@openzeppelin/contracts/access/Ownable.sol\":1094:1107  _checkOwner() */\n      jump\t// in\n    tag_82:\n        /* \"contracts/Escrow.sol\":2370:2371  1 */\n      0x01\n        /* \"contracts/Escrow.sol\":2352:2367  contractorState */\n      sload(0x05)\n        /* \"contracts/Escrow.sol\":2352:2371  contractorState <=1 */\n      gt\n      iszero\n        /* \"contracts/Escrow.sol\":2344:2378  require(contractorState <=1 , \"C\") */\n      tag_84\n      jumpi\n      mload(0x40)\n      0x08c379a000000000000000000000000000000000000000000000000000000000\n      dup2\n      mstore\n      0x04\n      add\n      tag_85\n      swap1\n      tag_86\n      jump\t// in\n    tag_85:\n      mload(0x40)\n      dup1\n      swap2\n      sub\n      swap1\n      revert\n    tag_84:\n        /* \"contracts/Escrow.sol\":2401:2418  contractorAddress */\n      dup1\n        /* \"contracts/Escrow.sol\":2388:2398  contractor */\n      0x01\n      0x00\n        /* \"contracts/Escrow.sol\":2388:2418  contractor = contractorAddress */\n      0x0100\n      exp\n      dup2\n      sload\n      dup2\n      0xffffffffffffffffffffffffffffffffffffffff\n      mul\n      not\n      and\n      swap1\n      dup4\n      0xffffffffffffffffffffffffffffffffffffffff\n      and\n      mul\n      or\n      swap1\n      sstore\n      pop\n        /* \"contracts/Escrow.sol\":2447:2448  1 */\n      0x01\n        /* \"contracts/Escrow.sol\":2428:2443  contractorState */\n      0x05\n      0x00\n        /* \"contracts/Escrow.sol\":2428:2448  contractorState += 1 */\n      dup3\n      dup3\n      sload\n      tag_87\n      swap2\n      swap1\n      tag_88\n      jump\t// in\n    tag_87:\n      swap3\n      pop\n      pop\n      dup2\n      swap1\n      sstore\n      pop\n        /* \"contracts/Escrow.sol\":2479:2496  contractorAddress */\n      dup1\n        /* \"contracts/Escrow.sol\":2463:2497  ContractorAdded(contractorAddress) */\n      0xffffffffffffffffffffffffffffffffffffffff\n      and\n      0x29dc23bcd72bfb02ec013f6350778cb6e5908dc02e5e1234385f27e32676b6e1\n      mload(0x40)\n      mload(0x40)\n      dup1\n      swap2\n      sub\n      swap1\n      log2\n        /* \"contracts/Escrow.sol\":2260:2504  function addContractor(address payable contractorAddress) public onlyOwner{... */\n      pop\n      jump\t// out\n        /* \"@openzeppelin/contracts/access/Ownable.sol\":1201:1286  function owner() public view virtual returns (address) {... */\n    tag_47:\n        /* \"@openzeppelin/contracts/access/Ownable.sol\":1247:1254  address */\n      0x00\n        /* \"@openzeppelin/contracts/access/Ownable.sol\":1273:1279  _owner */\n      dup1\n      0x00\n      swap1\n      sload\n      swap1\n      0x0100\n      exp\n      swap1\n      div\n      0xffffffffffffffffffffffffffffffffffffffff\n      and\n        /* \"@openzeppelin/contracts/access/Ownable.sol\":1266:1279  return _owner */\n      swap1\n      pop\n        /* \"@openzeppelin/contracts/access/Ownable.sol\":1201:1286  function owner() public view virtual returns (address) {... */\n      swap1\n      jump\t// out\n        /* \"contracts/Escrow.sol\":4837:4979  function taskValidationStatus(bool inputTaskValidated) public onlyClient{... */\n    tag_53:\n        /* \"contracts/Escrow.sol\":1438:1452  _checkClient() */\n      tag_91\n        /* \"contracts/Escrow.sol\":1438:1450  _checkClient */\n      tag_92\n        /* \"contracts/Escrow.sol\":1438:1452  _checkClient() */\n      jump\t// in\n    tag_91:\n        /* \"contracts/Escrow.sol\":4931:4949  inputTaskValidated */\n      dup1\n        /* \"contracts/Escrow.sol\":4915:4928  taskValidated */\n      0x06\n      0x01\n        /* \"contracts/Escrow.sol\":4915:4949  taskValidated = inputTaskValidated */\n      0x0100\n      exp\n      dup2\n      sload\n      dup2\n      0xff\n      mul\n      not\n      and\n      swap1\n      dup4\n      iszero\n      iszero\n      mul\n      or\n      swap1\n      sstore\n      pop\n        /* \"contracts/Escrow.sol\":4955:4972  withdrawPayment() */\n      tag_94\n        /* \"contracts/Escrow.sol\":4955:4970  withdrawPayment */\n      tag_66\n        /* \"contracts/Escrow.sol\":4955:4972  withdrawPayment() */\n      jump\t// in\n    tag_94:\n        /* \"contracts/Escrow.sol\":4837:4979  function taskValidationStatus(bool inputTaskValidated) public onlyClient{... */\n      pop\n      jump\t// out\n        /* \"contracts/Escrow.sol\":1957:2077  function deposit() public payable onlyClient {... */\n    tag_55:\n        /* \"contracts/Escrow.sol\":1438:1452  _checkClient() */\n      tag_96\n        /* \"contracts/Escrow.sol\":1438:1450  _checkClient */\n      tag_92\n        /* \"contracts/Escrow.sol\":1438:1452  _checkClient() */\n      jump\t// in\n    tag_96:\n        /* \"contracts/Escrow.sol\":2012:2026  uint256 amount */\n      0x00\n        /* \"contracts/Escrow.sol\":2029:2038  msg.value */\n      callvalue\n        /* \"contracts/Escrow.sol\":2012:2038  uint256 amount = msg.value */\n      swap1\n      pop\n        /* \"contracts/Escrow.sol\":2053:2070  Deposited(amount) */\n      0x2a89b2e3d580398d6dc2db5e0f336b52602bbaa51afa9bb5cdf59239cf0d2bea\n        /* \"contracts/Escrow.sol\":2063:2069  amount */\n      dup2\n        /* \"contracts/Escrow.sol\":2053:2070  Deposited(amount) */\n      mload(0x40)\n      tag_98\n      swap2\n      swap1\n      tag_28\n      jump\t// in\n    tag_98:\n      mload(0x40)\n      dup1\n      swap2\n      sub\n      swap1\n      log1\n        /* \"contracts/Escrow.sol\":2002:2077  {... */\n      pop\n        /* \"contracts/Escrow.sol\":1957:2077  function deposit() public payable onlyClient {... */\n      jump\t// out\n        /* \"@openzeppelin/contracts/access/Ownable.sol\":2081:2279  function transferOwnership(address newOwner) public virtual onlyOwner {... */\n    tag_60:\n        /* \"@openzeppelin/contracts/access/Ownable.sol\":1094:1107  _checkOwner() */\n      tag_100\n        /* \"@openzeppelin/contracts/access/Ownable.sol\":1094:1105  _checkOwner */\n      tag_73\n        /* \"@openzeppelin/contracts/access/Ownable.sol\":1094:1107  _checkOwner() */\n      jump\t// in\n    tag_100:\n        /* \"@openzeppelin/contracts/access/Ownable.sol\":2189:2190  0 */\n      0x00\n        /* \"@openzeppelin/contracts/access/Ownable.sol\":2169:2191  newOwner != address(0) */\n      0xffffffffffffffffffffffffffffffffffffffff\n      and\n        /* \"@openzeppelin/contracts/access/Ownable.sol\":2169:2177  newOwner */\n      dup2\n        /* \"@openzeppelin/contracts/access/Ownable.sol\":2169:2191  newOwner != address(0) */\n      0xffffffffffffffffffffffffffffffffffffffff\n      and\n      eq\n      iszero\n        /* \"@openzeppelin/contracts/access/Ownable.sol\":2161:2234  require(newOwner != address(0), \"Ownable: new owner is the zero address\") */\n      tag_102\n      jumpi\n      mload(0x40)\n      0x08c379a000000000000000000000000000000000000000000000000000000000\n      dup2\n      mstore\n      0x04\n      add\n      tag_103\n      swap1\n      tag_104\n      jump\t// in\n    tag_103:\n      mload(0x40)\n      dup1\n      swap2\n      sub\n      swap1\n      revert\n    tag_102:\n        /* \"@openzeppelin/contracts/access/Ownable.sol\":2244:2272  _transferOwnership(newOwner) */\n      tag_105\n        /* \"@openzeppelin/contracts/access/Ownable.sol\":2263:2271  newOwner */\n      dup2\n        /* \"@openzeppelin/contracts/access/Ownable.sol\":2244:2262  _transferOwnership */\n      tag_80\n        /* \"@openzeppelin/contracts/access/Ownable.sol\":2244:2272  _transferOwnership(newOwner) */\n      jump\t// in\n    tag_105:\n        /* \"@openzeppelin/contracts/access/Ownable.sol\":2081:2279  function transferOwnership(address newOwner) public virtual onlyOwner {... */\n      pop\n      jump\t// out\n        /* \"contracts/Escrow.sol\":959:1068  function _checkAdmin() internal view {... */\n    tag_63:\n        /* \"contracts/Escrow.sol\":1028:1033  admin */\n      0x03\n      0x00\n      swap1\n      sload\n      swap1\n      0x0100\n      exp\n      swap1\n      div\n      0xffffffffffffffffffffffffffffffffffffffff\n      and\n        /* \"contracts/Escrow.sol\":1014:1033  msg.sender == admin */\n      0xffffffffffffffffffffffffffffffffffffffff\n      and\n        /* \"contracts/Escrow.sol\":1014:1024  msg.sender */\n      caller\n        /* \"contracts/Escrow.sol\":1014:1033  msg.sender == admin */\n      0xffffffffffffffffffffffffffffffffffffffff\n      and\n      eq\n        /* \"contracts/Escrow.sol\":1006:1061  require(msg.sender == admin, \"caller is not the admin\") */\n      tag_107\n      jumpi\n      mload(0x40)\n      0x08c379a000000000000000000000000000000000000000000000000000000000\n      dup2\n      mstore\n      0x04\n      add\n      tag_108\n      swap1\n      tag_109\n      jump\t// in\n    tag_108:\n      mload(0x40)\n      dup1\n      swap2\n      sub\n      swap1\n      revert\n    tag_107:\n        /* \"contracts/Escrow.sol\":959:1068  function _checkAdmin() internal view {... */\n      jump\t// out\n        /* \"contracts/Escrow.sol\":5267:5950  function withdrawPayment() private{... */\n    tag_66:\n        /* \"contracts/Escrow.sol\":5307:5329  uint256 balancePayment */\n      0x00\n        /* \"contracts/Escrow.sol\":5332:5353  address(this).balance */\n      selfbalance\n        /* \"contracts/Escrow.sol\":5307:5353  uint256 balancePayment = address(this).balance */\n      swap1\n      pop\n        /* \"contracts/Escrow.sol\":5359:5379  uint256 adminPayment */\n      0x00\n        /* \"contracts/Escrow.sol\":5403:5406  100 */\n      0x64\n        /* \"contracts/Escrow.sol\":5400:5401  2 */\n      0x02\n        /* \"contracts/Escrow.sol\":5383:5397  balancePayment */\n      dup4\n        /* \"contracts/Escrow.sol\":5383:5401  balancePayment * 2 */\n      tag_111\n      swap2\n      swap1\n      tag_112\n      jump\t// in\n    tag_111:\n        /* \"contracts/Escrow.sol\":5382:5406  (balancePayment * 2)/100 */\n      tag_113\n      swap2\n      swap1\n      tag_114\n      jump\t// in\n    tag_113:\n        /* \"contracts/Escrow.sol\":5359:5406  uint256 adminPayment = (balancePayment * 2)/100 */\n      swap1\n      pop\n        /* \"contracts/Escrow.sol\":5492:5504  adminPayment */\n      dup1\n        /* \"contracts/Escrow.sol\":5474:5504  balancePayment -= adminPayment */\n      dup3\n      tag_115\n      swap2\n      swap1\n      tag_116\n      jump\t// in\n    tag_115:\n      swap2\n      pop\n        /* \"contracts/Escrow.sol\":5574:5578  true */\n      0x01\n        /* \"contracts/Escrow.sol\":5557:5578  taskCompleted == true */\n      iszero\n      iszero\n        /* \"contracts/Escrow.sol\":5557:5570  taskCompleted */\n      0x06\n      0x00\n      swap1\n      sload\n      swap1\n      0x0100\n      exp\n      swap1\n      div\n      0xff\n      and\n        /* \"contracts/Escrow.sol\":5557:5578  taskCompleted == true */\n      iszero\n      iszero\n      eq\n        /* \"contracts/Escrow.sol\":5557:5603  taskCompleted == true && taskValidated == true */\n      dup1\n      iszero\n      tag_117\n      jumpi\n      pop\n        /* \"contracts/Escrow.sol\":5599:5603  true */\n      0x01\n        /* \"contracts/Escrow.sol\":5582:5603  taskValidated == true */\n      iszero\n      iszero\n        /* \"contracts/Escrow.sol\":5582:5595  taskValidated */\n      0x06\n      0x01\n      swap1\n      sload\n      swap1\n      0x0100\n      exp\n      swap1\n      div\n      0xff\n      and\n        /* \"contracts/Escrow.sol\":5582:5603  taskValidated == true */\n      iszero\n      iszero\n      eq\n        /* \"contracts/Escrow.sol\":5557:5603  taskCompleted == true && taskValidated == true */\n    tag_117:\n        /* \"contracts/Escrow.sol\":5556:5661  (taskCompleted == true && taskValidated == true)||(adminResolution == true && adminPayContractor == true) */\n      dup1\n      tag_118\n      jumpi\n      pop\n        /* \"contracts/Escrow.sol\":5626:5630  true */\n      0x01\n        /* \"contracts/Escrow.sol\":5607:5630  adminResolution == true */\n      iszero\n      iszero\n        /* \"contracts/Escrow.sol\":5607:5622  adminResolution */\n      0x06\n      0x02\n      swap1\n      sload\n      swap1\n      0x0100\n      exp\n      swap1\n      div\n      0xff\n      and\n        /* \"contracts/Escrow.sol\":5607:5630  adminResolution == true */\n      iszero\n      iszero\n      eq\n        /* \"contracts/Escrow.sol\":5607:5660  adminResolution == true && adminPayContractor == true */\n      dup1\n      iszero\n      tag_119\n      jumpi\n      pop\n        /* \"contracts/Escrow.sol\":5656:5660  true */\n      0x01\n        /* \"contracts/Escrow.sol\":5634:5660  adminPayContractor == true */\n      iszero\n      iszero\n        /* \"contracts/Escrow.sol\":5634:5652  adminPayContractor */\n      0x06\n      0x03\n      swap1\n      sload\n      swap1\n      0x0100\n      exp\n      swap1\n      div\n      0xff\n      and\n        /* \"contracts/Escrow.sol\":5634:5660  adminPayContractor == true */\n      iszero\n      iszero\n      eq\n        /* \"contracts/Escrow.sol\":5607:5660  adminResolution == true && adminPayContractor == true */\n    tag_119:\n        /* \"contracts/Escrow.sol\":5556:5661  (taskCompleted == true && taskValidated == true)||(adminResolution == true && adminPayContractor == true) */\n    tag_118:\n        /* \"contracts/Escrow.sol\":5553:5943  if((taskCompleted == true && taskValidated == true)||(adminResolution == true && adminPayContractor == true)){... */\n      iszero\n      tag_120\n      jumpi\n        /* \"contracts/Escrow.sol\":5676:5712  contractor.sendValue(balancePayment) */\n      tag_121\n        /* \"contracts/Escrow.sol\":5697:5711  balancePayment */\n      dup3\n        /* \"contracts/Escrow.sol\":5676:5686  contractor */\n      0x01\n      0x00\n      swap1\n      sload\n      swap1\n      0x0100\n      exp\n      swap1\n      div\n      0xffffffffffffffffffffffffffffffffffffffff\n      and\n        /* \"contracts/Escrow.sol\":5676:5696  contractor.sendValue */\n      0xffffffffffffffffffffffffffffffffffffffff\n      and\n      tag_122\n      swap1\n        /* \"contracts/Escrow.sol\":5676:5712  contractor.sendValue(balancePayment) */\n      swap2\n      swap1\n      0xffffffff\n      and\n      jump\t// in\n    tag_121:\n        /* \"contracts/Escrow.sol\":5726:5755  admin.sendValue(adminPayment) */\n      tag_123\n        /* \"contracts/Escrow.sol\":5742:5754  adminPayment */\n      dup2\n        /* \"contracts/Escrow.sol\":5726:5731  admin */\n      0x03\n      0x00\n      swap1\n      sload\n      swap1\n      0x0100\n      exp\n      swap1\n      div\n      0xffffffffffffffffffffffffffffffffffffffff\n      and\n        /* \"contracts/Escrow.sol\":5726:5741  admin.sendValue */\n      0xffffffffffffffffffffffffffffffffffffffff\n      and\n      tag_122\n      swap1\n        /* \"contracts/Escrow.sol\":5726:5755  admin.sendValue(adminPayment) */\n      swap2\n      swap1\n      0xffffffff\n      and\n      jump\t// in\n    tag_123:\n        /* \"contracts/Escrow.sol\":5553:5943  if((taskCompleted == true && taskValidated == true)||(adminResolution == true && adminPayContractor == true)){... */\n      jump(tag_124)\n    tag_120:\n        /* \"contracts/Escrow.sol\":5802:5806  true */\n      0x01\n        /* \"contracts/Escrow.sol\":5783:5806  adminResolution == true */\n      iszero\n      iszero\n        /* \"contracts/Escrow.sol\":5783:5798  adminResolution */\n      0x06\n      0x02\n      swap1\n      sload\n      swap1\n      0x0100\n      exp\n      swap1\n      div\n      0xff\n      and\n        /* \"contracts/Escrow.sol\":5783:5806  adminResolution == true */\n      iszero\n      iszero\n      eq\n        /* \"contracts/Escrow.sol\":5783:5837  adminResolution == true && adminPayContractor == false */\n      dup1\n      iszero\n      tag_125\n      jumpi\n      pop\n        /* \"contracts/Escrow.sol\":5832:5837  false */\n      0x00\n        /* \"contracts/Escrow.sol\":5810:5837  adminPayContractor == false */\n      iszero\n      iszero\n        /* \"contracts/Escrow.sol\":5810:5828  adminPayContractor */\n      0x06\n      0x03\n      swap1\n      sload\n      swap1\n      0x0100\n      exp\n      swap1\n      div\n      0xff\n      and\n        /* \"contracts/Escrow.sol\":5810:5837  adminPayContractor == false */\n      iszero\n      iszero\n      eq\n        /* \"contracts/Escrow.sol\":5783:5837  adminResolution == true && adminPayContractor == false */\n    tag_125:\n        /* \"contracts/Escrow.sol\":5780:5943  if(adminResolution == true && adminPayContractor == false){... */\n      iszero\n      tag_126\n      jumpi\n        /* \"contracts/Escrow.sol\":5852:5884  client.sendValue(balancePayment) */\n      tag_127\n        /* \"contracts/Escrow.sol\":5869:5883  balancePayment */\n      dup3\n        /* \"contracts/Escrow.sol\":5852:5858  client */\n      0x02\n      0x00\n      swap1\n      sload\n      swap1\n      0x0100\n      exp\n      swap1\n      div\n      0xffffffffffffffffffffffffffffffffffffffff\n      and\n        /* \"contracts/Escrow.sol\":5852:5868  client.sendValue */\n      0xffffffffffffffffffffffffffffffffffffffff\n      and\n      tag_122\n      swap1\n        /* \"contracts/Escrow.sol\":5852:5884  client.sendValue(balancePayment) */\n      swap2\n      swap1\n      0xffffffff\n      and\n      jump\t// in\n    tag_127:\n        /* \"contracts/Escrow.sol\":5898:5927  admin.sendValue(adminPayment) */\n      tag_128\n        /* \"contracts/Escrow.sol\":5914:5926  adminPayment */\n      dup2\n        /* \"contracts/Escrow.sol\":5898:5903  admin */\n      0x03\n      0x00\n      swap1\n      sload\n      swap1\n      0x0100\n      exp\n      swap1\n      div\n      0xffffffffffffffffffffffffffffffffffffffff\n      and\n        /* \"contracts/Escrow.sol\":5898:5913  admin.sendValue */\n      0xffffffffffffffffffffffffffffffffffffffff\n      and\n      tag_122\n      swap1\n        /* \"contracts/Escrow.sol\":5898:5927  admin.sendValue(adminPayment) */\n      swap2\n      swap1\n      0xffffffff\n      and\n      jump\t// in\n    tag_128:\n        /* \"contracts/Escrow.sol\":5780:5943  if(adminResolution == true && adminPayContractor == false){... */\n    tag_126:\n        /* \"contracts/Escrow.sol\":5553:5943  if((taskCompleted == true && taskValidated == true)||(adminResolution == true && adminPayContractor == true)){... */\n    tag_124:\n        /* \"contracts/Escrow.sol\":5301:5950  {... */\n      pop\n      pop\n        /* \"contracts/Escrow.sol\":5267:5950  function withdrawPayment() private{... */\n      jump\t// out\n        /* \"contracts/Escrow.sol\":1628:1752  function _checkContractor() internal view {... */\n    tag_69:\n        /* \"contracts/Escrow.sol\":1702:1712  contractor */\n      0x01\n      0x00\n      swap1\n      sload\n      swap1\n      0x0100\n      exp\n      swap1\n      div\n      0xffffffffffffffffffffffffffffffffffffffff\n      and\n        /* \"contracts/Escrow.sol\":1688:1712  msg.sender == contractor */\n      0xffffffffffffffffffffffffffffffffffffffff\n      and\n        /* \"contracts/Escrow.sol\":1688:1698  msg.sender */\n      caller\n        /* \"contracts/Escrow.sol\":1688:1712  msg.sender == contractor */\n      0xffffffffffffffffffffffffffffffffffffffff\n      and\n      eq\n        /* \"contracts/Escrow.sol\":1680:1745  require(msg.sender == contractor, \"caller is not the contractor\") */\n      tag_130\n      jumpi\n      mload(0x40)\n      0x08c379a000000000000000000000000000000000000000000000000000000000\n      dup2\n      mstore\n      0x04\n      add\n      tag_131\n      swap1\n      tag_132\n      jump\t// in\n    tag_131:\n      mload(0x40)\n      dup1\n      swap2\n      sub\n      swap1\n      revert\n    tag_130:\n        /* \"contracts/Escrow.sol\":1628:1752  function _checkContractor() internal view {... */\n      jump\t// out\n        /* \"@openzeppelin/contracts/access/Ownable.sol\":1359:1489  function _checkOwner() internal view virtual {... */\n    tag_73:\n        /* \"@openzeppelin/contracts/access/Ownable.sol\":1433:1445  _msgSender() */\n      tag_134\n        /* \"@openzeppelin/contracts/access/Ownable.sol\":1433:1443  _msgSender */\n      tag_135\n        /* \"@openzeppelin/contracts/access/Ownable.sol\":1433:1445  _msgSender() */\n      jump\t// in\n    tag_134:\n        /* \"@openzeppelin/contracts/access/Ownable.sol\":1422:1445  owner() == _msgSender() */\n      0xffffffffffffffffffffffffffffffffffffffff\n      and\n        /* \"@openzeppelin/contracts/access/Ownable.sol\":1422:1429  owner() */\n      tag_136\n        /* \"@openzeppelin/contracts/access/Ownable.sol\":1422:1427  owner */\n      tag_47\n        /* \"@openzeppelin/contracts/access/Ownable.sol\":1422:1429  owner() */\n      jump\t// in\n    tag_136:\n        /* \"@openzeppelin/contracts/access/Ownable.sol\":1422:1445  owner() == _msgSender() */\n      0xffffffffffffffffffffffffffffffffffffffff\n      and\n      eq\n        /* \"@openzeppelin/contracts/access/Ownable.sol\":1414:1482  require(owner() == _msgSender(), \"Ownable: caller is not the owner\") */\n      tag_137\n      jumpi\n      mload(0x40)\n      0x08c379a000000000000000000000000000000000000000000000000000000000\n      dup2\n      mstore\n      0x04\n      add\n      tag_138\n      swap1\n      tag_139\n      jump\t// in\n    tag_138:\n      mload(0x40)\n      dup1\n      swap2\n      sub\n      swap1\n      revert\n    tag_137:\n        /* \"@openzeppelin/contracts/access/Ownable.sol\":1359:1489  function _checkOwner() internal view virtual {... */\n      jump\t// out\n        /* \"@openzeppelin/contracts/access/Ownable.sol\":2433:2620  function _transferOwnership(address newOwner) internal virtual {... */\n    tag_80:\n        /* \"@openzeppelin/contracts/access/Ownable.sol\":2506:2522  address oldOwner */\n      0x00\n        /* \"@openzeppelin/contracts/access/Ownable.sol\":2525:2531  _owner */\n      dup1\n      0x00\n      swap1\n      sload\n      swap1\n      0x0100\n      exp\n      swap1\n      div\n      0xffffffffffffffffffffffffffffffffffffffff\n      and\n        /* \"@openzeppelin/contracts/access/Ownable.sol\":2506:2531  address oldOwner = _owner */\n      swap1\n      pop\n        /* \"@openzeppelin/contracts/access/Ownable.sol\":2550:2558  newOwner */\n      dup2\n        /* \"@openzeppelin/contracts/access/Ownable.sol\":2541:2547  _owner */\n      0x00\n      dup1\n        /* \"@openzeppelin/contracts/access/Ownable.sol\":2541:2558  _owner = newOwner */\n      0x0100\n      exp\n      dup2\n      sload\n      dup2\n      0xffffffffffffffffffffffffffffffffffffffff\n      mul\n      not\n      and\n      swap1\n      dup4\n      0xffffffffffffffffffffffffffffffffffffffff\n      and\n      mul\n      or\n      swap1\n      sstore\n      pop\n        /* \"@openzeppelin/contracts/access/Ownable.sol\":2604:2612  newOwner */\n      dup2\n        /* \"@openzeppelin/contracts/access/Ownable.sol\":2573:2613  OwnershipTransferred(oldOwner, newOwner) */\n      0xffffffffffffffffffffffffffffffffffffffff\n      and\n        /* \"@openzeppelin/contracts/access/Ownable.sol\":2594:2602  oldOwner */\n      dup2\n        /* \"@openzeppelin/contracts/access/Ownable.sol\":2573:2613  OwnershipTransferred(oldOwner, newOwner) */\n      0xffffffffffffffffffffffffffffffffffffffff\n      and\n      0x8be0079c531659141344cd1fd0a4f28419497f9722a3daafe3b4186f6b6457e0\n      mload(0x40)\n      mload(0x40)\n      dup1\n      swap2\n      sub\n      swap1\n      log3\n        /* \"@openzeppelin/contracts/access/Ownable.sol\":2496:2620  {... */\n      pop\n        /* \"@openzeppelin/contracts/access/Ownable.sol\":2433:2620  function _transferOwnership(address newOwner) internal virtual {... */\n      pop\n      jump\t// out\n        /* \"contracts/Escrow.sol\":1286:1398  function _checkClient() internal view {... */\n    tag_92:\n        /* \"contracts/Escrow.sol\":1356:1362  client */\n      0x02\n      0x00\n      swap1\n      sload\n      swap1\n      0x0100\n      exp\n      swap1\n      div\n      0xffffffffffffffffffffffffffffffffffffffff\n      and\n        /* \"contracts/Escrow.sol\":1342:1362  msg.sender == client */\n      0xffffffffffffffffffffffffffffffffffffffff\n      and\n        /* \"contracts/Escrow.sol\":1342:1352  msg.sender */\n      caller\n        /* \"contracts/Escrow.sol\":1342:1362  msg.sender == client */\n      0xffffffffffffffffffffffffffffffffffffffff\n      and\n      eq\n        /* \"contracts/Escrow.sol\":1334:1391  require(msg.sender == client, \"caller is not the client\") */\n      tag_142\n      jumpi\n      mload(0x40)\n      0x08c379a000000000000000000000000000000000000000000000000000000000\n      dup2\n      mstore\n      0x04\n      add\n      tag_143\n      swap1\n      tag_144\n      jump\t// in\n    tag_143:\n      mload(0x40)\n      dup1\n      swap2\n      sub\n      swap1\n      revert\n    tag_142:\n        /* \"contracts/Escrow.sol\":1286:1398  function _checkClient() internal view {... */\n      jump\t// out\n        /* \"@openzeppelin/contracts/utils/Address.sol\":2412:2724  function sendValue(address payable recipient, uint256 amount) internal {... */\n    tag_122:\n        /* \"@openzeppelin/contracts/utils/Address.sol\":2526:2532  amount */\n      dup1\n        /* \"@openzeppelin/contracts/utils/Address.sol\":2501:2522  address(this).balance */\n      selfbalance\n        /* \"@openzeppelin/contracts/utils/Address.sol\":2501:2532  address(this).balance >= amount */\n      lt\n      iszero\n        /* \"@openzeppelin/contracts/utils/Address.sol\":2493:2566  require(address(this).balance >= amount, \"Address: insufficient balance\") */\n      tag_146\n      jumpi\n      mload(0x40)\n      0x08c379a000000000000000000000000000000000000000000000000000000000\n      dup2\n      mstore\n      0x04\n      add\n      tag_147\n      swap1\n      tag_148\n      jump\t// in\n    tag_147:\n      mload(0x40)\n      dup1\n      swap2\n      sub\n      swap1\n      revert\n    tag_146:\n        /* \"@openzeppelin/contracts/utils/Address.sol\":2578:2590  bool success */\n      0x00\n        /* \"@openzeppelin/contracts/utils/Address.sol\":2596:2605  recipient */\n      dup3\n        /* \"@openzeppelin/contracts/utils/Address.sol\":2596:2610  recipient.call */\n      0xffffffffffffffffffffffffffffffffffffffff\n      and\n        /* \"@openzeppelin/contracts/utils/Address.sol\":2618:2624  amount */\n      dup3\n        /* \"@openzeppelin/contracts/utils/Address.sol\":2596:2629  recipient.call{value: amount}(\"\") */\n      mload(0x40)\n      tag_149\n      swap1\n      tag_150\n      jump\t// in\n    tag_149:\n      0x00\n      mload(0x40)\n      dup1\n      dup4\n      sub\n      dup2\n      dup6\n      dup8\n      gas\n      call\n      swap3\n      pop\n      pop\n      pop\n      returndatasize\n      dup1\n      0x00\n      dup2\n      eq\n      tag_153\n      jumpi\n      mload(0x40)\n      swap2\n      pop\n      and(add(returndatasize, 0x3f), not(0x1f))\n      dup3\n      add\n      0x40\n      mstore\n      returndatasize\n      dup3\n      mstore\n      returndatasize\n      0x00\n      0x20\n      dup5\n      add\n      returndatacopy\n      jump(tag_152)\n    tag_153:\n      0x60\n      swap2\n      pop\n    tag_152:\n      pop\n        /* \"@openzeppelin/contracts/utils/Address.sol\":2577:2629  (bool success, ) = recipient.call{value: amount}(\"\") */\n      pop\n      swap1\n      pop\n        /* \"@openzeppelin/contracts/utils/Address.sol\":2647:2654  success */\n      dup1\n        /* \"@openzeppelin/contracts/utils/Address.sol\":2639:2717  require(success, \"Address: unable to send value, recipient may have reverted\") */\n      tag_154\n      jumpi\n      mload(0x40)\n      0x08c379a000000000000000000000000000000000000000000000000000000000\n      dup2\n      mstore\n      0x04\n      add\n      tag_155\n      swap1\n      tag_156\n      jump\t// in\n    tag_155:\n      mload(0x40)\n      dup1\n      swap2\n      sub\n      swap1\n      revert\n    tag_154:\n        /* \"@openzeppelin/contracts/utils/Address.sol\":2483:2724  {... */\n      pop\n        /* \"@openzeppelin/contracts/utils/Address.sol\":2412:2724  function sendValue(address payable recipient, uint256 amount) internal {... */\n      pop\n      pop\n      jump\t// out\n        /* \"@openzeppelin/contracts/utils/Context.sol\":640:736  function _msgSender() internal view virtual returns (address) {... */\n    tag_135:\n        /* \"@openzeppelin/contracts/utils/Context.sol\":693:700  address */\n      0x00\n        /* \"@openzeppelin/contracts/utils/Context.sol\":719:729  msg.sender */\n      caller\n        /* \"@openzeppelin/contracts/utils/Context.sol\":712:729  return msg.sender */\n      swap1\n      pop\n        /* \"@openzeppelin/contracts/utils/Context.sol\":640:736  function _msgSender() internal view virtual returns (address) {... */\n      swap1\n      jump\t// out\n        /* \"#utility.yul\":7:146   */\n    tag_159:\n        /* \"#utility.yul\":53:58   */\n      0x00\n        /* \"#utility.yul\":91:97   */\n      dup2\n        /* \"#utility.yul\":78:98   */\n      calldataload\n        /* \"#utility.yul\":69:98   */\n      swap1\n      pop\n        /* \"#utility.yul\":107:140   */\n      tag_161\n        /* \"#utility.yul\":134:139   */\n      dup2\n        /* \"#utility.yul\":107:140   */\n      tag_162\n      jump\t// in\n    tag_161:\n        /* \"#utility.yul\":7:146   */\n      swap3\n      swap2\n      pop\n      pop\n      jump\t// out\n        /* \"#utility.yul\":152:307   */\n    tag_163:\n        /* \"#utility.yul\":206:211   */\n      0x00\n        /* \"#utility.yul\":244:250   */\n      dup2\n        /* \"#utility.yul\":231:251   */\n      calldataload\n        /* \"#utility.yul\":222:251   */\n      swap1\n      pop\n        /* \"#utility.yul\":260:301   */\n      tag_165\n        /* \"#utility.yul\":295:300   */\n      dup2\n        /* \"#utility.yul\":260:301   */\n      tag_166\n      jump\t// in\n    tag_165:\n        /* \"#utility.yul\":152:307   */\n      swap3\n      swap2\n      pop\n      pop\n      jump\t// out\n        /* \"#utility.yul\":313:446   */\n    tag_167:\n        /* \"#utility.yul\":356:361   */\n      0x00\n        /* \"#utility.yul\":394:400   */\n      dup2\n        /* \"#utility.yul\":381:401   */\n      calldataload\n        /* \"#utility.yul\":372:401   */\n      swap1\n      pop\n        /* \"#utility.yul\":410:440   */\n      tag_169\n        /* \"#utility.yul\":434:439   */\n      dup2\n        /* \"#utility.yul\":410:440   */\n      tag_170\n      jump\t// in\n    tag_169:\n        /* \"#utility.yul\":313:446   */\n      swap3\n      swap2\n      pop\n      pop\n      jump\t// out\n        /* \"#utility.yul\":452:781   */\n    tag_59:\n        /* \"#utility.yul\":511:517   */\n      0x00\n        /* \"#utility.yul\":560:562   */\n      0x20\n        /* \"#utility.yul\":548:557   */\n      dup3\n        /* \"#utility.yul\":539:546   */\n      dup5\n        /* \"#utility.yul\":535:558   */\n      sub\n        /* \"#utility.yul\":531:563   */\n      slt\n        /* \"#utility.yul\":528:647   */\n      iszero\n      tag_172\n      jumpi\n        /* \"#utility.yul\":566:645   */\n      tag_173\n      tag_174\n      jump\t// in\n    tag_173:\n        /* \"#utility.yul\":528:647   */\n    tag_172:\n        /* \"#utility.yul\":686:687   */\n      0x00\n        /* \"#utility.yul\":711:764   */\n      tag_175\n        /* \"#utility.yul\":756:763   */\n      dup5\n        /* \"#utility.yul\":747:753   */\n      dup3\n        /* \"#utility.yul\":736:745   */\n      dup6\n        /* \"#utility.yul\":732:754   */\n      add\n        /* \"#utility.yul\":711:764   */\n      tag_159\n      jump\t// in\n    tag_175:\n        /* \"#utility.yul\":701:764   */\n      swap2\n      pop\n        /* \"#utility.yul\":657:774   */\n      pop\n        /* \"#utility.yul\":452:781   */\n      swap3\n      swap2\n      pop\n      pop\n      jump\t// out\n        /* \"#utility.yul\":787:1132   */\n    tag_32:\n        /* \"#utility.yul\":854:860   */\n      0x00\n        /* \"#utility.yul\":903:905   */\n      0x20\n        /* \"#utility.yul\":891:900   */\n      dup3\n        /* \"#utility.yul\":882:889   */\n      dup5\n        /* \"#utility.yul\":878:901   */\n      sub\n        /* \"#utility.yul\":874:906   */\n      slt\n        /* \"#utility.yul\":871:990   */\n      iszero\n      tag_177\n      jumpi\n        /* \"#utility.yul\":909:988   */\n      tag_178\n      tag_174\n      jump\t// in\n    tag_178:\n        /* \"#utility.yul\":871:990   */\n    tag_177:\n        /* \"#utility.yul\":1029:1030   */\n      0x00\n        /* \"#utility.yul\":1054:1115   */\n      tag_179\n        /* \"#utility.yul\":1107:1114   */\n      dup5\n        /* \"#utility.yul\":1098:1104   */\n      dup3\n        /* \"#utility.yul\":1087:1096   */\n      dup6\n        /* \"#utility.yul\":1083:1105   */\n      add\n        /* \"#utility.yul\":1054:1115   */\n      tag_163\n      jump\t// in\n    tag_179:\n        /* \"#utility.yul\":1044:1115   */\n      swap2\n      pop\n        /* \"#utility.yul\":1000:1125   */\n      pop\n        /* \"#utility.yul\":787:1132   */\n      swap3\n      swap2\n      pop\n      pop\n      jump\t// out\n        /* \"#utility.yul\":1138:1461   */\n    tag_22:\n        /* \"#utility.yul\":1194:1200   */\n      0x00\n        /* \"#utility.yul\":1243:1245   */\n      0x20\n        /* \"#utility.yul\":1231:1240   */\n      dup3\n        /* \"#utility.yul\":1222:1229   */\n      dup5\n        /* \"#utility.yul\":1218:1241   */\n      sub\n        /* \"#utility.yul\":1214:1246   */\n      slt\n        /* \"#utility.yul\":1211:1330   */\n      iszero\n      tag_181\n      jumpi\n        /* \"#utility.yul\":1249:1328   */\n      tag_182\n      tag_174\n      jump\t// in\n    tag_182:\n        /* \"#utility.yul\":1211:1330   */\n    tag_181:\n        /* \"#utility.yul\":1369:1370   */\n      0x00\n        /* \"#utility.yul\":1394:1444   */\n      tag_183\n        /* \"#utility.yul\":1436:1443   */\n      dup5\n        /* \"#utility.yul\":1427:1433   */\n      dup3\n        /* \"#utility.yul\":1416:1425   */\n      dup6\n        /* \"#utility.yul\":1412:1434   */\n      add\n        /* \"#utility.yul\":1394:1444   */\n      tag_167\n      jump\t// in\n    tag_183:\n        /* \"#utility.yul\":1384:1444   */\n      swap2\n      pop\n        /* \"#utility.yul\":1340:1454   */\n      pop\n        /* \"#utility.yul\":1138:1461   */\n      swap3\n      swap2\n      pop\n      pop\n      jump\t// out\n        /* \"#utility.yul\":1467:1929   */\n    tag_17:\n        /* \"#utility.yul\":1529:1535   */\n      0x00\n        /* \"#utility.yul\":1537:1543   */\n      dup1\n        /* \"#utility.yul\":1586:1588   */\n      0x40\n        /* \"#utility.yul\":1574:1583   */\n      dup4\n        /* \"#utility.yul\":1565:1572   */\n      dup6\n        /* \"#utility.yul\":1561:1584   */\n      sub\n        /* \"#utility.yul\":1557:1589   */\n      slt\n        /* \"#utility.yul\":1554:1673   */\n      iszero\n      tag_185\n      jumpi\n        /* \"#utility.yul\":1592:1671   */\n      tag_186\n      tag_174\n      jump\t// in\n    tag_186:\n        /* \"#utility.yul\":1554:1673   */\n    tag_185:\n        /* \"#utility.yul\":1712:1713   */\n      0x00\n        /* \"#utility.yul\":1737:1787   */\n      tag_187\n        /* \"#utility.yul\":1779:1786   */\n      dup6\n        /* \"#utility.yul\":1770:1776   */\n      dup3\n        /* \"#utility.yul\":1759:1768   */\n      dup7\n        /* \"#utility.yul\":1755:1777   */\n      add\n        /* \"#utility.yul\":1737:1787   */\n      tag_167\n      jump\t// in\n    tag_187:\n        /* \"#utility.yul\":1727:1787   */\n      swap3\n      pop\n        /* \"#utility.yul\":1683:1797   */\n      pop\n        /* \"#utility.yul\":1836:1838   */\n      0x20\n        /* \"#utility.yul\":1862:1912   */\n      tag_188\n        /* \"#utility.yul\":1904:1911   */\n      dup6\n        /* \"#utility.yul\":1895:1901   */\n      dup3\n        /* \"#utility.yul\":1884:1893   */\n      dup7\n        /* \"#utility.yul\":1880:1902   */\n      add\n        /* \"#utility.yul\":1862:1912   */\n      tag_167\n      jump\t// in\n    tag_188:\n        /* \"#utility.yul\":1852:1912   */\n      swap2\n      pop\n        /* \"#utility.yul\":1807:1922   */\n      pop\n        /* \"#utility.yul\":1467:1929   */\n      swap3\n      pop\n      swap3\n      swap1\n      pop\n      jump\t// out\n        /* \"#utility.yul\":1935:2053   */\n    tag_189:\n        /* \"#utility.yul\":2022:2046   */\n      tag_191\n        /* \"#utility.yul\":2040:2045   */\n      dup2\n        /* \"#utility.yul\":2022:2046   */\n      tag_192\n      jump\t// in\n    tag_191:\n        /* \"#utility.yul\":2017:2020   */\n      dup3\n        /* \"#utility.yul\":2010:2047   */\n      mstore\n        /* \"#utility.yul\":1935:2053   */\n      pop\n      pop\n      jump\t// out\n        /* \"#utility.yul\":2059:2424   */\n    tag_193:\n        /* \"#utility.yul\":2201:2204   */\n      0x00\n        /* \"#utility.yul\":2222:2288   */\n      tag_195\n        /* \"#utility.yul\":2286:2287   */\n      0x01\n        /* \"#utility.yul\":2281:2284   */\n      dup4\n        /* \"#utility.yul\":2222:2288   */\n      tag_196\n      jump\t// in\n    tag_195:\n        /* \"#utility.yul\":2215:2288   */\n      swap2\n      pop\n        /* \"#utility.yul\":2297:2390   */\n      tag_197\n        /* \"#utility.yul\":2386:2389   */\n      dup3\n        /* \"#utility.yul\":2297:2390   */\n      tag_198\n      jump\t// in\n    tag_197:\n        /* \"#utility.yul\":2415:2417   */\n      0x20\n        /* \"#utility.yul\":2410:2413   */\n      dup3\n        /* \"#utility.yul\":2406:2418   */\n      add\n        /* \"#utility.yul\":2399:2418   */\n      swap1\n      pop\n        /* \"#utility.yul\":2059:2424   */\n      swap2\n      swap1\n      pop\n      jump\t// out\n        /* \"#utility.yul\":2430:2796   */\n    tag_199:\n        /* \"#utility.yul\":2572:2575   */\n      0x00\n        /* \"#utility.yul\":2593:2660   */\n      tag_201\n        /* \"#utility.yul\":2657:2659   */\n      0x26\n        /* \"#utility.yul\":2652:2655   */\n      dup4\n        /* \"#utility.yul\":2593:2660   */\n      tag_196\n      jump\t// in\n    tag_201:\n        /* \"#utility.yul\":2586:2660   */\n      swap2\n      pop\n        /* \"#utility.yul\":2669:2762   */\n      tag_202\n        /* \"#utility.yul\":2758:2761   */\n      dup3\n        /* \"#utility.yul\":2669:2762   */\n      tag_203\n      jump\t// in\n    tag_202:\n        /* \"#utility.yul\":2787:2789   */\n      0x40\n        /* \"#utility.yul\":2782:2785   */\n      dup3\n        /* \"#utility.yul\":2778:2790   */\n      add\n        /* \"#utility.yul\":2771:2790   */\n      swap1\n      pop\n        /* \"#utility.yul\":2430:2796   */\n      swap2\n      swap1\n      pop\n      jump\t// out\n        /* \"#utility.yul\":2802:3168   */\n    tag_204:\n        /* \"#utility.yul\":2944:2947   */\n      0x00\n        /* \"#utility.yul\":2965:3032   */\n      tag_206\n        /* \"#utility.yul\":3029:3031   */\n      0x3a\n        /* \"#utility.yul\":3024:3027   */\n      dup4\n        /* \"#utility.yul\":2965:3032   */\n      tag_196\n      jump\t// in\n    tag_206:\n        /* \"#utility.yul\":2958:3032   */\n      swap2\n      pop\n        /* \"#utility.yul\":3041:3134   */\n      tag_207\n        /* \"#utility.yul\":3130:3133   */\n      dup3\n        /* \"#utility.yul\":3041:3134   */\n      tag_208\n      jump\t// in\n    tag_207:\n        /* \"#utility.yul\":3159:3161   */\n      0x40\n        /* \"#utility.yul\":3154:3157   */\n      dup3\n        /* \"#utility.yul\":3150:3162   */\n      add\n        /* \"#utility.yul\":3143:3162   */\n      swap1\n      pop\n        /* \"#utility.yul\":2802:3168   */\n      swap2\n      swap1\n      pop\n      jump\t// out\n        /* \"#utility.yul\":3174:3540   */\n    tag_209:\n        /* \"#utility.yul\":3316:3319   */\n      0x00\n        /* \"#utility.yul\":3337:3404   */\n      tag_211\n        /* \"#utility.yul\":3401:3403   */\n      0x1d\n        /* \"#utility.yul\":3396:3399   */\n      dup4\n        /* \"#utility.yul\":3337:3404   */\n      tag_196\n      jump\t// in\n    tag_211:\n        /* \"#utility.yul\":3330:3404   */\n      swap2\n      pop\n        /* \"#utility.yul\":3413:3506   */\n      tag_212\n        /* \"#utility.yul\":3502:3505   */\n      dup3\n        /* \"#utility.yul\":3413:3506   */\n      tag_213\n      jump\t// in\n    tag_212:\n        /* \"#utility.yul\":3531:3533   */\n      0x20\n        /* \"#utility.yul\":3526:3529   */\n      dup3\n        /* \"#utility.yul\":3522:3534   */\n      add\n        /* \"#utility.yul\":3515:3534   */\n      swap1\n      pop\n        /* \"#utility.yul\":3174:3540   */\n      swap2\n      swap1\n      pop\n      jump\t// out\n        /* \"#utility.yul\":3546:3912   */\n    tag_214:\n        /* \"#utility.yul\":3688:3691   */\n      0x00\n        /* \"#utility.yul\":3709:3776   */\n      tag_216\n        /* \"#utility.yul\":3773:3775   */\n      0x1c\n        /* \"#utility.yul\":3768:3771   */\n      dup4\n        /* \"#utility.yul\":3709:3776   */\n      tag_196\n      jump\t// in\n    tag_216:\n        /* \"#utility.yul\":3702:3776   */\n      swap2\n      pop\n        /* \"#utility.yul\":3785:3878   */\n      tag_217\n        /* \"#utility.yul\":3874:3877   */\n      dup3\n        /* \"#utility.yul\":3785:3878   */\n      tag_218\n      jump\t// in\n    tag_217:\n        /* \"#utility.yul\":3903:3905   */\n      0x20\n        /* \"#utility.yul\":3898:3901   */\n      dup3\n        /* \"#utility.yul\":3894:3906   */\n      add\n        /* \"#utility.yul\":3887:3906   */\n      swap1\n      pop\n        /* \"#utility.yul\":3546:3912   */\n      swap2\n      swap1\n      pop\n      jump\t// out\n        /* \"#utility.yul\":3918:4284   */\n    tag_219:\n        /* \"#utility.yul\":4060:4063   */\n      0x00\n        /* \"#utility.yul\":4081:4148   */\n      tag_221\n        /* \"#utility.yul\":4145:4147   */\n      0x20\n        /* \"#utility.yul\":4140:4143   */\n      dup4\n        /* \"#utility.yul\":4081:4148   */\n      tag_196\n      jump\t// in\n    tag_221:\n        /* \"#utility.yul\":4074:4148   */\n      swap2\n      pop\n        /* \"#utility.yul\":4157:4250   */\n      tag_222\n        /* \"#utility.yul\":4246:4249   */\n      dup3\n        /* \"#utility.yul\":4157:4250   */\n      tag_223\n      jump\t// in\n    tag_222:\n        /* \"#utility.yul\":4275:4277   */\n      0x20\n        /* \"#utility.yul\":4270:4273   */\n      dup3\n        /* \"#utility.yul\":4266:4278   */\n      add\n        /* \"#utility.yul\":4259:4278   */\n      swap1\n      pop\n        /* \"#utility.yul\":3918:4284   */\n      swap2\n      swap1\n      pop\n      jump\t// out\n        /* \"#utility.yul\":4290:4688   */\n    tag_224:\n        /* \"#utility.yul\":4449:4452   */\n      0x00\n        /* \"#utility.yul\":4470:4553   */\n      tag_226\n        /* \"#utility.yul\":4551:4552   */\n      0x00\n        /* \"#utility.yul\":4546:4549   */\n      dup4\n        /* \"#utility.yul\":4470:4553   */\n      tag_227\n      jump\t// in\n    tag_226:\n        /* \"#utility.yul\":4463:4553   */\n      swap2\n      pop\n        /* \"#utility.yul\":4562:4655   */\n      tag_228\n        /* \"#utility.yul\":4651:4654   */\n      dup3\n        /* \"#utility.yul\":4562:4655   */\n      tag_229\n      jump\t// in\n    tag_228:\n        /* \"#utility.yul\":4680:4681   */\n      0x00\n        /* \"#utility.yul\":4675:4678   */\n      dup3\n        /* \"#utility.yul\":4671:4682   */\n      add\n        /* \"#utility.yul\":4664:4682   */\n      swap1\n      pop\n        /* \"#utility.yul\":4290:4688   */\n      swap2\n      swap1\n      pop\n      jump\t// out\n        /* \"#utility.yul\":4694:5060   */\n    tag_230:\n        /* \"#utility.yul\":4836:4839   */\n      0x00\n        /* \"#utility.yul\":4857:4924   */\n      tag_232\n        /* \"#utility.yul\":4921:4923   */\n      0x17\n        /* \"#utility.yul\":4916:4919   */\n      dup4\n        /* \"#utility.yul\":4857:4924   */\n      tag_196\n      jump\t// in\n    tag_232:\n        /* \"#utility.yul\":4850:4924   */\n      swap2\n      pop\n        /* \"#utility.yul\":4933:5026   */\n      tag_233\n        /* \"#utility.yul\":5022:5025   */\n      dup3\n        /* \"#utility.yul\":4933:5026   */\n      tag_234\n      jump\t// in\n    tag_233:\n        /* \"#utility.yul\":5051:5053   */\n      0x20\n        /* \"#utility.yul\":5046:5049   */\n      dup3\n        /* \"#utility.yul\":5042:5054   */\n      add\n        /* \"#utility.yul\":5035:5054   */\n      swap1\n      pop\n        /* \"#utility.yul\":4694:5060   */\n      swap2\n      swap1\n      pop\n      jump\t// out\n        /* \"#utility.yul\":5066:5432   */\n    tag_235:\n        /* \"#utility.yul\":5208:5211   */\n      0x00\n        /* \"#utility.yul\":5229:5296   */\n      tag_237\n        /* \"#utility.yul\":5293:5295   */\n      0x18\n        /* \"#utility.yul\":5288:5291   */\n      dup4\n        /* \"#utility.yul\":5229:5296   */\n      tag_196\n      jump\t// in\n    tag_237:\n        /* \"#utility.yul\":5222:5296   */\n      swap2\n      pop\n        /* \"#utility.yul\":5305:5398   */\n      tag_238\n        /* \"#utility.yul\":5394:5397   */\n      dup3\n        /* \"#utility.yul\":5305:5398   */\n      tag_239\n      jump\t// in\n    tag_238:\n        /* \"#utility.yul\":5423:5425   */\n      0x20\n        /* \"#utility.yul\":5418:5421   */\n      dup3\n        /* \"#utility.yul\":5414:5426   */\n      add\n        /* \"#utility.yul\":5407:5426   */\n      swap1\n      pop\n        /* \"#utility.yul\":5066:5432   */\n      swap2\n      swap1\n      pop\n      jump\t// out\n        /* \"#utility.yul\":5438:5556   */\n    tag_240:\n        /* \"#utility.yul\":5525:5549   */\n      tag_242\n        /* \"#utility.yul\":5543:5548   */\n      dup2\n        /* \"#utility.yul\":5525:5549   */\n      tag_243\n      jump\t// in\n    tag_242:\n        /* \"#utility.yul\":5520:5523   */\n      dup3\n        /* \"#utility.yul\":5513:5550   */\n      mstore\n        /* \"#utility.yul\":5438:5556   */\n      pop\n      pop\n      jump\t// out\n        /* \"#utility.yul\":5562:5941   */\n    tag_150:\n        /* \"#utility.yul\":5746:5749   */\n      0x00\n        /* \"#utility.yul\":5768:5915   */\n      tag_245\n        /* \"#utility.yul\":5911:5914   */\n      dup3\n        /* \"#utility.yul\":5768:5915   */\n      tag_224\n      jump\t// in\n    tag_245:\n        /* \"#utility.yul\":5761:5915   */\n      swap2\n      pop\n        /* \"#utility.yul\":5932:5935   */\n      dup2\n        /* \"#utility.yul\":5925:5935   */\n      swap1\n      pop\n        /* \"#utility.yul\":5562:5941   */\n      swap2\n      swap1\n      pop\n      jump\t// out\n        /* \"#utility.yul\":5947:6169   */\n    tag_49:\n        /* \"#utility.yul\":6040:6044   */\n      0x00\n        /* \"#utility.yul\":6078:6080   */\n      0x20\n        /* \"#utility.yul\":6067:6076   */\n      dup3\n        /* \"#utility.yul\":6063:6081   */\n      add\n        /* \"#utility.yul\":6055:6081   */\n      swap1\n      pop\n        /* \"#utility.yul\":6091:6162   */\n      tag_247\n        /* \"#utility.yul\":6159:6160   */\n      0x00\n        /* \"#utility.yul\":6148:6157   */\n      dup4\n        /* \"#utility.yul\":6144:6161   */\n      add\n        /* \"#utility.yul\":6135:6141   */\n      dup5\n        /* \"#utility.yul\":6091:6162   */\n      tag_189\n      jump\t// in\n    tag_247:\n        /* \"#utility.yul\":5947:6169   */\n      swap3\n      swap2\n      pop\n      pop\n      jump\t// out\n        /* \"#utility.yul\":6175:6594   */\n    tag_86:\n        /* \"#utility.yul\":6341:6345   */\n      0x00\n        /* \"#utility.yul\":6379:6381   */\n      0x20\n        /* \"#utility.yul\":6368:6377   */\n      dup3\n        /* \"#utility.yul\":6364:6382   */\n      add\n        /* \"#utility.yul\":6356:6382   */\n      swap1\n      pop\n        /* \"#utility.yul\":6428:6437   */\n      dup2\n        /* \"#utility.yul\":6422:6426   */\n      dup2\n        /* \"#utility.yul\":6418:6438   */\n      sub\n        /* \"#utility.yul\":6414:6415   */\n      0x00\n        /* \"#utility.yul\":6403:6412   */\n      dup4\n        /* \"#utility.yul\":6399:6416   */\n      add\n        /* \"#utility.yul\":6392:6439   */\n      mstore\n        /* \"#utility.yul\":6456:6587   */\n      tag_249\n        /* \"#utility.yul\":6582:6586   */\n      dup2\n        /* \"#utility.yul\":6456:6587   */\n      tag_193\n      jump\t// in\n    tag_249:\n        /* \"#utility.yul\":6448:6587   */\n      swap1\n      pop\n        /* \"#utility.yul\":6175:6594   */\n      swap2\n      swap1\n      pop\n      jump\t// out\n        /* \"#utility.yul\":6600:7019   */\n    tag_104:\n        /* \"#utility.yul\":6766:6770   */\n      0x00\n        /* \"#utility.yul\":6804:6806   */\n      0x20\n        /* \"#utility.yul\":6793:6802   */\n      dup3\n        /* \"#utility.yul\":6789:6807   */\n      add\n        /* \"#utility.yul\":6781:6807   */\n      swap1\n      pop\n        /* \"#utility.yul\":6853:6862   */\n      dup2\n        /* \"#utility.yul\":6847:6851   */\n      dup2\n        /* \"#utility.yul\":6843:6863   */\n      sub\n        /* \"#utility.yul\":6839:6840   */\n      0x00\n        /* \"#utility.yul\":6828:6837   */\n      dup4\n        /* \"#utility.yul\":6824:6841   */\n      add\n        /* \"#utility.yul\":6817:6864   */\n      mstore\n        /* \"#utility.yul\":6881:7012   */\n      tag_251\n        /* \"#utility.yul\":7007:7011   */\n      dup2\n        /* \"#utility.yul\":6881:7012   */\n      tag_199\n      jump\t// in\n    tag_251:\n        /* \"#utility.yul\":6873:7012   */\n      swap1\n      pop\n        /* \"#utility.yul\":6600:7019   */\n      swap2\n      swap1\n      pop\n      jump\t// out\n        /* \"#utility.yul\":7025:7444   */\n    tag_156:\n        /* \"#utility.yul\":7191:7195   */\n      0x00\n        /* \"#utility.yul\":7229:7231   */\n      0x20\n        /* \"#utility.yul\":7218:7227   */\n      dup3\n        /* \"#utility.yul\":7214:7232   */\n      add\n        /* \"#utility.yul\":7206:7232   */\n      swap1\n      pop\n        /* \"#utility.yul\":7278:7287   */\n      dup2\n        /* \"#utility.yul\":7272:7276   */\n      dup2\n        /* \"#utility.yul\":7268:7288   */\n      sub\n        /* \"#utility.yul\":7264:7265   */\n      0x00\n        /* \"#utility.yul\":7253:7262   */\n      dup4\n        /* \"#utility.yul\":7249:7266   */\n      add\n        /* \"#utility.yul\":7242:7289   */\n      mstore\n        /* \"#utility.yul\":7306:7437   */\n      tag_253\n        /* \"#utility.yul\":7432:7436   */\n      dup2\n        /* \"#utility.yul\":7306:7437   */\n      tag_204\n      jump\t// in\n    tag_253:\n        /* \"#utility.yul\":7298:7437   */\n      swap1\n      pop\n        /* \"#utility.yul\":7025:7444   */\n      swap2\n      swap1\n      pop\n      jump\t// out\n        /* \"#utility.yul\":7450:7869   */\n    tag_148:\n        /* \"#utility.yul\":7616:7620   */\n      0x00\n        /* \"#utility.yul\":7654:7656   */\n      0x20\n        /* \"#utility.yul\":7643:7652   */\n      dup3\n        /* \"#utility.yul\":7639:7657   */\n      add\n        /* \"#utility.yul\":7631:7657   */\n      swap1\n      pop\n        /* \"#utility.yul\":7703:7712   */\n      dup2\n        /* \"#utility.yul\":7697:7701   */\n      dup2\n        /* \"#utility.yul\":7693:7713   */\n      sub\n        /* \"#utility.yul\":7689:7690   */\n      0x00\n        /* \"#utility.yul\":7678:7687   */\n      dup4\n        /* \"#utility.yul\":7674:7691   */\n      add\n        /* \"#utility.yul\":7667:7714   */\n      mstore\n        /* \"#utility.yul\":7731:7862   */\n      tag_255\n        /* \"#utility.yul\":7857:7861   */\n      dup2\n        /* \"#utility.yul\":7731:7862   */\n      tag_209\n      jump\t// in\n    tag_255:\n        /* \"#utility.yul\":7723:7862   */\n      swap1\n      pop\n        /* \"#utility.yul\":7450:7869   */\n      swap2\n      swap1\n      pop\n      jump\t// out\n        /* \"#utility.yul\":7875:8294   */\n    tag_132:\n        /* \"#utility.yul\":8041:8045   */\n      0x00\n        /* \"#utility.yul\":8079:8081   */\n      0x20\n        /* \"#utility.yul\":8068:8077   */\n      dup3\n        /* \"#utility.yul\":8064:8082   */\n      add\n        /* \"#utility.yul\":8056:8082   */\n      swap1\n      pop\n        /* \"#utility.yul\":8128:8137   */\n      dup2\n        /* \"#utility.yul\":8122:8126   */\n      dup2\n        /* \"#utility.yul\":8118:8138   */\n      sub\n        /* \"#utility.yul\":8114:8115   */\n      0x00\n        /* \"#utility.yul\":8103:8112   */\n      dup4\n        /* \"#utility.yul\":8099:8116   */\n      add\n        /* \"#utility.yul\":8092:8139   */\n      mstore\n        /* \"#utility.yul\":8156:8287   */\n      tag_257\n        /* \"#utility.yul\":8282:8286   */\n      dup2\n        /* \"#utility.yul\":8156:8287   */\n      tag_214\n      jump\t// in\n    tag_257:\n        /* \"#utility.yul\":8148:8287   */\n      swap1\n      pop\n        /* \"#utility.yul\":7875:8294   */\n      swap2\n      swap1\n      pop\n      jump\t// out\n        /* \"#utility.yul\":8300:8719   */\n    tag_139:\n        /* \"#utility.yul\":8466:8470   */\n      0x00\n        /* \"#utility.yul\":8504:8506   */\n      0x20\n        /* \"#utility.yul\":8493:8502   */\n      dup3\n        /* \"#utility.yul\":8489:8507   */\n      add\n        /* \"#utility.yul\":8481:8507   */\n      swap1\n      pop\n        /* \"#utility.yul\":8553:8562   */\n      dup2\n        /* \"#utility.yul\":8547:8551   */\n      dup2\n        /* \"#utility.yul\":8543:8563   */\n      sub\n        /* \"#utility.yul\":8539:8540   */\n      0x00\n        /* \"#utility.yul\":8528:8537   */\n      dup4\n        /* \"#utility.yul\":8524:8541   */\n      add\n        /* \"#utility.yul\":8517:8564   */\n      mstore\n        /* \"#utility.yul\":8581:8712   */\n      tag_259\n        /* \"#utility.yul\":8707:8711   */\n      dup2\n        /* \"#utility.yul\":8581:8712   */\n      tag_219\n      jump\t// in\n    tag_259:\n        /* \"#utility.yul\":8573:8712   */\n      swap1\n      pop\n        /* \"#utility.yul\":8300:8719   */\n      swap2\n      swap1\n      pop\n      jump\t// out\n        /* \"#utility.yul\":8725:9144   */\n    tag_109:\n        /* \"#utility.yul\":8891:8895   */\n      0x00\n        /* \"#utility.yul\":8929:8931   */\n      0x20\n        /* \"#utility.yul\":8918:8927   */\n      dup3\n        /* \"#utility.yul\":8914:8932   */\n      add\n        /* \"#utility.yul\":8906:8932   */\n      swap1\n      pop\n        /* \"#utility.yul\":8978:8987   */\n      dup2\n        /* \"#utility.yul\":8972:8976   */\n      dup2\n        /* \"#utility.yul\":8968:8988   */\n      sub\n        /* \"#utility.yul\":8964:8965   */\n      0x00\n        /* \"#utility.yul\":8953:8962   */\n      dup4\n        /* \"#utility.yul\":8949:8966   */\n      add\n        /* \"#utility.yul\":8942:8989   */\n      mstore\n        /* \"#utility.yul\":9006:9137   */\n      tag_261\n        /* \"#utility.yul\":9132:9136   */\n      dup2\n        /* \"#utility.yul\":9006:9137   */\n      tag_230\n      jump\t// in\n    tag_261:\n        /* \"#utility.yul\":8998:9137   */\n      swap1\n      pop\n        /* \"#utility.yul\":8725:9144   */\n      swap2\n      swap1\n      pop\n      jump\t// out\n        /* \"#utility.yul\":9150:9569   */\n    tag_144:\n        /* \"#utility.yul\":9316:9320   */\n      0x00\n        /* \"#utility.yul\":9354:9356   */\n      0x20\n        /* \"#utility.yul\":9343:9352   */\n      dup3\n        /* \"#utility.yul\":9339:9357   */\n      add\n        /* \"#utility.yul\":9331:9357   */\n      swap1\n      pop\n        /* \"#utility.yul\":9403:9412   */\n      dup2\n        /* \"#utility.yul\":9397:9401   */\n      dup2\n        /* \"#utility.yul\":9393:9413   */\n      sub\n        /* \"#utility.yul\":9389:9390   */\n      0x00\n        /* \"#utility.yul\":9378:9387   */\n      dup4\n        /* \"#utility.yul\":9374:9391   */\n      add\n        /* \"#utility.yul\":9367:9414   */\n      mstore\n        /* \"#utility.yul\":9431:9562   */\n      tag_263\n        /* \"#utility.yul\":9557:9561   */\n      dup2\n        /* \"#utility.yul\":9431:9562   */\n      tag_235\n      jump\t// in\n    tag_263:\n        /* \"#utility.yul\":9423:9562   */\n      swap1\n      pop\n        /* \"#utility.yul\":9150:9569   */\n      swap2\n      swap1\n      pop\n      jump\t// out\n        /* \"#utility.yul\":9575:9797   */\n    tag_28:\n        /* \"#utility.yul\":9668:9672   */\n      0x00\n        /* \"#utility.yul\":9706:9708   */\n      0x20\n        /* \"#utility.yul\":9695:9704   */\n      dup3\n        /* \"#utility.yul\":9691:9709   */\n      add\n        /* \"#utility.yul\":9683:9709   */\n      swap1\n      pop\n        /* \"#utility.yul\":9719:9790   */\n      tag_265\n        /* \"#utility.yul\":9787:9788   */\n      0x00\n        /* \"#utility.yul\":9776:9785   */\n      dup4\n        /* \"#utility.yul\":9772:9789   */\n      add\n        /* \"#utility.yul\":9763:9769   */\n      dup5\n        /* \"#utility.yul\":9719:9790   */\n      tag_240\n      jump\t// in\n    tag_265:\n        /* \"#utility.yul\":9575:9797   */\n      swap3\n      swap2\n      pop\n      pop\n      jump\t// out\n        /* \"#utility.yul\":9884:10031   */\n    tag_227:\n        /* \"#utility.yul\":9985:9996   */\n      0x00\n        /* \"#utility.yul\":10022:10025   */\n      dup2\n        /* \"#utility.yul\":10007:10025   */\n      swap1\n      pop\n        /* \"#utility.yul\":9884:10031   */\n      swap3\n      swap2\n      pop\n      pop\n      jump\t// out\n        /* \"#utility.yul\":10037:10206   */\n    tag_196:\n        /* \"#utility.yul\":10121:10132   */\n      0x00\n        /* \"#utility.yul\":10155:10161   */\n      dup3\n        /* \"#utility.yul\":10150:10153   */\n      dup3\n        /* \"#utility.yul\":10143:10162   */\n      mstore\n        /* \"#utility.yul\":10195:10199   */\n      0x20\n        /* \"#utility.yul\":10190:10193   */\n      dup3\n        /* \"#utility.yul\":10186:10200   */\n      add\n        /* \"#utility.yul\":10171:10200   */\n      swap1\n      pop\n        /* \"#utility.yul\":10037:10206   */\n      swap3\n      swap2\n      pop\n      pop\n      jump\t// out\n        /* \"#utility.yul\":10212:10517   */\n    tag_88:\n        /* \"#utility.yul\":10252:10255   */\n      0x00\n        /* \"#utility.yul\":10271:10291   */\n      tag_271\n        /* \"#utility.yul\":10289:10290   */\n      dup3\n        /* \"#utility.yul\":10271:10291   */\n      tag_243\n      jump\t// in\n    tag_271:\n        /* \"#utility.yul\":10266:10291   */\n      swap2\n      pop\n        /* \"#utility.yul\":10305:10325   */\n      tag_272\n        /* \"#utility.yul\":10323:10324   */\n      dup4\n        /* \"#utility.yul\":10305:10325   */\n      tag_243\n      jump\t// in\n    tag_272:\n        /* \"#utility.yul\":10300:10325   */\n      swap3\n      pop\n        /* \"#utility.yul\":10459:10460   */\n      dup3\n        /* \"#utility.yul\":10391:10457   */\n      0xffffffffffffffffffffffffffffffffffffffffffffffffffffffffffffffff\n        /* \"#utility.yul\":10387:10461   */\n      sub\n        /* \"#utility.yul\":10384:10385   */\n      dup3\n        /* \"#utility.yul\":10381:10462   */\n      gt\n        /* \"#utility.yul\":10378:10485   */\n      iszero\n      tag_273\n      jumpi\n        /* \"#utility.yul\":10465:10483   */\n      tag_274\n      tag_275\n      jump\t// in\n    tag_274:\n        /* \"#utility.yul\":10378:10485   */\n    tag_273:\n        /* \"#utility.yul\":10509:10510   */\n      dup3\n        /* \"#utility.yul\":10506:10507   */\n      dup3\n        /* \"#utility.yul\":10502:10511   */\n      add\n        /* \"#utility.yul\":10495:10511   */\n      swap1\n      pop\n        /* \"#utility.yul\":10212:10517   */\n      swap3\n      swap2\n      pop\n      pop\n      jump\t// out\n        /* \"#utility.yul\":10523:10708   */\n    tag_114:\n        /* \"#utility.yul\":10563:10564   */\n      0x00\n        /* \"#utility.yul\":10580:10600   */\n      tag_277\n        /* \"#utility.yul\":10598:10599   */\n      dup3\n        /* \"#utility.yul\":10580:10600   */\n      tag_243\n      jump\t// in\n    tag_277:\n        /* \"#utility.yul\":10575:10600   */\n      swap2\n      pop\n        /* \"#utility.yul\":10614:10634   */\n      tag_278\n        /* \"#utility.yul\":10632:10633   */\n      dup4\n        /* \"#utility.yul\":10614:10634   */\n      tag_243\n      jump\t// in\n    tag_278:\n        /* \"#utility.yul\":10609:10634   */\n      swap3\n      pop\n        /* \"#utility.yul\":10653:10654   */\n      dup3\n        /* \"#utility.yul\":10643:10678   */\n      tag_279\n      jumpi\n        /* \"#utility.yul\":10658:10676   */\n      tag_280\n      tag_281\n      jump\t// in\n    tag_280:\n        /* \"#utility.yul\":10643:10678   */\n    tag_279:\n        /* \"#utility.yul\":10700:10701   */\n      dup3\n        /* \"#utility.yul\":10697:10698   */\n      dup3\n        /* \"#utility.yul\":10693:10702   */\n      div\n        /* \"#utility.yul\":10688:10702   */\n      swap1\n      pop\n        /* \"#utility.yul\":10523:10708   */\n      swap3\n      swap2\n      pop\n      pop\n      jump\t// out\n        /* \"#utility.yul\":10714:11062   */\n    tag_112:\n        /* \"#utility.yul\":10754:10761   */\n      0x00\n        /* \"#utility.yul\":10777:10797   */\n      tag_283\n        /* \"#utility.yul\":10795:10796   */\n      dup3\n        /* \"#utility.yul\":10777:10797   */\n      tag_243\n      jump\t// in\n    tag_283:\n        /* \"#utility.yul\":10772:10797   */\n      swap2\n      pop\n        /* \"#utility.yul\":10811:10831   */\n      tag_284\n        /* \"#utility.yul\":10829:10830   */\n      dup4\n        /* \"#utility.yul\":10811:10831   */\n      tag_243\n      jump\t// in\n    tag_284:\n        /* \"#utility.yul\":10806:10831   */\n      swap3\n      pop\n        /* \"#utility.yul\":10999:11000   */\n      dup2\n        /* \"#utility.yul\":10931:10997   */\n      0xffffffffffffffffffffffffffffffffffffffffffffffffffffffffffffffff\n        /* \"#utility.yul\":10927:11001   */\n      div\n        /* \"#utility.yul\":10924:10925   */\n      dup4\n        /* \"#utility.yul\":10921:11002   */\n      gt\n        /* \"#utility.yul\":10916:10917   */\n      dup3\n        /* \"#utility.yul\":10909:10918   */\n      iszero\n        /* \"#utility.yul\":10902:10919   */\n      iszero\n        /* \"#utility.yul\":10898:11003   */\n      and\n        /* \"#utility.yul\":10895:11026   */\n      iszero\n      tag_285\n      jumpi\n        /* \"#utility.yul\":11006:11024   */\n      tag_286\n      tag_275\n      jump\t// in\n    tag_286:\n        /* \"#utility.yul\":10895:11026   */\n    tag_285:\n        /* \"#utility.yul\":11054:11055   */\n      dup3\n        /* \"#utility.yul\":11051:11052   */\n      dup3\n        /* \"#utility.yul\":11047:11056   */\n      mul\n        /* \"#utility.yul\":11036:11056   */\n      swap1\n      pop\n        /* \"#utility.yul\":10714:11062   */\n      swap3\n      swap2\n      pop\n      pop\n      jump\t// out\n        /* \"#utility.yul\":11068:11259   */\n    tag_116:\n        /* \"#utility.yul\":11108:11112   */\n      0x00\n        /* \"#utility.yul\":11128:11148   */\n      tag_288\n        /* \"#utility.yul\":11146:11147   */\n      dup3\n        /* \"#utility.yul\":11128:11148   */\n      tag_243\n      jump\t// in\n    tag_288:\n        /* \"#utility.yul\":11123:11148   */\n      swap2\n      pop\n        /* \"#utility.yul\":11162:11182   */\n      tag_289\n        /* \"#utility.yul\":11180:11181   */\n      dup4\n        /* \"#utility.yul\":11162:11182   */\n      tag_243\n      jump\t// in\n    tag_289:\n        /* \"#utility.yul\":11157:11182   */\n      swap3\n      pop\n        /* \"#utility.yul\":11201:11202   */\n      dup3\n        /* \"#utility.yul\":11198:11199   */\n      dup3\n        /* \"#utility.yul\":11195:11203   */\n      lt\n        /* \"#utility.yul\":11192:11226   */\n      iszero\n      tag_290\n      jumpi\n        /* \"#utility.yul\":11206:11224   */\n      tag_291\n      tag_275\n      jump\t// in\n    tag_291:\n        /* \"#utility.yul\":11192:11226   */\n    tag_290:\n        /* \"#utility.yul\":11251:11252   */\n      dup3\n        /* \"#utility.yul\":11248:11249   */\n      dup3\n        /* \"#utility.yul\":11244:11253   */\n      sub\n        /* \"#utility.yul\":11236:11253   */\n      swap1\n      pop\n        /* \"#utility.yul\":11068:11259   */\n      swap3\n      swap2\n      pop\n      pop\n      jump\t// out\n        /* \"#utility.yul\":11265:11361   */\n    tag_192:\n        /* \"#utility.yul\":11302:11309   */\n      0x00\n        /* \"#utility.yul\":11331:11355   */\n      tag_293\n        /* \"#utility.yul\":11349:11354   */\n      dup3\n        /* \"#utility.yul\":11331:11355   */\n      tag_294\n      jump\t// in\n    tag_293:\n        /* \"#utility.yul\":11320:11355   */\n      swap1\n      pop\n        /* \"#utility.yul\":11265:11361   */\n      swap2\n      swap1\n      pop\n      jump\t// out\n        /* \"#utility.yul\":11367:11471   */\n    tag_295:\n        /* \"#utility.yul\":11412:11419   */\n      0x00\n        /* \"#utility.yul\":11441:11465   */\n      tag_297\n        /* \"#utility.yul\":11459:11464   */\n      dup3\n        /* \"#utility.yul\":11441:11465   */\n      tag_294\n      jump\t// in\n    tag_297:\n        /* \"#utility.yul\":11430:11465   */\n      swap1\n      pop\n        /* \"#utility.yul\":11367:11471   */\n      swap2\n      swap1\n      pop\n      jump\t// out\n        /* \"#utility.yul\":11477:11567   */\n    tag_298:\n        /* \"#utility.yul\":11511:11518   */\n      0x00\n        /* \"#utility.yul\":11554:11559   */\n      dup2\n        /* \"#utility.yul\":11547:11560   */\n      iszero\n        /* \"#utility.yul\":11540:11561   */\n      iszero\n        /* \"#utility.yul\":11529:11561   */\n      swap1\n      pop\n        /* \"#utility.yul\":11477:11567   */\n      swap2\n      swap1\n      pop\n      jump\t// out\n        /* \"#utility.yul\":11573:11699   */\n    tag_294:\n        /* \"#utility.yul\":11610:11617   */\n      0x00\n        /* \"#utility.yul\":11650:11692   */\n      0xffffffffffffffffffffffffffffffffffffffff\n        /* \"#utility.yul\":11643:11648   */\n      dup3\n        /* \"#utility.yul\":11639:11693   */\n      and\n        /* \"#utility.yul\":11628:11693   */\n      swap1\n      pop\n        /* \"#utility.yul\":11573:11699   */\n      swap2\n      swap1\n      pop\n      jump\t// out\n        /* \"#utility.yul\":11705:11782   */\n    tag_243:\n        /* \"#utility.yul\":11742:11749   */\n      0x00\n        /* \"#utility.yul\":11771:11776   */\n      dup2\n        /* \"#utility.yul\":11760:11776   */\n      swap1\n      pop\n        /* \"#utility.yul\":11705:11782   */\n      swap2\n      swap1\n      pop\n      jump\t// out\n        /* \"#utility.yul\":11788:11968   */\n    tag_275:\n        /* \"#utility.yul\":11836:11913   */\n      0x4e487b7100000000000000000000000000000000000000000000000000000000\n        /* \"#utility.yul\":11833:11834   */\n      0x00\n        /* \"#utility.yul\":11826:11914   */\n      mstore\n        /* \"#utility.yul\":11933:11937   */\n      0x11\n        /* \"#utility.yul\":11930:11931   */\n      0x04\n        /* \"#utility.yul\":11923:11938   */\n      mstore\n        /* \"#utility.yul\":11957:11961   */\n      0x24\n        /* \"#utility.yul\":11954:11955   */\n      0x00\n        /* \"#utility.yul\":11947:11962   */\n      revert\n        /* \"#utility.yul\":11974:12154   */\n    tag_281:\n        /* \"#utility.yul\":12022:12099   */\n      0x4e487b7100000000000000000000000000000000000000000000000000000000\n        /* \"#utility.yul\":12019:12020   */\n      0x00\n        /* \"#utility.yul\":12012:12100   */\n      mstore\n        /* \"#utility.yul\":12119:12123   */\n      0x12\n        /* \"#utility.yul\":12116:12117   */\n      0x04\n        /* \"#utility.yul\":12109:12124   */\n      mstore\n        /* \"#utility.yul\":12143:12147   */\n      0x24\n        /* \"#utility.yul\":12140:12141   */\n      0x00\n        /* \"#utility.yul\":12133:12148   */\n      revert\n        /* \"#utility.yul\":12283:12400   */\n    tag_174:\n        /* \"#utility.yul\":12392:12393   */\n      0x00\n        /* \"#utility.yul\":12389:12390   */\n      dup1\n        /* \"#utility.yul\":12382:12394   */\n      revert\n        /* \"#utility.yul\":12406:12557   */\n    tag_198:\n        /* \"#utility.yul\":12546:12549   */\n      0x4300000000000000000000000000000000000000000000000000000000000000\n        /* \"#utility.yul\":12542:12543   */\n      0x00\n        /* \"#utility.yul\":12534:12540   */\n      dup3\n        /* \"#utility.yul\":12530:12544   */\n      add\n        /* \"#utility.yul\":12523:12550   */\n      mstore\n        /* \"#utility.yul\":12406:12557   */\n      pop\n      jump\t// out\n        /* \"#utility.yul\":12563:12788   */\n    tag_203:\n        /* \"#utility.yul\":12703:12737   */\n      0x4f776e61626c653a206e6577206f776e657220697320746865207a65726f2061\n        /* \"#utility.yul\":12699:12700   */\n      0x00\n        /* \"#utility.yul\":12691:12697   */\n      dup3\n        /* \"#utility.yul\":12687:12701   */\n      add\n        /* \"#utility.yul\":12680:12738   */\n      mstore\n        /* \"#utility.yul\":12772:12780   */\n      0x6464726573730000000000000000000000000000000000000000000000000000\n        /* \"#utility.yul\":12767:12769   */\n      0x20\n        /* \"#utility.yul\":12759:12765   */\n      dup3\n        /* \"#utility.yul\":12755:12770   */\n      add\n        /* \"#utility.yul\":12748:12781   */\n      mstore\n        /* \"#utility.yul\":12563:12788   */\n      pop\n      jump\t// out\n        /* \"#utility.yul\":12794:13039   */\n    tag_208:\n        /* \"#utility.yul\":12934:12968   */\n      0x416464726573733a20756e61626c6520746f2073656e642076616c75652c2072\n        /* \"#utility.yul\":12930:12931   */\n      0x00\n        /* \"#utility.yul\":12922:12928   */\n      dup3\n        /* \"#utility.yul\":12918:12932   */\n      add\n        /* \"#utility.yul\":12911:12969   */\n      mstore\n        /* \"#utility.yul\":13003:13031   */\n      0x6563697069656e74206d61792068617665207265766572746564000000000000\n        /* \"#utility.yul\":12998:13000   */\n      0x20\n        /* \"#utility.yul\":12990:12996   */\n      dup3\n        /* \"#utility.yul\":12986:13001   */\n      add\n        /* \"#utility.yul\":12979:13032   */\n      mstore\n        /* \"#utility.yul\":12794:13039   */\n      pop\n      jump\t// out\n        /* \"#utility.yul\":13045:13224   */\n    tag_213:\n        /* \"#utility.yul\":13185:13216   */\n      0x416464726573733a20696e73756666696369656e742062616c616e6365000000\n        /* \"#utility.yul\":13181:13182   */\n      0x00\n        /* \"#utility.yul\":13173:13179   */\n      dup3\n        /* \"#utility.yul\":13169:13183   */\n      add\n        /* \"#utility.yul\":13162:13217   */\n      mstore\n        /* \"#utility.yul\":13045:13224   */\n      pop\n      jump\t// out\n        /* \"#utility.yul\":13230:13408   */\n    tag_218:\n        /* \"#utility.yul\":13370:13400   */\n      0x63616c6c6572206973206e6f742074686520636f6e74726163746f7200000000\n        /* \"#utility.yul\":13366:13367   */\n      0x00\n        /* \"#utility.yul\":13358:13364   */\n      dup3\n        /* \"#utility.yul\":13354:13368   */\n      add\n        /* \"#utility.yul\":13347:13401   */\n      mstore\n        /* \"#utility.yul\":13230:13408   */\n      pop\n      jump\t// out\n        /* \"#utility.yul\":13414:13596   */\n    tag_223:\n        /* \"#utility.yul\":13554:13588   */\n      0x4f776e61626c653a2063616c6c6572206973206e6f7420746865206f776e6572\n        /* \"#utility.yul\":13550:13551   */\n      0x00\n        /* \"#utility.yul\":13542:13548   */\n      dup3\n        /* \"#utility.yul\":13538:13552   */\n      add\n        /* \"#utility.yul\":13531:13589   */\n      mstore\n        /* \"#utility.yul\":13414:13596   */\n      pop\n      jump\t// out\n        /* \"#utility.yul\":13602:13716   */\n    tag_229:\n      pop\n      jump\t// out\n        /* \"#utility.yul\":13722:13895   */\n    tag_234:\n        /* \"#utility.yul\":13862:13887   */\n      0x63616c6c6572206973206e6f74207468652061646d696e000000000000000000\n        /* \"#utility.yul\":13858:13859   */\n      0x00\n        /* \"#utility.yul\":13850:13856   */\n      dup3\n        /* \"#utility.yul\":13846:13860   */\n      add\n        /* \"#utility.yul\":13839:13888   */\n      mstore\n        /* \"#utility.yul\":13722:13895   */\n      pop\n      jump\t// out\n        /* \"#utility.yul\":13901:14075   */\n    tag_239:\n        /* \"#utility.yul\":14041:14067   */\n      0x63616c6c6572206973206e6f742074686520636c69656e740000000000000000\n        /* \"#utility.yul\":14037:14038   */\n      0x00\n        /* \"#utility.yul\":14029:14035   */\n      dup3\n        /* \"#utility.yul\":14025:14039   */\n      add\n        /* \"#utility.yul\":14018:14068   */\n      mstore\n        /* \"#utility.yul\":13901:14075   */\n      pop\n      jump\t// out\n        /* \"#utility.yul\":14081:14203   */\n    tag_162:\n        /* \"#utility.yul\":14154:14178   */\n      tag_317\n        /* \"#utility.yul\":14172:14177   */\n      dup2\n        /* \"#utility.yul\":14154:14178   */\n      tag_192\n      jump\t// in\n    tag_317:\n        /* \"#utility.yul\":14147:14152   */\n      dup2\n        /* \"#utility.yul\":14144:14179   */\n      eq\n        /* \"#utility.yul\":14134:14197   */\n      tag_318\n      jumpi\n        /* \"#utility.yul\":14193:14194   */\n      0x00\n        /* \"#utility.yul\":14190:14191   */\n      dup1\n        /* \"#utility.yul\":14183:14195   */\n      revert\n        /* \"#utility.yul\":14134:14197   */\n    tag_318:\n        /* \"#utility.yul\":14081:14203   */\n      pop\n      jump\t// out\n        /* \"#utility.yul\":14209:14347   */\n    tag_166:\n        /* \"#utility.yul\":14290:14322   */\n      tag_320\n        /* \"#utility.yul\":14316:14321   */\n      dup2\n        /* \"#utility.yul\":14290:14322   */\n      tag_295\n      jump\t// in\n    tag_320:\n        /* \"#utility.yul\":14283:14288   */\n      dup2\n        /* \"#utility.yul\":14280:14323   */\n      eq\n        /* \"#utility.yul\":14270:14341   */\n      tag_321\n      jumpi\n        /* \"#utility.yul\":14337:14338   */\n      0x00\n        /* \"#utility.yul\":14334:14335   */\n      dup1\n        /* \"#utility.yul\":14327:14339   */\n      revert\n        /* \"#utility.yul\":14270:14341   */\n    tag_321:\n        /* \"#utility.yul\":14209:14347   */\n      pop\n      jump\t// out\n        /* \"#utility.yul\":14353:14469   */\n    tag_170:\n        /* \"#utility.yul\":14423:14444   */\n      tag_323\n        /* \"#utility.yul\":14438:14443   */\n      dup2\n        /* \"#utility.yul\":14423:14444   */\n      tag_298\n      jump\t// in\n    tag_323:\n        /* \"#utility.yul\":14416:14421   */\n      dup2\n        /* \"#utility.yul\":14413:14445   */\n      eq\n        /* \"#utility.yul\":14403:14463   */\n      tag_324\n      jumpi\n        /* \"#utility.yul\":14459:14460   */\n      0x00\n        /* \"#utility.yul\":14456:14457   */\n      dup1\n        /* \"#utility.yul\":14449:14461   */\n      revert\n        /* \"#utility.yul\":14403:14463   */\n    tag_324:\n        /* \"#utility.yul\":14353:14469   */\n      pop\n      jump\t// out\n\n    auxdata: 0xa2646970667358221220421ad22003a573cb9f94b0053f7c489b2cc3e9dad88ed0018bd4fd9967938fc864736f6c63430008070033\n}\n",
				"bytecode": {
					"linkReferences": {},
					"object": "608060405234801561001057600080fd5b5061002d61002261003260201b60201c565b61003a60201b60201c565b6100fe565b600033905090565b60008060009054906101000a900473ffffffffffffffffffffffffffffffffffffffff169050816000806101000a81548173ffffffffffffffffffffffffffffffffffffffff021916908373ffffffffffffffffffffffffffffffffffffffff1602179055508173ffffffffffffffffffffffffffffffffffffffff168173ffffffffffffffffffffffffffffffffffffffff167f8be0079c531659141344cd1fd0a4f28419497f9722a3daafe3b4186f6b6457e060405160405180910390a35050565b61139c8061010d6000396000f3fe60806040526004361061009c5760003560e01c8063715018a611610064578063715018a614610170578063761768b6146101875780638da5cb5b146101b05780639464c8b8146101db578063d0e30db014610204578063f2fde38b1461020e5761009c565b806311571f30146100a1578063251d8cd5146100ca5780633bed7965146100f357806343928cfd1461011e5780637048027514610147575b600080fd5b3480156100ad57600080fd5b506100c860048036038101906100c39190610cb8565b610237565b005b3480156100d657600080fd5b506100f160048036038101906100ec9190610c8b565b61027f565b005b3480156100ff57600080fd5b506101086102a4565b6040516101159190610f81565b60405180910390f35b34801561012a57600080fd5b5061014560048036038101906101409190610c5e565b6102aa565b005b34801561015357600080fd5b5061016e60048036038101906101699190610c5e565b610339565b005b34801561017c57600080fd5b506101856103c0565b005b34801561019357600080fd5b506101ae60048036038101906101a99190610c5e565b6103d4565b005b3480156101bc57600080fd5b506101c56104c3565b6040516101d29190610e66565b60405180910390f35b3480156101e757600080fd5b5061020260048036038101906101fd9190610c8b565b6104ec565b005b61020c610519565b005b34801561021a57600080fd5b5061023560048036038101906102309190610c31565b610560565b005b61023f6105e4565b81600660026101000a81548160ff02191690831515021790555080600660036101000a81548160ff02191690831515021790555061027b610676565b5050565b610287610890565b80600660006101000a81548160ff02191690831515021790555050565b60055481565b6102b2610922565b80600260006101000a81548173ffffffffffffffffffffffffffffffffffffffff021916908373ffffffffffffffffffffffffffffffffffffffff1602179055508073ffffffffffffffffffffffffffffffffffffffff167f6c713924da8f1e694559181e3497cb03c970f0f7c023d913207d0410b531741e60405160405180910390a250565b80600360006101000a81548173ffffffffffffffffffffffffffffffffffffffff021916908373ffffffffffffffffffffffffffffffffffffffff1602179055508073ffffffffffffffffffffffffffffffffffffffff167f44d6d25963f097ad14f29f06854a01f575648a1ef82f30e562ccd3889717e33960405160405180910390a250565b6103c8610922565b6103d260006109a0565b565b6103dc610922565b60016005541115610422576040517f08c379a000000000000000000000000000000000000000000000000000000000815260040161041990610e81565b60405180910390fd5b80600160006101000a81548173ffffffffffffffffffffffffffffffffffffffff021916908373ffffffffffffffffffffffffffffffffffffffff1602179055506001600560008282546104769190610fb8565b925050819055508073ffffffffffffffffffffffffffffffffffffffff167f29dc23bcd72bfb02ec013f6350778cb6e5908dc02e5e1234385f27e32676b6e160405160405180910390a250565b60008060009054906101000a900473ffffffffffffffffffffffffffffffffffffffff16905090565b6104f4610a64565b80600660016101000a81548160ff021916908315150217905550610516610676565b50565b610521610a64565b60003490507f2a89b2e3d580398d6dc2db5e0f336b52602bbaa51afa9bb5cdf59239cf0d2bea816040516105559190610f81565b60405180910390a150565b610568610922565b600073ffffffffffffffffffffffffffffffffffffffff168173ffffffffffffffffffffffffffffffffffffffff1614156105d8576040517f08c379a00000000000000000000000000000000000000000000000000000000081526004016105cf90610ea1565b60405180910390fd5b6105e1816109a0565b50565b600360009054906101000a900473ffffffffffffffffffffffffffffffffffffffff1673ffffffffffffffffffffffffffffffffffffffff163373ffffffffffffffffffffffffffffffffffffffff1614610674576040517f08c379a000000000000000000000000000000000000000000000000000000000815260040161066b90610f41565b60405180910390fd5b565b60004790506000606460028361068c919061103f565b610696919061100e565b905080826106a49190611099565b915060011515600660009054906101000a900460ff1615151480156106dc575060011515600660019054906101000a900460ff161515145b80610719575060011515600660029054906101000a900460ff161515148015610718575060011515600660039054906101000a900460ff161515145b5b156107b95761076982600160009054906101000a900473ffffffffffffffffffffffffffffffffffffffff1673ffffffffffffffffffffffffffffffffffffffff16610af690919063ffffffff16565b6107b481600360009054906101000a900473ffffffffffffffffffffffffffffffffffffffff1673ffffffffffffffffffffffffffffffffffffffff16610af690919063ffffffff16565b61088c565b60011515600660029054906101000a900460ff1615151480156107ef575060001515600660039054906101000a900460ff161515145b1561088b5761083f82600260009054906101000a900473ffffffffffffffffffffffffffffffffffffffff1673ffffffffffffffffffffffffffffffffffffffff16610af690919063ffffffff16565b61088a81600360009054906101000a900473ffffffffffffffffffffffffffffffffffffffff1673ffffffffffffffffffffffffffffffffffffffff16610af690919063ffffffff16565b5b5b5050565b600160009054906101000a900473ffffffffffffffffffffffffffffffffffffffff1673ffffffffffffffffffffffffffffffffffffffff163373ffffffffffffffffffffffffffffffffffffffff1614610920576040517f08c379a000000000000000000000000000000000000000000000000000000000815260040161091790610f01565b60405180910390fd5b565b61092a610bea565b73ffffffffffffffffffffffffffffffffffffffff166109486104c3565b73ffffffffffffffffffffffffffffffffffffffff161461099e576040517f08c379a000000000000000000000000000000000000000000000000000000000815260040161099590610f21565b60405180910390fd5b565b60008060009054906101000a900473ffffffffffffffffffffffffffffffffffffffff169050816000806101000a81548173ffffffffffffffffffffffffffffffffffffffff021916908373ffffffffffffffffffffffffffffffffffffffff1602179055508173ffffffffffffffffffffffffffffffffffffffff168173ffffffffffffffffffffffffffffffffffffffff167f8be0079c531659141344cd1fd0a4f28419497f9722a3daafe3b4186f6b6457e060405160405180910390a35050565b600260009054906101000a900473ffffffffffffffffffffffffffffffffffffffff1673ffffffffffffffffffffffffffffffffffffffff163373ffffffffffffffffffffffffffffffffffffffff1614610af4576040517f08c379a0000000000000000000000000000000000000000000000000000000008152600401610aeb90610f61565b60405180910390fd5b565b80471015610b39576040517f08c379a0000000000000000000000000000000000000000000000000000000008152600401610b3090610ee1565b60405180910390fd5b60008273ffffffffffffffffffffffffffffffffffffffff1682604051610b5f90610e51565b60006040518083038185875af1925050503d8060008114610b9c576040519150601f19603f3d011682016040523d82523d6000602084013e610ba1565b606091505b5050905080610be5576040517f08c379a0000000000000000000000000000000000000000000000000000000008152600401610bdc90610ec1565b60405180910390fd5b505050565b600033905090565b600081359050610c0181611321565b92915050565b600081359050610c1681611338565b92915050565b600081359050610c2b8161134f565b92915050565b600060208284031215610c4757610c46611185565b5b6000610c5584828501610bf2565b91505092915050565b600060208284031215610c7457610c73611185565b5b6000610c8284828501610c07565b91505092915050565b600060208284031215610ca157610ca0611185565b5b6000610caf84828501610c1c565b91505092915050565b60008060408385031215610ccf57610cce611185565b5b6000610cdd85828601610c1c565b9250506020610cee85828601610c1c565b9150509250929050565b610d01816110cd565b82525050565b6000610d14600183610fa7565b9150610d1f8261118a565b602082019050919050565b6000610d37602683610fa7565b9150610d42826111b3565b604082019050919050565b6000610d5a603a83610fa7565b9150610d6582611202565b604082019050919050565b6000610d7d601d83610fa7565b9150610d8882611251565b602082019050919050565b6000610da0601c83610fa7565b9150610dab8261127a565b602082019050919050565b6000610dc3602083610fa7565b9150610dce826112a3565b602082019050919050565b6000610de6600083610f9c565b9150610df1826112cc565b600082019050919050565b6000610e09601783610fa7565b9150610e14826112cf565b602082019050919050565b6000610e2c601883610fa7565b9150610e37826112f8565b602082019050919050565b610e4b8161111d565b82525050565b6000610e5c82610dd9565b9150819050919050565b6000602082019050610e7b6000830184610cf8565b92915050565b60006020820190508181036000830152610e9a81610d07565b9050919050565b60006020820190508181036000830152610eba81610d2a565b9050919050565b60006020820190508181036000830152610eda81610d4d565b9050919050565b60006020820190508181036000830152610efa81610d70565b9050919050565b60006020820190508181036000830152610f1a81610d93565b9050919050565b60006020820190508181036000830152610f3a81610db6565b9050919050565b60006020820190508181036000830152610f5a81610dfc565b9050919050565b60006020820190508181036000830152610f7a81610e1f565b9050919050565b6000602082019050610f966000830184610e42565b92915050565b600081905092915050565b600082825260208201905092915050565b6000610fc38261111d565b9150610fce8361111d565b9250827fffffffffffffffffffffffffffffffffffffffffffffffffffffffffffffffff0382111561100357611002611127565b5b828201905092915050565b60006110198261111d565b91506110248361111d565b92508261103457611033611156565b5b828204905092915050565b600061104a8261111d565b91506110558361111d565b9250817fffffffffffffffffffffffffffffffffffffffffffffffffffffffffffffffff048311821515161561108e5761108d611127565b5b828202905092915050565b60006110a48261111d565b91506110af8361111d565b9250828210156110c2576110c1611127565b5b828203905092915050565b60006110d8826110fd565b9050919050565b60006110ea826110fd565b9050919050565b60008115159050919050565b600073ffffffffffffffffffffffffffffffffffffffff82169050919050565b6000819050919050565b7f4e487b7100000000000000000000000000000000000000000000000000000000600052601160045260246000fd5b7f4e487b7100000000000000000000000000000000000000000000000000000000600052601260045260246000fd5b600080fd5b7f4300000000000000000000000000000000000000000000000000000000000000600082015250565b7f4f776e61626c653a206e6577206f776e657220697320746865207a65726f206160008201527f6464726573730000000000000000000000000000000000000000000000000000602082015250565b7f416464726573733a20756e61626c6520746f2073656e642076616c75652c207260008201527f6563697069656e74206d61792068617665207265766572746564000000000000602082015250565b7f416464726573733a20696e73756666696369656e742062616c616e6365000000600082015250565b7f63616c6c6572206973206e6f742074686520636f6e74726163746f7200000000600082015250565b7f4f776e61626c653a2063616c6c6572206973206e6f7420746865206f776e6572600082015250565b50565b7f63616c6c6572206973206e6f74207468652061646d696e000000000000000000600082015250565b7f63616c6c6572206973206e6f742074686520636c69656e740000000000000000600082015250565b61132a816110cd565b811461133557600080fd5b50565b611341816110df565b811461134c57600080fd5b50565b611358816110f1565b811461136357600080fd5b5056fea2646970667358221220421ad22003a573cb9f94b0053f7c489b2cc3e9dad88ed0018bd4fd9967938fc864736f6c63430008070033",
					"opcodes": "PUSH1 0x80 PUSH1 0x40 MSTORE CALLVALUE DUP1 ISZERO PUSH2 0x10 JUMPI PUSH1 0x0 DUP1 REVERT JUMPDEST POP PUSH2 0x2D PUSH2 0x22 PUSH2 0x32 PUSH1 0x20 SHL PUSH1 0x20 SHR JUMP JUMPDEST PUSH2 0x3A PUSH1 0x20 SHL PUSH1 0x20 SHR JUMP JUMPDEST PUSH2 0xFE JUMP JUMPDEST PUSH1 0x0 CALLER SWAP1 POP SWAP1 JUMP JUMPDEST PUSH1 0x0 DUP1 PUSH1 0x0 SWAP1 SLOAD SWAP1 PUSH2 0x100 EXP SWAP1 DIV PUSH20 0xFFFFFFFFFFFFFFFFFFFFFFFFFFFFFFFFFFFFFFFF AND SWAP1 POP DUP2 PUSH1 0x0 DUP1 PUSH2 0x100 EXP DUP2 SLOAD DUP2 PUSH20 0xFFFFFFFFFFFFFFFFFFFFFFFFFFFFFFFFFFFFFFFF MUL NOT AND SWAP1 DUP4 PUSH20 0xFFFFFFFFFFFFFFFFFFFFFFFFFFFFFFFFFFFFFFFF AND MUL OR SWAP1 SSTORE POP DUP2 PUSH20 0xFFFFFFFFFFFFFFFFFFFFFFFFFFFFFFFFFFFFFFFF AND DUP2 PUSH20 0xFFFFFFFFFFFFFFFFFFFFFFFFFFFFFFFFFFFFFFFF AND PUSH32 0x8BE0079C531659141344CD1FD0A4F28419497F9722A3DAAFE3B4186F6B6457E0 PUSH1 0x40 MLOAD PUSH1 0x40 MLOAD DUP1 SWAP2 SUB SWAP1 LOG3 POP POP JUMP JUMPDEST PUSH2 0x139C DUP1 PUSH2 0x10D PUSH1 0x0 CODECOPY PUSH1 0x0 RETURN INVALID PUSH1 0x80 PUSH1 0x40 MSTORE PUSH1 0x4 CALLDATASIZE LT PUSH2 0x9C JUMPI PUSH1 0x0 CALLDATALOAD PUSH1 0xE0 SHR DUP1 PUSH4 0x715018A6 GT PUSH2 0x64 JUMPI DUP1 PUSH4 0x715018A6 EQ PUSH2 0x170 JUMPI DUP1 PUSH4 0x761768B6 EQ PUSH2 0x187 JUMPI DUP1 PUSH4 0x8DA5CB5B EQ PUSH2 0x1B0 JUMPI DUP1 PUSH4 0x9464C8B8 EQ PUSH2 0x1DB JUMPI DUP1 PUSH4 0xD0E30DB0 EQ PUSH2 0x204 JUMPI DUP1 PUSH4 0xF2FDE38B EQ PUSH2 0x20E JUMPI PUSH2 0x9C JUMP JUMPDEST DUP1 PUSH4 0x11571F30 EQ PUSH2 0xA1 JUMPI DUP1 PUSH4 0x251D8CD5 EQ PUSH2 0xCA JUMPI DUP1 PUSH4 0x3BED7965 EQ PUSH2 0xF3 JUMPI DUP1 PUSH4 0x43928CFD EQ PUSH2 0x11E JUMPI DUP1 PUSH4 0x70480275 EQ PUSH2 0x147 JUMPI JUMPDEST PUSH1 0x0 DUP1 REVERT JUMPDEST CALLVALUE DUP1 ISZERO PUSH2 0xAD JUMPI PUSH1 0x0 DUP1 REVERT JUMPDEST POP PUSH2 0xC8 PUSH1 0x4 DUP1 CALLDATASIZE SUB DUP2 ADD SWAP1 PUSH2 0xC3 SWAP2 SWAP1 PUSH2 0xCB8 JUMP JUMPDEST PUSH2 0x237 JUMP JUMPDEST STOP JUMPDEST CALLVALUE DUP1 ISZERO PUSH2 0xD6 JUMPI PUSH1 0x0 DUP1 REVERT JUMPDEST POP PUSH2 0xF1 PUSH1 0x4 DUP1 CALLDATASIZE SUB DUP2 ADD SWAP1 PUSH2 0xEC SWAP2 SWAP1 PUSH2 0xC8B JUMP JUMPDEST PUSH2 0x27F JUMP JUMPDEST STOP JUMPDEST CALLVALUE DUP1 ISZERO PUSH2 0xFF JUMPI PUSH1 0x0 DUP1 REVERT JUMPDEST POP PUSH2 0x108 PUSH2 0x2A4 JUMP JUMPDEST PUSH1 0x40 MLOAD PUSH2 0x115 SWAP2 SWAP1 PUSH2 0xF81 JUMP JUMPDEST PUSH1 0x40 MLOAD DUP1 SWAP2 SUB SWAP1 RETURN JUMPDEST CALLVALUE DUP1 ISZERO PUSH2 0x12A JUMPI PUSH1 0x0 DUP1 REVERT JUMPDEST POP PUSH2 0x145 PUSH1 0x4 DUP1 CALLDATASIZE SUB DUP2 ADD SWAP1 PUSH2 0x140 SWAP2 SWAP1 PUSH2 0xC5E JUMP JUMPDEST PUSH2 0x2AA JUMP JUMPDEST STOP JUMPDEST CALLVALUE DUP1 ISZERO PUSH2 0x153 JUMPI PUSH1 0x0 DUP1 REVERT JUMPDEST POP PUSH2 0x16E PUSH1 0x4 DUP1 CALLDATASIZE SUB DUP2 ADD SWAP1 PUSH2 0x169 SWAP2 SWAP1 PUSH2 0xC5E JUMP JUMPDEST PUSH2 0x339 JUMP JUMPDEST STOP JUMPDEST CALLVALUE DUP1 ISZERO PUSH2 0x17C JUMPI PUSH1 0x0 DUP1 REVERT JUMPDEST POP PUSH2 0x185 PUSH2 0x3C0 JUMP JUMPDEST STOP JUMPDEST CALLVALUE DUP1 ISZERO PUSH2 0x193 JUMPI PUSH1 0x0 DUP1 REVERT JUMPDEST POP PUSH2 0x1AE PUSH1 0x4 DUP1 CALLDATASIZE SUB DUP2 ADD SWAP1 PUSH2 0x1A9 SWAP2 SWAP1 PUSH2 0xC5E JUMP JUMPDEST PUSH2 0x3D4 JUMP JUMPDEST STOP JUMPDEST CALLVALUE DUP1 ISZERO PUSH2 0x1BC JUMPI PUSH1 0x0 DUP1 REVERT JUMPDEST POP PUSH2 0x1C5 PUSH2 0x4C3 JUMP JUMPDEST PUSH1 0x40 MLOAD PUSH2 0x1D2 SWAP2 SWAP1 PUSH2 0xE66 JUMP JUMPDEST PUSH1 0x40 MLOAD DUP1 SWAP2 SUB SWAP1 RETURN JUMPDEST CALLVALUE DUP1 ISZERO PUSH2 0x1E7 JUMPI PUSH1 0x0 DUP1 REVERT JUMPDEST POP PUSH2 0x202 PUSH1 0x4 DUP1 CALLDATASIZE SUB DUP2 ADD SWAP1 PUSH2 0x1FD SWAP2 SWAP1 PUSH2 0xC8B JUMP JUMPDEST PUSH2 0x4EC JUMP JUMPDEST STOP JUMPDEST PUSH2 0x20C PUSH2 0x519 JUMP JUMPDEST STOP JUMPDEST CALLVALUE DUP1 ISZERO PUSH2 0x21A JUMPI PUSH1 0x0 DUP1 REVERT JUMPDEST POP PUSH2 0x235 PUSH1 0x4 DUP1 CALLDATASIZE SUB DUP2 ADD SWAP1 PUSH2 0x230 SWAP2 SWAP1 PUSH2 0xC31 JUMP JUMPDEST PUSH2 0x560 JUMP JUMPDEST STOP JUMPDEST PUSH2 0x23F PUSH2 0x5E4 JUMP JUMPDEST DUP2 PUSH1 0x6 PUSH1 0x2 PUSH2 0x100 EXP DUP2 SLOAD DUP2 PUSH1 0xFF MUL NOT AND SWAP1 DUP4 ISZERO ISZERO MUL OR SWAP1 SSTORE POP DUP1 PUSH1 0x6 PUSH1 0x3 PUSH2 0x100 EXP DUP2 SLOAD DUP2 PUSH1 0xFF MUL NOT AND SWAP1 DUP4 ISZERO ISZERO MUL OR SWAP1 SSTORE POP PUSH2 0x27B PUSH2 0x676 JUMP JUMPDEST POP POP JUMP JUMPDEST PUSH2 0x287 PUSH2 0x890 JUMP JUMPDEST DUP1 PUSH1 0x6 PUSH1 0x0 PUSH2 0x100 EXP DUP2 SLOAD DUP2 PUSH1 0xFF MUL NOT AND SWAP1 DUP4 ISZERO ISZERO MUL OR SWAP1 SSTORE POP POP JUMP JUMPDEST PUSH1 0x5 SLOAD DUP2 JUMP JUMPDEST PUSH2 0x2B2 PUSH2 0x922 JUMP JUMPDEST DUP1 PUSH1 0x2 PUSH1 0x0 PUSH2 0x100 EXP DUP2 SLOAD DUP2 PUSH20 0xFFFFFFFFFFFFFFFFFFFFFFFFFFFFFFFFFFFFFFFF MUL NOT AND SWAP1 DUP4 PUSH20 0xFFFFFFFFFFFFFFFFFFFFFFFFFFFFFFFFFFFFFFFF AND MUL OR SWAP1 SSTORE POP DUP1 PUSH20 0xFFFFFFFFFFFFFFFFFFFFFFFFFFFFFFFFFFFFFFFF AND PUSH32 0x6C713924DA8F1E694559181E3497CB03C970F0F7C023D913207D0410B531741E PUSH1 0x40 MLOAD PUSH1 0x40 MLOAD DUP1 SWAP2 SUB SWAP1 LOG2 POP JUMP JUMPDEST DUP1 PUSH1 0x3 PUSH1 0x0 PUSH2 0x100 EXP DUP2 SLOAD DUP2 PUSH20 0xFFFFFFFFFFFFFFFFFFFFFFFFFFFFFFFFFFFFFFFF MUL NOT AND SWAP1 DUP4 PUSH20 0xFFFFFFFFFFFFFFFFFFFFFFFFFFFFFFFFFFFFFFFF AND MUL OR SWAP1 SSTORE POP DUP1 PUSH20 0xFFFFFFFFFFFFFFFFFFFFFFFFFFFFFFFFFFFFFFFF AND PUSH32 0x44D6D25963F097AD14F29F06854A01F575648A1EF82F30E562CCD3889717E339 PUSH1 0x40 MLOAD PUSH1 0x40 MLOAD DUP1 SWAP2 SUB SWAP1 LOG2 POP JUMP JUMPDEST PUSH2 0x3C8 PUSH2 0x922 JUMP JUMPDEST PUSH2 0x3D2 PUSH1 0x0 PUSH2 0x9A0 JUMP JUMPDEST JUMP JUMPDEST PUSH2 0x3DC PUSH2 0x922 JUMP JUMPDEST PUSH1 0x1 PUSH1 0x5 SLOAD GT ISZERO PUSH2 0x422 JUMPI PUSH1 0x40 MLOAD PUSH32 0x8C379A000000000000000000000000000000000000000000000000000000000 DUP2 MSTORE PUSH1 0x4 ADD PUSH2 0x419 SWAP1 PUSH2 0xE81 JUMP JUMPDEST PUSH1 0x40 MLOAD DUP1 SWAP2 SUB SWAP1 REVERT JUMPDEST DUP1 PUSH1 0x1 PUSH1 0x0 PUSH2 0x100 EXP DUP2 SLOAD DUP2 PUSH20 0xFFFFFFFFFFFFFFFFFFFFFFFFFFFFFFFFFFFFFFFF MUL NOT AND SWAP1 DUP4 PUSH20 0xFFFFFFFFFFFFFFFFFFFFFFFFFFFFFFFFFFFFFFFF AND MUL OR SWAP1 SSTORE POP PUSH1 0x1 PUSH1 0x5 PUSH1 0x0 DUP3 DUP3 SLOAD PUSH2 0x476 SWAP2 SWAP1 PUSH2 0xFB8 JUMP JUMPDEST SWAP3 POP POP DUP2 SWAP1 SSTORE POP DUP1 PUSH20 0xFFFFFFFFFFFFFFFFFFFFFFFFFFFFFFFFFFFFFFFF AND PUSH32 0x29DC23BCD72BFB02EC013F6350778CB6E5908DC02E5E1234385F27E32676B6E1 PUSH1 0x40 MLOAD PUSH1 0x40 MLOAD DUP1 SWAP2 SUB SWAP1 LOG2 POP JUMP JUMPDEST PUSH1 0x0 DUP1 PUSH1 0x0 SWAP1 SLOAD SWAP1 PUSH2 0x100 EXP SWAP1 DIV PUSH20 0xFFFFFFFFFFFFFFFFFFFFFFFFFFFFFFFFFFFFFFFF AND SWAP1 POP SWAP1 JUMP JUMPDEST PUSH2 0x4F4 PUSH2 0xA64 JUMP JUMPDEST DUP1 PUSH1 0x6 PUSH1 0x1 PUSH2 0x100 EXP DUP2 SLOAD DUP2 PUSH1 0xFF MUL NOT AND SWAP1 DUP4 ISZERO ISZERO MUL OR SWAP1 SSTORE POP PUSH2 0x516 PUSH2 0x676 JUMP JUMPDEST POP JUMP JUMPDEST PUSH2 0x521 PUSH2 0xA64 JUMP JUMPDEST PUSH1 0x0 CALLVALUE SWAP1 POP PUSH32 0x2A89B2E3D580398D6DC2DB5E0F336B52602BBAA51AFA9BB5CDF59239CF0D2BEA DUP2 PUSH1 0x40 MLOAD PUSH2 0x555 SWAP2 SWAP1 PUSH2 0xF81 JUMP JUMPDEST PUSH1 0x40 MLOAD DUP1 SWAP2 SUB SWAP1 LOG1 POP JUMP JUMPDEST PUSH2 0x568 PUSH2 0x922 JUMP JUMPDEST PUSH1 0x0 PUSH20 0xFFFFFFFFFFFFFFFFFFFFFFFFFFFFFFFFFFFFFFFF AND DUP2 PUSH20 0xFFFFFFFFFFFFFFFFFFFFFFFFFFFFFFFFFFFFFFFF AND EQ ISZERO PUSH2 0x5D8 JUMPI PUSH1 0x40 MLOAD PUSH32 0x8C379A000000000000000000000000000000000000000000000000000000000 DUP2 MSTORE PUSH1 0x4 ADD PUSH2 0x5CF SWAP1 PUSH2 0xEA1 JUMP JUMPDEST PUSH1 0x40 MLOAD DUP1 SWAP2 SUB SWAP1 REVERT JUMPDEST PUSH2 0x5E1 DUP2 PUSH2 0x9A0 JUMP JUMPDEST POP JUMP JUMPDEST PUSH1 0x3 PUSH1 0x0 SWAP1 SLOAD SWAP1 PUSH2 0x100 EXP SWAP1 DIV PUSH20 0xFFFFFFFFFFFFFFFFFFFFFFFFFFFFFFFFFFFFFFFF AND PUSH20 0xFFFFFFFFFFFFFFFFFFFFFFFFFFFFFFFFFFFFFFFF AND CALLER PUSH20 0xFFFFFFFFFFFFFFFFFFFFFFFFFFFFFFFFFFFFFFFF AND EQ PUSH2 0x674 JUMPI PUSH1 0x40 MLOAD PUSH32 0x8C379A000000000000000000000000000000000000000000000000000000000 DUP2 MSTORE PUSH1 0x4 ADD PUSH2 0x66B SWAP1 PUSH2 0xF41 JUMP JUMPDEST PUSH1 0x40 MLOAD DUP1 SWAP2 SUB SWAP1 REVERT JUMPDEST JUMP JUMPDEST PUSH1 0x0 SELFBALANCE SWAP1 POP PUSH1 0x0 PUSH1 0x64 PUSH1 0x2 DUP4 PUSH2 0x68C SWAP2 SWAP1 PUSH2 0x103F JUMP JUMPDEST PUSH2 0x696 SWAP2 SWAP1 PUSH2 0x100E JUMP JUMPDEST SWAP1 POP DUP1 DUP3 PUSH2 0x6A4 SWAP2 SWAP1 PUSH2 0x1099 JUMP JUMPDEST SWAP2 POP PUSH1 0x1 ISZERO ISZERO PUSH1 0x6 PUSH1 0x0 SWAP1 SLOAD SWAP1 PUSH2 0x100 EXP SWAP1 DIV PUSH1 0xFF AND ISZERO ISZERO EQ DUP1 ISZERO PUSH2 0x6DC JUMPI POP PUSH1 0x1 ISZERO ISZERO PUSH1 0x6 PUSH1 0x1 SWAP1 SLOAD SWAP1 PUSH2 0x100 EXP SWAP1 DIV PUSH1 0xFF AND ISZERO ISZERO EQ JUMPDEST DUP1 PUSH2 0x719 JUMPI POP PUSH1 0x1 ISZERO ISZERO PUSH1 0x6 PUSH1 0x2 SWAP1 SLOAD SWAP1 PUSH2 0x100 EXP SWAP1 DIV PUSH1 0xFF AND ISZERO ISZERO EQ DUP1 ISZERO PUSH2 0x718 JUMPI POP PUSH1 0x1 ISZERO ISZERO PUSH1 0x6 PUSH1 0x3 SWAP1 SLOAD SWAP1 PUSH2 0x100 EXP SWAP1 DIV PUSH1 0xFF AND ISZERO ISZERO EQ JUMPDEST JUMPDEST ISZERO PUSH2 0x7B9 JUMPI PUSH2 0x769 DUP3 PUSH1 0x1 PUSH1 0x0 SWAP1 SLOAD SWAP1 PUSH2 0x100 EXP SWAP1 DIV PUSH20 0xFFFFFFFFFFFFFFFFFFFFFFFFFFFFFFFFFFFFFFFF AND PUSH20 0xFFFFFFFFFFFFFFFFFFFFFFFFFFFFFFFFFFFFFFFF AND PUSH2 0xAF6 SWAP1 SWAP2 SWAP1 PUSH4 0xFFFFFFFF AND JUMP JUMPDEST PUSH2 0x7B4 DUP2 PUSH1 0x3 PUSH1 0x0 SWAP1 SLOAD SWAP1 PUSH2 0x100 EXP SWAP1 DIV PUSH20 0xFFFFFFFFFFFFFFFFFFFFFFFFFFFFFFFFFFFFFFFF AND PUSH20 0xFFFFFFFFFFFFFFFFFFFFFFFFFFFFFFFFFFFFFFFF AND PUSH2 0xAF6 SWAP1 SWAP2 SWAP1 PUSH4 0xFFFFFFFF AND JUMP JUMPDEST PUSH2 0x88C JUMP JUMPDEST PUSH1 0x1 ISZERO ISZERO PUSH1 0x6 PUSH1 0x2 SWAP1 SLOAD SWAP1 PUSH2 0x100 EXP SWAP1 DIV PUSH1 0xFF AND ISZERO ISZERO EQ DUP1 ISZERO PUSH2 0x7EF JUMPI POP PUSH1 0x0 ISZERO ISZERO PUSH1 0x6 PUSH1 0x3 SWAP1 SLOAD SWAP1 PUSH2 0x100 EXP SWAP1 DIV PUSH1 0xFF AND ISZERO ISZERO EQ JUMPDEST ISZERO PUSH2 0x88B JUMPI PUSH2 0x83F DUP3 PUSH1 0x2 PUSH1 0x0 SWAP1 SLOAD SWAP1 PUSH2 0x100 EXP SWAP1 DIV PUSH20 0xFFFFFFFFFFFFFFFFFFFFFFFFFFFFFFFFFFFFFFFF AND PUSH20 0xFFFFFFFFFFFFFFFFFFFFFFFFFFFFFFFFFFFFFFFF AND PUSH2 0xAF6 SWAP1 SWAP2 SWAP1 PUSH4 0xFFFFFFFF AND JUMP JUMPDEST PUSH2 0x88A DUP2 PUSH1 0x3 PUSH1 0x0 SWAP1 SLOAD SWAP1 PUSH2 0x100 EXP SWAP1 DIV PUSH20 0xFFFFFFFFFFFFFFFFFFFFFFFFFFFFFFFFFFFFFFFF AND PUSH20 0xFFFFFFFFFFFFFFFFFFFFFFFFFFFFFFFFFFFFFFFF AND PUSH2 0xAF6 SWAP1 SWAP2 SWAP1 PUSH4 0xFFFFFFFF AND JUMP JUMPDEST JUMPDEST JUMPDEST POP POP JUMP JUMPDEST PUSH1 0x1 PUSH1 0x0 SWAP1 SLOAD SWAP1 PUSH2 0x100 EXP SWAP1 DIV PUSH20 0xFFFFFFFFFFFFFFFFFFFFFFFFFFFFFFFFFFFFFFFF AND PUSH20 0xFFFFFFFFFFFFFFFFFFFFFFFFFFFFFFFFFFFFFFFF AND CALLER PUSH20 0xFFFFFFFFFFFFFFFFFFFFFFFFFFFFFFFFFFFFFFFF AND EQ PUSH2 0x920 JUMPI PUSH1 0x40 MLOAD PUSH32 0x8C379A000000000000000000000000000000000000000000000000000000000 DUP2 MSTORE PUSH1 0x4 ADD PUSH2 0x917 SWAP1 PUSH2 0xF01 JUMP JUMPDEST PUSH1 0x40 MLOAD DUP1 SWAP2 SUB SWAP1 REVERT JUMPDEST JUMP JUMPDEST PUSH2 0x92A PUSH2 0xBEA JUMP JUMPDEST PUSH20 0xFFFFFFFFFFFFFFFFFFFFFFFFFFFFFFFFFFFFFFFF AND PUSH2 0x948 PUSH2 0x4C3 JUMP JUMPDEST PUSH20 0xFFFFFFFFFFFFFFFFFFFFFFFFFFFFFFFFFFFFFFFF AND EQ PUSH2 0x99E JUMPI PUSH1 0x40 MLOAD PUSH32 0x8C379A000000000000000000000000000000000000000000000000000000000 DUP2 MSTORE PUSH1 0x4 ADD PUSH2 0x995 SWAP1 PUSH2 0xF21 JUMP JUMPDEST PUSH1 0x40 MLOAD DUP1 SWAP2 SUB SWAP1 REVERT JUMPDEST JUMP JUMPDEST PUSH1 0x0 DUP1 PUSH1 0x0 SWAP1 SLOAD SWAP1 PUSH2 0x100 EXP SWAP1 DIV PUSH20 0xFFFFFFFFFFFFFFFFFFFFFFFFFFFFFFFFFFFFFFFF AND SWAP1 POP DUP2 PUSH1 0x0 DUP1 PUSH2 0x100 EXP DUP2 SLOAD DUP2 PUSH20 0xFFFFFFFFFFFFFFFFFFFFFFFFFFFFFFFFFFFFFFFF MUL NOT AND SWAP1 DUP4 PUSH20 0xFFFFFFFFFFFFFFFFFFFFFFFFFFFFFFFFFFFFFFFF AND MUL OR SWAP1 SSTORE POP DUP2 PUSH20 0xFFFFFFFFFFFFFFFFFFFFFFFFFFFFFFFFFFFFFFFF AND DUP2 PUSH20 0xFFFFFFFFFFFFFFFFFFFFFFFFFFFFFFFFFFFFFFFF AND PUSH32 0x8BE0079C531659141344CD1FD0A4F28419497F9722A3DAAFE3B4186F6B6457E0 PUSH1 0x40 MLOAD PUSH1 0x40 MLOAD DUP1 SWAP2 SUB SWAP1 LOG3 POP POP JUMP JUMPDEST PUSH1 0x2 PUSH1 0x0 SWAP1 SLOAD SWAP1 PUSH2 0x100 EXP SWAP1 DIV PUSH20 0xFFFFFFFFFFFFFFFFFFFFFFFFFFFFFFFFFFFFFFFF AND PUSH20 0xFFFFFFFFFFFFFFFFFFFFFFFFFFFFFFFFFFFFFFFF AND CALLER PUSH20 0xFFFFFFFFFFFFFFFFFFFFFFFFFFFFFFFFFFFFFFFF AND EQ PUSH2 0xAF4 JUMPI PUSH1 0x40 MLOAD PUSH32 0x8C379A000000000000000000000000000000000000000000000000000000000 DUP2 MSTORE PUSH1 0x4 ADD PUSH2 0xAEB SWAP1 PUSH2 0xF61 JUMP JUMPDEST PUSH1 0x40 MLOAD DUP1 SWAP2 SUB SWAP1 REVERT JUMPDEST JUMP JUMPDEST DUP1 SELFBALANCE LT ISZERO PUSH2 0xB39 JUMPI PUSH1 0x40 MLOAD PUSH32 0x8C379A000000000000000000000000000000000000000000000000000000000 DUP2 MSTORE PUSH1 0x4 ADD PUSH2 0xB30 SWAP1 PUSH2 0xEE1 JUMP JUMPDEST PUSH1 0x40 MLOAD DUP1 SWAP2 SUB SWAP1 REVERT JUMPDEST PUSH1 0x0 DUP3 PUSH20 0xFFFFFFFFFFFFFFFFFFFFFFFFFFFFFFFFFFFFFFFF AND DUP3 PUSH1 0x40 MLOAD PUSH2 0xB5F SWAP1 PUSH2 0xE51 JUMP JUMPDEST PUSH1 0x0 PUSH1 0x40 MLOAD DUP1 DUP4 SUB DUP2 DUP6 DUP8 GAS CALL SWAP3 POP POP POP RETURNDATASIZE DUP1 PUSH1 0x0 DUP2 EQ PUSH2 0xB9C JUMPI PUSH1 0x40 MLOAD SWAP2 POP PUSH1 0x1F NOT PUSH1 0x3F RETURNDATASIZE ADD AND DUP3 ADD PUSH1 0x40 MSTORE RETURNDATASIZE DUP3 MSTORE RETURNDATASIZE PUSH1 0x0 PUSH1 0x20 DUP5 ADD RETURNDATACOPY PUSH2 0xBA1 JUMP JUMPDEST PUSH1 0x60 SWAP2 POP JUMPDEST POP POP SWAP1 POP DUP1 PUSH2 0xBE5 JUMPI PUSH1 0x40 MLOAD PUSH32 0x8C379A000000000000000000000000000000000000000000000000000000000 DUP2 MSTORE PUSH1 0x4 ADD PUSH2 0xBDC SWAP1 PUSH2 0xEC1 JUMP JUMPDEST PUSH1 0x40 MLOAD DUP1 SWAP2 SUB SWAP1 REVERT JUMPDEST POP POP POP JUMP JUMPDEST PUSH1 0x0 CALLER SWAP1 POP SWAP1 JUMP JUMPDEST PUSH1 0x0 DUP2 CALLDATALOAD SWAP1 POP PUSH2 0xC01 DUP2 PUSH2 0x1321 JUMP JUMPDEST SWAP3 SWAP2 POP POP JUMP JUMPDEST PUSH1 0x0 DUP2 CALLDATALOAD SWAP1 POP PUSH2 0xC16 DUP2 PUSH2 0x1338 JUMP JUMPDEST SWAP3 SWAP2 POP POP JUMP JUMPDEST PUSH1 0x0 DUP2 CALLDATALOAD SWAP1 POP PUSH2 0xC2B DUP2 PUSH2 0x134F JUMP JUMPDEST SWAP3 SWAP2 POP POP JUMP JUMPDEST PUSH1 0x0 PUSH1 0x20 DUP3 DUP5 SUB SLT ISZERO PUSH2 0xC47 JUMPI PUSH2 0xC46 PUSH2 0x1185 JUMP JUMPDEST JUMPDEST PUSH1 0x0 PUSH2 0xC55 DUP5 DUP3 DUP6 ADD PUSH2 0xBF2 JUMP JUMPDEST SWAP2 POP POP SWAP3 SWAP2 POP POP JUMP JUMPDEST PUSH1 0x0 PUSH1 0x20 DUP3 DUP5 SUB SLT ISZERO PUSH2 0xC74 JUMPI PUSH2 0xC73 PUSH2 0x1185 JUMP JUMPDEST JUMPDEST PUSH1 0x0 PUSH2 0xC82 DUP5 DUP3 DUP6 ADD PUSH2 0xC07 JUMP JUMPDEST SWAP2 POP POP SWAP3 SWAP2 POP POP JUMP JUMPDEST PUSH1 0x0 PUSH1 0x20 DUP3 DUP5 SUB SLT ISZERO PUSH2 0xCA1 JUMPI PUSH2 0xCA0 PUSH2 0x1185 JUMP JUMPDEST JUMPDEST PUSH1 0x0 PUSH2 0xCAF DUP5 DUP3 DUP6 ADD PUSH2 0xC1C JUMP JUMPDEST SWAP2 POP POP SWAP3 SWAP2 POP POP JUMP JUMPDEST PUSH1 0x0 DUP1 PUSH1 0x40 DUP4 DUP6 SUB SLT ISZERO PUSH2 0xCCF JUMPI PUSH2 0xCCE PUSH2 0x1185 JUMP JUMPDEST JUMPDEST PUSH1 0x0 PUSH2 0xCDD DUP6 DUP3 DUP7 ADD PUSH2 0xC1C JUMP JUMPDEST SWAP3 POP POP PUSH1 0x20 PUSH2 0xCEE DUP6 DUP3 DUP7 ADD PUSH2 0xC1C JUMP JUMPDEST SWAP2 POP POP SWAP3 POP SWAP3 SWAP1 POP JUMP JUMPDEST PUSH2 0xD01 DUP2 PUSH2 0x10CD JUMP JUMPDEST DUP3 MSTORE POP POP JUMP JUMPDEST PUSH1 0x0 PUSH2 0xD14 PUSH1 0x1 DUP4 PUSH2 0xFA7 JUMP JUMPDEST SWAP2 POP PUSH2 0xD1F DUP3 PUSH2 0x118A JUMP JUMPDEST PUSH1 0x20 DUP3 ADD SWAP1 POP SWAP2 SWAP1 POP JUMP JUMPDEST PUSH1 0x0 PUSH2 0xD37 PUSH1 0x26 DUP4 PUSH2 0xFA7 JUMP JUMPDEST SWAP2 POP PUSH2 0xD42 DUP3 PUSH2 0x11B3 JUMP JUMPDEST PUSH1 0x40 DUP3 ADD SWAP1 POP SWAP2 SWAP1 POP JUMP JUMPDEST PUSH1 0x0 PUSH2 0xD5A PUSH1 0x3A DUP4 PUSH2 0xFA7 JUMP JUMPDEST SWAP2 POP PUSH2 0xD65 DUP3 PUSH2 0x1202 JUMP JUMPDEST PUSH1 0x40 DUP3 ADD SWAP1 POP SWAP2 SWAP1 POP JUMP JUMPDEST PUSH1 0x0 PUSH2 0xD7D PUSH1 0x1D DUP4 PUSH2 0xFA7 JUMP JUMPDEST SWAP2 POP PUSH2 0xD88 DUP3 PUSH2 0x1251 JUMP JUMPDEST PUSH1 0x20 DUP3 ADD SWAP1 POP SWAP2 SWAP1 POP JUMP JUMPDEST PUSH1 0x0 PUSH2 0xDA0 PUSH1 0x1C DUP4 PUSH2 0xFA7 JUMP JUMPDEST SWAP2 POP PUSH2 0xDAB DUP3 PUSH2 0x127A JUMP JUMPDEST PUSH1 0x20 DUP3 ADD SWAP1 POP SWAP2 SWAP1 POP JUMP JUMPDEST PUSH1 0x0 PUSH2 0xDC3 PUSH1 0x20 DUP4 PUSH2 0xFA7 JUMP JUMPDEST SWAP2 POP PUSH2 0xDCE DUP3 PUSH2 0x12A3 JUMP JUMPDEST PUSH1 0x20 DUP3 ADD SWAP1 POP SWAP2 SWAP1 POP JUMP JUMPDEST PUSH1 0x0 PUSH2 0xDE6 PUSH1 0x0 DUP4 PUSH2 0xF9C JUMP JUMPDEST SWAP2 POP PUSH2 0xDF1 DUP3 PUSH2 0x12CC JUMP JUMPDEST PUSH1 0x0 DUP3 ADD SWAP1 POP SWAP2 SWAP1 POP JUMP JUMPDEST PUSH1 0x0 PUSH2 0xE09 PUSH1 0x17 DUP4 PUSH2 0xFA7 JUMP JUMPDEST SWAP2 POP PUSH2 0xE14 DUP3 PUSH2 0x12CF JUMP JUMPDEST PUSH1 0x20 DUP3 ADD SWAP1 POP SWAP2 SWAP1 POP JUMP JUMPDEST PUSH1 0x0 PUSH2 0xE2C PUSH1 0x18 DUP4 PUSH2 0xFA7 JUMP JUMPDEST SWAP2 POP PUSH2 0xE37 DUP3 PUSH2 0x12F8 JUMP JUMPDEST PUSH1 0x20 DUP3 ADD SWAP1 POP SWAP2 SWAP1 POP JUMP JUMPDEST PUSH2 0xE4B DUP2 PUSH2 0x111D JUMP JUMPDEST DUP3 MSTORE POP POP JUMP JUMPDEST PUSH1 0x0 PUSH2 0xE5C DUP3 PUSH2 0xDD9 JUMP JUMPDEST SWAP2 POP DUP2 SWAP1 POP SWAP2 SWAP1 POP JUMP JUMPDEST PUSH1 0x0 PUSH1 0x20 DUP3 ADD SWAP1 POP PUSH2 0xE7B PUSH1 0x0 DUP4 ADD DUP5 PUSH2 0xCF8 JUMP JUMPDEST SWAP3 SWAP2 POP POP JUMP JUMPDEST PUSH1 0x0 PUSH1 0x20 DUP3 ADD SWAP1 POP DUP2 DUP2 SUB PUSH1 0x0 DUP4 ADD MSTORE PUSH2 0xE9A DUP2 PUSH2 0xD07 JUMP JUMPDEST SWAP1 POP SWAP2 SWAP1 POP JUMP JUMPDEST PUSH1 0x0 PUSH1 0x20 DUP3 ADD SWAP1 POP DUP2 DUP2 SUB PUSH1 0x0 DUP4 ADD MSTORE PUSH2 0xEBA DUP2 PUSH2 0xD2A JUMP JUMPDEST SWAP1 POP SWAP2 SWAP1 POP JUMP JUMPDEST PUSH1 0x0 PUSH1 0x20 DUP3 ADD SWAP1 POP DUP2 DUP2 SUB PUSH1 0x0 DUP4 ADD MSTORE PUSH2 0xEDA DUP2 PUSH2 0xD4D JUMP JUMPDEST SWAP1 POP SWAP2 SWAP1 POP JUMP JUMPDEST PUSH1 0x0 PUSH1 0x20 DUP3 ADD SWAP1 POP DUP2 DUP2 SUB PUSH1 0x0 DUP4 ADD MSTORE PUSH2 0xEFA DUP2 PUSH2 0xD70 JUMP JUMPDEST SWAP1 POP SWAP2 SWAP1 POP JUMP JUMPDEST PUSH1 0x0 PUSH1 0x20 DUP3 ADD SWAP1 POP DUP2 DUP2 SUB PUSH1 0x0 DUP4 ADD MSTORE PUSH2 0xF1A DUP2 PUSH2 0xD93 JUMP JUMPDEST SWAP1 POP SWAP2 SWAP1 POP JUMP JUMPDEST PUSH1 0x0 PUSH1 0x20 DUP3 ADD SWAP1 POP DUP2 DUP2 SUB PUSH1 0x0 DUP4 ADD MSTORE PUSH2 0xF3A DUP2 PUSH2 0xDB6 JUMP JUMPDEST SWAP1 POP SWAP2 SWAP1 POP JUMP JUMPDEST PUSH1 0x0 PUSH1 0x20 DUP3 ADD SWAP1 POP DUP2 DUP2 SUB PUSH1 0x0 DUP4 ADD MSTORE PUSH2 0xF5A DUP2 PUSH2 0xDFC JUMP JUMPDEST SWAP1 POP SWAP2 SWAP1 POP JUMP JUMPDEST PUSH1 0x0 PUSH1 0x20 DUP3 ADD SWAP1 POP DUP2 DUP2 SUB PUSH1 0x0 DUP4 ADD MSTORE PUSH2 0xF7A DUP2 PUSH2 0xE1F JUMP JUMPDEST SWAP1 POP SWAP2 SWAP1 POP JUMP JUMPDEST PUSH1 0x0 PUSH1 0x20 DUP3 ADD SWAP1 POP PUSH2 0xF96 PUSH1 0x0 DUP4 ADD DUP5 PUSH2 0xE42 JUMP JUMPDEST SWAP3 SWAP2 POP POP JUMP JUMPDEST PUSH1 0x0 DUP2 SWAP1 POP SWAP3 SWAP2 POP POP JUMP JUMPDEST PUSH1 0x0 DUP3 DUP3 MSTORE PUSH1 0x20 DUP3 ADD SWAP1 POP SWAP3 SWAP2 POP POP JUMP JUMPDEST PUSH1 0x0 PUSH2 0xFC3 DUP3 PUSH2 0x111D JUMP JUMPDEST SWAP2 POP PUSH2 0xFCE DUP4 PUSH2 0x111D JUMP JUMPDEST SWAP3 POP DUP3 PUSH32 0xFFFFFFFFFFFFFFFFFFFFFFFFFFFFFFFFFFFFFFFFFFFFFFFFFFFFFFFFFFFFFFFF SUB DUP3 GT ISZERO PUSH2 0x1003 JUMPI PUSH2 0x1002 PUSH2 0x1127 JUMP JUMPDEST JUMPDEST DUP3 DUP3 ADD SWAP1 POP SWAP3 SWAP2 POP POP JUMP JUMPDEST PUSH1 0x0 PUSH2 0x1019 DUP3 PUSH2 0x111D JUMP JUMPDEST SWAP2 POP PUSH2 0x1024 DUP4 PUSH2 0x111D JUMP JUMPDEST SWAP3 POP DUP3 PUSH2 0x1034 JUMPI PUSH2 0x1033 PUSH2 0x1156 JUMP JUMPDEST JUMPDEST DUP3 DUP3 DIV SWAP1 POP SWAP3 SWAP2 POP POP JUMP JUMPDEST PUSH1 0x0 PUSH2 0x104A DUP3 PUSH2 0x111D JUMP JUMPDEST SWAP2 POP PUSH2 0x1055 DUP4 PUSH2 0x111D JUMP JUMPDEST SWAP3 POP DUP2 PUSH32 0xFFFFFFFFFFFFFFFFFFFFFFFFFFFFFFFFFFFFFFFFFFFFFFFFFFFFFFFFFFFFFFFF DIV DUP4 GT DUP3 ISZERO ISZERO AND ISZERO PUSH2 0x108E JUMPI PUSH2 0x108D PUSH2 0x1127 JUMP JUMPDEST JUMPDEST DUP3 DUP3 MUL SWAP1 POP SWAP3 SWAP2 POP POP JUMP JUMPDEST PUSH1 0x0 PUSH2 0x10A4 DUP3 PUSH2 0x111D JUMP JUMPDEST SWAP2 POP PUSH2 0x10AF DUP4 PUSH2 0x111D JUMP JUMPDEST SWAP3 POP DUP3 DUP3 LT ISZERO PUSH2 0x10C2 JUMPI PUSH2 0x10C1 PUSH2 0x1127 JUMP JUMPDEST JUMPDEST DUP3 DUP3 SUB SWAP1 POP SWAP3 SWAP2 POP POP JUMP JUMPDEST PUSH1 0x0 PUSH2 0x10D8 DUP3 PUSH2 0x10FD JUMP JUMPDEST SWAP1 POP SWAP2 SWAP1 POP JUMP JUMPDEST PUSH1 0x0 PUSH2 0x10EA DUP3 PUSH2 0x10FD JUMP JUMPDEST SWAP1 POP SWAP2 SWAP1 POP JUMP JUMPDEST PUSH1 0x0 DUP2 ISZERO ISZERO SWAP1 POP SWAP2 SWAP1 POP JUMP JUMPDEST PUSH1 0x0 PUSH20 0xFFFFFFFFFFFFFFFFFFFFFFFFFFFFFFFFFFFFFFFF DUP3 AND SWAP1 POP SWAP2 SWAP1 POP JUMP JUMPDEST PUSH1 0x0 DUP2 SWAP1 POP SWAP2 SWAP1 POP JUMP JUMPDEST PUSH32 0x4E487B7100000000000000000000000000000000000000000000000000000000 PUSH1 0x0 MSTORE PUSH1 0x11 PUSH1 0x4 MSTORE PUSH1 0x24 PUSH1 0x0 REVERT JUMPDEST PUSH32 0x4E487B7100000000000000000000000000000000000000000000000000000000 PUSH1 0x0 MSTORE PUSH1 0x12 PUSH1 0x4 MSTORE PUSH1 0x24 PUSH1 0x0 REVERT JUMPDEST PUSH1 0x0 DUP1 REVERT JUMPDEST PUSH32 0x4300000000000000000000000000000000000000000000000000000000000000 PUSH1 0x0 DUP3 ADD MSTORE POP JUMP JUMPDEST PUSH32 0x4F776E61626C653A206E6577206F776E657220697320746865207A65726F2061 PUSH1 0x0 DUP3 ADD MSTORE PUSH32 0x6464726573730000000000000000000000000000000000000000000000000000 PUSH1 0x20 DUP3 ADD MSTORE POP JUMP JUMPDEST PUSH32 0x416464726573733A20756E61626C6520746F2073656E642076616C75652C2072 PUSH1 0x0 DUP3 ADD MSTORE PUSH32 0x6563697069656E74206D61792068617665207265766572746564000000000000 PUSH1 0x20 DUP3 ADD MSTORE POP JUMP JUMPDEST PUSH32 0x416464726573733A20696E73756666696369656E742062616C616E6365000000 PUSH1 0x0 DUP3 ADD MSTORE POP JUMP JUMPDEST PUSH32 0x63616C6C6572206973206E6F742074686520636F6E74726163746F7200000000 PUSH1 0x0 DUP3 ADD MSTORE POP JUMP JUMPDEST PUSH32 0x4F776E61626C653A2063616C6C6572206973206E6F7420746865206F776E6572 PUSH1 0x0 DUP3 ADD MSTORE POP JUMP JUMPDEST POP JUMP JUMPDEST PUSH32 0x63616C6C6572206973206E6F74207468652061646D696E000000000000000000 PUSH1 0x0 DUP3 ADD MSTORE POP JUMP JUMPDEST PUSH32 0x63616C6C6572206973206E6F742074686520636C69656E740000000000000000 PUSH1 0x0 DUP3 ADD MSTORE POP JUMP JUMPDEST PUSH2 0x132A DUP2 PUSH2 0x10CD JUMP JUMPDEST DUP2 EQ PUSH2 0x1335 JUMPI PUSH1 0x0 DUP1 REVERT JUMPDEST POP JUMP JUMPDEST PUSH2 0x1341 DUP2 PUSH2 0x10DF JUMP JUMPDEST DUP2 EQ PUSH2 0x134C JUMPI PUSH1 0x0 DUP1 REVERT JUMPDEST POP JUMP JUMPDEST PUSH2 0x1358 DUP2 PUSH2 0x10F1 JUMP JUMPDEST DUP2 EQ PUSH2 0x1363 JUMPI PUSH1 0x0 DUP1 REVERT JUMPDEST POP JUMP INVALID LOG2 PUSH5 0x6970667358 0x22 SLT KECCAK256 TIMESTAMP BYTE 0xD2 KECCAK256 SUB 0xA5 PUSH20 0xCB9F94B0053F7C489B2CC3E9DAD88ED0018BD4FD SWAP10 PUSH8 0x938FC864736F6C63 NUMBER STOP ADDMOD SMOD STOP CALLER "
				},
				"gasEstimates": {
					"creation": {
						"codeDepositCost": "1004000",
						"executionCost": "infinite",
						"totalCost": "infinite"
					},
					"external": {
						"addAdmin(address)": "25972",
						"addClient(address)": "28214",
						"addContractor(address)": "infinite",
						"adminResolutionStatus(bool,bool)": "infinite",
						"contractorState()": "2474",
						"deposit()": "3605",
						"owner()": "2566",
						"renounceOwnership()": "30398",
						"taskCompletionStatus(bool)": "26896",
						"taskValidationStatus(bool)": "infinite",
						"transferOwnership(address)": "30857"
					},
					"internal": {
						"_checkAdmin()": "infinite",
						"_checkClient()": "infinite",
						"_checkContractor()": "infinite",
						"withdrawPayment()": "infinite"
					}
				},
				"methodIdentifiers": {
					"addAdmin(address)": "70480275",
					"addClient(address)": "43928cfd",
					"addContractor(address)": "761768b6",
					"adminResolutionStatus(bool,bool)": "11571f30",
					"contractorState()": "3bed7965",
					"deposit()": "d0e30db0",
					"owner()": "8da5cb5b",
					"renounceOwnership()": "715018a6",
					"taskCompletionStatus(bool)": "251d8cd5",
					"taskValidationStatus(bool)": "9464c8b8",
					"transferOwnership(address)": "f2fde38b"
				}
			},
			"storageLayout": {
				"storage": [
					{
						"astId": 7,
						"contract": "contracts/Escrow.sol:Escrow",
						"label": "_owner",
						"offset": 0,
						"slot": "0",
						"type": "t_address"
					},
					{
						"astId": 456,
						"contract": "contracts/Escrow.sol:Escrow",
						"label": "contractor",
						"offset": 0,
						"slot": "1",
						"type": "t_address_payable"
					},
					{
						"astId": 458,
						"contract": "contracts/Escrow.sol:Escrow",
						"label": "client",
						"offset": 0,
						"slot": "2",
						"type": "t_address_payable"
					},
					{
						"astId": 460,
						"contract": "contracts/Escrow.sol:Escrow",
						"label": "admin",
						"offset": 0,
						"slot": "3",
						"type": "t_address_payable"
					},
					{
						"astId": 464,
						"contract": "contracts/Escrow.sol:Escrow",
						"label": "_deposits",
						"offset": 0,
						"slot": "4",
						"type": "t_mapping(t_address,t_uint256)"
					},
					{
						"astId": 538,
						"contract": "contracts/Escrow.sol:Escrow",
						"label": "contractorState",
						"offset": 0,
						"slot": "5",
						"type": "t_uint256"
					},
					{
						"astId": 597,
						"contract": "contracts/Escrow.sol:Escrow",
						"label": "taskCompleted",
						"offset": 0,
						"slot": "6",
						"type": "t_bool"
					},
					{
						"astId": 599,
						"contract": "contracts/Escrow.sol:Escrow",
						"label": "taskValidated",
						"offset": 1,
						"slot": "6",
						"type": "t_bool"
					},
					{
						"astId": 601,
						"contract": "contracts/Escrow.sol:Escrow",
						"label": "adminResolution",
						"offset": 2,
						"slot": "6",
						"type": "t_bool"
					},
					{
						"astId": 603,
						"contract": "contracts/Escrow.sol:Escrow",
						"label": "adminPayContractor",
						"offset": 3,
						"slot": "6",
						"type": "t_bool"
					}
				],
				"types": {
					"t_address": {
						"encoding": "inplace",
						"label": "address",
						"numberOfBytes": "20"
					},
					"t_address_payable": {
						"encoding": "inplace",
						"label": "address payable",
						"numberOfBytes": "20"
					},
					"t_bool": {
						"encoding": "inplace",
						"label": "bool",
						"numberOfBytes": "1"
					},
					"t_mapping(t_address,t_uint256)": {
						"encoding": "mapping",
						"key": "t_address",
						"label": "mapping(address => uint256)",
						"numberOfBytes": "32",
						"value": "t_uint256"
					},
					"t_uint256": {
						"encoding": "inplace",
						"label": "uint256",
						"numberOfBytes": "32"
					}
				}
			},
			"userdoc": {
				"kind": "user",
				"methods": {},
				"version": 1
			}
		}
	}
}